{"contracts/MiMCSponge.sol":{"Hasher":{"abi":[{"inputs":[{"internalType":"uint256[2]","name":"_ins","type":"uint256[2]"},{"internalType":"uint256","name":"_k","type":"uint256"}],"name":"MiMC5Sponge","outputs":[{"internalType":"uint256","name":"h","type":"uint256"}],"stateMutability":"view","type":"function"}],"evm":{"assembly":"// RO data = 0/0 bytes\n// RW data = 640/66224 bytes\n// Stack size = 32768 bytes\n\n// Instructions = 24391\n// Code size = 82610 bytes\n\n      : @0 (gas: 2)\n     0: i32 a2 = a0 >> 0x10\n     3: jump @5 if a2 != 0\n      : @1 (gas: 4)\n     6: a1 = a1 + a0\n     9: i32 a1 = a1 + 0x1f\n    12: a1 = a1 & 0xffffffffffffffe0\n    15: jump @5 if a1 >u 65536\n      : @2 (gas: 3)\n    21: a2 = 0x20284\n    26: a3 = i32 [0x20284]\n    31: jump @4 if a3 >=u a1\n      : @3 (gas: 2)\n    34: u32 [0x20284] = a1\n    39: fallthrough\n      : @4 (gas: 4)\n    40: a1 = 0x20290\n    45: i32 a0 = a0 + 0\n    47: a0 = a0 + a1\n    50: ret\n      : @5 (gas: 1)\n    52: trap\n      : @6 (gas: 6)\n    53: sp = sp + 0xfffffffffffffff0\n    56: u64 [sp + 0x8] = ra\n    59: u64 [sp] = s0\n    61: s0 = a0 & 0x1\n    64: ecalli 2 // 'call_data_size'\n    66: fallthrough\n      : @7 (gas: 2)\n    67: u32 [0x20280] = a0\n    72: jump @9 if s0 == 0\n      : @8 (gas: 1)\n    75: ra = 2, jump @10\n      : @9 [@dyn 1] (gas: 1)\n    79: ra = 4, jump @71\n      : @10 [@dyn 2] (gas: 13)\n    84: sp = sp + 0xfffffffffffffe40\n    88: u64 [sp + 0x1b8] = ra\n    92: u64 [sp + 0x1b0] = s0\n    96: u64 [sp + 0x1a8] = s1\n   100: s0 = sp + 0x1c0\n   104: sp = sp & 0xffffffffffffffe0\n   107: u64 [sp + 344] = 0\n   111: u64 [sp + 336] = 0\n   115: u64 [sp + 328] = 0\n   119: u64 [sp + 320] = 0\n   123: i32 a0 = sp + 0x140\n   127: ecalli 7 // 'value_transferred'\n   129: fallthrough\n      : @11 (gas: 8)\n   130: a0 = u64 [sp + 0x150]\n   134: a1 = u64 [sp + 0x158]\n   138: a2 = u64 [sp + 0x148]\n   142: a3 = u64 [sp + 0x140]\n   146: a1 = a1 | a2\n   149: a0 = a0 | a3\n   152: a0 = a0 | a1\n   155: jump @63 if a0 != 0\n      : @12 (gas: 20)\n   159: a0 = u64 [0x20000]\n   164: a1 = u64 [0x20008]\n   169: a2 = u64 [0x20010]\n   174: u64 [sp + 0x198] = a0\n   178: u64 [sp + 0x190] = a1\n   182: u64 [sp + 376] = 0\n   186: u64 [sp + 0x188] = a2\n   190: a0 = u64 [0x20018]\n   195: u64 [sp + 368] = 0\n   199: u64 [sp + 360] = 0\n   203: u64 [sp + 352] = 0\n   207: u64 [sp + 0x180] = a0\n   211: i32 a1 = sp + 0x160\n   215: i32 a3 = sp + 0x180\n   219: a2 = 0xffffffffffffffff\n   222: a4 = 0x20\n   225: a0 = 0\n   227: ra = 0x6\n   230: ecalli 6 // 'set_storage'\n   232: fallthrough\n      : @13 [@dyn 3] (gas: 51)\n   233: t2 = 0x20284\n   238: s1 = 0x20290\n   243: a5 = i32 [0x20284]\n   248: a0 = 0x3000000000000\n   258: u64 [0x202e8] = a0\n   263: u64 [0x202e0] = 0\n   268: u64 [0x202d8] = 0\n   273: u64 [0x202d0] = 0\n   278: u64 [0x20328] = 0\n   283: u64 [0x20320] = 0\n   288: u64 [0x20318] = 0\n   293: u64 [0x20310] = 0\n   298: u64 [sp + 0x120] = a0\n   302: u64 [sp + 0x128] = a0\n   306: u64 [sp + 0x130] = a0\n   310: u64 [sp + 0x138] = a0\n   314: u64 [sp + 0x100] = a0\n   318: u64 [sp + 0x108] = a0\n   322: u64 [sp + 0x110] = a0\n   326: u64 [sp + 0x118] = a0\n   330: u64 [sp + 0xd8] = a0\n   334: u64 [sp + 0xe8] = a0\n   338: u64 [sp + 0xf0] = a0\n   342: u64 [sp + 0xf8] = a0\n   346: u64 [sp + 0xb8] = a0\n   350: u64 [sp + 0xc0] = a0\n   354: u64 [sp + 0xc8] = a0\n   358: u64 [sp + 0xd0] = a0\n   362: u64 [sp + 0x98] = a0\n   366: u64 [sp + 0xa0] = a0\n   370: u64 [sp + 0xa8] = a0\n   374: u64 [sp + 0xb0] = a0\n   378: u64 [sp + 0x78] = a0\n   381: u64 [sp + 0x80] = a0\n   385: u64 [sp + 0x88] = a0\n   389: u64 [sp + 0x90] = a0\n   393: u64 [sp + 0x58] = a0\n   396: u64 [sp + 0x60] = a0\n   399: u64 [sp + 0x68] = a0\n   402: u64 [sp + 0x70] = a0\n   405: u64 [sp + 0x38] = a0\n   408: u64 [sp + 0x40] = a0\n   411: u64 [sp + 0x48] = a0\n   414: u64 [sp + 0x50] = a0\n   417: u64 [sp + 0x18] = a0\n   420: u64 [sp + 0x20] = a0\n   423: u64 [sp + 0x28] = a0\n   426: u64 [sp + 0x30] = a0\n   429: u64 [sp + 0x10] = a0\n   432: u64 [sp + 0xe0] = t2\n   436: jump @15 if a5 >u 191\n      : @14 (gas: 12)\n   441: a5 = u64 [sp + 0xe0]\n   445: u32 [a5 + 0] = 0xc0\n   449: t2 = u64 [sp + 0xe0]\n   453: a5 = u64 [0x20020]\n   458: a0 = u64 [0x20028]\n   463: a4 = u64 [0x20030]\n   468: a2 = u64 [0x20038]\n   473: u64 [0x20348] = a5\n   478: u64 [0x20340] = a0\n   483: u64 [0x20338] = a4\n   488: u64 [0x20330] = a2\n   493: jump @16\n      : @15 (gas: 12)\n   495: u64 [sp + 0x8] = a5\n   498: a5 = u64 [0x20020]\n   503: a0 = u64 [0x20028]\n   508: a4 = u64 [0x20030]\n   513: u64 [0x20348] = a5\n   518: a5 = u64 [sp + 0x8]\n   521: a2 = u64 [0x20038]\n   526: u64 [0x20340] = a0\n   531: u64 [0x20338] = a4\n   536: a4 = 0xdf\n   540: u64 [0x20330] = a2\n   545: jump @45 if a4 <u a5\n      : @16 (gas: 9)\n   549: a2 = u64 [0x20040]\n   554: a1 = u64 [0x20048]\n   559: a0 = u64 [0x20050]\n   564: a3 = u64 [0x20058]\n   569: u64 [0x20368] = a2\n   574: u64 [0x20360] = a1\n   579: u64 [0x20358] = a0\n   584: u64 [0x20350] = a3\n   589: fallthrough\n      : @17 (gas: 9)\n   590: a0 = u64 [0x20060]\n   595: a1 = u64 [0x20068]\n   600: a2 = u64 [0x20070]\n   605: a3 = u64 [0x20078]\n   610: u64 [0x20388] = a0\n   615: u64 [0x20380] = a1\n   620: u64 [0x20378] = a2\n   625: u64 [0x20370] = a3\n   630: fallthrough\n      : @18 (gas: 10)\n   631: u32 [t2 + 0] = 0x120\n   635: a0 = u64 [0x20080]\n   640: a1 = u64 [0x20088]\n   645: a2 = u64 [0x20090]\n   650: a3 = u64 [0x20098]\n   655: u64 [0x203a8] = a0\n   660: u64 [0x203a0] = a1\n   665: u64 [0x20398] = a2\n   670: u64 [0x20390] = a3\n   675: fallthrough\n      : @19 (gas: 9)\n   676: a0 = u64 [0x200a0]\n   681: a1 = u64 [0x200a8]\n   686: a2 = u64 [0x200b0]\n   691: a3 = u64 [0x200b8]\n   696: u64 [0x203c8] = a0\n   701: u64 [0x203c0] = a1\n   706: u64 [0x203b8] = a2\n   711: u64 [0x203b0] = a3\n   716: fallthrough\n      : @20 (gas: 9)\n   717: a0 = u64 [0x200c0]\n   722: a1 = u64 [0x200c8]\n   727: a2 = u64 [0x200d0]\n   732: a3 = u64 [0x200d8]\n   737: u64 [0x203e8] = a0\n   742: u64 [0x203e0] = a1\n   747: u64 [0x203d8] = a2\n   752: u64 [0x203d0] = a3\n   757: fallthrough\n      : @21 (gas: 10)\n   758: u32 [t2 + 0] = 0x180\n   762: a0 = u64 [0x200e0]\n   767: a1 = u64 [0x200e8]\n   772: a2 = u64 [0x200f0]\n   777: a3 = u64 [0x200f8]\n   782: u64 [0x20408] = a0\n   787: u64 [0x20400] = a1\n   792: u64 [0x203f8] = a2\n   797: u64 [0x203f0] = a3\n   802: fallthrough\n      : @22 (gas: 9)\n   803: a0 = u64 [0x20100]\n   808: a1 = u64 [0x20108]\n   813: a2 = u64 [0x20110]\n   818: a3 = u64 [0x20118]\n   823: u64 [0x20428] = a0\n   828: u64 [0x20420] = a1\n   833: u64 [0x20418] = a2\n   838: u64 [0x20410] = a3\n   843: fallthrough\n      : @23 (gas: 10)\n   844: u32 [t2 + 0] = 0x1c0\n   848: a0 = u64 [0x20120]\n   853: a1 = u64 [0x20128]\n   858: a2 = u64 [0x20130]\n   863: a3 = u64 [0x20138]\n   868: u64 [0x20448] = a0\n   873: u64 [0x20440] = a1\n   878: u64 [0x20438] = a2\n   883: u64 [0x20430] = a3\n   888: fallthrough\n      : @24 (gas: 9)\n   889: a0 = u64 [0x20140]\n   894: a1 = u64 [0x20148]\n   899: a2 = u64 [0x20150]\n   904: a3 = u64 [0x20158]\n   909: u64 [0x20468] = a0\n   914: u64 [0x20460] = a1\n   919: u64 [0x20458] = a2\n   924: u64 [0x20450] = a3\n   929: fallthrough\n      : @25 (gas: 10)\n   930: u32 [t2 + 0] = 0x200\n   934: a0 = u64 [0x20160]\n   939: a1 = u64 [0x20168]\n   944: a2 = u64 [0x20170]\n   949: a3 = u64 [0x20178]\n   954: u64 [0x20488] = a0\n   959: u64 [0x20480] = a1\n   964: u64 [0x20478] = a2\n   969: u64 [0x20470] = a3\n   974: fallthrough\n      : @26 (gas: 9)\n   975: a0 = u64 [0x20180]\n   980: a1 = u64 [0x20188]\n   985: a2 = u64 [0x20190]\n   990: a3 = u64 [0x20198]\n   995: u64 [0x204a8] = a0\n  1000: u64 [0x204a0] = a1\n  1005: u64 [0x20498] = a2\n  1010: u64 [0x20490] = a3\n  1015: fallthrough\n      : @27 (gas: 10)\n  1016: u32 [t2 + 0] = 0x240\n  1020: a0 = u64 [0x201a0]\n  1025: a1 = u64 [0x201a8]\n  1030: a2 = u64 [0x201b0]\n  1035: a3 = u64 [0x201b8]\n  1040: u64 [0x204c8] = a0\n  1045: u64 [0x204c0] = a1\n  1050: u64 [0x204b8] = a2\n  1055: u64 [0x204b0] = a3\n  1060: fallthrough\n      : @28 (gas: 9)\n  1061: a0 = u64 [0x201c0]\n  1066: a1 = u64 [0x201c8]\n  1071: a2 = u64 [0x201d0]\n  1076: a3 = u64 [0x201d8]\n  1081: u64 [0x204e8] = a0\n  1086: u64 [0x204e0] = a1\n  1091: u64 [0x204d8] = a2\n  1096: u64 [0x204d0] = a3\n  1101: fallthrough\n      : @29 (gas: 10)\n  1102: u32 [t2 + 0] = 0x280\n  1106: a0 = u64 [0x201e0]\n  1111: a1 = u64 [0x201e8]\n  1116: a2 = u64 [0x201f0]\n  1121: a3 = u64 [0x201f8]\n  1126: u64 [0x20508] = a0\n  1131: u64 [0x20500] = a1\n  1136: u64 [0x204f8] = a2\n  1141: u64 [0x204f0] = a3\n  1146: fallthrough\n      : @30 (gas: 9)\n  1147: a0 = u64 [0x20200]\n  1152: a1 = u64 [0x20208]\n  1157: a2 = u64 [0x20210]\n  1162: a3 = u64 [0x20218]\n  1167: u64 [0x20528] = a0\n  1172: u64 [0x20520] = a1\n  1177: u64 [0x20518] = a2\n  1182: u64 [0x20510] = a3\n  1187: fallthrough\n      : @31 (gas: 10)\n  1188: u32 [t2 + 0] = 0x2c0\n  1192: a0 = u64 [0x20220]\n  1197: a1 = u64 [0x20228]\n  1202: a2 = u64 [0x20230]\n  1207: a3 = u64 [0x20238]\n  1212: u64 [0x20548] = a0\n  1217: u64 [0x20540] = a1\n  1222: u64 [0x20538] = a2\n  1227: u64 [0x20530] = a3\n  1232: fallthrough\n      : @32 (gas: 10)\n  1233: a0 = u64 [0x20240]\n  1238: a1 = u64 [0x20248]\n  1243: a2 = u64 [0x20250]\n  1248: a3 = u64 [0x20258]\n  1253: u64 [0x20568] = a0\n  1258: u64 [0x20560] = a1\n  1263: u64 [0x20558] = a2\n  1268: u64 [0x20550] = a3\n  1273: u32 [t2 + 0] = 0x300\n  1277: jump @34\n      : @33 (gas: 2)\n  1279: u32 [0x20284] = 0x300\n  1286: fallthrough\n      : @34 (gas: 24)\n  1287: a2 = u64 [0x20260]\n  1292: t0 = 0\n  1294: t1 = 0\n  1296: ra = 0\n  1298: u64 [sp + 312] = 0\n  1302: a1 = 0\n  1304: a0 = 0\n  1306: u64 [sp + 304] = 0\n  1310: u64 [0x20588] = a2\n  1315: a2 = u64 [0x20268]\n  1320: a3 = u64 [0x20270]\n  1325: a4 = u64 [0x20278]\n  1330: u64 [sp + 208] = 0x1ffe0\n  1337: u64 [0x20580] = a2\n  1342: u64 [0x20578] = a3\n  1347: u64 [sp + 0xd8] = s1\n  1351: u64 [0x20570] = a4\n  1356: s1 = u64 [sp + 0x138]\n  1360: a2 = 0x80\n  1364: i32 a3 = sp + 0x160\n  1368: u64 [sp + 0xc8] = a3\n  1372: i32 a3 = sp + 0x180\n  1376: u64 [sp + 0xc0] = a3\n  1380: jump @37\n      : @35 (gas: 52)\n  1383: i32 a3 = a2 + 0\n  1385: a4 = u64 [sp + 0xd8]\n  1389: a3 = a3 + a4\n  1392: a4 = u64 [a3 + 0x18]\n  1395: a5 = a2 + 0x20\n  1398: u64 [sp + 0x128] = a5\n  1402: a2 = a5 <u a2\n  1405: a5 = a1 + a2\n  1408: u64 [sp + 0x120] = a5\n  1412: a1 = a5 <u a1\n  1415: a1 = a2 if a2 == 0\n  1418: a1 = a1 + a0\n  1421: u64 [sp + 0x118] = a1\n  1425: a0 = a1 <u a0\n  1428: a1 = u64 [sp + 0x130]\n  1432: a1 = a1 + a0\n  1435: u64 [sp + 0x130] = a1\n  1439: a5 = t0 + 0x1\n  1442: u64 [sp + 0x108] = a5\n  1446: a0 = a5 << 0x38\n  1449: u64 [sp + 0x178] = a0\n  1453: a0 = u64 [a3 + 0x10]\n  1456: u64 [sp + 0x198] = a4\n  1460: a1 = u64 [a3]\n  1462: a2 = u64 [a3 + 0x8]\n  1465: u64 [sp + 0x190] = a0\n  1469: a0 = a5 <u 0x1\n  1472: a0 = a0 + t1\n  1475: u64 [sp + 0x110] = a0\n  1479: u64 [sp + 0x188] = a2\n  1483: a0 = a0 | a5\n  1486: a0 = a0 <u 0x1\n  1489: a0 = a0 + ra\n  1492: u64 [sp + 0xf8] = a0\n  1496: u64 [sp + 0x180] = a1\n  1500: a0 = a0 <u ra\n  1503: a0 = a0 + s1\n  1506: u64 [sp + 0x100] = a0\n  1510: u64 [sp + 368] = 0\n  1514: u64 [sp + 360] = 0\n  1518: u64 [sp + 352] = 0\n  1522: a2 = 0xffffffffffffffff\n  1525: a4 = 0x20\n  1528: a0 = 0\n  1530: a1 = u64 [sp + 0xc8]\n  1534: a3 = u64 [sp + 0xc0]\n  1538: u64 [sp + 0x138] = s1\n  1542: s1 = t0\n  1544: u64 [sp + 0xe8] = t1\n  1548: u64 [sp + 0xf0] = ra\n  1552: ecalli 6 // 'set_storage'\n  1554: fallthrough\n      : @36 (gas: 16)\n  1555: t2 = u64 [sp + 0xe0]\n  1559: a3 = s1 <u 0x13\n  1562: a0 = u64 [sp + 0xe8]\n  1566: a3 = 0 if a0 != 0\n  1568: a0 = u64 [sp + 0x138]\n  1572: a1 = u64 [sp + 0xf0]\n  1576: a0 = a0 | a1\n  1579: a3 = 0 if a0 != 0\n  1581: t0 = u64 [sp + 0x108]\n  1585: t1 = u64 [sp + 0x110]\n  1589: ra = u64 [sp + 0xf8]\n  1593: s1 = u64 [sp + 0x100]\n  1597: a2 = u64 [sp + 0x128]\n  1601: a1 = u64 [sp + 0x120]\n  1605: a0 = u64 [sp + 0x118]\n  1609: jump @39 if a3 == 0\n      : @37 (gas: 5)\n  1612: a4 = i32 [t2]\n  1614: a3 = a2 + 0x3f\n  1617: a5 = u64 [sp + 0xd0]\n  1621: a3 = a3 & a5\n  1624: jump @35 if a4 >=u a3\n      : @38 (gas: 2)\n  1628: u32 [t2] = a3\n  1630: jump @35\n      : @39 (gas: 2)\n  1633: a0 = i32 [t2]\n  1635: jump @41 if a0 >u 95\n      : @40 (gas: 3)\n  1639: a0 = 0x60\n  1642: u32 [t2] = a0\n  1644: fallthrough\n      : @41 (gas: 17)\n  1645: a4 = u64 [sp + 0xd8]\n  1649: a1 = u64 [a4 + 0x48]\n  1652: a2 = u64 [a4 + 0x58]\n  1655: a3 = u64 [a4 + 0x40]\n  1658: a4 = u64 [a4 + 0x50]\n  1661: a1 = reverse a1\n  1663: s1 = reverse a2\n  1665: a2 = reverse a3\n  1667: a3 = reverse a4\n  1669: a2 = a2 | a3\n  1672: a3 = s1 | a1\n  1675: a3 = a3 | a2\n  1678: a3 = a3 >> 0x20\n  1681: a1 = a1 | a2\n  1684: a1 = a1 << 0x20\n  1687: a1 = a1 | a3\n  1690: jump @44 if a1 != 0\n      : @42 (gas: 2)\n  1693: i32 a1 = s1 >> 0x10\n  1696: jump @44 if a1 != 0\n      : @43 (gas: 4)\n  1699: a1 = s1 + 0x1f\n  1702: a2 = u64 [sp + 0xd0]\n  1706: a1 = a1 & a2\n  1709: jump @64 if a1 <=u 65536\n      : @44 (gas: 1)\n  1716: trap\n      : @45 (gas: 9)\n  1717: a2 = u64 [0x20040]\n  1722: a1 = u64 [0x20048]\n  1727: a0 = u64 [0x20050]\n  1732: u64 [0x20368] = a2\n  1737: a2 = u64 [0x20058]\n  1742: u64 [0x20360] = a1\n  1747: u64 [0x20358] = a0\n  1752: u64 [0x20350] = a2\n  1757: jump @17 if a5 <=u 255\n      : @46 (gas: 9)\n  1763: a0 = u64 [0x20060]\n  1768: a1 = u64 [0x20068]\n  1773: a2 = u64 [0x20070]\n  1778: u64 [0x20388] = a0\n  1783: a0 = u64 [0x20078]\n  1788: u64 [0x20380] = a1\n  1793: u64 [0x20378] = a2\n  1798: u64 [0x20370] = a0\n  1803: jump @18 if a5 <=u 287\n      : @47 (gas: 9)\n  1809: a0 = u64 [0x20080]\n  1814: a1 = u64 [0x20088]\n  1819: a2 = u64 [0x20090]\n  1824: u64 [0x203a8] = a0\n  1829: a0 = u64 [0x20098]\n  1834: u64 [0x203a0] = a1\n  1839: u64 [0x20398] = a2\n  1844: u64 [0x20390] = a0\n  1849: jump @19 if a5 <=u 319\n      : @48 (gas: 9)\n  1855: a0 = u64 [0x200a0]\n  1860: a1 = u64 [0x200a8]\n  1865: a2 = u64 [0x200b0]\n  1870: u64 [0x203c8] = a0\n  1875: a0 = u64 [0x200b8]\n  1880: u64 [0x203c0] = a1\n  1885: u64 [0x203b8] = a2\n  1890: u64 [0x203b0] = a0\n  1895: jump @20 if a5 <=u 351\n      : @49 (gas: 9)\n  1901: a0 = u64 [0x200c0]\n  1906: a1 = u64 [0x200c8]\n  1911: a2 = u64 [0x200d0]\n  1916: u64 [0x203e8] = a0\n  1921: a0 = u64 [0x200d8]\n  1926: u64 [0x203e0] = a1\n  1931: u64 [0x203d8] = a2\n  1936: u64 [0x203d0] = a0\n  1941: jump @21 if a5 <=u 383\n      : @50 (gas: 9)\n  1947: a0 = u64 [0x200e0]\n  1952: a1 = u64 [0x200e8]\n  1957: a2 = u64 [0x200f0]\n  1962: u64 [0x20408] = a0\n  1967: a0 = u64 [0x200f8]\n  1972: u64 [0x20400] = a1\n  1977: u64 [0x203f8] = a2\n  1982: u64 [0x203f0] = a0\n  1987: jump @22 if a5 <=u 415\n      : @51 (gas: 9)\n  1993: a0 = u64 [0x20100]\n  1998: a1 = u64 [0x20108]\n  2003: a2 = u64 [0x20110]\n  2008: u64 [0x20428] = a0\n  2013: a0 = u64 [0x20118]\n  2018: u64 [0x20420] = a1\n  2023: u64 [0x20418] = a2\n  2028: u64 [0x20410] = a0\n  2033: jump @23 if a5 <=u 447\n      : @52 (gas: 9)\n  2039: a0 = u64 [0x20120]\n  2044: a1 = u64 [0x20128]\n  2049: a2 = u64 [0x20130]\n  2054: u64 [0x20448] = a0\n  2059: a0 = u64 [0x20138]\n  2064: u64 [0x20440] = a1\n  2069: u64 [0x20438] = a2\n  2074: u64 [0x20430] = a0\n  2079: jump @24 if a5 <=u 479\n      : @53 (gas: 9)\n  2085: a0 = u64 [0x20140]\n  2090: a1 = u64 [0x20148]\n  2095: a2 = u64 [0x20150]\n  2100: u64 [0x20468] = a0\n  2105: a0 = u64 [0x20158]\n  2110: u64 [0x20460] = a1\n  2115: u64 [0x20458] = a2\n  2120: u64 [0x20450] = a0\n  2125: jump @25 if a5 <=u 511\n      : @54 (gas: 9)\n  2131: a0 = u64 [0x20160]\n  2136: a1 = u64 [0x20168]\n  2141: a2 = u64 [0x20170]\n  2146: u64 [0x20488] = a0\n  2151: a0 = u64 [0x20178]\n  2156: u64 [0x20480] = a1\n  2161: u64 [0x20478] = a2\n  2166: u64 [0x20470] = a0\n  2171: jump @26 if a5 <=u 543\n      : @55 (gas: 9)\n  2177: a0 = u64 [0x20180]\n  2182: u64 [0x204a8] = a0\n  2187: a0 = u64 [0x20188]\n  2192: a1 = u64 [0x20190]\n  2197: a2 = u64 [0x20198]\n  2202: u64 [0x204a0] = a0\n  2207: u64 [0x20498] = a1\n  2212: u64 [0x20490] = a2\n  2217: jump @27 if a5 <=u 575\n      : @56 (gas: 9)\n  2223: a0 = u64 [0x201a0]\n  2228: u64 [0x204c8] = a0\n  2233: a0 = u64 [0x201a8]\n  2238: a1 = u64 [0x201b0]\n  2243: a2 = u64 [0x201b8]\n  2248: u64 [0x204c0] = a0\n  2253: u64 [0x204b8] = a1\n  2258: u64 [0x204b0] = a2\n  2263: jump @28 if a5 <=u 607\n      : @57 (gas: 9)\n  2269: a0 = u64 [0x201c0]\n  2274: u64 [0x204e8] = a0\n  2279: a0 = u64 [0x201c8]\n  2284: a1 = u64 [0x201d0]\n  2289: a2 = u64 [0x201d8]\n  2294: u64 [0x204e0] = a0\n  2299: u64 [0x204d8] = a1\n  2304: u64 [0x204d0] = a2\n  2309: jump @29 if a5 <=u 639\n      : @58 (gas: 10)\n  2315: a0 = u64 [0x201e0]\n  2320: u64 [0x20508] = a0\n  2325: a0 = u64 [0x201e8]\n  2330: a1 = u64 [0x201f0]\n  2335: a2 = u64 [0x201f8]\n  2340: u64 [0x20500] = a0\n  2345: u64 [0x204f8] = a1\n  2350: u64 [0x204f0] = a2\n  2355: a1 = u64 [sp + 0x8]\n  2358: jump @30 if a1 <=u 671\n      : @59 (gas: 10)\n  2364: a0 = u64 [0x20200]\n  2369: u64 [0x20528] = a0\n  2374: a0 = u64 [0x20208]\n  2379: a1 = u64 [0x20210]\n  2384: a2 = u64 [0x20218]\n  2389: u64 [0x20520] = a0\n  2394: u64 [0x20518] = a1\n  2399: u64 [0x20510] = a2\n  2404: a1 = u64 [sp + 0x8]\n  2407: jump @31 if a1 <=u 703\n      : @60 (gas: 10)\n  2413: a0 = u64 [0x20220]\n  2418: u64 [0x20548] = a0\n  2423: a0 = u64 [0x20228]\n  2428: a1 = u64 [0x20230]\n  2433: a2 = u64 [0x20238]\n  2438: u64 [0x20540] = a0\n  2443: u64 [0x20538] = a1\n  2448: u64 [0x20530] = a2\n  2453: a1 = u64 [sp + 0x8]\n  2456: jump @32 if a1 <=u 735\n      : @61 (gas: 10)\n  2462: a0 = u64 [0x20240]\n  2467: u64 [0x20568] = a0\n  2472: a0 = u64 [0x20248]\n  2477: a1 = u64 [0x20250]\n  2482: a2 = u64 [0x20258]\n  2487: u64 [0x20560] = a0\n  2492: u64 [0x20558] = a1\n  2497: u64 [0x20550] = a2\n  2502: a1 = u64 [sp + 0x8]\n  2505: jump @33 if a1 <=u 767\n      : @62 (gas: 1)\n  2511: jump @34\n      : @63 (gas: 6)\n  2514: a1 = 0x20290\n  2519: i32 a1 = a1 + 0\n  2521: a0 = 0x1\n  2524: a2 = 0\n  2526: ecalli 4 // 'seal_return'\n  2528: fallthrough\n      : @64 (gas: 1)\n  2529: jump @66 if a0 >=u a1\n      : @65 (gas: 3)\n  2532: a0 = u64 [sp + 0xe0]\n  2536: u32 [a0] = a1\n  2538: fallthrough\n      : @66 (gas: 6)\n  2539: a0 = u64 [sp + 0xd8]\n  2543: i32 a0 = a0 + s1\n  2546: a1 = 0\n  2548: a2 = 0\n  2550: ecalli 0 // 'call_data_copy'\n  2551: fallthrough\n      : @67 (gas: 2)\n  2552: a1 = i32 [0x20288]\n  2557: jump @69 if a1 == 0\n      : @68 (gas: 4)\n  2560: a0 = 0x302b0\n  2565: i32 a0 = a0 + 0\n  2567: ecalli 5 // 'set_immutable_data'\n  2569: fallthrough\n      : @69 (gas: 3)\n  2570: a0 = s1\n  2572: a1 = 0\n  2574: ra = 8, jump @0\n      : @70 [@dyn 4] (gas: 6)\n  2579: i32 a1 = a0 + 0\n  2581: a0 = 0\n  2583: a2 = 0\n  2585: ra = 0xa\n  2588: ecalli 4 // 'seal_return'\n  2590: fallthrough\n      : @71 [@dyn 5] (gas: 10)\n  2591: sp = sp + 0xfffffffffffff808\n  2595: u64 [sp + 0x7f0] = ra\n  2599: u64 [sp + 0x7e8] = s0\n  2603: u64 [sp + 0x7e0] = s1\n  2607: s0 = sp + 0x7f8\n  2611: sp = sp + 0xfffffffffffff800\n  2615: sp = sp + 0xfffffffffffffcd8\n  2619: sp = sp & 0xffffffffffffffe0\n  2622: a0 = i32 [0x20280]\n  2627: jump @73 if a0 >=u 4\n      : @72 (gas: 1)\n  2631: jump @375\n      : @73 (gas: 5)\n  2635: a0 = sp + 0x1000\n  2639: i32 a0 = a0 + 0x220\n  2643: a1 = 0\n  2645: ecalli 1 // 'call_data_load'\n  2647: fallthrough\n      : @74 (gas: 6)\n  2648: a2 = sp + 0x7ff\n  2652: a2 = a2 + 0x360\n  2656: a0 = u32 [a2 + 0x6dd]\n  2660: a0 = a0 << 0x20\n  2663: a1 = 0xd622e5a400000000\n  2673: jump @76 if a0 == a1\n      : @75 (gas: 1)\n  2676: jump @375\n      : @76 (gas: 8)\n  2680: u64 [a2 + 1785] = 0\n  2684: u64 [a2 + 1777] = 0\n  2688: u64 [a2 + 1769] = 0\n  2692: u64 [a2 + 1761] = 0\n  2696: a0 = sp + 0x1000\n  2700: i32 a0 = a0 + 0x240\n  2704: ecalli 7 // 'value_transferred'\n  2706: fallthrough\n      : @77 (gas: 10)\n  2707: a3 = sp + 0x7ff\n  2711: a3 = a3 + 0x360\n  2715: a0 = u64 [a3 + 0x6f1]\n  2719: a1 = u64 [a3 + 0x6f9]\n  2723: a2 = u64 [a3 + 0x6e9]\n  2727: a3 = u64 [a3 + 0x6e1]\n  2731: a1 = a1 | a2\n  2734: a0 = a0 | a3\n  2737: a0 = a0 | a1\n  2740: jump @79 if a0 == 0\n      : @78 (gas: 1)\n  2743: jump @376\n      : @79 (gas: 2)\n  2747: a0 = i32 [0x20280]\n  2752: jump @81 if a0 >u 99\n      : @80 (gas: 1)\n  2756: jump @377\n      : @81 (gas: 3)\n  2760: s1 = 0x20284\n  2765: a0 = i32 [0x20284]\n  2770: jump @83 if a0 >u 95\n      : @82 (gas: 2)\n  2774: u32 [0x20284] = 0x60\n  2780: fallthrough\n      : @83 (gas: 12)\n  2781: a1 = 0x20290\n  2786: u64 [0x202e0] = 0\n  2791: u64 [0x202d8] = 0\n  2796: u64 [0x202d0] = 0\n  2801: a0 = 0xc000000000000000\n  2811: u64 [sp + 0x8] = a1\n  2814: u64 [0x202e8] = a0\n  2819: a0 = sp + 0x1000\n  2823: i32 a0 = a0 + 0x260\n  2827: a1 = 0x4\n  2830: ecalli 1 // 'call_data_load'\n  2832: fallthrough\n      : @84 (gas: 8)\n  2833: a3 = sp + 0x7ff\n  2837: a3 = a3 + 0x360\n  2841: a2 = u64 [a3 + 0x719]\n  2845: a1 = u64 [a3 + 0x711]\n  2849: a0 = u64 [a3 + 0x709]\n  2853: a4 = i32 [0x20284]\n  2858: a3 = u64 [a3 + 0x701]\n  2862: jump @86 if a4 >u 159\n      : @85 (gas: 2)\n  2867: u32 [0x20284] = 0xa0\n  2874: fallthrough\n      : @86 (gas: 14)\n  2875: a2 = reverse a2\n  2877: a1 = reverse a1\n  2879: a0 = reverse a0\n  2881: a3 = reverse a3\n  2883: a4 = u64 [sp + 0x8]\n  2886: u64 [a4 + 0x98] = a3\n  2890: u64 [a4 + 0x90] = a0\n  2894: u64 [a4 + 0x88] = a1\n  2898: u64 [a4 + 0x80] = a2\n  2902: a0 = sp + 0x1000\n  2906: i32 a0 = a0 + 0x260\n  2910: a1 = 0x24\n  2913: ecalli 1 // 'call_data_load'\n  2915: fallthrough\n      : @87 (gas: 8)\n  2916: a3 = sp + 0x7ff\n  2920: a3 = a3 + 0x360\n  2924: a2 = u64 [a3 + 0x719]\n  2928: a1 = u64 [a3 + 0x711]\n  2932: a0 = u64 [a3 + 0x709]\n  2936: a4 = i32 [0x20284]\n  2941: a3 = u64 [a3 + 0x701]\n  2945: jump @89 if a4 >u 191\n      : @88 (gas: 2)\n  2950: u32 [0x20284] = 0xc0\n  2957: fallthrough\n      : @89 (gas: 399)\n  2958: u64 [sp + 0x18] = s1\n  2961: a2 = reverse a2\n  2963: a1 = reverse a1\n  2965: a0 = reverse a0\n  2967: a3 = reverse a3\n  2969: a4 = u64 [sp + 0x8]\n  2972: u64 [a4 + 0xb8] = a3\n  2976: u64 [a4 + 0xb0] = a0\n  2980: u64 [a4 + 0xa8] = a1\n  2984: u64 [a4 + 0xa0] = a2\n  2988: a0 = sp + 0x1000\n  2992: i32 a0 = a0 + 0x280\n  2996: a1 = 0x44\n  2999: ecalli 1 // 'call_data_load'\n  3001: a1 = sp + 0x7ff\n  3005: a1 = a1 + 0x360\n  3009: a0 = u64 [a1 + 0x739]\n  3013: u64 [sp + 0x270] = a0\n  3017: a0 = u64 [a1 + 0x731]\n  3021: u64 [sp + 0x280] = a0\n  3025: a0 = u64 [a1 + 0x729]\n  3029: u64 [sp + 0x2c8] = a0\n  3033: a0 = u64 [a1 + 0x721]\n  3037: u64 [sp + 0x2a8] = a0\n  3041: u64 [a1 + 1881] = 0\n  3045: u64 [a1 + 1873] = 0\n  3049: u64 [a1 + 1865] = 0\n  3053: u64 [a1 + 1857] = 0\n  3057: u64 [a1 + 1913] = 0\n  3061: u64 [a1 + 1905] = 0\n  3065: u64 [a1 + 1897] = 0\n  3069: u64 [a1 + 1889] = 0\n  3073: u32 [a1 + 1921] = 0x20\n  3078: s1 = a1\n  3080: a0 = sp + 0x1000\n  3084: i32 a1 = a0 + 0x2a0\n  3088: a0 = sp + 0x1000\n  3092: i32 a3 = a0 + 0x2c0\n  3096: a0 = sp + 0x1000\n  3100: i32 a4 = a0 + 0x2e0\n  3104: a2 = 0xffffffffffffffff\n  3107: a0 = 0\n  3109: ecalli 3 // 'get_storage'\n  3111: a0 = u64 [s1 + 0x769]\n  3115: u64 [sp + 0x3c0] = a0\n  3119: a1 = u64 [s1 + 0x761]\n  3123: u64 [sp + 0x3d0] = a1\n  3127: u64 [sp + 936] = 0\n  3131: u64 [sp + 736] = 0\n  3135: u64 [sp + 696] = 0\n  3139: u64 [sp + 688] = 0\n  3143: u64 [sp + 664] = 0\n  3147: u64 [sp + 760] = 0\n  3151: u64 [sp + 744] = 0\n  3155: u64 [sp + 752] = 0\n  3159: u64 [sp + 720] = 0\n  3163: a3 = reverse a0\n  3165: u64 [sp + 0x3c8] = a3\n  3169: t2 = reverse a1\n  3171: a1 = t2 ^ 0x1\n  3174: a1 = a1 | a3\n  3177: a2 = t2 <u 0x1\n  3180: a2 = 0 if a1 == 0\n  3182: a1 = 0x40\n  3185: a4 = 0x80\n  3189: a4 = a1 if a2 == 0\n  3192: u64 [sp + 0x3b8] = a4\n  3196: a1 = 0 if a2 != 0\n  3198: a2 = t2 >> a1\n  3201: a3 = a3 >> a1\n  3204: a1 = a1 + 0xffffffffffffffc0\n  3207: a4 = a1 <s 0\n  3209: a3 = a2 if a4 == 0\n  3212: a1 = a1 >>a 0x3f\n  3215: a1 = a1 & a2\n  3218: a2 = a3 >> 0x20\n  3221: a4 = a1 >>r 0x20\n  3224: a2 = a2 | a4\n  3227: u64 [sp + 0x3b0] = a2\n  3231: a2 = a2 >u 0\n  3233: a2 = a2 << 0x5\n  3236: a4 = a2 ^ 0x3f\n  3239: a5 = a1 << 0x1\n  3242: a4 = a5 << a4\n  3245: a3 = a3 >> a2\n  3248: a3 = a3 | a4\n  3251: a1 = a1 >> a2\n  3254: a2 = a3 >> 0x10\n  3257: a4 = a1 >>r 0x10\n  3260: a2 = a2 | a4\n  3263: u64 [sp + 0x3a0] = a2\n  3267: a2 = a2 >u 0\n  3269: a2 = a2 << 0x4\n  3272: a4 = a2 ^ 0x3f\n  3275: a5 = a1 << 0x1\n  3278: a4 = a5 << a4\n  3281: a3 = a3 >> a2\n  3284: a3 = a3 | a4\n  3287: t0 = a1 >> a2\n  3290: a0 = a3 <u 0x100\n  3294: u64 [sp + 0x390] = a0\n  3298: a1 = a0 ^ 0x1\n  3301: a2 = t0 >u 0\n  3303: a2 = a1 if t0 == 0\n  3306: a2 = a2 << 0x3\n  3309: a1 = a2 ^ 0x3f\n  3312: a5 = t0 << 0x1\n  3315: a1 = a5 << a1\n  3318: a3 = a3 >> a2\n  3321: a1 = a1 | a3\n  3324: a3 = t0 >> a2\n  3327: t1 = a1 <u 0x10\n  3330: a2 = t1 ^ 0x1\n  3333: a5 = a3 >u 0\n  3335: a5 = a2 if a3 == 0\n  3338: a5 = a5 << 0x2\n  3341: a2 = a5 ^ 0x3f\n  3344: s1 = a3 << 0x1\n  3347: s1 = s1 << a2\n  3350: a1 = a1 >> a5\n  3353: s1 = s1 | a1\n  3356: a2 = a3 >> a5\n  3359: a4 = s1 <u 0x4\n  3362: a5 = a4 ^ 0x1\n  3365: ra = a2 >u 0\n  3367: ra = a5 if a2 == 0\n  3370: ra = ra << 0x1\n  3373: a5 = ra ^ 0x3f\n  3376: a1 = a2 << 0x1\n  3379: a1 = a1 << a5\n  3382: a5 = s1 >> ra\n  3385: a1 = a1 | a5\n  3388: a5 = a2 >> ra\n  3391: s1 = a1 <u 0x2\n  3394: s1 = 0 if a5 != 0\n  3396: a5 = -a1\n  3398: a1 = sp + 0x7ff\n  3402: a1 = a1 + 0x360\n  3406: a0 = u64 [a1 + 0x779]\n  3410: u64 [sp + 0x398] = a0\n  3414: ra = u64 [a1 + 0x771]\n  3418: a5 = 0xfffffffffffffffe if s1 == 0\n  3421: a1 = u64 [sp + 0x3c0]\n  3425: a1 = a1 | a0\n  3428: s1 = u64 [sp + 0x3d0]\n  3432: s1 = s1 | ra\n  3435: a0 = ra\n  3437: a1 = a1 | s1\n  3440: u64 [sp + 0x10] = a1\n  3443: a1 = 0xffffffffffffffe0\n  3446: s1 = u64 [sp + 0x3b0]\n  3450: a1 = 0 if s1 == 0\n  3452: s1 = u64 [sp + 0x3b8]\n  3456: a1 = a1 + s1\n  3459: s1 = 0xfffffffffffffff0\n  3462: ra = u64 [sp + 0x3a0]\n  3466: s1 = 0 if ra == 0\n  3468: ra = a1 + s1\n  3471: a1 = u64 [sp + 0x390]\n  3475: a1 = 0 if t0 != 0\n  3477: s1 = 0xfffffffffffffff8\n  3480: s1 = 0 if a1 != 0\n  3482: a1 = ra + s1\n  3485: t1 = 0 if a3 != 0\n  3487: a3 = 0xfffffffffffffffc\n  3490: a3 = 0 if t1 != 0\n  3492: a1 = a1 + a3\n  3495: a4 = 0 if a2 != 0\n  3497: a2 = 0xfffffffffffffffe\n  3500: a2 = 0 if a4 != 0\n  3502: a1 = a1 + a2\n  3505: ra = a5 + a1\n  3508: a1 = t2 >> 0x38\n  3511: t1 = sp + 0x7ff\n  3515: t1 = t1 + 0x360\n  3519: u8 [t1 + 0x6c0] = a1\n  3523: a1 = t2 >> 0x30\n  3526: u8 [t1 + 0x6bf] = a1\n  3530: a1 = t2 >> 0x28\n  3533: u8 [t1 + 0x6be] = a1\n  3537: a1 = t2 >> 0x20\n  3540: u8 [t1 + 0x6bd] = a1\n  3544: a1 = t2 >> 0x18\n  3547: u8 [t1 + 0x6bc] = a1\n  3551: a1 = t2 >> 0x10\n  3554: u8 [t1 + 0x6bb] = a1\n  3558: a1 = t2 >> 0x8\n  3561: u8 [t1 + 0x6ba] = a1\n  3565: a3 = u64 [sp + 0x3c8]\n  3569: a1 = a3 >> 0x38\n  3572: u8 [t1 + 0x6b8] = a1\n  3576: a1 = a3 >> 0x30\n  3579: u8 [t1 + 0x6b7] = a1\n  3583: a1 = a3 >> 0x28\n  3586: u8 [t1 + 0x6b6] = a1\n  3590: a1 = a3 >> 0x20\n  3593: u8 [t1 + 0x6b5] = a1\n  3597: a1 = a3 >> 0x18\n  3600: u8 [t1 + 0x6b4] = a1\n  3604: a1 = a3 >> 0x10\n  3607: u8 [t1 + 0x6b3] = a1\n  3611: a1 = a3 >> 0x8\n  3614: u8 [t1 + 0x6b2] = a1\n  3618: a2 = reverse a0\n  3620: a1 = a2 >> 0x38\n  3623: u8 [t1 + 0x6b0] = a1\n  3627: a1 = a2 >> 0x30\n  3630: u8 [t1 + 0x6af] = a1\n  3634: a1 = a2 >> 0x28\n  3637: u8 [t1 + 0x6ae] = a1\n  3641: a1 = a2 >> 0x20\n  3644: u8 [t1 + 0x6ad] = a1\n  3648: a1 = a2 >> 0x18\n  3651: u8 [t1 + 0x6ac] = a1\n  3655: a1 = a2 >> 0x10\n  3658: u8 [t1 + 0x6ab] = a1\n  3662: a1 = a2 >> 0x8\n  3665: u8 [t1 + 0x6aa] = a1\n  3669: a0 = u64 [sp + 0x398]\n  3673: a0 = reverse a0\n  3675: a1 = a0 >> 0x38\n  3678: u8 [t1 + 0x6a8] = a1\n  3682: a1 = a0 >> 0x30\n  3685: u8 [t1 + 0x6a7] = a1\n  3689: a1 = a0 >> 0x28\n  3692: u8 [t1 + 0x6a6] = a1\n  3696: a1 = a0 >> 0x20\n  3699: u8 [t1 + 0x6a5] = a1\n  3703: a1 = a0 >> 0x18\n  3706: u8 [t1 + 0x6a4] = a1\n  3710: a1 = a0 >> 0x10\n  3713: u8 [t1 + 0x6a3] = a1\n  3717: a1 = a0 >> 0x8\n  3720: u8 [t1 + 0x6a2] = a1\n  3724: u8 [t1 + 1696] = 0\n  3728: u8 [t1 + 1695] = 0\n  3732: u8 [t1 + 1694] = 0\n  3736: u8 [t1 + 1693] = 0\n  3740: u8 [t1 + 1692] = 0\n  3744: u8 [t1 + 1691] = 0\n  3748: u8 [t1 + 1690] = 0\n  3752: u8 [t1 + 1689] = 0\n  3756: u8 [t1 + 1688] = 0\n  3760: u8 [t1 + 1687] = 0\n  3764: u8 [t1 + 1686] = 0\n  3768: u8 [t1 + 1685] = 0\n  3772: u8 [t1 + 1684] = 0\n  3776: u8 [t1 + 1683] = 0\n  3780: u8 [t1 + 1682] = 0\n  3784: u8 [t1 + 1681] = 0\n  3788: u8 [t1 + 1680] = 0\n  3792: u8 [t1 + 1679] = 0\n  3796: u8 [t1 + 1678] = 0\n  3800: u8 [t1 + 1677] = 0\n  3804: u8 [t1 + 1676] = 0\n  3808: u8 [t1 + 1675] = 0\n  3812: u8 [t1 + 1674] = 0\n  3816: u8 [t1 + 1673] = 0\n  3820: u8 [t1 + 1672] = 0\n  3824: u8 [t1 + 1671] = 0\n  3828: u8 [t1 + 1670] = 0\n  3832: u8 [t1 + 1669] = 0\n  3836: u8 [t1 + 1668] = 0\n  3840: u8 [t1 + 1667] = 0\n  3844: u8 [t1 + 1666] = 0\n  3848: u8 [t1 + 1665] = 0\n  3852: u8 [t1 + 0x6b9] = t2\n  3856: u8 [t1 + 0x6b1] = a3\n  3860: u64 [sp + 0x3d0] = a2\n  3864: u8 [t1 + 0x6a9] = a2\n  3868: u64 [sp + 0x3c0] = a0\n  3872: u8 [t1 + 0x6a1] = a0\n  3876: a0 = ra << 0x38\n  3879: u64 [sp + 0x138] = a0\n  3883: a0 = a0 >> 0x3b\n  3886: a1 = sp + 0x1200\n  3890: u64 [sp + 0x1f0] = a0\n  3894: a1 = a1 - a0\n  3897: a2 = u8 [a1 + 0x19]\n  3900: a3 = u8 [a1 + 0x18]\n  3903: a4 = u8 [a1 + 0x1a]\n  3906: a5 = u8 [a1 + 0x1b]\n  3909: a2 = a2 << 0x8\n  3912: a2 = a2 | a3\n  3915: a4 = a4 << 0x10\n  3918: a5 = a5 << 0x18\n  3921: a4 = a4 | a5\n  3924: a2 = a2 | a4\n  3927: a3 = u8 [a1 + 0x1d]\n  3930: a4 = u8 [a1 + 0x1c]\n  3933: a5 = u8 [a1 + 0x1e]\n  3936: s1 = u8 [a1 + 0x1f]\n  3939: a3 = a3 << 0x8\n  3942: a3 = a3 | a4\n  3945: a5 = a5 << 0x10\n  3948: s1 = s1 << 0x18\n  3951: a5 = a5 | s1\n  3954: a3 = a3 | a5\n  3957: a3 = a3 << 0x20\n  3960: t0 = a3 | a2\n  3963: a2 = u8 [a1 + 0x11]\n  3966: a4 = u8 [a1 + 0x10]\n  3969: a5 = u8 [a1 + 0x12]\n  3972: s1 = u8 [a1 + 0x13]\n  3975: a2 = a2 << 0x8\n  3978: a2 = a2 | a4\n  3981: a5 = a5 << 0x10\n  3984: s1 = s1 << 0x18\n  3987: a5 = a5 | s1\n  3990: a2 = a2 | a5\n  3993: a4 = u8 [a1 + 0x15]\n  3996: a5 = u8 [a1 + 0x14]\n  3999: s1 = u8 [a1 + 0x16]\n  4002: a3 = u8 [a1 + 0x17]\n  4005: a4 = a4 << 0x8\n  4008: a4 = a4 | a5\n  4011: s1 = s1 << 0x10\n  4014: a3 = a3 << 0x18\n  4017: a3 = a3 | s1\n  4020: a3 = a3 | a4\n  4023: a3 = a3 << 0x20\n  4026: a2 = a2 | a3\n  4029: u64 [sp + 0x1e0] = ra\n  4033: a0 = ra & 0x7\n  4036: a3 = t0 << a0\n  4039: a4 = a2 >> 0x1\n  4042: a5 = a0 ^ 0x3f\n  4045: u64 [sp + 0x1f8] = a5\n  4049: a4 = a4 >> a5\n  4052: a3 = a3 | a4\n  4055: u64 [sp + 0x3b0] = a3\n  4059: a3 = u8 [a1 + 0x9]\n  4062: a4 = u8 [a1 + 0x8]\n  4065: a5 = u8 [a1 + 0xa]\n  4068: s1 = u8 [a1 + 0xb]\n  4071: a3 = a3 << 0x8\n  4074: a3 = a3 | a4\n  4077: a5 = a5 << 0x10\n  4080: s1 = s1 << 0x18\n  4083: a5 = a5 | s1\n  4086: t0 = a5 | a3\n  4089: a4 = u8 [a1 + 0xd]\n  4092: a5 = u8 [a1 + 0xc]\n  4095: s1 = u8 [a1 + 0xe]\n  4098: a3 = u8 [a1 + 0xf]\n  4101: a4 = a4 << 0x8\n  4104: a4 = a4 | a5\n  4107: s1 = s1 << 0x10\n  4110: a3 = a3 << 0x18\n  4113: a3 = a3 | s1\n  4116: a3 = a3 | a4\n  4119: a3 = a3 << 0x20\n  4122: a3 = a3 | t0\n  4125: ra = u64 [sp + 0x2f0]\n  4129: a2 = a2 << a0\n  4132: a4 = a3 >> 0x1\n  4135: a5 = a0 ^ 0xffffffffffffffff\n  4138: u64 [sp + 0x1e8] = a5\n  4142: a4 = a4 >> a5\n  4145: a2 = a2 | a4\n  4148: u64 [sp + 0x3b8] = a2\n  4152: a2 = u8 [a1 + 0x1]\n  4155: a4 = u8 [a1]\n  4157: a5 = u8 [a1 + 0x2]\n  4160: s1 = u8 [a1 + 0x3]\n  4163: a2 = a2 << 0x8\n  4166: a2 = a2 | a4\n  4169: a5 = a5 << 0x10\n  4172: s1 = s1 << 0x18\n  4175: a5 = a5 | s1\n  4178: a2 = a2 | a5\n  4181: a4 = u8 [a1 + 0x5]\n  4184: a5 = u8 [a1 + 0x4]\n  4187: s1 = u8 [a1 + 0x6]\n  4190: a1 = u8 [a1 + 0x7]\n  4193: a4 = a4 << 0x8\n  4196: a4 = a4 | a5\n  4199: s1 = s1 << 0x10\n  4202: a1 = a1 << 0x18\n  4205: a1 = a1 | s1\n  4208: a1 = a1 | a4\n  4211: a1 = a1 << 0x20\n  4214: a1 = a1 | a2\n  4217: a2 = a3 << a0\n  4220: a3 = a1 >> 0x1\n  4223: a4 = u64 [sp + 0x1f8]\n  4227: a3 = a3 >> a4\n  4230: s1 = u64 [sp + 0x3a8]\n  4234: a5 = u64 [sp + 0x2f8]\n  4238: a2 = a2 | a3\n  4241: u64 [sp + 0x340] = a2\n  4245: u64 [sp + 0x200] = a0\n  4249: a0 = a1 << a0\n  4252: u64 [sp + 0x338] = a0\n  4256: a0 = u64 [sp + 0x10]\n  4259: a1 = a0 >u 0\n  4261: a4 = 0x1\n  4264: u64 [sp + 0x3d8] = t2\n  4268: jump @92\n      : @90 (gas: 9)\n  4270: u64 [sp + 0x2d0] = s1\n  4274: u64 [sp + 0x2e8] = a2\n  4278: a1 = 0x1\n  4281: a0 = u64 [sp + 0x20]\n  4284: a0 = a0 & a1\n  4287: s1 = 0x20\n  4290: a4 = 0\n  4292: t2 = u64 [sp + 0x3d8]\n  4296: jump @92 if a0 != 0\n      : @91 (gas: 1)\n  4299: jump @367\n      : @92 (gas: 6)\n  4303: u64 [sp + 0x2f0] = ra\n  4307: a0 = u64 [sp + 0x18]\n  4310: a3 = i32 [a0]\n  4312: a2 = s1 + 0xbf\n  4316: a2 = a2 & 0xe0\n  4320: jump @94 if a3 >=u a2\n      : @93 (gas: 2)\n  4323: u32 [a0] = a2\n  4325: fallthrough\n      : @94 (gas: 3)\n  4326: a1 = a1 & 0x1\n  4329: t0 = u64 [sp + 0x3c8]\n  4333: jump @96 if a1 != 0\n      : @95 (gas: 1)\n  4336: jump @373\n      : @96 (gas: 3)\n  4340: u64 [sp + 0x20] = a4\n  4343: a1 = u64 [sp + 0x10]\n  4346: jump @103 if a1 == 0\n      : @97 (gas: 92)\n  4350: u64 [sp + 0x2f8] = a5\n  4354: a1 = clz t0\n  4356: a1 = a1 + 0x40\n  4359: a5 = clz t2\n  4361: a5 = a1 if t2 == 0\n  4364: a0 = u64 [sp + 0x3c0]\n  4368: a1 = clz a0\n  4370: a1 = a1 + 0x40\n  4373: a0 = u64 [sp + 0x3d0]\n  4377: a2 = clz a0\n  4379: a2 = a1 if a0 == 0\n  4382: a1 = a2 + 0x80\n  4386: a3 = t0 | t2\n  4389: a5 = a1 if a3 == 0\n  4392: a0 = a1 <u a2\n  4395: u64 [sp + 0x1d8] = a3\n  4399: a0 = 0 if a3 != 0\n  4401: ra = u64 [sp + 0x2b0]\n  4405: a1 = clz ra\n  4407: a1 = a1 + 0x40\n  4410: t1 = u64 [sp + 0x298]\n  4414: a2 = clz t1\n  4416: a2 = a1 if t1 == 0\n  4419: a1 = u64 [sp + 0x2e0]\n  4423: a1 = clz a1\n  4425: a1 = a1 + 0x40\n  4428: u64 [sp + 0x3a8] = s1\n  4432: t2 = u64 [sp + 0x2b8]\n  4436: a3 = clz t2\n  4438: a3 = a1 if t2 == 0\n  4441: a1 = a3 + 0x80\n  4445: a4 = ra | t1\n  4448: a2 = a1 if a4 == 0\n  4451: a3 = a1 <u a3\n  4454: a3 = 0 if a4 != 0\n  4456: a1 = a0 ^ a3\n  4459: s1 = a0 <u a3\n  4462: t0 = a5 <u a2\n  4465: s1 = t0 if a1 == 0\n  4468: a1 = s1 <u 0x1\n  4471: a1 = a1 + 0xffffffffffffffff\n  4474: a4 = -s1\n  4476: u64 [sp + 0x330] = a0\n  4480: a3 = a0 - a3\n  4483: a3 = a3 - t0\n  4486: u64 [sp + 0x328] = a5\n  4490: a5 = a5 - a2\n  4493: u64 [sp + 0x3a0] = a4\n  4497: a2 = a4 >u 0\n  4499: a0 = a1 >u 0\n  4501: u64 [sp + 0x390] = a1\n  4505: a0 = a2 if a1 == 0\n  4508: u64 [sp + 0x398] = a5\n  4512: a2 = a5 <u 0x100\n  4516: a2 = a2 ^ 0x1\n  4519: a4 = a3 >u 0\n  4521: a2 = a4 if a3 != 0\n  4524: a2 = a0 if s1 != 0\n  4527: a0 = u64 [sp + 0x3c0]\n  4531: a1 = u64 [sp + 0x3c8]\n  4535: a0 = a0 | a1\n  4538: a1 = u64 [sp + 0x3d0]\n  4542: a4 = u64 [sp + 0x3d8]\n  4546: a4 = a4 | a1\n  4549: a0 = a0 | a4\n  4552: a1 = u64 [sp + 0x2e0]\n  4556: a4 = a1 | ra\n  4559: s1 = t2 | t1\n  4562: a4 = a4 | s1\n  4565: a5 = u64 [sp + 0x3a8]\n  4569: s1 = a5 | 0x80\n  4573: a5 = u64 [sp + 0x8]\n  4576: s1 = s1 + a5\n  4579: a5 = a0 <u 0x1\n  4582: a0 = a4 <u 0x1\n  4585: u64 [sp + 0x320] = a5\n  4589: a0 = a0 | a5\n  4592: a5 = t1\n  4594: t1 = a1\n  4596: a0 = a0 | a2\n  4599: t0 = u64 [s1 + 0x18]\n  4602: a2 = u64 [s1 + 0x10]\n  4605: a1 = u64 [s1 + 0x8]\n  4608: s1 = u64 [s1]\n  4610: a5 = 0 if a0 != 0\n  4612: ra = 0 if a0 != 0\n  4614: a4 = t2\n  4616: a4 = 0 if a0 != 0\n  4618: t1 = 0 if a0 != 0\n  4620: u64 [sp + 0x2d8] = a2\n  4624: u64 [sp + 0x2c0] = a1\n  4628: jump @109 if a0 != 0\n      : @98 (gas: 8)\n  4632: a0 = u64 [sp + 0x398]\n  4636: a0 = a0 ^ 0xff\n  4640: a1 = u64 [sp + 0x3a0]\n  4644: a0 = a0 | a1\n  4647: t2 = u64 [sp + 0x390]\n  4651: a2 = a3 | t2\n  4654: a0 = a0 | a2\n  4657: jump @109 if a0 == 0\n      : @99 (gas: 266)\n  4661: u64 [sp + 0x290] = s1\n  4665: u64 [sp + 0x2a0] = t0\n  4669: a2 = u64 [sp + 0x398]\n  4673: a1 = a2 + 0x1\n  4676: u64 [sp + 0x3a8] = a1\n  4680: a0 = a1 <u 0x1\n  4683: a0 = a0 + a3\n  4686: u64 [sp + 0x380] = a0\n  4690: a0 = a0 | a1\n  4693: a0 = a0 <u 0x1\n  4696: a1 = u64 [sp + 0x3a0]\n  4700: a0 = a0 + a1\n  4703: u64 [sp + 0x370] = a0\n  4707: a0 = a0 <u a1\n  4710: a0 = a0 + t2\n  4713: u64 [sp + 0x378] = a0\n  4717: t0 = 0xff - a2\n  4721: ra = sp + 0x7ff\n  4725: ra = ra + 0x360\n  4729: a0 = u64 [sp + 0x2e0]\n  4733: u8 [ra + 0x661] = a0\n  4737: u8 [ra + 1632] = 0\n  4741: u8 [ra + 1631] = 0\n  4745: u8 [ra + 1630] = 0\n  4749: u8 [ra + 1629] = 0\n  4753: u8 [ra + 1628] = 0\n  4757: u8 [ra + 1627] = 0\n  4761: u8 [ra + 1626] = 0\n  4765: u8 [ra + 1625] = 0\n  4769: u8 [ra + 1624] = 0\n  4773: u8 [ra + 1623] = 0\n  4777: u8 [ra + 1622] = 0\n  4781: u8 [ra + 1621] = 0\n  4785: u8 [ra + 1620] = 0\n  4789: u8 [ra + 1619] = 0\n  4793: u8 [ra + 1618] = 0\n  4797: u8 [ra + 1617] = 0\n  4801: u8 [ra + 1616] = 0\n  4805: u8 [ra + 1615] = 0\n  4809: u8 [ra + 1614] = 0\n  4813: u8 [ra + 1613] = 0\n  4817: u8 [ra + 1612] = 0\n  4821: u8 [ra + 1611] = 0\n  4825: u8 [ra + 1610] = 0\n  4829: u8 [ra + 1609] = 0\n  4833: u8 [ra + 1608] = 0\n  4837: u8 [ra + 1607] = 0\n  4841: u8 [ra + 1606] = 0\n  4845: u8 [ra + 1605] = 0\n  4849: u8 [ra + 1604] = 0\n  4853: u8 [ra + 1603] = 0\n  4857: u8 [ra + 1602] = 0\n  4861: u8 [ra + 1601] = 0\n  4865: a1 = u64 [sp + 0x2b8]\n  4869: u8 [ra + 0x669] = a1\n  4873: a2 = a0 >> 0x38\n  4876: u64 [sp + 0x268] = a2\n  4880: u8 [ra + 0x668] = a2\n  4884: a2 = a0 >> 0x30\n  4887: u64 [sp + 0x260] = a2\n  4891: u8 [ra + 0x667] = a2\n  4895: a2 = a0 >> 0x28\n  4898: u64 [sp + 0x258] = a2\n  4902: u8 [ra + 0x666] = a2\n  4906: a2 = a0 >> 0x20\n  4909: u64 [sp + 0x250] = a2\n  4913: u8 [ra + 0x665] = a2\n  4917: a2 = a0 >> 0x18\n  4920: u64 [sp + 0x248] = a2\n  4924: u8 [ra + 0x664] = a2\n  4928: a2 = a0 >> 0x10\n  4931: u64 [sp + 0x240] = a2\n  4935: u8 [ra + 0x663] = a2\n  4939: u64 [sp + 0x2e0] = a0\n  4943: a0 = a0 >> 0x8\n  4946: u64 [sp + 0x238] = a0\n  4950: u8 [ra + 0x662] = a0\n  4954: a0 = u64 [sp + 0x2b0]\n  4958: u8 [ra + 0x671] = a0\n  4962: a2 = a1 >> 0x38\n  4965: u64 [sp + 0x230] = a2\n  4969: u8 [ra + 0x670] = a2\n  4973: a2 = a1 >> 0x30\n  4976: u64 [sp + 0x228] = a2\n  4980: u8 [ra + 0x66f] = a2\n  4984: a2 = a1 >> 0x28\n  4987: u64 [sp + 0x220] = a2\n  4991: u8 [ra + 0x66e] = a2\n  4995: a2 = a1 >> 0x20\n  4998: u64 [sp + 0x218] = a2\n  5002: u8 [ra + 0x66d] = a2\n  5006: a2 = a1 >> 0x18\n  5009: u64 [sp + 0x210] = a2\n  5013: u8 [ra + 0x66c] = a2\n  5017: a2 = a1 >> 0x10\n  5020: u64 [sp + 0x208] = a2\n  5024: u8 [ra + 0x66b] = a2\n  5028: u64 [sp + 0x2b8] = a1\n  5032: a1 = a1 >> 0x8\n  5035: u64 [sp + 0x1d0] = a1\n  5039: u8 [ra + 0x66a] = a1\n  5043: t1 = u64 [sp + 0x298]\n  5047: u8 [ra + 0x679] = t1\n  5051: a1 = a0 >> 0x38\n  5054: u64 [sp + 0x1c8] = a1\n  5058: u8 [ra + 0x678] = a1\n  5062: a1 = a0 >> 0x30\n  5065: u64 [sp + 0x1c0] = a1\n  5069: u8 [ra + 0x677] = a1\n  5073: a1 = a0 >> 0x28\n  5076: u64 [sp + 0x1b8] = a1\n  5080: u8 [ra + 0x676] = a1\n  5084: a1 = a0 >> 0x20\n  5087: u64 [sp + 0x1b0] = a1\n  5091: u8 [ra + 0x675] = a1\n  5095: a1 = a0 >> 0x18\n  5098: u64 [sp + 0x1a8] = a1\n  5102: u8 [ra + 0x674] = a1\n  5106: a1 = a0 >> 0x10\n  5109: u64 [sp + 0x358] = a1\n  5113: u8 [ra + 0x673] = a1\n  5117: u64 [sp + 0x2b0] = a0\n  5121: a0 = a0 >> 0x8\n  5124: u64 [sp + 0x350] = a0\n  5128: u8 [ra + 0x672] = a0\n  5132: a0 = t1 >> 0x38\n  5135: u64 [sp + 0x348] = a0\n  5139: u8 [ra + 0x680] = a0\n  5143: a0 = t1 >> 0x30\n  5146: u64 [sp + 0x318] = a0\n  5150: u8 [ra + 0x67f] = a0\n  5154: a0 = t1 >> 0x28\n  5157: u64 [sp + 0x310] = a0\n  5161: u8 [ra + 0x67e] = a0\n  5165: a0 = t1 >> 0x20\n  5168: u64 [sp + 0x308] = a0\n  5172: u8 [ra + 0x67d] = a0\n  5176: a0 = t1 >> 0x18\n  5179: u64 [sp + 0x300] = a0\n  5183: u8 [ra + 0x67c] = a0\n  5187: a0 = t1 >> 0x10\n  5190: u64 [sp + 0x288] = a0\n  5194: u8 [ra + 0x67b] = a0\n  5198: a0 = t1 >> 0x8\n  5201: u64 [sp + 0x278] = a0\n  5205: u8 [ra + 0x67a] = a0\n  5209: a0 = t0 << 0x38\n  5212: a0 = a0 >> 0x3b\n  5215: a4 = sp + 0x11c0\n  5219: a4 = a4 - a0\n  5222: a0 = u8 [a4 + 0x19]\n  5225: a2 = u8 [a4 + 0x18]\n  5228: a3 = u8 [a4 + 0x1a]\n  5231: a5 = u8 [a4 + 0x1b]\n  5234: a0 = a0 << 0x8\n  5237: a0 = a0 | a2\n  5240: a3 = a3 << 0x10\n  5243: a5 = a5 << 0x18\n  5246: a3 = a3 | a5\n  5249: a0 = a0 | a3\n  5252: a2 = u8 [a4 + 0x1d]\n  5255: a3 = u8 [a4 + 0x1c]\n  5258: a5 = u8 [a4 + 0x1e]\n  5261: s1 = u8 [a4 + 0x1f]\n  5264: a2 = a2 << 0x8\n  5267: a2 = a2 | a3\n  5270: a5 = a5 << 0x10\n  5273: s1 = s1 << 0x18\n  5276: a5 = a5 | s1\n  5279: a2 = a2 | a5\n  5282: a2 = a2 << 0x20\n  5285: a0 = a0 | a2\n  5288: a2 = u8 [a4 + 0x11]\n  5291: a3 = u8 [a4 + 0x10]\n  5294: a5 = u8 [a4 + 0x12]\n  5297: s1 = u8 [a4 + 0x13]\n  5300: a2 = a2 << 0x8\n  5303: a2 = a2 | a3\n  5306: a5 = a5 << 0x10\n  5309: s1 = s1 << 0x18\n  5312: a5 = a5 | s1\n  5315: a2 = a2 | a5\n  5318: a3 = u8 [a4 + 0x15]\n  5321: a5 = u8 [a4 + 0x14]\n  5324: s1 = u8 [a4 + 0x16]\n  5327: a1 = u8 [a4 + 0x17]\n  5330: a3 = a3 << 0x8\n  5333: a3 = a3 | a5\n  5336: s1 = s1 << 0x10\n  5339: a1 = a1 << 0x18\n  5342: a1 = a1 | s1\n  5345: a1 = a1 | a3\n  5348: a1 = a1 << 0x20\n  5351: t2 = a1 | a2\n  5354: a1 = t0 & 0x7\n  5357: a2 = a0 << a1\n  5360: a3 = t2 >> 0x1\n  5363: t0 = a1 ^ 0x3f\n  5366: a3 = a3 >> t0\n  5369: a2 = a2 | a3\n  5372: u64 [sp + 0x3a0] = a2\n  5376: a2 = u8 [a4 + 0x9]\n  5379: a3 = u8 [a4 + 0x8]\n  5382: s1 = u8 [a4 + 0xa]\n  5385: a0 = u8 [a4 + 0xb]\n  5388: a2 = a2 << 0x8\n  5391: a2 = a2 | a3\n  5394: s1 = s1 << 0x10\n  5397: a0 = a0 << 0x18\n  5400: a0 = a0 | s1\n  5403: a0 = a0 | a2\n  5406: a2 = u8 [a4 + 0xd]\n  5409: a3 = u8 [a4 + 0xc]\n  5412: s1 = u8 [a4 + 0xe]\n  5415: a5 = u8 [a4 + 0xf]\n  5418: a2 = a2 << 0x8\n  5421: a2 = a2 | a3\n  5424: s1 = s1 << 0x10\n  5427: a5 = a5 << 0x18\n  5430: a5 = a5 | s1\n  5433: a2 = a2 | a5\n  5436: a2 = a2 << 0x20\n  5439: s1 = a2 | a0\n  5442: a0 = s1 >> 0x1\n  5445: a2 = a1 ^ 0xffffffffffffffff\n  5448: a0 = a0 >> a2\n  5451: a2 = t2 << a1\n  5454: a0 = a0 | a2\n  5457: u64 [sp + 0x398] = a0\n  5461: a0 = u8 [a4 + 0x1]\n  5464: a2 = u8 [a4]\n  5466: a3 = u8 [a4 + 0x2]\n  5469: a5 = u8 [a4 + 0x3]\n  5472: a0 = a0 << 0x8\n  5475: a0 = a0 | a2\n  5478: a3 = a3 << 0x10\n  5481: a5 = a5 << 0x18\n  5484: a3 = a3 | a5\n  5487: a0 = a0 | a3\n  5490: a2 = u8 [a4 + 0x5]\n  5493: a3 = u8 [a4 + 0x4]\n  5496: a5 = u8 [a4 + 0x6]\n  5499: a4 = u8 [a4 + 0x7]\n  5502: a2 = a2 << 0x8\n  5505: a2 = a2 | a3\n  5508: a5 = a5 << 0x10\n  5511: a4 = a4 << 0x18\n  5514: a4 = a4 | a5\n  5517: a5 = u64 [sp + 0x378]\n  5521: a2 = a2 | a4\n  5524: a4 = u64 [sp + 0x380]\n  5528: a2 = a2 << 0x20\n  5531: a0 = a0 | a2\n  5534: a2 = a0 >> 0x1\n  5537: a2 = a2 >> t0\n  5540: t0 = u64 [sp + 0x370]\n  5544: a3 = s1 << a1\n  5547: a2 = a2 | a3\n  5550: u64 [sp + 0x388] = a2\n  5554: a2 = a4 | a5\n  5557: a3 = u64 [sp + 0x3a8]\n  5561: a3 = a3 | t0\n  5564: a2 = a2 | a3\n  5567: a0 = a0 << a1\n  5570: u64 [sp + 0x390] = a0\n  5574: jump @107 if a2 == 0\n      : @100 (gas: 224)\n  5578: u64 [sp + 872] = 0\n  5582: u64 [sp + 864] = 0\n  5586: a0 = u64 [sp + 0x268]\n  5590: u8 [ra + 0x608] = a0\n  5594: a0 = u64 [sp + 0x260]\n  5598: u8 [ra + 0x607] = a0\n  5602: a0 = u64 [sp + 0x258]\n  5606: u8 [ra + 0x606] = a0\n  5610: a0 = u64 [sp + 0x250]\n  5614: u8 [ra + 0x605] = a0\n  5618: a0 = u64 [sp + 0x248]\n  5622: u8 [ra + 0x604] = a0\n  5626: a0 = u64 [sp + 0x240]\n  5630: u8 [ra + 0x603] = a0\n  5634: a0 = u64 [sp + 0x238]\n  5638: u8 [ra + 0x602] = a0\n  5642: a0 = u64 [sp + 0x230]\n  5646: u8 [ra + 0x610] = a0\n  5650: a0 = u64 [sp + 0x228]\n  5654: u8 [ra + 0x60f] = a0\n  5658: a0 = u64 [sp + 0x220]\n  5662: u8 [ra + 0x60e] = a0\n  5666: a0 = u64 [sp + 0x218]\n  5670: u8 [ra + 0x60d] = a0\n  5674: a0 = u64 [sp + 0x210]\n  5678: u8 [ra + 0x60c] = a0\n  5682: a0 = u64 [sp + 0x208]\n  5686: u8 [ra + 0x60b] = a0\n  5690: a0 = u64 [sp + 0x1d0]\n  5694: u8 [ra + 0x60a] = a0\n  5698: a0 = u64 [sp + 0x1c8]\n  5702: u8 [ra + 0x618] = a0\n  5706: a0 = u64 [sp + 0x1c0]\n  5710: u8 [ra + 0x617] = a0\n  5714: a0 = u64 [sp + 0x1b8]\n  5718: u8 [ra + 0x616] = a0\n  5722: a0 = u64 [sp + 0x1b0]\n  5726: u8 [ra + 0x615] = a0\n  5730: a0 = u64 [sp + 0x1a8]\n  5734: u8 [ra + 0x614] = a0\n  5738: u8 [ra + 1600] = 0\n  5742: u8 [ra + 1599] = 0\n  5746: u8 [ra + 1598] = 0\n  5750: u8 [ra + 1597] = 0\n  5754: u8 [ra + 1596] = 0\n  5758: u8 [ra + 1595] = 0\n  5762: u8 [ra + 1594] = 0\n  5766: u8 [ra + 1593] = 0\n  5770: u8 [ra + 1592] = 0\n  5774: u8 [ra + 1591] = 0\n  5778: u8 [ra + 1590] = 0\n  5782: u8 [ra + 1589] = 0\n  5786: u8 [ra + 1588] = 0\n  5790: u8 [ra + 1587] = 0\n  5794: u8 [ra + 1586] = 0\n  5798: u8 [ra + 1585] = 0\n  5802: u8 [ra + 1584] = 0\n  5806: u8 [ra + 1583] = 0\n  5810: u8 [ra + 1582] = 0\n  5814: u8 [ra + 1581] = 0\n  5818: u8 [ra + 1580] = 0\n  5822: u8 [ra + 1579] = 0\n  5826: u8 [ra + 1578] = 0\n  5830: u8 [ra + 1577] = 0\n  5834: u8 [ra + 1576] = 0\n  5838: u8 [ra + 1575] = 0\n  5842: u8 [ra + 1574] = 0\n  5846: u8 [ra + 1573] = 0\n  5850: u8 [ra + 1572] = 0\n  5854: u8 [ra + 1571] = 0\n  5858: u8 [ra + 1570] = 0\n  5862: u8 [ra + 1569] = 0\n  5866: a0 = u64 [sp + 0x2e0]\n  5870: u8 [ra + 0x601] = a0\n  5874: a0 = u64 [sp + 0x2b8]\n  5878: u8 [ra + 0x609] = a0\n  5882: a0 = u64 [sp + 0x2b0]\n  5886: u8 [ra + 0x611] = a0\n  5890: u8 [ra + 0x619] = t1\n  5894: a0 = u64 [sp + 0x358]\n  5898: u8 [ra + 0x613] = a0\n  5902: a0 = u64 [sp + 0x350]\n  5906: u8 [ra + 0x612] = a0\n  5910: a0 = u64 [sp + 0x348]\n  5914: u8 [ra + 0x620] = a0\n  5918: a0 = u64 [sp + 0x318]\n  5922: u8 [ra + 0x61f] = a0\n  5926: a0 = u64 [sp + 0x310]\n  5930: u8 [ra + 0x61e] = a0\n  5934: a0 = u64 [sp + 0x308]\n  5938: u8 [ra + 0x61d] = a0\n  5942: a0 = u64 [sp + 0x300]\n  5946: u8 [ra + 0x61c] = a0\n  5950: a0 = u64 [sp + 0x288]\n  5954: u8 [ra + 0x61b] = a0\n  5958: a0 = u64 [sp + 0x278]\n  5962: u8 [ra + 0x61a] = a0\n  5966: s1 = u64 [sp + 0x3a8]\n  5970: a0 = s1 << 0x38\n  5973: a0 = a0 >> 0x3b\n  5976: a1 = sp + 0x1160\n  5980: a0 = a0 + a1\n  5983: a1 = u8 [a0 + 0x11]\n  5986: a2 = u8 [a0 + 0x10]\n  5989: a3 = u8 [a0 + 0x12]\n  5992: a4 = u8 [a0 + 0x13]\n  5995: a1 = a1 << 0x8\n  5998: a1 = a1 | a2\n  6001: a3 = a3 << 0x10\n  6004: a4 = a4 << 0x18\n  6007: a3 = a3 | a4\n  6010: a1 = a1 | a3\n  6013: a2 = u8 [a0 + 0x15]\n  6016: a3 = u8 [a0 + 0x14]\n  6019: a4 = u8 [a0 + 0x16]\n  6022: a5 = u8 [a0 + 0x17]\n  6025: a2 = a2 << 0x8\n  6028: a2 = a2 | a3\n  6031: a4 = a4 << 0x10\n  6034: a5 = a5 << 0x18\n  6037: a4 = a4 | a5\n  6040: a2 = a2 | a4\n  6043: a2 = a2 << 0x20\n  6046: t0 = a2 | a1\n  6049: a1 = s1 & 0x7\n  6052: t2 = t0 >> a1\n  6055: a2 = u8 [a0 + 0x19]\n  6058: a5 = u8 [a0 + 0x18]\n  6061: s1 = u8 [a0 + 0x1a]\n  6064: a4 = u8 [a0 + 0x1b]\n  6067: a2 = a2 << 0x8\n  6070: a2 = a2 | a5\n  6073: s1 = s1 << 0x10\n  6076: a4 = a4 << 0x18\n  6079: a4 = a4 | s1\n  6082: a2 = a2 | a4\n  6085: a4 = u8 [a0 + 0x1d]\n  6088: a5 = u8 [a0 + 0x1c]\n  6091: s1 = u8 [a0 + 0x1e]\n  6094: a3 = u8 [a0 + 0x1f]\n  6097: a4 = a4 << 0x8\n  6100: a4 = a4 | a5\n  6103: s1 = s1 << 0x10\n  6106: a3 = a3 << 0x18\n  6109: a3 = a3 | s1\n  6112: a3 = a3 | a4\n  6115: a3 = a3 << 0x20\n  6118: t1 = a3 | a2\n  6121: a2 = t1 << 0x1\n  6124: ra = a1 ^ 0x3f\n  6127: a2 = a2 << ra\n  6130: a2 = t2 | a2\n  6133: u64 [sp + 0x358] = a2\n  6137: a2 = u8 [a0 + 0x9]\n  6140: a3 = u8 [a0 + 0x8]\n  6143: a4 = u8 [a0 + 0xa]\n  6146: s1 = u8 [a0 + 0xb]\n  6149: a2 = a2 << 0x8\n  6152: a2 = a2 | a3\n  6155: a4 = a4 << 0x10\n  6158: s1 = s1 << 0x18\n  6161: a4 = a4 | s1\n  6164: a2 = a2 | a4\n  6167: a3 = u8 [a0 + 0xd]\n  6170: a4 = u8 [a0 + 0xc]\n  6173: s1 = u8 [a0 + 0xe]\n  6176: a5 = u8 [a0 + 0xf]\n  6179: a3 = a3 << 0x8\n  6182: a3 = a3 | a4\n  6185: s1 = s1 << 0x10\n  6188: a5 = a5 << 0x18\n  6191: a5 = a5 | s1\n  6194: a3 = a3 | a5\n  6197: a3 = a3 << 0x20\n  6200: t2 = a3 | a2\n  6203: a2 = t2 >> a1\n  6206: t0 = t0 << 0x1\n  6209: a4 = a1 ^ 0xffffffffffffffff\n  6212: a4 = t0 << a4\n  6215: t0 = a2 | a4\n  6218: a2 = u8 [a0 + 0x1]\n  6221: a5 = u8 [a0]\n  6223: s1 = u8 [a0 + 0x2]\n  6226: a3 = u8 [a0 + 0x3]\n  6229: a2 = a2 << 0x8\n  6232: a2 = a2 | a5\n  6235: s1 = s1 << 0x10\n  6238: a3 = a3 << 0x18\n  6241: a3 = a3 | s1\n  6244: a2 = a2 | a3\n  6247: a3 = u8 [a0 + 0x5]\n  6250: a5 = u8 [a0 + 0x4]\n  6253: s1 = u8 [a0 + 0x6]\n  6256: a0 = u8 [a0 + 0x7]\n  6259: a3 = a3 << 0x8\n  6262: a3 = a3 | a5\n  6265: s1 = s1 << 0x10\n  6268: a0 = a0 << 0x18\n  6271: a0 = a0 | s1\n  6274: a0 = a0 | a3\n  6277: a0 = a0 << 0x20\n  6280: a0 = a0 | a2\n  6283: a0 = a0 >> a1\n  6286: t2 = t2 << 0x1\n  6289: a2 = t2 << ra\n  6292: ra = a0 | a2\n  6295: t2 = t1 >> a1\n  6298: a1 = u64 [sp + 0x3c0]\n  6302: a0 = a1 <u 0x1\n  6305: a2 = u64 [sp + 0x3d0]\n  6309: a0 = a2 - a0\n  6312: u64 [sp + 0x318] = a0\n  6316: a0 = a1 | a2\n  6319: a0 = a0 <u 0x1\n  6322: a2 = u64 [sp + 0x3c8]\n  6326: a3 = a2 - a0\n  6329: u64 [sp + 0x310] = a3\n  6333: a0 = a2 <u a0\n  6336: a2 = u64 [sp + 0x3d8]\n  6340: a2 = a2 - a0\n  6343: u64 [sp + 0x308] = a2\n  6347: a1 = a1 + 0xffffffffffffffff\n  6350: u64 [sp + 0x300] = a1\n  6354: fallthrough\n      : @101 (gas: 101)\n  6355: u64 [sp + 840] = 0\n  6359: a1 = ra >> 0x3f\n  6362: a3 = t0 << 0x1\n  6365: t1 = a3 | a1\n  6368: ra = ra << 0x1\n  6371: a4 = u64 [sp + 0x3a0]\n  6375: a1 = a4 >> 0x3f\n  6378: a1 = ra | a1\n  6381: a0 = u64 [sp + 0x318]\n  6385: a2 = a0 ^ t1\n  6388: s1 = a0 <u t1\n  6391: a0 = u64 [sp + 0x300]\n  6395: a3 = a0 <u a1\n  6398: a3 = s1 if a2 != 0\n  6401: a5 = t2 << 0x1\n  6404: a0 = u64 [sp + 0x358]\n  6408: a2 = a0 >> 0x3f\n  6411: ra = a5 | a2\n  6414: u64 [sp + 0x350] = ra\n  6418: a2 = t0 >> 0x3f\n  6421: t0 = a0 << 0x1\n  6424: t2 = t0 | a2\n  6427: a2 = a4 << 0x1\n  6430: a0 = u64 [sp + 0x398]\n  6434: s1 = a0 >> 0x3f\n  6437: a2 = a2 | s1\n  6440: s1 = a0 << 0x1\n  6443: a4 = u64 [sp + 0x388]\n  6447: a0 = a4 >> 0x3f\n  6450: a0 = a0 | s1\n  6453: s1 = a4 << 0x1\n  6456: a4 = u64 [sp + 0x390]\n  6460: a5 = a4 >> 0x3f\n  6463: a5 = a5 | s1\n  6466: s1 = a4 << 0x1\n  6469: a4 = u64 [sp + 0x368]\n  6473: a4 = a4 | s1\n  6476: u64 [sp + 0x390] = a4\n  6480: a4 = u64 [sp + 0x360]\n  6484: a5 = a5 | a4\n  6487: u64 [sp + 0x388] = a5\n  6491: a0 = a0 | a4\n  6494: u64 [sp + 0x398] = a0\n  6498: a2 = a2 | a4\n  6501: u64 [sp + 0x3a0] = a2\n  6505: a2 = u64 [sp + 0x310]\n  6509: a0 = a2 - t2\n  6512: a0 = a0 <u a3\n  6515: a2 = a2 <u t2\n  6518: a3 = u64 [sp + 0x308]\n  6522: a3 = a3 - ra\n  6525: a3 = a3 - a2\n  6528: a3 = a3 - a0\n  6531: a3 = a3 >>a 0x3f\n  6534: a0 = u64 [sp + 0x3c0]\n  6538: ra = a3 & a0\n  6541: a2 = u64 [sp + 0x3d0]\n  6545: a2 = a2 & a3\n  6548: a5 = t1 ^ a2\n  6551: s1 = t1 <u a2\n  6554: t0 = a1 <u ra\n  6557: s1 = t0 if a5 == 0\n  6560: a5 = u64 [sp + 0x3c8]\n  6564: a5 = a5 & a3\n  6567: a0 = t2 - a5\n  6570: a4 = a0 - s1\n  6573: u64 [sp + 0x358] = a4\n  6577: a4 = a0 <u s1\n  6580: a5 = t2 <u a5\n  6583: s1 = u64 [sp + 0x3d8]\n  6587: s1 = s1 & a3\n  6590: a0 = u64 [sp + 0x350]\n  6594: s1 = a0 - s1\n  6597: a5 = s1 - a5\n  6600: t2 = a5 - a4\n  6603: a2 = t1 - a2\n  6606: t0 = a2 - t0\n  6609: ra = a1 - ra\n  6612: s1 = u64 [sp + 0x3a8]\n  6616: a5 = u64 [sp + 0x380]\n  6620: a0 = s1 | a5\n  6623: a0 = a0 <u 0x1\n  6626: a2 = u64 [sp + 0x370]\n  6630: a1 = a2 <u a0\n  6633: a0 = a2 - a0\n  6636: a2 = s1 <u 0x1\n  6639: a5 = a5 - a2\n  6642: a2 = u64 [sp + 0x378]\n  6646: a2 = a2 - a1\n  6649: s1 = s1 + 0xffffffffffffffff\n  6652: u64 [sp + 0x380] = a5\n  6656: u64 [sp + 0x378] = a2\n  6660: a1 = a5 | a2\n  6663: u64 [sp + 0x3a8] = s1\n  6667: a2 = s1 | a0\n  6670: a1 = a1 | a2\n  6673: a3 = a3 & 0x1\n  6676: u64 [sp + 0x368] = a3\n  6680: u64 [sp + 0x370] = a0\n  6684: u64 [sp + 864] = 0\n  6688: jump @101 if a1 != 0\n      : @102 (gas: 1)\n  6692: jump @108\n      : @103 (gas: 4)\n  6695: a4 = 0\n  6697: s1 = 0\n  6699: a3 = 0\n  6701: fallthrough\n      : @104 (gas: 35)\n  6702: u64 [sp + 0x378] = a1\n  6706: u64 [sp + 0x380] = a4\n  6710: u64 [sp + 0x388] = a3\n  6714: a4 = a4 + 0x1\n  6717: u64 [sp + 0x390] = a4\n  6721: a0 = a4 <u 0x1\n  6724: a0 = a0 + a1\n  6727: u64 [sp + 0x3a8] = a0\n  6731: a0 = a0 | a4\n  6734: a0 = a0 <u 0x1\n  6737: a0 = a0 + s1\n  6740: u64 [sp + 0x398] = a0\n  6744: a0 = a0 <u s1\n  6747: a0 = a0 + a3\n  6750: u64 [sp + 0x3a0] = a0\n  6754: a0 = a4 << 0x38\n  6757: u64 [t1 + 0x759] = a0\n  6761: u64 [t1 + 1873] = 0\n  6765: u64 [t1 + 1865] = 0\n  6769: u64 [t1 + 1857] = 0\n  6773: u64 [t1 + 1913] = 0\n  6777: u64 [t1 + 1905] = 0\n  6781: u64 [t1 + 1897] = 0\n  6785: u64 [t1 + 1889] = 0\n  6789: u32 [t1 + 1921] = 0x20\n  6794: a0 = sp + 0x1000\n  6798: i32 a1 = a0 + 0x2a0\n  6802: a0 = sp + 0x1000\n  6806: i32 a3 = a0 + 0x2c0\n  6810: a0 = sp + 0x1000\n  6814: i32 a4 = a0 + 0x2e0\n  6818: a2 = 0xffffffffffffffff\n  6821: a0 = 0\n  6823: ecalli 3 // 'get_storage'\n  6825: fallthrough\n      : @105 (gas: 14)\n  6826: t1 = sp + 0x7ff\n  6830: t1 = t1 + 0x360\n  6834: a0 = u64 [sp + 0x380]\n  6838: a0 = a0 <u 0x13\n  6841: a1 = u64 [sp + 0x378]\n  6845: a0 = 0 if a1 != 0\n  6847: a1 = u64 [sp + 0x388]\n  6851: a1 = a1 | s1\n  6854: a0 = 0 if a1 != 0\n  6856: a4 = u64 [sp + 0x390]\n  6860: a1 = u64 [sp + 0x3a8]\n  6864: s1 = u64 [sp + 0x398]\n  6868: a3 = u64 [sp + 0x3a0]\n  6872: jump @104 if a0 != 0\n      : @106 (gas: 9)\n  6876: u64 [sp + 736] = 0\n  6880: u64 [sp + 696] = 0\n  6884: u64 [sp + 688] = 0\n  6888: u64 [sp + 664] = 0\n  6892: a5 = 0\n  6894: a2 = 0\n  6896: ra = 0\n  6898: s1 = 0\n  6900: jump @90\n      : @107 (gas: 3)\n  6903: u64 [sp + 872] = 0\n  6907: u64 [sp + 840] = 0\n  6911: fallthrough\n      : @108 (gas: 23)\n  6912: a3 = u64 [sp + 0x398]\n  6916: a1 = a3 >> 0x3f\n  6919: a2 = u64 [sp + 0x3a0]\n  6923: a2 = a2 << 0x1\n  6926: a1 = a1 | a2\n  6929: a4 = u64 [sp + 0x388]\n  6933: a2 = a4 >> 0x3f\n  6936: a3 = a3 << 0x1\n  6939: a2 = a2 | a3\n  6942: a5 = u64 [sp + 0x390]\n  6946: a3 = a5 >> 0x3f\n  6949: a4 = a4 << 0x1\n  6952: a5 = a5 << 0x1\n  6955: a0 = u64 [sp + 0x368]\n  6959: t1 = a0 | a5\n  6962: a5 = u64 [sp + 0x348]\n  6966: a3 = a3 | a5\n  6969: a4 = a4 | a3\n  6972: ra = a5 | a2\n  6975: a5 = a5 | a1\n  6978: t0 = u64 [sp + 0x2a0]\n  6982: s1 = u64 [sp + 0x290]\n  6986: fallthrough\n      : @109 (gas: 64)\n  6987: u64 [sp + 0x258] = a5\n  6991: u64 [sp + 0x260] = a4\n  6995: u64 [sp + 0x268] = ra\n  6999: u64 [sp + 0x2a0] = t1\n  7003: t2 = reverse s1\n  7005: a0 = u64 [sp + 0x2c0]\n  7009: t1 = reverse a0\n  7011: a0 = u64 [sp + 0x2d8]\n  7015: ra = reverse a0\n  7017: a2 = reverse t0\n  7019: u64 [sp + 0x2c0] = a2\n  7023: a0 = clz t1\n  7025: a1 = a0 + 0x40\n  7028: a0 = clz t2\n  7030: a0 = a1 if t2 == 0\n  7033: a1 = clz a2\n  7035: a1 = a1 + 0x40\n  7038: a2 = clz ra\n  7040: a2 = a1 if ra == 0\n  7043: a1 = a2 + 0x80\n  7047: a3 = t1 | t2\n  7050: a0 = a1 if a3 == 0\n  7053: a1 = a1 <u a2\n  7056: a1 = 0 if a3 != 0\n  7058: a2 = u64 [sp + 0x330]\n  7062: a4 = a2 ^ a1\n  7065: a3 = a2 <u a1\n  7068: a5 = u64 [sp + 0x328]\n  7072: s1 = a5 <u a0\n  7075: a3 = s1 if a4 == 0\n  7078: a4 = a3 <u 0x1\n  7081: t0 = a4 + 0xffffffffffffffff\n  7084: a4 = -a3\n  7086: a1 = a2 - a1\n  7089: s1 = a1 - s1\n  7092: a5 = a5 - a0\n  7095: u64 [sp + 0x398] = a4\n  7099: a0 = a4 >u 0\n  7101: a4 = t0\n  7103: a2 = t0 >u 0\n  7105: a2 = a0 if t0 == 0\n  7108: u64 [sp + 0x3a0] = a5\n  7112: a0 = a5 <u 0x100\n  7116: a0 = a0 ^ 0x1\n  7119: a5 = s1 >u 0\n  7121: a0 = a5 if s1 != 0\n  7124: a0 = a2 if a3 != 0\n  7127: t0 = u64 [sp + 0x2c0]\n  7131: a2 = t0 | t1\n  7134: a3 = ra | t2\n  7137: a2 = a2 | a3\n  7140: a2 = a2 <u 0x1\n  7143: a1 = u64 [sp + 0x320]\n  7147: a2 = a2 | a1\n  7150: a5 = a2 | a0\n  7153: u64 [sp + 0x278] = t2\n  7157: u64 [sp + 0x288] = t1\n  7161: u64 [sp + 0x290] = ra\n  7165: a2 = t2\n  7167: a2 = 0 if a5 != 0\n  7169: t1 = 0 if a5 != 0\n  7171: ra = 0 if a5 != 0\n  7173: t0 = 0 if a5 != 0\n  7175: jump @117 if a5 != 0\n      : @110 (gas: 8)\n  7179: a0 = u64 [sp + 0x3a0]\n  7183: a5 = a0 ^ 0xff\n  7187: a3 = u64 [sp + 0x398]\n  7191: a5 = a5 | a3\n  7194: a1 = s1 | a4\n  7197: a1 = a1 | a5\n  7200: t2 = u64 [sp + 0x3d0]\n  7204: jump @118 if a1 == 0\n      : @111 (gas: 260)\n  7208: a2 = u64 [sp + 0x3a0]\n  7212: a1 = a2 + 0x1\n  7215: u64 [sp + 0x3a8] = a1\n  7219: a0 = a1 <u 0x1\n  7222: a0 = a0 + s1\n  7225: u64 [sp + 0x380] = a0\n  7229: a0 = a0 | a1\n  7232: a0 = a0 <u 0x1\n  7235: a0 = a0 + a3\n  7238: u64 [sp + 0x370] = a0\n  7242: a0 = a0 <u a3\n  7245: a0 = a0 + a4\n  7248: u64 [sp + 0x378] = a0\n  7252: t0 = 0xff - a2\n  7256: t2 = sp + 0x7ff\n  7260: t2 = t2 + 0x360\n  7264: a0 = u64 [sp + 0x2c0]\n  7268: u8 [t2 + 0x5e1] = a0\n  7272: u8 [t2 + 1504] = 0\n  7276: u8 [t2 + 1503] = 0\n  7280: u8 [t2 + 1502] = 0\n  7284: u8 [t2 + 1501] = 0\n  7288: u8 [t2 + 1500] = 0\n  7292: u8 [t2 + 1499] = 0\n  7296: u8 [t2 + 1498] = 0\n  7300: u8 [t2 + 1497] = 0\n  7304: u8 [t2 + 1496] = 0\n  7308: u8 [t2 + 1495] = 0\n  7312: u8 [t2 + 1494] = 0\n  7316: u8 [t2 + 1493] = 0\n  7320: u8 [t2 + 1492] = 0\n  7324: u8 [t2 + 1491] = 0\n  7328: u8 [t2 + 1490] = 0\n  7332: u8 [t2 + 1489] = 0\n  7336: u8 [t2 + 1488] = 0\n  7340: u8 [t2 + 1487] = 0\n  7344: u8 [t2 + 1486] = 0\n  7348: u8 [t2 + 1485] = 0\n  7352: u8 [t2 + 1484] = 0\n  7356: u8 [t2 + 1483] = 0\n  7360: u8 [t2 + 1482] = 0\n  7364: u8 [t2 + 1481] = 0\n  7368: u8 [t2 + 1480] = 0\n  7372: u8 [t2 + 1479] = 0\n  7376: u8 [t2 + 1478] = 0\n  7380: u8 [t2 + 1477] = 0\n  7384: u8 [t2 + 1476] = 0\n  7388: u8 [t2 + 1475] = 0\n  7392: u8 [t2 + 1474] = 0\n  7396: u8 [t2 + 1473] = 0\n  7400: a1 = u64 [sp + 0x290]\n  7404: u8 [t2 + 0x5e9] = a1\n  7408: a2 = a0 >> 0x38\n  7411: u64 [sp + 0x248] = a2\n  7415: u8 [t2 + 0x5e8] = a2\n  7419: a2 = a0 >> 0x30\n  7422: u64 [sp + 0x240] = a2\n  7426: u8 [t2 + 0x5e7] = a2\n  7430: a2 = a0 >> 0x28\n  7433: u64 [sp + 0x238] = a2\n  7437: u8 [t2 + 0x5e6] = a2\n  7441: a2 = a0 >> 0x20\n  7444: u64 [sp + 0x230] = a2\n  7448: u8 [t2 + 0x5e5] = a2\n  7452: a2 = a0 >> 0x18\n  7455: u64 [sp + 0x228] = a2\n  7459: u8 [t2 + 0x5e4] = a2\n  7463: a2 = a0 >> 0x10\n  7466: u64 [sp + 0x220] = a2\n  7470: u8 [t2 + 0x5e3] = a2\n  7474: a0 = a0 >> 0x8\n  7477: u64 [sp + 0x218] = a0\n  7481: u8 [t2 + 0x5e2] = a0\n  7485: a0 = u64 [sp + 0x288]\n  7489: u8 [t2 + 0x5f1] = a0\n  7493: a2 = a1 >> 0x38\n  7496: u64 [sp + 0x210] = a2\n  7500: u8 [t2 + 0x5f0] = a2\n  7504: a2 = a1 >> 0x30\n  7507: u64 [sp + 0x208] = a2\n  7511: u8 [t2 + 0x5ef] = a2\n  7515: a2 = a1 >> 0x28\n  7518: u64 [sp + 0x1d0] = a2\n  7522: u8 [t2 + 0x5ee] = a2\n  7526: a2 = a1 >> 0x20\n  7529: u64 [sp + 0x1c8] = a2\n  7533: u8 [t2 + 0x5ed] = a2\n  7537: a2 = a1 >> 0x18\n  7540: u64 [sp + 0x1c0] = a2\n  7544: u8 [t2 + 0x5ec] = a2\n  7548: a2 = a1 >> 0x10\n  7551: u64 [sp + 0x1b8] = a2\n  7555: u8 [t2 + 0x5eb] = a2\n  7559: a1 = a1 >> 0x8\n  7562: u64 [sp + 0x1b0] = a1\n  7566: u8 [t2 + 0x5ea] = a1\n  7570: ra = u64 [sp + 0x278]\n  7574: u8 [t2 + 0x5f9] = ra\n  7578: a1 = a0 >> 0x38\n  7581: u64 [sp + 0x1a8] = a1\n  7585: u8 [t2 + 0x5f8] = a1\n  7589: a1 = a0 >> 0x30\n  7592: u64 [sp + 0x1a0] = a1\n  7596: u8 [t2 + 0x5f7] = a1\n  7600: a1 = a0 >> 0x28\n  7603: u64 [sp + 0x198] = a1\n  7607: u8 [t2 + 0x5f6] = a1\n  7611: a1 = a0 >> 0x20\n  7614: u64 [sp + 0x190] = a1\n  7618: u8 [t2 + 0x5f5] = a1\n  7622: a1 = a0 >> 0x18\n  7625: u64 [sp + 0x188] = a1\n  7629: u8 [t2 + 0x5f4] = a1\n  7633: a1 = a0 >> 0x10\n  7636: u64 [sp + 0x358] = a1\n  7640: u8 [t2 + 0x5f3] = a1\n  7644: a0 = a0 >> 0x8\n  7647: u64 [sp + 0x350] = a0\n  7651: u8 [t2 + 0x5f2] = a0\n  7655: a0 = ra >> 0x38\n  7658: u64 [sp + 0x348] = a0\n  7662: u8 [t2 + 0x600] = a0\n  7666: a0 = ra >> 0x30\n  7669: u64 [sp + 0x318] = a0\n  7673: u8 [t2 + 0x5ff] = a0\n  7677: a0 = ra >> 0x28\n  7680: u64 [sp + 0x310] = a0\n  7684: u8 [t2 + 0x5fe] = a0\n  7688: a0 = ra >> 0x20\n  7691: u64 [sp + 0x308] = a0\n  7695: u8 [t2 + 0x5fd] = a0\n  7699: a0 = ra >> 0x18\n  7702: u64 [sp + 0x300] = a0\n  7706: u8 [t2 + 0x5fc] = a0\n  7710: a0 = ra >> 0x10\n  7713: u64 [sp + 0x2d8] = a0\n  7717: u8 [t2 + 0x5fb] = a0\n  7721: a0 = ra >> 0x8\n  7724: u64 [sp + 0x250] = a0\n  7728: u8 [t2 + 0x5fa] = a0\n  7732: a0 = t0 << 0x38\n  7735: a0 = a0 >> 0x3b\n  7738: a2 = sp + 0x1140\n  7742: a2 = a2 - a0\n  7745: a0 = u8 [a2 + 0x19]\n  7748: a3 = u8 [a2 + 0x18]\n  7751: a4 = u8 [a2 + 0x1a]\n  7754: a5 = u8 [a2 + 0x1b]\n  7757: a0 = a0 << 0x8\n  7760: a0 = a0 | a3\n  7763: a4 = a4 << 0x10\n  7766: a5 = a5 << 0x18\n  7769: a4 = a4 | a5\n  7772: a0 = a0 | a4\n  7775: a3 = u8 [a2 + 0x1d]\n  7778: a4 = u8 [a2 + 0x1c]\n  7781: a5 = u8 [a2 + 0x1e]\n  7784: s1 = u8 [a2 + 0x1f]\n  7787: a3 = a3 << 0x8\n  7790: a3 = a3 | a4\n  7793: a5 = a5 << 0x10\n  7796: s1 = s1 << 0x18\n  7799: a5 = a5 | s1\n  7802: a3 = a3 | a5\n  7805: a3 = a3 << 0x20\n  7808: a4 = a3 | a0\n  7811: a0 = u8 [a2 + 0x11]\n  7814: a3 = u8 [a2 + 0x10]\n  7817: a5 = u8 [a2 + 0x12]\n  7820: s1 = u8 [a2 + 0x13]\n  7823: a0 = a0 << 0x8\n  7826: a0 = a0 | a3\n  7829: a5 = a5 << 0x10\n  7832: s1 = s1 << 0x18\n  7835: a5 = a5 | s1\n  7838: a0 = a0 | a5\n  7841: a3 = u8 [a2 + 0x15]\n  7844: a5 = u8 [a2 + 0x14]\n  7847: s1 = u8 [a2 + 0x16]\n  7850: a1 = u8 [a2 + 0x17]\n  7853: a3 = a3 << 0x8\n  7856: a3 = a3 | a5\n  7859: s1 = s1 << 0x10\n  7862: a1 = a1 << 0x18\n  7865: a1 = a1 | s1\n  7868: a1 = a1 | a3\n  7871: a1 = a1 << 0x20\n  7874: t1 = a1 | a0\n  7877: a1 = t0 & 0x7\n  7880: a3 = a4 << a1\n  7883: a5 = t1 >> 0x1\n  7886: t0 = a1 ^ 0x3f\n  7889: a5 = a5 >> t0\n  7892: a3 = a3 | a5\n  7895: u64 [sp + 0x3a0] = a3\n  7899: a3 = u8 [a2 + 0x9]\n  7902: a5 = u8 [a2 + 0x8]\n  7905: s1 = u8 [a2 + 0xa]\n  7908: a4 = u8 [a2 + 0xb]\n  7911: a3 = a3 << 0x8\n  7914: a3 = a3 | a5\n  7917: s1 = s1 << 0x10\n  7920: a4 = a4 << 0x18\n  7923: a4 = a4 | s1\n  7926: a3 = a3 | a4\n  7929: a4 = u8 [a2 + 0xd]\n  7932: a5 = u8 [a2 + 0xc]\n  7935: s1 = u8 [a2 + 0xe]\n  7938: a0 = u8 [a2 + 0xf]\n  7941: a4 = a4 << 0x8\n  7944: a4 = a4 | a5\n  7947: s1 = s1 << 0x10\n  7950: a0 = a0 << 0x18\n  7953: a0 = a0 | s1\n  7956: a0 = a0 | a4\n  7959: a0 = a0 << 0x20\n  7962: a5 = a0 | a3\n  7965: a0 = a5 >> 0x1\n  7968: a3 = a1 ^ 0xffffffffffffffff\n  7971: a0 = a0 >> a3\n  7974: a3 = t1 << a1\n  7977: a0 = a0 | a3\n  7980: u64 [sp + 0x388] = a0\n  7984: a0 = u8 [a2 + 0x1]\n  7987: a3 = u8 [a2]\n  7989: a4 = u8 [a2 + 0x2]\n  7992: s1 = u8 [a2 + 0x3]\n  7995: a0 = a0 << 0x8\n  7998: a0 = a0 | a3\n  8001: a4 = a4 << 0x10\n  8004: s1 = s1 << 0x18\n  8007: a4 = a4 | s1\n  8010: a0 = a0 | a4\n  8013: a3 = u8 [a2 + 0x5]\n  8016: a4 = u8 [a2 + 0x4]\n  8019: s1 = u8 [a2 + 0x6]\n  8022: a2 = u8 [a2 + 0x7]\n  8025: a3 = a3 << 0x8\n  8028: a3 = a3 | a4\n  8031: s1 = s1 << 0x10\n  8034: a2 = a2 << 0x18\n  8037: a2 = a2 | s1\n  8040: a4 = u64 [sp + 0x380]\n  8044: a2 = a2 | a3\n  8047: a2 = a2 << 0x20\n  8050: a0 = a0 | a2\n  8053: a2 = a0 >> 0x1\n  8056: a2 = a2 >> t0\n  8059: s1 = u64 [sp + 0x370]\n  8063: a3 = a5 << a1\n  8066: a5 = u64 [sp + 0x378]\n  8070: a2 = a2 | a3\n  8073: u64 [sp + 0x390] = a2\n  8077: a2 = a4 | a5\n  8080: a3 = u64 [sp + 0x3a8]\n  8084: a3 = a3 | s1\n  8087: a2 = a2 | a3\n  8090: a0 = a0 << a1\n  8093: u64 [sp + 0x398] = a0\n  8097: jump @115 if a2 == 0\n      : @112 (gas: 225)\n  8101: u64 [sp + 872] = 0\n  8105: u64 [sp + 864] = 0\n  8109: a0 = u64 [sp + 0x248]\n  8113: u8 [t2 + 0x588] = a0\n  8117: a0 = u64 [sp + 0x240]\n  8121: u8 [t2 + 0x587] = a0\n  8125: a0 = u64 [sp + 0x238]\n  8129: u8 [t2 + 0x586] = a0\n  8133: a0 = u64 [sp + 0x230]\n  8137: u8 [t2 + 0x585] = a0\n  8141: a0 = u64 [sp + 0x228]\n  8145: u8 [t2 + 0x584] = a0\n  8149: a0 = u64 [sp + 0x220]\n  8153: u8 [t2 + 0x583] = a0\n  8157: a0 = u64 [sp + 0x218]\n  8161: u8 [t2 + 0x582] = a0\n  8165: a0 = u64 [sp + 0x210]\n  8169: u8 [t2 + 0x590] = a0\n  8173: a0 = u64 [sp + 0x208]\n  8177: u8 [t2 + 0x58f] = a0\n  8181: a0 = u64 [sp + 0x1d0]\n  8185: u8 [t2 + 0x58e] = a0\n  8189: a0 = u64 [sp + 0x1c8]\n  8193: u8 [t2 + 0x58d] = a0\n  8197: a0 = u64 [sp + 0x1c0]\n  8201: u8 [t2 + 0x58c] = a0\n  8205: a0 = u64 [sp + 0x1b8]\n  8209: u8 [t2 + 0x58b] = a0\n  8213: a0 = u64 [sp + 0x1b0]\n  8217: u8 [t2 + 0x58a] = a0\n  8221: a0 = u64 [sp + 0x1a8]\n  8225: u8 [t2 + 0x598] = a0\n  8229: a0 = u64 [sp + 0x1a0]\n  8233: u8 [t2 + 0x597] = a0\n  8237: a0 = u64 [sp + 0x198]\n  8241: u8 [t2 + 0x596] = a0\n  8245: a0 = u64 [sp + 0x190]\n  8249: u8 [t2 + 0x595] = a0\n  8253: a0 = u64 [sp + 0x188]\n  8257: u8 [t2 + 0x594] = a0\n  8261: u8 [t2 + 1472] = 0\n  8265: u8 [t2 + 1471] = 0\n  8269: u8 [t2 + 1470] = 0\n  8273: u8 [t2 + 1469] = 0\n  8277: u8 [t2 + 1468] = 0\n  8281: u8 [t2 + 1467] = 0\n  8285: u8 [t2 + 1466] = 0\n  8289: u8 [t2 + 1465] = 0\n  8293: u8 [t2 + 1464] = 0\n  8297: u8 [t2 + 1463] = 0\n  8301: u8 [t2 + 1462] = 0\n  8305: u8 [t2 + 1461] = 0\n  8309: u8 [t2 + 1460] = 0\n  8313: u8 [t2 + 1459] = 0\n  8317: u8 [t2 + 1458] = 0\n  8321: u8 [t2 + 1457] = 0\n  8325: u8 [t2 + 1456] = 0\n  8329: u8 [t2 + 1455] = 0\n  8333: u8 [t2 + 1454] = 0\n  8337: u8 [t2 + 1453] = 0\n  8341: u8 [t2 + 1452] = 0\n  8345: u8 [t2 + 1451] = 0\n  8349: u8 [t2 + 1450] = 0\n  8353: u8 [t2 + 1449] = 0\n  8357: u8 [t2 + 1448] = 0\n  8361: u8 [t2 + 1447] = 0\n  8365: u8 [t2 + 1446] = 0\n  8369: u8 [t2 + 1445] = 0\n  8373: u8 [t2 + 1444] = 0\n  8377: u8 [t2 + 1443] = 0\n  8381: u8 [t2 + 1442] = 0\n  8385: u8 [t2 + 1441] = 0\n  8389: a0 = u64 [sp + 0x2c0]\n  8393: u8 [t2 + 0x581] = a0\n  8397: a0 = u64 [sp + 0x290]\n  8401: u8 [t2 + 0x589] = a0\n  8405: a0 = u64 [sp + 0x288]\n  8409: u8 [t2 + 0x591] = a0\n  8413: u8 [t2 + 0x599] = ra\n  8417: a0 = u64 [sp + 0x358]\n  8421: u8 [t2 + 0x593] = a0\n  8425: a0 = u64 [sp + 0x350]\n  8429: u8 [t2 + 0x592] = a0\n  8433: a0 = u64 [sp + 0x348]\n  8437: u8 [t2 + 0x5a0] = a0\n  8441: a0 = u64 [sp + 0x318]\n  8445: u8 [t2 + 0x59f] = a0\n  8449: a0 = u64 [sp + 0x310]\n  8453: u8 [t2 + 0x59e] = a0\n  8457: a0 = u64 [sp + 0x308]\n  8461: u8 [t2 + 0x59d] = a0\n  8465: a0 = u64 [sp + 0x300]\n  8469: u8 [t2 + 0x59c] = a0\n  8473: a0 = u64 [sp + 0x2d8]\n  8477: u8 [t2 + 0x59b] = a0\n  8481: a0 = u64 [sp + 0x250]\n  8485: u8 [t2 + 0x59a] = a0\n  8489: s1 = u64 [sp + 0x3a8]\n  8493: a0 = s1 << 0x38\n  8496: a0 = a0 >> 0x3b\n  8499: a2 = sp + 0x10e0\n  8503: a2 = a2 + a0\n  8506: a0 = u8 [a2 + 0x11]\n  8509: a1 = u8 [a2 + 0x10]\n  8512: a3 = u8 [a2 + 0x12]\n  8515: a4 = u8 [a2 + 0x13]\n  8518: a0 = a0 << 0x8\n  8521: a0 = a0 | a1\n  8524: a3 = a3 << 0x10\n  8527: a4 = a4 << 0x18\n  8530: a3 = a3 | a4\n  8533: a0 = a0 | a3\n  8536: a1 = u8 [a2 + 0x15]\n  8539: a3 = u8 [a2 + 0x14]\n  8542: a4 = u8 [a2 + 0x16]\n  8545: a5 = u8 [a2 + 0x17]\n  8548: a1 = a1 << 0x8\n  8551: a1 = a1 | a3\n  8554: a4 = a4 << 0x10\n  8557: a5 = a5 << 0x18\n  8560: a4 = a4 | a5\n  8563: a1 = a1 | a4\n  8566: a1 = a1 << 0x20\n  8569: t2 = a1 | a0\n  8572: s1 = s1 & 0x7\n  8575: t0 = t2 >> s1\n  8578: a0 = u8 [a2 + 0x19]\n  8581: a3 = u8 [a2 + 0x18]\n  8584: a4 = u8 [a2 + 0x1a]\n  8587: a5 = u8 [a2 + 0x1b]\n  8590: a0 = a0 << 0x8\n  8593: a0 = a0 | a3\n  8596: a4 = a4 << 0x10\n  8599: a5 = a5 << 0x18\n  8602: a4 = a4 | a5\n  8605: a0 = a0 | a4\n  8608: a3 = u8 [a2 + 0x1d]\n  8611: a4 = u8 [a2 + 0x1c]\n  8614: a5 = u8 [a2 + 0x1e]\n  8617: a1 = u8 [a2 + 0x1f]\n  8620: a3 = a3 << 0x8\n  8623: a3 = a3 | a4\n  8626: a5 = a5 << 0x10\n  8629: a1 = a1 << 0x18\n  8632: a1 = a1 | a5\n  8635: a1 = a1 | a3\n  8638: a1 = a1 << 0x20\n  8641: a0 = a0 | a1\n  8644: a1 = a0 << 0x1\n  8647: t1 = s1 ^ 0x3f\n  8650: a1 = a1 << t1\n  8653: a1 = t0 | a1\n  8656: u64 [sp + 0x358] = a1\n  8660: a1 = u8 [a2 + 0x9]\n  8663: a3 = u8 [a2 + 0x8]\n  8666: a4 = u8 [a2 + 0xa]\n  8669: a5 = u8 [a2 + 0xb]\n  8672: a1 = a1 << 0x8\n  8675: a1 = a1 | a3\n  8678: a4 = a4 << 0x10\n  8681: a5 = a5 << 0x18\n  8684: a4 = a4 | a5\n  8687: t0 = a4 | a1\n  8690: a3 = u8 [a2 + 0xd]\n  8693: a4 = u8 [a2 + 0xc]\n  8696: a5 = u8 [a2 + 0xe]\n  8699: a1 = u8 [a2 + 0xf]\n  8702: a3 = a3 << 0x8\n  8705: a3 = a3 | a4\n  8708: a5 = a5 << 0x10\n  8711: a1 = a1 << 0x18\n  8714: a1 = a1 | a5\n  8717: a1 = a1 | a3\n  8720: a1 = a1 << 0x20\n  8723: t0 = a1 | t0\n  8726: a1 = t0 >> s1\n  8729: t2 = t2 << 0x1\n  8732: a3 = s1 ^ 0xffffffffffffffff\n  8735: a3 = t2 << a3\n  8738: t2 = a1 | a3\n  8741: a1 = u8 [a2 + 0x1]\n  8744: a3 = u8 [a2]\n  8746: a5 = u8 [a2 + 0x2]\n  8749: a4 = u8 [a2 + 0x3]\n  8752: a1 = a1 << 0x8\n  8755: a1 = a1 | a3\n  8758: a5 = a5 << 0x10\n  8761: a4 = a4 << 0x18\n  8764: a4 = a4 | a5\n  8767: a1 = a1 | a4\n  8770: a3 = u8 [a2 + 0x5]\n  8773: a4 = u8 [a2 + 0x4]\n  8776: a5 = u8 [a2 + 0x6]\n  8779: a2 = u8 [a2 + 0x7]\n  8782: a3 = a3 << 0x8\n  8785: a3 = a3 | a4\n  8788: a5 = a5 << 0x10\n  8791: a2 = a2 << 0x18\n  8794: a2 = a2 | a5\n  8797: a5 = u64 [sp + 0x368]\n  8801: a2 = a2 | a3\n  8804: a2 = a2 << 0x20\n  8807: a1 = a1 | a2\n  8810: a1 = a1 >> s1\n  8813: t0 = t0 << 0x1\n  8816: a2 = t0 << t1\n  8819: ra = a1 | a2\n  8822: a2 = a0 >> s1\n  8825: a3 = u64 [sp + 0x3c0]\n  8829: a0 = a3 <u 0x1\n  8832: a1 = u64 [sp + 0x3d0]\n  8836: a0 = a1 - a0\n  8839: u64 [sp + 0x310] = a0\n  8843: a0 = a3 | a1\n  8846: a0 = a0 <u 0x1\n  8849: a1 = u64 [sp + 0x3c8]\n  8853: a4 = a1 - a0\n  8856: u64 [sp + 0x308] = a4\n  8860: a0 = a1 <u a0\n  8863: a1 = u64 [sp + 0x3d8]\n  8867: a1 = a1 - a0\n  8870: u64 [sp + 0x300] = a1\n  8874: a3 = a3 + 0xffffffffffffffff\n  8877: u64 [sp + 0x2d8] = a3\n  8881: fallthrough\n      : @113 (gas: 105)\n  8882: u64 [sp + 0x368] = a5\n  8886: u64 [sp + 792] = 0\n  8890: a0 = ra >> 0x3f\n  8893: s1 = t2 << 0x1\n  8896: s1 = s1 | a0\n  8899: ra = ra << 0x1\n  8902: t1 = t2\n  8904: t2 = u64 [sp + 0x3a0]\n  8908: a0 = t2 >> 0x3f\n  8911: a1 = ra | a0\n  8914: a0 = u64 [sp + 0x310]\n  8918: a4 = a0 ^ s1\n  8921: a5 = a0 <u s1\n  8924: a0 = u64 [sp + 0x2d8]\n  8928: a3 = a0 <u a1\n  8931: ra = a1\n  8933: u64 [sp + 0x348] = a1\n  8937: a3 = a5 if a4 != 0\n  8940: a2 = a2 << 0x1\n  8943: a1 = u64 [sp + 0x358]\n  8947: a4 = a1 >> 0x3f\n  8950: t0 = a2 | a4\n  8953: u64 [sp + 0x350] = t0\n  8957: a4 = t1 >> 0x3f\n  8960: a1 = a1 << 0x1\n  8963: a4 = a4 | a1\n  8966: a1 = t2 << 0x1\n  8969: a0 = u64 [sp + 0x388]\n  8973: a5 = a0 >> 0x3f\n  8976: t2 = a1 | a5\n  8979: a5 = a0 << 0x1\n  8982: a1 = u64 [sp + 0x390]\n  8986: a2 = a1 >> 0x3f\n  8989: a2 = a2 | a5\n  8992: a1 = a1 << 0x1\n  8995: a5 = u64 [sp + 0x398]\n  8999: a0 = a5 >> 0x3f\n  9002: a0 = a0 | a1\n  9005: a5 = a5 << 0x1\n  9008: a1 = u64 [sp + 0x368]\n  9012: a5 = a5 | a1\n  9015: u64 [sp + 0x398] = a5\n  9019: a5 = u64 [sp + 0x360]\n  9023: a0 = a0 | a5\n  9026: u64 [sp + 0x390] = a0\n  9030: a0 = a5 | a2\n  9033: u64 [sp + 0x388] = a0\n  9037: a0 = a5 | t2\n  9040: u64 [sp + 0x3a0] = a0\n  9044: a1 = u64 [sp + 0x308]\n  9048: a0 = a1 - a4\n  9051: a0 = a0 <u a3\n  9054: a1 = a1 <u a4\n  9057: a2 = u64 [sp + 0x300]\n  9061: a2 = a2 - t0\n  9064: a2 = a2 - a1\n  9067: a2 = a2 - a0\n  9070: a5 = a2 >>a 0x3f\n  9073: a0 = u64 [sp + 0x3c0]\n  9077: t0 = a5 & a0\n  9080: a3 = u64 [sp + 0x3d0]\n  9084: a3 = a3 & a5\n  9087: t2 = s1 ^ a3\n  9090: a2 = s1 <u a3\n  9093: a1 = ra <u t0\n  9096: a2 = a1 if t2 == 0\n  9099: a0 = u64 [sp + 0x3c8]\n  9103: t2 = a5 & a0\n  9106: t1 = a4 - t2\n  9109: ra = t1 - a2\n  9112: u64 [sp + 0x358] = ra\n  9116: t1 = t1 <u a2\n  9119: a4 = a4 <u t2\n  9122: a2 = u64 [sp + 0x3d8]\n  9126: a2 = a2 & a5\n  9129: a0 = u64 [sp + 0x350]\n  9133: a2 = a0 - a2\n  9136: a2 = a2 - a4\n  9139: a2 = a2 - t1\n  9142: s1 = s1 - a3\n  9145: t2 = s1 - a1\n  9148: a0 = u64 [sp + 0x348]\n  9152: ra = a0 - t0\n  9155: a4 = u64 [sp + 0x3a8]\n  9159: s1 = u64 [sp + 0x380]\n  9163: a0 = a4 | s1\n  9166: a0 = a0 <u 0x1\n  9169: a3 = u64 [sp + 0x370]\n  9173: a1 = a3 <u a0\n  9176: a0 = a3 - a0\n  9179: a3 = a4 <u 0x1\n  9182: s1 = s1 - a3\n  9185: a3 = u64 [sp + 0x378]\n  9189: a3 = a3 - a1\n  9192: a4 = a4 + 0xffffffffffffffff\n  9195: u64 [sp + 0x380] = s1\n  9199: u64 [sp + 0x378] = a3\n  9203: a1 = s1 | a3\n  9206: u64 [sp + 0x3a8] = a4\n  9210: a3 = a4 | a0\n  9213: a1 = a1 | a3\n  9216: a5 = a5 & 0x1\n  9219: u64 [sp + 0x370] = a0\n  9223: u64 [sp + 864] = 0\n  9227: jump @113 if a1 != 0\n      : @114 (gas: 1)\n  9231: jump @116\n      : @115 (gas: 3)\n  9233: a5 = 0\n  9235: u64 [sp + 792] = 0\n  9239: fallthrough\n      : @116 (gas: 21)\n  9240: a2 = u64 [sp + 0x388]\n  9244: a0 = a2 >> 0x3f\n  9247: a1 = u64 [sp + 0x3a0]\n  9251: a1 = a1 << 0x1\n  9254: a1 = a1 | a0\n  9257: a4 = u64 [sp + 0x390]\n  9261: a0 = a4 >> 0x3f\n  9264: a2 = a2 << 0x1\n  9267: a3 = a2 | a0\n  9270: a0 = u64 [sp + 0x398]\n  9274: a2 = a0 >> 0x3f\n  9277: a4 = a4 << 0x1\n  9280: a0 = a0 << 0x1\n  9283: t0 = a5 | a0\n  9286: a5 = u64 [sp + 0x318]\n  9290: a2 = a2 | a5\n  9293: ra = a2 | a4\n  9296: t1 = a5 | a3\n  9299: a2 = a5 | a1\n  9302: t2 = u64 [sp + 0x3d0]\n  9306: jump @118\n      : @117 (gas: 2)\n  9308: t2 = u64 [sp + 0x3d0]\n  9312: fallthrough\n      : @118 (gas: 218)\n  9313: u64 [sp + 0x388] = t0\n  9317: u64 [sp + 0x390] = a2\n  9321: u64 [sp + 0x398] = ra\n  9325: u64 [sp + 0x3a0] = t1\n  9329: ra = u64 [sp + 0x3c0]\n  9333: a2 = u64 [sp + 0x2a0]\n  9337: a1 = ra mulhu a2\n  9340: a4 = t2 * a2\n  9343: a1 = a1 + a4\n  9346: a4 = a1 <u a4\n  9349: a5 = t2 mulhu a2\n  9352: a5 = a5 + a4\n  9355: a0 = u64 [sp + 0x260]\n  9359: a4 = ra * a0\n  9362: a1 = a1 + a4\n  9365: u64 [sp + 0x3a8] = a1\n  9369: a4 = a1 <u a4\n  9372: s1 = ra mulhu a0\n  9375: a4 = a4 + s1\n  9378: a4 = a4 + a5\n  9381: a5 = a4 <u a5\n  9384: s1 = t2 mulhu a0\n  9387: a5 = a5 + s1\n  9390: s1 = t2 * a0\n  9393: a4 = a4 + s1\n  9396: s1 = a4 <u s1\n  9399: t1 = a5 + s1\n  9402: a1 = u64 [sp + 0x268]\n  9406: s1 = a1 * t2\n  9409: a3 = a1 mulhu ra\n  9412: a3 = a3 + s1\n  9415: a5 = u64 [sp + 0x258]\n  9419: s1 = a5 * ra\n  9422: t0 = a3 + s1\n  9425: a5 = u64 [sp + 0x3c8]\n  9429: s1 = a2 mulhu a5\n  9432: a3 = a5\n  9434: a5 = u64 [sp + 0x3d8]\n  9438: a5 = a2 * a5\n  9441: a5 = a5 + s1\n  9444: s1 = a0 * a3\n  9447: a5 = a5 + s1\n  9450: t0 = t0 + a5\n  9453: a5 = a1 * ra\n  9456: s1 = a2 * a3\n  9459: s1 = s1 + a5\n  9462: a5 = s1 <u a5\n  9465: a3 = t0 + a5\n  9468: a3 = a3 + t1\n  9471: s1 = s1 + a4\n  9474: a4 = s1 <u a4\n  9477: a0 = u64 [sp + 0x298]\n  9481: a4 = a0 - a4\n  9484: a4 = a4 - a3\n  9487: u64 [sp + 0x380] = a4\n  9491: a3 = ra * a2\n  9494: a5 = u64 [sp + 0x2b8]\n  9498: a1 = u64 [sp + 0x3a8]\n  9502: a0 = a5 ^ a1\n  9505: a2 = a5 <u a1\n  9508: t1 = u64 [sp + 0x2e0]\n  9512: a4 = t1 <u a3\n  9515: a2 = a4 if a0 == 0\n  9518: a0 = u64 [sp + 0x2b0]\n  9522: a1 = a0 <u s1\n  9525: s1 = a0 - s1\n  9528: t0 = t2\n  9530: a0 = s1 <u a2\n  9533: a0 = a0 + a1\n  9536: a1 = u64 [sp + 0x380]\n  9540: a0 = a1 - a0\n  9543: u64 [sp + 0x2a0] = a0\n  9547: s1 = s1 - a2\n  9550: u64 [sp + 0x2b0] = s1\n  9554: a0 = a5 - a4\n  9557: a1 = u64 [sp + 0x3a8]\n  9561: a0 = a0 - a1\n  9564: u64 [sp + 0x2b8] = a0\n  9568: a0 = t1 - a3\n  9571: u64 [sp + 0x298] = a0\n  9575: s1 = u64 [sp + 0x388]\n  9579: a0 = ra mulhu s1\n  9582: a1 = t2 * s1\n  9585: a0 = a0 + a1\n  9588: a1 = a0 <u a1\n  9591: a2 = t2 mulhu s1\n  9594: a1 = a1 + a2\n  9597: t1 = u64 [sp + 0x398]\n  9601: a2 = ra * t1\n  9604: a4 = a2 + a0\n  9607: a0 = a4 <u a2\n  9610: a2 = ra mulhu t1\n  9613: a0 = a0 + a2\n  9616: a0 = a0 + a1\n  9619: a1 = a0 <u a1\n  9622: a2 = t2 mulhu t1\n  9625: a1 = a1 + a2\n  9628: a2 = t2 * t1\n  9631: a0 = a0 + a2\n  9634: a2 = a0 <u a2\n  9637: t2 = a1 + a2\n  9640: a5 = u64 [sp + 0x3a0]\n  9644: a2 = a5 * t0\n  9647: a3 = a5 mulhu ra\n  9650: t0 = a5\n  9652: a2 = a2 + a3\n  9655: a3 = u64 [sp + 0x390]\n  9659: a3 = a3 * ra\n  9662: a2 = a2 + a3\n  9665: a1 = u64 [sp + 0x3c8]\n  9669: a3 = s1 mulhu a1\n  9672: a5 = u64 [sp + 0x3d8]\n  9676: a5 = s1 * a5\n  9679: a3 = a3 + a5\n  9682: a5 = t1 * a1\n  9685: a3 = a3 + a5\n  9688: a2 = a2 + a3\n  9691: a3 = t0 * ra\n  9694: a5 = s1 * a1\n  9697: a5 = a5 + a3\n  9700: a3 = a5 <u a3\n  9703: a2 = a2 + a3\n  9706: a1 = t2 + a2\n  9709: a5 = a5 + a0\n  9712: a0 = a5 <u a0\n  9715: a2 = u64 [sp + 0x278]\n  9719: a0 = a2 - a0\n  9722: t0 = a0 - a1\n  9725: t2 = ra * s1\n  9728: a2 = u64 [sp + 0x290]\n  9732: a0 = a2 ^ a4\n  9735: a3 = a2 <u a4\n  9738: a1 = u64 [sp + 0x2c0]\n  9742: s1 = a1 <u t2\n  9745: a3 = s1 if a0 == 0\n  9748: a0 = u64 [sp + 0x288]\n  9752: ra = a0 <u a5\n  9755: a5 = a0 - a5\n  9758: a0 = a5 <u a3\n  9761: a0 = a0 + ra\n  9764: t0 = t0 - a0\n  9767: a5 = a5 - a3\n  9770: a2 = a2 - s1\n  9773: a2 = a2 - a4\n  9776: a1 = a1 - t2\n  9779: a3 = u64 [sp + 0x2b0]\n  9783: a3 = a3 + a5\n  9786: a4 = a3 <u a5\n  9789: a0 = u64 [sp + 0x2a0]\n  9793: a0 = a0 + t0\n  9796: a0 = a0 + a4\n  9799: a4 = u64 [sp + 0x298]\n  9803: a4 = a4 + a1\n  9806: a1 = a4 <u a1\n  9809: a5 = a4\n  9811: u64 [sp + 0x2e0] = a4\n  9815: a4 = u64 [sp + 0x2b8]\n  9819: a4 = a4 + a2\n  9822: ra = a4 + a1\n  9825: a4 = ra ^ a2\n  9828: a2 = ra <u a2\n  9831: a2 = a1 if a4 == 0\n  9834: t0 = a3 + a2\n  9837: a1 = t0 <u a3\n  9840: t1 = a0 + a1\n  9843: a1 = clz t1\n  9845: a0 = clz t0\n  9847: a0 = a0 + 0x40\n  9850: a0 = a1 if t1 != 0\n  9853: a1 = clz ra\n  9855: a2 = clz a5\n  9857: a2 = a2 + 0x40\n  9860: a2 = a1 if ra != 0\n  9863: a1 = t0 | t1\n  9866: a3 = a2 + 0x80\n  9870: a0 = a3 if a1 == 0\n  9873: a3 = a3 <u a2\n  9876: a3 = 0 if a1 != 0\n  9878: a5 = u64 [sp + 0x328]\n  9882: a1 = a5 <u a0\n  9885: a4 = u64 [sp + 0x330]\n  9889: s1 = a4 ^ a3\n  9892: a2 = a4 <u a3\n  9895: a2 = a1 if s1 == 0\n  9898: a3 = a4 - a3\n  9901: s1 = a3 - a1\n  9904: a5 = a5 - a0\n  9907: u64 [sp + 0x398] = a5\n  9911: a0 = a5 <u 0x100\n  9915: a0 = a0 ^ 0x1\n  9918: a4 = s1 >u 0\n  9920: a0 = a4 if s1 != 0\n  9923: a5 = a2 <u 0x1\n  9926: a5 = a5 + 0xffffffffffffffff\n  9929: t2 = -a2\n  9931: a4 = t2 >u 0\n  9933: a1 = a5 >u 0\n  9935: a1 = a4 if a5 == 0\n  9938: a4 = t1\n  9940: a3 = u64 [sp + 0x2e0]\n  9944: a1 = a0 if a2 == 0\n  9947: a0 = ra | t1\n  9950: a2 = a3 | t0\n  9953: a0 = a0 | a2\n  9956: a0 = a0 <u 0x1\n  9959: a2 = u64 [sp + 0x320]\n  9963: a0 = a0 | a2\n  9966: a1 = a1 | a0\n  9969: t1 = 0 if a1 != 0\n  9971: u64 [sp + 0x2c0] = t0\n  9975: t0 = 0 if a1 != 0\n  9977: u64 [sp + 0x3a0] = t0\n  9981: u64 [sp + 0x2d8] = ra\n  9985: ra = 0 if a1 != 0\n  9987: a0 = a3\n  9989: a0 = 0 if a1 != 0\n  9991: u64 [sp + 0x290] = a4\n  9995: jump @124 if a1 != 0\n      : @119 (gas: 7)\n  9999: a2 = u64 [sp + 0x398]\n 10003: a1 = a2 ^ 0xff\n 10007: a1 = a1 | t2\n 10010: a3 = s1 | a5\n 10013: a1 = a1 | a3\n 10016: a3 = u64 [sp + 0x2b0]\n 10020: jump @127 if a1 == 0\n      : @120 (gas: 258)\n 10024: a1 = a2 + 0x1\n 10027: u64 [sp + 0x3a8] = a1\n 10031: a0 = a1 <u 0x1\n 10034: a0 = a0 + s1\n 10037: u64 [sp + 0x380] = a0\n 10041: a0 = a0 | a1\n 10044: a0 = a0 <u 0x1\n 10047: a0 = a0 + t2\n 10050: u64 [sp + 0x370] = a0\n 10054: a0 = a0 <u t2\n 10057: a0 = a0 + a5\n 10060: u64 [sp + 0x378] = a0\n 10064: t0 = 0xff - a2\n 10068: t2 = sp + 0x7ff\n 10072: t2 = t2 + 0x360\n 10076: a2 = u64 [sp + 0x2d8]\n 10080: a1 = u64 [sp + 0x2e0]\n 10084: u8 [t2 + 0x561] = a1\n 10088: u8 [t2 + 1376] = 0\n 10092: u8 [t2 + 1375] = 0\n 10096: u8 [t2 + 1374] = 0\n 10100: u8 [t2 + 1373] = 0\n 10104: u8 [t2 + 1372] = 0\n 10108: u8 [t2 + 1371] = 0\n 10112: u8 [t2 + 1370] = 0\n 10116: u8 [t2 + 1369] = 0\n 10120: u8 [t2 + 1368] = 0\n 10124: u8 [t2 + 1367] = 0\n 10128: u8 [t2 + 1366] = 0\n 10132: u8 [t2 + 1365] = 0\n 10136: u8 [t2 + 1364] = 0\n 10140: u8 [t2 + 1363] = 0\n 10144: u8 [t2 + 1362] = 0\n 10148: u8 [t2 + 1361] = 0\n 10152: u8 [t2 + 1360] = 0\n 10156: u8 [t2 + 1359] = 0\n 10160: u8 [t2 + 1358] = 0\n 10164: u8 [t2 + 1357] = 0\n 10168: u8 [t2 + 1356] = 0\n 10172: u8 [t2 + 1355] = 0\n 10176: u8 [t2 + 1354] = 0\n 10180: u8 [t2 + 1353] = 0\n 10184: u8 [t2 + 1352] = 0\n 10188: u8 [t2 + 1351] = 0\n 10192: u8 [t2 + 1350] = 0\n 10196: u8 [t2 + 1349] = 0\n 10200: u8 [t2 + 1348] = 0\n 10204: u8 [t2 + 1347] = 0\n 10208: u8 [t2 + 1346] = 0\n 10212: u8 [t2 + 1345] = 0\n 10216: u8 [t2 + 0x569] = a2\n 10220: a0 = a1 >> 0x38\n 10223: u64 [sp + 0x278] = a0\n 10227: u8 [t2 + 0x568] = a0\n 10231: a0 = a1 >> 0x30\n 10234: u64 [sp + 0x268] = a0\n 10238: u8 [t2 + 0x567] = a0\n 10242: a0 = a1 >> 0x28\n 10245: u64 [sp + 0x260] = a0\n 10249: u8 [t2 + 0x566] = a0\n 10253: a0 = a1 >> 0x20\n 10256: u64 [sp + 0x258] = a0\n 10260: u8 [t2 + 0x565] = a0\n 10264: a0 = a1 >> 0x18\n 10267: u64 [sp + 0x250] = a0\n 10271: u8 [t2 + 0x564] = a0\n 10275: a0 = a1 >> 0x10\n 10278: u64 [sp + 0x248] = a0\n 10282: u8 [t2 + 0x563] = a0\n 10286: a0 = a1 >> 0x8\n 10289: u64 [sp + 0x240] = a0\n 10293: u8 [t2 + 0x562] = a0\n 10297: a1 = u64 [sp + 0x2c0]\n 10301: u8 [t2 + 0x571] = a1\n 10305: a0 = a2 >> 0x38\n 10308: u64 [sp + 0x238] = a0\n 10312: u8 [t2 + 0x570] = a0\n 10316: a0 = a2 >> 0x30\n 10319: u64 [sp + 0x230] = a0\n 10323: u8 [t2 + 0x56f] = a0\n 10327: a0 = a2 >> 0x28\n 10330: u64 [sp + 0x228] = a0\n 10334: u8 [t2 + 0x56e] = a0\n 10338: a0 = a2 >> 0x20\n 10341: u64 [sp + 0x220] = a0\n 10345: u8 [t2 + 0x56d] = a0\n 10349: a0 = a2 >> 0x18\n 10352: u64 [sp + 0x218] = a0\n 10356: u8 [t2 + 0x56c] = a0\n 10360: a0 = a2 >> 0x10\n 10363: u64 [sp + 0x210] = a0\n 10367: u8 [t2 + 0x56b] = a0\n 10371: a0 = a2 >> 0x8\n 10374: u64 [sp + 0x208] = a0\n 10378: u8 [t2 + 0x56a] = a0\n 10382: u8 [t2 + 0x579] = a4\n 10386: a0 = a1 >> 0x38\n 10389: u64 [sp + 0x1d0] = a0\n 10393: u8 [t2 + 0x578] = a0\n 10397: a0 = a1 >> 0x30\n 10400: u64 [sp + 0x1c8] = a0\n 10404: u8 [t2 + 0x577] = a0\n 10408: a0 = a1 >> 0x28\n 10411: u64 [sp + 0x1c0] = a0\n 10415: u8 [t2 + 0x576] = a0\n 10419: a0 = a1 >> 0x20\n 10422: u64 [sp + 0x1b8] = a0\n 10426: u8 [t2 + 0x575] = a0\n 10430: a0 = a1 >> 0x18\n 10433: u64 [sp + 0x1b0] = a0\n 10437: u8 [t2 + 0x574] = a0\n 10441: a0 = a1 >> 0x10\n 10444: u64 [sp + 0x360] = a0\n 10448: u8 [t2 + 0x573] = a0\n 10452: a0 = a1 >> 0x8\n 10455: u64 [sp + 0x358] = a0\n 10459: u8 [t2 + 0x572] = a0\n 10463: a0 = a4 >> 0x38\n 10466: u64 [sp + 0x350] = a0\n 10470: u8 [t2 + 0x580] = a0\n 10474: a0 = a4 >> 0x30\n 10477: u64 [sp + 0x348] = a0\n 10481: u8 [t2 + 0x57f] = a0\n 10485: a0 = a4 >> 0x28\n 10488: u64 [sp + 0x318] = a0\n 10492: u8 [t2 + 0x57e] = a0\n 10496: a0 = a4 >> 0x20\n 10499: u64 [sp + 0x310] = a0\n 10503: u8 [t2 + 0x57d] = a0\n 10507: a0 = a4 >> 0x18\n 10510: u64 [sp + 0x308] = a0\n 10514: u8 [t2 + 0x57c] = a0\n 10518: a0 = a4 >> 0x10\n 10521: u64 [sp + 0x300] = a0\n 10525: u8 [t2 + 0x57b] = a0\n 10529: a0 = a4 >> 0x8\n 10532: u64 [sp + 0x288] = a0\n 10536: u8 [t2 + 0x57a] = a0\n 10540: a1 = t0 << 0x38\n 10543: a1 = a1 >> 0x3b\n 10546: a4 = sp + 0x10c0\n 10550: a4 = a4 - a1\n 10553: a1 = u8 [a4 + 0x19]\n 10556: a2 = u8 [a4 + 0x18]\n 10559: a3 = u8 [a4 + 0x1a]\n 10562: a5 = u8 [a4 + 0x1b]\n 10565: a1 = a1 << 0x8\n 10568: a1 = a1 | a2\n 10571: a3 = a3 << 0x10\n 10574: a5 = a5 << 0x18\n 10577: a3 = a3 | a5\n 10580: a1 = a1 | a3\n 10583: a2 = u8 [a4 + 0x1d]\n 10586: a3 = u8 [a4 + 0x1c]\n 10589: a5 = u8 [a4 + 0x1e]\n 10592: s1 = u8 [a4 + 0x1f]\n 10595: a2 = a2 << 0x8\n 10598: a2 = a2 | a3\n 10601: a5 = a5 << 0x10\n 10604: s1 = s1 << 0x18\n 10607: a5 = a5 | s1\n 10610: a2 = a2 | a5\n 10613: a2 = a2 << 0x20\n 10616: a1 = a1 | a2\n 10619: a2 = u8 [a4 + 0x11]\n 10622: a3 = u8 [a4 + 0x10]\n 10625: a5 = u8 [a4 + 0x12]\n 10628: s1 = u8 [a4 + 0x13]\n 10631: a2 = a2 << 0x8\n 10634: a2 = a2 | a3\n 10637: a5 = a5 << 0x10\n 10640: s1 = s1 << 0x18\n 10643: a5 = a5 | s1\n 10646: a2 = a2 | a5\n 10649: a3 = u8 [a4 + 0x15]\n 10652: a5 = u8 [a4 + 0x14]\n 10655: s1 = u8 [a4 + 0x16]\n 10658: a0 = u8 [a4 + 0x17]\n 10661: a3 = a3 << 0x8\n 10664: a3 = a3 | a5\n 10667: s1 = s1 << 0x10\n 10670: a0 = a0 << 0x18\n 10673: a0 = a0 | s1\n 10676: a0 = a0 | a3\n 10679: a0 = a0 << 0x20\n 10682: t1 = a0 | a2\n 10685: a0 = t0 & 0x7\n 10688: a2 = a1 << a0\n 10691: a5 = t1 >> 0x1\n 10694: t0 = a0 ^ 0x3f\n 10697: a5 = a5 >> t0\n 10700: a2 = a2 | a5\n 10703: u64 [sp + 0x3a0] = a2\n 10707: a2 = u8 [a4 + 0x9]\n 10710: a5 = u8 [a4 + 0x8]\n 10713: s1 = u8 [a4 + 0xa]\n 10716: a1 = u8 [a4 + 0xb]\n 10719: a2 = a2 << 0x8\n 10722: a2 = a2 | a5\n 10725: s1 = s1 << 0x10\n 10728: a1 = a1 << 0x18\n 10731: a1 = a1 | s1\n 10734: a1 = a1 | a2\n 10737: a2 = u8 [a4 + 0xd]\n 10740: a5 = u8 [a4 + 0xc]\n 10743: s1 = u8 [a4 + 0xe]\n 10746: a3 = u8 [a4 + 0xf]\n 10749: a2 = a2 << 0x8\n 10752: a2 = a2 | a5\n 10755: s1 = s1 << 0x10\n 10758: a3 = a3 << 0x18\n 10761: a3 = a3 | s1\n 10764: a2 = a2 | a3\n 10767: a2 = a2 << 0x20\n 10770: a5 = a2 | a1\n 10773: a1 = a5 >> 0x1\n 10776: a2 = a0 ^ 0xffffffffffffffff\n 10779: a1 = a1 >> a2\n 10782: a2 = t1 << a0\n 10785: a1 = a1 | a2\n 10788: u64 [sp + 0x388] = a1\n 10792: a1 = u8 [a4 + 0x1]\n 10795: a2 = u8 [a4]\n 10797: a3 = u8 [a4 + 0x2]\n 10800: s1 = u8 [a4 + 0x3]\n 10803: a1 = a1 << 0x8\n 10806: a1 = a1 | a2\n 10809: a3 = a3 << 0x10\n 10812: s1 = s1 << 0x18\n 10815: a3 = a3 | s1\n 10818: a1 = a1 | a3\n 10821: a2 = u8 [a4 + 0x5]\n 10824: a3 = u8 [a4 + 0x4]\n 10827: s1 = u8 [a4 + 0x6]\n 10830: a4 = u8 [a4 + 0x7]\n 10833: a2 = a2 << 0x8\n 10836: a2 = a2 | a3\n 10839: s1 = s1 << 0x10\n 10842: a4 = a4 << 0x18\n 10845: a4 = a4 | s1\n 10848: s1 = u64 [sp + 0x380]\n 10852: a2 = a2 | a4\n 10855: a4 = u64 [sp + 0x370]\n 10859: a2 = a2 << 0x20\n 10862: a1 = a1 | a2\n 10865: a2 = a1 >> 0x1\n 10868: a2 = a2 >> t0\n 10871: a3 = a5 << a0\n 10874: a5 = u64 [sp + 0x378]\n 10878: a2 = a2 | a3\n 10881: u64 [sp + 0x390] = a2\n 10885: a2 = s1 | a5\n 10888: a3 = u64 [sp + 0x3a8]\n 10892: a3 = a3 | a4\n 10895: a2 = a2 | a3\n 10898: a0 = a1 << a0\n 10901: u64 [sp + 0x398] = a0\n 10905: jump @125 if a2 == 0\n      : @121 (gas: 227)\n 10909: u64 [sp + 424] = 0\n 10913: u64 [sp + 872] = 0\n 10917: a0 = u64 [sp + 0x278]\n 10921: u8 [t2 + 0x508] = a0\n 10925: a0 = u64 [sp + 0x268]\n 10929: u8 [t2 + 0x507] = a0\n 10933: a0 = u64 [sp + 0x260]\n 10937: u8 [t2 + 0x506] = a0\n 10941: a0 = u64 [sp + 0x258]\n 10945: u8 [t2 + 0x505] = a0\n 10949: a0 = u64 [sp + 0x250]\n 10953: u8 [t2 + 0x504] = a0\n 10957: a0 = u64 [sp + 0x248]\n 10961: u8 [t2 + 0x503] = a0\n 10965: a0 = u64 [sp + 0x240]\n 10969: u8 [t2 + 0x502] = a0\n 10973: a0 = u64 [sp + 0x238]\n 10977: u8 [t2 + 0x510] = a0\n 10981: a0 = u64 [sp + 0x230]\n 10985: u8 [t2 + 0x50f] = a0\n 10989: a0 = u64 [sp + 0x228]\n 10993: u8 [t2 + 0x50e] = a0\n 10997: a0 = u64 [sp + 0x220]\n 11001: u8 [t2 + 0x50d] = a0\n 11005: a0 = u64 [sp + 0x218]\n 11009: u8 [t2 + 0x50c] = a0\n 11013: a0 = u64 [sp + 0x210]\n 11017: u8 [t2 + 0x50b] = a0\n 11021: a0 = u64 [sp + 0x208]\n 11025: u8 [t2 + 0x50a] = a0\n 11029: a0 = u64 [sp + 0x1d0]\n 11033: u8 [t2 + 0x518] = a0\n 11037: a0 = u64 [sp + 0x1c8]\n 11041: u8 [t2 + 0x517] = a0\n 11045: a0 = u64 [sp + 0x1c0]\n 11049: u8 [t2 + 0x516] = a0\n 11053: a0 = u64 [sp + 0x1b8]\n 11057: u8 [t2 + 0x515] = a0\n 11061: a0 = u64 [sp + 0x1b0]\n 11065: u8 [t2 + 0x514] = a0\n 11069: u8 [t2 + 1344] = 0\n 11073: u8 [t2 + 1343] = 0\n 11077: u8 [t2 + 1342] = 0\n 11081: u8 [t2 + 1341] = 0\n 11085: u8 [t2 + 1340] = 0\n 11089: u8 [t2 + 1339] = 0\n 11093: u8 [t2 + 1338] = 0\n 11097: u8 [t2 + 1337] = 0\n 11101: u8 [t2 + 1336] = 0\n 11105: u8 [t2 + 1335] = 0\n 11109: u8 [t2 + 1334] = 0\n 11113: u8 [t2 + 1333] = 0\n 11117: u8 [t2 + 1332] = 0\n 11121: u8 [t2 + 1331] = 0\n 11125: u8 [t2 + 1330] = 0\n 11129: u8 [t2 + 1329] = 0\n 11133: u8 [t2 + 1328] = 0\n 11137: u8 [t2 + 1327] = 0\n 11141: u8 [t2 + 1326] = 0\n 11145: u8 [t2 + 1325] = 0\n 11149: u8 [t2 + 1324] = 0\n 11153: u8 [t2 + 1323] = 0\n 11157: u8 [t2 + 1322] = 0\n 11161: u8 [t2 + 1321] = 0\n 11165: u8 [t2 + 1320] = 0\n 11169: u8 [t2 + 1319] = 0\n 11173: u8 [t2 + 1318] = 0\n 11177: u8 [t2 + 1317] = 0\n 11181: u8 [t2 + 1316] = 0\n 11185: u8 [t2 + 1315] = 0\n 11189: u8 [t2 + 1314] = 0\n 11193: u8 [t2 + 1313] = 0\n 11197: a0 = u64 [sp + 0x2e0]\n 11201: u8 [t2 + 0x501] = a0\n 11205: a0 = u64 [sp + 0x2d8]\n 11209: u8 [t2 + 0x509] = a0\n 11213: a0 = u64 [sp + 0x2c0]\n 11217: u8 [t2 + 0x511] = a0\n 11221: a0 = u64 [sp + 0x290]\n 11225: u8 [t2 + 0x519] = a0\n 11229: a0 = u64 [sp + 0x360]\n 11233: u8 [t2 + 0x513] = a0\n 11237: a0 = u64 [sp + 0x358]\n 11241: u8 [t2 + 0x512] = a0\n 11245: a0 = u64 [sp + 0x350]\n 11249: u8 [t2 + 0x520] = a0\n 11253: a0 = u64 [sp + 0x348]\n 11257: u8 [t2 + 0x51f] = a0\n 11261: a0 = u64 [sp + 0x318]\n 11265: u8 [t2 + 0x51e] = a0\n 11269: a0 = u64 [sp + 0x310]\n 11273: u8 [t2 + 0x51d] = a0\n 11277: a0 = u64 [sp + 0x308]\n 11281: u8 [t2 + 0x51c] = a0\n 11285: a0 = u64 [sp + 0x300]\n 11289: u8 [t2 + 0x51b] = a0\n 11293: a0 = u64 [sp + 0x288]\n 11297: u8 [t2 + 0x51a] = a0\n 11301: s1 = u64 [sp + 0x3a8]\n 11305: a0 = s1 << 0x38\n 11308: a0 = a0 >> 0x3b\n 11311: a1 = sp + 0x1060\n 11315: a1 = a1 + a0\n 11318: a0 = u8 [a1 + 0x11]\n 11321: a2 = u8 [a1 + 0x10]\n 11324: a3 = u8 [a1 + 0x12]\n 11327: a4 = u8 [a1 + 0x13]\n 11330: a0 = a0 << 0x8\n 11333: a0 = a0 | a2\n 11336: a3 = a3 << 0x10\n 11339: a4 = a4 << 0x18\n 11342: a3 = a3 | a4\n 11345: a0 = a0 | a3\n 11348: a2 = u8 [a1 + 0x15]\n 11351: a3 = u8 [a1 + 0x14]\n 11354: a4 = u8 [a1 + 0x16]\n 11357: a5 = u8 [a1 + 0x17]\n 11360: a2 = a2 << 0x8\n 11363: a2 = a2 | a3\n 11366: a4 = a4 << 0x10\n 11369: a5 = a5 << 0x18\n 11372: a4 = a4 | a5\n 11375: a2 = a2 | a4\n 11378: a2 = a2 << 0x20\n 11381: t2 = a2 | a0\n 11384: s1 = s1 & 0x7\n 11387: t1 = t2 >> s1\n 11390: a2 = u8 [a1 + 0x19]\n 11393: a3 = u8 [a1 + 0x18]\n 11396: a4 = u8 [a1 + 0x1a]\n 11399: a5 = u8 [a1 + 0x1b]\n 11402: a2 = a2 << 0x8\n 11405: a2 = a2 | a3\n 11408: a4 = a4 << 0x10\n 11411: a5 = a5 << 0x18\n 11414: a4 = a4 | a5\n 11417: a2 = a2 | a4\n 11420: a3 = u8 [a1 + 0x1d]\n 11423: a4 = u8 [a1 + 0x1c]\n 11426: a5 = u8 [a1 + 0x1e]\n 11429: a0 = u8 [a1 + 0x1f]\n 11432: a3 = a3 << 0x8\n 11435: a3 = a3 | a4\n 11438: a5 = a5 << 0x10\n 11441: a0 = a0 << 0x18\n 11444: a0 = a0 | a5\n 11447: a0 = a0 | a3\n 11450: a0 = a0 << 0x20\n 11453: t0 = a0 | a2\n 11456: a0 = t0 << 0x1\n 11459: ra = s1 ^ 0x3f\n 11462: a0 = a0 << ra\n 11465: a0 = t1 | a0\n 11468: u64 [sp + 0x360] = a0\n 11472: a0 = u8 [a1 + 0x9]\n 11475: a3 = u8 [a1 + 0x8]\n 11478: a4 = u8 [a1 + 0xa]\n 11481: a5 = u8 [a1 + 0xb]\n 11484: a0 = a0 << 0x8\n 11487: a0 = a0 | a3\n 11490: a4 = a4 << 0x10\n 11493: a5 = a5 << 0x18\n 11496: a4 = a4 | a5\n 11499: a0 = a0 | a4\n 11502: a3 = u8 [a1 + 0xd]\n 11505: a4 = u8 [a1 + 0xc]\n 11508: a5 = u8 [a1 + 0xe]\n 11511: a2 = u8 [a1 + 0xf]\n 11514: a3 = a3 << 0x8\n 11517: a3 = a3 | a4\n 11520: a5 = a5 << 0x10\n 11523: a2 = a2 << 0x18\n 11526: a2 = a2 | a5\n 11529: a2 = a2 | a3\n 11532: a2 = a2 << 0x20\n 11535: a0 = a0 | a2\n 11538: a2 = a0 >> s1\n 11541: t2 = t2 << 0x1\n 11544: a3 = s1 ^ 0xffffffffffffffff\n 11547: a3 = t2 << a3\n 11550: t1 = a2 | a3\n 11553: a2 = u8 [a1 + 0x1]\n 11556: a3 = u8 [a1]\n 11558: a4 = u8 [a1 + 0x2]\n 11561: a5 = u8 [a1 + 0x3]\n 11564: a2 = a2 << 0x8\n 11567: a2 = a2 | a3\n 11570: a4 = a4 << 0x10\n 11573: a5 = a5 << 0x18\n 11576: a4 = a4 | a5\n 11579: a2 = a2 | a4\n 11582: a3 = u8 [a1 + 0x5]\n 11585: a4 = u8 [a1 + 0x4]\n 11588: a5 = u8 [a1 + 0x6]\n 11591: a1 = u8 [a1 + 0x7]\n 11594: a3 = a3 << 0x8\n 11597: a3 = a3 | a4\n 11600: a5 = a5 << 0x10\n 11603: a1 = a1 << 0x18\n 11606: a1 = a1 | a5\n 11609: a1 = a1 | a3\n 11612: a1 = a1 << 0x20\n 11615: a1 = a1 | a2\n 11618: a1 = a1 >> s1\n 11621: a0 = a0 << 0x1\n 11624: a0 = a0 << ra\n 11627: ra = a1 | a0\n 11630: t0 = t0 >> s1\n 11633: t2 = u64 [sp + 0x1a8]\n 11637: a1 = u64 [sp + 0x3c0]\n 11641: a0 = a1 <u 0x1\n 11644: a2 = u64 [sp + 0x3d0]\n 11648: a0 = a2 - a0\n 11651: u64 [sp + 0x318] = a0\n 11655: a0 = a1 | a2\n 11658: a0 = a0 <u 0x1\n 11661: a2 = u64 [sp + 0x3c8]\n 11665: a3 = a2 - a0\n 11668: u64 [sp + 0x310] = a3\n 11672: a0 = a2 <u a0\n 11675: a2 = u64 [sp + 0x3d8]\n 11679: a2 = a2 - a0\n 11682: u64 [sp + 0x308] = a2\n 11686: a1 = a1 + 0xffffffffffffffff\n 11689: u64 [sp + 0x300] = a1\n 11693: a3 = u64 [sp + 0x3a0]\n 11697: fallthrough\n      : @122 (gas: 103)\n 11698: u64 [sp + 840] = 0\n 11702: a0 = ra >> 0x3f\n 11705: s1 = t1 << 0x1\n 11708: s1 = s1 | a0\n 11711: ra = ra << 0x1\n 11714: a0 = a3 >> 0x3f\n 11717: a4 = ra | a0\n 11720: a1 = u64 [sp + 0x318]\n 11724: a0 = a1 ^ s1\n 11727: a2 = a1 <u s1\n 11730: a1 = u64 [sp + 0x300]\n 11734: a5 = a1 <u a4\n 11737: a1 = t1\n 11739: t1 = a4\n 11741: u64 [sp + 0x350] = a4\n 11745: a5 = a2 if a0 != 0\n 11748: t0 = t0 << 0x1\n 11751: a4 = u64 [sp + 0x360]\n 11755: a0 = a4 >> 0x3f\n 11758: ra = t0 | a0\n 11761: u64 [sp + 0x358] = ra\n 11765: a2 = a1 >> 0x3f\n 11768: a4 = a4 << 0x1\n 11771: a2 = a2 | a4\n 11774: a4 = a3 << 0x1\n 11777: a0 = u64 [sp + 0x388]\n 11781: a1 = a0 >> 0x3f\n 11784: t0 = a4 | a1\n 11787: a4 = a0 << 0x1\n 11790: a1 = u64 [sp + 0x390]\n 11794: a0 = a1 >> 0x3f\n 11797: a0 = a0 | a4\n 11800: a1 = a1 << 0x1\n 11803: a4 = u64 [sp + 0x398]\n 11807: a3 = a4 >> 0x3f\n 11810: a3 = a3 | a1\n 11813: a4 = a4 << 0x1\n 11816: a4 = t2 | a4\n 11819: u64 [sp + 0x398] = a4\n 11823: a4 = u64 [sp + 0x368]\n 11827: a3 = a3 | a4\n 11830: u64 [sp + 0x390] = a3\n 11834: a0 = a0 | a4\n 11837: u64 [sp + 0x388] = a0\n 11841: a0 = a4 | t0\n 11844: u64 [sp + 0x3a0] = a0\n 11848: a1 = u64 [sp + 0x310]\n 11852: a0 = a1 - a2\n 11855: a0 = a0 <u a5\n 11858: a1 = a1 <u a2\n 11861: a3 = u64 [sp + 0x308]\n 11865: a3 = a3 - ra\n 11868: a3 = a3 - a1\n 11871: a3 = a3 - a0\n 11874: a5 = a3 >>a 0x3f\n 11877: a0 = u64 [sp + 0x3c0]\n 11881: ra = a5 & a0\n 11884: a1 = u64 [sp + 0x3d0]\n 11888: a1 = a1 & a5\n 11891: t2 = s1 ^ a1\n 11894: a4 = s1 <u a1\n 11897: a3 = t1 <u ra\n 11900: a4 = a3 if t2 == 0\n 11903: a0 = u64 [sp + 0x3c8]\n 11907: t2 = a5 & a0\n 11910: t1 = a2 - t2\n 11913: t0 = t1 - a4\n 11916: u64 [sp + 0x360] = t0\n 11920: t1 = t1 <u a4\n 11923: a2 = a2 <u t2\n 11926: a4 = u64 [sp + 0x3d8]\n 11930: a4 = a4 & a5\n 11933: a0 = u64 [sp + 0x358]\n 11937: a4 = a0 - a4\n 11940: a4 = a4 - a2\n 11943: t0 = a4 - t1\n 11946: s1 = s1 - a1\n 11949: t1 = s1 - a3\n 11952: a0 = u64 [sp + 0x350]\n 11956: ra = a0 - ra\n 11959: a3 = u64 [sp + 0x3a8]\n 11963: a4 = u64 [sp + 0x380]\n 11967: a0 = a3 | a4\n 11970: a0 = a0 <u 0x1\n 11973: a2 = u64 [sp + 0x370]\n 11977: a1 = a2 <u a0\n 11980: a0 = a2 - a0\n 11983: a2 = a3 <u 0x1\n 11986: a4 = a4 - a2\n 11989: a2 = u64 [sp + 0x378]\n 11993: a2 = a2 - a1\n 11996: a3 = a3 + 0xffffffffffffffff\n 11999: u64 [sp + 0x380] = a4\n 12003: u64 [sp + 0x378] = a2\n 12007: a1 = a4 | a2\n 12010: u64 [sp + 0x3a8] = a3\n 12014: a2 = a3 | a0\n 12017: a3 = u64 [sp + 0x3a0]\n 12021: a1 = a1 | a2\n 12024: t2 = a5 & 0x1\n 12027: u64 [sp + 0x370] = a0\n 12031: u64 [sp + 872] = 0\n 12035: jump @122 if a1 != 0\n      : @123 (gas: 1)\n 12039: jump @126\n      : @124 (gas: 2)\n 12041: a3 = u64 [sp + 0x2b0]\n 12045: jump @127\n      : @125 (gas: 4)\n 12047: t2 = 0\n 12049: u64 [sp + 840] = 0\n 12053: a3 = u64 [sp + 0x3a0]\n 12057: fallthrough\n      : @126 (gas: 22)\n 12058: a1 = u64 [sp + 0x388]\n 12062: a0 = a1 >> 0x3f\n 12065: a2 = a3 << 0x1\n 12068: a3 = a2 | a0\n 12071: a5 = u64 [sp + 0x390]\n 12075: a0 = a5 >> 0x3f\n 12078: a2 = a1 << 0x1\n 12081: a4 = a2 | a0\n 12084: a0 = u64 [sp + 0x398]\n 12088: a2 = a0 >> 0x3f\n 12091: a5 = a5 << 0x1\n 12094: a0 = a0 << 0x1\n 12097: a0 = t2 | a0\n 12100: s1 = u64 [sp + 0x348]\n 12104: a2 = a2 | s1\n 12107: ra = a2 | a5\n 12110: a1 = s1 | a4\n 12113: u64 [sp + 0x3a0] = a1\n 12117: t1 = s1 | a3\n 12120: a3 = u64 [sp + 0x2b0]\n 12124: a4 = u64 [sp + 0x290]\n 12128: fallthrough\n      : @127 (gas: 140)\n 12129: u64 [sp + 0x390] = t1\n 12133: u64 [sp + 632] = 0\n 12137: u64 [sp + 560] = 0\n 12141: u64 [sp + 576] = 0\n 12145: u64 [sp + 568] = 0\n 12149: t1 = a0\n 12151: a0 = u64 [sp + 0x298]\n 12155: a2 = u64 [sp + 0x2e0]\n 12159: s1 = a2 <u a0\n 12162: a0 = u64 [sp + 0x2b8]\n 12166: t0 = a3\n 12168: a1 = u64 [sp + 0x2d8]\n 12172: a3 = a1 ^ a0\n 12175: a5 = a1 <u a0\n 12178: a5 = s1 if a3 == 0\n 12181: a0 = u64 [sp + 0x2a0]\n 12185: a3 = a4 ^ a0\n 12188: a4 = a4 <u a0\n 12191: a0 = u64 [sp + 0x2c0]\n 12195: s1 = a0 <u t0\n 12198: a4 = s1 if a3 == 0\n 12201: s1 = a0 ^ t0\n 12204: a3 = a3 | s1\n 12207: a4 = a5 if a3 == 0\n 12210: u64 [sp + 0x398] = a4\n 12214: t0 = u64 [sp + 0x3c0]\n 12218: a3 = t0 mulhu t1\n 12221: t2 = u64 [sp + 0x3d0]\n 12225: a5 = t2 * t1\n 12228: a3 = a3 + a5\n 12231: a5 = a3 <u a5\n 12234: s1 = t2 mulhu t1\n 12237: s1 = s1 + a5\n 12240: a5 = t0 * ra\n 12243: a3 = a3 + a5\n 12246: u64 [sp + 0x3a8] = a3\n 12250: a5 = a3 <u a5\n 12253: a4 = t0 mulhu ra\n 12256: a4 = a4 + a5\n 12259: a4 = a4 + s1\n 12262: a5 = a4 <u s1\n 12265: s1 = t2 mulhu ra\n 12268: a5 = a5 + s1\n 12271: s1 = t2 * ra\n 12274: a4 = a4 + s1\n 12277: s1 = a4 <u s1\n 12280: a5 = a5 + s1\n 12283: u64 [sp + 0x388] = a5\n 12287: a1 = u64 [sp + 0x3a0]\n 12291: s1 = a1 * t2\n 12294: a3 = a2\n 12296: a2 = a1 mulhu t0\n 12299: a2 = a2 + s1\n 12302: a0 = u64 [sp + 0x390]\n 12306: s1 = a0 * t0\n 12309: a2 = a2 + s1\n 12312: u64 [sp + 0x390] = a2\n 12316: a2 = u64 [sp + 0x3c8]\n 12320: s1 = t1 mulhu a2\n 12323: a0 = u64 [sp + 0x3d8]\n 12327: a5 = t1 * a0\n 12330: a5 = a5 + s1\n 12333: a0 = a2\n 12335: s1 = ra * a2\n 12338: a5 = a5 + s1\n 12341: a2 = u64 [sp + 0x390]\n 12345: a2 = a2 + a5\n 12348: a5 = a1 * t0\n 12351: s1 = t1 * a0\n 12354: s1 = s1 + a5\n 12357: a5 = s1 <u a5\n 12360: a2 = a2 + a5\n 12363: a0 = u64 [sp + 0x388]\n 12367: a2 = a2 + a0\n 12370: s1 = s1 + a4\n 12373: a4 = s1 <u a4\n 12376: ra = u64 [sp + 0x2c0]\n 12380: a2 = a2 + a4\n 12383: u64 [sp + 0x390] = a2\n 12387: a2 = t0 * t1\n 12390: u64 [sp + 0x3a0] = a2\n 12394: a0 = u64 [sp + 0x3a8]\n 12398: a1 = u64 [sp + 0x2d8]\n 12402: a4 = a1 ^ a0\n 12405: a5 = a1 <u a0\n 12408: a0 = a3 <u a2\n 12411: a5 = a0 if a4 == 0\n 12414: a4 = ra <u s1\n 12417: s1 = ra - s1\n 12420: a2 = s1 <u a5\n 12423: a2 = a2 + a4\n 12426: t1 = u64 [sp + 0x290]\n 12430: a4 = u64 [sp + 0x390]\n 12434: a4 = t1 - a4\n 12437: a4 = a4 - a2\n 12440: u64 [sp + 0x390] = a4\n 12444: s1 = s1 - a5\n 12447: u64 [sp + 0x388] = s1\n 12451: a2 = u64 [sp + 0x3a8]\n 12455: a2 = a1 - a2\n 12458: a2 = a2 - a0\n 12461: u64 [sp + 0x3a8] = a2\n 12465: a4 = a3 <u t0\n 12468: a3 = a1 ^ t2\n 12471: a5 = a1 <u t2\n 12474: a5 = a4 if a3 == 0\n 12477: a0 = u64 [sp + 0x3c8]\n 12481: a2 = ra - a0\n 12484: a3 = a2 - a5\n 12487: s1 = a2 <u a5\n 12490: a5 = ra <u a0\n 12493: a2 = u64 [sp + 0x3d8]\n 12497: a2 = t1 - a2\n 12500: a2 = a2 - a5\n 12503: a5 = a2 - s1\n 12506: a2 = a1 - t2\n 12509: a2 = a2 - a4\n 12512: a4 = u64 [sp + 0x398]\n 12516: a0 = u64 [sp + 0x390]\n 12520: a5 = a0 if a4 == 0\n 12523: u64 [sp + 0x298] = a5\n 12527: a0 = u64 [sp + 0x388]\n 12531: a3 = a0 if a4 == 0\n 12534: u64 [sp + 0x2b0] = a3\n 12538: a0 = u64 [sp + 0x2e0]\n 12542: a1 = u64 [sp + 0x3a0]\n 12546: a3 = a0 - a1\n 12549: a0 = a0 - t0\n 12552: a0 = a3 if a4 == 0\n 12555: u64 [sp + 0x2e0] = a0\n 12559: a0 = u64 [sp + 0x3a8]\n 12563: a2 = a0 if a4 == 0\n 12566: u64 [sp + 0x2b8] = a2\n 12570: t1 = sp + 0x7ff\n 12574: t1 = t1 + 0x360\n 12578: a5 = u64 [sp + 0x2f8]\n 12582: ra = u64 [sp + 0x2f0]\n 12586: a2 = u64 [sp + 0x2e8]\n 12590: s1 = u64 [sp + 0x2d0]\n 12594: jump @132\n      : @128 (gas: 4)\n 12597: a5 = 0\n 12599: u64 [sp + 792] = 0\n 12603: s1 = u64 [sp + 0x3a0]\n 12607: fallthrough\n      : @129 (gas: 24)\n 12608: a2 = u64 [sp + 0x398]\n 12612: a0 = a2 >> 0x3f\n 12615: a1 = s1 << 0x1\n 12618: a1 = a1 | a0\n 12621: a4 = u64 [sp + 0x388]\n 12625: a0 = a4 >> 0x3f\n 12628: a2 = a2 << 0x1\n 12631: a3 = a2 | a0\n 12634: a0 = u64 [sp + 0x390]\n 12638: a2 = a0 >> 0x3f\n 12641: a4 = a4 << 0x1\n 12644: a0 = a0 << 0x1\n 12647: a0 = a0 | a5\n 12650: u64 [sp + 0x398] = a0\n 12654: a5 = u64 [sp + 0x318]\n 12658: a2 = a2 | a5\n 12661: ra = a2 | a4\n 12664: a0 = a5 | a3\n 12667: u64 [sp + 0x3a0] = a0\n 12671: a1 = a1 | a5\n 12674: u64 [sp + 0x3a8] = a1\n 12678: t1 = u64 [sp + 0x2d0]\n 12682: t0 = u64 [sp + 0x2c0]\n 12686: fallthrough\n      : @130 (gas: 153)\n 12687: a1 = u64 [sp + 0x2d8]\n 12691: a1 = t1 <u a1\n 12694: a4 = u64 [sp + 0x2a0]\n 12698: a3 = t0 ^ a4\n 12701: a4 = t0 <u a4\n 12704: a4 = a1 if a3 == 0\n 12707: a5 = u64 [sp + 0x2e8]\n 12711: a3 = u64 [sp + 0x288]\n 12715: a1 = a5 ^ a3\n 12718: s1 = a5 <u a3\n 12721: a0 = u64 [sp + 0x2f0]\n 12725: a3 = u64 [sp + 0x290]\n 12729: a5 = a0 <u a3\n 12732: s1 = a5 if a1 == 0\n 12735: a5 = a0 ^ a3\n 12738: a1 = a1 | a5\n 12741: s1 = a4 if a1 == 0\n 12744: u64 [sp + 0x390] = s1\n 12748: a1 = u64 [sp + 0x228]\n 12752: a0 = a1 <u 0x13\n 12755: a1 = u64 [sp + 0x230]\n 12759: a0 = 0 if a1 != 0\n 12761: u64 [sp + 0x370] = a0\n 12765: s1 = ra\n 12767: a0 = u64 [sp + 0x278]\n 12771: ra = a0 <u 0x1\n 12774: a1 = a1 + ra\n 12777: u64 [sp + 0x388] = a1\n 12781: a1 = a1 | a0\n 12784: a4 = a1 <u 0x1\n 12787: a3 = u64 [sp + 0x240]\n 12791: a4 = a4 + a3\n 12794: u64 [sp + 0x380] = a4\n 12798: a1 = a4 <u a3\n 12801: a4 = u64 [sp + 0x238]\n 12805: a3 = a3 | a4\n 12808: u64 [sp + 0x368] = a3\n 12812: a1 = a1 + a4\n 12815: u64 [sp + 0x378] = a1\n 12819: a0 = u64 [sp + 0x3c0]\n 12823: t1 = u64 [sp + 0x398]\n 12827: a2 = a0 mulhu t1\n 12830: a3 = a0\n 12832: a5 = u64 [sp + 0x3a0]\n 12836: t2 = u64 [sp + 0x3d0]\n 12840: t0 = t2 * t1\n 12843: a0 = t0 + a2\n 12846: a2 = a0 <u t0\n 12849: a1 = t2 mulhu t1\n 12852: a1 = a1 + a2\n 12855: t0 = a3\n 12857: a2 = a3 * s1\n 12860: a0 = a0 + a2\n 12863: u64 [sp + 0x360] = a0\n 12867: a2 = a0 <u a2\n 12870: a4 = a3 mulhu s1\n 12873: a2 = a2 + a4\n 12876: a2 = a2 + a1\n 12879: a1 = a2 <u a1\n 12882: a4 = t2 mulhu s1\n 12885: a1 = a1 + a4\n 12888: a4 = t2 * s1\n 12891: a2 = a2 + a4\n 12894: a4 = a2 <u a4\n 12897: a1 = a1 + a4\n 12900: u64 [sp + 0x358] = a1\n 12904: a1 = a5\n 12906: a4 = a5 * t2\n 12909: a3 = a5 mulhu a3\n 12912: a3 = a3 + a4\n 12915: a4 = u64 [sp + 0x3a8]\n 12919: a4 = a4 * t0\n 12922: a3 = a3 + a4\n 12925: ra = u64 [sp + 0x3c8]\n 12929: a4 = t1 mulhu ra\n 12932: a0 = u64 [sp + 0x3d8]\n 12936: a5 = t1 * a0\n 12939: a4 = a4 + a5\n 12942: a5 = s1 * ra\n 12945: a4 = a4 + a5\n 12948: a3 = a3 + a4\n 12951: a4 = a1 * t0\n 12954: a5 = t1 * ra\n 12957: a5 = a5 + a4\n 12960: a4 = a5 <u a4\n 12963: a3 = a3 + a4\n 12966: a1 = u64 [sp + 0x358]\n 12970: a1 = a1 + a3\n 12973: a5 = a5 + a2\n 12976: a2 = a5 <u a2\n 12979: a1 = a1 + a2\n 12982: s1 = t0 * t1\n 12985: u64 [sp + 0x3a8] = s1\n 12989: t0 = u64 [sp + 0x2c0]\n 12993: a4 = u64 [sp + 0x360]\n 12997: a0 = t0 ^ a4\n 13000: a3 = t0 <u a4\n 13003: t1 = a4\n 13005: a2 = u64 [sp + 0x2d0]\n 13009: a4 = a2 <u s1\n 13012: a3 = a4 if a0 == 0\n 13015: a0 = u64 [sp + 0x2f0]\n 13019: s1 = a0 <u a5\n 13022: a5 = a0 - a5\n 13025: a0 = a5 <u a3\n 13028: a0 = a0 + s1\n 13031: s1 = u64 [sp + 0x2e8]\n 13035: a1 = s1 - a1\n 13038: a1 = a1 - a0\n 13041: u64 [sp + 0x3a0] = a1\n 13045: a5 = a5 - a3\n 13048: a0 = t0 - t1\n 13051: a0 = a0 - a4\n 13054: u64 [sp + 0x398] = a0\n 13058: a1 = u64 [sp + 0x3c0]\n 13062: a0 = a2 <u a1\n 13065: t1 = a2\n 13067: a3 = t0 ^ t2\n 13070: a4 = t0 <u t2\n 13073: a4 = a0 if a3 == 0\n 13076: a2 = u64 [sp + 0x3d8]\n 13080: a3 = s1 - a2\n 13083: a2 = u64 [sp + 0x2f0]\n 13087: s1 = a2 <u ra\n 13090: s1 = a3 - s1\n 13093: a3 = a2 - ra\n 13096: ra = a3 <u a4\n 13099: s1 = s1 - ra\n 13102: ra = a3 - a4\n 13105: a3 = t0 - t2\n 13108: a2 = a3 - a0\n 13111: a3 = u64 [sp + 0x390]\n 13115: ra = a5 if a3 == 0\n 13118: a0 = u64 [sp + 0x3a0]\n 13122: s1 = a0 if a3 == 0\n 13125: a0 = u64 [sp + 0x398]\n 13129: a2 = a0 if a3 == 0\n 13132: a4 = u64 [sp + 0x370]\n 13136: a0 = u64 [sp + 0x368]\n 13140: a4 = 0 if a0 != 0\n 13142: a0 = u64 [sp + 0x3a8]\n 13146: a0 = t1 - a0\n 13149: a5 = t1 - a1\n 13152: a5 = a0 if a3 == 0\n 13155: a0 = u64 [sp + 0x388]\n 13159: u64 [sp + 0x230] = a0\n 13163: a0 = u64 [sp + 0x380]\n 13167: u64 [sp + 0x240] = a0\n 13171: a0 = u64 [sp + 0x378]\n 13175: u64 [sp + 0x238] = a0\n 13179: t1 = sp + 0x7ff\n 13183: t1 = t1 + 0x360\n 13187: jump @132 if a4 != 0\n      : @131 (gas: 1)\n 13190: jump @90\n      : @132 (gas: 40)\n 13193: u64 [sp + 0x2e8] = a2\n 13197: u64 [sp + 0x2d0] = s1\n 13201: u64 [sp + 0x2f8] = a5\n 13205: a0 = u64 [sp + 0x298]\n 13209: u64 [sp + 0x288] = a0\n 13213: a0 = u64 [sp + 0x2b0]\n 13217: u64 [sp + 0x290] = a0\n 13221: a0 = u64 [sp + 0x2b8]\n 13225: u64 [sp + 0x2a0] = a0\n 13229: a0 = u64 [sp + 0x2e0]\n 13233: u64 [sp + 0x2d8] = a0\n 13237: a0 = u64 [sp + 0x278]\n 13241: u64 [sp + 0x2b8] = a2\n 13245: u64 [sp + 0x298] = s1\n 13249: u64 [sp + 0x2e0] = a5\n 13253: u64 [sp + 0x228] = a0\n 13257: a0 = a0 + 0x1\n 13260: u64 [sp + 0x278] = a0\n 13264: a0 = a0 << 0x38\n 13267: u64 [t1 + 0x759] = a0\n 13271: u64 [sp + 0x2b0] = ra\n 13275: u64 [t1 + 1873] = 0\n 13279: u64 [t1 + 1865] = 0\n 13283: u64 [t1 + 1857] = 0\n 13287: u64 [t1 + 1913] = 0\n 13291: u64 [t1 + 1905] = 0\n 13295: u64 [t1 + 1897] = 0\n 13299: u64 [t1 + 1889] = 0\n 13303: u32 [t1 + 1921] = 0x20\n 13308: a0 = sp + 0x1000\n 13312: i32 a1 = a0 + 0x2a0\n 13316: a0 = sp + 0x1000\n 13320: i32 a3 = a0 + 0x2c0\n 13324: a0 = sp + 0x1000\n 13328: i32 a4 = a0 + 0x2e0\n 13332: a2 = 0xffffffffffffffff\n 13335: a0 = 0\n 13337: s1 = ra\n 13339: ecalli 3 // 'get_storage'\n 13341: fallthrough\n      : @133 (gas: 73)\n 13342: t1 = sp + 0x7ff\n 13346: t1 = t1 + 0x360\n 13350: a0 = u64 [t1 + 0x779]\n 13354: u64 [sp + 0x220] = a0\n 13358: a3 = s1\n 13360: u64 [sp + 0x2f0] = s1\n 13364: a0 = clz s1\n 13366: a1 = a0 + 0x40\n 13369: s1 = u64 [sp + 0x2d0]\n 13373: a0 = clz s1\n 13375: a0 = a1 if s1 == 0\n 13378: a1 = u64 [sp + 0x2f8]\n 13382: a1 = clz a1\n 13384: a1 = a1 + 0x40\n 13387: ra = u64 [sp + 0x2e8]\n 13391: a2 = clz ra\n 13393: a2 = a1 if ra == 0\n 13396: a1 = a2 + 0x80\n 13400: a3 = a3 | s1\n 13403: t2 = s1\n 13405: a0 = a1 if a3 == 0\n 13408: a1 = a1 <u a2\n 13411: a1 = 0 if a3 != 0\n 13413: s1 = u64 [sp + 0x330]\n 13417: a2 = s1 ^ a1\n 13420: a5 = s1 <u a1\n 13423: a3 = u64 [sp + 0x328]\n 13427: a4 = a3 <u a0\n 13430: a5 = a4 if a2 == 0\n 13433: a2 = a5 <u 0x1\n 13436: t0 = a2 + 0xffffffffffffffff\n 13439: t1 = -a5\n 13441: a1 = s1 - a1\n 13444: a1 = a1 - a4\n 13447: a3 = a3 - a0\n 13450: u64 [sp + 0x3a0] = t1\n 13454: a0 = t1 >u 0\n 13456: s1 = t0 >u 0\n 13458: s1 = a0 if t0 == 0\n 13461: a0 = a1 >u 0\n 13463: t1 = a3\n 13465: a3 = a3 <u 0x100\n 13469: a3 = a3 ^ 0x1\n 13472: a3 = a0 if a1 != 0\n 13475: a4 = sp + 0x7ff\n 13479: a4 = a4 + 0x360\n 13483: a0 = u64 [a4 + 0x771]\n 13487: u64 [sp + 0x258] = a0\n 13491: a3 = s1 if a5 != 0\n 13494: s1 = u64 [sp + 0x2f8]\n 13498: a2 = u64 [sp + 0x2f0]\n 13502: a0 = s1 | a2\n 13505: a5 = ra | t2\n 13508: a0 = a0 | a5\n 13511: a5 = u64 [a4 + 0x769]\n 13515: u64 [sp + 0x250] = a5\n 13519: a0 = a0 <u 0x1\n 13522: a5 = u64 [sp + 0x320]\n 13526: a0 = a0 | a5\n 13529: a0 = a0 | a3\n 13532: a3 = u64 [a4 + 0x761]\n 13536: u64 [sp + 0x248] = a3\n 13540: t2 = 0 if a0 != 0\n 13542: u64 [sp + 0x2d0] = t2\n 13546: a3 = a2\n 13548: a3 = 0 if a0 != 0\n 13550: u64 [sp + 0x2f0] = a3\n 13554: ra = 0 if a0 != 0\n 13556: u64 [sp + 0x2e8] = ra\n 13560: a3 = s1\n 13562: a3 = 0 if a0 != 0\n 13564: u64 [sp + 0x2f8] = a3\n 13568: jump @141 if a0 != 0\n      : @134 (gas: 9)\n 13572: a0 = t1 ^ 0xff\n 13576: a5 = u64 [sp + 0x3a0]\n 13580: a0 = a0 | a5\n 13583: a3 = a1 | t0\n 13586: a0 = a0 | a3\n 13589: ra = u64 [sp + 0x270]\n 13593: t2 = u64 [sp + 0x280]\n 13597: a4 = u64 [sp + 0x2c8]\n 13601: jump @142 if a0 == 0\n      : @135 (gas: 259)\n 13605: a3 = t1 + 0x1\n 13608: u64 [sp + 0x3a8] = a3\n 13612: a0 = a3 <u 0x1\n 13615: a0 = a0 + a1\n 13618: u64 [sp + 0x380] = a0\n 13622: a0 = a0 | a3\n 13625: a0 = a0 <u 0x1\n 13628: a0 = a0 + a5\n 13631: u64 [sp + 0x368] = a0\n 13635: a0 = a0 <u a5\n 13638: a0 = a0 + t0\n 13641: u64 [sp + 0x370] = a0\n 13645: t1 = 0xff - t1\n 13649: ra = sp + 0x7ff\n 13653: ra = ra + 0x360\n 13657: a0 = u64 [sp + 0x2e0]\n 13661: u8 [ra + 0x4e1] = a0\n 13665: u8 [ra + 1248] = 0\n 13669: u8 [ra + 1247] = 0\n 13673: u8 [ra + 1246] = 0\n 13677: u8 [ra + 1245] = 0\n 13681: u8 [ra + 1244] = 0\n 13685: u8 [ra + 1243] = 0\n 13689: u8 [ra + 1242] = 0\n 13693: u8 [ra + 1241] = 0\n 13697: u8 [ra + 1240] = 0\n 13701: u8 [ra + 1239] = 0\n 13705: u8 [ra + 1238] = 0\n 13709: u8 [ra + 1237] = 0\n 13713: u8 [ra + 1236] = 0\n 13717: u8 [ra + 1235] = 0\n 13721: u8 [ra + 1234] = 0\n 13725: u8 [ra + 1233] = 0\n 13729: u8 [ra + 1232] = 0\n 13733: u8 [ra + 1231] = 0\n 13737: u8 [ra + 1230] = 0\n 13741: u8 [ra + 1229] = 0\n 13745: u8 [ra + 1228] = 0\n 13749: u8 [ra + 1227] = 0\n 13753: u8 [ra + 1226] = 0\n 13757: u8 [ra + 1225] = 0\n 13761: u8 [ra + 1224] = 0\n 13765: u8 [ra + 1223] = 0\n 13769: u8 [ra + 1222] = 0\n 13773: u8 [ra + 1221] = 0\n 13777: u8 [ra + 1220] = 0\n 13781: u8 [ra + 1219] = 0\n 13785: u8 [ra + 1218] = 0\n 13789: u8 [ra + 1217] = 0\n 13793: a1 = u64 [sp + 0x2b8]\n 13797: u8 [ra + 0x4e9] = a1\n 13801: a2 = a0 >> 0x38\n 13804: u64 [sp + 0x2e8] = a2\n 13808: u8 [ra + 0x4e8] = a2\n 13812: a2 = a0 >> 0x30\n 13815: u64 [sp + 0x2d0] = a2\n 13819: u8 [ra + 0x4e7] = a2\n 13823: a2 = a0 >> 0x28\n 13826: u64 [sp + 0x2c0] = a2\n 13830: u8 [ra + 0x4e6] = a2\n 13834: a2 = a0 >> 0x20\n 13837: u64 [sp + 0x268] = a2\n 13841: u8 [ra + 0x4e5] = a2\n 13845: a2 = a0 >> 0x18\n 13848: u64 [sp + 0x260] = a2\n 13852: u8 [ra + 0x4e4] = a2\n 13856: a2 = a0 >> 0x10\n 13859: u64 [sp + 0x218] = a2\n 13863: u8 [ra + 0x4e3] = a2\n 13867: a0 = a0 >> 0x8\n 13870: u64 [sp + 0x210] = a0\n 13874: u8 [ra + 0x4e2] = a0\n 13878: a0 = u64 [sp + 0x2b0]\n 13882: u8 [ra + 0x4f1] = a0\n 13886: a2 = a1 >> 0x38\n 13889: u64 [sp + 0x208] = a2\n 13893: u8 [ra + 0x4f0] = a2\n 13897: a2 = a1 >> 0x30\n 13900: u64 [sp + 0x1d0] = a2\n 13904: u8 [ra + 0x4ef] = a2\n 13908: a2 = a1 >> 0x28\n 13911: u64 [sp + 0x1c8] = a2\n 13915: u8 [ra + 0x4ee] = a2\n 13919: a2 = a1 >> 0x20\n 13922: u64 [sp + 0x1c0] = a2\n 13926: u8 [ra + 0x4ed] = a2\n 13930: a2 = a1 >> 0x18\n 13933: u64 [sp + 0x1b8] = a2\n 13937: u8 [ra + 0x4ec] = a2\n 13941: a2 = a1 >> 0x10\n 13944: u64 [sp + 0x1b0] = a2\n 13948: u8 [ra + 0x4eb] = a2\n 13952: a1 = a1 >> 0x8\n 13955: u64 [sp + 0x1a8] = a1\n 13959: u8 [ra + 0x4ea] = a1\n 13963: t0 = u64 [sp + 0x298]\n 13967: u8 [ra + 0x4f9] = t0\n 13971: a1 = a0 >> 0x38\n 13974: u64 [sp + 0x1a0] = a1\n 13978: u8 [ra + 0x4f8] = a1\n 13982: a1 = a0 >> 0x30\n 13985: u64 [sp + 0x198] = a1\n 13989: u8 [ra + 0x4f7] = a1\n 13993: a1 = a0 >> 0x28\n 13996: u64 [sp + 0x190] = a1\n 14000: u8 [ra + 0x4f6] = a1\n 14004: a1 = a0 >> 0x20\n 14007: u64 [sp + 0x188] = a1\n 14011: u8 [ra + 0x4f5] = a1\n 14015: a1 = a0 >> 0x18\n 14018: u64 [sp + 0x180] = a1\n 14022: u8 [ra + 0x4f4] = a1\n 14026: a1 = a0 >> 0x10\n 14029: u64 [sp + 0x358] = a1\n 14033: u8 [ra + 0x4f3] = a1\n 14037: a0 = a0 >> 0x8\n 14040: u64 [sp + 0x350] = a0\n 14044: u8 [ra + 0x4f2] = a0\n 14048: a0 = t0 >> 0x38\n 14051: u64 [sp + 0x348] = a0\n 14055: u8 [ra + 0x500] = a0\n 14059: a0 = t0 >> 0x30\n 14062: u64 [sp + 0x318] = a0\n 14066: u8 [ra + 0x4ff] = a0\n 14070: a0 = t0 >> 0x28\n 14073: u64 [sp + 0x310] = a0\n 14077: u8 [ra + 0x4fe] = a0\n 14081: a0 = t0 >> 0x20\n 14084: u64 [sp + 0x308] = a0\n 14088: u8 [ra + 0x4fd] = a0\n 14092: a0 = t0 >> 0x18\n 14095: u64 [sp + 0x300] = a0\n 14099: u8 [ra + 0x4fc] = a0\n 14103: a0 = t0 >> 0x10\n 14106: u64 [sp + 0x2f8] = a0\n 14110: u8 [ra + 0x4fb] = a0\n 14114: a0 = t0 >> 0x8\n 14117: u64 [sp + 0x2f0] = a0\n 14121: u8 [ra + 0x4fa] = a0\n 14125: a0 = t1 << 0x38\n 14128: a0 = a0 >> 0x3b\n 14131: a5 = sp + 0x1040\n 14135: a5 = a5 - a0\n 14138: a0 = u8 [a5 + 0x19]\n 14141: a1 = u8 [a5 + 0x18]\n 14144: a2 = u8 [a5 + 0x1a]\n 14147: a4 = u8 [a5 + 0x1b]\n 14150: a0 = a0 << 0x8\n 14153: a0 = a0 | a1\n 14156: a2 = a2 << 0x10\n 14159: a4 = a4 << 0x18\n 14162: a2 = a2 | a4\n 14165: a0 = a0 | a2\n 14168: a1 = u8 [a5 + 0x1d]\n 14171: a2 = u8 [a5 + 0x1c]\n 14174: a4 = u8 [a5 + 0x1e]\n 14177: s1 = u8 [a5 + 0x1f]\n 14180: a1 = a1 << 0x8\n 14183: a1 = a1 | a2\n 14186: a4 = a4 << 0x10\n 14189: s1 = s1 << 0x18\n 14192: a4 = a4 | s1\n 14195: a1 = a1 | a4\n 14198: a1 = a1 << 0x20\n 14201: a2 = a1 | a0\n 14204: a0 = u8 [a5 + 0x11]\n 14207: a1 = u8 [a5 + 0x10]\n 14210: a4 = u8 [a5 + 0x12]\n 14213: s1 = u8 [a5 + 0x13]\n 14216: a0 = a0 << 0x8\n 14219: a0 = a0 | a1\n 14222: a4 = a4 << 0x10\n 14225: s1 = s1 << 0x18\n 14228: a4 = a4 | s1\n 14231: a0 = a0 | a4\n 14234: a1 = u8 [a5 + 0x15]\n 14237: a4 = u8 [a5 + 0x14]\n 14240: s1 = u8 [a5 + 0x16]\n 14243: a3 = u8 [a5 + 0x17]\n 14246: a1 = a1 << 0x8\n 14249: a1 = a1 | a4\n 14252: s1 = s1 << 0x10\n 14255: a3 = a3 << 0x18\n 14258: a3 = a3 | s1\n 14261: a1 = a1 | a3\n 14264: a1 = a1 << 0x20\n 14267: t2 = a1 | a0\n 14270: a3 = t1 & 0x7\n 14273: a0 = a2 << a3\n 14276: a1 = t2 >> 0x1\n 14279: t1 = a3 ^ 0x3f\n 14282: a1 = a1 >> t1\n 14285: a0 = a0 | a1\n 14288: u64 [sp + 0x3a0] = a0\n 14292: a0 = u8 [a5 + 0x9]\n 14295: a1 = u8 [a5 + 0x8]\n 14298: a4 = u8 [a5 + 0xa]\n 14301: a2 = u8 [a5 + 0xb]\n 14304: a0 = a0 << 0x8\n 14307: a0 = a0 | a1\n 14310: a4 = a4 << 0x10\n 14313: a2 = a2 << 0x18\n 14316: a2 = a2 | a4\n 14319: a0 = a0 | a2\n 14322: a1 = u8 [a5 + 0xd]\n 14325: a2 = u8 [a5 + 0xc]\n 14328: a4 = u8 [a5 + 0xe]\n 14331: s1 = u8 [a5 + 0xf]\n 14334: a1 = a1 << 0x8\n 14337: a1 = a1 | a2\n 14340: a4 = a4 << 0x10\n 14343: s1 = s1 << 0x18\n 14346: a4 = a4 | s1\n 14349: a1 = a1 | a4\n 14352: a1 = a1 << 0x20\n 14355: a4 = a1 | a0\n 14358: a0 = a4 >> 0x1\n 14361: a1 = a3 ^ 0xffffffffffffffff\n 14364: a0 = a0 >> a1\n 14367: a1 = t2 << a3\n 14370: a0 = a0 | a1\n 14373: u64 [sp + 0x398] = a0\n 14377: a0 = u8 [a5 + 0x1]\n 14380: a1 = u8 [a5]\n 14382: a2 = u8 [a5 + 0x2]\n 14385: s1 = u8 [a5 + 0x3]\n 14388: a0 = a0 << 0x8\n 14391: a0 = a0 | a1\n 14394: a2 = a2 << 0x10\n 14397: s1 = s1 << 0x18\n 14400: a2 = a2 | s1\n 14403: a0 = a0 | a2\n 14406: a1 = u8 [a5 + 0x5]\n 14409: a2 = u8 [a5 + 0x4]\n 14412: s1 = u8 [a5 + 0x6]\n 14415: a5 = u8 [a5 + 0x7]\n 14418: a1 = a1 << 0x8\n 14421: a1 = a1 | a2\n 14424: s1 = s1 << 0x10\n 14427: a5 = a5 << 0x18\n 14430: a5 = a5 | s1\n 14433: a1 = a1 | a5\n 14436: a5 = u64 [sp + 0x370]\n 14440: a1 = a1 << 0x20\n 14443: a0 = a0 | a1\n 14446: a1 = a0 >> 0x1\n 14449: a1 = a1 >> t1\n 14452: s1 = u64 [sp + 0x368]\n 14456: a2 = a4 << a3\n 14459: a4 = u64 [sp + 0x380]\n 14463: a1 = a1 | a2\n 14466: u64 [sp + 0x388] = a1\n 14470: a1 = a4 | a5\n 14473: a2 = u64 [sp + 0x3a8]\n 14477: a2 = a2 | s1\n 14480: a1 = a1 | a2\n 14483: a0 = a0 << a3\n 14486: u64 [sp + 0x390] = a0\n 14490: jump @139 if a1 == 0\n      : @136 (gas: 225)\n 14494: u64 [sp + 888] = 0\n 14498: u64 [sp + 864] = 0\n 14502: a0 = u64 [sp + 0x2e8]\n 14506: u8 [ra + 0x488] = a0\n 14510: a0 = u64 [sp + 0x2d0]\n 14514: u8 [ra + 0x487] = a0\n 14518: a0 = u64 [sp + 0x2c0]\n 14522: u8 [ra + 0x486] = a0\n 14526: a0 = u64 [sp + 0x268]\n 14530: u8 [ra + 0x485] = a0\n 14534: a0 = u64 [sp + 0x260]\n 14538: u8 [ra + 0x484] = a0\n 14542: a0 = u64 [sp + 0x218]\n 14546: u8 [ra + 0x483] = a0\n 14550: a0 = u64 [sp + 0x210]\n 14554: u8 [ra + 0x482] = a0\n 14558: a0 = u64 [sp + 0x208]\n 14562: u8 [ra + 0x490] = a0\n 14566: a0 = u64 [sp + 0x1d0]\n 14570: u8 [ra + 0x48f] = a0\n 14574: a0 = u64 [sp + 0x1c8]\n 14578: u8 [ra + 0x48e] = a0\n 14582: a0 = u64 [sp + 0x1c0]\n 14586: u8 [ra + 0x48d] = a0\n 14590: a0 = u64 [sp + 0x1b8]\n 14594: u8 [ra + 0x48c] = a0\n 14598: a0 = u64 [sp + 0x1b0]\n 14602: u8 [ra + 0x48b] = a0\n 14606: a0 = u64 [sp + 0x1a8]\n 14610: u8 [ra + 0x48a] = a0\n 14614: a0 = u64 [sp + 0x1a0]\n 14618: u8 [ra + 0x498] = a0\n 14622: a0 = u64 [sp + 0x198]\n 14626: u8 [ra + 0x497] = a0\n 14630: a0 = u64 [sp + 0x190]\n 14634: u8 [ra + 0x496] = a0\n 14638: a0 = u64 [sp + 0x188]\n 14642: u8 [ra + 0x495] = a0\n 14646: a0 = u64 [sp + 0x180]\n 14650: u8 [ra + 0x494] = a0\n 14654: u8 [ra + 1216] = 0\n 14658: u8 [ra + 1215] = 0\n 14662: u8 [ra + 1214] = 0\n 14666: u8 [ra + 1213] = 0\n 14670: u8 [ra + 1212] = 0\n 14674: u8 [ra + 1211] = 0\n 14678: u8 [ra + 1210] = 0\n 14682: u8 [ra + 1209] = 0\n 14686: u8 [ra + 1208] = 0\n 14690: u8 [ra + 1207] = 0\n 14694: u8 [ra + 1206] = 0\n 14698: u8 [ra + 1205] = 0\n 14702: u8 [ra + 1204] = 0\n 14706: u8 [ra + 1203] = 0\n 14710: u8 [ra + 1202] = 0\n 14714: u8 [ra + 1201] = 0\n 14718: u8 [ra + 1200] = 0\n 14722: u8 [ra + 1199] = 0\n 14726: u8 [ra + 1198] = 0\n 14730: u8 [ra + 1197] = 0\n 14734: u8 [ra + 1196] = 0\n 14738: u8 [ra + 1195] = 0\n 14742: u8 [ra + 1194] = 0\n 14746: u8 [ra + 1193] = 0\n 14750: u8 [ra + 1192] = 0\n 14754: u8 [ra + 1191] = 0\n 14758: u8 [ra + 1190] = 0\n 14762: u8 [ra + 1189] = 0\n 14766: u8 [ra + 1188] = 0\n 14770: u8 [ra + 1187] = 0\n 14774: u8 [ra + 1186] = 0\n 14778: u8 [ra + 1185] = 0\n 14782: a0 = u64 [sp + 0x2e0]\n 14786: u8 [ra + 0x481] = a0\n 14790: a0 = u64 [sp + 0x2b8]\n 14794: u8 [ra + 0x489] = a0\n 14798: a0 = u64 [sp + 0x2b0]\n 14802: u8 [ra + 0x491] = a0\n 14806: u8 [ra + 0x499] = t0\n 14810: a0 = u64 [sp + 0x358]\n 14814: u8 [ra + 0x493] = a0\n 14818: a0 = u64 [sp + 0x350]\n 14822: u8 [ra + 0x492] = a0\n 14826: a0 = u64 [sp + 0x348]\n 14830: u8 [ra + 0x4a0] = a0\n 14834: a0 = u64 [sp + 0x318]\n 14838: u8 [ra + 0x49f] = a0\n 14842: a0 = u64 [sp + 0x310]\n 14846: u8 [ra + 0x49e] = a0\n 14850: a0 = u64 [sp + 0x308]\n 14854: u8 [ra + 0x49d] = a0\n 14858: a0 = u64 [sp + 0x300]\n 14862: u8 [ra + 0x49c] = a0\n 14866: a0 = u64 [sp + 0x2f8]\n 14870: u8 [ra + 0x49b] = a0\n 14874: a0 = u64 [sp + 0x2f0]\n 14878: u8 [ra + 0x49a] = a0\n 14882: s1 = u64 [sp + 0x3a8]\n 14886: a0 = s1 << 0x38\n 14889: a0 = a0 >> 0x3b\n 14892: a2 = sp + 0x7ff\n 14896: a2 = a2 + 0x7e1\n 14900: a2 = a2 + a0\n 14903: a0 = u8 [a2 + 0x11]\n 14906: a1 = u8 [a2 + 0x10]\n 14909: a3 = u8 [a2 + 0x12]\n 14912: a4 = u8 [a2 + 0x13]\n 14915: a0 = a0 << 0x8\n 14918: a0 = a0 | a1\n 14921: a3 = a3 << 0x10\n 14924: a4 = a4 << 0x18\n 14927: a3 = a3 | a4\n 14930: a0 = a0 | a3\n 14933: a1 = u8 [a2 + 0x15]\n 14936: a3 = u8 [a2 + 0x14]\n 14939: a4 = u8 [a2 + 0x16]\n 14942: a5 = u8 [a2 + 0x17]\n 14945: a1 = a1 << 0x8\n 14948: a1 = a1 | a3\n 14951: a4 = a4 << 0x10\n 14954: a5 = a5 << 0x18\n 14957: a4 = a4 | a5\n 14960: a1 = a1 | a4\n 14963: a1 = a1 << 0x20\n 14966: t1 = a1 | a0\n 14969: a3 = s1 & 0x7\n 14972: t2 = t1 >> a3\n 14975: a0 = u8 [a2 + 0x19]\n 14978: a4 = u8 [a2 + 0x18]\n 14981: s1 = u8 [a2 + 0x1a]\n 14984: a5 = u8 [a2 + 0x1b]\n 14987: a0 = a0 << 0x8\n 14990: a0 = a0 | a4\n 14993: s1 = s1 << 0x10\n 14996: a5 = a5 << 0x18\n 14999: a5 = a5 | s1\n 15002: a0 = a0 | a5\n 15005: a4 = u8 [a2 + 0x1d]\n 15008: a5 = u8 [a2 + 0x1c]\n 15011: s1 = u8 [a2 + 0x1e]\n 15014: a1 = u8 [a2 + 0x1f]\n 15017: a4 = a4 << 0x8\n 15020: a4 = a4 | a5\n 15023: s1 = s1 << 0x10\n 15026: a1 = a1 << 0x18\n 15029: a1 = a1 | s1\n 15032: a1 = a1 | a4\n 15035: a1 = a1 << 0x20\n 15038: t0 = a1 | a0\n 15041: a0 = t0 << 0x1\n 15044: ra = a3 ^ 0x3f\n 15047: a0 = a0 << ra\n 15050: a0 = t2 | a0\n 15053: u64 [sp + 0x358] = a0\n 15057: a0 = u8 [a2 + 0x9]\n 15060: a1 = u8 [a2 + 0x8]\n 15063: a4 = u8 [a2 + 0xa]\n 15066: a5 = u8 [a2 + 0xb]\n 15069: a0 = a0 << 0x8\n 15072: a0 = a0 | a1\n 15075: a4 = a4 << 0x10\n 15078: a5 = a5 << 0x18\n 15081: a4 = a4 | a5\n 15084: a0 = a0 | a4\n 15087: a1 = u8 [a2 + 0xd]\n 15090: a4 = u8 [a2 + 0xc]\n 15093: a5 = u8 [a2 + 0xe]\n 15096: s1 = u8 [a2 + 0xf]\n 15099: a1 = a1 << 0x8\n 15102: a1 = a1 | a4\n 15105: a5 = a5 << 0x10\n 15108: s1 = s1 << 0x18\n 15111: a5 = a5 | s1\n 15114: a1 = a1 | a5\n 15117: a1 = a1 << 0x20\n 15120: a1 = a1 | a0\n 15123: a0 = a1 >> a3\n 15126: t1 = t1 << 0x1\n 15129: a4 = a3 ^ 0xffffffffffffffff\n 15132: a4 = t1 << a4\n 15135: t1 = a0 | a4\n 15138: a0 = u8 [a2 + 0x1]\n 15141: a4 = u8 [a2]\n 15143: a5 = u8 [a2 + 0x2]\n 15146: s1 = u8 [a2 + 0x3]\n 15149: a0 = a0 << 0x8\n 15152: a0 = a0 | a4\n 15155: a5 = a5 << 0x10\n 15158: s1 = s1 << 0x18\n 15161: a5 = a5 | s1\n 15164: a0 = a0 | a5\n 15167: a4 = u8 [a2 + 0x5]\n 15170: a5 = u8 [a2 + 0x4]\n 15173: s1 = u8 [a2 + 0x6]\n 15176: a2 = u8 [a2 + 0x7]\n 15179: a4 = a4 << 0x8\n 15182: a4 = a4 | a5\n 15185: s1 = s1 << 0x10\n 15188: a2 = a2 << 0x18\n 15191: a2 = a2 | s1\n 15194: a2 = a2 | a4\n 15197: a2 = a2 << 0x20\n 15200: a0 = a0 | a2\n 15203: a0 = a0 >> a3\n 15206: a1 = a1 << 0x1\n 15209: s1 = a1 << ra\n 15212: t2 = a0 | s1\n 15215: a4 = t0 >> a3\n 15218: a1 = u64 [sp + 0x3c0]\n 15222: a0 = a1 <u 0x1\n 15225: a2 = u64 [sp + 0x3d0]\n 15229: a0 = a2 - a0\n 15232: u64 [sp + 0x318] = a0\n 15236: a0 = a1 | a2\n 15239: a0 = a0 <u 0x1\n 15242: a2 = u64 [sp + 0x3c8]\n 15246: a3 = a2 - a0\n 15249: u64 [sp + 0x310] = a3\n 15253: a0 = a2 <u a0\n 15256: a2 = u64 [sp + 0x3d8]\n 15260: a2 = a2 - a0\n 15263: u64 [sp + 0x308] = a2\n 15267: a1 = a1 + 0xffffffffffffffff\n 15270: u64 [sp + 0x300] = a1\n 15274: fallthrough\n      : @137 (gas: 103)\n 15275: u64 [sp + 840] = 0\n 15279: a1 = t2 >> 0x3f\n 15282: a5 = t1 << 0x1\n 15285: t0 = a5 | a1\n 15288: s1 = t2 << 0x1\n 15291: a2 = u64 [sp + 0x3a0]\n 15295: a1 = a2 >> 0x3f\n 15298: ra = s1 | a1\n 15301: a0 = u64 [sp + 0x318]\n 15305: a5 = a0 ^ t0\n 15308: t2 = a0 <u t0\n 15311: a0 = u64 [sp + 0x300]\n 15315: a1 = a0 <u ra\n 15318: a1 = t2 if a5 != 0\n 15321: a3 = a4 << 0x1\n 15324: a4 = u64 [sp + 0x358]\n 15328: a5 = a4 >> 0x3f\n 15331: t2 = a3 | a5\n 15334: u64 [sp + 0x350] = t2\n 15338: a5 = t1 >> 0x3f\n 15341: a4 = a4 << 0x1\n 15344: a5 = a5 | a4\n 15347: a4 = a2 << 0x1\n 15350: a2 = u64 [sp + 0x398]\n 15354: a0 = a2 >> 0x3f\n 15357: a0 = a0 | a4\n 15360: a4 = a2 << 0x1\n 15363: s1 = u64 [sp + 0x388]\n 15367: a2 = s1 >> 0x3f\n 15370: a2 = a2 | a4\n 15373: s1 = s1 << 0x1\n 15376: a4 = u64 [sp + 0x390]\n 15380: a3 = a4 >> 0x3f\n 15383: a3 = a3 | s1\n 15386: a4 = a4 << 0x1\n 15389: s1 = u64 [sp + 0x378]\n 15393: a4 = a4 | s1\n 15396: u64 [sp + 0x390] = a4\n 15400: a4 = u64 [sp + 0x360]\n 15404: a3 = a3 | a4\n 15407: u64 [sp + 0x388] = a3\n 15411: a2 = a2 | a4\n 15414: u64 [sp + 0x398] = a2\n 15418: a0 = a0 | a4\n 15421: u64 [sp + 0x3a0] = a0\n 15425: a2 = u64 [sp + 0x310]\n 15429: a0 = a2 - a5\n 15432: a0 = a0 <u a1\n 15435: a1 = a2 <u a5\n 15438: a2 = u64 [sp + 0x308]\n 15442: a2 = a2 - t2\n 15445: a2 = a2 - a1\n 15448: a1 = a2 - a0\n 15451: a1 = a1 >>a 0x3f\n 15454: a0 = u64 [sp + 0x3c0]\n 15458: a0 = a0 & a1\n 15461: a2 = u64 [sp + 0x3d0]\n 15465: a2 = a2 & a1\n 15468: t1 = t0 ^ a2\n 15471: a4 = t0 <u a2\n 15474: a3 = ra <u a0\n 15477: t2 = ra\n 15479: a4 = a3 if t1 == 0\n 15482: s1 = u64 [sp + 0x3c8]\n 15486: t1 = a1 & s1\n 15489: ra = a5 - t1\n 15492: s1 = ra - a4\n 15495: u64 [sp + 0x358] = s1\n 15499: ra = ra <u a4\n 15502: a5 = a5 <u t1\n 15505: s1 = u64 [sp + 0x3d8]\n 15509: s1 = s1 & a1\n 15512: a4 = u64 [sp + 0x350]\n 15516: s1 = a4 - s1\n 15519: s1 = s1 - a5\n 15522: s1 = s1 - ra\n 15525: a2 = t0 - a2\n 15528: t1 = a2 - a3\n 15531: t2 = t2 - a0\n 15534: a5 = u64 [sp + 0x3a8]\n 15538: a4 = u64 [sp + 0x380]\n 15542: a0 = a5 | a4\n 15545: a0 = a0 <u 0x1\n 15548: a3 = u64 [sp + 0x368]\n 15552: a2 = a3 <u a0\n 15555: a0 = a3 - a0\n 15558: a3 = a5 <u 0x1\n 15561: a4 = a4 - a3\n 15564: a3 = u64 [sp + 0x370]\n 15568: a3 = a3 - a2\n 15571: a5 = a5 + 0xffffffffffffffff\n 15574: u64 [sp + 0x380] = a4\n 15578: u64 [sp + 0x370] = a3\n 15582: a2 = a4 | a3\n 15585: a4 = s1\n 15587: u64 [sp + 0x3a8] = a5\n 15591: a3 = a5 | a0\n 15594: a2 = a2 | a3\n 15597: a1 = a1 & 0x1\n 15600: u64 [sp + 0x378] = a1\n 15604: u64 [sp + 0x368] = a0\n 15608: u64 [sp + 864] = 0\n 15612: jump @137 if a2 != 0\n      : @138 (gas: 1)\n 15616: jump @140\n      : @139 (gas: 3)\n 15618: u64 [sp + 888] = 0\n 15622: u64 [sp + 840] = 0\n 15626: fallthrough\n      : @140 (gas: 25)\n 15627: a3 = u64 [sp + 0x398]\n 15631: a0 = a3 >> 0x3f\n 15634: a1 = u64 [sp + 0x3a0]\n 15638: a1 = a1 << 0x1\n 15641: a0 = a0 | a1\n 15644: a4 = u64 [sp + 0x388]\n 15648: a1 = a4 >> 0x3f\n 15651: a3 = a3 << 0x1\n 15654: a1 = a1 | a3\n 15657: a5 = u64 [sp + 0x390]\n 15661: a3 = a5 >> 0x3f\n 15664: a4 = a4 << 0x1\n 15667: a5 = a5 << 0x1\n 15670: a2 = u64 [sp + 0x378]\n 15674: a2 = a2 | a5\n 15677: u64 [sp + 0x2f8] = a2\n 15681: a2 = u64 [sp + 0x348]\n 15685: a3 = a3 | a2\n 15688: a3 = a3 | a4\n 15691: u64 [sp + 0x2e8] = a3\n 15695: a1 = a1 | a2\n 15698: u64 [sp + 0x2f0] = a1\n 15702: a0 = a0 | a2\n 15705: u64 [sp + 0x2d0] = a0\n 15709: fallthrough\n      : @141 (gas: 4)\n 15710: ra = u64 [sp + 0x270]\n 15714: t2 = u64 [sp + 0x280]\n 15718: a4 = u64 [sp + 0x2c8]\n 15722: fallthrough\n      : @142 (gas: 53)\n 15723: a1 = u64 [sp + 0x2a8]\n 15727: a0 = a1 | t2\n 15730: a2 = a1\n 15732: a1 = a4 | ra\n 15735: a0 = a0 | a1\n 15738: a0 = a0 <u 0x1\n 15741: a1 = u64 [sp + 0x320]\n 15745: a0 = a0 | a1\n 15748: u64 [sp + 0x3a8] = a0\n 15752: a1 = clz t2\n 15754: a1 = a1 + 0x40\n 15757: a3 = clz ra\n 15759: a3 = a1 if ra == 0\n 15762: a1 = clz a2\n 15764: a1 = a1 + 0x40\n 15767: a2 = clz a4\n 15769: a2 = a1 if a4 == 0\n 15772: a1 = a2 + 0x80\n 15776: a4 = t2 | ra\n 15779: a3 = a1 if a4 == 0\n 15782: a1 = a1 <u a2\n 15785: a1 = 0 if a4 != 0\n 15787: a5 = u64 [sp + 0x330]\n 15791: a2 = a5 ^ a1\n 15794: a4 = a5 <u a1\n 15797: a0 = u64 [sp + 0x328]\n 15801: s1 = a0 <u a3\n 15804: a4 = s1 if a2 == 0\n 15807: a2 = a4 <u 0x1\n 15810: t0 = a2 + 0xffffffffffffffff\n 15813: a2 = -a4\n 15815: a1 = a5 - a1\n 15818: t1 = a1 - s1\n 15821: s1 = a0 - a3\n 15824: u64 [sp + 0x3a0] = a2\n 15828: a3 = a2 >u 0\n 15830: a2 = t0\n 15832: a0 = t0 >u 0\n 15834: a0 = a3 if t0 == 0\n 15837: a3 = t1 >u 0\n 15839: a5 = s1 <u 0x100\n 15843: a5 = a5 ^ 0x1\n 15846: a5 = a3 if t1 != 0\n 15849: a5 = a0 if a4 != 0\n 15852: a0 = u64 [sp + 0x3a8]\n 15856: a5 = a5 | a0\n 15859: ra = 0 if a5 != 0\n 15861: t2 = 0 if a5 != 0\n 15863: a0 = u64 [sp + 0x2c8]\n 15867: a0 = 0 if a5 != 0\n 15869: t0 = u64 [sp + 0x2a8]\n 15873: t0 = 0 if a5 != 0\n 15875: jump @150 if a5 != 0\n      : @143 (gas: 6)\n 15879: a5 = s1 ^ 0xff\n 15883: a4 = u64 [sp + 0x3a0]\n 15887: a5 = a5 | a4\n 15890: a1 = t1 | a2\n 15893: a1 = a1 | a5\n 15896: jump @150 if a1 == 0\n      : @144 (gas: 260)\n 15900: a1 = s1 + 0x1\n 15903: u64 [sp + 0x3a8] = a1\n 15907: a0 = a1 <u 0x1\n 15910: a0 = a0 + t1\n 15913: u64 [sp + 0x378] = a0\n 15917: a0 = a0 | a1\n 15920: a0 = a0 <u 0x1\n 15923: a0 = a0 + a4\n 15926: u64 [sp + 0x368] = a0\n 15930: a0 = a0 <u a4\n 15933: a0 = a0 + a2\n 15936: u64 [sp + 0x380] = a0\n 15940: t1 = 0xff - s1\n 15944: ra = sp + 0x7ff\n 15948: ra = ra + 0x360\n 15952: a0 = u64 [sp + 0x2a8]\n 15956: u8 [ra + 0x461] = a0\n 15960: u8 [ra + 1120] = 0\n 15964: u8 [ra + 1119] = 0\n 15968: u8 [ra + 1118] = 0\n 15972: u8 [ra + 1117] = 0\n 15976: u8 [ra + 1116] = 0\n 15980: u8 [ra + 1115] = 0\n 15984: u8 [ra + 1114] = 0\n 15988: u8 [ra + 1113] = 0\n 15992: u8 [ra + 1112] = 0\n 15996: u8 [ra + 1111] = 0\n 16000: u8 [ra + 1110] = 0\n 16004: u8 [ra + 1109] = 0\n 16008: u8 [ra + 1108] = 0\n 16012: u8 [ra + 1107] = 0\n 16016: u8 [ra + 1106] = 0\n 16020: u8 [ra + 1105] = 0\n 16024: u8 [ra + 1104] = 0\n 16028: u8 [ra + 1103] = 0\n 16032: u8 [ra + 1102] = 0\n 16036: u8 [ra + 1101] = 0\n 16040: u8 [ra + 1100] = 0\n 16044: u8 [ra + 1099] = 0\n 16048: u8 [ra + 1098] = 0\n 16052: u8 [ra + 1097] = 0\n 16056: u8 [ra + 1096] = 0\n 16060: u8 [ra + 1095] = 0\n 16064: u8 [ra + 1094] = 0\n 16068: u8 [ra + 1093] = 0\n 16072: u8 [ra + 1092] = 0\n 16076: u8 [ra + 1091] = 0\n 16080: u8 [ra + 1090] = 0\n 16084: u8 [ra + 1089] = 0\n 16088: a1 = u64 [sp + 0x2c8]\n 16092: u8 [ra + 0x469] = a1\n 16096: a2 = a0 >> 0x38\n 16099: u64 [sp + 0x260] = a2\n 16103: u8 [ra + 0x468] = a2\n 16107: a2 = a0 >> 0x30\n 16110: u64 [sp + 0x218] = a2\n 16114: u8 [ra + 0x467] = a2\n 16118: a2 = a0 >> 0x28\n 16121: u64 [sp + 0x210] = a2\n 16125: u8 [ra + 0x466] = a2\n 16129: a2 = a0 >> 0x20\n 16132: u64 [sp + 0x208] = a2\n 16136: u8 [ra + 0x465] = a2\n 16140: a2 = a0 >> 0x18\n 16143: u64 [sp + 0x1d0] = a2\n 16147: u8 [ra + 0x464] = a2\n 16151: a2 = a0 >> 0x10\n 16154: u64 [sp + 0x1c8] = a2\n 16158: u8 [ra + 0x463] = a2\n 16162: a0 = a0 >> 0x8\n 16165: u64 [sp + 0x1c0] = a0\n 16169: u8 [ra + 0x462] = a0\n 16173: a0 = u64 [sp + 0x280]\n 16177: u8 [ra + 0x471] = a0\n 16181: a2 = a1 >> 0x38\n 16184: u64 [sp + 0x1b8] = a2\n 16188: u8 [ra + 0x470] = a2\n 16192: a2 = a1 >> 0x30\n 16195: u64 [sp + 0x1b0] = a2\n 16199: u8 [ra + 0x46f] = a2\n 16203: a2 = a1 >> 0x28\n 16206: u64 [sp + 0x1a8] = a2\n 16210: u8 [ra + 0x46e] = a2\n 16214: a2 = a1 >> 0x20\n 16217: u64 [sp + 0x1a0] = a2\n 16221: u8 [ra + 0x46d] = a2\n 16225: a2 = a1 >> 0x18\n 16228: u64 [sp + 0x198] = a2\n 16232: u8 [ra + 0x46c] = a2\n 16236: a2 = a1 >> 0x10\n 16239: u64 [sp + 0x190] = a2\n 16243: u8 [ra + 0x46b] = a2\n 16247: a1 = a1 >> 0x8\n 16250: u64 [sp + 0x188] = a1\n 16254: u8 [ra + 0x46a] = a1\n 16258: t0 = u64 [sp + 0x270]\n 16262: u8 [ra + 0x479] = t0\n 16266: a1 = a0 >> 0x38\n 16269: u64 [sp + 0x180] = a1\n 16273: u8 [ra + 0x478] = a1\n 16277: a1 = a0 >> 0x30\n 16280: u64 [sp + 0x178] = a1\n 16284: u8 [ra + 0x477] = a1\n 16288: a1 = a0 >> 0x28\n 16291: u64 [sp + 0x170] = a1\n 16295: u8 [ra + 0x476] = a1\n 16299: a1 = a0 >> 0x20\n 16302: u64 [sp + 0x168] = a1\n 16306: u8 [ra + 0x475] = a1\n 16310: a1 = a0 >> 0x18\n 16313: u64 [sp + 0x160] = a1\n 16317: u8 [ra + 0x474] = a1\n 16321: a1 = a0 >> 0x10\n 16324: u64 [sp + 0x358] = a1\n 16328: u8 [ra + 0x473] = a1\n 16332: a0 = a0 >> 0x8\n 16335: u64 [sp + 0x350] = a0\n 16339: u8 [ra + 0x472] = a0\n 16343: a0 = t0 >> 0x38\n 16346: u64 [sp + 0x348] = a0\n 16350: u8 [ra + 0x480] = a0\n 16354: a0 = t0 >> 0x30\n 16357: u64 [sp + 0x318] = a0\n 16361: u8 [ra + 0x47f] = a0\n 16365: a0 = t0 >> 0x28\n 16368: u64 [sp + 0x310] = a0\n 16372: u8 [ra + 0x47e] = a0\n 16376: a0 = t0 >> 0x20\n 16379: u64 [sp + 0x308] = a0\n 16383: u8 [ra + 0x47d] = a0\n 16387: a0 = t0 >> 0x18\n 16390: u64 [sp + 0x300] = a0\n 16394: u8 [ra + 0x47c] = a0\n 16398: a0 = t0 >> 0x10\n 16401: u64 [sp + 0x2c0] = a0\n 16405: u8 [ra + 0x47b] = a0\n 16409: a0 = t0 >> 0x8\n 16412: u64 [sp + 0x268] = a0\n 16416: u8 [ra + 0x47a] = a0\n 16420: a0 = t1 << 0x38\n 16423: a0 = a0 >> 0x3b\n 16426: a5 = sp + 0x7ff\n 16430: a5 = a5 + 0x7c1\n 16434: a5 = a5 - a0\n 16437: a0 = u8 [a5 + 0x19]\n 16440: a1 = u8 [a5 + 0x18]\n 16443: a2 = u8 [a5 + 0x1a]\n 16446: a4 = u8 [a5 + 0x1b]\n 16449: a0 = a0 << 0x8\n 16452: a0 = a0 | a1\n 16455: a2 = a2 << 0x10\n 16458: a4 = a4 << 0x18\n 16461: a2 = a2 | a4\n 16464: a0 = a0 | a2\n 16467: a1 = u8 [a5 + 0x1d]\n 16470: a2 = u8 [a5 + 0x1c]\n 16473: a4 = u8 [a5 + 0x1e]\n 16476: s1 = u8 [a5 + 0x1f]\n 16479: a1 = a1 << 0x8\n 16482: a1 = a1 | a2\n 16485: a4 = a4 << 0x10\n 16488: s1 = s1 << 0x18\n 16491: a4 = a4 | s1\n 16494: a1 = a1 | a4\n 16497: a1 = a1 << 0x20\n 16500: a2 = a1 | a0\n 16503: a0 = u8 [a5 + 0x11]\n 16506: a1 = u8 [a5 + 0x10]\n 16509: a4 = u8 [a5 + 0x12]\n 16512: s1 = u8 [a5 + 0x13]\n 16515: a0 = a0 << 0x8\n 16518: a0 = a0 | a1\n 16521: a4 = a4 << 0x10\n 16524: s1 = s1 << 0x18\n 16527: a4 = a4 | s1\n 16530: a0 = a0 | a4\n 16533: a1 = u8 [a5 + 0x15]\n 16536: a4 = u8 [a5 + 0x14]\n 16539: s1 = u8 [a5 + 0x16]\n 16542: a3 = u8 [a5 + 0x17]\n 16545: a1 = a1 << 0x8\n 16548: a1 = a1 | a4\n 16551: s1 = s1 << 0x10\n 16554: a3 = a3 << 0x18\n 16557: a3 = a3 | s1\n 16560: a1 = a1 | a3\n 16563: a1 = a1 << 0x20\n 16566: t2 = a1 | a0\n 16569: a3 = t1 & 0x7\n 16572: a0 = a2 << a3\n 16575: a1 = t2 >> 0x1\n 16578: t1 = a3 ^ 0x3f\n 16581: a1 = a1 >> t1\n 16584: a0 = a0 | a1\n 16587: u64 [sp + 0x3a0] = a0\n 16591: a0 = u8 [a5 + 0x9]\n 16594: a1 = u8 [a5 + 0x8]\n 16597: a4 = u8 [a5 + 0xa]\n 16600: a2 = u8 [a5 + 0xb]\n 16603: a0 = a0 << 0x8\n 16606: a0 = a0 | a1\n 16609: a4 = a4 << 0x10\n 16612: a2 = a2 << 0x18\n 16615: a2 = a2 | a4\n 16618: a0 = a0 | a2\n 16621: a1 = u8 [a5 + 0xd]\n 16624: a2 = u8 [a5 + 0xc]\n 16627: a4 = u8 [a5 + 0xe]\n 16630: s1 = u8 [a5 + 0xf]\n 16633: a1 = a1 << 0x8\n 16636: a1 = a1 | a2\n 16639: a4 = a4 << 0x10\n 16642: s1 = s1 << 0x18\n 16645: a4 = a4 | s1\n 16648: a1 = a1 | a4\n 16651: a1 = a1 << 0x20\n 16654: a4 = a1 | a0\n 16657: a0 = a4 >> 0x1\n 16660: a1 = a3 ^ 0xffffffffffffffff\n 16663: a0 = a0 >> a1\n 16666: a1 = t2 << a3\n 16669: a0 = a0 | a1\n 16672: u64 [sp + 0x398] = a0\n 16676: a0 = u8 [a5 + 0x1]\n 16679: a1 = u8 [a5]\n 16681: a2 = u8 [a5 + 0x2]\n 16684: s1 = u8 [a5 + 0x3]\n 16687: a0 = a0 << 0x8\n 16690: a0 = a0 | a1\n 16693: a2 = a2 << 0x10\n 16696: s1 = s1 << 0x18\n 16699: a2 = a2 | s1\n 16702: a0 = a0 | a2\n 16705: a1 = u8 [a5 + 0x5]\n 16708: a2 = u8 [a5 + 0x4]\n 16711: s1 = u8 [a5 + 0x6]\n 16714: a5 = u8 [a5 + 0x7]\n 16717: a1 = a1 << 0x8\n 16720: a1 = a1 | a2\n 16723: s1 = s1 << 0x10\n 16726: a5 = a5 << 0x18\n 16729: a5 = a5 | s1\n 16732: a1 = a1 | a5\n 16735: a5 = u64 [sp + 0x368]\n 16739: a1 = a1 << 0x20\n 16742: a0 = a0 | a1\n 16745: a1 = a0 >> 0x1\n 16748: a1 = a1 >> t1\n 16751: s1 = u64 [sp + 0x378]\n 16755: a2 = a4 << a3\n 16758: a4 = u64 [sp + 0x380]\n 16762: a1 = a1 | a2\n 16765: u64 [sp + 0x388] = a1\n 16769: a1 = s1 | a4\n 16772: a2 = u64 [sp + 0x3a8]\n 16776: a2 = a2 | a5\n 16779: a1 = a1 | a2\n 16782: a0 = a0 << a3\n 16785: u64 [sp + 0x390] = a0\n 16789: jump @148 if a1 == 0\n      : @145 (gas: 225)\n 16793: u64 [sp + 880] = 0\n 16797: u64 [sp + 864] = 0\n 16801: a0 = u64 [sp + 0x260]\n 16805: u8 [ra + 0x408] = a0\n 16809: a0 = u64 [sp + 0x218]\n 16813: u8 [ra + 0x407] = a0\n 16817: a0 = u64 [sp + 0x210]\n 16821: u8 [ra + 0x406] = a0\n 16825: a0 = u64 [sp + 0x208]\n 16829: u8 [ra + 0x405] = a0\n 16833: a0 = u64 [sp + 0x1d0]\n 16837: u8 [ra + 0x404] = a0\n 16841: a0 = u64 [sp + 0x1c8]\n 16845: u8 [ra + 0x403] = a0\n 16849: a0 = u64 [sp + 0x1c0]\n 16853: u8 [ra + 0x402] = a0\n 16857: a0 = u64 [sp + 0x1b8]\n 16861: u8 [ra + 0x410] = a0\n 16865: a0 = u64 [sp + 0x1b0]\n 16869: u8 [ra + 0x40f] = a0\n 16873: a0 = u64 [sp + 0x1a8]\n 16877: u8 [ra + 0x40e] = a0\n 16881: a0 = u64 [sp + 0x1a0]\n 16885: u8 [ra + 0x40d] = a0\n 16889: a0 = u64 [sp + 0x198]\n 16893: u8 [ra + 0x40c] = a0\n 16897: a0 = u64 [sp + 0x190]\n 16901: u8 [ra + 0x40b] = a0\n 16905: a0 = u64 [sp + 0x188]\n 16909: u8 [ra + 0x40a] = a0\n 16913: a0 = u64 [sp + 0x180]\n 16917: u8 [ra + 0x418] = a0\n 16921: a0 = u64 [sp + 0x178]\n 16925: u8 [ra + 0x417] = a0\n 16929: a0 = u64 [sp + 0x170]\n 16933: u8 [ra + 0x416] = a0\n 16937: a0 = u64 [sp + 0x168]\n 16941: u8 [ra + 0x415] = a0\n 16945: a0 = u64 [sp + 0x160]\n 16949: u8 [ra + 0x414] = a0\n 16953: u8 [ra + 1088] = 0\n 16957: u8 [ra + 1087] = 0\n 16961: u8 [ra + 1086] = 0\n 16965: u8 [ra + 1085] = 0\n 16969: u8 [ra + 1084] = 0\n 16973: u8 [ra + 1083] = 0\n 16977: u8 [ra + 1082] = 0\n 16981: u8 [ra + 1081] = 0\n 16985: u8 [ra + 1080] = 0\n 16989: u8 [ra + 1079] = 0\n 16993: u8 [ra + 1078] = 0\n 16997: u8 [ra + 1077] = 0\n 17001: u8 [ra + 1076] = 0\n 17005: u8 [ra + 1075] = 0\n 17009: u8 [ra + 1074] = 0\n 17013: u8 [ra + 1073] = 0\n 17017: u8 [ra + 1072] = 0\n 17021: u8 [ra + 1071] = 0\n 17025: u8 [ra + 1070] = 0\n 17029: u8 [ra + 1069] = 0\n 17033: u8 [ra + 1068] = 0\n 17037: u8 [ra + 1067] = 0\n 17041: u8 [ra + 1066] = 0\n 17045: u8 [ra + 1065] = 0\n 17049: u8 [ra + 1064] = 0\n 17053: u8 [ra + 1063] = 0\n 17057: u8 [ra + 1062] = 0\n 17061: u8 [ra + 1061] = 0\n 17065: u8 [ra + 1060] = 0\n 17069: u8 [ra + 1059] = 0\n 17073: u8 [ra + 1058] = 0\n 17077: u8 [ra + 1057] = 0\n 17081: a0 = u64 [sp + 0x2a8]\n 17085: u8 [ra + 0x401] = a0\n 17089: a0 = u64 [sp + 0x2c8]\n 17093: u8 [ra + 0x409] = a0\n 17097: a0 = u64 [sp + 0x280]\n 17101: u8 [ra + 0x411] = a0\n 17105: u8 [ra + 0x419] = t0\n 17109: a0 = u64 [sp + 0x358]\n 17113: u8 [ra + 0x413] = a0\n 17117: a0 = u64 [sp + 0x350]\n 17121: u8 [ra + 0x412] = a0\n 17125: a0 = u64 [sp + 0x348]\n 17129: u8 [ra + 0x420] = a0\n 17133: a0 = u64 [sp + 0x318]\n 17137: u8 [ra + 0x41f] = a0\n 17141: a0 = u64 [sp + 0x310]\n 17145: u8 [ra + 0x41e] = a0\n 17149: a0 = u64 [sp + 0x308]\n 17153: u8 [ra + 0x41d] = a0\n 17157: a0 = u64 [sp + 0x300]\n 17161: u8 [ra + 0x41c] = a0\n 17165: a0 = u64 [sp + 0x2c0]\n 17169: u8 [ra + 0x41b] = a0\n 17173: a0 = u64 [sp + 0x268]\n 17177: u8 [ra + 0x41a] = a0\n 17181: s1 = u64 [sp + 0x3a8]\n 17185: a0 = s1 << 0x38\n 17188: a0 = a0 >> 0x3b\n 17191: a2 = sp + 0x7ff\n 17195: a2 = a2 + 0x761\n 17199: a2 = a2 + a0\n 17202: a0 = u8 [a2 + 0x11]\n 17205: a1 = u8 [a2 + 0x10]\n 17208: a3 = u8 [a2 + 0x12]\n 17211: a4 = u8 [a2 + 0x13]\n 17214: a0 = a0 << 0x8\n 17217: a0 = a0 | a1\n 17220: a3 = a3 << 0x10\n 17223: a4 = a4 << 0x18\n 17226: a3 = a3 | a4\n 17229: a0 = a0 | a3\n 17232: a1 = u8 [a2 + 0x15]\n 17235: a3 = u8 [a2 + 0x14]\n 17238: a4 = u8 [a2 + 0x16]\n 17241: a5 = u8 [a2 + 0x17]\n 17244: a1 = a1 << 0x8\n 17247: a1 = a1 | a3\n 17250: a4 = a4 << 0x10\n 17253: a5 = a5 << 0x18\n 17256: a4 = a4 | a5\n 17259: a1 = a1 | a4\n 17262: a1 = a1 << 0x20\n 17265: t1 = a1 | a0\n 17268: a3 = s1 & 0x7\n 17271: t2 = t1 >> a3\n 17274: a0 = u8 [a2 + 0x19]\n 17277: a4 = u8 [a2 + 0x18]\n 17280: s1 = u8 [a2 + 0x1a]\n 17283: a5 = u8 [a2 + 0x1b]\n 17286: a0 = a0 << 0x8\n 17289: a0 = a0 | a4\n 17292: s1 = s1 << 0x10\n 17295: a5 = a5 << 0x18\n 17298: a5 = a5 | s1\n 17301: a0 = a0 | a5\n 17304: a4 = u8 [a2 + 0x1d]\n 17307: a5 = u8 [a2 + 0x1c]\n 17310: s1 = u8 [a2 + 0x1e]\n 17313: a1 = u8 [a2 + 0x1f]\n 17316: a4 = a4 << 0x8\n 17319: a4 = a4 | a5\n 17322: s1 = s1 << 0x10\n 17325: a1 = a1 << 0x18\n 17328: a1 = a1 | s1\n 17331: a1 = a1 | a4\n 17334: a1 = a1 << 0x20\n 17337: t0 = a1 | a0\n 17340: a0 = t0 << 0x1\n 17343: ra = a3 ^ 0x3f\n 17346: a0 = a0 << ra\n 17349: a0 = t2 | a0\n 17352: u64 [sp + 0x358] = a0\n 17356: a0 = u8 [a2 + 0x9]\n 17359: a1 = u8 [a2 + 0x8]\n 17362: a4 = u8 [a2 + 0xa]\n 17365: a5 = u8 [a2 + 0xb]\n 17368: a0 = a0 << 0x8\n 17371: a0 = a0 | a1\n 17374: a4 = a4 << 0x10\n 17377: a5 = a5 << 0x18\n 17380: a4 = a4 | a5\n 17383: a0 = a0 | a4\n 17386: a1 = u8 [a2 + 0xd]\n 17389: a4 = u8 [a2 + 0xc]\n 17392: a5 = u8 [a2 + 0xe]\n 17395: s1 = u8 [a2 + 0xf]\n 17398: a1 = a1 << 0x8\n 17401: a1 = a1 | a4\n 17404: a5 = a5 << 0x10\n 17407: s1 = s1 << 0x18\n 17410: a5 = a5 | s1\n 17413: a1 = a1 | a5\n 17416: a1 = a1 << 0x20\n 17419: a1 = a1 | a0\n 17422: a0 = a1 >> a3\n 17425: t1 = t1 << 0x1\n 17428: a4 = a3 ^ 0xffffffffffffffff\n 17431: a4 = t1 << a4\n 17434: t1 = a0 | a4\n 17437: a0 = u8 [a2 + 0x1]\n 17440: a4 = u8 [a2]\n 17442: a5 = u8 [a2 + 0x2]\n 17445: s1 = u8 [a2 + 0x3]\n 17448: a0 = a0 << 0x8\n 17451: a0 = a0 | a4\n 17454: a5 = a5 << 0x10\n 17457: s1 = s1 << 0x18\n 17460: a5 = a5 | s1\n 17463: a0 = a0 | a5\n 17466: a4 = u8 [a2 + 0x5]\n 17469: a5 = u8 [a2 + 0x4]\n 17472: s1 = u8 [a2 + 0x6]\n 17475: a2 = u8 [a2 + 0x7]\n 17478: a4 = a4 << 0x8\n 17481: a4 = a4 | a5\n 17484: s1 = s1 << 0x10\n 17487: a2 = a2 << 0x18\n 17490: a2 = a2 | s1\n 17493: a2 = a2 | a4\n 17496: a2 = a2 << 0x20\n 17499: a0 = a0 | a2\n 17502: a0 = a0 >> a3\n 17505: a1 = a1 << 0x1\n 17508: s1 = a1 << ra\n 17511: t2 = a0 | s1\n 17514: a4 = t0 >> a3\n 17517: a1 = u64 [sp + 0x3c0]\n 17521: a0 = a1 <u 0x1\n 17524: a2 = u64 [sp + 0x3d0]\n 17528: a0 = a2 - a0\n 17531: u64 [sp + 0x318] = a0\n 17535: a0 = a1 | a2\n 17538: a0 = a0 <u 0x1\n 17541: a2 = u64 [sp + 0x3c8]\n 17545: a3 = a2 - a0\n 17548: u64 [sp + 0x310] = a3\n 17552: a0 = a2 <u a0\n 17555: a2 = u64 [sp + 0x3d8]\n 17559: a2 = a2 - a0\n 17562: u64 [sp + 0x308] = a2\n 17566: a1 = a1 + 0xffffffffffffffff\n 17569: u64 [sp + 0x300] = a1\n 17573: fallthrough\n      : @146 (gas: 103)\n 17574: u64 [sp + 840] = 0\n 17578: a1 = t2 >> 0x3f\n 17581: a5 = t1 << 0x1\n 17584: t0 = a5 | a1\n 17587: s1 = t2 << 0x1\n 17590: a2 = u64 [sp + 0x3a0]\n 17594: a1 = a2 >> 0x3f\n 17597: ra = s1 | a1\n 17600: a0 = u64 [sp + 0x318]\n 17604: a5 = a0 ^ t0\n 17607: t2 = a0 <u t0\n 17610: a0 = u64 [sp + 0x300]\n 17614: a1 = a0 <u ra\n 17617: a1 = t2 if a5 != 0\n 17620: a3 = a4 << 0x1\n 17623: a4 = u64 [sp + 0x358]\n 17627: a5 = a4 >> 0x3f\n 17630: t2 = a3 | a5\n 17633: u64 [sp + 0x350] = t2\n 17637: a5 = t1 >> 0x3f\n 17640: a4 = a4 << 0x1\n 17643: a5 = a5 | a4\n 17646: a4 = a2 << 0x1\n 17649: a2 = u64 [sp + 0x398]\n 17653: a0 = a2 >> 0x3f\n 17656: a0 = a0 | a4\n 17659: a4 = a2 << 0x1\n 17662: s1 = u64 [sp + 0x388]\n 17666: a2 = s1 >> 0x3f\n 17669: a2 = a2 | a4\n 17672: s1 = s1 << 0x1\n 17675: a4 = u64 [sp + 0x390]\n 17679: a3 = a4 >> 0x3f\n 17682: a3 = a3 | s1\n 17685: a4 = a4 << 0x1\n 17688: s1 = u64 [sp + 0x370]\n 17692: a4 = a4 | s1\n 17695: u64 [sp + 0x390] = a4\n 17699: a4 = u64 [sp + 0x360]\n 17703: a3 = a3 | a4\n 17706: u64 [sp + 0x388] = a3\n 17710: a2 = a2 | a4\n 17713: u64 [sp + 0x398] = a2\n 17717: a0 = a0 | a4\n 17720: u64 [sp + 0x3a0] = a0\n 17724: a2 = u64 [sp + 0x310]\n 17728: a0 = a2 - a5\n 17731: a0 = a0 <u a1\n 17734: a1 = a2 <u a5\n 17737: a2 = u64 [sp + 0x308]\n 17741: a2 = a2 - t2\n 17744: a2 = a2 - a1\n 17747: a1 = a2 - a0\n 17750: a1 = a1 >>a 0x3f\n 17753: a0 = u64 [sp + 0x3c0]\n 17757: a0 = a0 & a1\n 17760: a2 = u64 [sp + 0x3d0]\n 17764: a2 = a2 & a1\n 17767: t1 = t0 ^ a2\n 17770: a4 = t0 <u a2\n 17773: a3 = ra <u a0\n 17776: t2 = ra\n 17778: a4 = a3 if t1 == 0\n 17781: s1 = u64 [sp + 0x3c8]\n 17785: t1 = a1 & s1\n 17788: ra = a5 - t1\n 17791: s1 = ra - a4\n 17794: u64 [sp + 0x358] = s1\n 17798: ra = ra <u a4\n 17801: a5 = a5 <u t1\n 17804: s1 = u64 [sp + 0x3d8]\n 17808: s1 = s1 & a1\n 17811: a4 = u64 [sp + 0x350]\n 17815: s1 = a4 - s1\n 17818: s1 = s1 - a5\n 17821: s1 = s1 - ra\n 17824: a2 = t0 - a2\n 17827: t1 = a2 - a3\n 17830: t2 = t2 - a0\n 17833: a5 = u64 [sp + 0x3a8]\n 17837: a2 = u64 [sp + 0x378]\n 17841: a0 = a5 | a2\n 17844: a0 = a0 <u 0x1\n 17847: a3 = u64 [sp + 0x368]\n 17851: a4 = a3 <u a0\n 17854: a0 = a3 - a0\n 17857: a3 = a5 <u 0x1\n 17860: a2 = a2 - a3\n 17863: a3 = u64 [sp + 0x380]\n 17867: a3 = a3 - a4\n 17870: a4 = s1\n 17872: a5 = a5 + 0xffffffffffffffff\n 17875: u64 [sp + 0x380] = a3\n 17879: u64 [sp + 0x378] = a2\n 17883: a2 = a2 | a3\n 17886: u64 [sp + 0x3a8] = a5\n 17890: a3 = a5 | a0\n 17893: a2 = a2 | a3\n 17896: a1 = a1 & 0x1\n 17899: u64 [sp + 0x370] = a1\n 17903: u64 [sp + 0x368] = a0\n 17907: u64 [sp + 864] = 0\n 17911: jump @146 if a2 != 0\n      : @147 (gas: 1)\n 17915: jump @149\n      : @148 (gas: 3)\n 17917: u64 [sp + 880] = 0\n 17921: u64 [sp + 840] = 0\n 17925: fallthrough\n      : @149 (gas: 21)\n 17926: a3 = u64 [sp + 0x398]\n 17930: a0 = a3 >> 0x3f\n 17933: a1 = u64 [sp + 0x3a0]\n 17937: a1 = a1 << 0x1\n 17940: a1 = a1 | a0\n 17943: a5 = u64 [sp + 0x388]\n 17947: a0 = a5 >> 0x3f\n 17950: a3 = a3 << 0x1\n 17953: a3 = a3 | a0\n 17956: a0 = u64 [sp + 0x390]\n 17960: a4 = a0 >> 0x3f\n 17963: a5 = a5 << 0x1\n 17966: a0 = a0 << 0x1\n 17969: a2 = u64 [sp + 0x370]\n 17973: t0 = a2 | a0\n 17976: a2 = u64 [sp + 0x348]\n 17980: a4 = a4 | a2\n 17983: a0 = a4 | a5\n 17986: t2 = a2 | a3\n 17989: ra = a2 | a1\n 17992: fallthrough\n      : @150 (gas: 220)\n 17993: u64 [sp + 0x3a8] = a0\n 17997: u64 [sp + 0x388] = t0\n 18001: u64 [sp + 0x398] = t2\n 18005: u64 [sp + 0x3a0] = ra\n 18009: t2 = u64 [sp + 0x3c0]\n 18013: a1 = u64 [sp + 0x2f8]\n 18017: a3 = t2 mulhu a1\n 18020: t0 = u64 [sp + 0x3d0]\n 18024: a2 = t0 * a1\n 18027: a3 = a3 + a2\n 18030: a2 = a3 <u a2\n 18033: a5 = t0 mulhu a1\n 18036: a2 = a2 + a5\n 18039: a4 = u64 [sp + 0x2e8]\n 18043: a5 = t2 * a4\n 18046: a3 = a3 + a5\n 18049: u64 [sp + 0x380] = a3\n 18053: a5 = a3 <u a5\n 18056: s1 = t2 mulhu a4\n 18059: a5 = a5 + s1\n 18062: a5 = a5 + a2\n 18065: a2 = a5 <u a2\n 18068: s1 = t0 mulhu a4\n 18071: a2 = a2 + s1\n 18074: s1 = t0 * a4\n 18077: t1 = s1 + a5\n 18080: s1 = t1 <u s1\n 18083: a2 = a2 + s1\n 18086: u64 [sp + 0x390] = a2\n 18090: a5 = u64 [sp + 0x2f0]\n 18094: s1 = a5 * t0\n 18097: a3 = a5 mulhu t2\n 18100: a3 = a3 + s1\n 18103: a2 = u64 [sp + 0x2d0]\n 18107: s1 = a2 * t2\n 18110: a3 = a3 + s1\n 18113: ra = u64 [sp + 0x3c8]\n 18117: s1 = a1 mulhu ra\n 18120: a0 = u64 [sp + 0x3d8]\n 18124: a2 = a1 * a0\n 18127: a2 = a2 + s1\n 18130: s1 = a4 * ra\n 18133: a2 = a2 + s1\n 18136: a2 = a2 + a3\n 18139: a3 = a1 * ra\n 18142: s1 = a5 * t2\n 18145: a3 = a3 + s1\n 18148: s1 = a3 <u s1\n 18151: a3 = a3 + t1\n 18154: a5 = a3 <u t1\n 18157: a2 = a2 + s1\n 18160: t1 = u64 [sp + 0x390]\n 18164: t1 = t1 + a2\n 18167: a1 = t2 * a1\n 18170: u64 [sp + 0x390] = a1\n 18174: a0 = u64 [sp + 0x298]\n 18178: a5 = a0 - a5\n 18181: a0 = a5 - t1\n 18184: u64 [sp + 0x378] = a0\n 18188: s1 = u64 [sp + 0x2b8]\n 18192: t1 = u64 [sp + 0x380]\n 18196: a5 = s1 ^ t1\n 18199: a2 = s1 <u t1\n 18202: a0 = u64 [sp + 0x2e0]\n 18206: a4 = a0 <u a1\n 18209: a2 = a4 if a5 == 0\n 18212: a5 = u64 [sp + 0x2b0]\n 18216: a0 = a5 <u a3\n 18219: a3 = a5 - a3\n 18222: a5 = a3 <u a2\n 18225: a5 = a5 + a0\n 18228: a0 = u64 [sp + 0x378]\n 18232: a0 = a0 - a5\n 18235: u64 [sp + 0x2c0] = a0\n 18239: a3 = a3 - a2\n 18242: u64 [sp + 0x2d0] = a3\n 18246: a2 = s1 - a4\n 18249: a0 = a2 - t1\n 18252: u64 [sp + 0x268] = a0\n 18256: a0 = u64 [sp + 0x388]\n 18260: a1 = t2 mulhu a0\n 18263: a2 = t0 * a0\n 18266: a1 = a1 + a2\n 18269: a2 = a1 <u a2\n 18272: a3 = t0 mulhu a0\n 18275: a2 = a2 + a3\n 18278: a4 = u64 [sp + 0x3a8]\n 18282: a3 = t2 * a4\n 18285: t1 = a3 + a1\n 18288: a1 = t1 <u a3\n 18291: a3 = t2 mulhu a4\n 18294: a1 = a1 + a3\n 18297: a1 = a1 + a2\n 18300: a2 = a1 <u a2\n 18303: a3 = t0 mulhu a4\n 18306: a2 = a2 + a3\n 18309: a3 = t0 * a4\n 18312: a1 = a1 + a3\n 18315: a3 = a1 <u a3\n 18318: a2 = a2 + a3\n 18321: a5 = u64 [sp + 0x398]\n 18325: a3 = a5 * t0\n 18328: a4 = a5 mulhu t2\n 18331: a3 = a3 + a4\n 18334: a4 = u64 [sp + 0x3a0]\n 18338: a4 = a4 * t2\n 18341: a3 = a3 + a4\n 18344: a4 = a0 mulhu ra\n 18347: s1 = u64 [sp + 0x3d8]\n 18351: s1 = a0 * s1\n 18354: a4 = a4 + s1\n 18357: s1 = u64 [sp + 0x3a8]\n 18361: s1 = s1 * ra\n 18364: a4 = a4 + s1\n 18367: a3 = a3 + a4\n 18370: a4 = a0 * ra\n 18373: s1 = a5 * t2\n 18376: a4 = a4 + s1\n 18379: s1 = a4 <u s1\n 18382: a4 = a4 + a1\n 18385: a1 = a4 <u a1\n 18388: a3 = a3 + s1\n 18391: a2 = a2 + a3\n 18394: ra = t2 * a0\n 18397: a3 = u64 [sp + 0x270]\n 18401: a1 = a3 - a1\n 18404: t0 = a1 - a2\n 18407: a2 = u64 [sp + 0x2c8]\n 18411: a1 = a2 ^ t1\n 18414: a3 = a2 <u t1\n 18417: a0 = u64 [sp + 0x2a8]\n 18421: s1 = a0 <u ra\n 18424: a3 = s1 if a1 == 0\n 18427: a1 = u64 [sp + 0x280]\n 18431: a5 = a1 <u a4\n 18434: a4 = a1 - a4\n 18437: a1 = a4 <u a3\n 18440: t2 = a5 + a1\n 18443: a5 = u64 [sp + 0x2e0]\n 18447: a1 = u64 [sp + 0x390]\n 18451: a5 = a5 - a1\n 18454: t0 = t0 - t2\n 18457: a4 = a4 - a3\n 18460: a2 = a2 - s1\n 18463: a2 = a2 - t1\n 18466: a0 = a0 - ra\n 18469: a3 = u64 [sp + 0x2d0]\n 18473: a3 = a3 + a4\n 18476: a4 = a3 <u a4\n 18479: a1 = u64 [sp + 0x2c0]\n 18483: a1 = a1 + t0\n 18486: a1 = a1 + a4\n 18489: u64 [sp + 0x218] = a5\n 18493: a5 = a5 + a0\n 18496: a0 = a5 <u a0\n 18499: ra = a5\n 18501: a4 = u64 [sp + 0x268]\n 18505: a4 = a4 + a2\n 18508: t0 = a4 + a0\n 18511: a4 = t0 ^ a2\n 18514: a2 = t0 <u a2\n 18517: a2 = a0 if a4 == 0\n 18520: s1 = a3 + a2\n 18523: u64 [sp + 0x2f0] = s1\n 18527: a0 = s1 <u a3\n 18530: t2 = a1 + a0\n 18533: a1 = clz t2\n 18535: a0 = clz s1\n 18537: a0 = a0 + 0x40\n 18540: a0 = a1 if t2 != 0\n 18543: a1 = clz t0\n 18545: a2 = clz a5\n 18547: a2 = a2 + 0x40\n 18550: a2 = a1 if t0 != 0\n 18553: a1 = s1 | t2\n 18556: a3 = a2 + 0x80\n 18560: a0 = a3 if a1 == 0\n 18563: a2 = a3 <u a2\n 18566: a2 = 0 if a1 != 0\n 18568: a5 = u64 [sp + 0x328]\n 18572: a3 = a5 <u a0\n 18575: a4 = u64 [sp + 0x330]\n 18579: t1 = a4 ^ a2\n 18582: a1 = a4 <u a2\n 18585: a1 = a3 if t1 == 0\n 18588: a4 = a4 - a2\n 18591: t1 = a4 - a3\n 18594: a4 = a5 - a0\n 18597: a2 = a4 <u 0x100\n 18601: a2 = a2 ^ 0x1\n 18604: a3 = t1 >u 0\n 18606: a2 = a3 if t1 != 0\n 18609: a5 = a1 <u 0x1\n 18612: a5 = a5 + 0xffffffffffffffff\n 18615: a0 = -a1\n 18617: u64 [sp + 0x398] = a0\n 18621: a3 = a0 >u 0\n 18623: a0 = a5 >u 0\n 18625: a0 = a3 if a5 == 0\n 18628: a0 = a2 if a1 == 0\n 18631: a1 = t0 | t2\n 18634: a2 = ra | s1\n 18637: a1 = a1 | a2\n 18640: a1 = a1 <u 0x1\n 18643: a2 = u64 [sp + 0x320]\n 18647: a1 = a1 | a2\n 18650: a0 = a0 | a1\n 18653: a1 = t2\n 18655: a1 = 0 if a0 != 0\n 18657: u64 [sp + 0x3a8] = a1\n 18661: a1 = s1\n 18663: s1 = ra\n 18665: a1 = 0 if a0 != 0\n 18667: u64 [sp + 0x3a0] = a1\n 18671: a3 = t0\n 18673: a3 = 0 if a0 != 0\n 18675: ra = 0 if a0 != 0\n 18677: u64 [sp + 0x260] = s1\n 18681: u64 [sp + 0x2e8] = t2\n 18685: jump @158 if a0 != 0\n      : @151 (gas: 7)\n 18689: a1 = a4\n 18691: a0 = a4 ^ 0xff\n 18695: a2 = u64 [sp + 0x398]\n 18699: a0 = a0 | a2\n 18702: a4 = t1 | a5\n 18705: a0 = a0 | a4\n 18708: jump @158 if a0 == 0\n      : @152 (gas: 262)\n 18712: a2 = a1\n 18714: a1 = a1 + 0x1\n 18717: u64 [sp + 0x3a8] = a1\n 18721: a0 = a1 <u 0x1\n 18724: a0 = a0 + t1\n 18727: u64 [sp + 0x380] = a0\n 18731: a0 = a0 | a1\n 18734: a0 = a0 <u 0x1\n 18737: a1 = u64 [sp + 0x398]\n 18741: a0 = a0 + a1\n 18744: u64 [sp + 0x370] = a0\n 18748: a0 = a0 <u a1\n 18751: a0 = a0 + a5\n 18754: u64 [sp + 0x378] = a0\n 18758: a1 = t0\n 18760: t0 = 0xff - a2\n 18764: a2 = t2\n 18766: t2 = sp + 0x7ff\n 18770: t2 = t2 + 0x360\n 18774: u8 [t2 + 0x3e1] = s1\n 18778: u8 [t2 + 992] = 0\n 18782: u8 [t2 + 991] = 0\n 18786: u8 [t2 + 990] = 0\n 18790: u8 [t2 + 989] = 0\n 18794: u8 [t2 + 988] = 0\n 18798: u8 [t2 + 987] = 0\n 18802: u8 [t2 + 986] = 0\n 18806: u8 [t2 + 985] = 0\n 18810: u8 [t2 + 984] = 0\n 18814: u8 [t2 + 983] = 0\n 18818: u8 [t2 + 982] = 0\n 18822: u8 [t2 + 981] = 0\n 18826: u8 [t2 + 980] = 0\n 18830: u8 [t2 + 979] = 0\n 18834: u8 [t2 + 978] = 0\n 18838: u8 [t2 + 977] = 0\n 18842: u8 [t2 + 976] = 0\n 18846: u8 [t2 + 975] = 0\n 18850: u8 [t2 + 974] = 0\n 18854: u8 [t2 + 973] = 0\n 18858: u8 [t2 + 972] = 0\n 18862: u8 [t2 + 971] = 0\n 18866: u8 [t2 + 970] = 0\n 18870: u8 [t2 + 969] = 0\n 18874: u8 [t2 + 968] = 0\n 18878: u8 [t2 + 967] = 0\n 18882: u8 [t2 + 966] = 0\n 18886: u8 [t2 + 965] = 0\n 18890: u8 [t2 + 964] = 0\n 18894: u8 [t2 + 963] = 0\n 18898: u8 [t2 + 962] = 0\n 18902: u8 [t2 + 961] = 0\n 18906: u8 [t2 + 0x3e9] = a1\n 18910: a0 = s1 >> 0x38\n 18913: u64 [sp + 0x1d0] = a0\n 18917: u8 [t2 + 0x3e8] = a0\n 18921: a0 = s1 >> 0x30\n 18924: u64 [sp + 0x1c8] = a0\n 18928: u8 [t2 + 0x3e7] = a0\n 18932: a0 = s1 >> 0x28\n 18935: u64 [sp + 0x1c0] = a0\n 18939: u8 [t2 + 0x3e6] = a0\n 18943: a0 = s1 >> 0x20\n 18946: u64 [sp + 0x1b8] = a0\n 18950: u8 [t2 + 0x3e5] = a0\n 18954: a0 = s1 >> 0x18\n 18957: u64 [sp + 0x1b0] = a0\n 18961: u8 [t2 + 0x3e4] = a0\n 18965: a0 = s1 >> 0x10\n 18968: u64 [sp + 0x1a8] = a0\n 18972: u8 [t2 + 0x3e3] = a0\n 18976: a0 = s1 >> 0x8\n 18979: u64 [sp + 0x1a0] = a0\n 18983: u8 [t2 + 0x3e2] = a0\n 18987: ra = u64 [sp + 0x2f0]\n 18991: u8 [t2 + 0x3f1] = ra\n 18995: a0 = a1 >> 0x38\n 18998: u64 [sp + 0x198] = a0\n 19002: u8 [t2 + 0x3f0] = a0\n 19006: a0 = a1 >> 0x30\n 19009: u64 [sp + 0x190] = a0\n 19013: u8 [t2 + 0x3ef] = a0\n 19017: a0 = a1 >> 0x28\n 19020: u64 [sp + 0x188] = a0\n 19024: u8 [t2 + 0x3ee] = a0\n 19028: a0 = a1 >> 0x20\n 19031: u64 [sp + 0x180] = a0\n 19035: u8 [t2 + 0x3ed] = a0\n 19039: a0 = a1 >> 0x18\n 19042: u64 [sp + 0x178] = a0\n 19046: u8 [t2 + 0x3ec] = a0\n 19050: a0 = a1 >> 0x10\n 19053: u64 [sp + 0x170] = a0\n 19057: u8 [t2 + 0x3eb] = a0\n 19061: u64 [sp + 0x210] = a1\n 19065: a1 = a1 >> 0x8\n 19068: u64 [sp + 0x168] = a1\n 19072: u8 [t2 + 0x3ea] = a1\n 19076: u8 [t2 + 0x3f9] = a2\n 19080: a0 = ra >> 0x38\n 19083: u64 [sp + 0x160] = a0\n 19087: u8 [t2 + 0x3f8] = a0\n 19091: a0 = ra >> 0x30\n 19094: u64 [sp + 0x158] = a0\n 19098: u8 [t2 + 0x3f7] = a0\n 19102: a0 = ra >> 0x28\n 19105: u64 [sp + 0x150] = a0\n 19109: u8 [t2 + 0x3f6] = a0\n 19113: a0 = ra >> 0x20\n 19116: u64 [sp + 0x148] = a0\n 19120: u8 [t2 + 0x3f5] = a0\n 19124: a0 = ra >> 0x18\n 19127: u64 [sp + 0x140] = a0\n 19131: u8 [t2 + 0x3f4] = a0\n 19135: a0 = ra >> 0x10\n 19138: u64 [sp + 0x358] = a0\n 19142: u8 [t2 + 0x3f3] = a0\n 19146: a0 = ra >> 0x8\n 19149: u64 [sp + 0x350] = a0\n 19153: u8 [t2 + 0x3f2] = a0\n 19157: a0 = a2 >> 0x38\n 19160: u64 [sp + 0x348] = a0\n 19164: u8 [t2 + 0x400] = a0\n 19168: a0 = a2 >> 0x30\n 19171: u64 [sp + 0x318] = a0\n 19175: u8 [t2 + 0x3ff] = a0\n 19179: a0 = a2 >> 0x28\n 19182: u64 [sp + 0x310] = a0\n 19186: u8 [t2 + 0x3fe] = a0\n 19190: a0 = a2 >> 0x20\n 19193: u64 [sp + 0x308] = a0\n 19197: u8 [t2 + 0x3fd] = a0\n 19201: a0 = a2 >> 0x18\n 19204: u64 [sp + 0x300] = a0\n 19208: u8 [t2 + 0x3fc] = a0\n 19212: a0 = a2 >> 0x10\n 19215: u64 [sp + 0x2f8] = a0\n 19219: u8 [t2 + 0x3fb] = a0\n 19223: a0 = a2 >> 0x8\n 19226: u64 [sp + 0x208] = a0\n 19230: u8 [t2 + 0x3fa] = a0\n 19234: a1 = t0 << 0x38\n 19237: a1 = a1 >> 0x3b\n 19240: a3 = sp + 0x7ff\n 19244: a3 = a3 + 0x741\n 19248: a3 = a3 - a1\n 19251: a1 = u8 [a3 + 0x19]\n 19254: a2 = u8 [a3 + 0x18]\n 19257: a4 = u8 [a3 + 0x1a]\n 19260: a5 = u8 [a3 + 0x1b]\n 19263: a1 = a1 << 0x8\n 19266: a1 = a1 | a2\n 19269: a4 = a4 << 0x10\n 19272: a5 = a5 << 0x18\n 19275: a4 = a4 | a5\n 19278: a1 = a1 | a4\n 19281: a2 = u8 [a3 + 0x1d]\n 19284: a4 = u8 [a3 + 0x1c]\n 19287: a5 = u8 [a3 + 0x1e]\n 19290: s1 = u8 [a3 + 0x1f]\n 19293: a2 = a2 << 0x8\n 19296: a2 = a2 | a4\n 19299: a5 = a5 << 0x10\n 19302: s1 = s1 << 0x18\n 19305: a5 = a5 | s1\n 19308: a2 = a2 | a5\n 19311: a2 = a2 << 0x20\n 19314: a4 = a2 | a1\n 19317: a1 = u8 [a3 + 0x11]\n 19320: a2 = u8 [a3 + 0x10]\n 19323: a5 = u8 [a3 + 0x12]\n 19326: s1 = u8 [a3 + 0x13]\n 19329: a1 = a1 << 0x8\n 19332: a1 = a1 | a2\n 19335: a5 = a5 << 0x10\n 19338: s1 = s1 << 0x18\n 19341: a5 = a5 | s1\n 19344: a1 = a1 | a5\n 19347: a2 = u8 [a3 + 0x15]\n 19350: a5 = u8 [a3 + 0x14]\n 19353: s1 = u8 [a3 + 0x16]\n 19356: a0 = u8 [a3 + 0x17]\n 19359: a2 = a2 << 0x8\n 19362: a2 = a2 | a5\n 19365: s1 = s1 << 0x10\n 19368: a0 = a0 << 0x18\n 19371: a0 = a0 | s1\n 19374: a0 = a0 | a2\n 19377: a0 = a0 << 0x20\n 19380: t1 = a0 | a1\n 19383: a0 = t0 & 0x7\n 19386: a2 = a4 << a0\n 19389: a5 = t1 >> 0x1\n 19392: t0 = a0 ^ 0x3f\n 19395: a5 = a5 >> t0\n 19398: a2 = a2 | a5\n 19401: u64 [sp + 0x3a0] = a2\n 19405: a2 = u8 [a3 + 0x9]\n 19408: a5 = u8 [a3 + 0x8]\n 19411: s1 = u8 [a3 + 0xa]\n 19414: a4 = u8 [a3 + 0xb]\n 19417: a2 = a2 << 0x8\n 19420: a2 = a2 | a5\n 19423: s1 = s1 << 0x10\n 19426: a4 = a4 << 0x18\n 19429: a4 = a4 | s1\n 19432: a2 = a2 | a4\n 19435: a4 = u8 [a3 + 0xd]\n 19438: a5 = u8 [a3 + 0xc]\n 19441: s1 = u8 [a3 + 0xe]\n 19444: a1 = u8 [a3 + 0xf]\n 19447: a4 = a4 << 0x8\n 19450: a4 = a4 | a5\n 19453: s1 = s1 << 0x10\n 19456: a1 = a1 << 0x18\n 19459: a1 = a1 | s1\n 19462: a1 = a1 | a4\n 19465: a1 = a1 << 0x20\n 19468: a5 = a1 | a2\n 19471: a1 = a5 >> 0x1\n 19474: a2 = a0 ^ 0xffffffffffffffff\n 19477: a1 = a1 >> a2\n 19480: a2 = t1 << a0\n 19483: t1 = u64 [sp + 0x370]\n 19487: a1 = a1 | a2\n 19490: u64 [sp + 0x398] = a1\n 19494: a1 = u8 [a3 + 0x1]\n 19497: a2 = u8 [a3]\n 19499: a4 = u8 [a3 + 0x2]\n 19502: s1 = u8 [a3 + 0x3]\n 19505: a1 = a1 << 0x8\n 19508: a1 = a1 | a2\n 19511: a4 = a4 << 0x10\n 19514: s1 = s1 << 0x18\n 19517: a4 = a4 | s1\n 19520: a1 = a1 | a4\n 19523: a2 = u8 [a3 + 0x5]\n 19526: a4 = u8 [a3 + 0x4]\n 19529: s1 = u8 [a3 + 0x6]\n 19532: a3 = u8 [a3 + 0x7]\n 19535: a2 = a2 << 0x8\n 19538: a2 = a2 | a4\n 19541: a4 = u64 [sp + 0x380]\n 19545: s1 = s1 << 0x10\n 19548: a3 = a3 << 0x18\n 19551: a3 = a3 | s1\n 19554: a2 = a2 | a3\n 19557: a2 = a2 << 0x20\n 19560: a1 = a1 | a2\n 19563: a2 = a1 >> 0x1\n 19566: a2 = a2 >> t0\n 19569: a3 = a5 << a0\n 19572: a5 = u64 [sp + 0x378]\n 19576: a2 = a2 | a3\n 19579: u64 [sp + 0x388] = a2\n 19583: a2 = a4 | a5\n 19586: a3 = u64 [sp + 0x3a8]\n 19590: a3 = a3 | t1\n 19593: a2 = a2 | a3\n 19596: a0 = a1 << a0\n 19599: u64 [sp + 0x390] = a0\n 19603: jump @156 if a2 == 0\n      : @153 (gas: 225)\n 19607: u64 [sp + 872] = 0\n 19611: u64 [sp + 864] = 0\n 19615: a0 = u64 [sp + 0x1d0]\n 19619: u8 [t2 + 0x388] = a0\n 19623: a0 = u64 [sp + 0x1c8]\n 19627: u8 [t2 + 0x387] = a0\n 19631: a0 = u64 [sp + 0x1c0]\n 19635: u8 [t2 + 0x386] = a0\n 19639: a0 = u64 [sp + 0x1b8]\n 19643: u8 [t2 + 0x385] = a0\n 19647: a0 = u64 [sp + 0x1b0]\n 19651: u8 [t2 + 0x384] = a0\n 19655: a0 = u64 [sp + 0x1a8]\n 19659: u8 [t2 + 0x383] = a0\n 19663: a0 = u64 [sp + 0x1a0]\n 19667: u8 [t2 + 0x382] = a0\n 19671: a0 = u64 [sp + 0x198]\n 19675: u8 [t2 + 0x390] = a0\n 19679: a0 = u64 [sp + 0x190]\n 19683: u8 [t2 + 0x38f] = a0\n 19687: a0 = u64 [sp + 0x188]\n 19691: u8 [t2 + 0x38e] = a0\n 19695: a0 = u64 [sp + 0x180]\n 19699: u8 [t2 + 0x38d] = a0\n 19703: a0 = u64 [sp + 0x178]\n 19707: u8 [t2 + 0x38c] = a0\n 19711: a0 = u64 [sp + 0x170]\n 19715: u8 [t2 + 0x38b] = a0\n 19719: a0 = u64 [sp + 0x168]\n 19723: u8 [t2 + 0x38a] = a0\n 19727: a0 = u64 [sp + 0x160]\n 19731: u8 [t2 + 0x398] = a0\n 19735: a0 = u64 [sp + 0x158]\n 19739: u8 [t2 + 0x397] = a0\n 19743: a0 = u64 [sp + 0x150]\n 19747: u8 [t2 + 0x396] = a0\n 19751: a0 = u64 [sp + 0x148]\n 19755: u8 [t2 + 0x395] = a0\n 19759: a0 = u64 [sp + 0x140]\n 19763: u8 [t2 + 0x394] = a0\n 19767: u8 [t2 + 960] = 0\n 19771: u8 [t2 + 959] = 0\n 19775: u8 [t2 + 958] = 0\n 19779: u8 [t2 + 957] = 0\n 19783: u8 [t2 + 956] = 0\n 19787: u8 [t2 + 955] = 0\n 19791: u8 [t2 + 954] = 0\n 19795: u8 [t2 + 953] = 0\n 19799: u8 [t2 + 952] = 0\n 19803: u8 [t2 + 951] = 0\n 19807: u8 [t2 + 950] = 0\n 19811: u8 [t2 + 949] = 0\n 19815: u8 [t2 + 948] = 0\n 19819: u8 [t2 + 947] = 0\n 19823: u8 [t2 + 946] = 0\n 19827: u8 [t2 + 945] = 0\n 19831: u8 [t2 + 944] = 0\n 19835: u8 [t2 + 943] = 0\n 19839: u8 [t2 + 942] = 0\n 19843: u8 [t2 + 941] = 0\n 19847: u8 [t2 + 940] = 0\n 19851: u8 [t2 + 939] = 0\n 19855: u8 [t2 + 938] = 0\n 19859: u8 [t2 + 937] = 0\n 19863: u8 [t2 + 936] = 0\n 19867: u8 [t2 + 935] = 0\n 19871: u8 [t2 + 934] = 0\n 19875: u8 [t2 + 933] = 0\n 19879: u8 [t2 + 932] = 0\n 19883: u8 [t2 + 931] = 0\n 19887: u8 [t2 + 930] = 0\n 19891: u8 [t2 + 929] = 0\n 19895: a0 = u64 [sp + 0x260]\n 19899: u8 [t2 + 0x381] = a0\n 19903: a0 = u64 [sp + 0x210]\n 19907: u8 [t2 + 0x389] = a0\n 19911: u8 [t2 + 0x391] = ra\n 19915: a0 = u64 [sp + 0x2e8]\n 19919: u8 [t2 + 0x399] = a0\n 19923: a0 = u64 [sp + 0x358]\n 19927: u8 [t2 + 0x393] = a0\n 19931: a0 = u64 [sp + 0x350]\n 19935: u8 [t2 + 0x392] = a0\n 19939: a0 = u64 [sp + 0x348]\n 19943: u8 [t2 + 0x3a0] = a0\n 19947: a0 = u64 [sp + 0x318]\n 19951: u8 [t2 + 0x39f] = a0\n 19955: a0 = u64 [sp + 0x310]\n 19959: u8 [t2 + 0x39e] = a0\n 19963: a0 = u64 [sp + 0x308]\n 19967: u8 [t2 + 0x39d] = a0\n 19971: a0 = u64 [sp + 0x300]\n 19975: u8 [t2 + 0x39c] = a0\n 19979: a0 = u64 [sp + 0x2f8]\n 19983: u8 [t2 + 0x39b] = a0\n 19987: a0 = u64 [sp + 0x208]\n 19991: u8 [t2 + 0x39a] = a0\n 19995: s1 = u64 [sp + 0x3a8]\n 19999: a0 = s1 << 0x38\n 20002: a0 = a0 >> 0x3b\n 20005: a1 = sp + 0x7ff\n 20009: a1 = a1 + 0x6e1\n 20013: a0 = a0 + a1\n 20016: a1 = u8 [a0 + 0x11]\n 20019: a2 = u8 [a0 + 0x10]\n 20022: a3 = u8 [a0 + 0x12]\n 20025: a4 = u8 [a0 + 0x13]\n 20028: a1 = a1 << 0x8\n 20031: a1 = a1 | a2\n 20034: a3 = a3 << 0x10\n 20037: a4 = a4 << 0x18\n 20040: a3 = a3 | a4\n 20043: a1 = a1 | a3\n 20046: a2 = u8 [a0 + 0x15]\n 20049: a3 = u8 [a0 + 0x14]\n 20052: a4 = u8 [a0 + 0x16]\n 20055: a5 = u8 [a0 + 0x17]\n 20058: a2 = a2 << 0x8\n 20061: a2 = a2 | a3\n 20064: a4 = a4 << 0x10\n 20067: a5 = a5 << 0x18\n 20070: a4 = a4 | a5\n 20073: a2 = a2 | a4\n 20076: a2 = a2 << 0x20\n 20079: t2 = a2 | a1\n 20082: s1 = s1 & 0x7\n 20085: t0 = t2 >> s1\n 20088: a1 = u8 [a0 + 0x19]\n 20091: a2 = u8 [a0 + 0x18]\n 20094: a4 = u8 [a0 + 0x1a]\n 20097: a5 = u8 [a0 + 0x1b]\n 20100: a1 = a1 << 0x8\n 20103: a1 = a1 | a2\n 20106: a4 = a4 << 0x10\n 20109: a5 = a5 << 0x18\n 20112: a4 = a4 | a5\n 20115: a1 = a1 | a4\n 20118: a2 = u8 [a0 + 0x1d]\n 20121: a4 = u8 [a0 + 0x1c]\n 20124: a5 = u8 [a0 + 0x1e]\n 20127: a3 = u8 [a0 + 0x1f]\n 20130: a2 = a2 << 0x8\n 20133: a2 = a2 | a4\n 20136: a5 = a5 << 0x10\n 20139: a3 = a3 << 0x18\n 20142: a3 = a3 | a5\n 20145: a2 = a2 | a3\n 20148: a2 = a2 << 0x20\n 20151: a1 = a1 | a2\n 20154: a2 = a1 << 0x1\n 20157: t1 = s1 ^ 0x3f\n 20160: a2 = a2 << t1\n 20163: a2 = t0 | a2\n 20166: u64 [sp + 0x358] = a2\n 20170: a2 = u8 [a0 + 0x9]\n 20173: a3 = u8 [a0 + 0x8]\n 20176: a4 = u8 [a0 + 0xa]\n 20179: a5 = u8 [a0 + 0xb]\n 20182: a2 = a2 << 0x8\n 20185: a2 = a2 | a3\n 20188: a4 = a4 << 0x10\n 20191: a5 = a5 << 0x18\n 20194: a4 = a4 | a5\n 20197: t0 = a4 | a2\n 20200: a3 = u8 [a0 + 0xd]\n 20203: a4 = u8 [a0 + 0xc]\n 20206: a5 = u8 [a0 + 0xe]\n 20209: a2 = u8 [a0 + 0xf]\n 20212: a3 = a3 << 0x8\n 20215: a3 = a3 | a4\n 20218: a5 = a5 << 0x10\n 20221: a2 = a2 << 0x18\n 20224: a2 = a2 | a5\n 20227: a2 = a2 | a3\n 20230: a2 = a2 << 0x20\n 20233: t0 = a2 | t0\n 20236: a2 = t0 >> s1\n 20239: t2 = t2 << 0x1\n 20242: a4 = s1 ^ 0xffffffffffffffff\n 20245: a4 = t2 << a4\n 20248: t2 = a2 | a4\n 20251: a2 = u8 [a0 + 0x1]\n 20254: a4 = u8 [a0]\n 20256: a5 = u8 [a0 + 0x2]\n 20259: a3 = u8 [a0 + 0x3]\n 20262: a2 = a2 << 0x8\n 20265: a2 = a2 | a4\n 20268: a5 = a5 << 0x10\n 20271: a3 = a3 << 0x18\n 20274: a3 = a3 | a5\n 20277: a2 = a2 | a3\n 20280: a3 = u8 [a0 + 0x5]\n 20283: a4 = u8 [a0 + 0x4]\n 20286: a5 = u8 [a0 + 0x6]\n 20289: a0 = u8 [a0 + 0x7]\n 20292: a3 = a3 << 0x8\n 20295: a3 = a3 | a4\n 20298: a5 = a5 << 0x10\n 20301: a0 = a0 << 0x18\n 20304: a0 = a0 | a5\n 20307: a0 = a0 | a3\n 20310: a0 = a0 << 0x20\n 20313: a0 = a0 | a2\n 20316: a0 = a0 >> s1\n 20319: t0 = t0 << 0x1\n 20322: a2 = t0 << t1\n 20325: ra = a0 | a2\n 20328: a4 = a1 >> s1\n 20331: a1 = u64 [sp + 0x3c0]\n 20335: a0 = a1 <u 0x1\n 20338: a2 = u64 [sp + 0x3d0]\n 20342: a0 = a2 - a0\n 20345: u64 [sp + 0x310] = a0\n 20349: a0 = a1 | a2\n 20352: a0 = a0 <u 0x1\n 20355: a2 = u64 [sp + 0x3c8]\n 20359: a3 = a2 - a0\n 20362: u64 [sp + 0x308] = a3\n 20366: a0 = a2 <u a0\n 20369: a2 = u64 [sp + 0x3d8]\n 20373: a2 = a2 - a0\n 20376: u64 [sp + 0x300] = a2\n 20380: a1 = a1 + 0xffffffffffffffff\n 20383: u64 [sp + 0x2f8] = a1\n 20387: fallthrough\n      : @154 (gas: 104)\n 20388: u64 [sp + 792] = 0\n 20392: a1 = ra >> 0x3f\n 20395: s1 = t2 << 0x1\n 20398: s1 = s1 | a1\n 20401: ra = ra << 0x1\n 20404: t1 = u64 [sp + 0x3a0]\n 20408: a1 = t1 >> 0x3f\n 20411: a1 = ra | a1\n 20414: a0 = u64 [sp + 0x310]\n 20418: a3 = a0 ^ s1\n 20421: a5 = a0 <u s1\n 20424: a0 = u64 [sp + 0x2f8]\n 20428: a2 = a0 <u a1\n 20431: ra = a1\n 20433: u64 [sp + 0x348] = a1\n 20437: a2 = a5 if a3 != 0\n 20440: a0 = a4 << 0x1\n 20443: a4 = u64 [sp + 0x358]\n 20447: a3 = a4 >> 0x3f\n 20450: t0 = a0 | a3\n 20453: u64 [sp + 0x350] = t0\n 20457: a3 = t2 >> 0x3f\n 20460: a4 = a4 << 0x1\n 20463: a3 = a3 | a4\n 20466: a4 = t1 << 0x1\n 20469: a0 = u64 [sp + 0x398]\n 20473: a5 = a0 >> 0x3f\n 20476: t2 = a4 | a5\n 20479: a5 = a0 << 0x1\n 20482: a4 = u64 [sp + 0x388]\n 20486: a0 = a4 >> 0x3f\n 20489: a0 = a0 | a5\n 20492: a4 = a4 << 0x1\n 20495: a5 = u64 [sp + 0x390]\n 20499: a1 = a5 >> 0x3f\n 20502: a1 = a1 | a4\n 20505: a5 = a5 << 0x1\n 20508: a4 = u64 [sp + 0x368]\n 20512: a5 = a5 | a4\n 20515: u64 [sp + 0x390] = a5\n 20519: a5 = u64 [sp + 0x360]\n 20523: a1 = a1 | a5\n 20526: u64 [sp + 0x388] = a1\n 20530: a0 = a0 | a5\n 20533: u64 [sp + 0x398] = a0\n 20537: a0 = a5 | t2\n 20540: u64 [sp + 0x3a0] = a0\n 20544: a1 = u64 [sp + 0x308]\n 20548: a0 = a1 - a3\n 20551: a0 = a0 <u a2\n 20554: a1 = a1 <u a3\n 20557: a2 = u64 [sp + 0x300]\n 20561: a2 = a2 - t0\n 20564: a2 = a2 - a1\n 20567: a2 = a2 - a0\n 20570: a5 = a2 >>a 0x3f\n 20573: a1 = u64 [sp + 0x3c0]\n 20577: t0 = a5 & a1\n 20580: a2 = u64 [sp + 0x3d0]\n 20584: a2 = a2 & a5\n 20587: t2 = s1 ^ a2\n 20590: a4 = s1 <u a2\n 20593: a0 = ra <u t0\n 20596: a4 = a0 if t2 == 0\n 20599: a1 = u64 [sp + 0x3c8]\n 20603: t2 = a5 & a1\n 20606: t1 = a3 - t2\n 20609: ra = t1 - a4\n 20612: u64 [sp + 0x358] = ra\n 20616: t1 = t1 <u a4\n 20619: a3 = a3 <u t2\n 20622: a4 = u64 [sp + 0x3d8]\n 20626: a4 = a4 & a5\n 20629: a1 = u64 [sp + 0x350]\n 20633: a4 = a1 - a4\n 20636: a4 = a4 - a3\n 20639: a4 = a4 - t1\n 20642: s1 = s1 - a2\n 20645: t2 = s1 - a0\n 20648: a0 = u64 [sp + 0x348]\n 20652: ra = a0 - t0\n 20655: a3 = u64 [sp + 0x3a8]\n 20659: s1 = u64 [sp + 0x380]\n 20663: a0 = a3 | s1\n 20666: a0 = a0 <u 0x1\n 20669: a2 = u64 [sp + 0x370]\n 20673: a1 = a2 <u a0\n 20676: a0 = a2 - a0\n 20679: a2 = a3 <u 0x1\n 20682: s1 = s1 - a2\n 20685: a2 = u64 [sp + 0x378]\n 20689: a2 = a2 - a1\n 20692: a3 = a3 + 0xffffffffffffffff\n 20695: u64 [sp + 0x380] = s1\n 20699: u64 [sp + 0x378] = a2\n 20703: a1 = s1 | a2\n 20706: u64 [sp + 0x3a8] = a3\n 20710: a2 = a3 | a0\n 20713: a1 = a1 | a2\n 20716: a5 = a5 & 0x1\n 20719: u64 [sp + 0x368] = a5\n 20723: u64 [sp + 0x370] = a0\n 20727: u64 [sp + 864] = 0\n 20731: jump @154 if a1 != 0\n      : @155 (gas: 1)\n 20735: jump @157\n      : @156 (gas: 3)\n 20737: u64 [sp + 872] = 0\n 20741: u64 [sp + 792] = 0\n 20745: fallthrough\n      : @157 (gas: 26)\n 20746: a2 = u64 [sp + 0x398]\n 20750: a0 = a2 >> 0x3f\n 20753: a1 = u64 [sp + 0x3a0]\n 20757: a1 = a1 << 0x1\n 20760: a0 = a0 | a1\n 20763: a4 = u64 [sp + 0x388]\n 20767: a1 = a4 >> 0x3f\n 20770: a2 = a2 << 0x1\n 20773: a2 = a2 | a1\n 20776: a1 = u64 [sp + 0x390]\n 20780: a3 = a1 >> 0x3f\n 20783: a4 = a4 << 0x1\n 20786: a1 = a1 << 0x1\n 20789: a5 = u64 [sp + 0x368]\n 20793: ra = a5 | a1\n 20796: a5 = u64 [sp + 0x318]\n 20800: a3 = a3 | a5\n 20803: a3 = a3 | a4\n 20806: a2 = a2 | a5\n 20809: u64 [sp + 0x3a0] = a2\n 20813: a0 = a0 | a5\n 20816: u64 [sp + 0x3a8] = a0\n 20820: s1 = u64 [sp + 0x260]\n 20824: t0 = u64 [sp + 0x210]\n 20828: t2 = u64 [sp + 0x2e8]\n 20832: fallthrough\n      : @158 (gas: 172)\n 20833: a0 = u64 [sp + 0x218]\n 20837: a0 = s1 <u a0\n 20840: a5 = u64 [sp + 0x268]\n 20844: a4 = t0 ^ a5\n 20847: a5 = t0 <u a5\n 20850: a5 = a0 if a4 == 0\n 20853: a0 = u64 [sp + 0x2c0]\n 20857: a4 = t2 ^ a0\n 20860: a2 = t2 <u a0\n 20863: a0 = u64 [sp + 0x2d0]\n 20867: a1 = a3\n 20869: a3 = u64 [sp + 0x2f0]\n 20873: s1 = a3 <u a0\n 20876: a2 = s1 if a4 == 0\n 20879: s1 = a3 ^ a0\n 20882: a4 = a4 | s1\n 20885: a2 = a5 if a4 == 0\n 20888: u64 [sp + 0x398] = a2\n 20892: t1 = u64 [sp + 0x3c0]\n 20896: a4 = t1 mulhu ra\n 20899: t2 = u64 [sp + 0x3a0]\n 20903: a0 = u64 [sp + 0x3d0]\n 20907: a5 = a0 * ra\n 20910: a4 = a4 + a5\n 20913: a5 = a4 <u a5\n 20916: s1 = a0 mulhu ra\n 20919: a3 = a0\n 20921: s1 = s1 + a5\n 20924: a5 = t1 * a1\n 20927: a4 = a4 + a5\n 20930: u64 [sp + 0x390] = a4\n 20934: a5 = a4 <u a5\n 20937: a2 = t1 mulhu a1\n 20940: a2 = a2 + a5\n 20943: a2 = a2 + s1\n 20946: a5 = a2 <u s1\n 20949: s1 = a0 mulhu a1\n 20952: a5 = a5 + s1\n 20955: s1 = a0 * a1\n 20958: a2 = a2 + s1\n 20961: s1 = a2 <u s1\n 20964: a5 = a5 + s1\n 20967: u64 [sp + 0x388] = a5\n 20971: a0 = t2\n 20973: s1 = t2 * a3\n 20976: a5 = t2 mulhu t1\n 20979: a5 = a5 + s1\n 20982: a4 = u64 [sp + 0x3a8]\n 20986: s1 = a4 * t1\n 20989: a5 = a5 + s1\n 20992: t2 = u64 [sp + 0x3c8]\n 20996: s1 = ra mulhu t2\n 20999: a3 = u64 [sp + 0x3d8]\n 21003: a4 = ra * a3\n 21006: a4 = a4 + s1\n 21009: a3 = a1 * t2\n 21012: a3 = a3 + a4\n 21015: a3 = a3 + a5\n 21018: a4 = a0 * t1\n 21021: a5 = ra * t2\n 21024: a5 = a5 + a4\n 21027: a4 = a5 <u a4\n 21030: a3 = a3 + a4\n 21033: a5 = a5 + a2\n 21036: a2 = a5 <u a2\n 21039: a0 = u64 [sp + 0x388]\n 21043: a3 = a3 + a0\n 21046: a2 = a2 + a3\n 21049: a1 = t1 * ra\n 21052: u64 [sp + 0x388] = a1\n 21056: a0 = u64 [sp + 0x390]\n 21060: a3 = t0 ^ a0\n 21063: a4 = t0 <u a0\n 21066: ra = u64 [sp + 0x260]\n 21070: s1 = ra <u a1\n 21073: a4 = s1 if a3 == 0\n 21076: a1 = u64 [sp + 0x2f0]\n 21080: a3 = a1 <u a5\n 21083: a5 = a1 - a5\n 21086: a1 = a5 <u a4\n 21089: a1 = a1 + a3\n 21092: a3 = u64 [sp + 0x2e8]\n 21096: a3 = a3 - a2\n 21099: a3 = a3 - a1\n 21102: u64 [sp + 0x3a0] = a3\n 21106: a5 = a5 - a4\n 21109: a2 = t0 - a0\n 21112: a2 = a2 - s1\n 21115: u64 [sp + 0x3a8] = a2\n 21119: a0 = ra\n 21121: a1 = ra <u t1\n 21124: a2 = u64 [sp + 0x3d0]\n 21128: a4 = t0 ^ a2\n 21131: s1 = t0 <u a2\n 21134: ra = a2\n 21136: s1 = a1 if a4 == 0\n 21139: a2 = u64 [sp + 0x2e8]\n 21143: a3 = u64 [sp + 0x3d8]\n 21147: a4 = a2 - a3\n 21150: a3 = u64 [sp + 0x2f0]\n 21154: a2 = a3 <u t2\n 21157: a4 = a4 - a2\n 21160: a2 = a3 - t2\n 21163: a3 = a2 <u s1\n 21166: a4 = a4 - a3\n 21169: a3 = u64 [sp + 0x388]\n 21173: a3 = a0 - a3\n 21176: s1 = a2 - s1\n 21179: a2 = t0 - ra\n 21182: t0 = a2 - a1\n 21185: t2 = a0 - t1\n 21188: a0 = u64 [sp + 0x398]\n 21192: s1 = a5 if a0 == 0\n 21195: u64 [sp + 0x2f0] = s1\n 21199: a1 = u64 [sp + 0x3a0]\n 21203: a4 = a1 if a0 == 0\n 21206: t2 = a3 if a0 == 0\n 21209: a1 = u64 [sp + 0x3a8]\n 21213: t0 = a1 if a0 == 0\n 21216: a0 = clz s1\n 21218: a1 = a0 + 0x40\n 21221: a0 = clz a4\n 21223: a0 = a1 if a4 == 0\n 21226: a1 = s1 | a4\n 21229: a2 = clz t0\n 21231: a3 = clz t2\n 21233: a3 = a3 + 0x40\n 21236: a3 = a2 if t0 != 0\n 21239: a2 = a3 + 0x80\n 21243: a0 = a2 if a1 == 0\n 21246: a2 = a2 <u a3\n 21249: a2 = 0 if a1 != 0\n 21251: s1 = u64 [sp + 0x330]\n 21255: a1 = s1 ^ a2\n 21258: a5 = s1 <u a2\n 21261: a3 = u64 [sp + 0x328]\n 21265: ra = a3 <u a0\n 21268: a5 = ra if a1 == 0\n 21271: a1 = a5 <u 0x1\n 21274: t1 = a1 + 0xffffffffffffffff\n 21277: a1 = -a5\n 21279: a2 = s1 - a2\n 21282: a2 = a2 - ra\n 21285: a3 = a3 - a0\n 21288: u64 [sp + 0x3a0] = a1\n 21292: a0 = a1 >u 0\n 21294: a1 = t1\n 21296: s1 = t1 >u 0\n 21298: s1 = a0 if t1 == 0\n 21301: u64 [sp + 0x398] = a3\n 21305: a0 = a3 <u 0x100\n 21309: a0 = a0 ^ 0x1\n 21312: a3 = a2 >u 0\n 21314: a0 = a3 if a2 != 0\n 21317: a0 = s1 if a5 != 0\n 21320: ra = u64 [sp + 0x2f0]\n 21324: a3 = t2 | ra\n 21327: a5 = t0 | a4\n 21330: a3 = a3 | a5\n 21333: a3 = a3 <u 0x1\n 21336: a5 = u64 [sp + 0x320]\n 21340: a3 = a3 | a5\n 21343: u64 [sp + 0x268] = t0\n 21347: u64 [sp + 0x260] = t2\n 21351: a0 = a0 | a3\n 21354: u64 [sp + 0x2d0] = a4\n 21358: a4 = 0 if a0 != 0\n 21360: ra = 0 if a0 != 0\n 21362: t0 = 0 if a0 != 0\n 21364: t1 = t2\n 21366: t1 = 0 if a0 != 0\n 21368: jump @166 if a0 != 0\n      : @159 (gas: 8)\n 21372: s1 = u64 [sp + 0x398]\n 21376: a0 = s1 ^ 0xff\n 21380: a5 = u64 [sp + 0x3a0]\n 21384: a0 = a0 | a5\n 21387: a3 = a2 | a1\n 21390: a0 = a0 | a3\n 21393: t2 = u64 [sp + 0x330]\n 21397: jump @167 if a0 == 0\n      : @160 (gas: 260)\n 21401: a3 = s1 + 0x1\n 21404: u64 [sp + 0x3a8] = a3\n 21408: a0 = a3 <u 0x1\n 21411: a0 = a0 + a2\n 21414: u64 [sp + 0x380] = a0\n 21418: a0 = a0 | a3\n 21421: a0 = a0 <u 0x1\n 21424: a0 = a0 + a5\n 21427: u64 [sp + 0x368] = a0\n 21431: a0 = a0 <u a5\n 21434: a0 = a0 + a1\n 21437: u64 [sp + 0x370] = a0\n 21441: t1 = 0xff - s1\n 21445: ra = sp + 0x7ff\n 21449: ra = ra + 0x360\n 21453: a0 = u64 [sp + 0x260]\n 21457: u8 [ra + 0x361] = a0\n 21461: u8 [ra + 864] = 0\n 21465: u8 [ra + 863] = 0\n 21469: u8 [ra + 862] = 0\n 21473: u8 [ra + 861] = 0\n 21477: u8 [ra + 860] = 0\n 21481: u8 [ra + 859] = 0\n 21485: u8 [ra + 858] = 0\n 21489: u8 [ra + 857] = 0\n 21493: u8 [ra + 856] = 0\n 21497: u8 [ra + 855] = 0\n 21501: u8 [ra + 854] = 0\n 21505: u8 [ra + 853] = 0\n 21509: u8 [ra + 852] = 0\n 21513: u8 [ra + 851] = 0\n 21517: u8 [ra + 850] = 0\n 21521: u8 [ra + 849] = 0\n 21525: u8 [ra + 848] = 0\n 21529: u8 [ra + 847] = 0\n 21533: u8 [ra + 846] = 0\n 21537: u8 [ra + 845] = 0\n 21541: u8 [ra + 844] = 0\n 21545: u8 [ra + 843] = 0\n 21549: u8 [ra + 842] = 0\n 21553: u8 [ra + 841] = 0\n 21557: u8 [ra + 840] = 0\n 21561: u8 [ra + 839] = 0\n 21565: u8 [ra + 838] = 0\n 21569: u8 [ra + 837] = 0\n 21573: u8 [ra + 836] = 0\n 21577: u8 [ra + 835] = 0\n 21581: u8 [ra + 834] = 0\n 21585: u8 [ra + 833] = 0\n 21589: a1 = u64 [sp + 0x268]\n 21593: u8 [ra + 0x369] = a1\n 21597: a2 = a0 >> 0x38\n 21600: u64 [sp + 0x2c0] = a2\n 21604: u8 [ra + 0x368] = a2\n 21608: a2 = a0 >> 0x30\n 21611: u64 [sp + 0x218] = a2\n 21615: u8 [ra + 0x367] = a2\n 21619: a2 = a0 >> 0x28\n 21622: u64 [sp + 0x210] = a2\n 21626: u8 [ra + 0x366] = a2\n 21630: a2 = a0 >> 0x20\n 21633: u64 [sp + 0x208] = a2\n 21637: u8 [ra + 0x365] = a2\n 21641: a2 = a0 >> 0x18\n 21644: u64 [sp + 0x1d0] = a2\n 21648: u8 [ra + 0x364] = a2\n 21652: a2 = a0 >> 0x10\n 21655: u64 [sp + 0x1c8] = a2\n 21659: u8 [ra + 0x363] = a2\n 21663: a0 = a0 >> 0x8\n 21666: u64 [sp + 0x1c0] = a0\n 21670: u8 [ra + 0x362] = a0\n 21674: a0 = u64 [sp + 0x2f0]\n 21678: u8 [ra + 0x371] = a0\n 21682: a2 = a1 >> 0x38\n 21685: u64 [sp + 0x1b8] = a2\n 21689: u8 [ra + 0x370] = a2\n 21693: a2 = a1 >> 0x30\n 21696: u64 [sp + 0x1b0] = a2\n 21700: u8 [ra + 0x36f] = a2\n 21704: a2 = a1 >> 0x28\n 21707: u64 [sp + 0x1a8] = a2\n 21711: u8 [ra + 0x36e] = a2\n 21715: a2 = a1 >> 0x20\n 21718: u64 [sp + 0x1a0] = a2\n 21722: u8 [ra + 0x36d] = a2\n 21726: a2 = a1 >> 0x18\n 21729: u64 [sp + 0x198] = a2\n 21733: u8 [ra + 0x36c] = a2\n 21737: a2 = a1 >> 0x10\n 21740: u64 [sp + 0x190] = a2\n 21744: u8 [ra + 0x36b] = a2\n 21748: a1 = a1 >> 0x8\n 21751: u64 [sp + 0x188] = a1\n 21755: u8 [ra + 0x36a] = a1\n 21759: t0 = u64 [sp + 0x2d0]\n 21763: u8 [ra + 0x379] = t0\n 21767: a1 = a0 >> 0x38\n 21770: u64 [sp + 0x180] = a1\n 21774: u8 [ra + 0x378] = a1\n 21778: a1 = a0 >> 0x30\n 21781: u64 [sp + 0x178] = a1\n 21785: u8 [ra + 0x377] = a1\n 21789: a1 = a0 >> 0x28\n 21792: u64 [sp + 0x170] = a1\n 21796: u8 [ra + 0x376] = a1\n 21800: a1 = a0 >> 0x20\n 21803: u64 [sp + 0x168] = a1\n 21807: u8 [ra + 0x375] = a1\n 21811: a1 = a0 >> 0x18\n 21814: u64 [sp + 0x160] = a1\n 21818: u8 [ra + 0x374] = a1\n 21822: a1 = a0 >> 0x10\n 21825: u64 [sp + 0x358] = a1\n 21829: u8 [ra + 0x373] = a1\n 21833: a0 = a0 >> 0x8\n 21836: u64 [sp + 0x350] = a0\n 21840: u8 [ra + 0x372] = a0\n 21844: a0 = t0 >> 0x38\n 21847: u64 [sp + 0x348] = a0\n 21851: u8 [ra + 0x380] = a0\n 21855: a0 = t0 >> 0x30\n 21858: u64 [sp + 0x318] = a0\n 21862: u8 [ra + 0x37f] = a0\n 21866: a0 = t0 >> 0x28\n 21869: u64 [sp + 0x310] = a0\n 21873: u8 [ra + 0x37e] = a0\n 21877: a0 = t0 >> 0x20\n 21880: u64 [sp + 0x308] = a0\n 21884: u8 [ra + 0x37d] = a0\n 21888: a0 = t0 >> 0x18\n 21891: u64 [sp + 0x300] = a0\n 21895: u8 [ra + 0x37c] = a0\n 21899: a0 = t0 >> 0x10\n 21902: u64 [sp + 0x2f8] = a0\n 21906: u8 [ra + 0x37b] = a0\n 21910: a0 = t0 >> 0x8\n 21913: u64 [sp + 0x2e8] = a0\n 21917: u8 [ra + 0x37a] = a0\n 21921: a0 = t1 << 0x38\n 21924: a0 = a0 >> 0x3b\n 21927: a5 = sp + 0x7ff\n 21931: a5 = a5 + 0x6c1\n 21935: a5 = a5 - a0\n 21938: a0 = u8 [a5 + 0x19]\n 21941: a1 = u8 [a5 + 0x18]\n 21944: a2 = u8 [a5 + 0x1a]\n 21947: a4 = u8 [a5 + 0x1b]\n 21950: a0 = a0 << 0x8\n 21953: a0 = a0 | a1\n 21956: a2 = a2 << 0x10\n 21959: a4 = a4 << 0x18\n 21962: a2 = a2 | a4\n 21965: a0 = a0 | a2\n 21968: a1 = u8 [a5 + 0x1d]\n 21971: a2 = u8 [a5 + 0x1c]\n 21974: a4 = u8 [a5 + 0x1e]\n 21977: s1 = u8 [a5 + 0x1f]\n 21980: a1 = a1 << 0x8\n 21983: a1 = a1 | a2\n 21986: a4 = a4 << 0x10\n 21989: s1 = s1 << 0x18\n 21992: a4 = a4 | s1\n 21995: a1 = a1 | a4\n 21998: a1 = a1 << 0x20\n 22001: a1 = a1 | a0\n 22004: a0 = u8 [a5 + 0x11]\n 22007: a2 = u8 [a5 + 0x10]\n 22010: a4 = u8 [a5 + 0x12]\n 22013: s1 = u8 [a5 + 0x13]\n 22016: a0 = a0 << 0x8\n 22019: a0 = a0 | a2\n 22022: a4 = a4 << 0x10\n 22025: s1 = s1 << 0x18\n 22028: a4 = a4 | s1\n 22031: a0 = a0 | a4\n 22034: a2 = u8 [a5 + 0x15]\n 22037: a4 = u8 [a5 + 0x14]\n 22040: s1 = u8 [a5 + 0x16]\n 22043: a3 = u8 [a5 + 0x17]\n 22046: a2 = a2 << 0x8\n 22049: a2 = a2 | a4\n 22052: s1 = s1 << 0x10\n 22055: a3 = a3 << 0x18\n 22058: a3 = a3 | s1\n 22061: a2 = a2 | a3\n 22064: a2 = a2 << 0x20\n 22067: t2 = a2 | a0\n 22070: a3 = t1 & 0x7\n 22073: a0 = a1 << a3\n 22076: a2 = t2 >> 0x1\n 22079: t1 = a3 ^ 0x3f\n 22082: a2 = a2 >> t1\n 22085: a0 = a0 | a2\n 22088: u64 [sp + 0x3a0] = a0\n 22092: a0 = u8 [a5 + 0x9]\n 22095: a2 = u8 [a5 + 0x8]\n 22098: a4 = u8 [a5 + 0xa]\n 22101: a1 = u8 [a5 + 0xb]\n 22104: a0 = a0 << 0x8\n 22107: a0 = a0 | a2\n 22110: a4 = a4 << 0x10\n 22113: a1 = a1 << 0x18\n 22116: a1 = a1 | a4\n 22119: a0 = a0 | a1\n 22122: a1 = u8 [a5 + 0xd]\n 22125: a2 = u8 [a5 + 0xc]\n 22128: a4 = u8 [a5 + 0xe]\n 22131: s1 = u8 [a5 + 0xf]\n 22134: a1 = a1 << 0x8\n 22137: a1 = a1 | a2\n 22140: a4 = a4 << 0x10\n 22143: s1 = s1 << 0x18\n 22146: a4 = a4 | s1\n 22149: a1 = a1 | a4\n 22152: a1 = a1 << 0x20\n 22155: a4 = a1 | a0\n 22158: a0 = a4 >> 0x1\n 22161: a1 = a3 ^ 0xffffffffffffffff\n 22164: a0 = a0 >> a1\n 22167: a1 = t2 << a3\n 22170: a0 = a0 | a1\n 22173: u64 [sp + 0x398] = a0\n 22177: a0 = u8 [a5 + 0x1]\n 22180: a1 = u8 [a5]\n 22182: a2 = u8 [a5 + 0x2]\n 22185: s1 = u8 [a5 + 0x3]\n 22188: a0 = a0 << 0x8\n 22191: a0 = a0 | a1\n 22194: a2 = a2 << 0x10\n 22197: s1 = s1 << 0x18\n 22200: a2 = a2 | s1\n 22203: a0 = a0 | a2\n 22206: a1 = u8 [a5 + 0x5]\n 22209: a2 = u8 [a5 + 0x4]\n 22212: s1 = u8 [a5 + 0x6]\n 22215: a5 = u8 [a5 + 0x7]\n 22218: a1 = a1 << 0x8\n 22221: a1 = a1 | a2\n 22224: s1 = s1 << 0x10\n 22227: a5 = a5 << 0x18\n 22230: a5 = a5 | s1\n 22233: a1 = a1 | a5\n 22236: a5 = u64 [sp + 0x370]\n 22240: a1 = a1 << 0x20\n 22243: a0 = a0 | a1\n 22246: a1 = a0 >> 0x1\n 22249: a1 = a1 >> t1\n 22252: s1 = u64 [sp + 0x368]\n 22256: a2 = a4 << a3\n 22259: a4 = u64 [sp + 0x380]\n 22263: a1 = a1 | a2\n 22266: u64 [sp + 0x388] = a1\n 22270: a1 = a4 | a5\n 22273: a2 = u64 [sp + 0x3a8]\n 22277: a2 = a2 | s1\n 22280: a1 = a1 | a2\n 22283: a0 = a0 << a3\n 22286: u64 [sp + 0x390] = a0\n 22290: jump @164 if a1 == 0\n      : @161 (gas: 225)\n 22294: u64 [sp + 888] = 0\n 22298: u64 [sp + 864] = 0\n 22302: a0 = u64 [sp + 0x2c0]\n 22306: u8 [ra + 0x308] = a0\n 22310: a0 = u64 [sp + 0x218]\n 22314: u8 [ra + 0x307] = a0\n 22318: a0 = u64 [sp + 0x210]\n 22322: u8 [ra + 0x306] = a0\n 22326: a0 = u64 [sp + 0x208]\n 22330: u8 [ra + 0x305] = a0\n 22334: a0 = u64 [sp + 0x1d0]\n 22338: u8 [ra + 0x304] = a0\n 22342: a0 = u64 [sp + 0x1c8]\n 22346: u8 [ra + 0x303] = a0\n 22350: a0 = u64 [sp + 0x1c0]\n 22354: u8 [ra + 0x302] = a0\n 22358: a0 = u64 [sp + 0x1b8]\n 22362: u8 [ra + 0x310] = a0\n 22366: a0 = u64 [sp + 0x1b0]\n 22370: u8 [ra + 0x30f] = a0\n 22374: a0 = u64 [sp + 0x1a8]\n 22378: u8 [ra + 0x30e] = a0\n 22382: a0 = u64 [sp + 0x1a0]\n 22386: u8 [ra + 0x30d] = a0\n 22390: a0 = u64 [sp + 0x198]\n 22394: u8 [ra + 0x30c] = a0\n 22398: a0 = u64 [sp + 0x190]\n 22402: u8 [ra + 0x30b] = a0\n 22406: a0 = u64 [sp + 0x188]\n 22410: u8 [ra + 0x30a] = a0\n 22414: a0 = u64 [sp + 0x180]\n 22418: u8 [ra + 0x318] = a0\n 22422: a0 = u64 [sp + 0x178]\n 22426: u8 [ra + 0x317] = a0\n 22430: a0 = u64 [sp + 0x170]\n 22434: u8 [ra + 0x316] = a0\n 22438: a0 = u64 [sp + 0x168]\n 22442: u8 [ra + 0x315] = a0\n 22446: a0 = u64 [sp + 0x160]\n 22450: u8 [ra + 0x314] = a0\n 22454: u8 [ra + 832] = 0\n 22458: u8 [ra + 831] = 0\n 22462: u8 [ra + 830] = 0\n 22466: u8 [ra + 829] = 0\n 22470: u8 [ra + 828] = 0\n 22474: u8 [ra + 827] = 0\n 22478: u8 [ra + 826] = 0\n 22482: u8 [ra + 825] = 0\n 22486: u8 [ra + 824] = 0\n 22490: u8 [ra + 823] = 0\n 22494: u8 [ra + 822] = 0\n 22498: u8 [ra + 821] = 0\n 22502: u8 [ra + 820] = 0\n 22506: u8 [ra + 819] = 0\n 22510: u8 [ra + 818] = 0\n 22514: u8 [ra + 817] = 0\n 22518: u8 [ra + 816] = 0\n 22522: u8 [ra + 815] = 0\n 22526: u8 [ra + 814] = 0\n 22530: u8 [ra + 813] = 0\n 22534: u8 [ra + 812] = 0\n 22538: u8 [ra + 811] = 0\n 22542: u8 [ra + 810] = 0\n 22546: u8 [ra + 809] = 0\n 22550: u8 [ra + 808] = 0\n 22554: u8 [ra + 807] = 0\n 22558: u8 [ra + 806] = 0\n 22562: u8 [ra + 805] = 0\n 22566: u8 [ra + 804] = 0\n 22570: u8 [ra + 803] = 0\n 22574: u8 [ra + 802] = 0\n 22578: u8 [ra + 801] = 0\n 22582: a0 = u64 [sp + 0x260]\n 22586: u8 [ra + 0x301] = a0\n 22590: a0 = u64 [sp + 0x268]\n 22594: u8 [ra + 0x309] = a0\n 22598: a0 = u64 [sp + 0x2f0]\n 22602: u8 [ra + 0x311] = a0\n 22606: u8 [ra + 0x319] = t0\n 22610: a0 = u64 [sp + 0x358]\n 22614: u8 [ra + 0x313] = a0\n 22618: a0 = u64 [sp + 0x350]\n 22622: u8 [ra + 0x312] = a0\n 22626: a0 = u64 [sp + 0x348]\n 22630: u8 [ra + 0x320] = a0\n 22634: a0 = u64 [sp + 0x318]\n 22638: u8 [ra + 0x31f] = a0\n 22642: a0 = u64 [sp + 0x310]\n 22646: u8 [ra + 0x31e] = a0\n 22650: a0 = u64 [sp + 0x308]\n 22654: u8 [ra + 0x31d] = a0\n 22658: a0 = u64 [sp + 0x300]\n 22662: u8 [ra + 0x31c] = a0\n 22666: a0 = u64 [sp + 0x2f8]\n 22670: u8 [ra + 0x31b] = a0\n 22674: a0 = u64 [sp + 0x2e8]\n 22678: u8 [ra + 0x31a] = a0\n 22682: s1 = u64 [sp + 0x3a8]\n 22686: a0 = s1 << 0x38\n 22689: a0 = a0 >> 0x3b\n 22692: a1 = sp + 0x7ff\n 22696: a1 = a1 + 0x661\n 22700: a1 = a1 + a0\n 22703: a0 = u8 [a1 + 0x11]\n 22706: a2 = u8 [a1 + 0x10]\n 22709: a3 = u8 [a1 + 0x12]\n 22712: a4 = u8 [a1 + 0x13]\n 22715: a0 = a0 << 0x8\n 22718: a0 = a0 | a2\n 22721: a3 = a3 << 0x10\n 22724: a4 = a4 << 0x18\n 22727: a3 = a3 | a4\n 22730: a0 = a0 | a3\n 22733: a2 = u8 [a1 + 0x15]\n 22736: a3 = u8 [a1 + 0x14]\n 22739: a4 = u8 [a1 + 0x16]\n 22742: a5 = u8 [a1 + 0x17]\n 22745: a2 = a2 << 0x8\n 22748: a2 = a2 | a3\n 22751: a4 = a4 << 0x10\n 22754: a5 = a5 << 0x18\n 22757: a4 = a4 | a5\n 22760: a2 = a2 | a4\n 22763: a2 = a2 << 0x20\n 22766: t1 = a2 | a0\n 22769: a3 = s1 & 0x7\n 22772: t2 = t1 >> a3\n 22775: a0 = u8 [a1 + 0x19]\n 22778: a4 = u8 [a1 + 0x18]\n 22781: s1 = u8 [a1 + 0x1a]\n 22784: a5 = u8 [a1 + 0x1b]\n 22787: a0 = a0 << 0x8\n 22790: a0 = a0 | a4\n 22793: s1 = s1 << 0x10\n 22796: a5 = a5 << 0x18\n 22799: a5 = a5 | s1\n 22802: a0 = a0 | a5\n 22805: a4 = u8 [a1 + 0x1d]\n 22808: a5 = u8 [a1 + 0x1c]\n 22811: s1 = u8 [a1 + 0x1e]\n 22814: a2 = u8 [a1 + 0x1f]\n 22817: a4 = a4 << 0x8\n 22820: a4 = a4 | a5\n 22823: s1 = s1 << 0x10\n 22826: a2 = a2 << 0x18\n 22829: a2 = a2 | s1\n 22832: a2 = a2 | a4\n 22835: a2 = a2 << 0x20\n 22838: t0 = a2 | a0\n 22841: a0 = t0 << 0x1\n 22844: ra = a3 ^ 0x3f\n 22847: a0 = a0 << ra\n 22850: a0 = t2 | a0\n 22853: u64 [sp + 0x358] = a0\n 22857: a0 = u8 [a1 + 0x9]\n 22860: a2 = u8 [a1 + 0x8]\n 22863: a4 = u8 [a1 + 0xa]\n 22866: a5 = u8 [a1 + 0xb]\n 22869: a0 = a0 << 0x8\n 22872: a0 = a0 | a2\n 22875: a4 = a4 << 0x10\n 22878: a5 = a5 << 0x18\n 22881: a4 = a4 | a5\n 22884: a0 = a0 | a4\n 22887: a2 = u8 [a1 + 0xd]\n 22890: a4 = u8 [a1 + 0xc]\n 22893: a5 = u8 [a1 + 0xe]\n 22896: s1 = u8 [a1 + 0xf]\n 22899: a2 = a2 << 0x8\n 22902: a2 = a2 | a4\n 22905: a5 = a5 << 0x10\n 22908: s1 = s1 << 0x18\n 22911: a5 = a5 | s1\n 22914: a2 = a2 | a5\n 22917: a2 = a2 << 0x20\n 22920: a2 = a2 | a0\n 22923: a0 = a2 >> a3\n 22926: t1 = t1 << 0x1\n 22929: a4 = a3 ^ 0xffffffffffffffff\n 22932: a4 = t1 << a4\n 22935: t1 = a0 | a4\n 22938: a0 = u8 [a1 + 0x1]\n 22941: a4 = u8 [a1]\n 22943: a5 = u8 [a1 + 0x2]\n 22946: s1 = u8 [a1 + 0x3]\n 22949: a0 = a0 << 0x8\n 22952: a0 = a0 | a4\n 22955: a5 = a5 << 0x10\n 22958: s1 = s1 << 0x18\n 22961: a5 = a5 | s1\n 22964: a0 = a0 | a5\n 22967: a4 = u8 [a1 + 0x5]\n 22970: a5 = u8 [a1 + 0x4]\n 22973: s1 = u8 [a1 + 0x6]\n 22976: a1 = u8 [a1 + 0x7]\n 22979: a4 = a4 << 0x8\n 22982: a4 = a4 | a5\n 22985: s1 = s1 << 0x10\n 22988: a1 = a1 << 0x18\n 22991: a1 = a1 | s1\n 22994: a1 = a1 | a4\n 22997: a1 = a1 << 0x20\n 23000: a0 = a0 | a1\n 23003: a0 = a0 >> a3\n 23006: a2 = a2 << 0x1\n 23009: s1 = a2 << ra\n 23012: t2 = a0 | s1\n 23015: a4 = t0 >> a3\n 23018: a1 = u64 [sp + 0x3c0]\n 23022: a0 = a1 <u 0x1\n 23025: a2 = u64 [sp + 0x3d0]\n 23029: a0 = a2 - a0\n 23032: u64 [sp + 0x318] = a0\n 23036: a0 = a1 | a2\n 23039: a0 = a0 <u 0x1\n 23042: a2 = u64 [sp + 0x3c8]\n 23046: a3 = a2 - a0\n 23049: u64 [sp + 0x310] = a3\n 23053: a0 = a2 <u a0\n 23056: a2 = u64 [sp + 0x3d8]\n 23060: a2 = a2 - a0\n 23063: u64 [sp + 0x308] = a2\n 23067: a1 = a1 + 0xffffffffffffffff\n 23070: u64 [sp + 0x300] = a1\n 23074: fallthrough\n      : @162 (gas: 103)\n 23075: u64 [sp + 840] = 0\n 23079: a2 = t2 >> 0x3f\n 23082: a5 = t1 << 0x1\n 23085: t0 = a5 | a2\n 23088: s1 = t2 << 0x1\n 23091: a1 = u64 [sp + 0x3a0]\n 23095: a2 = a1 >> 0x3f\n 23098: ra = s1 | a2\n 23101: a0 = u64 [sp + 0x318]\n 23105: a5 = a0 ^ t0\n 23108: t2 = a0 <u t0\n 23111: a0 = u64 [sp + 0x300]\n 23115: a2 = a0 <u ra\n 23118: a2 = t2 if a5 != 0\n 23121: a3 = a4 << 0x1\n 23124: a4 = u64 [sp + 0x358]\n 23128: a5 = a4 >> 0x3f\n 23131: t2 = a3 | a5\n 23134: u64 [sp + 0x350] = t2\n 23138: a5 = t1 >> 0x3f\n 23141: a4 = a4 << 0x1\n 23144: a5 = a5 | a4\n 23147: a4 = a1 << 0x1\n 23150: a1 = u64 [sp + 0x398]\n 23154: a0 = a1 >> 0x3f\n 23157: a0 = a0 | a4\n 23160: a4 = a1 << 0x1\n 23163: s1 = u64 [sp + 0x388]\n 23167: a1 = s1 >> 0x3f\n 23170: a1 = a1 | a4\n 23173: s1 = s1 << 0x1\n 23176: a4 = u64 [sp + 0x390]\n 23180: a3 = a4 >> 0x3f\n 23183: a3 = a3 | s1\n 23186: a4 = a4 << 0x1\n 23189: s1 = u64 [sp + 0x378]\n 23193: a4 = a4 | s1\n 23196: u64 [sp + 0x390] = a4\n 23200: a4 = u64 [sp + 0x360]\n 23204: a3 = a3 | a4\n 23207: u64 [sp + 0x388] = a3\n 23211: a1 = a1 | a4\n 23214: u64 [sp + 0x398] = a1\n 23218: a0 = a0 | a4\n 23221: u64 [sp + 0x3a0] = a0\n 23225: a1 = u64 [sp + 0x310]\n 23229: a0 = a1 - a5\n 23232: a0 = a0 <u a2\n 23235: a1 = a1 <u a5\n 23238: a2 = u64 [sp + 0x308]\n 23242: a2 = a2 - t2\n 23245: a2 = a2 - a1\n 23248: a2 = a2 - a0\n 23251: a2 = a2 >>a 0x3f\n 23254: a0 = u64 [sp + 0x3c0]\n 23258: a0 = a0 & a2\n 23261: a1 = u64 [sp + 0x3d0]\n 23265: a1 = a1 & a2\n 23268: t1 = t0 ^ a1\n 23271: a4 = t0 <u a1\n 23274: a3 = ra <u a0\n 23277: t2 = ra\n 23279: a4 = a3 if t1 == 0\n 23282: s1 = u64 [sp + 0x3c8]\n 23286: t1 = a2 & s1\n 23289: ra = a5 - t1\n 23292: s1 = ra - a4\n 23295: u64 [sp + 0x358] = s1\n 23299: ra = ra <u a4\n 23302: a5 = a5 <u t1\n 23305: s1 = u64 [sp + 0x3d8]\n 23309: s1 = s1 & a2\n 23312: a4 = u64 [sp + 0x350]\n 23316: s1 = a4 - s1\n 23319: s1 = s1 - a5\n 23322: s1 = s1 - ra\n 23325: a1 = t0 - a1\n 23328: t1 = a1 - a3\n 23331: t2 = t2 - a0\n 23334: a5 = u64 [sp + 0x3a8]\n 23338: a4 = u64 [sp + 0x380]\n 23342: a0 = a5 | a4\n 23345: a0 = a0 <u 0x1\n 23348: a3 = u64 [sp + 0x368]\n 23352: a1 = a3 <u a0\n 23355: a0 = a3 - a0\n 23358: a3 = a5 <u 0x1\n 23361: a4 = a4 - a3\n 23364: a3 = u64 [sp + 0x370]\n 23368: a3 = a3 - a1\n 23371: a5 = a5 + 0xffffffffffffffff\n 23374: u64 [sp + 0x380] = a4\n 23378: u64 [sp + 0x370] = a3\n 23382: a1 = a4 | a3\n 23385: a4 = s1\n 23387: u64 [sp + 0x3a8] = a5\n 23391: a3 = a5 | a0\n 23394: a1 = a1 | a3\n 23397: a2 = a2 & 0x1\n 23400: u64 [sp + 0x378] = a2\n 23404: u64 [sp + 0x368] = a0\n 23408: u64 [sp + 864] = 0\n 23412: jump @162 if a1 != 0\n      : @163 (gas: 1)\n 23416: jump @165\n      : @164 (gas: 3)\n 23418: u64 [sp + 888] = 0\n 23422: u64 [sp + 840] = 0\n 23426: fallthrough\n      : @165 (gas: 22)\n 23427: a3 = u64 [sp + 0x398]\n 23431: a0 = a3 >> 0x3f\n 23434: a2 = u64 [sp + 0x3a0]\n 23438: a2 = a2 << 0x1\n 23441: a0 = a0 | a2\n 23444: a4 = u64 [sp + 0x388]\n 23448: a2 = a4 >> 0x3f\n 23451: a3 = a3 << 0x1\n 23454: a2 = a2 | a3\n 23457: a5 = u64 [sp + 0x390]\n 23461: a3 = a5 >> 0x3f\n 23464: a4 = a4 << 0x1\n 23467: a5 = a5 << 0x1\n 23470: a1 = u64 [sp + 0x378]\n 23474: t1 = a1 | a5\n 23477: a1 = u64 [sp + 0x348]\n 23481: a3 = a3 | a1\n 23484: t0 = a3 | a4\n 23487: ra = a1 | a2\n 23490: a4 = a1 | a0\n 23493: t2 = u64 [sp + 0x330]\n 23497: jump @167\n      : @166 (gas: 2)\n 23499: t2 = u64 [sp + 0x330]\n 23503: fallthrough\n      : @167 (gas: 65)\n 23504: u64 [sp + 0x2c0] = t1\n 23508: u64 [sp + 0x208] = a4\n 23512: u64 [sp + 0x210] = t0\n 23516: u64 [sp + 0x218] = ra\n 23520: a0 = u64 [sp + 0x248]\n 23524: ra = reverse a0\n 23526: a0 = u64 [sp + 0x250]\n 23530: s1 = reverse a0\n 23532: a0 = u64 [sp + 0x258]\n 23536: t0 = reverse a0\n 23538: a0 = u64 [sp + 0x220]\n 23542: a2 = reverse a0\n 23544: u64 [sp + 0x2e8] = a2\n 23548: a0 = clz s1\n 23550: a1 = a0 + 0x40\n 23553: a0 = clz ra\n 23555: a0 = a1 if ra == 0\n 23558: a1 = clz a2\n 23560: a1 = a1 + 0x40\n 23563: a2 = clz t0\n 23565: a2 = a1 if t0 == 0\n 23568: a1 = a2 + 0x80\n 23572: a3 = s1 | ra\n 23575: a0 = a1 if a3 == 0\n 23578: a2 = a1 <u a2\n 23581: a2 = 0 if a3 != 0\n 23583: a1 = t2 ^ a2\n 23586: a3 = t2 <u a2\n 23589: t1 = u64 [sp + 0x328]\n 23593: a4 = t1 <u a0\n 23596: a3 = a4 if a1 == 0\n 23599: a1 = a3 <u 0x1\n 23602: a1 = a1 + 0xffffffffffffffff\n 23605: a5 = -a3\n 23607: a2 = t2 - a2\n 23610: a4 = a2 - a4\n 23613: t1 = t1 - a0\n 23616: u64 [sp + 0x3a0] = a5\n 23620: a0 = a5 >u 0\n 23622: a2 = a1 >u 0\n 23624: a5 = a1\n 23626: a2 = a0 if a1 == 0\n 23629: a1 = a4\n 23631: a0 = t1 <u 0x100\n 23635: a0 = a0 ^ 0x1\n 23638: a4 = a4 >u 0\n 23640: a0 = a4 if a1 != 0\n 23643: a0 = a2 if a3 != 0\n 23646: t2 = u64 [sp + 0x2e8]\n 23650: a2 = t2 | s1\n 23653: a3 = t0 | ra\n 23656: a2 = a2 | a3\n 23659: a2 = a2 <u 0x1\n 23662: a3 = u64 [sp + 0x320]\n 23666: a2 = a2 | a3\n 23669: a0 = a0 | a2\n 23672: u64 [sp + 0x248] = ra\n 23676: u64 [sp + 0x250] = s1\n 23680: u64 [sp + 0x258] = t0\n 23684: ra = 0 if a0 != 0\n 23686: u64 [sp + 0x398] = ra\n 23690: s1 = 0 if a0 != 0\n 23692: t0 = 0 if a0 != 0\n 23694: t2 = 0 if a0 != 0\n 23696: jump @175 if a0 != 0\n      : @168 (gas: 7)\n 23700: a0 = t1 ^ 0xff\n 23704: a3 = u64 [sp + 0x3a0]\n 23708: a0 = a0 | a3\n 23711: a4 = a1 | a5\n 23714: a0 = a0 | a4\n 23717: a2 = u64 [sp + 0x2c0]\n 23721: jump @176 if a0 == 0\n      : @169 (gas: 260)\n 23725: a2 = t1 + 0x1\n 23728: u64 [sp + 0x3a8] = a2\n 23732: a0 = a2 <u 0x1\n 23735: a0 = a0 + a1\n 23738: u64 [sp + 0x380] = a0\n 23742: a0 = a0 | a2\n 23745: a0 = a0 <u 0x1\n 23748: a0 = a0 + a3\n 23751: u64 [sp + 0x370] = a0\n 23755: a0 = a0 <u a3\n 23758: a0 = a0 + a5\n 23761: u64 [sp + 0x378] = a0\n 23765: t0 = 0xff - t1\n 23769: t2 = sp + 0x7ff\n 23773: t2 = t2 + 0x360\n 23777: a0 = u64 [sp + 0x2e8]\n 23781: u8 [t2 + 0x2e1] = a0\n 23785: u8 [t2 + 736] = 0\n 23789: u8 [t2 + 735] = 0\n 23793: u8 [t2 + 734] = 0\n 23797: u8 [t2 + 733] = 0\n 23801: u8 [t2 + 732] = 0\n 23805: u8 [t2 + 731] = 0\n 23809: u8 [t2 + 730] = 0\n 23813: u8 [t2 + 729] = 0\n 23817: u8 [t2 + 728] = 0\n 23821: u8 [t2 + 727] = 0\n 23825: u8 [t2 + 726] = 0\n 23829: u8 [t2 + 725] = 0\n 23833: u8 [t2 + 724] = 0\n 23837: u8 [t2 + 723] = 0\n 23841: u8 [t2 + 722] = 0\n 23845: u8 [t2 + 721] = 0\n 23849: u8 [t2 + 720] = 0\n 23853: u8 [t2 + 719] = 0\n 23857: u8 [t2 + 718] = 0\n 23861: u8 [t2 + 717] = 0\n 23865: u8 [t2 + 716] = 0\n 23869: u8 [t2 + 715] = 0\n 23873: u8 [t2 + 714] = 0\n 23877: u8 [t2 + 713] = 0\n 23881: u8 [t2 + 712] = 0\n 23885: u8 [t2 + 711] = 0\n 23889: u8 [t2 + 710] = 0\n 23893: u8 [t2 + 709] = 0\n 23897: u8 [t2 + 708] = 0\n 23901: u8 [t2 + 707] = 0\n 23905: u8 [t2 + 706] = 0\n 23909: u8 [t2 + 705] = 0\n 23913: a1 = u64 [sp + 0x258]\n 23917: u8 [t2 + 0x2e9] = a1\n 23921: a2 = a0 >> 0x38\n 23924: u64 [sp + 0x1d0] = a2\n 23928: u8 [t2 + 0x2e8] = a2\n 23932: a2 = a0 >> 0x30\n 23935: u64 [sp + 0x1c8] = a2\n 23939: u8 [t2 + 0x2e7] = a2\n 23943: a2 = a0 >> 0x28\n 23946: u64 [sp + 0x1c0] = a2\n 23950: u8 [t2 + 0x2e6] = a2\n 23954: a2 = a0 >> 0x20\n 23957: u64 [sp + 0x1b8] = a2\n 23961: u8 [t2 + 0x2e5] = a2\n 23965: a2 = a0 >> 0x18\n 23968: u64 [sp + 0x1b0] = a2\n 23972: u8 [t2 + 0x2e4] = a2\n 23976: a2 = a0 >> 0x10\n 23979: u64 [sp + 0x1a8] = a2\n 23983: u8 [t2 + 0x2e3] = a2\n 23987: a0 = a0 >> 0x8\n 23990: u64 [sp + 0x1a0] = a0\n 23994: u8 [t2 + 0x2e2] = a0\n 23998: a0 = u64 [sp + 0x250]\n 24002: u8 [t2 + 0x2f1] = a0\n 24006: a2 = a1 >> 0x38\n 24009: u64 [sp + 0x198] = a2\n 24013: u8 [t2 + 0x2f0] = a2\n 24017: a2 = a1 >> 0x30\n 24020: u64 [sp + 0x190] = a2\n 24024: u8 [t2 + 0x2ef] = a2\n 24028: a2 = a1 >> 0x28\n 24031: u64 [sp + 0x188] = a2\n 24035: u8 [t2 + 0x2ee] = a2\n 24039: a2 = a1 >> 0x20\n 24042: u64 [sp + 0x180] = a2\n 24046: u8 [t2 + 0x2ed] = a2\n 24050: a2 = a1 >> 0x18\n 24053: u64 [sp + 0x178] = a2\n 24057: u8 [t2 + 0x2ec] = a2\n 24061: a2 = a1 >> 0x10\n 24064: u64 [sp + 0x170] = a2\n 24068: u8 [t2 + 0x2eb] = a2\n 24072: a1 = a1 >> 0x8\n 24075: u64 [sp + 0x168] = a1\n 24079: u8 [t2 + 0x2ea] = a1\n 24083: ra = u64 [sp + 0x248]\n 24087: u8 [t2 + 0x2f9] = ra\n 24091: a1 = a0 >> 0x38\n 24094: u64 [sp + 0x160] = a1\n 24098: u8 [t2 + 0x2f8] = a1\n 24102: a1 = a0 >> 0x30\n 24105: u64 [sp + 0x158] = a1\n 24109: u8 [t2 + 0x2f7] = a1\n 24113: a1 = a0 >> 0x28\n 24116: u64 [sp + 0x150] = a1\n 24120: u8 [t2 + 0x2f6] = a1\n 24124: a1 = a0 >> 0x20\n 24127: u64 [sp + 0x148] = a1\n 24131: u8 [t2 + 0x2f5] = a1\n 24135: a1 = a0 >> 0x18\n 24138: u64 [sp + 0x140] = a1\n 24142: u8 [t2 + 0x2f4] = a1\n 24146: a1 = a0 >> 0x10\n 24149: u64 [sp + 0x358] = a1\n 24153: u8 [t2 + 0x2f3] = a1\n 24157: a0 = a0 >> 0x8\n 24160: u64 [sp + 0x350] = a0\n 24164: u8 [t2 + 0x2f2] = a0\n 24168: a0 = ra >> 0x38\n 24171: u64 [sp + 0x348] = a0\n 24175: u8 [t2 + 0x300] = a0\n 24179: a0 = ra >> 0x30\n 24182: u64 [sp + 0x318] = a0\n 24186: u8 [t2 + 0x2ff] = a0\n 24190: a0 = ra >> 0x28\n 24193: u64 [sp + 0x310] = a0\n 24197: u8 [t2 + 0x2fe] = a0\n 24201: a0 = ra >> 0x20\n 24204: u64 [sp + 0x308] = a0\n 24208: u8 [t2 + 0x2fd] = a0\n 24212: a0 = ra >> 0x18\n 24215: u64 [sp + 0x300] = a0\n 24219: u8 [t2 + 0x2fc] = a0\n 24223: a0 = ra >> 0x10\n 24226: u64 [sp + 0x2f8] = a0\n 24230: u8 [t2 + 0x2fb] = a0\n 24234: a0 = ra >> 0x8\n 24237: u64 [sp + 0x220] = a0\n 24241: u8 [t2 + 0x2fa] = a0\n 24245: a1 = t0 << 0x38\n 24248: a1 = a1 >> 0x3b\n 24251: a2 = sp + 0x7ff\n 24255: a2 = a2 + 0x641\n 24259: a2 = a2 - a1\n 24262: a1 = u8 [a2 + 0x19]\n 24265: a3 = u8 [a2 + 0x18]\n 24268: a4 = u8 [a2 + 0x1a]\n 24271: a5 = u8 [a2 + 0x1b]\n 24274: a1 = a1 << 0x8\n 24277: a1 = a1 | a3\n 24280: a4 = a4 << 0x10\n 24283: a5 = a5 << 0x18\n 24286: a4 = a4 | a5\n 24289: a1 = a1 | a4\n 24292: a3 = u8 [a2 + 0x1d]\n 24295: a4 = u8 [a2 + 0x1c]\n 24298: a5 = u8 [a2 + 0x1e]\n 24301: s1 = u8 [a2 + 0x1f]\n 24304: a3 = a3 << 0x8\n 24307: a3 = a3 | a4\n 24310: a5 = a5 << 0x10\n 24313: s1 = s1 << 0x18\n 24316: a5 = a5 | s1\n 24319: a3 = a3 | a5\n 24322: a3 = a3 << 0x20\n 24325: a1 = a1 | a3\n 24328: a3 = u8 [a2 + 0x11]\n 24331: a4 = u8 [a2 + 0x10]\n 24334: a5 = u8 [a2 + 0x12]\n 24337: s1 = u8 [a2 + 0x13]\n 24340: a3 = a3 << 0x8\n 24343: a3 = a3 | a4\n 24346: a5 = a5 << 0x10\n 24349: s1 = s1 << 0x18\n 24352: a5 = a5 | s1\n 24355: a3 = a3 | a5\n 24358: a4 = u8 [a2 + 0x15]\n 24361: a5 = u8 [a2 + 0x14]\n 24364: s1 = u8 [a2 + 0x16]\n 24367: a0 = u8 [a2 + 0x17]\n 24370: a4 = a4 << 0x8\n 24373: a4 = a4 | a5\n 24376: s1 = s1 << 0x10\n 24379: a0 = a0 << 0x18\n 24382: a0 = a0 | s1\n 24385: a0 = a0 | a4\n 24388: a0 = a0 << 0x20\n 24391: t1 = a0 | a3\n 24394: a0 = t0 & 0x7\n 24397: a4 = a1 << a0\n 24400: a5 = t1 >> 0x1\n 24403: t0 = a0 ^ 0x3f\n 24406: a5 = a5 >> t0\n 24409: a4 = a4 | a5\n 24412: u64 [sp + 0x3a0] = a4\n 24416: a4 = u8 [a2 + 0x9]\n 24419: a5 = u8 [a2 + 0x8]\n 24422: s1 = u8 [a2 + 0xa]\n 24425: a1 = u8 [a2 + 0xb]\n 24428: a4 = a4 << 0x8\n 24431: a4 = a4 | a5\n 24434: s1 = s1 << 0x10\n 24437: a1 = a1 << 0x18\n 24440: a1 = a1 | s1\n 24443: a1 = a1 | a4\n 24446: a4 = u8 [a2 + 0xd]\n 24449: a5 = u8 [a2 + 0xc]\n 24452: s1 = u8 [a2 + 0xe]\n 24455: a3 = u8 [a2 + 0xf]\n 24458: a4 = a4 << 0x8\n 24461: a4 = a4 | a5\n 24464: s1 = s1 << 0x10\n 24467: a3 = a3 << 0x18\n 24470: a3 = a3 | s1\n 24473: a3 = a3 | a4\n 24476: a3 = a3 << 0x20\n 24479: a4 = a3 | a1\n 24482: a1 = a4 >> 0x1\n 24485: a3 = a0 ^ 0xffffffffffffffff\n 24488: a1 = a1 >> a3\n 24491: a3 = t1 << a0\n 24494: a1 = a1 | a3\n 24497: u64 [sp + 0x398] = a1\n 24501: a1 = u8 [a2 + 0x1]\n 24504: a3 = u8 [a2]\n 24506: a5 = u8 [a2 + 0x2]\n 24509: s1 = u8 [a2 + 0x3]\n 24512: a1 = a1 << 0x8\n 24515: a1 = a1 | a3\n 24518: a5 = a5 << 0x10\n 24521: s1 = s1 << 0x18\n 24524: a5 = a5 | s1\n 24527: a1 = a1 | a5\n 24530: a3 = u8 [a2 + 0x5]\n 24533: a5 = u8 [a2 + 0x4]\n 24536: s1 = u8 [a2 + 0x6]\n 24539: a2 = u8 [a2 + 0x7]\n 24542: a3 = a3 << 0x8\n 24545: a3 = a3 | a5\n 24548: a5 = u64 [sp + 0x378]\n 24552: s1 = s1 << 0x10\n 24555: a2 = a2 << 0x18\n 24558: a2 = a2 | s1\n 24561: a2 = a2 | a3\n 24564: a2 = a2 << 0x20\n 24567: a1 = a1 | a2\n 24570: a2 = a1 >> 0x1\n 24573: a2 = a2 >> t0\n 24576: s1 = u64 [sp + 0x370]\n 24580: a3 = a4 << a0\n 24583: a4 = u64 [sp + 0x380]\n 24587: a2 = a2 | a3\n 24590: u64 [sp + 0x388] = a2\n 24594: a2 = a4 | a5\n 24597: a3 = u64 [sp + 0x3a8]\n 24601: a3 = a3 | s1\n 24604: a2 = a2 | a3\n 24607: a0 = a1 << a0\n 24610: u64 [sp + 0x390] = a0\n 24614: jump @173 if a2 == 0\n      : @170 (gas: 229)\n 24618: u64 [sp + 872] = 0\n 24622: u64 [sp + 864] = 0\n 24626: a0 = u64 [sp + 0x1d0]\n 24630: u8 [t2 + 0x288] = a0\n 24634: a0 = u64 [sp + 0x1c8]\n 24638: u8 [t2 + 0x287] = a0\n 24642: a0 = u64 [sp + 0x1c0]\n 24646: u8 [t2 + 0x286] = a0\n 24650: a0 = u64 [sp + 0x1b8]\n 24654: u8 [t2 + 0x285] = a0\n 24658: a0 = u64 [sp + 0x1b0]\n 24662: u8 [t2 + 0x284] = a0\n 24666: a0 = u64 [sp + 0x1a8]\n 24670: u8 [t2 + 0x283] = a0\n 24674: a0 = u64 [sp + 0x1a0]\n 24678: u8 [t2 + 0x282] = a0\n 24682: a0 = u64 [sp + 0x198]\n 24686: u8 [t2 + 0x290] = a0\n 24690: a0 = u64 [sp + 0x190]\n 24694: u8 [t2 + 0x28f] = a0\n 24698: a0 = u64 [sp + 0x188]\n 24702: u8 [t2 + 0x28e] = a0\n 24706: a0 = u64 [sp + 0x180]\n 24710: u8 [t2 + 0x28d] = a0\n 24714: a0 = u64 [sp + 0x178]\n 24718: u8 [t2 + 0x28c] = a0\n 24722: a0 = u64 [sp + 0x170]\n 24726: u8 [t2 + 0x28b] = a0\n 24730: a0 = u64 [sp + 0x168]\n 24734: u8 [t2 + 0x28a] = a0\n 24738: a0 = u64 [sp + 0x160]\n 24742: u8 [t2 + 0x298] = a0\n 24746: a0 = u64 [sp + 0x158]\n 24750: u8 [t2 + 0x297] = a0\n 24754: a0 = u64 [sp + 0x150]\n 24758: u8 [t2 + 0x296] = a0\n 24762: a0 = u64 [sp + 0x148]\n 24766: u8 [t2 + 0x295] = a0\n 24770: a0 = u64 [sp + 0x140]\n 24774: u8 [t2 + 0x294] = a0\n 24778: u8 [t2 + 704] = 0\n 24782: u8 [t2 + 703] = 0\n 24786: u8 [t2 + 702] = 0\n 24790: u8 [t2 + 701] = 0\n 24794: u8 [t2 + 700] = 0\n 24798: u8 [t2 + 699] = 0\n 24802: u8 [t2 + 698] = 0\n 24806: u8 [t2 + 697] = 0\n 24810: u8 [t2 + 696] = 0\n 24814: u8 [t2 + 695] = 0\n 24818: u8 [t2 + 694] = 0\n 24822: u8 [t2 + 693] = 0\n 24826: u8 [t2 + 692] = 0\n 24830: u8 [t2 + 691] = 0\n 24834: u8 [t2 + 690] = 0\n 24838: u8 [t2 + 689] = 0\n 24842: u8 [t2 + 688] = 0\n 24846: u8 [t2 + 687] = 0\n 24850: u8 [t2 + 686] = 0\n 24854: u8 [t2 + 685] = 0\n 24858: u8 [t2 + 684] = 0\n 24862: u8 [t2 + 683] = 0\n 24866: u8 [t2 + 682] = 0\n 24870: u8 [t2 + 681] = 0\n 24874: u8 [t2 + 680] = 0\n 24878: u8 [t2 + 679] = 0\n 24882: u8 [t2 + 678] = 0\n 24886: u8 [t2 + 677] = 0\n 24890: u8 [t2 + 676] = 0\n 24894: u8 [t2 + 675] = 0\n 24898: u8 [t2 + 674] = 0\n 24902: u8 [t2 + 673] = 0\n 24906: a0 = u64 [sp + 0x2e8]\n 24910: u8 [t2 + 0x281] = a0\n 24914: a0 = u64 [sp + 0x258]\n 24918: u8 [t2 + 0x289] = a0\n 24922: a0 = u64 [sp + 0x250]\n 24926: u8 [t2 + 0x291] = a0\n 24930: u8 [t2 + 0x299] = ra\n 24934: a0 = u64 [sp + 0x358]\n 24938: u8 [t2 + 0x293] = a0\n 24942: a0 = u64 [sp + 0x350]\n 24946: u8 [t2 + 0x292] = a0\n 24950: a0 = u64 [sp + 0x348]\n 24954: u8 [t2 + 0x2a0] = a0\n 24958: a0 = u64 [sp + 0x318]\n 24962: u8 [t2 + 0x29f] = a0\n 24966: a0 = u64 [sp + 0x310]\n 24970: u8 [t2 + 0x29e] = a0\n 24974: a0 = u64 [sp + 0x308]\n 24978: u8 [t2 + 0x29d] = a0\n 24982: a0 = u64 [sp + 0x300]\n 24986: u8 [t2 + 0x29c] = a0\n 24990: a0 = u64 [sp + 0x2f8]\n 24994: u8 [t2 + 0x29b] = a0\n 24998: a0 = u64 [sp + 0x220]\n 25002: u8 [t2 + 0x29a] = a0\n 25006: s1 = u64 [sp + 0x3a8]\n 25010: a0 = s1 << 0x38\n 25013: a0 = a0 >> 0x3b\n 25016: a1 = sp + 0x7ff\n 25020: a1 = a1 + 0x5e1\n 25024: a1 = a1 + a0\n 25027: a0 = u8 [a1 + 0x11]\n 25030: a2 = u8 [a1 + 0x10]\n 25033: a3 = u8 [a1 + 0x12]\n 25036: a4 = u8 [a1 + 0x13]\n 25039: a0 = a0 << 0x8\n 25042: a0 = a0 | a2\n 25045: a3 = a3 << 0x10\n 25048: a4 = a4 << 0x18\n 25051: a3 = a3 | a4\n 25054: a0 = a0 | a3\n 25057: a2 = u8 [a1 + 0x15]\n 25060: a3 = u8 [a1 + 0x14]\n 25063: a4 = u8 [a1 + 0x16]\n 25066: a5 = u8 [a1 + 0x17]\n 25069: a2 = a2 << 0x8\n 25072: a2 = a2 | a3\n 25075: a4 = a4 << 0x10\n 25078: a5 = a5 << 0x18\n 25081: a4 = a4 | a5\n 25084: a2 = a2 | a4\n 25087: a2 = a2 << 0x20\n 25090: t0 = a2 | a0\n 25093: a2 = s1 & 0x7\n 25096: t1 = t0 >> a2\n 25099: a0 = u8 [a1 + 0x19]\n 25102: a4 = u8 [a1 + 0x18]\n 25105: s1 = u8 [a1 + 0x1a]\n 25108: a5 = u8 [a1 + 0x1b]\n 25111: a0 = a0 << 0x8\n 25114: a0 = a0 | a4\n 25117: s1 = s1 << 0x10\n 25120: a5 = a5 << 0x18\n 25123: a5 = a5 | s1\n 25126: a0 = a0 | a5\n 25129: a4 = u8 [a1 + 0x1d]\n 25132: a5 = u8 [a1 + 0x1c]\n 25135: s1 = u8 [a1 + 0x1e]\n 25138: a3 = u8 [a1 + 0x1f]\n 25141: a4 = a4 << 0x8\n 25144: a4 = a4 | a5\n 25147: s1 = s1 << 0x10\n 25150: a3 = a3 << 0x18\n 25153: a3 = a3 | s1\n 25156: a3 = a3 | a4\n 25159: a3 = a3 << 0x20\n 25162: a0 = a0 | a3\n 25165: u64 [sp + 0x350] = a0\n 25169: a0 = a0 << 0x1\n 25172: t2 = a2 ^ 0x3f\n 25175: a0 = a0 << t2\n 25178: a0 = t1 | a0\n 25181: u64 [sp + 0x358] = a0\n 25185: a0 = u8 [a1 + 0x9]\n 25188: a3 = u8 [a1 + 0x8]\n 25191: a5 = u8 [a1 + 0xa]\n 25194: s1 = u8 [a1 + 0xb]\n 25197: a0 = a0 << 0x8\n 25200: a0 = a0 | a3\n 25203: a5 = a5 << 0x10\n 25206: s1 = s1 << 0x18\n 25209: a5 = a5 | s1\n 25212: a0 = a0 | a5\n 25215: a3 = u8 [a1 + 0xd]\n 25218: a5 = u8 [a1 + 0xc]\n 25221: s1 = u8 [a1 + 0xe]\n 25224: a4 = u8 [a1 + 0xf]\n 25227: a3 = a3 << 0x8\n 25230: a3 = a3 | a5\n 25233: s1 = s1 << 0x10\n 25236: a4 = a4 << 0x18\n 25239: a4 = a4 | s1\n 25242: a3 = a3 | a4\n 25245: a3 = a3 << 0x20\n 25248: t1 = a3 | a0\n 25251: a0 = t1 >> a2\n 25254: t0 = t0 << 0x1\n 25257: a3 = a2 ^ 0xffffffffffffffff\n 25260: a5 = t0 << a3\n 25263: a5 = a5 | a0\n 25266: a0 = u8 [a1 + 0x1]\n 25269: a3 = u8 [a1]\n 25271: a4 = u8 [a1 + 0x2]\n 25274: s1 = u8 [a1 + 0x3]\n 25277: a0 = a0 << 0x8\n 25280: a0 = a0 | a3\n 25283: a4 = a4 << 0x10\n 25286: s1 = s1 << 0x18\n 25289: a4 = a4 | s1\n 25292: a0 = a0 | a4\n 25295: a3 = u8 [a1 + 0x5]\n 25298: a4 = u8 [a1 + 0x4]\n 25301: s1 = u8 [a1 + 0x6]\n 25304: a1 = u8 [a1 + 0x7]\n 25307: a3 = a3 << 0x8\n 25310: a3 = a3 | a4\n 25313: s1 = s1 << 0x10\n 25316: a1 = a1 << 0x18\n 25319: a1 = a1 | s1\n 25322: a1 = a1 | a3\n 25325: a1 = a1 << 0x20\n 25328: a0 = a0 | a1\n 25331: a0 = a0 >> a2\n 25334: t1 = t1 << 0x1\n 25337: a1 = t1 << t2\n 25340: a4 = u64 [sp + 0x368]\n 25344: t2 = a0 | a1\n 25347: a0 = u64 [sp + 0x350]\n 25351: t0 = a0 >> a2\n 25354: a1 = u64 [sp + 0x3c0]\n 25358: a0 = a1 <u 0x1\n 25361: a2 = u64 [sp + 0x3d0]\n 25365: a0 = a2 - a0\n 25368: u64 [sp + 0x310] = a0\n 25372: a0 = a1 | a2\n 25375: a0 = a0 <u 0x1\n 25378: a2 = u64 [sp + 0x3c8]\n 25382: a3 = a2 - a0\n 25385: u64 [sp + 0x308] = a3\n 25389: a0 = a2 <u a0\n 25392: a2 = u64 [sp + 0x3d8]\n 25396: a2 = a2 - a0\n 25399: u64 [sp + 0x300] = a2\n 25403: a1 = a1 + 0xffffffffffffffff\n 25406: u64 [sp + 0x2f8] = a1\n 25410: a1 = u64 [sp + 0x3a0]\n 25414: fallthrough\n      : @171 (gas: 104)\n 25415: u64 [sp + 0x368] = a4\n 25419: u64 [sp + 792] = 0\n 25423: a0 = t2 >> 0x3f\n 25426: s1 = a5 << 0x1\n 25429: s1 = s1 | a0\n 25432: t2 = t2 << 0x1\n 25435: a0 = a1 >> 0x3f\n 25438: a4 = t2 | a0\n 25441: a0 = u64 [sp + 0x310]\n 25445: a3 = a0 ^ s1\n 25448: a2 = a0 <u s1\n 25451: a0 = u64 [sp + 0x2f8]\n 25455: a0 = a0 <u a4\n 25458: t2 = a4\n 25460: u64 [sp + 0x348] = a4\n 25464: a0 = a2 if a3 != 0\n 25467: t0 = t0 << 0x1\n 25470: t1 = u64 [sp + 0x358]\n 25474: a2 = t1 >> 0x3f\n 25477: t0 = t0 | a2\n 25480: u64 [sp + 0x350] = t0\n 25484: a5 = a5 >> 0x3f\n 25487: t1 = t1 << 0x1\n 25490: ra = t1 | a5\n 25493: a3 = a1 << 0x1\n 25496: a2 = u64 [sp + 0x398]\n 25500: a1 = a2 >> 0x3f\n 25503: a1 = a1 | a3\n 25506: a3 = a2 << 0x1\n 25509: a4 = u64 [sp + 0x388]\n 25513: a2 = a4 >> 0x3f\n 25516: a2 = a2 | a3\n 25519: a3 = a4 << 0x1\n 25522: a5 = u64 [sp + 0x390]\n 25526: a4 = a5 >> 0x3f\n 25529: a3 = a3 | a4\n 25532: a4 = a5 << 0x1\n 25535: a5 = u64 [sp + 0x368]\n 25539: a4 = a4 | a5\n 25542: u64 [sp + 0x390] = a4\n 25546: a4 = u64 [sp + 0x360]\n 25550: a3 = a3 | a4\n 25553: u64 [sp + 0x388] = a3\n 25557: a2 = a2 | a4\n 25560: u64 [sp + 0x398] = a2\n 25564: a1 = a1 | a4\n 25567: u64 [sp + 0x3a0] = a1\n 25571: a2 = u64 [sp + 0x308]\n 25575: a1 = a2 - ra\n 25578: a0 = a1 <u a0\n 25581: a1 = a2 <u ra\n 25584: a2 = u64 [sp + 0x300]\n 25588: a2 = a2 - t0\n 25591: a2 = a2 - a1\n 25594: a0 = a2 - a0\n 25597: a0 = a0 >>a 0x3f\n 25600: a1 = u64 [sp + 0x3c0]\n 25604: a1 = a1 & a0\n 25607: a2 = u64 [sp + 0x3d0]\n 25611: a2 = a2 & a0\n 25614: a3 = s1 ^ a2\n 25617: a4 = s1 <u a2\n 25620: t1 = t2 <u a1\n 25623: a4 = t1 if a3 == 0\n 25626: a3 = u64 [sp + 0x3c8]\n 25630: t0 = a0 & a3\n 25633: a3 = ra - t0\n 25636: a5 = a3 - a4\n 25639: u64 [sp + 0x358] = a5\n 25643: t2 = a3 <u a4\n 25646: a3 = ra <u t0\n 25649: a5 = u64 [sp + 0x3d8]\n 25653: a5 = a5 & a0\n 25656: a4 = u64 [sp + 0x350]\n 25660: a5 = a4 - a5\n 25663: a5 = a5 - a3\n 25666: t0 = a5 - t2\n 25669: s1 = s1 - a2\n 25672: a5 = s1 - t1\n 25675: a2 = u64 [sp + 0x348]\n 25679: t2 = a2 - a1\n 25682: a4 = u64 [sp + 0x3a8]\n 25686: s1 = u64 [sp + 0x380]\n 25690: a1 = a4 | s1\n 25693: a1 = a1 <u 0x1\n 25696: a3 = u64 [sp + 0x370]\n 25700: a2 = a3 <u a1\n 25703: a1 = a3 - a1\n 25706: a3 = a4 <u 0x1\n 25709: s1 = s1 - a3\n 25712: a3 = u64 [sp + 0x378]\n 25716: a3 = a3 - a2\n 25719: a4 = a4 + 0xffffffffffffffff\n 25722: u64 [sp + 0x380] = s1\n 25726: u64 [sp + 0x378] = a3\n 25730: a2 = s1 | a3\n 25733: u64 [sp + 0x3a8] = a4\n 25737: a3 = a4 | a1\n 25740: a2 = a2 | a3\n 25743: a4 = a0 & 0x1\n 25746: u64 [sp + 0x370] = a1\n 25750: a1 = u64 [sp + 0x3a0]\n 25754: u64 [sp + 864] = 0\n 25758: jump @171 if a2 != 0\n      : @172 (gas: 1)\n 25762: jump @174\n      : @173 (gas: 4)\n 25764: a4 = 0\n 25766: u64 [sp + 792] = 0\n 25770: a1 = u64 [sp + 0x3a0]\n 25774: fallthrough\n      : @174 (gas: 21)\n 25775: a3 = u64 [sp + 0x398]\n 25779: a0 = a3 >> 0x3f\n 25782: a2 = a1 << 0x1\n 25785: a0 = a0 | a2\n 25788: a5 = u64 [sp + 0x388]\n 25792: a2 = a5 >> 0x3f\n 25795: a3 = a3 << 0x1\n 25798: a1 = a3 | a2\n 25801: a3 = u64 [sp + 0x390]\n 25805: a2 = a3 >> 0x3f\n 25808: a5 = a5 << 0x1\n 25811: a3 = a3 << 0x1\n 25814: t2 = a4 | a3\n 25817: a4 = u64 [sp + 0x318]\n 25821: a2 = a2 | a4\n 25824: t0 = a2 | a5\n 25827: s1 = a4 | a1\n 25830: a0 = a0 | a4\n 25833: u64 [sp + 0x398] = a0\n 25837: a2 = u64 [sp + 0x2c0]\n 25841: jump @176\n      : @175 (gas: 2)\n 25843: a2 = u64 [sp + 0x2c0]\n 25847: fallthrough\n      : @176 (gas: 220)\n 25848: u64 [sp + 0x3a8] = t0\n 25852: u64 [sp + 0x388] = t2\n 25856: u64 [sp + 0x390] = s1\n 25860: t1 = u64 [sp + 0x3c0]\n 25864: a0 = t1 mulhu a2\n 25867: t0 = u64 [sp + 0x3d0]\n 25871: a1 = t0 * a2\n 25874: a0 = a0 + a1\n 25877: a1 = a0 <u a1\n 25880: a4 = t0 mulhu a2\n 25883: a4 = a4 + a1\n 25886: a3 = u64 [sp + 0x210]\n 25890: a5 = t1 * a3\n 25893: a0 = a0 + a5\n 25896: u64 [sp + 0x3a0] = a0\n 25900: a0 = a0 <u a5\n 25903: a5 = t1 mulhu a3\n 25906: a0 = a0 + a5\n 25909: a0 = a0 + a4\n 25912: a4 = a0 <u a4\n 25915: a5 = t0 mulhu a3\n 25918: a4 = a4 + a5\n 25921: a5 = t0 * a3\n 25924: t2 = a5 + a0\n 25927: a5 = t2 <u a5\n 25930: a4 = a4 + a5\n 25933: u64 [sp + 0x380] = a4\n 25937: a1 = u64 [sp + 0x218]\n 25941: a5 = a1 * t0\n 25944: s1 = a1 mulhu t1\n 25947: a5 = a5 + s1\n 25950: a4 = u64 [sp + 0x208]\n 25954: s1 = a4 * t1\n 25957: a5 = a5 + s1\n 25960: ra = u64 [sp + 0x3c8]\n 25964: s1 = a2 mulhu ra\n 25967: a0 = u64 [sp + 0x3d8]\n 25971: a4 = a2 * a0\n 25974: a4 = a4 + s1\n 25977: s1 = a3 * ra\n 25980: a4 = a4 + s1\n 25983: a4 = a4 + a5\n 25986: a5 = a1 * t1\n 25989: s1 = a2 * ra\n 25992: s1 = s1 + a5\n 25995: a5 = s1 <u a5\n 25998: a4 = a4 + a5\n 26001: a0 = u64 [sp + 0x380]\n 26005: a4 = a4 + a0\n 26008: s1 = s1 + t2\n 26011: a0 = s1 <u t2\n 26014: a0 = a0 + a4\n 26017: a1 = u64 [sp + 0x2d0]\n 26021: a1 = a1 - a0\n 26024: u64 [sp + 0x380] = a1\n 26028: a4 = t1 * a2\n 26031: a1 = u64 [sp + 0x268]\n 26035: a0 = u64 [sp + 0x3a0]\n 26039: a5 = a1 ^ a0\n 26042: a2 = a1 <u a0\n 26045: t2 = u64 [sp + 0x260]\n 26049: a0 = t2 <u a4\n 26052: a2 = a0 if a5 == 0\n 26055: a3 = u64 [sp + 0x2f0]\n 26059: a5 = a3 <u s1\n 26062: s1 = a3 - s1\n 26065: a3 = s1 <u a2\n 26068: a3 = a3 + a5\n 26071: a5 = u64 [sp + 0x380]\n 26075: a3 = a5 - a3\n 26078: u64 [sp + 0x2c0] = a3\n 26082: s1 = s1 - a2\n 26085: u64 [sp + 0x2d0] = s1\n 26089: a2 = u64 [sp + 0x3a0]\n 26093: a1 = a1 - a2\n 26096: a1 = a1 - a0\n 26099: u64 [sp + 0x268] = a1\n 26103: a0 = t2 - a4\n 26106: u64 [sp + 0x260] = a0\n 26110: s1 = u64 [sp + 0x388]\n 26114: a0 = t1 mulhu s1\n 26117: a1 = t0 * s1\n 26120: a0 = a0 + a1\n 26123: a1 = a0 <u a1\n 26126: a2 = t0 mulhu s1\n 26129: a2 = a2 + a1\n 26132: a1 = u64 [sp + 0x3a8]\n 26136: a3 = t1 * a1\n 26139: t2 = a3 + a0\n 26142: a0 = t2 <u a3\n 26145: a3 = t1 mulhu a1\n 26148: a0 = a0 + a3\n 26151: a0 = a0 + a2\n 26154: a2 = a0 <u a2\n 26157: a3 = t0 mulhu a1\n 26160: a2 = a2 + a3\n 26163: a3 = t0 * a1\n 26166: a0 = a0 + a3\n 26169: a3 = a0 <u a3\n 26172: a2 = a2 + a3\n 26175: a1 = u64 [sp + 0x390]\n 26179: a3 = a1 * t0\n 26182: a4 = a1 mulhu t1\n 26185: t0 = a1\n 26187: a3 = a3 + a4\n 26190: a1 = u64 [sp + 0x398]\n 26194: a4 = a1 * t1\n 26197: a3 = a3 + a4\n 26200: a4 = s1 mulhu ra\n 26203: a1 = u64 [sp + 0x3d8]\n 26207: a5 = s1 * a1\n 26210: a4 = a4 + a5\n 26213: a1 = u64 [sp + 0x3a8]\n 26217: a5 = a1 * ra\n 26220: a4 = a4 + a5\n 26223: a3 = a3 + a4\n 26226: a4 = t0 * t1\n 26229: a5 = s1 * ra\n 26232: a5 = a5 + a4\n 26235: a4 = a5 <u a4\n 26238: a3 = a3 + a4\n 26241: a2 = a2 + a3\n 26244: a5 = a5 + a0\n 26247: a0 = a5 <u a0\n 26250: a1 = u64 [sp + 0x248]\n 26254: a0 = a1 - a0\n 26257: t0 = a0 - a2\n 26260: a2 = t1 * s1\n 26263: a3 = u64 [sp + 0x258]\n 26267: a0 = a3 ^ t2\n 26270: a4 = a3 <u t2\n 26273: a1 = u64 [sp + 0x2e8]\n 26277: s1 = a1 <u a2\n 26280: a4 = s1 if a0 == 0\n 26283: a0 = u64 [sp + 0x250]\n 26287: t1 = a0 <u a5\n 26290: a5 = a0 - a5\n 26293: a0 = a5 <u a4\n 26296: a0 = a0 + t1\n 26299: a0 = t0 - a0\n 26302: a5 = a5 - a4\n 26305: a3 = a3 - s1\n 26308: a3 = a3 - t2\n 26311: a1 = a1 - a2\n 26314: a2 = u64 [sp + 0x2d0]\n 26318: a2 = a2 + a5\n 26321: a4 = a2 <u a5\n 26324: a5 = u64 [sp + 0x2c0]\n 26328: a0 = a0 + a5\n 26331: a0 = a0 + a4\n 26334: a4 = u64 [sp + 0x260]\n 26338: a4 = a4 + a1\n 26341: a1 = a4 <u a1\n 26344: a5 = a4\n 26346: a4 = u64 [sp + 0x268]\n 26350: a4 = a4 + a3\n 26353: s1 = a4 + a1\n 26356: a4 = s1 ^ a3\n 26359: a3 = s1 <u a3\n 26362: a3 = a1 if a4 == 0\n 26365: ra = a2 + a3\n 26368: a1 = ra <u a2\n 26371: t0 = a0 + a1\n 26374: a1 = clz t0\n 26376: a0 = clz ra\n 26378: a0 = a0 + 0x40\n 26381: a0 = a1 if t0 != 0\n 26384: a1 = clz s1\n 26386: a2 = clz a5\n 26388: t2 = a5\n 26390: a2 = a2 + 0x40\n 26393: a2 = a1 if s1 != 0\n 26396: a1 = ra | t0\n 26399: a3 = a2 + 0x80\n 26403: a0 = a3 if a1 == 0\n 26406: a2 = a3 <u a2\n 26409: a2 = 0 if a1 != 0\n 26411: a5 = u64 [sp + 0x328]\n 26415: a3 = a5 <u a0\n 26418: a4 = u64 [sp + 0x330]\n 26422: t1 = a4 ^ a2\n 26425: a1 = a4 <u a2\n 26428: a1 = a3 if t1 == 0\n 26431: a4 = a4 - a2\n 26434: t1 = a4 - a3\n 26437: a4 = a5 - a0\n 26440: a2 = a4 <u 0x100\n 26444: a2 = a2 ^ 0x1\n 26447: a3 = t1 >u 0\n 26449: a2 = a3 if t1 != 0\n 26452: a5 = a1 <u 0x1\n 26455: a5 = a5 + 0xffffffffffffffff\n 26458: a0 = -a1\n 26460: u64 [sp + 0x398] = a0\n 26464: a3 = a0 >u 0\n 26466: a0 = a5 >u 0\n 26468: a0 = a3 if a5 == 0\n 26471: a0 = a2 if a1 == 0\n 26474: a1 = s1 | t0\n 26477: a2 = t2 | ra\n 26480: a1 = a1 | a2\n 26483: a1 = a1 <u 0x1\n 26486: a2 = u64 [sp + 0x320]\n 26490: a1 = a1 | a2\n 26493: a2 = t2\n 26495: a0 = a0 | a1\n 26498: a1 = t0\n 26500: a1 = 0 if a0 != 0\n 26502: u64 [sp + 0x3a0] = a1\n 26506: u64 [sp + 0x2e8] = ra\n 26510: ra = 0 if a0 != 0\n 26512: u64 [sp + 0x3a8] = ra\n 26516: t2 = s1\n 26518: t2 = 0 if a0 != 0\n 26520: u64 [sp + 0x2f0] = a2\n 26524: ra = a2\n 26526: ra = 0 if a0 != 0\n 26528: u64 [sp + 0x258] = s1\n 26532: u64 [sp + 0x250] = t0\n 26536: jump @184 if a0 != 0\n      : @177 (gas: 7)\n 26540: a1 = a4\n 26542: a0 = a4 ^ 0xff\n 26546: a2 = u64 [sp + 0x398]\n 26550: a0 = a0 | a2\n 26553: a4 = t1 | a5\n 26556: a0 = a0 | a4\n 26559: jump @184 if a0 == 0\n      : @178 (gas: 260)\n 26563: a3 = a1\n 26565: a1 = a1 + 0x1\n 26568: u64 [sp + 0x3a8] = a1\n 26572: a0 = a1 <u 0x1\n 26575: a0 = a0 + t1\n 26578: u64 [sp + 0x380] = a0\n 26582: a0 = a0 | a1\n 26585: a0 = a0 <u 0x1\n 26588: a0 = a0 + a2\n 26591: u64 [sp + 0x370] = a0\n 26595: a0 = a0 <u a2\n 26598: a0 = a0 + a5\n 26601: u64 [sp + 0x378] = a0\n 26605: a2 = u64 [sp + 0x2f0]\n 26609: a1 = t0\n 26611: t0 = 0xff - a3\n 26615: t2 = sp + 0x7ff\n 26619: t2 = t2 + 0x360\n 26623: u8 [t2 + 0x261] = a2\n 26627: u8 [t2 + 608] = 0\n 26631: u8 [t2 + 607] = 0\n 26635: u8 [t2 + 606] = 0\n 26639: u8 [t2 + 605] = 0\n 26643: u8 [t2 + 604] = 0\n 26647: u8 [t2 + 603] = 0\n 26651: u8 [t2 + 602] = 0\n 26655: u8 [t2 + 601] = 0\n 26659: u8 [t2 + 600] = 0\n 26663: u8 [t2 + 599] = 0\n 26667: u8 [t2 + 598] = 0\n 26671: u8 [t2 + 597] = 0\n 26675: u8 [t2 + 596] = 0\n 26679: u8 [t2 + 595] = 0\n 26683: u8 [t2 + 594] = 0\n 26687: u8 [t2 + 593] = 0\n 26691: u8 [t2 + 592] = 0\n 26695: u8 [t2 + 591] = 0\n 26699: u8 [t2 + 590] = 0\n 26703: u8 [t2 + 589] = 0\n 26707: u8 [t2 + 588] = 0\n 26711: u8 [t2 + 587] = 0\n 26715: u8 [t2 + 586] = 0\n 26719: u8 [t2 + 585] = 0\n 26723: u8 [t2 + 584] = 0\n 26727: u8 [t2 + 583] = 0\n 26731: u8 [t2 + 582] = 0\n 26735: u8 [t2 + 581] = 0\n 26739: u8 [t2 + 580] = 0\n 26743: u8 [t2 + 579] = 0\n 26747: u8 [t2 + 578] = 0\n 26751: u8 [t2 + 577] = 0\n 26755: u8 [t2 + 0x269] = s1\n 26759: a0 = a2 >> 0x38\n 26762: u64 [sp + 0x220] = a0\n 26766: u8 [t2 + 0x268] = a0\n 26770: a0 = a2 >> 0x30\n 26773: u64 [sp + 0x218] = a0\n 26777: u8 [t2 + 0x267] = a0\n 26781: a0 = a2 >> 0x28\n 26784: u64 [sp + 0x210] = a0\n 26788: u8 [t2 + 0x266] = a0\n 26792: a0 = a2 >> 0x20\n 26795: u64 [sp + 0x208] = a0\n 26799: u8 [t2 + 0x265] = a0\n 26803: a0 = a2 >> 0x18\n 26806: u64 [sp + 0x1d0] = a0\n 26810: u8 [t2 + 0x264] = a0\n 26814: a0 = a2 >> 0x10\n 26817: u64 [sp + 0x1c8] = a0\n 26821: u8 [t2 + 0x263] = a0\n 26825: a0 = a2 >> 0x8\n 26828: u64 [sp + 0x1c0] = a0\n 26832: u8 [t2 + 0x262] = a0\n 26836: a2 = u64 [sp + 0x2e8]\n 26840: u8 [t2 + 0x271] = a2\n 26844: a0 = s1 >> 0x38\n 26847: u64 [sp + 0x1b8] = a0\n 26851: u8 [t2 + 0x270] = a0\n 26855: a0 = s1 >> 0x30\n 26858: u64 [sp + 0x1b0] = a0\n 26862: u8 [t2 + 0x26f] = a0\n 26866: a0 = s1 >> 0x28\n 26869: u64 [sp + 0x1a8] = a0\n 26873: u8 [t2 + 0x26e] = a0\n 26877: a0 = s1 >> 0x20\n 26880: u64 [sp + 0x1a0] = a0\n 26884: u8 [t2 + 0x26d] = a0\n 26888: a0 = s1 >> 0x18\n 26891: u64 [sp + 0x198] = a0\n 26895: u8 [t2 + 0x26c] = a0\n 26899: a0 = s1 >> 0x10\n 26902: u64 [sp + 0x190] = a0\n 26906: u8 [t2 + 0x26b] = a0\n 26910: s1 = s1 >> 0x8\n 26913: u64 [sp + 0x188] = s1\n 26917: u8 [t2 + 0x26a] = s1\n 26921: u8 [t2 + 0x279] = a1\n 26925: a0 = a2 >> 0x38\n 26928: u64 [sp + 0x180] = a0\n 26932: u8 [t2 + 0x278] = a0\n 26936: a0 = a2 >> 0x30\n 26939: u64 [sp + 0x178] = a0\n 26943: u8 [t2 + 0x277] = a0\n 26947: a0 = a2 >> 0x28\n 26950: u64 [sp + 0x170] = a0\n 26954: u8 [t2 + 0x276] = a0\n 26958: a0 = a2 >> 0x20\n 26961: u64 [sp + 0x168] = a0\n 26965: u8 [t2 + 0x275] = a0\n 26969: a0 = a2 >> 0x18\n 26972: u64 [sp + 0x160] = a0\n 26976: u8 [t2 + 0x274] = a0\n 26980: a0 = a2 >> 0x10\n 26983: u64 [sp + 0x358] = a0\n 26987: u8 [t2 + 0x273] = a0\n 26991: a0 = a2 >> 0x8\n 26994: u64 [sp + 0x350] = a0\n 26998: u8 [t2 + 0x272] = a0\n 27002: a0 = a1 >> 0x38\n 27005: u64 [sp + 0x348] = a0\n 27009: u8 [t2 + 0x280] = a0\n 27013: a0 = a1 >> 0x30\n 27016: u64 [sp + 0x318] = a0\n 27020: u8 [t2 + 0x27f] = a0\n 27024: a0 = a1 >> 0x28\n 27027: u64 [sp + 0x310] = a0\n 27031: u8 [t2 + 0x27e] = a0\n 27035: a0 = a1 >> 0x20\n 27038: u64 [sp + 0x308] = a0\n 27042: u8 [t2 + 0x27d] = a0\n 27046: a0 = a1 >> 0x18\n 27049: u64 [sp + 0x300] = a0\n 27053: u8 [t2 + 0x27c] = a0\n 27057: a0 = a1 >> 0x10\n 27060: u64 [sp + 0x2f8] = a0\n 27064: u8 [t2 + 0x27b] = a0\n 27068: a1 = a1 >> 0x8\n 27071: u64 [sp + 0x248] = a1\n 27075: u8 [t2 + 0x27a] = a1\n 27079: a1 = t0 << 0x38\n 27082: a1 = a1 >> 0x3b\n 27085: a0 = sp + 0x7ff\n 27089: a0 = a0 + 0x5c1\n 27093: a1 = a0 - a1\n 27096: a2 = u8 [a1 + 0x19]\n 27099: a3 = u8 [a1 + 0x18]\n 27102: a4 = u8 [a1 + 0x1a]\n 27105: a5 = u8 [a1 + 0x1b]\n 27108: a2 = a2 << 0x8\n 27111: a2 = a2 | a3\n 27114: a4 = a4 << 0x10\n 27117: a5 = a5 << 0x18\n 27120: a4 = a4 | a5\n 27123: a2 = a2 | a4\n 27126: a3 = u8 [a1 + 0x1d]\n 27129: a4 = u8 [a1 + 0x1c]\n 27132: a5 = u8 [a1 + 0x1e]\n 27135: s1 = u8 [a1 + 0x1f]\n 27138: a3 = a3 << 0x8\n 27141: a3 = a3 | a4\n 27144: a5 = a5 << 0x10\n 27147: s1 = s1 << 0x18\n 27150: a5 = a5 | s1\n 27153: a3 = a3 | a5\n 27156: a3 = a3 << 0x20\n 27159: a2 = a2 | a3\n 27162: a3 = u8 [a1 + 0x11]\n 27165: a4 = u8 [a1 + 0x10]\n 27168: a5 = u8 [a1 + 0x12]\n 27171: s1 = u8 [a1 + 0x13]\n 27174: a3 = a3 << 0x8\n 27177: a3 = a3 | a4\n 27180: a5 = a5 << 0x10\n 27183: s1 = s1 << 0x18\n 27186: a5 = a5 | s1\n 27189: a3 = a3 | a5\n 27192: a4 = u8 [a1 + 0x15]\n 27195: a5 = u8 [a1 + 0x14]\n 27198: s1 = u8 [a1 + 0x16]\n 27201: a0 = u8 [a1 + 0x17]\n 27204: a4 = a4 << 0x8\n 27207: a4 = a4 | a5\n 27210: s1 = s1 << 0x10\n 27213: a0 = a0 << 0x18\n 27216: a0 = a0 | s1\n 27219: a0 = a0 | a4\n 27222: a0 = a0 << 0x20\n 27225: t1 = a0 | a3\n 27228: a0 = t0 & 0x7\n 27231: a4 = a2 << a0\n 27234: a5 = t1 >> 0x1\n 27237: t0 = a0 ^ 0x3f\n 27240: a5 = a5 >> t0\n 27243: a4 = a4 | a5\n 27246: u64 [sp + 0x3a0] = a4\n 27250: a4 = u8 [a1 + 0x9]\n 27253: a5 = u8 [a1 + 0x8]\n 27256: s1 = u8 [a1 + 0xa]\n 27259: a2 = u8 [a1 + 0xb]\n 27262: a4 = a4 << 0x8\n 27265: a4 = a4 | a5\n 27268: s1 = s1 << 0x10\n 27271: a2 = a2 << 0x18\n 27274: a2 = a2 | s1\n 27277: a2 = a2 | a4\n 27280: a4 = u8 [a1 + 0xd]\n 27283: a5 = u8 [a1 + 0xc]\n 27286: s1 = u8 [a1 + 0xe]\n 27289: a3 = u8 [a1 + 0xf]\n 27292: a4 = a4 << 0x8\n 27295: a4 = a4 | a5\n 27298: s1 = s1 << 0x10\n 27301: a3 = a3 << 0x18\n 27304: a3 = a3 | s1\n 27307: a3 = a3 | a4\n 27310: a3 = a3 << 0x20\n 27313: a5 = a3 | a2\n 27316: a2 = a5 >> 0x1\n 27319: a3 = a0 ^ 0xffffffffffffffff\n 27322: a2 = a2 >> a3\n 27325: a3 = t1 << a0\n 27328: t1 = u64 [sp + 0x370]\n 27332: a2 = a2 | a3\n 27335: u64 [sp + 0x398] = a2\n 27339: a2 = u8 [a1 + 0x1]\n 27342: a3 = u8 [a1]\n 27344: a4 = u8 [a1 + 0x2]\n 27347: s1 = u8 [a1 + 0x3]\n 27350: a2 = a2 << 0x8\n 27353: a2 = a2 | a3\n 27356: a4 = a4 << 0x10\n 27359: s1 = s1 << 0x18\n 27362: a4 = a4 | s1\n 27365: a2 = a2 | a4\n 27368: a3 = u8 [a1 + 0x5]\n 27371: a4 = u8 [a1 + 0x4]\n 27374: s1 = u8 [a1 + 0x6]\n 27377: a1 = u8 [a1 + 0x7]\n 27380: a3 = a3 << 0x8\n 27383: a3 = a3 | a4\n 27386: a4 = u64 [sp + 0x380]\n 27390: s1 = s1 << 0x10\n 27393: a1 = a1 << 0x18\n 27396: a1 = a1 | s1\n 27399: a1 = a1 | a3\n 27402: a1 = a1 << 0x20\n 27405: a1 = a1 | a2\n 27408: a2 = a1 >> 0x1\n 27411: a2 = a2 >> t0\n 27414: a3 = a5 << a0\n 27417: a5 = u64 [sp + 0x378]\n 27421: a2 = a2 | a3\n 27424: u64 [sp + 0x388] = a2\n 27428: a2 = a4 | a5\n 27431: a3 = u64 [sp + 0x3a8]\n 27435: a3 = a3 | t1\n 27438: a2 = a2 | a3\n 27441: a0 = a1 << a0\n 27444: u64 [sp + 0x390] = a0\n 27448: jump @182 if a2 == 0\n      : @179 (gas: 229)\n 27452: u64 [sp + 872] = 0\n 27456: u64 [sp + 864] = 0\n 27460: a0 = u64 [sp + 0x220]\n 27464: u8 [t2 + 0x208] = a0\n 27468: a0 = u64 [sp + 0x218]\n 27472: u8 [t2 + 0x207] = a0\n 27476: a0 = u64 [sp + 0x210]\n 27480: u8 [t2 + 0x206] = a0\n 27484: a0 = u64 [sp + 0x208]\n 27488: u8 [t2 + 0x205] = a0\n 27492: a0 = u64 [sp + 0x1d0]\n 27496: u8 [t2 + 0x204] = a0\n 27500: a0 = u64 [sp + 0x1c8]\n 27504: u8 [t2 + 0x203] = a0\n 27508: a0 = u64 [sp + 0x1c0]\n 27512: u8 [t2 + 0x202] = a0\n 27516: a0 = u64 [sp + 0x1b8]\n 27520: u8 [t2 + 0x210] = a0\n 27524: a0 = u64 [sp + 0x1b0]\n 27528: u8 [t2 + 0x20f] = a0\n 27532: a0 = u64 [sp + 0x1a8]\n 27536: u8 [t2 + 0x20e] = a0\n 27540: a0 = u64 [sp + 0x1a0]\n 27544: u8 [t2 + 0x20d] = a0\n 27548: a0 = u64 [sp + 0x198]\n 27552: u8 [t2 + 0x20c] = a0\n 27556: a0 = u64 [sp + 0x190]\n 27560: u8 [t2 + 0x20b] = a0\n 27564: a0 = u64 [sp + 0x188]\n 27568: u8 [t2 + 0x20a] = a0\n 27572: a0 = u64 [sp + 0x180]\n 27576: u8 [t2 + 0x218] = a0\n 27580: a0 = u64 [sp + 0x178]\n 27584: u8 [t2 + 0x217] = a0\n 27588: a0 = u64 [sp + 0x170]\n 27592: u8 [t2 + 0x216] = a0\n 27596: a0 = u64 [sp + 0x168]\n 27600: u8 [t2 + 0x215] = a0\n 27604: a0 = u64 [sp + 0x160]\n 27608: u8 [t2 + 0x214] = a0\n 27612: u8 [t2 + 576] = 0\n 27616: u8 [t2 + 575] = 0\n 27620: u8 [t2 + 574] = 0\n 27624: u8 [t2 + 573] = 0\n 27628: u8 [t2 + 572] = 0\n 27632: u8 [t2 + 571] = 0\n 27636: u8 [t2 + 570] = 0\n 27640: u8 [t2 + 569] = 0\n 27644: u8 [t2 + 568] = 0\n 27648: u8 [t2 + 567] = 0\n 27652: u8 [t2 + 566] = 0\n 27656: u8 [t2 + 565] = 0\n 27660: u8 [t2 + 564] = 0\n 27664: u8 [t2 + 563] = 0\n 27668: u8 [t2 + 562] = 0\n 27672: u8 [t2 + 561] = 0\n 27676: u8 [t2 + 560] = 0\n 27680: u8 [t2 + 559] = 0\n 27684: u8 [t2 + 558] = 0\n 27688: u8 [t2 + 557] = 0\n 27692: u8 [t2 + 556] = 0\n 27696: u8 [t2 + 555] = 0\n 27700: u8 [t2 + 554] = 0\n 27704: u8 [t2 + 553] = 0\n 27708: u8 [t2 + 552] = 0\n 27712: u8 [t2 + 551] = 0\n 27716: u8 [t2 + 550] = 0\n 27720: u8 [t2 + 549] = 0\n 27724: u8 [t2 + 548] = 0\n 27728: u8 [t2 + 547] = 0\n 27732: u8 [t2 + 546] = 0\n 27736: u8 [t2 + 545] = 0\n 27740: a0 = u64 [sp + 0x2f0]\n 27744: u8 [t2 + 0x201] = a0\n 27748: a0 = u64 [sp + 0x258]\n 27752: u8 [t2 + 0x209] = a0\n 27756: a0 = u64 [sp + 0x2e8]\n 27760: u8 [t2 + 0x211] = a0\n 27764: a0 = u64 [sp + 0x250]\n 27768: u8 [t2 + 0x219] = a0\n 27772: a0 = u64 [sp + 0x358]\n 27776: u8 [t2 + 0x213] = a0\n 27780: a0 = u64 [sp + 0x350]\n 27784: u8 [t2 + 0x212] = a0\n 27788: a0 = u64 [sp + 0x348]\n 27792: u8 [t2 + 0x220] = a0\n 27796: a0 = u64 [sp + 0x318]\n 27800: u8 [t2 + 0x21f] = a0\n 27804: a0 = u64 [sp + 0x310]\n 27808: u8 [t2 + 0x21e] = a0\n 27812: a0 = u64 [sp + 0x308]\n 27816: u8 [t2 + 0x21d] = a0\n 27820: a0 = u64 [sp + 0x300]\n 27824: u8 [t2 + 0x21c] = a0\n 27828: a0 = u64 [sp + 0x2f8]\n 27832: u8 [t2 + 0x21b] = a0\n 27836: a0 = u64 [sp + 0x248]\n 27840: u8 [t2 + 0x21a] = a0\n 27844: s1 = u64 [sp + 0x3a8]\n 27848: a0 = s1 << 0x38\n 27851: a0 = a0 >> 0x3b\n 27854: a1 = sp + 0x7ff\n 27858: a1 = a1 + 0x561\n 27862: a0 = a0 + a1\n 27865: a1 = u8 [a0 + 0x11]\n 27868: a2 = u8 [a0 + 0x10]\n 27871: a3 = u8 [a0 + 0x12]\n 27874: t0 = a4\n 27876: a4 = u8 [a0 + 0x13]\n 27879: a1 = a1 << 0x8\n 27882: a1 = a1 | a2\n 27885: a3 = a3 << 0x10\n 27888: a4 = a4 << 0x18\n 27891: a3 = a3 | a4\n 27894: a1 = a1 | a3\n 27897: a2 = u8 [a0 + 0x15]\n 27900: a3 = u8 [a0 + 0x14]\n 27903: a4 = u8 [a0 + 0x16]\n 27906: a5 = u8 [a0 + 0x17]\n 27909: a2 = a2 << 0x8\n 27912: a2 = a2 | a3\n 27915: a4 = a4 << 0x10\n 27918: a5 = a5 << 0x18\n 27921: a4 = a4 | a5\n 27924: a2 = a2 | a4\n 27927: a2 = a2 << 0x20\n 27930: t2 = a2 | a1\n 27933: s1 = s1 & 0x7\n 27936: ra = t2 >> s1\n 27939: a2 = u8 [a0 + 0x19]\n 27942: a3 = u8 [a0 + 0x18]\n 27945: a4 = u8 [a0 + 0x1a]\n 27948: a5 = u8 [a0 + 0x1b]\n 27951: a2 = a2 << 0x8\n 27954: a2 = a2 | a3\n 27957: a4 = a4 << 0x10\n 27960: a5 = a5 << 0x18\n 27963: a4 = a4 | a5\n 27966: a2 = a2 | a4\n 27969: a3 = u8 [a0 + 0x1d]\n 27972: a4 = u8 [a0 + 0x1c]\n 27975: a5 = u8 [a0 + 0x1e]\n 27978: a1 = u8 [a0 + 0x1f]\n 27981: a3 = a3 << 0x8\n 27984: a3 = a3 | a4\n 27987: a5 = a5 << 0x10\n 27990: a1 = a1 << 0x18\n 27993: a1 = a1 | a5\n 27996: a1 = a1 | a3\n 27999: a1 = a1 << 0x20\n 28002: a1 = a1 | a2\n 28005: u64 [sp + 0x350] = a1\n 28009: a1 = a1 << 0x1\n 28012: t1 = s1 ^ 0x3f\n 28015: a1 = a1 << t1\n 28018: a1 = ra | a1\n 28021: u64 [sp + 0x358] = a1\n 28025: a1 = u8 [a0 + 0x9]\n 28028: a2 = u8 [a0 + 0x8]\n 28031: a3 = u8 [a0 + 0xa]\n 28034: a4 = u8 [a0 + 0xb]\n 28037: a1 = a1 << 0x8\n 28040: a1 = a1 | a2\n 28043: a3 = a3 << 0x10\n 28046: a4 = a4 << 0x18\n 28049: a3 = a3 | a4\n 28052: a1 = a1 | a3\n 28055: a2 = u8 [a0 + 0xd]\n 28058: a3 = u8 [a0 + 0xc]\n 28061: a4 = u8 [a0 + 0xe]\n 28064: a5 = u8 [a0 + 0xf]\n 28067: a2 = a2 << 0x8\n 28070: a2 = a2 | a3\n 28073: a4 = a4 << 0x10\n 28076: a5 = a5 << 0x18\n 28079: a4 = a4 | a5\n 28082: a2 = a2 | a4\n 28085: a2 = a2 << 0x20\n 28088: a3 = a2 | a1\n 28091: a1 = a3 >> s1\n 28094: t2 = t2 << 0x1\n 28097: a2 = s1 ^ 0xffffffffffffffff\n 28100: a2 = t2 << a2\n 28103: ra = a1 | a2\n 28106: a1 = u8 [a0 + 0x1]\n 28109: a2 = u8 [a0]\n 28111: a4 = u8 [a0 + 0x2]\n 28114: a5 = u8 [a0 + 0x3]\n 28117: a1 = a1 << 0x8\n 28120: a1 = a1 | a2\n 28123: a4 = a4 << 0x10\n 28126: a5 = a5 << 0x18\n 28129: a4 = a4 | a5\n 28132: a1 = a1 | a4\n 28135: a2 = u8 [a0 + 0x5]\n 28138: a4 = u8 [a0 + 0x4]\n 28141: a5 = u8 [a0 + 0x6]\n 28144: a0 = u8 [a0 + 0x7]\n 28147: a2 = a2 << 0x8\n 28150: a2 = a2 | a4\n 28153: a5 = a5 << 0x10\n 28156: a0 = a0 << 0x18\n 28159: a0 = a0 | a5\n 28162: a0 = a0 | a2\n 28165: a0 = a0 << 0x20\n 28168: a0 = a0 | a1\n 28171: a0 = a0 >> s1\n 28174: a3 = a3 << 0x1\n 28177: a1 = a3 << t1\n 28180: t1 = a0 | a1\n 28183: a0 = u64 [sp + 0x350]\n 28187: a1 = a0 >> s1\n 28190: a2 = u64 [sp + 0x3c0]\n 28194: a0 = a2 <u 0x1\n 28197: a3 = u64 [sp + 0x3d0]\n 28201: a0 = a3 - a0\n 28204: u64 [sp + 0x310] = a0\n 28208: a0 = a2 | a3\n 28211: a0 = a0 <u 0x1\n 28214: a3 = u64 [sp + 0x3c8]\n 28218: a4 = a3 - a0\n 28221: u64 [sp + 0x308] = a4\n 28225: a0 = a3 <u a0\n 28228: a3 = u64 [sp + 0x3d8]\n 28232: a3 = a3 - a0\n 28235: u64 [sp + 0x300] = a3\n 28239: a2 = a2 + 0xffffffffffffffff\n 28242: u64 [sp + 0x2f8] = a2\n 28246: fallthrough\n      : @180 (gas: 105)\n 28247: u64 [sp + 0x380] = t0\n 28251: u64 [sp + 792] = 0\n 28255: a3 = t1 >> 0x3f\n 28258: s1 = ra << 0x1\n 28261: s1 = s1 | a3\n 28264: t1 = t1 << 0x1\n 28267: a5 = u64 [sp + 0x3a0]\n 28271: a3 = a5 >> 0x3f\n 28274: t0 = a1\n 28276: a1 = t1 | a3\n 28279: a0 = u64 [sp + 0x310]\n 28283: a3 = a0 ^ s1\n 28286: a2 = a0 <u s1\n 28289: a0 = u64 [sp + 0x2f8]\n 28293: a4 = a0 <u a1\n 28296: t1 = a1\n 28298: u64 [sp + 0x348] = a1\n 28302: a4 = a2 if a3 != 0\n 28305: a0 = t0 << 0x1\n 28308: a1 = u64 [sp + 0x358]\n 28312: a2 = a1 >> 0x3f\n 28315: t2 = a0 | a2\n 28318: u64 [sp + 0x350] = t2\n 28322: a2 = ra >> 0x3f\n 28325: a1 = a1 << 0x1\n 28328: a3 = a1 | a2\n 28331: a1 = a5 << 0x1\n 28334: a0 = u64 [sp + 0x398]\n 28338: a2 = a0 >> 0x3f\n 28341: ra = a1 | a2\n 28344: a2 = a0 << 0x1\n 28347: a1 = u64 [sp + 0x388]\n 28351: a0 = a1 >> 0x3f\n 28354: a0 = a0 | a2\n 28357: a2 = a1 << 0x1\n 28360: t0 = u64 [sp + 0x390]\n 28364: a5 = t0 >> 0x3f\n 28367: a2 = a2 | a5\n 28370: a5 = t0 << 0x1\n 28373: a1 = u64 [sp + 0x368]\n 28377: a1 = a1 | a5\n 28380: u64 [sp + 0x390] = a1\n 28384: a1 = u64 [sp + 0x360]\n 28388: a2 = a2 | a1\n 28391: u64 [sp + 0x388] = a2\n 28395: a0 = a0 | a1\n 28398: u64 [sp + 0x398] = a0\n 28402: a0 = a1 | ra\n 28405: u64 [sp + 0x3a0] = a0\n 28409: a1 = u64 [sp + 0x308]\n 28413: a0 = a1 - a3\n 28416: a0 = a0 <u a4\n 28419: a1 = a1 <u a3\n 28422: a2 = u64 [sp + 0x300]\n 28426: a2 = a2 - t2\n 28429: a2 = a2 - a1\n 28432: a2 = a2 - a0\n 28435: a2 = a2 >>a 0x3f\n 28438: a4 = u64 [sp + 0x3c0]\n 28442: t2 = a2 & a4\n 28445: a5 = u64 [sp + 0x3d0]\n 28449: a5 = a5 & a2\n 28452: ra = s1 ^ a5\n 28455: a1 = s1 <u a5\n 28458: a0 = t1 <u t2\n 28461: a1 = a0 if ra == 0\n 28464: a4 = u64 [sp + 0x3c8]\n 28468: ra = a2 & a4\n 28471: t0 = a3 - ra\n 28474: t1 = t0 - a1\n 28477: u64 [sp + 0x358] = t1\n 28481: t0 = t0 <u a1\n 28484: a3 = a3 <u ra\n 28487: a1 = u64 [sp + 0x3d8]\n 28491: a1 = a1 & a2\n 28494: a4 = u64 [sp + 0x350]\n 28498: a1 = a4 - a1\n 28501: a1 = a1 - a3\n 28504: a1 = a1 - t0\n 28507: t0 = u64 [sp + 0x380]\n 28511: s1 = s1 - a5\n 28514: ra = s1 - a0\n 28517: a0 = u64 [sp + 0x348]\n 28521: t1 = a0 - t2\n 28524: a5 = u64 [sp + 0x3a8]\n 28528: a0 = a5 | t0\n 28531: a0 = a0 <u 0x1\n 28534: a4 = u64 [sp + 0x370]\n 28538: a3 = a4 <u a0\n 28541: a0 = a4 - a0\n 28544: a4 = a5 <u 0x1\n 28547: t0 = t0 - a4\n 28550: a4 = u64 [sp + 0x378]\n 28554: a4 = a4 - a3\n 28557: a5 = a5 + 0xffffffffffffffff\n 28560: u64 [sp + 0x378] = a4\n 28564: a3 = t0 | a4\n 28567: u64 [sp + 0x3a8] = a5\n 28571: a4 = a5 | a0\n 28574: a3 = a3 | a4\n 28577: a2 = a2 & 0x1\n 28580: u64 [sp + 0x368] = a2\n 28584: u64 [sp + 0x370] = a0\n 28588: u64 [sp + 864] = 0\n 28592: jump @180 if a3 != 0\n      : @181 (gas: 1)\n 28596: jump @183\n      : @182 (gas: 3)\n 28598: u64 [sp + 872] = 0\n 28602: u64 [sp + 792] = 0\n 28606: fallthrough\n      : @183 (gas: 25)\n 28607: a2 = u64 [sp + 0x398]\n 28611: a0 = a2 >> 0x3f\n 28614: a1 = u64 [sp + 0x3a0]\n 28618: a1 = a1 << 0x1\n 28621: a0 = a0 | a1\n 28624: a4 = u64 [sp + 0x388]\n 28628: a1 = a4 >> 0x3f\n 28631: a2 = a2 << 0x1\n 28634: a2 = a2 | a1\n 28637: a1 = u64 [sp + 0x390]\n 28641: a3 = a1 >> 0x3f\n 28644: a4 = a4 << 0x1\n 28647: a1 = a1 << 0x1\n 28650: a5 = u64 [sp + 0x368]\n 28654: ra = a5 | a1\n 28657: a5 = u64 [sp + 0x318]\n 28661: a3 = a3 | a5\n 28664: t2 = a3 | a4\n 28667: a2 = a2 | a5\n 28670: u64 [sp + 0x3a8] = a2\n 28674: a0 = a0 | a5\n 28677: u64 [sp + 0x3a0] = a0\n 28681: s1 = u64 [sp + 0x258]\n 28685: t0 = u64 [sp + 0x250]\n 28689: fallthrough\n      : @184 (gas: 173)\n 28690: a0 = u64 [sp + 0x260]\n 28694: a1 = u64 [sp + 0x2f0]\n 28698: a0 = a1 <u a0\n 28701: a5 = u64 [sp + 0x268]\n 28705: a4 = s1 ^ a5\n 28708: a5 = s1 <u a5\n 28711: a5 = a0 if a4 == 0\n 28714: a0 = u64 [sp + 0x2c0]\n 28718: a4 = t0 ^ a0\n 28721: a2 = t0 <u a0\n 28724: a0 = u64 [sp + 0x2d0]\n 28728: a1 = u64 [sp + 0x2e8]\n 28732: s1 = a1 <u a0\n 28735: a2 = s1 if a4 == 0\n 28738: s1 = a1 ^ a0\n 28741: a4 = a4 | s1\n 28744: a2 = a5 if a4 == 0\n 28747: u64 [sp + 0x398] = a2\n 28751: a0 = u64 [sp + 0x3c0]\n 28755: a4 = a0 mulhu ra\n 28758: t1 = u64 [sp + 0x3d0]\n 28762: a5 = t1 * ra\n 28765: a4 = a4 + a5\n 28768: a5 = a4 <u a5\n 28771: s1 = t1 mulhu ra\n 28774: s1 = s1 + a5\n 28777: a5 = a0 * t2\n 28780: a4 = a4 + a5\n 28783: u64 [sp + 0x390] = a4\n 28787: a5 = a4 <u a5\n 28790: a2 = a0 mulhu t2\n 28793: a2 = a2 + a5\n 28796: a2 = a2 + s1\n 28799: a5 = a2 <u s1\n 28802: s1 = t1 mulhu t2\n 28805: a5 = a5 + s1\n 28808: s1 = t1 * t2\n 28811: a2 = a2 + s1\n 28814: s1 = a2 <u s1\n 28817: a5 = a5 + s1\n 28820: u64 [sp + 0x388] = a5\n 28824: a1 = u64 [sp + 0x3a8]\n 28828: s1 = a1 * t1\n 28831: a5 = a1 mulhu a0\n 28834: a5 = a5 + s1\n 28837: a4 = u64 [sp + 0x3a0]\n 28841: s1 = a4 * a0\n 28844: a5 = a5 + s1\n 28847: t0 = u64 [sp + 0x3c8]\n 28851: s1 = ra mulhu t0\n 28854: a3 = u64 [sp + 0x3d8]\n 28858: a4 = ra * a3\n 28861: a4 = a4 + s1\n 28864: a3 = t2 * t0\n 28867: a3 = a3 + a4\n 28870: a3 = a3 + a5\n 28873: a4 = a1 * a0\n 28876: a5 = ra * t0\n 28879: a5 = a5 + a4\n 28882: a4 = a5 <u a4\n 28885: a3 = a3 + a4\n 28888: a5 = a5 + a2\n 28891: a2 = a5 <u a2\n 28894: a1 = u64 [sp + 0x388]\n 28898: a3 = a3 + a1\n 28901: a2 = a2 + a3\n 28904: u64 [sp + 0x3a8] = a2\n 28908: a3 = a0 * ra\n 28911: u64 [sp + 0x388] = a3\n 28915: s1 = u64 [sp + 0x258]\n 28919: a2 = u64 [sp + 0x390]\n 28923: ra = s1 ^ a2\n 28926: a4 = s1 <u a2\n 28929: a1 = u64 [sp + 0x2f0]\n 28933: t2 = a1 <u a3\n 28936: a4 = t2 if ra == 0\n 28939: a1 = u64 [sp + 0x2e8]\n 28943: a3 = a1 <u a5\n 28946: a5 = a1 - a5\n 28949: a1 = a5 <u a4\n 28952: a1 = a1 + a3\n 28955: ra = u64 [sp + 0x250]\n 28959: a3 = u64 [sp + 0x3a8]\n 28963: a3 = ra - a3\n 28966: a3 = a3 - a1\n 28969: u64 [sp + 0x3a0] = a3\n 28973: a5 = a5 - a4\n 28976: u64 [sp + 0x380] = a5\n 28980: a2 = s1 - a2\n 28983: a1 = a2 - t2\n 28986: u64 [sp + 0x3a8] = a1\n 28990: a4 = u64 [sp + 0x2f0]\n 28994: a5 = a4 <u a0\n 28997: a2 = s1 ^ t1\n 29000: a1 = s1 <u t1\n 29003: a1 = a5 if a2 == 0\n 29006: a2 = u64 [sp + 0x3d8]\n 29010: t2 = ra - a2\n 29013: a3 = u64 [sp + 0x2e8]\n 29017: a2 = a3 <u t0\n 29020: t2 = t2 - a2\n 29023: a2 = a3 - t0\n 29026: a3 = a2 <u a1\n 29029: t0 = t2 - a3\n 29032: a3 = u64 [sp + 0x388]\n 29036: a3 = a4 - a3\n 29039: t2 = a2 - a1\n 29042: a2 = s1 - t1\n 29045: ra = a2 - a5\n 29048: a4 = a4 - a0\n 29051: a0 = u64 [sp + 0x398]\n 29055: a1 = u64 [sp + 0x380]\n 29059: t2 = a1 if a0 == 0\n 29062: a1 = u64 [sp + 0x3a0]\n 29066: t0 = a1 if a0 == 0\n 29069: a4 = a3 if a0 == 0\n 29072: u64 [sp + 0x2f0] = a4\n 29076: a1 = u64 [sp + 0x3a8]\n 29080: ra = a1 if a0 == 0\n 29083: a0 = clz t2\n 29085: a1 = a0 + 0x40\n 29088: a0 = clz t0\n 29090: a0 = a1 if t0 == 0\n 29093: a1 = t2 | t0\n 29096: a2 = clz ra\n 29098: a3 = clz a4\n 29100: a3 = a3 + 0x40\n 29103: a3 = a2 if ra != 0\n 29106: a2 = a3 + 0x80\n 29110: a0 = a2 if a1 == 0\n 29113: a2 = a2 <u a3\n 29116: a2 = 0 if a1 != 0\n 29118: a5 = u64 [sp + 0x330]\n 29122: s1 = a5 ^ a2\n 29125: a4 = a5 <u a2\n 29128: t1 = u64 [sp + 0x328]\n 29132: a3 = t1 <u a0\n 29135: a4 = a3 if s1 == 0\n 29138: s1 = a4 <u 0x1\n 29141: s1 = s1 + 0xffffffffffffffff\n 29144: a1 = -a4\n 29146: a5 = a5 - a2\n 29149: a3 = a5 - a3\n 29152: a5 = t1 - a0\n 29155: u64 [sp + 0x3a0] = a1\n 29159: a0 = a1 >u 0\n 29161: a1 = s1 >u 0\n 29163: t1 = s1\n 29165: a1 = a0 if s1 == 0\n 29168: a0 = a5 <u 0x100\n 29172: a0 = a0 ^ 0x1\n 29175: a2 = a3 >u 0\n 29177: a0 = a2 if a3 != 0\n 29180: a0 = a1 if a4 != 0\n 29183: s1 = u64 [sp + 0x2f0]\n 29187: a1 = s1 | t2\n 29190: a2 = ra | t0\n 29193: a1 = a1 | a2\n 29196: a1 = a1 <u 0x1\n 29199: a2 = u64 [sp + 0x320]\n 29203: a1 = a1 | a2\n 29206: a4 = a1 | a0\n 29209: u64 [sp + 0x2c0] = t0\n 29213: t0 = 0 if a4 != 0\n 29215: u64 [sp + 0x2e8] = t2\n 29219: a1 = t2\n 29221: a1 = 0 if a4 != 0\n 29223: u64 [sp + 0x2d0] = ra\n 29227: a2 = ra\n 29229: a2 = 0 if a4 != 0\n 29231: a0 = s1\n 29233: a0 = 0 if a4 != 0\n 29235: jump @192 if a4 != 0\n      : @185 (gas: 7)\n 29239: t2 = a5\n 29241: a4 = a5 ^ 0xff\n 29245: s1 = u64 [sp + 0x3a0]\n 29249: a4 = a4 | s1\n 29252: a5 = a3 | t1\n 29255: a4 = a4 | a5\n 29258: jump @192 if a4 == 0\n      : @186 (gas: 260)\n 29262: a1 = t2 + 0x1\n 29265: u64 [sp + 0x3a8] = a1\n 29269: a0 = a1 <u 0x1\n 29272: a0 = a0 + a3\n 29275: u64 [sp + 0x378] = a0\n 29279: a0 = a0 | a1\n 29282: a0 = a0 <u 0x1\n 29285: a0 = a0 + s1\n 29288: u64 [sp + 0x370] = a0\n 29292: a0 = a0 <u s1\n 29295: a0 = a0 + t1\n 29298: u64 [sp + 0x380] = a0\n 29302: t0 = 0xff - t2\n 29306: t2 = sp + 0x7ff\n 29310: t2 = t2 + 0x360\n 29314: a0 = u64 [sp + 0x2f0]\n 29318: u8 [t2 + 0x1e1] = a0\n 29322: u8 [t2 + 480] = 0\n 29326: u8 [t2 + 479] = 0\n 29330: u8 [t2 + 478] = 0\n 29334: u8 [t2 + 477] = 0\n 29338: u8 [t2 + 476] = 0\n 29342: u8 [t2 + 475] = 0\n 29346: u8 [t2 + 474] = 0\n 29350: u8 [t2 + 473] = 0\n 29354: u8 [t2 + 472] = 0\n 29358: u8 [t2 + 471] = 0\n 29362: u8 [t2 + 470] = 0\n 29366: u8 [t2 + 469] = 0\n 29370: u8 [t2 + 468] = 0\n 29374: u8 [t2 + 467] = 0\n 29378: u8 [t2 + 466] = 0\n 29382: u8 [t2 + 465] = 0\n 29386: u8 [t2 + 464] = 0\n 29390: u8 [t2 + 463] = 0\n 29394: u8 [t2 + 462] = 0\n 29398: u8 [t2 + 461] = 0\n 29402: u8 [t2 + 460] = 0\n 29406: u8 [t2 + 459] = 0\n 29410: u8 [t2 + 458] = 0\n 29414: u8 [t2 + 457] = 0\n 29418: u8 [t2 + 456] = 0\n 29422: u8 [t2 + 455] = 0\n 29426: u8 [t2 + 454] = 0\n 29430: u8 [t2 + 453] = 0\n 29434: u8 [t2 + 452] = 0\n 29438: u8 [t2 + 451] = 0\n 29442: u8 [t2 + 450] = 0\n 29446: u8 [t2 + 449] = 0\n 29450: a1 = u64 [sp + 0x2d0]\n 29454: u8 [t2 + 0x1e9] = a1\n 29458: a2 = a0 >> 0x38\n 29461: u64 [sp + 0x260] = a2\n 29465: u8 [t2 + 0x1e8] = a2\n 29469: a2 = a0 >> 0x30\n 29472: u64 [sp + 0x258] = a2\n 29476: u8 [t2 + 0x1e7] = a2\n 29480: a2 = a0 >> 0x28\n 29483: u64 [sp + 0x250] = a2\n 29487: u8 [t2 + 0x1e6] = a2\n 29491: a2 = a0 >> 0x20\n 29494: u64 [sp + 0x248] = a2\n 29498: u8 [t2 + 0x1e5] = a2\n 29502: a2 = a0 >> 0x18\n 29505: u64 [sp + 0x220] = a2\n 29509: u8 [t2 + 0x1e4] = a2\n 29513: a2 = a0 >> 0x10\n 29516: u64 [sp + 0x218] = a2\n 29520: u8 [t2 + 0x1e3] = a2\n 29524: a0 = a0 >> 0x8\n 29527: u64 [sp + 0x210] = a0\n 29531: u8 [t2 + 0x1e2] = a0\n 29535: a0 = u64 [sp + 0x2e8]\n 29539: u8 [t2 + 0x1f1] = a0\n 29543: a2 = a1 >> 0x38\n 29546: u64 [sp + 0x208] = a2\n 29550: u8 [t2 + 0x1f0] = a2\n 29554: a2 = a1 >> 0x30\n 29557: u64 [sp + 0x1d0] = a2\n 29561: u8 [t2 + 0x1ef] = a2\n 29565: a2 = a1 >> 0x28\n 29568: u64 [sp + 0x1c8] = a2\n 29572: u8 [t2 + 0x1ee] = a2\n 29576: a2 = a1 >> 0x20\n 29579: u64 [sp + 0x1c0] = a2\n 29583: u8 [t2 + 0x1ed] = a2\n 29587: a2 = a1 >> 0x18\n 29590: u64 [sp + 0x1b8] = a2\n 29594: u8 [t2 + 0x1ec] = a2\n 29598: a2 = a1 >> 0x10\n 29601: u64 [sp + 0x1b0] = a2\n 29605: u8 [t2 + 0x1eb] = a2\n 29609: a1 = a1 >> 0x8\n 29612: u64 [sp + 0x1a8] = a1\n 29616: u8 [t2 + 0x1ea] = a1\n 29620: ra = u64 [sp + 0x2c0]\n 29624: u8 [t2 + 0x1f9] = ra\n 29628: a1 = a0 >> 0x38\n 29631: u64 [sp + 0x1a0] = a1\n 29635: u8 [t2 + 0x1f8] = a1\n 29639: a1 = a0 >> 0x30\n 29642: u64 [sp + 0x198] = a1\n 29646: u8 [t2 + 0x1f7] = a1\n 29650: a1 = a0 >> 0x28\n 29653: u64 [sp + 0x190] = a1\n 29657: u8 [t2 + 0x1f6] = a1\n 29661: a1 = a0 >> 0x20\n 29664: u64 [sp + 0x188] = a1\n 29668: u8 [t2 + 0x1f5] = a1\n 29672: a1 = a0 >> 0x18\n 29675: u64 [sp + 0x180] = a1\n 29679: u8 [t2 + 0x1f4] = a1\n 29683: a1 = a0 >> 0x10\n 29686: u64 [sp + 0x358] = a1\n 29690: u8 [t2 + 0x1f3] = a1\n 29694: a0 = a0 >> 0x8\n 29697: u64 [sp + 0x350] = a0\n 29701: u8 [t2 + 0x1f2] = a0\n 29705: a0 = ra >> 0x38\n 29708: u64 [sp + 0x348] = a0\n 29712: u8 [t2 + 0x200] = a0\n 29716: a0 = ra >> 0x30\n 29719: u64 [sp + 0x318] = a0\n 29723: u8 [t2 + 0x1ff] = a0\n 29727: a0 = ra >> 0x28\n 29730: u64 [sp + 0x310] = a0\n 29734: u8 [t2 + 0x1fe] = a0\n 29738: a0 = ra >> 0x20\n 29741: u64 [sp + 0x308] = a0\n 29745: u8 [t2 + 0x1fd] = a0\n 29749: a0 = ra >> 0x18\n 29752: u64 [sp + 0x300] = a0\n 29756: u8 [t2 + 0x1fc] = a0\n 29760: a0 = ra >> 0x10\n 29763: u64 [sp + 0x2f8] = a0\n 29767: u8 [t2 + 0x1fb] = a0\n 29771: a0 = ra >> 0x8\n 29774: u64 [sp + 0x268] = a0\n 29778: u8 [t2 + 0x1fa] = a0\n 29782: a1 = t0 << 0x38\n 29785: a1 = a1 >> 0x3b\n 29788: a0 = sp + 0x7ff\n 29792: a0 = a0 + 0x541\n 29796: a1 = a0 - a1\n 29799: a2 = u8 [a1 + 0x19]\n 29802: a3 = u8 [a1 + 0x18]\n 29805: a4 = u8 [a1 + 0x1a]\n 29808: a5 = u8 [a1 + 0x1b]\n 29811: a2 = a2 << 0x8\n 29814: a2 = a2 | a3\n 29817: a4 = a4 << 0x10\n 29820: a5 = a5 << 0x18\n 29823: a4 = a4 | a5\n 29826: a2 = a2 | a4\n 29829: a3 = u8 [a1 + 0x1d]\n 29832: a4 = u8 [a1 + 0x1c]\n 29835: a5 = u8 [a1 + 0x1e]\n 29838: s1 = u8 [a1 + 0x1f]\n 29841: a3 = a3 << 0x8\n 29844: a3 = a3 | a4\n 29847: a5 = a5 << 0x10\n 29850: s1 = s1 << 0x18\n 29853: a5 = a5 | s1\n 29856: a3 = a3 | a5\n 29859: a3 = a3 << 0x20\n 29862: a2 = a2 | a3\n 29865: a3 = u8 [a1 + 0x11]\n 29868: a4 = u8 [a1 + 0x10]\n 29871: a5 = u8 [a1 + 0x12]\n 29874: s1 = u8 [a1 + 0x13]\n 29877: a3 = a3 << 0x8\n 29880: a3 = a3 | a4\n 29883: a5 = a5 << 0x10\n 29886: s1 = s1 << 0x18\n 29889: a5 = a5 | s1\n 29892: a3 = a3 | a5\n 29895: a4 = u8 [a1 + 0x15]\n 29898: a5 = u8 [a1 + 0x14]\n 29901: s1 = u8 [a1 + 0x16]\n 29904: a0 = u8 [a1 + 0x17]\n 29907: a4 = a4 << 0x8\n 29910: a4 = a4 | a5\n 29913: s1 = s1 << 0x10\n 29916: a0 = a0 << 0x18\n 29919: a0 = a0 | s1\n 29922: a0 = a0 | a4\n 29925: a0 = a0 << 0x20\n 29928: t1 = a0 | a3\n 29931: a0 = t0 & 0x7\n 29934: a4 = a2 << a0\n 29937: a5 = t1 >> 0x1\n 29940: t0 = a0 ^ 0x3f\n 29943: a5 = a5 >> t0\n 29946: a4 = a4 | a5\n 29949: u64 [sp + 0x3a0] = a4\n 29953: a4 = u8 [a1 + 0x9]\n 29956: a5 = u8 [a1 + 0x8]\n 29959: s1 = u8 [a1 + 0xa]\n 29962: a2 = u8 [a1 + 0xb]\n 29965: a4 = a4 << 0x8\n 29968: a4 = a4 | a5\n 29971: s1 = s1 << 0x10\n 29974: a2 = a2 << 0x18\n 29977: a2 = a2 | s1\n 29980: a2 = a2 | a4\n 29983: a4 = u8 [a1 + 0xd]\n 29986: a5 = u8 [a1 + 0xc]\n 29989: s1 = u8 [a1 + 0xe]\n 29992: a3 = u8 [a1 + 0xf]\n 29995: a4 = a4 << 0x8\n 29998: a4 = a4 | a5\n 30001: s1 = s1 << 0x10\n 30004: a3 = a3 << 0x18\n 30007: a3 = a3 | s1\n 30010: a3 = a3 | a4\n 30013: a3 = a3 << 0x20\n 30016: s1 = a3 | a2\n 30019: a2 = s1 >> 0x1\n 30022: a3 = a0 ^ 0xffffffffffffffff\n 30025: a2 = a2 >> a3\n 30028: a3 = t1 << a0\n 30031: a2 = a2 | a3\n 30034: u64 [sp + 0x398] = a2\n 30038: a2 = u8 [a1 + 0x1]\n 30041: a3 = u8 [a1]\n 30043: a4 = u8 [a1 + 0x2]\n 30046: a5 = u8 [a1 + 0x3]\n 30049: a2 = a2 << 0x8\n 30052: a2 = a2 | a3\n 30055: a4 = a4 << 0x10\n 30058: a5 = a5 << 0x18\n 30061: a4 = a4 | a5\n 30064: a2 = a2 | a4\n 30067: a3 = u8 [a1 + 0x5]\n 30070: a4 = u8 [a1 + 0x4]\n 30073: a5 = u8 [a1 + 0x6]\n 30076: a1 = u8 [a1 + 0x7]\n 30079: a3 = a3 << 0x8\n 30082: a3 = a3 | a4\n 30085: a4 = u64 [sp + 0x378]\n 30089: a5 = a5 << 0x10\n 30092: a1 = a1 << 0x18\n 30095: a1 = a1 | a5\n 30098: a1 = a1 | a3\n 30101: a1 = a1 << 0x20\n 30104: a1 = a1 | a2\n 30107: a2 = a1 >> 0x1\n 30110: a2 = a2 >> t0\n 30113: t0 = u64 [sp + 0x370]\n 30117: a3 = s1 << a0\n 30120: a5 = u64 [sp + 0x380]\n 30124: a2 = a2 | a3\n 30127: u64 [sp + 0x388] = a2\n 30131: a2 = a4 | a5\n 30134: a3 = u64 [sp + 0x3a8]\n 30138: a3 = a3 | t0\n 30141: a2 = a2 | a3\n 30144: a0 = a1 << a0\n 30147: u64 [sp + 0x390] = a0\n 30151: jump @190 if a2 == 0\n      : @187 (gas: 227)\n 30155: u64 [sp + 872] = 0\n 30159: u64 [sp + 864] = 0\n 30163: a0 = u64 [sp + 0x260]\n 30167: u8 [t2 + 0x188] = a0\n 30171: a0 = u64 [sp + 0x258]\n 30175: u8 [t2 + 0x187] = a0\n 30179: a0 = u64 [sp + 0x250]\n 30183: u8 [t2 + 0x186] = a0\n 30187: a0 = u64 [sp + 0x248]\n 30191: u8 [t2 + 0x185] = a0\n 30195: a0 = u64 [sp + 0x220]\n 30199: u8 [t2 + 0x184] = a0\n 30203: a0 = u64 [sp + 0x218]\n 30207: u8 [t2 + 0x183] = a0\n 30211: a0 = u64 [sp + 0x210]\n 30215: u8 [t2 + 0x182] = a0\n 30219: a0 = u64 [sp + 0x208]\n 30223: u8 [t2 + 0x190] = a0\n 30227: a0 = u64 [sp + 0x1d0]\n 30231: u8 [t2 + 0x18f] = a0\n 30235: a0 = u64 [sp + 0x1c8]\n 30239: u8 [t2 + 0x18e] = a0\n 30243: a0 = u64 [sp + 0x1c0]\n 30247: u8 [t2 + 0x18d] = a0\n 30251: a0 = u64 [sp + 0x1b8]\n 30255: u8 [t2 + 0x18c] = a0\n 30259: a0 = u64 [sp + 0x1b0]\n 30263: u8 [t2 + 0x18b] = a0\n 30267: a0 = u64 [sp + 0x1a8]\n 30271: u8 [t2 + 0x18a] = a0\n 30275: a0 = u64 [sp + 0x1a0]\n 30279: u8 [t2 + 0x198] = a0\n 30283: a0 = u64 [sp + 0x198]\n 30287: u8 [t2 + 0x197] = a0\n 30291: a0 = u64 [sp + 0x190]\n 30295: u8 [t2 + 0x196] = a0\n 30299: a0 = u64 [sp + 0x188]\n 30303: u8 [t2 + 0x195] = a0\n 30307: a0 = u64 [sp + 0x180]\n 30311: u8 [t2 + 0x194] = a0\n 30315: u8 [t2 + 448] = 0\n 30319: u8 [t2 + 447] = 0\n 30323: u8 [t2 + 446] = 0\n 30327: u8 [t2 + 445] = 0\n 30331: u8 [t2 + 444] = 0\n 30335: u8 [t2 + 443] = 0\n 30339: u8 [t2 + 442] = 0\n 30343: u8 [t2 + 441] = 0\n 30347: u8 [t2 + 440] = 0\n 30351: u8 [t2 + 439] = 0\n 30355: u8 [t2 + 438] = 0\n 30359: u8 [t2 + 437] = 0\n 30363: u8 [t2 + 436] = 0\n 30367: u8 [t2 + 435] = 0\n 30371: u8 [t2 + 434] = 0\n 30375: u8 [t2 + 433] = 0\n 30379: u8 [t2 + 432] = 0\n 30383: u8 [t2 + 431] = 0\n 30387: u8 [t2 + 430] = 0\n 30391: u8 [t2 + 429] = 0\n 30395: u8 [t2 + 428] = 0\n 30399: u8 [t2 + 427] = 0\n 30403: u8 [t2 + 426] = 0\n 30407: u8 [t2 + 425] = 0\n 30411: u8 [t2 + 424] = 0\n 30415: u8 [t2 + 423] = 0\n 30419: u8 [t2 + 422] = 0\n 30423: u8 [t2 + 421] = 0\n 30427: u8 [t2 + 420] = 0\n 30431: u8 [t2 + 419] = 0\n 30435: u8 [t2 + 418] = 0\n 30439: u8 [t2 + 417] = 0\n 30443: a0 = u64 [sp + 0x2f0]\n 30447: u8 [t2 + 0x181] = a0\n 30451: a0 = u64 [sp + 0x2d0]\n 30455: u8 [t2 + 0x189] = a0\n 30459: a0 = u64 [sp + 0x2e8]\n 30463: u8 [t2 + 0x191] = a0\n 30467: u8 [t2 + 0x199] = ra\n 30471: a0 = u64 [sp + 0x358]\n 30475: u8 [t2 + 0x193] = a0\n 30479: a0 = u64 [sp + 0x350]\n 30483: u8 [t2 + 0x192] = a0\n 30487: a0 = u64 [sp + 0x348]\n 30491: u8 [t2 + 0x1a0] = a0\n 30495: a0 = u64 [sp + 0x318]\n 30499: u8 [t2 + 0x19f] = a0\n 30503: a0 = u64 [sp + 0x310]\n 30507: u8 [t2 + 0x19e] = a0\n 30511: a0 = u64 [sp + 0x308]\n 30515: u8 [t2 + 0x19d] = a0\n 30519: a0 = u64 [sp + 0x300]\n 30523: u8 [t2 + 0x19c] = a0\n 30527: a0 = u64 [sp + 0x2f8]\n 30531: u8 [t2 + 0x19b] = a0\n 30535: a0 = u64 [sp + 0x268]\n 30539: u8 [t2 + 0x19a] = a0\n 30543: s1 = u64 [sp + 0x3a8]\n 30547: a0 = s1 << 0x38\n 30550: a0 = a0 >> 0x3b\n 30553: a1 = sp + 0x7ff\n 30557: a1 = a1 + 0x4e1\n 30561: a0 = a0 + a1\n 30564: a1 = u8 [a0 + 0x11]\n 30567: a2 = u8 [a0 + 0x10]\n 30570: a3 = u8 [a0 + 0x12]\n 30573: a4 = u8 [a0 + 0x13]\n 30576: a1 = a1 << 0x8\n 30579: a1 = a1 | a2\n 30582: a3 = a3 << 0x10\n 30585: a4 = a4 << 0x18\n 30588: a3 = a3 | a4\n 30591: a1 = a1 | a3\n 30594: a2 = u8 [a0 + 0x15]\n 30597: a3 = u8 [a0 + 0x14]\n 30600: a4 = u8 [a0 + 0x16]\n 30603: a5 = u8 [a0 + 0x17]\n 30606: a2 = a2 << 0x8\n 30609: a2 = a2 | a3\n 30612: a4 = a4 << 0x10\n 30615: a5 = a5 << 0x18\n 30618: a4 = a4 | a5\n 30621: a2 = a2 | a4\n 30624: a2 = a2 << 0x20\n 30627: t0 = a2 | a1\n 30630: a1 = s1 & 0x7\n 30633: t1 = t0 >> a1\n 30636: a2 = u8 [a0 + 0x19]\n 30639: a4 = u8 [a0 + 0x18]\n 30642: s1 = u8 [a0 + 0x1a]\n 30645: a3 = u8 [a0 + 0x1b]\n 30648: a2 = a2 << 0x8\n 30651: a2 = a2 | a4\n 30654: s1 = s1 << 0x10\n 30657: a3 = a3 << 0x18\n 30660: a3 = a3 | s1\n 30663: a2 = a2 | a3\n 30666: a3 = u8 [a0 + 0x1d]\n 30669: a4 = u8 [a0 + 0x1c]\n 30672: s1 = u8 [a0 + 0x1e]\n 30675: a5 = u8 [a0 + 0x1f]\n 30678: a3 = a3 << 0x8\n 30681: a3 = a3 | a4\n 30684: s1 = s1 << 0x10\n 30687: a5 = a5 << 0x18\n 30690: a5 = a5 | s1\n 30693: a3 = a3 | a5\n 30696: a3 = a3 << 0x20\n 30699: t2 = a3 | a2\n 30702: a3 = t2 << 0x1\n 30705: ra = a1 ^ 0x3f\n 30708: a3 = a3 << ra\n 30711: a2 = t1 | a3\n 30714: u64 [sp + 0x358] = a2\n 30718: a3 = u8 [a0 + 0x9]\n 30721: a4 = u8 [a0 + 0x8]\n 30724: a5 = u8 [a0 + 0xa]\n 30727: a2 = u8 [a0 + 0xb]\n 30730: a3 = a3 << 0x8\n 30733: a3 = a3 | a4\n 30736: a5 = a5 << 0x10\n 30739: a2 = a2 << 0x18\n 30742: a2 = a2 | a5\n 30745: a2 = a2 | a3\n 30748: a3 = u8 [a0 + 0xd]\n 30751: a4 = u8 [a0 + 0xc]\n 30754: a5 = u8 [a0 + 0xe]\n 30757: s1 = u8 [a0 + 0xf]\n 30760: a3 = a3 << 0x8\n 30763: a3 = a3 | a4\n 30766: a5 = a5 << 0x10\n 30769: s1 = s1 << 0x18\n 30772: a5 = a5 | s1\n 30775: a3 = a3 | a5\n 30778: a3 = a3 << 0x20\n 30781: t1 = a3 | a2\n 30784: a2 = t1 >> a1\n 30787: t0 = t0 << 0x1\n 30790: a3 = a1 ^ 0xffffffffffffffff\n 30793: a3 = t0 << a3\n 30796: t0 = a2 | a3\n 30799: a2 = u8 [a0 + 0x1]\n 30802: a4 = u8 [a0]\n 30804: s1 = u8 [a0 + 0x2]\n 30807: a5 = u8 [a0 + 0x3]\n 30810: a2 = a2 << 0x8\n 30813: a2 = a2 | a4\n 30816: s1 = s1 << 0x10\n 30819: a5 = a5 << 0x18\n 30822: a5 = a5 | s1\n 30825: a2 = a2 | a5\n 30828: a4 = u8 [a0 + 0x5]\n 30831: a5 = u8 [a0 + 0x4]\n 30834: s1 = u8 [a0 + 0x6]\n 30837: a0 = u8 [a0 + 0x7]\n 30840: a4 = a4 << 0x8\n 30843: a4 = a4 | a5\n 30846: a5 = u64 [sp + 0x368]\n 30850: s1 = s1 << 0x10\n 30853: a0 = a0 << 0x18\n 30856: a0 = a0 | s1\n 30859: a0 = a0 | a4\n 30862: a0 = a0 << 0x20\n 30865: a0 = a0 | a2\n 30868: a0 = a0 >> a1\n 30871: t1 = t1 << 0x1\n 30874: a2 = t1 << ra\n 30877: a3 = a0 | a2\n 30880: t2 = t2 >> a1\n 30883: a1 = u64 [sp + 0x3c0]\n 30887: a0 = a1 <u 0x1\n 30890: a2 = u64 [sp + 0x3d0]\n 30894: a0 = a2 - a0\n 30897: u64 [sp + 0x310] = a0\n 30901: a0 = a1 | a2\n 30904: a0 = a0 <u 0x1\n 30907: a2 = u64 [sp + 0x3c8]\n 30911: a4 = a2 - a0\n 30914: u64 [sp + 0x308] = a4\n 30918: a0 = a2 <u a0\n 30921: a2 = u64 [sp + 0x3d8]\n 30925: a2 = a2 - a0\n 30928: u64 [sp + 0x300] = a2\n 30932: a1 = a1 + 0xffffffffffffffff\n 30935: u64 [sp + 0x2f8] = a1\n 30939: s1 = u64 [sp + 0x3a0]\n 30943: fallthrough\n      : @188 (gas: 104)\n 30944: u64 [sp + 0x368] = a5\n 30948: u64 [sp + 792] = 0\n 30952: a0 = a3 >> 0x3f\n 30955: a2 = t0 << 0x1\n 30958: t1 = a2 | a0\n 30961: a3 = a3 << 0x1\n 30964: a2 = s1 >> 0x3f\n 30967: a2 = a2 | a3\n 30970: u64 [sp + 0x350] = a2\n 30974: a0 = u64 [sp + 0x310]\n 30978: a4 = a0 ^ t1\n 30981: a1 = a0 <u t1\n 30984: a0 = u64 [sp + 0x2f8]\n 30988: a5 = a0 <u a2\n 30991: a5 = a1 if a4 != 0\n 30994: t2 = t2 << 0x1\n 30997: a3 = t0\n 30999: t0 = u64 [sp + 0x358]\n 31003: a1 = t0 >> 0x3f\n 31006: ra = t2 | a1\n 31009: u64 [sp + 0x348] = ra\n 31013: a3 = a3 >> 0x3f\n 31016: t0 = t0 << 0x1\n 31019: t2 = t0 | a3\n 31022: a4 = s1 << 0x1\n 31025: a0 = u64 [sp + 0x398]\n 31029: s1 = a0 >> 0x3f\n 31032: a4 = a4 | s1\n 31035: s1 = a0 << 0x1\n 31038: a0 = u64 [sp + 0x388]\n 31042: a1 = a0 >> 0x3f\n 31045: a1 = a1 | s1\n 31048: s1 = a0 << 0x1\n 31051: a0 = u64 [sp + 0x390]\n 31055: a2 = a0 >> 0x3f\n 31058: a2 = a2 | s1\n 31061: s1 = a0 << 0x1\n 31064: a0 = u64 [sp + 0x368]\n 31068: a0 = a0 | s1\n 31071: u64 [sp + 0x390] = a0\n 31075: a3 = u64 [sp + 0x360]\n 31079: a2 = a2 | a3\n 31082: u64 [sp + 0x388] = a2\n 31086: a1 = a1 | a3\n 31089: u64 [sp + 0x398] = a1\n 31093: a3 = a3 | a4\n 31096: u64 [sp + 0x3a0] = a3\n 31100: a0 = u64 [sp + 0x308]\n 31104: a1 = a0 - t2\n 31107: a1 = a1 <u a5\n 31110: a2 = a0 <u t2\n 31113: a0 = u64 [sp + 0x300]\n 31117: a4 = a0 - ra\n 31120: a4 = a4 - a2\n 31123: a4 = a4 - a1\n 31126: a5 = a4 >>a 0x3f\n 31129: a1 = u64 [sp + 0x3c0]\n 31133: ra = a5 & a1\n 31136: a2 = u64 [sp + 0x3d0]\n 31140: a2 = a2 & a5\n 31143: a4 = t1 ^ a2\n 31146: s1 = t1 <u a2\n 31149: a1 = u64 [sp + 0x350]\n 31153: t0 = a1 <u ra\n 31156: s1 = t0 if a4 == 0\n 31159: a4 = u64 [sp + 0x3c8]\n 31163: a4 = a4 & a5\n 31166: a0 = t2 - a4\n 31169: a3 = a0 - s1\n 31172: u64 [sp + 0x358] = a3\n 31176: a3 = a0 <u s1\n 31179: a4 = t2 <u a4\n 31182: s1 = u64 [sp + 0x3d8]\n 31186: s1 = s1 & a5\n 31189: a0 = u64 [sp + 0x348]\n 31193: s1 = a0 - s1\n 31196: s1 = s1 - a4\n 31199: t2 = s1 - a3\n 31202: a0 = t1 - a2\n 31205: t0 = a0 - t0\n 31208: a3 = a1 - ra\n 31211: a4 = u64 [sp + 0x3a8]\n 31215: a1 = u64 [sp + 0x378]\n 31219: a0 = a4 | a1\n 31222: a0 = a0 <u 0x1\n 31225: a2 = u64 [sp + 0x370]\n 31229: s1 = a2 <u a0\n 31232: a0 = a2 - a0\n 31235: a2 = a4 <u 0x1\n 31238: a1 = a1 - a2\n 31241: a2 = u64 [sp + 0x380]\n 31245: a2 = a2 - s1\n 31248: s1 = u64 [sp + 0x3a0]\n 31252: a4 = a4 + 0xffffffffffffffff\n 31255: u64 [sp + 0x380] = a2\n 31259: u64 [sp + 0x378] = a1\n 31263: a1 = a1 | a2\n 31266: u64 [sp + 0x3a8] = a4\n 31270: a2 = a4 | a0\n 31273: a1 = a1 | a2\n 31276: a5 = a5 & 0x1\n 31279: u64 [sp + 0x370] = a0\n 31283: u64 [sp + 864] = 0\n 31287: jump @188 if a1 != 0\n      : @189 (gas: 1)\n 31291: jump @191\n      : @190 (gas: 4)\n 31293: a5 = 0\n 31295: u64 [sp + 792] = 0\n 31299: s1 = u64 [sp + 0x3a0]\n 31303: fallthrough\n      : @191 (gas: 19)\n 31304: a2 = u64 [sp + 0x398]\n 31308: a0 = a2 >> 0x3f\n 31311: a1 = s1 << 0x1\n 31314: a3 = a1 | a0\n 31317: a4 = u64 [sp + 0x388]\n 31321: a0 = a4 >> 0x3f\n 31324: a1 = a2 << 0x1\n 31327: a1 = a1 | a0\n 31330: a0 = u64 [sp + 0x390]\n 31334: a2 = a0 >> 0x3f\n 31337: a4 = a4 << 0x1\n 31340: a0 = a0 << 0x1\n 31343: a0 = a0 | a5\n 31346: a5 = u64 [sp + 0x318]\n 31350: a2 = a2 | a5\n 31353: a2 = a2 | a4\n 31356: a1 = a1 | a5\n 31359: t0 = a5 | a3\n 31362: fallthrough\n      : @192 (gas: 89)\n 31363: u64 [sp + 0x398] = a1\n 31367: u64 [sp + 0x3a0] = t0\n 31371: t0 = u64 [sp + 0x3c8]\n 31375: a3 = t0 >u 0\n 31377: t1 = u64 [sp + 0x3d8]\n 31381: ra = t1 >u 0\n 31383: ra = a3 if t1 == 0\n 31386: t2 = u64 [sp + 0x3c0]\n 31390: a3 = t2 mulhu a0\n 31393: a1 = u64 [sp + 0x3d0]\n 31397: a4 = a1 * a0\n 31400: a3 = a3 + a4\n 31403: a4 = a3 <u a4\n 31406: a5 = a1 mulhu a0\n 31409: a5 = a5 + a4\n 31412: a4 = t2 * a2\n 31415: a3 = a3 + a4\n 31418: u64 [sp + 0x3a8] = a3\n 31422: a4 = a3 <u a4\n 31425: s1 = t2 mulhu a2\n 31428: a4 = a4 + s1\n 31431: a4 = a4 + a5\n 31434: a5 = a4 <u a5\n 31437: s1 = a1 mulhu a2\n 31440: a5 = a5 + s1\n 31443: s1 = a1 * a2\n 31446: a4 = a4 + s1\n 31449: s1 = a4 <u s1\n 31452: a5 = a5 + s1\n 31455: u64 [sp + 0x390] = a5\n 31459: a3 = u64 [sp + 0x398]\n 31463: a1 = a3 * a1\n 31466: a5 = a3 mulhu t2\n 31469: a5 = a5 + a1\n 31472: a1 = u64 [sp + 0x3a0]\n 31476: s1 = a1 * t2\n 31479: a5 = a5 + s1\n 31482: s1 = a0 mulhu t0\n 31485: a1 = a0 * t1\n 31488: a1 = a1 + s1\n 31491: a2 = a2 * t0\n 31494: a1 = a1 + a2\n 31497: a1 = a1 + a5\n 31500: a2 = a3 * t2\n 31503: a5 = a0 * t0\n 31506: a5 = a5 + a2\n 31509: a2 = a5 <u a2\n 31512: a1 = a1 + a2\n 31515: a5 = a5 + a4\n 31518: a2 = a5 <u a4\n 31521: a3 = u64 [sp + 0x390]\n 31525: a1 = a1 + a3\n 31528: a1 = a1 + a2\n 31531: a0 = t2 * a0\n 31534: a2 = u64 [sp + 0x2c0]\n 31538: t0 = a2 - a1\n 31541: t2 = u64 [sp + 0x2d0]\n 31545: a1 = u64 [sp + 0x3a8]\n 31549: a2 = t2 ^ a1\n 31552: a4 = t2 <u a1\n 31555: t1 = a1\n 31557: a3 = u64 [sp + 0x2f0]\n 31561: s1 = a3 <u a0\n 31564: a4 = s1 if a2 == 0\n 31567: a1 = u64 [sp + 0x2e8]\n 31571: a2 = a1 <u a5\n 31574: a5 = a1 - a5\n 31577: a1 = a5 <u a4\n 31580: a1 = a1 + a2\n 31583: t0 = t0 - a1\n 31586: a5 = a5 - a4\n 31589: a1 = t2 - t1\n 31592: s1 = a1 - s1\n 31595: a1 = u64 [sp + 0x1d8]\n 31599: ra = 0 if a1 == 0\n 31601: t2 = a3 - a0\n 31604: u64 [sp + 0x268] = ra\n 31608: u64 [sp + 0x2f0] = t2\n 31612: u64 [sp + 0x2e8] = t0\n 31616: u64 [sp + 0x2f8] = a5\n 31620: u64 [sp + 0x2c0] = s1\n 31624: a0 = s1 * t2\n 31627: a1 = t2 mulhu t2\n 31630: a1 = a1 + a0\n 31633: a2 = a1 <u a0\n 31636: a3 = s1 mulhu t2\n 31639: a2 = a2 + a3\n 31642: a1 = a1 + a0\n 31645: jump @202 if ra != 0\n      : @193 (gas: 90)\n 31649: u64 [sp + 0x2d0] = a1\n 31653: a0 = a1 <u a0\n 31656: a0 = a0 + a3\n 31659: a0 = a0 + a2\n 31662: a1 = s1 * s1\n 31665: a3 = a1 + a0\n 31668: a4 = t2 * a5\n 31671: u64 [sp + 0x3a0] = a4\n 31675: a4 = a4 + a4\n 31678: t1 = a3 + a4\n 31681: ra = t1 <u a3\n 31684: u64 [sp + 0x3a8] = ra\n 31688: a1 = a3 <u a1\n 31691: a0 = a0 <u a2\n 31694: a2 = s1 mulhu s1\n 31697: a0 = a0 + a2\n 31700: a0 = a0 + a1\n 31703: a1 = s1 * a5\n 31706: a2 = t2 mulhu a5\n 31709: a3 = a2 + a1\n 31712: s1 = t2 * t0\n 31715: a3 = a3 + s1\n 31718: a1 = a1 + a2\n 31721: a1 = a1 + s1\n 31724: a1 = a1 + a3\n 31727: a2 = u64 [sp + 0x3a0]\n 31731: a2 = a4 <u a2\n 31734: a1 = a1 + a2\n 31737: a2 = u64 [sp + 0x3a8]\n 31741: a0 = a0 + a2\n 31744: a1 = a1 + a0\n 31747: a0 = t2 * t2\n 31750: u64 [sp + 0x268] = a0\n 31754: a3 = a0\n 31756: a2 = clz a1\n 31758: a0 = clz t1\n 31760: a0 = a0 + 0x40\n 31763: a0 = a2 if a1 != 0\n 31766: a4 = t1 | a1\n 31769: a5 = u64 [sp + 0x2d0]\n 31773: a2 = clz a5\n 31775: a3 = clz a3\n 31777: a3 = a3 + 0x40\n 31780: a3 = a2 if a5 != 0\n 31783: a2 = a3 + 0x80\n 31787: a0 = a2 if a4 == 0\n 31790: a2 = a2 <u a3\n 31793: a2 = 0 if a4 != 0\n 31795: s1 = u64 [sp + 0x328]\n 31799: t0 = s1 <u a0\n 31802: a3 = u64 [sp + 0x330]\n 31806: a4 = a3 ^ a2\n 31809: a5 = a3 <u a2\n 31812: a5 = t0 if a4 == 0\n 31815: a4 = a5 <u 0x1\n 31818: a4 = a4 + 0xffffffffffffffff\n 31821: u64 [sp + 0x3a0] = a4\n 31825: ra = -a5\n 31827: a4 = s1 - a0\n 31830: s1 = a3 - a2\n 31833: a3 = a1\n 31835: u64 [sp + 0x258] = a1\n 31839: s1 = s1 - t0\n 31842: t0 = u64 [sp + 0x3a0]\n 31846: a0 = s1 >u 0\n 31848: u64 [sp + 0x398] = a4\n 31852: a1 = a4 <u 0x100\n 31856: a1 = a1 ^ 0x1\n 31859: a1 = a0 if s1 != 0\n 31862: a0 = ra >u 0\n 31864: a2 = t0 >u 0\n 31866: a2 = a0 if t0 == 0\n 31869: a2 = a1 if a5 == 0\n 31872: a4 = u64 [sp + 0x2d0]\n 31876: a0 = a4 | a3\n 31879: a5 = u64 [sp + 0x268]\n 31883: a1 = a5 | t1\n 31886: a0 = a0 | a1\n 31889: a0 = a0 <u 0x1\n 31892: a1 = u64 [sp + 0x320]\n 31896: a0 = a0 | a1\n 31899: a0 = a0 | a2\n 31902: a3 = 0 if a0 != 0\n 31904: u64 [sp + 0x260] = t1\n 31908: a1 = t1\n 31910: a1 = 0 if a0 != 0\n 31912: a2 = a4\n 31914: a2 = 0 if a0 != 0\n 31916: a5 = 0 if a0 != 0\n 31918: jump @195 if a0 == 0\n      : @194 (gas: 1)\n 31921: jump @223\n      : @195 (gas: 6)\n 31924: t1 = u64 [sp + 0x398]\n 31928: a0 = t1 ^ 0xff\n 31932: a0 = a0 | ra\n 31935: a4 = s1 | t0\n 31938: a0 = a0 | a4\n 31941: jump @197 if a0 != 0\n      : @196 (gas: 1)\n 31944: jump @223\n      : @197 (gas: 257)\n 31947: a1 = t1 + 0x1\n 31950: u64 [sp + 0x3a8] = a1\n 31954: a0 = a1 <u 0x1\n 31957: a0 = a0 + s1\n 31960: u64 [sp + 0x380] = a0\n 31964: a0 = a0 | a1\n 31967: a0 = a0 <u 0x1\n 31970: a0 = a0 + ra\n 31973: u64 [sp + 0x370] = a0\n 31977: a0 = a0 <u ra\n 31980: a0 = a0 + t0\n 31983: u64 [sp + 0x378] = a0\n 31987: t0 = 0xff - t1\n 31991: a0 = u64 [sp + 0x268]\n 31995: u8 [sp + 0x6c0] = a0\n 31999: u8 [sp + 1727] = 0\n 32003: u8 [sp + 1726] = 0\n 32007: u8 [sp + 1725] = 0\n 32011: u8 [sp + 1724] = 0\n 32015: u8 [sp + 1723] = 0\n 32019: u8 [sp + 1722] = 0\n 32023: u8 [sp + 1721] = 0\n 32027: u8 [sp + 1720] = 0\n 32031: u8 [sp + 1719] = 0\n 32035: u8 [sp + 1718] = 0\n 32039: u8 [sp + 1717] = 0\n 32043: u8 [sp + 1716] = 0\n 32047: u8 [sp + 1715] = 0\n 32051: u8 [sp + 1714] = 0\n 32055: u8 [sp + 1713] = 0\n 32059: u8 [sp + 1712] = 0\n 32063: u8 [sp + 1711] = 0\n 32067: u8 [sp + 1710] = 0\n 32071: u8 [sp + 1709] = 0\n 32075: u8 [sp + 1708] = 0\n 32079: u8 [sp + 1707] = 0\n 32083: u8 [sp + 1706] = 0\n 32087: u8 [sp + 1705] = 0\n 32091: u8 [sp + 1704] = 0\n 32095: u8 [sp + 1703] = 0\n 32099: u8 [sp + 1702] = 0\n 32103: u8 [sp + 1701] = 0\n 32107: u8 [sp + 1700] = 0\n 32111: u8 [sp + 1699] = 0\n 32115: u8 [sp + 1698] = 0\n 32119: u8 [sp + 1697] = 0\n 32123: u8 [sp + 1696] = 0\n 32127: a1 = u64 [sp + 0x2d0]\n 32131: u8 [sp + 0x6c8] = a1\n 32135: a2 = a0 >> 0x38\n 32138: u64 [sp + 0x220] = a2\n 32142: u8 [sp + 0x6c7] = a2\n 32146: a2 = a0 >> 0x30\n 32149: u64 [sp + 0x218] = a2\n 32153: u8 [sp + 0x6c6] = a2\n 32157: a2 = a0 >> 0x28\n 32160: u64 [sp + 0x210] = a2\n 32164: u8 [sp + 0x6c5] = a2\n 32168: a2 = a0 >> 0x20\n 32171: u64 [sp + 0x208] = a2\n 32175: u8 [sp + 0x6c4] = a2\n 32179: a2 = a0 >> 0x18\n 32182: u64 [sp + 0x1d0] = a2\n 32186: u8 [sp + 0x6c3] = a2\n 32190: a2 = a0 >> 0x10\n 32193: u64 [sp + 0x1c8] = a2\n 32197: u8 [sp + 0x6c2] = a2\n 32201: a0 = a0 >> 0x8\n 32204: u64 [sp + 0x1c0] = a0\n 32208: u8 [sp + 0x6c1] = a0\n 32212: ra = u64 [sp + 0x260]\n 32216: u8 [sp + 0x6d0] = ra\n 32220: a0 = a1 >> 0x38\n 32223: u64 [sp + 0x1b8] = a0\n 32227: u8 [sp + 0x6cf] = a0\n 32231: a0 = a1 >> 0x30\n 32234: u64 [sp + 0x1b0] = a0\n 32238: u8 [sp + 0x6ce] = a0\n 32242: a0 = a1 >> 0x28\n 32245: u64 [sp + 0x1a8] = a0\n 32249: u8 [sp + 0x6cd] = a0\n 32253: a0 = a1 >> 0x20\n 32256: u64 [sp + 0x1a0] = a0\n 32260: u8 [sp + 0x6cc] = a0\n 32264: a0 = a1 >> 0x18\n 32267: u64 [sp + 0x198] = a0\n 32271: u8 [sp + 0x6cb] = a0\n 32275: a0 = a1 >> 0x10\n 32278: u64 [sp + 0x190] = a0\n 32282: u8 [sp + 0x6ca] = a0\n 32286: a1 = a1 >> 0x8\n 32289: u64 [sp + 0x188] = a1\n 32293: u8 [sp + 0x6c9] = a1\n 32297: t2 = u64 [sp + 0x258]\n 32301: u8 [sp + 0x6d8] = t2\n 32305: a0 = ra >> 0x38\n 32308: u64 [sp + 0x180] = a0\n 32312: u8 [sp + 0x6d7] = a0\n 32316: a0 = ra >> 0x30\n 32319: u64 [sp + 0x178] = a0\n 32323: u8 [sp + 0x6d6] = a0\n 32327: a0 = ra >> 0x28\n 32330: u64 [sp + 0x170] = a0\n 32334: u8 [sp + 0x6d5] = a0\n 32338: a0 = ra >> 0x20\n 32341: u64 [sp + 0x168] = a0\n 32345: u8 [sp + 0x6d4] = a0\n 32349: a0 = ra >> 0x18\n 32352: u64 [sp + 0x160] = a0\n 32356: u8 [sp + 0x6d3] = a0\n 32360: a0 = ra >> 0x10\n 32363: u64 [sp + 0x358] = a0\n 32367: u8 [sp + 0x6d2] = a0\n 32371: a0 = ra >> 0x8\n 32374: u64 [sp + 0x350] = a0\n 32378: u8 [sp + 0x6d1] = a0\n 32382: a0 = t2 >> 0x38\n 32385: u64 [sp + 0x348] = a0\n 32389: u8 [sp + 0x6df] = a0\n 32393: a0 = t2 >> 0x30\n 32396: u64 [sp + 0x318] = a0\n 32400: u8 [sp + 0x6de] = a0\n 32404: a0 = t2 >> 0x28\n 32407: u64 [sp + 0x310] = a0\n 32411: u8 [sp + 0x6dd] = a0\n 32415: a0 = t2 >> 0x20\n 32418: u64 [sp + 0x308] = a0\n 32422: u8 [sp + 0x6dc] = a0\n 32426: a0 = t2 >> 0x18\n 32429: u64 [sp + 0x300] = a0\n 32433: u8 [sp + 0x6db] = a0\n 32437: a0 = t2 >> 0x10\n 32440: u64 [sp + 0x250] = a0\n 32444: u8 [sp + 0x6da] = a0\n 32448: a0 = t2 >> 0x8\n 32451: u64 [sp + 0x248] = a0\n 32455: u8 [sp + 0x6d9] = a0\n 32459: a0 = t0 << 0x38\n 32462: a0 = a0 >> 0x3b\n 32465: a2 = sp + 0x6c0\n 32469: a2 = a2 - a0\n 32472: a0 = u8 [a2 + 0x19]\n 32475: a3 = u8 [a2 + 0x18]\n 32478: a4 = u8 [a2 + 0x1a]\n 32481: a5 = u8 [a2 + 0x1b]\n 32484: a0 = a0 << 0x8\n 32487: a0 = a0 | a3\n 32490: a4 = a4 << 0x10\n 32493: a5 = a5 << 0x18\n 32496: a4 = a4 | a5\n 32499: a0 = a0 | a4\n 32502: a3 = u8 [a2 + 0x1d]\n 32505: a4 = u8 [a2 + 0x1c]\n 32508: a5 = u8 [a2 + 0x1e]\n 32511: s1 = u8 [a2 + 0x1f]\n 32514: a3 = a3 << 0x8\n 32517: a3 = a3 | a4\n 32520: a5 = a5 << 0x10\n 32523: s1 = s1 << 0x18\n 32526: a5 = a5 | s1\n 32529: a3 = a3 | a5\n 32532: a3 = a3 << 0x20\n 32535: a3 = a3 | a0\n 32538: a0 = u8 [a2 + 0x11]\n 32541: a4 = u8 [a2 + 0x10]\n 32544: a5 = u8 [a2 + 0x12]\n 32547: s1 = u8 [a2 + 0x13]\n 32550: a0 = a0 << 0x8\n 32553: a0 = a0 | a4\n 32556: a5 = a5 << 0x10\n 32559: s1 = s1 << 0x18\n 32562: a5 = a5 | s1\n 32565: a0 = a0 | a5\n 32568: a4 = u8 [a2 + 0x15]\n 32571: a5 = u8 [a2 + 0x14]\n 32574: s1 = u8 [a2 + 0x16]\n 32577: a1 = u8 [a2 + 0x17]\n 32580: a4 = a4 << 0x8\n 32583: a4 = a4 | a5\n 32586: s1 = s1 << 0x10\n 32589: a1 = a1 << 0x18\n 32592: a1 = a1 | s1\n 32595: a1 = a1 | a4\n 32598: a1 = a1 << 0x20\n 32601: t1 = a1 | a0\n 32604: a1 = t0 & 0x7\n 32607: a0 = a3 << a1\n 32610: a5 = t1 >> 0x1\n 32613: t0 = a1 ^ 0x3f\n 32616: a5 = a5 >> t0\n 32619: a0 = a0 | a5\n 32622: u64 [sp + 0x3a0] = a0\n 32626: a0 = u8 [a2 + 0x9]\n 32629: a5 = u8 [a2 + 0x8]\n 32632: s1 = u8 [a2 + 0xa]\n 32635: a3 = u8 [a2 + 0xb]\n 32638: a0 = a0 << 0x8\n 32641: a0 = a0 | a5\n 32644: s1 = s1 << 0x10\n 32647: a3 = a3 << 0x18\n 32650: a3 = a3 | s1\n 32653: a0 = a0 | a3\n 32656: a3 = u8 [a2 + 0xd]\n 32659: a5 = u8 [a2 + 0xc]\n 32662: s1 = u8 [a2 + 0xe]\n 32665: a4 = u8 [a2 + 0xf]\n 32668: a3 = a3 << 0x8\n 32671: a3 = a3 | a5\n 32674: s1 = s1 << 0x10\n 32677: a4 = a4 << 0x18\n 32680: a4 = a4 | s1\n 32683: a3 = a3 | a4\n 32686: a3 = a3 << 0x20\n 32689: s1 = a3 | a0\n 32692: a0 = s1 >> 0x1\n 32695: a3 = a1 ^ 0xffffffffffffffff\n 32698: a0 = a0 >> a3\n 32701: a3 = t1 << a1\n 32704: a0 = a0 | a3\n 32707: u64 [sp + 0x398] = a0\n 32711: a0 = u8 [a2 + 0x1]\n 32714: a3 = u8 [a2]\n 32716: a4 = u8 [a2 + 0x2]\n 32719: a5 = u8 [a2 + 0x3]\n 32722: a0 = a0 << 0x8\n 32725: a0 = a0 | a3\n 32728: a4 = a4 << 0x10\n 32731: a5 = a5 << 0x18\n 32734: a4 = a4 | a5\n 32737: a0 = a0 | a4\n 32740: a3 = u8 [a2 + 0x5]\n 32743: a4 = u8 [a2 + 0x4]\n 32746: a5 = u8 [a2 + 0x6]\n 32749: a2 = u8 [a2 + 0x7]\n 32752: a3 = a3 << 0x8\n 32755: a3 = a3 | a4\n 32758: a5 = a5 << 0x10\n 32761: a2 = a2 << 0x18\n 32764: a2 = a2 | a5\n 32767: a5 = u64 [sp + 0x378]\n 32771: a2 = a2 | a3\n 32774: a2 = a2 << 0x20\n 32777: a0 = a0 | a2\n 32780: a2 = a0 >> 0x1\n 32783: a2 = a2 >> t0\n 32786: t0 = u64 [sp + 0x370]\n 32790: a3 = s1 << a1\n 32793: a4 = u64 [sp + 0x380]\n 32797: a2 = a2 | a3\n 32800: u64 [sp + 0x388] = a2\n 32804: a2 = a4 | a5\n 32807: a3 = u64 [sp + 0x3a8]\n 32811: a3 = a3 | t0\n 32814: a2 = a2 | a3\n 32817: a0 = a0 << a1\n 32820: u64 [sp + 0x390] = a0\n 32824: jump @199 if a2 != 0\n      : @198 (gas: 1)\n 32827: jump @221\n      : @199 (gas: 224)\n 32830: u64 [sp + 872] = 0\n 32834: u64 [sp + 864] = 0\n 32838: a0 = u64 [sp + 0x220]\n 32842: u8 [sp + 0x667] = a0\n 32846: a0 = u64 [sp + 0x218]\n 32850: u8 [sp + 0x666] = a0\n 32854: a0 = u64 [sp + 0x210]\n 32858: u8 [sp + 0x665] = a0\n 32862: a0 = u64 [sp + 0x208]\n 32866: u8 [sp + 0x664] = a0\n 32870: a0 = u64 [sp + 0x1d0]\n 32874: u8 [sp + 0x663] = a0\n 32878: a0 = u64 [sp + 0x1c8]\n 32882: u8 [sp + 0x662] = a0\n 32886: a0 = u64 [sp + 0x1c0]\n 32890: u8 [sp + 0x661] = a0\n 32894: a0 = u64 [sp + 0x1b8]\n 32898: u8 [sp + 0x66f] = a0\n 32902: a0 = u64 [sp + 0x1b0]\n 32906: u8 [sp + 0x66e] = a0\n 32910: a0 = u64 [sp + 0x1a8]\n 32914: u8 [sp + 0x66d] = a0\n 32918: a0 = u64 [sp + 0x1a0]\n 32922: u8 [sp + 0x66c] = a0\n 32926: a0 = u64 [sp + 0x198]\n 32930: u8 [sp + 0x66b] = a0\n 32934: a0 = u64 [sp + 0x190]\n 32938: u8 [sp + 0x66a] = a0\n 32942: a0 = u64 [sp + 0x188]\n 32946: u8 [sp + 0x669] = a0\n 32950: a0 = u64 [sp + 0x180]\n 32954: u8 [sp + 0x677] = a0\n 32958: a0 = u64 [sp + 0x178]\n 32962: u8 [sp + 0x676] = a0\n 32966: a0 = u64 [sp + 0x170]\n 32970: u8 [sp + 0x675] = a0\n 32974: a0 = u64 [sp + 0x168]\n 32978: u8 [sp + 0x674] = a0\n 32982: a0 = u64 [sp + 0x160]\n 32986: u8 [sp + 0x673] = a0\n 32990: u8 [sp + 1695] = 0\n 32994: u8 [sp + 1694] = 0\n 32998: u8 [sp + 1693] = 0\n 33002: u8 [sp + 1692] = 0\n 33006: u8 [sp + 1691] = 0\n 33010: u8 [sp + 1690] = 0\n 33014: u8 [sp + 1689] = 0\n 33018: u8 [sp + 1688] = 0\n 33022: u8 [sp + 1687] = 0\n 33026: u8 [sp + 1686] = 0\n 33030: u8 [sp + 1685] = 0\n 33034: u8 [sp + 1684] = 0\n 33038: u8 [sp + 1683] = 0\n 33042: u8 [sp + 1682] = 0\n 33046: u8 [sp + 1681] = 0\n 33050: u8 [sp + 1680] = 0\n 33054: u8 [sp + 1679] = 0\n 33058: u8 [sp + 1678] = 0\n 33062: u8 [sp + 1677] = 0\n 33066: u8 [sp + 1676] = 0\n 33070: u8 [sp + 1675] = 0\n 33074: u8 [sp + 1674] = 0\n 33078: u8 [sp + 1673] = 0\n 33082: u8 [sp + 1672] = 0\n 33086: u8 [sp + 1671] = 0\n 33090: u8 [sp + 1670] = 0\n 33094: u8 [sp + 1669] = 0\n 33098: u8 [sp + 1668] = 0\n 33102: u8 [sp + 1667] = 0\n 33106: u8 [sp + 1666] = 0\n 33110: u8 [sp + 1665] = 0\n 33114: u8 [sp + 1664] = 0\n 33118: a0 = u64 [sp + 0x268]\n 33122: u8 [sp + 0x660] = a0\n 33126: a0 = u64 [sp + 0x2d0]\n 33130: u8 [sp + 0x668] = a0\n 33134: u8 [sp + 0x670] = ra\n 33138: u8 [sp + 0x678] = t2\n 33142: a0 = u64 [sp + 0x358]\n 33146: u8 [sp + 0x672] = a0\n 33150: a0 = u64 [sp + 0x350]\n 33154: u8 [sp + 0x671] = a0\n 33158: a0 = u64 [sp + 0x348]\n 33162: u8 [sp + 0x67f] = a0\n 33166: a0 = u64 [sp + 0x318]\n 33170: u8 [sp + 0x67e] = a0\n 33174: a0 = u64 [sp + 0x310]\n 33178: u8 [sp + 0x67d] = a0\n 33182: a0 = u64 [sp + 0x308]\n 33186: u8 [sp + 0x67c] = a0\n 33190: a0 = u64 [sp + 0x300]\n 33194: u8 [sp + 0x67b] = a0\n 33198: a0 = u64 [sp + 0x250]\n 33202: u8 [sp + 0x67a] = a0\n 33206: a0 = u64 [sp + 0x248]\n 33210: u8 [sp + 0x679] = a0\n 33214: s1 = u64 [sp + 0x3a8]\n 33218: a0 = s1 << 0x38\n 33221: a0 = a0 >> 0x3b\n 33224: a1 = sp + 0x660\n 33228: a1 = a1 + a0\n 33231: a0 = u8 [a1 + 0x11]\n 33234: a2 = u8 [a1 + 0x10]\n 33237: a3 = u8 [a1 + 0x12]\n 33240: a4 = u8 [a1 + 0x13]\n 33243: a0 = a0 << 0x8\n 33246: a0 = a0 | a2\n 33249: a3 = a3 << 0x10\n 33252: a4 = a4 << 0x18\n 33255: a3 = a3 | a4\n 33258: a0 = a0 | a3\n 33261: a2 = u8 [a1 + 0x15]\n 33264: a3 = u8 [a1 + 0x14]\n 33267: a4 = u8 [a1 + 0x16]\n 33270: a5 = u8 [a1 + 0x17]\n 33273: a2 = a2 << 0x8\n 33276: a2 = a2 | a3\n 33279: a4 = a4 << 0x10\n 33282: a5 = a5 << 0x18\n 33285: a4 = a4 | a5\n 33288: a2 = a2 | a4\n 33291: a2 = a2 << 0x20\n 33294: t0 = a2 | a0\n 33297: a3 = s1 & 0x7\n 33300: t1 = t0 >> a3\n 33303: a4 = u8 [a1 + 0x19]\n 33306: a5 = u8 [a1 + 0x18]\n 33309: s1 = u8 [a1 + 0x1a]\n 33312: a2 = u8 [a1 + 0x1b]\n 33315: a4 = a4 << 0x8\n 33318: a4 = a4 | a5\n 33321: s1 = s1 << 0x10\n 33324: a2 = a2 << 0x18\n 33327: a2 = a2 | s1\n 33330: a2 = a2 | a4\n 33333: a4 = u8 [a1 + 0x1d]\n 33336: a5 = u8 [a1 + 0x1c]\n 33339: s1 = u8 [a1 + 0x1e]\n 33342: a0 = u8 [a1 + 0x1f]\n 33345: a4 = a4 << 0x8\n 33348: a4 = a4 | a5\n 33351: s1 = s1 << 0x10\n 33354: a0 = a0 << 0x18\n 33357: a0 = a0 | s1\n 33360: a0 = a0 | a4\n 33363: a0 = a0 << 0x20\n 33366: t2 = a0 | a2\n 33369: a0 = t2 << 0x1\n 33372: ra = a3 ^ 0x3f\n 33375: a0 = a0 << ra\n 33378: a0 = t1 | a0\n 33381: u64 [sp + 0x358] = a0\n 33385: a0 = u8 [a1 + 0x9]\n 33388: a2 = u8 [a1 + 0x8]\n 33391: a4 = u8 [a1 + 0xa]\n 33394: a5 = u8 [a1 + 0xb]\n 33397: a0 = a0 << 0x8\n 33400: a0 = a0 | a2\n 33403: a4 = a4 << 0x10\n 33406: a5 = a5 << 0x18\n 33409: a4 = a4 | a5\n 33412: a0 = a0 | a4\n 33415: a2 = u8 [a1 + 0xd]\n 33418: a4 = u8 [a1 + 0xc]\n 33421: a5 = u8 [a1 + 0xe]\n 33424: s1 = u8 [a1 + 0xf]\n 33427: a2 = a2 << 0x8\n 33430: a2 = a2 | a4\n 33433: a5 = a5 << 0x10\n 33436: s1 = s1 << 0x18\n 33439: a5 = a5 | s1\n 33442: a2 = a2 | a5\n 33445: a2 = a2 << 0x20\n 33448: t1 = a2 | a0\n 33451: a2 = t1 >> a3\n 33454: t0 = t0 << 0x1\n 33457: a4 = a3 ^ 0xffffffffffffffff\n 33460: a4 = t0 << a4\n 33463: a2 = a2 | a4\n 33466: a4 = u8 [a1 + 0x1]\n 33469: a5 = u8 [a1]\n 33471: s1 = u8 [a1 + 0x2]\n 33474: a0 = u8 [a1 + 0x3]\n 33477: a4 = a4 << 0x8\n 33480: a4 = a4 | a5\n 33483: s1 = s1 << 0x10\n 33486: a0 = a0 << 0x18\n 33489: a0 = a0 | s1\n 33492: a0 = a0 | a4\n 33495: a4 = u8 [a1 + 0x5]\n 33498: a5 = u8 [a1 + 0x4]\n 33501: s1 = u8 [a1 + 0x6]\n 33504: a1 = u8 [a1 + 0x7]\n 33507: a4 = a4 << 0x8\n 33510: a4 = a4 | a5\n 33513: s1 = s1 << 0x10\n 33516: a1 = a1 << 0x18\n 33519: a1 = a1 | s1\n 33522: a1 = a1 | a4\n 33525: a1 = a1 << 0x20\n 33528: a0 = a0 | a1\n 33531: a0 = a0 >> a3\n 33534: t1 = t1 << 0x1\n 33537: a1 = t1 << ra\n 33540: t0 = a0 | a1\n 33543: t1 = t2 >> a3\n 33546: a3 = u64 [sp + 0x3c0]\n 33550: a0 = a3 <u 0x1\n 33553: a1 = u64 [sp + 0x3d0]\n 33557: a0 = a1 - a0\n 33560: u64 [sp + 0x318] = a0\n 33564: a0 = a3 | a1\n 33567: a0 = a0 <u 0x1\n 33570: a1 = u64 [sp + 0x3c8]\n 33574: a5 = a1 - a0\n 33577: u64 [sp + 0x310] = a5\n 33581: a0 = a1 <u a0\n 33584: a1 = u64 [sp + 0x3d8]\n 33588: a1 = a1 - a0\n 33591: u64 [sp + 0x308] = a1\n 33595: a3 = a3 + 0xffffffffffffffff\n 33598: u64 [sp + 0x300] = a3\n 33602: a3 = u64 [sp + 0x388]\n 33606: fallthrough\n      : @200 (gas: 101)\n 33607: u64 [sp + 840] = 0\n 33611: a0 = t0 >> 0x3f\n 33614: s1 = a2 << 0x1\n 33617: s1 = s1 | a0\n 33620: t0 = t0 << 0x1\n 33623: a5 = u64 [sp + 0x3a0]\n 33627: a0 = a5 >> 0x3f\n 33630: t2 = t0 | a0\n 33633: a0 = u64 [sp + 0x318]\n 33637: a4 = a0 ^ s1\n 33640: a1 = a0 <u s1\n 33643: a0 = u64 [sp + 0x300]\n 33647: a0 = a0 <u t2\n 33650: a0 = a1 if a4 != 0\n 33653: t1 = t1 << 0x1\n 33656: ra = u64 [sp + 0x358]\n 33660: a1 = ra >> 0x3f\n 33663: t0 = t1 | a1\n 33666: u64 [sp + 0x350] = t0\n 33670: a2 = a2 >> 0x3f\n 33673: ra = ra << 0x1\n 33676: t1 = ra | a2\n 33679: a5 = a5 << 0x1\n 33682: a1 = u64 [sp + 0x398]\n 33686: a4 = a1 >> 0x3f\n 33689: ra = a5 | a4\n 33692: a5 = a1 << 0x1\n 33695: a1 = a3 >> 0x3f\n 33698: a1 = a1 | a5\n 33701: a4 = a3 << 0x1\n 33704: a5 = u64 [sp + 0x390]\n 33708: a3 = a5 >> 0x3f\n 33711: a3 = a3 | a4\n 33714: a5 = a5 << 0x1\n 33717: a2 = u64 [sp + 0x368]\n 33721: a2 = a2 | a5\n 33724: u64 [sp + 0x390] = a2\n 33728: a2 = u64 [sp + 0x360]\n 33732: a3 = a3 | a2\n 33735: u64 [sp + 0x388] = a3\n 33739: a1 = a1 | a2\n 33742: u64 [sp + 0x398] = a1\n 33746: a1 = a2 | ra\n 33749: u64 [sp + 0x3a0] = a1\n 33753: a2 = u64 [sp + 0x310]\n 33757: a1 = a2 - t1\n 33760: a0 = a1 <u a0\n 33763: a1 = a2 <u t1\n 33766: a2 = u64 [sp + 0x308]\n 33770: a3 = a2 - t0\n 33773: a3 = a3 - a1\n 33776: a0 = a3 - a0\n 33779: a3 = a0 >>a 0x3f\n 33782: a0 = u64 [sp + 0x3c0]\n 33786: t0 = a3 & a0\n 33789: a1 = u64 [sp + 0x3d0]\n 33793: a1 = a1 & a3\n 33796: a4 = s1 ^ a1\n 33799: a5 = s1 <u a1\n 33802: ra = t2 <u t0\n 33805: a5 = ra if a4 == 0\n 33808: a4 = u64 [sp + 0x3c8]\n 33812: a4 = a4 & a3\n 33815: a0 = t1 - a4\n 33818: a2 = a0 - a5\n 33821: u64 [sp + 0x358] = a2\n 33825: a2 = a0 <u a5\n 33828: a4 = t1 <u a4\n 33831: a5 = u64 [sp + 0x3d8]\n 33835: a5 = a5 & a3\n 33838: a0 = u64 [sp + 0x350]\n 33842: a5 = a0 - a5\n 33845: a5 = a5 - a4\n 33848: t1 = a5 - a2\n 33851: s1 = s1 - a1\n 33854: a2 = s1 - ra\n 33857: t0 = t2 - t0\n 33860: a5 = u64 [sp + 0x3a8]\n 33864: s1 = u64 [sp + 0x380]\n 33868: a1 = a5 | s1\n 33871: a1 = a1 <u 0x1\n 33874: a4 = u64 [sp + 0x370]\n 33878: a0 = a4 <u a1\n 33881: a1 = a4 - a1\n 33884: a4 = a5 <u 0x1\n 33887: s1 = s1 - a4\n 33890: a4 = u64 [sp + 0x378]\n 33894: a4 = a4 - a0\n 33897: a5 = a5 + 0xffffffffffffffff\n 33900: u64 [sp + 0x380] = s1\n 33904: u64 [sp + 0x378] = a4\n 33908: s1 = s1 | a4\n 33911: u64 [sp + 0x3a8] = a5\n 33915: a4 = a5 | a1\n 33918: s1 = s1 | a4\n 33921: a3 = a3 & 0x1\n 33924: u64 [sp + 0x368] = a3\n 33928: a3 = u64 [sp + 0x388]\n 33932: u64 [sp + 0x370] = a1\n 33936: u64 [sp + 864] = 0\n 33940: jump @200 if s1 != 0\n      : @201 (gas: 1)\n 33944: jump @222\n      : @202 (gas: 141)\n 33947: u64 [sp + 0x390] = a1\n 33951: a0 = a1 <u a0\n 33954: a0 = a0 + a3\n 33957: a0 = a0 + a2\n 33960: a1 = s1 * s1\n 33963: a4 = a1 + a0\n 33966: a1 = a4 <u a1\n 33969: a0 = a0 <u a2\n 33972: a2 = s1 mulhu s1\n 33975: a0 = a0 + a2\n 33978: t1 = a0 + a1\n 33981: a0 = a5 mulhu t2\n 33984: a1 = t0 * t2\n 33987: a3 = a1 + a0\n 33990: t0 = a0\n 33992: u64 [sp + 0x398] = a3\n 33996: s1 = a5 * s1\n 33999: a3 = a3 + s1\n 34002: a5 = a5 * t2\n 34005: ra = a5 + a4\n 34008: a0 = ra <u a5\n 34011: t1 = t1 + a0\n 34014: a2 = a3 + t1\n 34017: t1 = a2 ^ a3\n 34020: a4 = a2 <u a3\n 34023: a4 = a0 if t1 == 0\n 34026: u64 [sp + 0x3a0] = a4\n 34030: t0 = t0 + s1\n 34033: a0 = a1 + t0\n 34036: a4 = a5 + ra\n 34039: u64 [sp + 0x3a8] = a4\n 34043: a5 = a4 <u a5\n 34046: a4 = a0 + a5\n 34049: a4 = a4 + a2\n 34052: a2 = a4 ^ a0\n 34055: u64 [sp + 0x388] = a4\n 34059: a4 = a4 <u a0\n 34062: a4 = a5 if a2 == 0\n 34065: a2 = u64 [sp + 0x398]\n 34069: t2 = a2 <u a1\n 34072: a2 = a3 <u s1\n 34075: a5 = t0 <u s1\n 34078: a3 = u64 [sp + 0x2f8]\n 34082: s1 = u64 [sp + 0x2c0]\n 34086: a3 = a3 mulhu s1\n 34089: a2 = a2 + a3\n 34092: a3 = a3 + a5\n 34095: t1 = u64 [sp + 0x2e8]\n 34099: a5 = u64 [sp + 0x2f0]\n 34103: a5 = t1 mulhu a5\n 34106: t2 = t2 + a5\n 34109: a2 = a2 + t2\n 34112: a0 = a0 <u a1\n 34115: a1 = t1 * s1\n 34118: t0 = a5 + a0\n 34121: a5 = a1 + a2\n 34124: a2 = a2 <u t2\n 34127: s1 = t1 mulhu s1\n 34130: a2 = a2 + s1\n 34133: a0 = a5 <u a1\n 34136: a0 = a0 + a2\n 34139: ra = u64 [sp + 0x3a0]\n 34143: ra = ra + a5\n 34146: t0 = t0 + a3\n 34149: a2 = ra <u a5\n 34152: a0 = a0 + a2\n 34155: a2 = a1 + t0\n 34158: a4 = a4 + a2\n 34161: a5 = a2 <u a1\n 34164: a2 = a4 <u a2\n 34167: a4 = a4 + ra\n 34170: a1 = a4 <u ra\n 34173: u64 [sp + 0x398] = a1\n 34177: a3 = t0 <u a3\n 34180: a3 = a3 + s1\n 34183: a3 = a3 + a5\n 34186: a2 = a2 + a3\n 34189: a2 = a2 + a0\n 34192: a2 = a2 + a1\n 34195: a1 = u64 [sp + 0x2f8]\n 34199: s1 = t1 * a1\n 34202: a5 = a1 mulhu a1\n 34205: t2 = s1 + a5\n 34208: a3 = s1 + t2\n 34211: t0 = a1 * a1\n 34214: a5 = a1\n 34216: a4 = a4 + t0\n 34219: u64 [sp + 0x3a0] = a4\n 34223: a1 = a4 <u t0\n 34226: a4 = a3 + a1\n 34229: t0 = a4 + a2\n 34232: ra = t0 ^ a3\n 34235: a4 = t0 <u a3\n 34238: a4 = a1 if ra == 0\n 34241: a1 = a2 ^ a0\n 34244: a0 = a2 <u a0\n 34247: a2 = u64 [sp + 0x398]\n 34251: a0 = a2 if a1 == 0\n 34254: a1 = t2 <u s1\n 34257: a2 = t1 mulhu a5\n 34260: t2 = a2 + a1\n 34263: a3 = a3 <u s1\n 34266: a2 = a2 + a3\n 34269: a1 = t2 + a2\n 34272: a5 = t1 * t1\n 34275: a2 = a5 + a1\n 34278: a0 = a0 + a2\n 34281: a3 = a0 + a4\n 34284: a4 = a2 <u a5\n 34287: a2 = a0 <u a2\n 34290: ra = a3 <u a0\n 34293: a0 = a1 <u t2\n 34296: a1 = t1 mulhu t1\n 34299: a0 = a0 + a1\n 34302: a0 = a0 + a4\n 34305: a0 = a0 + a2\n 34308: t2 = a0 + ra\n 34311: a5 = t0\n 34313: t0 = a3\n 34315: a3 = u64 [sp + 0x3c8]\n 34319: a0 = t0 <u a3\n 34322: a2 = u64 [sp + 0x3d0]\n 34326: a1 = a2 ^ a5\n 34329: a2 = a5 <u a2\n 34332: a4 = u64 [sp + 0x3c0]\n 34336: s1 = u64 [sp + 0x3a0]\n 34340: a4 = s1 <u a4\n 34343: a4 = a2 if a1 != 0\n 34346: a2 = u64 [sp + 0x3d8]\n 34350: a1 = a2 ^ t2\n 34353: a2 = t2 <u a2\n 34356: a2 = a0 if a1 == 0\n 34359: a0 = a3 ^ t0\n 34362: a0 = a0 | a1\n 34365: a4 = a2 if a0 != 0\n 34368: a0 = u64 [sp + 0x1e0]\n 34372: s1 = a0 << 0x39\n 34375: ra = a0 ^ 0xffffffffffffffff\n 34378: u64 [sp + 0x250] = ra\n 34382: u64 [sp + 0x248] = s1\n 34386: jump @212 if a4 == 0\n      : @203 (gas: 317)\n 34390: a3 = sp + 0x7ff\n 34394: a3 = a3 + 0x360\n 34398: a4 = u64 [sp + 0x390]\n 34402: u8 [a3 + 0xe9] = a4\n 34406: a0 = a4 >> 0x38\n 34409: u64 [sp + 0x398] = a0\n 34413: a0 = a4 >> 0x30\n 34416: u64 [sp + 0x380] = a0\n 34420: a1 = u64 [sp + 0x138]\n 34424: a1 = a1 >> 0x3f\n 34427: a0 = u64 [sp + 0x3a8]\n 34431: a2 = u64 [sp + 0x3a0]\n 34435: a0 = a2 if a1 == 0\n 34438: t0 = a2 if a1 != 0\n 34441: a2 = a4 >> 0x28\n 34444: u64 [sp + 0x350] = a2\n 34448: t1 = u64 [sp + 0x388]\n 34452: u8 [a3 + 0xf9] = t1\n 34456: a2 = a4 >> 0x20\n 34459: u64 [sp + 0x348] = a2\n 34463: a2 = a4 >> 0x18\n 34466: u64 [sp + 0x300] = a2\n 34470: a2 = a4 >> 0x10\n 34473: u64 [sp + 0x2d0] = a2\n 34477: a2 = a4 >> 0x8\n 34480: u64 [sp + 0x220] = a2\n 34484: a4 = t1 if a1 == 0\n 34487: a2 = t1 >> 0x38\n 34490: u64 [sp + 0x3a0] = a2\n 34494: a2 = t1 >> 0x30\n 34497: u64 [sp + 0x390] = a2\n 34501: a2 = t1 >> 0x28\n 34504: u64 [sp + 0x378] = a2\n 34508: a2 = t1 >> 0x20\n 34511: u64 [sp + 0x370] = a2\n 34515: a2 = t1 >> 0x18\n 34518: u64 [sp + 0x368] = a2\n 34522: a2 = t1 >> 0x10\n 34525: u64 [sp + 0x360] = a2\n 34529: a2 = t1 >> 0x8\n 34532: u64 [sp + 0x358] = a2\n 34536: t1 = a5 if a1 == 0\n 34539: t2 = a5 if a1 != 0\n 34542: s1 = s1 >> 0x3f\n 34545: a5 = ra\n 34547: ra = a4\n 34549: ra = a0 if s1 == 0\n 34552: a0 = t1 if s1 == 0\n 34555: t2 = t0 if s1 != 0\n 34558: t0 = t1 if s1 != 0\n 34561: a2 = u64 [sp + 0x2f0]\n 34565: a2 = a2 * a2\n 34568: u8 [a3 + 0xe1] = a2\n 34572: t1 = a3\n 34574: a3 = a2 >> 0x38\n 34577: u64 [sp + 0x388] = a3\n 34581: a3 = a2 >> 0x30\n 34584: u64 [sp + 0x218] = a3\n 34588: a3 = a2 >> 0x28\n 34591: u64 [sp + 0x210] = a3\n 34595: a3 = a2 >> 0x20\n 34598: u64 [sp + 0x208] = a3\n 34602: a3 = a2 >> 0x18\n 34605: u64 [sp + 0x1d0] = a3\n 34609: a3 = a2 >> 0x10\n 34612: u64 [sp + 0x1c8] = a3\n 34616: a3 = a2 >> 0x8\n 34619: u64 [sp + 0x1c0] = a3\n 34623: a3 = u64 [sp + 0x3a8]\n 34627: a2 = a3 if a1 == 0\n 34630: a2 = a4 if s1 == 0\n 34633: a1 = ra >> 0x1\n 34636: a1 = a1 >> a5\n 34639: a4 = u64 [sp + 0x1e0]\n 34643: s1 = a0 << a4\n 34646: s1 = s1 | a1\n 34649: a1 = t2 << a4\n 34652: t2 = t1\n 34654: a3 = t0 >> 0x1\n 34657: a3 = a3 >> a5\n 34660: t1 = a1 | a3\n 34663: a1 = ra << a4\n 34666: a2 = a2 >> 0x1\n 34669: a2 = a2 >> a5\n 34672: a2 = a2 | a1\n 34675: u64 [sp + 0x310] = a2\n 34679: a1 = t0 << a4\n 34682: a0 = a0 >> 0x1\n 34685: a0 = a0 >> a5\n 34688: t0 = a1 | a0\n 34691: a0 = u64 [sp + 0x3b8]\n 34695: a0 = clz a0\n 34697: a0 = a0 + 0x40\n 34700: ra = u64 [sp + 0x3b0]\n 34704: a1 = clz ra\n 34706: a1 = a0 if ra == 0\n 34709: a0 = clz a2\n 34711: a2 = a0 + 0x40\n 34714: u64 [sp + 0x318] = s1\n 34718: a0 = clz s1\n 34720: a2 = a0 if s1 != 0\n 34723: a0 = clz t0\n 34725: a0 = a0 + 0x40\n 34728: a3 = clz t1\n 34730: a0 = a3 if t1 != 0\n 34733: a3 = a2 + 0x80\n 34737: a2 = a3 <u a2\n 34740: a5 = t0 | t1\n 34743: a0 = a3 if a5 == 0\n 34746: a2 = 0 if a5 != 0\n 34748: a3 = a1 + 0x80\n 34752: s1 = a3 <u a1\n 34755: a4 = a3 <u a0\n 34758: a5 = s1 ^ a2\n 34761: a1 = s1 <u a2\n 34764: a1 = a4 if a5 == 0\n 34767: u64 [sp + 0x260] = s1\n 34771: s1 = s1 - a2\n 34774: s1 = s1 - a4\n 34777: a2 = a1 <u 0x1\n 34780: a2 = a2 + 0xffffffffffffffff\n 34783: a4 = -a1\n 34785: u64 [sp + 0xe0] = a4\n 34789: a5 = a4 >u 0\n 34791: a4 = a2 >u 0\n 34793: u64 [sp + 0xf0] = a2\n 34797: a4 = a5 if a2 == 0\n 34800: u64 [sp + 0x258] = a3\n 34804: a3 = a3 - a0\n 34807: u64 [sp + 0xd8] = a3\n 34811: a0 = a3 <u 0x100\n 34815: a0 = a0 ^ 0x1\n 34818: a5 = s1 >u 0\n 34820: u64 [sp + 0xe8] = s1\n 34824: a0 = a5 if s1 != 0\n 34827: a0 = a4 if a1 != 0\n 34830: a1 = u64 [sp + 0x388]\n 34834: u8 [t2 + 0xe8] = a1\n 34838: a1 = u64 [sp + 0x218]\n 34842: u8 [t2 + 0xe7] = a1\n 34846: a1 = u64 [sp + 0x210]\n 34850: u8 [t2 + 0xe6] = a1\n 34854: a1 = u64 [sp + 0x208]\n 34858: u8 [t2 + 0xe5] = a1\n 34862: a1 = u64 [sp + 0x1d0]\n 34866: u8 [t2 + 0xe4] = a1\n 34870: a1 = u64 [sp + 0x1c8]\n 34874: u8 [t2 + 0xe3] = a1\n 34878: a1 = u64 [sp + 0x1c0]\n 34882: u8 [t2 + 0xe2] = a1\n 34886: a1 = u64 [sp + 0x398]\n 34890: u8 [t2 + 0xf0] = a1\n 34894: a1 = u64 [sp + 0x380]\n 34898: u8 [t2 + 0xef] = a1\n 34902: a1 = u64 [sp + 0x350]\n 34906: u8 [t2 + 0xee] = a1\n 34910: a1 = u64 [sp + 0x348]\n 34914: u8 [t2 + 0xed] = a1\n 34918: a1 = u64 [sp + 0x300]\n 34922: u8 [t2 + 0xec] = a1\n 34926: a1 = u64 [sp + 0x2d0]\n 34930: u8 [t2 + 0xeb] = a1\n 34934: a1 = u64 [sp + 0x220]\n 34938: u8 [t2 + 0xea] = a1\n 34942: a2 = u64 [sp + 0x3a8]\n 34946: a1 = a2 >> 0x38\n 34949: u8 [t2 + 0xf8] = a1\n 34953: a1 = a2 >> 0x30\n 34956: u8 [t2 + 0xf7] = a1\n 34960: a1 = a2 >> 0x28\n 34963: u8 [t2 + 0xf6] = a1\n 34967: a1 = a2 >> 0x20\n 34970: u8 [t2 + 0xf5] = a1\n 34974: a1 = a2 >> 0x18\n 34977: u8 [t2 + 0xf4] = a1\n 34981: a1 = a2 >> 0x10\n 34984: u8 [t2 + 0xf3] = a1\n 34988: u8 [t2 + 0xf1] = a2\n 34992: a1 = a2 >> 0x8\n 34995: u8 [t2 + 0xf2] = a1\n 34999: a1 = u64 [sp + 0x3a0]\n 35003: u8 [t2 + 0x100] = a1\n 35007: a1 = u64 [sp + 0x390]\n 35011: u8 [t2 + 0xff] = a1\n 35015: a1 = u64 [sp + 0x378]\n 35019: u8 [t2 + 0xfe] = a1\n 35023: a1 = u64 [sp + 0x370]\n 35027: u8 [t2 + 0xfd] = a1\n 35031: a1 = u64 [sp + 0x368]\n 35035: u8 [t2 + 0xfc] = a1\n 35039: a1 = u64 [sp + 0x360]\n 35043: u8 [t2 + 0xfb] = a1\n 35047: a1 = u64 [sp + 0x358]\n 35051: u8 [t2 + 0xfa] = a1\n 35055: s1 = u64 [sp + 0x318]\n 35059: a1 = s1 | t1\n 35062: a2 = u64 [sp + 0x310]\n 35066: a4 = a2 | t0\n 35069: a1 = a1 | a4\n 35072: a3 = u64 [sp + 0x3b8]\n 35076: a4 = a3 | ra\n 35079: a5 = a4 <u 0x1\n 35082: a1 = a1 <u 0x1\n 35085: a4 = a5 | a1\n 35088: a4 = a4 | a0\n 35091: u8 [t2 + 224] = 0\n 35095: u8 [t2 + 223] = 0\n 35099: u8 [t2 + 222] = 0\n 35103: u8 [t2 + 221] = 0\n 35107: u8 [t2 + 220] = 0\n 35111: u8 [t2 + 219] = 0\n 35115: u8 [t2 + 218] = 0\n 35119: u8 [t2 + 217] = 0\n 35123: u8 [t2 + 216] = 0\n 35127: u8 [t2 + 215] = 0\n 35131: u8 [t2 + 214] = 0\n 35135: u8 [t2 + 213] = 0\n 35139: u8 [t2 + 212] = 0\n 35143: u8 [t2 + 211] = 0\n 35147: u8 [t2 + 210] = 0\n 35151: u8 [t2 + 209] = 0\n 35155: u8 [t2 + 208] = 0\n 35159: u8 [t2 + 207] = 0\n 35163: u8 [t2 + 206] = 0\n 35167: u8 [t2 + 205] = 0\n 35171: u8 [t2 + 204] = 0\n 35175: u8 [t2 + 203] = 0\n 35179: u8 [t2 + 202] = 0\n 35183: u8 [t2 + 201] = 0\n 35187: u8 [t2 + 200] = 0\n 35191: u8 [t2 + 199] = 0\n 35195: u8 [t2 + 198] = 0\n 35199: u8 [t2 + 197] = 0\n 35203: u8 [t2 + 196] = 0\n 35207: u8 [t2 + 195] = 0\n 35211: u8 [t2 + 194] = 0\n 35215: u8 [t2 + 193] = 0\n 35219: a0 = u64 [sp + 0x1f0]\n 35223: a1 = sp + 0x7ff\n 35227: a1 = a1 + 0x441\n 35231: a0 = a1 - a0\n 35234: u64 [sp + 0x308] = t0\n 35238: a1 = u8 [a0 + 0x18]\n 35241: u64 [sp + 0x118] = a1\n 35245: a1 = u8 [a0 + 0x19]\n 35248: u64 [sp + 0xf8] = a1\n 35252: a1 = u8 [a0 + 0x1a]\n 35255: u64 [sp + 0x108] = a1\n 35259: a1 = u8 [a0 + 0x1b]\n 35262: u64 [sp + 0x100] = a1\n 35266: a1 = u8 [a0 + 0x1c]\n 35269: u64 [sp + 0x130] = a1\n 35273: a1 = u8 [a0 + 0x1d]\n 35276: u64 [sp + 0x110] = a1\n 35280: a1 = u8 [a0 + 0x1e]\n 35283: u64 [sp + 0x128] = a1\n 35287: a1 = u8 [a0 + 0x1f]\n 35290: u64 [sp + 0x120] = a1\n 35294: a1 = u8 [a0 + 0x10]\n 35297: u64 [sp + 0x160] = a1\n 35301: a1 = u8 [a0 + 0x11]\n 35304: u64 [sp + 0x140] = a1\n 35308: a1 = u8 [a0 + 0x12]\n 35311: u64 [sp + 0x150] = a1\n 35315: a1 = u8 [a0 + 0x13]\n 35318: u64 [sp + 0x148] = a1\n 35322: a1 = u8 [a0 + 0x14]\n 35325: u64 [sp + 0x178] = a1\n 35329: a1 = u8 [a0 + 0x15]\n 35332: u64 [sp + 0x158] = a1\n 35336: a1 = u8 [a0 + 0x16]\n 35339: u64 [sp + 0x170] = a1\n 35343: a1 = u8 [a0 + 0x17]\n 35346: u64 [sp + 0x168] = a1\n 35350: a1 = u8 [a0 + 0x8]\n 35353: u64 [sp + 0x1a0] = a1\n 35357: a1 = u8 [a0 + 0x9]\n 35360: u64 [sp + 0x180] = a1\n 35364: a1 = u8 [a0 + 0xa]\n 35367: u64 [sp + 0x190] = a1\n 35371: a1 = u8 [a0 + 0xb]\n 35374: u64 [sp + 0x188] = a1\n 35378: a1 = u8 [a0 + 0xc]\n 35381: u64 [sp + 0x1b8] = a1\n 35385: a1 = u8 [a0 + 0xd]\n 35388: u64 [sp + 0x198] = a1\n 35392: a1 = u8 [a0 + 0xe]\n 35395: u64 [sp + 0x1b0] = a1\n 35399: a1 = u8 [a0 + 0xf]\n 35402: u64 [sp + 0x1a8] = a1\n 35406: a1 = u8 [a0]\n 35408: u64 [sp + 0x208] = a1\n 35412: a1 = u8 [a0 + 0x1]\n 35415: u64 [sp + 0x1c0] = a1\n 35419: a1 = u8 [a0 + 0x2]\n 35422: u64 [sp + 0x1d0] = a1\n 35426: a1 = u8 [a0 + 0x3]\n 35429: u64 [sp + 0x1c8] = a1\n 35433: a1 = u8 [a0 + 0x4]\n 35436: u64 [sp + 0x2d0] = a1\n 35440: a1 = u8 [a0 + 0x5]\n 35443: u64 [sp + 0x210] = a1\n 35447: a1 = u8 [a0 + 0x6]\n 35450: ra = u8 [a0 + 0x7]\n 35453: u64 [sp + 0x300] = t1\n 35457: t1 = 0 if a4 != 0\n 35459: u64 [sp + 0x388] = t1\n 35463: t0 = 0 if a4 != 0\n 35465: u64 [sp + 0x3a8] = t0\n 35469: t1 = s1\n 35471: t1 = 0 if a4 != 0\n 35473: a3 = a2\n 35475: a3 = 0 if a4 != 0\n 35477: t0 = a3\n 35479: u64 [sp + 0x220] = a5\n 35483: u64 [sp + 0x218] = a1\n 35487: jump @205 if a4 == 0\n      : @204 (gas: 1)\n 35490: jump @244\n      : @205 (gas: 9)\n 35493: a2 = u64 [sp + 0xd8]\n 35497: a4 = a2 ^ 0xff\n 35501: s1 = u64 [sp + 0xe0]\n 35505: a4 = a4 | s1\n 35508: t2 = u64 [sp + 0xf0]\n 35512: a3 = u64 [sp + 0xe8]\n 35516: a5 = a3 | t2\n 35519: a4 = a4 | a5\n 35522: jump @207 if a4 != 0\n      : @206 (gas: 1)\n 35525: jump @244\n      : @207 (gas: 261)\n 35528: u64 [sp + 0xd0] = ra\n 35532: a1 = a2 + 0x1\n 35535: u64 [sp + 0x3a8] = a1\n 35539: a0 = a1 <u 0x1\n 35542: a0 = a0 + a3\n 35545: u64 [sp + 0x388] = a0\n 35549: a0 = a0 | a1\n 35552: a0 = a0 <u 0x1\n 35555: a0 = a0 + s1\n 35558: u64 [sp + 0x378] = a0\n 35562: a0 = a0 <u s1\n 35565: a0 = a0 + t2\n 35568: u64 [sp + 0x380] = a0\n 35572: a1 = u64 [sp + 0x318]\n 35576: t0 = 0xff - a2\n 35580: ra = sp + 0x7ff\n 35584: ra = ra + 0x360\n 35588: t2 = u64 [sp + 0x310]\n 35592: u8 [ra + 0xa1] = t2\n 35596: u8 [ra + 160] = 0\n 35600: u8 [ra + 159] = 0\n 35604: u8 [ra + 158] = 0\n 35608: u8 [ra + 157] = 0\n 35612: u8 [ra + 156] = 0\n 35616: u8 [ra + 155] = 0\n 35620: u8 [ra + 154] = 0\n 35624: u8 [ra + 153] = 0\n 35628: u8 [ra + 152] = 0\n 35632: u8 [ra + 151] = 0\n 35636: u8 [ra + 150] = 0\n 35640: u8 [ra + 149] = 0\n 35644: u8 [ra + 148] = 0\n 35648: u8 [ra + 147] = 0\n 35652: u8 [ra + 146] = 0\n 35656: u8 [ra + 145] = 0\n 35660: u8 [ra + 144] = 0\n 35664: u8 [ra + 143] = 0\n 35668: u8 [ra + 142] = 0\n 35672: u8 [ra + 141] = 0\n 35676: u8 [ra + 140] = 0\n 35680: u8 [ra + 139] = 0\n 35684: u8 [ra + 138] = 0\n 35688: u8 [ra + 137] = 0\n 35692: u8 [ra + 136] = 0\n 35696: u8 [ra + 135] = 0\n 35700: u8 [ra + 134] = 0\n 35704: u8 [ra + 133] = 0\n 35708: u8 [ra + 132] = 0\n 35712: u8 [ra + 131] = 0\n 35716: u8 [ra + 130] = 0\n 35720: u8 [ra + 129] = 0\n 35724: u8 [ra + 0xa9] = a1\n 35728: a0 = t2 >> 0x38\n 35731: u64 [sp + 0xb8] = a0\n 35735: u8 [ra + 0xa8] = a0\n 35739: a0 = t2 >> 0x30\n 35742: u64 [sp + 0xb0] = a0\n 35746: u8 [ra + 0xa7] = a0\n 35750: a0 = t2 >> 0x28\n 35753: u64 [sp + 0xa8] = a0\n 35757: u8 [ra + 0xa6] = a0\n 35761: a0 = t2 >> 0x20\n 35764: u64 [sp + 0xa0] = a0\n 35768: u8 [ra + 0xa5] = a0\n 35772: a0 = t2 >> 0x18\n 35775: u64 [sp + 0x98] = a0\n 35779: u8 [ra + 0xa4] = a0\n 35783: a0 = t2 >> 0x10\n 35786: u64 [sp + 0x90] = a0\n 35790: u8 [ra + 0xa3] = a0\n 35794: a0 = t2 >> 0x8\n 35797: u64 [sp + 0x88] = a0\n 35801: u8 [ra + 0xa2] = a0\n 35805: a0 = u64 [sp + 0x308]\n 35809: u8 [ra + 0xb1] = a0\n 35813: a2 = a1 >> 0x38\n 35816: u64 [sp + 0x80] = a2\n 35820: u8 [ra + 0xb0] = a2\n 35824: a2 = a1 >> 0x30\n 35827: u64 [sp + 0x78] = a2\n 35830: u8 [ra + 0xaf] = a2\n 35834: a2 = a1 >> 0x28\n 35837: u64 [sp + 0x70] = a2\n 35840: u8 [ra + 0xae] = a2\n 35844: a2 = a1 >> 0x20\n 35847: u64 [sp + 0x68] = a2\n 35850: u8 [ra + 0xad] = a2\n 35854: a2 = a1 >> 0x18\n 35857: u64 [sp + 0x60] = a2\n 35860: u8 [ra + 0xac] = a2\n 35864: a2 = a1 >> 0x10\n 35867: u64 [sp + 0x58] = a2\n 35870: u8 [ra + 0xab] = a2\n 35874: a1 = a1 >> 0x8\n 35877: u64 [sp + 0x50] = a1\n 35880: u8 [ra + 0xaa] = a1\n 35884: a2 = u64 [sp + 0x300]\n 35888: u8 [ra + 0xb9] = a2\n 35892: a1 = a0 >> 0x38\n 35895: u64 [sp + 0x48] = a1\n 35898: u8 [ra + 0xb8] = a1\n 35902: a1 = a0 >> 0x30\n 35905: u64 [sp + 0x40] = a1\n 35908: u8 [ra + 0xb7] = a1\n 35912: a1 = a0 >> 0x28\n 35915: u64 [sp + 0x38] = a1\n 35918: u8 [ra + 0xb6] = a1\n 35922: a1 = a0 >> 0x20\n 35925: u64 [sp + 0x30] = a1\n 35928: u8 [ra + 0xb5] = a1\n 35932: a1 = a0 >> 0x18\n 35935: u64 [sp + 0x28] = a1\n 35938: u8 [ra + 0xb4] = a1\n 35942: a1 = a0 >> 0x10\n 35945: u64 [sp + 0x358] = a1\n 35949: u8 [ra + 0xb3] = a1\n 35953: a0 = a0 >> 0x8\n 35956: u64 [sp + 0x350] = a0\n 35960: u8 [ra + 0xb2] = a0\n 35964: a0 = a2 >> 0x38\n 35967: u64 [sp + 0x348] = a0\n 35971: u8 [ra + 0xc0] = a0\n 35975: a0 = a2 >> 0x30\n 35978: u64 [sp + 0xf0] = a0\n 35982: u8 [ra + 0xbf] = a0\n 35986: a0 = a2 >> 0x28\n 35989: u64 [sp + 0xe8] = a0\n 35993: u8 [ra + 0xbe] = a0\n 35997: a0 = a2 >> 0x20\n 36000: u64 [sp + 0xe0] = a0\n 36004: u8 [ra + 0xbd] = a0\n 36008: a0 = a2 >> 0x18\n 36011: u64 [sp + 0xd8] = a0\n 36015: u8 [ra + 0xbc] = a0\n 36019: a0 = a2 >> 0x10\n 36022: u64 [sp + 0xc8] = a0\n 36026: u8 [ra + 0xbb] = a0\n 36030: a0 = a2 >> 0x8\n 36033: u64 [sp + 0xc0] = a0\n 36037: u8 [ra + 0xba] = a0\n 36041: a1 = t0 << 0x38\n 36044: a1 = a1 >> 0x3b\n 36047: a0 = sp + 0x7ff\n 36051: a0 = a0 + 0x401\n 36055: a1 = a0 - a1\n 36058: a2 = u8 [a1 + 0x19]\n 36061: a3 = u8 [a1 + 0x18]\n 36064: a4 = u8 [a1 + 0x1a]\n 36067: a5 = u8 [a1 + 0x1b]\n 36070: a2 = a2 << 0x8\n 36073: a2 = a2 | a3\n 36076: a4 = a4 << 0x10\n 36079: a5 = a5 << 0x18\n 36082: a4 = a4 | a5\n 36085: a2 = a2 | a4\n 36088: a3 = u8 [a1 + 0x1d]\n 36091: a4 = u8 [a1 + 0x1c]\n 36094: a5 = u8 [a1 + 0x1e]\n 36097: s1 = u8 [a1 + 0x1f]\n 36100: a3 = a3 << 0x8\n 36103: a3 = a3 | a4\n 36106: a5 = a5 << 0x10\n 36109: s1 = s1 << 0x18\n 36112: a5 = a5 | s1\n 36115: a3 = a3 | a5\n 36118: a3 = a3 << 0x20\n 36121: a2 = a2 | a3\n 36124: a3 = u8 [a1 + 0x11]\n 36127: a4 = u8 [a1 + 0x10]\n 36130: a5 = u8 [a1 + 0x12]\n 36133: s1 = u8 [a1 + 0x13]\n 36136: a3 = a3 << 0x8\n 36139: a3 = a3 | a4\n 36142: a5 = a5 << 0x10\n 36145: s1 = s1 << 0x18\n 36148: a5 = a5 | s1\n 36151: a3 = a3 | a5\n 36154: a4 = u8 [a1 + 0x15]\n 36157: a5 = u8 [a1 + 0x14]\n 36160: s1 = u8 [a1 + 0x16]\n 36163: a0 = u8 [a1 + 0x17]\n 36166: a4 = a4 << 0x8\n 36169: a4 = a4 | a5\n 36172: s1 = s1 << 0x10\n 36175: a0 = a0 << 0x18\n 36178: a0 = a0 | s1\n 36181: a0 = a0 | a4\n 36184: a0 = a0 << 0x20\n 36187: t1 = a0 | a3\n 36190: a0 = t0 & 0x7\n 36193: a4 = a2 << a0\n 36196: a5 = t1 >> 0x1\n 36199: t0 = a0 ^ 0x3f\n 36202: a5 = a5 >> t0\n 36205: a4 = a4 | a5\n 36208: u64 [sp + 0x3a0] = a4\n 36212: a4 = u8 [a1 + 0x9]\n 36215: a5 = u8 [a1 + 0x8]\n 36218: s1 = u8 [a1 + 0xa]\n 36221: a2 = u8 [a1 + 0xb]\n 36224: a4 = a4 << 0x8\n 36227: a4 = a4 | a5\n 36230: s1 = s1 << 0x10\n 36233: a2 = a2 << 0x18\n 36236: a2 = a2 | s1\n 36239: a2 = a2 | a4\n 36242: a4 = u8 [a1 + 0xd]\n 36245: a5 = u8 [a1 + 0xc]\n 36248: s1 = u8 [a1 + 0xe]\n 36251: a3 = u8 [a1 + 0xf]\n 36254: a4 = a4 << 0x8\n 36257: a4 = a4 | a5\n 36260: s1 = s1 << 0x10\n 36263: a3 = a3 << 0x18\n 36266: a3 = a3 | s1\n 36269: a3 = a3 | a4\n 36272: a3 = a3 << 0x20\n 36275: a4 = a3 | a2\n 36278: a2 = a4 >> 0x1\n 36281: a3 = a0 ^ 0xffffffffffffffff\n 36284: a2 = a2 >> a3\n 36287: a3 = t1 << a0\n 36290: a2 = a2 | a3\n 36293: u64 [sp + 0x398] = a2\n 36297: a2 = u8 [a1 + 0x1]\n 36300: a3 = u8 [a1]\n 36302: a5 = u8 [a1 + 0x2]\n 36305: s1 = u8 [a1 + 0x3]\n 36308: a2 = a2 << 0x8\n 36311: a2 = a2 | a3\n 36314: a5 = a5 << 0x10\n 36317: s1 = s1 << 0x18\n 36320: a5 = a5 | s1\n 36323: a2 = a2 | a5\n 36326: a3 = u8 [a1 + 0x5]\n 36329: a5 = u8 [a1 + 0x4]\n 36332: s1 = u8 [a1 + 0x6]\n 36335: a1 = u8 [a1 + 0x7]\n 36338: a3 = a3 << 0x8\n 36341: a3 = a3 | a5\n 36344: s1 = s1 << 0x10\n 36347: a1 = a1 << 0x18\n 36350: a1 = a1 | s1\n 36353: a5 = u64 [sp + 0x388]\n 36357: a1 = a1 | a3\n 36360: a1 = a1 << 0x20\n 36363: a1 = a1 | a2\n 36366: a2 = a1 >> 0x1\n 36369: a2 = a2 >> t0\n 36372: s1 = u64 [sp + 0x378]\n 36376: a3 = a4 << a0\n 36379: a4 = u64 [sp + 0x380]\n 36383: a2 = a2 | a3\n 36386: u64 [sp + 0x390] = a2\n 36390: a2 = a5 | a4\n 36393: a3 = u64 [sp + 0x3a8]\n 36397: a3 = a3 | s1\n 36400: a2 = a2 | a3\n 36403: a0 = a1 << a0\n 36406: u64 [sp + 0x368] = a0\n 36410: jump @209 if a2 != 0\n      : @208 (gas: 1)\n 36413: jump @242\n      : @209 (gas: 219)\n 36416: u64 [sp + 880] = 0\n 36420: u64 [sp + 864] = 0\n 36424: a1 = u64 [sp + 0xb8]\n 36428: u8 [ra + 0x48] = a1\n 36431: a1 = u64 [sp + 0xb0]\n 36435: u8 [ra + 0x47] = a1\n 36438: a1 = u64 [sp + 0xa8]\n 36442: u8 [ra + 0x46] = a1\n 36445: a1 = u64 [sp + 0xa0]\n 36449: u8 [ra + 0x45] = a1\n 36452: a1 = u64 [sp + 0x98]\n 36456: u8 [ra + 0x44] = a1\n 36459: a1 = u64 [sp + 0x90]\n 36463: u8 [ra + 0x43] = a1\n 36466: a1 = u64 [sp + 0x88]\n 36470: u8 [ra + 0x42] = a1\n 36473: a1 = u64 [sp + 0x80]\n 36477: u8 [ra + 0x50] = a1\n 36480: a1 = u64 [sp + 0x78]\n 36483: u8 [ra + 0x4f] = a1\n 36486: a1 = u64 [sp + 0x70]\n 36489: u8 [ra + 0x4e] = a1\n 36492: a1 = u64 [sp + 0x68]\n 36495: u8 [ra + 0x4d] = a1\n 36498: a1 = u64 [sp + 0x60]\n 36501: u8 [ra + 0x4c] = a1\n 36504: a1 = u64 [sp + 0x58]\n 36507: u8 [ra + 0x4b] = a1\n 36510: a1 = u64 [sp + 0x50]\n 36513: u8 [ra + 0x4a] = a1\n 36516: a1 = u64 [sp + 0x48]\n 36519: u8 [ra + 0x58] = a1\n 36522: a1 = u64 [sp + 0x40]\n 36525: u8 [ra + 0x57] = a1\n 36528: a1 = u64 [sp + 0x38]\n 36531: u8 [ra + 0x56] = a1\n 36534: a1 = u64 [sp + 0x30]\n 36537: u8 [ra + 0x55] = a1\n 36540: a1 = u64 [sp + 0x28]\n 36543: u8 [ra + 0x54] = a1\n 36546: u8 [ra + 128] = 0\n 36550: u8 [ra + 127] = 0\n 36553: u8 [ra + 126] = 0\n 36556: u8 [ra + 125] = 0\n 36559: u8 [ra + 124] = 0\n 36562: u8 [ra + 123] = 0\n 36565: u8 [ra + 122] = 0\n 36568: u8 [ra + 121] = 0\n 36571: u8 [ra + 120] = 0\n 36574: u8 [ra + 119] = 0\n 36577: u8 [ra + 118] = 0\n 36580: u8 [ra + 117] = 0\n 36583: u8 [ra + 116] = 0\n 36586: u8 [ra + 115] = 0\n 36589: u8 [ra + 114] = 0\n 36592: u8 [ra + 113] = 0\n 36595: u8 [ra + 112] = 0\n 36598: u8 [ra + 111] = 0\n 36601: u8 [ra + 110] = 0\n 36604: u8 [ra + 109] = 0\n 36607: u8 [ra + 108] = 0\n 36610: u8 [ra + 107] = 0\n 36613: u8 [ra + 106] = 0\n 36616: u8 [ra + 105] = 0\n 36619: u8 [ra + 104] = 0\n 36622: u8 [ra + 103] = 0\n 36625: u8 [ra + 102] = 0\n 36628: u8 [ra + 101] = 0\n 36631: u8 [ra + 100] = 0\n 36634: u8 [ra + 99] = 0\n 36637: u8 [ra + 98] = 0\n 36640: u8 [ra + 97] = 0\n 36643: u8 [ra + 0x41] = t2\n 36646: a0 = u64 [sp + 0x318]\n 36650: u8 [ra + 0x49] = a0\n 36653: a0 = u64 [sp + 0x308]\n 36657: u8 [ra + 0x51] = a0\n 36660: a0 = u64 [sp + 0x300]\n 36664: u8 [ra + 0x59] = a0\n 36667: a0 = u64 [sp + 0x358]\n 36671: u8 [ra + 0x53] = a0\n 36674: a0 = u64 [sp + 0x350]\n 36678: u8 [ra + 0x52] = a0\n 36681: a0 = u64 [sp + 0x348]\n 36685: u8 [ra + 0x60] = a0\n 36688: a0 = u64 [sp + 0xf0]\n 36692: u8 [ra + 0x5f] = a0\n 36695: a0 = u64 [sp + 0xe8]\n 36699: u8 [ra + 0x5e] = a0\n 36702: a0 = u64 [sp + 0xe0]\n 36706: u8 [ra + 0x5d] = a0\n 36709: a0 = u64 [sp + 0xd8]\n 36713: u8 [ra + 0x5c] = a0\n 36716: a0 = u64 [sp + 0xc8]\n 36720: u8 [ra + 0x5b] = a0\n 36723: a0 = u64 [sp + 0xc0]\n 36727: u8 [ra + 0x5a] = a0\n 36730: s1 = u64 [sp + 0x3a8]\n 36734: a0 = s1 << 0x38\n 36737: a0 = a0 >> 0x3b\n 36740: a1 = sp + 0x7ff\n 36744: a1 = a1 + 0x3a1\n 36748: a0 = a0 + a1\n 36751: a1 = u8 [a0 + 0x11]\n 36754: a2 = u8 [a0 + 0x10]\n 36757: a3 = u8 [a0 + 0x12]\n 36760: a4 = u8 [a0 + 0x13]\n 36763: a1 = a1 << 0x8\n 36766: a1 = a1 | a2\n 36769: a3 = a3 << 0x10\n 36772: a4 = a4 << 0x18\n 36775: a3 = a3 | a4\n 36778: a1 = a1 | a3\n 36781: a2 = u8 [a0 + 0x15]\n 36784: a3 = u8 [a0 + 0x14]\n 36787: a4 = u8 [a0 + 0x16]\n 36790: a5 = u8 [a0 + 0x17]\n 36793: a2 = a2 << 0x8\n 36796: a2 = a2 | a3\n 36799: a4 = a4 << 0x10\n 36802: a5 = a5 << 0x18\n 36805: a4 = a4 | a5\n 36808: a2 = a2 | a4\n 36811: a2 = a2 << 0x20\n 36814: ra = a2 | a1\n 36817: t1 = s1 & 0x7\n 36820: t0 = ra >> t1\n 36823: a2 = u8 [a0 + 0x19]\n 36826: a3 = u8 [a0 + 0x18]\n 36829: a5 = u8 [a0 + 0x1a]\n 36832: a4 = u8 [a0 + 0x1b]\n 36835: a2 = a2 << 0x8\n 36838: a2 = a2 | a3\n 36841: a5 = a5 << 0x10\n 36844: a4 = a4 << 0x18\n 36847: a4 = a4 | a5\n 36850: a2 = a2 | a4\n 36853: a3 = u8 [a0 + 0x1d]\n 36856: a4 = u8 [a0 + 0x1c]\n 36859: a5 = u8 [a0 + 0x1e]\n 36862: s1 = u8 [a0 + 0x1f]\n 36865: a3 = a3 << 0x8\n 36868: a3 = a3 | a4\n 36871: a5 = a5 << 0x10\n 36874: s1 = s1 << 0x18\n 36877: a5 = a5 | s1\n 36880: a3 = a3 | a5\n 36883: a3 = a3 << 0x20\n 36886: t2 = a3 | a2\n 36889: a4 = t2 << 0x1\n 36892: a2 = t1 ^ 0x3f\n 36895: a4 = a4 << a2\n 36898: t0 = t0 | a4\n 36901: a4 = u8 [a0 + 0x9]\n 36904: a5 = u8 [a0 + 0x8]\n 36907: s1 = u8 [a0 + 0xa]\n 36910: a3 = u8 [a0 + 0xb]\n 36913: a4 = a4 << 0x8\n 36916: a4 = a4 | a5\n 36919: s1 = s1 << 0x10\n 36922: a3 = a3 << 0x18\n 36925: a3 = a3 | s1\n 36928: a3 = a3 | a4\n 36931: a4 = u8 [a0 + 0xd]\n 36934: a5 = u8 [a0 + 0xc]\n 36937: s1 = u8 [a0 + 0xe]\n 36940: a1 = u8 [a0 + 0xf]\n 36943: a4 = a4 << 0x8\n 36946: a4 = a4 | a5\n 36949: s1 = s1 << 0x10\n 36952: a1 = a1 << 0x18\n 36955: a1 = a1 | s1\n 36958: a1 = a1 | a4\n 36961: a1 = a1 << 0x20\n 36964: s1 = a1 | a3\n 36967: a1 = s1 >> t1\n 36970: ra = ra << 0x1\n 36973: a3 = t1 ^ 0xffffffffffffffff\n 36976: a4 = ra << a3\n 36979: a4 = a4 | a1\n 36982: a1 = u8 [a0 + 0x1]\n 36985: a3 = u8 [a0]\n 36987: a5 = u8 [a0 + 0x2]\n 36990: ra = u8 [a0 + 0x3]\n 36993: a1 = a1 << 0x8\n 36996: a1 = a1 | a3\n 36999: a5 = a5 << 0x10\n 37002: ra = ra << 0x18\n 37005: a3 = ra | a5\n 37008: ra = a3 | a1\n 37011: a3 = u8 [a0 + 0x5]\n 37014: a5 = u8 [a0 + 0x4]\n 37017: a1 = u8 [a0 + 0x6]\n 37020: a0 = u8 [a0 + 0x7]\n 37023: a3 = a3 << 0x8\n 37026: a3 = a3 | a5\n 37029: a1 = a1 << 0x10\n 37032: a0 = a0 << 0x18\n 37035: a0 = a0 | a1\n 37038: a0 = a0 | a3\n 37041: a0 = a0 << 0x20\n 37044: a0 = a0 | ra\n 37047: a0 = a0 >> t1\n 37050: s1 = s1 << 0x1\n 37053: a1 = s1 << a2\n 37056: ra = a0 | a1\n 37059: t1 = t2 >> t1\n 37062: a1 = u64 [sp + 0x3b8]\n 37066: a0 = a1 <u 0x1\n 37069: a2 = u64 [sp + 0x3b0]\n 37073: a0 = a2 - a0\n 37076: u64 [sp + 0x358] = a0\n 37080: a0 = a1 | a2\n 37083: a0 = a0 >u 0\n 37085: a0 = a0 + 0xffffffffffffffff\n 37088: u64 [sp + 0x350] = a0\n 37092: a1 = a1 + 0xffffffffffffffff\n 37095: u64 [sp + 0x348] = a1\n 37099: fallthrough\n      : @210 (gas: 87)\n 37100: a3 = ra >> 0x3f\n 37103: a5 = a4 << 0x1\n 37106: a3 = a3 | a5\n 37109: ra = ra << 0x1\n 37112: s1 = u64 [sp + 0x3a0]\n 37116: a5 = s1 >> 0x3f\n 37119: ra = ra | a5\n 37122: a1 = u64 [sp + 0x358]\n 37126: a0 = a1 ^ a3\n 37129: a1 = a1 <u a3\n 37132: a2 = u64 [sp + 0x348]\n 37136: a5 = a2 <u ra\n 37139: a5 = a1 if a0 != 0\n 37142: t1 = t1 << 0x1\n 37145: a0 = t0 >> 0x3f\n 37148: t1 = t1 | a0\n 37151: a4 = a4 >> 0x3f\n 37154: t0 = t0 << 0x1\n 37157: a4 = t0 | a4\n 37160: a0 = s1 << 0x1\n 37163: a1 = u64 [sp + 0x398]\n 37167: a2 = a1 >> 0x3f\n 37170: t0 = a0 | a2\n 37173: a2 = a1 << 0x1\n 37176: a0 = u64 [sp + 0x390]\n 37180: a1 = a0 >> 0x3f\n 37183: a1 = a1 | a2\n 37186: a2 = a0 << 0x1\n 37189: s1 = u64 [sp + 0x368]\n 37193: a0 = s1 >> 0x3f\n 37196: a0 = a0 | a2\n 37199: a2 = s1 << 0x1\n 37202: s1 = u64 [sp + 0x370]\n 37206: a2 = a2 | s1\n 37209: u64 [sp + 0x368] = a2\n 37213: a2 = u64 [sp + 0x360]\n 37217: a0 = a0 | a2\n 37220: u64 [sp + 0x390] = a0\n 37224: a1 = a1 | a2\n 37227: u64 [sp + 0x398] = a1\n 37231: a0 = a2 | t0\n 37234: u64 [sp + 0x3a0] = a0\n 37238: a2 = u64 [sp + 0x350]\n 37242: a0 = a2 - a4\n 37245: a0 = a0 <u a5\n 37248: a1 = a2 <u a4\n 37251: a2 = a2 - t1\n 37254: a2 = a2 - a1\n 37257: a2 = a2 - a0\n 37260: a5 = a2 >>a 0x3f\n 37263: a0 = u64 [sp + 0x3b8]\n 37267: a0 = a0 & a5\n 37270: a1 = u64 [sp + 0x3b0]\n 37274: a1 = a1 & a5\n 37277: t0 = a3 ^ a1\n 37280: s1 = a3 <u a1\n 37283: a2 = ra <u a0\n 37286: s1 = a2 if t0 == 0\n 37289: t0 = a4 - s1\n 37292: a4 = a4 <u s1\n 37295: t1 = t1 - a4\n 37298: a3 = a3 - a1\n 37301: a4 = a3 - a2\n 37304: ra = ra - a0\n 37307: a3 = u64 [sp + 0x3a8]\n 37311: s1 = u64 [sp + 0x388]\n 37315: a0 = a3 | s1\n 37318: a0 = a0 <u 0x1\n 37321: a2 = u64 [sp + 0x378]\n 37325: a1 = a2 <u a0\n 37328: a0 = a2 - a0\n 37331: a2 = a3 <u 0x1\n 37334: s1 = s1 - a2\n 37337: a2 = u64 [sp + 0x380]\n 37341: a2 = a2 - a1\n 37344: a3 = a3 + 0xffffffffffffffff\n 37347: u64 [sp + 0x388] = s1\n 37351: u64 [sp + 0x380] = a2\n 37355: a1 = s1 | a2\n 37358: u64 [sp + 0x3a8] = a3\n 37362: a2 = a3 | a0\n 37365: a1 = a1 | a2\n 37368: a5 = a5 & 0x1\n 37371: u64 [sp + 0x370] = a5\n 37375: u64 [sp + 0x378] = a0\n 37379: u64 [sp + 864] = 0\n 37383: jump @210 if a1 != 0\n      : @211 (gas: 1)\n 37387: jump @243\n      : @212 (gas: 12)\n 37390: a4 = u64 [sp + 0x330]\n 37394: a0 = a4 >u 0\n 37396: a3 = u64 [sp + 0x328]\n 37400: a1 = a3 <u 0x100\n 37404: a1 = a1 ^ 0x1\n 37407: a1 = a0 if a4 != 0\n 37410: a2 = u64 [sp + 0x320]\n 37414: a2 = a2 | a1\n 37417: a0 = a2 + 0xffffffffffffffff\n 37420: a1 = a2 >u 0\n 37422: a1 = a1 + 0xffffffffffffffff\n 37425: jump @214 if a2 == 0\n      : @213 (gas: 1)\n 37428: jump @241\n      : @214 (gas: 6)\n 37431: a2 = a3 ^ 0xff\n 37435: a3 = a2 | a4\n 37438: t1 = a1\n 37440: a5 = a1\n 37442: t2 = u64 [sp + 0x3d8]\n 37446: jump @216 if a3 != 0\n      : @215 (gas: 1)\n 37449: jump @256\n      : @216 (gas: 200)\n 37452: a1 = u64 [sp + 0x328]\n 37456: t1 = 0xff - a1\n 37460: ra = sp + 0x7ff\n 37464: ra = ra + 0x360\n 37468: u8 [ra + 353] = 0xffffffffffffffff\n 37473: u8 [ra + 352] = 0\n 37477: u8 [ra + 351] = 0\n 37481: u8 [ra + 350] = 0\n 37485: u8 [ra + 349] = 0\n 37489: u8 [ra + 348] = 0\n 37493: u8 [ra + 347] = 0\n 37497: u8 [ra + 346] = 0\n 37501: u8 [ra + 345] = 0\n 37505: u8 [ra + 344] = 0\n 37509: u8 [ra + 343] = 0\n 37513: u8 [ra + 342] = 0\n 37517: u8 [ra + 341] = 0\n 37521: u8 [ra + 340] = 0\n 37525: u8 [ra + 339] = 0\n 37529: u8 [ra + 338] = 0\n 37533: u8 [ra + 337] = 0\n 37537: u8 [ra + 336] = 0\n 37541: u8 [ra + 335] = 0\n 37545: u8 [ra + 334] = 0\n 37549: u8 [ra + 333] = 0\n 37553: u8 [ra + 332] = 0\n 37557: u8 [ra + 331] = 0\n 37561: u8 [ra + 330] = 0\n 37565: u8 [ra + 329] = 0\n 37569: u8 [ra + 328] = 0\n 37573: u8 [ra + 327] = 0\n 37577: u8 [ra + 326] = 0\n 37581: u8 [ra + 325] = 0\n 37585: u8 [ra + 324] = 0\n 37589: u8 [ra + 323] = 0\n 37593: u8 [ra + 322] = 0\n 37597: u8 [ra + 321] = 0\n 37601: u8 [ra + 361] = 0xffffffffffffffff\n 37606: u8 [ra + 360] = 0xff\n 37612: u8 [ra + 359] = 0xffff\n 37619: u8 [ra + 358] = 0xffffff\n 37627: a4 = 0xffffffff\n 37637: u8 [ra + 0x165] = a4\n 37641: a5 = 0xffffffffff\n 37651: u8 [ra + 0x164] = a5\n 37655: a0 = 0xffffffffffff\n 37665: u8 [ra + 0x163] = a0\n 37669: t0 = 0xffffffffffffff\n 37679: u8 [ra + 0x162] = t0\n 37683: u8 [ra + 369] = 0xffffffffffffffff\n 37688: u8 [ra + 368] = 0xff\n 37694: u8 [ra + 367] = 0xffff\n 37701: u8 [ra + 366] = 0xffffff\n 37709: u8 [ra + 0x16d] = a4\n 37713: u8 [ra + 0x16c] = a5\n 37717: u8 [ra + 0x16b] = a0\n 37721: u8 [ra + 0x16a] = t0\n 37725: u8 [ra + 377] = 0xffffffffffffffff\n 37730: u8 [ra + 376] = 0xff\n 37736: u8 [ra + 375] = 0xffff\n 37743: u8 [ra + 374] = 0xffffff\n 37751: u8 [ra + 0x175] = a4\n 37755: u8 [ra + 0x174] = a5\n 37759: u8 [ra + 0x173] = a0\n 37763: u8 [ra + 0x172] = t0\n 37767: u64 [sp + 904] = 0xff\n 37773: u8 [ra + 384] = 0xff\n 37779: u64 [sp + 872] = 0xffff\n 37786: u8 [ra + 383] = 0xffff\n 37793: u64 [sp + 864] = 0xffffff\n 37801: u8 [ra + 382] = 0xffffff\n 37809: u64 [sp + 0x358] = a4\n 37813: u8 [ra + 0x17d] = a4\n 37817: u64 [sp + 0x350] = a5\n 37821: u8 [ra + 0x17c] = a5\n 37825: u64 [sp + 0x348] = a0\n 37829: u8 [ra + 0x17b] = a0\n 37833: u8 [ra + 0x17a] = t0\n 37837: a2 = t1 << 0x38\n 37840: a2 = a2 >> 0x3b\n 37843: a0 = sp + 0x7ff\n 37847: a0 = a0 + 0x4c1\n 37851: a2 = a0 - a2\n 37854: a3 = u8 [a2 + 0x19]\n 37857: a4 = u8 [a2 + 0x18]\n 37860: a5 = u8 [a2 + 0x1a]\n 37863: s1 = u8 [a2 + 0x1b]\n 37866: a3 = a3 << 0x8\n 37869: a3 = a3 | a4\n 37872: a5 = a5 << 0x10\n 37875: s1 = s1 << 0x18\n 37878: a5 = a5 | s1\n 37881: a3 = a3 | a5\n 37884: a4 = u8 [a2 + 0x1d]\n 37887: a5 = u8 [a2 + 0x1c]\n 37890: s1 = u8 [a2 + 0x1e]\n 37893: a0 = u8 [a2 + 0x1f]\n 37896: a4 = a4 << 0x8\n 37899: a4 = a4 | a5\n 37902: s1 = s1 << 0x10\n 37905: a0 = a0 << 0x18\n 37908: a0 = a0 | s1\n 37911: a0 = a0 | a4\n 37914: a0 = a0 << 0x20\n 37917: a3 = a3 | a0\n 37920: a0 = u8 [a2 + 0x11]\n 37923: a4 = u8 [a2 + 0x10]\n 37926: a5 = u8 [a2 + 0x12]\n 37929: s1 = u8 [a2 + 0x13]\n 37932: a0 = a0 << 0x8\n 37935: a0 = a0 | a4\n 37938: a5 = a5 << 0x10\n 37941: s1 = s1 << 0x18\n 37944: a5 = a5 | s1\n 37947: a0 = a0 | a5\n 37950: a4 = u8 [a2 + 0x15]\n 37953: a5 = u8 [a2 + 0x14]\n 37956: s1 = u8 [a2 + 0x16]\n 37959: a1 = u8 [a2 + 0x17]\n 37962: a4 = a4 << 0x8\n 37965: a4 = a4 | a5\n 37968: s1 = s1 << 0x10\n 37971: a1 = a1 << 0x18\n 37974: a1 = a1 | s1\n 37977: a1 = a1 | a4\n 37980: a1 = a1 << 0x20\n 37983: t2 = a1 | a0\n 37986: a1 = t1 & 0x7\n 37989: a0 = a3 << a1\n 37992: a5 = t2 >> 0x1\n 37995: t1 = a1 ^ 0x3f\n 37998: a5 = a5 >> t1\n 38001: a0 = a0 | a5\n 38004: u64 [sp + 0x3a8] = a0\n 38008: a0 = u8 [a2 + 0x9]\n 38011: a5 = u8 [a2 + 0x8]\n 38014: s1 = u8 [a2 + 0xa]\n 38017: a3 = u8 [a2 + 0xb]\n 38020: a0 = a0 << 0x8\n 38023: a0 = a0 | a5\n 38026: s1 = s1 << 0x10\n 38029: a3 = a3 << 0x18\n 38032: a3 = a3 | s1\n 38035: a0 = a0 | a3\n 38038: a3 = u8 [a2 + 0xd]\n 38041: a5 = u8 [a2 + 0xc]\n 38044: s1 = u8 [a2 + 0xe]\n 38047: a4 = u8 [a2 + 0xf]\n 38050: a3 = a3 << 0x8\n 38053: a3 = a3 | a5\n 38056: s1 = s1 << 0x10\n 38059: a4 = a4 << 0x18\n 38062: a4 = a4 | s1\n 38065: a3 = a3 | a4\n 38068: a3 = a3 << 0x20\n 38071: a5 = a3 | a0\n 38074: a0 = a5 >> 0x1\n 38077: a3 = a1 ^ 0xffffffffffffffff\n 38080: a0 = a0 >> a3\n 38083: a3 = t2 << a1\n 38086: a0 = a0 | a3\n 38089: u64 [sp + 0x390] = a0\n 38093: a0 = u8 [a2 + 0x1]\n 38096: a3 = u8 [a2]\n 38098: a4 = u8 [a2 + 0x2]\n 38101: s1 = u8 [a2 + 0x3]\n 38104: a0 = a0 << 0x8\n 38107: a0 = a0 | a3\n 38110: a4 = a4 << 0x10\n 38113: s1 = s1 << 0x18\n 38116: a4 = a4 | s1\n 38119: a0 = a0 | a4\n 38122: a3 = u8 [a2 + 0x5]\n 38125: a4 = u8 [a2 + 0x4]\n 38128: s1 = u8 [a2 + 0x6]\n 38131: a2 = u8 [a2 + 0x7]\n 38134: a3 = a3 << 0x8\n 38137: a3 = a3 | a4\n 38140: s1 = s1 << 0x10\n 38143: a2 = a2 << 0x18\n 38146: a2 = a2 | s1\n 38149: a2 = a2 | a3\n 38152: a2 = a2 << 0x20\n 38155: a0 = a0 | a2\n 38158: a2 = a0 >> 0x1\n 38161: a2 = a2 >> t1\n 38164: a3 = a5 << a1\n 38167: a2 = a2 | a3\n 38170: u64 [sp + 0x3a0] = a2\n 38174: a4 = u64 [sp + 0x328]\n 38178: t1 = a4 + 0x1\n 38181: a2 = t1 <u 0x1\n 38184: a3 = u64 [sp + 0x330]\n 38188: s1 = a3 + a2\n 38191: a2 = t1 | s1\n 38194: a3 = a2 <u 0x1\n 38197: a2 = a2 | a3\n 38200: a0 = a0 << a1\n 38203: u64 [sp + 0x398] = a0\n 38207: jump @218 if a2 != 0\n      : @217 (gas: 1)\n 38210: jump @254\n      : @218 (gas: 206)\n 38213: u64 [sp + 720] = 0\n 38217: u64 [sp + 888] = 0\n 38221: u64 [sp + 896] = 0\n 38225: u8 [ra + 320] = 0\n 38229: u8 [ra + 319] = 0\n 38233: u8 [ra + 318] = 0\n 38237: u8 [ra + 317] = 0\n 38241: u8 [ra + 316] = 0\n 38245: u8 [ra + 315] = 0\n 38249: u8 [ra + 314] = 0\n 38253: u8 [ra + 313] = 0\n 38257: u8 [ra + 312] = 0\n 38261: u8 [ra + 311] = 0\n 38265: u8 [ra + 310] = 0\n 38269: u8 [ra + 309] = 0\n 38273: u8 [ra + 308] = 0\n 38277: u8 [ra + 307] = 0\n 38281: u8 [ra + 306] = 0\n 38285: u8 [ra + 305] = 0\n 38289: u8 [ra + 304] = 0\n 38293: u8 [ra + 303] = 0\n 38297: u8 [ra + 302] = 0\n 38301: u8 [ra + 301] = 0\n 38305: u8 [ra + 300] = 0\n 38309: u8 [ra + 299] = 0\n 38313: u8 [ra + 298] = 0\n 38317: u8 [ra + 297] = 0\n 38321: u8 [ra + 296] = 0\n 38325: u8 [ra + 295] = 0\n 38329: u8 [ra + 294] = 0\n 38333: u8 [ra + 293] = 0\n 38337: u8 [ra + 292] = 0\n 38341: u8 [ra + 291] = 0\n 38345: u8 [ra + 290] = 0\n 38349: u8 [ra + 289] = 0\n 38353: u8 [ra + 257] = 0xffffffffffffffff\n 38358: u8 [ra + 265] = 0xffffffffffffffff\n 38363: a1 = u64 [sp + 0x388]\n 38367: u8 [ra + 0x108] = a1\n 38371: a2 = u64 [sp + 0x368]\n 38375: u8 [ra + 0x107] = a2\n 38379: a5 = u64 [sp + 0x360]\n 38383: u8 [ra + 0x106] = a5\n 38387: u64 [sp + 0x370] = a3\n 38391: a3 = u64 [sp + 0x358]\n 38395: u8 [ra + 0x105] = a3\n 38399: t2 = u64 [sp + 0x350]\n 38403: u8 [ra + 0x104] = t2\n 38407: a4 = u64 [sp + 0x348]\n 38411: u8 [ra + 0x103] = a4\n 38415: u8 [ra + 0x102] = t0\n 38419: u8 [ra + 273] = 0xffffffffffffffff\n 38424: u8 [ra + 0x110] = a1\n 38428: u8 [ra + 0x10f] = a2\n 38432: u8 [ra + 0x10e] = a5\n 38436: u8 [ra + 0x10d] = a3\n 38440: u8 [ra + 0x10c] = t2\n 38444: u8 [ra + 0x10b] = a4\n 38448: u8 [ra + 0x10a] = t0\n 38452: u8 [ra + 281] = 0xffffffffffffffff\n 38457: u8 [ra + 0x118] = a1\n 38461: u8 [ra + 0x117] = a2\n 38465: u8 [ra + 0x116] = a5\n 38469: u8 [ra + 0x115] = a3\n 38473: u8 [ra + 0x114] = t2\n 38477: u8 [ra + 0x113] = a4\n 38481: u8 [ra + 0x112] = t0\n 38485: u8 [ra + 0x120] = a1\n 38489: u8 [ra + 0x11f] = a2\n 38493: u8 [ra + 0x11e] = a5\n 38497: u8 [ra + 0x11d] = a3\n 38501: u8 [ra + 0x11c] = t2\n 38505: u8 [ra + 0x11b] = a4\n 38509: u8 [ra + 0x11a] = t0\n 38513: a0 = t1 << 0x38\n 38516: a0 = a0 >> 0x3b\n 38519: a1 = sp + 0x7ff\n 38523: a1 = a1 + 0x461\n 38527: a1 = a1 + a0\n 38530: a0 = u8 [a1 + 0x11]\n 38533: a2 = u8 [a1 + 0x10]\n 38536: ra = s1\n 38538: a3 = u8 [a1 + 0x12]\n 38541: a4 = u8 [a1 + 0x13]\n 38544: a0 = a0 << 0x8\n 38547: a0 = a0 | a2\n 38550: a3 = a3 << 0x10\n 38553: a4 = a4 << 0x18\n 38556: a3 = a3 | a4\n 38559: a0 = a0 | a3\n 38562: a2 = u8 [a1 + 0x15]\n 38565: a3 = u8 [a1 + 0x14]\n 38568: a4 = u8 [a1 + 0x16]\n 38571: a5 = u8 [a1 + 0x17]\n 38574: a2 = a2 << 0x8\n 38577: a2 = a2 | a3\n 38580: a4 = a4 << 0x10\n 38583: a5 = a5 << 0x18\n 38586: a4 = a4 | a5\n 38589: a2 = a2 | a4\n 38592: a2 = a2 << 0x20\n 38595: t0 = a2 | a0\n 38598: u64 [sp + 0x388] = t1\n 38602: a3 = t1 & 0x7\n 38605: a0 = u8 [a1 + 0x19]\n 38608: a4 = u8 [a1 + 0x18]\n 38611: a5 = u8 [a1 + 0x1a]\n 38614: s1 = u8 [a1 + 0x1b]\n 38617: a0 = a0 << 0x8\n 38620: a0 = a0 | a4\n 38623: a5 = a5 << 0x10\n 38626: s1 = s1 << 0x18\n 38629: a4 = u8 [a1 + 0x1d]\n 38632: a5 = a5 | s1\n 38635: a0 = a0 | a5\n 38638: a5 = u8 [a1 + 0x1c]\n 38641: a4 = a4 << 0x8\n 38644: s1 = u8 [a1 + 0x1e]\n 38647: a2 = u8 [a1 + 0x1f]\n 38650: a4 = a4 | a5\n 38653: a5 = t0 >> a3\n 38656: s1 = s1 << 0x10\n 38659: a2 = a2 << 0x18\n 38662: a2 = a2 | s1\n 38665: a2 = a2 | a4\n 38668: a2 = a2 << 0x20\n 38671: t1 = a2 | a0\n 38674: a0 = t1 << 0x1\n 38677: a2 = a3 ^ 0x3f\n 38680: u64 [sp + 0x360] = a2\n 38684: a0 = a0 << a2\n 38687: a0 = a0 | a5\n 38690: u64 [sp + 0x368] = a0\n 38694: a0 = u8 [a1 + 0x9]\n 38697: a2 = u8 [a1 + 0x8]\n 38700: a4 = u8 [a1 + 0xa]\n 38703: a5 = u8 [a1 + 0xb]\n 38706: a0 = a0 << 0x8\n 38709: a0 = a0 | a2\n 38712: a4 = a4 << 0x10\n 38715: a5 = a5 << 0x18\n 38718: a4 = a4 | a5\n 38721: a0 = a0 | a4\n 38724: a2 = u8 [a1 + 0xd]\n 38727: a4 = u8 [a1 + 0xc]\n 38730: a5 = u8 [a1 + 0xe]\n 38733: s1 = u8 [a1 + 0xf]\n 38736: a2 = a2 << 0x8\n 38739: a2 = a2 | a4\n 38742: a5 = a5 << 0x10\n 38745: s1 = s1 << 0x18\n 38748: a5 = a5 | s1\n 38751: a2 = a2 | a5\n 38754: a2 = a2 << 0x20\n 38757: t2 = a2 | a0\n 38760: t0 = t0 << 0x1\n 38763: a0 = a3 ^ 0xffffffffffffffff\n 38766: a0 = t0 << a0\n 38769: a2 = t2 >> a3\n 38772: a2 = a2 | a0\n 38775: a0 = u8 [a1 + 0x1]\n 38778: a4 = u8 [a1]\n 38780: a5 = u8 [a1 + 0x2]\n 38783: s1 = u8 [a1 + 0x3]\n 38786: a0 = a0 << 0x8\n 38789: a0 = a0 | a4\n 38792: a5 = a5 << 0x10\n 38795: s1 = s1 << 0x18\n 38798: a5 = a5 | s1\n 38801: a0 = a0 | a5\n 38804: a4 = u8 [a1 + 0x5]\n 38807: a5 = u8 [a1 + 0x4]\n 38810: s1 = u8 [a1 + 0x6]\n 38813: a1 = u8 [a1 + 0x7]\n 38816: a4 = a4 << 0x8\n 38819: a4 = a4 | a5\n 38822: a5 = u64 [sp + 0x2d0]\n 38826: s1 = s1 << 0x10\n 38829: a1 = a1 << 0x18\n 38832: a1 = a1 | s1\n 38835: a1 = a1 | a4\n 38838: a1 = a1 << 0x20\n 38841: a0 = a0 | a1\n 38844: a0 = a0 >> a3\n 38847: t2 = t2 << 0x1\n 38850: a1 = u64 [sp + 0x360]\n 38854: s1 = t2 << a1\n 38857: s1 = s1 | a0\n 38860: t1 = t1 >> a3\n 38863: a3 = u64 [sp + 0x3c0]\n 38867: a0 = a3 <u 0x1\n 38870: a1 = u64 [sp + 0x3d0]\n 38874: a0 = a1 - a0\n 38877: u64 [sp + 0x318] = a0\n 38881: a0 = a3 | a1\n 38884: a0 = a0 <u 0x1\n 38887: a1 = u64 [sp + 0x3c8]\n 38891: a4 = a1 - a0\n 38894: u64 [sp + 0x310] = a4\n 38898: a0 = a1 <u a0\n 38901: a1 = u64 [sp + 0x3d8]\n 38905: a1 = a1 - a0\n 38908: u64 [sp + 0x308] = a1\n 38912: a3 = a3 + 0xffffffffffffffff\n 38915: u64 [sp + 0x300] = a3\n 38919: fallthrough\n      : @219 (gas: 102)\n 38920: u64 [sp + 0x360] = ra\n 38924: u64 [sp + 840] = 0\n 38928: a1 = s1 >> 0x3f\n 38931: ra = a5\n 38933: a5 = a2 << 0x1\n 38936: a1 = a1 | a5\n 38939: s1 = s1 << 0x1\n 38942: a3 = u64 [sp + 0x3a8]\n 38946: a5 = a3 >> 0x3f\n 38949: t2 = s1 | a5\n 38952: a0 = u64 [sp + 0x318]\n 38956: t0 = a0 ^ a1\n 38959: a4 = a0 <u a1\n 38962: a0 = u64 [sp + 0x300]\n 38966: a5 = a0 <u t2\n 38969: u64 [sp + 0x350] = t2\n 38973: a5 = a4 if t0 != 0\n 38976: t1 = t1 << 0x1\n 38979: a0 = u64 [sp + 0x368]\n 38983: a4 = a0 >> 0x3f\n 38986: t0 = t1 | a4\n 38989: u64 [sp + 0x358] = t0\n 38993: a2 = a2 >> 0x3f\n 38996: a0 = a0 << 0x1\n 38999: a2 = a2 | a0\n 39002: a0 = a3 << 0x1\n 39005: a3 = u64 [sp + 0x390]\n 39009: a4 = a3 >> 0x3f\n 39012: a0 = a0 | a4\n 39015: s1 = a3 << 0x1\n 39018: a4 = u64 [sp + 0x3a0]\n 39022: a3 = a4 >> 0x3f\n 39025: a3 = a3 | s1\n 39028: a4 = a4 << 0x1\n 39031: s1 = u64 [sp + 0x398]\n 39035: t1 = s1 >> 0x3f\n 39038: a4 = a4 | t1\n 39041: s1 = s1 << 0x1\n 39044: s1 = ra | s1\n 39047: u64 [sp + 0x398] = s1\n 39051: s1 = u64 [sp + 0x378]\n 39055: a4 = a4 | s1\n 39058: u64 [sp + 0x3a0] = a4\n 39062: a3 = a3 | s1\n 39065: u64 [sp + 0x390] = a3\n 39069: a0 = a0 | s1\n 39072: u64 [sp + 0x3a8] = a0\n 39076: a3 = u64 [sp + 0x310]\n 39080: a0 = a3 - a2\n 39083: a0 = a0 <u a5\n 39086: a3 = a3 <u a2\n 39089: a4 = u64 [sp + 0x308]\n 39093: a4 = a4 - t0\n 39096: a4 = a4 - a3\n 39099: a4 = a4 - a0\n 39102: a5 = a4 >>a 0x3f\n 39105: a4 = u64 [sp + 0x3c0]\n 39109: ra = a5 & a4\n 39112: s1 = u64 [sp + 0x3d0]\n 39116: s1 = s1 & a5\n 39119: t1 = a1 ^ s1\n 39122: a3 = a1 <u s1\n 39125: a0 = t2 <u ra\n 39128: a3 = a0 if t1 == 0\n 39131: a4 = u64 [sp + 0x3c8]\n 39135: t1 = a5 & a4\n 39138: t2 = a2 - t1\n 39141: t0 = t2 - a3\n 39144: u64 [sp + 0x368] = t0\n 39148: t2 = t2 <u a3\n 39151: a2 = a2 <u t1\n 39154: a3 = u64 [sp + 0x3d8]\n 39158: a3 = a3 & a5\n 39161: a4 = u64 [sp + 0x358]\n 39165: a3 = a4 - a3\n 39168: a3 = a3 - a2\n 39171: t1 = a3 - t2\n 39174: a1 = a1 - s1\n 39177: a2 = a1 - a0\n 39180: a0 = u64 [sp + 0x350]\n 39184: s1 = a0 - ra\n 39187: ra = u64 [sp + 0x360]\n 39191: a3 = u64 [sp + 0x388]\n 39195: a0 = a3 | ra\n 39198: a0 = a0 <u 0x1\n 39201: a4 = u64 [sp + 0x370]\n 39205: a1 = a4 <u a0\n 39208: a0 = a4 - a0\n 39211: a4 = a3 <u 0x1\n 39214: ra = ra - a4\n 39217: a4 = u64 [sp + 0x380]\n 39221: a4 = a4 - a1\n 39224: a3 = a3 + 0xffffffffffffffff\n 39227: u64 [sp + 0x380] = a4\n 39231: a1 = ra | a4\n 39234: u64 [sp + 0x388] = a3\n 39238: a4 = a3 | a0\n 39241: a1 = a1 | a4\n 39244: a5 = a5 & 0x1\n 39247: u64 [sp + 0x370] = a0\n 39251: u64 [sp + 888] = 0\n 39255: jump @219 if a1 != 0\n      : @220 (gas: 1)\n 39259: jump @255\n      : @221 (gas: 4)\n 39262: u64 [sp + 872] = 0\n 39266: u64 [sp + 840] = 0\n 39270: a3 = u64 [sp + 0x388]\n 39274: fallthrough\n      : @222 (gas: 20)\n 39275: a2 = u64 [sp + 0x398]\n 39279: a0 = a2 >> 0x3f\n 39282: a1 = u64 [sp + 0x3a0]\n 39286: a1 = a1 << 0x1\n 39289: a0 = a0 | a1\n 39292: a1 = a3 >> 0x3f\n 39295: a2 = a2 << 0x1\n 39298: a1 = a1 | a2\n 39301: a5 = u64 [sp + 0x390]\n 39305: a2 = a5 >> 0x3f\n 39308: a3 = a3 << 0x1\n 39311: a5 = a5 << 0x1\n 39314: a4 = u64 [sp + 0x368]\n 39318: a5 = a5 | a4\n 39321: a4 = u64 [sp + 0x348]\n 39325: a2 = a2 | a4\n 39328: a2 = a2 | a3\n 39331: a1 = a1 | a4\n 39334: a3 = a4 | a0\n 39337: fallthrough\n      : @223 (gas: 65)\n 39338: u64 [sp + 0x3a8] = a3\n 39342: t1 = u64 [sp + 0x3c0]\n 39346: a0 = t1 mulhu a5\n 39349: ra = u64 [sp + 0x3d0]\n 39353: a3 = ra * a5\n 39356: a0 = a0 + a3\n 39359: a3 = a0 <u a3\n 39362: a4 = ra mulhu a5\n 39365: a3 = a3 + a4\n 39368: a4 = t1 * a2\n 39371: t2 = a4 + a0\n 39374: a4 = t2 <u a4\n 39377: s1 = t1 mulhu a2\n 39380: a4 = a4 + s1\n 39383: a4 = a4 + a3\n 39386: a3 = a4 <u a3\n 39389: s1 = ra mulhu a2\n 39392: a3 = a3 + s1\n 39395: s1 = ra * a2\n 39398: a4 = a4 + s1\n 39401: s1 = a4 <u s1\n 39404: t0 = a3 + s1\n 39407: s1 = a1 * ra\n 39410: a3 = a1 mulhu t1\n 39413: a3 = a3 + s1\n 39416: a0 = u64 [sp + 0x3a8]\n 39420: s1 = a0 * t1\n 39423: ra = a3 + s1\n 39426: a3 = u64 [sp + 0x3c8]\n 39430: s1 = a5 mulhu a3\n 39433: a0 = u64 [sp + 0x3d8]\n 39437: a0 = a5 * a0\n 39440: a0 = a0 + s1\n 39443: a2 = a2 * a3\n 39446: a0 = a0 + a2\n 39449: a0 = a0 + ra\n 39452: a2 = a5 * a3\n 39455: a1 = a1 * t1\n 39458: a2 = a2 + a1\n 39461: a1 = a2 <u a1\n 39464: a0 = a0 + a1\n 39467: a2 = a2 + a4\n 39470: a1 = a2 <u a4\n 39473: a0 = a0 + t0\n 39476: a0 = a0 + a1\n 39479: a1 = t1 * a5\n 39482: a3 = u64 [sp + 0x258]\n 39486: t0 = a3 - a0\n 39489: a0 = u64 [sp + 0x2d0]\n 39493: s1 = a0 ^ t2\n 39496: a4 = a0 <u t2\n 39499: a3 = u64 [sp + 0x268]\n 39503: a5 = a3 <u a1\n 39506: a4 = a5 if s1 == 0\n 39509: s1 = u64 [sp + 0x260]\n 39513: t1 = s1 <u a2\n 39516: s1 = s1 - a2\n 39519: a2 = s1 <u a4\n 39522: a2 = a2 + t1\n 39525: t1 = t0 - a2\n 39528: t0 = s1 - a4\n 39531: a0 = a0 - t2\n 39534: a0 = a0 - a5\n 39537: s1 = a3 - a1\n 39540: fallthrough\n      : @224 (gas: 90)\n 39541: a1 = a0 * s1\n 39544: a2 = s1 mulhu s1\n 39547: a2 = a2 + a1\n 39550: a3 = a2 <u a1\n 39553: a4 = a0 mulhu s1\n 39556: a3 = a3 + a4\n 39559: ra = a1 + a2\n 39562: a1 = ra <u a1\n 39565: a1 = a1 + a4\n 39568: a1 = a1 + a3\n 39571: a2 = a0 * a0\n 39574: a4 = a2 + a1\n 39577: t2 = s1 * t0\n 39580: a5 = t2 + t2\n 39583: a1 = a1 <u a3\n 39586: a3 = a0 mulhu a0\n 39589: a1 = a1 + a3\n 39592: a3 = t1\n 39594: t1 = a4 + a5\n 39597: a2 = a4 <u a2\n 39600: a4 = t1 <u a4\n 39603: u64 [sp + 0x3a8] = a4\n 39607: a1 = a1 + a2\n 39610: a0 = a0 * t0\n 39613: a2 = s1 mulhu t0\n 39616: a4 = a2 + a0\n 39619: a3 = s1 * a3\n 39622: a4 = a4 + a3\n 39625: a0 = a0 + a2\n 39628: a0 = a0 + a3\n 39631: a0 = a0 + a4\n 39634: a2 = a5 <u t2\n 39637: a0 = a0 + a2\n 39640: a2 = u64 [sp + 0x3a8]\n 39644: a1 = a1 + a2\n 39647: t0 = a1 + a0\n 39650: a3 = s1 * s1\n 39653: u64 [sp + 0x2d0] = a3\n 39657: a1 = clz t0\n 39659: a0 = clz t1\n 39661: a0 = a0 + 0x40\n 39664: a0 = a1 if t0 != 0\n 39667: a1 = t1 | t0\n 39670: a2 = clz ra\n 39672: a3 = clz a3\n 39674: a3 = a3 + 0x40\n 39677: a3 = a2 if ra != 0\n 39680: a2 = a3 + 0x80\n 39684: a0 = a2 if a1 == 0\n 39687: a2 = a2 <u a3\n 39690: a2 = 0 if a1 != 0\n 39692: a5 = u64 [sp + 0x328]\n 39696: a1 = a5 <u a0\n 39699: a3 = u64 [sp + 0x330]\n 39703: a4 = a3 ^ a2\n 39706: s1 = a3 <u a2\n 39709: s1 = a1 if a4 == 0\n 39712: a4 = s1 <u 0x1\n 39715: t2 = a4 + 0xffffffffffffffff\n 39718: a4 = -s1\n 39720: a0 = a5 - a0\n 39723: a5 = a3 - a2\n 39726: a3 = a0\n 39728: a5 = a5 - a1\n 39731: a0 = a5 >u 0\n 39733: a1 = a3 <u 0x100\n 39737: a1 = a1 ^ 0x1\n 39740: a1 = a0 if a5 != 0\n 39743: a0 = a4 >u 0\n 39745: a2 = t2 >u 0\n 39747: a2 = a0 if t2 == 0\n 39750: a2 = a1 if s1 == 0\n 39753: a0 = ra | t0\n 39756: s1 = u64 [sp + 0x2d0]\n 39760: a1 = s1 | t1\n 39763: a0 = a0 | a1\n 39766: a0 = a0 <u 0x1\n 39769: a1 = u64 [sp + 0x320]\n 39773: a0 = a0 | a1\n 39776: u64 [sp + 0x258] = t0\n 39780: a0 = a0 | a2\n 39783: a1 = t0\n 39785: a1 = 0 if a0 != 0\n 39787: u64 [sp + 0x260] = t1\n 39791: t1 = 0 if a0 != 0\n 39793: u64 [sp + 0x268] = ra\n 39797: a2 = ra\n 39799: a2 = 0 if a0 != 0\n 39801: s1 = 0 if a0 != 0\n 39803: jump @232 if a0 != 0\n      : @225 (gas: 6)\n 39807: a0 = a3 ^ 0xff\n 39811: t0 = a4\n 39813: a0 = a0 | a4\n 39816: a4 = a5 | t2\n 39819: a0 = a0 | a4\n 39822: jump @232 if a0 == 0\n      : @226 (gas: 257)\n 39826: a1 = a3 + 0x1\n 39829: u64 [sp + 0x3a8] = a1\n 39833: a0 = a1 <u 0x1\n 39836: a0 = a0 + a5\n 39839: u64 [sp + 0x378] = a0\n 39843: a0 = a0 | a1\n 39846: a0 = a0 <u 0x1\n 39849: a0 = a0 + t0\n 39852: u64 [sp + 0x370] = a0\n 39856: a0 = a0 <u t0\n 39859: a0 = a0 + t2\n 39862: u64 [sp + 0x380] = a0\n 39866: t0 = 0xff - a3\n 39870: a0 = u64 [sp + 0x2d0]\n 39874: u8 [sp + 0x640] = a0\n 39878: u8 [sp + 1599] = 0\n 39882: u8 [sp + 1598] = 0\n 39886: u8 [sp + 1597] = 0\n 39890: u8 [sp + 1596] = 0\n 39894: u8 [sp + 1595] = 0\n 39898: u8 [sp + 1594] = 0\n 39902: u8 [sp + 1593] = 0\n 39906: u8 [sp + 1592] = 0\n 39910: u8 [sp + 1591] = 0\n 39914: u8 [sp + 1590] = 0\n 39918: u8 [sp + 1589] = 0\n 39922: u8 [sp + 1588] = 0\n 39926: u8 [sp + 1587] = 0\n 39930: u8 [sp + 1586] = 0\n 39934: u8 [sp + 1585] = 0\n 39938: u8 [sp + 1584] = 0\n 39942: u8 [sp + 1583] = 0\n 39946: u8 [sp + 1582] = 0\n 39950: u8 [sp + 1581] = 0\n 39954: u8 [sp + 1580] = 0\n 39958: u8 [sp + 1579] = 0\n 39962: u8 [sp + 1578] = 0\n 39966: u8 [sp + 1577] = 0\n 39970: u8 [sp + 1576] = 0\n 39974: u8 [sp + 1575] = 0\n 39978: u8 [sp + 1574] = 0\n 39982: u8 [sp + 1573] = 0\n 39986: u8 [sp + 1572] = 0\n 39990: u8 [sp + 1571] = 0\n 39994: u8 [sp + 1570] = 0\n 39998: u8 [sp + 1569] = 0\n 40002: u8 [sp + 1568] = 0\n 40006: a1 = u64 [sp + 0x268]\n 40010: u8 [sp + 0x648] = a1\n 40014: a2 = a0 >> 0x38\n 40017: u64 [sp + 0x220] = a2\n 40021: u8 [sp + 0x647] = a2\n 40025: a2 = a0 >> 0x30\n 40028: u64 [sp + 0x218] = a2\n 40032: u8 [sp + 0x646] = a2\n 40036: a2 = a0 >> 0x28\n 40039: u64 [sp + 0x210] = a2\n 40043: u8 [sp + 0x645] = a2\n 40047: a2 = a0 >> 0x20\n 40050: u64 [sp + 0x208] = a2\n 40054: u8 [sp + 0x644] = a2\n 40058: a2 = a0 >> 0x18\n 40061: u64 [sp + 0x1d0] = a2\n 40065: u8 [sp + 0x643] = a2\n 40069: a2 = a0 >> 0x10\n 40072: u64 [sp + 0x1c8] = a2\n 40076: u8 [sp + 0x642] = a2\n 40080: a0 = a0 >> 0x8\n 40083: u64 [sp + 0x1c0] = a0\n 40087: u8 [sp + 0x641] = a0\n 40091: ra = u64 [sp + 0x260]\n 40095: u8 [sp + 0x650] = ra\n 40099: a0 = a1 >> 0x38\n 40102: u64 [sp + 0x1b8] = a0\n 40106: u8 [sp + 0x64f] = a0\n 40110: a0 = a1 >> 0x30\n 40113: u64 [sp + 0x1b0] = a0\n 40117: u8 [sp + 0x64e] = a0\n 40121: a0 = a1 >> 0x28\n 40124: u64 [sp + 0x1a8] = a0\n 40128: u8 [sp + 0x64d] = a0\n 40132: a0 = a1 >> 0x20\n 40135: u64 [sp + 0x1a0] = a0\n 40139: u8 [sp + 0x64c] = a0\n 40143: a0 = a1 >> 0x18\n 40146: u64 [sp + 0x198] = a0\n 40150: u8 [sp + 0x64b] = a0\n 40154: a0 = a1 >> 0x10\n 40157: u64 [sp + 0x190] = a0\n 40161: u8 [sp + 0x64a] = a0\n 40165: a1 = a1 >> 0x8\n 40168: u64 [sp + 0x188] = a1\n 40172: u8 [sp + 0x649] = a1\n 40176: t2 = u64 [sp + 0x258]\n 40180: u8 [sp + 0x658] = t2\n 40184: a0 = ra >> 0x38\n 40187: u64 [sp + 0x180] = a0\n 40191: u8 [sp + 0x657] = a0\n 40195: a0 = ra >> 0x30\n 40198: u64 [sp + 0x178] = a0\n 40202: u8 [sp + 0x656] = a0\n 40206: a0 = ra >> 0x28\n 40209: u64 [sp + 0x170] = a0\n 40213: u8 [sp + 0x655] = a0\n 40217: a0 = ra >> 0x20\n 40220: u64 [sp + 0x168] = a0\n 40224: u8 [sp + 0x654] = a0\n 40228: a0 = ra >> 0x18\n 40231: u64 [sp + 0x160] = a0\n 40235: u8 [sp + 0x653] = a0\n 40239: a0 = ra >> 0x10\n 40242: u64 [sp + 0x358] = a0\n 40246: u8 [sp + 0x652] = a0\n 40250: a0 = ra >> 0x8\n 40253: u64 [sp + 0x350] = a0\n 40257: u8 [sp + 0x651] = a0\n 40261: a0 = t2 >> 0x38\n 40264: u64 [sp + 0x348] = a0\n 40268: u8 [sp + 0x65f] = a0\n 40272: a0 = t2 >> 0x30\n 40275: u64 [sp + 0x318] = a0\n 40279: u8 [sp + 0x65e] = a0\n 40283: a0 = t2 >> 0x28\n 40286: u64 [sp + 0x310] = a0\n 40290: u8 [sp + 0x65d] = a0\n 40294: a0 = t2 >> 0x20\n 40297: u64 [sp + 0x308] = a0\n 40301: u8 [sp + 0x65c] = a0\n 40305: a0 = t2 >> 0x18\n 40308: u64 [sp + 0x300] = a0\n 40312: u8 [sp + 0x65b] = a0\n 40316: a0 = t2 >> 0x10\n 40319: u64 [sp + 0x250] = a0\n 40323: u8 [sp + 0x65a] = a0\n 40327: a0 = t2 >> 0x8\n 40330: u64 [sp + 0x248] = a0\n 40334: u8 [sp + 0x659] = a0\n 40338: a0 = t0 << 0x38\n 40341: a0 = a0 >> 0x3b\n 40344: a2 = sp + 0x640\n 40348: a2 = a2 - a0\n 40351: a0 = u8 [a2 + 0x19]\n 40354: a3 = u8 [a2 + 0x18]\n 40357: a4 = u8 [a2 + 0x1a]\n 40360: a5 = u8 [a2 + 0x1b]\n 40363: a0 = a0 << 0x8\n 40366: a0 = a0 | a3\n 40369: a4 = a4 << 0x10\n 40372: a5 = a5 << 0x18\n 40375: a4 = a4 | a5\n 40378: a0 = a0 | a4\n 40381: a3 = u8 [a2 + 0x1d]\n 40384: a4 = u8 [a2 + 0x1c]\n 40387: a5 = u8 [a2 + 0x1e]\n 40390: s1 = u8 [a2 + 0x1f]\n 40393: a3 = a3 << 0x8\n 40396: a3 = a3 | a4\n 40399: a5 = a5 << 0x10\n 40402: s1 = s1 << 0x18\n 40405: a5 = a5 | s1\n 40408: a3 = a3 | a5\n 40411: a3 = a3 << 0x20\n 40414: a3 = a3 | a0\n 40417: a0 = u8 [a2 + 0x11]\n 40420: a4 = u8 [a2 + 0x10]\n 40423: a5 = u8 [a2 + 0x12]\n 40426: s1 = u8 [a2 + 0x13]\n 40429: a0 = a0 << 0x8\n 40432: a0 = a0 | a4\n 40435: a5 = a5 << 0x10\n 40438: s1 = s1 << 0x18\n 40441: a5 = a5 | s1\n 40444: a0 = a0 | a5\n 40447: a4 = u8 [a2 + 0x15]\n 40450: a5 = u8 [a2 + 0x14]\n 40453: s1 = u8 [a2 + 0x16]\n 40456: a1 = u8 [a2 + 0x17]\n 40459: a4 = a4 << 0x8\n 40462: a4 = a4 | a5\n 40465: s1 = s1 << 0x10\n 40468: a1 = a1 << 0x18\n 40471: a1 = a1 | s1\n 40474: a1 = a1 | a4\n 40477: a1 = a1 << 0x20\n 40480: t1 = a1 | a0\n 40483: a1 = t0 & 0x7\n 40486: a0 = a3 << a1\n 40489: a5 = t1 >> 0x1\n 40492: t0 = a1 ^ 0x3f\n 40495: a5 = a5 >> t0\n 40498: a0 = a0 | a5\n 40501: u64 [sp + 0x3a0] = a0\n 40505: a0 = u8 [a2 + 0x9]\n 40508: a5 = u8 [a2 + 0x8]\n 40511: s1 = u8 [a2 + 0xa]\n 40514: a3 = u8 [a2 + 0xb]\n 40517: a0 = a0 << 0x8\n 40520: a0 = a0 | a5\n 40523: s1 = s1 << 0x10\n 40526: a3 = a3 << 0x18\n 40529: a3 = a3 | s1\n 40532: a0 = a0 | a3\n 40535: a3 = u8 [a2 + 0xd]\n 40538: a5 = u8 [a2 + 0xc]\n 40541: s1 = u8 [a2 + 0xe]\n 40544: a4 = u8 [a2 + 0xf]\n 40547: a3 = a3 << 0x8\n 40550: a3 = a3 | a5\n 40553: s1 = s1 << 0x10\n 40556: a4 = a4 << 0x18\n 40559: a4 = a4 | s1\n 40562: a3 = a3 | a4\n 40565: a3 = a3 << 0x20\n 40568: s1 = a3 | a0\n 40571: a0 = s1 >> 0x1\n 40574: a3 = a1 ^ 0xffffffffffffffff\n 40577: a0 = a0 >> a3\n 40580: a3 = t1 << a1\n 40583: a0 = a0 | a3\n 40586: u64 [sp + 0x398] = a0\n 40590: a0 = u8 [a2 + 0x1]\n 40593: a3 = u8 [a2]\n 40595: a4 = u8 [a2 + 0x2]\n 40598: a5 = u8 [a2 + 0x3]\n 40601: a0 = a0 << 0x8\n 40604: a0 = a0 | a3\n 40607: a4 = a4 << 0x10\n 40610: a5 = a5 << 0x18\n 40613: a4 = a4 | a5\n 40616: a0 = a0 | a4\n 40619: a3 = u8 [a2 + 0x5]\n 40622: a4 = u8 [a2 + 0x4]\n 40625: a5 = u8 [a2 + 0x6]\n 40628: a2 = u8 [a2 + 0x7]\n 40631: a3 = a3 << 0x8\n 40634: a3 = a3 | a4\n 40637: a4 = u64 [sp + 0x380]\n 40641: a5 = a5 << 0x10\n 40644: a2 = a2 << 0x18\n 40647: a2 = a2 | a5\n 40650: a5 = u64 [sp + 0x378]\n 40654: a2 = a2 | a3\n 40657: a2 = a2 << 0x20\n 40660: a0 = a0 | a2\n 40663: a2 = a0 >> 0x1\n 40666: a2 = a2 >> t0\n 40669: t0 = u64 [sp + 0x370]\n 40673: a3 = s1 << a1\n 40676: a2 = a2 | a3\n 40679: u64 [sp + 0x388] = a2\n 40683: a2 = a5 | a4\n 40686: a3 = u64 [sp + 0x3a8]\n 40690: a3 = a3 | t0\n 40693: a2 = a2 | a3\n 40696: a0 = a0 << a1\n 40699: u64 [sp + 0x390] = a0\n 40703: jump @230 if a2 == 0\n      : @227 (gas: 225)\n 40707: u64 [sp + 872] = 0\n 40711: u64 [sp + 864] = 0\n 40715: a0 = u64 [sp + 0x220]\n 40719: u8 [sp + 0x5e7] = a0\n 40723: a0 = u64 [sp + 0x218]\n 40727: u8 [sp + 0x5e6] = a0\n 40731: a0 = u64 [sp + 0x210]\n 40735: u8 [sp + 0x5e5] = a0\n 40739: a0 = u64 [sp + 0x208]\n 40743: u8 [sp + 0x5e4] = a0\n 40747: a0 = u64 [sp + 0x1d0]\n 40751: u8 [sp + 0x5e3] = a0\n 40755: a0 = u64 [sp + 0x1c8]\n 40759: u8 [sp + 0x5e2] = a0\n 40763: a0 = u64 [sp + 0x1c0]\n 40767: u8 [sp + 0x5e1] = a0\n 40771: a0 = u64 [sp + 0x1b8]\n 40775: u8 [sp + 0x5ef] = a0\n 40779: a0 = u64 [sp + 0x1b0]\n 40783: u8 [sp + 0x5ee] = a0\n 40787: a0 = u64 [sp + 0x1a8]\n 40791: u8 [sp + 0x5ed] = a0\n 40795: a0 = u64 [sp + 0x1a0]\n 40799: u8 [sp + 0x5ec] = a0\n 40803: a0 = u64 [sp + 0x198]\n 40807: u8 [sp + 0x5eb] = a0\n 40811: a0 = u64 [sp + 0x190]\n 40815: u8 [sp + 0x5ea] = a0\n 40819: a0 = u64 [sp + 0x188]\n 40823: u8 [sp + 0x5e9] = a0\n 40827: a0 = u64 [sp + 0x180]\n 40831: u8 [sp + 0x5f7] = a0\n 40835: a0 = u64 [sp + 0x178]\n 40839: u8 [sp + 0x5f6] = a0\n 40843: a0 = u64 [sp + 0x170]\n 40847: u8 [sp + 0x5f5] = a0\n 40851: a0 = u64 [sp + 0x168]\n 40855: u8 [sp + 0x5f4] = a0\n 40859: a0 = u64 [sp + 0x160]\n 40863: u8 [sp + 0x5f3] = a0\n 40867: u8 [sp + 1567] = 0\n 40871: u8 [sp + 1566] = 0\n 40875: u8 [sp + 1565] = 0\n 40879: u8 [sp + 1564] = 0\n 40883: u8 [sp + 1563] = 0\n 40887: u8 [sp + 1562] = 0\n 40891: u8 [sp + 1561] = 0\n 40895: u8 [sp + 1560] = 0\n 40899: u8 [sp + 1559] = 0\n 40903: u8 [sp + 1558] = 0\n 40907: u8 [sp + 1557] = 0\n 40911: u8 [sp + 1556] = 0\n 40915: u8 [sp + 1555] = 0\n 40919: u8 [sp + 1554] = 0\n 40923: u8 [sp + 1553] = 0\n 40927: u8 [sp + 1552] = 0\n 40931: u8 [sp + 1551] = 0\n 40935: u8 [sp + 1550] = 0\n 40939: u8 [sp + 1549] = 0\n 40943: u8 [sp + 1548] = 0\n 40947: u8 [sp + 1547] = 0\n 40951: u8 [sp + 1546] = 0\n 40955: u8 [sp + 1545] = 0\n 40959: u8 [sp + 1544] = 0\n 40963: u8 [sp + 1543] = 0\n 40967: u8 [sp + 1542] = 0\n 40971: u8 [sp + 1541] = 0\n 40975: u8 [sp + 1540] = 0\n 40979: u8 [sp + 1539] = 0\n 40983: u8 [sp + 1538] = 0\n 40987: u8 [sp + 1537] = 0\n 40991: u8 [sp + 1536] = 0\n 40995: a0 = u64 [sp + 0x2d0]\n 40999: u8 [sp + 0x5e0] = a0\n 41003: a0 = u64 [sp + 0x268]\n 41007: u8 [sp + 0x5e8] = a0\n 41011: u8 [sp + 0x5f0] = ra\n 41015: u8 [sp + 0x5f8] = t2\n 41019: a0 = u64 [sp + 0x358]\n 41023: u8 [sp + 0x5f2] = a0\n 41027: a0 = u64 [sp + 0x350]\n 41031: u8 [sp + 0x5f1] = a0\n 41035: a0 = u64 [sp + 0x348]\n 41039: u8 [sp + 0x5ff] = a0\n 41043: a0 = u64 [sp + 0x318]\n 41047: u8 [sp + 0x5fe] = a0\n 41051: a0 = u64 [sp + 0x310]\n 41055: u8 [sp + 0x5fd] = a0\n 41059: a0 = u64 [sp + 0x308]\n 41063: u8 [sp + 0x5fc] = a0\n 41067: a0 = u64 [sp + 0x300]\n 41071: u8 [sp + 0x5fb] = a0\n 41075: a0 = u64 [sp + 0x250]\n 41079: u8 [sp + 0x5fa] = a0\n 41083: a0 = u64 [sp + 0x248]\n 41087: u8 [sp + 0x5f9] = a0\n 41091: s1 = u64 [sp + 0x3a8]\n 41095: a0 = s1 << 0x38\n 41098: a0 = a0 >> 0x3b\n 41101: a1 = sp + 0x5e0\n 41105: a1 = a1 + a0\n 41108: a0 = u8 [a1 + 0x11]\n 41111: a2 = u8 [a1 + 0x10]\n 41114: a3 = u8 [a1 + 0x12]\n 41117: a4 = u8 [a1 + 0x13]\n 41120: a0 = a0 << 0x8\n 41123: a0 = a0 | a2\n 41126: a3 = a3 << 0x10\n 41129: a4 = a4 << 0x18\n 41132: a3 = a3 | a4\n 41135: a0 = a0 | a3\n 41138: a2 = u8 [a1 + 0x15]\n 41141: a3 = u8 [a1 + 0x14]\n 41144: a4 = u8 [a1 + 0x16]\n 41147: a5 = u8 [a1 + 0x17]\n 41150: a2 = a2 << 0x8\n 41153: a2 = a2 | a3\n 41156: a4 = a4 << 0x10\n 41159: a5 = a5 << 0x18\n 41162: a4 = a4 | a5\n 41165: a2 = a2 | a4\n 41168: a2 = a2 << 0x20\n 41171: t0 = a2 | a0\n 41174: a3 = s1 & 0x7\n 41177: t1 = t0 >> a3\n 41180: a0 = u8 [a1 + 0x19]\n 41183: a4 = u8 [a1 + 0x18]\n 41186: s1 = u8 [a1 + 0x1a]\n 41189: a2 = u8 [a1 + 0x1b]\n 41192: a0 = a0 << 0x8\n 41195: a0 = a0 | a4\n 41198: s1 = s1 << 0x10\n 41201: a2 = a2 << 0x18\n 41204: a2 = a2 | s1\n 41207: a0 = a0 | a2\n 41210: a2 = u8 [a1 + 0x1d]\n 41213: a4 = u8 [a1 + 0x1c]\n 41216: s1 = u8 [a1 + 0x1e]\n 41219: a5 = u8 [a1 + 0x1f]\n 41222: a2 = a2 << 0x8\n 41225: a2 = a2 | a4\n 41228: s1 = s1 << 0x10\n 41231: a5 = a5 << 0x18\n 41234: a5 = a5 | s1\n 41237: a2 = a2 | a5\n 41240: a2 = a2 << 0x20\n 41243: t2 = a2 | a0\n 41246: a0 = t2 << 0x1\n 41249: ra = a3 ^ 0x3f\n 41252: a0 = a0 << ra\n 41255: a0 = t1 | a0\n 41258: u64 [sp + 0x358] = a0\n 41262: a0 = u8 [a1 + 0x9]\n 41265: a2 = u8 [a1 + 0x8]\n 41268: a5 = u8 [a1 + 0xa]\n 41271: a4 = u8 [a1 + 0xb]\n 41274: a0 = a0 << 0x8\n 41277: a0 = a0 | a2\n 41280: a5 = a5 << 0x10\n 41283: a4 = a4 << 0x18\n 41286: a4 = a4 | a5\n 41289: a0 = a0 | a4\n 41292: a2 = u8 [a1 + 0xd]\n 41295: a4 = u8 [a1 + 0xc]\n 41298: a5 = u8 [a1 + 0xe]\n 41301: s1 = u8 [a1 + 0xf]\n 41304: a2 = a2 << 0x8\n 41307: a2 = a2 | a4\n 41310: a5 = a5 << 0x10\n 41313: s1 = s1 << 0x18\n 41316: a5 = a5 | s1\n 41319: a2 = a2 | a5\n 41322: a2 = a2 << 0x20\n 41325: t1 = a2 | a0\n 41328: a0 = t1 >> a3\n 41331: t0 = t0 << 0x1\n 41334: a2 = a3 ^ 0xffffffffffffffff\n 41337: a2 = t0 << a2\n 41340: a2 = a2 | a0\n 41343: a0 = u8 [a1 + 0x1]\n 41346: a4 = u8 [a1]\n 41348: s1 = u8 [a1 + 0x2]\n 41351: a5 = u8 [a1 + 0x3]\n 41354: a0 = a0 << 0x8\n 41357: a0 = a0 | a4\n 41360: s1 = s1 << 0x10\n 41363: a5 = a5 << 0x18\n 41366: a5 = a5 | s1\n 41369: a0 = a0 | a5\n 41372: a4 = u8 [a1 + 0x5]\n 41375: a5 = u8 [a1 + 0x4]\n 41378: s1 = u8 [a1 + 0x6]\n 41381: a1 = u8 [a1 + 0x7]\n 41384: a4 = a4 << 0x8\n 41387: a4 = a4 | a5\n 41390: s1 = s1 << 0x10\n 41393: a1 = a1 << 0x18\n 41396: a1 = a1 | s1\n 41399: s1 = u64 [sp + 0x368]\n 41403: a1 = a1 | a4\n 41406: a1 = a1 << 0x20\n 41409: a0 = a0 | a1\n 41412: a0 = a0 >> a3\n 41415: t1 = t1 << 0x1\n 41418: a1 = t1 << ra\n 41421: t0 = a0 | a1\n 41424: t1 = t2 >> a3\n 41427: a1 = u64 [sp + 0x3c0]\n 41431: a0 = a1 <u 0x1\n 41434: a3 = u64 [sp + 0x3d0]\n 41438: a0 = a3 - a0\n 41441: u64 [sp + 0x318] = a0\n 41445: a0 = a1 | a3\n 41448: a0 = a0 <u 0x1\n 41451: a3 = u64 [sp + 0x3c8]\n 41455: a4 = a3 - a0\n 41458: u64 [sp + 0x310] = a4\n 41462: a0 = a3 <u a0\n 41465: a3 = u64 [sp + 0x3d8]\n 41469: a3 = a3 - a0\n 41472: u64 [sp + 0x308] = a3\n 41476: a1 = a1 + 0xffffffffffffffff\n 41479: u64 [sp + 0x300] = a1\n 41483: a4 = u64 [sp + 0x3a0]\n 41487: fallthrough\n      : @228 (gas: 101)\n 41488: u64 [sp + 0x368] = s1\n 41492: u64 [sp + 840] = 0\n 41496: a3 = t0 >> 0x3f\n 41499: s1 = a2 << 0x1\n 41502: s1 = s1 | a3\n 41505: t0 = t0 << 0x1\n 41508: a3 = a4 >> 0x3f\n 41511: t2 = t0 | a3\n 41514: a1 = u64 [sp + 0x318]\n 41518: a0 = a1 ^ s1\n 41521: a1 = a1 <u s1\n 41524: a3 = u64 [sp + 0x300]\n 41528: a5 = a3 <u t2\n 41531: a5 = a1 if a0 != 0\n 41534: t1 = t1 << 0x1\n 41537: ra = u64 [sp + 0x358]\n 41541: a0 = ra >> 0x3f\n 41544: t0 = t1 | a0\n 41547: u64 [sp + 0x350] = t0\n 41551: a2 = a2 >> 0x3f\n 41554: ra = ra << 0x1\n 41557: t1 = ra | a2\n 41560: a0 = a4 << 0x1\n 41563: a1 = u64 [sp + 0x398]\n 41567: a4 = a1 >> 0x3f\n 41570: a0 = a0 | a4\n 41573: a4 = a1 << 0x1\n 41576: a2 = u64 [sp + 0x388]\n 41580: a1 = a2 >> 0x3f\n 41583: a1 = a1 | a4\n 41586: a4 = a2 << 0x1\n 41589: a2 = u64 [sp + 0x390]\n 41593: a3 = a2 >> 0x3f\n 41596: a3 = a3 | a4\n 41599: a4 = a2 << 0x1\n 41602: a2 = u64 [sp + 0x368]\n 41606: a2 = a2 | a4\n 41609: u64 [sp + 0x390] = a2\n 41613: a2 = u64 [sp + 0x360]\n 41617: a3 = a3 | a2\n 41620: u64 [sp + 0x388] = a3\n 41624: a1 = a1 | a2\n 41627: u64 [sp + 0x398] = a1\n 41631: a0 = a0 | a2\n 41634: u64 [sp + 0x3a0] = a0\n 41638: a1 = u64 [sp + 0x310]\n 41642: a0 = a1 - t1\n 41645: a0 = a0 <u a5\n 41648: a1 = a1 <u t1\n 41651: a2 = u64 [sp + 0x308]\n 41655: a3 = a2 - t0\n 41658: a3 = a3 - a1\n 41661: a3 = a3 - a0\n 41664: a5 = a3 >>a 0x3f\n 41667: a0 = u64 [sp + 0x3c0]\n 41671: t0 = a5 & a0\n 41674: a1 = u64 [sp + 0x3d0]\n 41678: a1 = a1 & a5\n 41681: a3 = s1 ^ a1\n 41684: a4 = s1 <u a1\n 41687: ra = t2 <u t0\n 41690: a4 = ra if a3 == 0\n 41693: a3 = u64 [sp + 0x3c8]\n 41697: a3 = a3 & a5\n 41700: a0 = t1 - a3\n 41703: a2 = a0 - a4\n 41706: u64 [sp + 0x358] = a2\n 41710: a2 = a0 <u a4\n 41713: a3 = t1 <u a3\n 41716: a4 = u64 [sp + 0x3d8]\n 41720: a4 = a4 & a5\n 41723: a0 = u64 [sp + 0x350]\n 41727: a4 = a0 - a4\n 41730: a4 = a4 - a3\n 41733: t1 = a4 - a2\n 41736: s1 = s1 - a1\n 41739: a2 = s1 - ra\n 41742: t0 = t2 - t0\n 41745: a4 = u64 [sp + 0x3a8]\n 41749: a1 = u64 [sp + 0x378]\n 41753: a0 = a4 | a1\n 41756: a0 = a0 <u 0x1\n 41759: a3 = u64 [sp + 0x370]\n 41763: s1 = a3 <u a0\n 41766: a0 = a3 - a0\n 41769: a3 = a4 <u 0x1\n 41772: a1 = a1 - a3\n 41775: a3 = u64 [sp + 0x380]\n 41779: a3 = a3 - s1\n 41782: a4 = a4 + 0xffffffffffffffff\n 41785: u64 [sp + 0x380] = a3\n 41789: u64 [sp + 0x378] = a1\n 41793: a1 = a1 | a3\n 41796: u64 [sp + 0x3a8] = a4\n 41800: a3 = a4 | a0\n 41803: a4 = u64 [sp + 0x3a0]\n 41807: a1 = a1 | a3\n 41810: s1 = a5 & 0x1\n 41813: u64 [sp + 0x370] = a0\n 41817: u64 [sp + 864] = 0\n 41821: jump @228 if a1 != 0\n      : @229 (gas: 1)\n 41825: jump @231\n      : @230 (gas: 4)\n 41827: s1 = 0\n 41829: u64 [sp + 840] = 0\n 41833: a4 = u64 [sp + 0x3a0]\n 41837: fallthrough\n      : @231 (gas: 19)\n 41838: a2 = u64 [sp + 0x398]\n 41842: a0 = a2 >> 0x3f\n 41845: a1 = a4 << 0x1\n 41848: a0 = a0 | a1\n 41851: a3 = u64 [sp + 0x388]\n 41855: a1 = a3 >> 0x3f\n 41858: a2 = a2 << 0x1\n 41861: a1 = a1 | a2\n 41864: a5 = u64 [sp + 0x390]\n 41868: a2 = a5 >> 0x3f\n 41871: a3 = a3 << 0x1\n 41874: a5 = a5 << 0x1\n 41877: s1 = s1 | a5\n 41880: a4 = u64 [sp + 0x348]\n 41884: a2 = a2 | a4\n 41887: a2 = a2 | a3\n 41890: t1 = a4 | a1\n 41893: a1 = a4 | a0\n 41896: fallthrough\n      : @232 (gas: 166)\n 41897: u64 [sp + 0x3a8] = a1\n 41901: t0 = u64 [sp + 0x3c0]\n 41905: a0 = t0 mulhu s1\n 41908: a1 = u64 [sp + 0x3d0]\n 41912: a3 = a1 * s1\n 41915: a0 = a0 + a3\n 41918: a3 = a0 <u a3\n 41921: a4 = a1 mulhu s1\n 41924: a3 = a3 + a4\n 41927: a5 = t0 * a2\n 41930: t2 = a5 + a0\n 41933: a0 = t2 <u a5\n 41936: a5 = t0 mulhu a2\n 41939: a0 = a0 + a5\n 41942: a0 = a0 + a3\n 41945: a3 = a0 <u a3\n 41948: a5 = a1 mulhu a2\n 41951: a3 = a3 + a5\n 41954: a5 = a1 * a2\n 41957: a0 = a0 + a5\n 41960: a5 = a0 <u a5\n 41963: ra = a3 + a5\n 41966: a5 = t1 * a1\n 41969: a3 = t1 mulhu t0\n 41972: a3 = a3 + a5\n 41975: a1 = u64 [sp + 0x3a8]\n 41979: a5 = a1 * t0\n 41982: a1 = a3 + a5\n 41985: a3 = u64 [sp + 0x3c8]\n 41989: a5 = s1 mulhu a3\n 41992: a4 = u64 [sp + 0x3d8]\n 41996: a4 = s1 * a4\n 41999: a4 = a4 + a5\n 42002: a2 = a2 * a3\n 42005: a2 = a2 + a4\n 42008: a2 = a2 + a1\n 42011: a1 = t1 * t0\n 42014: a3 = s1 * a3\n 42017: a3 = a3 + a1\n 42020: a1 = a3 <u a1\n 42023: a1 = a1 + a2\n 42026: ra = ra + a1\n 42029: a1 = a0 + a3\n 42032: a0 = a1 <u a0\n 42035: a0 = a0 + ra\n 42038: a2 = u64 [sp + 0x258]\n 42042: t1 = a2 - a0\n 42045: ra = t0 * s1\n 42048: a0 = u64 [sp + 0x268]\n 42052: a3 = a0 ^ t2\n 42055: a4 = a0 <u t2\n 42058: a2 = u64 [sp + 0x2d0]\n 42062: a5 = a2 <u ra\n 42065: a4 = a5 if a3 == 0\n 42068: a3 = u64 [sp + 0x260]\n 42072: t0 = a3 <u a1\n 42075: a3 = a3 - a1\n 42078: s1 = a3 <u a4\n 42081: a1 = t0 + s1\n 42084: s1 = t1 - a1\n 42087: a3 = a3 - a4\n 42090: a1 = a0 - t2\n 42093: t2 = a1 - a5\n 42096: t1 = a2 - ra\n 42099: a1 = u64 [sp + 0x2c0]\n 42103: a2 = a3 * a1\n 42106: a0 = u64 [sp + 0x2f0]\n 42110: a4 = a3 mulhu a0\n 42113: a2 = a2 + a4\n 42116: t0 = s1 * a0\n 42119: a4 = u64 [sp + 0x2f8]\n 42123: a5 = t1 mulhu a4\n 42126: s1 = u64 [sp + 0x2e8]\n 42130: s1 = t1 * s1\n 42133: a5 = a5 + s1\n 42136: s1 = t2 * a4\n 42139: a5 = a5 + s1\n 42142: a5 = a5 + a2\n 42145: a3 = a3 * a0\n 42148: a2 = t1 * a4\n 42151: a2 = a2 + a3\n 42154: a3 = a2 <u a3\n 42157: a3 = a3 + a5\n 42160: ra = a3 + t0\n 42163: a4 = a0 mulhu t1\n 42166: a5 = a1 * t1\n 42169: a4 = a4 + a5\n 42172: s1 = a0 * t2\n 42175: t0 = s1 + a4\n 42178: s1 = t0 <u s1\n 42181: a3 = a0 mulhu t2\n 42184: a3 = a3 + s1\n 42187: a4 = a4 <u a5\n 42190: a5 = a1 mulhu t1\n 42193: s1 = a5 + a4\n 42196: a4 = s1 + a3\n 42199: a5 = a1 * t2\n 42202: a3 = a5 + a4\n 42205: a5 = a3 <u a5\n 42208: a4 = a4 <u s1\n 42211: a1 = a1 mulhu t2\n 42214: a1 = a1 + a4\n 42217: a1 = a1 + a5\n 42220: t2 = a3 + a2\n 42223: a2 = t2 <u a3\n 42226: a1 = a1 + a2\n 42229: ra = ra + a1\n 42232: a3 = a0 * t1\n 42235: u64 [sp + 0x2c0] = a3\n 42239: a1 = clz ra\n 42241: a0 = clz t2\n 42243: a0 = a0 + 0x40\n 42246: a0 = a1 if ra != 0\n 42249: a1 = t2 | ra\n 42252: u64 [sp + 0x2d0] = t0\n 42256: a2 = clz t0\n 42258: a3 = clz a3\n 42260: a3 = a3 + 0x40\n 42263: a3 = a2 if t0 != 0\n 42266: a2 = a3 + 0x80\n 42270: a0 = a2 if a1 == 0\n 42273: a3 = a2 <u a3\n 42276: a3 = 0 if a1 != 0\n 42278: a5 = u64 [sp + 0x328]\n 42282: a1 = a5 <u a0\n 42285: a2 = u64 [sp + 0x330]\n 42289: a4 = a2 ^ a3\n 42292: s1 = a2 <u a3\n 42295: s1 = a1 if a4 == 0\n 42298: a4 = s1 <u 0x1\n 42301: a4 = a4 + 0xffffffffffffffff\n 42304: u64 [sp + 0x3a0] = a4\n 42308: t0 = -s1\n 42310: a4 = a5 - a0\n 42313: a5 = a2 - a3\n 42316: t1 = t2\n 42318: t2 = u64 [sp + 0x3a0]\n 42322: u64 [sp + 0x2e8] = t1\n 42326: a5 = a5 - a1\n 42329: a0 = a5 >u 0\n 42331: u64 [sp + 0x398] = a4\n 42335: a1 = a4 <u 0x100\n 42339: a1 = a1 ^ 0x1\n 42342: a1 = a0 if a5 != 0\n 42345: u64 [sp + 0x390] = t0\n 42349: a0 = t0 >u 0\n 42351: a3 = t2 >u 0\n 42353: a3 = a0 if t2 == 0\n 42356: a3 = a1 if s1 == 0\n 42359: a4 = u64 [sp + 0x2d0]\n 42363: a0 = a4 | ra\n 42366: s1 = u64 [sp + 0x2c0]\n 42370: a1 = s1 | t1\n 42373: a0 = a0 | a1\n 42376: a0 = a0 <u 0x1\n 42379: a1 = u64 [sp + 0x320]\n 42383: a0 = a0 | a1\n 42386: u64 [sp + 0x268] = ra\n 42390: a0 = a0 | a3\n 42393: a2 = ra\n 42395: a2 = 0 if a0 != 0\n 42397: t1 = 0 if a0 != 0\n 42399: a3 = a4\n 42401: a3 = 0 if a0 != 0\n 42403: s1 = 0 if a0 != 0\n 42405: jump @240 if a0 != 0\n      : @233 (gas: 7)\n 42409: t0 = u64 [sp + 0x398]\n 42413: a0 = t0 ^ 0xff\n 42417: ra = u64 [sp + 0x390]\n 42421: a0 = a0 | ra\n 42424: a4 = a5 | t2\n 42427: a0 = a0 | a4\n 42430: jump @240 if a0 == 0\n      : @234 (gas: 257)\n 42434: a1 = t0 + 0x1\n 42437: u64 [sp + 0x3a8] = a1\n 42441: a0 = a1 <u 0x1\n 42444: a0 = a0 + a5\n 42447: u64 [sp + 0x378] = a0\n 42451: a0 = a0 | a1\n 42454: a0 = a0 <u 0x1\n 42457: a0 = a0 + ra\n 42460: u64 [sp + 0x370] = a0\n 42464: a0 = a0 <u ra\n 42467: a0 = a0 + t2\n 42470: u64 [sp + 0x380] = a0\n 42474: t0 = 0xff - t0\n 42478: a0 = u64 [sp + 0x2c0]\n 42482: u8 [sp + 0x5c0] = a0\n 42486: u8 [sp + 1471] = 0\n 42490: u8 [sp + 1470] = 0\n 42494: u8 [sp + 1469] = 0\n 42498: u8 [sp + 1468] = 0\n 42502: u8 [sp + 1467] = 0\n 42506: u8 [sp + 1466] = 0\n 42510: u8 [sp + 1465] = 0\n 42514: u8 [sp + 1464] = 0\n 42518: u8 [sp + 1463] = 0\n 42522: u8 [sp + 1462] = 0\n 42526: u8 [sp + 1461] = 0\n 42530: u8 [sp + 1460] = 0\n 42534: u8 [sp + 1459] = 0\n 42538: u8 [sp + 1458] = 0\n 42542: u8 [sp + 1457] = 0\n 42546: u8 [sp + 1456] = 0\n 42550: u8 [sp + 1455] = 0\n 42554: u8 [sp + 1454] = 0\n 42558: u8 [sp + 1453] = 0\n 42562: u8 [sp + 1452] = 0\n 42566: u8 [sp + 1451] = 0\n 42570: u8 [sp + 1450] = 0\n 42574: u8 [sp + 1449] = 0\n 42578: u8 [sp + 1448] = 0\n 42582: u8 [sp + 1447] = 0\n 42586: u8 [sp + 1446] = 0\n 42590: u8 [sp + 1445] = 0\n 42594: u8 [sp + 1444] = 0\n 42598: u8 [sp + 1443] = 0\n 42602: u8 [sp + 1442] = 0\n 42606: u8 [sp + 1441] = 0\n 42610: u8 [sp + 1440] = 0\n 42614: a1 = u64 [sp + 0x2d0]\n 42618: u8 [sp + 0x5c8] = a1\n 42622: a2 = a0 >> 0x38\n 42625: u64 [sp + 0x260] = a2\n 42629: u8 [sp + 0x5c7] = a2\n 42633: a2 = a0 >> 0x30\n 42636: u64 [sp + 0x258] = a2\n 42640: u8 [sp + 0x5c6] = a2\n 42644: a2 = a0 >> 0x28\n 42647: u64 [sp + 0x250] = a2\n 42651: u8 [sp + 0x5c5] = a2\n 42655: a2 = a0 >> 0x20\n 42658: u64 [sp + 0x248] = a2\n 42662: u8 [sp + 0x5c4] = a2\n 42666: a2 = a0 >> 0x18\n 42669: u64 [sp + 0x220] = a2\n 42673: u8 [sp + 0x5c3] = a2\n 42677: a2 = a0 >> 0x10\n 42680: u64 [sp + 0x218] = a2\n 42684: u8 [sp + 0x5c2] = a2\n 42688: a0 = a0 >> 0x8\n 42691: u64 [sp + 0x210] = a0\n 42695: u8 [sp + 0x5c1] = a0\n 42699: ra = u64 [sp + 0x2e8]\n 42703: u8 [sp + 0x5d0] = ra\n 42707: a0 = a1 >> 0x38\n 42710: u64 [sp + 0x208] = a0\n 42714: u8 [sp + 0x5cf] = a0\n 42718: a0 = a1 >> 0x30\n 42721: u64 [sp + 0x1d0] = a0\n 42725: u8 [sp + 0x5ce] = a0\n 42729: a0 = a1 >> 0x28\n 42732: u64 [sp + 0x1c8] = a0\n 42736: u8 [sp + 0x5cd] = a0\n 42740: a0 = a1 >> 0x20\n 42743: u64 [sp + 0x1c0] = a0\n 42747: u8 [sp + 0x5cc] = a0\n 42751: a0 = a1 >> 0x18\n 42754: u64 [sp + 0x1b8] = a0\n 42758: u8 [sp + 0x5cb] = a0\n 42762: a0 = a1 >> 0x10\n 42765: u64 [sp + 0x1b0] = a0\n 42769: u8 [sp + 0x5ca] = a0\n 42773: a1 = a1 >> 0x8\n 42776: u64 [sp + 0x1a8] = a1\n 42780: u8 [sp + 0x5c9] = a1\n 42784: t2 = u64 [sp + 0x268]\n 42788: u8 [sp + 0x5d8] = t2\n 42792: a0 = ra >> 0x38\n 42795: u64 [sp + 0x1a0] = a0\n 42799: u8 [sp + 0x5d7] = a0\n 42803: a0 = ra >> 0x30\n 42806: u64 [sp + 0x198] = a0\n 42810: u8 [sp + 0x5d6] = a0\n 42814: a0 = ra >> 0x28\n 42817: u64 [sp + 0x190] = a0\n 42821: u8 [sp + 0x5d5] = a0\n 42825: a0 = ra >> 0x20\n 42828: u64 [sp + 0x188] = a0\n 42832: u8 [sp + 0x5d4] = a0\n 42836: a0 = ra >> 0x18\n 42839: u64 [sp + 0x180] = a0\n 42843: u8 [sp + 0x5d3] = a0\n 42847: a0 = ra >> 0x10\n 42850: u64 [sp + 0x358] = a0\n 42854: u8 [sp + 0x5d2] = a0\n 42858: a0 = ra >> 0x8\n 42861: u64 [sp + 0x350] = a0\n 42865: u8 [sp + 0x5d1] = a0\n 42869: a0 = t2 >> 0x38\n 42872: u64 [sp + 0x348] = a0\n 42876: u8 [sp + 0x5df] = a0\n 42880: a0 = t2 >> 0x30\n 42883: u64 [sp + 0x318] = a0\n 42887: u8 [sp + 0x5de] = a0\n 42891: a0 = t2 >> 0x28\n 42894: u64 [sp + 0x310] = a0\n 42898: u8 [sp + 0x5dd] = a0\n 42902: a0 = t2 >> 0x20\n 42905: u64 [sp + 0x308] = a0\n 42909: u8 [sp + 0x5dc] = a0\n 42913: a0 = t2 >> 0x18\n 42916: u64 [sp + 0x300] = a0\n 42920: u8 [sp + 0x5db] = a0\n 42924: a0 = t2 >> 0x10\n 42927: u64 [sp + 0x2f8] = a0\n 42931: u8 [sp + 0x5da] = a0\n 42935: a0 = t2 >> 0x8\n 42938: u64 [sp + 0x2f0] = a0\n 42942: u8 [sp + 0x5d9] = a0\n 42946: a0 = t0 << 0x38\n 42949: a0 = a0 >> 0x3b\n 42952: a3 = sp + 0x5c0\n 42956: a3 = a3 - a0\n 42959: a0 = u8 [a3 + 0x19]\n 42962: a2 = u8 [a3 + 0x18]\n 42965: a4 = u8 [a3 + 0x1a]\n 42968: a5 = u8 [a3 + 0x1b]\n 42971: a0 = a0 << 0x8\n 42974: a0 = a0 | a2\n 42977: a4 = a4 << 0x10\n 42980: a5 = a5 << 0x18\n 42983: a4 = a4 | a5\n 42986: a0 = a0 | a4\n 42989: a2 = u8 [a3 + 0x1d]\n 42992: a4 = u8 [a3 + 0x1c]\n 42995: a5 = u8 [a3 + 0x1e]\n 42998: s1 = u8 [a3 + 0x1f]\n 43001: a2 = a2 << 0x8\n 43004: a2 = a2 | a4\n 43007: a5 = a5 << 0x10\n 43010: s1 = s1 << 0x18\n 43013: a5 = a5 | s1\n 43016: a2 = a2 | a5\n 43019: a2 = a2 << 0x20\n 43022: a2 = a2 | a0\n 43025: a0 = u8 [a3 + 0x11]\n 43028: a4 = u8 [a3 + 0x10]\n 43031: a5 = u8 [a3 + 0x12]\n 43034: s1 = u8 [a3 + 0x13]\n 43037: a0 = a0 << 0x8\n 43040: a0 = a0 | a4\n 43043: a5 = a5 << 0x10\n 43046: s1 = s1 << 0x18\n 43049: a5 = a5 | s1\n 43052: a0 = a0 | a5\n 43055: a4 = u8 [a3 + 0x15]\n 43058: a5 = u8 [a3 + 0x14]\n 43061: s1 = u8 [a3 + 0x16]\n 43064: a1 = u8 [a3 + 0x17]\n 43067: a4 = a4 << 0x8\n 43070: a4 = a4 | a5\n 43073: s1 = s1 << 0x10\n 43076: a1 = a1 << 0x18\n 43079: a1 = a1 | s1\n 43082: a1 = a1 | a4\n 43085: a1 = a1 << 0x20\n 43088: t1 = a1 | a0\n 43091: a1 = t0 & 0x7\n 43094: a0 = a2 << a1\n 43097: a5 = t1 >> 0x1\n 43100: t0 = a1 ^ 0x3f\n 43103: a5 = a5 >> t0\n 43106: a0 = a0 | a5\n 43109: u64 [sp + 0x3a0] = a0\n 43113: a0 = u8 [a3 + 0x9]\n 43116: a5 = u8 [a3 + 0x8]\n 43119: s1 = u8 [a3 + 0xa]\n 43122: a2 = u8 [a3 + 0xb]\n 43125: a0 = a0 << 0x8\n 43128: a0 = a0 | a5\n 43131: s1 = s1 << 0x10\n 43134: a2 = a2 << 0x18\n 43137: a2 = a2 | s1\n 43140: a0 = a0 | a2\n 43143: a2 = u8 [a3 + 0xd]\n 43146: a5 = u8 [a3 + 0xc]\n 43149: s1 = u8 [a3 + 0xe]\n 43152: a4 = u8 [a3 + 0xf]\n 43155: a2 = a2 << 0x8\n 43158: a2 = a2 | a5\n 43161: s1 = s1 << 0x10\n 43164: a4 = a4 << 0x18\n 43167: a4 = a4 | s1\n 43170: a2 = a2 | a4\n 43173: a2 = a2 << 0x20\n 43176: s1 = a2 | a0\n 43179: a0 = s1 >> 0x1\n 43182: a2 = a1 ^ 0xffffffffffffffff\n 43185: a0 = a0 >> a2\n 43188: a2 = t1 << a1\n 43191: a0 = a0 | a2\n 43194: u64 [sp + 0x398] = a0\n 43198: a0 = u8 [a3 + 0x1]\n 43201: a2 = u8 [a3]\n 43203: a4 = u8 [a3 + 0x2]\n 43206: a5 = u8 [a3 + 0x3]\n 43209: a0 = a0 << 0x8\n 43212: a0 = a0 | a2\n 43215: a4 = a4 << 0x10\n 43218: a5 = a5 << 0x18\n 43221: a4 = a4 | a5\n 43224: a0 = a0 | a4\n 43227: a2 = u8 [a3 + 0x5]\n 43230: a4 = u8 [a3 + 0x4]\n 43233: a5 = u8 [a3 + 0x6]\n 43236: a3 = u8 [a3 + 0x7]\n 43239: a2 = a2 << 0x8\n 43242: a2 = a2 | a4\n 43245: a4 = u64 [sp + 0x380]\n 43249: a5 = a5 << 0x10\n 43252: a3 = a3 << 0x18\n 43255: a3 = a3 | a5\n 43258: a5 = u64 [sp + 0x378]\n 43262: a2 = a2 | a3\n 43265: a2 = a2 << 0x20\n 43268: a0 = a0 | a2\n 43271: a2 = a0 >> 0x1\n 43274: a2 = a2 >> t0\n 43277: t0 = u64 [sp + 0x370]\n 43281: a3 = s1 << a1\n 43284: a2 = a2 | a3\n 43287: u64 [sp + 0x388] = a2\n 43291: a2 = a5 | a4\n 43294: a3 = u64 [sp + 0x3a8]\n 43298: a3 = a3 | t0\n 43301: a2 = a2 | a3\n 43304: a0 = a0 << a1\n 43307: u64 [sp + 0x390] = a0\n 43311: jump @238 if a2 == 0\n      : @235 (gas: 224)\n 43315: u64 [sp + 872] = 0\n 43319: u64 [sp + 864] = 0\n 43323: a0 = u64 [sp + 0x260]\n 43327: u8 [sp + 0x567] = a0\n 43331: a0 = u64 [sp + 0x258]\n 43335: u8 [sp + 0x566] = a0\n 43339: a0 = u64 [sp + 0x250]\n 43343: u8 [sp + 0x565] = a0\n 43347: a0 = u64 [sp + 0x248]\n 43351: u8 [sp + 0x564] = a0\n 43355: a0 = u64 [sp + 0x220]\n 43359: u8 [sp + 0x563] = a0\n 43363: a0 = u64 [sp + 0x218]\n 43367: u8 [sp + 0x562] = a0\n 43371: a0 = u64 [sp + 0x210]\n 43375: u8 [sp + 0x561] = a0\n 43379: a0 = u64 [sp + 0x208]\n 43383: u8 [sp + 0x56f] = a0\n 43387: a0 = u64 [sp + 0x1d0]\n 43391: u8 [sp + 0x56e] = a0\n 43395: a0 = u64 [sp + 0x1c8]\n 43399: u8 [sp + 0x56d] = a0\n 43403: a0 = u64 [sp + 0x1c0]\n 43407: u8 [sp + 0x56c] = a0\n 43411: a0 = u64 [sp + 0x1b8]\n 43415: u8 [sp + 0x56b] = a0\n 43419: a0 = u64 [sp + 0x1b0]\n 43423: u8 [sp + 0x56a] = a0\n 43427: a0 = u64 [sp + 0x1a8]\n 43431: u8 [sp + 0x569] = a0\n 43435: a0 = u64 [sp + 0x1a0]\n 43439: u8 [sp + 0x577] = a0\n 43443: a0 = u64 [sp + 0x198]\n 43447: u8 [sp + 0x576] = a0\n 43451: a0 = u64 [sp + 0x190]\n 43455: u8 [sp + 0x575] = a0\n 43459: a0 = u64 [sp + 0x188]\n 43463: u8 [sp + 0x574] = a0\n 43467: a0 = u64 [sp + 0x180]\n 43471: u8 [sp + 0x573] = a0\n 43475: u8 [sp + 1439] = 0\n 43479: u8 [sp + 1438] = 0\n 43483: u8 [sp + 1437] = 0\n 43487: u8 [sp + 1436] = 0\n 43491: u8 [sp + 1435] = 0\n 43495: u8 [sp + 1434] = 0\n 43499: u8 [sp + 1433] = 0\n 43503: u8 [sp + 1432] = 0\n 43507: u8 [sp + 1431] = 0\n 43511: u8 [sp + 1430] = 0\n 43515: u8 [sp + 1429] = 0\n 43519: u8 [sp + 1428] = 0\n 43523: u8 [sp + 1427] = 0\n 43527: u8 [sp + 1426] = 0\n 43531: u8 [sp + 1425] = 0\n 43535: u8 [sp + 1424] = 0\n 43539: u8 [sp + 1423] = 0\n 43543: u8 [sp + 1422] = 0\n 43547: u8 [sp + 1421] = 0\n 43551: u8 [sp + 1420] = 0\n 43555: u8 [sp + 1419] = 0\n 43559: u8 [sp + 1418] = 0\n 43563: u8 [sp + 1417] = 0\n 43567: u8 [sp + 1416] = 0\n 43571: u8 [sp + 1415] = 0\n 43575: u8 [sp + 1414] = 0\n 43579: u8 [sp + 1413] = 0\n 43583: u8 [sp + 1412] = 0\n 43587: u8 [sp + 1411] = 0\n 43591: u8 [sp + 1410] = 0\n 43595: u8 [sp + 1409] = 0\n 43599: u8 [sp + 1408] = 0\n 43603: a0 = u64 [sp + 0x2c0]\n 43607: u8 [sp + 0x560] = a0\n 43611: a0 = u64 [sp + 0x2d0]\n 43615: u8 [sp + 0x568] = a0\n 43619: u8 [sp + 0x570] = ra\n 43623: u8 [sp + 0x578] = t2\n 43627: a0 = u64 [sp + 0x358]\n 43631: u8 [sp + 0x572] = a0\n 43635: a0 = u64 [sp + 0x350]\n 43639: u8 [sp + 0x571] = a0\n 43643: a0 = u64 [sp + 0x348]\n 43647: u8 [sp + 0x57f] = a0\n 43651: a0 = u64 [sp + 0x318]\n 43655: u8 [sp + 0x57e] = a0\n 43659: a0 = u64 [sp + 0x310]\n 43663: u8 [sp + 0x57d] = a0\n 43667: a0 = u64 [sp + 0x308]\n 43671: u8 [sp + 0x57c] = a0\n 43675: a0 = u64 [sp + 0x300]\n 43679: u8 [sp + 0x57b] = a0\n 43683: a0 = u64 [sp + 0x2f8]\n 43687: u8 [sp + 0x57a] = a0\n 43691: a0 = u64 [sp + 0x2f0]\n 43695: u8 [sp + 0x579] = a0\n 43699: s1 = u64 [sp + 0x3a8]\n 43703: a0 = s1 << 0x38\n 43706: a0 = a0 >> 0x3b\n 43709: a1 = sp + 0x560\n 43713: a1 = a1 + a0\n 43716: a0 = u8 [a1 + 0x11]\n 43719: a2 = u8 [a1 + 0x10]\n 43722: a3 = u8 [a1 + 0x12]\n 43725: a4 = u8 [a1 + 0x13]\n 43728: a0 = a0 << 0x8\n 43731: a0 = a0 | a2\n 43734: a3 = a3 << 0x10\n 43737: a4 = a4 << 0x18\n 43740: a3 = a3 | a4\n 43743: a0 = a0 | a3\n 43746: a2 = u8 [a1 + 0x15]\n 43749: a3 = u8 [a1 + 0x14]\n 43752: a4 = u8 [a1 + 0x16]\n 43755: a5 = u8 [a1 + 0x17]\n 43758: a2 = a2 << 0x8\n 43761: a2 = a2 | a3\n 43764: a4 = a4 << 0x10\n 43767: a5 = a5 << 0x18\n 43770: a4 = a4 | a5\n 43773: a2 = a2 | a4\n 43776: a2 = a2 << 0x20\n 43779: t0 = a2 | a0\n 43782: a0 = s1 & 0x7\n 43785: t1 = t0 >> a0\n 43788: a2 = u8 [a1 + 0x19]\n 43791: a4 = u8 [a1 + 0x18]\n 43794: s1 = u8 [a1 + 0x1a]\n 43797: a3 = u8 [a1 + 0x1b]\n 43800: a2 = a2 << 0x8\n 43803: a2 = a2 | a4\n 43806: s1 = s1 << 0x10\n 43809: a3 = a3 << 0x18\n 43812: a3 = a3 | s1\n 43815: a2 = a2 | a3\n 43818: a3 = u8 [a1 + 0x1d]\n 43821: a4 = u8 [a1 + 0x1c]\n 43824: s1 = u8 [a1 + 0x1e]\n 43827: a5 = u8 [a1 + 0x1f]\n 43830: a3 = a3 << 0x8\n 43833: a3 = a3 | a4\n 43836: s1 = s1 << 0x10\n 43839: a5 = a5 << 0x18\n 43842: a5 = a5 | s1\n 43845: a3 = a3 | a5\n 43848: a3 = a3 << 0x20\n 43851: t2 = a3 | a2\n 43854: a2 = t2 << 0x1\n 43857: ra = a0 ^ 0x3f\n 43860: a2 = a2 << ra\n 43863: a2 = t1 | a2\n 43866: u64 [sp + 0x358] = a2\n 43870: a2 = u8 [a1 + 0x9]\n 43873: a3 = u8 [a1 + 0x8]\n 43876: a5 = u8 [a1 + 0xa]\n 43879: a4 = u8 [a1 + 0xb]\n 43882: a2 = a2 << 0x8\n 43885: a2 = a2 | a3\n 43888: a5 = a5 << 0x10\n 43891: a4 = a4 << 0x18\n 43894: a4 = a4 | a5\n 43897: a2 = a2 | a4\n 43900: a3 = u8 [a1 + 0xd]\n 43903: a4 = u8 [a1 + 0xc]\n 43906: a5 = u8 [a1 + 0xe]\n 43909: s1 = u8 [a1 + 0xf]\n 43912: a3 = a3 << 0x8\n 43915: a3 = a3 | a4\n 43918: a5 = a5 << 0x10\n 43921: s1 = s1 << 0x18\n 43924: a5 = a5 | s1\n 43927: a3 = a3 | a5\n 43930: a3 = a3 << 0x20\n 43933: t1 = a3 | a2\n 43936: a2 = t1 >> a0\n 43939: t0 = t0 << 0x1\n 43942: a3 = a0 ^ 0xffffffffffffffff\n 43945: a3 = t0 << a3\n 43948: a3 = a3 | a2\n 43951: a2 = u8 [a1 + 0x1]\n 43954: a4 = u8 [a1]\n 43956: s1 = u8 [a1 + 0x2]\n 43959: a5 = u8 [a1 + 0x3]\n 43962: a2 = a2 << 0x8\n 43965: a2 = a2 | a4\n 43968: s1 = s1 << 0x10\n 43971: a5 = a5 << 0x18\n 43974: a5 = a5 | s1\n 43977: a2 = a2 | a5\n 43980: a4 = u8 [a1 + 0x5]\n 43983: a5 = u8 [a1 + 0x4]\n 43986: s1 = u8 [a1 + 0x6]\n 43989: a1 = u8 [a1 + 0x7]\n 43992: a4 = a4 << 0x8\n 43995: a4 = a4 | a5\n 43998: s1 = s1 << 0x10\n 44001: a1 = a1 << 0x18\n 44004: a1 = a1 | s1\n 44007: s1 = u64 [sp + 0x368]\n 44011: a1 = a1 | a4\n 44014: a1 = a1 << 0x20\n 44017: a1 = a1 | a2\n 44020: a1 = a1 >> a0\n 44023: t1 = t1 << 0x1\n 44026: a2 = t1 << ra\n 44029: t0 = a1 | a2\n 44032: t1 = t2 >> a0\n 44035: a1 = u64 [sp + 0x3c0]\n 44039: a0 = a1 <u 0x1\n 44042: a2 = u64 [sp + 0x3d0]\n 44046: a0 = a2 - a0\n 44049: u64 [sp + 0x310] = a0\n 44053: a0 = a1 | a2\n 44056: a0 = a0 <u 0x1\n 44059: a2 = u64 [sp + 0x3c8]\n 44063: a4 = a2 - a0\n 44066: u64 [sp + 0x308] = a4\n 44070: a0 = a2 <u a0\n 44073: a2 = u64 [sp + 0x3d8]\n 44077: a2 = a2 - a0\n 44080: u64 [sp + 0x300] = a2\n 44084: a1 = a1 + 0xffffffffffffffff\n 44087: u64 [sp + 0x2f8] = a1\n 44091: fallthrough\n      : @236 (gas: 104)\n 44092: u64 [sp + 0x368] = s1\n 44096: u64 [sp + 792] = 0\n 44100: a4 = t0 >> 0x3f\n 44103: s1 = a3 << 0x1\n 44106: s1 = s1 | a4\n 44109: t0 = t0 << 0x1\n 44112: t2 = a3\n 44114: a3 = u64 [sp + 0x3a0]\n 44118: a4 = a3 >> 0x3f\n 44121: a4 = t0 | a4\n 44124: u64 [sp + 0x350] = a4\n 44128: a1 = u64 [sp + 0x310]\n 44132: a0 = a1 ^ s1\n 44135: a1 = a1 <u s1\n 44138: a2 = u64 [sp + 0x2f8]\n 44142: a5 = a2 <u a4\n 44145: a5 = a1 if a0 != 0\n 44148: t1 = t1 << 0x1\n 44151: ra = u64 [sp + 0x358]\n 44155: a0 = ra >> 0x3f\n 44158: t0 = t1 | a0\n 44161: u64 [sp + 0x348] = t0\n 44165: a0 = t2 >> 0x3f\n 44168: ra = ra << 0x1\n 44171: t1 = ra | a0\n 44174: a0 = a3 << 0x1\n 44177: a1 = u64 [sp + 0x398]\n 44181: a2 = a1 >> 0x3f\n 44184: a0 = a0 | a2\n 44187: a2 = a1 << 0x1\n 44190: a3 = u64 [sp + 0x388]\n 44194: a1 = a3 >> 0x3f\n 44197: a1 = a1 | a2\n 44200: a2 = a3 << 0x1\n 44203: a3 = u64 [sp + 0x390]\n 44207: a4 = a3 >> 0x3f\n 44210: a2 = a2 | a4\n 44213: a4 = a3 << 0x1\n 44216: a3 = u64 [sp + 0x368]\n 44220: a3 = a3 | a4\n 44223: u64 [sp + 0x390] = a3\n 44227: a3 = u64 [sp + 0x360]\n 44231: a2 = a2 | a3\n 44234: u64 [sp + 0x388] = a2\n 44238: a1 = a1 | a3\n 44241: u64 [sp + 0x398] = a1\n 44245: a0 = a0 | a3\n 44248: u64 [sp + 0x3a0] = a0\n 44252: a1 = u64 [sp + 0x308]\n 44256: a0 = a1 - t1\n 44259: a0 = a0 <u a5\n 44262: a1 = a1 <u t1\n 44265: a2 = u64 [sp + 0x300]\n 44269: a2 = a2 - t0\n 44272: a2 = a2 - a1\n 44275: a2 = a2 - a0\n 44278: a5 = a2 >>a 0x3f\n 44281: a0 = u64 [sp + 0x3c0]\n 44285: t0 = a5 & a0\n 44288: a1 = u64 [sp + 0x3d0]\n 44292: a1 = a1 & a5\n 44295: a2 = s1 ^ a1\n 44298: a4 = s1 <u a1\n 44301: t2 = u64 [sp + 0x350]\n 44305: ra = t2 <u t0\n 44308: a4 = ra if a2 == 0\n 44311: a2 = u64 [sp + 0x3c8]\n 44315: a2 = a2 & a5\n 44318: a0 = t1 - a2\n 44321: a3 = a0 - a4\n 44324: u64 [sp + 0x358] = a3\n 44328: a3 = a0 <u a4\n 44331: a2 = t1 <u a2\n 44334: a4 = u64 [sp + 0x3d8]\n 44338: a4 = a4 & a5\n 44341: a0 = u64 [sp + 0x348]\n 44345: a4 = a0 - a4\n 44348: a4 = a4 - a2\n 44351: t1 = a4 - a3\n 44354: s1 = s1 - a1\n 44357: a3 = s1 - ra\n 44360: t0 = t2 - t0\n 44363: a4 = u64 [sp + 0x3a8]\n 44367: a1 = u64 [sp + 0x378]\n 44371: a0 = a4 | a1\n 44374: a0 = a0 <u 0x1\n 44377: a2 = u64 [sp + 0x370]\n 44381: s1 = a2 <u a0\n 44384: a0 = a2 - a0\n 44387: a2 = a4 <u 0x1\n 44390: a1 = a1 - a2\n 44393: a2 = u64 [sp + 0x380]\n 44397: a2 = a2 - s1\n 44400: a4 = a4 + 0xffffffffffffffff\n 44403: u64 [sp + 0x380] = a2\n 44407: u64 [sp + 0x378] = a1\n 44411: a1 = a1 | a2\n 44414: u64 [sp + 0x3a8] = a4\n 44418: a2 = a4 | a0\n 44421: a1 = a1 | a2\n 44424: s1 = a5 & 0x1\n 44427: u64 [sp + 0x370] = a0\n 44431: u64 [sp + 864] = 0\n 44435: jump @236 if a1 != 0\n      : @237 (gas: 1)\n 44439: jump @239\n      : @238 (gas: 3)\n 44441: s1 = 0\n 44443: u64 [sp + 792] = 0\n 44447: fallthrough\n      : @239 (gas: 20)\n 44448: a3 = u64 [sp + 0x398]\n 44452: a0 = a3 >> 0x3f\n 44455: a1 = u64 [sp + 0x3a0]\n 44459: a1 = a1 << 0x1\n 44462: a0 = a0 | a1\n 44465: a4 = u64 [sp + 0x388]\n 44469: a1 = a4 >> 0x3f\n 44472: a3 = a3 << 0x1\n 44475: a1 = a1 | a3\n 44478: a5 = u64 [sp + 0x390]\n 44482: a3 = a5 >> 0x3f\n 44485: a4 = a4 << 0x1\n 44488: a5 = a5 << 0x1\n 44491: s1 = s1 | a5\n 44494: a2 = u64 [sp + 0x318]\n 44498: a3 = a3 | a2\n 44501: a3 = a3 | a4\n 44504: t1 = a2 | a1\n 44507: a2 = a2 | a0\n 44510: fallthrough\n      : @240 (gas: 69)\n 44511: u64 [sp + 0x3a8] = a2\n 44515: t0 = u64 [sp + 0x3c0]\n 44519: a0 = t0 mulhu s1\n 44522: a1 = u64 [sp + 0x3d0]\n 44526: a2 = a1 * s1\n 44529: a0 = a0 + a2\n 44532: a2 = a0 <u a2\n 44535: a4 = a1 mulhu s1\n 44538: a2 = a2 + a4\n 44541: a5 = t0 * a3\n 44544: t2 = a5 + a0\n 44547: a0 = t2 <u a5\n 44550: a5 = t0 mulhu a3\n 44553: a0 = a0 + a5\n 44556: a0 = a0 + a2\n 44559: a2 = a0 <u a2\n 44562: a5 = a1 mulhu a3\n 44565: a2 = a2 + a5\n 44568: a5 = a1 * a3\n 44571: a0 = a0 + a5\n 44574: a5 = a0 <u a5\n 44577: ra = a2 + a5\n 44580: a5 = t1 * a1\n 44583: a2 = t1 mulhu t0\n 44586: a2 = a2 + a5\n 44589: a1 = u64 [sp + 0x3a8]\n 44593: a5 = a1 * t0\n 44596: a2 = a2 + a5\n 44599: a1 = u64 [sp + 0x3c8]\n 44603: a5 = s1 mulhu a1\n 44606: a4 = u64 [sp + 0x3d8]\n 44610: a4 = s1 * a4\n 44613: a4 = a4 + a5\n 44616: a3 = a3 * a1\n 44619: a3 = a3 + a4\n 44622: a2 = a2 + a3\n 44625: a3 = s1 * a1\n 44628: a1 = t1 * t0\n 44631: a3 = a3 + a1\n 44634: a1 = a3 <u a1\n 44637: a1 = a1 + a2\n 44640: a3 = a3 + a0\n 44643: a0 = a3 <u a0\n 44646: a1 = a1 + ra\n 44649: a0 = a0 + a1\n 44652: t0 = t0 * s1\n 44655: a1 = u64 [sp + 0x268]\n 44659: a0 = a1 - a0\n 44662: a1 = u64 [sp + 0x2d0]\n 44666: a2 = a1 ^ t2\n 44669: a4 = a1 <u t2\n 44672: t1 = u64 [sp + 0x2c0]\n 44676: a5 = t1 <u t0\n 44679: a4 = a5 if a2 == 0\n 44682: s1 = u64 [sp + 0x2e8]\n 44686: a2 = s1 <u a3\n 44689: a3 = s1 - a3\n 44692: s1 = a3 <u a4\n 44695: a2 = a2 + s1\n 44698: a0 = a0 - a2\n 44701: u64 [sp + 0x2e8] = a0\n 44705: a3 = a3 - a4\n 44708: u64 [sp + 0x2f0] = a3\n 44712: a0 = a1 - t2\n 44715: a0 = a0 - a5\n 44718: u64 [sp + 0x2d0] = a0\n 44722: a0 = t1 - t0\n 44725: u64 [sp + 0x2c0] = a0\n 44729: jump @340\n      : @241 (gas: 4)\n 44732: t1 = a1\n 44734: a5 = a1\n 44736: t2 = u64 [sp + 0x3d8]\n 44740: jump @256\n      : @242 (gas: 2)\n 44743: u64 [sp + 880] = 0\n 44747: fallthrough\n      : @243 (gas: 23)\n 44748: a3 = u64 [sp + 0x398]\n 44752: a0 = a3 >> 0x3f\n 44755: a1 = u64 [sp + 0x3a0]\n 44759: a1 = a1 << 0x1\n 44762: a1 = a1 | a0\n 44765: a5 = u64 [sp + 0x390]\n 44769: a0 = a5 >> 0x3f\n 44772: a3 = a3 << 0x1\n 44775: a3 = a3 | a0\n 44778: a0 = u64 [sp + 0x368]\n 44782: a4 = a0 >> 0x3f\n 44785: a5 = a5 << 0x1\n 44788: a0 = a0 << 0x1\n 44791: a2 = u64 [sp + 0x370]\n 44795: t0 = a2 | a0\n 44798: a4 = a4 | 0\n 44800: t1 = a4 | a5\n 44803: a0 = a3 | 0\n 44805: u64 [sp + 0x3a8] = a0\n 44809: a0 = a1 | 0\n 44811: u64 [sp + 0x388] = a0\n 44815: ra = u64 [sp + 0xd0]\n 44819: fallthrough\n      : @244 (gas: 174)\n 44820: a2 = u64 [sp + 0xf8]\n 44824: a2 = a2 << 0x8\n 44827: a1 = u64 [sp + 0x118]\n 44831: a2 = a2 | a1\n 44834: a3 = u64 [sp + 0x108]\n 44838: a3 = a3 << 0x10\n 44841: a4 = u64 [sp + 0x100]\n 44845: a4 = a4 << 0x18\n 44848: a3 = a3 | a4\n 44851: a2 = a2 | a3\n 44854: a3 = u64 [sp + 0x110]\n 44858: a3 = a3 << 0x8\n 44861: a1 = u64 [sp + 0x130]\n 44865: a3 = a3 | a1\n 44868: a4 = u64 [sp + 0x128]\n 44872: a4 = a4 << 0x10\n 44875: a5 = u64 [sp + 0x120]\n 44879: a5 = a5 << 0x18\n 44882: a4 = a4 | a5\n 44885: a3 = a3 | a4\n 44888: a3 = a3 << 0x20\n 44891: a2 = a2 | a3\n 44894: a3 = u64 [sp + 0x140]\n 44898: a3 = a3 << 0x8\n 44901: a1 = u64 [sp + 0x160]\n 44905: a3 = a3 | a1\n 44908: a4 = u64 [sp + 0x150]\n 44912: a4 = a4 << 0x10\n 44915: a5 = u64 [sp + 0x148]\n 44919: a5 = a5 << 0x18\n 44922: a4 = a4 | a5\n 44925: a3 = a3 | a4\n 44928: a4 = u64 [sp + 0x158]\n 44932: a4 = a4 << 0x8\n 44935: a1 = u64 [sp + 0x178]\n 44939: a4 = a4 | a1\n 44942: a5 = u64 [sp + 0x170]\n 44946: a5 = a5 << 0x10\n 44949: s1 = u64 [sp + 0x168]\n 44953: s1 = s1 << 0x18\n 44956: a5 = a5 | s1\n 44959: a4 = a4 | a5\n 44962: a4 = a4 << 0x20\n 44965: a3 = a3 | a4\n 44968: a1 = u64 [sp + 0x200]\n 44972: a2 = a2 << a1\n 44975: a0 = a1\n 44977: a4 = a3 >> 0x1\n 44980: a1 = u64 [sp + 0x1f8]\n 44984: a4 = a4 >> a1\n 44987: a2 = a2 | a4\n 44990: u64 [sp + 0x380] = a2\n 44994: a2 = u64 [sp + 0x180]\n 44998: a2 = a2 << 0x8\n 45001: a4 = u64 [sp + 0x1a0]\n 45005: a2 = a2 | a4\n 45008: a4 = u64 [sp + 0x190]\n 45012: a4 = a4 << 0x10\n 45015: a5 = u64 [sp + 0x188]\n 45019: a5 = a5 << 0x18\n 45022: a4 = a4 | a5\n 45025: a2 = a2 | a4\n 45028: a4 = u64 [sp + 0x198]\n 45032: a4 = a4 << 0x8\n 45035: a5 = u64 [sp + 0x1b8]\n 45039: a4 = a4 | a5\n 45042: a5 = u64 [sp + 0x1b0]\n 45046: a5 = a5 << 0x10\n 45049: s1 = u64 [sp + 0x1a8]\n 45053: s1 = s1 << 0x18\n 45056: a5 = a5 | s1\n 45059: a4 = a4 | a5\n 45062: a4 = a4 << 0x20\n 45065: a2 = a2 | a4\n 45068: a3 = a3 << a0\n 45071: a4 = a2 >> 0x1\n 45074: a5 = u64 [sp + 0x1e8]\n 45078: a4 = a4 >> a5\n 45081: a3 = a3 | a4\n 45084: u64 [sp + 0x378] = a3\n 45088: a3 = u64 [sp + 0x1c0]\n 45092: a3 = a3 << 0x8\n 45095: a4 = u64 [sp + 0x208]\n 45099: a3 = a3 | a4\n 45102: a4 = u64 [sp + 0x1d0]\n 45106: a4 = a4 << 0x10\n 45109: a5 = u64 [sp + 0x1c8]\n 45113: a5 = a5 << 0x18\n 45116: a4 = a4 | a5\n 45119: a2 = a2 << a0\n 45122: a3 = a3 | a4\n 45125: a4 = u64 [sp + 0x210]\n 45129: a4 = a4 << 0x8\n 45132: a0 = u64 [sp + 0x2d0]\n 45136: a4 = a4 | a0\n 45139: a5 = u64 [sp + 0x218]\n 45143: a5 = a5 << 0x10\n 45146: s1 = ra << 0x18\n 45149: a5 = a5 | s1\n 45152: a4 = a4 | a5\n 45155: a4 = a4 << 0x20\n 45158: a3 = a3 | a4\n 45161: u64 [sp + 0x398] = a3\n 45165: a3 = a3 >> 0x1\n 45168: a3 = a3 >> a1\n 45171: a2 = a2 | a3\n 45174: u64 [sp + 0x218] = a2\n 45178: a0 = u64 [sp + 0x3b8]\n 45182: t2 = t0\n 45184: a2 = t0 mulhu a0\n 45187: a3 = t1 * a0\n 45190: a2 = a2 + a3\n 45193: a3 = a2 <u a3\n 45196: a5 = t1 mulhu a0\n 45199: a4 = a5 + a3\n 45202: a1 = u64 [sp + 0x3b0]\n 45206: a5 = t0 * a1\n 45209: t0 = a5 + a2\n 45212: a5 = t0 <u a5\n 45215: s1 = t2 mulhu a1\n 45218: a5 = a5 + s1\n 45221: a3 = a4 + a5\n 45224: s1 = t1 * a1\n 45227: a5 = s1 + a3\n 45230: s1 = a5 <u s1\n 45233: a3 = a3 <u a4\n 45236: a4 = t1 mulhu a1\n 45239: a3 = a3 + a4\n 45242: a3 = a3 + s1\n 45245: a2 = u64 [sp + 0x3a8]\n 45249: a4 = a0 mulhu a2\n 45252: ra = u64 [sp + 0x388]\n 45256: s1 = a0 * ra\n 45259: a4 = a4 + s1\n 45262: s1 = a1 * a2\n 45265: a4 = a4 + s1\n 45268: s1 = a0 * a2\n 45271: s1 = s1 + a5\n 45274: a5 = s1 <u a5\n 45277: a3 = a3 + a4\n 45280: a3 = a3 + a5\n 45283: a4 = t2 * a0\n 45286: a1 = u64 [sp + 0x300]\n 45290: a1 = a1 - a3\n 45293: a3 = u64 [sp + 0x318]\n 45297: a0 = t0\n 45299: u64 [sp + 0x390] = t0\n 45303: t0 = a3 ^ t0\n 45306: a3 = a3 <u a0\n 45309: a0 = u64 [sp + 0x310]\n 45313: a0 = a0 <u a4\n 45316: a3 = a0 if t0 == 0\n 45319: a5 = u64 [sp + 0x308]\n 45323: t0 = a5 <u s1\n 45326: a5 = a5 - s1\n 45329: s1 = a5 <u a3\n 45332: t0 = t0 + s1\n 45335: s1 = t2\n 45337: a1 = a1 - t0\n 45340: u64 [sp + 0x3a0] = a1\n 45344: a1 = a5 - a3\n 45347: a3 = a2\n 45349: a2 = u64 [sp + 0x390]\n 45353: a5 = u64 [sp + 0x318]\n 45357: a2 = a5 - a2\n 45360: t0 = a2 - a0\n 45363: a0 = u64 [sp + 0x200]\n 45367: a2 = u64 [sp + 0x398]\n 45371: a0 = a2 << a0\n 45374: u64 [sp + 0x210] = a0\n 45378: a0 = t1\n 45380: a2 = u64 [sp + 0x310]\n 45384: t2 = a2 - a4\n 45387: jump @246\n      : @245 (gas: 36)\n 45389: a4 = u64 [sp + 0x3b8]\n 45393: a4 = a4 + t2\n 45396: a0 = a4 <u t2\n 45399: a2 = u64 [sp + 0x3b0]\n 45403: a2 = a2 + t0\n 45406: a2 = a2 + a0\n 45409: a1 = a2 ^ t0\n 45412: a3 = a2 <u t0\n 45415: a3 = a0 if a1 == 0\n 45418: a0 = a2 + 0x1\n 45421: a1 = a2 <u 0xffffffffffffffff\n 45424: t1 = a4 <u 0xffffffffffffffff\n 45427: t1 = a1 if a0 != 0\n 45430: a0 = s1 <u 0x1\n 45433: a1 = a5\n 45435: a5 = a5 - a0\n 45438: a0 = s1 | a1\n 45441: a0 = a0 <u 0x1\n 45444: a1 = u64 [sp + 0x3a8]\n 45448: t2 = a1 <u a0\n 45451: t0 = a1 - a0\n 45454: ra = ra - t2\n 45457: a0 = u64 [sp + 0x390]\n 45461: a1 = a0 + a3\n 45464: a3 = a1 <u a0\n 45467: a0 = u64 [sp + 0x3a0]\n 45471: a0 = a0 + a3\n 45474: u64 [sp + 0x3a0] = a0\n 45478: a3 = a1 | a0\n 45481: t1 = 0 if a3 != 0\n 45483: s1 = s1 + 0xffffffffffffffff\n 45486: a0 = a5\n 45488: a3 = t0\n 45490: t2 = a4\n 45492: t0 = a2\n 45494: jump @248 if t1 == 0\n      : @246 (gas: 13)\n 45498: u64 [sp + 0x3a8] = a3\n 45502: u64 [sp + 0x390] = a1\n 45506: a2 = a3 >u 0\n 45508: a4 = ra >u 0\n 45510: a4 = a2 if ra == 0\n 45513: a2 = a0 + 0x1\n 45516: a5 = a0\n 45518: a0 = s1 + 0x1\n 45521: a0 = a0 <u 0x1\n 45524: a0 = 0 if a2 != 0\n 45526: a2 = a3 | ra\n 45529: a0 = a4 if a2 != 0\n 45532: jump @245 if a0 != 0\n      : @247 (gas: 56)\n 45536: a3 = u64 [sp + 0x338]\n 45540: a0 = s1 mulhu a3\n 45543: a2 = a5 * a3\n 45546: a0 = a0 + a2\n 45549: a2 = a0 <u a2\n 45552: a4 = a5 mulhu a3\n 45555: u64 [sp + 0x398] = a5\n 45559: a5 = a4 + a2\n 45562: t1 = s1\n 45564: s1 = u64 [sp + 0x340]\n 45568: a4 = t1 * s1\n 45571: u64 [sp + 0x388] = ra\n 45575: ra = a4 + a0\n 45578: a4 = ra <u a4\n 45581: a1 = t1 mulhu s1\n 45584: a1 = a1 + a4\n 45587: a2 = a5 + a1\n 45590: a0 = u64 [sp + 0x398]\n 45594: a4 = a0 * s1\n 45597: a1 = a4 + a2\n 45600: a4 = a1 <u a4\n 45603: a2 = a2 <u a5\n 45606: a0 = u64 [sp + 0x398]\n 45610: a5 = a0 mulhu s1\n 45613: a2 = a2 + a5\n 45616: a2 = a2 + a4\n 45619: a0 = u64 [sp + 0x3a8]\n 45623: a4 = a3 mulhu a0\n 45626: a5 = u64 [sp + 0x388]\n 45630: a5 = a3 * a5\n 45633: a4 = a4 + a5\n 45636: a5 = s1 * a0\n 45639: s1 = t1\n 45641: a4 = a4 + a5\n 45644: a5 = a3 * a0\n 45647: a5 = a5 + a1\n 45650: a1 = a5 <u a1\n 45653: a2 = a2 + a4\n 45656: a1 = a1 + a2\n 45659: a2 = t1 * a3\n 45662: a3 = u64 [sp + 0x380]\n 45666: a4 = ra ^ a3\n 45669: a0 = a3 <u ra\n 45672: ra = u64 [sp + 0x388]\n 45676: a3 = u64 [sp + 0x378]\n 45680: a2 = a3 <u a2\n 45683: a2 = a0 if a4 != 0\n 45686: a0 = a1 ^ t0\n 45689: a1 = t0 <u a1\n 45692: a4 = t2 <u a5\n 45695: a4 = a1 if a0 != 0\n 45698: a5 = a5 ^ t2\n 45701: a0 = a0 | a5\n 45704: a5 = u64 [sp + 0x398]\n 45708: a2 = a4 if a0 != 0\n 45711: jump @245 if a2 != 0\n      : @248 (gas: 110)\n 45715: a2 = a5 & 0xffffffffffffffff\n 45718: a1 = s1 & 0xffffffffffffffff\n 45721: t1 = u64 [sp + 0x338]\n 45725: a0 = a1 mulhu t1\n 45728: a3 = a2 * t1\n 45731: a0 = a0 + a3\n 45734: a3 = a0 <u a3\n 45737: a4 = a2 mulhu t1\n 45740: t0 = a4 + a3\n 45743: a3 = u64 [sp + 0x340]\n 45747: a4 = a1 * a3\n 45750: t2 = a4 + a0\n 45753: a4 = t2 <u a4\n 45756: s1 = u64 [sp + 0x3b8]\n 45760: a5 = a1 mulhu a3\n 45763: a4 = a4 + a5\n 45766: a4 = a4 + t0\n 45769: t0 = a4 <u t0\n 45772: a5 = a2 mulhu a3\n 45775: t0 = t0 + a5\n 45778: a5 = a2 * a3\n 45781: a4 = a4 + a5\n 45784: a5 = a4 <u a5\n 45787: a3 = t0 + a5\n 45790: a2 = s1 * a2\n 45793: a5 = s1 mulhu a1\n 45796: a2 = a2 + a5\n 45799: a5 = u64 [sp + 0x3b0]\n 45803: a5 = a5 * a1\n 45806: a2 = a2 + a5\n 45809: a2 = a2 + a3\n 45812: a3 = s1 * a1\n 45815: a3 = a3 + a4\n 45818: a4 = a3 <u a4\n 45821: a2 = a2 + a4\n 45824: a1 = a1 * t1\n 45827: a4 = u64 [sp + 0x318]\n 45831: t0 = a4 - a2\n 45834: a0 = u64 [sp + 0x380]\n 45838: a2 = a0 ^ t2\n 45841: a5 = a0 <u t2\n 45844: a4 = u64 [sp + 0x378]\n 45848: s1 = a4 <u a1\n 45851: a5 = s1 if a2 == 0\n 45854: a2 = u64 [sp + 0x310]\n 45858: t1 = a2 <u a3\n 45861: a3 = a2 - a3\n 45864: a2 = a3 <u a5\n 45867: a2 = a2 + t1\n 45870: ra = t0 - a2\n 45873: t0 = a3 - a5\n 45876: a0 = a0 - t2\n 45879: t2 = a0 - s1\n 45882: t1 = a4 - a1\n 45885: a1 = clz ra\n 45887: a0 = clz t0\n 45889: a0 = a0 + 0x40\n 45892: a0 = a1 if ra != 0\n 45895: a1 = t0 | ra\n 45898: a2 = clz t2\n 45900: a3 = clz t1\n 45902: a3 = a3 + 0x40\n 45905: a3 = a2 if t2 != 0\n 45908: a2 = a3 + 0x80\n 45912: a0 = a2 if a1 == 0\n 45915: a2 = a2 <u a3\n 45918: a2 = 0 if a1 != 0\n 45920: a4 = u64 [sp + 0x258]\n 45924: a1 = a4 <u a0\n 45927: a5 = u64 [sp + 0x260]\n 45931: a3 = a5 ^ a2\n 45934: s1 = a5 <u a2\n 45937: s1 = a1 if a3 == 0\n 45940: a4 = a4 - a0\n 45943: a3 = s1 <u 0x1\n 45946: a3 = a3 + 0xffffffffffffffff\n 45949: a5 = a5 - a2\n 45952: a5 = a5 - a1\n 45955: a0 = a5 >u 0\n 45957: u64 [sp + 0x3a0] = a4\n 45961: a1 = a4 <u 0x100\n 45965: a1 = a1 ^ 0x1\n 45968: a1 = a0 if a5 != 0\n 45971: a4 = -s1\n 45973: a0 = a4 >u 0\n 45975: a2 = a3 >u 0\n 45977: u64 [sp + 0x390] = a3\n 45981: a2 = a0 if a3 == 0\n 45984: a2 = a1 if s1 == 0\n 45987: a0 = t2 | ra\n 45990: a1 = t1 | t0\n 45993: a0 = a0 | a1\n 45996: a0 = a0 <u 0x1\n 45999: a1 = u64 [sp + 0x220]\n 46003: a0 = a0 | a1\n 46006: a1 = t1\n 46008: s1 = a0 | a2\n 46011: u64 [sp + 0x2d0] = ra\n 46015: u64 [sp + 0x300] = t0\n 46019: t1 = t2\n 46021: u64 [sp + 0x308] = t2\n 46025: ra = 0 if s1 != 0\n 46027: u64 [sp + 0x388] = ra\n 46031: t0 = 0 if s1 != 0\n 46033: u64 [sp + 0x398] = t0\n 46037: t1 = 0 if s1 != 0\n 46039: ra = a1\n 46041: ra = 0 if s1 != 0\n 46043: u64 [sp + 0x310] = a1\n 46047: jump @259 if s1 != 0\n      : @249 (gas: 7)\n 46051: a1 = u64 [sp + 0x3a0]\n 46055: s1 = a1 ^ 0xff\n 46059: s1 = s1 | a4\n 46062: t0 = u64 [sp + 0x390]\n 46066: a3 = a5 | t0\n 46069: a3 = a3 | s1\n 46072: jump @259 if a3 == 0\n      : @250 (gas: 260)\n 46076: a2 = a1 + 0x1\n 46079: u64 [sp + 0x3a8] = a2\n 46083: a0 = a2 <u 0x1\n 46086: a0 = a0 + a5\n 46089: u64 [sp + 0x378] = a0\n 46093: a0 = a0 | a2\n 46096: a0 = a0 <u 0x1\n 46099: a0 = a0 + a4\n 46102: u64 [sp + 0x370] = a0\n 46106: a0 = a0 <u a4\n 46109: a0 = a0 + t0\n 46112: u64 [sp + 0x380] = a0\n 46116: t0 = 0xff - a1\n 46120: t2 = sp + 0x7ff\n 46124: t2 = t2 + 0x360\n 46128: a1 = u64 [sp + 0x310]\n 46132: u8 [t2 + 0x21] = a1\n 46135: u8 [t2 + 32] = 0\n 46138: u8 [t2 + 31] = 0\n 46141: u8 [t2 + 30] = 0\n 46144: u8 [t2 + 29] = 0\n 46147: u8 [t2 + 28] = 0\n 46150: u8 [t2 + 27] = 0\n 46153: u8 [t2 + 26] = 0\n 46156: u8 [t2 + 25] = 0\n 46159: u8 [t2 + 24] = 0\n 46162: u8 [t2 + 23] = 0\n 46165: u8 [t2 + 22] = 0\n 46168: u8 [t2 + 21] = 0\n 46171: u8 [t2 + 20] = 0\n 46174: u8 [t2 + 19] = 0\n 46177: u8 [t2 + 18] = 0\n 46180: u8 [t2 + 17] = 0\n 46183: u8 [t2 + 16] = 0\n 46186: u8 [t2 + 15] = 0\n 46189: u8 [t2 + 14] = 0\n 46192: u8 [t2 + 13] = 0\n 46195: u8 [t2 + 12] = 0\n 46198: u8 [t2 + 11] = 0\n 46201: u8 [t2 + 10] = 0\n 46204: u8 [t2 + 9] = 0\n 46207: u8 [t2 + 8] = 0\n 46210: u8 [t2 + 7] = 0\n 46213: u8 [t2 + 6] = 0\n 46216: u8 [t2 + 5] = 0\n 46219: u8 [t2 + 4] = 0\n 46222: u8 [t2 + 3] = 0\n 46225: u8 [t2 + 2] = 0\n 46228: u8 [t2 + 1] = 0\n 46231: a0 = u64 [sp + 0x308]\n 46235: u8 [t2 + 0x29] = a0\n 46238: a2 = a1 >> 0x38\n 46241: u64 [sp + 0x1d0] = a2\n 46245: u8 [t2 + 0x28] = a2\n 46248: a2 = a1 >> 0x30\n 46251: u64 [sp + 0x1c8] = a2\n 46255: u8 [t2 + 0x27] = a2\n 46258: a2 = a1 >> 0x28\n 46261: u64 [sp + 0x1c0] = a2\n 46265: u8 [t2 + 0x26] = a2\n 46268: a2 = a1 >> 0x20\n 46271: u64 [sp + 0x1b8] = a2\n 46275: u8 [t2 + 0x25] = a2\n 46278: a2 = a1 >> 0x18\n 46281: u64 [sp + 0x1b0] = a2\n 46285: u8 [t2 + 0x24] = a2\n 46288: a2 = a1 >> 0x10\n 46291: u64 [sp + 0x1a8] = a2\n 46295: u8 [t2 + 0x23] = a2\n 46298: a2 = a1 >> 0x8\n 46301: u64 [sp + 0x1a0] = a2\n 46305: u8 [t2 + 0x22] = a2\n 46308: a2 = u64 [sp + 0x300]\n 46312: u8 [t2 + 0x31] = a2\n 46315: a3 = a0 >> 0x38\n 46318: u64 [sp + 0x198] = a3\n 46322: u8 [t2 + 0x30] = a3\n 46325: a3 = a0 >> 0x30\n 46328: u64 [sp + 0x190] = a3\n 46332: u8 [t2 + 0x2f] = a3\n 46335: a3 = a0 >> 0x28\n 46338: u64 [sp + 0x188] = a3\n 46342: u8 [t2 + 0x2e] = a3\n 46345: a3 = a0 >> 0x20\n 46348: u64 [sp + 0x180] = a3\n 46352: u8 [t2 + 0x2d] = a3\n 46355: a3 = a0 >> 0x18\n 46358: u64 [sp + 0x178] = a3\n 46362: u8 [t2 + 0x2c] = a3\n 46365: a3 = a0 >> 0x10\n 46368: u64 [sp + 0x170] = a3\n 46372: u8 [t2 + 0x2b] = a3\n 46375: a0 = a0 >> 0x8\n 46378: u64 [sp + 0x168] = a0\n 46382: u8 [t2 + 0x2a] = a0\n 46385: ra = u64 [sp + 0x2d0]\n 46389: u8 [t2 + 0x39] = ra\n 46392: a0 = a2 >> 0x38\n 46395: u64 [sp + 0x160] = a0\n 46399: u8 [t2 + 0x38] = a0\n 46402: a0 = a2 >> 0x30\n 46405: u64 [sp + 0x158] = a0\n 46409: u8 [t2 + 0x37] = a0\n 46412: a0 = a2 >> 0x28\n 46415: u64 [sp + 0x150] = a0\n 46419: u8 [t2 + 0x36] = a0\n 46422: a0 = a2 >> 0x20\n 46425: u64 [sp + 0x148] = a0\n 46429: u8 [t2 + 0x35] = a0\n 46432: a0 = a2 >> 0x18\n 46435: u64 [sp + 0x140] = a0\n 46439: u8 [t2 + 0x34] = a0\n 46442: a0 = a2 >> 0x10\n 46445: u64 [sp + 0x360] = a0\n 46449: u8 [t2 + 0x33] = a0\n 46452: a2 = a2 >> 0x8\n 46455: u64 [sp + 0x358] = a2\n 46459: u8 [t2 + 0x32] = a2\n 46462: a0 = ra >> 0x38\n 46465: u64 [sp + 0x350] = a0\n 46469: u8 [t2 + 0x40] = a0\n 46472: a0 = ra >> 0x30\n 46475: u64 [sp + 0x348] = a0\n 46479: u8 [t2 + 0x3f] = a0\n 46482: a0 = ra >> 0x28\n 46485: u64 [sp + 0x318] = a0\n 46489: u8 [t2 + 0x3e] = a0\n 46492: a0 = ra >> 0x20\n 46495: u64 [sp + 0x260] = a0\n 46499: u8 [t2 + 0x3d] = a0\n 46502: a0 = ra >> 0x18\n 46505: u64 [sp + 0x258] = a0\n 46509: u8 [t2 + 0x3c] = a0\n 46512: a0 = ra >> 0x10\n 46515: u64 [sp + 0x220] = a0\n 46519: u8 [t2 + 0x3b] = a0\n 46522: a0 = ra >> 0x8\n 46525: u64 [sp + 0x208] = a0\n 46529: u8 [t2 + 0x3a] = a0\n 46532: a0 = t0 << 0x38\n 46535: a0 = a0 >> 0x3b\n 46538: a2 = sp + 0x7ff\n 46542: a2 = a2 + 0x381\n 46546: a2 = a2 - a0\n 46549: a0 = u8 [a2 + 0x19]\n 46552: a3 = u8 [a2 + 0x18]\n 46555: a4 = u8 [a2 + 0x1a]\n 46558: a5 = u8 [a2 + 0x1b]\n 46561: a0 = a0 << 0x8\n 46564: a0 = a0 | a3\n 46567: a4 = a4 << 0x10\n 46570: a5 = a5 << 0x18\n 46573: a4 = a4 | a5\n 46576: a0 = a0 | a4\n 46579: a3 = u8 [a2 + 0x1d]\n 46582: a4 = u8 [a2 + 0x1c]\n 46585: a5 = u8 [a2 + 0x1e]\n 46588: s1 = u8 [a2 + 0x1f]\n 46591: a3 = a3 << 0x8\n 46594: a3 = a3 | a4\n 46597: a5 = a5 << 0x10\n 46600: s1 = s1 << 0x18\n 46603: a5 = a5 | s1\n 46606: a3 = a3 | a5\n 46609: a3 = a3 << 0x20\n 46612: a3 = a3 | a0\n 46615: a0 = u8 [a2 + 0x11]\n 46618: a4 = u8 [a2 + 0x10]\n 46621: a5 = u8 [a2 + 0x12]\n 46624: s1 = u8 [a2 + 0x13]\n 46627: a0 = a0 << 0x8\n 46630: a0 = a0 | a4\n 46633: a5 = a5 << 0x10\n 46636: s1 = s1 << 0x18\n 46639: a5 = a5 | s1\n 46642: a0 = a0 | a5\n 46645: a4 = u8 [a2 + 0x15]\n 46648: a5 = u8 [a2 + 0x14]\n 46651: s1 = u8 [a2 + 0x16]\n 46654: a1 = u8 [a2 + 0x17]\n 46657: a4 = a4 << 0x8\n 46660: a4 = a4 | a5\n 46663: s1 = s1 << 0x10\n 46666: a1 = a1 << 0x18\n 46669: a1 = a1 | s1\n 46672: a1 = a1 | a4\n 46675: a1 = a1 << 0x20\n 46678: t1 = a1 | a0\n 46681: a1 = t0 & 0x7\n 46684: a0 = a3 << a1\n 46687: a5 = t1 >> 0x1\n 46690: t0 = a1 ^ 0x3f\n 46693: a5 = a5 >> t0\n 46696: a0 = a0 | a5\n 46699: u64 [sp + 0x3a0] = a0\n 46703: a0 = u8 [a2 + 0x9]\n 46706: a5 = u8 [a2 + 0x8]\n 46709: s1 = u8 [a2 + 0xa]\n 46712: a3 = u8 [a2 + 0xb]\n 46715: a0 = a0 << 0x8\n 46718: a0 = a0 | a5\n 46721: s1 = s1 << 0x10\n 46724: a3 = a3 << 0x18\n 46727: a3 = a3 | s1\n 46730: a0 = a0 | a3\n 46733: a3 = u8 [a2 + 0xd]\n 46736: a5 = u8 [a2 + 0xc]\n 46739: s1 = u8 [a2 + 0xe]\n 46742: a4 = u8 [a2 + 0xf]\n 46745: a3 = a3 << 0x8\n 46748: a3 = a3 | a5\n 46751: s1 = s1 << 0x10\n 46754: a4 = a4 << 0x18\n 46757: a4 = a4 | s1\n 46760: a3 = a3 | a4\n 46763: a3 = a3 << 0x20\n 46766: a5 = a3 | a0\n 46769: a0 = a5 >> 0x1\n 46772: a3 = a1 ^ 0xffffffffffffffff\n 46775: a0 = a0 >> a3\n 46778: a3 = t1 << a1\n 46781: a0 = a0 | a3\n 46784: u64 [sp + 0x398] = a0\n 46788: a0 = u8 [a2 + 0x1]\n 46791: a3 = u8 [a2]\n 46793: a4 = u8 [a2 + 0x2]\n 46796: s1 = u8 [a2 + 0x3]\n 46799: a0 = a0 << 0x8\n 46802: a0 = a0 | a3\n 46805: a4 = a4 << 0x10\n 46808: s1 = s1 << 0x18\n 46811: a4 = a4 | s1\n 46814: a0 = a0 | a4\n 46817: a3 = u8 [a2 + 0x5]\n 46820: a4 = u8 [a2 + 0x4]\n 46823: s1 = u8 [a2 + 0x6]\n 46826: a2 = u8 [a2 + 0x7]\n 46829: a3 = a3 << 0x8\n 46832: a3 = a3 | a4\n 46835: a4 = u64 [sp + 0x380]\n 46839: s1 = s1 << 0x10\n 46842: a2 = a2 << 0x18\n 46845: a2 = a2 | s1\n 46848: a2 = a2 | a3\n 46851: a2 = a2 << 0x20\n 46854: a0 = a0 | a2\n 46857: a2 = a0 >> 0x1\n 46860: a2 = a2 >> t0\n 46863: s1 = u64 [sp + 0x370]\n 46867: a3 = a5 << a1\n 46870: a5 = u64 [sp + 0x378]\n 46874: a2 = a2 | a3\n 46877: u64 [sp + 0x388] = a2\n 46881: a2 = a5 | a4\n 46884: a3 = u64 [sp + 0x3a8]\n 46888: a3 = a3 | s1\n 46891: a2 = a2 | a3\n 46894: a0 = a0 << a1\n 46897: u64 [sp + 0x390] = a0\n 46901: jump @257 if a2 == 0\n      : @251 (gas: 257)\n 46905: u64 [sp + 304] = 0\n 46909: u64 [sp + 872] = 0\n 46913: a0 = u64 [sp + 0x1d0]\n 46917: a1 = sp + 0x1000\n 46921: u8 [a1 + 0xfffffffffffffb27] = a0\n 46925: a0 = u64 [sp + 0x1c8]\n 46929: a1 = sp + 0x1000\n 46933: u8 [a1 + 0xfffffffffffffb26] = a0\n 46937: a0 = u64 [sp + 0x1c0]\n 46941: a1 = sp + 0x1000\n 46945: u8 [a1 + 0xfffffffffffffb25] = a0\n 46949: a0 = u64 [sp + 0x1b8]\n 46953: a1 = sp + 0x1000\n 46957: u8 [a1 + 0xfffffffffffffb24] = a0\n 46961: a0 = u64 [sp + 0x1b0]\n 46965: a1 = sp + 0x1000\n 46969: u8 [a1 + 0xfffffffffffffb23] = a0\n 46973: a0 = u64 [sp + 0x1a8]\n 46977: a1 = sp + 0x1000\n 46981: u8 [a1 + 0xfffffffffffffb22] = a0\n 46985: a0 = u64 [sp + 0x1a0]\n 46989: a1 = sp + 0x1000\n 46993: u8 [a1 + 0xfffffffffffffb21] = a0\n 46997: a0 = u64 [sp + 0x198]\n 47001: a1 = sp + 0x1000\n 47005: u8 [a1 + 0xfffffffffffffb2f] = a0\n 47009: a0 = u64 [sp + 0x190]\n 47013: a1 = sp + 0x1000\n 47017: u8 [a1 + 0xfffffffffffffb2e] = a0\n 47021: a0 = u64 [sp + 0x188]\n 47025: a1 = sp + 0x1000\n 47029: u8 [a1 + 0xfffffffffffffb2d] = a0\n 47033: a0 = u64 [sp + 0x180]\n 47037: a1 = sp + 0x1000\n 47041: u8 [a1 + 0xfffffffffffffb2c] = a0\n 47045: a0 = u64 [sp + 0x178]\n 47049: a1 = sp + 0x1000\n 47053: u8 [a1 + 0xfffffffffffffb2b] = a0\n 47057: a0 = u64 [sp + 0x170]\n 47061: a1 = sp + 0x1000\n 47065: u8 [a1 + 0xfffffffffffffb2a] = a0\n 47069: a0 = u64 [sp + 0x168]\n 47073: a1 = sp + 0x1000\n 47077: u8 [a1 + 0xfffffffffffffb29] = a0\n 47081: a0 = u64 [sp + 0x160]\n 47085: a1 = sp + 0x1000\n 47089: u8 [a1 + 0xfffffffffffffb37] = a0\n 47093: a0 = u64 [sp + 0x158]\n 47097: a1 = sp + 0x1000\n 47101: u8 [a1 + 0xfffffffffffffb36] = a0\n 47105: a0 = u64 [sp + 0x150]\n 47109: a1 = sp + 0x1000\n 47113: u8 [a1 + 0xfffffffffffffb35] = a0\n 47117: a0 = u64 [sp + 0x148]\n 47121: a1 = sp + 0x1000\n 47125: u8 [a1 + 0xfffffffffffffb34] = a0\n 47129: a0 = u64 [sp + 0x140]\n 47133: a1 = sp + 0x1000\n 47137: u8 [a1 + 0xfffffffffffffb33] = a0\n 47141: u8 [t2 + 0] = 0\n 47143: u8 [t2 + 4294967295] = 0\n 47146: u8 [t2 + 4294967294] = 0\n 47149: u8 [t2 + 4294967293] = 0\n 47152: u8 [t2 + 4294967292] = 0\n 47155: u8 [t2 + 4294967291] = 0\n 47158: u8 [t2 + 4294967290] = 0\n 47161: u8 [t2 + 4294967289] = 0\n 47164: u8 [t2 + 4294967288] = 0\n 47167: u8 [t2 + 4294967287] = 0\n 47170: u8 [t2 + 4294967286] = 0\n 47173: u8 [t2 + 4294967285] = 0\n 47176: u8 [t2 + 4294967284] = 0\n 47179: u8 [t2 + 4294967283] = 0\n 47182: u8 [t2 + 4294967282] = 0\n 47185: u8 [t2 + 4294967281] = 0\n 47188: u8 [t2 + 4294967280] = 0\n 47191: u8 [t2 + 4294967279] = 0\n 47194: u8 [t2 + 4294967278] = 0\n 47197: u8 [t2 + 4294967277] = 0\n 47200: u8 [t2 + 4294967276] = 0\n 47203: u8 [t2 + 4294967275] = 0\n 47206: u8 [t2 + 4294967274] = 0\n 47209: u8 [t2 + 4294967273] = 0\n 47212: u8 [t2 + 4294967272] = 0\n 47215: u8 [t2 + 4294967271] = 0\n 47218: u8 [t2 + 4294967270] = 0\n 47221: u8 [t2 + 4294967269] = 0\n 47224: u8 [t2 + 4294967268] = 0\n 47227: u8 [t2 + 4294967267] = 0\n 47230: u8 [t2 + 4294967266] = 0\n 47233: u8 [t2 + 4294967265] = 0\n 47236: a0 = u64 [sp + 0x310]\n 47240: a1 = sp + 0x1000\n 47244: u8 [a1 + 0xfffffffffffffb20] = a0\n 47248: a0 = u64 [sp + 0x308]\n 47252: a1 = sp + 0x1000\n 47256: u8 [a1 + 0xfffffffffffffb28] = a0\n 47260: a0 = u64 [sp + 0x300]\n 47264: a1 = sp + 0x1000\n 47268: u8 [a1 + 0xfffffffffffffb30] = a0\n 47272: a0 = sp + 0x1000\n 47276: u8 [a0 + 0xfffffffffffffb38] = ra\n 47280: a0 = u64 [sp + 0x360]\n 47284: a1 = sp + 0x1000\n 47288: u8 [a1 + 0xfffffffffffffb32] = a0\n 47292: a0 = u64 [sp + 0x358]\n 47296: a1 = sp + 0x1000\n 47300: u8 [a1 + 0xfffffffffffffb31] = a0\n 47304: a0 = u64 [sp + 0x350]\n 47308: a1 = sp + 0x1000\n 47312: u8 [a1 + 0xfffffffffffffb3f] = a0\n 47316: a0 = u64 [sp + 0x348]\n 47320: a1 = sp + 0x1000\n 47324: u8 [a1 + 0xfffffffffffffb3e] = a0\n 47328: a0 = u64 [sp + 0x318]\n 47332: a1 = sp + 0x1000\n 47336: u8 [a1 + 0xfffffffffffffb3d] = a0\n 47340: a0 = u64 [sp + 0x260]\n 47344: a1 = sp + 0x1000\n 47348: u8 [a1 + 0xfffffffffffffb3c] = a0\n 47352: a0 = u64 [sp + 0x258]\n 47356: a1 = sp + 0x1000\n 47360: u8 [a1 + 0xfffffffffffffb3b] = a0\n 47364: a0 = u64 [sp + 0x220]\n 47368: a1 = sp + 0x1000\n 47372: u8 [a1 + 0xfffffffffffffb3a] = a0\n 47376: a0 = u64 [sp + 0x208]\n 47380: a1 = sp + 0x1000\n 47384: u8 [a1 + 0xfffffffffffffb39] = a0\n 47388: s1 = u64 [sp + 0x3a8]\n 47392: a0 = s1 << 0x38\n 47395: a0 = a0 >> 0x3b\n 47398: a1 = sp + 0x7ff\n 47402: a1 = a1 + 0x321\n 47406: a1 = a1 + a0\n 47409: a0 = u8 [a1 + 0x11]\n 47412: a2 = u8 [a1 + 0x10]\n 47415: a3 = u8 [a1 + 0x12]\n 47418: ra = a4\n 47420: a4 = u8 [a1 + 0x13]\n 47423: a0 = a0 << 0x8\n 47426: a0 = a0 | a2\n 47429: a3 = a3 << 0x10\n 47432: a4 = a4 << 0x18\n 47435: a3 = a3 | a4\n 47438: a0 = a0 | a3\n 47441: a2 = u8 [a1 + 0x15]\n 47444: a3 = u8 [a1 + 0x14]\n 47447: a4 = u8 [a1 + 0x16]\n 47450: a5 = u8 [a1 + 0x17]\n 47453: a2 = a2 << 0x8\n 47456: a2 = a2 | a3\n 47459: a4 = a4 << 0x10\n 47462: a5 = a5 << 0x18\n 47465: a4 = a4 | a5\n 47468: a2 = a2 | a4\n 47471: a2 = a2 << 0x20\n 47474: t1 = a2 | a0\n 47477: a2 = s1 & 0x7\n 47480: t0 = t1 >> a2\n 47483: a0 = u8 [a1 + 0x19]\n 47486: a4 = u8 [a1 + 0x18]\n 47489: s1 = u8 [a1 + 0x1a]\n 47492: a3 = u8 [a1 + 0x1b]\n 47495: a0 = a0 << 0x8\n 47498: a0 = a0 | a4\n 47501: s1 = s1 << 0x10\n 47504: a3 = a3 << 0x18\n 47507: a3 = a3 | s1\n 47510: a0 = a0 | a3\n 47513: a3 = u8 [a1 + 0x1d]\n 47516: a4 = u8 [a1 + 0x1c]\n 47519: s1 = u8 [a1 + 0x1e]\n 47522: a5 = u8 [a1 + 0x1f]\n 47525: a3 = a3 << 0x8\n 47528: a3 = a3 | a4\n 47531: s1 = s1 << 0x10\n 47534: a5 = a5 << 0x18\n 47537: a5 = a5 | s1\n 47540: a3 = a3 | a5\n 47543: a3 = a3 << 0x20\n 47546: a0 = a0 | a3\n 47549: u64 [sp + 0x358] = a0\n 47553: a0 = a0 << 0x1\n 47556: t2 = a2 ^ 0x3f\n 47559: a0 = a0 << t2\n 47562: a0 = t0 | a0\n 47565: u64 [sp + 0x360] = a0\n 47569: a0 = u8 [a1 + 0x9]\n 47572: a3 = u8 [a1 + 0x8]\n 47575: a5 = u8 [a1 + 0xa]\n 47578: a4 = u8 [a1 + 0xb]\n 47581: a0 = a0 << 0x8\n 47584: a0 = a0 | a3\n 47587: a5 = a5 << 0x10\n 47590: a4 = a4 << 0x18\n 47593: a4 = a4 | a5\n 47596: a0 = a0 | a4\n 47599: a3 = u8 [a1 + 0xd]\n 47602: a4 = u8 [a1 + 0xc]\n 47605: a5 = u8 [a1 + 0xe]\n 47608: s1 = u8 [a1 + 0xf]\n 47611: a3 = a3 << 0x8\n 47614: a3 = a3 | a4\n 47617: a5 = a5 << 0x10\n 47620: s1 = s1 << 0x18\n 47623: a5 = a5 | s1\n 47626: a3 = a3 | a5\n 47629: a3 = a3 << 0x20\n 47632: a5 = a3 | a0\n 47635: a0 = a5 >> a2\n 47638: t1 = t1 << 0x1\n 47641: a3 = a2 ^ 0xffffffffffffffff\n 47644: a3 = t1 << a3\n 47647: a3 = a3 | a0\n 47650: a0 = u8 [a1 + 0x1]\n 47653: a4 = u8 [a1]\n 47655: s1 = u8 [a1 + 0x2]\n 47658: t1 = u8 [a1 + 0x3]\n 47661: a0 = a0 << 0x8\n 47664: a0 = a0 | a4\n 47667: s1 = s1 << 0x10\n 47670: t1 = t1 << 0x18\n 47673: a4 = t1 | s1\n 47676: t1 = a4 | a0\n 47679: a4 = u8 [a1 + 0x5]\n 47682: s1 = u8 [a1 + 0x4]\n 47685: a0 = u8 [a1 + 0x6]\n 47688: a1 = u8 [a1 + 0x7]\n 47691: a4 = a4 << 0x8\n 47694: a4 = a4 | s1\n 47697: a0 = a0 << 0x10\n 47700: a1 = a1 << 0x18\n 47703: a0 = a0 | a1\n 47706: a0 = a0 | a4\n 47709: a0 = a0 << 0x20\n 47712: a0 = a0 | t1\n 47715: a0 = a0 >> a2\n 47718: a5 = a5 << 0x1\n 47721: a1 = a5 << t2\n 47724: a5 = u64 [sp + 0x130]\n 47728: t1 = a0 | a1\n 47731: a0 = u64 [sp + 0x358]\n 47735: t0 = a0 >> a2\n 47738: a1 = u64 [sp + 0x3b8]\n 47742: a0 = a1 <u 0x1\n 47745: a2 = u64 [sp + 0x3b0]\n 47749: a0 = a2 - a0\n 47752: u64 [sp + 0x350] = a0\n 47756: a0 = a1 | a2\n 47759: a0 = a0 >u 0\n 47761: a0 = a0 + 0xffffffffffffffff\n 47764: u64 [sp + 0x348] = a0\n 47768: a1 = a1 + 0xffffffffffffffff\n 47771: u64 [sp + 0x318] = a1\n 47775: s1 = u64 [sp + 0x3a0]\n 47779: fallthrough\n      : @252 (gas: 89)\n 47780: u64 [sp + 0x380] = ra\n 47784: u64 [sp + 856] = 0\n 47788: a0 = t1 >> 0x3f\n 47791: a1 = a3 << 0x1\n 47794: a1 = a1 | a0\n 47797: t1 = t1 << 0x1\n 47800: a0 = s1 >> 0x3f\n 47803: ra = a5\n 47805: a5 = t1 | a0\n 47808: a0 = u64 [sp + 0x350]\n 47812: a4 = a0 ^ a1\n 47815: a2 = a0 <u a1\n 47818: a0 = u64 [sp + 0x318]\n 47822: a0 = a0 <u a5\n 47825: a0 = a2 if a4 != 0\n 47828: t2 = t0 << 0x1\n 47831: t0 = u64 [sp + 0x360]\n 47835: a2 = t0 >> 0x3f\n 47838: t1 = t2 | a2\n 47841: a3 = a3 >> 0x3f\n 47844: t0 = t0 << 0x1\n 47847: t0 = t0 | a3\n 47850: a4 = s1 << 0x1\n 47853: a2 = u64 [sp + 0x398]\n 47857: s1 = a2 >> 0x3f\n 47860: t2 = a4 | s1\n 47863: s1 = a2 << 0x1\n 47866: a3 = u64 [sp + 0x388]\n 47870: a2 = a3 >> 0x3f\n 47873: a2 = a2 | s1\n 47876: a3 = a3 << 0x1\n 47879: s1 = u64 [sp + 0x390]\n 47883: a4 = s1 >> 0x3f\n 47886: a4 = a4 | a3\n 47889: s1 = s1 << 0x1\n 47892: s1 = ra | s1\n 47895: u64 [sp + 0x390] = s1\n 47899: ra = u64 [sp + 0x380]\n 47903: s1 = u64 [sp + 0x368]\n 47907: a4 = a4 | s1\n 47910: u64 [sp + 0x388] = a4\n 47914: a2 = a2 | s1\n 47917: u64 [sp + 0x398] = a2\n 47921: a2 = s1 | t2\n 47924: u64 [sp + 0x3a0] = a2\n 47928: a3 = u64 [sp + 0x348]\n 47932: a2 = a3 - t0\n 47935: a0 = a2 <u a0\n 47938: a2 = a3 <u t0\n 47941: a4 = a3 - t1\n 47944: a4 = a4 - a2\n 47947: a0 = a4 - a0\n 47950: a0 = a0 >>a 0x3f\n 47953: a2 = u64 [sp + 0x3b8]\n 47957: a2 = a2 & a0\n 47960: a4 = u64 [sp + 0x3b0]\n 47964: a4 = a4 & a0\n 47967: a3 = a1 ^ a4\n 47970: s1 = a1 <u a4\n 47973: t2 = a5 <u a2\n 47976: s1 = t2 if a3 == 0\n 47979: a3 = t0 - s1\n 47982: u64 [sp + 0x360] = a3\n 47986: a3 = t0 <u s1\n 47989: t0 = t1 - a3\n 47992: a1 = a1 - a4\n 47995: a3 = a1 - t2\n 47998: t1 = a5 - a2\n 48001: a5 = u64 [sp + 0x3a8]\n 48005: s1 = u64 [sp + 0x378]\n 48009: a1 = a5 | s1\n 48012: a1 = a1 <u 0x1\n 48015: a4 = u64 [sp + 0x370]\n 48019: a2 = a4 <u a1\n 48022: a1 = a4 - a1\n 48025: a4 = a5 <u 0x1\n 48028: s1 = s1 - a4\n 48031: ra = ra - a2\n 48034: a5 = a5 + 0xffffffffffffffff\n 48037: u64 [sp + 0x378] = s1\n 48041: a2 = s1 | ra\n 48044: s1 = u64 [sp + 0x3a0]\n 48048: u64 [sp + 0x3a8] = a5\n 48052: a4 = a5 | a1\n 48055: a2 = a2 | a4\n 48058: a5 = a0 & 0x1\n 48061: u64 [sp + 0x370] = a1\n 48065: u64 [sp + 872] = 0\n 48069: jump @252 if a2 != 0\n      : @253 (gas: 1)\n 48073: jump @258\n      : @254 (gas: 3)\n 48076: a5 = 0\n 48078: u64 [sp + 840] = 0\n 48082: fallthrough\n      : @255 (gas: 21)\n 48083: a2 = u64 [sp + 0x390]\n 48087: a0 = a2 >> 0x3f\n 48090: a1 = u64 [sp + 0x3a8]\n 48094: a1 = a1 << 0x1\n 48097: a3 = a1 | a0\n 48100: a4 = u64 [sp + 0x3a0]\n 48104: a0 = a4 >> 0x3f\n 48107: a1 = a2 << 0x1\n 48110: a2 = a1 | a0\n 48113: a0 = u64 [sp + 0x398]\n 48117: a1 = a0 >> 0x3f\n 48120: a4 = a4 << 0x1\n 48123: a0 = a0 << 0x1\n 48126: a0 = a0 | a5\n 48129: a5 = u64 [sp + 0x348]\n 48133: a1 = a1 | a5\n 48136: a1 = a1 | a4\n 48139: t1 = a5 | a2\n 48142: a5 = a5 | a3\n 48145: t2 = u64 [sp + 0x3d8]\n 48149: fallthrough\n      : @256 (gas: 62)\n 48150: u64 [sp + 0x3a8] = a5\n 48154: ra = u64 [sp + 0x3c0]\n 48158: a3 = ra mulhu a0\n 48161: t0 = u64 [sp + 0x3d0]\n 48165: a5 = t0 * a0\n 48168: a3 = a3 + a5\n 48171: a5 = a3 <u a5\n 48174: s1 = t0 mulhu a0\n 48177: s1 = s1 + a5\n 48180: a5 = ra * a1\n 48183: a3 = a3 + a5\n 48186: a5 = a3 <u a5\n 48189: a4 = ra mulhu a1\n 48192: a4 = a4 + a5\n 48195: a4 = a4 + s1\n 48198: a5 = t0 * a1\n 48201: a2 = a5 + a4\n 48204: a5 = a2 <u a5\n 48207: a4 = a4 <u s1\n 48210: s1 = t0 mulhu a1\n 48213: a4 = a4 + s1\n 48216: a4 = a4 + a5\n 48219: u64 [sp + 0x3a0] = a4\n 48223: a5 = t1 * t0\n 48226: s1 = t1 mulhu ra\n 48229: a5 = a5 + s1\n 48232: a4 = u64 [sp + 0x3a8]\n 48236: s1 = a4 * ra\n 48239: t0 = a5 + s1\n 48242: a5 = u64 [sp + 0x3c8]\n 48246: s1 = a0 mulhu a5\n 48249: a4 = a0 * t2\n 48252: a4 = a4 + s1\n 48255: a1 = a1 * a5\n 48258: a1 = a1 + a4\n 48261: a4 = a0 * a5\n 48264: s1 = t1 * ra\n 48267: a4 = a4 + s1\n 48270: a1 = a1 + t0\n 48273: a5 = a2 + a4\n 48276: t0 = a5 <u a2\n 48279: a4 = a4 <u s1\n 48282: a1 = a1 + a4\n 48285: a2 = u64 [sp + 0x3a0]\n 48289: a1 = a1 + a2\n 48292: t2 = ra * a0\n 48295: a0 = 0xffffffffffffffff - t0\n 48298: t0 = a0 - a1\n 48301: t1 = a5 >u 0xffffffffffffffff\n 48304: a1 = a3 ^ 0xffffffffffffffff\n 48307: s1 = a3 >u 0xffffffffffffffff\n 48310: a0 = t2 >u 0xffffffffffffffff\n 48313: s1 = a0 if a1 == 0\n 48316: a4 = 0xffffffffffffffff - a5\n 48319: a5 = a4 <u s1\n 48322: a1 = t1 + a5\n 48325: t1 = t0 - a1\n 48328: t0 = a4 - s1\n 48331: a0 = 0xffffffffffffffff - a0\n 48334: a0 = a0 - a3\n 48337: s1 = 0xffffffffffffffff - t2\n 48340: jump @275\n      : @257 (gas: 4)\n 48343: a5 = 0\n 48345: u64 [sp + 856] = 0\n 48349: s1 = u64 [sp + 0x3a0]\n 48353: fallthrough\n      : @258 (gas: 21)\n 48354: a2 = u64 [sp + 0x398]\n 48358: a0 = a2 >> 0x3f\n 48361: a1 = s1 << 0x1\n 48364: a1 = a1 | a0\n 48367: a4 = u64 [sp + 0x388]\n 48371: a0 = a4 >> 0x3f\n 48374: a2 = a2 << 0x1\n 48377: a2 = a2 | a0\n 48380: a0 = u64 [sp + 0x390]\n 48384: a3 = a0 >> 0x3f\n 48387: a4 = a4 << 0x1\n 48390: a0 = a0 << 0x1\n 48393: ra = a5 | a0\n 48396: a5 = u64 [sp + 0x358]\n 48400: a3 = a3 | a5\n 48403: t1 = a3 | a4\n 48406: a0 = a5 | a2\n 48409: u64 [sp + 0x398] = a0\n 48413: a0 = a5 | a1\n 48416: u64 [sp + 0x388] = a0\n 48420: fallthrough\n      : @259 (gas: 71)\n 48421: a2 = u64 [sp + 0x3b8]\n 48425: a3 = ra mulhu a2\n 48428: a4 = t1 * a2\n 48431: a3 = a3 + a4\n 48434: a4 = a3 <u a4\n 48437: a5 = t1 mulhu a2\n 48440: t0 = a5 + a4\n 48443: a0 = u64 [sp + 0x3b0]\n 48447: a4 = ra * a0\n 48450: t2 = a4 + a3\n 48453: a3 = t2 <u a4\n 48456: a4 = ra mulhu a0\n 48459: a3 = a3 + a4\n 48462: a4 = t0 + a3\n 48465: s1 = t1 * a0\n 48468: a3 = s1 + a4\n 48471: a1 = u64 [sp + 0x398]\n 48475: a5 = a2 * a1\n 48478: a5 = a5 + a3\n 48481: s1 = a3 <u s1\n 48484: a3 = a5 <u a3\n 48487: u64 [sp + 0x3a8] = a3\n 48491: a4 = a4 <u t0\n 48494: a3 = t1 mulhu a0\n 48497: a3 = a3 + a4\n 48500: t0 = a3 + s1\n 48503: a4 = a2 mulhu a1\n 48506: a3 = u64 [sp + 0x388]\n 48510: s1 = a2 * a3\n 48513: a4 = a4 + s1\n 48516: s1 = a0 * a1\n 48519: a4 = a4 + s1\n 48522: a3 = t0 + a4\n 48525: a2 = ra * a2\n 48528: u64 [sp + 0x380] = a2\n 48532: a0 = u64 [sp + 0x2d0]\n 48536: a4 = u64 [sp + 0x3a8]\n 48540: s1 = a0 - a4\n 48543: s1 = s1 - a3\n 48546: u64 [sp + 0x3a8] = s1\n 48550: a0 = u64 [sp + 0x308]\n 48554: u64 [sp + 0x390] = t2\n 48558: s1 = a0 ^ t2\n 48561: a3 = a0 <u t2\n 48564: t2 = u64 [sp + 0x310]\n 48568: a4 = t2 <u a2\n 48571: a3 = a4 if s1 == 0\n 48574: a2 = u64 [sp + 0x300]\n 48578: s1 = a2 <u a5\n 48581: a5 = a2 - a5\n 48584: t0 = a5 <u a3\n 48587: t0 = t0 + s1\n 48590: s1 = a1\n 48592: a1 = u64 [sp + 0x3a8]\n 48596: a1 = a1 - t0\n 48599: u64 [sp + 0x3a0] = a1\n 48603: a2 = a5 - a3\n 48606: a3 = a0 - a4\n 48609: a0 = u64 [sp + 0x390]\n 48613: a3 = a3 - a0\n 48616: a0 = u64 [sp + 0x380]\n 48620: a0 = t2 - a0\n 48623: u64 [sp + 0x3a8] = a0\n 48627: a1 = u64 [sp + 0x210]\n 48631: a1 = a1 & 0xffffffffffffffff\n 48634: u64 [sp + 0x380] = a1\n 48638: a1 = u64 [sp + 0x218]\n 48642: a0 = a1 & 0xffffffffffffffff\n 48645: u64 [sp + 0x378] = a0\n 48649: a1 = u64 [sp + 0x388]\n 48653: jump @261\n      : @260 (gas: 35)\n 48655: a4 = u64 [sp + 0x3b8]\n 48659: a0 = u64 [sp + 0x3a8]\n 48663: a4 = a4 + a0\n 48666: a0 = a4 <u a0\n 48669: a5 = u64 [sp + 0x3b0]\n 48673: a5 = a5 + a3\n 48676: a5 = a5 + a0\n 48679: a2 = a5 ^ a3\n 48682: a3 = a5 <u a3\n 48685: a3 = a0 if a2 == 0\n 48688: a0 = a5 + 0x1\n 48691: a2 = a5 <u 0xffffffffffffffff\n 48694: t2 = a4 <u 0xffffffffffffffff\n 48697: t2 = a2 if a0 != 0\n 48700: a0 = ra <u 0x1\n 48703: t0 = t1 - a0\n 48706: a0 = ra | t1\n 48709: a0 = a0 <u 0x1\n 48712: a2 = s1 <u a0\n 48715: a0 = s1 - a0\n 48718: a1 = a1 - a2\n 48721: s1 = u64 [sp + 0x390]\n 48725: a2 = s1 + a3\n 48728: a3 = a2 <u s1\n 48731: s1 = u64 [sp + 0x3a0]\n 48735: s1 = s1 + a3\n 48738: u64 [sp + 0x3a0] = s1\n 48742: a3 = a2 | s1\n 48745: t2 = 0 if a3 != 0\n 48747: ra = ra + 0xffffffffffffffff\n 48750: t1 = t0\n 48752: s1 = a0\n 48754: u64 [sp + 0x3a8] = a4\n 48758: a3 = a5\n 48760: jump @264 if t2 == 0\n      : @261 (gas: 11)\n 48764: u64 [sp + 0x390] = a2\n 48768: a4 = s1 >u 0\n 48770: a5 = a1 >u 0\n 48772: a5 = a4 if a1 == 0\n 48775: a4 = t1 + 0x1\n 48778: a0 = ra + 0x1\n 48781: a0 = a0 <u 0x1\n 48784: a0 = 0 if a4 != 0\n 48786: a4 = s1 | a1\n 48789: a0 = a5 if a4 != 0\n 48792: jump @260 if a0 != 0\n      : @262 (gas: 56)\n 48796: t2 = s1\n 48798: s1 = u64 [sp + 0x338]\n 48802: a0 = ra mulhu s1\n 48805: a4 = t1 * s1\n 48808: a0 = a0 + a4\n 48811: a4 = a0 <u a4\n 48814: a5 = t1 mulhu s1\n 48817: a2 = a5 + a4\n 48820: u64 [sp + 0x388] = a1\n 48824: a1 = u64 [sp + 0x340]\n 48828: a4 = ra * a1\n 48831: u64 [sp + 0x398] = t1\n 48835: t1 = a4 + a0\n 48838: a4 = t1 <u a4\n 48841: a0 = ra mulhu a1\n 48844: a0 = a0 + a4\n 48847: a5 = a2 + a0\n 48850: a0 = u64 [sp + 0x398]\n 48854: a4 = a0 * a1\n 48857: a0 = a4 + a5\n 48860: a4 = a0 <u a4\n 48863: a2 = a5 <u a2\n 48866: a5 = u64 [sp + 0x398]\n 48870: a5 = a5 mulhu a1\n 48873: a2 = a2 + a5\n 48876: a2 = a2 + a4\n 48879: a4 = s1 mulhu t2\n 48882: a5 = u64 [sp + 0x388]\n 48886: a5 = s1 * a5\n 48889: a4 = a4 + a5\n 48892: a5 = a1 * t2\n 48895: a1 = u64 [sp + 0x388]\n 48899: a4 = a4 + a5\n 48902: a5 = s1 * t2\n 48905: a5 = a5 + a0\n 48908: a0 = a5 <u a0\n 48911: a2 = a2 + a4\n 48914: a0 = a0 + a2\n 48917: t0 = ra * s1\n 48920: s1 = t2\n 48922: a2 = u64 [sp + 0x378]\n 48926: a4 = t1 ^ a2\n 48929: t2 = a2 <u t1\n 48932: t1 = u64 [sp + 0x398]\n 48936: a2 = u64 [sp + 0x380]\n 48940: a2 = a2 <u t0\n 48943: a2 = t2 if a4 != 0\n 48946: t0 = a0 ^ a3\n 48949: t2 = a3 <u a0\n 48952: a4 = u64 [sp + 0x3a8]\n 48956: a0 = a4 <u a5\n 48959: a0 = t2 if t0 != 0\n 48962: a5 = a5 ^ a4\n 48965: a4 = a5 | t0\n 48968: a2 = a0 if a4 != 0\n 48971: jump @260 if a2 != 0\n      : @263 (gas: 2)\n 48975: t0 = t1\n 48977: fallthrough\n      : @264 (gas: 374)\n 48978: a1 = t0 & 0xffffffffffffffff\n 48981: a0 = ra & 0xffffffffffffffff\n 48984: t1 = u64 [sp + 0x338]\n 48988: a2 = a0 mulhu t1\n 48991: a3 = a1 * t1\n 48994: a2 = a2 + a3\n 48997: a3 = a2 <u a3\n 49000: a4 = a1 mulhu t1\n 49003: t0 = a4 + a3\n 49006: s1 = u64 [sp + 0x340]\n 49010: a4 = a0 * s1\n 49013: ra = a4 + a2\n 49016: a4 = ra <u a4\n 49019: a5 = a0 mulhu s1\n 49022: a4 = a4 + a5\n 49025: a3 = t0 + a4\n 49028: a5 = a1 * s1\n 49031: a4 = a5 + a3\n 49034: a3 = a3 <u t0\n 49037: s1 = a1 mulhu s1\n 49040: t0 = s1 + a3\n 49043: a3 = u64 [sp + 0x3b8]\n 49047: s1 = a3 * a0\n 49050: s1 = s1 + a4\n 49053: a5 = a4 <u a5\n 49056: a4 = s1 <u a4\n 49059: t0 = t0 + a5\n 49062: a1 = a3 * a1\n 49065: a5 = a3 mulhu a0\n 49068: a1 = a1 + a5\n 49071: a5 = u64 [sp + 0x3b0]\n 49075: a5 = a5 * a0\n 49078: a1 = a1 + a5\n 49081: a1 = a1 + t0\n 49084: t0 = a1 + a4\n 49087: t2 = a0 * t1\n 49090: a1 = u64 [sp + 0x310]\n 49094: a0 = a1 <u s1\n 49097: a4 = u64 [sp + 0x308]\n 49101: t1 = a4 - a0\n 49104: a4 = u64 [sp + 0x378]\n 49108: a0 = a4 ^ ra\n 49111: a5 = a4 <u ra\n 49114: a3 = u64 [sp + 0x380]\n 49118: a2 = a3 <u t2\n 49121: a5 = a2 if a0 == 0\n 49124: a1 = a1 - s1\n 49127: s1 = a1 <u a5\n 49130: a0 = t1 - s1\n 49133: a0 = a0 - t0\n 49136: a1 = a1 - a5\n 49139: a4 = a4 - a2\n 49142: a2 = a4 - ra\n 49145: a3 = a3 - t2\n 49148: a4 = sp + 0x1000\n 49152: u8 [a4 + 4294966047] = 0\n 49156: a4 = sp + 0x1000\n 49160: u8 [a4 + 4294966046] = 0\n 49164: a4 = sp + 0x1000\n 49168: u8 [a4 + 4294966045] = 0\n 49172: a4 = sp + 0x1000\n 49176: u8 [a4 + 4294966044] = 0\n 49180: a4 = sp + 0x1000\n 49184: u8 [a4 + 4294966043] = 0\n 49188: a4 = sp + 0x1000\n 49192: u8 [a4 + 4294966042] = 0\n 49196: a4 = sp + 0x1000\n 49200: u8 [a4 + 4294966041] = 0\n 49204: a4 = sp + 0x1000\n 49208: u8 [a4 + 4294966040] = 0\n 49212: a4 = sp + 0x1000\n 49216: u8 [a4 + 4294966039] = 0\n 49220: a4 = sp + 0x1000\n 49224: u8 [a4 + 4294966038] = 0\n 49228: a4 = sp + 0x1000\n 49232: u8 [a4 + 4294966037] = 0\n 49236: a4 = sp + 0x1000\n 49240: u8 [a4 + 4294966036] = 0\n 49244: a4 = sp + 0x1000\n 49248: u8 [a4 + 4294966035] = 0\n 49252: a4 = sp + 0x1000\n 49256: u8 [a4 + 4294966034] = 0\n 49260: a4 = sp + 0x1000\n 49264: u8 [a4 + 4294966033] = 0\n 49268: a4 = sp + 0x1000\n 49272: u8 [a4 + 4294966032] = 0\n 49276: a4 = sp + 0x1000\n 49280: u8 [a4 + 4294966031] = 0\n 49284: a4 = sp + 0x1000\n 49288: u8 [a4 + 4294966030] = 0\n 49292: a4 = sp + 0x1000\n 49296: u8 [a4 + 4294966029] = 0\n 49300: a4 = sp + 0x1000\n 49304: u8 [a4 + 4294966028] = 0\n 49308: a4 = sp + 0x1000\n 49312: u8 [a4 + 4294966027] = 0\n 49316: a4 = sp + 0x1000\n 49320: u8 [a4 + 4294966026] = 0\n 49324: a4 = sp + 0x1000\n 49328: u8 [a4 + 4294966025] = 0\n 49332: a4 = sp + 0x1000\n 49336: u8 [a4 + 4294966024] = 0\n 49340: a4 = sp + 0x1000\n 49344: u8 [a4 + 4294966023] = 0\n 49348: a4 = sp + 0x1000\n 49352: u8 [a4 + 4294966022] = 0\n 49356: a4 = sp + 0x1000\n 49360: u8 [a4 + 4294966021] = 0\n 49364: a4 = sp + 0x1000\n 49368: u8 [a4 + 4294966020] = 0\n 49372: a4 = sp + 0x1000\n 49376: u8 [a4 + 4294966019] = 0\n 49380: a4 = sp + 0x1000\n 49384: u8 [a4 + 4294966018] = 0\n 49388: a4 = sp + 0x1000\n 49392: u8 [a4 + 4294966017] = 0\n 49396: a4 = sp + 0x1000\n 49400: u8 [a4 + 4294966016] = 0\n 49404: a4 = sp + 0x1000\n 49408: u8 [a4 + 0xfffffffffffffae0] = a3\n 49412: a4 = a3 >> 0x38\n 49415: a5 = sp + 0x1000\n 49419: u8 [a5 + 0xfffffffffffffae7] = a4\n 49423: a4 = a3 >> 0x30\n 49426: a5 = sp + 0x1000\n 49430: u8 [a5 + 0xfffffffffffffae6] = a4\n 49434: a4 = a3 >> 0x28\n 49437: a5 = sp + 0x1000\n 49441: u8 [a5 + 0xfffffffffffffae5] = a4\n 49445: a4 = a3 >> 0x20\n 49448: a5 = sp + 0x1000\n 49452: u8 [a5 + 0xfffffffffffffae4] = a4\n 49456: a4 = a3 >> 0x18\n 49459: a5 = sp + 0x1000\n 49463: u8 [a5 + 0xfffffffffffffae3] = a4\n 49467: a4 = a3 >> 0x10\n 49470: a5 = sp + 0x1000\n 49474: u8 [a5 + 0xfffffffffffffae2] = a4\n 49478: a3 = a3 >> 0x8\n 49481: a4 = sp + 0x1000\n 49485: u8 [a4 + 0xfffffffffffffae1] = a3\n 49489: a3 = sp + 0x1000\n 49493: u8 [a3 + 0xfffffffffffffae8] = a2\n 49497: a3 = a2 >> 0x38\n 49500: a4 = sp + 0x1000\n 49504: u8 [a4 + 0xfffffffffffffaef] = a3\n 49508: a3 = a2 >> 0x30\n 49511: a4 = sp + 0x1000\n 49515: u8 [a4 + 0xfffffffffffffaee] = a3\n 49519: a3 = a2 >> 0x28\n 49522: a4 = sp + 0x1000\n 49526: u8 [a4 + 0xfffffffffffffaed] = a3\n 49530: a3 = a2 >> 0x20\n 49533: a4 = sp + 0x1000\n 49537: u8 [a4 + 0xfffffffffffffaec] = a3\n 49541: a3 = a2 >> 0x18\n 49544: a4 = sp + 0x1000\n 49548: u8 [a4 + 0xfffffffffffffaeb] = a3\n 49552: a3 = a2 >> 0x10\n 49555: a4 = sp + 0x1000\n 49559: u8 [a4 + 0xfffffffffffffaea] = a3\n 49563: a2 = a2 >> 0x8\n 49566: a3 = sp + 0x1000\n 49570: u8 [a3 + 0xfffffffffffffae9] = a2\n 49574: a2 = sp + 0x1000\n 49578: u8 [a2 + 0xfffffffffffffaf0] = a1\n 49582: a2 = a1 >> 0x38\n 49585: a3 = sp + 0x1000\n 49589: u8 [a3 + 0xfffffffffffffaf7] = a2\n 49593: a2 = a1 >> 0x30\n 49596: a3 = sp + 0x1000\n 49600: u8 [a3 + 0xfffffffffffffaf6] = a2\n 49604: a2 = a1 >> 0x28\n 49607: a3 = sp + 0x1000\n 49611: u8 [a3 + 0xfffffffffffffaf5] = a2\n 49615: a2 = a1 >> 0x20\n 49618: a3 = sp + 0x1000\n 49622: u8 [a3 + 0xfffffffffffffaf4] = a2\n 49626: a2 = a1 >> 0x18\n 49629: a3 = sp + 0x1000\n 49633: u8 [a3 + 0xfffffffffffffaf3] = a2\n 49637: a2 = a1 >> 0x10\n 49640: a3 = sp + 0x1000\n 49644: u8 [a3 + 0xfffffffffffffaf2] = a2\n 49648: a1 = a1 >> 0x8\n 49651: a2 = sp + 0x1000\n 49655: u8 [a2 + 0xfffffffffffffaf1] = a1\n 49659: a1 = sp + 0x1000\n 49663: u8 [a1 + 0xfffffffffffffaf8] = a0\n 49667: a1 = a0 >> 0x38\n 49670: a2 = sp + 0x1000\n 49674: u8 [a2 + 0xfffffffffffffaff] = a1\n 49678: a1 = a0 >> 0x30\n 49681: a2 = sp + 0x1000\n 49685: u8 [a2 + 0xfffffffffffffafe] = a1\n 49689: a1 = a0 >> 0x28\n 49692: a2 = sp + 0x1000\n 49696: u8 [a2 + 0xfffffffffffffafd] = a1\n 49700: a1 = a0 >> 0x20\n 49703: a2 = sp + 0x1000\n 49707: u8 [a2 + 0xfffffffffffffafc] = a1\n 49711: a1 = a0 >> 0x18\n 49714: a2 = sp + 0x1000\n 49718: u8 [a2 + 0xfffffffffffffafb] = a1\n 49722: a1 = a0 >> 0x10\n 49725: a2 = sp + 0x1000\n 49729: u8 [a2 + 0xfffffffffffffafa] = a1\n 49733: a0 = a0 >> 0x8\n 49736: a1 = sp + 0x1000\n 49740: u8 [a1 + 0xfffffffffffffaf9] = a0\n 49744: a0 = u64 [sp + 0x1f0]\n 49748: a1 = sp + 0x7ff\n 49752: a1 = a1 + 0x2e1\n 49756: a0 = a0 + a1\n 49759: a1 = u8 [a0 + 0x1]\n 49762: a2 = u8 [a0]\n 49764: a3 = u8 [a0 + 0x2]\n 49767: a4 = u8 [a0 + 0x3]\n 49770: a1 = a1 << 0x8\n 49773: a1 = a1 | a2\n 49776: a3 = a3 << 0x10\n 49779: a4 = a4 << 0x18\n 49782: a3 = a3 | a4\n 49785: a1 = a1 | a3\n 49788: a2 = u8 [a0 + 0x5]\n 49791: a3 = u8 [a0 + 0x4]\n 49794: a4 = u8 [a0 + 0x6]\n 49797: a5 = u8 [a0 + 0x7]\n 49800: a2 = a2 << 0x8\n 49803: a2 = a2 | a3\n 49806: a4 = a4 << 0x10\n 49809: a5 = a5 << 0x18\n 49812: a4 = a4 | a5\n 49815: a2 = a2 | a4\n 49818: a2 = a2 << 0x20\n 49821: a1 = a1 | a2\n 49824: t1 = u64 [sp + 0x200]\n 49828: a2 = a1 >> t1\n 49831: a1 = u8 [a0 + 0x9]\n 49834: a3 = u8 [a0 + 0x8]\n 49837: a4 = u8 [a0 + 0xa]\n 49840: a5 = u8 [a0 + 0xb]\n 49843: a1 = a1 << 0x8\n 49846: a1 = a1 | a3\n 49849: a4 = a4 << 0x10\n 49852: a5 = a5 << 0x18\n 49855: a4 = a4 | a5\n 49858: a1 = a1 | a4\n 49861: a3 = u8 [a0 + 0xd]\n 49864: a4 = u8 [a0 + 0xc]\n 49867: a5 = u8 [a0 + 0xe]\n 49870: s1 = u8 [a0 + 0xf]\n 49873: a3 = a3 << 0x8\n 49876: a3 = a3 | a4\n 49879: a5 = a5 << 0x10\n 49882: s1 = s1 << 0x18\n 49885: a5 = a5 | s1\n 49888: a3 = a3 | a5\n 49891: a3 = a3 << 0x20\n 49894: t0 = a3 | a1\n 49897: a3 = t0 << 0x1\n 49900: t2 = u64 [sp + 0x1f8]\n 49904: a3 = a3 << t2\n 49907: a2 = a2 | a3\n 49910: u64 [sp + 0x260] = a2\n 49914: a2 = u8 [a0 + 0x11]\n 49917: a3 = u8 [a0 + 0x10]\n 49920: a4 = u8 [a0 + 0x12]\n 49923: a5 = u8 [a0 + 0x13]\n 49926: a2 = a2 << 0x8\n 49929: a2 = a2 | a3\n 49932: a4 = a4 << 0x10\n 49935: a5 = a5 << 0x18\n 49938: a4 = a4 | a5\n 49941: a2 = a2 | a4\n 49944: a3 = u8 [a0 + 0x15]\n 49947: a4 = u8 [a0 + 0x14]\n 49950: a5 = u8 [a0 + 0x16]\n 49953: s1 = u8 [a0 + 0x17]\n 49956: a3 = a3 << 0x8\n 49959: a3 = a3 | a4\n 49962: a5 = a5 << 0x10\n 49965: s1 = s1 << 0x18\n 49968: a5 = a5 | s1\n 49971: a3 = a3 | a5\n 49974: a3 = a3 << 0x20\n 49977: a2 = a2 | a3\n 49980: a3 = a2 >> t1\n 49983: a4 = u8 [a0 + 0x19]\n 49986: a5 = u8 [a0 + 0x18]\n 49989: s1 = u8 [a0 + 0x1a]\n 49992: a1 = u8 [a0 + 0x1b]\n 49995: a4 = a4 << 0x8\n 49998: a4 = a4 | a5\n 50001: s1 = s1 << 0x10\n 50004: a1 = a1 << 0x18\n 50007: a1 = a1 | s1\n 50010: a1 = a1 | a4\n 50013: a4 = u8 [a0 + 0x1d]\n 50016: a5 = u8 [a0 + 0x1c]\n 50019: s1 = u8 [a0 + 0x1e]\n 50022: a0 = u8 [a0 + 0x1f]\n 50025: a4 = a4 << 0x8\n 50028: a4 = a4 | a5\n 50031: s1 = s1 << 0x10\n 50034: a0 = a0 << 0x18\n 50037: a0 = a0 | s1\n 50040: a0 = a0 | a4\n 50043: a0 = a0 << 0x20\n 50046: a0 = a0 | a1\n 50049: a1 = a0 << 0x1\n 50052: a1 = a1 << t2\n 50055: ra = a3 | a1\n 50058: a1 = t0 >> t1\n 50061: a2 = a2 << 0x1\n 50064: a3 = u64 [sp + 0x1e8]\n 50068: a2 = a2 << a3\n 50071: t0 = a1 | a2\n 50074: t1 = a0 >> t1\n 50077: a0 = clz t0\n 50079: a1 = u64 [sp + 0x260]\n 50083: a1 = clz a1\n 50085: a1 = a1 + 0x40\n 50088: a1 = a0 if t0 != 0\n 50091: a0 = a1 + 0x80\n 50095: a1 = a0 <u a1\n 50098: a2 = ra | t1\n 50101: a1 = 0 if a2 != 0\n 50103: a3 = clz ra\n 50105: a3 = a3 + 0x40\n 50108: s1 = clz t1\n 50110: s1 = a3 if t1 == 0\n 50113: s1 = a0 if a2 == 0\n 50116: a5 = u64 [sp + 0x330]\n 50120: a4 = a5 ^ a1\n 50123: a2 = a5 <u a1\n 50126: a0 = u64 [sp + 0x328]\n 50130: a3 = a0 <u s1\n 50133: a2 = a3 if a4 == 0\n 50136: a4 = a2 <u 0x1\n 50139: t2 = a4 + 0xffffffffffffffff\n 50142: a4 = -a2\n 50144: a5 = a5 - a1\n 50147: a5 = a5 - a3\n 50150: a1 = a0 - s1\n 50153: u64 [sp + 0x3a0] = a4\n 50157: a0 = a4 >u 0\n 50159: a3 = t2 >u 0\n 50161: a3 = a0 if t2 == 0\n 50164: a0 = a1 <u 0x100\n 50168: a0 = a0 ^ 0x1\n 50171: s1 = a5 >u 0\n 50173: a0 = s1 if a5 != 0\n 50176: a0 = a3 if a2 != 0\n 50179: a4 = u64 [sp + 0x260]\n 50183: a2 = a4 | ra\n 50186: a3 = t0 | t1\n 50189: a2 = a2 | a3\n 50192: a2 = a2 <u 0x1\n 50195: a3 = u64 [sp + 0x320]\n 50199: a2 = a2 | a3\n 50202: a0 = a0 | a2\n 50205: u64 [sp + 0x218] = t1\n 50209: t1 = 0 if a0 != 0\n 50211: s1 = t1\n 50213: u64 [sp + 0x220] = ra\n 50217: t1 = ra\n 50219: t1 = 0 if a0 != 0\n 50221: u64 [sp + 0x258] = t0\n 50225: a3 = t0\n 50227: a3 = 0 if a0 != 0\n 50229: t0 = a4\n 50231: t0 = 0 if a0 != 0\n 50233: jump @270 if a0 != 0\n      : @265 (gas: 7)\n 50237: a0 = a1 ^ 0xff\n 50241: a2 = u64 [sp + 0x3a0]\n 50245: a0 = a0 | a2\n 50248: a4 = a5 | t2\n 50251: a0 = a0 | a4\n 50254: ra = s1\n 50256: jump @273 if a0 == 0\n      : @266 (gas: 323)\n 50260: a2 = a1 + 0x1\n 50263: u64 [sp + 0x3a8] = a2\n 50267: a0 = a2 <u 0x1\n 50270: a0 = a0 + a5\n 50273: u64 [sp + 0x378] = a0\n 50277: a0 = a0 | a2\n 50280: a0 = a0 <u 0x1\n 50283: a2 = u64 [sp + 0x3a0]\n 50287: a0 = a0 + a2\n 50290: u64 [sp + 0x370] = a0\n 50294: a0 = a0 <u a2\n 50297: a0 = a0 + t2\n 50300: u64 [sp + 0x380] = a0\n 50304: t0 = 0xff - a1\n 50308: a0 = u64 [sp + 0x260]\n 50312: a1 = sp + 0x1000\n 50316: u8 [a1 + 0xfffffffffffffac0] = a0\n 50320: a1 = sp + 0x1000\n 50324: u8 [a1 + 4294965951] = 0\n 50328: a1 = sp + 0x1000\n 50332: u8 [a1 + 4294965950] = 0\n 50336: a1 = sp + 0x1000\n 50340: u8 [a1 + 4294965949] = 0\n 50344: a1 = sp + 0x1000\n 50348: u8 [a1 + 4294965948] = 0\n 50352: a1 = sp + 0x1000\n 50356: u8 [a1 + 4294965947] = 0\n 50360: a1 = sp + 0x1000\n 50364: u8 [a1 + 4294965946] = 0\n 50368: a1 = sp + 0x1000\n 50372: u8 [a1 + 4294965945] = 0\n 50376: a1 = sp + 0x1000\n 50380: u8 [a1 + 4294965944] = 0\n 50384: a1 = sp + 0x1000\n 50388: u8 [a1 + 4294965943] = 0\n 50392: a1 = sp + 0x1000\n 50396: u8 [a1 + 4294965942] = 0\n 50400: a1 = sp + 0x1000\n 50404: u8 [a1 + 4294965941] = 0\n 50408: a1 = sp + 0x1000\n 50412: u8 [a1 + 4294965940] = 0\n 50416: a1 = sp + 0x1000\n 50420: u8 [a1 + 4294965939] = 0\n 50424: a1 = sp + 0x1000\n 50428: u8 [a1 + 4294965938] = 0\n 50432: a1 = sp + 0x1000\n 50436: u8 [a1 + 4294965937] = 0\n 50440: a1 = sp + 0x1000\n 50444: u8 [a1 + 4294965936] = 0\n 50448: a1 = sp + 0x1000\n 50452: u8 [a1 + 4294965935] = 0\n 50456: a1 = sp + 0x1000\n 50460: u8 [a1 + 4294965934] = 0\n 50464: a1 = sp + 0x1000\n 50468: u8 [a1 + 4294965933] = 0\n 50472: a1 = sp + 0x1000\n 50476: u8 [a1 + 4294965932] = 0\n 50480: a1 = sp + 0x1000\n 50484: u8 [a1 + 4294965931] = 0\n 50488: a1 = sp + 0x1000\n 50492: u8 [a1 + 4294965930] = 0\n 50496: a1 = sp + 0x1000\n 50500: u8 [a1 + 4294965929] = 0\n 50504: a1 = sp + 0x1000\n 50508: u8 [a1 + 4294965928] = 0\n 50512: a1 = sp + 0x1000\n 50516: u8 [a1 + 4294965927] = 0\n 50520: a1 = sp + 0x1000\n 50524: u8 [a1 + 4294965926] = 0\n 50528: a1 = sp + 0x1000\n 50532: u8 [a1 + 4294965925] = 0\n 50536: a1 = sp + 0x1000\n 50540: u8 [a1 + 4294965924] = 0\n 50544: a1 = sp + 0x1000\n 50548: u8 [a1 + 4294965923] = 0\n 50552: a1 = sp + 0x1000\n 50556: u8 [a1 + 4294965922] = 0\n 50560: a1 = sp + 0x1000\n 50564: u8 [a1 + 4294965921] = 0\n 50568: a1 = sp + 0x1000\n 50572: u8 [a1 + 4294965920] = 0\n 50576: a1 = u64 [sp + 0x258]\n 50580: a2 = sp + 0x1000\n 50584: u8 [a2 + 0xfffffffffffffac8] = a1\n 50588: a2 = a0 >> 0x38\n 50591: u64 [sp + 0x208] = a2\n 50595: a3 = sp + 0x1000\n 50599: u8 [a3 + 0xfffffffffffffac7] = a2\n 50603: a2 = a0 >> 0x30\n 50606: u64 [sp + 0x1d0] = a2\n 50610: a3 = sp + 0x1000\n 50614: u8 [a3 + 0xfffffffffffffac6] = a2\n 50618: a2 = a0 >> 0x28\n 50621: u64 [sp + 0x1c8] = a2\n 50625: a3 = sp + 0x1000\n 50629: u8 [a3 + 0xfffffffffffffac5] = a2\n 50633: a2 = a0 >> 0x20\n 50636: u64 [sp + 0x1c0] = a2\n 50640: a3 = sp + 0x1000\n 50644: u8 [a3 + 0xfffffffffffffac4] = a2\n 50648: a2 = a0 >> 0x18\n 50651: u64 [sp + 0x1b8] = a2\n 50655: a3 = sp + 0x1000\n 50659: u8 [a3 + 0xfffffffffffffac3] = a2\n 50663: a2 = a0 >> 0x10\n 50666: u64 [sp + 0x1b0] = a2\n 50670: a3 = sp + 0x1000\n 50674: u8 [a3 + 0xfffffffffffffac2] = a2\n 50678: a0 = a0 >> 0x8\n 50681: u64 [sp + 0x1a8] = a0\n 50685: a2 = sp + 0x1000\n 50689: u8 [a2 + 0xfffffffffffffac1] = a0\n 50693: t2 = u64 [sp + 0x220]\n 50697: a0 = sp + 0x1000\n 50701: u8 [a0 + 0xfffffffffffffad0] = t2\n 50705: a0 = a1 >> 0x38\n 50708: u64 [sp + 0x1a0] = a0\n 50712: a2 = sp + 0x1000\n 50716: u8 [a2 + 0xfffffffffffffacf] = a0\n 50720: a0 = a1 >> 0x30\n 50723: u64 [sp + 0x198] = a0\n 50727: a2 = sp + 0x1000\n 50731: u8 [a2 + 0xffffffffffffface] = a0\n 50735: a0 = a1 >> 0x28\n 50738: u64 [sp + 0x190] = a0\n 50742: a2 = sp + 0x1000\n 50746: u8 [a2 + 0xfffffffffffffacd] = a0\n 50750: a0 = a1 >> 0x20\n 50753: u64 [sp + 0x188] = a0\n 50757: a2 = sp + 0x1000\n 50761: u8 [a2 + 0xfffffffffffffacc] = a0\n 50765: a0 = a1 >> 0x18\n 50768: u64 [sp + 0x180] = a0\n 50772: a2 = sp + 0x1000\n 50776: u8 [a2 + 0xfffffffffffffacb] = a0\n 50780: a0 = a1 >> 0x10\n 50783: u64 [sp + 0x178] = a0\n 50787: a2 = sp + 0x1000\n 50791: u8 [a2 + 0xfffffffffffffaca] = a0\n 50795: a1 = a1 >> 0x8\n 50798: u64 [sp + 0x170] = a1\n 50802: a0 = sp + 0x1000\n 50806: u8 [a0 + 0xfffffffffffffac9] = a1\n 50810: ra = u64 [sp + 0x218]\n 50814: a0 = sp + 0x1000\n 50818: u8 [a0 + 0xfffffffffffffad8] = ra\n 50822: a0 = t2 >> 0x38\n 50825: u64 [sp + 0x168] = a0\n 50829: a1 = sp + 0x1000\n 50833: u8 [a1 + 0xfffffffffffffad7] = a0\n 50837: a0 = t2 >> 0x30\n 50840: u64 [sp + 0x160] = a0\n 50844: a1 = sp + 0x1000\n 50848: u8 [a1 + 0xfffffffffffffad6] = a0\n 50852: a0 = t2 >> 0x28\n 50855: u64 [sp + 0x158] = a0\n 50859: a1 = sp + 0x1000\n 50863: u8 [a1 + 0xfffffffffffffad5] = a0\n 50867: a0 = t2 >> 0x20\n 50870: u64 [sp + 0x150] = a0\n 50874: a1 = sp + 0x1000\n 50878: u8 [a1 + 0xfffffffffffffad4] = a0\n 50882: a0 = t2 >> 0x18\n 50885: u64 [sp + 0x148] = a0\n 50889: a1 = sp + 0x1000\n 50893: u8 [a1 + 0xfffffffffffffad3] = a0\n 50897: a0 = t2 >> 0x10\n 50900: u64 [sp + 0x358] = a0\n 50904: a1 = sp + 0x1000\n 50908: u8 [a1 + 0xfffffffffffffad2] = a0\n 50912: a0 = t2 >> 0x8\n 50915: u64 [sp + 0x350] = a0\n 50919: a1 = sp + 0x1000\n 50923: u8 [a1 + 0xfffffffffffffad1] = a0\n 50927: a0 = ra >> 0x38\n 50930: u64 [sp + 0x348] = a0\n 50934: a1 = sp + 0x1000\n 50938: u8 [a1 + 0xfffffffffffffadf] = a0\n 50942: a0 = ra >> 0x30\n 50945: u64 [sp + 0x318] = a0\n 50949: a1 = sp + 0x1000\n 50953: u8 [a1 + 0xfffffffffffffade] = a0\n 50957: a0 = ra >> 0x28\n 50960: u64 [sp + 0x310] = a0\n 50964: a1 = sp + 0x1000\n 50968: u8 [a1 + 0xfffffffffffffadd] = a0\n 50972: a0 = ra >> 0x20\n 50975: u64 [sp + 0x308] = a0\n 50979: a1 = sp + 0x1000\n 50983: u8 [a1 + 0xfffffffffffffadc] = a0\n 50987: a0 = ra >> 0x18\n 50990: u64 [sp + 0x300] = a0\n 50994: a1 = sp + 0x1000\n 50998: u8 [a1 + 0xfffffffffffffadb] = a0\n 51002: a0 = ra >> 0x10\n 51005: u64 [sp + 0x2d0] = a0\n 51009: a1 = sp + 0x1000\n 51013: u8 [a1 + 0xfffffffffffffada] = a0\n 51017: a0 = ra >> 0x8\n 51020: u64 [sp + 0x210] = a0\n 51024: a1 = sp + 0x1000\n 51028: u8 [a1 + 0xfffffffffffffad9] = a0\n 51032: a0 = t0 << 0x38\n 51035: a0 = a0 >> 0x3b\n 51038: a3 = sp + 0x7ff\n 51042: a3 = a3 + 0x2c1\n 51046: a3 = a3 - a0\n 51049: a0 = u8 [a3 + 0x19]\n 51052: a1 = u8 [a3 + 0x18]\n 51055: a4 = u8 [a3 + 0x1a]\n 51058: a5 = u8 [a3 + 0x1b]\n 51061: a0 = a0 << 0x8\n 51064: a0 = a0 | a1\n 51067: a4 = a4 << 0x10\n 51070: a5 = a5 << 0x18\n 51073: a4 = a4 | a5\n 51076: a0 = a0 | a4\n 51079: a1 = u8 [a3 + 0x1d]\n 51082: a4 = u8 [a3 + 0x1c]\n 51085: a5 = u8 [a3 + 0x1e]\n 51088: s1 = u8 [a3 + 0x1f]\n 51091: a1 = a1 << 0x8\n 51094: a1 = a1 | a4\n 51097: a5 = a5 << 0x10\n 51100: s1 = s1 << 0x18\n 51103: a5 = a5 | s1\n 51106: a1 = a1 | a5\n 51109: a1 = a1 << 0x20\n 51112: a1 = a1 | a0\n 51115: a0 = u8 [a3 + 0x11]\n 51118: a4 = u8 [a3 + 0x10]\n 51121: a5 = u8 [a3 + 0x12]\n 51124: s1 = u8 [a3 + 0x13]\n 51127: a0 = a0 << 0x8\n 51130: a0 = a0 | a4\n 51133: a5 = a5 << 0x10\n 51136: s1 = s1 << 0x18\n 51139: a5 = a5 | s1\n 51142: a0 = a0 | a5\n 51145: a4 = u8 [a3 + 0x15]\n 51148: a5 = u8 [a3 + 0x14]\n 51151: s1 = u8 [a3 + 0x16]\n 51154: a2 = u8 [a3 + 0x17]\n 51157: a4 = a4 << 0x8\n 51160: a4 = a4 | a5\n 51163: s1 = s1 << 0x10\n 51166: a2 = a2 << 0x18\n 51169: a2 = a2 | s1\n 51172: a2 = a2 | a4\n 51175: a2 = a2 << 0x20\n 51178: t1 = a2 | a0\n 51181: a2 = t0 & 0x7\n 51184: a0 = a1 << a2\n 51187: a5 = t1 >> 0x1\n 51190: t0 = a2 ^ 0x3f\n 51193: a5 = a5 >> t0\n 51196: a0 = a0 | a5\n 51199: u64 [sp + 0x3a0] = a0\n 51203: a0 = u8 [a3 + 0x9]\n 51206: a5 = u8 [a3 + 0x8]\n 51209: s1 = u8 [a3 + 0xa]\n 51212: a1 = u8 [a3 + 0xb]\n 51215: a0 = a0 << 0x8\n 51218: a0 = a0 | a5\n 51221: s1 = s1 << 0x10\n 51224: a1 = a1 << 0x18\n 51227: a1 = a1 | s1\n 51230: a0 = a0 | a1\n 51233: a1 = u8 [a3 + 0xd]\n 51236: a5 = u8 [a3 + 0xc]\n 51239: s1 = u8 [a3 + 0xe]\n 51242: a4 = u8 [a3 + 0xf]\n 51245: a1 = a1 << 0x8\n 51248: a1 = a1 | a5\n 51251: s1 = s1 << 0x10\n 51254: a4 = a4 << 0x18\n 51257: a4 = a4 | s1\n 51260: a1 = a1 | a4\n 51263: a1 = a1 << 0x20\n 51266: s1 = a1 | a0\n 51269: a0 = s1 >> 0x1\n 51272: a1 = a2 ^ 0xffffffffffffffff\n 51275: a0 = a0 >> a1\n 51278: a1 = t1 << a2\n 51281: a0 = a0 | a1\n 51284: u64 [sp + 0x398] = a0\n 51288: a0 = u8 [a3 + 0x1]\n 51291: a1 = u8 [a3]\n 51293: a4 = u8 [a3 + 0x2]\n 51296: a5 = u8 [a3 + 0x3]\n 51299: a0 = a0 << 0x8\n 51302: a0 = a0 | a1\n 51305: a4 = a4 << 0x10\n 51308: a5 = a5 << 0x18\n 51311: a4 = a4 | a5\n 51314: a0 = a0 | a4\n 51317: a1 = u8 [a3 + 0x5]\n 51320: a4 = u8 [a3 + 0x4]\n 51323: a5 = u8 [a3 + 0x6]\n 51326: a3 = u8 [a3 + 0x7]\n 51329: a1 = a1 << 0x8\n 51332: a1 = a1 | a4\n 51335: a4 = u64 [sp + 0x380]\n 51339: a5 = a5 << 0x10\n 51342: a3 = a3 << 0x18\n 51345: a3 = a3 | a5\n 51348: a5 = u64 [sp + 0x378]\n 51352: a1 = a1 | a3\n 51355: a1 = a1 << 0x20\n 51358: a0 = a0 | a1\n 51361: a1 = a0 >> 0x1\n 51364: a1 = a1 >> t0\n 51367: t0 = u64 [sp + 0x370]\n 51371: a3 = s1 << a2\n 51374: a1 = a1 | a3\n 51377: u64 [sp + 0x388] = a1\n 51381: a1 = a5 | a4\n 51384: a3 = u64 [sp + 0x3a8]\n 51388: a3 = a3 | t0\n 51391: a1 = a1 | a3\n 51394: a0 = a0 << a2\n 51397: u64 [sp + 0x390] = a0\n 51401: jump @271 if a1 == 0\n      : @267 (gas: 289)\n 51405: u64 [sp + 872] = 0\n 51409: u64 [sp + 864] = 0\n 51413: a0 = u64 [sp + 0x208]\n 51417: a1 = sp + 0x1000\n 51421: u8 [a1 + 0xfffffffffffffa67] = a0\n 51425: a0 = u64 [sp + 0x1d0]\n 51429: a1 = sp + 0x1000\n 51433: u8 [a1 + 0xfffffffffffffa66] = a0\n 51437: a0 = u64 [sp + 0x1c8]\n 51441: a1 = sp + 0x1000\n 51445: u8 [a1 + 0xfffffffffffffa65] = a0\n 51449: a0 = u64 [sp + 0x1c0]\n 51453: a1 = sp + 0x1000\n 51457: u8 [a1 + 0xfffffffffffffa64] = a0\n 51461: a0 = u64 [sp + 0x1b8]\n 51465: a1 = sp + 0x1000\n 51469: u8 [a1 + 0xfffffffffffffa63] = a0\n 51473: a0 = u64 [sp + 0x1b0]\n 51477: a1 = sp + 0x1000\n 51481: u8 [a1 + 0xfffffffffffffa62] = a0\n 51485: a0 = u64 [sp + 0x1a8]\n 51489: a1 = sp + 0x1000\n 51493: u8 [a1 + 0xfffffffffffffa61] = a0\n 51497: a0 = u64 [sp + 0x1a0]\n 51501: a1 = sp + 0x1000\n 51505: u8 [a1 + 0xfffffffffffffa6f] = a0\n 51509: a0 = u64 [sp + 0x198]\n 51513: a1 = sp + 0x1000\n 51517: u8 [a1 + 0xfffffffffffffa6e] = a0\n 51521: a0 = u64 [sp + 0x190]\n 51525: a1 = sp + 0x1000\n 51529: u8 [a1 + 0xfffffffffffffa6d] = a0\n 51533: a0 = u64 [sp + 0x188]\n 51537: a1 = sp + 0x1000\n 51541: u8 [a1 + 0xfffffffffffffa6c] = a0\n 51545: a0 = u64 [sp + 0x180]\n 51549: a1 = sp + 0x1000\n 51553: u8 [a1 + 0xfffffffffffffa6b] = a0\n 51557: a0 = u64 [sp + 0x178]\n 51561: a1 = sp + 0x1000\n 51565: u8 [a1 + 0xfffffffffffffa6a] = a0\n 51569: a0 = u64 [sp + 0x170]\n 51573: a1 = sp + 0x1000\n 51577: u8 [a1 + 0xfffffffffffffa69] = a0\n 51581: a0 = u64 [sp + 0x168]\n 51585: a1 = sp + 0x1000\n 51589: u8 [a1 + 0xfffffffffffffa77] = a0\n 51593: a0 = u64 [sp + 0x160]\n 51597: a1 = sp + 0x1000\n 51601: u8 [a1 + 0xfffffffffffffa76] = a0\n 51605: a0 = u64 [sp + 0x158]\n 51609: a1 = sp + 0x1000\n 51613: u8 [a1 + 0xfffffffffffffa75] = a0\n 51617: a0 = u64 [sp + 0x150]\n 51621: a1 = sp + 0x1000\n 51625: u8 [a1 + 0xfffffffffffffa74] = a0\n 51629: a0 = u64 [sp + 0x148]\n 51633: a1 = sp + 0x1000\n 51637: u8 [a1 + 0xfffffffffffffa73] = a0\n 51641: a0 = sp + 0x1000\n 51645: u8 [a0 + 4294965919] = 0\n 51649: a0 = sp + 0x1000\n 51653: u8 [a0 + 4294965918] = 0\n 51657: a0 = sp + 0x1000\n 51661: u8 [a0 + 4294965917] = 0\n 51665: a0 = sp + 0x1000\n 51669: u8 [a0 + 4294965916] = 0\n 51673: a0 = sp + 0x1000\n 51677: u8 [a0 + 4294965915] = 0\n 51681: a0 = sp + 0x1000\n 51685: u8 [a0 + 4294965914] = 0\n 51689: a0 = sp + 0x1000\n 51693: u8 [a0 + 4294965913] = 0\n 51697: a0 = sp + 0x1000\n 51701: u8 [a0 + 4294965912] = 0\n 51705: a0 = sp + 0x1000\n 51709: u8 [a0 + 4294965911] = 0\n 51713: a0 = sp + 0x1000\n 51717: u8 [a0 + 4294965910] = 0\n 51721: a0 = sp + 0x1000\n 51725: u8 [a0 + 4294965909] = 0\n 51729: a0 = sp + 0x1000\n 51733: u8 [a0 + 4294965908] = 0\n 51737: a0 = sp + 0x1000\n 51741: u8 [a0 + 4294965907] = 0\n 51745: a0 = sp + 0x1000\n 51749: u8 [a0 + 4294965906] = 0\n 51753: a0 = sp + 0x1000\n 51757: u8 [a0 + 4294965905] = 0\n 51761: a0 = sp + 0x1000\n 51765: u8 [a0 + 4294965904] = 0\n 51769: a0 = sp + 0x1000\n 51773: u8 [a0 + 4294965903] = 0\n 51777: a0 = sp + 0x1000\n 51781: u8 [a0 + 4294965902] = 0\n 51785: a0 = sp + 0x1000\n 51789: u8 [a0 + 4294965901] = 0\n 51793: a0 = sp + 0x1000\n 51797: u8 [a0 + 4294965900] = 0\n 51801: a0 = sp + 0x1000\n 51805: u8 [a0 + 4294965899] = 0\n 51809: a0 = sp + 0x1000\n 51813: u8 [a0 + 4294965898] = 0\n 51817: a0 = sp + 0x1000\n 51821: u8 [a0 + 4294965897] = 0\n 51825: a0 = sp + 0x1000\n 51829: u8 [a0 + 4294965896] = 0\n 51833: a0 = sp + 0x1000\n 51837: u8 [a0 + 4294965895] = 0\n 51841: a0 = sp + 0x1000\n 51845: u8 [a0 + 4294965894] = 0\n 51849: a0 = sp + 0x1000\n 51853: u8 [a0 + 4294965893] = 0\n 51857: a0 = sp + 0x1000\n 51861: u8 [a0 + 4294965892] = 0\n 51865: a0 = sp + 0x1000\n 51869: u8 [a0 + 4294965891] = 0\n 51873: a0 = sp + 0x1000\n 51877: u8 [a0 + 4294965890] = 0\n 51881: a0 = sp + 0x1000\n 51885: u8 [a0 + 4294965889] = 0\n 51889: a0 = sp + 0x1000\n 51893: u8 [a0 + 4294965888] = 0\n 51897: a0 = u64 [sp + 0x260]\n 51901: a1 = sp + 0x1000\n 51905: u8 [a1 + 0xfffffffffffffa60] = a0\n 51909: a0 = u64 [sp + 0x258]\n 51913: a1 = sp + 0x1000\n 51917: u8 [a1 + 0xfffffffffffffa68] = a0\n 51921: a0 = sp + 0x1000\n 51925: u8 [a0 + 0xfffffffffffffa70] = t2\n 51929: a0 = sp + 0x1000\n 51933: u8 [a0 + 0xfffffffffffffa78] = ra\n 51937: a0 = u64 [sp + 0x358]\n 51941: a1 = sp + 0x1000\n 51945: u8 [a1 + 0xfffffffffffffa72] = a0\n 51949: a0 = u64 [sp + 0x350]\n 51953: a1 = sp + 0x1000\n 51957: u8 [a1 + 0xfffffffffffffa71] = a0\n 51961: a0 = u64 [sp + 0x348]\n 51965: a1 = sp + 0x1000\n 51969: u8 [a1 + 0xfffffffffffffa7f] = a0\n 51973: a0 = u64 [sp + 0x318]\n 51977: a1 = sp + 0x1000\n 51981: u8 [a1 + 0xfffffffffffffa7e] = a0\n 51985: a0 = u64 [sp + 0x310]\n 51989: a1 = sp + 0x1000\n 51993: u8 [a1 + 0xfffffffffffffa7d] = a0\n 51997: a0 = u64 [sp + 0x308]\n 52001: a1 = sp + 0x1000\n 52005: u8 [a1 + 0xfffffffffffffa7c] = a0\n 52009: a0 = u64 [sp + 0x300]\n 52013: a1 = sp + 0x1000\n 52017: u8 [a1 + 0xfffffffffffffa7b] = a0\n 52021: a0 = u64 [sp + 0x2d0]\n 52025: a1 = sp + 0x1000\n 52029: u8 [a1 + 0xfffffffffffffa7a] = a0\n 52033: a0 = u64 [sp + 0x210]\n 52037: a1 = sp + 0x1000\n 52041: u8 [a1 + 0xfffffffffffffa79] = a0\n 52045: s1 = u64 [sp + 0x3a8]\n 52049: a0 = s1 << 0x38\n 52052: a0 = a0 >> 0x3b\n 52055: a1 = sp + 0x7ff\n 52059: a1 = a1 + 0x261\n 52063: a1 = a1 + a0\n 52066: a0 = u8 [a1 + 0x11]\n 52069: a2 = u8 [a1 + 0x10]\n 52072: a3 = u8 [a1 + 0x12]\n 52075: a4 = u8 [a1 + 0x13]\n 52078: a0 = a0 << 0x8\n 52081: a0 = a0 | a2\n 52084: a3 = a3 << 0x10\n 52087: a4 = a4 << 0x18\n 52090: a3 = a3 | a4\n 52093: a0 = a0 | a3\n 52096: a2 = u8 [a1 + 0x15]\n 52099: a3 = u8 [a1 + 0x14]\n 52102: a4 = u8 [a1 + 0x16]\n 52105: a5 = u8 [a1 + 0x17]\n 52108: a2 = a2 << 0x8\n 52111: a2 = a2 | a3\n 52114: a4 = a4 << 0x10\n 52117: a5 = a5 << 0x18\n 52120: a4 = a4 | a5\n 52123: a2 = a2 | a4\n 52126: a2 = a2 << 0x20\n 52129: t2 = a2 | a0\n 52132: a4 = s1 & 0x7\n 52135: ra = t2 >> a4\n 52138: a2 = u8 [a1 + 0x19]\n 52141: a3 = u8 [a1 + 0x18]\n 52144: a5 = u8 [a1 + 0x1a]\n 52147: s1 = u8 [a1 + 0x1b]\n 52150: a2 = a2 << 0x8\n 52153: a2 = a2 | a3\n 52156: a5 = a5 << 0x10\n 52159: s1 = s1 << 0x18\n 52162: a5 = a5 | s1\n 52165: a2 = a2 | a5\n 52168: a3 = u8 [a1 + 0x1d]\n 52171: a5 = u8 [a1 + 0x1c]\n 52174: s1 = u8 [a1 + 0x1e]\n 52177: a0 = u8 [a1 + 0x1f]\n 52180: a3 = a3 << 0x8\n 52183: a3 = a3 | a5\n 52186: s1 = s1 << 0x10\n 52189: a0 = a0 << 0x18\n 52192: a0 = a0 | s1\n 52195: a0 = a0 | a3\n 52198: a0 = a0 << 0x20\n 52201: t0 = a0 | a2\n 52204: a0 = t0 << 0x1\n 52207: t1 = a4 ^ 0x3f\n 52210: a0 = a0 << t1\n 52213: a0 = ra | a0\n 52216: u64 [sp + 0x358] = a0\n 52220: a0 = u8 [a1 + 0x9]\n 52223: a2 = u8 [a1 + 0x8]\n 52226: a3 = u8 [a1 + 0xa]\n 52229: a5 = u8 [a1 + 0xb]\n 52232: a0 = a0 << 0x8\n 52235: a0 = a0 | a2\n 52238: a3 = a3 << 0x10\n 52241: a5 = a5 << 0x18\n 52244: a3 = a3 | a5\n 52247: a0 = a0 | a3\n 52250: a2 = u8 [a1 + 0xd]\n 52253: a3 = u8 [a1 + 0xc]\n 52256: a5 = u8 [a1 + 0xe]\n 52259: s1 = u8 [a1 + 0xf]\n 52262: a2 = a2 << 0x8\n 52265: a2 = a2 | a3\n 52268: a5 = a5 << 0x10\n 52271: s1 = s1 << 0x18\n 52274: a5 = a5 | s1\n 52277: a2 = a2 | a5\n 52280: a2 = a2 << 0x20\n 52283: a0 = a0 | a2\n 52286: a2 = a0 >> a4\n 52289: t2 = t2 << 0x1\n 52292: a3 = a4 ^ 0xffffffffffffffff\n 52295: a3 = t2 << a3\n 52298: ra = a2 | a3\n 52301: a2 = u8 [a1 + 0x1]\n 52304: a3 = u8 [a1]\n 52306: a5 = u8 [a1 + 0x2]\n 52309: s1 = u8 [a1 + 0x3]\n 52312: a2 = a2 << 0x8\n 52315: a2 = a2 | a3\n 52318: a5 = a5 << 0x10\n 52321: s1 = s1 << 0x18\n 52324: a5 = a5 | s1\n 52327: a2 = a2 | a5\n 52330: a3 = u8 [a1 + 0x5]\n 52333: a5 = u8 [a1 + 0x4]\n 52336: s1 = u8 [a1 + 0x6]\n 52339: a1 = u8 [a1 + 0x7]\n 52342: a3 = a3 << 0x8\n 52345: a3 = a3 | a5\n 52348: s1 = s1 << 0x10\n 52351: a1 = a1 << 0x18\n 52354: a1 = a1 | s1\n 52357: a1 = a1 | a3\n 52360: a1 = a1 << 0x20\n 52363: a1 = a1 | a2\n 52366: a1 = a1 >> a4\n 52369: a0 = a0 << 0x1\n 52372: a0 = a0 << t1\n 52375: t1 = a1 | a0\n 52378: t0 = t0 >> a4\n 52381: a2 = u64 [sp + 0x3c0]\n 52385: a0 = a2 <u 0x1\n 52388: a1 = u64 [sp + 0x3d0]\n 52392: a0 = a1 - a0\n 52395: u64 [sp + 0x310] = a0\n 52399: a0 = a2 | a1\n 52402: a0 = a0 <u 0x1\n 52405: a1 = u64 [sp + 0x3c8]\n 52409: a3 = a1 - a0\n 52412: u64 [sp + 0x308] = a3\n 52416: a0 = a1 <u a0\n 52419: a1 = u64 [sp + 0x3d8]\n 52423: a1 = a1 - a0\n 52426: u64 [sp + 0x300] = a1\n 52430: a2 = a2 + 0xffffffffffffffff\n 52433: u64 [sp + 0x2d0] = a2\n 52437: a4 = u64 [sp + 0x388]\n 52441: fallthrough\n      : @268 (gas: 105)\n 52442: u64 [sp + 792] = 0\n 52446: a0 = t1 >> 0x3f\n 52449: s1 = ra << 0x1\n 52452: s1 = s1 | a0\n 52455: t1 = t1 << 0x1\n 52458: t2 = u64 [sp + 0x3a0]\n 52462: a0 = t2 >> 0x3f\n 52465: a2 = t1 | a0\n 52468: u64 [sp + 0x350] = a2\n 52472: a1 = u64 [sp + 0x310]\n 52476: a0 = a1 ^ s1\n 52479: a5 = a1 <u s1\n 52482: a1 = u64 [sp + 0x2d0]\n 52486: a3 = a1 <u a2\n 52489: a3 = a5 if a0 != 0\n 52492: t0 = t0 << 0x1\n 52495: a2 = u64 [sp + 0x358]\n 52499: a0 = a2 >> 0x3f\n 52502: t1 = t0 | a0\n 52505: u64 [sp + 0x348] = t1\n 52509: a0 = ra >> 0x3f\n 52512: a2 = a2 << 0x1\n 52515: a0 = a0 | a2\n 52518: a2 = t2 << 0x1\n 52521: a5 = u64 [sp + 0x398]\n 52525: a1 = a5 >> 0x3f\n 52528: t0 = a2 | a1\n 52531: a2 = a5 << 0x1\n 52534: a5 = a4 >> 0x3f\n 52537: a2 = a2 | a5\n 52540: a1 = a4 << 0x1\n 52543: a5 = u64 [sp + 0x390]\n 52547: a4 = a5 >> 0x3f\n 52550: a4 = a4 | a1\n 52553: a5 = a5 << 0x1\n 52556: a1 = u64 [sp + 0x368]\n 52560: a5 = a5 | a1\n 52563: u64 [sp + 0x390] = a5\n 52567: a5 = u64 [sp + 0x360]\n 52571: a4 = a4 | a5\n 52574: u64 [sp + 0x388] = a4\n 52578: a2 = a2 | a5\n 52581: u64 [sp + 0x398] = a2\n 52585: a1 = a5 | t0\n 52588: u64 [sp + 0x3a0] = a1\n 52592: a2 = u64 [sp + 0x308]\n 52596: a1 = a2 - a0\n 52599: a1 = a1 <u a3\n 52602: a2 = a2 <u a0\n 52605: a3 = u64 [sp + 0x300]\n 52609: a3 = a3 - t1\n 52612: a3 = a3 - a2\n 52615: a3 = a3 - a1\n 52618: a3 = a3 >>a 0x3f\n 52621: a1 = u64 [sp + 0x3c0]\n 52625: a1 = a1 & a3\n 52628: u64 [sp + 0x368] = a1\n 52632: a4 = u64 [sp + 0x3d0]\n 52636: a4 = a4 & a3\n 52639: ra = s1 ^ a4\n 52642: a5 = s1 <u a4\n 52645: t1 = u64 [sp + 0x350]\n 52649: a2 = t1 <u a1\n 52652: a5 = a2 if ra == 0\n 52655: a1 = u64 [sp + 0x3c8]\n 52659: ra = a3 & a1\n 52662: t2 = a0 - ra\n 52665: t0 = t2 - a5\n 52668: u64 [sp + 0x358] = t0\n 52672: t2 = t2 <u a5\n 52675: a0 = a0 <u ra\n 52678: a5 = u64 [sp + 0x3d8]\n 52682: a5 = a5 & a3\n 52685: a1 = u64 [sp + 0x348]\n 52689: a5 = a1 - a5\n 52692: a5 = a5 - a0\n 52695: t0 = a5 - t2\n 52698: s1 = s1 - a4\n 52701: ra = s1 - a2\n 52704: a0 = u64 [sp + 0x368]\n 52708: t1 = t1 - a0\n 52711: a4 = u64 [sp + 0x3a8]\n 52715: a5 = u64 [sp + 0x378]\n 52719: a0 = a4 | a5\n 52722: a0 = a0 <u 0x1\n 52725: a2 = u64 [sp + 0x370]\n 52729: a1 = a2 <u a0\n 52732: a0 = a2 - a0\n 52735: a2 = a4 <u 0x1\n 52738: a5 = a5 - a2\n 52741: a2 = u64 [sp + 0x380]\n 52745: a2 = a2 - a1\n 52748: a4 = a4 + 0xffffffffffffffff\n 52751: u64 [sp + 0x380] = a2\n 52755: u64 [sp + 0x378] = a5\n 52759: a1 = a5 | a2\n 52762: u64 [sp + 0x3a8] = a4\n 52766: a2 = a4 | a0\n 52769: a4 = u64 [sp + 0x388]\n 52773: a1 = a1 | a2\n 52776: a3 = a3 & 0x1\n 52779: u64 [sp + 0x368] = a3\n 52783: u64 [sp + 0x370] = a0\n 52787: u64 [sp + 864] = 0\n 52791: jump @268 if a1 != 0\n      : @269 (gas: 1)\n 52795: jump @272\n      : @270 (gas: 2)\n 52797: ra = s1\n 52799: jump @273\n      : @271 (gas: 4)\n 52801: u64 [sp + 872] = 0\n 52805: u64 [sp + 792] = 0\n 52809: a4 = u64 [sp + 0x388]\n 52813: fallthrough\n      : @272 (gas: 20)\n 52814: a3 = u64 [sp + 0x398]\n 52818: a0 = a3 >> 0x3f\n 52821: a2 = u64 [sp + 0x3a0]\n 52825: a2 = a2 << 0x1\n 52828: a0 = a0 | a2\n 52831: a2 = a4 >> 0x3f\n 52834: a3 = a3 << 0x1\n 52837: a2 = a2 | a3\n 52840: a5 = u64 [sp + 0x390]\n 52844: a3 = a5 >> 0x3f\n 52847: a4 = a4 << 0x1\n 52850: a5 = a5 << 0x1\n 52853: a1 = u64 [sp + 0x368]\n 52857: t0 = a1 | a5\n 52860: a1 = u64 [sp + 0x318]\n 52864: a3 = a3 | a1\n 52867: a3 = a3 | a4\n 52870: t1 = a1 | a2\n 52873: ra = a1 | a0\n 52876: fallthrough\n      : @273 (gas: 67)\n 52877: s1 = u64 [sp + 0x3c0]\n 52881: a0 = s1 mulhu t0\n 52884: a2 = u64 [sp + 0x3d0]\n 52888: a1 = a2 * t0\n 52891: a0 = a0 + a1\n 52894: a1 = a0 <u a1\n 52897: a4 = a2 mulhu t0\n 52900: a1 = a1 + a4\n 52903: a5 = s1 * a3\n 52906: t2 = a5 + a0\n 52909: a0 = t2 <u a5\n 52912: a5 = s1 mulhu a3\n 52915: a0 = a0 + a5\n 52918: a0 = a0 + a1\n 52921: a1 = a0 <u a1\n 52924: a5 = a2 mulhu a3\n 52927: a1 = a1 + a5\n 52930: a5 = a2 * a3\n 52933: a0 = a0 + a5\n 52936: a5 = a0 <u a5\n 52939: a1 = a1 + a5\n 52942: u64 [sp + 0x3a8] = a1\n 52946: a5 = t1 * a2\n 52949: a1 = t1 mulhu s1\n 52952: a1 = a1 + a5\n 52955: a5 = ra * s1\n 52958: a1 = a1 + a5\n 52961: ra = u64 [sp + 0x3c8]\n 52965: a5 = t0 mulhu ra\n 52968: a2 = u64 [sp + 0x3d8]\n 52972: a4 = t0 * a2\n 52975: a4 = a4 + a5\n 52978: a3 = a3 * ra\n 52981: a3 = a3 + a4\n 52984: a1 = a1 + a3\n 52987: a2 = t1 * s1\n 52990: a3 = t0 * ra\n 52993: a3 = a3 + a2\n 52996: a2 = a3 <u a2\n 52999: a1 = a1 + a2\n 53002: a3 = a3 + a0\n 53005: a0 = a3 <u a0\n 53008: a2 = u64 [sp + 0x3a8]\n 53012: a1 = a1 + a2\n 53015: t0 = s1 * t0\n 53018: a2 = u64 [sp + 0x218]\n 53022: a0 = a2 - a0\n 53025: t1 = a0 - a1\n 53028: a0 = u64 [sp + 0x258]\n 53032: a1 = a0 ^ t2\n 53035: a4 = a0 <u t2\n 53038: a2 = u64 [sp + 0x260]\n 53042: a5 = a2 <u t0\n 53045: a4 = a5 if a1 == 0\n 53048: s1 = u64 [sp + 0x220]\n 53052: a1 = s1 <u a3\n 53055: s1 = s1 - a3\n 53058: a3 = s1 <u a4\n 53061: a1 = a1 + a3\n 53064: t1 = t1 - a1\n 53067: a1 = s1 - a4\n 53070: a0 = a0 - a5\n 53073: a0 = a0 - t2\n 53076: s1 = a2 - t0\n 53079: t0 = a1\n 53081: a1 = u64 [sp + 0x268]\n 53085: jump @275 if a1 != 0\n      : @274 (gas: 1)\n 53088: jump @224\n      : @275 (gas: 141)\n 53091: u64 [sp + 0x3a8] = t1\n 53095: u64 [sp + 0x3a0] = s1\n 53099: a1 = a0 * s1\n 53102: a2 = s1 mulhu s1\n 53105: a2 = a2 + a1\n 53108: a3 = a2 <u a1\n 53111: a4 = a0 mulhu s1\n 53114: a3 = a3 + a4\n 53117: a2 = a2 + a1\n 53120: u64 [sp + 0x380] = a2\n 53124: a1 = a2 <u a1\n 53127: a1 = a1 + a4\n 53130: a1 = a1 + a3\n 53133: a2 = a0 * a0\n 53136: ra = t0\n 53138: t0 = a2 + a1\n 53141: a2 = t0 <u a2\n 53144: a1 = a1 <u a3\n 53147: a3 = a0 mulhu a0\n 53150: a1 = a1 + a3\n 53153: a2 = a2 + a1\n 53156: a1 = ra mulhu s1\n 53159: u64 [sp + 0x388] = a1\n 53163: a4 = t1 * s1\n 53166: t1 = a4 + a1\n 53169: u64 [sp + 0x390] = t1\n 53173: a3 = ra * s1\n 53176: a5 = a3 + t0\n 53179: t0 = a5 <u a3\n 53182: a2 = a2 + t0\n 53185: t2 = ra * a0\n 53188: t1 = t1 + t2\n 53191: a2 = a2 + t1\n 53194: a1 = a2 ^ t1\n 53197: s1 = a2 <u t1\n 53200: s1 = t0 if a1 == 0\n 53203: u64 [sp + 0x398] = s1\n 53207: t0 = u64 [sp + 0x388]\n 53211: t0 = t0 + t2\n 53214: s1 = a3 + a5\n 53217: u64 [sp + 0x388] = s1\n 53221: a1 = s1 <u a3\n 53224: a5 = a4 + t0\n 53227: a3 = a5 + a1\n 53230: a3 = a3 + a2\n 53233: a2 = a3 ^ a5\n 53236: u64 [sp + 0x378] = a3\n 53240: a3 = a3 <u a5\n 53243: a3 = a1 if a2 == 0\n 53246: s1 = t1 <u t2\n 53249: a2 = t0 <u t2\n 53252: a1 = ra mulhu a0\n 53255: s1 = s1 + a1\n 53258: t1 = a1 + a2\n 53261: a1 = u64 [sp + 0x390]\n 53265: a2 = a1 <u a4\n 53268: a4 = a5 <u a4\n 53271: a1 = u64 [sp + 0x3a8]\n 53275: a5 = u64 [sp + 0x3a0]\n 53279: a5 = a1 mulhu a5\n 53282: a2 = a2 + a5\n 53285: t0 = a5 + a4\n 53288: s1 = s1 + a2\n 53291: a2 = s1 <u a2\n 53294: a5 = a1 * a0\n 53297: s1 = s1 + a5\n 53300: a0 = a1 mulhu a0\n 53303: t2 = a1\n 53305: a2 = a2 + a0\n 53308: a4 = s1 <u a5\n 53311: a1 = a2 + a4\n 53314: a4 = u64 [sp + 0x398]\n 53318: a4 = a4 + s1\n 53321: a2 = a4 <u s1\n 53324: a2 = a2 + a1\n 53327: t0 = t0 + t1\n 53330: a1 = t0 <u t1\n 53333: a0 = a0 + a1\n 53336: t0 = t0 + a5\n 53339: a3 = a3 + t0\n 53342: a1 = t0 <u a5\n 53345: a5 = a3 <u t0\n 53348: a3 = a3 + a4\n 53351: t1 = a3 <u a4\n 53354: a0 = a0 + a1\n 53357: a0 = a0 + a5\n 53360: a0 = a0 + a2\n 53363: a5 = a0 + t1\n 53366: a4 = t2 * ra\n 53369: a1 = ra mulhu ra\n 53372: s1 = a4 + a1\n 53375: a1 = ra * ra\n 53378: a3 = a3 + a1\n 53381: u64 [sp + 0x398] = a3\n 53385: a3 = a3 <u a1\n 53388: a0 = a4 + s1\n 53391: t2 = a0 + a3\n 53394: t2 = t2 + a5\n 53397: t0 = t2 ^ a0\n 53400: a1 = t2 <u a0\n 53403: a1 = a3 if t0 == 0\n 53406: a3 = a5 ^ a2\n 53409: a2 = a5 <u a2\n 53412: a2 = t1 if a3 == 0\n 53415: a3 = s1 <u a4\n 53418: a0 = a0 <u a4\n 53421: a5 = u64 [sp + 0x3a8]\n 53425: a4 = a5 mulhu ra\n 53428: a3 = a3 + a4\n 53431: a0 = a0 + a4\n 53434: a0 = a0 + a3\n 53437: a4 = a5 * a5\n 53440: a3 = a0 <u a3\n 53443: a0 = a0 + a4\n 53446: a2 = a2 + a0\n 53449: t0 = a2 + a1\n 53452: a1 = a0 <u a4\n 53455: a0 = a2 <u a0\n 53458: a2 = t0 <u a2\n 53461: a4 = a5 mulhu a5\n 53464: ra = u64 [sp + 0x398]\n 53468: a3 = a3 + a4\n 53471: a1 = a1 + a3\n 53474: a0 = a0 + a1\n 53477: s1 = a0 + a2\n 53480: a5 = u64 [sp + 0x3c8]\n 53484: a0 = t0 <u a5\n 53487: a1 = u64 [sp + 0x3d0]\n 53491: a2 = a1 ^ t2\n 53494: a3 = t2 <u a1\n 53497: a1 = u64 [sp + 0x3c0]\n 53501: a4 = ra <u a1\n 53504: a4 = a3 if a2 != 0\n 53507: a1 = u64 [sp + 0x3d8]\n 53511: a2 = a1 ^ s1\n 53514: a3 = s1 <u a1\n 53517: a3 = a0 if a2 == 0\n 53520: a0 = a5 ^ t0\n 53523: a0 = a0 | a2\n 53526: a4 = a3 if a0 != 0\n 53529: jump @282 if a4 == 0\n      : @276 (gas: 381)\n 53533: a1 = u64 [sp + 0x380]\n 53537: a0 = sp + 0x1000\n 53541: u8 [a0 + 0xfffffffffffffa48] = a1\n 53545: a0 = a1 >> 0x38\n 53548: u64 [sp + 0x3a8] = a0\n 53552: a0 = u64 [sp + 0x138]\n 53556: t1 = a0 >> 0x3f\n 53559: a3 = t2\n 53561: t2 = u64 [sp + 0x388]\n 53565: a2 = t2\n 53567: a2 = ra if t1 == 0\n 53570: t0 = ra if t1 != 0\n 53573: a0 = a1 >> 0x30\n 53576: u64 [sp + 0x350] = a0\n 53580: a0 = u64 [sp + 0x378]\n 53584: a4 = sp + 0x1000\n 53588: u8 [a4 + 0xfffffffffffffa58] = a0\n 53592: a4 = a1 >> 0x28\n 53595: u64 [sp + 0x348] = a4\n 53599: a4 = a1 >> 0x20\n 53602: u64 [sp + 0x318] = a4\n 53606: a4 = a1 >> 0x18\n 53609: u64 [sp + 0x310] = a4\n 53613: a4 = a1 >> 0x10\n 53616: u64 [sp + 0x308] = a4\n 53620: a4 = a1 >> 0x8\n 53623: u64 [sp + 0x218] = a4\n 53627: a1 = a0 if t1 == 0\n 53630: a4 = a0 >> 0x38\n 53633: u64 [sp + 0x398] = a4\n 53637: a4 = a0 >> 0x30\n 53640: u64 [sp + 0x390] = a4\n 53644: a4 = a0 >> 0x28\n 53647: u64 [sp + 0x380] = a4\n 53651: a4 = a0 >> 0x20\n 53654: u64 [sp + 0x370] = a4\n 53658: a4 = a0 >> 0x18\n 53661: u64 [sp + 0x368] = a4\n 53665: a4 = a0 >> 0x10\n 53668: u64 [sp + 0x360] = a4\n 53672: a4 = a0 >> 0x8\n 53675: u64 [sp + 0x358] = a4\n 53679: a0 = a3 if t1 == 0\n 53682: s1 = a3 if t1 != 0\n 53685: a5 = u64 [sp + 0x248]\n 53689: a5 = a5 >> 0x3f\n 53692: a4 = a1\n 53694: a4 = a2 if a5 == 0\n 53697: a2 = a0 if a5 == 0\n 53700: s1 = t0 if a5 != 0\n 53703: t0 = a0 if a5 != 0\n 53706: a0 = u64 [sp + 0x3a0]\n 53710: a0 = a0 * a0\n 53713: a3 = sp + 0x1000\n 53717: u8 [a3 + 0xfffffffffffffa40] = a0\n 53721: a3 = a0 >> 0x38\n 53724: u64 [sp + 0x3a0] = a3\n 53728: a3 = a0 >> 0x30\n 53731: u64 [sp + 0x378] = a3\n 53735: a3 = a0 >> 0x28\n 53738: u64 [sp + 0x210] = a3\n 53742: a3 = a0 >> 0x20\n 53745: u64 [sp + 0x208] = a3\n 53749: a3 = a0 >> 0x18\n 53752: u64 [sp + 0x1d0] = a3\n 53756: a3 = a0 >> 0x10\n 53759: u64 [sp + 0x1c8] = a3\n 53763: a3 = a0 >> 0x8\n 53766: u64 [sp + 0x1c0] = a3\n 53770: a0 = t2 if t1 == 0\n 53773: a0 = a1 if a5 == 0\n 53776: a5 = a4 >> 0x1\n 53779: a1 = u64 [sp + 0x250]\n 53783: a5 = a5 >> a1\n 53786: t1 = s1\n 53788: s1 = u64 [sp + 0x1e0]\n 53792: a3 = a2 << s1\n 53795: ra = a3 | a5\n 53798: a5 = t1 << s1\n 53801: a3 = t0 >> 0x1\n 53804: a3 = a3 >> a1\n 53807: a3 = a3 | a5\n 53810: u64 [sp + 0x268] = a3\n 53814: a3 = a4 << s1\n 53817: a0 = a0 >> 0x1\n 53820: a0 = a0 >> a1\n 53823: a3 = a3 | a0\n 53826: u64 [sp + 0x300] = a3\n 53830: a0 = t0 << s1\n 53833: a2 = a2 >> 0x1\n 53836: a1 = a2 >> a1\n 53839: t1 = a0 | a1\n 53842: a0 = u64 [sp + 0x3b8]\n 53846: a0 = clz a0\n 53848: a0 = a0 + 0x40\n 53851: a4 = u64 [sp + 0x3b0]\n 53855: a2 = clz a4\n 53857: a2 = a0 if a4 == 0\n 53860: a0 = clz a3\n 53862: a0 = a0 + 0x40\n 53865: u64 [sp + 0x2d0] = ra\n 53869: a1 = clz ra\n 53871: a0 = a1 if ra != 0\n 53874: a1 = clz t1\n 53876: a5 = a1 + 0x40\n 53879: ra = u64 [sp + 0x268]\n 53883: a1 = clz ra\n 53885: a5 = a1 if ra != 0\n 53888: a1 = a0 + 0x80\n 53892: a3 = a1 <u a0\n 53895: a0 = t1 | ra\n 53898: a5 = a1 if a0 == 0\n 53901: a3 = 0 if a0 != 0\n 53903: a1 = a2 + 0x80\n 53907: s1 = a1 <u a2\n 53910: a2 = a1 <u a5\n 53913: t0 = s1 ^ a3\n 53916: a0 = s1 <u a3\n 53919: a0 = a2 if t0 == 0\n 53922: u64 [sp + 0x258] = s1\n 53926: s1 = s1 - a3\n 53929: s1 = s1 - a2\n 53932: a2 = a0 <u 0x1\n 53935: a2 = a2 + 0xffffffffffffffff\n 53938: a3 = -a0\n 53940: u64 [sp + 0xd0] = a3\n 53944: t0 = a3 >u 0\n 53946: a3 = a2 >u 0\n 53948: u64 [sp + 0xd8] = a2\n 53952: a3 = t0 if a2 == 0\n 53955: u64 [sp + 0x220] = a1\n 53959: a1 = a1 - a5\n 53962: u64 [sp + 0xc0] = a1\n 53966: a1 = a1 <u 0x100\n 53970: a5 = a1 ^ 0x1\n 53973: a1 = s1 >u 0\n 53975: u64 [sp + 0xc8] = s1\n 53979: a5 = a1 if s1 != 0\n 53982: a5 = a3 if a0 != 0\n 53985: a0 = u64 [sp + 0x3a0]\n 53989: a1 = sp + 0x1000\n 53993: u8 [a1 + 0xfffffffffffffa47] = a0\n 53997: a0 = u64 [sp + 0x378]\n 54001: a1 = sp + 0x1000\n 54005: u8 [a1 + 0xfffffffffffffa46] = a0\n 54009: a0 = u64 [sp + 0x210]\n 54013: a1 = sp + 0x1000\n 54017: u8 [a1 + 0xfffffffffffffa45] = a0\n 54021: a0 = u64 [sp + 0x208]\n 54025: a1 = sp + 0x1000\n 54029: u8 [a1 + 0xfffffffffffffa44] = a0\n 54033: a0 = u64 [sp + 0x1d0]\n 54037: a1 = sp + 0x1000\n 54041: u8 [a1 + 0xfffffffffffffa43] = a0\n 54045: a0 = u64 [sp + 0x1c8]\n 54049: a1 = sp + 0x1000\n 54053: u8 [a1 + 0xfffffffffffffa42] = a0\n 54057: a0 = u64 [sp + 0x1c0]\n 54061: a1 = sp + 0x1000\n 54065: u8 [a1 + 0xfffffffffffffa41] = a0\n 54069: a0 = u64 [sp + 0x3a8]\n 54073: a1 = sp + 0x1000\n 54077: u8 [a1 + 0xfffffffffffffa4f] = a0\n 54081: a0 = u64 [sp + 0x350]\n 54085: a1 = sp + 0x1000\n 54089: u8 [a1 + 0xfffffffffffffa4e] = a0\n 54093: a0 = u64 [sp + 0x348]\n 54097: a1 = sp + 0x1000\n 54101: u8 [a1 + 0xfffffffffffffa4d] = a0\n 54105: a0 = u64 [sp + 0x318]\n 54109: a1 = sp + 0x1000\n 54113: u8 [a1 + 0xfffffffffffffa4c] = a0\n 54117: a0 = u64 [sp + 0x310]\n 54121: a1 = sp + 0x1000\n 54125: u8 [a1 + 0xfffffffffffffa4b] = a0\n 54129: a0 = u64 [sp + 0x308]\n 54133: a1 = sp + 0x1000\n 54137: u8 [a1 + 0xfffffffffffffa4a] = a0\n 54141: a0 = u64 [sp + 0x218]\n 54145: a1 = sp + 0x1000\n 54149: u8 [a1 + 0xfffffffffffffa49] = a0\n 54153: a0 = t2 >> 0x38\n 54156: a1 = sp + 0x1000\n 54160: u8 [a1 + 0xfffffffffffffa57] = a0\n 54164: a0 = t2 >> 0x30\n 54167: a1 = sp + 0x1000\n 54171: u8 [a1 + 0xfffffffffffffa56] = a0\n 54175: a0 = t2 >> 0x28\n 54178: a1 = sp + 0x1000\n 54182: u8 [a1 + 0xfffffffffffffa55] = a0\n 54186: a0 = t2 >> 0x20\n 54189: a1 = sp + 0x1000\n 54193: u8 [a1 + 0xfffffffffffffa54] = a0\n 54197: a0 = t2 >> 0x18\n 54200: a1 = sp + 0x1000\n 54204: u8 [a1 + 0xfffffffffffffa53] = a0\n 54208: a0 = t2 >> 0x10\n 54211: a1 = sp + 0x1000\n 54215: u8 [a1 + 0xfffffffffffffa52] = a0\n 54219: a0 = sp + 0x1000\n 54223: u8 [a0 + 0xfffffffffffffa50] = t2\n 54227: a0 = t2 >> 0x8\n 54230: a1 = sp + 0x1000\n 54234: u8 [a1 + 0xfffffffffffffa51] = a0\n 54238: a0 = u64 [sp + 0x398]\n 54242: a1 = sp + 0x1000\n 54246: u8 [a1 + 0xfffffffffffffa5f] = a0\n 54250: a0 = u64 [sp + 0x390]\n 54254: a1 = sp + 0x1000\n 54258: u8 [a1 + 0xfffffffffffffa5e] = a0\n 54262: a0 = u64 [sp + 0x380]\n 54266: a1 = sp + 0x1000\n 54270: u8 [a1 + 0xfffffffffffffa5d] = a0\n 54274: a0 = u64 [sp + 0x370]\n 54278: a1 = sp + 0x1000\n 54282: u8 [a1 + 0xfffffffffffffa5c] = a0\n 54286: a0 = u64 [sp + 0x368]\n 54290: a1 = sp + 0x1000\n 54294: u8 [a1 + 0xfffffffffffffa5b] = a0\n 54298: a0 = u64 [sp + 0x360]\n 54302: a1 = sp + 0x1000\n 54306: u8 [a1 + 0xfffffffffffffa5a] = a0\n 54310: a0 = u64 [sp + 0x358]\n 54314: a1 = sp + 0x1000\n 54318: u8 [a1 + 0xfffffffffffffa59] = a0\n 54322: s1 = u64 [sp + 0x2d0]\n 54326: a0 = s1 | ra\n 54329: a2 = u64 [sp + 0x300]\n 54333: a1 = a2 | t1\n 54336: a0 = a0 | a1\n 54339: a1 = u64 [sp + 0x3b8]\n 54343: a1 = a1 | a4\n 54346: a1 = a1 <u 0x1\n 54349: a0 = a0 <u 0x1\n 54352: u64 [sp + 0x218] = a1\n 54356: a0 = a0 | a1\n 54359: a5 = a5 | a0\n 54362: a0 = sp + 0x1000\n 54366: u8 [a0 + 4294965823] = 0\n 54370: a0 = sp + 0x1000\n 54374: u8 [a0 + 4294965822] = 0\n 54378: a0 = sp + 0x1000\n 54382: u8 [a0 + 4294965821] = 0\n 54386: a0 = sp + 0x1000\n 54390: u8 [a0 + 4294965820] = 0\n 54394: a0 = sp + 0x1000\n 54398: u8 [a0 + 4294965819] = 0\n 54402: a0 = sp + 0x1000\n 54406: u8 [a0 + 4294965818] = 0\n 54410: a0 = sp + 0x1000\n 54414: u8 [a0 + 4294965817] = 0\n 54418: a0 = sp + 0x1000\n 54422: u8 [a0 + 4294965816] = 0\n 54426: a0 = sp + 0x1000\n 54430: u8 [a0 + 4294965815] = 0\n 54434: a0 = sp + 0x1000\n 54438: u8 [a0 + 4294965814] = 0\n 54442: a0 = sp + 0x1000\n 54446: u8 [a0 + 4294965813] = 0\n 54450: a0 = sp + 0x1000\n 54454: u8 [a0 + 4294965812] = 0\n 54458: a0 = sp + 0x1000\n 54462: u8 [a0 + 4294965811] = 0\n 54466: a0 = sp + 0x1000\n 54470: u8 [a0 + 4294965810] = 0\n 54474: a0 = sp + 0x1000\n 54478: u8 [a0 + 4294965809] = 0\n 54482: a0 = sp + 0x1000\n 54486: u8 [a0 + 4294965808] = 0\n 54490: a0 = sp + 0x1000\n 54494: u8 [a0 + 4294965807] = 0\n 54498: a0 = sp + 0x1000\n 54502: u8 [a0 + 4294965806] = 0\n 54506: a0 = sp + 0x1000\n 54510: u8 [a0 + 4294965805] = 0\n 54514: a0 = sp + 0x1000\n 54518: u8 [a0 + 4294965804] = 0\n 54522: a0 = sp + 0x1000\n 54526: u8 [a0 + 4294965803] = 0\n 54530: a0 = sp + 0x1000\n 54534: u8 [a0 + 4294965802] = 0\n 54538: a0 = sp + 0x1000\n 54542: u8 [a0 + 4294965801] = 0\n 54546: a0 = sp + 0x1000\n 54550: u8 [a0 + 4294965800] = 0\n 54554: a0 = sp + 0x1000\n 54558: u8 [a0 + 4294965799] = 0\n 54562: a0 = sp + 0x1000\n 54566: u8 [a0 + 4294965798] = 0\n 54570: a0 = sp + 0x1000\n 54574: u8 [a0 + 4294965797] = 0\n 54578: a0 = sp + 0x1000\n 54582: u8 [a0 + 4294965796] = 0\n 54586: a0 = sp + 0x1000\n 54590: u8 [a0 + 4294965795] = 0\n 54594: a0 = sp + 0x1000\n 54598: u8 [a0 + 4294965794] = 0\n 54602: a0 = sp + 0x1000\n 54606: u8 [a0 + 4294965793] = 0\n 54610: a0 = sp + 0x1000\n 54614: u8 [a0 + 4294965792] = 0\n 54618: a0 = u64 [sp + 0x1f0]\n 54622: a1 = sp + 0x7ff\n 54626: a1 = a1 + 0x241\n 54630: a0 = a1 - a0\n 54633: t2 = ra\n 54635: a1 = u8 [a0 + 0x18]\n 54638: u64 [sp + 0x100] = a1\n 54642: a1 = u8 [a0 + 0x19]\n 54645: u64 [sp + 0xe0] = a1\n 54649: a1 = u8 [a0 + 0x1a]\n 54652: u64 [sp + 0xf0] = a1\n 54656: a1 = u8 [a0 + 0x1b]\n 54659: u64 [sp + 0xe8] = a1\n 54663: a1 = u8 [a0 + 0x1c]\n 54666: u64 [sp + 0x118] = a1\n 54670: a1 = u8 [a0 + 0x1d]\n 54673: u64 [sp + 0xf8] = a1\n 54677: a1 = u8 [a0 + 0x1e]\n 54680: u64 [sp + 0x110] = a1\n 54684: a1 = u8 [a0 + 0x1f]\n 54687: u64 [sp + 0x108] = a1\n 54691: a1 = u8 [a0 + 0x10]\n 54694: u64 [sp + 0x148] = a1\n 54698: a1 = u8 [a0 + 0x11]\n 54701: u64 [sp + 0x120] = a1\n 54705: a1 = u8 [a0 + 0x12]\n 54708: u64 [sp + 0x130] = a1\n 54712: a1 = u8 [a0 + 0x13]\n 54715: u64 [sp + 0x128] = a1\n 54719: a1 = u8 [a0 + 0x14]\n 54722: u64 [sp + 0x160] = a1\n 54726: a1 = u8 [a0 + 0x15]\n 54729: u64 [sp + 0x140] = a1\n 54733: a1 = u8 [a0 + 0x16]\n 54736: u64 [sp + 0x158] = a1\n 54740: a1 = u8 [a0 + 0x17]\n 54743: u64 [sp + 0x150] = a1\n 54747: a1 = u8 [a0 + 0x8]\n 54750: u64 [sp + 0x188] = a1\n 54754: a1 = u8 [a0 + 0x9]\n 54757: u64 [sp + 0x168] = a1\n 54761: a1 = u8 [a0 + 0xa]\n 54764: u64 [sp + 0x178] = a1\n 54768: a1 = u8 [a0 + 0xb]\n 54771: u64 [sp + 0x170] = a1\n 54775: a1 = u8 [a0 + 0xc]\n 54778: u64 [sp + 0x1a0] = a1\n 54782: a1 = u8 [a0 + 0xd]\n 54785: u64 [sp + 0x180] = a1\n 54789: a1 = u8 [a0 + 0xe]\n 54792: u64 [sp + 0x198] = a1\n 54796: a1 = u8 [a0 + 0xf]\n 54799: u64 [sp + 0x190] = a1\n 54803: t0 = u8 [a0]\n 54805: a1 = u8 [a0 + 0x1]\n 54808: u64 [sp + 0x1a8] = a1\n 54812: ra = u8 [a0 + 0x2]\n 54815: a1 = u8 [a0 + 0x3]\n 54818: u64 [sp + 0x1b0] = a1\n 54822: a1 = u8 [a0 + 0x4]\n 54825: a4 = u8 [a0 + 0x5]\n 54828: a3 = u8 [a0 + 0x6]\n 54831: a0 = u8 [a0 + 0x7]\n 54834: t2 = 0 if a5 != 0\n 54836: u64 [sp + 0x388] = t2\n 54840: t2 = t1\n 54842: t1 = 0 if a5 != 0\n 54844: u64 [sp + 0x3a8] = t1\n 54848: s1 = 0 if a5 != 0\n 54850: u64 [sp + 0x3a0] = s1\n 54854: a2 = 0 if a5 != 0\n 54856: u64 [sp + 0x370] = a2\n 54860: u64 [sp + 0x260] = t2\n 54864: u64 [sp + 0x210] = a1\n 54868: u64 [sp + 0x208] = a3\n 54872: u64 [sp + 0x1d0] = a0\n 54876: u64 [sp + 0x1c8] = a4\n 54880: u64 [sp + 0x1c0] = t0\n 54884: u64 [sp + 0x1b8] = ra\n 54888: jump @283 if a5 != 0\n      : @277 (gas: 11)\n 54892: a2 = u64 [sp + 0xc0]\n 54896: a3 = a2 ^ 0xff\n 54900: a4 = u64 [sp + 0xd0]\n 54904: a3 = a3 | a4\n 54907: t0 = u64 [sp + 0xd8]\n 54911: s1 = u64 [sp + 0xc8]\n 54915: a5 = s1 | t0\n 54918: a3 = a3 | a5\n 54921: t1 = t2\n 54923: t2 = u64 [sp + 0x388]\n 54927: jump @286 if a3 == 0\n      : @278 (gas: 321)\n 54931: a1 = a2 + 0x1\n 54934: u64 [sp + 0x3a8] = a1\n 54938: a0 = a1 <u 0x1\n 54941: a0 = a0 + s1\n 54944: u64 [sp + 0x380] = a0\n 54948: a0 = a0 | a1\n 54951: a0 = a0 <u 0x1\n 54954: a0 = a0 + a4\n 54957: u64 [sp + 0x378] = a0\n 54961: a0 = a0 <u a4\n 54964: a0 = a0 + t0\n 54967: u64 [sp + 0x370] = a0\n 54971: t0 = 0xff - a2\n 54975: a0 = u64 [sp + 0x300]\n 54979: a1 = sp + 0x1000\n 54983: u8 [a1 + 0xfffffffffffffa00] = a0\n 54987: a1 = sp + 0x1000\n 54991: u8 [a1 + 4294965759] = 0\n 54995: a1 = sp + 0x1000\n 54999: u8 [a1 + 4294965758] = 0\n 55003: a1 = sp + 0x1000\n 55007: u8 [a1 + 4294965757] = 0\n 55011: a1 = sp + 0x1000\n 55015: u8 [a1 + 4294965756] = 0\n 55019: a1 = sp + 0x1000\n 55023: u8 [a1 + 4294965755] = 0\n 55027: a1 = sp + 0x1000\n 55031: u8 [a1 + 4294965754] = 0\n 55035: a1 = sp + 0x1000\n 55039: u8 [a1 + 4294965753] = 0\n 55043: a1 = sp + 0x1000\n 55047: u8 [a1 + 4294965752] = 0\n 55051: a1 = sp + 0x1000\n 55055: u8 [a1 + 4294965751] = 0\n 55059: a1 = sp + 0x1000\n 55063: u8 [a1 + 4294965750] = 0\n 55067: a1 = sp + 0x1000\n 55071: u8 [a1 + 4294965749] = 0\n 55075: a1 = sp + 0x1000\n 55079: u8 [a1 + 4294965748] = 0\n 55083: a1 = sp + 0x1000\n 55087: u8 [a1 + 4294965747] = 0\n 55091: a1 = sp + 0x1000\n 55095: u8 [a1 + 4294965746] = 0\n 55099: a1 = sp + 0x1000\n 55103: u8 [a1 + 4294965745] = 0\n 55107: a1 = sp + 0x1000\n 55111: u8 [a1 + 4294965744] = 0\n 55115: a1 = sp + 0x1000\n 55119: u8 [a1 + 4294965743] = 0\n 55123: a1 = sp + 0x1000\n 55127: u8 [a1 + 4294965742] = 0\n 55131: a1 = sp + 0x1000\n 55135: u8 [a1 + 4294965741] = 0\n 55139: a1 = sp + 0x1000\n 55143: u8 [a1 + 4294965740] = 0\n 55147: a1 = sp + 0x1000\n 55151: u8 [a1 + 4294965739] = 0\n 55155: a1 = sp + 0x1000\n 55159: u8 [a1 + 4294965738] = 0\n 55163: a1 = sp + 0x1000\n 55167: u8 [a1 + 4294965737] = 0\n 55171: a1 = sp + 0x1000\n 55175: u8 [a1 + 4294965736] = 0\n 55179: a1 = sp + 0x1000\n 55183: u8 [a1 + 4294965735] = 0\n 55187: a1 = sp + 0x1000\n 55191: u8 [a1 + 4294965734] = 0\n 55195: a1 = sp + 0x1000\n 55199: u8 [a1 + 4294965733] = 0\n 55203: a1 = sp + 0x1000\n 55207: u8 [a1 + 4294965732] = 0\n 55211: a1 = sp + 0x1000\n 55215: u8 [a1 + 4294965731] = 0\n 55219: a1 = sp + 0x1000\n 55223: u8 [a1 + 4294965730] = 0\n 55227: a1 = sp + 0x1000\n 55231: u8 [a1 + 4294965729] = 0\n 55235: a1 = sp + 0x1000\n 55239: u8 [a1 + 4294965728] = 0\n 55243: t2 = u64 [sp + 0x2d0]\n 55247: a1 = sp + 0x1000\n 55251: u8 [a1 + 0xfffffffffffffa08] = t2\n 55255: a1 = a0 >> 0x38\n 55258: u64 [sp + 0xc0] = a1\n 55262: a2 = sp + 0x1000\n 55266: u8 [a2 + 0xfffffffffffffa07] = a1\n 55270: a1 = a0 >> 0x30\n 55273: u64 [sp + 0xb8] = a1\n 55277: a2 = sp + 0x1000\n 55281: u8 [a2 + 0xfffffffffffffa06] = a1\n 55285: a1 = a0 >> 0x28\n 55288: u64 [sp + 0xb0] = a1\n 55292: a2 = sp + 0x1000\n 55296: u8 [a2 + 0xfffffffffffffa05] = a1\n 55300: a1 = a0 >> 0x20\n 55303: u64 [sp + 0xa8] = a1\n 55307: a2 = sp + 0x1000\n 55311: u8 [a2 + 0xfffffffffffffa04] = a1\n 55315: a1 = a0 >> 0x18\n 55318: u64 [sp + 0xa0] = a1\n 55322: a2 = sp + 0x1000\n 55326: u8 [a2 + 0xfffffffffffffa03] = a1\n 55330: a1 = a0 >> 0x10\n 55333: u64 [sp + 0x98] = a1\n 55337: a2 = sp + 0x1000\n 55341: u8 [a2 + 0xfffffffffffffa02] = a1\n 55345: a0 = a0 >> 0x8\n 55348: u64 [sp + 0x90] = a0\n 55352: a1 = sp + 0x1000\n 55356: u8 [a1 + 0xfffffffffffffa01] = a0\n 55360: a0 = sp + 0x1000\n 55364: u8 [a0 + 0xfffffffffffffa10] = t1\n 55368: a0 = t2 >> 0x38\n 55371: u64 [sp + 0x88] = a0\n 55375: a1 = sp + 0x1000\n 55379: u8 [a1 + 0xfffffffffffffa0f] = a0\n 55383: a0 = t2 >> 0x30\n 55386: u64 [sp + 0x80] = a0\n 55390: a1 = sp + 0x1000\n 55394: u8 [a1 + 0xfffffffffffffa0e] = a0\n 55398: a0 = t2 >> 0x28\n 55401: u64 [sp + 0x78] = a0\n 55404: a1 = sp + 0x1000\n 55408: u8 [a1 + 0xfffffffffffffa0d] = a0\n 55412: a0 = t2 >> 0x20\n 55415: u64 [sp + 0x70] = a0\n 55418: a1 = sp + 0x1000\n 55422: u8 [a1 + 0xfffffffffffffa0c] = a0\n 55426: a0 = t2 >> 0x18\n 55429: u64 [sp + 0x68] = a0\n 55432: a1 = sp + 0x1000\n 55436: u8 [a1 + 0xfffffffffffffa0b] = a0\n 55440: a0 = t2 >> 0x10\n 55443: u64 [sp + 0x60] = a0\n 55446: a1 = sp + 0x1000\n 55450: u8 [a1 + 0xfffffffffffffa0a] = a0\n 55454: a0 = t2 >> 0x8\n 55457: u64 [sp + 0x58] = a0\n 55460: a1 = sp + 0x1000\n 55464: u8 [a1 + 0xfffffffffffffa09] = a0\n 55468: ra = u64 [sp + 0x268]\n 55472: a0 = sp + 0x1000\n 55476: u8 [a0 + 0xfffffffffffffa18] = ra\n 55480: a0 = t1 >> 0x38\n 55483: u64 [sp + 0x50] = a0\n 55486: a1 = sp + 0x1000\n 55490: u8 [a1 + 0xfffffffffffffa17] = a0\n 55494: a0 = t1 >> 0x30\n 55497: u64 [sp + 0x48] = a0\n 55500: a1 = sp + 0x1000\n 55504: u8 [a1 + 0xfffffffffffffa16] = a0\n 55508: a0 = t1 >> 0x28\n 55511: u64 [sp + 0x40] = a0\n 55514: a1 = sp + 0x1000\n 55518: u8 [a1 + 0xfffffffffffffa15] = a0\n 55522: a0 = t1 >> 0x20\n 55525: u64 [sp + 0x38] = a0\n 55528: a1 = sp + 0x1000\n 55532: u8 [a1 + 0xfffffffffffffa14] = a0\n 55536: a0 = t1 >> 0x18\n 55539: u64 [sp + 0x30] = a0\n 55542: a1 = sp + 0x1000\n 55546: u8 [a1 + 0xfffffffffffffa13] = a0\n 55550: a0 = t1 >> 0x10\n 55553: u64 [sp + 0x358] = a0\n 55557: a1 = sp + 0x1000\n 55561: u8 [a1 + 0xfffffffffffffa12] = a0\n 55565: a0 = t1 >> 0x8\n 55568: u64 [sp + 0x350] = a0\n 55572: a1 = sp + 0x1000\n 55576: u8 [a1 + 0xfffffffffffffa11] = a0\n 55580: a0 = ra >> 0x38\n 55583: u64 [sp + 0x348] = a0\n 55587: a1 = sp + 0x1000\n 55591: u8 [a1 + 0xfffffffffffffa1f] = a0\n 55595: a0 = ra >> 0x30\n 55598: u64 [sp + 0x318] = a0\n 55602: a1 = sp + 0x1000\n 55606: u8 [a1 + 0xfffffffffffffa1e] = a0\n 55610: a0 = ra >> 0x28\n 55613: u64 [sp + 0x310] = a0\n 55617: a1 = sp + 0x1000\n 55621: u8 [a1 + 0xfffffffffffffa1d] = a0\n 55625: a0 = ra >> 0x20\n 55628: u64 [sp + 0x308] = a0\n 55632: a1 = sp + 0x1000\n 55636: u8 [a1 + 0xfffffffffffffa1c] = a0\n 55640: a0 = ra >> 0x18\n 55643: u64 [sp + 0xd8] = a0\n 55647: a1 = sp + 0x1000\n 55651: u8 [a1 + 0xfffffffffffffa1b] = a0\n 55655: a0 = ra >> 0x10\n 55658: u64 [sp + 0xd0] = a0\n 55662: a1 = sp + 0x1000\n 55666: u8 [a1 + 0xfffffffffffffa1a] = a0\n 55670: a0 = ra >> 0x8\n 55673: u64 [sp + 0xc8] = a0\n 55677: a1 = sp + 0x1000\n 55681: u8 [a1 + 0xfffffffffffffa19] = a0\n 55685: a0 = t0 << 0x38\n 55688: a0 = a0 >> 0x3b\n 55691: a2 = sp + 0x7ff\n 55695: a2 = a2 + 0x201\n 55699: a2 = a2 - a0\n 55702: a0 = u8 [a2 + 0x19]\n 55705: a3 = u8 [a2 + 0x18]\n 55708: a4 = u8 [a2 + 0x1a]\n 55711: a5 = u8 [a2 + 0x1b]\n 55714: a0 = a0 << 0x8\n 55717: a0 = a0 | a3\n 55720: a4 = a4 << 0x10\n 55723: a5 = a5 << 0x18\n 55726: a4 = a4 | a5\n 55729: a0 = a0 | a4\n 55732: a3 = u8 [a2 + 0x1d]\n 55735: a4 = u8 [a2 + 0x1c]\n 55738: a5 = u8 [a2 + 0x1e]\n 55741: s1 = u8 [a2 + 0x1f]\n 55744: a3 = a3 << 0x8\n 55747: a3 = a3 | a4\n 55750: a5 = a5 << 0x10\n 55753: s1 = s1 << 0x18\n 55756: a5 = a5 | s1\n 55759: a3 = a3 | a5\n 55762: a3 = a3 << 0x20\n 55765: a3 = a3 | a0\n 55768: a0 = u8 [a2 + 0x11]\n 55771: a4 = u8 [a2 + 0x10]\n 55774: a5 = u8 [a2 + 0x12]\n 55777: s1 = u8 [a2 + 0x13]\n 55780: a0 = a0 << 0x8\n 55783: a0 = a0 | a4\n 55786: a5 = a5 << 0x10\n 55789: s1 = s1 << 0x18\n 55792: a5 = a5 | s1\n 55795: a0 = a0 | a5\n 55798: a4 = u8 [a2 + 0x15]\n 55801: a5 = u8 [a2 + 0x14]\n 55804: s1 = u8 [a2 + 0x16]\n 55807: a1 = u8 [a2 + 0x17]\n 55810: a4 = a4 << 0x8\n 55813: a4 = a4 | a5\n 55816: s1 = s1 << 0x10\n 55819: a1 = a1 << 0x18\n 55822: a1 = a1 | s1\n 55825: a1 = a1 | a4\n 55828: a1 = a1 << 0x20\n 55831: t1 = a1 | a0\n 55834: a1 = t0 & 0x7\n 55837: a0 = a3 << a1\n 55840: a5 = t1 >> 0x1\n 55843: t0 = a1 ^ 0x3f\n 55846: a5 = a5 >> t0\n 55849: a0 = a0 | a5\n 55852: u64 [sp + 0x3a0] = a0\n 55856: a0 = u8 [a2 + 0x9]\n 55859: a5 = u8 [a2 + 0x8]\n 55862: s1 = u8 [a2 + 0xa]\n 55865: a3 = u8 [a2 + 0xb]\n 55868: a0 = a0 << 0x8\n 55871: a0 = a0 | a5\n 55874: s1 = s1 << 0x10\n 55877: a3 = a3 << 0x18\n 55880: a3 = a3 | s1\n 55883: a0 = a0 | a3\n 55886: a3 = u8 [a2 + 0xd]\n 55889: a5 = u8 [a2 + 0xc]\n 55892: s1 = u8 [a2 + 0xe]\n 55895: a4 = u8 [a2 + 0xf]\n 55898: a3 = a3 << 0x8\n 55901: a3 = a3 | a5\n 55904: s1 = s1 << 0x10\n 55907: a4 = a4 << 0x18\n 55910: a4 = a4 | s1\n 55913: a3 = a3 | a4\n 55916: a3 = a3 << 0x20\n 55919: a5 = a3 | a0\n 55922: a0 = a5 >> 0x1\n 55925: a3 = a1 ^ 0xffffffffffffffff\n 55928: a0 = a0 >> a3\n 55931: a3 = t1 << a1\n 55934: a0 = a0 | a3\n 55937: u64 [sp + 0x398] = a0\n 55941: a0 = u8 [a2 + 0x1]\n 55944: a3 = u8 [a2]\n 55946: a4 = u8 [a2 + 0x2]\n 55949: s1 = u8 [a2 + 0x3]\n 55952: a0 = a0 << 0x8\n 55955: a0 = a0 | a3\n 55958: a4 = a4 << 0x10\n 55961: s1 = s1 << 0x18\n 55964: a4 = a4 | s1\n 55967: a0 = a0 | a4\n 55970: a3 = u8 [a2 + 0x5]\n 55973: a4 = u8 [a2 + 0x4]\n 55976: s1 = u8 [a2 + 0x6]\n 55979: a2 = u8 [a2 + 0x7]\n 55982: a3 = a3 << 0x8\n 55985: a3 = a3 | a4\n 55988: a4 = u64 [sp + 0x370]\n 55992: s1 = s1 << 0x10\n 55995: a2 = a2 << 0x18\n 55998: a2 = a2 | s1\n 56001: a2 = a2 | a3\n 56004: a2 = a2 << 0x20\n 56007: a0 = a0 | a2\n 56010: a2 = a0 >> 0x1\n 56013: a2 = a2 >> t0\n 56016: t1 = u64 [sp + 0x380]\n 56020: a3 = a5 << a1\n 56023: a5 = u64 [sp + 0x378]\n 56027: a2 = a2 | a3\n 56030: u64 [sp + 0x388] = a2\n 56034: a2 = t1 | a4\n 56037: a3 = u64 [sp + 0x3a8]\n 56041: a3 = a3 | a5\n 56044: a2 = a2 | a3\n 56047: a0 = a0 << a1\n 56050: u64 [sp + 0x390] = a0\n 56054: jump @284 if a2 == 0\n      : @279 (gas: 284)\n 56058: u64 [sp + 872] = 0\n 56062: u64 [sp + 864] = 0\n 56066: a0 = u64 [sp + 0xc0]\n 56070: a1 = sp + 0x1000\n 56074: u8 [a1 + 0xfffffffffffff9a7] = a0\n 56078: a0 = u64 [sp + 0xb8]\n 56082: a1 = sp + 0x1000\n 56086: u8 [a1 + 0xfffffffffffff9a6] = a0\n 56090: a0 = u64 [sp + 0xb0]\n 56094: a1 = sp + 0x1000\n 56098: u8 [a1 + 0xfffffffffffff9a5] = a0\n 56102: a0 = u64 [sp + 0xa8]\n 56106: a1 = sp + 0x1000\n 56110: u8 [a1 + 0xfffffffffffff9a4] = a0\n 56114: a0 = u64 [sp + 0xa0]\n 56118: a1 = sp + 0x1000\n 56122: u8 [a1 + 0xfffffffffffff9a3] = a0\n 56126: a0 = u64 [sp + 0x98]\n 56130: a1 = sp + 0x1000\n 56134: u8 [a1 + 0xfffffffffffff9a2] = a0\n 56138: a0 = u64 [sp + 0x90]\n 56142: a1 = sp + 0x1000\n 56146: u8 [a1 + 0xfffffffffffff9a1] = a0\n 56150: a0 = u64 [sp + 0x88]\n 56154: a1 = sp + 0x1000\n 56158: u8 [a1 + 0xfffffffffffff9af] = a0\n 56162: a0 = u64 [sp + 0x80]\n 56166: a1 = sp + 0x1000\n 56170: u8 [a1 + 0xfffffffffffff9ae] = a0\n 56174: a0 = u64 [sp + 0x78]\n 56177: a1 = sp + 0x1000\n 56181: u8 [a1 + 0xfffffffffffff9ad] = a0\n 56185: a0 = u64 [sp + 0x70]\n 56188: a1 = sp + 0x1000\n 56192: u8 [a1 + 0xfffffffffffff9ac] = a0\n 56196: a0 = u64 [sp + 0x68]\n 56199: a1 = sp + 0x1000\n 56203: u8 [a1 + 0xfffffffffffff9ab] = a0\n 56207: a0 = u64 [sp + 0x60]\n 56210: a1 = sp + 0x1000\n 56214: u8 [a1 + 0xfffffffffffff9aa] = a0\n 56218: a0 = u64 [sp + 0x58]\n 56221: a1 = sp + 0x1000\n 56225: u8 [a1 + 0xfffffffffffff9a9] = a0\n 56229: a0 = u64 [sp + 0x50]\n 56232: a1 = sp + 0x1000\n 56236: u8 [a1 + 0xfffffffffffff9b7] = a0\n 56240: a0 = u64 [sp + 0x48]\n 56243: a1 = sp + 0x1000\n 56247: u8 [a1 + 0xfffffffffffff9b6] = a0\n 56251: a0 = u64 [sp + 0x40]\n 56254: a1 = sp + 0x1000\n 56258: u8 [a1 + 0xfffffffffffff9b5] = a0\n 56262: a0 = u64 [sp + 0x38]\n 56265: a1 = sp + 0x1000\n 56269: u8 [a1 + 0xfffffffffffff9b4] = a0\n 56273: a0 = u64 [sp + 0x30]\n 56276: a1 = sp + 0x1000\n 56280: u8 [a1 + 0xfffffffffffff9b3] = a0\n 56284: a0 = sp + 0x1000\n 56288: u8 [a0 + 4294965727] = 0\n 56292: a0 = sp + 0x1000\n 56296: u8 [a0 + 4294965726] = 0\n 56300: a0 = sp + 0x1000\n 56304: u8 [a0 + 4294965725] = 0\n 56308: a0 = sp + 0x1000\n 56312: u8 [a0 + 4294965724] = 0\n 56316: a0 = sp + 0x1000\n 56320: u8 [a0 + 4294965723] = 0\n 56324: a0 = sp + 0x1000\n 56328: u8 [a0 + 4294965722] = 0\n 56332: a0 = sp + 0x1000\n 56336: u8 [a0 + 4294965721] = 0\n 56340: a0 = sp + 0x1000\n 56344: u8 [a0 + 4294965720] = 0\n 56348: a0 = sp + 0x1000\n 56352: u8 [a0 + 4294965719] = 0\n 56356: a0 = sp + 0x1000\n 56360: u8 [a0 + 4294965718] = 0\n 56364: a0 = sp + 0x1000\n 56368: u8 [a0 + 4294965717] = 0\n 56372: a0 = sp + 0x1000\n 56376: u8 [a0 + 4294965716] = 0\n 56380: a0 = sp + 0x1000\n 56384: u8 [a0 + 4294965715] = 0\n 56388: a0 = sp + 0x1000\n 56392: u8 [a0 + 4294965714] = 0\n 56396: a0 = sp + 0x1000\n 56400: u8 [a0 + 4294965713] = 0\n 56404: a0 = sp + 0x1000\n 56408: u8 [a0 + 4294965712] = 0\n 56412: a0 = sp + 0x1000\n 56416: u8 [a0 + 4294965711] = 0\n 56420: a0 = sp + 0x1000\n 56424: u8 [a0 + 4294965710] = 0\n 56428: a0 = sp + 0x1000\n 56432: u8 [a0 + 4294965709] = 0\n 56436: a0 = sp + 0x1000\n 56440: u8 [a0 + 4294965708] = 0\n 56444: a0 = sp + 0x1000\n 56448: u8 [a0 + 4294965707] = 0\n 56452: a0 = sp + 0x1000\n 56456: u8 [a0 + 4294965706] = 0\n 56460: a0 = sp + 0x1000\n 56464: u8 [a0 + 4294965705] = 0\n 56468: a0 = sp + 0x1000\n 56472: u8 [a0 + 4294965704] = 0\n 56476: a0 = sp + 0x1000\n 56480: u8 [a0 + 4294965703] = 0\n 56484: a0 = sp + 0x1000\n 56488: u8 [a0 + 4294965702] = 0\n 56492: a0 = sp + 0x1000\n 56496: u8 [a0 + 4294965701] = 0\n 56500: a0 = sp + 0x1000\n 56504: u8 [a0 + 4294965700] = 0\n 56508: a0 = sp + 0x1000\n 56512: u8 [a0 + 4294965699] = 0\n 56516: a0 = sp + 0x1000\n 56520: u8 [a0 + 4294965698] = 0\n 56524: a0 = sp + 0x1000\n 56528: u8 [a0 + 4294965697] = 0\n 56532: a0 = sp + 0x1000\n 56536: u8 [a0 + 4294965696] = 0\n 56540: a0 = u64 [sp + 0x300]\n 56544: a1 = sp + 0x1000\n 56548: u8 [a1 + 0xfffffffffffff9a0] = a0\n 56552: a0 = sp + 0x1000\n 56556: u8 [a0 + 0xfffffffffffff9a8] = t2\n 56560: a0 = u64 [sp + 0x260]\n 56564: a1 = sp + 0x1000\n 56568: u8 [a1 + 0xfffffffffffff9b0] = a0\n 56572: a0 = sp + 0x1000\n 56576: u8 [a0 + 0xfffffffffffff9b8] = ra\n 56580: a0 = u64 [sp + 0x358]\n 56584: a1 = sp + 0x1000\n 56588: u8 [a1 + 0xfffffffffffff9b2] = a0\n 56592: a0 = u64 [sp + 0x350]\n 56596: a1 = sp + 0x1000\n 56600: u8 [a1 + 0xfffffffffffff9b1] = a0\n 56604: a0 = u64 [sp + 0x348]\n 56608: a1 = sp + 0x1000\n 56612: u8 [a1 + 0xfffffffffffff9bf] = a0\n 56616: a0 = u64 [sp + 0x318]\n 56620: a1 = sp + 0x1000\n 56624: u8 [a1 + 0xfffffffffffff9be] = a0\n 56628: a0 = u64 [sp + 0x310]\n 56632: a1 = sp + 0x1000\n 56636: u8 [a1 + 0xfffffffffffff9bd] = a0\n 56640: a0 = u64 [sp + 0x308]\n 56644: a1 = sp + 0x1000\n 56648: u8 [a1 + 0xfffffffffffff9bc] = a0\n 56652: a0 = u64 [sp + 0xd8]\n 56656: a1 = sp + 0x1000\n 56660: u8 [a1 + 0xfffffffffffff9bb] = a0\n 56664: a0 = u64 [sp + 0xd0]\n 56668: a1 = sp + 0x1000\n 56672: u8 [a1 + 0xfffffffffffff9ba] = a0\n 56676: a0 = u64 [sp + 0xc8]\n 56680: a1 = sp + 0x1000\n 56684: u8 [a1 + 0xfffffffffffff9b9] = a0\n 56688: s1 = u64 [sp + 0x3a8]\n 56692: a0 = s1 << 0x38\n 56695: a0 = a0 >> 0x3b\n 56698: a3 = sp + 0x7ff\n 56702: a3 = a3 + 0x1a1\n 56706: a3 = a3 + a0\n 56709: a0 = u8 [a3 + 0x11]\n 56712: a1 = u8 [a3 + 0x10]\n 56715: a2 = u8 [a3 + 0x12]\n 56718: a4 = u8 [a3 + 0x13]\n 56721: a0 = a0 << 0x8\n 56724: a0 = a0 | a1\n 56727: a2 = a2 << 0x10\n 56730: a4 = a4 << 0x18\n 56733: a2 = a2 | a4\n 56736: a0 = a0 | a2\n 56739: a1 = u8 [a3 + 0x15]\n 56742: a2 = u8 [a3 + 0x14]\n 56745: a4 = u8 [a3 + 0x16]\n 56748: a5 = u8 [a3 + 0x17]\n 56751: a1 = a1 << 0x8\n 56754: a1 = a1 | a2\n 56757: a4 = a4 << 0x10\n 56760: a5 = a5 << 0x18\n 56763: a4 = a4 | a5\n 56766: a1 = a1 | a4\n 56769: a1 = a1 << 0x20\n 56772: ra = a1 | a0\n 56775: t0 = s1 & 0x7\n 56778: a2 = ra >> t0\n 56781: a0 = u8 [a3 + 0x19]\n 56784: a4 = u8 [a3 + 0x18]\n 56787: a5 = u8 [a3 + 0x1a]\n 56790: s1 = u8 [a3 + 0x1b]\n 56793: a0 = a0 << 0x8\n 56796: a0 = a0 | a4\n 56799: a5 = a5 << 0x10\n 56802: s1 = s1 << 0x18\n 56805: a5 = a5 | s1\n 56808: a0 = a0 | a5\n 56811: a4 = u8 [a3 + 0x1d]\n 56814: a5 = u8 [a3 + 0x1c]\n 56817: s1 = u8 [a3 + 0x1e]\n 56820: a1 = u8 [a3 + 0x1f]\n 56823: a4 = a4 << 0x8\n 56826: a4 = a4 | a5\n 56829: s1 = s1 << 0x10\n 56832: a1 = a1 << 0x18\n 56835: a1 = a1 | s1\n 56838: a1 = a1 | a4\n 56841: a1 = a1 << 0x20\n 56844: t2 = a1 | a0\n 56847: a1 = t2 << 0x1\n 56850: a0 = t0 ^ 0x3f\n 56853: a1 = a1 << a0\n 56856: a1 = a1 | a2\n 56859: u64 [sp + 0x358] = a1\n 56863: a1 = u8 [a3 + 0x9]\n 56866: a2 = u8 [a3 + 0x8]\n 56869: a4 = u8 [a3 + 0xa]\n 56872: a5 = u8 [a3 + 0xb]\n 56875: a1 = a1 << 0x8\n 56878: a1 = a1 | a2\n 56881: a4 = a4 << 0x10\n 56884: a5 = a5 << 0x18\n 56887: a4 = a4 | a5\n 56890: a1 = a1 | a4\n 56893: a2 = u8 [a3 + 0xd]\n 56896: a4 = u8 [a3 + 0xc]\n 56899: a5 = u8 [a3 + 0xe]\n 56902: s1 = u8 [a3 + 0xf]\n 56905: a2 = a2 << 0x8\n 56908: a2 = a2 | a4\n 56911: a5 = a5 << 0x10\n 56914: s1 = s1 << 0x18\n 56917: a5 = a5 | s1\n 56920: a2 = a2 | a5\n 56923: a2 = a2 << 0x20\n 56926: a2 = a2 | a1\n 56929: a1 = a2 >> t0\n 56932: ra = ra << 0x1\n 56935: a4 = t0 ^ 0xffffffffffffffff\n 56938: a4 = ra << a4\n 56941: a1 = a1 | a4\n 56944: a4 = u8 [a3 + 0x1]\n 56947: a5 = u8 [a3]\n 56949: s1 = u8 [a3 + 0x2]\n 56952: ra = u8 [a3 + 0x3]\n 56955: a4 = a4 << 0x8\n 56958: a4 = a4 | a5\n 56961: s1 = s1 << 0x10\n 56964: ra = ra << 0x18\n 56967: a5 = ra | s1\n 56970: ra = a5 | a4\n 56973: a5 = u8 [a3 + 0x5]\n 56976: s1 = u8 [a3 + 0x4]\n 56979: a4 = u8 [a3 + 0x6]\n 56982: a3 = u8 [a3 + 0x7]\n 56985: a5 = a5 << 0x8\n 56988: a5 = a5 | s1\n 56991: a4 = a4 << 0x10\n 56994: a3 = a3 << 0x18\n 56997: a3 = a3 | a4\n 57000: a3 = a3 | a5\n 57003: a5 = u64 [sp + 0x368]\n 57007: a3 = a3 << 0x20\n 57010: a3 = a3 | ra\n 57013: a3 = a3 >> t0\n 57016: a2 = a2 << 0x1\n 57019: a0 = a2 << a0\n 57022: ra = a3 | a0\n 57025: a4 = t2 >> t0\n 57028: a2 = u64 [sp + 0x3b8]\n 57032: a0 = a2 <u 0x1\n 57035: a3 = u64 [sp + 0x3b0]\n 57039: a0 = a3 - a0\n 57042: u64 [sp + 0x318] = a0\n 57046: a0 = a2 | a3\n 57049: a0 = a0 >u 0\n 57051: a0 = a0 + 0xffffffffffffffff\n 57054: u64 [sp + 0x310] = a0\n 57058: a2 = a2 + 0xffffffffffffffff\n 57061: u64 [sp + 0x308] = a2\n 57065: fallthrough\n      : @280 (gas: 95)\n 57066: u64 [sp + 0x368] = a5\n 57070: u64 [sp + 0x380] = t1\n 57074: u64 [sp + 840] = 0\n 57078: a0 = ra >> 0x3f\n 57081: a3 = a1 << 0x1\n 57084: t1 = a3 | a0\n 57087: ra = ra << 0x1\n 57090: t2 = u64 [sp + 0x3a0]\n 57094: a0 = t2 >> 0x3f\n 57097: s1 = ra | a0\n 57100: a0 = u64 [sp + 0x318]\n 57104: a2 = a0 ^ t1\n 57107: a5 = a0 <u t1\n 57110: a0 = u64 [sp + 0x308]\n 57114: a0 = a0 <u s1\n 57117: a0 = a5 if a2 != 0\n 57120: a3 = a4 << 0x1\n 57123: a4 = u64 [sp + 0x358]\n 57127: a2 = a4 >> 0x3f\n 57130: t0 = a3 | a2\n 57133: u64 [sp + 0x350] = t0\n 57137: a1 = a1 >> 0x3f\n 57140: a4 = a4 << 0x1\n 57143: a3 = a4 | a1\n 57146: a4 = t2 << 0x1\n 57149: a1 = u64 [sp + 0x398]\n 57153: a5 = a1 >> 0x3f\n 57156: ra = a4 | a5\n 57159: a5 = a1 << 0x1\n 57162: a1 = u64 [sp + 0x388]\n 57166: a2 = a1 >> 0x3f\n 57169: a2 = a2 | a5\n 57172: a5 = a1 << 0x1\n 57175: a1 = u64 [sp + 0x390]\n 57179: a4 = a1 >> 0x3f\n 57182: a4 = a4 | a5\n 57185: a5 = a1 << 0x1\n 57188: a1 = u64 [sp + 0x368]\n 57192: a1 = a1 | a5\n 57195: u64 [sp + 0x390] = a1\n 57199: a5 = u64 [sp + 0x360]\n 57203: a4 = a4 | a5\n 57206: u64 [sp + 0x388] = a4\n 57210: a2 = a2 | a5\n 57213: u64 [sp + 0x398] = a2\n 57217: a1 = a5 | ra\n 57220: u64 [sp + 0x3a0] = a1\n 57224: a1 = u64 [sp + 0x310]\n 57228: a2 = a1 - a3\n 57231: a0 = a2 <u a0\n 57234: a2 = a1 <u a3\n 57237: a4 = a1 - t0\n 57240: a4 = a4 - a2\n 57243: a4 = a4 - a0\n 57246: a5 = a4 >>a 0x3f\n 57249: a0 = u64 [sp + 0x3b8]\n 57253: ra = a5 & a0\n 57256: a2 = u64 [sp + 0x3b0]\n 57260: a2 = a2 & a5\n 57263: a1 = t1 ^ a2\n 57266: a4 = t1 <u a2\n 57269: a0 = s1 <u ra\n 57272: a4 = a0 if a1 == 0\n 57275: t0 = u64 [sp + 0x370]\n 57279: t2 = u64 [sp + 0x380]\n 57283: a1 = a3 - a4\n 57286: u64 [sp + 0x358] = a1\n 57290: a1 = a3 <u a4\n 57293: a3 = u64 [sp + 0x350]\n 57297: a1 = a3 - a1\n 57300: u64 [sp + 0x368] = a1\n 57304: a1 = t1 - a2\n 57307: a1 = a1 - a0\n 57310: ra = s1 - ra\n 57313: a4 = u64 [sp + 0x3a8]\n 57317: a0 = a4 | t2\n 57320: a0 = a0 <u 0x1\n 57323: a3 = u64 [sp + 0x378]\n 57327: a2 = a3 <u a0\n 57330: a0 = a3 - a0\n 57333: a3 = a4 <u 0x1\n 57336: t2 = t2 - a3\n 57339: t0 = t0 - a2\n 57342: a4 = a4 + 0xffffffffffffffff\n 57345: u64 [sp + 0x370] = t0\n 57349: t1 = t2\n 57351: a2 = t2 | t0\n 57354: u64 [sp + 0x3a8] = a4\n 57358: a3 = a4 | a0\n 57361: a4 = u64 [sp + 0x368]\n 57365: a2 = a2 | a3\n 57368: a5 = a5 & 0x1\n 57371: u64 [sp + 0x378] = a0\n 57375: u64 [sp + 864] = 0\n 57379: jump @280 if a2 != 0\n      : @281 (gas: 1)\n 57383: jump @285\n      : @282 (gas: 5)\n 57385: a0 = 0xffffffffffffffff\n 57388: ra = 0xffffffffffffffff\n 57391: a1 = 0xffffffffffffffff\n 57394: t1 = 0xffffffffffffffff\n 57397: jump @304\n      : @283 (gas: 2)\n 57400: t2 = u64 [sp + 0x388]\n 57404: jump @286\n      : @284 (gas: 3)\n 57406: a5 = 0\n 57408: u64 [sp + 840] = 0\n 57412: fallthrough\n      : @285 (gas: 23)\n 57413: a2 = u64 [sp + 0x398]\n 57417: a0 = a2 >> 0x3f\n 57420: a1 = u64 [sp + 0x3a0]\n 57424: a1 = a1 << 0x1\n 57427: a1 = a1 | a0\n 57430: a4 = u64 [sp + 0x388]\n 57434: a0 = a4 >> 0x3f\n 57437: a2 = a2 << 0x1\n 57440: a2 = a2 | a0\n 57443: a0 = u64 [sp + 0x390]\n 57447: a3 = a0 >> 0x3f\n 57450: a4 = a4 << 0x1\n 57453: a0 = a0 << 0x1\n 57456: a0 = a0 | a5\n 57459: u64 [sp + 0x370] = a0\n 57463: a5 = u64 [sp + 0x348]\n 57467: a3 = a3 | a5\n 57470: a3 = a3 | a4\n 57473: u64 [sp + 0x3a0] = a3\n 57477: a0 = a5 | a2\n 57480: u64 [sp + 0x3a8] = a0\n 57484: t2 = a5 | a1\n 57487: fallthrough\n      : @286 (gas: 179)\n 57488: a2 = u64 [sp + 0xe0]\n 57492: a2 = a2 << 0x8\n 57495: a0 = u64 [sp + 0x100]\n 57499: a2 = a2 | a0\n 57502: a3 = u64 [sp + 0xf0]\n 57506: a3 = a3 << 0x10\n 57509: a4 = u64 [sp + 0xe8]\n 57513: a4 = a4 << 0x18\n 57516: a3 = a3 | a4\n 57519: a2 = a2 | a3\n 57522: a3 = u64 [sp + 0xf8]\n 57526: a3 = a3 << 0x8\n 57529: a0 = u64 [sp + 0x118]\n 57533: a3 = a3 | a0\n 57536: a4 = u64 [sp + 0x110]\n 57540: a4 = a4 << 0x10\n 57543: a5 = u64 [sp + 0x108]\n 57547: a5 = a5 << 0x18\n 57550: a4 = a4 | a5\n 57553: a3 = a3 | a4\n 57556: a3 = a3 << 0x20\n 57559: a2 = a2 | a3\n 57562: a3 = u64 [sp + 0x120]\n 57566: a3 = a3 << 0x8\n 57569: a0 = u64 [sp + 0x148]\n 57573: a3 = a3 | a0\n 57576: a4 = u64 [sp + 0x130]\n 57580: a4 = a4 << 0x10\n 57583: a5 = u64 [sp + 0x128]\n 57587: a5 = a5 << 0x18\n 57590: a4 = a4 | a5\n 57593: a3 = a3 | a4\n 57596: a4 = u64 [sp + 0x140]\n 57600: a4 = a4 << 0x8\n 57603: a0 = u64 [sp + 0x160]\n 57607: a4 = a4 | a0\n 57610: a5 = u64 [sp + 0x158]\n 57614: a5 = a5 << 0x10\n 57617: s1 = u64 [sp + 0x150]\n 57621: s1 = s1 << 0x18\n 57624: a5 = a5 | s1\n 57627: a4 = a4 | a5\n 57630: a4 = a4 << 0x20\n 57633: a3 = a3 | a4\n 57636: a0 = u64 [sp + 0x200]\n 57640: a2 = a2 << a0\n 57643: t0 = a0\n 57645: a4 = a3 >> 0x1\n 57648: a1 = u64 [sp + 0x1f8]\n 57652: a4 = a4 >> a1\n 57655: a2 = a2 | a4\n 57658: u64 [sp + 0x380] = a2\n 57662: a2 = u64 [sp + 0x168]\n 57666: a2 = a2 << 0x8\n 57669: a0 = u64 [sp + 0x188]\n 57673: a2 = a2 | a0\n 57676: a4 = u64 [sp + 0x178]\n 57680: a4 = a4 << 0x10\n 57683: a5 = u64 [sp + 0x170]\n 57687: a5 = a5 << 0x18\n 57690: a4 = a4 | a5\n 57693: a2 = a2 | a4\n 57696: a4 = u64 [sp + 0x180]\n 57700: a4 = a4 << 0x8\n 57703: a0 = u64 [sp + 0x1a0]\n 57707: a4 = a4 | a0\n 57710: a5 = u64 [sp + 0x198]\n 57714: a5 = a5 << 0x10\n 57717: s1 = u64 [sp + 0x190]\n 57721: s1 = s1 << 0x18\n 57724: a5 = a5 | s1\n 57727: a4 = a4 | a5\n 57730: a4 = a4 << 0x20\n 57733: a2 = a2 | a4\n 57736: a3 = a3 << t0\n 57739: a4 = a2 >> 0x1\n 57742: a5 = u64 [sp + 0x1e8]\n 57746: a4 = a4 >> a5\n 57749: a3 = a3 | a4\n 57752: u64 [sp + 0x378] = a3\n 57756: a3 = u64 [sp + 0x1a8]\n 57760: a3 = a3 << 0x8\n 57763: a0 = u64 [sp + 0x1c0]\n 57767: a3 = a3 | a0\n 57770: a4 = u64 [sp + 0x1b8]\n 57774: a4 = a4 << 0x10\n 57777: a5 = u64 [sp + 0x1b0]\n 57781: a5 = a5 << 0x18\n 57784: a4 = a4 | a5\n 57787: a2 = a2 << t0\n 57790: a3 = a3 | a4\n 57793: a4 = u64 [sp + 0x1c8]\n 57797: a4 = a4 << 0x8\n 57800: a0 = u64 [sp + 0x210]\n 57804: a4 = a4 | a0\n 57807: a5 = u64 [sp + 0x208]\n 57811: a5 = a5 << 0x10\n 57814: s1 = u64 [sp + 0x1d0]\n 57818: s1 = s1 << 0x18\n 57821: a5 = a5 | s1\n 57824: a4 = a4 | a5\n 57827: a4 = a4 << 0x20\n 57830: a3 = a3 | a4\n 57833: u64 [sp + 0x388] = a3\n 57837: a3 = a3 >> 0x1\n 57840: a3 = a3 >> a1\n 57843: a2 = a2 | a3\n 57846: u64 [sp + 0x210] = a2\n 57850: t0 = u64 [sp + 0x3b8]\n 57854: ra = u64 [sp + 0x370]\n 57858: a2 = ra mulhu t0\n 57861: a0 = u64 [sp + 0x3a0]\n 57865: a3 = a0 * t0\n 57868: a2 = a2 + a3\n 57871: a3 = a2 <u a3\n 57874: a4 = a0 mulhu t0\n 57877: a5 = a4 + a3\n 57880: a1 = u64 [sp + 0x3b0]\n 57884: a4 = ra * a1\n 57887: t1 = a4 + a2\n 57890: a4 = t1 <u a4\n 57893: s1 = ra mulhu a1\n 57896: a4 = a4 + s1\n 57899: a3 = a5 + a4\n 57902: u64 [sp + 0x3a0] = a0\n 57906: s1 = a0 * a1\n 57909: a4 = s1 + a3\n 57912: s1 = a4 <u s1\n 57915: a3 = a3 <u a5\n 57918: a5 = a0 mulhu a1\n 57921: a3 = a3 + a5\n 57924: a3 = a3 + s1\n 57927: a0 = u64 [sp + 0x3a8]\n 57931: a5 = t0 mulhu a0\n 57934: s1 = t0 * t2\n 57937: a5 = a5 + s1\n 57940: s1 = a1 * a0\n 57943: a5 = a5 + s1\n 57946: s1 = t0 * a0\n 57949: s1 = s1 + a4\n 57952: a4 = s1 <u a4\n 57955: a3 = a3 + a5\n 57958: a3 = a3 + a4\n 57961: a1 = ra * t0\n 57964: u64 [sp + 0x368] = a1\n 57968: a2 = u64 [sp + 0x268]\n 57972: a2 = a2 - a3\n 57975: u64 [sp + 0x398] = a2\n 57979: a2 = u64 [sp + 0x2d0]\n 57983: u64 [sp + 0x360] = t1\n 57987: t0 = a2 ^ t1\n 57990: a3 = a2 <u t1\n 57993: a4 = u64 [sp + 0x300]\n 57997: a5 = a4 <u a1\n 58000: a3 = a5 if t0 == 0\n 58003: t1 = u64 [sp + 0x260]\n 58007: a4 = t1 <u s1\n 58010: s1 = t1 - s1\n 58013: t1 = s1 <u a3\n 58016: a4 = a4 + t1\n 58019: a1 = u64 [sp + 0x398]\n 58023: a4 = a1 - a4\n 58026: u64 [sp + 0x398] = a4\n 58030: a4 = ra\n 58032: s1 = s1 - a3\n 58035: u64 [sp + 0x390] = s1\n 58039: a3 = a0\n 58041: a0 = u64 [sp + 0x360]\n 58045: a2 = a2 - a0\n 58048: t0 = a2 - a5\n 58051: a0 = u64 [sp + 0x200]\n 58055: a1 = u64 [sp + 0x388]\n 58059: a0 = a1 << a0\n 58062: u64 [sp + 0x268] = a0\n 58066: a0 = u64 [sp + 0x3a0]\n 58070: a1 = u64 [sp + 0x368]\n 58074: a2 = u64 [sp + 0x300]\n 58078: ra = a2 - a1\n 58081: jump @288\n      : @287 (gas: 37)\n 58083: a5 = u64 [sp + 0x3b8]\n 58087: a5 = a5 + ra\n 58090: a0 = a5 <u ra\n 58093: a2 = u64 [sp + 0x3b0]\n 58097: a2 = a2 + t0\n 58100: a2 = a2 + a0\n 58103: a1 = a2 ^ t0\n 58106: a3 = a2 <u t0\n 58109: a3 = a0 if a1 == 0\n 58112: a0 = a2 + 0x1\n 58115: a1 = a2 <u 0xffffffffffffffff\n 58118: t1 = a5 <u 0xffffffffffffffff\n 58121: t1 = a1 if a0 != 0\n 58124: a0 = a4 <u 0x1\n 58127: a1 = s1\n 58129: s1 = s1 - a0\n 58132: a0 = a4 | a1\n 58135: a0 = a0 <u 0x1\n 58138: a1 = u64 [sp + 0x3a8]\n 58142: ra = a1 <u a0\n 58145: t0 = a1 - a0\n 58148: t2 = t2 - ra\n 58151: a0 = u64 [sp + 0x390]\n 58155: a1 = a0 + a3\n 58158: a3 = a1 <u a0\n 58161: a0 = u64 [sp + 0x398]\n 58165: a0 = a0 + a3\n 58168: u64 [sp + 0x398] = a0\n 58172: a3 = a1 | a0\n 58175: t1 = 0 if a3 != 0\n 58177: a4 = a4 + 0xffffffffffffffff\n 58180: a0 = s1\n 58182: a3 = t0\n 58184: ra = a5\n 58186: t0 = a2\n 58188: u64 [sp + 0x390] = a1\n 58192: jump @290 if t1 == 0\n      : @288 (gas: 12)\n 58196: u64 [sp + 0x3a8] = a3\n 58200: a2 = a3 >u 0\n 58202: a5 = t2 >u 0\n 58204: a5 = a2 if t2 == 0\n 58207: a2 = a0 + 0x1\n 58210: s1 = a0\n 58212: a0 = a4 + 0x1\n 58215: a0 = a0 <u 0x1\n 58218: a0 = 0 if a2 != 0\n 58220: a2 = a3 | t2\n 58223: a0 = a5 if a2 != 0\n 58226: jump @287 if a0 != 0\n      : @289 (gas: 56)\n 58230: a3 = u64 [sp + 0x338]\n 58234: a0 = a4 mulhu a3\n 58237: a2 = s1 * a3\n 58240: a0 = a0 + a2\n 58243: a2 = a0 <u a2\n 58246: a5 = s1 mulhu a3\n 58249: u64 [sp + 0x3a0] = s1\n 58253: s1 = a5 + a2\n 58256: t1 = a4\n 58258: a4 = u64 [sp + 0x340]\n 58262: a5 = t1 * a4\n 58265: u64 [sp + 0x388] = t2\n 58269: t2 = a5 + a0\n 58272: a5 = t2 <u a5\n 58275: a1 = t1 mulhu a4\n 58278: a1 = a1 + a5\n 58281: a2 = s1 + a1\n 58284: a0 = u64 [sp + 0x3a0]\n 58288: a5 = a0 * a4\n 58291: a1 = a5 + a2\n 58294: a5 = a1 <u a5\n 58297: a2 = a2 <u s1\n 58300: a0 = u64 [sp + 0x3a0]\n 58304: s1 = a0 mulhu a4\n 58307: a2 = a2 + s1\n 58310: a2 = a2 + a5\n 58313: a0 = u64 [sp + 0x3a8]\n 58317: a5 = a3 mulhu a0\n 58320: s1 = u64 [sp + 0x388]\n 58324: s1 = a3 * s1\n 58327: a5 = a5 + s1\n 58330: s1 = a4 * a0\n 58333: a4 = t1\n 58335: a5 = a5 + s1\n 58338: s1 = a3 * a0\n 58341: s1 = s1 + a1\n 58344: a1 = s1 <u a1\n 58347: a2 = a2 + a5\n 58350: a1 = a1 + a2\n 58353: a2 = t1 * a3\n 58356: a3 = u64 [sp + 0x380]\n 58360: a5 = t2 ^ a3\n 58363: a0 = a3 <u t2\n 58366: t2 = u64 [sp + 0x388]\n 58370: a3 = u64 [sp + 0x378]\n 58374: a2 = a3 <u a2\n 58377: a2 = a0 if a5 != 0\n 58380: a0 = a1 ^ t0\n 58383: a1 = t0 <u a1\n 58386: a5 = ra <u s1\n 58389: a5 = a1 if a0 != 0\n 58392: s1 = s1 ^ ra\n 58395: a0 = a0 | s1\n 58398: s1 = u64 [sp + 0x3a0]\n 58402: a2 = a5 if a0 != 0\n 58405: jump @287 if a2 != 0\n      : @290 (gas: 110)\n 58409: a2 = s1 & 0xffffffffffffffff\n 58412: a1 = a4 & 0xffffffffffffffff\n 58415: t1 = u64 [sp + 0x338]\n 58419: a0 = a1 mulhu t1\n 58422: a3 = a2 * t1\n 58425: a0 = a0 + a3\n 58428: a3 = a0 <u a3\n 58431: a4 = a2 mulhu t1\n 58434: t0 = a4 + a3\n 58437: a3 = u64 [sp + 0x340]\n 58441: a4 = a1 * a3\n 58444: t2 = a4 + a0\n 58447: a4 = t2 <u a4\n 58450: a5 = a1 mulhu a3\n 58453: a4 = a4 + a5\n 58456: a4 = a4 + t0\n 58459: t0 = a4 <u t0\n 58462: a5 = a2 mulhu a3\n 58465: t0 = t0 + a5\n 58468: a5 = a2 * a3\n 58471: a4 = a4 + a5\n 58474: a5 = a4 <u a5\n 58477: t0 = t0 + a5\n 58480: a3 = u64 [sp + 0x3b8]\n 58484: a2 = a3 * a2\n 58487: a5 = a3 mulhu a1\n 58490: a2 = a2 + a5\n 58493: a0 = u64 [sp + 0x3b0]\n 58497: a5 = a0 * a1\n 58500: a2 = a2 + a5\n 58503: a2 = a2 + t0\n 58506: a3 = a3 * a1\n 58509: a3 = a3 + a4\n 58512: a4 = a3 <u a4\n 58515: a2 = a2 + a4\n 58518: a1 = a1 * t1\n 58521: a4 = u64 [sp + 0x2d0]\n 58525: t0 = a4 - a2\n 58528: a0 = u64 [sp + 0x380]\n 58532: a2 = a0 ^ t2\n 58535: a5 = a0 <u t2\n 58538: a4 = u64 [sp + 0x378]\n 58542: s1 = a4 <u a1\n 58545: a5 = s1 if a2 == 0\n 58548: a2 = u64 [sp + 0x300]\n 58552: t1 = a2 <u a3\n 58555: a3 = a2 - a3\n 58558: a2 = a3 <u a5\n 58561: a2 = a2 + t1\n 58564: ra = t0 - a2\n 58567: t0 = a3 - a5\n 58570: a0 = a0 - t2\n 58573: t2 = a0 - s1\n 58576: u64 [sp + 0x308] = t2\n 58580: t1 = a4 - a1\n 58583: a1 = clz ra\n 58585: a0 = clz t0\n 58587: a0 = a0 + 0x40\n 58590: a0 = a1 if ra != 0\n 58593: a1 = t0 | ra\n 58596: a2 = clz t2\n 58598: a3 = clz t1\n 58600: a3 = a3 + 0x40\n 58603: a3 = a2 if t2 != 0\n 58606: a2 = a3 + 0x80\n 58610: a0 = a2 if a1 == 0\n 58613: a2 = a2 <u a3\n 58616: a2 = 0 if a1 != 0\n 58618: a4 = u64 [sp + 0x220]\n 58622: a1 = a4 <u a0\n 58625: s1 = u64 [sp + 0x258]\n 58629: a3 = s1 ^ a2\n 58632: a5 = s1 <u a2\n 58635: a5 = a1 if a3 == 0\n 58638: a4 = a4 - a0\n 58641: a3 = a5 <u 0x1\n 58644: a3 = a3 + 0xffffffffffffffff\n 58647: s1 = s1 - a2\n 58650: s1 = s1 - a1\n 58653: a0 = s1 >u 0\n 58655: u64 [sp + 0x3a0] = a4\n 58659: a1 = a4 <u 0x100\n 58663: a1 = a1 ^ 0x1\n 58666: a1 = a0 if s1 != 0\n 58669: a4 = -a5\n 58671: a0 = a4 >u 0\n 58673: a2 = a3 >u 0\n 58675: u64 [sp + 0x390] = a3\n 58679: a2 = a0 if a3 == 0\n 58682: a2 = a1 if a5 == 0\n 58685: a0 = t2 | ra\n 58688: a1 = t1 | t0\n 58691: a0 = a0 | a1\n 58694: a0 = a0 <u 0x1\n 58697: a1 = u64 [sp + 0x218]\n 58701: a0 = a0 | a1\n 58704: a1 = t1\n 58706: a5 = a0 | a2\n 58709: u64 [sp + 0x2d0] = ra\n 58713: u64 [sp + 0x300] = t0\n 58717: ra = 0 if a5 != 0\n 58719: u64 [sp + 0x388] = ra\n 58723: t0 = 0 if a5 != 0\n 58725: u64 [sp + 0x398] = t0\n 58729: t1 = t2\n 58731: t1 = 0 if a5 != 0\n 58733: ra = a1\n 58735: ra = 0 if a5 != 0\n 58737: u64 [sp + 0x310] = a1\n 58741: jump @298 if a5 != 0\n      : @291 (gas: 7)\n 58745: a1 = u64 [sp + 0x3a0]\n 58749: a5 = a1 ^ 0xff\n 58753: a5 = a5 | a4\n 58756: t0 = u64 [sp + 0x390]\n 58760: a3 = s1 | t0\n 58763: a3 = a3 | a5\n 58766: jump @298 if a3 == 0\n      : @292 (gas: 322)\n 58770: a2 = a1 + 0x1\n 58773: u64 [sp + 0x3a8] = a2\n 58777: a0 = a2 <u 0x1\n 58780: a0 = a0 + s1\n 58783: u64 [sp + 0x380] = a0\n 58787: a0 = a0 | a2\n 58790: a0 = a0 <u 0x1\n 58793: a0 = a0 + a4\n 58796: u64 [sp + 0x370] = a0\n 58800: a0 = a0 <u a4\n 58803: a0 = a0 + t0\n 58806: u64 [sp + 0x378] = a0\n 58810: t0 = 0xff - a1\n 58814: a1 = u64 [sp + 0x310]\n 58818: a0 = sp + 0x1000\n 58822: u8 [a0 + 0xfffffffffffff980] = a1\n 58826: a0 = sp + 0x1000\n 58830: u8 [a0 + 4294965631] = 0\n 58834: a0 = sp + 0x1000\n 58838: u8 [a0 + 4294965630] = 0\n 58842: a0 = sp + 0x1000\n 58846: u8 [a0 + 4294965629] = 0\n 58850: a0 = sp + 0x1000\n 58854: u8 [a0 + 4294965628] = 0\n 58858: a0 = sp + 0x1000\n 58862: u8 [a0 + 4294965627] = 0\n 58866: a0 = sp + 0x1000\n 58870: u8 [a0 + 4294965626] = 0\n 58874: a0 = sp + 0x1000\n 58878: u8 [a0 + 4294965625] = 0\n 58882: a0 = sp + 0x1000\n 58886: u8 [a0 + 4294965624] = 0\n 58890: a0 = sp + 0x1000\n 58894: u8 [a0 + 4294965623] = 0\n 58898: a0 = sp + 0x1000\n 58902: u8 [a0 + 4294965622] = 0\n 58906: a0 = sp + 0x1000\n 58910: u8 [a0 + 4294965621] = 0\n 58914: a0 = sp + 0x1000\n 58918: u8 [a0 + 4294965620] = 0\n 58922: a0 = sp + 0x1000\n 58926: u8 [a0 + 4294965619] = 0\n 58930: a0 = sp + 0x1000\n 58934: u8 [a0 + 4294965618] = 0\n 58938: a0 = sp + 0x1000\n 58942: u8 [a0 + 4294965617] = 0\n 58946: a0 = sp + 0x1000\n 58950: u8 [a0 + 4294965616] = 0\n 58954: a0 = sp + 0x1000\n 58958: u8 [a0 + 4294965615] = 0\n 58962: a0 = sp + 0x1000\n 58966: u8 [a0 + 4294965614] = 0\n 58970: a0 = sp + 0x1000\n 58974: u8 [a0 + 4294965613] = 0\n 58978: a0 = sp + 0x1000\n 58982: u8 [a0 + 4294965612] = 0\n 58986: a0 = sp + 0x1000\n 58990: u8 [a0 + 4294965611] = 0\n 58994: a0 = sp + 0x1000\n 58998: u8 [a0 + 4294965610] = 0\n 59002: a0 = sp + 0x1000\n 59006: u8 [a0 + 4294965609] = 0\n 59010: a0 = sp + 0x1000\n 59014: u8 [a0 + 4294965608] = 0\n 59018: a0 = sp + 0x1000\n 59022: u8 [a0 + 4294965607] = 0\n 59026: a0 = sp + 0x1000\n 59030: u8 [a0 + 4294965606] = 0\n 59034: a0 = sp + 0x1000\n 59038: u8 [a0 + 4294965605] = 0\n 59042: a0 = sp + 0x1000\n 59046: u8 [a0 + 4294965604] = 0\n 59050: a0 = sp + 0x1000\n 59054: u8 [a0 + 4294965603] = 0\n 59058: a0 = sp + 0x1000\n 59062: u8 [a0 + 4294965602] = 0\n 59066: a0 = sp + 0x1000\n 59070: u8 [a0 + 4294965601] = 0\n 59074: a0 = sp + 0x1000\n 59078: u8 [a0 + 4294965600] = 0\n 59082: a0 = u64 [sp + 0x308]\n 59086: a2 = sp + 0x1000\n 59090: u8 [a2 + 0xfffffffffffff988] = a0\n 59094: a2 = a1 >> 0x38\n 59097: u64 [sp + 0x208] = a2\n 59101: a3 = sp + 0x1000\n 59105: u8 [a3 + 0xfffffffffffff987] = a2\n 59109: a2 = a1 >> 0x30\n 59112: u64 [sp + 0x1d0] = a2\n 59116: a3 = sp + 0x1000\n 59120: u8 [a3 + 0xfffffffffffff986] = a2\n 59124: a2 = a1 >> 0x28\n 59127: u64 [sp + 0x1c8] = a2\n 59131: a3 = sp + 0x1000\n 59135: u8 [a3 + 0xfffffffffffff985] = a2\n 59139: a2 = a1 >> 0x20\n 59142: u64 [sp + 0x1c0] = a2\n 59146: a3 = sp + 0x1000\n 59150: u8 [a3 + 0xfffffffffffff984] = a2\n 59154: a2 = a1 >> 0x18\n 59157: u64 [sp + 0x1b8] = a2\n 59161: a3 = sp + 0x1000\n 59165: u8 [a3 + 0xfffffffffffff983] = a2\n 59169: a2 = a1 >> 0x10\n 59172: u64 [sp + 0x1b0] = a2\n 59176: a3 = sp + 0x1000\n 59180: u8 [a3 + 0xfffffffffffff982] = a2\n 59184: a2 = a1 >> 0x8\n 59187: u64 [sp + 0x1a8] = a2\n 59191: a1 = sp + 0x1000\n 59195: u8 [a1 + 0xfffffffffffff981] = a2\n 59199: t2 = u64 [sp + 0x300]\n 59203: a1 = sp + 0x1000\n 59207: u8 [a1 + 0xfffffffffffff990] = t2\n 59211: a2 = a0 >> 0x38\n 59214: u64 [sp + 0x1a0] = a2\n 59218: a1 = sp + 0x1000\n 59222: u8 [a1 + 0xfffffffffffff98f] = a2\n 59226: a2 = a0 >> 0x30\n 59229: u64 [sp + 0x198] = a2\n 59233: a1 = sp + 0x1000\n 59237: u8 [a1 + 0xfffffffffffff98e] = a2\n 59241: a2 = a0 >> 0x28\n 59244: u64 [sp + 0x190] = a2\n 59248: a1 = sp + 0x1000\n 59252: u8 [a1 + 0xfffffffffffff98d] = a2\n 59256: a2 = a0 >> 0x20\n 59259: u64 [sp + 0x188] = a2\n 59263: a1 = sp + 0x1000\n 59267: u8 [a1 + 0xfffffffffffff98c] = a2\n 59271: a2 = a0 >> 0x18\n 59274: u64 [sp + 0x180] = a2\n 59278: a1 = sp + 0x1000\n 59282: u8 [a1 + 0xfffffffffffff98b] = a2\n 59286: a2 = a0 >> 0x10\n 59289: u64 [sp + 0x178] = a2\n 59293: a1 = sp + 0x1000\n 59297: u8 [a1 + 0xfffffffffffff98a] = a2\n 59301: a0 = a0 >> 0x8\n 59304: u64 [sp + 0x170] = a0\n 59308: a1 = sp + 0x1000\n 59312: u8 [a1 + 0xfffffffffffff989] = a0\n 59316: ra = u64 [sp + 0x2d0]\n 59320: a0 = sp + 0x1000\n 59324: u8 [a0 + 0xfffffffffffff998] = ra\n 59328: a0 = t2 >> 0x38\n 59331: u64 [sp + 0x168] = a0\n 59335: a1 = sp + 0x1000\n 59339: u8 [a1 + 0xfffffffffffff997] = a0\n 59343: a0 = t2 >> 0x30\n 59346: u64 [sp + 0x160] = a0\n 59350: a1 = sp + 0x1000\n 59354: u8 [a1 + 0xfffffffffffff996] = a0\n 59358: a0 = t2 >> 0x28\n 59361: u64 [sp + 0x158] = a0\n 59365: a1 = sp + 0x1000\n 59369: u8 [a1 + 0xfffffffffffff995] = a0\n 59373: a0 = t2 >> 0x20\n 59376: u64 [sp + 0x150] = a0\n 59380: a1 = sp + 0x1000\n 59384: u8 [a1 + 0xfffffffffffff994] = a0\n 59388: a0 = t2 >> 0x18\n 59391: u64 [sp + 0x148] = a0\n 59395: a1 = sp + 0x1000\n 59399: u8 [a1 + 0xfffffffffffff993] = a0\n 59403: a0 = t2 >> 0x10\n 59406: u64 [sp + 0x360] = a0\n 59410: a1 = sp + 0x1000\n 59414: u8 [a1 + 0xfffffffffffff992] = a0\n 59418: a0 = t2 >> 0x8\n 59421: u64 [sp + 0x358] = a0\n 59425: a1 = sp + 0x1000\n 59429: u8 [a1 + 0xfffffffffffff991] = a0\n 59433: a0 = ra >> 0x38\n 59436: u64 [sp + 0x350] = a0\n 59440: a1 = sp + 0x1000\n 59444: u8 [a1 + 0xfffffffffffff99f] = a0\n 59448: a0 = ra >> 0x30\n 59451: u64 [sp + 0x348] = a0\n 59455: a1 = sp + 0x1000\n 59459: u8 [a1 + 0xfffffffffffff99e] = a0\n 59463: a0 = ra >> 0x28\n 59466: u64 [sp + 0x318] = a0\n 59470: a1 = sp + 0x1000\n 59474: u8 [a1 + 0xfffffffffffff99d] = a0\n 59478: a0 = ra >> 0x20\n 59481: u64 [sp + 0x260] = a0\n 59485: a1 = sp + 0x1000\n 59489: u8 [a1 + 0xfffffffffffff99c] = a0\n 59493: a0 = ra >> 0x18\n 59496: u64 [sp + 0x258] = a0\n 59500: a1 = sp + 0x1000\n 59504: u8 [a1 + 0xfffffffffffff99b] = a0\n 59508: a0 = ra >> 0x10\n 59511: u64 [sp + 0x220] = a0\n 59515: a1 = sp + 0x1000\n 59519: u8 [a1 + 0xfffffffffffff99a] = a0\n 59523: a0 = ra >> 0x8\n 59526: u64 [sp + 0x218] = a0\n 59530: a1 = sp + 0x1000\n 59534: u8 [a1 + 0xfffffffffffff999] = a0\n 59538: a0 = t0 << 0x38\n 59541: a0 = a0 >> 0x3b\n 59544: a3 = sp + 0x7ff\n 59548: a3 = a3 + 0x181\n 59552: a3 = a3 - a0\n 59555: a0 = u8 [a3 + 0x19]\n 59558: a2 = u8 [a3 + 0x18]\n 59561: a4 = u8 [a3 + 0x1a]\n 59564: a5 = u8 [a3 + 0x1b]\n 59567: a0 = a0 << 0x8\n 59570: a0 = a0 | a2\n 59573: a4 = a4 << 0x10\n 59576: a5 = a5 << 0x18\n 59579: a4 = a4 | a5\n 59582: a0 = a0 | a4\n 59585: a2 = u8 [a3 + 0x1d]\n 59588: a4 = u8 [a3 + 0x1c]\n 59591: a5 = u8 [a3 + 0x1e]\n 59594: s1 = u8 [a3 + 0x1f]\n 59597: a2 = a2 << 0x8\n 59600: a2 = a2 | a4\n 59603: a5 = a5 << 0x10\n 59606: s1 = s1 << 0x18\n 59609: a5 = a5 | s1\n 59612: a2 = a2 | a5\n 59615: a2 = a2 << 0x20\n 59618: a2 = a2 | a0\n 59621: a0 = u8 [a3 + 0x11]\n 59624: a4 = u8 [a3 + 0x10]\n 59627: a5 = u8 [a3 + 0x12]\n 59630: s1 = u8 [a3 + 0x13]\n 59633: a0 = a0 << 0x8\n 59636: a0 = a0 | a4\n 59639: a5 = a5 << 0x10\n 59642: s1 = s1 << 0x18\n 59645: a5 = a5 | s1\n 59648: a0 = a0 | a5\n 59651: a4 = u8 [a3 + 0x15]\n 59654: a5 = u8 [a3 + 0x14]\n 59657: s1 = u8 [a3 + 0x16]\n 59660: a1 = u8 [a3 + 0x17]\n 59663: a4 = a4 << 0x8\n 59666: a4 = a4 | a5\n 59669: s1 = s1 << 0x10\n 59672: a1 = a1 << 0x18\n 59675: a1 = a1 | s1\n 59678: a1 = a1 | a4\n 59681: a1 = a1 << 0x20\n 59684: t1 = a1 | a0\n 59687: a1 = t0 & 0x7\n 59690: a0 = a2 << a1\n 59693: a5 = t1 >> 0x1\n 59696: t0 = a1 ^ 0x3f\n 59699: a5 = a5 >> t0\n 59702: a0 = a0 | a5\n 59705: u64 [sp + 0x3a0] = a0\n 59709: a0 = u8 [a3 + 0x9]\n 59712: a5 = u8 [a3 + 0x8]\n 59715: s1 = u8 [a3 + 0xa]\n 59718: a2 = u8 [a3 + 0xb]\n 59721: a0 = a0 << 0x8\n 59724: a0 = a0 | a5\n 59727: s1 = s1 << 0x10\n 59730: a2 = a2 << 0x18\n 59733: a2 = a2 | s1\n 59736: a0 = a0 | a2\n 59739: a2 = u8 [a3 + 0xd]\n 59742: a5 = u8 [a3 + 0xc]\n 59745: s1 = u8 [a3 + 0xe]\n 59748: a4 = u8 [a3 + 0xf]\n 59751: a2 = a2 << 0x8\n 59754: a2 = a2 | a5\n 59757: s1 = s1 << 0x10\n 59760: a4 = a4 << 0x18\n 59763: a4 = a4 | s1\n 59766: a2 = a2 | a4\n 59769: a2 = a2 << 0x20\n 59772: a5 = a2 | a0\n 59775: a0 = a5 >> 0x1\n 59778: a2 = a1 ^ 0xffffffffffffffff\n 59781: a0 = a0 >> a2\n 59784: a2 = t1 << a1\n 59787: a0 = a0 | a2\n 59790: u64 [sp + 0x398] = a0\n 59794: a0 = u8 [a3 + 0x1]\n 59797: a2 = u8 [a3]\n 59799: a4 = u8 [a3 + 0x2]\n 59802: s1 = u8 [a3 + 0x3]\n 59805: a0 = a0 << 0x8\n 59808: a0 = a0 | a2\n 59811: a4 = a4 << 0x10\n 59814: s1 = s1 << 0x18\n 59817: a4 = a4 | s1\n 59820: a0 = a0 | a4\n 59823: a2 = u8 [a3 + 0x5]\n 59826: a4 = u8 [a3 + 0x4]\n 59829: s1 = u8 [a3 + 0x6]\n 59832: a3 = u8 [a3 + 0x7]\n 59835: a2 = a2 << 0x8\n 59838: a2 = a2 | a4\n 59841: s1 = s1 << 0x10\n 59844: a3 = a3 << 0x18\n 59847: a3 = a3 | s1\n 59850: a4 = u64 [sp + 0x380]\n 59854: a2 = a2 | a3\n 59857: a2 = a2 << 0x20\n 59860: a0 = a0 | a2\n 59863: a2 = a0 >> 0x1\n 59866: a2 = a2 >> t0\n 59869: s1 = u64 [sp + 0x370]\n 59873: a3 = a5 << a1\n 59876: a5 = u64 [sp + 0x378]\n 59880: a2 = a2 | a3\n 59883: u64 [sp + 0x388] = a2\n 59887: a2 = a4 | a5\n 59890: a3 = u64 [sp + 0x3a8]\n 59894: a3 = a3 | s1\n 59897: a2 = a2 | a3\n 59900: a0 = a0 << a1\n 59903: u64 [sp + 0x390] = a0\n 59907: jump @296 if a2 == 0\n      : @293 (gas: 287)\n 59911: u64 [sp + 320] = 0\n 59915: u64 [sp + 872] = 0\n 59919: a0 = u64 [sp + 0x208]\n 59923: a1 = sp + 0x1000\n 59927: u8 [a1 + 0xfffffffffffff927] = a0\n 59931: a0 = u64 [sp + 0x1d0]\n 59935: a1 = sp + 0x1000\n 59939: u8 [a1 + 0xfffffffffffff926] = a0\n 59943: a0 = u64 [sp + 0x1c8]\n 59947: a1 = sp + 0x1000\n 59951: u8 [a1 + 0xfffffffffffff925] = a0\n 59955: a0 = u64 [sp + 0x1c0]\n 59959: a1 = sp + 0x1000\n 59963: u8 [a1 + 0xfffffffffffff924] = a0\n 59967: a0 = u64 [sp + 0x1b8]\n 59971: a1 = sp + 0x1000\n 59975: u8 [a1 + 0xfffffffffffff923] = a0\n 59979: a0 = u64 [sp + 0x1b0]\n 59983: a1 = sp + 0x1000\n 59987: u8 [a1 + 0xfffffffffffff922] = a0\n 59991: a0 = u64 [sp + 0x1a8]\n 59995: a1 = sp + 0x1000\n 59999: u8 [a1 + 0xfffffffffffff921] = a0\n 60003: a0 = u64 [sp + 0x1a0]\n 60007: a1 = sp + 0x1000\n 60011: u8 [a1 + 0xfffffffffffff92f] = a0\n 60015: a0 = u64 [sp + 0x198]\n 60019: a1 = sp + 0x1000\n 60023: u8 [a1 + 0xfffffffffffff92e] = a0\n 60027: a0 = u64 [sp + 0x190]\n 60031: a1 = sp + 0x1000\n 60035: u8 [a1 + 0xfffffffffffff92d] = a0\n 60039: a0 = u64 [sp + 0x188]\n 60043: a1 = sp + 0x1000\n 60047: u8 [a1 + 0xfffffffffffff92c] = a0\n 60051: a0 = u64 [sp + 0x180]\n 60055: a1 = sp + 0x1000\n 60059: u8 [a1 + 0xfffffffffffff92b] = a0\n 60063: a0 = u64 [sp + 0x178]\n 60067: a1 = sp + 0x1000\n 60071: u8 [a1 + 0xfffffffffffff92a] = a0\n 60075: a0 = u64 [sp + 0x170]\n 60079: a1 = sp + 0x1000\n 60083: u8 [a1 + 0xfffffffffffff929] = a0\n 60087: a0 = u64 [sp + 0x168]\n 60091: a1 = sp + 0x1000\n 60095: u8 [a1 + 0xfffffffffffff937] = a0\n 60099: a0 = u64 [sp + 0x160]\n 60103: a1 = sp + 0x1000\n 60107: u8 [a1 + 0xfffffffffffff936] = a0\n 60111: a0 = u64 [sp + 0x158]\n 60115: a1 = sp + 0x1000\n 60119: u8 [a1 + 0xfffffffffffff935] = a0\n 60123: a0 = u64 [sp + 0x150]\n 60127: a1 = sp + 0x1000\n 60131: u8 [a1 + 0xfffffffffffff934] = a0\n 60135: a0 = u64 [sp + 0x148]\n 60139: a1 = sp + 0x1000\n 60143: u8 [a1 + 0xfffffffffffff933] = a0\n 60147: a0 = sp + 0x1000\n 60151: u8 [a0 + 4294965599] = 0\n 60155: a0 = sp + 0x1000\n 60159: u8 [a0 + 4294965598] = 0\n 60163: a0 = sp + 0x1000\n 60167: u8 [a0 + 4294965597] = 0\n 60171: a0 = sp + 0x1000\n 60175: u8 [a0 + 4294965596] = 0\n 60179: a0 = sp + 0x1000\n 60183: u8 [a0 + 4294965595] = 0\n 60187: a0 = sp + 0x1000\n 60191: u8 [a0 + 4294965594] = 0\n 60195: a0 = sp + 0x1000\n 60199: u8 [a0 + 4294965593] = 0\n 60203: a0 = sp + 0x1000\n 60207: u8 [a0 + 4294965592] = 0\n 60211: a0 = sp + 0x1000\n 60215: u8 [a0 + 4294965591] = 0\n 60219: a0 = sp + 0x1000\n 60223: u8 [a0 + 4294965590] = 0\n 60227: a0 = sp + 0x1000\n 60231: u8 [a0 + 4294965589] = 0\n 60235: a0 = sp + 0x1000\n 60239: u8 [a0 + 4294965588] = 0\n 60243: a0 = sp + 0x1000\n 60247: u8 [a0 + 4294965587] = 0\n 60251: a0 = sp + 0x1000\n 60255: u8 [a0 + 4294965586] = 0\n 60259: a0 = sp + 0x1000\n 60263: u8 [a0 + 4294965585] = 0\n 60267: a0 = sp + 0x1000\n 60271: u8 [a0 + 4294965584] = 0\n 60275: a0 = sp + 0x1000\n 60279: u8 [a0 + 4294965583] = 0\n 60283: a0 = sp + 0x1000\n 60287: u8 [a0 + 4294965582] = 0\n 60291: a0 = sp + 0x1000\n 60295: u8 [a0 + 4294965581] = 0\n 60299: a0 = sp + 0x1000\n 60303: u8 [a0 + 4294965580] = 0\n 60307: a0 = sp + 0x1000\n 60311: u8 [a0 + 4294965579] = 0\n 60315: a0 = sp + 0x1000\n 60319: u8 [a0 + 4294965578] = 0\n 60323: a0 = sp + 0x1000\n 60327: u8 [a0 + 4294965577] = 0\n 60331: a0 = sp + 0x1000\n 60335: u8 [a0 + 4294965576] = 0\n 60339: a0 = sp + 0x1000\n 60343: u8 [a0 + 4294965575] = 0\n 60347: a0 = sp + 0x1000\n 60351: u8 [a0 + 4294965574] = 0\n 60355: a0 = sp + 0x1000\n 60359: u8 [a0 + 4294965573] = 0\n 60363: a0 = sp + 0x1000\n 60367: u8 [a0 + 4294965572] = 0\n 60371: a0 = sp + 0x1000\n 60375: u8 [a0 + 4294965571] = 0\n 60379: a0 = sp + 0x1000\n 60383: u8 [a0 + 4294965570] = 0\n 60387: a0 = sp + 0x1000\n 60391: u8 [a0 + 4294965569] = 0\n 60395: a0 = sp + 0x1000\n 60399: u8 [a0 + 4294965568] = 0\n 60403: a0 = u64 [sp + 0x310]\n 60407: a1 = sp + 0x1000\n 60411: u8 [a1 + 0xfffffffffffff920] = a0\n 60415: a0 = u64 [sp + 0x308]\n 60419: a1 = sp + 0x1000\n 60423: u8 [a1 + 0xfffffffffffff928] = a0\n 60427: a0 = sp + 0x1000\n 60431: u8 [a0 + 0xfffffffffffff930] = t2\n 60435: a0 = sp + 0x1000\n 60439: u8 [a0 + 0xfffffffffffff938] = ra\n 60443: a0 = u64 [sp + 0x360]\n 60447: a1 = sp + 0x1000\n 60451: u8 [a1 + 0xfffffffffffff932] = a0\n 60455: a0 = u64 [sp + 0x358]\n 60459: a1 = sp + 0x1000\n 60463: u8 [a1 + 0xfffffffffffff931] = a0\n 60467: a0 = u64 [sp + 0x350]\n 60471: a1 = sp + 0x1000\n 60475: u8 [a1 + 0xfffffffffffff93f] = a0\n 60479: a0 = u64 [sp + 0x348]\n 60483: a1 = sp + 0x1000\n 60487: u8 [a1 + 0xfffffffffffff93e] = a0\n 60491: a0 = u64 [sp + 0x318]\n 60495: a1 = sp + 0x1000\n 60499: u8 [a1 + 0xfffffffffffff93d] = a0\n 60503: a0 = u64 [sp + 0x260]\n 60507: a1 = sp + 0x1000\n 60511: u8 [a1 + 0xfffffffffffff93c] = a0\n 60515: a0 = u64 [sp + 0x258]\n 60519: a1 = sp + 0x1000\n 60523: u8 [a1 + 0xfffffffffffff93b] = a0\n 60527: a0 = u64 [sp + 0x220]\n 60531: a1 = sp + 0x1000\n 60535: u8 [a1 + 0xfffffffffffff93a] = a0\n 60539: a0 = u64 [sp + 0x218]\n 60543: a1 = sp + 0x1000\n 60547: u8 [a1 + 0xfffffffffffff939] = a0\n 60551: ra = a4\n 60553: s1 = u64 [sp + 0x3a8]\n 60557: a0 = s1 << 0x38\n 60560: a0 = a0 >> 0x3b\n 60563: a1 = sp + 0x7ff\n 60567: a1 = a1 + 0x121\n 60571: a1 = a1 + a0\n 60574: a0 = u8 [a1 + 0x11]\n 60577: a2 = u8 [a1 + 0x10]\n 60580: a3 = u8 [a1 + 0x12]\n 60583: a4 = u8 [a1 + 0x13]\n 60586: a0 = a0 << 0x8\n 60589: a0 = a0 | a2\n 60592: a3 = a3 << 0x10\n 60595: a4 = a4 << 0x18\n 60598: a3 = a3 | a4\n 60601: a0 = a0 | a3\n 60604: a2 = u8 [a1 + 0x15]\n 60607: a3 = u8 [a1 + 0x14]\n 60610: a4 = u8 [a1 + 0x16]\n 60613: a5 = u8 [a1 + 0x17]\n 60616: a2 = a2 << 0x8\n 60619: a2 = a2 | a3\n 60622: a4 = a4 << 0x10\n 60625: a5 = a5 << 0x18\n 60628: a4 = a4 | a5\n 60631: a2 = a2 | a4\n 60634: a2 = a2 << 0x20\n 60637: t0 = a2 | a0\n 60640: a2 = s1 & 0x7\n 60643: t1 = t0 >> a2\n 60646: a0 = u8 [a1 + 0x19]\n 60649: a4 = u8 [a1 + 0x18]\n 60652: a5 = u8 [a1 + 0x1a]\n 60655: a3 = u8 [a1 + 0x1b]\n 60658: a0 = a0 << 0x8\n 60661: a0 = a0 | a4\n 60664: a5 = a5 << 0x10\n 60667: a3 = a3 << 0x18\n 60670: a3 = a3 | a5\n 60673: a0 = a0 | a3\n 60676: a3 = u8 [a1 + 0x1d]\n 60679: a4 = u8 [a1 + 0x1c]\n 60682: a5 = u8 [a1 + 0x1e]\n 60685: s1 = u8 [a1 + 0x1f]\n 60688: a3 = a3 << 0x8\n 60691: a3 = a3 | a4\n 60694: a5 = a5 << 0x10\n 60697: s1 = s1 << 0x18\n 60700: a5 = a5 | s1\n 60703: a3 = a3 | a5\n 60706: a3 = a3 << 0x20\n 60709: a0 = a0 | a3\n 60712: u64 [sp + 0x358] = a0\n 60716: a0 = a0 << 0x1\n 60719: t2 = a2 ^ 0x3f\n 60722: a0 = a0 << t2\n 60725: a0 = t1 | a0\n 60728: u64 [sp + 0x360] = a0\n 60732: a0 = u8 [a1 + 0x9]\n 60735: a3 = u8 [a1 + 0x8]\n 60738: s1 = u8 [a1 + 0xa]\n 60741: a4 = u8 [a1 + 0xb]\n 60744: a0 = a0 << 0x8\n 60747: a0 = a0 | a3\n 60750: s1 = s1 << 0x10\n 60753: a4 = a4 << 0x18\n 60756: a4 = a4 | s1\n 60759: a0 = a0 | a4\n 60762: a3 = u8 [a1 + 0xd]\n 60765: a4 = u8 [a1 + 0xc]\n 60768: s1 = u8 [a1 + 0xe]\n 60771: a5 = u8 [a1 + 0xf]\n 60774: a3 = a3 << 0x8\n 60777: a3 = a3 | a4\n 60780: s1 = s1 << 0x10\n 60783: a5 = a5 << 0x18\n 60786: a5 = a5 | s1\n 60789: a3 = a3 | a5\n 60792: a3 = a3 << 0x20\n 60795: t1 = a3 | a0\n 60798: a0 = t1 >> a2\n 60801: t0 = t0 << 0x1\n 60804: a3 = a2 ^ 0xffffffffffffffff\n 60807: a3 = t0 << a3\n 60810: a3 = a3 | a0\n 60813: a0 = u8 [a1 + 0x1]\n 60816: a4 = u8 [a1]\n 60818: a5 = u8 [a1 + 0x2]\n 60821: s1 = u8 [a1 + 0x3]\n 60824: a0 = a0 << 0x8\n 60827: a0 = a0 | a4\n 60830: a5 = a5 << 0x10\n 60833: s1 = s1 << 0x18\n 60836: a5 = a5 | s1\n 60839: a0 = a0 | a5\n 60842: a4 = u8 [a1 + 0x5]\n 60845: a5 = u8 [a1 + 0x4]\n 60848: s1 = u8 [a1 + 0x6]\n 60851: a1 = u8 [a1 + 0x7]\n 60854: a4 = a4 << 0x8\n 60857: a4 = a4 | a5\n 60860: s1 = s1 << 0x10\n 60863: a1 = a1 << 0x18\n 60866: a1 = a1 | s1\n 60869: a1 = a1 | a4\n 60872: a1 = a1 << 0x20\n 60875: a0 = a0 | a1\n 60878: a0 = a0 >> a2\n 60881: t1 = t1 << 0x1\n 60884: a1 = t1 << t2\n 60887: t2 = u64 [sp + 0x140]\n 60891: t0 = a0 | a1\n 60894: a0 = u64 [sp + 0x358]\n 60898: t1 = a0 >> a2\n 60901: a1 = u64 [sp + 0x3b8]\n 60905: a0 = a1 <u 0x1\n 60908: a2 = u64 [sp + 0x3b0]\n 60912: a0 = a2 - a0\n 60915: u64 [sp + 0x350] = a0\n 60919: a0 = a1 | a2\n 60922: a0 = a0 >u 0\n 60924: a0 = a0 + 0xffffffffffffffff\n 60927: u64 [sp + 0x348] = a0\n 60931: a1 = a1 + 0xffffffffffffffff\n 60934: u64 [sp + 0x318] = a1\n 60938: fallthrough\n      : @294 (gas: 89)\n 60939: u64 [sp + 0x380] = ra\n 60943: u64 [sp + 856] = 0\n 60947: a0 = t0 >> 0x3f\n 60950: a2 = a3 << 0x1\n 60953: a2 = a2 | a0\n 60956: t0 = t0 << 0x1\n 60959: a1 = u64 [sp + 0x3a0]\n 60963: a0 = a1 >> 0x3f\n 60966: s1 = t0 | a0\n 60969: a0 = u64 [sp + 0x350]\n 60973: a4 = a0 ^ a2\n 60976: a5 = a0 <u a2\n 60979: a0 = u64 [sp + 0x318]\n 60983: a0 = a0 <u s1\n 60986: a0 = a5 if a4 != 0\n 60989: ra = t2\n 60991: t2 = t1 << 0x1\n 60994: t1 = u64 [sp + 0x360]\n 60998: a4 = t1 >> 0x3f\n 61001: t0 = t2 | a4\n 61004: a3 = a3 >> 0x3f\n 61007: t1 = t1 << 0x1\n 61010: t1 = t1 | a3\n 61013: a4 = a1 << 0x1\n 61016: a3 = u64 [sp + 0x398]\n 61020: a1 = a3 >> 0x3f\n 61023: t2 = a4 | a1\n 61026: a4 = a3 << 0x1\n 61029: a3 = u64 [sp + 0x388]\n 61033: a5 = a3 >> 0x3f\n 61036: a4 = a4 | a5\n 61039: a3 = a3 << 0x1\n 61042: a5 = u64 [sp + 0x390]\n 61046: a1 = a5 >> 0x3f\n 61049: a1 = a1 | a3\n 61052: a5 = a5 << 0x1\n 61055: a5 = ra | a5\n 61058: u64 [sp + 0x390] = a5\n 61062: ra = u64 [sp + 0x380]\n 61066: a5 = u64 [sp + 0x368]\n 61070: a1 = a1 | a5\n 61073: u64 [sp + 0x388] = a1\n 61077: a4 = a4 | a5\n 61080: u64 [sp + 0x398] = a4\n 61084: a1 = a5 | t2\n 61087: u64 [sp + 0x3a0] = a1\n 61091: a3 = u64 [sp + 0x348]\n 61095: a1 = a3 - t1\n 61098: a0 = a1 <u a0\n 61101: a1 = a3 <u t1\n 61104: a4 = a3 - t0\n 61107: a4 = a4 - a1\n 61110: a0 = a4 - a0\n 61113: a0 = a0 >>a 0x3f\n 61116: a1 = u64 [sp + 0x3b8]\n 61120: a1 = a1 & a0\n 61123: a4 = u64 [sp + 0x3b0]\n 61127: a4 = a4 & a0\n 61130: a3 = a2 ^ a4\n 61133: a5 = a2 <u a4\n 61136: t2 = s1 <u a1\n 61139: a5 = t2 if a3 == 0\n 61142: a3 = t1 - a5\n 61145: u64 [sp + 0x360] = a3\n 61149: a3 = t1 <u a5\n 61152: t1 = t0 - a3\n 61155: a2 = a2 - a4\n 61158: a3 = a2 - t2\n 61161: t0 = s1 - a1\n 61164: a5 = u64 [sp + 0x3a8]\n 61168: a1 = a5 | ra\n 61171: a1 = a1 <u 0x1\n 61174: a4 = u64 [sp + 0x370]\n 61178: a2 = a4 <u a1\n 61181: a1 = a4 - a1\n 61184: a4 = a5 <u 0x1\n 61187: ra = ra - a4\n 61190: a4 = u64 [sp + 0x378]\n 61194: a4 = a4 - a2\n 61197: a5 = a5 + 0xffffffffffffffff\n 61200: u64 [sp + 0x378] = a4\n 61204: a2 = ra | a4\n 61207: u64 [sp + 0x3a8] = a5\n 61211: a4 = a5 | a1\n 61214: a2 = a2 | a4\n 61217: t2 = a0 & 0x1\n 61220: u64 [sp + 0x370] = a1\n 61224: u64 [sp + 872] = 0\n 61228: jump @294 if a2 != 0\n      : @295 (gas: 1)\n 61232: jump @297\n      : @296 (gas: 3)\n 61234: t2 = 0\n 61236: u64 [sp + 856] = 0\n 61240: fallthrough\n      : @297 (gas: 22)\n 61241: a1 = u64 [sp + 0x398]\n 61245: a0 = a1 >> 0x3f\n 61248: a2 = u64 [sp + 0x3a0]\n 61252: a2 = a2 << 0x1\n 61255: a3 = a2 | a0\n 61258: a5 = u64 [sp + 0x388]\n 61262: a0 = a5 >> 0x3f\n 61265: a2 = a1 << 0x1\n 61268: a2 = a2 | a0\n 61271: a0 = u64 [sp + 0x390]\n 61275: a4 = a0 >> 0x3f\n 61278: a5 = a5 << 0x1\n 61281: a0 = a0 << 0x1\n 61284: ra = t2 | a0\n 61287: a1 = u64 [sp + 0x358]\n 61291: a4 = a4 | a1\n 61294: t1 = a4 | a5\n 61297: a0 = a1 | a2\n 61300: u64 [sp + 0x398] = a0\n 61304: a0 = a1 | a3\n 61307: u64 [sp + 0x388] = a0\n 61311: fallthrough\n      : @298 (gas: 71)\n 61312: a2 = u64 [sp + 0x3b8]\n 61316: a3 = ra mulhu a2\n 61319: a4 = t1 * a2\n 61322: a3 = a3 + a4\n 61325: a4 = a3 <u a4\n 61328: a5 = t1 mulhu a2\n 61331: t0 = a5 + a4\n 61334: a0 = u64 [sp + 0x3b0]\n 61338: a4 = ra * a0\n 61341: t2 = a4 + a3\n 61344: a3 = t2 <u a4\n 61347: a4 = ra mulhu a0\n 61350: a3 = a3 + a4\n 61353: a4 = t0 + a3\n 61356: s1 = t1 * a0\n 61359: a3 = s1 + a4\n 61362: a1 = u64 [sp + 0x398]\n 61366: a5 = a2 * a1\n 61369: a5 = a5 + a3\n 61372: s1 = a3 <u s1\n 61375: a3 = a5 <u a3\n 61378: u64 [sp + 0x3a8] = a3\n 61382: a4 = a4 <u t0\n 61385: a3 = t1 mulhu a0\n 61388: a3 = a3 + a4\n 61391: t0 = a3 + s1\n 61394: a4 = a2 mulhu a1\n 61397: a3 = u64 [sp + 0x388]\n 61401: s1 = a2 * a3\n 61404: a4 = a4 + s1\n 61407: s1 = a0 * a1\n 61410: a4 = a4 + s1\n 61413: a3 = t0 + a4\n 61416: a2 = ra * a2\n 61419: u64 [sp + 0x380] = a2\n 61423: a0 = u64 [sp + 0x2d0]\n 61427: a4 = u64 [sp + 0x3a8]\n 61431: s1 = a0 - a4\n 61434: s1 = s1 - a3\n 61437: u64 [sp + 0x3a8] = s1\n 61441: a0 = u64 [sp + 0x308]\n 61445: u64 [sp + 0x390] = t2\n 61449: s1 = a0 ^ t2\n 61452: a3 = a0 <u t2\n 61455: t2 = u64 [sp + 0x310]\n 61459: a4 = t2 <u a2\n 61462: a3 = a4 if s1 == 0\n 61465: a2 = u64 [sp + 0x300]\n 61469: s1 = a2 <u a5\n 61472: a5 = a2 - a5\n 61475: t0 = a5 <u a3\n 61478: t0 = t0 + s1\n 61481: s1 = a1\n 61483: a1 = u64 [sp + 0x3a8]\n 61487: a1 = a1 - t0\n 61490: u64 [sp + 0x3a0] = a1\n 61494: a2 = a5 - a3\n 61497: a3 = a0 - a4\n 61500: a0 = u64 [sp + 0x390]\n 61504: a3 = a3 - a0\n 61507: a0 = u64 [sp + 0x380]\n 61511: a0 = t2 - a0\n 61514: u64 [sp + 0x3a8] = a0\n 61518: a1 = u64 [sp + 0x268]\n 61522: a1 = a1 & 0xffffffffffffffff\n 61525: u64 [sp + 0x380] = a1\n 61529: a1 = u64 [sp + 0x210]\n 61533: a0 = a1 & 0xffffffffffffffff\n 61536: u64 [sp + 0x378] = a0\n 61540: a1 = u64 [sp + 0x388]\n 61544: jump @300\n      : @299 (gas: 35)\n 61546: a4 = u64 [sp + 0x3b8]\n 61550: a0 = u64 [sp + 0x3a8]\n 61554: a4 = a4 + a0\n 61557: a0 = a4 <u a0\n 61560: a5 = u64 [sp + 0x3b0]\n 61564: a5 = a5 + a3\n 61567: a5 = a5 + a0\n 61570: a2 = a5 ^ a3\n 61573: a3 = a5 <u a3\n 61576: a3 = a0 if a2 == 0\n 61579: a0 = a5 + 0x1\n 61582: a2 = a5 <u 0xffffffffffffffff\n 61585: t2 = a4 <u 0xffffffffffffffff\n 61588: t2 = a2 if a0 != 0\n 61591: a0 = ra <u 0x1\n 61594: t0 = t1 - a0\n 61597: a0 = ra | t1\n 61600: a0 = a0 <u 0x1\n 61603: a2 = s1 <u a0\n 61606: a0 = s1 - a0\n 61609: a1 = a1 - a2\n 61612: s1 = u64 [sp + 0x390]\n 61616: a2 = s1 + a3\n 61619: a3 = a2 <u s1\n 61622: s1 = u64 [sp + 0x3a0]\n 61626: s1 = s1 + a3\n 61629: u64 [sp + 0x3a0] = s1\n 61633: a3 = a2 | s1\n 61636: t2 = 0 if a3 != 0\n 61638: ra = ra + 0xffffffffffffffff\n 61641: t1 = t0\n 61643: s1 = a0\n 61645: u64 [sp + 0x3a8] = a4\n 61649: a3 = a5\n 61651: jump @303 if t2 == 0\n      : @300 (gas: 11)\n 61655: u64 [sp + 0x390] = a2\n 61659: a4 = s1 >u 0\n 61661: a5 = a1 >u 0\n 61663: a5 = a4 if a1 == 0\n 61666: a4 = t1 + 0x1\n 61669: a0 = ra + 0x1\n 61672: a0 = a0 <u 0x1\n 61675: a0 = 0 if a4 != 0\n 61677: a4 = s1 | a1\n 61680: a0 = a5 if a4 != 0\n 61683: jump @299 if a0 != 0\n      : @301 (gas: 56)\n 61687: t2 = s1\n 61689: s1 = u64 [sp + 0x338]\n 61693: a0 = ra mulhu s1\n 61696: a4 = t1 * s1\n 61699: a0 = a0 + a4\n 61702: a4 = a0 <u a4\n 61705: a5 = t1 mulhu s1\n 61708: a2 = a5 + a4\n 61711: u64 [sp + 0x388] = a1\n 61715: a1 = u64 [sp + 0x340]\n 61719: a4 = ra * a1\n 61722: u64 [sp + 0x398] = t1\n 61726: t1 = a4 + a0\n 61729: a4 = t1 <u a4\n 61732: a0 = ra mulhu a1\n 61735: a0 = a0 + a4\n 61738: a5 = a2 + a0\n 61741: a0 = u64 [sp + 0x398]\n 61745: a4 = a0 * a1\n 61748: a0 = a4 + a5\n 61751: a4 = a0 <u a4\n 61754: a2 = a5 <u a2\n 61757: a5 = u64 [sp + 0x398]\n 61761: a5 = a5 mulhu a1\n 61764: a2 = a2 + a5\n 61767: a2 = a2 + a4\n 61770: a4 = s1 mulhu t2\n 61773: a5 = u64 [sp + 0x388]\n 61777: a5 = s1 * a5\n 61780: a4 = a4 + a5\n 61783: a5 = a1 * t2\n 61786: a1 = u64 [sp + 0x388]\n 61790: a4 = a4 + a5\n 61793: a5 = s1 * t2\n 61796: a5 = a5 + a0\n 61799: a0 = a5 <u a0\n 61802: a2 = a2 + a4\n 61805: a0 = a0 + a2\n 61808: t0 = ra * s1\n 61811: s1 = t2\n 61813: a2 = u64 [sp + 0x378]\n 61817: a4 = t1 ^ a2\n 61820: t2 = a2 <u t1\n 61823: t1 = u64 [sp + 0x398]\n 61827: a2 = u64 [sp + 0x380]\n 61831: a2 = a2 <u t0\n 61834: a2 = t2 if a4 != 0\n 61837: t0 = a0 ^ a3\n 61840: t2 = a3 <u a0\n 61843: a4 = u64 [sp + 0x3a8]\n 61847: a0 = a4 <u a5\n 61850: a0 = t2 if t0 != 0\n 61853: a5 = a5 ^ a4\n 61856: a4 = a5 | t0\n 61859: a2 = a0 if a4 != 0\n 61862: jump @299 if a2 != 0\n      : @302 (gas: 2)\n 61866: t0 = t1\n 61868: fallthrough\n      : @303 (gas: 321)\n 61869: a1 = t0 & 0xffffffffffffffff\n 61872: a0 = ra & 0xffffffffffffffff\n 61875: t1 = u64 [sp + 0x338]\n 61879: a2 = a0 mulhu t1\n 61882: a3 = a1 * t1\n 61885: a2 = a2 + a3\n 61888: a3 = a2 <u a3\n 61891: a4 = a1 mulhu t1\n 61894: t0 = a4 + a3\n 61897: s1 = u64 [sp + 0x340]\n 61901: a4 = a0 * s1\n 61904: ra = a4 + a2\n 61907: a4 = ra <u a4\n 61910: a5 = a0 mulhu s1\n 61913: a4 = a4 + a5\n 61916: a3 = t0 + a4\n 61919: a5 = a1 * s1\n 61922: a4 = a5 + a3\n 61925: a3 = a3 <u t0\n 61928: s1 = a1 mulhu s1\n 61931: t0 = s1 + a3\n 61934: a3 = u64 [sp + 0x3b8]\n 61938: s1 = a3 * a0\n 61941: s1 = s1 + a4\n 61944: a5 = a4 <u a5\n 61947: a4 = s1 <u a4\n 61950: t0 = t0 + a5\n 61953: a1 = a3 * a1\n 61956: a5 = a3 mulhu a0\n 61959: a1 = a1 + a5\n 61962: a5 = u64 [sp + 0x3b0]\n 61966: a5 = a5 * a0\n 61969: a1 = a1 + a5\n 61972: a1 = a1 + t0\n 61975: t0 = a1 + a4\n 61978: t2 = a0 * t1\n 61981: a1 = u64 [sp + 0x310]\n 61985: a0 = a1 <u s1\n 61988: a4 = u64 [sp + 0x308]\n 61992: t1 = a4 - a0\n 61995: a4 = u64 [sp + 0x378]\n 61999: a0 = a4 ^ ra\n 62002: a5 = a4 <u ra\n 62005: a3 = u64 [sp + 0x380]\n 62009: a2 = a3 <u t2\n 62012: a5 = a2 if a0 == 0\n 62015: a1 = a1 - s1\n 62018: s1 = a1 <u a5\n 62021: a0 = t1 - s1\n 62024: a0 = a0 - t0\n 62027: a1 = a1 - a5\n 62030: a4 = a4 - a2\n 62033: a2 = a4 - ra\n 62036: a3 = a3 - t2\n 62039: a4 = sp + 0x1000\n 62043: u8 [a4 + 4294965535] = 0\n 62047: a4 = sp + 0x1000\n 62051: u8 [a4 + 4294965534] = 0\n 62055: a4 = sp + 0x1000\n 62059: u8 [a4 + 4294965533] = 0\n 62063: a4 = sp + 0x1000\n 62067: u8 [a4 + 4294965532] = 0\n 62071: a4 = sp + 0x1000\n 62075: u8 [a4 + 4294965531] = 0\n 62079: a4 = sp + 0x1000\n 62083: u8 [a4 + 4294965530] = 0\n 62087: a4 = sp + 0x1000\n 62091: u8 [a4 + 4294965529] = 0\n 62095: a4 = sp + 0x1000\n 62099: u8 [a4 + 4294965528] = 0\n 62103: a4 = sp + 0x1000\n 62107: u8 [a4 + 4294965527] = 0\n 62111: a4 = sp + 0x1000\n 62115: u8 [a4 + 4294965526] = 0\n 62119: a4 = sp + 0x1000\n 62123: u8 [a4 + 4294965525] = 0\n 62127: a4 = sp + 0x1000\n 62131: u8 [a4 + 4294965524] = 0\n 62135: a4 = sp + 0x1000\n 62139: u8 [a4 + 4294965523] = 0\n 62143: a4 = sp + 0x1000\n 62147: u8 [a4 + 4294965522] = 0\n 62151: a4 = sp + 0x1000\n 62155: u8 [a4 + 4294965521] = 0\n 62159: a4 = sp + 0x1000\n 62163: u8 [a4 + 4294965520] = 0\n 62167: a4 = sp + 0x1000\n 62171: u8 [a4 + 4294965519] = 0\n 62175: a4 = sp + 0x1000\n 62179: u8 [a4 + 4294965518] = 0\n 62183: a4 = sp + 0x1000\n 62187: u8 [a4 + 4294965517] = 0\n 62191: a4 = sp + 0x1000\n 62195: u8 [a4 + 4294965516] = 0\n 62199: a4 = sp + 0x1000\n 62203: u8 [a4 + 4294965515] = 0\n 62207: a4 = sp + 0x1000\n 62211: u8 [a4 + 4294965514] = 0\n 62215: a4 = sp + 0x1000\n 62219: u8 [a4 + 4294965513] = 0\n 62223: a4 = sp + 0x1000\n 62227: u8 [a4 + 4294965512] = 0\n 62231: a4 = sp + 0x1000\n 62235: u8 [a4 + 4294965511] = 0\n 62239: a4 = sp + 0x1000\n 62243: u8 [a4 + 4294965510] = 0\n 62247: a4 = sp + 0x1000\n 62251: u8 [a4 + 4294965509] = 0\n 62255: a4 = sp + 0x1000\n 62259: u8 [a4 + 4294965508] = 0\n 62263: a4 = sp + 0x1000\n 62267: u8 [a4 + 4294965507] = 0\n 62271: a4 = sp + 0x1000\n 62275: u8 [a4 + 4294965506] = 0\n 62279: a4 = sp + 0x1000\n 62283: u8 [a4 + 4294965505] = 0\n 62287: a4 = sp + 0x1000\n 62291: u8 [a4 + 4294965504] = 0\n 62295: a4 = sp + 0x1000\n 62299: u8 [a4 + 0xfffffffffffff8e0] = a3\n 62303: a4 = a3 >> 0x38\n 62306: a5 = sp + 0x1000\n 62310: u8 [a5 + 0xfffffffffffff8e7] = a4\n 62314: a4 = a3 >> 0x30\n 62317: a5 = sp + 0x1000\n 62321: u8 [a5 + 0xfffffffffffff8e6] = a4\n 62325: a4 = a3 >> 0x28\n 62328: a5 = sp + 0x1000\n 62332: u8 [a5 + 0xfffffffffffff8e5] = a4\n 62336: a4 = a3 >> 0x20\n 62339: a5 = sp + 0x1000\n 62343: u8 [a5 + 0xfffffffffffff8e4] = a4\n 62347: a4 = a3 >> 0x18\n 62350: a5 = sp + 0x1000\n 62354: u8 [a5 + 0xfffffffffffff8e3] = a4\n 62358: a4 = a3 >> 0x10\n 62361: a5 = sp + 0x1000\n 62365: u8 [a5 + 0xfffffffffffff8e2] = a4\n 62369: a3 = a3 >> 0x8\n 62372: a4 = sp + 0x1000\n 62376: u8 [a4 + 0xfffffffffffff8e1] = a3\n 62380: a3 = sp + 0x1000\n 62384: u8 [a3 + 0xfffffffffffff8e8] = a2\n 62388: a3 = a2 >> 0x38\n 62391: a4 = sp + 0x1000\n 62395: u8 [a4 + 0xfffffffffffff8ef] = a3\n 62399: a3 = a2 >> 0x30\n 62402: a4 = sp + 0x1000\n 62406: u8 [a4 + 0xfffffffffffff8ee] = a3\n 62410: a3 = a2 >> 0x28\n 62413: a4 = sp + 0x1000\n 62417: u8 [a4 + 0xfffffffffffff8ed] = a3\n 62421: a3 = a2 >> 0x20\n 62424: a4 = sp + 0x1000\n 62428: u8 [a4 + 0xfffffffffffff8ec] = a3\n 62432: a3 = a2 >> 0x18\n 62435: a4 = sp + 0x1000\n 62439: u8 [a4 + 0xfffffffffffff8eb] = a3\n 62443: a3 = a2 >> 0x10\n 62446: a4 = sp + 0x1000\n 62450: u8 [a4 + 0xfffffffffffff8ea] = a3\n 62454: a2 = a2 >> 0x8\n 62457: a3 = sp + 0x1000\n 62461: u8 [a3 + 0xfffffffffffff8e9] = a2\n 62465: a2 = sp + 0x1000\n 62469: u8 [a2 + 0xfffffffffffff8f0] = a1\n 62473: a2 = a1 >> 0x38\n 62476: a3 = sp + 0x1000\n 62480: u8 [a3 + 0xfffffffffffff8f7] = a2\n 62484: a2 = a1 >> 0x30\n 62487: a3 = sp + 0x1000\n 62491: u8 [a3 + 0xfffffffffffff8f6] = a2\n 62495: a2 = a1 >> 0x28\n 62498: a3 = sp + 0x1000\n 62502: u8 [a3 + 0xfffffffffffff8f5] = a2\n 62506: a2 = a1 >> 0x20\n 62509: a3 = sp + 0x1000\n 62513: u8 [a3 + 0xfffffffffffff8f4] = a2\n 62517: a2 = a1 >> 0x18\n 62520: a3 = sp + 0x1000\n 62524: u8 [a3 + 0xfffffffffffff8f3] = a2\n 62528: a2 = a1 >> 0x10\n 62531: a3 = sp + 0x1000\n 62535: u8 [a3 + 0xfffffffffffff8f2] = a2\n 62539: a1 = a1 >> 0x8\n 62542: a2 = sp + 0x1000\n 62546: u8 [a2 + 0xfffffffffffff8f1] = a1\n 62550: a1 = sp + 0x1000\n 62554: u8 [a1 + 0xfffffffffffff8f8] = a0\n 62558: a1 = a0 >> 0x38\n 62561: a2 = sp + 0x1000\n 62565: u8 [a2 + 0xfffffffffffff8ff] = a1\n 62569: a1 = a0 >> 0x30\n 62572: a2 = sp + 0x1000\n 62576: u8 [a2 + 0xfffffffffffff8fe] = a1\n 62580: a1 = a0 >> 0x28\n 62583: a2 = sp + 0x1000\n 62587: u8 [a2 + 0xfffffffffffff8fd] = a1\n 62591: a1 = a0 >> 0x20\n 62594: a2 = sp + 0x1000\n 62598: u8 [a2 + 0xfffffffffffff8fc] = a1\n 62602: a1 = a0 >> 0x18\n 62605: a2 = sp + 0x1000\n 62609: u8 [a2 + 0xfffffffffffff8fb] = a1\n 62613: a1 = a0 >> 0x10\n 62616: a2 = sp + 0x1000\n 62620: u8 [a2 + 0xfffffffffffff8fa] = a1\n 62624: a0 = a0 >> 0x8\n 62627: a1 = sp + 0x1000\n 62631: u8 [a1 + 0xfffffffffffff8f9] = a0\n 62635: a0 = u64 [sp + 0x1f0]\n 62639: a1 = sp + 0x7ff\n 62643: a1 = a1 + 0xe1\n 62647: a0 = a0 + a1\n 62650: a1 = u8 [a0 + 0x11]\n 62653: a2 = u8 [a0 + 0x10]\n 62656: a3 = u8 [a0 + 0x12]\n 62659: a4 = u8 [a0 + 0x13]\n 62662: a1 = a1 << 0x8\n 62665: a1 = a1 | a2\n 62668: a3 = a3 << 0x10\n 62671: a4 = a4 << 0x18\n 62674: a3 = a3 | a4\n 62677: a1 = a1 | a3\n 62680: a2 = u8 [a0 + 0x15]\n 62683: a3 = u8 [a0 + 0x14]\n 62686: a4 = u8 [a0 + 0x16]\n 62689: a5 = u8 [a0 + 0x17]\n 62692: a2 = a2 << 0x8\n 62695: a2 = a2 | a3\n 62698: a4 = a4 << 0x10\n 62701: a5 = a5 << 0x18\n 62704: a4 = a4 | a5\n 62707: a2 = a2 | a4\n 62710: a2 = a2 << 0x20\n 62713: t0 = a2 | a1\n 62716: t1 = u64 [sp + 0x200]\n 62720: a3 = t0 >> t1\n 62723: a1 = u8 [a0 + 0x19]\n 62726: a4 = u8 [a0 + 0x18]\n 62729: a5 = u8 [a0 + 0x1a]\n 62732: s1 = u8 [a0 + 0x1b]\n 62735: a1 = a1 << 0x8\n 62738: a1 = a1 | a4\n 62741: a5 = a5 << 0x10\n 62744: s1 = s1 << 0x18\n 62747: a5 = a5 | s1\n 62750: a1 = a1 | a5\n 62753: a4 = u8 [a0 + 0x1d]\n 62756: a5 = u8 [a0 + 0x1c]\n 62759: s1 = u8 [a0 + 0x1e]\n 62762: a2 = u8 [a0 + 0x1f]\n 62765: a4 = a4 << 0x8\n 62768: a4 = a4 | a5\n 62771: s1 = s1 << 0x10\n 62774: a2 = a2 << 0x18\n 62777: a2 = a2 | s1\n 62780: a2 = a2 | a4\n 62783: a2 = a2 << 0x20\n 62786: t2 = a2 | a1\n 62789: a2 = t2 << 0x1\n 62792: a1 = u64 [sp + 0x1f8]\n 62796: a2 = a2 << a1\n 62799: a2 = a2 | a3\n 62802: u64 [sp + 0x2d0] = a2\n 62806: a2 = u8 [a0 + 0x9]\n 62809: a3 = u8 [a0 + 0x8]\n 62812: a4 = u8 [a0 + 0xa]\n 62815: a5 = u8 [a0 + 0xb]\n 62818: a2 = a2 << 0x8\n 62821: a2 = a2 | a3\n 62824: a4 = a4 << 0x10\n 62827: a5 = a5 << 0x18\n 62830: a4 = a4 | a5\n 62833: a2 = a2 | a4\n 62836: a3 = u8 [a0 + 0xd]\n 62839: a4 = u8 [a0 + 0xc]\n 62842: a5 = u8 [a0 + 0xe]\n 62845: s1 = u8 [a0 + 0xf]\n 62848: a3 = a3 << 0x8\n 62851: a3 = a3 | a4\n 62854: a5 = a5 << 0x10\n 62857: s1 = s1 << 0x18\n 62860: a5 = a5 | s1\n 62863: a3 = a3 | a5\n 62866: a3 = a3 << 0x20\n 62869: a3 = a3 | a2\n 62872: a2 = a3 >> t1\n 62875: t0 = t0 << 0x1\n 62878: a4 = u64 [sp + 0x1e8]\n 62882: a4 = t0 << a4\n 62885: ra = a2 | a4\n 62888: a2 = u8 [a0 + 0x1]\n 62891: a4 = u8 [a0]\n 62893: a5 = u8 [a0 + 0x2]\n 62896: s1 = u8 [a0 + 0x3]\n 62899: a2 = a2 << 0x8\n 62902: a2 = a2 | a4\n 62905: a5 = a5 << 0x10\n 62908: s1 = s1 << 0x18\n 62911: a5 = a5 | s1\n 62914: a2 = a2 | a5\n 62917: a4 = u8 [a0 + 0x5]\n 62920: a5 = u8 [a0 + 0x4]\n 62923: s1 = u8 [a0 + 0x6]\n 62926: a0 = u8 [a0 + 0x7]\n 62929: a4 = a4 << 0x8\n 62932: a4 = a4 | a5\n 62935: s1 = s1 << 0x10\n 62938: a0 = a0 << 0x18\n 62941: a0 = a0 | s1\n 62944: a0 = a0 | a4\n 62947: a0 = a0 << 0x20\n 62950: a0 = a0 | a2\n 62953: a0 = a0 >> t1\n 62956: a3 = a3 << 0x1\n 62959: a2 = a3 << a1\n 62962: a1 = u64 [sp + 0x2d0]\n 62966: a0 = a0 | a2\n 62969: t1 = t2 >> t1\n 62972: fallthrough\n      : @304 (gas: 61)\n 62973: a2 = a0\n 62975: a0 = a0 | a1\n 62978: a3 = a2\n 62980: u64 [sp + 0x258] = a2\n 62984: t2 = a1\n 62986: a1 = ra | t1\n 62989: a0 = a0 | a1\n 62992: a0 = a0 <u 0x1\n 62995: a1 = u64 [sp + 0x320]\n 62999: a0 = a0 | a1\n 63002: u64 [sp + 0x3a8] = a0\n 63006: a1 = clz t2\n 63008: a2 = a1 + 0x40\n 63011: a1 = clz t1\n 63013: a1 = a2 if t1 == 0\n 63016: a2 = clz a3\n 63018: a2 = a2 + 0x40\n 63021: a3 = clz ra\n 63023: a3 = a2 if ra == 0\n 63026: a2 = a3 + 0x80\n 63030: a4 = t2 | t1\n 63033: a1 = a2 if a4 == 0\n 63036: a2 = a2 <u a3\n 63039: a2 = 0 if a4 != 0\n 63041: a3 = u64 [sp + 0x330]\n 63045: a4 = a3 ^ a2\n 63048: a5 = a3 <u a2\n 63051: a0 = u64 [sp + 0x328]\n 63055: s1 = a0 <u a1\n 63058: a5 = s1 if a4 == 0\n 63061: a4 = a5 <u 0x1\n 63064: t0 = a4 + 0xffffffffffffffff\n 63067: a4 = -a5\n 63069: a3 = a3 - a2\n 63072: s1 = a3 - s1\n 63075: a0 = a0 - a1\n 63078: a3 = a4\n 63080: a1 = a4 >u 0\n 63082: a4 = t0\n 63084: a2 = t0 >u 0\n 63086: a2 = a1 if t0 == 0\n 63089: a1 = s1 >u 0\n 63091: u64 [sp + 0x3a0] = a0\n 63095: a0 = a0 <u 0x100\n 63099: a0 = a0 ^ 0x1\n 63102: a0 = a1 if s1 != 0\n 63105: a0 = a2 if a5 != 0\n 63108: a5 = u64 [sp + 0x3a8]\n 63112: a5 = a5 | a0\n 63115: u64 [sp + 0x260] = t1\n 63119: t1 = 0 if a5 != 0\n 63121: u64 [sp + 0x2d0] = t2\n 63125: t0 = t2\n 63127: t0 = 0 if a5 != 0\n 63129: u64 [sp + 0x268] = ra\n 63133: a2 = ra\n 63135: a2 = 0 if a5 != 0\n 63137: ra = u64 [sp + 0x258]\n 63141: a0 = ra\n 63143: a0 = 0 if a5 != 0\n 63145: jump @312 if a5 != 0\n      : @305 (gas: 7)\n 63149: a1 = u64 [sp + 0x3a0]\n 63153: a5 = a1 ^ 0xff\n 63157: t2 = a3\n 63159: a5 = a5 | a3\n 63162: a3 = s1 | a4\n 63165: a3 = a3 | a5\n 63168: jump @312 if a3 == 0\n      : @306 (gas: 322)\n 63172: a2 = u64 [sp + 0x3a0]\n 63176: a1 = a2 + 0x1\n 63179: u64 [sp + 0x3a8] = a1\n 63183: a0 = a1 <u 0x1\n 63186: a0 = a0 + s1\n 63189: u64 [sp + 0x380] = a0\n 63193: a0 = a0 | a1\n 63196: a0 = a0 <u 0x1\n 63199: a0 = a0 + t2\n 63202: u64 [sp + 0x370] = a0\n 63206: a0 = a0 <u t2\n 63209: a0 = a0 + a4\n 63212: u64 [sp + 0x378] = a0\n 63216: t0 = 0xff - a2\n 63220: a0 = sp + 0x1000\n 63224: u8 [a0 + 0xfffffffffffff8c0] = ra\n 63228: a0 = sp + 0x1000\n 63232: u8 [a0 + 4294965439] = 0\n 63236: a0 = sp + 0x1000\n 63240: u8 [a0 + 4294965438] = 0\n 63244: a0 = sp + 0x1000\n 63248: u8 [a0 + 4294965437] = 0\n 63252: a0 = sp + 0x1000\n 63256: u8 [a0 + 4294965436] = 0\n 63260: a0 = sp + 0x1000\n 63264: u8 [a0 + 4294965435] = 0\n 63268: a0 = sp + 0x1000\n 63272: u8 [a0 + 4294965434] = 0\n 63276: a0 = sp + 0x1000\n 63280: u8 [a0 + 4294965433] = 0\n 63284: a0 = sp + 0x1000\n 63288: u8 [a0 + 4294965432] = 0\n 63292: a0 = sp + 0x1000\n 63296: u8 [a0 + 4294965431] = 0\n 63300: a0 = sp + 0x1000\n 63304: u8 [a0 + 4294965430] = 0\n 63308: a0 = sp + 0x1000\n 63312: u8 [a0 + 4294965429] = 0\n 63316: a0 = sp + 0x1000\n 63320: u8 [a0 + 4294965428] = 0\n 63324: a0 = sp + 0x1000\n 63328: u8 [a0 + 4294965427] = 0\n 63332: a0 = sp + 0x1000\n 63336: u8 [a0 + 4294965426] = 0\n 63340: a0 = sp + 0x1000\n 63344: u8 [a0 + 4294965425] = 0\n 63348: a0 = sp + 0x1000\n 63352: u8 [a0 + 4294965424] = 0\n 63356: a0 = sp + 0x1000\n 63360: u8 [a0 + 4294965423] = 0\n 63364: a0 = sp + 0x1000\n 63368: u8 [a0 + 4294965422] = 0\n 63372: a0 = sp + 0x1000\n 63376: u8 [a0 + 4294965421] = 0\n 63380: a0 = sp + 0x1000\n 63384: u8 [a0 + 4294965420] = 0\n 63388: a0 = sp + 0x1000\n 63392: u8 [a0 + 4294965419] = 0\n 63396: a0 = sp + 0x1000\n 63400: u8 [a0 + 4294965418] = 0\n 63404: a0 = sp + 0x1000\n 63408: u8 [a0 + 4294965417] = 0\n 63412: a0 = sp + 0x1000\n 63416: u8 [a0 + 4294965416] = 0\n 63420: a0 = sp + 0x1000\n 63424: u8 [a0 + 4294965415] = 0\n 63428: a0 = sp + 0x1000\n 63432: u8 [a0 + 4294965414] = 0\n 63436: a0 = sp + 0x1000\n 63440: u8 [a0 + 4294965413] = 0\n 63444: a0 = sp + 0x1000\n 63448: u8 [a0 + 4294965412] = 0\n 63452: a0 = sp + 0x1000\n 63456: u8 [a0 + 4294965411] = 0\n 63460: a0 = sp + 0x1000\n 63464: u8 [a0 + 4294965410] = 0\n 63468: a0 = sp + 0x1000\n 63472: u8 [a0 + 4294965409] = 0\n 63476: a0 = sp + 0x1000\n 63480: u8 [a0 + 4294965408] = 0\n 63484: a0 = u64 [sp + 0x268]\n 63488: a1 = sp + 0x1000\n 63492: u8 [a1 + 0xfffffffffffff8c8] = a0\n 63496: a1 = ra >> 0x38\n 63499: u64 [sp + 0x210] = a1\n 63503: a2 = sp + 0x1000\n 63507: u8 [a2 + 0xfffffffffffff8c7] = a1\n 63511: a1 = ra >> 0x30\n 63514: u64 [sp + 0x208] = a1\n 63518: a2 = sp + 0x1000\n 63522: u8 [a2 + 0xfffffffffffff8c6] = a1\n 63526: a1 = ra >> 0x28\n 63529: u64 [sp + 0x1d0] = a1\n 63533: a2 = sp + 0x1000\n 63537: u8 [a2 + 0xfffffffffffff8c5] = a1\n 63541: a1 = ra >> 0x20\n 63544: u64 [sp + 0x1c8] = a1\n 63548: a2 = sp + 0x1000\n 63552: u8 [a2 + 0xfffffffffffff8c4] = a1\n 63556: a1 = ra >> 0x18\n 63559: u64 [sp + 0x1c0] = a1\n 63563: a2 = sp + 0x1000\n 63567: u8 [a2 + 0xfffffffffffff8c3] = a1\n 63571: a1 = ra >> 0x10\n 63574: u64 [sp + 0x1b8] = a1\n 63578: a2 = sp + 0x1000\n 63582: u8 [a2 + 0xfffffffffffff8c2] = a1\n 63586: a1 = ra >> 0x8\n 63589: u64 [sp + 0x1b0] = a1\n 63593: a2 = sp + 0x1000\n 63597: u8 [a2 + 0xfffffffffffff8c1] = a1\n 63601: t2 = u64 [sp + 0x2d0]\n 63605: a1 = sp + 0x1000\n 63609: u8 [a1 + 0xfffffffffffff8d0] = t2\n 63613: a1 = a0 >> 0x38\n 63616: u64 [sp + 0x1a8] = a1\n 63620: a2 = sp + 0x1000\n 63624: u8 [a2 + 0xfffffffffffff8cf] = a1\n 63628: a1 = a0 >> 0x30\n 63631: u64 [sp + 0x1a0] = a1\n 63635: a2 = sp + 0x1000\n 63639: u8 [a2 + 0xfffffffffffff8ce] = a1\n 63643: a1 = a0 >> 0x28\n 63646: u64 [sp + 0x198] = a1\n 63650: a2 = sp + 0x1000\n 63654: u8 [a2 + 0xfffffffffffff8cd] = a1\n 63658: a1 = a0 >> 0x20\n 63661: u64 [sp + 0x190] = a1\n 63665: a2 = sp + 0x1000\n 63669: u8 [a2 + 0xfffffffffffff8cc] = a1\n 63673: a1 = a0 >> 0x18\n 63676: u64 [sp + 0x188] = a1\n 63680: a2 = sp + 0x1000\n 63684: u8 [a2 + 0xfffffffffffff8cb] = a1\n 63688: a1 = a0 >> 0x10\n 63691: u64 [sp + 0x180] = a1\n 63695: a2 = sp + 0x1000\n 63699: u8 [a2 + 0xfffffffffffff8ca] = a1\n 63703: a0 = a0 >> 0x8\n 63706: u64 [sp + 0x178] = a0\n 63710: a1 = sp + 0x1000\n 63714: u8 [a1 + 0xfffffffffffff8c9] = a0\n 63718: a0 = u64 [sp + 0x260]\n 63722: a1 = sp + 0x1000\n 63726: u8 [a1 + 0xfffffffffffff8d8] = a0\n 63730: a1 = t2 >> 0x38\n 63733: u64 [sp + 0x170] = a1\n 63737: a2 = sp + 0x1000\n 63741: u8 [a2 + 0xfffffffffffff8d7] = a1\n 63745: a1 = t2 >> 0x30\n 63748: u64 [sp + 0x168] = a1\n 63752: a2 = sp + 0x1000\n 63756: u8 [a2 + 0xfffffffffffff8d6] = a1\n 63760: a1 = t2 >> 0x28\n 63763: u64 [sp + 0x160] = a1\n 63767: a2 = sp + 0x1000\n 63771: u8 [a2 + 0xfffffffffffff8d5] = a1\n 63775: a1 = t2 >> 0x20\n 63778: u64 [sp + 0x158] = a1\n 63782: a2 = sp + 0x1000\n 63786: u8 [a2 + 0xfffffffffffff8d4] = a1\n 63790: a1 = t2 >> 0x18\n 63793: u64 [sp + 0x150] = a1\n 63797: a2 = sp + 0x1000\n 63801: u8 [a2 + 0xfffffffffffff8d3] = a1\n 63805: a1 = t2 >> 0x10\n 63808: u64 [sp + 0x358] = a1\n 63812: a2 = sp + 0x1000\n 63816: u8 [a2 + 0xfffffffffffff8d2] = a1\n 63820: a1 = t2 >> 0x8\n 63823: u64 [sp + 0x350] = a1\n 63827: a2 = sp + 0x1000\n 63831: u8 [a2 + 0xfffffffffffff8d1] = a1\n 63835: a1 = a0 >> 0x38\n 63838: u64 [sp + 0x348] = a1\n 63842: a2 = sp + 0x1000\n 63846: u8 [a2 + 0xfffffffffffff8df] = a1\n 63850: a1 = a0 >> 0x30\n 63853: u64 [sp + 0x318] = a1\n 63857: a2 = sp + 0x1000\n 63861: u8 [a2 + 0xfffffffffffff8de] = a1\n 63865: a1 = a0 >> 0x28\n 63868: u64 [sp + 0x310] = a1\n 63872: a2 = sp + 0x1000\n 63876: u8 [a2 + 0xfffffffffffff8dd] = a1\n 63880: a1 = a0 >> 0x20\n 63883: u64 [sp + 0x308] = a1\n 63887: a2 = sp + 0x1000\n 63891: u8 [a2 + 0xfffffffffffff8dc] = a1\n 63895: a1 = a0 >> 0x18\n 63898: u64 [sp + 0x300] = a1\n 63902: a2 = sp + 0x1000\n 63906: u8 [a2 + 0xfffffffffffff8db] = a1\n 63910: a1 = a0 >> 0x10\n 63913: u64 [sp + 0x220] = a1\n 63917: a2 = sp + 0x1000\n 63921: u8 [a2 + 0xfffffffffffff8da] = a1\n 63925: a0 = a0 >> 0x8\n 63928: u64 [sp + 0x218] = a0\n 63932: a1 = sp + 0x1000\n 63936: u8 [a1 + 0xfffffffffffff8d9] = a0\n 63940: a0 = t0 << 0x38\n 63943: a0 = a0 >> 0x3b\n 63946: a2 = sp + 0x7ff\n 63950: a2 = a2 + 0xc1\n 63954: a2 = a2 - a0\n 63957: a0 = u8 [a2 + 0x19]\n 63960: a3 = u8 [a2 + 0x18]\n 63963: a4 = u8 [a2 + 0x1a]\n 63966: a5 = u8 [a2 + 0x1b]\n 63969: a0 = a0 << 0x8\n 63972: a0 = a0 | a3\n 63975: a4 = a4 << 0x10\n 63978: a5 = a5 << 0x18\n 63981: a4 = a4 | a5\n 63984: a0 = a0 | a4\n 63987: a3 = u8 [a2 + 0x1d]\n 63990: a4 = u8 [a2 + 0x1c]\n 63993: a5 = u8 [a2 + 0x1e]\n 63996: s1 = u8 [a2 + 0x1f]\n 63999: a3 = a3 << 0x8\n 64002: a3 = a3 | a4\n 64005: a5 = a5 << 0x10\n 64008: s1 = s1 << 0x18\n 64011: a5 = a5 | s1\n 64014: a3 = a3 | a5\n 64017: a3 = a3 << 0x20\n 64020: a4 = a3 | a0\n 64023: a0 = u8 [a2 + 0x11]\n 64026: a3 = u8 [a2 + 0x10]\n 64029: a5 = u8 [a2 + 0x12]\n 64032: s1 = u8 [a2 + 0x13]\n 64035: a0 = a0 << 0x8\n 64038: a0 = a0 | a3\n 64041: a5 = a5 << 0x10\n 64044: s1 = s1 << 0x18\n 64047: a5 = a5 | s1\n 64050: a0 = a0 | a5\n 64053: a3 = u8 [a2 + 0x15]\n 64056: a5 = u8 [a2 + 0x14]\n 64059: s1 = u8 [a2 + 0x16]\n 64062: a1 = u8 [a2 + 0x17]\n 64065: a3 = a3 << 0x8\n 64068: a3 = a3 | a5\n 64071: s1 = s1 << 0x10\n 64074: a1 = a1 << 0x18\n 64077: a1 = a1 | s1\n 64080: a1 = a1 | a3\n 64083: a1 = a1 << 0x20\n 64086: t1 = a1 | a0\n 64089: a1 = t0 & 0x7\n 64092: a0 = a4 << a1\n 64095: a3 = t1 >> 0x1\n 64098: t0 = a1 ^ 0x3f\n 64101: a3 = a3 >> t0\n 64104: a0 = a0 | a3\n 64107: u64 [sp + 0x3a0] = a0\n 64111: a0 = u8 [a2 + 0x9]\n 64114: a3 = u8 [a2 + 0x8]\n 64117: s1 = u8 [a2 + 0xa]\n 64120: a4 = u8 [a2 + 0xb]\n 64123: a0 = a0 << 0x8\n 64126: a0 = a0 | a3\n 64129: s1 = s1 << 0x10\n 64132: a4 = a4 << 0x18\n 64135: a4 = a4 | s1\n 64138: a0 = a0 | a4\n 64141: a3 = u8 [a2 + 0xd]\n 64144: a4 = u8 [a2 + 0xc]\n 64147: s1 = u8 [a2 + 0xe]\n 64150: a5 = u8 [a2 + 0xf]\n 64153: a3 = a3 << 0x8\n 64156: a3 = a3 | a4\n 64159: s1 = s1 << 0x10\n 64162: a5 = a5 << 0x18\n 64165: a5 = a5 | s1\n 64168: a3 = a3 | a5\n 64171: a3 = a3 << 0x20\n 64174: s1 = a3 | a0\n 64177: a0 = s1 >> 0x1\n 64180: a3 = a1 ^ 0xffffffffffffffff\n 64183: a0 = a0 >> a3\n 64186: a3 = t1 << a1\n 64189: a0 = a0 | a3\n 64192: u64 [sp + 0x398] = a0\n 64196: a0 = u8 [a2 + 0x1]\n 64199: a3 = u8 [a2]\n 64201: a4 = u8 [a2 + 0x2]\n 64204: a5 = u8 [a2 + 0x3]\n 64207: a0 = a0 << 0x8\n 64210: a0 = a0 | a3\n 64213: a4 = a4 << 0x10\n 64216: a5 = a5 << 0x18\n 64219: a4 = a4 | a5\n 64222: a0 = a0 | a4\n 64225: a3 = u8 [a2 + 0x5]\n 64228: a4 = u8 [a2 + 0x4]\n 64231: a5 = u8 [a2 + 0x6]\n 64234: a2 = u8 [a2 + 0x7]\n 64237: a3 = a3 << 0x8\n 64240: a3 = a3 | a4\n 64243: a5 = a5 << 0x10\n 64246: a2 = a2 << 0x18\n 64249: a2 = a2 | a5\n 64252: a5 = u64 [sp + 0x378]\n 64256: a2 = a2 | a3\n 64259: a2 = a2 << 0x20\n 64262: a0 = a0 | a2\n 64265: a2 = a0 >> 0x1\n 64268: a2 = a2 >> t0\n 64271: t0 = u64 [sp + 0x370]\n 64275: a3 = s1 << a1\n 64278: a4 = u64 [sp + 0x380]\n 64282: a2 = a2 | a3\n 64285: u64 [sp + 0x388] = a2\n 64289: a2 = a4 | a5\n 64292: a3 = u64 [sp + 0x3a8]\n 64296: a3 = a3 | t0\n 64299: a2 = a2 | a3\n 64302: a0 = a0 << a1\n 64305: u64 [sp + 0x390] = a0\n 64309: jump @310 if a2 == 0\n      : @307 (gas: 288)\n 64313: u64 [sp + 872] = 0\n 64317: u64 [sp + 864] = 0\n 64321: a0 = u64 [sp + 0x210]\n 64325: a1 = sp + 0x1000\n 64329: u8 [a1 + 0xfffffffffffff867] = a0\n 64333: a0 = u64 [sp + 0x208]\n 64337: a1 = sp + 0x1000\n 64341: u8 [a1 + 0xfffffffffffff866] = a0\n 64345: a0 = u64 [sp + 0x1d0]\n 64349: a1 = sp + 0x1000\n 64353: u8 [a1 + 0xfffffffffffff865] = a0\n 64357: a0 = u64 [sp + 0x1c8]\n 64361: a1 = sp + 0x1000\n 64365: u8 [a1 + 0xfffffffffffff864] = a0\n 64369: a0 = u64 [sp + 0x1c0]\n 64373: a1 = sp + 0x1000\n 64377: u8 [a1 + 0xfffffffffffff863] = a0\n 64381: a0 = u64 [sp + 0x1b8]\n 64385: a1 = sp + 0x1000\n 64389: u8 [a1 + 0xfffffffffffff862] = a0\n 64393: a0 = u64 [sp + 0x1b0]\n 64397: a1 = sp + 0x1000\n 64401: u8 [a1 + 0xfffffffffffff861] = a0\n 64405: a0 = u64 [sp + 0x1a8]\n 64409: a1 = sp + 0x1000\n 64413: u8 [a1 + 0xfffffffffffff86f] = a0\n 64417: a0 = u64 [sp + 0x1a0]\n 64421: a1 = sp + 0x1000\n 64425: u8 [a1 + 0xfffffffffffff86e] = a0\n 64429: a0 = u64 [sp + 0x198]\n 64433: a1 = sp + 0x1000\n 64437: u8 [a1 + 0xfffffffffffff86d] = a0\n 64441: a0 = u64 [sp + 0x190]\n 64445: a1 = sp + 0x1000\n 64449: u8 [a1 + 0xfffffffffffff86c] = a0\n 64453: a0 = u64 [sp + 0x188]\n 64457: a1 = sp + 0x1000\n 64461: u8 [a1 + 0xfffffffffffff86b] = a0\n 64465: a0 = u64 [sp + 0x180]\n 64469: a1 = sp + 0x1000\n 64473: u8 [a1 + 0xfffffffffffff86a] = a0\n 64477: a0 = u64 [sp + 0x178]\n 64481: a1 = sp + 0x1000\n 64485: u8 [a1 + 0xfffffffffffff869] = a0\n 64489: a0 = u64 [sp + 0x170]\n 64493: a1 = sp + 0x1000\n 64497: u8 [a1 + 0xfffffffffffff877] = a0\n 64501: a0 = u64 [sp + 0x168]\n 64505: a1 = sp + 0x1000\n 64509: u8 [a1 + 0xfffffffffffff876] = a0\n 64513: a0 = u64 [sp + 0x160]\n 64517: a1 = sp + 0x1000\n 64521: u8 [a1 + 0xfffffffffffff875] = a0\n 64525: a0 = u64 [sp + 0x158]\n 64529: a1 = sp + 0x1000\n 64533: u8 [a1 + 0xfffffffffffff874] = a0\n 64537: a0 = u64 [sp + 0x150]\n 64541: a1 = sp + 0x1000\n 64545: u8 [a1 + 0xfffffffffffff873] = a0\n 64549: a0 = sp + 0x1000\n 64553: u8 [a0 + 4294965407] = 0\n 64557: a0 = sp + 0x1000\n 64561: u8 [a0 + 4294965406] = 0\n 64565: a0 = sp + 0x1000\n 64569: u8 [a0 + 4294965405] = 0\n 64573: a0 = sp + 0x1000\n 64577: u8 [a0 + 4294965404] = 0\n 64581: a0 = sp + 0x1000\n 64585: u8 [a0 + 4294965403] = 0\n 64589: a0 = sp + 0x1000\n 64593: u8 [a0 + 4294965402] = 0\n 64597: a0 = sp + 0x1000\n 64601: u8 [a0 + 4294965401] = 0\n 64605: a0 = sp + 0x1000\n 64609: u8 [a0 + 4294965400] = 0\n 64613: a0 = sp + 0x1000\n 64617: u8 [a0 + 4294965399] = 0\n 64621: a0 = sp + 0x1000\n 64625: u8 [a0 + 4294965398] = 0\n 64629: a0 = sp + 0x1000\n 64633: u8 [a0 + 4294965397] = 0\n 64637: a0 = sp + 0x1000\n 64641: u8 [a0 + 4294965396] = 0\n 64645: a0 = sp + 0x1000\n 64649: u8 [a0 + 4294965395] = 0\n 64653: a0 = sp + 0x1000\n 64657: u8 [a0 + 4294965394] = 0\n 64661: a0 = sp + 0x1000\n 64665: u8 [a0 + 4294965393] = 0\n 64669: a0 = sp + 0x1000\n 64673: u8 [a0 + 4294965392] = 0\n 64677: a0 = sp + 0x1000\n 64681: u8 [a0 + 4294965391] = 0\n 64685: a0 = sp + 0x1000\n 64689: u8 [a0 + 4294965390] = 0\n 64693: a0 = sp + 0x1000\n 64697: u8 [a0 + 4294965389] = 0\n 64701: a0 = sp + 0x1000\n 64705: u8 [a0 + 4294965388] = 0\n 64709: a0 = sp + 0x1000\n 64713: u8 [a0 + 4294965387] = 0\n 64717: a0 = sp + 0x1000\n 64721: u8 [a0 + 4294965386] = 0\n 64725: a0 = sp + 0x1000\n 64729: u8 [a0 + 4294965385] = 0\n 64733: a0 = sp + 0x1000\n 64737: u8 [a0 + 4294965384] = 0\n 64741: a0 = sp + 0x1000\n 64745: u8 [a0 + 4294965383] = 0\n 64749: a0 = sp + 0x1000\n 64753: u8 [a0 + 4294965382] = 0\n 64757: a0 = sp + 0x1000\n 64761: u8 [a0 + 4294965381] = 0\n 64765: a0 = sp + 0x1000\n 64769: u8 [a0 + 4294965380] = 0\n 64773: a0 = sp + 0x1000\n 64777: u8 [a0 + 4294965379] = 0\n 64781: a0 = sp + 0x1000\n 64785: u8 [a0 + 4294965378] = 0\n 64789: a0 = sp + 0x1000\n 64793: u8 [a0 + 4294965377] = 0\n 64797: a0 = sp + 0x1000\n 64801: u8 [a0 + 4294965376] = 0\n 64805: a0 = sp + 0x1000\n 64809: u8 [a0 + 0xfffffffffffff860] = ra\n 64813: a0 = u64 [sp + 0x268]\n 64817: a1 = sp + 0x1000\n 64821: u8 [a1 + 0xfffffffffffff868] = a0\n 64825: a0 = sp + 0x1000\n 64829: u8 [a0 + 0xfffffffffffff870] = t2\n 64833: a0 = u64 [sp + 0x260]\n 64837: a1 = sp + 0x1000\n 64841: u8 [a1 + 0xfffffffffffff878] = a0\n 64845: a0 = u64 [sp + 0x358]\n 64849: a1 = sp + 0x1000\n 64853: u8 [a1 + 0xfffffffffffff872] = a0\n 64857: a0 = u64 [sp + 0x350]\n 64861: a1 = sp + 0x1000\n 64865: u8 [a1 + 0xfffffffffffff871] = a0\n 64869: a0 = u64 [sp + 0x348]\n 64873: a1 = sp + 0x1000\n 64877: u8 [a1 + 0xfffffffffffff87f] = a0\n 64881: a0 = u64 [sp + 0x318]\n 64885: a1 = sp + 0x1000\n 64889: u8 [a1 + 0xfffffffffffff87e] = a0\n 64893: a0 = u64 [sp + 0x310]\n 64897: a1 = sp + 0x1000\n 64901: u8 [a1 + 0xfffffffffffff87d] = a0\n 64905: a0 = u64 [sp + 0x308]\n 64909: a1 = sp + 0x1000\n 64913: u8 [a1 + 0xfffffffffffff87c] = a0\n 64917: a0 = u64 [sp + 0x300]\n 64921: a1 = sp + 0x1000\n 64925: u8 [a1 + 0xfffffffffffff87b] = a0\n 64929: a0 = u64 [sp + 0x220]\n 64933: a1 = sp + 0x1000\n 64937: u8 [a1 + 0xfffffffffffff87a] = a0\n 64941: a0 = u64 [sp + 0x218]\n 64945: a1 = sp + 0x1000\n 64949: u8 [a1 + 0xfffffffffffff879] = a0\n 64953: s1 = u64 [sp + 0x3a8]\n 64957: a0 = s1 << 0x38\n 64960: a0 = a0 >> 0x3b\n 64963: a1 = sp + 0x7ff\n 64967: a1 = a1 + 0x61\n 64970: a1 = a1 + a0\n 64973: a0 = u8 [a1 + 0x11]\n 64976: a2 = u8 [a1 + 0x10]\n 64979: a3 = u8 [a1 + 0x12]\n 64982: a4 = u8 [a1 + 0x13]\n 64985: a0 = a0 << 0x8\n 64988: a0 = a0 | a2\n 64991: a3 = a3 << 0x10\n 64994: a4 = a4 << 0x18\n 64997: a3 = a3 | a4\n 65000: a0 = a0 | a3\n 65003: a2 = u8 [a1 + 0x15]\n 65006: a3 = u8 [a1 + 0x14]\n 65009: a4 = u8 [a1 + 0x16]\n 65012: a5 = u8 [a1 + 0x17]\n 65015: a2 = a2 << 0x8\n 65018: a2 = a2 | a3\n 65021: a4 = a4 << 0x10\n 65024: a5 = a5 << 0x18\n 65027: a4 = a4 | a5\n 65030: a2 = a2 | a4\n 65033: a2 = a2 << 0x20\n 65036: t0 = a2 | a0\n 65039: a2 = s1 & 0x7\n 65042: t1 = t0 >> a2\n 65045: a0 = u8 [a1 + 0x19]\n 65048: a4 = u8 [a1 + 0x18]\n 65051: s1 = u8 [a1 + 0x1a]\n 65054: a5 = u8 [a1 + 0x1b]\n 65057: a0 = a0 << 0x8\n 65060: a0 = a0 | a4\n 65063: s1 = s1 << 0x10\n 65066: a5 = a5 << 0x18\n 65069: a5 = a5 | s1\n 65072: a0 = a0 | a5\n 65075: a4 = u8 [a1 + 0x1d]\n 65078: a5 = u8 [a1 + 0x1c]\n 65081: s1 = u8 [a1 + 0x1e]\n 65084: a3 = u8 [a1 + 0x1f]\n 65087: a4 = a4 << 0x8\n 65090: a4 = a4 | a5\n 65093: s1 = s1 << 0x10\n 65096: a3 = a3 << 0x18\n 65099: a3 = a3 | s1\n 65102: a3 = a3 | a4\n 65105: a3 = a3 << 0x20\n 65108: t2 = a3 | a0\n 65111: a0 = t2 << 0x1\n 65114: ra = a2 ^ 0x3f\n 65117: a0 = a0 << ra\n 65120: a0 = t1 | a0\n 65123: u64 [sp + 0x358] = a0\n 65127: a0 = u8 [a1 + 0x9]\n 65130: a3 = u8 [a1 + 0x8]\n 65133: a5 = u8 [a1 + 0xa]\n 65136: a4 = u8 [a1 + 0xb]\n 65139: a0 = a0 << 0x8\n 65142: a0 = a0 | a3\n 65145: a5 = a5 << 0x10\n 65148: a4 = a4 << 0x18\n 65151: a4 = a4 | a5\n 65154: a0 = a0 | a4\n 65157: a3 = u8 [a1 + 0xd]\n 65160: a4 = u8 [a1 + 0xc]\n 65163: a5 = u8 [a1 + 0xe]\n 65166: s1 = u8 [a1 + 0xf]\n 65169: a3 = a3 << 0x8\n 65172: a3 = a3 | a4\n 65175: a5 = a5 << 0x10\n 65178: s1 = s1 << 0x18\n 65181: a5 = a5 | s1\n 65184: a3 = a3 | a5\n 65187: a3 = a3 << 0x20\n 65190: t1 = a3 | a0\n 65193: a0 = t1 >> a2\n 65196: t0 = t0 << 0x1\n 65199: a4 = a2 ^ 0xffffffffffffffff\n 65202: a5 = t0 << a4\n 65205: a5 = a5 | a0\n 65208: a0 = u8 [a1 + 0x1]\n 65211: a4 = u8 [a1]\n 65213: s1 = u8 [a1 + 0x2]\n 65216: a3 = u8 [a1 + 0x3]\n 65219: a0 = a0 << 0x8\n 65222: a0 = a0 | a4\n 65225: s1 = s1 << 0x10\n 65228: a3 = a3 << 0x18\n 65231: a3 = a3 | s1\n 65234: a0 = a0 | a3\n 65237: a3 = u8 [a1 + 0x5]\n 65240: a4 = u8 [a1 + 0x4]\n 65243: s1 = u8 [a1 + 0x6]\n 65246: a1 = u8 [a1 + 0x7]\n 65249: a3 = a3 << 0x8\n 65252: a3 = a3 | a4\n 65255: s1 = s1 << 0x10\n 65258: a1 = a1 << 0x18\n 65261: a1 = a1 | s1\n 65264: a1 = a1 | a3\n 65267: a1 = a1 << 0x20\n 65270: a0 = a0 | a1\n 65273: a0 = a0 >> a2\n 65276: t1 = t1 << 0x1\n 65279: a1 = t1 << ra\n 65282: t0 = a0 | a1\n 65285: t1 = t2 >> a2\n 65288: a2 = u64 [sp + 0x3c0]\n 65292: a0 = a2 <u 0x1\n 65295: a1 = u64 [sp + 0x3d0]\n 65299: a0 = a1 - a0\n 65302: u64 [sp + 0x318] = a0\n 65306: a0 = a2 | a1\n 65309: a0 = a0 <u 0x1\n 65312: a1 = u64 [sp + 0x3c8]\n 65316: a3 = a1 - a0\n 65319: u64 [sp + 0x310] = a3\n 65323: a0 = a1 <u a0\n 65326: a1 = u64 [sp + 0x3d8]\n 65330: a1 = a1 - a0\n 65333: u64 [sp + 0x308] = a1\n 65337: a2 = a2 + 0xffffffffffffffff\n 65340: u64 [sp + 0x300] = a2\n 65344: fallthrough\n      : @308 (gas: 101)\n 65345: u64 [sp + 840] = 0\n 65349: a1 = t0 >> 0x3f\n 65352: s1 = a5 << 0x1\n 65355: s1 = s1 | a1\n 65358: t0 = t0 << 0x1\n 65361: a4 = u64 [sp + 0x3a0]\n 65365: a1 = a4 >> 0x3f\n 65368: t2 = t0 | a1\n 65371: a1 = u64 [sp + 0x318]\n 65375: a0 = a1 ^ s1\n 65378: a2 = a1 <u s1\n 65381: a1 = u64 [sp + 0x300]\n 65385: a3 = a1 <u t2\n 65388: a3 = a2 if a0 != 0\n 65391: t1 = t1 << 0x1\n 65394: ra = u64 [sp + 0x358]\n 65398: a0 = ra >> 0x3f\n 65401: t0 = t1 | a0\n 65404: u64 [sp + 0x350] = t0\n 65408: a5 = a5 >> 0x3f\n 65411: ra = ra << 0x1\n 65414: t1 = ra | a5\n 65417: a0 = a4 << 0x1\n 65420: a1 = u64 [sp + 0x398]\n 65424: a4 = a1 >> 0x3f\n 65427: a5 = a0 | a4\n 65430: a4 = a1 << 0x1\n 65433: a0 = u64 [sp + 0x388]\n 65437: a2 = a0 >> 0x3f\n 65440: a2 = a2 | a4\n 65443: a0 = a0 << 0x1\n 65446: a4 = u64 [sp + 0x390]\n 65450: a1 = a4 >> 0x3f\n 65453: a1 = a1 | a0\n 65456: a4 = a4 << 0x1\n 65459: a0 = u64 [sp + 0x368]\n 65463: a4 = a4 | a0\n 65466: u64 [sp + 0x390] = a4\n 65470: a4 = u64 [sp + 0x360]\n 65474: a1 = a1 | a4\n 65477: u64 [sp + 0x388] = a1\n 65481: a2 = a2 | a4\n 65484: u64 [sp + 0x398] = a2\n 65488: a0 = a4 | a5\n 65491: u64 [sp + 0x3a0] = a0\n 65495: a1 = u64 [sp + 0x310]\n 65499: a0 = a1 - t1\n 65502: a0 = a0 <u a3\n 65505: a1 = a1 <u t1\n 65508: a2 = u64 [sp + 0x308]\n 65512: a2 = a2 - t0\n 65515: a2 = a2 - a1\n 65518: a2 = a2 - a0\n 65521: a3 = a2 >>a 0x3f\n 65524: a0 = u64 [sp + 0x3c0]\n 65528: t0 = a3 & a0\n 65531: a1 = u64 [sp + 0x3d0]\n 65535: a1 = a1 & a3\n 65538: a2 = s1 ^ a1\n 65541: a4 = s1 <u a1\n 65544: ra = t2 <u t0\n 65547: a4 = ra if a2 == 0\n 65550: a2 = u64 [sp + 0x3c8]\n 65554: a2 = a2 & a3\n 65557: a0 = t1 - a2\n 65560: a5 = a0 - a4\n 65563: u64 [sp + 0x358] = a5\n 65567: a4 = a0 <u a4\n 65570: a2 = t1 <u a2\n 65573: a5 = u64 [sp + 0x3d8]\n 65577: a5 = a5 & a3\n 65580: a0 = u64 [sp + 0x350]\n 65584: a5 = a0 - a5\n 65587: a5 = a5 - a2\n 65590: t1 = a5 - a4\n 65593: s1 = s1 - a1\n 65596: a5 = s1 - ra\n 65599: t0 = t2 - t0\n 65602: a4 = u64 [sp + 0x3a8]\n 65606: s1 = u64 [sp + 0x380]\n 65610: a0 = a4 | s1\n 65613: a0 = a0 <u 0x1\n 65616: a2 = u64 [sp + 0x370]\n 65620: a1 = a2 <u a0\n 65623: a0 = a2 - a0\n 65626: a2 = a4 <u 0x1\n 65629: s1 = s1 - a2\n 65632: a2 = u64 [sp + 0x378]\n 65636: a2 = a2 - a1\n 65639: a4 = a4 + 0xffffffffffffffff\n 65642: u64 [sp + 0x380] = s1\n 65646: u64 [sp + 0x378] = a2\n 65650: a1 = s1 | a2\n 65653: u64 [sp + 0x3a8] = a4\n 65657: a2 = a4 | a0\n 65660: a1 = a1 | a2\n 65663: a3 = a3 & 0x1\n 65666: u64 [sp + 0x368] = a3\n 65670: u64 [sp + 0x370] = a0\n 65674: u64 [sp + 864] = 0\n 65678: jump @308 if a1 != 0\n      : @309 (gas: 1)\n 65682: jump @311\n      : @310 (gas: 3)\n 65684: u64 [sp + 872] = 0\n 65688: u64 [sp + 840] = 0\n 65692: fallthrough\n      : @311 (gas: 22)\n 65693: a2 = u64 [sp + 0x398]\n 65697: a0 = a2 >> 0x3f\n 65700: a1 = u64 [sp + 0x3a0]\n 65704: a1 = a1 << 0x1\n 65707: a3 = a1 | a0\n 65710: a5 = u64 [sp + 0x388]\n 65714: a0 = a5 >> 0x3f\n 65717: a1 = a2 << 0x1\n 65720: a1 = a1 | a0\n 65723: a0 = u64 [sp + 0x390]\n 65727: a2 = a0 >> 0x3f\n 65730: a5 = a5 << 0x1\n 65733: a0 = a0 << 0x1\n 65736: a4 = u64 [sp + 0x368]\n 65740: a0 = a0 | a4\n 65743: a4 = u64 [sp + 0x348]\n 65747: a2 = a2 | a4\n 65750: a2 = a2 | a5\n 65753: t0 = a4 | a1\n 65756: t1 = a4 | a3\n 65759: ra = u64 [sp + 0x258]\n 65763: fallthrough\n      : @312 (gas: 244)\n 65764: a1 = u64 [sp + 0x3c0]\n 65768: a3 = a1 mulhu a0\n 65771: s1 = u64 [sp + 0x3d0]\n 65775: a4 = s1 * a0\n 65778: a3 = a3 + a4\n 65781: a4 = a3 <u a4\n 65784: a5 = s1 mulhu a0\n 65787: a5 = a5 + a4\n 65790: a4 = a1 * a2\n 65793: t2 = a4 + a3\n 65796: a3 = t2 <u a4\n 65799: a4 = a1 mulhu a2\n 65802: a3 = a3 + a4\n 65805: a3 = a3 + a5\n 65808: a4 = a3 <u a5\n 65811: a5 = s1 mulhu a2\n 65814: a4 = a4 + a5\n 65817: a5 = s1 * a2\n 65820: a3 = a3 + a5\n 65823: a5 = a3 <u a5\n 65826: a4 = a4 + a5\n 65829: u64 [sp + 0x3a8] = a4\n 65833: a5 = t0 * s1\n 65836: a4 = t0 mulhu a1\n 65839: a4 = a4 + a5\n 65842: a5 = t1 * a1\n 65845: t1 = a4 + a5\n 65848: a5 = u64 [sp + 0x3c8]\n 65852: a4 = a0 mulhu a5\n 65855: s1 = u64 [sp + 0x3d8]\n 65859: s1 = a0 * s1\n 65862: a4 = a4 + s1\n 65865: a2 = a2 * a5\n 65868: a2 = a2 + a4\n 65871: a2 = a2 + t1\n 65874: s1 = a1\n 65876: a1 = t0 * a1\n 65879: a4 = a0 * a5\n 65882: a4 = a4 + a1\n 65885: a1 = a4 <u a1\n 65888: a1 = a1 + a2\n 65891: a2 = u64 [sp + 0x3a8]\n 65895: a1 = a1 + a2\n 65898: a4 = a4 + a3\n 65901: a2 = a4 <u a3\n 65904: a3 = u64 [sp + 0x260]\n 65908: a2 = a3 - a2\n 65911: a0 = s1 * a0\n 65914: t0 = a2 - a1\n 65917: a2 = u64 [sp + 0x268]\n 65921: a1 = a2 ^ t2\n 65924: a5 = a2 <u t2\n 65927: s1 = ra <u a0\n 65930: a5 = s1 if a1 == 0\n 65933: a3 = u64 [sp + 0x2d0]\n 65937: a1 = a3 <u a4\n 65940: a4 = a3 - a4\n 65943: a3 = a4 <u a5\n 65946: a1 = a1 + a3\n 65949: a1 = t0 - a1\n 65952: u64 [sp + 0x398] = a1\n 65956: a5 = a4 - a5\n 65959: a1 = a2 - s1\n 65962: t2 = a1 - t2\n 65965: t0 = ra - a0\n 65968: a4 = u64 [sp + 0x2f0]\n 65972: a0 = a4 mulhu t0\n 65975: t1 = u64 [sp + 0x2c0]\n 65979: a1 = t1 * t0\n 65982: a0 = a0 + a1\n 65985: a2 = a4 * t2\n 65988: a3 = a2 + a0\n 65991: u64 [sp + 0x350] = a3\n 65995: a2 = a3 <u a2\n 65998: s1 = a4 mulhu t2\n 66001: a2 = a2 + s1\n 66004: a0 = a0 <u a1\n 66007: a1 = t1 mulhu t0\n 66010: a0 = a0 + a1\n 66013: a2 = a2 + a0\n 66016: a0 = a2 <u a0\n 66019: a1 = t1 mulhu t2\n 66022: a0 = a0 + a1\n 66025: a1 = t1 * t2\n 66028: u64 [sp + 0x3a0] = t2\n 66032: a2 = a2 + a1\n 66035: a1 = a2 <u a1\n 66038: a0 = a0 + a1\n 66041: ra = a4 mulhu a5\n 66044: a1 = t1 * a5\n 66047: u64 [sp + 0x378] = a1\n 66051: a3 = a5\n 66053: u64 [sp + 0x3a8] = a5\n 66057: ra = ra + a1\n 66060: a5 = u64 [sp + 0x2f8]\n 66064: s1 = a5 mulhu t0\n 66067: a1 = u64 [sp + 0x2e8]\n 66071: a1 = a1 * t0\n 66074: u64 [sp + 0x388] = a1\n 66078: a1 = a1 + s1\n 66081: u64 [sp + 0x380] = a1\n 66085: t2 = a5 * t2\n 66088: u64 [sp + 0x370] = t2\n 66092: t2 = t2 + a1\n 66095: a1 = t2 + a0\n 66098: a0 = a5 * t0\n 66101: a2 = a2 + a0\n 66104: a5 = a2 <u a0\n 66107: u64 [sp + 0x368] = a5\n 66111: a5 = a5 + a1\n 66114: a1 = a4 * a3\n 66117: a2 = a2 + a1\n 66120: u64 [sp + 0x358] = a2\n 66124: a2 = a2 <u a1\n 66127: a3 = u64 [sp + 0x398]\n 66131: a1 = a4 * a3\n 66134: u64 [sp + 0x360] = a1\n 66138: a1 = a1 + ra\n 66141: a0 = a1 + a5\n 66144: a0 = a0 + a2\n 66147: s1 = a0 ^ a1\n 66150: u64 [sp + 0x348] = a0\n 66154: a0 = a0 <u a1\n 66157: a0 = a2 if s1 == 0\n 66160: u64 [sp + 0x390] = a0\n 66164: a0 = a5 ^ t2\n 66167: a2 = a5 <u t2\n 66170: a5 = u64 [sp + 0x368]\n 66174: a2 = a5 if a0 == 0\n 66177: a0 = u64 [sp + 0x360]\n 66181: a0 = a1 <u a0\n 66184: a1 = a4 mulhu a3\n 66187: a4 = a3\n 66189: a0 = a0 + a1\n 66192: a1 = u64 [sp + 0x378]\n 66196: a1 = ra <u a1\n 66199: a3 = u64 [sp + 0x3a8]\n 66203: a3 = t1 mulhu a3\n 66206: a3 = a3 + a1\n 66209: a1 = u64 [sp + 0x370]\n 66213: a1 = t2 <u a1\n 66216: a5 = u64 [sp + 0x3a0]\n 66220: ra = u64 [sp + 0x2f8]\n 66224: a5 = ra mulhu a5\n 66227: a1 = a1 + a5\n 66230: a5 = u64 [sp + 0x388]\n 66234: s1 = u64 [sp + 0x380]\n 66238: s1 = s1 <u a5\n 66241: u64 [sp + 0x380] = t0\n 66245: t2 = u64 [sp + 0x2e8]\n 66249: a5 = t2 mulhu t0\n 66252: s1 = s1 + a5\n 66255: a0 = a0 + a3\n 66258: a3 = a0 <u a3\n 66261: a5 = t1 mulhu a4\n 66264: a3 = a3 + a5\n 66267: a5 = t1 * a4\n 66270: t0 = a4\n 66272: a0 = a0 + a5\n 66275: a5 = a0 <u a5\n 66278: a3 = a3 + a5\n 66281: t1 = u64 [sp + 0x390]\n 66285: t1 = t1 + a0\n 66288: a0 = t1 <u a0\n 66291: a0 = a0 + a3\n 66294: a1 = a1 + s1\n 66297: a3 = a1 <u s1\n 66300: a4 = u64 [sp + 0x3a0]\n 66304: a5 = t2 mulhu a4\n 66307: a3 = a3 + a5\n 66310: a4 = t2 * a4\n 66313: a1 = a1 + a4\n 66316: a4 = a1 <u a4\n 66319: a3 = a3 + a4\n 66322: a2 = a2 + a1\n 66325: a1 = a2 <u a1\n 66328: a1 = a1 + a3\n 66331: t1 = t1 + a2\n 66334: a5 = t1 <u a2\n 66337: u64 [sp + 0x388] = a5\n 66341: a0 = a0 + a1\n 66344: a5 = a5 + a0\n 66347: a2 = u64 [sp + 0x3a8]\n 66351: a3 = ra\n 66353: a0 = ra mulhu a2\n 66356: ra = t2 * a2\n 66359: u64 [sp + 0x390] = ra\n 66363: ra = ra + a0\n 66366: a0 = a3 * a2\n 66369: s1 = a3\n 66371: t1 = t1 + a0\n 66374: u64 [sp + 0x3a0] = t1\n 66378: a4 = t1 <u a0\n 66381: a3 = a3 * t0\n 66384: a2 = a3 + ra\n 66387: t0 = a2 + a4\n 66390: t0 = t0 + a5\n 66393: t1 = t0 ^ a2\n 66396: a0 = t0 <u a2\n 66399: a0 = a4 if t1 == 0\n 66402: a4 = a5 ^ a1\n 66405: a1 = a5 <u a1\n 66408: a5 = u64 [sp + 0x388]\n 66412: a1 = a5 if a4 == 0\n 66415: a2 = a2 <u a3\n 66418: a5 = u64 [sp + 0x398]\n 66422: a3 = s1 mulhu a5\n 66425: a2 = a2 + a3\n 66428: a3 = u64 [sp + 0x390]\n 66432: a3 = ra <u a3\n 66435: a4 = u64 [sp + 0x3a8]\n 66439: a4 = t2 mulhu a4\n 66442: a3 = a3 + a4\n 66445: a4 = t2 * a5\n 66448: a5 = t2 mulhu a5\n 66451: a2 = a2 + a3\n 66454: a3 = a2 <u a3\n 66457: a5 = a5 + a3\n 66460: a3 = u64 [sp + 0x3a0]\n 66464: a2 = a2 + a4\n 66467: a1 = a1 + a2\n 66470: ra = a1 + a0\n 66473: a0 = a2 <u a4\n 66476: a2 = a1 <u a2\n 66479: a1 = ra <u a1\n 66482: a0 = a0 + a5\n 66485: a0 = a0 + a2\n 66488: a5 = a0 + a1\n 66491: a1 = u64 [sp + 0x3d0]\n 66495: a0 = a1 ^ t0\n 66498: a1 = t0 <u a1\n 66501: a2 = u64 [sp + 0x3c0]\n 66505: a2 = a3 <u a2\n 66508: a2 = a1 if a0 != 0\n 66511: s1 = u64 [sp + 0x3c8]\n 66515: a0 = ra <u s1\n 66518: a4 = u64 [sp + 0x3d8]\n 66522: a1 = a4 ^ a5\n 66525: a4 = a5 <u a4\n 66528: a4 = a0 if a1 == 0\n 66531: a0 = s1 ^ ra\n 66534: a0 = a0 | a1\n 66537: a2 = a4 if a0 != 0\n 66540: jump @319 if a2 == 0\n      : @313 (gas: 381)\n 66544: a0 = u64 [sp + 0x380]\n 66548: a1 = u64 [sp + 0x2f0]\n 66552: t1 = a1 * a0\n 66555: s1 = u64 [sp + 0x138]\n 66559: s1 = s1 >> 0x3f\n 66562: a0 = t0\n 66564: t0 = u64 [sp + 0x358]\n 66568: a1 = t0\n 66570: a1 = a3 if s1 == 0\n 66573: ra = a3 if s1 != 0\n 66576: a2 = u64 [sp + 0x350]\n 66580: a3 = sp + 0x1000\n 66584: u8 [a3 + 0xfffffffffffff848] = a2\n 66588: a3 = u64 [sp + 0x348]\n 66592: a4 = sp + 0x1000\n 66596: u8 [a4 + 0xfffffffffffff858] = a3\n 66600: a4 = a2 >> 0x38\n 66603: u64 [sp + 0x370] = a4\n 66607: a4 = a2 >> 0x30\n 66610: u64 [sp + 0x368] = a4\n 66614: a4 = a2 >> 0x28\n 66617: u64 [sp + 0x360] = a4\n 66621: a4 = a2 >> 0x20\n 66624: u64 [sp + 0x318] = a4\n 66628: a4 = a2 >> 0x18\n 66631: u64 [sp + 0x310] = a4\n 66635: a4 = a2 >> 0x10\n 66638: u64 [sp + 0x2f0] = a4\n 66642: a4 = a2 >> 0x8\n 66645: u64 [sp + 0x2c0] = a4\n 66649: a2 = a3 if s1 == 0\n 66652: a4 = a3 >> 0x38\n 66655: u64 [sp + 0x3a8] = a4\n 66659: a4 = a3 >> 0x30\n 66662: u64 [sp + 0x3a0] = a4\n 66666: a4 = a3 >> 0x28\n 66669: u64 [sp + 0x398] = a4\n 66673: a4 = a3 >> 0x20\n 66676: u64 [sp + 0x390] = a4\n 66680: a4 = a3 >> 0x18\n 66683: u64 [sp + 0x388] = a4\n 66687: a4 = a3 >> 0x10\n 66690: u64 [sp + 0x380] = a4\n 66694: a4 = a3 >> 0x8\n 66697: u64 [sp + 0x378] = a4\n 66701: a3 = a0 if s1 == 0\n 66704: a5 = a0 if s1 != 0\n 66707: a4 = u64 [sp + 0x248]\n 66711: a4 = a4 >> 0x3f\n 66714: a0 = a2\n 66716: a0 = a1 if a4 == 0\n 66719: a1 = a3 if a4 == 0\n 66722: a5 = ra if a4 != 0\n 66725: ra = a3 if a4 != 0\n 66728: a3 = sp + 0x1000\n 66732: u8 [a3 + 0xfffffffffffff840] = t1\n 66736: a3 = t1 >> 0x38\n 66739: u64 [sp + 0x350] = a3\n 66743: a3 = t1 >> 0x30\n 66746: u64 [sp + 0x348] = a3\n 66750: a3 = t1 >> 0x28\n 66753: u64 [sp + 0x268] = a3\n 66757: a3 = t1 >> 0x20\n 66760: u64 [sp + 0x260] = a3\n 66764: a3 = t1 >> 0x18\n 66767: u64 [sp + 0x258] = a3\n 66771: a3 = t1 >> 0x10\n 66774: u64 [sp + 0x248] = a3\n 66778: a3 = t1 >> 0x8\n 66781: u64 [sp + 0x220] = a3\n 66785: t1 = t0 if s1 == 0\n 66788: t1 = a2 if a4 == 0\n 66791: a4 = a0 >> 0x1\n 66794: a2 = u64 [sp + 0x250]\n 66798: a4 = a4 >> a2\n 66801: a3 = u64 [sp + 0x1e0]\n 66805: s1 = a1 << a3\n 66808: s1 = s1 | a4\n 66811: a4 = a5 << a3\n 66814: a5 = ra >> 0x1\n 66817: a5 = a5 >> a2\n 66820: t2 = a4 | a5\n 66823: a4 = a0 << a3\n 66826: a0 = t1 >> 0x1\n 66829: a0 = a0 >> a2\n 66832: a4 = a4 | a0\n 66835: u64 [sp + 0x308] = a4\n 66839: a1 = a1 >> 0x1\n 66842: a0 = a1 >> a2\n 66845: a1 = ra << a3\n 66848: a5 = a1 | a0\n 66851: a0 = u64 [sp + 0x3b8]\n 66855: a0 = clz a0\n 66857: a0 = a0 + 0x40\n 66860: t1 = u64 [sp + 0x3b0]\n 66864: a1 = clz t1\n 66866: a1 = a0 if t1 == 0\n 66869: a0 = clz a4\n 66871: a2 = a0 + 0x40\n 66874: u64 [sp + 0x300] = s1\n 66878: a0 = clz s1\n 66880: a2 = a0 if s1 != 0\n 66883: u64 [sp + 0x2f8] = a5\n 66887: a0 = clz a5\n 66889: a0 = a0 + 0x40\n 66892: a3 = clz t2\n 66894: a0 = a3 if t2 != 0\n 66897: a3 = a2 + 0x80\n 66901: a4 = a3 <u a2\n 66904: a2 = a5 | t2\n 66907: a0 = a3 if a2 == 0\n 66910: a4 = 0 if a2 != 0\n 66912: s1 = a1 + 0x80\n 66916: a5 = s1 <u a1\n 66919: a1 = s1 <u a0\n 66922: a3 = a5 ^ a4\n 66925: a2 = a5 <u a4\n 66928: a2 = a1 if a3 == 0\n 66931: u64 [sp + 0x2e8] = a5\n 66935: a3 = a5 - a4\n 66938: a3 = a3 - a1\n 66941: ra = a2 <u 0x1\n 66944: ra = ra + 0xffffffffffffffff\n 66947: a1 = -a2\n 66949: u64 [sp + 0x110] = a1\n 66953: a4 = a1 >u 0\n 66955: a5 = ra >u 0\n 66957: u64 [sp + 0x118] = ra\n 66961: a5 = a4 if ra == 0\n 66964: u64 [sp + 0x2d0] = s1\n 66968: s1 = s1 - a0\n 66971: u64 [sp + 0x108] = s1\n 66975: a0 = s1 <u 0x100\n 66979: a0 = a0 ^ 0x1\n 66982: s1 = a3 >u 0\n 66984: u64 [sp + 0x100] = a3\n 66988: a0 = s1 if a3 != 0\n 66991: a0 = a5 if a2 != 0\n 66994: a1 = u64 [sp + 0x350]\n 66998: a2 = sp + 0x1000\n 67002: u8 [a2 + 0xfffffffffffff847] = a1\n 67006: a1 = u64 [sp + 0x348]\n 67010: a2 = sp + 0x1000\n 67014: u8 [a2 + 0xfffffffffffff846] = a1\n 67018: a1 = u64 [sp + 0x268]\n 67022: a2 = sp + 0x1000\n 67026: u8 [a2 + 0xfffffffffffff845] = a1\n 67030: a1 = u64 [sp + 0x260]\n 67034: a2 = sp + 0x1000\n 67038: u8 [a2 + 0xfffffffffffff844] = a1\n 67042: a1 = u64 [sp + 0x258]\n 67046: a2 = sp + 0x1000\n 67050: u8 [a2 + 0xfffffffffffff843] = a1\n 67054: a1 = u64 [sp + 0x248]\n 67058: a2 = sp + 0x1000\n 67062: u8 [a2 + 0xfffffffffffff842] = a1\n 67066: a1 = u64 [sp + 0x220]\n 67070: a2 = sp + 0x1000\n 67074: u8 [a2 + 0xfffffffffffff841] = a1\n 67078: a1 = u64 [sp + 0x370]\n 67082: a2 = sp + 0x1000\n 67086: u8 [a2 + 0xfffffffffffff84f] = a1\n 67090: a1 = u64 [sp + 0x368]\n 67094: a2 = sp + 0x1000\n 67098: u8 [a2 + 0xfffffffffffff84e] = a1\n 67102: a1 = u64 [sp + 0x360]\n 67106: a2 = sp + 0x1000\n 67110: u8 [a2 + 0xfffffffffffff84d] = a1\n 67114: a1 = u64 [sp + 0x318]\n 67118: a2 = sp + 0x1000\n 67122: u8 [a2 + 0xfffffffffffff84c] = a1\n 67126: a1 = u64 [sp + 0x310]\n 67130: a2 = sp + 0x1000\n 67134: u8 [a2 + 0xfffffffffffff84b] = a1\n 67138: a1 = u64 [sp + 0x2f0]\n 67142: a2 = sp + 0x1000\n 67146: u8 [a2 + 0xfffffffffffff84a] = a1\n 67150: a1 = u64 [sp + 0x2c0]\n 67154: a2 = sp + 0x1000\n 67158: u8 [a2 + 0xfffffffffffff849] = a1\n 67162: a2 = t0 >> 0x38\n 67165: a1 = sp + 0x1000\n 67169: u8 [a1 + 0xfffffffffffff857] = a2\n 67173: a2 = t0 >> 0x30\n 67176: a1 = sp + 0x1000\n 67180: u8 [a1 + 0xfffffffffffff856] = a2\n 67184: a2 = t0 >> 0x28\n 67187: a1 = sp + 0x1000\n 67191: u8 [a1 + 0xfffffffffffff855] = a2\n 67195: a2 = t0 >> 0x20\n 67198: a1 = sp + 0x1000\n 67202: u8 [a1 + 0xfffffffffffff854] = a2\n 67206: a2 = t0 >> 0x18\n 67209: a1 = sp + 0x1000\n 67213: u8 [a1 + 0xfffffffffffff853] = a2\n 67217: a2 = t0 >> 0x10\n 67220: a1 = sp + 0x1000\n 67224: u8 [a1 + 0xfffffffffffff852] = a2\n 67228: a1 = sp + 0x1000\n 67232: u8 [a1 + 0xfffffffffffff850] = t0\n 67236: a2 = t0 >> 0x8\n 67239: a1 = sp + 0x1000\n 67243: u8 [a1 + 0xfffffffffffff851] = a2\n 67247: a1 = u64 [sp + 0x3a8]\n 67251: a2 = sp + 0x1000\n 67255: u8 [a2 + 0xfffffffffffff85f] = a1\n 67259: a1 = u64 [sp + 0x3a0]\n 67263: a2 = sp + 0x1000\n 67267: u8 [a2 + 0xfffffffffffff85e] = a1\n 67271: a1 = u64 [sp + 0x398]\n 67275: a2 = sp + 0x1000\n 67279: u8 [a2 + 0xfffffffffffff85d] = a1\n 67283: a1 = u64 [sp + 0x390]\n 67287: a2 = sp + 0x1000\n 67291: u8 [a2 + 0xfffffffffffff85c] = a1\n 67295: a1 = u64 [sp + 0x388]\n 67299: a2 = sp + 0x1000\n 67303: u8 [a2 + 0xfffffffffffff85b] = a1\n 67307: a1 = u64 [sp + 0x380]\n 67311: a2 = sp + 0x1000\n 67315: u8 [a2 + 0xfffffffffffff85a] = a1\n 67319: a1 = u64 [sp + 0x378]\n 67323: a2 = sp + 0x1000\n 67327: u8 [a2 + 0xfffffffffffff859] = a1\n 67331: ra = u64 [sp + 0x300]\n 67335: a2 = ra | t2\n 67338: a4 = u64 [sp + 0x308]\n 67342: a1 = u64 [sp + 0x2f8]\n 67346: a5 = a4 | a1\n 67349: a2 = a2 | a5\n 67352: a3 = u64 [sp + 0x3b8]\n 67356: a5 = a3 | t1\n 67359: t1 = t2\n 67361: s1 = a5 <u 0x1\n 67364: a2 = a2 <u 0x1\n 67367: a5 = s1 | a2\n 67370: a5 = a5 | a0\n 67373: a0 = sp + 0x1000\n 67377: u8 [a0 + 4294965311] = 0\n 67381: a0 = sp + 0x1000\n 67385: u8 [a0 + 4294965310] = 0\n 67389: a0 = sp + 0x1000\n 67393: u8 [a0 + 4294965309] = 0\n 67397: a0 = sp + 0x1000\n 67401: u8 [a0 + 4294965308] = 0\n 67405: a0 = sp + 0x1000\n 67409: u8 [a0 + 4294965307] = 0\n 67413: a0 = sp + 0x1000\n 67417: u8 [a0 + 4294965306] = 0\n 67421: a0 = sp + 0x1000\n 67425: u8 [a0 + 4294965305] = 0\n 67429: a0 = sp + 0x1000\n 67433: u8 [a0 + 4294965304] = 0\n 67437: a0 = sp + 0x1000\n 67441: u8 [a0 + 4294965303] = 0\n 67445: a0 = sp + 0x1000\n 67449: u8 [a0 + 4294965302] = 0\n 67453: a0 = sp + 0x1000\n 67457: u8 [a0 + 4294965301] = 0\n 67461: a0 = sp + 0x1000\n 67465: u8 [a0 + 4294965300] = 0\n 67469: a0 = sp + 0x1000\n 67473: u8 [a0 + 4294965299] = 0\n 67477: a0 = sp + 0x1000\n 67481: u8 [a0 + 4294965298] = 0\n 67485: a0 = sp + 0x1000\n 67489: u8 [a0 + 4294965297] = 0\n 67493: a0 = sp + 0x1000\n 67497: u8 [a0 + 4294965296] = 0\n 67501: a0 = sp + 0x1000\n 67505: u8 [a0 + 4294965295] = 0\n 67509: a0 = sp + 0x1000\n 67513: u8 [a0 + 4294965294] = 0\n 67517: a0 = sp + 0x1000\n 67521: u8 [a0 + 4294965293] = 0\n 67525: a0 = sp + 0x1000\n 67529: u8 [a0 + 4294965292] = 0\n 67533: a0 = sp + 0x1000\n 67537: u8 [a0 + 4294965291] = 0\n 67541: a0 = sp + 0x1000\n 67545: u8 [a0 + 4294965290] = 0\n 67549: a0 = sp + 0x1000\n 67553: u8 [a0 + 4294965289] = 0\n 67557: a0 = sp + 0x1000\n 67561: u8 [a0 + 4294965288] = 0\n 67565: a0 = sp + 0x1000\n 67569: u8 [a0 + 4294965287] = 0\n 67573: a0 = sp + 0x1000\n 67577: u8 [a0 + 4294965286] = 0\n 67581: a0 = sp + 0x1000\n 67585: u8 [a0 + 4294965285] = 0\n 67589: a0 = sp + 0x1000\n 67593: u8 [a0 + 4294965284] = 0\n 67597: a0 = sp + 0x1000\n 67601: u8 [a0 + 4294965283] = 0\n 67605: a0 = sp + 0x1000\n 67609: u8 [a0 + 4294965282] = 0\n 67613: a0 = sp + 0x1000\n 67617: u8 [a0 + 4294965281] = 0\n 67621: a0 = sp + 0x1000\n 67625: u8 [a0 + 4294965280] = 0\n 67629: a0 = u64 [sp + 0x1f0]\n 67633: a2 = sp + 0x7ff\n 67637: a2 = a2 + 0x41\n 67640: a0 = a2 - a0\n 67643: t2 = a1\n 67645: a2 = u8 [a0 + 0x18]\n 67648: u64 [sp + 0x148] = a2\n 67652: a2 = u8 [a0 + 0x19]\n 67655: u64 [sp + 0x120] = a2\n 67659: a2 = u8 [a0 + 0x1a]\n 67662: u64 [sp + 0x130] = a2\n 67666: a2 = u8 [a0 + 0x1b]\n 67669: u64 [sp + 0x128] = a2\n 67673: a2 = u8 [a0 + 0x1c]\n 67676: u64 [sp + 0x160] = a2\n 67680: a2 = u8 [a0 + 0x1d]\n 67683: u64 [sp + 0x140] = a2\n 67687: a2 = u8 [a0 + 0x1e]\n 67690: u64 [sp + 0x158] = a2\n 67694: a2 = u8 [a0 + 0x1f]\n 67697: u64 [sp + 0x150] = a2\n 67701: a2 = u8 [a0 + 0x10]\n 67704: u64 [sp + 0x188] = a2\n 67708: a2 = u8 [a0 + 0x11]\n 67711: u64 [sp + 0x168] = a2\n 67715: a2 = u8 [a0 + 0x12]\n 67718: u64 [sp + 0x178] = a2\n 67722: a2 = u8 [a0 + 0x13]\n 67725: u64 [sp + 0x170] = a2\n 67729: a2 = u8 [a0 + 0x14]\n 67732: u64 [sp + 0x1a0] = a2\n 67736: a2 = u8 [a0 + 0x15]\n 67739: u64 [sp + 0x180] = a2\n 67743: a2 = u8 [a0 + 0x16]\n 67746: u64 [sp + 0x198] = a2\n 67750: a2 = u8 [a0 + 0x17]\n 67753: u64 [sp + 0x190] = a2\n 67757: a2 = u8 [a0 + 0x8]\n 67760: u64 [sp + 0x1c8] = a2\n 67764: a2 = u8 [a0 + 0x9]\n 67767: u64 [sp + 0x1a8] = a2\n 67771: a2 = u8 [a0 + 0xa]\n 67774: u64 [sp + 0x1b8] = a2\n 67778: a2 = u8 [a0 + 0xb]\n 67781: u64 [sp + 0x1b0] = a2\n 67785: a2 = u8 [a0 + 0xc]\n 67788: u64 [sp + 0x210] = a2\n 67792: a2 = u8 [a0 + 0xd]\n 67795: u64 [sp + 0x1c0] = a2\n 67799: a2 = u8 [a0 + 0xe]\n 67802: u64 [sp + 0x208] = a2\n 67806: a2 = u8 [a0 + 0xf]\n 67809: u64 [sp + 0x1d0] = a2\n 67813: a2 = u8 [a0]\n 67815: u64 [sp + 0x250] = a2\n 67819: a2 = u8 [a0 + 0x1]\n 67822: u64 [sp + 0x218] = a2\n 67826: a2 = u8 [a0 + 0x2]\n 67829: u64 [sp + 0x248] = a2\n 67833: a2 = u8 [a0 + 0x3]\n 67836: u64 [sp + 0x220] = a2\n 67840: a1 = u8 [a0 + 0x4]\n 67843: u64 [sp + 0x268] = a1\n 67847: a2 = u8 [a0 + 0x5]\n 67850: u64 [sp + 0x258] = a2\n 67854: a2 = u8 [a0 + 0x6]\n 67857: t0 = u8 [a0 + 0x7]\n 67860: u64 [sp + 0x2f0] = t1\n 67864: a1 = t1\n 67866: a1 = 0 if a5 != 0\n 67868: u64 [sp + 0x388] = a1\n 67872: t2 = 0 if a5 != 0\n 67874: u64 [sp + 0x3a8] = t2\n 67878: ra = 0 if a5 != 0\n 67880: t1 = ra\n 67882: a4 = 0 if a5 != 0\n 67884: t2 = a4\n 67886: u64 [sp + 0x2c0] = s1\n 67890: u64 [sp + 0x260] = a2\n 67894: jump @322 if a5 != 0\n      : @314 (gas: 9)\n 67898: a3 = u64 [sp + 0x108]\n 67902: a5 = a3 ^ 0xff\n 67906: a4 = u64 [sp + 0x110]\n 67910: a5 = a5 | a4\n 67913: ra = u64 [sp + 0x118]\n 67917: a2 = u64 [sp + 0x100]\n 67921: s1 = a2 | ra\n 67924: a5 = a5 | s1\n 67927: jump @322 if a5 == 0\n      : @315 (gas: 291)\n 67931: u64 [sp + 0xf8] = t0\n 67935: a1 = a3 + 0x1\n 67938: u64 [sp + 0x3a8] = a1\n 67942: a0 = a1 <u 0x1\n 67945: a0 = a0 + a2\n 67948: u64 [sp + 0x380] = a0\n 67952: a0 = a0 | a1\n 67955: a0 = a0 <u 0x1\n 67958: a0 = a0 + a4\n 67961: u64 [sp + 0x370] = a0\n 67965: a0 = a0 <u a4\n 67968: a0 = a0 + ra\n 67971: u64 [sp + 0x378] = a0\n 67975: t0 = 0xff - a3\n 67979: a0 = u64 [sp + 0x308]\n 67983: a1 = sp + 0x1000\n 67987: u8 [a1 + 0xfffffffffffff800] = a0\n 67991: u8 [sp + 2047] = 0\n 67995: u8 [sp + 2046] = 0\n 67999: u8 [sp + 2045] = 0\n 68003: u8 [sp + 2044] = 0\n 68007: u8 [sp + 2043] = 0\n 68011: u8 [sp + 2042] = 0\n 68015: u8 [sp + 2041] = 0\n 68019: u8 [sp + 2040] = 0\n 68023: u8 [sp + 2039] = 0\n 68027: u8 [sp + 2038] = 0\n 68031: u8 [sp + 2037] = 0\n 68035: u8 [sp + 2036] = 0\n 68039: u8 [sp + 2035] = 0\n 68043: u8 [sp + 2034] = 0\n 68047: u8 [sp + 2033] = 0\n 68051: u8 [sp + 2032] = 0\n 68055: u8 [sp + 2031] = 0\n 68059: u8 [sp + 2030] = 0\n 68063: u8 [sp + 2029] = 0\n 68067: u8 [sp + 2028] = 0\n 68071: u8 [sp + 2027] = 0\n 68075: u8 [sp + 2026] = 0\n 68079: u8 [sp + 2025] = 0\n 68083: u8 [sp + 2024] = 0\n 68087: u8 [sp + 2023] = 0\n 68091: u8 [sp + 2022] = 0\n 68095: u8 [sp + 2021] = 0\n 68099: u8 [sp + 2020] = 0\n 68103: u8 [sp + 2019] = 0\n 68107: u8 [sp + 2018] = 0\n 68111: u8 [sp + 2017] = 0\n 68115: u8 [sp + 2016] = 0\n 68119: ra = u64 [sp + 0x300]\n 68123: a1 = sp + 0x1000\n 68127: u8 [a1 + 0xfffffffffffff808] = ra\n 68131: a1 = a0 >> 0x38\n 68134: u64 [sp + 0xf0] = a1\n 68138: a2 = sp + 0x1000\n 68142: u8 [a2 + 0xfffffffffffff807] = a1\n 68146: a1 = a0 >> 0x30\n 68149: u64 [sp + 0xe8] = a1\n 68153: a2 = sp + 0x1000\n 68157: u8 [a2 + 0xfffffffffffff806] = a1\n 68161: a1 = a0 >> 0x28\n 68164: u64 [sp + 0xe0] = a1\n 68168: a2 = sp + 0x1000\n 68172: u8 [a2 + 0xfffffffffffff805] = a1\n 68176: a1 = a0 >> 0x20\n 68179: u64 [sp + 0xd8] = a1\n 68183: a2 = sp + 0x1000\n 68187: u8 [a2 + 0xfffffffffffff804] = a1\n 68191: a1 = a0 >> 0x18\n 68194: u64 [sp + 0xd0] = a1\n 68198: a2 = sp + 0x1000\n 68202: u8 [a2 + 0xfffffffffffff803] = a1\n 68206: a1 = a0 >> 0x10\n 68209: u64 [sp + 0xc8] = a1\n 68213: a2 = sp + 0x1000\n 68217: u8 [a2 + 0xfffffffffffff802] = a1\n 68221: a0 = a0 >> 0x8\n 68224: u64 [sp + 0xc0] = a0\n 68228: a1 = sp + 0x1000\n 68232: u8 [a1 + 0xfffffffffffff801] = a0\n 68236: t2 = u64 [sp + 0x2f8]\n 68240: a0 = sp + 0x1000\n 68244: u8 [a0 + 0xfffffffffffff810] = t2\n 68248: a0 = ra >> 0x38\n 68251: u64 [sp + 0xb8] = a0\n 68255: a1 = sp + 0x1000\n 68259: u8 [a1 + 0xfffffffffffff80f] = a0\n 68263: a0 = ra >> 0x30\n 68266: u64 [sp + 0xb0] = a0\n 68270: a1 = sp + 0x1000\n 68274: u8 [a1 + 0xfffffffffffff80e] = a0\n 68278: a0 = ra >> 0x28\n 68281: u64 [sp + 0xa8] = a0\n 68285: a1 = sp + 0x1000\n 68289: u8 [a1 + 0xfffffffffffff80d] = a0\n 68293: a0 = ra >> 0x20\n 68296: u64 [sp + 0xa0] = a0\n 68300: a1 = sp + 0x1000\n 68304: u8 [a1 + 0xfffffffffffff80c] = a0\n 68308: a0 = ra >> 0x18\n 68311: u64 [sp + 0x98] = a0\n 68315: a1 = sp + 0x1000\n 68319: u8 [a1 + 0xfffffffffffff80b] = a0\n 68323: a0 = ra >> 0x10\n 68326: u64 [sp + 0x90] = a0\n 68330: a1 = sp + 0x1000\n 68334: u8 [a1 + 0xfffffffffffff80a] = a0\n 68338: a0 = ra >> 0x8\n 68341: u64 [sp + 0x88] = a0\n 68345: a1 = sp + 0x1000\n 68349: u8 [a1 + 0xfffffffffffff809] = a0\n 68353: a1 = u64 [sp + 0x2f0]\n 68357: a0 = sp + 0x1000\n 68361: u8 [a0 + 0xfffffffffffff818] = a1\n 68365: a0 = t2 >> 0x38\n 68368: u64 [sp + 0x80] = a0\n 68372: a2 = sp + 0x1000\n 68376: u8 [a2 + 0xfffffffffffff817] = a0\n 68380: a0 = t2 >> 0x30\n 68383: u64 [sp + 0x78] = a0\n 68386: a2 = sp + 0x1000\n 68390: u8 [a2 + 0xfffffffffffff816] = a0\n 68394: a0 = t2 >> 0x28\n 68397: u64 [sp + 0x70] = a0\n 68400: a2 = sp + 0x1000\n 68404: u8 [a2 + 0xfffffffffffff815] = a0\n 68408: a0 = t2 >> 0x20\n 68411: u64 [sp + 0x68] = a0\n 68414: a2 = sp + 0x1000\n 68418: u8 [a2 + 0xfffffffffffff814] = a0\n 68422: a0 = t2 >> 0x18\n 68425: u64 [sp + 0x60] = a0\n 68428: a2 = sp + 0x1000\n 68432: u8 [a2 + 0xfffffffffffff813] = a0\n 68436: a0 = t2 >> 0x10\n 68439: u64 [sp + 0x358] = a0\n 68443: a2 = sp + 0x1000\n 68447: u8 [a2 + 0xfffffffffffff812] = a0\n 68451: a0 = t2 >> 0x8\n 68454: u64 [sp + 0x350] = a0\n 68458: a2 = sp + 0x1000\n 68462: u8 [a2 + 0xfffffffffffff811] = a0\n 68466: a0 = a1 >> 0x38\n 68469: u64 [sp + 0x348] = a0\n 68473: a2 = sp + 0x1000\n 68477: u8 [a2 + 0xfffffffffffff81f] = a0\n 68481: a0 = a1 >> 0x30\n 68484: u64 [sp + 0x318] = a0\n 68488: a2 = sp + 0x1000\n 68492: u8 [a2 + 0xfffffffffffff81e] = a0\n 68496: a0 = a1 >> 0x28\n 68499: u64 [sp + 0x310] = a0\n 68503: a2 = sp + 0x1000\n 68507: u8 [a2 + 0xfffffffffffff81d] = a0\n 68511: a0 = a1 >> 0x20\n 68514: u64 [sp + 0x118] = a0\n 68518: a2 = sp + 0x1000\n 68522: u8 [a2 + 0xfffffffffffff81c] = a0\n 68526: a0 = a1 >> 0x18\n 68529: u64 [sp + 0x110] = a0\n 68533: a2 = sp + 0x1000\n 68537: u8 [a2 + 0xfffffffffffff81b] = a0\n 68541: a0 = a1 >> 0x10\n 68544: u64 [sp + 0x108] = a0\n 68548: a2 = sp + 0x1000\n 68552: u8 [a2 + 0xfffffffffffff81a] = a0\n 68556: a0 = a1 >> 0x8\n 68559: u64 [sp + 0x100] = a0\n 68563: a1 = sp + 0x1000\n 68567: u8 [a1 + 0xfffffffffffff819] = a0\n 68571: a1 = t0 << 0x38\n 68574: a1 = a1 >> 0x3b\n 68577: a0 = sp + 0x7ff\n 68581: a0 = a0 + 0x1\n 68584: a1 = a0 - a1\n 68587: a2 = u8 [a1 + 0x19]\n 68590: a3 = u8 [a1 + 0x18]\n 68593: a4 = u8 [a1 + 0x1a]\n 68596: a5 = u8 [a1 + 0x1b]\n 68599: a2 = a2 << 0x8\n 68602: a2 = a2 | a3\n 68605: a4 = a4 << 0x10\n 68608: a5 = a5 << 0x18\n 68611: a4 = a4 | a5\n 68614: a2 = a2 | a4\n 68617: a3 = u8 [a1 + 0x1d]\n 68620: a4 = u8 [a1 + 0x1c]\n 68623: a5 = u8 [a1 + 0x1e]\n 68626: s1 = u8 [a1 + 0x1f]\n 68629: a3 = a3 << 0x8\n 68632: a3 = a3 | a4\n 68635: a5 = a5 << 0x10\n 68638: s1 = s1 << 0x18\n 68641: a5 = a5 | s1\n 68644: a3 = a3 | a5\n 68647: a3 = a3 << 0x20\n 68650: a2 = a2 | a3\n 68653: a3 = u8 [a1 + 0x11]\n 68656: a4 = u8 [a1 + 0x10]\n 68659: a5 = u8 [a1 + 0x12]\n 68662: s1 = u8 [a1 + 0x13]\n 68665: a3 = a3 << 0x8\n 68668: a3 = a3 | a4\n 68671: a5 = a5 << 0x10\n 68674: s1 = s1 << 0x18\n 68677: a5 = a5 | s1\n 68680: a3 = a3 | a5\n 68683: a4 = u8 [a1 + 0x15]\n 68686: a5 = u8 [a1 + 0x14]\n 68689: s1 = u8 [a1 + 0x16]\n 68692: a0 = u8 [a1 + 0x17]\n 68695: a4 = a4 << 0x8\n 68698: a4 = a4 | a5\n 68701: s1 = s1 << 0x10\n 68704: a0 = a0 << 0x18\n 68707: a0 = a0 | s1\n 68710: a0 = a0 | a4\n 68713: a0 = a0 << 0x20\n 68716: t1 = a0 | a3\n 68719: a0 = t0 & 0x7\n 68722: a4 = a2 << a0\n 68725: a5 = t1 >> 0x1\n 68728: t0 = a0 ^ 0x3f\n 68731: a5 = a5 >> t0\n 68734: a4 = a4 | a5\n 68737: u64 [sp + 0x3a0] = a4\n 68741: a4 = u8 [a1 + 0x9]\n 68744: a5 = u8 [a1 + 0x8]\n 68747: s1 = u8 [a1 + 0xa]\n 68750: a2 = u8 [a1 + 0xb]\n 68753: a4 = a4 << 0x8\n 68756: a4 = a4 | a5\n 68759: s1 = s1 << 0x10\n 68762: a2 = a2 << 0x18\n 68765: a2 = a2 | s1\n 68768: a2 = a2 | a4\n 68771: a4 = u8 [a1 + 0xd]\n 68774: a5 = u8 [a1 + 0xc]\n 68777: s1 = u8 [a1 + 0xe]\n 68780: a3 = u8 [a1 + 0xf]\n 68783: a4 = a4 << 0x8\n 68786: a4 = a4 | a5\n 68789: s1 = s1 << 0x10\n 68792: a3 = a3 << 0x18\n 68795: a3 = a3 | s1\n 68798: a3 = a3 | a4\n 68801: a3 = a3 << 0x20\n 68804: a4 = a3 | a2\n 68807: a2 = a4 >> 0x1\n 68810: a3 = a0 ^ 0xffffffffffffffff\n 68813: a2 = a2 >> a3\n 68816: a3 = t1 << a0\n 68819: a2 = a2 | a3\n 68822: u64 [sp + 0x398] = a2\n 68826: a2 = u8 [a1 + 0x1]\n 68829: a3 = u8 [a1]\n 68831: a5 = u8 [a1 + 0x2]\n 68834: s1 = u8 [a1 + 0x3]\n 68837: a2 = a2 << 0x8\n 68840: a2 = a2 | a3\n 68843: a5 = a5 << 0x10\n 68846: s1 = s1 << 0x18\n 68849: a5 = a5 | s1\n 68852: a2 = a2 | a5\n 68855: a3 = u8 [a1 + 0x5]\n 68858: a5 = u8 [a1 + 0x4]\n 68861: s1 = u8 [a1 + 0x6]\n 68864: a1 = u8 [a1 + 0x7]\n 68867: a3 = a3 << 0x8\n 68870: a3 = a3 | a5\n 68873: a5 = u64 [sp + 0x378]\n 68877: s1 = s1 << 0x10\n 68880: a1 = a1 << 0x18\n 68883: a1 = a1 | s1\n 68886: a1 = a1 | a3\n 68889: a1 = a1 << 0x20\n 68892: a1 = a1 | a2\n 68895: a2 = a1 >> 0x1\n 68898: a2 = a2 >> t0\n 68901: s1 = u64 [sp + 0x370]\n 68905: a3 = a4 << a0\n 68908: a4 = u64 [sp + 0x380]\n 68912: a2 = a2 | a3\n 68915: u64 [sp + 0x388] = a2\n 68919: a2 = a4 | a5\n 68922: a3 = u64 [sp + 0x3a8]\n 68926: a3 = a3 | s1\n 68929: a2 = a2 | a3\n 68932: a0 = a1 << a0\n 68935: u64 [sp + 0x390] = a0\n 68939: jump @320 if a2 == 0\n      : @316 (gas: 219)\n 68943: u64 [sp + 872] = 0\n 68947: u64 [sp + 864] = 0\n 68951: a0 = u64 [sp + 0xf0]\n 68955: u8 [sp + 0x7a7] = a0\n 68959: a0 = u64 [sp + 0xe8]\n 68963: u8 [sp + 0x7a6] = a0\n 68967: a0 = u64 [sp + 0xe0]\n 68971: u8 [sp + 0x7a5] = a0\n 68975: a0 = u64 [sp + 0xd8]\n 68979: u8 [sp + 0x7a4] = a0\n 68983: a0 = u64 [sp + 0xd0]\n 68987: u8 [sp + 0x7a3] = a0\n 68991: a0 = u64 [sp + 0xc8]\n 68995: u8 [sp + 0x7a2] = a0\n 68999: a0 = u64 [sp + 0xc0]\n 69003: u8 [sp + 0x7a1] = a0\n 69007: a0 = u64 [sp + 0xb8]\n 69011: u8 [sp + 0x7af] = a0\n 69015: a0 = u64 [sp + 0xb0]\n 69019: u8 [sp + 0x7ae] = a0\n 69023: a0 = u64 [sp + 0xa8]\n 69027: u8 [sp + 0x7ad] = a0\n 69031: a0 = u64 [sp + 0xa0]\n 69035: u8 [sp + 0x7ac] = a0\n 69039: a0 = u64 [sp + 0x98]\n 69043: u8 [sp + 0x7ab] = a0\n 69047: a0 = u64 [sp + 0x90]\n 69051: u8 [sp + 0x7aa] = a0\n 69055: a0 = u64 [sp + 0x88]\n 69059: u8 [sp + 0x7a9] = a0\n 69063: a0 = u64 [sp + 0x80]\n 69067: u8 [sp + 0x7b7] = a0\n 69071: a0 = u64 [sp + 0x78]\n 69074: u8 [sp + 0x7b6] = a0\n 69078: a0 = u64 [sp + 0x70]\n 69081: u8 [sp + 0x7b5] = a0\n 69085: a0 = u64 [sp + 0x68]\n 69088: u8 [sp + 0x7b4] = a0\n 69092: a0 = u64 [sp + 0x60]\n 69095: u8 [sp + 0x7b3] = a0\n 69099: u8 [sp + 2015] = 0\n 69103: u8 [sp + 2014] = 0\n 69107: u8 [sp + 2013] = 0\n 69111: u8 [sp + 2012] = 0\n 69115: u8 [sp + 2011] = 0\n 69119: u8 [sp + 2010] = 0\n 69123: u8 [sp + 2009] = 0\n 69127: u8 [sp + 2008] = 0\n 69131: u8 [sp + 2007] = 0\n 69135: u8 [sp + 2006] = 0\n 69139: u8 [sp + 2005] = 0\n 69143: u8 [sp + 2004] = 0\n 69147: u8 [sp + 2003] = 0\n 69151: u8 [sp + 2002] = 0\n 69155: u8 [sp + 2001] = 0\n 69159: u8 [sp + 2000] = 0\n 69163: u8 [sp + 1999] = 0\n 69167: u8 [sp + 1998] = 0\n 69171: u8 [sp + 1997] = 0\n 69175: u8 [sp + 1996] = 0\n 69179: u8 [sp + 1995] = 0\n 69183: u8 [sp + 1994] = 0\n 69187: u8 [sp + 1993] = 0\n 69191: u8 [sp + 1992] = 0\n 69195: u8 [sp + 1991] = 0\n 69199: u8 [sp + 1990] = 0\n 69203: u8 [sp + 1989] = 0\n 69207: u8 [sp + 1988] = 0\n 69211: u8 [sp + 1987] = 0\n 69215: u8 [sp + 1986] = 0\n 69219: u8 [sp + 1985] = 0\n 69223: u8 [sp + 1984] = 0\n 69227: a0 = u64 [sp + 0x308]\n 69231: u8 [sp + 0x7a0] = a0\n 69235: u8 [sp + 0x7a8] = ra\n 69239: u8 [sp + 0x7b0] = t2\n 69243: a0 = u64 [sp + 0x2f0]\n 69247: u8 [sp + 0x7b8] = a0\n 69251: a0 = u64 [sp + 0x358]\n 69255: u8 [sp + 0x7b2] = a0\n 69259: a0 = u64 [sp + 0x350]\n 69263: u8 [sp + 0x7b1] = a0\n 69267: a0 = u64 [sp + 0x348]\n 69271: u8 [sp + 0x7bf] = a0\n 69275: a0 = u64 [sp + 0x318]\n 69279: u8 [sp + 0x7be] = a0\n 69283: a0 = u64 [sp + 0x310]\n 69287: u8 [sp + 0x7bd] = a0\n 69291: a0 = u64 [sp + 0x118]\n 69295: u8 [sp + 0x7bc] = a0\n 69299: a0 = u64 [sp + 0x110]\n 69303: u8 [sp + 0x7bb] = a0\n 69307: a0 = u64 [sp + 0x108]\n 69311: u8 [sp + 0x7ba] = a0\n 69315: a0 = u64 [sp + 0x100]\n 69319: u8 [sp + 0x7b9] = a0\n 69323: s1 = u64 [sp + 0x3a8]\n 69327: a0 = s1 << 0x38\n 69330: a0 = a0 >> 0x3b\n 69333: a1 = sp + 0x7a0\n 69337: a0 = a0 + a1\n 69340: a1 = u8 [a0 + 0x11]\n 69343: a2 = u8 [a0 + 0x10]\n 69346: a3 = u8 [a0 + 0x12]\n 69349: a4 = u8 [a0 + 0x13]\n 69352: a1 = a1 << 0x8\n 69355: a1 = a1 | a2\n 69358: a3 = a3 << 0x10\n 69361: a4 = a4 << 0x18\n 69364: a3 = a3 | a4\n 69367: a1 = a1 | a3\n 69370: a2 = u8 [a0 + 0x15]\n 69373: a3 = u8 [a0 + 0x14]\n 69376: a4 = u8 [a0 + 0x16]\n 69379: a5 = u8 [a0 + 0x17]\n 69382: a2 = a2 << 0x8\n 69385: a2 = a2 | a3\n 69388: a4 = a4 << 0x10\n 69391: a5 = a5 << 0x18\n 69394: a4 = a4 | a5\n 69397: a2 = a2 | a4\n 69400: a2 = a2 << 0x20\n 69403: t0 = a2 | a1\n 69406: a3 = s1 & 0x7\n 69409: t1 = t0 >> a3\n 69412: a2 = u8 [a0 + 0x19]\n 69415: a4 = u8 [a0 + 0x18]\n 69418: a5 = u8 [a0 + 0x1a]\n 69421: s1 = u8 [a0 + 0x1b]\n 69424: a2 = a2 << 0x8\n 69427: a2 = a2 | a4\n 69430: a5 = a5 << 0x10\n 69433: s1 = s1 << 0x18\n 69436: a5 = a5 | s1\n 69439: a2 = a2 | a5\n 69442: a4 = u8 [a0 + 0x1d]\n 69445: a5 = u8 [a0 + 0x1c]\n 69448: s1 = u8 [a0 + 0x1e]\n 69451: a1 = u8 [a0 + 0x1f]\n 69454: a4 = a4 << 0x8\n 69457: a4 = a4 | a5\n 69460: s1 = s1 << 0x10\n 69463: a1 = a1 << 0x18\n 69466: a1 = a1 | s1\n 69469: a1 = a1 | a4\n 69472: a1 = a1 << 0x20\n 69475: ra = a1 | a2\n 69478: a1 = ra << 0x1\n 69481: t2 = a3 ^ 0x3f\n 69484: a1 = a1 << t2\n 69487: a1 = t1 | a1\n 69490: u64 [sp + 0x358] = a1\n 69494: a1 = u8 [a0 + 0x9]\n 69497: a2 = u8 [a0 + 0x8]\n 69500: a4 = u8 [a0 + 0xa]\n 69503: a5 = u8 [a0 + 0xb]\n 69506: a1 = a1 << 0x8\n 69509: a1 = a1 | a2\n 69512: a4 = a4 << 0x10\n 69515: a5 = a5 << 0x18\n 69518: a4 = a4 | a5\n 69521: a1 = a1 | a4\n 69524: a2 = u8 [a0 + 0xd]\n 69527: a4 = u8 [a0 + 0xc]\n 69530: a5 = u8 [a0 + 0xe]\n 69533: s1 = u8 [a0 + 0xf]\n 69536: a2 = a2 << 0x8\n 69539: a2 = a2 | a4\n 69542: a5 = a5 << 0x10\n 69545: s1 = s1 << 0x18\n 69548: a5 = a5 | s1\n 69551: a2 = a2 | a5\n 69554: a2 = a2 << 0x20\n 69557: a2 = a2 | a1\n 69560: a1 = a2 >> a3\n 69563: t0 = t0 << 0x1\n 69566: a4 = a3 ^ 0xffffffffffffffff\n 69569: a4 = t0 << a4\n 69572: t1 = a1 | a4\n 69575: a1 = u8 [a0 + 0x1]\n 69578: a4 = u8 [a0]\n 69580: a5 = u8 [a0 + 0x2]\n 69583: s1 = u8 [a0 + 0x3]\n 69586: a1 = a1 << 0x8\n 69589: a1 = a1 | a4\n 69592: a5 = a5 << 0x10\n 69595: s1 = s1 << 0x18\n 69598: a5 = a5 | s1\n 69601: a1 = a1 | a5\n 69604: a4 = u8 [a0 + 0x5]\n 69607: a5 = u8 [a0 + 0x4]\n 69610: s1 = u8 [a0 + 0x6]\n 69613: a0 = u8 [a0 + 0x7]\n 69616: a4 = a4 << 0x8\n 69619: a4 = a4 | a5\n 69622: s1 = s1 << 0x10\n 69625: a0 = a0 << 0x18\n 69628: a0 = a0 | s1\n 69631: a0 = a0 | a4\n 69634: a0 = a0 << 0x20\n 69637: a0 = a0 | a1\n 69640: a0 = a0 >> a3\n 69643: a2 = a2 << 0x1\n 69646: s1 = a2 << t2\n 69649: s1 = s1 | a0\n 69652: ra = ra >> a3\n 69655: a0 = u64 [sp + 0x3b8]\n 69659: a1 = a0 <u 0x1\n 69662: a2 = u64 [sp + 0x3b0]\n 69666: a1 = a2 - a1\n 69669: u64 [sp + 0x348] = a1\n 69673: a1 = a0 | a2\n 69676: a1 = a1 >u 0\n 69678: a1 = a1 + 0xffffffffffffffff\n 69681: u64 [sp + 0x318] = a1\n 69685: a0 = a0 + 0xffffffffffffffff\n 69688: u64 [sp + 0x310] = a0\n 69692: a4 = u64 [sp + 0x388]\n 69696: fallthrough\n      : @317 (gas: 90)\n 69697: u64 [sp + 848] = 0\n 69701: a2 = s1 >> 0x3f\n 69704: a3 = t1 << 0x1\n 69707: t2 = a3 | a2\n 69710: s1 = s1 << 0x1\n 69713: a5 = u64 [sp + 0x3a0]\n 69717: a2 = a5 >> 0x3f\n 69720: a2 = a2 | s1\n 69723: a0 = u64 [sp + 0x348]\n 69727: a3 = a0 ^ t2\n 69730: s1 = a0 <u t2\n 69733: a0 = u64 [sp + 0x310]\n 69737: t0 = a0 <u a2\n 69740: t0 = s1 if a3 != 0\n 69743: a0 = ra << 0x1\n 69746: a1 = u64 [sp + 0x358]\n 69750: a3 = a1 >> 0x3f\n 69753: ra = a0 | a3\n 69756: a3 = t1 >> 0x3f\n 69759: a1 = a1 << 0x1\n 69762: t1 = a1 | a3\n 69765: a1 = a5 << 0x1\n 69768: a0 = u64 [sp + 0x398]\n 69772: s1 = a0 >> 0x3f\n 69775: a1 = a1 | s1\n 69778: s1 = a0 << 0x1\n 69781: a5 = a4 >> 0x3f\n 69784: a5 = a5 | s1\n 69787: s1 = a4 << 0x1\n 69790: a0 = u64 [sp + 0x390]\n 69794: a4 = a0 >> 0x3f\n 69797: a4 = a4 | s1\n 69800: s1 = a0 << 0x1\n 69803: a3 = u64 [sp + 0x368]\n 69807: a3 = a3 | s1\n 69810: u64 [sp + 0x390] = a3\n 69814: a3 = u64 [sp + 0x360]\n 69818: a4 = a4 | a3\n 69821: u64 [sp + 0x388] = a4\n 69825: a5 = a5 | a3\n 69828: u64 [sp + 0x398] = a5\n 69832: a1 = a1 | a3\n 69835: u64 [sp + 0x3a0] = a1\n 69839: a0 = u64 [sp + 0x318]\n 69843: a1 = a0 - t1\n 69846: a1 = a1 <u t0\n 69849: a4 = a0 <u t1\n 69852: a5 = a0 - ra\n 69855: a5 = a5 - a4\n 69858: a5 = a5 - a1\n 69861: a5 = a5 >>a 0x3f\n 69864: a4 = u64 [sp + 0x3b8]\n 69868: a4 = a4 & a5\n 69871: s1 = u64 [sp + 0x3b0]\n 69875: s1 = s1 & a5\n 69878: t0 = t2 ^ s1\n 69881: a1 = t2 <u s1\n 69884: a3 = a2 <u a4\n 69887: a1 = a3 if t0 == 0\n 69890: a0 = t1 - a1\n 69893: u64 [sp + 0x358] = a0\n 69897: a1 = t1 <u a1\n 69900: ra = ra - a1\n 69903: a1 = t2 - s1\n 69906: t1 = a1 - a3\n 69909: s1 = a2 - a4\n 69912: a4 = u64 [sp + 0x3a8]\n 69916: a0 = u64 [sp + 0x380]\n 69920: a1 = a4 | a0\n 69923: a1 = a1 <u 0x1\n 69926: a3 = u64 [sp + 0x370]\n 69930: a2 = a3 <u a1\n 69933: a1 = a3 - a1\n 69936: a3 = a4 <u 0x1\n 69939: a0 = a0 - a3\n 69942: a3 = u64 [sp + 0x378]\n 69946: a3 = a3 - a2\n 69949: a4 = a4 + 0xffffffffffffffff\n 69952: u64 [sp + 0x380] = a0\n 69956: u64 [sp + 0x378] = a3\n 69960: a2 = a0 | a3\n 69963: u64 [sp + 0x3a8] = a4\n 69967: a3 = a4 | a1\n 69970: a4 = u64 [sp + 0x388]\n 69974: a2 = a2 | a3\n 69977: a5 = a5 & 0x1\n 69980: u64 [sp + 0x368] = a5\n 69984: u64 [sp + 0x370] = a1\n 69988: u64 [sp + 864] = 0\n 69992: jump @317 if a2 != 0\n      : @318 (gas: 1)\n 69996: jump @321\n      : @319 (gas: 5)\n 69998: u64 [sp + 704] = 0xffffffffffffffff\n 70003: u64 [sp + 720] = 0xffffffffffffffff\n 70008: u64 [sp + 752] = 0xffffffffffffffff\n 70013: u64 [sp + 744] = 0xffffffffffffffff\n 70018: jump @340\n      : @320 (gas: 4)\n 70021: u64 [sp + 872] = 0\n 70025: u64 [sp + 848] = 0\n 70029: a4 = u64 [sp + 0x388]\n 70033: fallthrough\n      : @321 (gas: 23)\n 70034: a2 = u64 [sp + 0x398]\n 70038: a0 = a2 >> 0x3f\n 70041: a1 = u64 [sp + 0x3a0]\n 70045: a1 = a1 << 0x1\n 70048: a1 = a1 | a0\n 70051: a0 = a4 >> 0x3f\n 70054: a2 = a2 << 0x1\n 70057: a2 = a2 | a0\n 70060: a0 = u64 [sp + 0x390]\n 70064: a3 = a0 >> 0x3f\n 70067: a4 = a4 << 0x1\n 70070: a0 = a0 << 0x1\n 70073: a5 = u64 [sp + 0x368]\n 70077: t2 = a5 | a0\n 70080: a5 = u64 [sp + 0x350]\n 70084: a3 = a3 | a5\n 70087: t1 = a3 | a4\n 70090: a0 = a5 | a2\n 70093: u64 [sp + 0x3a8] = a0\n 70097: a0 = a5 | a1\n 70100: u64 [sp + 0x388] = a0\n 70104: t0 = u64 [sp + 0xf8]\n 70108: fallthrough\n      : @322 (gas: 180)\n 70109: a1 = u64 [sp + 0x120]\n 70113: a1 = a1 << 0x8\n 70116: a2 = u64 [sp + 0x148]\n 70120: a1 = a1 | a2\n 70123: a3 = u64 [sp + 0x130]\n 70127: a3 = a3 << 0x10\n 70130: a4 = u64 [sp + 0x128]\n 70134: a4 = a4 << 0x18\n 70137: a3 = a3 | a4\n 70140: a1 = a1 | a3\n 70143: a3 = u64 [sp + 0x140]\n 70147: a3 = a3 << 0x8\n 70150: a2 = u64 [sp + 0x160]\n 70154: a3 = a3 | a2\n 70157: a4 = u64 [sp + 0x158]\n 70161: a4 = a4 << 0x10\n 70164: a5 = u64 [sp + 0x150]\n 70168: a5 = a5 << 0x18\n 70171: a4 = a4 | a5\n 70174: a3 = a3 | a4\n 70177: a3 = a3 << 0x20\n 70180: a1 = a1 | a3\n 70183: a3 = u64 [sp + 0x168]\n 70187: a3 = a3 << 0x8\n 70190: a2 = u64 [sp + 0x188]\n 70194: a3 = a3 | a2\n 70197: a4 = u64 [sp + 0x178]\n 70201: a4 = a4 << 0x10\n 70204: a5 = u64 [sp + 0x170]\n 70208: a5 = a5 << 0x18\n 70211: a4 = a4 | a5\n 70214: a3 = a3 | a4\n 70217: a4 = u64 [sp + 0x180]\n 70221: a4 = a4 << 0x8\n 70224: a2 = u64 [sp + 0x1a0]\n 70228: a4 = a4 | a2\n 70231: a5 = u64 [sp + 0x198]\n 70235: a5 = a5 << 0x10\n 70238: s1 = u64 [sp + 0x190]\n 70242: s1 = s1 << 0x18\n 70245: a5 = a5 | s1\n 70248: a4 = a4 | a5\n 70251: a4 = a4 << 0x20\n 70254: a3 = a3 | a4\n 70257: a2 = u64 [sp + 0x200]\n 70261: a1 = a1 << a2\n 70264: a0 = a2\n 70266: a4 = a3 >> 0x1\n 70269: a2 = u64 [sp + 0x1f8]\n 70273: a4 = a4 >> a2\n 70276: a1 = a1 | a4\n 70279: u64 [sp + 0x380] = a1\n 70283: a1 = u64 [sp + 0x1a8]\n 70287: a1 = a1 << 0x8\n 70290: a4 = u64 [sp + 0x1c8]\n 70294: a1 = a1 | a4\n 70297: a4 = u64 [sp + 0x1b8]\n 70301: a4 = a4 << 0x10\n 70304: a5 = u64 [sp + 0x1b0]\n 70308: a5 = a5 << 0x18\n 70311: a4 = a4 | a5\n 70314: a1 = a1 | a4\n 70317: a4 = u64 [sp + 0x1c0]\n 70321: a4 = a4 << 0x8\n 70324: a5 = u64 [sp + 0x210]\n 70328: a4 = a4 | a5\n 70331: a5 = u64 [sp + 0x208]\n 70335: a5 = a5 << 0x10\n 70338: s1 = u64 [sp + 0x1d0]\n 70342: s1 = s1 << 0x18\n 70345: a5 = a5 | s1\n 70348: a4 = a4 | a5\n 70351: a4 = a4 << 0x20\n 70354: a1 = a1 | a4\n 70357: a3 = a3 << a0\n 70360: a4 = a1 >> 0x1\n 70363: a5 = u64 [sp + 0x1e8]\n 70367: a4 = a4 >> a5\n 70370: a3 = a3 | a4\n 70373: u64 [sp + 0x378] = a3\n 70377: a3 = u64 [sp + 0x218]\n 70381: a3 = a3 << 0x8\n 70384: a4 = u64 [sp + 0x250]\n 70388: a3 = a3 | a4\n 70391: a4 = u64 [sp + 0x248]\n 70395: a4 = a4 << 0x10\n 70398: a5 = u64 [sp + 0x220]\n 70402: a5 = a5 << 0x18\n 70405: a4 = a4 | a5\n 70408: a1 = a1 << a0\n 70411: a3 = a3 | a4\n 70414: a4 = u64 [sp + 0x258]\n 70418: a4 = a4 << 0x8\n 70421: a0 = u64 [sp + 0x268]\n 70425: a4 = a4 | a0\n 70428: a5 = u64 [sp + 0x260]\n 70432: a5 = a5 << 0x10\n 70435: s1 = t0 << 0x18\n 70438: a5 = a5 | s1\n 70441: a4 = a4 | a5\n 70444: a4 = a4 << 0x20\n 70447: a3 = a3 | a4\n 70450: u64 [sp + 0x390] = a3\n 70454: a3 = a3 >> 0x1\n 70457: a3 = a3 >> a2\n 70460: a1 = a1 | a3\n 70463: u64 [sp + 0x268] = a1\n 70467: a5 = u64 [sp + 0x3b8]\n 70471: ra = t2\n 70473: a1 = t2 mulhu a5\n 70476: a2 = t1\n 70478: a3 = t1 * a5\n 70481: a1 = a1 + a3\n 70484: a3 = a1 <u a3\n 70487: a4 = t1 mulhu a5\n 70490: s1 = a4 + a3\n 70493: a0 = u64 [sp + 0x3b0]\n 70497: a3 = t2 * a0\n 70500: t1 = a3 + a1\n 70503: a1 = t1 <u a3\n 70506: a3 = t2 mulhu a0\n 70509: a1 = a1 + a3\n 70512: a4 = s1 + a1\n 70515: a3 = a2 * a0\n 70518: a1 = a3 + a4\n 70521: a3 = a1 <u a3\n 70524: a4 = a4 <u s1\n 70527: s1 = a2 mulhu a0\n 70530: a4 = a4 + s1\n 70533: a3 = a3 + a4\n 70536: t0 = u64 [sp + 0x3a8]\n 70540: a4 = a5 mulhu t0\n 70543: t2 = u64 [sp + 0x388]\n 70547: s1 = a5 * t2\n 70550: a4 = a4 + s1\n 70553: s1 = a0 * t0\n 70556: a4 = a4 + s1\n 70559: s1 = a5 * t0\n 70562: s1 = s1 + a1\n 70565: a1 = s1 <u a1\n 70568: a3 = a3 + a4\n 70571: a3 = a3 + a1\n 70574: a1 = ra * a5\n 70577: u64 [sp + 0x370] = a1\n 70581: a0 = u64 [sp + 0x2f0]\n 70585: a0 = a0 - a3\n 70588: u64 [sp + 0x3a0] = a0\n 70592: a0 = u64 [sp + 0x300]\n 70596: u64 [sp + 0x368] = t1\n 70600: a3 = a0 ^ t1\n 70603: u64 [sp + 0x398] = a3\n 70607: a4 = a0 <u t1\n 70610: a3 = u64 [sp + 0x308]\n 70614: a5 = a3 <u a1\n 70617: a1 = u64 [sp + 0x398]\n 70621: a4 = a5 if a1 == 0\n 70624: t1 = u64 [sp + 0x2f8]\n 70628: a1 = t1 <u s1\n 70631: s1 = t1 - s1\n 70634: t1 = s1 <u a4\n 70637: a1 = a1 + t1\n 70640: a3 = u64 [sp + 0x3a0]\n 70644: a1 = a3 - a1\n 70647: u64 [sp + 0x3a0] = a1\n 70651: a1 = ra\n 70653: s1 = s1 - a4\n 70656: u64 [sp + 0x398] = s1\n 70660: a3 = u64 [sp + 0x368]\n 70664: a4 = a0 - a3\n 70667: ra = a4 - a5\n 70670: a4 = t0\n 70672: a0 = u64 [sp + 0x200]\n 70676: a5 = u64 [sp + 0x390]\n 70680: a0 = a5 << a0\n 70683: u64 [sp + 0x2f8] = a0\n 70687: a0 = a2\n 70689: a2 = u64 [sp + 0x370]\n 70693: a3 = u64 [sp + 0x308]\n 70697: t0 = a3 - a2\n 70700: jump @324\n      : @323 (gas: 37)\n 70702: a5 = u64 [sp + 0x3b8]\n 70706: a5 = a5 + t0\n 70709: a0 = a5 <u t0\n 70712: a3 = u64 [sp + 0x3b0]\n 70716: a3 = a3 + ra\n 70719: a3 = a3 + a0\n 70722: a2 = a3 ^ ra\n 70725: a4 = a3 <u ra\n 70728: a4 = a0 if a2 == 0\n 70731: a0 = a3 + 0x1\n 70734: a2 = a3 <u 0xffffffffffffffff\n 70737: t1 = a5 <u 0xffffffffffffffff\n 70740: t1 = a2 if a0 != 0\n 70743: a0 = a1 <u 0x1\n 70746: a2 = s1\n 70748: s1 = s1 - a0\n 70751: a0 = a1 | a2\n 70754: a0 = a0 <u 0x1\n 70757: a2 = u64 [sp + 0x3a8]\n 70761: ra = a2 <u a0\n 70764: t0 = a2 - a0\n 70767: t2 = t2 - ra\n 70770: a0 = u64 [sp + 0x398]\n 70774: a2 = a0 + a4\n 70777: a4 = a2 <u a0\n 70780: a0 = u64 [sp + 0x3a0]\n 70784: a0 = a0 + a4\n 70787: u64 [sp + 0x3a0] = a0\n 70791: a4 = a2 | a0\n 70794: t1 = 0 if a4 != 0\n 70796: a1 = a1 + 0xffffffffffffffff\n 70799: a0 = s1\n 70801: a4 = t0\n 70803: t0 = a5\n 70805: ra = a3\n 70807: u64 [sp + 0x398] = a2\n 70811: jump @326 if t1 == 0\n      : @324 (gas: 12)\n 70815: u64 [sp + 0x3a8] = a4\n 70819: a3 = a4 >u 0\n 70821: a5 = t2 >u 0\n 70823: a5 = a3 if t2 == 0\n 70826: a3 = a0 + 0x1\n 70829: s1 = a0\n 70831: a0 = a1 + 0x1\n 70834: a0 = a0 <u 0x1\n 70837: a0 = 0 if a3 != 0\n 70839: a3 = a4 | t2\n 70842: a0 = a5 if a3 != 0\n 70845: jump @323 if a0 != 0\n      : @325 (gas: 56)\n 70849: a4 = u64 [sp + 0x338]\n 70853: a0 = a1 mulhu a4\n 70856: a3 = s1 * a4\n 70859: a0 = a0 + a3\n 70862: a3 = a0 <u a3\n 70865: a5 = s1 mulhu a4\n 70868: u64 [sp + 0x390] = s1\n 70872: s1 = a5 + a3\n 70875: t1 = a1\n 70877: a1 = u64 [sp + 0x340]\n 70881: a5 = t1 * a1\n 70884: u64 [sp + 0x388] = t2\n 70888: t2 = a5 + a0\n 70891: a5 = t2 <u a5\n 70894: a2 = t1 mulhu a1\n 70897: a2 = a2 + a5\n 70900: a3 = s1 + a2\n 70903: a0 = u64 [sp + 0x390]\n 70907: a5 = a0 * a1\n 70910: a2 = a5 + a3\n 70913: a5 = a2 <u a5\n 70916: a3 = a3 <u s1\n 70919: a0 = u64 [sp + 0x390]\n 70923: s1 = a0 mulhu a1\n 70926: a3 = a3 + s1\n 70929: a3 = a3 + a5\n 70932: a0 = u64 [sp + 0x3a8]\n 70936: a5 = a4 mulhu a0\n 70939: s1 = u64 [sp + 0x388]\n 70943: s1 = a4 * s1\n 70946: a5 = a5 + s1\n 70949: s1 = a1 * a0\n 70952: a1 = t1\n 70954: a5 = a5 + s1\n 70957: s1 = a4 * a0\n 70960: s1 = s1 + a2\n 70963: a2 = s1 <u a2\n 70966: a3 = a3 + a5\n 70969: a2 = a2 + a3\n 70972: a3 = t1 * a4\n 70975: a4 = u64 [sp + 0x380]\n 70979: a5 = t2 ^ a4\n 70982: a0 = a4 <u t2\n 70985: t2 = u64 [sp + 0x388]\n 70989: a4 = u64 [sp + 0x378]\n 70993: a3 = a4 <u a3\n 70996: a3 = a0 if a5 != 0\n 70999: a0 = a2 ^ ra\n 71002: a2 = ra <u a2\n 71005: a5 = t0 <u s1\n 71008: a5 = a2 if a0 != 0\n 71011: s1 = s1 ^ t0\n 71014: a0 = a0 | s1\n 71017: s1 = u64 [sp + 0x390]\n 71021: a3 = a5 if a0 != 0\n 71024: jump @323 if a3 != 0\n      : @326 (gas: 110)\n 71028: a2 = s1 & 0xffffffffffffffff\n 71031: a1 = a1 & 0xffffffffffffffff\n 71034: t1 = u64 [sp + 0x338]\n 71038: a0 = a1 mulhu t1\n 71041: a3 = a2 * t1\n 71044: a0 = a0 + a3\n 71047: a3 = a0 <u a3\n 71050: a4 = a2 mulhu t1\n 71053: t0 = a4 + a3\n 71056: a3 = u64 [sp + 0x340]\n 71060: a4 = a1 * a3\n 71063: ra = a4 + a0\n 71066: a4 = ra <u a4\n 71069: a5 = a1 mulhu a3\n 71072: a4 = a4 + a5\n 71075: a4 = a4 + t0\n 71078: t0 = a4 <u t0\n 71081: a5 = a2 mulhu a3\n 71084: t0 = t0 + a5\n 71087: a5 = a2 * a3\n 71090: a4 = a4 + a5\n 71093: a5 = a4 <u a5\n 71096: t0 = t0 + a5\n 71099: a3 = u64 [sp + 0x3b8]\n 71103: a2 = a3 * a2\n 71106: a5 = a3 mulhu a1\n 71109: a2 = a2 + a5\n 71112: a0 = u64 [sp + 0x3b0]\n 71116: a5 = a0 * a1\n 71119: a2 = a2 + a5\n 71122: a2 = a2 + t0\n 71125: a3 = a3 * a1\n 71128: a3 = a3 + a4\n 71131: a4 = a3 <u a4\n 71134: a2 = a2 + a4\n 71137: a1 = a1 * t1\n 71140: a4 = u64 [sp + 0x300]\n 71144: t0 = a4 - a2\n 71147: a0 = u64 [sp + 0x380]\n 71151: a2 = a0 ^ ra\n 71154: a5 = a0 <u ra\n 71157: a4 = u64 [sp + 0x378]\n 71161: s1 = a4 <u a1\n 71164: a5 = s1 if a2 == 0\n 71167: a2 = u64 [sp + 0x308]\n 71171: t1 = a2 <u a3\n 71174: a3 = a2 - a3\n 71177: a2 = a3 <u a5\n 71180: a2 = a2 + t1\n 71183: t2 = t0 - a2\n 71186: t0 = a3 - a5\n 71189: a0 = a0 - ra\n 71192: ra = a0 - s1\n 71195: u64 [sp + 0x318] = ra\n 71199: t1 = a4 - a1\n 71202: a1 = clz t2\n 71204: a0 = clz t0\n 71206: a0 = a0 + 0x40\n 71209: a0 = a1 if t2 != 0\n 71212: a1 = t0 | t2\n 71215: a2 = clz ra\n 71217: a3 = clz t1\n 71219: a3 = a3 + 0x40\n 71222: a3 = a2 if ra != 0\n 71225: a2 = a3 + 0x80\n 71229: a0 = a2 if a1 == 0\n 71232: a2 = a2 <u a3\n 71235: a2 = 0 if a1 != 0\n 71237: a4 = u64 [sp + 0x2d0]\n 71241: a1 = a4 <u a0\n 71244: s1 = u64 [sp + 0x2e8]\n 71248: a3 = s1 ^ a2\n 71251: a5 = s1 <u a2\n 71254: a5 = a1 if a3 == 0\n 71257: a4 = a4 - a0\n 71260: a3 = a5 <u 0x1\n 71263: a3 = a3 + 0xffffffffffffffff\n 71266: s1 = s1 - a2\n 71269: s1 = s1 - a1\n 71272: a0 = s1 >u 0\n 71274: u64 [sp + 0x3a0] = a4\n 71278: a1 = a4 <u 0x100\n 71282: a1 = a1 ^ 0x1\n 71285: a1 = a0 if s1 != 0\n 71288: a4 = -a5\n 71290: a0 = a4 >u 0\n 71292: a2 = a3 >u 0\n 71294: u64 [sp + 0x390] = a3\n 71298: a2 = a0 if a3 == 0\n 71301: a2 = a1 if a5 == 0\n 71304: a0 = ra | t2\n 71307: a1 = t1 | t0\n 71310: a0 = a0 | a1\n 71313: a0 = a0 <u 0x1\n 71316: a1 = u64 [sp + 0x2c0]\n 71320: a0 = a0 | a1\n 71323: a1 = t1\n 71325: a5 = a0 | a2\n 71328: u64 [sp + 0x308] = t2\n 71332: u64 [sp + 0x310] = t0\n 71336: t2 = 0 if a5 != 0\n 71338: u64 [sp + 0x388] = t2\n 71342: t0 = 0 if a5 != 0\n 71344: u64 [sp + 0x398] = t0\n 71348: t1 = ra\n 71350: t1 = 0 if a5 != 0\n 71352: ra = a1\n 71354: ra = 0 if a5 != 0\n 71356: u64 [sp + 0x348] = a1\n 71360: jump @334 if a5 != 0\n      : @327 (gas: 7)\n 71364: a1 = u64 [sp + 0x3a0]\n 71368: a5 = a1 ^ 0xff\n 71372: a5 = a5 | a4\n 71375: t0 = u64 [sp + 0x390]\n 71379: a3 = s1 | t0\n 71382: a3 = a3 | a5\n 71385: jump @334 if a3 == 0\n      : @328 (gas: 257)\n 71389: a2 = a1 + 0x1\n 71392: u64 [sp + 0x3a8] = a2\n 71396: a0 = a2 <u 0x1\n 71399: a0 = a0 + s1\n 71402: u64 [sp + 0x380] = a0\n 71406: a0 = a0 | a2\n 71409: a0 = a0 <u 0x1\n 71412: a0 = a0 + a4\n 71415: u64 [sp + 0x378] = a0\n 71419: a0 = a0 <u a4\n 71422: a0 = a0 + t0\n 71425: u64 [sp + 0x388] = a0\n 71429: t0 = 0xff - a1\n 71433: a1 = u64 [sp + 0x348]\n 71437: u8 [sp + 0x780] = a1\n 71441: u8 [sp + 1919] = 0\n 71445: u8 [sp + 1918] = 0\n 71449: u8 [sp + 1917] = 0\n 71453: u8 [sp + 1916] = 0\n 71457: u8 [sp + 1915] = 0\n 71461: u8 [sp + 1914] = 0\n 71465: u8 [sp + 1913] = 0\n 71469: u8 [sp + 1912] = 0\n 71473: u8 [sp + 1911] = 0\n 71477: u8 [sp + 1910] = 0\n 71481: u8 [sp + 1909] = 0\n 71485: u8 [sp + 1908] = 0\n 71489: u8 [sp + 1907] = 0\n 71493: u8 [sp + 1906] = 0\n 71497: u8 [sp + 1905] = 0\n 71501: u8 [sp + 1904] = 0\n 71505: u8 [sp + 1903] = 0\n 71509: u8 [sp + 1902] = 0\n 71513: u8 [sp + 1901] = 0\n 71517: u8 [sp + 1900] = 0\n 71521: u8 [sp + 1899] = 0\n 71525: u8 [sp + 1898] = 0\n 71529: u8 [sp + 1897] = 0\n 71533: u8 [sp + 1896] = 0\n 71537: u8 [sp + 1895] = 0\n 71541: u8 [sp + 1894] = 0\n 71545: u8 [sp + 1893] = 0\n 71549: u8 [sp + 1892] = 0\n 71553: u8 [sp + 1891] = 0\n 71557: u8 [sp + 1890] = 0\n 71561: u8 [sp + 1889] = 0\n 71565: u8 [sp + 1888] = 0\n 71569: a0 = u64 [sp + 0x318]\n 71573: u8 [sp + 0x788] = a0\n 71577: a2 = a1 >> 0x38\n 71580: u64 [sp + 0x258] = a2\n 71584: u8 [sp + 0x787] = a2\n 71588: a2 = a1 >> 0x30\n 71591: u64 [sp + 0x250] = a2\n 71595: u8 [sp + 0x786] = a2\n 71599: a2 = a1 >> 0x28\n 71602: u64 [sp + 0x248] = a2\n 71606: u8 [sp + 0x785] = a2\n 71610: a2 = a1 >> 0x20\n 71613: u64 [sp + 0x220] = a2\n 71617: u8 [sp + 0x784] = a2\n 71621: a2 = a1 >> 0x18\n 71624: u64 [sp + 0x218] = a2\n 71628: u8 [sp + 0x783] = a2\n 71632: a2 = a1 >> 0x10\n 71635: u64 [sp + 0x210] = a2\n 71639: u8 [sp + 0x782] = a2\n 71643: a2 = a1 >> 0x8\n 71646: u64 [sp + 0x208] = a2\n 71650: u8 [sp + 0x781] = a2\n 71654: t2 = u64 [sp + 0x310]\n 71658: u8 [sp + 0x790] = t2\n 71662: a2 = a0 >> 0x38\n 71665: u64 [sp + 0x1d0] = a2\n 71669: u8 [sp + 0x78f] = a2\n 71673: a2 = a0 >> 0x30\n 71676: u64 [sp + 0x1c8] = a2\n 71680: u8 [sp + 0x78e] = a2\n 71684: a2 = a0 >> 0x28\n 71687: u64 [sp + 0x1c0] = a2\n 71691: u8 [sp + 0x78d] = a2\n 71695: a2 = a0 >> 0x20\n 71698: u64 [sp + 0x1b8] = a2\n 71702: u8 [sp + 0x78c] = a2\n 71706: a2 = a0 >> 0x18\n 71709: u64 [sp + 0x1b0] = a2\n 71713: u8 [sp + 0x78b] = a2\n 71717: a2 = a0 >> 0x10\n 71720: u64 [sp + 0x1a8] = a2\n 71724: u8 [sp + 0x78a] = a2\n 71728: a0 = a0 >> 0x8\n 71731: u64 [sp + 0x1a0] = a0\n 71735: u8 [sp + 0x789] = a0\n 71739: ra = u64 [sp + 0x308]\n 71743: u8 [sp + 0x798] = ra\n 71747: a0 = t2 >> 0x38\n 71750: u64 [sp + 0x198] = a0\n 71754: u8 [sp + 0x797] = a0\n 71758: a0 = t2 >> 0x30\n 71761: u64 [sp + 0x190] = a0\n 71765: u8 [sp + 0x796] = a0\n 71769: a0 = t2 >> 0x28\n 71772: u64 [sp + 0x188] = a0\n 71776: u8 [sp + 0x795] = a0\n 71780: a0 = t2 >> 0x20\n 71783: u64 [sp + 0x180] = a0\n 71787: u8 [sp + 0x794] = a0\n 71791: a0 = t2 >> 0x18\n 71794: u64 [sp + 0x178] = a0\n 71798: u8 [sp + 0x793] = a0\n 71802: a0 = t2 >> 0x10\n 71805: u64 [sp + 0x368] = a0\n 71809: u8 [sp + 0x792] = a0\n 71813: a0 = t2 >> 0x8\n 71816: u64 [sp + 0x360] = a0\n 71820: u8 [sp + 0x791] = a0\n 71824: a0 = ra >> 0x38\n 71827: u64 [sp + 0x358] = a0\n 71831: u8 [sp + 0x79f] = a0\n 71835: a0 = ra >> 0x30\n 71838: u64 [sp + 0x350] = a0\n 71842: u8 [sp + 0x79e] = a0\n 71846: a0 = ra >> 0x28\n 71849: u64 [sp + 0x2f0] = a0\n 71853: u8 [sp + 0x79d] = a0\n 71857: a0 = ra >> 0x20\n 71860: u64 [sp + 0x2e8] = a0\n 71864: u8 [sp + 0x79c] = a0\n 71868: a0 = ra >> 0x18\n 71871: u64 [sp + 0x2d0] = a0\n 71875: u8 [sp + 0x79b] = a0\n 71879: a0 = ra >> 0x10\n 71882: u64 [sp + 0x2c0] = a0\n 71886: u8 [sp + 0x79a] = a0\n 71890: a0 = ra >> 0x8\n 71893: u64 [sp + 0x260] = a0\n 71897: u8 [sp + 0x799] = a0\n 71901: a1 = t0 << 0x38\n 71904: a1 = a1 >> 0x3b\n 71907: a0 = sp + 0x780\n 71911: a1 = a0 - a1\n 71914: a2 = u8 [a1 + 0x19]\n 71917: a3 = u8 [a1 + 0x18]\n 71920: a4 = u8 [a1 + 0x1a]\n 71923: a5 = u8 [a1 + 0x1b]\n 71926: a2 = a2 << 0x8\n 71929: a2 = a2 | a3\n 71932: a4 = a4 << 0x10\n 71935: a5 = a5 << 0x18\n 71938: a4 = a4 | a5\n 71941: a2 = a2 | a4\n 71944: a3 = u8 [a1 + 0x1d]\n 71947: a4 = u8 [a1 + 0x1c]\n 71950: a5 = u8 [a1 + 0x1e]\n 71953: s1 = u8 [a1 + 0x1f]\n 71956: a3 = a3 << 0x8\n 71959: a3 = a3 | a4\n 71962: a5 = a5 << 0x10\n 71965: s1 = s1 << 0x18\n 71968: a5 = a5 | s1\n 71971: a3 = a3 | a5\n 71974: a3 = a3 << 0x20\n 71977: a4 = a3 | a2\n 71980: a2 = u8 [a1 + 0x11]\n 71983: a3 = u8 [a1 + 0x10]\n 71986: a5 = u8 [a1 + 0x12]\n 71989: s1 = u8 [a1 + 0x13]\n 71992: a2 = a2 << 0x8\n 71995: a2 = a2 | a3\n 71998: a5 = a5 << 0x10\n 72001: s1 = s1 << 0x18\n 72004: a5 = a5 | s1\n 72007: a2 = a2 | a5\n 72010: a3 = u8 [a1 + 0x15]\n 72013: a5 = u8 [a1 + 0x14]\n 72016: s1 = u8 [a1 + 0x16]\n 72019: a0 = u8 [a1 + 0x17]\n 72022: a3 = a3 << 0x8\n 72025: a3 = a3 | a5\n 72028: s1 = s1 << 0x10\n 72031: a0 = a0 << 0x18\n 72034: a0 = a0 | s1\n 72037: a0 = a0 | a3\n 72040: a0 = a0 << 0x20\n 72043: t1 = a0 | a2\n 72046: a0 = t0 & 0x7\n 72049: a2 = a4 << a0\n 72052: a5 = t1 >> 0x1\n 72055: t0 = a0 ^ 0x3f\n 72058: a5 = a5 >> t0\n 72061: a2 = a2 | a5\n 72064: u64 [sp + 0x300] = a2\n 72068: a2 = u8 [a1 + 0x9]\n 72071: a5 = u8 [a1 + 0x8]\n 72074: s1 = u8 [a1 + 0xa]\n 72077: a4 = u8 [a1 + 0xb]\n 72080: a2 = a2 << 0x8\n 72083: a2 = a2 | a5\n 72086: s1 = s1 << 0x10\n 72089: a4 = a4 << 0x18\n 72092: a4 = a4 | s1\n 72095: a2 = a2 | a4\n 72098: a4 = u8 [a1 + 0xd]\n 72101: a5 = u8 [a1 + 0xc]\n 72104: s1 = u8 [a1 + 0xe]\n 72107: a3 = u8 [a1 + 0xf]\n 72110: a4 = a4 << 0x8\n 72113: a4 = a4 | a5\n 72116: s1 = s1 << 0x10\n 72119: a3 = a3 << 0x18\n 72122: a3 = a3 | s1\n 72125: a3 = a3 | a4\n 72128: a3 = a3 << 0x20\n 72131: a5 = a3 | a2\n 72134: a2 = a5 >> 0x1\n 72137: a3 = a0 ^ 0xffffffffffffffff\n 72140: a2 = a2 >> a3\n 72143: a3 = t1 << a0\n 72146: a2 = a2 | a3\n 72149: u64 [sp + 0x3a0] = a2\n 72153: a2 = u8 [a1 + 0x1]\n 72156: a3 = u8 [a1]\n 72158: a4 = u8 [a1 + 0x2]\n 72161: s1 = u8 [a1 + 0x3]\n 72164: a2 = a2 << 0x8\n 72167: a2 = a2 | a3\n 72170: a4 = a4 << 0x10\n 72173: s1 = s1 << 0x18\n 72176: a4 = a4 | s1\n 72179: a2 = a2 | a4\n 72182: a3 = u8 [a1 + 0x5]\n 72185: a4 = u8 [a1 + 0x4]\n 72188: s1 = u8 [a1 + 0x6]\n 72191: a1 = u8 [a1 + 0x7]\n 72194: a3 = a3 << 0x8\n 72197: a3 = a3 | a4\n 72200: a4 = u64 [sp + 0x388]\n 72204: s1 = s1 << 0x10\n 72207: a1 = a1 << 0x18\n 72210: a1 = a1 | s1\n 72213: s1 = u64 [sp + 0x380]\n 72217: a1 = a1 | a3\n 72220: a1 = a1 << 0x20\n 72223: a1 = a1 | a2\n 72226: a2 = a1 >> 0x1\n 72229: a2 = a2 >> t0\n 72232: a3 = a5 << a0\n 72235: a5 = u64 [sp + 0x378]\n 72239: a2 = a2 | a3\n 72242: u64 [sp + 0x390] = a2\n 72246: a2 = s1 | a4\n 72249: a3 = u64 [sp + 0x3a8]\n 72253: a3 = a3 | a5\n 72256: a2 = a2 | a3\n 72259: a0 = a1 << a0\n 72262: u64 [sp + 0x398] = a0\n 72266: jump @332 if a2 == 0\n      : @329 (gas: 224)\n 72270: u64 [sp + 880] = 0\n 72274: a0 = u64 [sp + 0x258]\n 72278: u8 [sp + 0x727] = a0\n 72282: a0 = u64 [sp + 0x250]\n 72286: u8 [sp + 0x726] = a0\n 72290: a0 = u64 [sp + 0x248]\n 72294: u8 [sp + 0x725] = a0\n 72298: a0 = u64 [sp + 0x220]\n 72302: u8 [sp + 0x724] = a0\n 72306: a0 = u64 [sp + 0x218]\n 72310: u8 [sp + 0x723] = a0\n 72314: a0 = u64 [sp + 0x210]\n 72318: u8 [sp + 0x722] = a0\n 72322: a0 = u64 [sp + 0x208]\n 72326: u8 [sp + 0x721] = a0\n 72330: a0 = u64 [sp + 0x1d0]\n 72334: u8 [sp + 0x72f] = a0\n 72338: a0 = u64 [sp + 0x1c8]\n 72342: u8 [sp + 0x72e] = a0\n 72346: a0 = u64 [sp + 0x1c0]\n 72350: u8 [sp + 0x72d] = a0\n 72354: a0 = u64 [sp + 0x1b8]\n 72358: u8 [sp + 0x72c] = a0\n 72362: a0 = u64 [sp + 0x1b0]\n 72366: u8 [sp + 0x72b] = a0\n 72370: a0 = u64 [sp + 0x1a8]\n 72374: u8 [sp + 0x72a] = a0\n 72378: a0 = u64 [sp + 0x1a0]\n 72382: u8 [sp + 0x729] = a0\n 72386: a0 = u64 [sp + 0x198]\n 72390: u8 [sp + 0x737] = a0\n 72394: a0 = u64 [sp + 0x190]\n 72398: u8 [sp + 0x736] = a0\n 72402: a0 = u64 [sp + 0x188]\n 72406: u8 [sp + 0x735] = a0\n 72410: a0 = u64 [sp + 0x180]\n 72414: u8 [sp + 0x734] = a0\n 72418: a0 = u64 [sp + 0x178]\n 72422: u8 [sp + 0x733] = a0\n 72426: u8 [sp + 1887] = 0\n 72430: u8 [sp + 1886] = 0\n 72434: u8 [sp + 1885] = 0\n 72438: u8 [sp + 1884] = 0\n 72442: u8 [sp + 1883] = 0\n 72446: u8 [sp + 1882] = 0\n 72450: u8 [sp + 1881] = 0\n 72454: u8 [sp + 1880] = 0\n 72458: u8 [sp + 1879] = 0\n 72462: u8 [sp + 1878] = 0\n 72466: u8 [sp + 1877] = 0\n 72470: u8 [sp + 1876] = 0\n 72474: u8 [sp + 1875] = 0\n 72478: u8 [sp + 1874] = 0\n 72482: u8 [sp + 1873] = 0\n 72486: u8 [sp + 1872] = 0\n 72490: u8 [sp + 1871] = 0\n 72494: u8 [sp + 1870] = 0\n 72498: u8 [sp + 1869] = 0\n 72502: u8 [sp + 1868] = 0\n 72506: u8 [sp + 1867] = 0\n 72510: u8 [sp + 1866] = 0\n 72514: u8 [sp + 1865] = 0\n 72518: u8 [sp + 1864] = 0\n 72522: u8 [sp + 1863] = 0\n 72526: u8 [sp + 1862] = 0\n 72530: u8 [sp + 1861] = 0\n 72534: u8 [sp + 1860] = 0\n 72538: u8 [sp + 1859] = 0\n 72542: u8 [sp + 1858] = 0\n 72546: u8 [sp + 1857] = 0\n 72550: u8 [sp + 1856] = 0\n 72554: a0 = u64 [sp + 0x348]\n 72558: u8 [sp + 0x720] = a0\n 72562: a0 = u64 [sp + 0x318]\n 72566: u8 [sp + 0x728] = a0\n 72570: u8 [sp + 0x730] = t2\n 72574: u8 [sp + 0x738] = ra\n 72578: a0 = u64 [sp + 0x368]\n 72582: u8 [sp + 0x732] = a0\n 72586: a0 = u64 [sp + 0x360]\n 72590: u8 [sp + 0x731] = a0\n 72594: a0 = u64 [sp + 0x358]\n 72598: u8 [sp + 0x73f] = a0\n 72602: a0 = u64 [sp + 0x350]\n 72606: u8 [sp + 0x73e] = a0\n 72610: a0 = u64 [sp + 0x2f0]\n 72614: u8 [sp + 0x73d] = a0\n 72618: a0 = u64 [sp + 0x2e8]\n 72622: u8 [sp + 0x73c] = a0\n 72626: a0 = u64 [sp + 0x2d0]\n 72630: u8 [sp + 0x73b] = a0\n 72634: a0 = u64 [sp + 0x2c0]\n 72638: u8 [sp + 0x73a] = a0\n 72642: a0 = u64 [sp + 0x260]\n 72646: u8 [sp + 0x739] = a0\n 72650: t0 = u64 [sp + 0x3a8]\n 72654: a0 = t0 << 0x38\n 72657: a0 = a0 >> 0x3b\n 72660: a1 = sp + 0x720\n 72664: a0 = a0 + a1\n 72667: a1 = u8 [a0 + 0x11]\n 72670: a2 = u8 [a0 + 0x10]\n 72673: a4 = u8 [a0 + 0x12]\n 72676: a5 = u8 [a0 + 0x13]\n 72679: a1 = a1 << 0x8\n 72682: a1 = a1 | a2\n 72685: a4 = a4 << 0x10\n 72688: a5 = a5 << 0x18\n 72691: a4 = a4 | a5\n 72694: a1 = a1 | a4\n 72697: a2 = u8 [a0 + 0x15]\n 72700: a4 = u8 [a0 + 0x14]\n 72703: a5 = u8 [a0 + 0x16]\n 72706: s1 = u8 [a0 + 0x17]\n 72709: a2 = a2 << 0x8\n 72712: a2 = a2 | a4\n 72715: a5 = a5 << 0x10\n 72718: s1 = s1 << 0x18\n 72721: a5 = a5 | s1\n 72724: a2 = a2 | a5\n 72727: a2 = a2 << 0x20\n 72730: ra = a2 | a1\n 72733: t2 = t0 & 0x7\n 72736: t0 = ra >> t2\n 72739: a4 = u8 [a0 + 0x19]\n 72742: a5 = u8 [a0 + 0x18]\n 72745: s1 = u8 [a0 + 0x1a]\n 72748: a2 = u8 [a0 + 0x1b]\n 72751: a4 = a4 << 0x8\n 72754: a4 = a4 | a5\n 72757: s1 = s1 << 0x10\n 72760: a2 = a2 << 0x18\n 72763: a2 = a2 | s1\n 72766: a1 = a2 | a4\n 72769: a4 = u8 [a0 + 0x1d]\n 72772: a5 = u8 [a0 + 0x1c]\n 72775: s1 = u8 [a0 + 0x1e]\n 72778: a2 = u8 [a0 + 0x1f]\n 72781: a4 = a4 << 0x8\n 72784: a4 = a4 | a5\n 72787: s1 = s1 << 0x10\n 72790: a2 = a2 << 0x18\n 72793: a2 = a2 | s1\n 72796: a2 = a2 | a4\n 72799: a2 = a2 << 0x20\n 72802: a1 = a1 | a2\n 72805: u64 [sp + 0x368] = a1\n 72809: a2 = a1 << 0x1\n 72812: a1 = t2 ^ 0x3f\n 72815: u64 [sp + 0x360] = a1\n 72819: a2 = a2 << a1\n 72822: t1 = t0 | a2\n 72825: a2 = u8 [a0 + 0x9]\n 72828: a4 = u8 [a0 + 0x8]\n 72831: a5 = u8 [a0 + 0xa]\n 72834: s1 = u8 [a0 + 0xb]\n 72837: a2 = a2 << 0x8\n 72840: a2 = a2 | a4\n 72843: a5 = a5 << 0x10\n 72846: s1 = s1 << 0x18\n 72849: a5 = a5 | s1\n 72852: a2 = a2 | a5\n 72855: a4 = u8 [a0 + 0xd]\n 72858: a5 = u8 [a0 + 0xc]\n 72861: s1 = u8 [a0 + 0xe]\n 72864: a1 = u8 [a0 + 0xf]\n 72867: a4 = a4 << 0x8\n 72870: a4 = a4 | a5\n 72873: s1 = s1 << 0x10\n 72876: a1 = a1 << 0x18\n 72879: a1 = a1 | s1\n 72882: a1 = a1 | a4\n 72885: a1 = a1 << 0x20\n 72888: a2 = a2 | a1\n 72891: a1 = a2 >> t2\n 72894: t0 = ra << 0x1\n 72897: a4 = t2 ^ 0xffffffffffffffff\n 72900: a4 = t0 << a4\n 72903: ra = a1 | a4\n 72906: a1 = u8 [a0 + 0x1]\n 72909: a4 = u8 [a0]\n 72911: a5 = u8 [a0 + 0x2]\n 72914: s1 = u8 [a0 + 0x3]\n 72917: a1 = a1 << 0x8\n 72920: a1 = a1 | a4\n 72923: a5 = a5 << 0x10\n 72926: s1 = s1 << 0x18\n 72929: a5 = a5 | s1\n 72932: a1 = a1 | a5\n 72935: a4 = u8 [a0 + 0x5]\n 72938: a5 = u8 [a0 + 0x4]\n 72941: s1 = u8 [a0 + 0x6]\n 72944: a0 = u8 [a0 + 0x7]\n 72947: a4 = a4 << 0x8\n 72950: a4 = a4 | a5\n 72953: a5 = u64 [sp + 0x370]\n 72957: t0 = t1\n 72959: t1 = ra\n 72961: s1 = s1 << 0x10\n 72964: a0 = a0 << 0x18\n 72967: a0 = a0 | s1\n 72970: a0 = a0 | a4\n 72973: a0 = a0 << 0x20\n 72976: a0 = a0 | a1\n 72979: a0 = a0 >> t2\n 72982: a2 = a2 << 0x1\n 72985: a1 = u64 [sp + 0x360]\n 72989: a1 = a2 << a1\n 72992: ra = a0 | a1\n 72995: a0 = u64 [sp + 0x368]\n 72999: t2 = a0 >> t2\n 73002: a1 = u64 [sp + 0x3b8]\n 73006: a0 = a1 <u 0x1\n 73009: a2 = u64 [sp + 0x3b0]\n 73013: a0 = a2 - a0\n 73016: u64 [sp + 0x360] = a0\n 73020: a0 = a1 | a2\n 73023: a0 = a0 >u 0\n 73025: a0 = a0 + 0xffffffffffffffff\n 73028: u64 [sp + 0x358] = a0\n 73032: a1 = a1 + 0xffffffffffffffff\n 73035: u64 [sp + 0x350] = a1\n 73039: s1 = u64 [sp + 0x300]\n 73043: fallthrough\n      : @330 (gas: 88)\n 73044: u64 [sp + 0x370] = a5\n 73048: u64 [sp + 872] = 0\n 73052: a0 = ra >> 0x3f\n 73055: a1 = t1 << 0x1\n 73058: a0 = a0 | a1\n 73061: ra = ra << 0x1\n 73064: a1 = s1 >> 0x3f\n 73067: ra = ra | a1\n 73070: a2 = u64 [sp + 0x360]\n 73074: a1 = a2 ^ a0\n 73077: a2 = a2 <u a0\n 73080: a4 = u64 [sp + 0x350]\n 73084: a4 = a4 <u ra\n 73087: a4 = a2 if a1 != 0\n 73090: t2 = t2 << 0x1\n 73093: a2 = t0\n 73095: a1 = t0 >> 0x3f\n 73098: t0 = t2 | a1\n 73101: a1 = t1 >> 0x3f\n 73104: a5 = a2 << 0x1\n 73107: a1 = a1 | a5\n 73110: a5 = s1 << 0x1\n 73113: a2 = u64 [sp + 0x3a0]\n 73117: s1 = a2 >> 0x3f\n 73120: t2 = a5 | s1\n 73123: s1 = a2 << 0x1\n 73126: a5 = u64 [sp + 0x390]\n 73130: a2 = a5 >> 0x3f\n 73133: t1 = s1 | a2\n 73136: a2 = a5 << 0x1\n 73139: s1 = u64 [sp + 0x398]\n 73143: a5 = s1 >> 0x3f\n 73146: a5 = a5 | a2\n 73149: s1 = s1 << 0x1\n 73152: a2 = u64 [sp + 0x370]\n 73156: s1 = s1 | a2\n 73159: u64 [sp + 0x398] = s1\n 73163: a5 = a5 | 0\n 73165: u64 [sp + 0x390] = a5\n 73169: a2 = t1 | 0\n 73171: u64 [sp + 0x3a0] = a2\n 73175: t2 = t2 | 0\n 73177: a3 = u64 [sp + 0x358]\n 73181: a2 = a3 - a1\n 73184: a2 = a2 <u a4\n 73187: a4 = a3 <u a1\n 73190: a5 = a3 - t0\n 73193: t1 = t0\n 73195: a5 = a5 - a4\n 73198: a4 = a5 - a2\n 73201: a4 = a4 >>a 0x3f\n 73204: a2 = u64 [sp + 0x3b8]\n 73208: a2 = a2 & a4\n 73211: s1 = u64 [sp + 0x3b0]\n 73215: s1 = s1 & a4\n 73218: t0 = a0 ^ s1\n 73221: a3 = a0 <u s1\n 73224: a5 = ra <u a2\n 73227: a3 = a5 if t0 == 0\n 73230: t0 = a1 - a3\n 73233: a1 = a1 <u a3\n 73236: a1 = t1 - a1\n 73239: a0 = a0 - s1\n 73242: s1 = t2\n 73244: t2 = a1\n 73246: t1 = a0 - a5\n 73249: ra = ra - a2\n 73252: a3 = u64 [sp + 0x3a8]\n 73256: a5 = u64 [sp + 0x380]\n 73260: a0 = a3 | a5\n 73263: a0 = a0 <u 0x1\n 73266: a2 = u64 [sp + 0x378]\n 73270: a1 = a2 <u a0\n 73273: a0 = a2 - a0\n 73276: a2 = a3 <u 0x1\n 73279: a5 = a5 - a2\n 73282: a2 = u64 [sp + 0x388]\n 73286: a2 = a2 - a1\n 73289: a3 = a3 + 0xffffffffffffffff\n 73292: u64 [sp + 0x388] = a2\n 73296: u64 [sp + 0x380] = a5\n 73300: a1 = a5 | a2\n 73303: u64 [sp + 0x3a8] = a3\n 73307: a2 = a3 | a0\n 73310: a1 = a1 | a2\n 73313: a5 = a4 & 0x1\n 73316: u64 [sp + 0x378] = a0\n 73320: jump @330 if a1 != 0\n      : @331 (gas: 1)\n 73324: jump @333\n      : @332 (gas: 4)\n 73326: a5 = 0\n 73328: u64 [sp + 872] = 0\n 73332: s1 = u64 [sp + 0x300]\n 73336: fallthrough\n      : @333 (gas: 21)\n 73337: a2 = u64 [sp + 0x3a0]\n 73341: a0 = a2 >> 0x3f\n 73344: a1 = s1 << 0x1\n 73347: a1 = a1 | a0\n 73350: a4 = u64 [sp + 0x390]\n 73354: a0 = a4 >> 0x3f\n 73357: a2 = a2 << 0x1\n 73360: a2 = a2 | a0\n 73363: a0 = u64 [sp + 0x398]\n 73367: a3 = a0 >> 0x3f\n 73370: a4 = a4 << 0x1\n 73373: a0 = a0 << 0x1\n 73376: ra = a5 | a0\n 73379: a5 = u64 [sp + 0x368]\n 73383: a3 = a3 | a5\n 73386: t1 = a3 | a4\n 73389: a0 = a5 | a2\n 73392: u64 [sp + 0x398] = a0\n 73396: a0 = a5 | a1\n 73399: u64 [sp + 0x388] = a0\n 73403: fallthrough\n      : @334 (gas: 71)\n 73404: a2 = u64 [sp + 0x3b8]\n 73408: a3 = ra mulhu a2\n 73411: a4 = t1 * a2\n 73414: a3 = a3 + a4\n 73417: a4 = a3 <u a4\n 73420: a5 = t1 mulhu a2\n 73423: t0 = a5 + a4\n 73426: a0 = u64 [sp + 0x3b0]\n 73430: a4 = ra * a0\n 73433: t2 = a4 + a3\n 73436: a3 = t2 <u a4\n 73439: a4 = ra mulhu a0\n 73442: a3 = a3 + a4\n 73445: a4 = t0 + a3\n 73448: s1 = t1 * a0\n 73451: a3 = s1 + a4\n 73454: a1 = u64 [sp + 0x398]\n 73458: a5 = a2 * a1\n 73461: a5 = a5 + a3\n 73464: s1 = a3 <u s1\n 73467: a3 = a5 <u a3\n 73470: u64 [sp + 0x3a8] = a3\n 73474: a4 = a4 <u t0\n 73477: a3 = t1 mulhu a0\n 73480: a3 = a3 + a4\n 73483: t0 = a3 + s1\n 73486: a4 = a2 mulhu a1\n 73489: a3 = u64 [sp + 0x388]\n 73493: s1 = a2 * a3\n 73496: a4 = a4 + s1\n 73499: s1 = a0 * a1\n 73502: a4 = a4 + s1\n 73505: a3 = t0 + a4\n 73508: a2 = ra * a2\n 73511: u64 [sp + 0x380] = a2\n 73515: a0 = u64 [sp + 0x308]\n 73519: a4 = u64 [sp + 0x3a8]\n 73523: s1 = a0 - a4\n 73526: s1 = s1 - a3\n 73529: u64 [sp + 0x3a8] = s1\n 73533: a0 = u64 [sp + 0x318]\n 73537: u64 [sp + 0x390] = t2\n 73541: s1 = a0 ^ t2\n 73544: a3 = a0 <u t2\n 73547: t2 = u64 [sp + 0x348]\n 73551: a4 = t2 <u a2\n 73554: a3 = a4 if s1 == 0\n 73557: a2 = u64 [sp + 0x310]\n 73561: s1 = a2 <u a5\n 73564: a5 = a2 - a5\n 73567: t0 = a5 <u a3\n 73570: t0 = t0 + s1\n 73573: s1 = a1\n 73575: a1 = u64 [sp + 0x3a8]\n 73579: a1 = a1 - t0\n 73582: u64 [sp + 0x3a0] = a1\n 73586: a2 = a5 - a3\n 73589: a3 = a0 - a4\n 73592: a0 = u64 [sp + 0x390]\n 73596: a3 = a3 - a0\n 73599: a0 = u64 [sp + 0x380]\n 73603: a0 = t2 - a0\n 73606: u64 [sp + 0x3a8] = a0\n 73610: a1 = u64 [sp + 0x2f8]\n 73614: a1 = a1 & 0xffffffffffffffff\n 73617: u64 [sp + 0x380] = a1\n 73621: a1 = u64 [sp + 0x268]\n 73625: a0 = a1 & 0xffffffffffffffff\n 73628: u64 [sp + 0x378] = a0\n 73632: a1 = u64 [sp + 0x388]\n 73636: jump @336\n      : @335 (gas: 35)\n 73638: a4 = u64 [sp + 0x3b8]\n 73642: a0 = u64 [sp + 0x3a8]\n 73646: a4 = a4 + a0\n 73649: a0 = a4 <u a0\n 73652: a5 = u64 [sp + 0x3b0]\n 73656: a5 = a5 + a3\n 73659: a5 = a5 + a0\n 73662: a2 = a5 ^ a3\n 73665: a3 = a5 <u a3\n 73668: a3 = a0 if a2 == 0\n 73671: a0 = a5 + 0x1\n 73674: a2 = a5 <u 0xffffffffffffffff\n 73677: t2 = a4 <u 0xffffffffffffffff\n 73680: t2 = a2 if a0 != 0\n 73683: a0 = ra <u 0x1\n 73686: t0 = t1 - a0\n 73689: a0 = ra | t1\n 73692: a0 = a0 <u 0x1\n 73695: a2 = s1 <u a0\n 73698: a0 = s1 - a0\n 73701: a1 = a1 - a2\n 73704: s1 = u64 [sp + 0x390]\n 73708: a2 = s1 + a3\n 73711: a3 = a2 <u s1\n 73714: s1 = u64 [sp + 0x3a0]\n 73718: s1 = s1 + a3\n 73721: u64 [sp + 0x3a0] = s1\n 73725: a3 = a2 | s1\n 73728: t2 = 0 if a3 != 0\n 73730: ra = ra + 0xffffffffffffffff\n 73733: t1 = t0\n 73735: s1 = a0\n 73737: u64 [sp + 0x3a8] = a4\n 73741: a3 = a5\n 73743: jump @339 if t2 == 0\n      : @336 (gas: 11)\n 73747: u64 [sp + 0x390] = a2\n 73751: a4 = s1 >u 0\n 73753: a5 = a1 >u 0\n 73755: a5 = a4 if a1 == 0\n 73758: a4 = t1 + 0x1\n 73761: a0 = ra + 0x1\n 73764: a0 = a0 <u 0x1\n 73767: a0 = 0 if a4 != 0\n 73769: a4 = s1 | a1\n 73772: a0 = a5 if a4 != 0\n 73775: jump @335 if a0 != 0\n      : @337 (gas: 56)\n 73779: t2 = s1\n 73781: s1 = u64 [sp + 0x338]\n 73785: a0 = ra mulhu s1\n 73788: a4 = t1 * s1\n 73791: a0 = a0 + a4\n 73794: a4 = a0 <u a4\n 73797: a5 = t1 mulhu s1\n 73800: a2 = a5 + a4\n 73803: u64 [sp + 0x388] = a1\n 73807: a1 = u64 [sp + 0x340]\n 73811: a4 = ra * a1\n 73814: u64 [sp + 0x398] = t1\n 73818: t1 = a4 + a0\n 73821: a4 = t1 <u a4\n 73824: a0 = ra mulhu a1\n 73827: a0 = a0 + a4\n 73830: a5 = a2 + a0\n 73833: a0 = u64 [sp + 0x398]\n 73837: a4 = a0 * a1\n 73840: a0 = a4 + a5\n 73843: a4 = a0 <u a4\n 73846: a2 = a5 <u a2\n 73849: a5 = u64 [sp + 0x398]\n 73853: a5 = a5 mulhu a1\n 73856: a2 = a2 + a5\n 73859: a2 = a2 + a4\n 73862: a4 = s1 mulhu t2\n 73865: a5 = u64 [sp + 0x388]\n 73869: a5 = s1 * a5\n 73872: a4 = a4 + a5\n 73875: a5 = a1 * t2\n 73878: a1 = u64 [sp + 0x388]\n 73882: a4 = a4 + a5\n 73885: a5 = s1 * t2\n 73888: a5 = a5 + a0\n 73891: a0 = a5 <u a0\n 73894: a2 = a2 + a4\n 73897: a0 = a0 + a2\n 73900: t0 = ra * s1\n 73903: s1 = t2\n 73905: a2 = u64 [sp + 0x378]\n 73909: a4 = t1 ^ a2\n 73912: t2 = a2 <u t1\n 73915: t1 = u64 [sp + 0x398]\n 73919: a2 = u64 [sp + 0x380]\n 73923: a2 = a2 <u t0\n 73926: a2 = t2 if a4 != 0\n 73929: t0 = a0 ^ a3\n 73932: t2 = a3 <u a0\n 73935: a4 = u64 [sp + 0x3a8]\n 73939: a0 = a4 <u a5\n 73942: a0 = t2 if t0 != 0\n 73945: a5 = a5 ^ a4\n 73948: a4 = a5 | t0\n 73951: a2 = a0 if a4 != 0\n 73954: jump @335 if a2 != 0\n      : @338 (gas: 2)\n 73958: t0 = t1\n 73960: fallthrough\n      : @339 (gas: 258)\n 73961: a1 = t0 & 0xffffffffffffffff\n 73964: a0 = ra & 0xffffffffffffffff\n 73967: t1 = u64 [sp + 0x338]\n 73971: a2 = a0 mulhu t1\n 73974: a3 = a1 * t1\n 73977: a2 = a2 + a3\n 73980: a3 = a2 <u a3\n 73983: a4 = a1 mulhu t1\n 73986: t0 = a4 + a3\n 73989: s1 = u64 [sp + 0x340]\n 73993: a4 = a0 * s1\n 73996: ra = a4 + a2\n 73999: a4 = ra <u a4\n 74002: a5 = a0 mulhu s1\n 74005: a4 = a4 + a5\n 74008: a3 = t0 + a4\n 74011: a5 = a1 * s1\n 74014: a4 = a5 + a3\n 74017: a3 = a3 <u t0\n 74020: s1 = a1 mulhu s1\n 74023: t0 = s1 + a3\n 74026: a3 = u64 [sp + 0x3b8]\n 74030: s1 = a3 * a0\n 74033: s1 = s1 + a4\n 74036: a5 = a4 <u a5\n 74039: a4 = s1 <u a4\n 74042: t0 = t0 + a5\n 74045: a1 = a3 * a1\n 74048: a5 = a3 mulhu a0\n 74051: a1 = a1 + a5\n 74054: a5 = u64 [sp + 0x3b0]\n 74058: a5 = a5 * a0\n 74061: a1 = a1 + a5\n 74064: a1 = a1 + t0\n 74067: t0 = a1 + a4\n 74070: t2 = a0 * t1\n 74073: a1 = u64 [sp + 0x348]\n 74077: a0 = a1 <u s1\n 74080: a4 = u64 [sp + 0x318]\n 74084: t1 = a4 - a0\n 74087: a4 = u64 [sp + 0x378]\n 74091: a0 = a4 ^ ra\n 74094: a5 = a4 <u ra\n 74097: a3 = u64 [sp + 0x380]\n 74101: a2 = a3 <u t2\n 74104: a5 = a2 if a0 == 0\n 74107: a1 = a1 - s1\n 74110: s1 = a1 <u a5\n 74113: a0 = t1 - s1\n 74116: a0 = a0 - t0\n 74119: a1 = a1 - a5\n 74122: a4 = a4 - a2\n 74125: a2 = a4 - ra\n 74128: a3 = a3 - t2\n 74131: u8 [sp + 1823] = 0\n 74135: u8 [sp + 1822] = 0\n 74139: u8 [sp + 1821] = 0\n 74143: u8 [sp + 1820] = 0\n 74147: u8 [sp + 1819] = 0\n 74151: u8 [sp + 1818] = 0\n 74155: u8 [sp + 1817] = 0\n 74159: u8 [sp + 1816] = 0\n 74163: u8 [sp + 1815] = 0\n 74167: u8 [sp + 1814] = 0\n 74171: u8 [sp + 1813] = 0\n 74175: u8 [sp + 1812] = 0\n 74179: u8 [sp + 1811] = 0\n 74183: u8 [sp + 1810] = 0\n 74187: u8 [sp + 1809] = 0\n 74191: u8 [sp + 1808] = 0\n 74195: u8 [sp + 1807] = 0\n 74199: u8 [sp + 1806] = 0\n 74203: u8 [sp + 1805] = 0\n 74207: u8 [sp + 1804] = 0\n 74211: u8 [sp + 1803] = 0\n 74215: u8 [sp + 1802] = 0\n 74219: u8 [sp + 1801] = 0\n 74223: u8 [sp + 1800] = 0\n 74227: u8 [sp + 1799] = 0\n 74231: u8 [sp + 1798] = 0\n 74235: u8 [sp + 1797] = 0\n 74239: u8 [sp + 1796] = 0\n 74243: u8 [sp + 1795] = 0\n 74247: u8 [sp + 1794] = 0\n 74251: u8 [sp + 1793] = 0\n 74255: u8 [sp + 1792] = 0\n 74259: u8 [sp + 0x6e0] = a3\n 74263: a4 = a3 >> 0x38\n 74266: u8 [sp + 0x6e7] = a4\n 74270: a4 = a3 >> 0x30\n 74273: u8 [sp + 0x6e6] = a4\n 74277: a4 = a3 >> 0x28\n 74280: u8 [sp + 0x6e5] = a4\n 74284: a4 = a3 >> 0x20\n 74287: u8 [sp + 0x6e4] = a4\n 74291: a4 = a3 >> 0x18\n 74294: u8 [sp + 0x6e3] = a4\n 74298: a4 = a3 >> 0x10\n 74301: u8 [sp + 0x6e2] = a4\n 74305: a3 = a3 >> 0x8\n 74308: u8 [sp + 0x6e1] = a3\n 74312: u8 [sp + 0x6e8] = a2\n 74316: a3 = a2 >> 0x38\n 74319: u8 [sp + 0x6ef] = a3\n 74323: a3 = a2 >> 0x30\n 74326: u8 [sp + 0x6ee] = a3\n 74330: a3 = a2 >> 0x28\n 74333: u8 [sp + 0x6ed] = a3\n 74337: a3 = a2 >> 0x20\n 74340: u8 [sp + 0x6ec] = a3\n 74344: a3 = a2 >> 0x18\n 74347: u8 [sp + 0x6eb] = a3\n 74351: a3 = a2 >> 0x10\n 74354: u8 [sp + 0x6ea] = a3\n 74358: a2 = a2 >> 0x8\n 74361: u8 [sp + 0x6e9] = a2\n 74365: u8 [sp + 0x6f0] = a1\n 74369: a2 = a1 >> 0x38\n 74372: u8 [sp + 0x6f7] = a2\n 74376: a2 = a1 >> 0x30\n 74379: u8 [sp + 0x6f6] = a2\n 74383: a2 = a1 >> 0x28\n 74386: u8 [sp + 0x6f5] = a2\n 74390: a2 = a1 >> 0x20\n 74393: u8 [sp + 0x6f4] = a2\n 74397: a2 = a1 >> 0x18\n 74400: u8 [sp + 0x6f3] = a2\n 74404: a2 = a1 >> 0x10\n 74407: u8 [sp + 0x6f2] = a2\n 74411: a1 = a1 >> 0x8\n 74414: u8 [sp + 0x6f1] = a1\n 74418: u8 [sp + 0x6f8] = a0\n 74422: a1 = a0 >> 0x38\n 74425: u8 [sp + 0x6ff] = a1\n 74429: a1 = a0 >> 0x30\n 74432: u8 [sp + 0x6fe] = a1\n 74436: a1 = a0 >> 0x28\n 74439: u8 [sp + 0x6fd] = a1\n 74443: a1 = a0 >> 0x20\n 74446: u8 [sp + 0x6fc] = a1\n 74450: a1 = a0 >> 0x18\n 74453: u8 [sp + 0x6fb] = a1\n 74457: a1 = a0 >> 0x10\n 74460: u8 [sp + 0x6fa] = a1\n 74464: a0 = a0 >> 0x8\n 74467: u8 [sp + 0x6f9] = a0\n 74471: a0 = u64 [sp + 0x1f0]\n 74475: a1 = sp + 0x6e0\n 74479: a0 = a0 + a1\n 74482: a1 = u8 [a0 + 0x11]\n 74485: a2 = u8 [a0 + 0x10]\n 74488: a3 = u8 [a0 + 0x12]\n 74491: a4 = u8 [a0 + 0x13]\n 74494: a1 = a1 << 0x8\n 74497: a1 = a1 | a2\n 74500: a3 = a3 << 0x10\n 74503: a4 = a4 << 0x18\n 74506: a3 = a3 | a4\n 74509: a1 = a1 | a3\n 74512: a2 = u8 [a0 + 0x15]\n 74515: a3 = u8 [a0 + 0x14]\n 74518: a4 = u8 [a0 + 0x16]\n 74521: a5 = u8 [a0 + 0x17]\n 74524: a2 = a2 << 0x8\n 74527: a2 = a2 | a3\n 74530: a4 = a4 << 0x10\n 74533: a5 = a5 << 0x18\n 74536: a4 = a4 | a5\n 74539: a2 = a2 | a4\n 74542: a2 = a2 << 0x20\n 74545: t0 = a2 | a1\n 74548: t1 = u64 [sp + 0x200]\n 74552: a3 = t0 >> t1\n 74555: a1 = u8 [a0 + 0x19]\n 74558: a4 = u8 [a0 + 0x18]\n 74561: a5 = u8 [a0 + 0x1a]\n 74564: s1 = u8 [a0 + 0x1b]\n 74567: a1 = a1 << 0x8\n 74570: a1 = a1 | a4\n 74573: a5 = a5 << 0x10\n 74576: s1 = s1 << 0x18\n 74579: a5 = a5 | s1\n 74582: a1 = a1 | a5\n 74585: a4 = u8 [a0 + 0x1d]\n 74588: a5 = u8 [a0 + 0x1c]\n 74591: s1 = u8 [a0 + 0x1e]\n 74594: a2 = u8 [a0 + 0x1f]\n 74597: a4 = a4 << 0x8\n 74600: a4 = a4 | a5\n 74603: s1 = s1 << 0x10\n 74606: a2 = a2 << 0x18\n 74609: a2 = a2 | s1\n 74612: a2 = a2 | a4\n 74615: a2 = a2 << 0x20\n 74618: t2 = a2 | a1\n 74621: a2 = t2 << 0x1\n 74624: a1 = u64 [sp + 0x1f8]\n 74628: a2 = a2 << a1\n 74631: a2 = a2 | a3\n 74634: u64 [sp + 0x2f0] = a2\n 74638: a2 = u8 [a0 + 0x9]\n 74641: a3 = u8 [a0 + 0x8]\n 74644: a4 = u8 [a0 + 0xa]\n 74647: a5 = u8 [a0 + 0xb]\n 74650: a2 = a2 << 0x8\n 74653: a2 = a2 | a3\n 74656: a4 = a4 << 0x10\n 74659: a5 = a5 << 0x18\n 74662: a4 = a4 | a5\n 74665: a2 = a2 | a4\n 74668: a3 = u8 [a0 + 0xd]\n 74671: a4 = u8 [a0 + 0xc]\n 74674: a5 = u8 [a0 + 0xe]\n 74677: s1 = u8 [a0 + 0xf]\n 74680: a3 = a3 << 0x8\n 74683: a3 = a3 | a4\n 74686: a5 = a5 << 0x10\n 74689: s1 = s1 << 0x18\n 74692: a5 = a5 | s1\n 74695: a3 = a3 | a5\n 74698: a3 = a3 << 0x20\n 74701: a3 = a3 | a2\n 74704: a2 = a3 >> t1\n 74707: t0 = t0 << 0x1\n 74710: a4 = u64 [sp + 0x1e8]\n 74714: a4 = t0 << a4\n 74717: a2 = a2 | a4\n 74720: u64 [sp + 0x2d0] = a2\n 74724: a2 = u8 [a0 + 0x1]\n 74727: a4 = u8 [a0]\n 74729: a5 = u8 [a0 + 0x2]\n 74732: s1 = u8 [a0 + 0x3]\n 74735: a2 = a2 << 0x8\n 74738: a2 = a2 | a4\n 74741: a5 = a5 << 0x10\n 74744: s1 = s1 << 0x18\n 74747: a5 = a5 | s1\n 74750: a2 = a2 | a5\n 74753: a4 = u8 [a0 + 0x5]\n 74756: a5 = u8 [a0 + 0x4]\n 74759: s1 = u8 [a0 + 0x6]\n 74762: a0 = u8 [a0 + 0x7]\n 74765: a4 = a4 << 0x8\n 74768: a4 = a4 | a5\n 74771: s1 = s1 << 0x10\n 74774: a0 = a0 << 0x18\n 74777: a0 = a0 | s1\n 74780: a0 = a0 | a4\n 74783: a0 = a0 << 0x20\n 74786: a0 = a0 | a2\n 74789: a0 = a0 >> t1\n 74792: a3 = a3 << 0x1\n 74795: a2 = a3 << a1\n 74798: a0 = a0 | a2\n 74801: u64 [sp + 0x2c0] = a0\n 74805: a0 = t2 >> t1\n 74808: u64 [sp + 0x2e8] = a0\n 74812: fallthrough\n      : @340 (gas: 58)\n 74813: a1 = u64 [sp + 0x2d8]\n 74817: ra = u64 [sp + 0x290]\n 74821: a0 = a1 | ra\n 74824: a2 = a1\n 74826: t0 = u64 [sp + 0x2a0]\n 74830: t2 = u64 [sp + 0x288]\n 74834: a1 = t0 | t2\n 74837: a0 = a0 | a1\n 74840: a0 = a0 <u 0x1\n 74843: a1 = u64 [sp + 0x320]\n 74847: a0 = a0 | a1\n 74850: u64 [sp + 0x3a8] = a0\n 74854: a0 = clz ra\n 74856: a0 = a0 + 0x40\n 74859: a4 = clz t2\n 74861: a4 = a0 if t2 == 0\n 74864: a0 = clz a2\n 74866: a0 = a0 + 0x40\n 74869: a1 = clz t0\n 74871: a1 = a0 if t0 == 0\n 74874: a0 = a1 + 0x80\n 74878: a3 = ra | t2\n 74881: a4 = a0 if a3 == 0\n 74884: a0 = a0 <u a1\n 74887: a0 = 0 if a3 != 0\n 74889: a2 = u64 [sp + 0x330]\n 74893: a1 = a2 ^ a0\n 74896: a5 = a2 <u a0\n 74899: a3 = u64 [sp + 0x328]\n 74903: s1 = a3 <u a4\n 74906: a5 = s1 if a1 == 0\n 74909: a1 = a5 <u 0x1\n 74912: t1 = a1 + 0xffffffffffffffff\n 74915: a1 = -a5\n 74917: a0 = a2 - a0\n 74920: a0 = a0 - s1\n 74923: a3 = a3 - a4\n 74926: u64 [sp + 0x3a0] = a1\n 74930: s1 = a1 >u 0\n 74932: a1 = t1\n 74934: a2 = t1 >u 0\n 74936: a2 = s1 if t1 == 0\n 74939: s1 = a0 >u 0\n 74941: a4 = a3\n 74943: a3 = a3 <u 0x100\n 74947: a3 = a3 ^ 0x1\n 74950: a3 = s1 if a0 != 0\n 74953: a3 = a2 if a5 != 0\n 74956: a2 = u64 [sp + 0x3a8]\n 74960: a2 = a2 | a3\n 74963: t2 = 0 if a2 != 0\n 74965: u64 [sp + 0x268] = t2\n 74969: s1 = ra\n 74971: s1 = 0 if a2 != 0\n 74973: t0 = 0 if a2 != 0\n 74975: t1 = u64 [sp + 0x2d8]\n 74979: t1 = 0 if a2 != 0\n 74981: jump @348 if a2 != 0\n      : @341 (gas: 10)\n 74985: ra = a4\n 74987: a2 = a4 ^ 0xff\n 74991: a4 = u64 [sp + 0x3a0]\n 74995: a2 = a2 | a4\n 74998: a3 = a0 | a1\n 75001: a2 = a2 | a3\n 75004: a3 = u64 [sp + 0x2f0]\n 75008: t2 = u64 [sp + 0x2d0]\n 75012: a5 = u64 [sp + 0x2e8]\n 75016: jump @349 if a2 == 0\n      : @342 (gas: 257)\n 75020: a3 = ra + 0x1\n 75023: u64 [sp + 0x3a8] = a3\n 75027: a2 = a3 <u 0x1\n 75030: a0 = a0 + a2\n 75033: u64 [sp + 0x380] = a0\n 75037: a0 = a0 | a3\n 75040: a0 = a0 <u 0x1\n 75043: a0 = a0 + a4\n 75046: u64 [sp + 0x368] = a0\n 75050: a0 = a0 <u a4\n 75053: a0 = a0 + a1\n 75056: u64 [sp + 0x370] = a0\n 75060: t1 = 0xff - ra\n 75064: a0 = u64 [sp + 0x2d8]\n 75068: u8 [sp + 0x540] = a0\n 75072: u8 [sp + 1343] = 0\n 75076: u8 [sp + 1342] = 0\n 75080: u8 [sp + 1341] = 0\n 75084: u8 [sp + 1340] = 0\n 75088: u8 [sp + 1339] = 0\n 75092: u8 [sp + 1338] = 0\n 75096: u8 [sp + 1337] = 0\n 75100: u8 [sp + 1336] = 0\n 75104: u8 [sp + 1335] = 0\n 75108: u8 [sp + 1334] = 0\n 75112: u8 [sp + 1333] = 0\n 75116: u8 [sp + 1332] = 0\n 75120: u8 [sp + 1331] = 0\n 75124: u8 [sp + 1330] = 0\n 75128: u8 [sp + 1329] = 0\n 75132: u8 [sp + 1328] = 0\n 75136: u8 [sp + 1327] = 0\n 75140: u8 [sp + 1326] = 0\n 75144: u8 [sp + 1325] = 0\n 75148: u8 [sp + 1324] = 0\n 75152: u8 [sp + 1323] = 0\n 75156: u8 [sp + 1322] = 0\n 75160: u8 [sp + 1321] = 0\n 75164: u8 [sp + 1320] = 0\n 75168: u8 [sp + 1319] = 0\n 75172: u8 [sp + 1318] = 0\n 75176: u8 [sp + 1317] = 0\n 75180: u8 [sp + 1316] = 0\n 75184: u8 [sp + 1315] = 0\n 75188: u8 [sp + 1314] = 0\n 75192: u8 [sp + 1313] = 0\n 75196: u8 [sp + 1312] = 0\n 75200: a1 = u64 [sp + 0x2a0]\n 75204: u8 [sp + 0x548] = a1\n 75208: a2 = a0 >> 0x38\n 75211: u64 [sp + 0x260] = a2\n 75215: u8 [sp + 0x547] = a2\n 75219: a2 = a0 >> 0x30\n 75222: u64 [sp + 0x258] = a2\n 75226: u8 [sp + 0x546] = a2\n 75230: a2 = a0 >> 0x28\n 75233: u64 [sp + 0x250] = a2\n 75237: u8 [sp + 0x545] = a2\n 75241: a2 = a0 >> 0x20\n 75244: u64 [sp + 0x248] = a2\n 75248: u8 [sp + 0x544] = a2\n 75252: a2 = a0 >> 0x18\n 75255: u64 [sp + 0x220] = a2\n 75259: u8 [sp + 0x543] = a2\n 75263: a2 = a0 >> 0x10\n 75266: u64 [sp + 0x218] = a2\n 75270: u8 [sp + 0x542] = a2\n 75274: a0 = a0 >> 0x8\n 75277: u64 [sp + 0x210] = a0\n 75281: u8 [sp + 0x541] = a0\n 75285: ra = u64 [sp + 0x290]\n 75289: u8 [sp + 0x550] = ra\n 75293: a0 = a1 >> 0x38\n 75296: u64 [sp + 0x208] = a0\n 75300: u8 [sp + 0x54f] = a0\n 75304: a0 = a1 >> 0x30\n 75307: u64 [sp + 0x1d0] = a0\n 75311: u8 [sp + 0x54e] = a0\n 75315: a0 = a1 >> 0x28\n 75318: u64 [sp + 0x1c8] = a0\n 75322: u8 [sp + 0x54d] = a0\n 75326: a0 = a1 >> 0x20\n 75329: u64 [sp + 0x1c0] = a0\n 75333: u8 [sp + 0x54c] = a0\n 75337: a0 = a1 >> 0x18\n 75340: u64 [sp + 0x1b8] = a0\n 75344: u8 [sp + 0x54b] = a0\n 75348: a0 = a1 >> 0x10\n 75351: u64 [sp + 0x1b0] = a0\n 75355: u8 [sp + 0x54a] = a0\n 75359: a1 = a1 >> 0x8\n 75362: u64 [sp + 0x1a8] = a1\n 75366: u8 [sp + 0x549] = a1\n 75370: t0 = u64 [sp + 0x288]\n 75374: u8 [sp + 0x558] = t0\n 75378: a0 = ra >> 0x38\n 75381: u64 [sp + 0x1a0] = a0\n 75385: u8 [sp + 0x557] = a0\n 75389: a0 = ra >> 0x30\n 75392: u64 [sp + 0x198] = a0\n 75396: u8 [sp + 0x556] = a0\n 75400: a0 = ra >> 0x28\n 75403: u64 [sp + 0x190] = a0\n 75407: u8 [sp + 0x555] = a0\n 75411: a0 = ra >> 0x20\n 75414: u64 [sp + 0x188] = a0\n 75418: u8 [sp + 0x554] = a0\n 75422: a0 = ra >> 0x18\n 75425: u64 [sp + 0x180] = a0\n 75429: u8 [sp + 0x553] = a0\n 75433: a0 = ra >> 0x10\n 75436: u64 [sp + 0x358] = a0\n 75440: u8 [sp + 0x552] = a0\n 75444: a0 = ra >> 0x8\n 75447: u64 [sp + 0x350] = a0\n 75451: u8 [sp + 0x551] = a0\n 75455: a0 = t0 >> 0x38\n 75458: u64 [sp + 0x348] = a0\n 75462: u8 [sp + 0x55f] = a0\n 75466: a0 = t0 >> 0x30\n 75469: u64 [sp + 0x318] = a0\n 75473: u8 [sp + 0x55e] = a0\n 75477: a0 = t0 >> 0x28\n 75480: u64 [sp + 0x310] = a0\n 75484: u8 [sp + 0x55d] = a0\n 75488: a0 = t0 >> 0x20\n 75491: u64 [sp + 0x308] = a0\n 75495: u8 [sp + 0x55c] = a0\n 75499: a0 = t0 >> 0x18\n 75502: u64 [sp + 0x300] = a0\n 75506: u8 [sp + 0x55b] = a0\n 75510: a0 = t0 >> 0x10\n 75513: u64 [sp + 0x2f8] = a0\n 75517: u8 [sp + 0x55a] = a0\n 75521: a0 = t0 >> 0x8\n 75524: u64 [sp + 0x268] = a0\n 75528: u8 [sp + 0x559] = a0\n 75532: a0 = t1 << 0x38\n 75535: a0 = a0 >> 0x3b\n 75538: a4 = sp + 0x540\n 75542: a4 = a4 - a0\n 75545: a0 = u8 [a4 + 0x19]\n 75548: a2 = u8 [a4 + 0x18]\n 75551: a3 = u8 [a4 + 0x1a]\n 75554: a5 = u8 [a4 + 0x1b]\n 75557: a0 = a0 << 0x8\n 75560: a0 = a0 | a2\n 75563: a3 = a3 << 0x10\n 75566: a5 = a5 << 0x18\n 75569: a3 = a3 | a5\n 75572: a0 = a0 | a3\n 75575: a2 = u8 [a4 + 0x1d]\n 75578: a3 = u8 [a4 + 0x1c]\n 75581: a5 = u8 [a4 + 0x1e]\n 75584: s1 = u8 [a4 + 0x1f]\n 75587: a2 = a2 << 0x8\n 75590: a2 = a2 | a3\n 75593: a5 = a5 << 0x10\n 75596: s1 = s1 << 0x18\n 75599: a5 = a5 | s1\n 75602: a2 = a2 | a5\n 75605: a2 = a2 << 0x20\n 75608: a3 = a2 | a0\n 75611: a0 = u8 [a4 + 0x11]\n 75614: a2 = u8 [a4 + 0x10]\n 75617: a5 = u8 [a4 + 0x12]\n 75620: s1 = u8 [a4 + 0x13]\n 75623: a0 = a0 << 0x8\n 75626: a0 = a0 | a2\n 75629: a5 = a5 << 0x10\n 75632: s1 = s1 << 0x18\n 75635: a5 = a5 | s1\n 75638: a0 = a0 | a5\n 75641: a2 = u8 [a4 + 0x15]\n 75644: a5 = u8 [a4 + 0x14]\n 75647: s1 = u8 [a4 + 0x16]\n 75650: a1 = u8 [a4 + 0x17]\n 75653: a2 = a2 << 0x8\n 75656: a2 = a2 | a5\n 75659: s1 = s1 << 0x10\n 75662: a1 = a1 << 0x18\n 75665: a1 = a1 | s1\n 75668: a1 = a1 | a2\n 75671: a1 = a1 << 0x20\n 75674: t2 = a1 | a0\n 75677: a1 = t1 & 0x7\n 75680: a0 = a3 << a1\n 75683: a2 = t2 >> 0x1\n 75686: t1 = a1 ^ 0x3f\n 75689: a2 = a2 >> t1\n 75692: a0 = a0 | a2\n 75695: u64 [sp + 0x3a0] = a0\n 75699: a0 = u8 [a4 + 0x9]\n 75702: a2 = u8 [a4 + 0x8]\n 75705: a5 = u8 [a4 + 0xa]\n 75708: a3 = u8 [a4 + 0xb]\n 75711: a0 = a0 << 0x8\n 75714: a0 = a0 | a2\n 75717: a5 = a5 << 0x10\n 75720: a3 = a3 << 0x18\n 75723: a3 = a3 | a5\n 75726: a0 = a0 | a3\n 75729: a2 = u8 [a4 + 0xd]\n 75732: a3 = u8 [a4 + 0xc]\n 75735: a5 = u8 [a4 + 0xe]\n 75738: s1 = u8 [a4 + 0xf]\n 75741: a2 = a2 << 0x8\n 75744: a2 = a2 | a3\n 75747: a5 = a5 << 0x10\n 75750: s1 = s1 << 0x18\n 75753: a5 = a5 | s1\n 75756: a2 = a2 | a5\n 75759: a2 = a2 << 0x20\n 75762: a5 = a2 | a0\n 75765: a0 = a5 >> 0x1\n 75768: a2 = a1 ^ 0xffffffffffffffff\n 75771: a0 = a0 >> a2\n 75774: a2 = t2 << a1\n 75777: a0 = a0 | a2\n 75780: u64 [sp + 0x398] = a0\n 75784: a0 = u8 [a4 + 0x1]\n 75787: a2 = u8 [a4]\n 75789: a3 = u8 [a4 + 0x2]\n 75792: s1 = u8 [a4 + 0x3]\n 75795: a0 = a0 << 0x8\n 75798: a0 = a0 | a2\n 75801: a3 = a3 << 0x10\n 75804: s1 = s1 << 0x18\n 75807: a3 = a3 | s1\n 75810: a0 = a0 | a3\n 75813: a2 = u8 [a4 + 0x5]\n 75816: a3 = u8 [a4 + 0x4]\n 75819: s1 = u8 [a4 + 0x6]\n 75822: a4 = u8 [a4 + 0x7]\n 75825: a2 = a2 << 0x8\n 75828: a2 = a2 | a3\n 75831: s1 = s1 << 0x10\n 75834: a4 = a4 << 0x18\n 75837: a4 = a4 | s1\n 75840: a2 = a2 | a4\n 75843: a4 = u64 [sp + 0x380]\n 75847: a2 = a2 << 0x20\n 75850: a0 = a0 | a2\n 75853: a2 = a0 >> 0x1\n 75856: a2 = a2 >> t1\n 75859: s1 = u64 [sp + 0x368]\n 75863: a3 = a5 << a1\n 75866: a5 = u64 [sp + 0x370]\n 75870: a2 = a2 | a3\n 75873: u64 [sp + 0x388] = a2\n 75877: a2 = a4 | a5\n 75880: a3 = u64 [sp + 0x3a8]\n 75884: a3 = a3 | s1\n 75887: a2 = a2 | a3\n 75890: a0 = a0 << a1\n 75893: u64 [sp + 0x390] = a0\n 75897: jump @346 if a2 == 0\n      : @343 (gas: 224)\n 75901: u64 [sp + 888] = 0\n 75905: u64 [sp + 864] = 0\n 75909: a0 = u64 [sp + 0x260]\n 75913: u8 [sp + 0x4e7] = a0\n 75917: a0 = u64 [sp + 0x258]\n 75921: u8 [sp + 0x4e6] = a0\n 75925: a0 = u64 [sp + 0x250]\n 75929: u8 [sp + 0x4e5] = a0\n 75933: a0 = u64 [sp + 0x248]\n 75937: u8 [sp + 0x4e4] = a0\n 75941: a0 = u64 [sp + 0x220]\n 75945: u8 [sp + 0x4e3] = a0\n 75949: a0 = u64 [sp + 0x218]\n 75953: u8 [sp + 0x4e2] = a0\n 75957: a0 = u64 [sp + 0x210]\n 75961: u8 [sp + 0x4e1] = a0\n 75965: a0 = u64 [sp + 0x208]\n 75969: u8 [sp + 0x4ef] = a0\n 75973: a0 = u64 [sp + 0x1d0]\n 75977: u8 [sp + 0x4ee] = a0\n 75981: a0 = u64 [sp + 0x1c8]\n 75985: u8 [sp + 0x4ed] = a0\n 75989: a0 = u64 [sp + 0x1c0]\n 75993: u8 [sp + 0x4ec] = a0\n 75997: a0 = u64 [sp + 0x1b8]\n 76001: u8 [sp + 0x4eb] = a0\n 76005: a0 = u64 [sp + 0x1b0]\n 76009: u8 [sp + 0x4ea] = a0\n 76013: a0 = u64 [sp + 0x1a8]\n 76017: u8 [sp + 0x4e9] = a0\n 76021: a0 = u64 [sp + 0x1a0]\n 76025: u8 [sp + 0x4f7] = a0\n 76029: a0 = u64 [sp + 0x198]\n 76033: u8 [sp + 0x4f6] = a0\n 76037: a0 = u64 [sp + 0x190]\n 76041: u8 [sp + 0x4f5] = a0\n 76045: a0 = u64 [sp + 0x188]\n 76049: u8 [sp + 0x4f4] = a0\n 76053: a0 = u64 [sp + 0x180]\n 76057: u8 [sp + 0x4f3] = a0\n 76061: u8 [sp + 1311] = 0\n 76065: u8 [sp + 1310] = 0\n 76069: u8 [sp + 1309] = 0\n 76073: u8 [sp + 1308] = 0\n 76077: u8 [sp + 1307] = 0\n 76081: u8 [sp + 1306] = 0\n 76085: u8 [sp + 1305] = 0\n 76089: u8 [sp + 1304] = 0\n 76093: u8 [sp + 1303] = 0\n 76097: u8 [sp + 1302] = 0\n 76101: u8 [sp + 1301] = 0\n 76105: u8 [sp + 1300] = 0\n 76109: u8 [sp + 1299] = 0\n 76113: u8 [sp + 1298] = 0\n 76117: u8 [sp + 1297] = 0\n 76121: u8 [sp + 1296] = 0\n 76125: u8 [sp + 1295] = 0\n 76129: u8 [sp + 1294] = 0\n 76133: u8 [sp + 1293] = 0\n 76137: u8 [sp + 1292] = 0\n 76141: u8 [sp + 1291] = 0\n 76145: u8 [sp + 1290] = 0\n 76149: u8 [sp + 1289] = 0\n 76153: u8 [sp + 1288] = 0\n 76157: u8 [sp + 1287] = 0\n 76161: u8 [sp + 1286] = 0\n 76165: u8 [sp + 1285] = 0\n 76169: u8 [sp + 1284] = 0\n 76173: u8 [sp + 1283] = 0\n 76177: u8 [sp + 1282] = 0\n 76181: u8 [sp + 1281] = 0\n 76185: u8 [sp + 1280] = 0\n 76189: a0 = u64 [sp + 0x2d8]\n 76193: u8 [sp + 0x4e0] = a0\n 76197: a0 = u64 [sp + 0x2a0]\n 76201: u8 [sp + 0x4e8] = a0\n 76205: u8 [sp + 0x4f0] = ra\n 76209: u8 [sp + 0x4f8] = t0\n 76213: a0 = u64 [sp + 0x358]\n 76217: u8 [sp + 0x4f2] = a0\n 76221: a0 = u64 [sp + 0x350]\n 76225: u8 [sp + 0x4f1] = a0\n 76229: a0 = u64 [sp + 0x348]\n 76233: u8 [sp + 0x4ff] = a0\n 76237: a0 = u64 [sp + 0x318]\n 76241: u8 [sp + 0x4fe] = a0\n 76245: a0 = u64 [sp + 0x310]\n 76249: u8 [sp + 0x4fd] = a0\n 76253: a0 = u64 [sp + 0x308]\n 76257: u8 [sp + 0x4fc] = a0\n 76261: a0 = u64 [sp + 0x300]\n 76265: u8 [sp + 0x4fb] = a0\n 76269: a0 = u64 [sp + 0x2f8]\n 76273: u8 [sp + 0x4fa] = a0\n 76277: a0 = u64 [sp + 0x268]\n 76281: u8 [sp + 0x4f9] = a0\n 76285: s1 = u64 [sp + 0x3a8]\n 76289: a0 = s1 << 0x38\n 76292: a0 = a0 >> 0x3b\n 76295: a1 = sp + 0x4e0\n 76299: a1 = a1 + a0\n 76302: a0 = u8 [a1 + 0x11]\n 76305: a2 = u8 [a1 + 0x10]\n 76308: a3 = u8 [a1 + 0x12]\n 76311: a4 = u8 [a1 + 0x13]\n 76314: a0 = a0 << 0x8\n 76317: a0 = a0 | a2\n 76320: a3 = a3 << 0x10\n 76323: a4 = a4 << 0x18\n 76326: a3 = a3 | a4\n 76329: a0 = a0 | a3\n 76332: a2 = u8 [a1 + 0x15]\n 76335: a3 = u8 [a1 + 0x14]\n 76338: a4 = u8 [a1 + 0x16]\n 76341: a5 = u8 [a1 + 0x17]\n 76344: a2 = a2 << 0x8\n 76347: a2 = a2 | a3\n 76350: a4 = a4 << 0x10\n 76353: a5 = a5 << 0x18\n 76356: a4 = a4 | a5\n 76359: a2 = a2 | a4\n 76362: a2 = a2 << 0x20\n 76365: t1 = a2 | a0\n 76368: a3 = s1 & 0x7\n 76371: t2 = t1 >> a3\n 76374: a2 = u8 [a1 + 0x19]\n 76377: a4 = u8 [a1 + 0x18]\n 76380: a5 = u8 [a1 + 0x1a]\n 76383: s1 = u8 [a1 + 0x1b]\n 76386: a2 = a2 << 0x8\n 76389: a2 = a2 | a4\n 76392: a5 = a5 << 0x10\n 76395: s1 = s1 << 0x18\n 76398: a5 = a5 | s1\n 76401: a2 = a2 | a5\n 76404: a4 = u8 [a1 + 0x1d]\n 76407: a5 = u8 [a1 + 0x1c]\n 76410: s1 = u8 [a1 + 0x1e]\n 76413: a0 = u8 [a1 + 0x1f]\n 76416: a4 = a4 << 0x8\n 76419: a4 = a4 | a5\n 76422: s1 = s1 << 0x10\n 76425: a0 = a0 << 0x18\n 76428: a0 = a0 | s1\n 76431: a0 = a0 | a4\n 76434: a0 = a0 << 0x20\n 76437: t0 = a0 | a2\n 76440: a0 = t0 << 0x1\n 76443: ra = a3 ^ 0x3f\n 76446: a0 = a0 << ra\n 76449: a0 = t2 | a0\n 76452: u64 [sp + 0x358] = a0\n 76456: a0 = u8 [a1 + 0x9]\n 76459: a2 = u8 [a1 + 0x8]\n 76462: a5 = u8 [a1 + 0xa]\n 76465: s1 = u8 [a1 + 0xb]\n 76468: a0 = a0 << 0x8\n 76471: a0 = a0 | a2\n 76474: a5 = a5 << 0x10\n 76477: s1 = s1 << 0x18\n 76480: a5 = a5 | s1\n 76483: a0 = a0 | a5\n 76486: a2 = u8 [a1 + 0xd]\n 76489: a5 = u8 [a1 + 0xc]\n 76492: s1 = u8 [a1 + 0xe]\n 76495: a4 = u8 [a1 + 0xf]\n 76498: a2 = a2 << 0x8\n 76501: a2 = a2 | a5\n 76504: s1 = s1 << 0x10\n 76507: a4 = a4 << 0x18\n 76510: a4 = a4 | s1\n 76513: a2 = a2 | a4\n 76516: a2 = a2 << 0x20\n 76519: a0 = a0 | a2\n 76522: a2 = a0 >> a3\n 76525: t1 = t1 << 0x1\n 76528: a4 = a3 ^ 0xffffffffffffffff\n 76531: a4 = t1 << a4\n 76534: t1 = a2 | a4\n 76537: a2 = u8 [a1 + 0x1]\n 76540: a4 = u8 [a1]\n 76542: a5 = u8 [a1 + 0x2]\n 76545: s1 = u8 [a1 + 0x3]\n 76548: a2 = a2 << 0x8\n 76551: a2 = a2 | a4\n 76554: a5 = a5 << 0x10\n 76557: s1 = s1 << 0x18\n 76560: a5 = a5 | s1\n 76563: a2 = a2 | a5\n 76566: a4 = u8 [a1 + 0x5]\n 76569: a5 = u8 [a1 + 0x4]\n 76572: s1 = u8 [a1 + 0x6]\n 76575: a1 = u8 [a1 + 0x7]\n 76578: a4 = a4 << 0x8\n 76581: a4 = a4 | a5\n 76584: s1 = s1 << 0x10\n 76587: a1 = a1 << 0x18\n 76590: a1 = a1 | s1\n 76593: a1 = a1 | a4\n 76596: a1 = a1 << 0x20\n 76599: a1 = a1 | a2\n 76602: a1 = a1 >> a3\n 76605: a0 = a0 << 0x1\n 76608: a4 = a0 << ra\n 76611: t2 = a1 | a4\n 76614: a5 = t0 >> a3\n 76617: a1 = u64 [sp + 0x3c0]\n 76621: a0 = a1 <u 0x1\n 76624: a2 = u64 [sp + 0x3d0]\n 76628: a0 = a2 - a0\n 76631: u64 [sp + 0x318] = a0\n 76635: a0 = a1 | a2\n 76638: a0 = a0 <u 0x1\n 76641: a2 = u64 [sp + 0x3c8]\n 76645: a3 = a2 - a0\n 76648: u64 [sp + 0x310] = a3\n 76652: a0 = a2 <u a0\n 76655: a2 = u64 [sp + 0x3d8]\n 76659: a2 = a2 - a0\n 76662: u64 [sp + 0x308] = a2\n 76666: a1 = a1 + 0xffffffffffffffff\n 76669: u64 [sp + 0x300] = a1\n 76673: a3 = u64 [sp + 0x398]\n 76677: fallthrough\n      : @344 (gas: 103)\n 76678: u64 [sp + 840] = 0\n 76682: a0 = t2 >> 0x3f\n 76685: s1 = t1 << 0x1\n 76688: t0 = s1 | a0\n 76691: a4 = t2 << 0x1\n 76694: a2 = u64 [sp + 0x3a0]\n 76698: a0 = a2 >> 0x3f\n 76701: ra = a4 | a0\n 76704: a0 = u64 [sp + 0x318]\n 76708: s1 = a0 ^ t0\n 76711: t2 = a0 <u t0\n 76714: a0 = u64 [sp + 0x300]\n 76718: a0 = a0 <u ra\n 76721: a0 = t2 if s1 != 0\n 76724: s1 = a5 << 0x1\n 76727: a5 = u64 [sp + 0x358]\n 76731: a1 = a5 >> 0x3f\n 76734: t2 = s1 | a1\n 76737: u64 [sp + 0x350] = t2\n 76741: s1 = t1 >> 0x3f\n 76744: a5 = a5 << 0x1\n 76747: s1 = s1 | a5\n 76750: a5 = a2 << 0x1\n 76753: a2 = a3 >> 0x3f\n 76756: a2 = a2 | a5\n 76759: a5 = a3 << 0x1\n 76762: a1 = u64 [sp + 0x388]\n 76766: a3 = a1 >> 0x3f\n 76769: a3 = a3 | a5\n 76772: a5 = a1 << 0x1\n 76775: a4 = u64 [sp + 0x390]\n 76779: a1 = a4 >> 0x3f\n 76782: a1 = a1 | a5\n 76785: a5 = a4 << 0x1\n 76788: a4 = u64 [sp + 0x378]\n 76792: a4 = a4 | a5\n 76795: u64 [sp + 0x390] = a4\n 76799: a4 = u64 [sp + 0x360]\n 76803: a1 = a1 | a4\n 76806: u64 [sp + 0x388] = a1\n 76810: a3 = a3 | a4\n 76813: u64 [sp + 0x398] = a3\n 76817: a2 = a2 | a4\n 76820: u64 [sp + 0x3a0] = a2\n 76824: a2 = u64 [sp + 0x310]\n 76828: a1 = a2 - s1\n 76831: a0 = a1 <u a0\n 76834: a1 = a2 <u s1\n 76837: a2 = u64 [sp + 0x308]\n 76841: a2 = a2 - t2\n 76844: a2 = a2 - a1\n 76847: a0 = a2 - a0\n 76850: a0 = a0 >>a 0x3f\n 76853: a2 = u64 [sp + 0x3c0]\n 76857: a2 = a2 & a0\n 76860: a3 = u64 [sp + 0x3d0]\n 76864: a3 = a3 & a0\n 76867: t1 = t0 ^ a3\n 76870: a5 = t0 <u a3\n 76873: a1 = ra <u a2\n 76876: t2 = ra\n 76878: a5 = a1 if t1 == 0\n 76881: a4 = u64 [sp + 0x3c8]\n 76885: t1 = a0 & a4\n 76888: ra = s1 - t1\n 76891: a4 = ra - a5\n 76894: u64 [sp + 0x358] = a4\n 76898: ra = ra <u a5\n 76901: s1 = s1 <u t1\n 76904: a4 = u64 [sp + 0x3d8]\n 76908: a4 = a4 & a0\n 76911: a5 = u64 [sp + 0x350]\n 76915: a4 = a5 - a4\n 76918: a4 = a4 - s1\n 76921: a4 = a4 - ra\n 76924: a3 = t0 - a3\n 76927: t1 = a3 - a1\n 76930: t2 = t2 - a2\n 76933: s1 = u64 [sp + 0x3a8]\n 76937: a5 = u64 [sp + 0x380]\n 76941: a1 = s1 | a5\n 76944: a1 = a1 <u 0x1\n 76947: a3 = u64 [sp + 0x368]\n 76951: a2 = a3 <u a1\n 76954: a1 = a3 - a1\n 76957: a3 = s1 <u 0x1\n 76960: a5 = a5 - a3\n 76963: a3 = u64 [sp + 0x370]\n 76967: a3 = a3 - a2\n 76970: s1 = s1 + 0xffffffffffffffff\n 76973: u64 [sp + 0x380] = a5\n 76977: u64 [sp + 0x370] = a3\n 76981: a2 = a5 | a3\n 76984: a5 = a4\n 76986: u64 [sp + 0x3a8] = s1\n 76990: a3 = s1 | a1\n 76993: a2 = a2 | a3\n 76996: a3 = u64 [sp + 0x398]\n 77000: a0 = a0 & 0x1\n 77003: u64 [sp + 0x378] = a0\n 77007: u64 [sp + 0x368] = a1\n 77011: u64 [sp + 864] = 0\n 77015: jump @344 if a2 != 0\n      : @345 (gas: 1)\n 77019: jump @347\n      : @346 (gas: 4)\n 77021: u64 [sp + 888] = 0\n 77025: u64 [sp + 840] = 0\n 77029: a3 = u64 [sp + 0x398]\n 77033: fallthrough\n      : @347 (gas: 21)\n 77034: a0 = a3 >> 0x3f\n 77037: a1 = u64 [sp + 0x3a0]\n 77041: a1 = a1 << 0x1\n 77044: a0 = a0 | a1\n 77047: a4 = u64 [sp + 0x388]\n 77051: a1 = a4 >> 0x3f\n 77054: a2 = a3 << 0x1\n 77057: a1 = a1 | a2\n 77060: a5 = u64 [sp + 0x390]\n 77064: a2 = a5 >> 0x3f\n 77067: a4 = a4 << 0x1\n 77070: a5 = a5 << 0x1\n 77073: a3 = u64 [sp + 0x378]\n 77077: t1 = a3 | a5\n 77080: a3 = u64 [sp + 0x348]\n 77084: a2 = a2 | a3\n 77087: t0 = a2 | a4\n 77090: s1 = a3 | a1\n 77093: a0 = a0 | a3\n 77096: u64 [sp + 0x268] = a0\n 77100: fallthrough\n      : @348 (gas: 4)\n 77101: a3 = u64 [sp + 0x2f0]\n 77105: t2 = u64 [sp + 0x2d0]\n 77109: a5 = u64 [sp + 0x2e8]\n 77113: fallthrough\n      : @349 (gas: 59)\n 77114: u64 [sp + 0x2e8] = a5\n 77118: u64 [sp + 0x250] = t0\n 77122: u64 [sp + 0x258] = s1\n 77126: u64 [sp + 0x260] = t1\n 77130: t0 = u64 [sp + 0x2c0]\n 77134: a0 = t0 | a3\n 77137: a1 = t2 | a5\n 77140: a0 = a0 | a1\n 77143: a0 = a0 <u 0x1\n 77146: a1 = u64 [sp + 0x320]\n 77150: a0 = a0 | a1\n 77153: u64 [sp + 0x3a8] = a0\n 77157: a1 = clz a3\n 77159: a2 = a1 + 0x40\n 77162: a1 = clz a5\n 77164: a1 = a2 if a5 == 0\n 77167: a2 = clz t0\n 77169: a2 = a2 + 0x40\n 77172: a4 = a3\n 77174: u64 [sp + 0x2f0] = a3\n 77178: a3 = clz t2\n 77180: a3 = a2 if t2 == 0\n 77183: a2 = a3 + 0x80\n 77187: a4 = a4 | a5\n 77190: a1 = a2 if a4 == 0\n 77193: a2 = a2 <u a3\n 77196: a2 = 0 if a4 != 0\n 77198: a5 = u64 [sp + 0x330]\n 77202: a3 = a5 ^ a2\n 77205: a0 = a5 <u a2\n 77208: ra = u64 [sp + 0x328]\n 77212: s1 = ra <u a1\n 77215: a0 = s1 if a3 == 0\n 77218: a4 = a0 <u 0x1\n 77221: a4 = a4 + 0xffffffffffffffff\n 77224: t1 = -a0\n 77226: a3 = a5 - a2\n 77229: s1 = a3 - s1\n 77232: a3 = t2\n 77234: t2 = ra - a1\n 77237: a1 = t1 >u 0\n 77239: a2 = a4 >u 0\n 77241: a2 = a1 if a4 == 0\n 77244: a1 = s1 >u 0\n 77246: a5 = t2 <u 0x100\n 77250: a5 = a5 ^ 0x1\n 77253: a5 = a1 if s1 != 0\n 77256: a5 = a2 if a0 != 0\n 77259: a0 = u64 [sp + 0x3a8]\n 77263: a5 = a5 | a0\n 77266: a0 = u64 [sp + 0x2e8]\n 77270: a0 = 0 if a5 != 0\n 77272: u64 [sp + 0x398] = a0\n 77276: a1 = u64 [sp + 0x2f0]\n 77280: a1 = 0 if a5 != 0\n 77282: a2 = a3\n 77284: a2 = 0 if a5 != 0\n 77286: t0 = 0 if a5 != 0\n 77288: jump @357 if a5 != 0\n      : @350 (gas: 6)\n 77292: a5 = t2 ^ 0xff\n 77296: a5 = a5 | t1\n 77299: a3 = s1 | a4\n 77302: a3 = a3 | a5\n 77305: ra = u64 [sp + 0x3d0]\n 77309: jump @358 if a3 == 0\n      : @351 (gas: 259)\n 77313: a1 = t2 + 0x1\n 77316: u64 [sp + 0x3a8] = a1\n 77320: a0 = a1 <u 0x1\n 77323: a0 = a0 + s1\n 77326: u64 [sp + 0x380] = a0\n 77330: a0 = a0 | a1\n 77333: a0 = a0 <u 0x1\n 77336: a0 = a0 + t1\n 77339: u64 [sp + 0x370] = a0\n 77343: a0 = a0 <u t1\n 77346: a0 = a0 + a4\n 77349: u64 [sp + 0x378] = a0\n 77353: t0 = 0xff - t2\n 77357: a0 = u64 [sp + 0x2c0]\n 77361: u8 [sp + 0x4c0] = a0\n 77365: u8 [sp + 1215] = 0\n 77369: u8 [sp + 1214] = 0\n 77373: u8 [sp + 1213] = 0\n 77377: u8 [sp + 1212] = 0\n 77381: u8 [sp + 1211] = 0\n 77385: u8 [sp + 1210] = 0\n 77389: u8 [sp + 1209] = 0\n 77393: u8 [sp + 1208] = 0\n 77397: u8 [sp + 1207] = 0\n 77401: u8 [sp + 1206] = 0\n 77405: u8 [sp + 1205] = 0\n 77409: u8 [sp + 1204] = 0\n 77413: u8 [sp + 1203] = 0\n 77417: u8 [sp + 1202] = 0\n 77421: u8 [sp + 1201] = 0\n 77425: u8 [sp + 1200] = 0\n 77429: u8 [sp + 1199] = 0\n 77433: u8 [sp + 1198] = 0\n 77437: u8 [sp + 1197] = 0\n 77441: u8 [sp + 1196] = 0\n 77445: u8 [sp + 1195] = 0\n 77449: u8 [sp + 1194] = 0\n 77453: u8 [sp + 1193] = 0\n 77457: u8 [sp + 1192] = 0\n 77461: u8 [sp + 1191] = 0\n 77465: u8 [sp + 1190] = 0\n 77469: u8 [sp + 1189] = 0\n 77473: u8 [sp + 1188] = 0\n 77477: u8 [sp + 1187] = 0\n 77481: u8 [sp + 1186] = 0\n 77485: u8 [sp + 1185] = 0\n 77489: u8 [sp + 1184] = 0\n 77493: a1 = u64 [sp + 0x2d0]\n 77497: u8 [sp + 0x4c8] = a1\n 77501: a2 = a0 >> 0x38\n 77504: u64 [sp + 0x220] = a2\n 77508: u8 [sp + 0x4c7] = a2\n 77512: a2 = a0 >> 0x30\n 77515: u64 [sp + 0x218] = a2\n 77519: u8 [sp + 0x4c6] = a2\n 77523: a2 = a0 >> 0x28\n 77526: u64 [sp + 0x210] = a2\n 77530: u8 [sp + 0x4c5] = a2\n 77534: a2 = a0 >> 0x20\n 77537: u64 [sp + 0x208] = a2\n 77541: u8 [sp + 0x4c4] = a2\n 77545: a2 = a0 >> 0x18\n 77548: u64 [sp + 0x1d0] = a2\n 77552: u8 [sp + 0x4c3] = a2\n 77556: a2 = a0 >> 0x10\n 77559: u64 [sp + 0x1c8] = a2\n 77563: u8 [sp + 0x4c2] = a2\n 77567: u64 [sp + 0x2c0] = a0\n 77571: a0 = a0 >> 0x8\n 77574: u64 [sp + 0x1c0] = a0\n 77578: u8 [sp + 0x4c1] = a0\n 77582: t2 = u64 [sp + 0x2f0]\n 77586: u8 [sp + 0x4d0] = t2\n 77590: a0 = a1 >> 0x38\n 77593: u64 [sp + 0x1b8] = a0\n 77597: u8 [sp + 0x4cf] = a0\n 77601: a0 = a1 >> 0x30\n 77604: u64 [sp + 0x1b0] = a0\n 77608: u8 [sp + 0x4ce] = a0\n 77612: a0 = a1 >> 0x28\n 77615: u64 [sp + 0x1a8] = a0\n 77619: u8 [sp + 0x4cd] = a0\n 77623: a0 = a1 >> 0x20\n 77626: u64 [sp + 0x1a0] = a0\n 77630: u8 [sp + 0x4cc] = a0\n 77634: a0 = a1 >> 0x18\n 77637: u64 [sp + 0x198] = a0\n 77641: u8 [sp + 0x4cb] = a0\n 77645: a0 = a1 >> 0x10\n 77648: u64 [sp + 0x190] = a0\n 77652: u8 [sp + 0x4ca] = a0\n 77656: u64 [sp + 0x2d0] = a1\n 77660: a1 = a1 >> 0x8\n 77663: u64 [sp + 0x188] = a1\n 77667: u8 [sp + 0x4c9] = a1\n 77671: ra = u64 [sp + 0x2e8]\n 77675: u8 [sp + 0x4d8] = ra\n 77679: a0 = t2 >> 0x38\n 77682: u64 [sp + 0x180] = a0\n 77686: u8 [sp + 0x4d7] = a0\n 77690: a0 = t2 >> 0x30\n 77693: u64 [sp + 0x178] = a0\n 77697: u8 [sp + 0x4d6] = a0\n 77701: a0 = t2 >> 0x28\n 77704: u64 [sp + 0x170] = a0\n 77708: u8 [sp + 0x4d5] = a0\n 77712: a0 = t2 >> 0x20\n 77715: u64 [sp + 0x168] = a0\n 77719: u8 [sp + 0x4d4] = a0\n 77723: a0 = t2 >> 0x18\n 77726: u64 [sp + 0x160] = a0\n 77730: u8 [sp + 0x4d3] = a0\n 77734: a0 = t2 >> 0x10\n 77737: u64 [sp + 0x358] = a0\n 77741: u8 [sp + 0x4d2] = a0\n 77745: a0 = t2 >> 0x8\n 77748: u64 [sp + 0x350] = a0\n 77752: u8 [sp + 0x4d1] = a0\n 77756: a0 = ra >> 0x38\n 77759: u64 [sp + 0x348] = a0\n 77763: u8 [sp + 0x4df] = a0\n 77767: a0 = ra >> 0x30\n 77770: u64 [sp + 0x318] = a0\n 77774: u8 [sp + 0x4de] = a0\n 77778: a0 = ra >> 0x28\n 77781: u64 [sp + 0x310] = a0\n 77785: u8 [sp + 0x4dd] = a0\n 77789: a0 = ra >> 0x20\n 77792: u64 [sp + 0x308] = a0\n 77796: u8 [sp + 0x4dc] = a0\n 77800: a0 = ra >> 0x18\n 77803: u64 [sp + 0x300] = a0\n 77807: u8 [sp + 0x4db] = a0\n 77811: a0 = ra >> 0x10\n 77814: u64 [sp + 0x2f8] = a0\n 77818: u8 [sp + 0x4da] = a0\n 77822: a0 = ra >> 0x8\n 77825: u64 [sp + 0x248] = a0\n 77829: u8 [sp + 0x4d9] = a0\n 77833: a0 = t0 << 0x38\n 77836: a0 = a0 >> 0x3b\n 77839: a2 = sp + 0x4c0\n 77843: a2 = a2 - a0\n 77846: a0 = u8 [a2 + 0x19]\n 77849: a3 = u8 [a2 + 0x18]\n 77852: a4 = u8 [a2 + 0x1a]\n 77855: a5 = u8 [a2 + 0x1b]\n 77858: a0 = a0 << 0x8\n 77861: a0 = a0 | a3\n 77864: a4 = a4 << 0x10\n 77867: a5 = a5 << 0x18\n 77870: a4 = a4 | a5\n 77873: a0 = a0 | a4\n 77876: a3 = u8 [a2 + 0x1d]\n 77879: a4 = u8 [a2 + 0x1c]\n 77882: a5 = u8 [a2 + 0x1e]\n 77885: s1 = u8 [a2 + 0x1f]\n 77888: a3 = a3 << 0x8\n 77891: a3 = a3 | a4\n 77894: a5 = a5 << 0x10\n 77897: s1 = s1 << 0x18\n 77900: a5 = a5 | s1\n 77903: a3 = a3 | a5\n 77906: a3 = a3 << 0x20\n 77909: a4 = a3 | a0\n 77912: a0 = u8 [a2 + 0x11]\n 77915: a3 = u8 [a2 + 0x10]\n 77918: a5 = u8 [a2 + 0x12]\n 77921: s1 = u8 [a2 + 0x13]\n 77924: a0 = a0 << 0x8\n 77927: a0 = a0 | a3\n 77930: a5 = a5 << 0x10\n 77933: s1 = s1 << 0x18\n 77936: a5 = a5 | s1\n 77939: a0 = a0 | a5\n 77942: a3 = u8 [a2 + 0x15]\n 77945: a5 = u8 [a2 + 0x14]\n 77948: s1 = u8 [a2 + 0x16]\n 77951: a1 = u8 [a2 + 0x17]\n 77954: a3 = a3 << 0x8\n 77957: a3 = a3 | a5\n 77960: s1 = s1 << 0x10\n 77963: a1 = a1 << 0x18\n 77966: a1 = a1 | s1\n 77969: a1 = a1 | a3\n 77972: a1 = a1 << 0x20\n 77975: t1 = a1 | a0\n 77978: a1 = t0 & 0x7\n 77981: a0 = a4 << a1\n 77984: a5 = t1 >> 0x1\n 77987: t0 = a1 ^ 0x3f\n 77990: a5 = a5 >> t0\n 77993: a0 = a0 | a5\n 77996: u64 [sp + 0x3a0] = a0\n 78000: a0 = u8 [a2 + 0x9]\n 78003: a5 = u8 [a2 + 0x8]\n 78006: s1 = u8 [a2 + 0xa]\n 78009: a4 = u8 [a2 + 0xb]\n 78012: a0 = a0 << 0x8\n 78015: a0 = a0 | a5\n 78018: s1 = s1 << 0x10\n 78021: a4 = a4 << 0x18\n 78024: a4 = a4 | s1\n 78027: a0 = a0 | a4\n 78030: a4 = u8 [a2 + 0xd]\n 78033: a5 = u8 [a2 + 0xc]\n 78036: s1 = u8 [a2 + 0xe]\n 78039: a3 = u8 [a2 + 0xf]\n 78042: a4 = a4 << 0x8\n 78045: a4 = a4 | a5\n 78048: s1 = s1 << 0x10\n 78051: a3 = a3 << 0x18\n 78054: a3 = a3 | s1\n 78057: a3 = a3 | a4\n 78060: a3 = a3 << 0x20\n 78063: a5 = a3 | a0\n 78066: a0 = a5 >> 0x1\n 78069: a3 = a1 ^ 0xffffffffffffffff\n 78072: a0 = a0 >> a3\n 78075: a3 = t1 << a1\n 78078: t1 = u64 [sp + 0x370]\n 78082: a0 = a0 | a3\n 78085: u64 [sp + 0x398] = a0\n 78089: a0 = u8 [a2 + 0x1]\n 78092: a3 = u8 [a2]\n 78094: a4 = u8 [a2 + 0x2]\n 78097: s1 = u8 [a2 + 0x3]\n 78100: a0 = a0 << 0x8\n 78103: a0 = a0 | a3\n 78106: a4 = a4 << 0x10\n 78109: s1 = s1 << 0x18\n 78112: a4 = a4 | s1\n 78115: a0 = a0 | a4\n 78118: a3 = u8 [a2 + 0x5]\n 78121: a4 = u8 [a2 + 0x4]\n 78124: s1 = u8 [a2 + 0x6]\n 78127: a2 = u8 [a2 + 0x7]\n 78130: a3 = a3 << 0x8\n 78133: a3 = a3 | a4\n 78136: s1 = s1 << 0x10\n 78139: a2 = a2 << 0x18\n 78142: a2 = a2 | s1\n 78145: a4 = u64 [sp + 0x380]\n 78149: a2 = a2 | a3\n 78152: a2 = a2 << 0x20\n 78155: a0 = a0 | a2\n 78158: a2 = a0 >> 0x1\n 78161: a2 = a2 >> t0\n 78164: a3 = a5 << a1\n 78167: a5 = u64 [sp + 0x378]\n 78171: a2 = a2 | a3\n 78174: u64 [sp + 0x388] = a2\n 78178: a2 = a4 | a5\n 78181: a3 = u64 [sp + 0x3a8]\n 78185: a3 = a3 | t1\n 78188: a2 = a2 | a3\n 78191: a0 = a0 << a1\n 78194: u64 [sp + 0x390] = a0\n 78198: jump @355 if a2 == 0\n      : @352 (gas: 225)\n 78202: u64 [sp + 872] = 0\n 78206: u64 [sp + 864] = 0\n 78210: a0 = u64 [sp + 0x220]\n 78214: u8 [sp + 0x467] = a0\n 78218: a0 = u64 [sp + 0x218]\n 78222: u8 [sp + 0x466] = a0\n 78226: a0 = u64 [sp + 0x210]\n 78230: u8 [sp + 0x465] = a0\n 78234: a0 = u64 [sp + 0x208]\n 78238: u8 [sp + 0x464] = a0\n 78242: a0 = u64 [sp + 0x1d0]\n 78246: u8 [sp + 0x463] = a0\n 78250: a0 = u64 [sp + 0x1c8]\n 78254: u8 [sp + 0x462] = a0\n 78258: a0 = u64 [sp + 0x1c0]\n 78262: u8 [sp + 0x461] = a0\n 78266: a0 = u64 [sp + 0x1b8]\n 78270: u8 [sp + 0x46f] = a0\n 78274: a0 = u64 [sp + 0x1b0]\n 78278: u8 [sp + 0x46e] = a0\n 78282: a0 = u64 [sp + 0x1a8]\n 78286: u8 [sp + 0x46d] = a0\n 78290: a0 = u64 [sp + 0x1a0]\n 78294: u8 [sp + 0x46c] = a0\n 78298: a0 = u64 [sp + 0x198]\n 78302: u8 [sp + 0x46b] = a0\n 78306: a0 = u64 [sp + 0x190]\n 78310: u8 [sp + 0x46a] = a0\n 78314: a0 = u64 [sp + 0x188]\n 78318: u8 [sp + 0x469] = a0\n 78322: a0 = u64 [sp + 0x180]\n 78326: u8 [sp + 0x477] = a0\n 78330: a0 = u64 [sp + 0x178]\n 78334: u8 [sp + 0x476] = a0\n 78338: a0 = u64 [sp + 0x170]\n 78342: u8 [sp + 0x475] = a0\n 78346: a0 = u64 [sp + 0x168]\n 78350: u8 [sp + 0x474] = a0\n 78354: a0 = u64 [sp + 0x160]\n 78358: u8 [sp + 0x473] = a0\n 78362: u8 [sp + 1183] = 0\n 78366: u8 [sp + 1182] = 0\n 78370: u8 [sp + 1181] = 0\n 78374: u8 [sp + 1180] = 0\n 78378: u8 [sp + 1179] = 0\n 78382: u8 [sp + 1178] = 0\n 78386: u8 [sp + 1177] = 0\n 78390: u8 [sp + 1176] = 0\n 78394: u8 [sp + 1175] = 0\n 78398: u8 [sp + 1174] = 0\n 78402: u8 [sp + 1173] = 0\n 78406: u8 [sp + 1172] = 0\n 78410: u8 [sp + 1171] = 0\n 78414: u8 [sp + 1170] = 0\n 78418: u8 [sp + 1169] = 0\n 78422: u8 [sp + 1168] = 0\n 78426: u8 [sp + 1167] = 0\n 78430: u8 [sp + 1166] = 0\n 78434: u8 [sp + 1165] = 0\n 78438: u8 [sp + 1164] = 0\n 78442: u8 [sp + 1163] = 0\n 78446: u8 [sp + 1162] = 0\n 78450: u8 [sp + 1161] = 0\n 78454: u8 [sp + 1160] = 0\n 78458: u8 [sp + 1159] = 0\n 78462: u8 [sp + 1158] = 0\n 78466: u8 [sp + 1157] = 0\n 78470: u8 [sp + 1156] = 0\n 78474: u8 [sp + 1155] = 0\n 78478: u8 [sp + 1154] = 0\n 78482: u8 [sp + 1153] = 0\n 78486: u8 [sp + 1152] = 0\n 78490: a0 = u64 [sp + 0x2c0]\n 78494: u8 [sp + 0x460] = a0\n 78498: a0 = u64 [sp + 0x2d0]\n 78502: u8 [sp + 0x468] = a0\n 78506: u8 [sp + 0x470] = t2\n 78510: u8 [sp + 0x478] = ra\n 78514: a0 = u64 [sp + 0x358]\n 78518: u8 [sp + 0x472] = a0\n 78522: a0 = u64 [sp + 0x350]\n 78526: u8 [sp + 0x471] = a0\n 78530: a0 = u64 [sp + 0x348]\n 78534: u8 [sp + 0x47f] = a0\n 78538: a0 = u64 [sp + 0x318]\n 78542: u8 [sp + 0x47e] = a0\n 78546: a0 = u64 [sp + 0x310]\n 78550: u8 [sp + 0x47d] = a0\n 78554: a0 = u64 [sp + 0x308]\n 78558: u8 [sp + 0x47c] = a0\n 78562: a0 = u64 [sp + 0x300]\n 78566: u8 [sp + 0x47b] = a0\n 78570: a0 = u64 [sp + 0x2f8]\n 78574: u8 [sp + 0x47a] = a0\n 78578: a0 = u64 [sp + 0x248]\n 78582: u8 [sp + 0x479] = a0\n 78586: s1 = u64 [sp + 0x3a8]\n 78590: a0 = s1 << 0x38\n 78593: a0 = a0 >> 0x3b\n 78596: a1 = sp + 0x460\n 78600: a1 = a1 + a0\n 78603: a0 = u8 [a1 + 0x11]\n 78606: a2 = u8 [a1 + 0x10]\n 78609: a3 = u8 [a1 + 0x12]\n 78612: a4 = u8 [a1 + 0x13]\n 78615: a0 = a0 << 0x8\n 78618: a0 = a0 | a2\n 78621: a3 = a3 << 0x10\n 78624: a4 = a4 << 0x18\n 78627: a3 = a3 | a4\n 78630: a0 = a0 | a3\n 78633: a2 = u8 [a1 + 0x15]\n 78636: a3 = u8 [a1 + 0x14]\n 78639: a4 = u8 [a1 + 0x16]\n 78642: a5 = u8 [a1 + 0x17]\n 78645: a2 = a2 << 0x8\n 78648: a2 = a2 | a3\n 78651: a4 = a4 << 0x10\n 78654: a5 = a5 << 0x18\n 78657: a4 = a4 | a5\n 78660: a2 = a2 | a4\n 78663: a2 = a2 << 0x20\n 78666: t2 = a2 | a0\n 78669: s1 = s1 & 0x7\n 78672: ra = t2 >> s1\n 78675: a0 = u8 [a1 + 0x19]\n 78678: a2 = u8 [a1 + 0x18]\n 78681: a5 = u8 [a1 + 0x1a]\n 78684: a3 = u8 [a1 + 0x1b]\n 78687: a0 = a0 << 0x8\n 78690: a0 = a0 | a2\n 78693: a5 = a5 << 0x10\n 78696: a3 = a3 << 0x18\n 78699: a3 = a3 | a5\n 78702: a0 = a0 | a3\n 78705: a2 = u8 [a1 + 0x1d]\n 78708: a3 = u8 [a1 + 0x1c]\n 78711: a5 = u8 [a1 + 0x1e]\n 78714: a4 = u8 [a1 + 0x1f]\n 78717: a2 = a2 << 0x8\n 78720: a2 = a2 | a3\n 78723: a5 = a5 << 0x10\n 78726: a4 = a4 << 0x18\n 78729: a4 = a4 | a5\n 78732: a2 = a2 | a4\n 78735: a2 = a2 << 0x20\n 78738: t0 = a2 | a0\n 78741: a0 = t0 << 0x1\n 78744: t1 = s1 ^ 0x3f\n 78747: a0 = a0 << t1\n 78750: a0 = ra | a0\n 78753: u64 [sp + 0x358] = a0\n 78757: a0 = u8 [a1 + 0x9]\n 78760: a2 = u8 [a1 + 0x8]\n 78763: a3 = u8 [a1 + 0xa]\n 78766: a4 = u8 [a1 + 0xb]\n 78769: a0 = a0 << 0x8\n 78772: a0 = a0 | a2\n 78775: a3 = a3 << 0x10\n 78778: a4 = a4 << 0x18\n 78781: a3 = a3 | a4\n 78784: a0 = a0 | a3\n 78787: a2 = u8 [a1 + 0xd]\n 78790: a3 = u8 [a1 + 0xc]\n 78793: a4 = u8 [a1 + 0xe]\n 78796: a5 = u8 [a1 + 0xf]\n 78799: a2 = a2 << 0x8\n 78802: a2 = a2 | a3\n 78805: a4 = a4 << 0x10\n 78808: a5 = a5 << 0x18\n 78811: a4 = a4 | a5\n 78814: a2 = a2 | a4\n 78817: a2 = a2 << 0x20\n 78820: a5 = a2 | a0\n 78823: a0 = a5 >> s1\n 78826: t2 = t2 << 0x1\n 78829: a2 = s1 ^ 0xffffffffffffffff\n 78832: a2 = t2 << a2\n 78835: ra = a0 | a2\n 78838: a0 = u8 [a1 + 0x1]\n 78841: a2 = u8 [a1]\n 78843: a3 = u8 [a1 + 0x2]\n 78846: a4 = u8 [a1 + 0x3]\n 78849: a0 = a0 << 0x8\n 78852: a0 = a0 | a2\n 78855: a3 = a3 << 0x10\n 78858: a4 = a4 << 0x18\n 78861: a3 = a3 | a4\n 78864: a0 = a0 | a3\n 78867: a2 = u8 [a1 + 0x5]\n 78870: a3 = u8 [a1 + 0x4]\n 78873: a4 = u8 [a1 + 0x6]\n 78876: a1 = u8 [a1 + 0x7]\n 78879: a2 = a2 << 0x8\n 78882: a2 = a2 | a3\n 78885: a4 = a4 << 0x10\n 78888: a1 = a1 << 0x18\n 78891: a1 = a1 | a4\n 78894: a1 = a1 | a2\n 78897: a1 = a1 << 0x20\n 78900: a0 = a0 | a1\n 78903: a0 = a0 >> s1\n 78906: a5 = a5 << 0x1\n 78909: a1 = a5 << t1\n 78912: a5 = u64 [sp + 0x368]\n 78916: t1 = a0 | a1\n 78919: a4 = t0 >> s1\n 78922: a2 = u64 [sp + 0x3c0]\n 78926: a0 = a2 <u 0x1\n 78929: a1 = u64 [sp + 0x3d0]\n 78933: a0 = a1 - a0\n 78936: u64 [sp + 0x310] = a0\n 78940: a0 = a2 | a1\n 78943: a0 = a0 <u 0x1\n 78946: a1 = u64 [sp + 0x3c8]\n 78950: a3 = a1 - a0\n 78953: u64 [sp + 0x308] = a3\n 78957: a0 = a1 <u a0\n 78960: a1 = u64 [sp + 0x3d8]\n 78964: a1 = a1 - a0\n 78967: u64 [sp + 0x300] = a1\n 78971: a2 = a2 + 0xffffffffffffffff\n 78974: u64 [sp + 0x2f8] = a2\n 78978: a3 = u64 [sp + 0x398]\n 78982: fallthrough\n      : @353 (gas: 105)\n 78983: u64 [sp + 0x368] = a5\n 78987: u64 [sp + 792] = 0\n 78991: a0 = t1 >> 0x3f\n 78994: s1 = ra << 0x1\n 78997: s1 = s1 | a0\n 79000: t1 = t1 << 0x1\n 79003: t2 = ra\n 79005: ra = u64 [sp + 0x3a0]\n 79009: a0 = ra >> 0x3f\n 79012: a1 = t1 | a0\n 79015: a0 = u64 [sp + 0x310]\n 79019: a5 = a0 ^ s1\n 79022: a2 = a0 <u s1\n 79025: a0 = u64 [sp + 0x2f8]\n 79029: a0 = a0 <u a1\n 79032: t1 = a1\n 79034: u64 [sp + 0x348] = a1\n 79038: a0 = a2 if a5 != 0\n 79041: a1 = a4 << 0x1\n 79044: a4 = u64 [sp + 0x358]\n 79048: a2 = a4 >> 0x3f\n 79051: t0 = a1 | a2\n 79054: u64 [sp + 0x350] = t0\n 79058: a2 = t2 >> 0x3f\n 79061: a4 = a4 << 0x1\n 79064: a5 = a4 | a2\n 79067: a2 = ra << 0x1\n 79070: a4 = a3 >> 0x3f\n 79073: ra = a2 | a4\n 79076: a4 = a3 << 0x1\n 79079: a2 = u64 [sp + 0x388]\n 79083: a1 = a2 >> 0x3f\n 79086: a1 = a1 | a4\n 79089: a2 = a2 << 0x1\n 79092: a4 = u64 [sp + 0x390]\n 79096: a3 = a4 >> 0x3f\n 79099: a3 = a3 | a2\n 79102: a4 = a4 << 0x1\n 79105: a2 = u64 [sp + 0x368]\n 79109: a4 = a4 | a2\n 79112: u64 [sp + 0x390] = a4\n 79116: a2 = u64 [sp + 0x360]\n 79120: a3 = a3 | a2\n 79123: u64 [sp + 0x388] = a3\n 79127: a1 = a1 | a2\n 79130: u64 [sp + 0x398] = a1\n 79134: a1 = a2 | ra\n 79137: u64 [sp + 0x3a0] = a1\n 79141: a2 = u64 [sp + 0x308]\n 79145: a1 = a2 - a5\n 79148: a0 = a1 <u a0\n 79151: a1 = a2 <u a5\n 79154: a2 = u64 [sp + 0x300]\n 79158: a2 = a2 - t0\n 79161: a2 = a2 - a1\n 79164: a2 = a2 - a0\n 79167: a2 = a2 >>a 0x3f\n 79170: a0 = u64 [sp + 0x3c0]\n 79174: t2 = a2 & a0\n 79177: a3 = u64 [sp + 0x3d0]\n 79181: a3 = a3 & a2\n 79184: ra = s1 ^ a3\n 79187: a4 = s1 <u a3\n 79190: a1 = t1 <u t2\n 79193: a4 = a1 if ra == 0\n 79196: a0 = u64 [sp + 0x3c8]\n 79200: ra = a2 & a0\n 79203: t0 = a5 - ra\n 79206: t1 = t0 - a4\n 79209: u64 [sp + 0x358] = t1\n 79213: t0 = t0 <u a4\n 79216: a5 = a5 <u ra\n 79219: a4 = u64 [sp + 0x3d8]\n 79223: a4 = a4 & a2\n 79226: a0 = u64 [sp + 0x350]\n 79230: a4 = a0 - a4\n 79233: a4 = a4 - a5\n 79236: a4 = a4 - t0\n 79239: s1 = s1 - a3\n 79242: ra = s1 - a1\n 79245: a0 = u64 [sp + 0x348]\n 79249: t1 = a0 - t2\n 79252: a5 = u64 [sp + 0x3a8]\n 79256: s1 = u64 [sp + 0x380]\n 79260: a0 = a5 | s1\n 79263: a0 = a0 <u 0x1\n 79266: a3 = u64 [sp + 0x370]\n 79270: a1 = a3 <u a0\n 79273: a0 = a3 - a0\n 79276: a3 = a5 <u 0x1\n 79279: s1 = s1 - a3\n 79282: a3 = u64 [sp + 0x378]\n 79286: a3 = a3 - a1\n 79289: a5 = a5 + 0xffffffffffffffff\n 79292: u64 [sp + 0x380] = s1\n 79296: u64 [sp + 0x378] = a3\n 79300: a1 = s1 | a3\n 79303: u64 [sp + 0x3a8] = a5\n 79307: a3 = a5 | a0\n 79310: a1 = a1 | a3\n 79313: a3 = u64 [sp + 0x398]\n 79317: a5 = a2 & 0x1\n 79320: u64 [sp + 0x370] = a0\n 79324: u64 [sp + 864] = 0\n 79328: jump @353 if a1 != 0\n      : @354 (gas: 1)\n 79332: jump @356\n      : @355 (gas: 4)\n 79334: a5 = 0\n 79336: u64 [sp + 792] = 0\n 79340: a3 = u64 [sp + 0x398]\n 79344: fallthrough\n      : @356 (gas: 22)\n 79345: a0 = a3 >> 0x3f\n 79348: a1 = u64 [sp + 0x3a0]\n 79352: a1 = a1 << 0x1\n 79355: a2 = a3\n 79357: a3 = a1 | a0\n 79360: a4 = u64 [sp + 0x388]\n 79364: a0 = a4 >> 0x3f\n 79367: a1 = a2 << 0x1\n 79370: a1 = a1 | a0\n 79373: a0 = u64 [sp + 0x390]\n 79377: a2 = a0 >> 0x3f\n 79380: a4 = a4 << 0x1\n 79383: a0 = a0 << 0x1\n 79386: t0 = a5 | a0\n 79389: a5 = u64 [sp + 0x318]\n 79393: a2 = a2 | a5\n 79396: a2 = a2 | a4\n 79399: a1 = a1 | a5\n 79402: a3 = a3 | a5\n 79405: u64 [sp + 0x398] = a3\n 79409: ra = u64 [sp + 0x3d0]\n 79413: jump @358\n      : @357 (gas: 2)\n 79415: ra = u64 [sp + 0x3d0]\n 79419: fallthrough\n      : @358 (gas: 221)\n 79420: u64 [sp + 0x3a8] = a2\n 79424: u64 [sp + 0x388] = a1\n 79428: u64 [sp + 0x390] = t0\n 79432: t1 = u64 [sp + 0x3c0]\n 79436: a0 = u64 [sp + 0x260]\n 79440: a3 = t1 mulhu a0\n 79443: a4 = ra * a0\n 79446: a3 = a3 + a4\n 79449: a4 = a3 <u a4\n 79452: a5 = ra mulhu a0\n 79455: a5 = a5 + a4\n 79458: t2 = u64 [sp + 0x250]\n 79462: a4 = t1 * t2\n 79465: a3 = a3 + a4\n 79468: u64 [sp + 0x3a0] = a3\n 79472: a4 = a3 <u a4\n 79475: s1 = t1 mulhu t2\n 79478: a4 = a4 + s1\n 79481: a4 = a4 + a5\n 79484: a5 = a4 <u a5\n 79487: s1 = ra mulhu t2\n 79490: a5 = a5 + s1\n 79493: s1 = ra * t2\n 79496: a4 = a4 + s1\n 79499: s1 = a4 <u s1\n 79502: t0 = a5 + s1\n 79505: a3 = u64 [sp + 0x258]\n 79509: s1 = a3 * ra\n 79512: a1 = a3 mulhu t1\n 79515: a1 = a1 + s1\n 79518: a5 = u64 [sp + 0x268]\n 79522: s1 = a5 * t1\n 79525: a1 = a1 + s1\n 79528: a5 = u64 [sp + 0x3c8]\n 79532: s1 = a0 mulhu a5\n 79535: a2 = a5\n 79537: a5 = u64 [sp + 0x3d8]\n 79541: a5 = a0 * a5\n 79544: a5 = a5 + s1\n 79547: s1 = t2 * a2\n 79550: a5 = a5 + s1\n 79553: a1 = a1 + a5\n 79556: a5 = a3 * t1\n 79559: s1 = a0 * a2\n 79562: s1 = s1 + a5\n 79565: a5 = s1 <u a5\n 79568: a1 = a1 + a5\n 79571: a1 = a1 + t0\n 79574: s1 = s1 + a4\n 79577: a4 = s1 <u a4\n 79580: a2 = u64 [sp + 0x288]\n 79584: a4 = a2 - a4\n 79587: a4 = a4 - a1\n 79590: u64 [sp + 0x380] = a4\n 79594: a1 = t1 * a0\n 79597: a5 = u64 [sp + 0x2a0]\n 79601: a2 = u64 [sp + 0x3a0]\n 79605: a0 = a5 ^ a2\n 79608: a2 = a5 <u a2\n 79611: t2 = u64 [sp + 0x2d8]\n 79615: a4 = t2 <u a1\n 79618: a2 = a4 if a0 == 0\n 79621: a0 = u64 [sp + 0x290]\n 79625: a3 = a0 <u s1\n 79628: s1 = a0 - s1\n 79631: t0 = ra\n 79633: a0 = s1 <u a2\n 79636: a0 = a0 + a3\n 79639: a3 = u64 [sp + 0x380]\n 79643: a0 = a3 - a0\n 79646: u64 [sp + 0x288] = a0\n 79650: s1 = s1 - a2\n 79653: u64 [sp + 0x290] = s1\n 79657: a0 = a5 - a4\n 79660: a2 = u64 [sp + 0x3a0]\n 79664: a0 = a0 - a2\n 79667: u64 [sp + 0x2a0] = a0\n 79671: a0 = t2 - a1\n 79674: u64 [sp + 0x2d8] = a0\n 79678: a4 = u64 [sp + 0x390]\n 79682: a0 = t1 mulhu a4\n 79685: a1 = ra * a4\n 79688: a0 = a0 + a1\n 79691: a1 = a0 <u a1\n 79694: a2 = ra mulhu a4\n 79697: a1 = a1 + a2\n 79700: a3 = u64 [sp + 0x3a8]\n 79704: a2 = t1 * a3\n 79707: t2 = a2 + a0\n 79710: a0 = t2 <u a2\n 79713: a2 = t1 mulhu a3\n 79716: a0 = a0 + a2\n 79719: a0 = a0 + a1\n 79722: a1 = a0 <u a1\n 79725: a2 = ra mulhu a3\n 79728: a1 = a1 + a2\n 79731: a2 = ra * a3\n 79734: a0 = a0 + a2\n 79737: a2 = a0 <u a2\n 79740: ra = a1 + a2\n 79743: a5 = u64 [sp + 0x388]\n 79747: a2 = a5 * t0\n 79750: a3 = a5 mulhu t1\n 79753: s1 = a5\n 79755: a2 = a2 + a3\n 79758: a3 = u64 [sp + 0x398]\n 79762: a3 = a3 * t1\n 79765: a2 = a2 + a3\n 79768: a1 = u64 [sp + 0x3c8]\n 79772: a3 = a4 mulhu a1\n 79775: a5 = u64 [sp + 0x3d8]\n 79779: a5 = a4 * a5\n 79782: a3 = a3 + a5\n 79785: a5 = u64 [sp + 0x3a8]\n 79789: a5 = a5 * a1\n 79792: a3 = a3 + a5\n 79795: a2 = a2 + a3\n 79798: a3 = s1 * t1\n 79801: a5 = a4 * a1\n 79804: a5 = a5 + a3\n 79807: a3 = a5 <u a3\n 79810: a2 = a2 + a3\n 79813: a1 = ra + a2\n 79816: a5 = a5 + a0\n 79819: a0 = a5 <u a0\n 79822: a2 = u64 [sp + 0x2e8]\n 79826: a0 = a2 - a0\n 79829: t0 = a0 - a1\n 79832: a4 = t1 * a4\n 79835: a2 = u64 [sp + 0x2d0]\n 79839: a0 = a2 ^ t2\n 79842: a3 = a2 <u t2\n 79845: a1 = u64 [sp + 0x2c0]\n 79849: s1 = a1 <u a4\n 79852: a3 = s1 if a0 == 0\n 79855: a0 = u64 [sp + 0x2f0]\n 79859: ra = a0 <u a5\n 79862: a5 = a0 - a5\n 79865: a0 = a5 <u a3\n 79868: a0 = a0 + ra\n 79871: a0 = t0 - a0\n 79874: a5 = a5 - a3\n 79877: a2 = a2 - s1\n 79880: a2 = a2 - t2\n 79883: a1 = a1 - a4\n 79886: a3 = u64 [sp + 0x290]\n 79890: a3 = a3 + a5\n 79893: a4 = a3 <u a5\n 79896: a5 = u64 [sp + 0x288]\n 79900: a0 = a0 + a5\n 79903: a0 = a0 + a4\n 79906: ra = u64 [sp + 0x2d8]\n 79910: ra = ra + a1\n 79913: a1 = ra <u a1\n 79916: a4 = u64 [sp + 0x2a0]\n 79920: a4 = a4 + a2\n 79923: t1 = a4 + a1\n 79926: a4 = t1 ^ a2\n 79929: a2 = t1 <u a2\n 79932: a2 = a1 if a4 == 0\n 79935: t2 = a3 + a2\n 79938: a1 = t2 <u a3\n 79941: t0 = a0 + a1\n 79944: a1 = clz t0\n 79946: a0 = clz t2\n 79948: a0 = a0 + 0x40\n 79951: a0 = a1 if t0 != 0\n 79954: a1 = clz t1\n 79956: a2 = clz ra\n 79958: a2 = a2 + 0x40\n 79961: a2 = a1 if t1 != 0\n 79964: a1 = t2 | t0\n 79967: a3 = a2 + 0x80\n 79971: a0 = a3 if a1 == 0\n 79974: a3 = a3 <u a2\n 79977: a3 = 0 if a1 != 0\n 79979: a5 = u64 [sp + 0x328]\n 79983: a1 = a5 <u a0\n 79986: a4 = u64 [sp + 0x330]\n 79990: s1 = a4 ^ a3\n 79993: a2 = a4 <u a3\n 79996: a2 = a1 if s1 == 0\n 79999: a4 = a4 - a3\n 80002: a4 = a4 - a1\n 80005: a5 = a5 - a0\n 80008: u64 [sp + 0x390] = a5\n 80012: a0 = a5 <u 0x100\n 80016: a0 = a0 ^ 0x1\n 80019: a1 = a4 >u 0\n 80021: a0 = a1 if a4 != 0\n 80024: s1 = a2 <u 0x1\n 80027: s1 = s1 + 0xffffffffffffffff\n 80030: a1 = -a2\n 80032: a5 = a1 >u 0\n 80034: a3 = s1 >u 0\n 80036: a3 = a5 if s1 == 0\n 80039: a3 = a0 if a2 == 0\n 80042: a0 = t1 | t0\n 80045: a2 = ra | t2\n 80048: a0 = a0 | a2\n 80051: a0 = a0 <u 0x1\n 80054: a2 = u64 [sp + 0x320]\n 80058: a0 = a0 | a2\n 80061: a3 = a3 | a0\n 80064: u64 [sp + 0x2e8] = t0\n 80068: a0 = t0\n 80070: t0 = t1\n 80072: a0 = 0 if a3 != 0\n 80074: u64 [sp + 0x3a8] = a0\n 80078: u64 [sp + 0x2f0] = t2\n 80082: t1 = ra\n 80084: t2 = 0 if a3 != 0\n 80086: u64 [sp + 0x3a0] = t2\n 80090: ra = t0\n 80092: ra = 0 if a3 != 0\n 80094: a0 = t1\n 80096: a0 = 0 if a3 != 0\n 80098: u64 [sp + 0x398] = a0\n 80102: u64 [sp + 0x2d0] = t1\n 80106: u64 [sp + 0x2c0] = t0\n 80110: jump @360 if a3 == 0\n      : @359 (gas: 1)\n 80113: jump @130\n      : @360 (gas: 6)\n 80117: a2 = u64 [sp + 0x390]\n 80121: a3 = a2 ^ 0xff\n 80125: a3 = a3 | a1\n 80128: a5 = a4 | s1\n 80131: a3 = a3 | a5\n 80134: jump @362 if a3 != 0\n      : @361 (gas: 1)\n 80137: jump @130\n      : @362 (gas: 256)\n 80141: a3 = a2 + 0x1\n 80144: u64 [sp + 0x3a8] = a3\n 80148: a0 = a3 <u 0x1\n 80151: a0 = a0 + a4\n 80154: u64 [sp + 0x378] = a0\n 80158: a0 = a0 | a3\n 80161: a0 = a0 <u 0x1\n 80164: a0 = a0 + a1\n 80167: u64 [sp + 0x370] = a0\n 80171: a0 = a0 <u a1\n 80174: a0 = a0 + s1\n 80177: u64 [sp + 0x380] = a0\n 80181: a1 = t0\n 80183: t0 = 0xff - a2\n 80187: u8 [sp + 0x440] = t1\n 80191: u8 [sp + 1087] = 0\n 80195: u8 [sp + 1086] = 0\n 80199: u8 [sp + 1085] = 0\n 80203: u8 [sp + 1084] = 0\n 80207: u8 [sp + 1083] = 0\n 80211: u8 [sp + 1082] = 0\n 80215: u8 [sp + 1081] = 0\n 80219: u8 [sp + 1080] = 0\n 80223: u8 [sp + 1079] = 0\n 80227: u8 [sp + 1078] = 0\n 80231: u8 [sp + 1077] = 0\n 80235: u8 [sp + 1076] = 0\n 80239: u8 [sp + 1075] = 0\n 80243: u8 [sp + 1074] = 0\n 80247: u8 [sp + 1073] = 0\n 80251: u8 [sp + 1072] = 0\n 80255: u8 [sp + 1071] = 0\n 80259: u8 [sp + 1070] = 0\n 80263: u8 [sp + 1069] = 0\n 80267: u8 [sp + 1068] = 0\n 80271: u8 [sp + 1067] = 0\n 80275: u8 [sp + 1066] = 0\n 80279: u8 [sp + 1065] = 0\n 80283: u8 [sp + 1064] = 0\n 80287: u8 [sp + 1063] = 0\n 80291: u8 [sp + 1062] = 0\n 80295: u8 [sp + 1061] = 0\n 80299: u8 [sp + 1060] = 0\n 80303: u8 [sp + 1059] = 0\n 80307: u8 [sp + 1058] = 0\n 80311: u8 [sp + 1057] = 0\n 80315: u8 [sp + 1056] = 0\n 80319: u8 [sp + 0x448] = a1\n 80323: a0 = t1 >> 0x38\n 80326: u64 [sp + 0x260] = a0\n 80330: u8 [sp + 0x447] = a0\n 80334: a0 = t1 >> 0x30\n 80337: u64 [sp + 0x258] = a0\n 80341: u8 [sp + 0x446] = a0\n 80345: a0 = t1 >> 0x28\n 80348: u64 [sp + 0x250] = a0\n 80352: u8 [sp + 0x445] = a0\n 80356: a0 = t1 >> 0x20\n 80359: u64 [sp + 0x248] = a0\n 80363: u8 [sp + 0x444] = a0\n 80367: a0 = t1 >> 0x18\n 80370: u64 [sp + 0x220] = a0\n 80374: u8 [sp + 0x443] = a0\n 80378: a0 = t1 >> 0x10\n 80381: u64 [sp + 0x218] = a0\n 80385: u8 [sp + 0x442] = a0\n 80389: a0 = t1 >> 0x8\n 80392: u64 [sp + 0x210] = a0\n 80396: u8 [sp + 0x441] = a0\n 80400: ra = u64 [sp + 0x2f0]\n 80404: u8 [sp + 0x450] = ra\n 80408: a0 = a1 >> 0x38\n 80411: u64 [sp + 0x208] = a0\n 80415: u8 [sp + 0x44f] = a0\n 80419: a0 = a1 >> 0x30\n 80422: u64 [sp + 0x1d0] = a0\n 80426: u8 [sp + 0x44e] = a0\n 80430: a0 = a1 >> 0x28\n 80433: u64 [sp + 0x1c8] = a0\n 80437: u8 [sp + 0x44d] = a0\n 80441: a0 = a1 >> 0x20\n 80444: u64 [sp + 0x1c0] = a0\n 80448: u8 [sp + 0x44c] = a0\n 80452: a0 = a1 >> 0x18\n 80455: u64 [sp + 0x1b8] = a0\n 80459: u8 [sp + 0x44b] = a0\n 80463: a0 = a1 >> 0x10\n 80466: u64 [sp + 0x1b0] = a0\n 80470: u8 [sp + 0x44a] = a0\n 80474: a1 = a1 >> 0x8\n 80477: u64 [sp + 0x1a8] = a1\n 80481: u8 [sp + 0x449] = a1\n 80485: t2 = u64 [sp + 0x2e8]\n 80489: u8 [sp + 0x458] = t2\n 80493: a0 = ra >> 0x38\n 80496: u64 [sp + 0x1a0] = a0\n 80500: u8 [sp + 0x457] = a0\n 80504: a0 = ra >> 0x30\n 80507: u64 [sp + 0x198] = a0\n 80511: u8 [sp + 0x456] = a0\n 80515: a0 = ra >> 0x28\n 80518: u64 [sp + 0x190] = a0\n 80522: u8 [sp + 0x455] = a0\n 80526: a0 = ra >> 0x20\n 80529: u64 [sp + 0x188] = a0\n 80533: u8 [sp + 0x454] = a0\n 80537: a0 = ra >> 0x18\n 80540: u64 [sp + 0x180] = a0\n 80544: u8 [sp + 0x453] = a0\n 80548: a0 = ra >> 0x10\n 80551: u64 [sp + 0x358] = a0\n 80555: u8 [sp + 0x452] = a0\n 80559: a0 = ra >> 0x8\n 80562: u64 [sp + 0x350] = a0\n 80566: u8 [sp + 0x451] = a0\n 80570: a0 = t2 >> 0x38\n 80573: u64 [sp + 0x348] = a0\n 80577: u8 [sp + 0x45f] = a0\n 80581: a0 = t2 >> 0x30\n 80584: u64 [sp + 0x318] = a0\n 80588: u8 [sp + 0x45e] = a0\n 80592: a0 = t2 >> 0x28\n 80595: u64 [sp + 0x310] = a0\n 80599: u8 [sp + 0x45d] = a0\n 80603: a0 = t2 >> 0x20\n 80606: u64 [sp + 0x308] = a0\n 80610: u8 [sp + 0x45c] = a0\n 80614: a0 = t2 >> 0x18\n 80617: u64 [sp + 0x300] = a0\n 80621: u8 [sp + 0x45b] = a0\n 80625: a0 = t2 >> 0x10\n 80628: u64 [sp + 0x2f8] = a0\n 80632: u8 [sp + 0x45a] = a0\n 80636: a0 = t2 >> 0x8\n 80639: u64 [sp + 0x268] = a0\n 80643: u8 [sp + 0x459] = a0\n 80647: a1 = t0 << 0x38\n 80650: a1 = a1 >> 0x3b\n 80653: a0 = sp + 0x440\n 80657: a1 = a0 - a1\n 80660: a2 = u8 [a1 + 0x19]\n 80663: a3 = u8 [a1 + 0x18]\n 80666: a4 = u8 [a1 + 0x1a]\n 80669: a5 = u8 [a1 + 0x1b]\n 80672: a2 = a2 << 0x8\n 80675: a2 = a2 | a3\n 80678: a4 = a4 << 0x10\n 80681: a5 = a5 << 0x18\n 80684: a4 = a4 | a5\n 80687: a2 = a2 | a4\n 80690: a3 = u8 [a1 + 0x1d]\n 80693: a4 = u8 [a1 + 0x1c]\n 80696: a5 = u8 [a1 + 0x1e]\n 80699: s1 = u8 [a1 + 0x1f]\n 80702: a3 = a3 << 0x8\n 80705: a3 = a3 | a4\n 80708: a5 = a5 << 0x10\n 80711: s1 = s1 << 0x18\n 80714: a5 = a5 | s1\n 80717: a3 = a3 | a5\n 80720: a3 = a3 << 0x20\n 80723: a2 = a2 | a3\n 80726: a3 = u8 [a1 + 0x11]\n 80729: a4 = u8 [a1 + 0x10]\n 80732: a5 = u8 [a1 + 0x12]\n 80735: s1 = u8 [a1 + 0x13]\n 80738: a3 = a3 << 0x8\n 80741: a3 = a3 | a4\n 80744: a5 = a5 << 0x10\n 80747: s1 = s1 << 0x18\n 80750: a5 = a5 | s1\n 80753: a3 = a3 | a5\n 80756: a4 = u8 [a1 + 0x15]\n 80759: a5 = u8 [a1 + 0x14]\n 80762: s1 = u8 [a1 + 0x16]\n 80765: a0 = u8 [a1 + 0x17]\n 80768: a4 = a4 << 0x8\n 80771: a4 = a4 | a5\n 80774: s1 = s1 << 0x10\n 80777: a0 = a0 << 0x18\n 80780: a0 = a0 | s1\n 80783: a0 = a0 | a4\n 80786: a0 = a0 << 0x20\n 80789: t1 = a0 | a3\n 80792: a0 = t0 & 0x7\n 80795: a4 = a2 << a0\n 80798: a5 = t1 >> 0x1\n 80801: t0 = a0 ^ 0x3f\n 80804: a5 = a5 >> t0\n 80807: a4 = a4 | a5\n 80810: u64 [sp + 0x3a0] = a4\n 80814: a4 = u8 [a1 + 0x9]\n 80817: a5 = u8 [a1 + 0x8]\n 80820: s1 = u8 [a1 + 0xa]\n 80823: a2 = u8 [a1 + 0xb]\n 80826: a4 = a4 << 0x8\n 80829: a4 = a4 | a5\n 80832: s1 = s1 << 0x10\n 80835: a2 = a2 << 0x18\n 80838: a2 = a2 | s1\n 80841: a2 = a2 | a4\n 80844: a4 = u8 [a1 + 0xd]\n 80847: a5 = u8 [a1 + 0xc]\n 80850: s1 = u8 [a1 + 0xe]\n 80853: a3 = u8 [a1 + 0xf]\n 80856: a4 = a4 << 0x8\n 80859: a4 = a4 | a5\n 80862: s1 = s1 << 0x10\n 80865: a3 = a3 << 0x18\n 80868: a3 = a3 | s1\n 80871: a3 = a3 | a4\n 80874: a3 = a3 << 0x20\n 80877: s1 = a3 | a2\n 80880: a2 = s1 >> 0x1\n 80883: a3 = a0 ^ 0xffffffffffffffff\n 80886: a2 = a2 >> a3\n 80889: a3 = t1 << a0\n 80892: a2 = a2 | a3\n 80895: u64 [sp + 0x398] = a2\n 80899: a2 = u8 [a1 + 0x1]\n 80902: a3 = u8 [a1]\n 80904: a4 = u8 [a1 + 0x2]\n 80907: a5 = u8 [a1 + 0x3]\n 80910: a2 = a2 << 0x8\n 80913: a2 = a2 | a3\n 80916: a4 = a4 << 0x10\n 80919: a5 = a5 << 0x18\n 80922: a4 = a4 | a5\n 80925: a2 = a2 | a4\n 80928: a3 = u8 [a1 + 0x5]\n 80931: a4 = u8 [a1 + 0x4]\n 80934: a5 = u8 [a1 + 0x6]\n 80937: a1 = u8 [a1 + 0x7]\n 80940: a3 = a3 << 0x8\n 80943: a3 = a3 | a4\n 80946: a4 = u64 [sp + 0x378]\n 80950: a5 = a5 << 0x10\n 80953: a1 = a1 << 0x18\n 80956: a1 = a1 | a5\n 80959: a1 = a1 | a3\n 80962: a1 = a1 << 0x20\n 80965: a1 = a1 | a2\n 80968: a2 = a1 >> 0x1\n 80971: a2 = a2 >> t0\n 80974: t0 = u64 [sp + 0x370]\n 80978: a3 = s1 << a0\n 80981: a5 = u64 [sp + 0x380]\n 80985: a2 = a2 | a3\n 80988: u64 [sp + 0x388] = a2\n 80992: a2 = a4 | a5\n 80995: a3 = u64 [sp + 0x3a8]\n 80999: a3 = a3 | t0\n 81002: a2 = a2 | a3\n 81005: a0 = a1 << a0\n 81008: u64 [sp + 0x390] = a0\n 81012: jump @364 if a2 != 0\n      : @363 (gas: 1)\n 81015: jump @128\n      : @364 (gas: 225)\n 81019: u64 [sp + 872] = 0\n 81023: u64 [sp + 864] = 0\n 81027: a0 = u64 [sp + 0x260]\n 81031: u8 [sp + 0x3e7] = a0\n 81035: a0 = u64 [sp + 0x258]\n 81039: u8 [sp + 0x3e6] = a0\n 81043: a0 = u64 [sp + 0x250]\n 81047: u8 [sp + 0x3e5] = a0\n 81051: a0 = u64 [sp + 0x248]\n 81055: u8 [sp + 0x3e4] = a0\n 81059: a0 = u64 [sp + 0x220]\n 81063: u8 [sp + 0x3e3] = a0\n 81067: a0 = u64 [sp + 0x218]\n 81071: u8 [sp + 0x3e2] = a0\n 81075: a0 = u64 [sp + 0x210]\n 81079: u8 [sp + 0x3e1] = a0\n 81083: a0 = u64 [sp + 0x208]\n 81087: u8 [sp + 0x3ef] = a0\n 81091: a0 = u64 [sp + 0x1d0]\n 81095: u8 [sp + 0x3ee] = a0\n 81099: a0 = u64 [sp + 0x1c8]\n 81103: u8 [sp + 0x3ed] = a0\n 81107: a0 = u64 [sp + 0x1c0]\n 81111: u8 [sp + 0x3ec] = a0\n 81115: a0 = u64 [sp + 0x1b8]\n 81119: u8 [sp + 0x3eb] = a0\n 81123: a0 = u64 [sp + 0x1b0]\n 81127: u8 [sp + 0x3ea] = a0\n 81131: a0 = u64 [sp + 0x1a8]\n 81135: u8 [sp + 0x3e9] = a0\n 81139: a0 = u64 [sp + 0x1a0]\n 81143: u8 [sp + 0x3f7] = a0\n 81147: a0 = u64 [sp + 0x198]\n 81151: u8 [sp + 0x3f6] = a0\n 81155: a0 = u64 [sp + 0x190]\n 81159: u8 [sp + 0x3f5] = a0\n 81163: a0 = u64 [sp + 0x188]\n 81167: u8 [sp + 0x3f4] = a0\n 81171: a0 = u64 [sp + 0x180]\n 81175: u8 [sp + 0x3f3] = a0\n 81179: u8 [sp + 1055] = 0\n 81183: u8 [sp + 1054] = 0\n 81187: u8 [sp + 1053] = 0\n 81191: u8 [sp + 1052] = 0\n 81195: u8 [sp + 1051] = 0\n 81199: u8 [sp + 1050] = 0\n 81203: u8 [sp + 1049] = 0\n 81207: u8 [sp + 1048] = 0\n 81211: u8 [sp + 1047] = 0\n 81215: u8 [sp + 1046] = 0\n 81219: u8 [sp + 1045] = 0\n 81223: u8 [sp + 1044] = 0\n 81227: u8 [sp + 1043] = 0\n 81231: u8 [sp + 1042] = 0\n 81235: u8 [sp + 1041] = 0\n 81239: u8 [sp + 1040] = 0\n 81243: u8 [sp + 1039] = 0\n 81247: u8 [sp + 1038] = 0\n 81251: u8 [sp + 1037] = 0\n 81255: u8 [sp + 1036] = 0\n 81259: u8 [sp + 1035] = 0\n 81263: u8 [sp + 1034] = 0\n 81267: u8 [sp + 1033] = 0\n 81271: u8 [sp + 1032] = 0\n 81275: u8 [sp + 1031] = 0\n 81279: u8 [sp + 1030] = 0\n 81283: u8 [sp + 1029] = 0\n 81287: u8 [sp + 1028] = 0\n 81291: u8 [sp + 1027] = 0\n 81295: u8 [sp + 1026] = 0\n 81299: u8 [sp + 1025] = 0\n 81303: u8 [sp + 1024] = 0\n 81307: a0 = u64 [sp + 0x2d0]\n 81311: u8 [sp + 0x3e0] = a0\n 81315: a0 = u64 [sp + 0x2c0]\n 81319: u8 [sp + 0x3e8] = a0\n 81323: u8 [sp + 0x3f0] = ra\n 81327: u8 [sp + 0x3f8] = t2\n 81331: a0 = u64 [sp + 0x358]\n 81335: u8 [sp + 0x3f2] = a0\n 81339: a0 = u64 [sp + 0x350]\n 81343: u8 [sp + 0x3f1] = a0\n 81347: a0 = u64 [sp + 0x348]\n 81351: u8 [sp + 0x3ff] = a0\n 81355: a0 = u64 [sp + 0x318]\n 81359: u8 [sp + 0x3fe] = a0\n 81363: a0 = u64 [sp + 0x310]\n 81367: u8 [sp + 0x3fd] = a0\n 81371: a0 = u64 [sp + 0x308]\n 81375: u8 [sp + 0x3fc] = a0\n 81379: a0 = u64 [sp + 0x300]\n 81383: u8 [sp + 0x3fb] = a0\n 81387: a0 = u64 [sp + 0x2f8]\n 81391: u8 [sp + 0x3fa] = a0\n 81395: a0 = u64 [sp + 0x268]\n 81399: u8 [sp + 0x3f9] = a0\n 81403: s1 = u64 [sp + 0x3a8]\n 81407: a0 = s1 << 0x38\n 81410: a0 = a0 >> 0x3b\n 81413: a1 = sp + 0x3e0\n 81417: a0 = a0 + a1\n 81420: a1 = u8 [a0 + 0x11]\n 81423: a2 = u8 [a0 + 0x10]\n 81426: a3 = u8 [a0 + 0x12]\n 81429: a4 = u8 [a0 + 0x13]\n 81432: a1 = a1 << 0x8\n 81435: a1 = a1 | a2\n 81438: a3 = a3 << 0x10\n 81441: a4 = a4 << 0x18\n 81444: a3 = a3 | a4\n 81447: a1 = a1 | a3\n 81450: a2 = u8 [a0 + 0x15]\n 81453: a3 = u8 [a0 + 0x14]\n 81456: a4 = u8 [a0 + 0x16]\n 81459: a5 = u8 [a0 + 0x17]\n 81462: a2 = a2 << 0x8\n 81465: a2 = a2 | a3\n 81468: a4 = a4 << 0x10\n 81471: a5 = a5 << 0x18\n 81474: a4 = a4 | a5\n 81477: a2 = a2 | a4\n 81480: a2 = a2 << 0x20\n 81483: t1 = a2 | a1\n 81486: a3 = s1 & 0x7\n 81489: t2 = t1 >> a3\n 81492: a4 = u8 [a0 + 0x19]\n 81495: a5 = u8 [a0 + 0x18]\n 81498: s1 = u8 [a0 + 0x1a]\n 81501: a2 = u8 [a0 + 0x1b]\n 81504: a4 = a4 << 0x8\n 81507: a4 = a4 | a5\n 81510: s1 = s1 << 0x10\n 81513: a2 = a2 << 0x18\n 81516: a2 = a2 | s1\n 81519: a2 = a2 | a4\n 81522: a4 = u8 [a0 + 0x1d]\n 81525: a5 = u8 [a0 + 0x1c]\n 81528: s1 = u8 [a0 + 0x1e]\n 81531: a1 = u8 [a0 + 0x1f]\n 81534: a4 = a4 << 0x8\n 81537: a4 = a4 | a5\n 81540: s1 = s1 << 0x10\n 81543: a1 = a1 << 0x18\n 81546: a1 = a1 | s1\n 81549: a1 = a1 | a4\n 81552: a1 = a1 << 0x20\n 81555: t0 = a1 | a2\n 81558: a1 = t0 << 0x1\n 81561: ra = a3 ^ 0x3f\n 81564: a1 = a1 << ra\n 81567: a1 = t2 | a1\n 81570: u64 [sp + 0x358] = a1\n 81574: a1 = u8 [a0 + 0x9]\n 81577: a2 = u8 [a0 + 0x8]\n 81580: a4 = u8 [a0 + 0xa]\n 81583: a5 = u8 [a0 + 0xb]\n 81586: a1 = a1 << 0x8\n 81589: a1 = a1 | a2\n 81592: a4 = a4 << 0x10\n 81595: a5 = a5 << 0x18\n 81598: a4 = a4 | a5\n 81601: a1 = a1 | a4\n 81604: a2 = u8 [a0 + 0xd]\n 81607: a4 = u8 [a0 + 0xc]\n 81610: a5 = u8 [a0 + 0xe]\n 81613: s1 = u8 [a0 + 0xf]\n 81616: a2 = a2 << 0x8\n 81619: a2 = a2 | a4\n 81622: a5 = a5 << 0x10\n 81625: s1 = s1 << 0x18\n 81628: a5 = a5 | s1\n 81631: a2 = a2 | a5\n 81634: a2 = a2 << 0x20\n 81637: t2 = a2 | a1\n 81640: a1 = t2 >> a3\n 81643: t1 = t1 << 0x1\n 81646: a2 = a3 ^ 0xffffffffffffffff\n 81649: a2 = t1 << a2\n 81652: a2 = a2 | a1\n 81655: a1 = u8 [a0 + 0x1]\n 81658: a5 = u8 [a0]\n 81660: s1 = u8 [a0 + 0x2]\n 81663: a4 = u8 [a0 + 0x3]\n 81666: a1 = a1 << 0x8\n 81669: a1 = a1 | a5\n 81672: s1 = s1 << 0x10\n 81675: a4 = a4 << 0x18\n 81678: a4 = a4 | s1\n 81681: a1 = a1 | a4\n 81684: a4 = u8 [a0 + 0x5]\n 81687: a5 = u8 [a0 + 0x4]\n 81690: s1 = u8 [a0 + 0x6]\n 81693: a0 = u8 [a0 + 0x7]\n 81696: a4 = a4 << 0x8\n 81699: a4 = a4 | a5\n 81702: a5 = u64 [sp + 0x368]\n 81706: s1 = s1 << 0x10\n 81709: a0 = a0 << 0x18\n 81712: a0 = a0 | s1\n 81715: a0 = a0 | a4\n 81718: a0 = a0 << 0x20\n 81721: a0 = a0 | a1\n 81724: a0 = a0 >> a3\n 81727: t2 = t2 << 0x1\n 81730: a1 = t2 << ra\n 81733: t1 = a0 | a1\n 81736: ra = t0 >> a3\n 81739: a1 = u64 [sp + 0x3c0]\n 81743: a0 = a1 <u 0x1\n 81746: a3 = u64 [sp + 0x3d0]\n 81750: a0 = a3 - a0\n 81753: u64 [sp + 0x310] = a0\n 81757: a0 = a1 | a3\n 81760: a0 = a0 <u 0x1\n 81763: a3 = u64 [sp + 0x3c8]\n 81767: a4 = a3 - a0\n 81770: u64 [sp + 0x308] = a4\n 81774: a0 = a3 <u a0\n 81777: a3 = u64 [sp + 0x3d8]\n 81781: a3 = a3 - a0\n 81784: u64 [sp + 0x300] = a3\n 81788: a1 = a1 + 0xffffffffffffffff\n 81791: u64 [sp + 0x2f8] = a1\n 81795: s1 = u64 [sp + 0x3a0]\n 81799: fallthrough\n      : @365 (gas: 103)\n 81800: u64 [sp + 0x368] = a5\n 81804: u64 [sp + 792] = 0\n 81808: a0 = t1 >> 0x3f\n 81811: a3 = a2 << 0x1\n 81814: t0 = a3 | a0\n 81817: t1 = t1 << 0x1\n 81820: a3 = s1 >> 0x3f\n 81823: a3 = t1 | a3\n 81826: u64 [sp + 0x350] = a3\n 81830: a0 = u64 [sp + 0x310]\n 81834: a4 = a0 ^ t0\n 81837: a1 = a0 <u t0\n 81840: a0 = u64 [sp + 0x2f8]\n 81844: a5 = a0 <u a3\n 81847: a5 = a1 if a4 != 0\n 81850: ra = ra << 0x1\n 81853: t2 = u64 [sp + 0x358]\n 81857: a1 = t2 >> 0x3f\n 81860: t1 = ra | a1\n 81863: u64 [sp + 0x348] = t1\n 81867: a2 = a2 >> 0x3f\n 81870: t2 = t2 << 0x1\n 81873: ra = t2 | a2\n 81876: a1 = s1 << 0x1\n 81879: a0 = u64 [sp + 0x398]\n 81883: s1 = a0 >> 0x3f\n 81886: a1 = a1 | s1\n 81889: s1 = a0 << 0x1\n 81892: a0 = u64 [sp + 0x388]\n 81896: a4 = a0 >> 0x3f\n 81899: a4 = a4 | s1\n 81902: s1 = a0 << 0x1\n 81905: a0 = u64 [sp + 0x390]\n 81909: a3 = a0 >> 0x3f\n 81912: a3 = a3 | s1\n 81915: s1 = a0 << 0x1\n 81918: a0 = u64 [sp + 0x368]\n 81922: a0 = a0 | s1\n 81925: u64 [sp + 0x390] = a0\n 81929: a2 = u64 [sp + 0x360]\n 81933: a3 = a3 | a2\n 81936: u64 [sp + 0x388] = a3\n 81940: a4 = a4 | a2\n 81943: u64 [sp + 0x398] = a4\n 81947: a1 = a1 | a2\n 81950: u64 [sp + 0x3a0] = a1\n 81954: a0 = u64 [sp + 0x308]\n 81958: a1 = a0 - ra\n 81961: a1 = a1 <u a5\n 81964: a3 = a0 <u ra\n 81967: a0 = u64 [sp + 0x300]\n 81971: a4 = a0 - t1\n 81974: a4 = a4 - a3\n 81977: a4 = a4 - a1\n 81980: a5 = a4 >>a 0x3f\n 81983: a1 = u64 [sp + 0x3c0]\n 81987: t1 = a5 & a1\n 81990: a3 = u64 [sp + 0x3d0]\n 81994: a3 = a3 & a5\n 81997: a4 = t0 ^ a3\n 82000: s1 = t0 <u a3\n 82003: a1 = u64 [sp + 0x350]\n 82007: t2 = a1 <u t1\n 82010: s1 = t2 if a4 == 0\n 82013: a4 = u64 [sp + 0x3c8]\n 82017: a4 = a4 & a5\n 82020: a0 = ra - a4\n 82023: a2 = a0 - s1\n 82026: u64 [sp + 0x358] = a2\n 82030: a2 = a0 <u s1\n 82033: a4 = ra <u a4\n 82036: s1 = u64 [sp + 0x3d8]\n 82040: s1 = s1 & a5\n 82043: a0 = u64 [sp + 0x348]\n 82047: s1 = a0 - s1\n 82050: s1 = s1 - a4\n 82053: ra = s1 - a2\n 82056: a0 = t0 - a3\n 82059: a2 = a0 - t2\n 82062: t1 = a1 - t1\n 82065: a4 = u64 [sp + 0x3a8]\n 82069: a1 = u64 [sp + 0x378]\n 82073: a0 = a4 | a1\n 82076: a0 = a0 <u 0x1\n 82079: a3 = u64 [sp + 0x370]\n 82083: s1 = a3 <u a0\n 82086: a0 = a3 - a0\n 82089: a3 = a4 <u 0x1\n 82092: a1 = a1 - a3\n 82095: a3 = u64 [sp + 0x380]\n 82099: a3 = a3 - s1\n 82102: s1 = u64 [sp + 0x3a0]\n 82106: a4 = a4 + 0xffffffffffffffff\n 82109: u64 [sp + 0x380] = a3\n 82113: u64 [sp + 0x378] = a1\n 82117: a1 = a1 | a3\n 82120: u64 [sp + 0x3a8] = a4\n 82124: a3 = a4 | a0\n 82127: a1 = a1 | a3\n 82130: a5 = a5 & 0x1\n 82133: u64 [sp + 0x370] = a0\n 82137: u64 [sp + 864] = 0\n 82141: jump @365 if a1 != 0\n      : @366 (gas: 1)\n 82145: jump @129\n      : @367 (gas: 3)\n 82149: a2 = u64 [sp + 0x18]\n 82152: a1 = i32 [a2]\n 82154: jump @369 if a1 >u 95\n      : @368 (gas: 3)\n 82158: a1 = 0x60\n 82161: u32 [a2] = a1\n 82163: fallthrough\n      : @369 (gas: 17)\n 82164: a4 = u64 [sp + 0x8]\n 82167: a0 = u64 [a4 + 0x48]\n 82170: a2 = u64 [a4 + 0x58]\n 82173: a3 = u64 [a4 + 0x40]\n 82176: a4 = u64 [a4 + 0x50]\n 82179: a5 = reverse a0\n 82181: a0 = reverse a2\n 82183: a2 = reverse a3\n 82185: a3 = reverse a4\n 82187: a2 = a2 | a3\n 82190: a3 = a0 | a5\n 82193: a3 = a3 | a2\n 82196: a3 = a3 >> 0x20\n 82199: a2 = a2 | a5\n 82202: a2 = a2 << 0x20\n 82205: a2 = a2 | a3\n 82208: jump @372 if a2 != 0\n      : @370 (gas: 2)\n 82211: i32 a2 = a0 >> 0x10\n 82214: jump @372 if a2 != 0\n      : @371 (gas: 3)\n 82217: a2 = a0 + 0x3f\n 82220: a2 = a2 & 0x1ffe0\n 82225: jump @378 if a2 <=u 65536\n      : @372 (gas: 1)\n 82231: trap\n      : @373 (gas: 16)\n 82232: a1 = u64 [sp + 0x8]\n 82235: u64 [a1 + 16] = 0\n 82238: u64 [a1 + 24] = 0\n 82241: u64 [a1 + 8] = 0\n 82244: u64 [a1 + 0] = 0x717b484e\n 82250: u32 [a1 + 32] = 0x12000000\n 82257: u32 [a1 + 20] = 0\n 82260: u32 [a1 + 24] = 0\n 82263: u32 [a1 + 28] = 0\n 82266: u32 [a1 + 8] = 0\n 82269: u32 [a1 + 12] = 0\n 82272: u32 [a1 + 16] = 0\n 82275: u32 [a1 + 4] = 0\n 82278: a1 = 0x24\n 82281: a0 = 0\n 82283: ra = 12, jump @0\n      : @374 [@dyn 6] (gas: 5)\n 82289: i32 a1 = a0 + 0\n 82291: a0 = 0x1\n 82294: a2 = 0x24\n 82297: ecalli 4 // 'seal_return'\n 82299: fallthrough\n      : @375 (gas: 6)\n 82300: a1 = 0x20290\n 82305: i32 a1 = a1 + 0\n 82307: a0 = 0x1\n 82310: a2 = 0\n 82312: ecalli 4 // 'seal_return'\n 82314: fallthrough\n      : @376 (gas: 6)\n 82315: a1 = 0x20290\n 82320: i32 a1 = a1 + 0\n 82322: a0 = 0x1\n 82325: a2 = 0\n 82327: ecalli 4 // 'seal_return'\n 82329: fallthrough\n      : @377 (gas: 6)\n 82330: a1 = 0x20290\n 82335: i32 a1 = a1 + 0\n 82337: a0 = 0x1\n 82340: a2 = 0\n 82342: ecalli 4 // 'seal_return'\n 82344: fallthrough\n      : @378 (gas: 1)\n 82345: jump @380 if a1 >=u a2\n      : @379 (gas: 3)\n 82348: a1 = u64 [sp + 0x18]\n 82351: u32 [a1] = a2\n 82353: fallthrough\n      : @380 (gas: 73)\n 82354: i32 a1 = a0 + 0\n 82356: a2 = u64 [sp + 0x8]\n 82359: a1 = a1 + a2\n 82362: a2 = u64 [sp + 0x298]\n 82366: a2 = reverse a2\n 82368: a3 = u64 [sp + 0x2b0]\n 82372: a3 = reverse a3\n 82374: a4 = u64 [sp + 0x2b8]\n 82378: a4 = reverse a4\n 82380: a5 = u64 [sp + 0x2e0]\n 82384: s1 = reverse a5\n 82386: a5 = s1 >> 0x38\n 82389: u8 [a1 + 0x1f] = a5\n 82392: a5 = s1 >> 0x30\n 82395: u8 [a1 + 0x1e] = a5\n 82398: a5 = s1 >> 0x28\n 82401: u8 [a1 + 0x1d] = a5\n 82404: a5 = s1 >> 0x20\n 82407: u8 [a1 + 0x1c] = a5\n 82410: a5 = s1 >> 0x18\n 82413: u8 [a1 + 0x1b] = a5\n 82416: a5 = s1 >> 0x10\n 82419: u8 [a1 + 0x1a] = a5\n 82422: a5 = s1 >> 0x8\n 82425: u8 [a1 + 0x19] = a5\n 82428: u8 [a1 + 0x18] = s1\n 82431: u8 [a1 + 0x10] = a4\n 82434: a5 = a4 >> 0x38\n 82437: u8 [a1 + 0x17] = a5\n 82440: a5 = a4 >> 0x30\n 82443: u8 [a1 + 0x16] = a5\n 82446: a5 = a4 >> 0x28\n 82449: u8 [a1 + 0x15] = a5\n 82452: a5 = a4 >> 0x20\n 82455: u8 [a1 + 0x14] = a5\n 82458: a5 = a4 >> 0x18\n 82461: u8 [a1 + 0x13] = a5\n 82464: a5 = a4 >> 0x10\n 82467: u8 [a1 + 0x12] = a5\n 82470: a4 = a4 >> 0x8\n 82473: u8 [a1 + 0x11] = a4\n 82476: u8 [a1 + 0x8] = a3\n 82479: a4 = a3 >> 0x38\n 82482: u8 [a1 + 0xf] = a4\n 82485: a4 = a3 >> 0x30\n 82488: u8 [a1 + 0xe] = a4\n 82491: a4 = a3 >> 0x28\n 82494: u8 [a1 + 0xd] = a4\n 82497: a4 = a3 >> 0x20\n 82500: u8 [a1 + 0xc] = a4\n 82503: a4 = a3 >> 0x18\n 82506: u8 [a1 + 0xb] = a4\n 82509: a4 = a3 >> 0x10\n 82512: u8 [a1 + 0xa] = a4\n 82515: a3 = a3 >> 0x8\n 82518: u8 [a1 + 0x9] = a3\n 82521: u8 [a1] = a2\n 82523: a3 = a2 >> 0x38\n 82526: u8 [a1 + 0x7] = a3\n 82529: a3 = a2 >> 0x30\n 82532: u8 [a1 + 0x6] = a3\n 82535: a3 = a2 >> 0x28\n 82538: u8 [a1 + 0x5] = a3\n 82541: a3 = a2 >> 0x20\n 82544: u8 [a1 + 0x4] = a3\n 82547: a3 = a2 >> 0x18\n 82550: u8 [a1 + 0x3] = a3\n 82553: a3 = a2 >> 0x10\n 82556: u8 [a1 + 0x2] = a3\n 82559: a2 = a2 >> 0x8\n 82562: u8 [a1 + 0x1] = a2\n 82565: a1 = 0x20\n 82568: ra = 14, jump @0\n      : @381 [@dyn 7] (gas: 7)\n 82574: i32 a1 = a0 + 0\n 82576: a2 = 0x20\n 82579: a0 = 0\n 82581: ecalli 4 // 'seal_return'\n 82583: a0 = 0\n 82585: ra = 0x10\n 82588: jump @6\n      : @382 [export #0: 'call'] (gas: 2)\n 82592: a0 = 0\n 82594: ra = 16, jump @6\n      : @383 [@dyn 8] [export #1: 'deploy'] (gas: 2)\n 82600: a0 = 0x1\n 82603: ra = 18, jump @6\n      : @384 [@dyn 9] (gas: 1)\n 82609: trap\n","bytecode":{"object":"50564d00006e6e010000000000010700c1b002c0008003828043e1f593f00000012833e84879b97091b85045b68181585d30644e72e131a0290f97b786716ef44c53e4791466d524982c2200e315dc6b63391768a085a9538893cc75cbb8630890ef451cd9718db146f7b2c17065bac3a49d4f50cb64b2c7a8ac066aef68328e3e00fecb23f9b81ab05fca39e86feeb52171504526d8cd57564bc8a4bcc58e9a66eb5e0b1bb927455b083a4bdbfea0f4ef935b8800cf73aa9bf6b709785897d20fea0de6ae20993a97ba08c176f5443dba65731fa0feccca6c9bbf36705290f12daf507d64efd9934b04ea1fa012821bb41fd61c6b69084af5abdf171a5f9de399d110996b3fcfba07fe6759a1f5edd32340f253aa05d71624db0b4ee543c46f3e08e948e2bc688cb419e5c8f11aa869db1e70e5f07fda6b01dc9583d8877a15af4fb59e8bd83626fb834cfd88dd07eb3e790b360b1e8223e3865ec71688b4487a4c741fe881cf8a6e40f1638628efb49c37a0de4d2c56628d1fd24fcaa91c658a070d253c86e59bfdc4da8a32983cc0e6c7cb9fe85afe2450a74863e58b9e198779048284cdd7874377be3bf1d943244bcb6e8649b6a56e92ce844e4bf19805bb74317b4bbc0138414590a8a5c4ab87b3594448aa40d994276b3101bdb5a6f7ff86a3d1f31db8d00873eddd73625d1b5601ff873d84b64b0d0b0f0aab32d8e0b385f836ce991bb2195d70a243eccd090cf810e1e9fad9cdb55efdaca8f87d651dd3ddde3c9e80b2bf2478305a7183c50efdcf72e9d11d20a02584909149d3403c407d8c06d39607d6adbe8c8f6cd05ee5f66144aed21cec8828e01a15745c2745c9ab669e6b95350f70003c61c1d2a08f8fa16e2ad5a7a87d4ce4448a530375f94219c3340ac68bf5c901b111feb6857cd99c9018257d4ec804808f08000000000e0000001c0000002a0000003500000040000000520000005d00000063616c6c5f646174615f636f707963616c6c5f646174615f6c6f616463616c6c5f646174615f73697a656765745f73746f726167657365616c5f72657475726e7365745f696d6d757461626c655f646174617365745f73746f7261676576616c75655f7472616e73666572726564051302c1a0420463616c6cc1a842066465706c6f7906c1296b0903c1b2424f0000540000e90000130a001f0a007141018e4201a84201b142018b7910520931c8780883881f8488e05638000001253309840202390a840202ae8a093d088402020133089002028377c887073200009511f07b10087b158475010a02013d0780020251050750100209501004d009951140fe7b10b8017b15b0017b16a8019515c0018411e049215801492150014921480149214001831740010a0701821750018218580182194801821a4001d49808d4a707d48707520737093a070000023a080800023a091000027b1798017b189001492178017b1988013a071800024921700149216801492160017b17800183186001831a80013309ff330b2033073300060a060133048402023306900202390c840202140700000000000003003e07e802022103e002022103d802022103d0020221032803022103200302210318030221031003027b1720017b1728017b1730017b1738017b1700017b1708017b1710017b1718017b17d8007b17e8007b17f0007b17f8007b17b8007b17c0007b17c8007b17d0007b1798007b17a0007b17a8007b17b0007b17787b1780007b1788007b1790007b17587b17607b17687b17707b17387b17407b17487b17507b17187b17207b17287b17307b17107b14e000562cbf003b821ce000480cc0008214e0003a0c2000023a072800023a0b3000023a093800023e0c4803023e074003023e0b3803023e0930030228387b1c083a0c2000023a072800023a0b3000023e0c480302821c083a093800023e074003023e0b380302330bdf003e09300302accb94043a094000023a084800023a075000023a0a5800023e096803023e086003023e075803023e0a500302013a076000023a086800023a097000023a0a7800023e078803023e088003023e097803023e0a70030201480420013a078000023a088800023a099000023a0a9800023e07a803023e08a003023e099803023e0a900302013a07a000023a08a800023a09b000023a0ab800023e07c803023e08c003023e09b803023e0ab00302013a07c000023a08c800023a09d000023a0ad800023e07e803023e08e003023e09d803023e0ad0030201480480013a07e000023a08e800023a09f000023a0af800023e070804023e080004023e09f803023e0af00302013a070001023a080801023a091001023a0a1801023e072804023e082004023e091804023e0a100402014804c0013a072001023a082801023a093001023a0a3801023e074804023e084004023e093804023e0a300402013a074001023a084801023a095001023a0a5801023e076804023e086004023e095804023e0a50040201480400023a076001023a086801023a097001023a0a7801023e078804023e088004023e097804023e0a700402013a078001023a088801023a099001023a0a9801023e07a804023e08a004023e099804023e0a90040201480440023a07a001023a08a801023a09b001023a0ab801023e07c804023e08c004023e09b804023e0ab00402013a07c001023a08c801023a09d001023a0ad801023e07e804023e08e004023e09d804023e0ad0040201480480023a07e001023a08e801023a09f001023a0af801023e070805023e080005023e09f804023e0af00402013a070002023a080802023a091002023a0a1802023e072805023e082005023e091805023e0a100502014804c0023a072002023a082802023a093002023a0a3802023e074805023e084005023e093805023e0a300502013a074002023a084802023a095002023a0a5802023e076805023e086005023e095805023e0a50050248040003280a20038402020003013a096002023302330333004921380133083307492130013e098805023a096802023a0a7002023a0b7802024921d000e0ff013e098005023e0a7805027b16d8003e0b7005028216380133098000831a60017b1ac800831a80017b1ac00028e800839a821bd800c8ba0a82ab18959c207b1c2801d89c09c8980c7b1c2001d88c08da9908c878087b181801d8780782183001c878087b183001952c017b1c080197c7387b17780182a7107b1b980182a882a9087b17900188c701c837077b1710017b198801d4c707887701c807077b17f8007b188001d80707c867077b1700014921700149216801492160013309ff330b2033078218c800821ac0007b16380164267b13e8007b10f0000a06018214e000886a138217e800947a821738018218f000d48707947a82120801821310018210f80082160001821928018218200182171801510a18814b959a3f821cd000d2ca0aaeab0fff7a4a2809ff814756175f0a3307607a4701821bd80082b84882b95882ba4082bb506f886f966fa96fbad4a909d4860ad49a0a98aa20d49808978820d4a80852081a8b681052081495681f8219d000d2980854380000013403003a094000023a084800023a075000023e096803023a095800023e086003023e075803023e09500302542cff0071fb3a076000023a086800023a097000023e078803023a077800023e088003023e097803023e07700302542c1f016cfb3a078000023a088800023a099000023e07a803023a079800023e08a003023e099803023e07900302542c3f016bfb3a07a000023a08a800023a09b000023e07c803023a07b800023e08c003023e09b803023e07b00302542c5f0166fb3a07c000023a08c800023a09d000023e07e803023a07d800023e08e003023e09d803023e07d00302542c7f0161fb3a07e000023a08e800023a09f000023e070804023a07f800023e080004023e09f803023e07f00302542c9f0160fb3a070001023a080801023a091001023e072804023a071801023e082004023e091804023e07100402542cbf015bfb3a072001023a082801023a093001023e074804023a073801023e084004023e093804023e07300402542cdf015afb3a074001023a084801023a095001023e076804023a075801023e086004023e095804023e07500402542cff0155fb3a076001023a086801023a097001023e078804023a077801023e088004023e097804023e07700402542c1f0254fb3a078001023e07a804023a078801023a089001023a099801023e07a004023e089804023e09900402542c3f024ffb3a07a001023e07c804023a07a801023a08b001023a09b801023e07c004023e08b804023e09b00402542c5f024efb3a07c001023e07e804023a07c801023a08d001023a09d801023e07e004023e08d804023e09d00402542c7f0249fb3a07e001023e070805023a07e801023a08f001023a09f801023e070005023e08f804023e09f0040282180854289f0245fb3a070002023e072805023a070802023a081002023a091802023e072005023e081805023e091005028218085428bf023dfb3a072002023e074805023a072802023a083002023a093802023e074005023e083805023e093005028218085428df0239fb3a074002023e076805023a074802023a085002023a095802023e076005023e085805023e095005028218085428ff0236fb2838fb3308900202838833070133090a0401ae870a8217e0007a78018217d800be6707330833090a01390888020251080d3307b0020383770a050164673308501008f2f583783307330933000a0a0401951108f87b10f0077b15e8077b16e0079515f807951100f89511d8fc8411e039078002025517040828353701951700108377200233080a01019519ff07959960038097dd06977720140800000000a4e522d6aa8707280837014929f9064929f1064929e9064929e10695170010837740020a0701951aff0795aa600382a7f10682a8f90682a9e90682aae106d49808d4a707d4870751070728d4360139078002025617630828d636013306840202390784020256175f0b2003840202600133089002022103e002022103d802022103d00202140700000000000000c07b18083e07e8020295170010837760023308040a0101951aff0795aa600382a9190782a8110782a70907390b84020282aa0107562b9f000d2003840202a000016f996f886f776faa821b087bba98007bb790007bb888007bb9800095170010837760023308240a0101951aff0795aa600382a9190782a8110782a70907390b84020282aa0107562bbf000d2003840202c000017b16186f996f886f776faa821b087bbab8007bb7b0007bb8a8007bb9a00095170010837780023308440a019518ff0795886003828739077b177002828731077b178002828729077b17c802828721077b17a802492859074928510749284907492841074928790749287107492869074928610748288107206486951700108378a00295170010837ac00295170010837be0023309ff33070a03826769077b17c003826861077b18d0034921a8034921e0024921b8024921b002492198024921f8024921e8024921f0024921d0026f7a7b1ac8036f84854801d4a8088849019389330840330b8000da980b7b1bb8039498d08409d08a0a9588c0898bdab90a99883fd2980898a9209e8b20d4b9097b19b0038e99979905859b3f978c01cfbc0bd09a0ad4ba0ad0980898a9109e8b10d4b9097b19a0038e99979904859b3f978c01cfbc0bd09a0ad4ba0ad0980288a700017b1790038578018e29da280997990385983f972c01cf8c08d09a0ad4a808d0920a8883108539018eacdaa90c97cc0285c93f97a601cf9606d0c808d48606d0ca09886b0485bc018e90da9c00970001850c3f979801cfc808d0060cd4c808d0090c88860294c69a8c9518ff0795886003828779077b17980382807107936cfe8218c003d478088216d003d406066407d468087b18103308e08216b00393688216b803c868083306f08210a0039306c868008218900394283306f89486c8600894a3330afc943ac8a808949b3309fe94b9c89808c88c009848389513ff07953360037838c0069848307838bf069848287838be069848207838bd069848187838bc069848107838bb069848087838ba06821ac80398a8387838b80698a8307838b70698a8287838b60698a8207838b50698a8187838b40698a8107838b30698a8087838b2066f799898387838b0069898307838af069898287838ae069898207838ad069898187838ac069898107838ab069898087838aa06821798036f779878387838a8069878307838a7069878287838a6069878207838a5069878187838a4069878107838a3069878087838a2064623a00646239f0646239e0646239d0646239c0646239b0646239a064623990646239806462397064623960646239506462394064623930646239206462391064623900646238f0646238e0646238d0646238c0646238b0646238a064623890646238806462387064623860646238506462384064623830646238206462381067834b906783ab1067b19d0037839a9067b17c0037837a1069707387b17380198773b951800127b17f001c978087c89197c8a187c8b1a7c8c1b979908d4a90997bb1097cc18d4cb0bd4b9097c8a1d7c8b1c7c8c1e7c861f97aa08d4ba0a97cc10976618d46c0cd4ca0a97aa20d49a027c89117c8b107c8c127c8613979908d4b90997cc10976618d46c0cd4c9097c8b157c8c147c86167c8a1797bb08d4cb0b97661097aa18d46a0ad4ba0a97aa20d4a9097b10e001840707cf720a989b01857c3f7b1cf801d0cb0bd4ba0a7b1ab0037c8a097c8b087c8c0a7c860b97aa08d4ba0a97cc10976618d46c0cd4ac027c8b0d7c8c0c7c860e7c8a0f97bb08d4cb0b97661097aa18d46a0ad4ba0a97aa20d42a0a8210f002cf790998ab01857cff7b1ce801d0cb0bd4b9097b19b8037c89017c8b7c8c027c8603979908d4b90997cc10976618d46c0cd4c9097c8b057c8c047c86067c880797bb08d4cb0b976610978818d46808d4b808978820d49808cf7a09988a01821bf801d0ba0a8216a803821cf802d4a9097b1940037b170002cf78077b1738038217108e78330b017b14d80328237b16d0027b19e802330801821720d28707330620330b8214d803520707281a30017b10f002821718817a9569bf008499e000ae9a067a79018488018212c803520807284830017b1b2082181051082d097b1cf8026828958840684cda480c8217c00368789588408217d0036879da780995988000d4420adaa80cd898077b1ad80194a78210b0026808958840821398026839da38098218e00268889588407b16a8038214b802684ada480a95a88000d4300bdab809d8a80a94bad3a708d8a706d89c02da82068868019588ff9a6b7b173003c9a70ac92a0a7b1c2803c99c0c7b1ba0038eb98e877b189003da89077b1c980388c900018599018eabdbab09db67098217c0038218c803d487078218d003821bd803d48b0bd4b7078218e002d4080bd43406d46b0b821ca80386c68000821c08c8c606887c0188b7017b1c2003d4c707643c6483d497078262188269108268088266947c9470644b947b94737b19d8027b18c00252073709821798038577ff008218a003d4870782149003d44a09d4970751071a097b1690027b12a002821998039598017b18a803888701c8a7077b178003d487078877018218a003c887077b177003d88707c847077b1778039a92ff009510ff07950060038217e002780761064620600646205f0646205e0646205d0646205c0646205b0646205a064620590646205806462057064620560646205506462054064620530646205206462051064620500646204f0646204e0646204d0646204c0646204b0646204a064620490646204806462047064620460646204506462044064620430646204206462041068218b802780869069879387b196802780968069879307b196002780967069879287b195802780966069879207b195002780965069879187b194802780964069879107b194002780963067b17e0029877087b173802780762068217b002780771069889387b193002780970069889307b19280278096f069889287b19200278096e069889207b19180278096d069889187b19100278096c069889107b19080278096b067b18b8029888087b18d00178086a0682139802780379069878387b18c801780878069878307b18c001780877069878287b18b801780876069878207b18b001780875069878187b18a801780874069878107b185803780873067b17b0029877087b175003780772069837387b174803780780069837307b17180378077f069837287b17100378077e069837207b17080378077d069837187b17000378077c069837107b17880278077b069837087b17780278077a0697273898773b951bc011c97b0b7cb7197cb9187cba1a7cbc1b977708d4970797aa1097cc18d4ca0ad4a7077cb91d7cba1c7cbc1e7cb61f979908d4a90997cc10976618d46c0cd4c909979920d497077cb9117cba107cbc127cb613979908d4a90997cc10976618d46c0cd4c9097cba157cbc147cb6167cb81797aa08d4ca0a976610978818d46808d4a808978820d49804842807cf8709984a0185823fd02a0ad4a9097b19a0037cb9097cba087cb60a7cb70b979908d4a909976610977718d46707d497077cb90d7cba0c7cb60e7cbc0f979908d4a90997661097cc18d46c0cd4c909979920d479069867018589ffd09707cf8409d497077b1798037cb7017cb97cba027cbc03977708d4970797aa1097cc18d4ca0ad4a7077cb9057cba047cbc067cbb07979908d4a90997cc1097bb18d4cb0b821c7803d4b909821b8003979920d49707987901d0290982127003cf860ad4a9097b198803d4cb09821aa803d42a0ad4a909cf87077b179003510931054921680349216003821768027807080682176002780707068217580278070606821750027807050682174802780704068217400278070306821738027807020682173002780710068217280278070f068217200278070e068217180278070d068217100278070c068217080278070b068217d00178070a068217c801780718068217c001780717068217b801780716068217b001780715068217a801780714064620400646203f0646203e0646203d0646203c0646203b0646203a064620390646203806462037064620360646203506462034064620330646203206462031064620300646202f0646202e0646202d0646202c0646202b0646202a064620290646202806462027064620260646202506462024064620230646202206462021068217e002780701068217b802780709068217b00278071106780319068217580378071306821750037807120682174803780720068217180378071f068217100378071e068217080378071d068217000378071c068217880278071b068217780278071a068216a80397673898773b95186011c887077c78117c79107c7a127c7b13978808d4980897aa1097bb18d4ba0ad4a8087c79157c7a147c7b167c7c17979908d4a90997bb1097cc18d4cb0bd4b909979920d48902846807d082047c79197c7c187c761a7c7b1b979908d4c90997661097bb18d46b0bd4b9097c7b1d7c7c1c7c761e7c7a1f97bb08d4cb0b97661097aa18d46a0ad4ba0a97aa20d49a0397390185803fcf0909d494097b1958037c79097c7a087c7b0a7c760b979908d4a90997bb10976618d46b0bd4b9097c7a0d7c7b0c7c760e7c7c0f97aa08d4ba0a97661097cc18d46c0cd4ca0a97aa20d49a04d08409972201858bffcfb20bd4b9027c79017c7c7c76027c7a03979908d4c90997661097aa18d46a0ad4a9097c7a057c7c047c76067c770797aa08d4ca0a976610977718d46707d4a707977720d49707d08707974401cf0409d49700d083048218c0038887018219d003c979077b171803d498078877018219c803c9790a7b1a1003d879078219d803c979097b1908039588ff7b180003014921480398083f972a01d48a03970001821ba00398b83fd4800882171803d33709d8370682170003d8870adb960a974c018217580398793fd49c007b10500398293f977201d4920497b9018217980398763fd46909977601821b880398b73fd4670797b601821b900398bc3fd46c0c97b601821b6803d46b0b7b1b9003821b6003d4bc0c7b1c8803d4b7077b179803d4b9097b19a00382191003c94907d8a707d84909821a0803c90a0ac99a0ac97a0a99aa3f8217c003d27a008219d003d2a909d3930cd89306d80802dac206821cc803d2ac0cc9c407c9670b7b1b5803d8670bd8c40c8216d803d2a60682175003c96706c9c60cc9bc04c99309c92902c908008216a803821c8003d4c60788770182197003d87908c97907886901c99c0c82197803c989099566ff7b1c80037b197803d49c087b16a803d47609d4980884aa017b1a68037b177003492160035208b3fe28dc00330b3306330a017b1878037b1b80037b1a880395bb017b1b900388b701c887077b17a803d4b707887701c867077b179803d86707c8a7077b17a00397b7387b375907492351074923490749234107492379074923710749236907492361074823810720951700108378a00295170010837ac00295170010837be0023309ff33070a03019513ff07953360038217800388771382187803948782188803d468089487821b90038218a80382169803821aa003520756ff4921e0024921b8024921b00249219802330c33093300330628baf5492168034921480301821a980398a83f8219a003979901d49808821b880398b93f97aa01d4a909821c900398ca3f97bb0197cc0182176803d4c703821c4803d4ca0ad4ab0bd49c00d48c0c8212a00282169002017b1c58027b1b60027b1068027b13a0026f648217c0026f738217d8026f706f297b19c00268379578406847da480768989588406809da080995988000d4430adaa807d8980894a882193003d3890bd8890a821c2803d87c06dab60a88ab0195b2ff9aabc98908c96806c97c0c7b1b98038eb7642b8e29da27097b1ca00388c700018577018e6cdb6c07dba9078212c002d43209d4400ad4a90988990182182003d48909d4790c7b1478027b1388027b109002644994c994c394c094c2520c55088217a003857cff00821a9803d4ac0cd4b608d4c8088214d00351083d088219a0039598017b18a803888701c867077b178003d48707887701c8a7077b177003d8a707c8b7077b1778039a92ff009514ff07954460038217c0027847e1054624e0054624df054624de054624dd054624dc054624db054624da054624d9054624d8054624d7054624d6054624d5054624d4054624d3054624d2054624d1054624d0054624cf054624ce054624cd054624cc054624cb054624ca054624c9054624c8054624c7054624c6054624c5054624c4054624c3054624c2054624c105821890027848e9059879387b1948027849e8059879307b1940027849e7059879287b1938027849e6059879207b1930027849e5059879187b1928027849e4059879107b1920027849e3059877087b1718027847e205821788027847f1059889387b1910027849f0059889307b1908027849ef059889287b19d0017849ee059889207b19c8017849ed059889187b19c0017849ec059889107b19b8017849eb059888087b18b0017848ea05821078027840f9059878387b18a8017848f8059878307b18a0017848f7059878287b1898017848f6059878207b1890017848f5059878187b1888017848f4059878107b1858037848f3059877087b1750037847f2059807387b174803784700069807307b1718037847ff059807287b1710037847fe059807207b1708037847fd059807187b1700037847fc059807107b17d8027847fb059807087b1750027847fa0597273898773b95194011c979097c97197c9a187c9b1a7c9c1b977708d4a70797bb1097cc18d4cb0bd4b7077c9a1d7c9b1c7c9c1e7c961f97aa08d4ba0a97cc10976618d46c0cd4ca0a97aa20d47a0b7c97117c9a107c9c127c9613977708d4a70797cc10976618d46c0cd4c7077c9a157c9c147c96167c981797aa08d4ca0a976610978818d46808d4a808978820d47803842807cf8b0a983c0185823fd02c0cd4ca0a7b1aa0037c9a097c9c087c960a7c9b0b97aa08d4ca0a97661097bb18d46b0bd4ba0a7c9b0d7c9c0c7c960e7c970f97bb08d4cb0b976610977718d46707d4b707977720d4a70c98c701858affd0a707cf830ad4a7077b1788037c97017c9a7c9b027c9603977708d4a70797bb10976618d46b0bd4b7077c9a057c9b047c96067c990797aa08d4ba0a976610979918d46909821b8003d4a909979920d49707987901d0290982167003cf8c0a821c7803d4a9097b199003d4cb09821aa803d46a0ad4a909cf87077b179803510970044921680349216003821748027847880582174002784787058217380278478605821730027847850582172802784784058217200278478305821718027847820582171002784790058217080278478f058217d00178478e058217c80178478d058217c00178478c058217b80178478b058217b00178478a058217a801784798058217a001784797058217980178479605821790017847950582178801784794054624c0054624bf054624be054624bd054624bc054624bb054624ba054624b9054624b8054624b7054624b6054624b5054624b4054624b3054624b2054624b1054624b0054624af054624ae054624ad054624ac054624ab054624aa054624a9054624a8054624a7054624a6054624a5054624a4054624a3054624a2054624a1058217c00278478105821790027847890582178802784791057840990582175803784793058217500378479205821748037847a0058217180378479f058217100378479e058217080378479d058217000378479c058217d80278479b058217500278479a058216a80397673898773b9519e010c879097c97117c98107c9a127c9b13977708d4870797aa1097bb18d4ba0ad4a7077c98157c9a147c9b167c9c17978808d4a80897bb1097cc18d4cb0bd4b808978820d47804846607d064027c97197c9a187c9b1a7c9c1b977708d4a70797bb1097cc18d4cb0bd4b7077c9a1d7c9b1c7c9c1e7c981f97aa08d4ba0a97cc10978818d4c808d4a808978820d4870797780185633fcf3808d482087b1858037c98097c9a087c9b0a7c9c0b978808d4a80897bb1097cc18d4cb0bd48b027c9a0d7c9b0c7c9c0e7c980f97aa08d4ba0a97cc10978818d4c808d4a808978820d42802d06208974401856affcfa40ad4a8047c98017c9a7c9c027c9b03978808d4a80897cc1097bb18d4cb0bd4b8087c9a057c9b047c9c067c990797aa08d4ba0a97cc10979918d4c909821c6803d4a909979920d49808d06808972201cf3209d49800d06709821ac00388a7018218d003c978077b171003d48a078877018218c803c9780b7b1b0803d878078218d803c978087b18000395aaff7b1ad802017b1c68034921180398073f974601d4760697000164438214a00398473fd4700882171003d3670bd8670c8217d802d8870a64807b184803dbbc0a97990182185803988b3fd4b9027b125003983b3f978801d48b0b97480182178803987c3fd4c804977c018218900398893fd4c909978801821c980398c73fd4870797cc0182186803d48c0c7b1c9803821c6003d4c7077b179003d49c077b178803d44c077b17a00382180803c9b807d8a707d8b80882190003c92909c98909c97909999c3f8217c003d27c02821ad003d2ca0ad3a604d8a609d82008da48098217c803d27c04c94b03c993007b105803d89303d84b0b8219d803d2c90982175003c99709c9b909c93909c9a606c9860482174803c92700821ba80382168003d46b07887701821a7003d87a08c97a0788ba01c9a606821a7803c98a0a95bbff7b1680037b1a7803d4a6087b1ba803d47b0ad4a80884cc017b177003492160035208a7fe2809330c49211803018219880398973f8218a003978801d47808821b900398b73f979901d4790a8217980398793f97bb01977701d47c02821c1803d4c909d4b900d4ac03d48c098214d00328078214d003017b1288037b1990037b1098037b13a0038210c0038219a002d69008ca940bc8b808d8b80bd6940cc8bc0c82176002ca700bc8b8087b18a803d8b80bd67006c86b0bc8cb0bd8cb0cd67406c86c0cca7406c86b0bd86b06c86c0382186802ca4806d6080ac86a0a821c5802ca0c06c86a02821cc803d6c90664ca821cd803cac90cc86c0ccaa706c86c0cc8c202ca080ccaa906c8c606d8c60cc8c20ac83a0ac8b606d8b60b82179802c9b70bc9ab0b7b1b8003ca900a821cb8028218a803d38c07d88c098213e002d8a30bda7b098217b002d86708c967066442d89607c8870782188003c978077b17a002c996067b16b002c9bc078218a803c987077b17b802c9a3077b17980282168803d66007ca6408c88707d88708d66409c8980882139803ca3009c8790bd89b07d63009c89707c88707d88708d63409c89808ca3409c89707d89709c89804821ca003ca2c09d60c0a64c2c8a909821a9003ca0a0ac8a9098218c803d6860a821cd803cac60cc8ca0aca830cc8ca0ac8a909ca020aca860cc8ac0cd8ac0ac8a909c89408c87c0cd87c0782197802c97907c98702ca600482199002d3b907d8b90a8218c002d84806da760a82178802d8c700c9c70cd8ac07c80707c97202c9ac0cc96909c9b909c94808821ab002c8ca0ad8ca0b8217a002c82707c8b707821b9802c88b0bd88b0864bc7b1be002821bb802c89b0bc88b00d3900bd89009dab809c89a02d8a208c8870368386827957740db3807680868c9959940db0809d43208959a8000da8a07d89a0a948a821c2803d87c08821b3003d3ab06d8ab09da6809c9ab0ac98a06c97c0c7b1c980388c700018577018e6bdb6b07889c0195ccff9a948e4b8ec8dacb08643b821ae002da9708d43007d42a09d4970788770182192003d49707d4780894837b12c00294827b12a0037b10d802948064a794877b1b90025208fe07821998038598ff00d44808d4c60ad4a808821ab00251083d089598017b18a803888701c867077b178003d48707887701c847077b177003d84707c8c7077b1778039a92ff009514ff07954460038219d8028218e002784861054624600546245f0546245e0546245d0546245c0546245b0546245a054624590546245805462457054624560546245505462454054624530546245205462451054624500546244f0546244e0546244d0546244c0546244b0546244a05462449054624480546244705462446054624450546244405462443054624420546244105784969059887387b177802784768059887307b176802784767059887287b176002784766059887207b175802784765059887187b175002784764059887107b174802784763059887087b174002784762058218c002784871059897387b173802784770059897307b17300278476f059897287b17280278476e059897207b17200278476d059897187b17180278476c059897107b17100278476b059897087b17080278476a05784b79059887387b17d001784778059887307b17c801784777059887287b17c001784776059887207b17b801784775059887187b17b001784774059887107b176003784773059887087b1758037847720598b7387b1750037847800598b7307b17480378477f0598b7287b17180378477e0598b7207b17100378477d0598b7187b17080378477c0598b7107b17000378477b0598b7087b17880278477a0597283898883b951bc010c98b0b7cb8197cb9187cba1a7cbc1b978808d4980897aa1097cc18d4ca0ad4a8087cb91d7cba1c7cbc1e7cb61f979908d4a90997cc10976618d46c0cd4c909979920d498087cb9117cba107cbc127cb613979908d4a90997cc10976618d46c0cd4c9097cba157cbc147cb6167cb71797aa08d4ca0a976610977718d46707d4a707977720d49703842707cf7809983c0185723fd02c0cd4c9097b19a0037cb9097cbc087cb60a7cb80b979908d4c909976610978818d46808d498087cb90d7cbc0c7cb60e7cba0f979908d4c90997661097aa18d46a0ad4a909979920d4890c98c8018579ffd09808cf7309d498087b1888037cb8017cb97cba027cb603978808d4980897aa10976618d46a0ad4a8087cb9057cba047cb6067cbb07979908d4a90997661097bb18d46b0b82168003d4b909821b7003979920d49808988901d02909cf7c0a821c7803d4a9097b199003d4c609821aa803d4ba0ad4a909cf78077b179803510976044921a80149216803821778027847080582176802784707058217600278470605821758027847050582175002784704058217480278470305821740027847020582173802784710058217300278470f058217280278470e058217200278470d058217180278470c058217100278470b058217080278470a058217d001784718058217c801784717058217c001784716058217b801784715058217b001784714054624400546243f0546243e0546243d0546243c0546243b0546243a054624390546243805462437054624360546243505462434054624330546243205462431054624300546242f0546242e0546242d0546242c0546242b0546242a054624290546242805462427054624260546242505462424054624230546242205462421058217e002784701058217d802784709058217c0027847110582179002784719058217600378471305821758037847120582175003784720058217480378471f058217180378471e058217100378471d058217080378471c058217000378471b058217880278471a058216a80397673898773b95186010c878087c87117c89107c8a127c8b13977708d4970797aa1097bb18d4ba0ad4a7077c89157c8a147c8b167c8c17979908d4a90997bb1097cc18d4cb0bd4b909979920d47904846607d064037c89197c8a187c8b1a7c8c1b979908d4a90997bb1097cc18d4cb0bd4b9097c8a1d7c8b1c7c8c1e7c871f97aa08d4ba0a97cc10977718d4c707d4a707977720d4970297270185603fcf0707d473077b1760037c87097c8a087c8b0a7c8c0b977708d4a70797bb1097cc18d4cb0bd4b7077c8a0d7c8b0c7c8c0e7c890f97aa08d4ba0a97cc10979918d4c909d4a909979920d49707d06709974401856affcfa40ad4a9037c89017c8a7c8b027c8c03979908d4a90997bb1097cc18d4cb0bd4b9097c8a057c8b047c8c067c880797aa08d4ba0a97cc10978818d4c808d4a808978820d49808d06808977701cf0707d47800d062028214a8018218c0038887018219d003c979077b171803d498078877018219c803c9790a7b1a1003d879078219d803c979097b1908039588ff7b180003821aa003014921480398073f973601d4760697000198a73fd4700b82181803d36807d8680982180003d8b80c643864b37b1b5003db790c972201821b600398b73fd472007b10580398893f97bb01d4b90997ab018217880398783fd48b02977b018218900398873fd4b707978801821b980398ba3fd48a0a97bb01d4b40b7b1b9803821b6803d4ba0a7b1a9003d4b7077b178803d42b077b17a00382181003c99807d8c707d89808821a0803c90a0ac98a0ac97a0a99ac3f8217c003d27c008218d003d2c808d38604d8860bd8030ada4a0b8217c803d27c04c94903c9b3027b126003d8b303d84909821bd803d2cb0b82175803c9b70bc99b0bc93b02c98606c9a60382175003c90700821aa803821b8003d4ba0788770182197003d87908c9790788a901c99b0b82197803c9890995aaff7b1b80037b197803d49b087b1aa803d47a09821aa003d4980884c4017b177003492168035208affe2813821ab0022854330449214803821aa003018218880398873f97a901d4790a821c900398c73f978901d4790b8217980398793f97cc01977701d4740782164803d46909d4c900d4b6087b18a003d4a603821ab002821b9002017b139003492178024921300249214002492138026473821798028219e002d879068217b80264a28218d802d3780ad8780cdaa60c8217a002d37b0ad87b0b8217c002d82706daa60bd32706d46a0adaac0b7b1b98038212c003d6320a8214d003ca340cc8ca0ad8ca0cd63406c8c606ca020cc8ca0a7b1aa803d8ca0cd6020bc8cb0bc86b0bd86b0cd60406c86c0cca0406c86b0bd86b06c86c0c7b1c88038218a003ca4806649ad62809c8690982179003ca2706c869097b1990038219c803d693068217d803ca730cc86c0c6497ca9006c86c0c82199003c8c909ca280cca7306c8c606d8c60cc8c90982178803c87909c8b606d8b60b8210c002c8b9097b199003ca32097b19a0038217a8038218d802d3780bd8780cd89a07dab70cd8600bc96006d8c609c8b90982139002821b9003c9b30bc99b0b7b1b9003c9c6067b1688038219a803c99809c979097b19a803d82a0bd3480ad8480cdaab0c8217c803c97009c9c90ad8c906d8700c8219d803c99309c9c909c9690cc94809c9b909821b980382179003dab70c7b1c980282178803dab70a7b1ab0028217e0028218a003c9870ac92707daba077b17e0028217a803dab7097b19b8029513ff0795336003821cf8028210f0028219e8028216d002285702330c492118038216a003018219980398973f976801d47808821b880398b73f979901d4790a8217900398793f97bb01977701d4c7077b179803821c1803d4c909d4b900d4ac077b17a003d4c8087b18a8038213d0028212c002018218d802d88308821ba002d3b20ad8b20bdaa80b821ce802821a8802d3ac08d8ac068217f002821a9002d8a70cda8c06d3a70cd4c808da8b067b169003821828028887138218300294877b177003640682177802887001c808087b188803d47808888b01821a4002c8ab0b7b1b8003d8ab08821b3802d4ba0a7b1a6803c8b8087b1878038217c00382139803d63709647a821ca0038214d003ca3402c89207d82709d63408c8980864a2ca6a09c897077b176003d89709d66a0bc8b909c88909d88908d6640bc8b808ca640bc8b909d8b90bc8b8087b18580364c8ca4c0bd6ac0ac8ba0a821ba803ca2b0bc8ba0a8210c803d6030b8217d803ca730cc8cb0bca060cc8cb0bc8ba0aca280bca030cc8bc0cd8bc0bc8ba0a82185803c8a808c89c0cd89c09c89808ca32067b16a8038212c002821b6003d3b207d8b20a64b38219d002d8690bda7b0a8217f002d8c706c9c70cd8ac07c867078216e802c98608c978087b18a003c9ac0cc93207c9b7077b1798038218c003d889076493d3420ad8420bdaa70b8219d803c9960a8219f002d80906c96a06c9090ad8ba00c90606c9ba00c9420ac97a09821a9003daac008217a003daa70682179803daa709821b700382176803947b8217a803c97307c9830cdaa70c821788037b173002821780037b174002821778037b1738029513ff0795336003520b062828dd7b19e8027b16d0027b1cf802821798027b1788028217b0027b1790028217b8027b17a0028217e0027b17d802821778027b19b8027b1698027b1ce0027b1728029577017b1778029777387b3759077b10b002492351074923490749234107492379074923710749236907492361074823810720951700108378a00295170010837ac00295170010837be0023309ff330764060a03019513ff0795336003823779077b172002646a7b16f00268679578408216d0026867da68078218f80268889588408210e8026809da080995988000d46a0a6464daa807d8980894a882163003d38609d8860c821a2803d87a0bda9b0c88c9019592ff9ac3c98608c9b808c97a0a7b13a0038e378e26da27068e8764a388aa000185aa01db870a951bff0795bb600382b771077b175802dbc60a8216f8028219f002d49607d4400cd4c70782bc69077b1c5002887701821c2003d4c707d4a70782ba61077b1a480294747b14d002649a947a7b1af00294707b10e802646a947a7b1af80252075e088537ff00821ca003d4c707d4280ad4a7078210700282148002821bc80251074a08953a017b1aa80388a701c887077b178003d4a707887701c8c7077b176803d8c707c827077b1770039a33ff009510ff07950060038217e0027807e1044620e0044620df044620de044620dd044620dc044620db044620da044620d9044620d8044620d7044620d6044620d5044620d4044620d3044620d2044620d1044620d0044620cf044620ce044620cd044620cc044620cb044620ca044620c9044620c8044620c7044620c6044620c5044620c4044620c3044620c2044620c1048218b8027808e9049879387b19e8027809e8049879307b19d0027809e7049879287b19c0027809e6049879207b1968027809e5049879187b1960027809e4049879107b1918027809e3049877087b1710027807e2048217b0027807f1049889387b1908027809f0049889307b19d0017809ef049889287b19c8017809ee049889207b19c0017809ed049889187b19b8017809ec049889107b19b0017809eb049888087b18a8017808ea04821298027802f9049878387b18a0017808f8049878307b1898017808f7049878287b1890017808f6049878207b1888017808f5049878187b1880017808f4049878107b1858037808f3049877087b1750037807f2049827387b174803780700059827307b1718037807ff049827287b1710037807fe049827207b1708037807fd049827187b1700037807fc049827107b17f8027807fb049827087b17f0027807fa0497373898773b951c4010c97c0c7cc7197cc8187cc91a7ccb1b977708d4870797991097bb18d4b909d497077cc81d7cc91c7ccb1e7cc61f978808d4980897bb10976618d46b0bd4b808978820d478097cc7117cc8107ccb127cc613977708d4870797bb10976618d46b0bd4b7077cc8157ccb147cc6167cca17978808d4b80897661097aa18d46a0ad4a808978820d47804843a07cfa90798480185a33fd03808d487077b17a0037cc7097cc8087ccb0a7cc90b977708d4870797bb10979918d4b909d497077cc80d7cc90c7ccb0e7cc60f978808d4980897bb10976618d46b0bd4b808978820d4780b98b70185a8ffd08707cfa408d487077b1798037cc7017cc87cc9027cc603977708d48707979910976618d46909d497077cc8057cc9047cc6067ccc07978808d4980897661097cc18d46c0cd4c808821c7003978820d48707987801d0380882166803cfab09821b8003d498087b188803d4cb088219a803d46909d49808cfa7077b1790035108680449217803492160038217e802780788048217d002780787048217c00278078604821768027807850482176002780784048217180278078304821710027807820482170802780790048217d00178078f048217c80178078e048217c00178078d048217b80178078c048217b00178078b048217a80178078a048217a0017807980482179801780797048217900178079604821788017807950482178001780794044620c0044620bf044620be044620bd044620bc044620bb044620ba044620b9044620b8044620b7044620b6044620b5044620b4044620b3044620b2044620b1044620b0044620af044620ae044620ad044620ac044620ab044620aa044620a9044620a8044620a7044620a6044620a5044620a4044620a3044620a2044620a1048217e002780781048217b802780789048217b002780791047802990482175803780793048217500378079204821748037807a0048217180378079f048217100378079e048217080378079d048217000378079c048217f80278079b048217f00278079a048216a80397673898773b9519ff079599e107c879097c97117c98107c9a127c9b13977708d4870797aa1097bb18d4ba0ad4a7077c98157c9a147c9b167c9c17978808d4a80897bb1097cc18d4cb0bd4b808978820d47803846a07d0a3047c97197c9b187c961a7c9c1b977708d4b70797661097cc18d46c0cd4c7077c9b1d7c9c1c7c961e7c981f97bb08d4cb0b976610978818d46808d4b808978820d4780297270185a03fcf0707d474077b1758037c97097c98087c9b0a7c9c0b977708d4870797bb1097cc18d4cb0bd4b7077c980d7c9b0c7c9c0e7c960f978808d4b80897cc10976618d46c0cd4c808978820d47808d0a80797330185abffcfb30bd4b7037c97017c9b7c9c027c9603977708d4b70797cc10976618d46c0cd4c7077c9b057c9c047c96067c990797bb08d4cb0b976610979918d46909d4b909979920d49707d0a707978801cf0806d46704d0a20b8218c0038887018219d003c979077b171803d498078877018219c803c9790a7b1a1003d879078219d803c979097b1908039588ff7b180003014921480398483f973c01d48c029746018219a00398983fd4860082171803d3270cd8270482170003d80708dbc40897ba01821b580398bc3fd4ca047b145003983c3f97bb01d4bc0c979b018219980398973fd4b707979b018216880398693fd4b909976601821b900398ba3fd46a0a97bb0182167803d46b0b7b1b9003821b6003d4ba0a7b1a8803d4b9097b199803d4b7077b17a00382191003c9c907d88707d8c90882190803c94909c98909c9790899883f8217c003d287078219d003d28909d39203d8920bd8700a6404da3a0b8216c803d26803c93c00c9b0067b165803d8b000d83c0c8216d803d28606821b5003c96b06c9c606c90606c99209c9a903c97404821ca803821b8003d4bc07887701821a6803d87a09c97a0788ca01c9ab0b821a7003c99a0a95ccff7b1b80037b1a7003d4ab09646b7b1ca803d47c0ad4a9098488017b1878037b176803492160035209affe280b492178034921480301821a980398a73f8218a003978801d48707821b880398b83f97aa01d4a808821c900398ca3f97bb0197cc0182197803d4c9097b19f80282194803d49a0ad4ba0a7b1ae802d498087b18f002d497077b17d002018210700282148002821bc802018218a802d448076489d40b08d4870788770182182003d487077b17a8036848958840680ada080a689895884068b9dab80995988000d4040bdab80ad8980894b8821c3003d38c09d88c0b82172803d8a706da960b88b9019592ff9ab9c98c08c96803c9a7067b19a0038e9a64298e27da2a078e3a886c000185cc01db3a0cdbb70c8217a803d47c0c94c094c48217c80294c78212a80294c2520c4608856cff00821ba003d4bc0cd49308d4c808510831089568017b18a803888701c837077b177803d48707887701c8b7077b176803d8b707c897077b1780039a63ff009510ff07950060038217a802780761044620600446205f0446205e0446205d0446205c0446205b0446205a044620590446205804462057044620560446205504462054044620530446205204462051044620500446204f0446204e0446204d0446204c0446204b0446204a044620490446204804462047044620460446204504462044044620430446204204462041048218c802780869049879387b196002780968049879307b191802780967049879287b191002780966049879207b190802780965049879187b19d001780964049879107b19c801780963049877087b17c0017807620482178002780771049889387b19b801780970049889307b19b00178096f049889287b19a80178096e049889207b19a00178096d049889187b19980178096c049889107b19900178096b049888087b18880178086a0482127002780279049878387b188001780878049878307b187801780877049878287b187001780876049878207b186801780875049878187b186001780874049878107b185803780873049877087b175003780772049827387b174803780780049827307b17180378077f049827287b17100378077e049827207b17080378077d049827187b17000378077c049827107b17c00278077b049827087b17680278077a0497373898773b951cff0795ccc107c97c0c7cc7197cc8187cc91a7ccb1b977708d4870797991097bb18d4b909d497077cc81d7cc91c7ccb1e7cc61f978808d4980897bb10976618d46b0bd4b808978820d478097cc7117cc8107ccb127cc613977708d4870797bb10976618d46b0bd4b7077cc8157ccb147cc6167cca17978808d4b80897661097aa18d46a0ad4a808978820d47804843a07cfa90798480185a33fd03808d487077b17a0037cc7097cc8087ccb0a7cc90b977708d4870797bb10979918d4b909d497077cc80d7cc90c7ccb0e7cc60f978808d4980897bb10976618d46b0bd4b808978820d4780b98b70185a8ffd08707cfa408d487077b1798037cc7017cc87cc9027cc603977708d48707979910976618d46909d497077cc8057cc9047cc6067ccc07978808d4980897661097cc18d46c0cd4c808821c6803978820d48707987801d0380882167803cfab09821b8003d498087b188803d4b6088219a803d4c909d49808cfa7077b17900351086804492170034921600382176002780708048217180278070704821710027807060482170802780705048217d001780704048217c801780703048217c001780702048217b801780710048217b00178070f048217a80178070e048217a00178070d048217980178070c048217900178070b048217880178070a04821780017807180482177801780717048217700178071604821768017807150482176001780714044620400446203f0446203e0446203d0446203c0446203b0446203a044620390446203804462037044620360446203504462034044620330446203204462031044620300446202f0446202e0446202d0446202c0446202b0446202a044620290446202804462027044620260446202504462024044620230446202204462021048217a802780701048217c802780709048217800278071104780219048217580378071304821750037807120482174803780720048217180378071f048217100378071e048217080378071d048217000378071c048217c00278071b048217680278071a048216a80397673898773b9519ff0795996107c879097c97117c98107c9a127c9b13977708d4870797aa1097bb18d4ba0ad4a7077c98157c9a147c9b167c9c17978808d4a80897bb1097cc18d4cb0bd4b808978820d47803846a07d0a3047c97197c9b187c961a7c9c1b977708d4b70797661097cc18d46c0cd4c7077c9b1d7c9c1c7c961e7c981f97bb08d4cb0b976610978818d46808d4b808978820d4780297270185a03fcf0707d474077b1758037c97097c98087c9b0a7c9c0b977708d4870797bb1097cc18d4cb0bd4b7077c980d7c9b0c7c9c0e7c960f978808d4b80897cc10976618d46c0cd4c808978820d47808d0a80797330185abffcfb30bd4b7037c97017c9b7c9c027c9603977708d4b70797cc10976618d46c0cd4c7077c9b057c9c047c96067c990797bb08d4cb0b976610979918d46909d4b909979920d49707d0a707978801cf0806d46704d0a20b8218c0038887018219d003c979077b171803d498078877018219c803c9790a7b1a1003d879078219d803c979097b1908039588ff7b180003014921480398483f973c01d48c029746018219a00398983fd4860082171803d3270cd8270482170003d80708dbc40897ba01821b580398bc3fd4ca047b145003983c3f97bb01d4bc0c979b018219980398973fd4b707979b018216880398693fd4b909976601821b900398ba3fd46a0a97bb0182167003d46b0b7b1b9003821b6003d4ba0a7b1a8803d4b9097b199803d4b7077b17a00382191003c9c907d88707d8c90882190803c94909c98909c9790899883f8217c003d287078219d003d28909d39203d8920bd8700a6404da3a0b8216c803d26803c93c00c9b0067b165803d8b000d83c0c8216d803d28606821b5003c96b06c9c606c90606c99209c9a903c97404821ca80382197803d49c07887701821a6803d87a0bc97a0788ca01c9a909821a8003c9ba0a646b95ccff7b1a80037b197803d4a9097b1ca803d47c0ad4a9098488017b1870037b176803492160035209affe280b492170034921480301821a980398a73f8218a003978801d47808821c880398c73f97aa01d47a0a82179003987b3f97cc0197770182197003d4790282194803d49b0bd4cb07d4a904d48900017b17a8037b1288037b1498037b10a0038214c0038218f802d6840a8212d003ca8209c89a0ad89a09d6820cc8c909821be802cab40cc8ca0a7b1a8003d8ca0cd6b406c86c0cc89c0cd89c09d6b206c86909cab206c8c603d86306c869097b199003821cf002ca2c06d64c0ac86a0a8219d002ca4906c86a0a8210c803d608068217d803ca7809c86909ca0b06c86909c8a909ca080aca4c06c86a0ad86a06c83a0ad83a0cc8690982139003c89303ca84087b18900382179802c9c70cc93c077b1778038216b80282138003d3360cd836098217e002d8870bdacb09821cb002d8ac07c9ac0ad89a0cc87c0c82177803c9c7077b17c002c99a0a7b1ad002c9b609c939077b17680282178803d67408ca7209c89808d89809d6720ac8a909821ba803cab40ac88a03d8a308d6b40ac8a808c89808d89809d6b20ac8a909cab20ac8a808d8a80ac8a909821c9803ca2c0ad64c0bc8ba0a821ba003ca4b0bc8ba0ad6070b8216d803ca6706c86b0b8216a803ca0606c86b0bc8ba0aca070bca4c06c86b0bd86b06c88b0bd88b08c86a0ac8a909ca7400821a7002c98a08c998028219c802d33908d8390a8217a802d80706da860a82188002d8b80cc9b80bd8ab08c88c04821ce00282189003c98c0cc94202c9ab0bc96909c93909c90707821ad002c8ba0ad8ba0b8218c002c82808c8b8087b1c1802c87c0cd87c0764c0821b6802c89b0bc87b02d3920bd89209dab709c89a067b16f002d8a607c8780468486867957740db4807682868c9959940db2809d44608959a8000da8a07d89a099489821c2803d87c0a821b3003d39b03d89b08da3a08c99b0bc9ab03c97c0b88b900018599018e3adb3a09888c0195ccff9a877b1798038e7a8ec7daca07da8907d44208d46009d4980888880182192003d49808d48707644894787b18a8036468640694787b18a003642a947a94707b1660027b14e8025207640864b885b7ff0082199803d49707d4c30bd4b70751074d0864899588017b18a803888701c837077b178003d4870788770182189803c887077b177003d88707c8c7077b17780364289a92ff0064499514ff07954460037846e1034624e0034624df034624de034624dd034624dc034624db034624da034624d9034624d8034624d7034624d6034624d5034624d4034624d3034624d2034624d1034624d0034624cf034624ce034624cd034624cc034624cb034624ca034624c9034624c8034624c7034624c6034624c5034624c4034624c3034624c2034624c1037848e9039867387b17d0017847e8039867307b17c8017847e7039867287b17c0017847e6039867207b17b8017847e5039867187b17b0017847e4039867107b17a8017847e3039867087b17a0017847e2038210f0027840f1039887387b1798017847f0039887307b1790017847ef039887287b1788017847ee039887207b1780017847ed039887187b1778017847ec039887107b1770017847eb037b1810029888087b1868017848ea037849f9039807387b1760017847f8039807307b1758017847f7039807287b1750017847f6039807207b1748017847f5039807187b1740017847f4039807107b1758037847f3039807087b1750037847f2039897387b174803784700049897307b1718037847ff039897287b1710037847fe039897207b1708037847fd039897187b1700037847fc039897107b17f8027847fb039897087b1708027847fa0397283898883b951aff0795aa4107c98a0a7ca8197ca9187cab1a7cac1b978808d4980897bb1097cc18d4cb0bd4b8087ca91d7cab1c7cac1e7ca61f979908d4b90997cc10976618d46c0cd4c909979920d4890b7ca8117ca9107cac127ca613978808d4980897cc10976618d46c0cd4c8087ca9157cac147ca6167ca717979908d4c909976610977718d46707d49707977720d48703842707cf7b09983c0185723fd02c0cd4c9097b19a0037ca9097cac087ca60a7cab0b979908d4c90997661097bb18d46b0bd4b9097cab0d7cac0c7ca60e7ca80f97bb08d4cb0b976610978818d46808d4b808978820d4980c98c8018579ffd09808cf730982137003d498087b1898037ca8017ca97cab027ca603978808d4980897bb10976618d46b0bd4b8087ca9057cab047ca6067caa07979908d4b909821b800397661097aa18d46a0ad4a909979920d49808988901d02909cf7c0a821c7803d4a9097b198803d4cb09821aa803d43a0ad4a909cf78077b17900351096e0449216803492160038217d001784788038217c801784787038217c001784786038217b801784785038217b001784784038217a801784783038217a0017847820382179801784790038217900178478f038217880178478e038217800178478d038217780178478c038217700178478b038217680178478a03821760017847980382175801784797038217500178479603821748017847950382174001784794034624c0034624bf034624be034624bd034624bc034624bb034624ba034624b9034624b8034624b7034624b6034624b5034624b4034624b3034624b2034624b1034624b0034624af034624ae034624ad034624ac034624ab034624aa034624a9034624a8034624a7034624a6034624a5034624a4034624a3034624a2034624a10382176002784781038217100278478903784091038217e8027847990382175803784793038217500378479203821748037847a0038217180378479f038217100378479e038217080378479d038217000378479c038217f80278479b038217080278479a038216a80397673898773b9518ff079588e106c887077c78117c79107c7a127c7b13978808d4980897aa1097bb18d4ba0ad4a8087c79157c7a147c7b167c7c17979908d4a90997bb1097cc18d4cb0bd4b909979920d48904846607d064027c78197c79187c7b1a7c7c1b978808d4980897bb1097cc18d4cb0bd4b8087c791d7c7b1c7c7c1e7c7a1f979908d4b90997cc1097aa18d4ca0ad4a909979920d4980897890185633fcf3909d492097b1958037c79097c7a087c7b0a7c7c0b979908d4a90997bb1097cc18d4cb0bd49b027c7a0d7c7b0c7c7c0e7c790f97aa08d4ba0a97cc10979918d4c909d4a909979920d42902d06209974401856bffcfb40bd4b9047c79017c7b7c7c027c7a03979908d4b90997cc1097aa18d4ca0ad4a9097c7a057c7b047c7c067c770797aa08d4ba0a97cc10977718d4c707d4a707977720d49707d06707972201cf3209d49700d0680b8218c0038887018219d003c979077b171003d498078877018219c803c9790a7b1a0803d879078219d803c979097b1900039588ff7b18f802014921180398083f974601d486069700018213a00398383fd4800882171003d3670ad8670c8217f802d8870964807b184803dbac0997b701821b580398ba3fd4a7027b125003984a3f97bb01d4ba0a973b0182179803987c3fd4cb04977c01821b880398b73fd4c70797bb01821c900398c83fd4b80897cc01821b6803d4bc0c7b1c9003821c6003d4c8087b188803d4c7077b179803d44c077b17a00382180803c9a807d89707d8a80882190003c92909c98909c97909999c3f8218c003d28c028219d003d2c909d39604d8960bd82007da470b8218c803d28c04c94a03c9b3007b105803d8b303d84a0a821bd803d2cb0b82185003c9b80bc9ab0bc93b0bc99606c9760482174803c92700821aa80382168003d46a0788770182197003d87908c9790788a901c9960682197803c9890995aaff7b1680037b197803d496087b1aa803d47a09d4980884cc017b1c68037b177003492160035208a9fe280b4921680349211803018219980398973f8218a003978801d48707821b880398b83f979901d4890982189003988a3f97bb01978801821c6803d48c00821c1803d4ca0ad4ba0ad4c9097b19a003d4c7077b17a80382166002821210028214e8020182171802d87607821c6802d3c20bd8c20cdab70c8217c002d3740bd874098217d00264a8821af002d87a06dab609d37a06d46b0bdabc097b1998038213c003d6030b8214a0038217d003ca070cc8cb0bd8cb0cd60706647ac8c606ca830cc8cb0b7b1b9003d8cb0cd68309c8c909c86909d8690cd68706c86c0cca8706c86909d86906c86c0c7b1c88036447caa406d6340cc86c0c821ba803ca3b06c86c0c8214c803d64006821ad803caa00bc86b0bca480ac8ba0ac8ca0aca370bca400cc8bc0cd8bc0bc8ba0ac89c0cd89c0982178803c87a0ac8a909ca03087b18880382179003d3720ad8720b82106002d88006daa60b8218f002d8c80ac9c80cd8bc08c8a808821ae802c99a0ac98a0a7b1aa003c9bc0cc97209c969097b19a8036407d830088219d003d3920bd892066490dab8068219e802821ad803c9a90b821af002d84a09c99b0bc94a09d8690ac9ab0b821a8803c9a70ac96906c90209c98902c9370482179803da7c067b16f0028218a003da780bda7a048218a803da7802686795784068b7dab807d4b6086829684a95aa40db290a95a98000da8907d8a909948982163003d39608d8960c821a2803d87a00da800c88c8019583ff9ac8c99609c90909c97a0a7b18a0038e8764388e36da37067b1a980388a700018577018e9adb9a07dbc6078210f002d4040ad4b20cd4ca0a88aa01821c2003d4ca0a7b1268027b146002d4a7077b1bd002947b947094726443947352075308821698038567ff00821ca003d4c707d4890ad4a7078214300351073b08956a017b1aa80388a701c897077b178003d4a707887701c8c7077b176803d8c707c887077b1770039a63ff009510ff079500600382176002780761034620600346205f0346205e0346205d0346205c0346205b0346205a034620590346205803462057034620560346205503462054034620530346205203462051034620500346204f0346204e0346204d0346204c0346204b0346204a0346204903462048034620470346204603462045034620440346204303462042034620410382186802780869039879387b19c002780968039879307b191802780967039879287b191002780966039879207b190802780965039879187b19d001780964039879107b19c801780963039877087b17c001780762038217f002780771039889387b19b801780970039889307b19b00178096f039889287b19a80178096e039889207b19a00178096d039889187b19980178096c039889107b19900178096b039888087b18880178086a038212d002780279039878387b188001780878039878307b187801780877039878287b187001780876039878207b186801780875039878187b186001780874039878107b185803780873039877087b175003780772039827387b174803780780039827307b17180378077f039827287b17100378077e039827207b17080378077d039827187b17000378077c039827107b17f80278077b039827087b17e80278077a0397373898773b951cff0795ccc106c97c0c7cc7197cc8187cc91a7ccb1b977708d4870797991097bb18d4b909d497077cc81d7cc91c7ccb1e7cc61f978808d4980897bb10976618d46b0bd4b808978820d478087cc7117cc9107ccb127cc613977708d4970797bb10976618d46b0bd4b7077cc9157ccb147cc6167cca17979908d4b90997661097aa18d46a0ad4a909979920d47904843a07cfa80798490185a33fd03909d497077b17a0037cc7097cc9087ccb0a7cc80b977708d4970797bb10978818d4b808d487077cc80d7cc90c7ccb0e7cc60f978808d4980897bb10976618d46b0bd4b808978820d4780b98b70185a8ffd08707cfa408d487077b1798037cc7017cc87cc9027cc603977708d48707979910976618d46909d497077cc8057cc9047cc6067ccc07978808d4980897661097cc18d46c0cd4c808821c7003978820d48707987801d0380882166803cfab09821b8003d498087b188803d4cb088219a803d46909d49808cfa7077b1790035108680449217803492160038217c002780708038217180278070703821710027807060382170802780705038217d001780704038217c801780703038217c001780702038217b801780710038217b00178070f038217a80178070e038217a00178070d038217980178070c038217900178070b038217880178070a03821780017807180382177801780717038217700178071603821768017807150382176001780714034620400346203f0346203e0346203d0346203c0346203b0346203a034620390346203803462037034620360346203503462034034620330346203203462031034620300346202f0346202e0346202d0346202c0346202b0346202a03462029034620280346202703462026034620250346202403462023034620220346202103821760027807010382176802780709038217f00278071103780219038217580378071303821750037807120382174803780720038217180378071f038217100378071e038217080378071d038217000378071c038217f80278071b038217e80278071a038216a80397673898773b9518ff0795886106c878087c87117c89107c8a127c8b13977708d4970797aa1097bb18d4ba0ad4a7077c89157c8a147c8b167c8c17979908d4a90997bb1097cc18d4cb0bd4b909979920d47903846a07d0a3047c87197c8b187c861a7c8c1b977708d4b70797661097cc18d46c0cd4c7077c8b1d7c8c1c7c861e7c891f97bb08d4cb0b976610979918d46909d4b909979920d4790297270185a03fcf0707d474077b1758037c87097c89087c8b0a7c8c0b977708d4970797bb1097cc18d4cb0bd4b7077c890d7c8b0c7c8c0e7c860f979908d4b90997cc10976618d46c0cd4c909979920d47909d0a90797330185abffcfb30bd4b7037c87017c8b7c8c027c8603977708d4b70797cc10976618d46c0cd4c7077c8b057c8c047c86067c880797bb08d4cb0b976610978818d46808d4b808978820d48707d0a707979901cf0906d46704d0a20b8218c0038887018219d003c979077b171803d498078877018219c803c9790a7b1a1003d879078219d803c979097b1908039588ff7b180003014921480398493f973c01d49c029746018218a00398893fd4960082171803d3270cd8270482170003d80709dbc40997ba01821b580398bc3fd4ca047b145003983c3f97bb01d4bc0c978b018218980398873fd4b707978b018216880398683fd4b808976601821b900398ba3fd46a0a97bb0182167803d46b0b7b1b9003821b6003d4ba0a7b1a8803d4b8087b189803d4b7077b17a00382181003c9c807d89707d8c80882190803c94909c98909c9790999993f8217c003d297078218d003d29808d38203d8820bd8700a6404da3a0b8216c803d26903c93c00c9b0067b165803d8b000d83c0c8216d803d29606821b5003c96b06c9c606c90606c98208c9a803c97404821ca803821b8003d4bc07887701821a6803d87a08c97a0788ca01c9ab0b821a7003c98a0a95ccff7b1b80037b1a7003d4ab08646b7b1ca803d47c0ad4a8088499017b1978037b176803492160035208affe280b492178034921480301821a980398a73f8219a003979901d49707821b880398b93f97aa01d4a909821c900398ca3f97bb0197cc0182187803d4c80382184803d48a0ad4ba02d49800d4780b82143003280782143003017b13c0027b1b08027b1210027b101802821748026f70821750026f76821758026f72821720026f797b19e80268679578406807da080768989588406829da280995988000d4060adaa807d8980994a9d39408d8940a82132803d8730bda8b0a88a8019588ff9aacc99409c9b90bc973037b1ca0038ec78e89648cda870964b8883700018577018ebbdb8b07dba9078214e802d46409d4020ad4a909889901821a2003d4a909d497077b1048027b1650027b12580294707b109803947694729474520763088537ff00821aa003d4a707d4c80bd4b7078219c00251074f089539017b19a803889701c887077b178003d49707887701c8a7077b177003d8a707c8c7077b1778039a32ff009514ff07954460038217e8027847e1024624e0024624df024624de024624dd024624dc024624db024624da024624d9024624d8024624d7024624d6024624d5024624d4024624d3024624d2024624d1024624d0024624cf024624ce024624cd024624cc024624cb024624ca024624c9024624c8024624c7024624c6024624c5024624c4024624c3024624c2024624c102821858027848e9029879387b19d0017849e8029879307b19c8017849e7029879287b19c0017849e6029879207b19b8017849e5029879187b19b0017849e4029879107b19a8017849e3029877087b17a0017847e202821750027847f1029889387b1998017849f0029889307b1990017849ef029889287b1988017849ee029889207b1980017849ed029889187b1978017849ec029889107b1970017849eb029888087b1868017848ea02821048027840f9029878387b1860017848f8029878307b1858017848f7029878287b1850017848f6029878207b1848017848f5029878187b1840017848f4029878107b1858037848f3029877087b1750037847f2029807387b174803784700039807307b1718037847ff029807287b1710037847fe029807207b1708037847fd029807187b1700037847fc029807107b17f8027847fb029807087b1720027847fa0297283898883b9519ff0795994106c989097c98197c9a187c9b1a7c9c1b978808d4a80897bb1097cc18d4cb0bd4b8087c9a1d7c9b1c7c9c1e7c961f97aa08d4ba0a97cc10976618d46c0cd4ca0a97aa20d4a8087c9a117c9b107c9c127c961397aa08d4ba0a97cc10976618d46c0cd4ca0a7c9b157c9c147c96167c971797bb08d4cb0b976610977718d46707d4b707977720d4a703842707cf780b983c0185723fd02c0cd4cb0b7b1ba0037c9b097c9c087c960a7c980b97bb08d4cb0b976610978818d46808d4b8087c9b0d7c9c0c7c960e7c9a0f97bb08d4cb0b97661097aa18d46a0ad4ba0a97aa20d48a0b98b801857affd0a808cf730ad4a8087b1898037c98017c9a7c9c027c9603978808d4a80897cc10976618d46c0cd4c8087c9a057c9c047c96067c990797aa08d4ca0a821c7803976610979918d46909d4a909979920d49808988901d0290982167003cf7b0a821b8003d4a9097b198803d4cb09821aa803d46a0ad4a909cf78077b17900351097e0449216803492160038217d001784788028217c801784787028217c001784786028217b801784785028217b001784784028217a801784783028217a0017847820282179801784790028217900178478f028217880178478e028217800178478d028217780178478c028217700178478b028217680178478a02821760017847980282175801784797028217500178479602821748017847950282174001784794024624c0024624bf024624be024624bd024624bc024624bb024624ba024624b9024624b8024624b7024624b6024624b5024624b4024624b3024624b2024624b1024624b0024624af024624ae024624ad024624ac024624ab024624aa024624a9024624a8024624a7024624a6024624a5024624a4024624a3024624a2024624a1028217e80278478102821758027847890282175002784791027840990282175803784793028217500378479202821748037847a0028217180378479f028217100378479e028217080378479d028217000378479c028217f80278479b028217200278479a028216a80397673898773b9518ff079588e105c878087c87117c89107c8a127c8b13977708d4970797aa1097bb18d4ba0ad4a7077c89157c8a147c8b167c8c17979908d4a90997bb1097cc18d4cb0bd4b909979920d47902846907d092037c87197c8b187c861a7c8c1b977708d4b70797661097cc18d46c0cd4c7077c8b1d7c8c1c7c861e7c8a1f97bb08d4cb0b97661097aa18d46a0ad4ba0a97aa20d4a7077b17500397770185943fcf4707d473077b1758037c87097c8a087c8c0a7c860b977708d4a70797cc10976618d46c0cd4c7077c8a0d7c8c0c7c860e7c8b0f97aa08d4ca0a97661097bb18d46b0bd4ba0a97aa20d47a03d09307972201859affcfa20cd47c0c7c87017c8a7c8b027c8603977708d4a70797bb10976618d46b0bd4b7077c8a057c8b047c86067c880797aa08d4ba0a976610978818d46808d4a808978820d48707d09707973301cf4308821b6803d4870482175003d097028218c0038887018219d003c979077b171003d498078877018219c803c9790a7b1a0803d879078219d803c979097b1900039588ff7b18f8028218a003017b1b68034921180398473f97c601d4760697440198873fd4740b82171003d3670ad867098217f802d8b70764b47b1b4803dba9079722018213580398393fd492027b12500398cc3f973301d4c300978a018219980398983fd4a808979a01821b880398b93fd4a90997ba01821c900398cb3fd4ba0a97cb01821c6803d4cb0b7b1b9003821b6003d4ba0a7b1a8803d4b9097b199803d4b8087b18a00382190803c90908d87807d8090882190003c92909c98909c9790799773f8218c003d278088219d003d27909d3960ad8960bd88403daa30b821ac803d2a702c9200ac9ba0c7b1c5803d8ba04d8200a821cd803d27c0c821b5003c9cb0cc9ac0cc94c02c99606c9360c82194803c98904821ba80382168003d46b08888801821a7003d88a09c98a0888ba01c9a606821a7803c99a0a95bbff7b1680037b1a7803d4a6097b1ba803d48b0ad4a909847b017b1870038218a003492160035209a9fe280d330b492118038218a00301821a980398a73f978901d49707821c880398c93f97aa01d49a08821a900398a93f97cc0197aa01d4ab04821b1803d4b909d4c902d48b06d4b7077b1798038219c00228078219c002017b12a8037b1488037b1690038213c003d693078212d003ca9208c88707d88708d6920bc88b0b821a1002caa30cc8c7077b17a003d8c707d6a30cc8c707c8b707d8b70bd6a20cc8cb0bcaa20cc87c04d8c40cc8cb0b7b1b800382181802ca280cd63806c86c0c821b0802ca3b06c86c0c8210c803d609068217d803ca790bc86b0bca0a06c86b0bc8cb0bca380cca0906c8c606d8c60cc8cb0b82178003c87b0bc84606d84607c8b7078218d002c978087b188003ca930b821868028217a003d3780cd8780982146002d8b407dac709821af002d86a0cc96a06d8960ac8ca0a821c8003c9ac0a7b1ac002c996067b16d0028219a003c99808c978087b186802c9b4077b17600282168803d66307ca6208c88707d88708d66209c889098218a803ca830ac87a04d8a407d6830ac8a707c89707d89709d6820ac8a909ca820ac8a707d8a70ac8a90982189003ca280ad6380b6482c8ba0a82189803ca380bc8ba0ad6060b8218d803ca860cc8cb0b8218a803ca080cc8cb0bc8ba0aca320bca060cc8bc0cd8bc0bc8ba0ac8a909c87c0cd87c0782184802c97807c99702ca6309821a5802d34a07d84a0b8218e802d89806da760b82175002d8c703c9c70cd8bc07c83707c97207c9bc0cc96a0ac94a0ac998088219d002c8c909d8c90b821cc002c8c707c8b707821b6002c88b0bd88b0864bc821b6802c8ab0bc88b06d3a60bd8a60adab80ac8a900d89008c8870268286807957740db2807686868c964c4959940db6809d42008959a8000da8a07d89a099489821c2803d87c0a821b3003d39b03d89b08da3a08c99b0bc9ab03c97c0b88b900018599018e3adb3a09888c0195ccff9a877b1798038e7a8ec7daca07da8907d42608d40409d4980888880182192003d498086449d48707642894787b18a0037b10e80294707b10a803646494747b19f002649094707b1658027b12500252076a0864b885b7ff0082199803d49707d4c30bd4b70751075308648a9588017b18a803888701c837077b178003d48707887701c897077b177003d89707c8c7077b1778038219f00264289aa2ff009514ff0795446003784961024624600246245f0246245e0246245d0246245c0246245b0246245a024624590246245802462457024624560246245502462454024624530246245202462451024624500246244f0246244e0246244d0246244c0246244b0246244a02462449024624480246244702462446024624450246244402462443024624420246244102784669029897387b172002784768029897307b171802784767029897287b171002784766029897207b170802784765029897187b17d001784764029897107b17c801784763029897087b17c001784762028219e802784971029867387b17b801784770029867307b17b00178476f029867287b17a80178476e029867207b17a00178476d029867187b17980178476c029867107b17900178476b029866087b16880178466a02784879029897387b178001784778029897307b177801784777029897287b177001784776029897207b176801784775029897187b176001784774029897107b175803784773029897087b175003784772029887387b174803784780029887307b17180378477f029887287b17100378477e029887207b17080378477d029887187b17000378477c029887107b17f80278477b029888087b18480278487a0297283898883b9517ff079577c105c987087c89197c8a187c8b1a7c8c1b979908d4a90997bb1097cc18d4cb0bd4b9097c8a1d7c8b1c7c8c1e7c861f97aa08d4ba0a97cc10976618d46c0cd4ca0a97aa20d4a9097c8a117c8b107c8c127c861397aa08d4ba0a97cc10976618d46c0cd4ca0a7c8b157c8c147c86167c871797bb08d4cb0b976610977718d46707d4b707977720d4a703842707cf790b983c0185723fd02c0cd4cb0b7b1ba0037c8b097c8c087c860a7c890b97bb08d4cb0b976610979918d46909d4b9097c8b0d7c8c0c7c860e7c8a0f97bb08d4cb0b97661097aa18d46a0ad4ba0a97aa20d49a0c98c901857affd0a909cf730a82137003d4a9097b1998037c89017c8a7c8b027c8603979908d4a90997bb10976618d46b0bd4b9097c8a057c8b047c86067c880797aa08d4ba0a821b8003976610978818d46808d4a808978820d49808988901d02909cf7c0a821c7803d4a9097b198803d4cb09821aa803d43a0ad4a909cf78077b17900351097e04492168034921600382172002784708028217180278470702821710027847060282170802784705028217d001784704028217c801784703028217c001784702028217b801784710028217b00178470f028217a80178470e028217a00178470d028217980178470c028217900178470b028217880178470a02821780017847180282177801784717028217700178471602821768017847150282176001784714024624400246243f0246243e0246243d0246243c0246243b0246243a024624390246243802462437024624360246243502462434024624330246243202462431024624300246242f0246242e0246242d0246242c0246242b0246242a024624290246242802462427024624260246242502462424024624230246242202462421028217f0027847010282175802784709028217e8027847110282175002784719028217580378471302821750037847120282174803784720028217180378471f028217100378471e028217080378471d028217000378471c028217f80278471b028217480278471a028216a80397673898773b9518ff0795886105c887077c78117c79107c7a1264b27c7b13978808d4980897aa1097bb18d4ba0ad4a8087c79157c7a147c7b167c7c17979908d4a90997bb1097cc18d4cb0bd4b909979920d48904846607d064007c79197c7a187c7b1a7c7c1b979908d4a90997bb1097cc18d4cb0bd4b9097c7a1d7c7b1c7c7c1e7c781f97aa08d4ba0a97cc10978818d4c808d4a808978820d498087b18500397880185633fcf3808d480087b1858037c78097c79087c7a0a7c7b0b978808d4980897aa1097bb18d4ba0ad4a8087c790d7c7a0c7c7b0e7c7c0f979908d4a90997bb1097cc18d4cb0bd4b909979920d4890ad06a089744018569ffcf9409d498007c78017c797c7b027c7c03978808d4980897bb1097cc18d4cb0bd4b8087c79057c7b047c7c067c7707979908d4b90997cc10977718d4c707d49707977720d48707d0670797aa01cf3a08d4870382175003d067088219c003889701821ad003c97a077b171003d4a907887701821ac803c97a0b7b1b0803d87a07821ad803c97a0a7b1a00039599ff7b19f802017b12800349211803983a3f970601d4a606973301821ca00398ca3f6482d4a30882171003d3670ad867098217f802d8870b64837b184803dba90b9727018218580398893fd497047b14500398093f978801d4980a97c8018217980398793fd498009779018218880398873fd4970797890182129003982c3fd4c909972c0182186803d4c8087b18900382186003d489097b198803d487077b179803d408077b17a00382180803c9a807d8b707d8a80882190003c94909c98909c9790999993f821bc003d2b904821cd003d29c0cd3c600d8c608d84307da0708821bc803d2b900c90a02c982037b135803d88202d80a0a8218d803d29808821b5003c98b08c9a808c9280882128003c9c606c9760082174803c94703821ca803d42c07887701821b7003d87b0ac97b0788cb01c9b202821b7803c9ab0b95ccff7b1b7803d4b20a7b1ca803d47c0bd4ba0a8499017b1968037b17700349216003520aa7fe280b4921680349211803018219980398973f8218a003978801d48707821b880398b83f979901d4890982189003988a3f97bb01978801821c6803d48c00821c1803d4ca0ad4ba04d4c9097b19a803d4c7077b17a003821658028212500201821760028218f002d87807821c6802d3c60bd8c60cdab70c8217c002d3720bd872098217d0028218e802d87806dab609d37806d46b0bdabc097b1998038217c003d6070b8213d003ca030cc8cb0bd8cb0cd60306c8c606ca470cc8cb0b7b1b9003d8cb0cd64709c8c909c86909d8690cd64306c86c0cca4306c86909d86906c86c0c7b1c88038218a803ca3806d6780cc86c0c821ba003ca7b06c86c0c8212c803d62006821ad803caa00bc86b0bca240ac8ba0ac8ca0aca780bca200cc8bc0cd8bc0bc8ba0ac89c0cd89c0982188803c88a0ac8a9097b19a803ca070a7b1a88038216580282199003d39600d8960b8218f002d8a804da040b8218e802d8c80ac9c80cd8bc08c8a80882105002821aa803c9a00ac98a0a7b1aa003c9bc0c7b1c8003c99609c949087b18a803821bf002d87b0cd33609d83608da9c088219d803c99004821ae802d82a09c99404c92a09d8890ac9a402821a8803c9ab0ac98904c93609c9c900c97b0b8217980382188003da78048218a003da7802da7a0b7b1bf0028218a803da780068479578406827da2807d42408680968ba95aa40db090a95a98000da8907d8a9099489821c3003d39c06d89c0b82132803d8730ada6a0b88b6019566ff9ab8c99c0cc9ac0ac9730c7b18a0038e878e686463da670888c700018577018ea9dba907dbb8078216f002d44608d42009d4980888880182192003d49808d4780b7b12c00294b27b14e802644894b87b10d002640994b9646794b7520b500864c485cbff008216a003d46b0bd43a0cd4cb0b510b39089548017b18a803888701c8a7077b177803d48707887701c867077b177003d86707c837077b1780039a42ff009514ff07954460038217f0027847e1014624e0014624df014624de014624dd014624dc014624db014624da014624d9014624d8014624d7014624d6014624d5014624d4014624d3014624d2014624d1014624d0014624cf014624ce014624cd014624cc014624cb014624ca014624c9014624c8014624c7014624c6014624c5014624c4014624c3014624c2014624c1018218d0027848e9019879387b1960027849e8019879307b1958027849e7019879287b1950027849e6019879207b1948027849e5019879187b1920027849e4019879107b1918027849e3019877087b1710027847e2018217e8027847f1019889387b1908027849f0019889307b19d0017849ef019889287b19c8017849ee019889207b19c0017849ed019889187b19b8017849ec019889107b19b0017849eb019888087b18a8017848ea018210c0027840f9019878387b18a0017848f8019878307b1898017848f7019878287b1890017848f6019878207b1888017848f5019878187b1880017848f4019878107b1858037848f3019877087b1750037847f2019807387b174803784700029807307b1718037847ff019807287b1710037847fe019807207b1708037847fd019807187b1700037847fc019807107b17f8027847fb019807087b1768027847fa0197283898883b9517ff0795774105c987087c89197c8a187c8b1a7c8c1b979908d4a90997bb1097cc18d4cb0bd4b9097c8a1d7c8b1c7c8c1e7c861f97aa08d4ba0a97cc10976618d46c0cd4ca0a97aa20d4a9097c8a117c8b107c8c127c861397aa08d4ba0a97cc10976618d46c0cd4ca0a7c8b157c8c147c86167c871797bb08d4cb0b976610977718d46707d4b707977720d4a703842707cf790b983c0185723fd02c0cd4cb0b7b1ba0037c8b097c8c087c860a7c890b97bb08d4cb0b976610979918d46909d4b9097c8b0d7c8c0c7c860e7c8a0f97bb08d4cb0b97661097aa18d46a0ad4ba0a97aa20d49a06986901857affd0a909cf730ad4a9097b1998037c89017c8a7c8b027c8c03979908d4a90997bb1097cc18d4cb0bd4b9097c8a057c8b047c8c067c880797aa08d4ba0a821b780397cc10978818d4c808d4a808978820d49808988901d0290982127003cf760a821c8003d4a9097b198803d4cb09821aa803d42a0ad4a909cf78077b179003510976044921680349216003821760027847880182175802784787018217500278478601821748027847850182172002784784018217180278478301821710027847820182170802784790018217d00178478f018217c80178478e018217c00178478d018217b80178478c018217b00178478b018217a80178478a018217a0017847980182179801784797018217900178479601821788017847950182178001784794014624c0014624bf014624be014624bd014624bc014624bb014624ba014624b9014624b8014624b7014624b6014624b5014624b4014624b3014624b2014624b1014624b0014624af014624ae014624ad014624ac014624ab014624aa014624a9014624a8014624a7014624a6014624a5014624a4014624a3014624a2014624a1018217f002784781018217d002784789018217e802784791017840990182175803784793018217500378479201821748037847a0018217180378479f018217100378479e018217080378479d018217000378479c018217f80278479b018217680278479a018216a80397673898773b9518ff079588e104c887077c78117c79107c7a127c7b13978808d4980897aa1097bb18d4ba0ad4a8087c79157c7a147c7b167c7c17979908d4a90997bb1097cc18d4cb0bd4b909979920d48902846807d082037c79197c7b187c761a7c7a1b979908d4b90997661097aa18d46a0ad4a9097c7a1d7c7b1c7c761e7c7c1f97aa08d4ba0a97661097cc18d46c0cd4ca0a97aa20d49a04974a0185803fcf0a0ad4a3097b1958037c7a097c7b087c7c0a7c790b97aa08d4ba0a97cc10979918d4c909d4a9097c7a0d7c7b0c7c7c0e7c760f97aa08d4ba0a97cc10976618d46c0cd4ca0a97aa20d49a03d08309972201858affcfa20ad4a9027c79017c7b7c76027c7c03979908d4b90997661097cc18d46c0cd4c9097c7b057c7c047c76067c770797bb08d4cb0b821c6803976610977718d46707d4b707977720d49707d08707973301cf0309d4970ad084048218c0038887018219d003c979077b171003d498078877018219c803c9790b7b1b0803d879078219d803c979097b1900039588ff7b18f8028216a003017b1c68034921180398a73f972901d4790397aa0198693fd4a9097b19500382171003d3370bd837088217f802d8970cdbb80c974401642a8212580398283fd484007b10480398aa3f972201d4a204976b018217980398763fd46b0b9776018217880398783fd468089776018217900398793fd4690997760182176803d467077b179003821a6003d4a9097b198803d4a8087b189803d4ba0a7b1aa00382170803c94708d8c808d8470982170003c9070bc99b0bc98b0b99bc3f8218c003d28c008219d003d2c909d3930bd8930682185003d80802dab206821bc803d2cb0bc9b407c9670a7b1a5803d8670ad8b40b8216d803d2c60682174803c96706c9b606c9a604c99307c92702c9080a821ba80382187803d48b0788770182197003d87906c9790788b901c9980882198003c969098216a00395bbff7b1980037b187803d498087b1ba803d47b09d4980884cc017b177003492160035208a9fe280d330c492118038216a003018219980398973f976801d4780a821b880398b73f979801d478088217900398793f97bb01977701d4c707821c1803d4c909d4b909d4c808d4ac02017b1898037b12a0038212c8038e2a8213d8038e30da3a008214c003d6740a8218d003ca780bc8ba0ad8ba0bd6780cc8bc0cca940bc8ba0a7b1aa803d8ba0bd69406c86b0bc8cb0bd8cb0cd69806c86c0cca9806c86b0bd86b06c86c0c7b1c9003821a9803ca8a08d64a0cc88c0c8218a003ca4806c86c0cd62706ca3708c86808ca2909c89808c8c808ca4a09ca270cc89c0cd89c09c89808c8bc0cd8bc09821a9003c8a808c89808ca74078219c002c989028214d0028218a803d38409d8840b6483821af002d87a06da960b8218e802d8c809c9c80cd8bc08c89808c98202c9bc0cc93408c968068218d8019380c97a047b1068027b14f0027b12e8027b1cf8027b16c002ca4607d64408c87808d87809d6460ac8a909c878085200fe087b18d002d87807c8a707c89707ca6608c8780acac40b7b1ba003c8bb0bc8ba03d8a3007b10a803d88a08d89707d66609c89707c88707cac608d6c409c8890aca2406c86a0ac89808c86808c8a8088219a003d89b09c898088219a803c89707c87808ca44077b176802647a68896837957740db8907d4830b821cd00268c968aa95aa40dbc90a95a98000dab907d8a90994b982162803d87602821a3003d39a0bd89a0cdab20c88cb0195bbff7b1ba0039ac0c9760bc99a06648a7b185802c926068212a0038e677b1b980388b80001858801db67088e078e29da2709dac809821bd002d4ab07821c6802d43c08d4870788770182182003d48707d49707947a7b1360026438947864b99479947c51070628f91c821398038537ff00d40707d4260bd4b70752070628e21c9538017b18a803888701c867077b178003d48707887701c807077b177003d80707c827077b1778039a32ff00821768027817c0064621bf064621be064621bd064621bc064621bb064621ba064621b9064621b8064621b7064621b6064621b5064621b4064621b3064621b2064621b1064621b0064621af064621ae064621ad064621ac064621ab064621aa064621a9064621a8064621a7064621a6064621a5064621a4064621a3064621a2064621a1064621a0068218d0027818c8069879387b1920027819c7069879307b1918027819c6069879287b1910027819c5069879207b1908027819c4069879187b19d0017819c3069879107b19c8017819c2069877087b17c0017817c106821060027810d0069887387b17b8017817cf069887307b17b0017817ce069887287b17a8017817cd069887207b17a0017817cc069887187b1798017817cb069887107b1790017817ca069888087b1888017818c906821458027814d8069807387b1780017817d7069807307b1778017817d6069807287b1770017817d5069807207b1768017817d4069807187b1760017817d3069807107b1758037817d2069807087b1750037817d1069847387b1748037817df069847307b1718037817de069847287b1710037817dd069847207b1708037817dc069847187b1700037817db069847107b1750027817da069847087b1748027817d90697273898773b9519c006c979097c97197c9a187c9b1a7c9c1b977708d4a70797bb1097cc18d4cb0bd4b7077c9a1d7c9b1c7c9c1e7c961f97aa08d4ba0a97cc10976618d46c0cd4ca0a97aa20d47a0a7c97117c9b107c9c127c9613977708d4b70797cc10976618d46c0cd4c7077c9b157c9c147c96167c981797bb08d4cb0b976610978818d46808d4b808978820d47803842807cf8a07983c0185823fd02c0cd4c7077b17a0037c97097c9c087c960a7c9a0b977708d4c70797661097aa18d46a0ad4a7077c9a0d7c9c0c7c960e7c9b0f97aa08d4ca0a97661097bb18d46b0bd4ba0a97aa20d47a06986701858affd0a707cf830ad4a7077b1798037c97017c9a7c9b027c9c03977708d4a70797bb1097cc18d4cb0bd4b7077c9a057c9b047c9c067c990797aa08d4ba0a97cc10979918d4c909821c7803d4a909979920d49707987901d0290982127003cf860a821b8003d4a9097b198803d4cb09821aa803d42a0ad4a909cf87077b179003520906282319492168034921600382172002781767068217180278176606821710027817650682170802781764068217d001781763068217c801781762068217c001781761068217b80178176f068217b00178176e068217a80178176d068217a00178176c068217980178176b068217900178176a0682178801781769068217800178177706821778017817760682177001781775068217680178177406821760017817730646219f0646219e0646219d0646219c0646219b0646219a064621990646219806462197064621960646219506462194064621930646219206462191064621900646218f0646218e0646218d0646218c0646218b0646218a064621890646218806462187064621860646218506462184064621830646218206462181064621800682176802781760068217d002781768067810700678147806821758037817720682175003781771068217480378177f068217180378177e068217100378177d068217080378177c068217000378177b068217500278177a0682174802781779068216a80397673898773b95186006c878087c87117c89107c8a127c8b13977708d4970797aa1097bb18d4ba0ad4a7077c89157c8a147c8b167c8c17979908d4a90997bb1097cc18d4cb0bd4b909979920d47902846a07d0a2037c8b197c8c187c861a7c891b97bb08d4cb0b976610979918d46909d4b9097c8b1d7c8c1c7c861e7c871f97bb08d4cb0b976610977718d46707d4b707977720d4970497470185a03fcf0707d473077b1758037c87097c89087c8b0a7c8c0b977708d4970797bb1097cc18d4cb0bd4b7077c890d7c8b0c7c8c0e7c860f979908d4b90997cc10976618d46c0cd4c909979920d47903d0a30997220185abffcfb20bd4b9097c8b017c8c7c86027c870397bb08d4cb0b976610977718d46707d4b7077c8b057c8c047c86067c880797bb08d4cb0b976610978818d46808d4b808978820d48707d0a707973301cf0308d48702d0a403821ac00388a7018218d003c978077b171803d48a078877018218c803c9780c7b1c1003d878078218d803c978087b18080395aaff7b1a0003821a8803014921480398273f979601d47606972201821ca00398c73fd4720482171803d3670bd8670882170003d84707dbb8079733018210580398083fd483027b12500398993f970001d4900397cc0182189803988b3fd4bc00978c0198a83fd4c80897ab01821c900398ca3fd4ba0a97cc0182196803d4c9097b19900382196003d49a0a7b1a8803d498087b189803d409087b18a00382191003c93908d87807d8390882190803c9290ac98a0ac97a07997a3f8217c003d27a028218d003d2a808d3860bd8860cd82400dab00c821bc803d2ab0bc9b307c9c7097b195803d8c709d8b30b821cd803d2ac0c82175003c9c70cc9bc0cc99c03c98606c90609c92402821ca80382168003d46c08888801821b7003d88b07c98b0888cb01c9b606821b7803c97b0b95ccff7b1680037b1b7803d4b6067b1ca803d48c0bd4b60684aa017b1a6803821a88037b187003492160035206b3fe28d3147b189003d87807c8a707c89707ca6608c8780bd88b08d89707d66609c89707c88703d64c07ca4208c8780a64727b1a9803ca6c06c86a0aca4c0cc8bc00d8c007c87303c83a09d3a903d8a90bda370b7b1ba003c86202c82807c80c0b7b1ba803d8cb0cc8c70bc89b0bd37b097b1b8803d87b0bda9c0b82199803d88904d86a09d8620c821af8028216c002d66a0ac8a909c8ca0a8213e802821cf002d6c30cc8c404c84909d88707ca6308c87c02c8980cd84909d66306c86909d88c07c897078210a003c8c000c8a202d8c009c89707c82809c89b0bd8890cd89b09c80b0bd80b087b189803d8a20ac86a0ac8ca0ac8a909c87909c889098218f802ca8306d6880cc8c604c8460aca8802648cc82b0b7b1ba003d82b08c88a0bc89b02d3a200d8a20bda080bd37908d8790782199803da8907d86408d6c309c88904d86a0ac8a909c89408ca330cc88c09c89707c8b70ad8c90bd89709d87a00d84807d63308c88707c8b707c89707c80704642c64a2821ac803d8a2078219d003d3c908d89c09821bc0038216a003d8b60bdb890b8219d803d34908d89409da8709d32a07d48707db790b8217e0019776398570ff7b1050027b164802510bbc0b951aff0795aa6003821b900378abe90098b7387b17980398b7307b1780038218380198883f8217a8038219a003da8907db890298b9287b1950038213880378a3f90098b9207b19480398b9187b19000398b9107b19d00298b9087b192002da830b9839387b19a0039839307b1990039839287b1978039839207b1970039839187b1968039839107b1960039839087b195803da8c03db8c0498663f640c64b0da6700da6307db6204db63028219f002ca990978a9e10064a3989a387b1a8803989a307b1a1802989a287b1a1002989a207b1a0802989a187b1ad001989a107b1ac801989a087b1ac001821aa803da8a09da6b09980801d0c808821be001cfb706d48606cfb4086434982a01d0ca0ad4a803cfb008989901d0c909d489097b191003cfb208987701d0c707d478028217b80368779577408210b0036808da070868979579407b1618036867db67096827957740683adb3a07959a8000d89a09d4320cdaca0794c9958a8000d88a06d87a0bd3960cd89608dacb087b166002c99606c9b6068889019599ff9a8b7b1be0008ebc8e9b7b19f000da9c0b7b1a5802c97a0a7b1ad80088a700018577018e6c7b16e800db6c07db8b07821888037848e800821818027848e700821810027848e600821808027848e5008218d0017848e4008218c8017848e3008218c0017848e200821898037848f000821880037848ef00821850037848ee00821848037848ed00821800037848ec008218d0027848eb00821820027848ea008219a8039898387848f8009898307848f7009898287848f6009898207848f5009898187848f4009898107848f3007849f1009898087848f2008218a00378480001821890037848ff00821878037848fe00821870037848fd00821868037848fc00821860037848fb00821858037848fa0082161803d4360882191003d4290bd4b808821ab803d40a0b88bc01888801d48c0bd47b0b4624e0004624df004624de004624dd004624dc004624db004624da004624d9004624d8004624d7004624d6004624d5004624d4004624d3004624d2004624d1004624d0004624cf004624ce004624cd004624cc004624cb004624ca004624c9004624c8004624c7004624c6004624c5004624c4004624c3004624c2004624c1008217f0019518ff0795884104c978077b1208037c78187b1818017c78197b18f8007c781a7b1808017c781b7b1800017c781c7b1830017c781d7b1810017c781e7b1828017c781f7b1820017c78107b1860017c78117b1840017c78127b1850017c78137b1848017c78147b1878017c78157b1858017c78167b1870017c78177b1868017c78087b18a0017c78097b1880017c780a7b1890017c780b7b1888017c780c7b18b8017c780d7b1898017c780e7b18b0017c780f7b18a8017c787b1808027c78017b18c0017c78027b18d0017c78037b18c8017c78047b18d0027c78057b1810027c78067c70077b13000394b37b13880394b27b12a803646394b3649a94ba64a27b1c20027b181802510b062872248219d800859bff008216e000d46b0b8214f000821ae800d44a0cd4cb0b520b06284f247b10d0009598017b18a803888701c8a7077b178803d48707887701c867077b177803d86707c847077b178003821818039a92ff009510ff0795006003821410037804a1004620a00046209f0046209e0046209d0046209c0046209b0046209a004620990046209800462097004620960046209500462094004620930046209200462091004620900046208f0046208e0046208d0046208c0046208b0046208a004620890046208800462087004620860046208500462084004620830046208200462081007808a9009847387b17b8007807a8009847307b17b0007807a7009847287b17a8007807a6009847207b17a0007807a5009847187b1798007807a4009847107b1790007807a3009847087b1788007807a200821708037807b1009889387b1980007809b0009889307b19787809af009889287b19707809ae009889207b19687809ad009889187b19607809ac009889107b19587809ab009888087b18507808aa00821900037809b9009878387b18487808b8009878307b18407808b7009878287b18387808b6009878207b18307808b5009878187b18287808b4009878107b1858037808b3009877087b1750037807b2009897387b1748037807c0009897307b17f0007807bf009897287b17e8007807be009897207b17e0007807bd009897187b17d8007807bc009897107b17c8007807bb009897087b17c0007807ba0097283898883b9517ff0795770104c987087c89197c8a187c8b1a7c8c1b979908d4a90997bb1097cc18d4cb0bd4b9097c8a1d7c8b1c7c8c1e7c861f97aa08d4ba0a97cc10976618d46c0cd4ca0a97aa20d4a9097c8a117c8b107c8c127c861397aa08d4ba0a97cc10976618d46c0cd4ca0a7c8b157c8c147c86167c871797bb08d4cb0b976610977718d46707d4b707977720d4a703842707cf790b983c0185723fd02c0cd4cb0b7b1ba0037c8b097c8c087c860a7c890b97bb08d4cb0b976610979918d46909d4b9097c8b0d7c8c0c7c860e7c8a0f97bb08d4cb0b97661097aa18d46a0ad4ba0a97aa20d49a0b98b901857affd0a909cf730ad4a9097b1998037c89017c8a7c8c027c8603979908d4a90997cc10976618d46c0cd4c9097c8a057c8c047c86067c880797aa08d4ca0a976610978818d46808821c8803d4a808978820d49808988901d0290982167803cf7b0a821b8003d4a9097b199003d4bc09821aa803d46a0ad4a909cf78077b176803520906288a2049217003492160038218b8007808488218b0007808478218a8007808468218a0007808458218980078084482189000780843821888007808428218800078085082187878084f82187078084e82186878084d82186078084c82185878084b82185078084a8218487808588218407808578218387808568218307808558218287808544620800046107f46107e46107d46107c46107b46107a46107946107846107746107646107546107446107346107246107146107046106f46106e46106d46106c46106b46106a4610694610684610674610664610654610644610634610624610617804418217180378074982170803780751821700037807598217580378075382175003780752821748037807608217f00078075f8217e80078075e8217e00078075d8217d80078075c8217c80078075b8217c00078075a8216a80397673898773b9518ff079588a103c887077c78117c79107c7a127c7b13978808d4980897aa1097bb18d4ba0ad4a8087c79157c7a147c7b167c7c17979908d4a90997bb1097cc18d4cb0bd4b909979920d48900846307d030027c79197c7a187c7c1a7c7b1b979908d4a90997cc1097bb18d4cb0bd4b9097c7a1d7c7b1c7c7c1e7c761f97aa08d4ba0a97cc10976618d46c0cd4ca0a97aa20d49a04974b0185393fcf9b0bd4b2027c7b097c7c087c760a7c7a0b97bb08d4cb0b97661097aa18d46a0ad4ba0a7c7b0d7c7c0c7c760e7c780f97bb08d4cb0b976610978818d46808d4b808978820d4a806d03608970001853affcfa00bd48b0b7c78017c7a7c7c027c7003978808d4a80897cc10970018d4c00ad48a007c7a057c7c047c78067c770797aa08d4ca0a978810977718d48707d4a707977720d40707d03707976601cf9608d48700d034038218b8038887018219b003c979077b175803d498078e779577ff7b1750039588ff7b18480301980a3f97bc01d4ca0a9700018216a003986c3fd4c00082185803d3a807d8a80882194803d8090cdb780c97330198273fd4730398bb3f972201d4b20b9767018218980398893fd497029789018217900398783fd498089779018216680398673fd4970797690182167003d469097b19680382196003d497077b179003d498087b189803d429077b17a00382195003c9b907d8c707d8b908c93909c98909c97909999c3f8217b803d2c7078218b003d2c808d38a02d88a06d87009da2906c96b02d86b0bc9b303c98a0ac99a0bc97000821aa80382168803d46a0788770182197803d87908c9790788a901c9960682198003c9890995aaff7b1688037b198003d496087b1aa803d47a09d4980884cc017b1c70037b177803492160035208e5fe28c11c821b30038eb7821a280388a80001858801dbb70882192003d489099597ff8e989588ff51090628881c85a9ff00d4b90a6483648c8214d803520a0628cd29821828039a83ff009510ff079500600346206101ff4620600146205f0146205e0146205d0146205c0146205b0146205a014620590146205801462057014620560146205501462054014620530146205201462051014620500146204f0146204e0146204d0146204c0146204b0146204a0146204901462048014620470146204601462045014620440146204301462042014620410146206901ff46206801ff0046206701ffff0046206601ffffff00140bffffffff00000000780b6501140cffffffffff000000780c64011407ffffffffffff0000780763011402ffffffffffffff007802620146207101ff46207001ff0046206f01ffff0046206e01ffffff00780b6d01780c6c0178076b0178026a0146207901ff46207801ff0046207701ffff0046207601ffffff00780b7501780c7401780773017802720149218803ff0046208001ff0049216803ffff0046207f01ffff0049216003ffffff0046207e01ffffff007b1b5803780b7d017b1c5003780c7c017b17480378077b0178027a0197393898993b9517ff079577c104c997097c9a197c9b187c9c1a7c961b97aa08d4ba0a97cc10976618d46c0cd4ca0a7c9b1d7c9c1c7c961e7c971f97bb08d4cb0b976610977718d46707d4b707977720d47a0a7c97117c9b107c9c127c9613977708d4b70797cc10976618d46c0cd4c7077c9b157c9c147c96167c981797bb08d4cb0b976610978818d46808d4b808978820d47804843807cf8a07984c0185833fd03c0cd4c7077b17a8037c97097c9c087c960a7c9a0b977708d4c70797661097aa18d46a0ad4a7077c9a0d7c9c0c7c960e7c9b0f97aa08d4ca0a97661097bb18d46b0bd4ba0a97aa20d47a0c98c701858affd0a707cf840ad4a7077b1790037c97017c9a7c9b027c9603977708d4a70797bb10976618d46b0bd4b7077c9a057c9b047c96067c990797aa08d4ba0a976610979918d46909d4a909979920d49707987901d03909cf8c0ad4a9097b19a003821b280395b301883901821a3003c89a06d46309889a01d4a909cf87077b179803520906288a264921d00249217803492180034620400146203f0146203e0146203d0146203c0146203b0146203a014620390146203801462037014620360146203501462034014620330146203201462031014620300146202f0146202e0146202d0146202c0146202b0146202a0146202901462028014620270146202601462025014620240146202301462022014620210146200101ff46200901ff82188803780808018219680378090701821c6003780c06017b1a7003821a5803780a05018214500378040401821b4803780b03017802020146201101ff7808100178090f01780c0e01780a0d0178040c01780b0b0178020a0146201901ff7808180178091701780c1601780a150178041401780b1301780212017808200178091f01780c1e01780a1d0178041c01780b1b0178021a0197373898773b9518ff0795886104c878087c87117c891064607c8a127c8b13977708d4970797aa1097bb18d4ba0ad4a7077c89157c8a147c8b167c8c17979908d4a90997bb1097cc18d4cb0bd4b909979920d479027b138803843a077c87197c8b187c8c1a7c861b977708d4b70797cc109766187c8b1dd46c0cd4c7077c8c1c97bb087c861e7c891fd4cb0bd0a20c976610979918d46909d4b909979920d4790397370185a93f7b196003cf9707d4c7077b1768037c87097c89087c8b0a7c8c0b977708d4970797bb1097cc18d4cb0bd4b7077c890d7c8b0c7c8c0e7c860f979908d4b90997cc10976618d46c0cd4c909979920d4790497220185a7ffcf7207d0a409d479097c87017c8b7c8c027c8603977708d4b70797cc10976618d46c0cd4c7077c8b057c8c047c86067c880797bb08d4cb0b821cd002976610978818d46808d4b808978820d48707d0a70797440182186003cf8406d47606d0a303821ac00388a7018218d003c978077b171803d48a078877018218c803c9780b7b1b1003d878078218d803c978087b18080395aaff7b1a0003017b1060034921480398683f64c0979c01d4c808976601821aa80398ac3fd4c60482171803d38702d8870b82170003d8470c7b145003db2b0c97330182176803987b3fd4b3027b12580398993f977701d4790997a701821a900398ab3fd4b70797a601821ba00398ba3fd46a0a97bb018216980398633fd43b0b976601d460067b16980382167803d46b0b7b1ba003d46a0a7b1a9003d467077b17a803821a1003c99a07d8c707d89a0a821b0803c92b0bc9ab0bc97b0b99bc3f821bc003d2bc008216d003d2c606d36803d8680ad80407da370a821bc803d2bc03c93904c9a4027b126803d8a404d83909821ad803d2ca0a821b5803c9ab0ac99a0ac94a03c96808c9780982175003c9070682106003821a8803d40a07887701821b7003d87b08c97b0788ab01c9b000821b8003c98b0b95aaff7b1b8003d4b0087b1a8803d47a0bd4b80884cc017b177003492178035208b1fe2878224921680349214803821a8803018219980398973f8218a003978801d4870798a83f979901d49808821c900398c93f97aa0197cc01821b6803d4bc0c821b4803d4b909d4a909d4b808d47b0a017b1aa8038213c003d6c3078210d003cac00ac8a707d8a70ad6c00bc8ba0aca930bc87b04d8b40bd69306c86b0bc8ab0bd8ab0ad69006c86a0aca9006c86b0bd86b06c86a02ca0806d6380ac86a0a8217a803ca3706c86a00821ac803d6ac068217d803ca7c07c86707caa909c89707c80707caac09ca3808c88909d88908c88707c8b909d8b908c82707c88707cac308821a5802c97a028217d002d34706d8470b821a6802d88a0cda6c0b82166002d89603c99606d8b609c83909c99203c9b602c94707c9c707c98a0601ca6708d66609c88909d8890ad6670bc8ba0ac89800d88008c8b808c8a808ca7709c8890bca2604c8440cd8a808d6770ac8a808643ac8cb03d89b09d8b30b7b1ba803c89808ca2707d62609c8790bcaa60ac8ab0bc89707c8a707c8b707d84c09c897078219a803c89808c87802ca660a7b1ad00268286837957740db2807d42308680968aa95aa40db090a95a98000da8907d8a9099489821c2803d87c08821a3003d39a0bd89a06dab806886b0195b4ff9a6bc97c07c99a0c647ac98c0c8ec788a80001858801dbc7088eb78e49da4709da6809d420078216d002d43608d4870788770182182003d487077b125802d49707642894787b13600294737b10680264099479947652072e0885a7ff0064b2d4b707d44c0bd4b70751071b0895a8017b18a803888701c8c7077b177803d48707887701c827077b177003d82707c847077b1780039aa2ff008217d0027817400646213f0646213e0646213d0646213c0646213b0646213a064621390646213806462137064621360646213506462134064621330646213206462131064621300646212f0646212e0646212d0646212c0646212b0646212a064621290646212806462127064621260646212506462124064621230646212206462121064621200682186802781848069879387b192002781947069879307b191802781946069879287b191002781945069879207b190802781944069879187b19d001781943069879107b19c801781942069877087b17c0017817410682106002781050069887387b17b80178174f069887307b17b00178174e069887287b17a80178174d069887207b17a00178174c069887187b17980178174b069887107b17900178174a069888087b1888017818490682145802781458069807387b178001781757069807307b177801781756069807287b177001781755069807207b176801781754069807187b176001781753069807107b175803781752069807087b175003781751069847387b17480378175f069847307b17180378175e069847287b17100378175d069847207b17080378175c069847187b17000378175b069847107b17500278175a069847087b1748027817590697273898773b95194006c979097c97197c9a187c9b1a7c9c1b977708d4a70797bb1097cc18d4cb0bd4b7077c9a1d7c9b1c7c9c1e7c961f97aa08d4ba0a97cc10976618d46c0cd4ca0a97aa20d47a0a7c97117c9b107c9c127c9613977708d4b70797cc10976618d46c0cd4c7077c9b157c9c147c96167c981797bb08d4cb0b976610978818d46808d4b808978820d47803842807cf8a07983c0185823fd02c0cd4c7077b17a0037c97097c9c087c960a7c9a0b977708d4c70797661097aa18d46a0ad4a7077c9a0d7c9c0c7c960e7c9b0f97aa08d4ca0a97661097bb18d46b0bd4ba0a97aa20d47a06986701858affd0a707cf830ad4a7077b1798037c97017c9a7c9b027c9c03977708d4a70797bb1097cc18d4cb0bd4b7077c9a057c9b047c9c067c990797aa08d4ba0a821b800397cc10979918d4c909821c7803d4a909979920d49707987901d0290982127003cf860ad4a9097b198803d4bc09821aa803d42a0ad4a909cf87077b179003510964044921680349216003821720027817e705821718027817e605821710027817e505821708027817e4058217d0017817e3058217c8017817e2058217c0017817e1058217b8017817ef058217b0017817ee058217a8017817ed058217a0017817ec05821798017817eb05821790017817ea05821788017817e905821780017817f705821778017817f605821770017817f505821768017817f405821760017817f30546211f0646211e0646211d0646211c0646211b0646211a064621190646211806462117064621160646211506462114064621130646211206462111064621100646210f0646210e0646210d0646210c0646210b0646210a06462109064621080646210706462106064621050646210406462103064621020646210106462100068217d0027817e005821768027817e8057810f0057814f805821758037817f205821750037817f105821748037817ff05821718037817fe05821710037817fd05821708037817fc05821700037817fb05821750027817fa05821748027817f9058216a80397673898773b9518e005c878087c87117c89107c8a127c8b13977708d4970797aa1097bb18d4ba0ad4a7077c89157c8a147c8b167c8c17979908d4a90997bb1097cc18d4cb0bd4b909979920d47902846a07d0a2037c87197c8b187c861a7c891b977708d4b707976610979918d46909d497077c891d7c8b1c7c861e7c8c1f979908d4b90997661097cc18d46c0cd4c909979920d4790497470185a03fcf0707d473077b1758037c87097c89087c8c0a7c8b0b977708d4970797cc1097bb18d4cb0bd4b7077c890d7c8b0c7c8c0e7c860f979908d4b90997cc10976618d46c0cd4c909979920d47903d0a30797220185a9ffcf9209d479097c87017c8b7c86027c8c03977708d4b70797661097cc18d46c0cd4c7077c8b057c8c047c86067c880797bb08d4cb0b976610978818d4680882166803d4b808978820d48707d0a707973301cf0308d48702d0a4038218c003888701821ad003c97a077b171803d4a807887701821ac803c97a0b7b1b1003d87a07821ad803c97a0a7b1a08039588ff7b180003821ba003017b16680349214803982a3f979601d4a60697220198ba3fd4a20482181803d36807d86808821a0003d84a0cdb780c9733018210580398073fd473027b12500398993f970001d4900397b70182189803988b3fd4b707978b018219880398983fd4b808979b0182199003989a3fd4ba0a979b0182196803d4b9097b19900382196003d49a0a7b1a8803d498087b189803d497077b17a00382181003c93807d8c707d8380882190803c9290ac98a0ac97a0a99ac3f8217c003d27c028218d003d2c808d3860ad8860bd82400daa00b821ac803d2ca0ac9a307c9b7097b195803d8b709d8a30a821bd803d2cb0b82175003c9b70bc9ab0bc99b03c98606c90609c92402821ba80382187803d48b07887701821a7003d87a06c97a0788ba01c9a808821a8003c96a0a95bbff7b1a80037b187803d4a8087b1ba803d47b0a821ba003d4a80884c6017b177003492160035208b3fe280d330649214803821ba003018219980398973f97b801d48707821a880398a83f979901d49808821c900398c93f97aa0197cc01d4c606821b4803d4b909d4a909d48b03d47b08017b18a8038212c003d662078218d003ca680ac8a707d8a70ad6680bc8ba0aca920cc87c04d8c407d6920cc8c707c8a707d8a70ad6980cc8ca0aca980cc8c707d8c70cc8ca00ca830cd6230ac8ca0a8218a803ca280cc8ca08821ac803d6a60c821bd803cab60bc8cb0bcaa909c8b909c88909ca2308caa60ac88a0ad88a08c89808c88000c8a708d87807c8070782195802c97903ca620082176802d3470ad8470b8219d002d8090cdaac0b821a6002d88a02c98a0ad8ba06c86208c98306c9ba0ac94708c9c804c909038218c002ca8a098217f002d67a0bc8b909ca7602821bf802d6b30c8216e802ca6306c86c0ccab406c86c0cc89c0cca7a0acab309c8a909d8a90ac8ca0ac82a00d6370bca380cc8cb0bca4706c8b602d86206d6470ac86a0ad8cb0bd6380cc8bc06c8a60bca480cc8bc0ad8ca0cd86b0bd64808c8b808c8c808c89a04d8a409c89808c88000ca370a7b1ac00268086847957740db0807d404087b12d002682968aa95aa40db290a95a98000da8907d8a90a948a821c2803d87c0882193003d3a90bd8a906dab806886b0195bbff7b1ba0039a62c97c0bc9a90c64438214a0037b13e802c98c0c8ec77b1b980388b80001858801dbc7087b1290038e278e4ada470ada680a821bd002d40b078216c002d43608d4870788770182182003d487077b106802d4a70764099479947364ba947a947652073a08821298038527ff0082109003d40707d44c0bd4b707510721089528017b18a803888701c8c7077b177803d48707887701c807077b177003d80707c847077b1780039a22ff008217c0027817c0054621bf054621be054621bd054621bc054621bb054621ba054621b9054621b8054621b7054621b6054621b5054621b4054621b3054621b2054621b1054621b0054621af054621ae054621ad054621ac054621ab054621aa054621a9054621a8054621a7054621a6054621a5054621a4054621a3054621a2054621a1054621a0058218d0027818c8059879387b1960027819c7059879307b1958027819c6059879287b1950027819c5059879207b1948027819c4059879187b1920027819c3059879107b1918027819c2059877087b1710027817c1058210e8027810d0059887387b1708027817cf059887307b17d0017817ce059887287b17c8017817cd059887207b17c0017817cc059887187b17b8017817cb059887107b17b0017817ca059888087b18a8017818c905821468027814d8059807387b17a0017817d7059807307b1798017817d6059807287b1790017817d5059807207b1788017817d4059807187b1780017817d3059807107b1758037817d2059807087b1750037817d1059847387b1748037817df059847307b1718037817de059847287b1710037817dd059847207b1708037817dc059847187b1700037817db059847107b17f8027817da059847087b17f0027817d90597273898773b951ac005c97a0a7ca7197ca9187cab1a7cac1b977708d4970797bb1097cc18d4cb0bd4b7077ca91d7cab1c7cac1e7ca61f979908d4b90997cc10976618d46c0cd4c909979920d479097ca7117cab107cac127ca613977708d4b70797cc10976618d46c0cd4c7077cab157cac147ca6167ca81797bb08d4cb0b976610978818d46808d4b808978820d47803842807cf8907983c0185823fd02c0cd4c7077b17a0037ca7097cac087ca60a7ca90b977708d4c707976610979918d46909d497077ca90d7cac0c7ca60e7cab0f979908d4c90997661097bb18d46b0bd4b909979920d479069867018589ffd09707cf8309d497077b1798037ca7017ca97cab027cac03977708d4970797bb1097cc18d4cb0bd4b7077ca9057cab047cac067caa07979908d4b909821b800397cc1097aa18d4ca0a821c7803d4a909979920d49707987901d0290982127003cf860ad4a9097b198803d4bc09821aa803d42a0ad4a909cf87077b17900351096a04492168034921600382176002781767058217580278176605821750027817650582174802781764058217200278176305821718027817620582171002781761058217080278176f058217d00178176e058217c80178176d058217c00178176c058217b80178176b058217b00178176a058217a801781769058217a00178177705821798017817760582179001781775058217880178177405821780017817730546219f0546219e0546219d0546219c0546219b0546219a054621990546219805462197054621960546219505462194054621930546219205462191054621900546218f0546218e0546218d0546218c0546218b0546218a05462189054621880546218705462186054621850546218405462183054621820546218105462180058217c002781760058217d002781768057810700578147805821758037817720582175003781771058217480378177f058217180378177e058217100378177d058217080378177c058217000378177b058217f80278177a058217f002781779058216a80397673898773b95186005c878087c87117c89107c8a127c8b13977708d4970797aa1097bb18d4ba0ad4a7077c89157c8a147c8b167c8c17979908d4a90997bb1097cc18d4cb0bd4b909979920d47902846707d072037c89197c8b187c861a7c8a1b979908d4b90997661097aa18d46a0ad4a9097c8a1d7c8b1c7c861e7c8c1f97aa08d4ba0a97661097cc18d46c0cd4ca0a97aa20d49a0497490185703fcf0909d493097b1958037c89097c8a087c8c0a7c8b0b979908d4a90997cc1097bb18d4cb0bd4b9097c8a0d7c8b0c7c8c0e7c860f97aa08d4ba0a97cc10976618d46c0cd4ca0a97aa20d49a03d07309972201857affcfa20ad49a0a7c89017c8b7c86027c8c03979908d4b90997661097cc18d46c0cd4c9097c8b057c8c047c86067c880797bb08d4cb0b976610978818d4680882166803d4b808978820d49808d07808973301cf0309d49802d074038218c0038887018219d003c979077b171003d498078877018219c803c9790b7b1b0803d879078219d803c979097b1900039588ff7b18f802017b16680349211803982b3f97a601d4b60697220164a4821aa00398ab3fd4b20b7b1b500382181003d36807d868088219f802d8b90cdb780c9733018210580398073fd473027b12480398473f970001d4700397a7018218980398893fd49707978901821a880398a83fd4980897a901821a900398ab3fd4b90997ab01821a6803d4ba0a7b1a9003821a6003d4a9097b198803d4a8087b189803d4a7077b17a00382180803c93807d8c707d8380882190003c92909c98909c97909999c3f8217c003d27c028218d003d2c808d38609d8860b82145003d82400da900b8219c803d2c909c99307c9b70a7b1a5803d8b70ad89309821bd803d2cb0b82174803c9b70bc99b0bc9ab03c98606c9060ac92402821ba80382187803d48b0788770182197003d87906c9790788b901c9980882198003c9690995bbff7b1980037b187803d498087b1ba803d47b09d4980884c6017b177003492160035208a9fe280933064921180301821a980398a73f8218a003978801d48707821b880398b83f97aa01d4a808821c900398ca3f97bb0197cc01d4c60682191803d49a0ad4ba0ad48903d47909017b19a8038212c003d662078218d003ca6809c89707d89709d6680bc8b909caa20cc87c04d8c407d6a20cc8c707c89707d89709d6a80cc8c909caa80cc8c707d8c70cc8c900ca830cd62309c8c9098218a803ca280cc8c9098218c803d6860c821bd803cab60bc8cb0bca8a0ac8ba0ac8a909ca860aca2308c88a0ad88a08c89808c87a0ad87a07c80808c88707ca620282186802c978078218d002d34809d8480b8213c002d8230cda9c0b8216e802d8a609c9a60ad8ba06c86909c997077b17e802c9ba0a7b1af002c94807c9c7077b17d002c923077b17c0022884756483648c8214d80328520d4921700301821a980398a73f8218a003978801d47808821c900398c73f97aa01d47a0a82176803987b3f97cc0197770182197003d4790286bbd4cb0386a77b17a80386877b1788038210d000018219f80097990882181801d48909821a080197aa10821b000197bb18d4ba0ad4a909821a100197aa0882183001d48a0a821b280197bb10821c200197cc18d4cb0bd4ba0a97aa20d4a909821a400197aa0882186001d48a0a821b500197bb10821c480197cc18d4cb0bd4ba0a821b580197bb0882187801d48b0b821c700197cc1082166801976618d46c0cd4cb0b97bb20d4ba0a82180002cf8909648798ab018218f801d08b0bd4b9097b19800382198001979908821ba001d4b909821b900197bb10821c880197cc18d4cb0bd4b909821b980197bb08821cb801d4cb0b821cb00197cc108216a801976618d46c0cd4cb0b97bb20d4b909cf7a0a989b01821ce801d0cb0bd4ba0a7b1a7803821ac00197aa08821b0802d4ba0a821bd00197bb10821cc80197cc18d4cb0bcf7909d4ba0a821b100297bb088217d002d47b0b821c180297cc10970618d46c0cd4cb0b97bb20d4ba0a7b1a980398aa01d08a0ad4a9097b1918028217b8036424d67209ca730ac8a909d8a90ad6730cc8ac0b8218b003ca820cc89c02d8c20cd68406c86c0cc8cb0aca8306c8a60cd86c06d8ba0ad6830bc8ba0ac86a0a8219a803d6970b82108803ca0706c86b0bca9806c86b0bca9706c8c606d8c60cc8ba0ac8ca0aca740b82180003c9a808821a180364277b129003d32a02d87a0a82171003d8b707da270a821c0803d86c02c96c0cd8ac06c862026446c928087b18a003c9ac08649a82199003821c1803c99c09c979028217000282199803cf79077b171002643782191003c9b904286f821bb803c84b0bd84b078219b003c82909c87909d32908d8290ada870a9597018898ff88b3ffdb780388670164c8c97c0cd486078877018218a803d87804c97802c9400082179003c8a708d8780a8217a003c8a7077b17a003d4780a94a39566ff64c7642a64b464925103dd007b1aa8037b1890038ea98e0bda090b957901647c9567018877019497d40a09db9b07520771ff821a3803d6a607caac09c89707d89709d6ac0b7b1c9803c89b0c646382164003ca630b7b108803c87b00d8b00bd66308c8b808c88c0982179803ca670bc89b08d8b80bd8c90982179803d6670cc8c909c8b9098217a803d67a0b821c8803caca0cc8cb0bca760c6436c8cb0bca7a0cc88c0cd88c08c8b909c89808caa309821a8003d3a00bd80a0782108803821a7803d89a09dbb709d32807d88208d8c40bdb780bd34c0cd4c707821c9803db7b095209befe84c9ff8468ff82133803d63807ca390ac8a707d8a70ad6390bc8ab02821a4003caa80bc87b04d8b40b8216b803d6a80cc8cb0bc82b0bd82b02d6a90cc8c202caa90cc8cb0bd8cb0cc8c20aca9609d6860cc8c909821cb003ca8c0cc8c909c8a909ca860ac8ba0ad8ba0bc8b909ca3808821b1803c99b0282178003d34709d8470c821b7803d88b06da960c82191003d8a903c9a90ad8ca09c83909c99200c9ca02c94707c96704c98b0368086827957740db0807d402086849683a95aa40db490a95a98000da8907d8a9099489821b5802d87b08821c6002d39c0ad89c06daa806c97b0b886a0195aaffc99c0cc98c0c8ec77b1ba00388b80001858801dbc7089a6b8eb78ea97b1a9003daa709da6809d40407d42308d4870788770182182002d487076438d497067b10d0027b12000364437b14080394607b10880394627b1298039463648094607b181003520646098218a0038586ff00d4b60682129003d42c0ad46a0a510a2d099589017b19a803889701c8c7077b177803d49707887701c8b7077b177003d8b707c827077b1780039a82ff009514ff07954460038218100378482146142046141f46141e46141d46141c46141b46141a46141946141846141746141646141546141446141346141246141146141046140f46140e46140d46140c46140b46140a461409461408461407461406461405461404461403461402461401821708037847299889387b19d0017849289889307b19c8017849279889287b19c0017849269889207b19b8017849259889187b19b0017849249889107b19a8017849239889087b19a00178492282190003784931987a387b1a9801784a30987a307b1a9001784a2f987a287b1a8801784a2e987a207b1a8001784a2d987a187b1a7801784a2c987a107b1a7001784a2b9877087b17680178472a8210d0027840399897387b1760017847389897307b1758017847379897287b1750017847369897207b1748017847359897187b1740017847349897107b1760037847339899087b1958037849329807387b1750037847409807307b17480378473f9807287b17180378473e9807207b17600278473d9807187b17580278473c9807107b17200278473b9807087b17080278473a97273898773b9519ff0795998103c979097c97197c9a187c9b1a7c9c1b977708d4a70797bb1097cc18d4cb0bd4b7077c9a1d7c9b1c7c9c1e7c961f97aa08d4ba0a97cc10976618d46c0cd4ca0a97aa20d47a0a7c97117c9b107c9c127c9613977708d4b70797cc10976618d46c0cd4c7077c9b157c9c147c96167c981797bb08d4cb0b976610978818d46808d4b808978820d47803842807cf8a07983c0185823fd02c0cd4c7077b17a0037c97097c9c087c960a7c9a0b977708d4c70797661097aa18d46a0ad4a7077c9a0d7c9c0c7c960e7c9b0f97aa08d4ca0a97661097bb18d46b0bd4ba0a97aa20d47a0c98c701858affd0a707cf830ad4a7077b1798037c97017c9a7c9b027c9603977708d4a70797bb10976618d46b0bd4b7077c9a057c9b047c96067c990797aa08d4ba0a821b8003976610979918d46909d4a909979920d49707987901d0290982167003cf8c0a821c7803d4a9097b198803d4bc09821aa803d46a0ad4a909cf87077b1790035109a20549213001492168038217d00195180010788727fb8217c80195180010788726fb8217c00195180010788725fb8217b80195180010788724fb8217b00195180010788723fb8217a80195180010788722fb8217a00195180010788721fb821798019518001078872ffb821790019518001078872efb821788019518001078872dfb821780019518001078872cfb821778019518001078872bfb821770019518001078872afb8217680195180010788729fb8217600195180010788737fb8217580195180010788736fb8217500195180010788735fb8217480195180010788734fb8217400195180010788733fb46044614ff4614fe4614fd4614fc4614fb4614fa4614f94614f84614f74614f64614f54614f44614f34614f24614f14614f04614ef4614ee4614ed4614ec4614eb4614ea4614e94614e84614e74614e64614e54614e44614e34614e24614e18217100395180010788720fb8217080395180010788728fb8217000395180010788730fb95170010787038fb8217600395180010788732fb8217580395180010788731fb821750039518001078873ffb821748039518001078873efb821718039518001078873dfb821760029518001078873cfb821758029518001078873bfb821720029518001078873afb8217080295180010788739fb8216a80397673898773b9518ff0795882103c878087c87117c89107c8a1264b07c8b13977708d4970797aa1097bb18d4ba0ad4a7077c89157c8a147c8b167c8c17979908d4a90997bb1097cc18d4cb0bd4b909979920d47903846907d093027c87197c8b187c861a7c8a1b977708d4b70797661097aa18d46a0ad4a7077c8a1d7c8b1c7c861e7c8c1f97aa08d4ba0a97661097cc18d46c0cd4ca0a97aa20d4a7077b17580397770185943fcf4707d472077b1760037c87097c8a087c8c0a7c8b0b977708d4a70797cc1097bb18d4cb0bd4b7077c8a0d7c8b0c7c8c0e7c860f97aa08d4ba0a97cc10976618d46c0cd4ca0a97aa20d47a0cd09c07973301859affcfa30ad47a0a7c87017c8b7c86027c8303977708d4b707976610973318d4630bd47b037c8b057c86047c87067c880797bb08d46b0b977710978818d48707d4b707977720d43707d0970797cc01cf4c08821c3001d4870382175803d097028218b8038887018219b003c979077b175003d498078e779577ff7b1748039588ff7b1818038216a003017b1080034921580398373f97a801d4780897330198673f64c0d4730c82175003d3870bd8870982171803d8c707dbb9079724018212600398293fd4940398aa3f972201d4a202976b018219980398963fd46b04979601821a880398a93fd4690997aa0182169003986b3fd4ab0b976601d460067b1690038210800382166803d46b0b7b1b8803d469097b199803d446097b19a003821a4803c92a09d87907d82a09c93a0bc99b0bc97b0799773f8219b803d27909821bb003d27b0bd3b80ad8b806d89c04daa406c9620a7b1a6003d8620ac9a302c9b808c9480ac99c03821ca80382167803d46c08888801821b7003d88b09c98b0888cb01c9b606c9900095ccff7b167803d406098216a0037b1ca803d48c0bd4b909847c017b187003492168035209dffe281901330c49214803018219900398973f8218a803978801d4780a821ba00398b73f979801d478098217980398783f97bb01977701d4c707821c4803d4c808d4b808d49c03d4ac0c8214d803017b1ca8038210c003d6700a8212d003ca720cc8ca0ad8ca0cd67206c8c606ca800cc8ca0ad8ca0cd6800bc8cb0bc86b0bca820cc8bc09d8c90cd86b0bd68206c86b0bc8cb0b7b1ba003ca230cd60306c86c0c821ba803ca0b06c86c02821cc803d6c706ca470bc86b0bcac808c8b808cac70bca0306c86b0bc82808c8b90cd89c02d86b0bc8b8088219a003c89808ca70049a27ffc987028ec3ff85a8ff8ea6ff8e47ffda87069acbffd86b0cc8c308c98203c96b029a77ffc9a7079a46ff288f12330c492158038216a003018219980398973f976801d47808821b880398b73f979901d4790982179003987a3f97bb01977701d47c00821c5803d4ca0ad4ba03d49c077b179803d48c077b178803018219b803d6900aca930bc8ba0ad8ba0bd6930cc8bc028217b003ca700bc8ab04d8b40ad6700bc8ba0ac8a20bca7306c8b60a82189803ca890cc8ac0cd86a06d8ac0a7b1aa803d82b0bd6730ac8ba0ac86a02d6890b821a8803caa906c86b0bca8706c86b0bc8b20aca90097b1980038217d002821ba803c9b706c9a6067b16a803821708037b149003d34706d8470a82141003d8940bda6b0a82190003d8c906c9c90cd8ac02c8620264868218a803c928087b18a003c9ac09c9b70a82179003c97a0a82178003c974077b17a803821810028488ff7b188003821818028487ff7b17780382188803286f821bb8038217a803c87b0bd87b07821cb003c8ac0cc87c0cd3ac09d8ac0ada970a95c70188c9ff88b4ffdb7904880701c97302d43007887701d87609c97607c9980882169003c8a609d8690a8216a003c8a6067b16a003d4690a94a49500ff642364767b1ba80364ca5104da007b1990038e6b8e8cda8b0c953b0195070188770194b7d4860bdbbc07520777ff646482163803d66007ca630bc8b707d8b70bd6630cc8bc097b18880382184003ca800b7b139803c87b03d8b30bd68007c8b707c8790c82179803ca870bc8cb07d8b70bd89c09821c9803d68c0cc8c909c8b909d6460b821c8803cac60cc8cb0bca480c82188803c8cb0bca460cc87c0cd87c07c8b909c89707ca6002644682197803d3930bd839048213980382198003d82909dbb409d3a702d87a04821ba803d8cb07db2407d3bc0cd42c0bdbb7095209c4fe6432018428ff8407ff82133803d63709ca380ac8a909d8a90ad6380bc8ab0282164003ca670bc89b00d8b00bd6670cc8cb0bc8b20aca680cc8ac0bd82a0ad66806c8a602821ab803ca7a06c8b606d8cb0cd8b60bc8c202ca8a08d67a0cc8c808821cb003ca7c0cc8c808c82808c8b802ca370482181003d86807821b0803c97b03821b7803d30b07d80b0c821a8003d84a09da790cc96808d8c806c96307c92707c9c808c99b0bc90b09c94a0a951b0010462b1ffb951b0010462b1efb951b0010462b1dfb951b0010462b1cfb951b0010462b1bfb951b0010462b1afb951b0010462b19fb951b0010462b18fb951b0010462b17fb951b0010462b16fb951b0010462b15fb951b0010462b14fb951b0010462b13fb951b0010462b12fb951b0010462b11fb951b0010462b10fb951b0010462b0ffb951b0010462b0efb951b0010462b0dfb951b0010462b0cfb951b0010462b0bfb951b0010462b0afb951b0010462b09fb951b0010462b08fb951b0010462b07fb951b0010462b06fb951b0010462b05fb951b0010462b04fb951b0010462b03fb951b0010462b02fb951b0010462b01fb951b0010462b00fb951b001078bae0fa98ab38951c001078cbe7fa98ab30951c001078cbe6fa98ab28951c001078cbe5fa98ab20951c001078cbe4fa98ab18951c001078cbe3fa98ab10951c001078cbe2fa98aa08951b001078bae1fa951a001078a9e8fa989a38951b001078baeffa989a30951b001078baeefa989a28951b001078baedfa989a20951b001078baecfa989a18951b001078baebfa989a10951b001078baeafa989908951a001078a9e9fa951900107898f0fa988938951a001078a9f7fa988930951a001078a9f6fa988928951a001078a9f5fa988920951a001078a9f4fa988918951a001078a9f3fa988910951a001078a9f2fa988808951900107898f1fa951800107887f8fa987838951900107898fffa987830951900107898fefa987828951900107898fdfa987820951900107898fcfa987818951900107898fbfa987810951900107898fafa987708951800107887f9fa8217f0019518ff079588e102c887077c78017c797c7a027c7b03978808d4980897aa1097bb18d4ba0ad4a8087c79057c7a047c7b067c7c07979908d4a90997bb1097cc18d4cb0bd4b909979920d4980882130002d038097c78097c7a087c7b0a7c7c0b978808d4a80897bb1097cc18d4cb0bd4b8087c7a0d7c7b0c7c7c0e7c760f97aa08d4ba0a97cc10976618d46c0cd4ca0a97aa20d48a02972a018214f801cf4a0ad4a9097b1960027c79117c7a107c7b127c7c13979908d4a90997bb1097cc18d4cb0bd4b9097c7a157c7b147c7c167c761797aa08d4ba0a97cc10976618d46c0cd4ca0a97aa20d4a909d0390a7c7b197c7c187c761a7c781b97bb08d4cb0b976610978818d46808d4b8087c7b1d7c7c1c7c761e7c771f97bb08d4cb0b976610977718d46707d4b707977720d48707977801cf4808d48a00d03208979901821ae801cfa909d49802d037036827821860026888958840db270895878000d88708d430099498680a95aa406836da3a06da9706821c3003d38c0bd88c0982172803d8670adaba09889b0195b4ff9a9bc98c0cc9ac0cc967087b1ba0038eb78e4ada470a888700018577018ec6dbc607db9a07821b6002d40b09d4320ad4a909889901821a2003d4a909d497077b131802947364367b102002640394737b125802642a947a64b294725207040a8587ff008219a003d49707d44c0bd4b707646051073d0a9589017b19a803889701c8c7077b177803d497078877018219a003c897077b177003d89707c847077b1780039a82ff0082176002951800107887c0fa951800104628bffa951800104628befa951800104628bdfa951800104628bcfa951800104628bbfa951800104628bafa951800104628b9fa951800104628b8fa951800104628b7fa951800104628b6fa951800104628b5fa951800104628b4fa951800104628b3fa951800104628b2fa951800104628b1fa951800104628b0fa951800104628affa951800104628aefa951800104628adfa951800104628acfa951800104628abfa951800104628aafa951800104628a9fa951800104628a8fa951800104628a7fa951800104628a6fa951800104628a5fa951800104628a4fa951800104628a3fa951800104628a2fa951800104628a1fa951800104628a0fa82185802951900107898c8fa9879387b190802951a001078a9c7fa9879307b19d001951a001078a9c6fa9879287b19c801951a001078a9c5fa9879207b19c001951a001078a9c4fa9879187b19b801951a001078a9c3fa9879107b19b001951a001078a9c2fa9877087b17a801951900107897c1fa82142002951700107874d0fa9887387b17a001951900107897cffa9887307b179801951900107897cefa9887287b179001951900107897cdfa9887207b178801951900107897ccfa9887187b178001951900107897cbfa9887107b177801951900107897cafa9888087b187001951700107878c9fa82101802951700107870d8fa9847387b176801951800107887d7fa9847307b176001951800107887d6fa9847287b175801951800107887d5fa9847207b175001951800107887d4fa9847187b174801951800107887d3fa9847107b175803951800107887d2fa9847087b175003951800107887d1fa9807387b174803951800107887dffa9807307b171803951800107887defa9807287b171003951800107887ddfa9807207b170803951800107887dcfa9807187b170003951800107887dbfa9807107b17d002951800107887dafa9807087b171002951800107887d9fa97273898773b951aff0795aac102c97a0a7ca7197ca8187cab1a7cac1b977708d4870797bb1097cc18d4cb0bd4b7077ca81d7cab1c7cac1e7ca61f978808d4b80897cc10976618d46c0cd4c808978820d478087ca7117cab107cac127ca613977708d4b70797cc10976618d46c0cd4c7077cab157cac147ca6167ca91797bb08d4cb0b976610979918d46909d4b909979920d47903842907cf9807983c0185923fd02c0cd4c7077b17a0037ca7097cac087ca60a7ca80b977708d4c707976610978818d46808d487077ca80d7cac0c7ca60e7cab0f978808d4c80897661097bb18d46b0bd4b808978820d478069867018598ffd08707cf9308d487077b1798037ca7017ca87cab027cac03977708d4870797bb1097cc18d4cb0bd4b7077ca8057cab047cac067caa07978808d4b808821b800397cc1097aa18d4ca0a821c7803d4a808978820d48707987801d0280882127003cf960ad4a8087b188803d4bc08821aa803d42a0ad4a808cf97077b1790035108780549216803492160038217080295180010788767fa8217d00195180010788766fa8217c80195180010788765fa8217c00195180010788764fa8217b80195180010788763fa8217b00195180010788762fa8217a80195180010788761fa8217a0019518001078876ffa821798019518001078876efa821790019518001078876dfa821788019518001078876cfa821780019518001078876bfa821778019518001078876afa8217700195180010788769fa8217680195180010788777fa8217600195180010788776fa8217580195180010788775fa8217500195180010788774fa8217480195180010788773fa9517001046279ffa9517001046279efa9517001046279dfa9517001046279cfa9517001046279bfa9517001046279afa95170010462799fa95170010462798fa95170010462797fa95170010462796fa95170010462795fa95170010462794fa95170010462793fa95170010462792fa95170010462791fa95170010462790fa9517001046278ffa9517001046278efa9517001046278dfa9517001046278cfa9517001046278bfa9517001046278afa95170010462789fa95170010462788fa95170010462787fa95170010462786fa95170010462785fa95170010462784fa95170010462783fa95170010462782fa95170010462781fa95170010462780fa8217600295180010788760fa8217580295180010788768fa95170010787470fa95170010787078fa8217580395180010788772fa8217500395180010788771fa821748039518001078877ffa821718039518001078877efa821710039518001078877dfa821708039518001078877cfa821700039518001078877bfa8217d0029518001078877afa8217100295180010788779fa8216a80397673898773b9518ff0795886102c878087c87117c89107c8a127c8b13977708d4970797aa1097bb18d4ba0ad4a7077c89157c8a147c8b167c8c17979908d4a90997bb1097cc18d4cb0bd4b909979920d47904846b07d0b4007c89197c8a187c8c1a7c861b979908d4a90997cc10976618d46c0cd4c9097c8a1d7c8c1c7c861e7c871f97aa08d4ca0a976610977718d46707d4a707977720d4970297270185b33fcf3707d470077b1758037c87097c89087c8a0a7c8c0b977708d4970797aa1097cc18d4ca0ad4a7077c890d7c8a0c7c8c0e7c860f979908d4a90997cc10976618d46c0cd4c909979920d49707d0b70997440185baffcfa40ad4a9007c89017c8a7c8c027c8603979908d4a90997cc10976618d46c0cd4c9097c8a057c8c047c86067c880797aa08d4ca0a976610978818d46808d4a808978820d49808d0b808977701cf3707d47803d0b2028219c0038897018218d003c978077b171003d489078877018218c803c9780a7b1a0803d878078218d803c978087b1800039599ff7b19d002821b8803014921180398373f970601d476069733018214a00398473fd473097b19500382181003d36807d8680c8218d002d8980adb7c0a9722018219580398973fd472037b13480398073f979901d49707974901821c980398c83fd4890297c90198bc3fd4c90997b801821c900398cb3fd48b0b97cc0182186803d48c0c7b1c9003821c6003d4cb0b7b1b8803d4c9097b199803d42c087b18a00382190803c97908d8a808d87909821a0003c93a0ac99a0ac98a0a99aa3f8218c003d2a8087b186803821bd003d2ab0bd3b600d8b60c82135003d88309da090c8218c803d28a00c90704c9c4027b125803d8c404d80707821cd803d2ac0c82184803c9c80cc97c0cc94c02c9b606c9960082176803c97303821ba803821c7803d4cb0788770182197003d87908c9790788b901c99c0c82198003c9890995bbff7b1980037b1c7803d49c087b1ba803d47b09821b8803d4980884aa017b1a68037b177003492160035208a3fe28136460284e4921680349211803821b880301821a980398a73f8219a003979901d4970798b93f97aa01d4a909821c900398ca3f97bb0197cc0182186803d4c80282181803d48a0ad4ba0ad49803d47800018216c003d626078219d003ca2908c88707d88708d6290bc8b808caa60cc87c04d8c407d6a60cc8c707c88707d88708d6a90cc8c808caa90cc8c707d8c70cc8c8087b18a803ca930cd66308c8c808ca600cc8c8088210c803d6020c8219d803ca920bc8cb0bca0a0ac8ba0ac8a808ca6309ca020ac89a0ad89a09c89808c87a0ad87a078219a803c89808ca260282191802c97907c9870382175802d34708d8470b82196002d8290cda8c0b82162002d8a608c9a606d8b60ac8a808c98303c9b608c9c707c94707c929066482821868025208062815cb7b13a8037b16a003ca6708d66609c88909d8890ad6670bc8ba0ac889097b198003d88908c8b808c8a808ca77096420c88902d89209d8a808d6770ac8a808c88909d660087b188803ca630bc88b037b139003ca600ac82a0cd8ac02c82909ca7004c84303c83909d33908d83906da82067b16980382128803c84202c8ca067b168803d8a608c82b0cc88c0ac89a0ad3ca097b1a7803d8ca0ada980ad84306d84209d67008c88606c8980382189003d8b809d8bc0b8218a803821ca003d6c80cc8c909c8bc02c89606d89609ca780cc8c606d678076484c87909d8c60bc8b908821b9803c86b0bd86b09c88909c83202d83208c88707c8c202c82a0ad8c208d82a0cc8ba0ad8ba03c88707c8c707c89707c8370cca040bd60008c88b06ca0008c88a0a7b1a9803d88a0ac86b07c8a704c8c404d37402d87408da2a08d39c0ad89c09daa309d8b60ad8b707821ca803d60c0bc8ba0ac8b707c8a707cacc0bd8a70ac8b707c87909c88902d8b708d87907d89209d6cc0b82109803c8ba0ac8a808c88707c89706821cc803d8c2078218d003d34809d8840a8218c003d8800bdb9a0b8218d803d36809d8860ada970ad32c07d49707db7a0b510b100f8218800395170010787848fa9887387b17a8038217380198733f644a821488036449da3009db30029887307b17500382177803951b001078b758fa988b287b1b4803988b207b1b1803988b187b1b1003988b107b1b0803988b087b1b1802da3708987b387b1b9803987b307b1b9003987b287b1b8003987b207b1b7003987b187b1b6803987b107b1b6003987b087b1b5803da3a07db3a06821c480298cc3f648bdac90bdac709dbc206dbc7028217a003ca7707951a001078a740fa987a387b1aa003987a307b1a7803987a287b1a1002987a207b1a0802987a187b1ad001987a107b1ac801987a087b1ac001da3407dac80798bc0182185002d08c0c64638216e001cf690ad4ca00cf630c982a01d08a0ad4ca0a7b1a6802cf6b0a987701d08707d47a0a7b1a0003cf6207989901d08908d487038217b8036877957740821bb00368b9dab70968a79577407b10d0026808db08076838958c40821068026808db080c95788000d8780ad40307da780c947a95988000d89806d8c809d3a602d8a607da29077b165802c9a606c996068879019599ff9a7a7b1ad0008ea28e9a7b19d800da920a7b182002c9c8087b18c00088880001858c018e687b16c800db680cdb7a0c8217a00395180010788747fa8217780395180010788746fa8217100295180010788745fa8217080295180010788744fa8217d00195180010788743fa8217c80195180010788742fa8217c00195180010788741fa8217a8039518001078874ffa821750039518001078874efa821748039518001078874dfa821718039518001078874cfa821710039518001078874bfa821708039518001078874afa8217180295180010788749fa98473895180010788757fa98473095180010788756fa98472895180010788755fa98472095180010788754fa98471895180010788753fa98471095180010788752fa95170010787450fa98470895180010788751fa821798039518001078875ffa821790039518001078875efa821780039518001078875dfa821770039518001078875cfa821768039518001078875bfa821760039518001078875afa8217580395180010788759fa8216d002d4060782190003d43908d487078218b803d4b8088888018877017b181802d48707d47c0c9517001046273ffa9517001046273efa9517001046273dfa9517001046273cfa9517001046273bfa9517001046273afa95170010462739fa95170010462738fa95170010462737fa95170010462736fa95170010462735fa95170010462734fa95170010462733fa95170010462732fa95170010462731fa95170010462730fa9517001046272ffa9517001046272efa9517001046272dfa9517001046272cfa9517001046272bfa9517001046272afa95170010462729fa95170010462728fa95170010462727fa95170010462726fa95170010462725fa95170010462724fa95170010462723fa95170010462722fa95170010462721fa95170010462720fa8217f0019518ff0795884102c9780764047c78187b1800017c78197b18e0007c781a7b18f0007c781b7b18e8007c781c7b1818017c781d7b18f8007c781e7b1810017c781f7b1808017c78107b1848017c78117b1820017c78127b1830017c78137b1828017c78147b1860017c78157b1840017c78167b1858017c78177b1850017c78087b1888017c78097b1868017c780a7b1878017c780b7b1870017c780c7b18a0017c780d7b1880017c780e7b1898017c780f7b1890017c727c78017b18a8017c70027c78037b18b0017c78047c7b057c7a067c770794c47b148803643494c37b13a80394c67b16a00394c97b1970037b1460027b1810027b1a08027b17d0017b1bc8017b12c0017b10b801520cd0098219c000859aff00821bd000d4ba0a8212d8008216c800d4260cd4ca0a644382148803510a010a9598017b18a803888701c867077b178003d48707887701c8b7077b177803d8b707c827077b1770039a92ff008217000395180010788700fa951800104628fff9951800104628fef9951800104628fdf9951800104628fcf9951800104628fbf9951800104628faf9951800104628f9f9951800104628f8f9951800104628f7f9951800104628f6f9951800104628f5f9951800104628f4f9951800104628f3f9951800104628f2f9951800104628f1f9951800104628f0f9951800104628eff9951800104628eef9951800104628edf9951800104628ecf9951800104628ebf9951800104628eaf9951800104628e9f9951800104628e8f9951800104628e7f9951800104628e6f9951800104628e5f9951800104628e4f9951800104628e3f9951800104628e2f9951800104628e1f9951800104628e0f98214d00295180010788408fa9878387b18c00095190010789807fa9878307b18b80095190010789806fa9878287b18b00095190010789805fa9878207b18a80095190010789804fa9878187b18a00095190010789803fa9878107b18980095190010789802fa9877087b17900095180010788701fa95170010787310fa9847387b1788009518001078870ffa9847307b1780009518001078870efa9847287b17789518001078870dfa9847207b17709518001078870cfa9847187b17689518001078870bfa9847107b17609518001078870afa9847087b175895180010788709fa8210680295170010787018fa9837387b175095180010788717fa9837307b174895180010788716fa9837287b174095180010788715fa9837207b173895180010788714fa9837187b173095180010788713fa9837107b17580395180010788712fa9837087b17500395180010788711fa9807387b1748039518001078871ffa9807307b1718039518001078871efa9807287b1710039518001078871dfa9807207b1708039518001078871cfa9807187b17d8009518001078871bfa9807107b17d0009518001078871afa9807087b17c80095180010788719fa97273898773b9519ff0795990102c979097c97197c9a187c9b1a7c9c1b977708d4a70797bb1097cc18d4cb0bd4b7077c9a1d7c9b1c7c9c1e7c961f97aa08d4ba0a97cc10976618d46c0cd4ca0a97aa20d47a0a7c97117c9b107c9c127c9613977708d4b70797cc10976618d46c0cd4c7077c9b157c9c147c96167c981797bb08d4cb0b976610978818d46808d4b808978820d47803842807cf8a07983c0185823fd02c0cd4c7077b17a0037c97097c9c087c960a7c9a0b977708d4c70797661097aa18d46a0ad4a7077c9a0d7c9c0c7c960e7c9b0f97aa08d4ca0a97661097bb18d46b0bd4ba0a97aa20d47a0c98c701858affd0a707cf830ad4a7077b1798037c97017c9a7c9b027c9603977708d4a70797bb10976618d46b0bd4b7077c9a057c9b047c96067c990797aa08d4ba0a821b7003976610979918d46909d4a909979920d49707987901d0290982138003cf8c0a821c7803d4a9097b198803d4b309821aa803d4ca0ad4a909cf87077b1790035109480549216803492160038217c000951800107887a7f98217b800951800107887a6f98217b000951800107887a5f98217a800951800107887a4f98217a000951800107887a3f982179800951800107887a2f982179000951800107887a1f982178800951800107887aff982178000951800107887aef9821778951800107887adf9821770951800107887acf9821768951800107887abf9821760951800107887aaf9821758951800107887a9f9821750951800107887b7f9821748951800107887b6f9821740951800107887b5f9821738951800107887b4f9821730951800107887b3f9951700104627dff9951700104627def9951700104627ddf9951700104627dcf9951700104627dbf9951700104627daf9951700104627d9f9951700104627d8f9951700104627d7f9951700104627d6f9951700104627d5f9951700104627d4f9951700104627d3f9951700104627d2f9951700104627d1f9951700104627d0f9951700104627cff9951700104627cef9951700104627cdf9951700104627ccf9951700104627cbf9951700104627caf9951700104627c9f9951700104627c8f9951700104627c7f9951700104627c6f9951700104627c5f9951700104627c4f9951700104627c3f9951700104627c2f9951700104627c1f9951700104627c0f982170003951800107887a0f9951700107874a8f982176002951800107887b0f9951700107870b8f982175803951800107887b2f982175003951800107887b1f982174803951800107887bff982171803951800107887bef982171003951800107887bdf982170803951800107887bcf98217d800951800107887bbf98217d000951800107887baf98217c800951800107887b9f98216a80397673898773b951aff0795aaa101c87a0a7ca7117ca8107ca9127cab13977708d4870797991097bb18d4b909d497077ca8157ca9147cab167cac17978808d4980897bb1097cc18d4cb0bd4b808978820d47800846207d020097ca7197cab187cac1a7ca61b977708d4b70797cc10976618d46c0cd4c7077cab1d7cac1c7ca61e7ca81f97bb08d4cb0b976610978818d46808d4b808978820d4780497480185273fcf7808d498087b1858037ca8097ca9087cab0a7cac0b978808d4980897bb1097cc18d4cb0bd4b8087ca90d7cab0c7cac0e7ca60f979908d4b90997cc10976618d46c0cd4c909979920d48909d02908970001852bffcfb00bd4b8087cab017cac7ca6027ca00397bb08d4cb0b976610970018d4600cd4bc007cac057ca6047cab067caa0797cc08d46c0c97bb1097aa18d4ba0ad4ca0a821c680397aa20d40a0ad02a0a979901cf7907d47a00d0240b8219b803889701821ab003c97a077b171803d4a9078e779577ff7b1710039599ff7b190803017b1c68037b1380034921480398073f978a01d47a039700018214a00398473fd4700682171803d33709d8370c82170803d86707db9c0797ba01821b580398b93fd49a027b12500398883f97bb01d48b0a974b0182189803988c3fd4cb00978c018218880398893fd4c909978c0182189003988b3fd4cb0b978c0182186803d4c8087b189003821c6003d4cb0b7b1b8803d4c9097b199803d40c087b18a00382181003c9a809d87907d8a809c9280bc99b0bc97b0b99bc3f8217b803d27c008219b003d2c909d39308d8930bd80607da870b8212700382148003c9ba087b185803d8ba08821a5003c98a087b186803c99308c97808c90600821ba803d44b07887701821a7803d87a09c97a0788ba01c9a404c9920295bbff7b1270036443d424097b1ba803d47b0a821b6803d4a90984cc017b177803492160035209c7fe281e3307ff3300ff3308ff3303ff28c815821488032854330c49214803018219980398973f8218a003978801d47808821b880398b73f979901d4790982179003987a3f97bb01977701d4c7077b177003821c4803d4ca0ad4ba0a7b1aa003d49c077b17a803d48c04018219e00097990882170001d47909821af00097aa10821be80097bb18d4ba0ad4a909821af80097aa0882171801d47a0a821b100197bb10821c080197cc18d4cb0bd4ba0a97aa20d4a909821a200197aa0882174801d47a0a821b300197bb10821c280197cc18d4cb0bd4ba0a821b400197bb0882176001d47b0b821c580197cc1082165001976618d46c0cd4cb0b97bb20d4ba0a82170002cf7909647298ab018218f801d08b0bd4b9097b1980038219680197990882178801d47909821b780197bb10821c700197cc18d4cb0bd4b909821b800197bb088217a001d47b0b821c980197cc1082169001976618d46c0cd4cb0b97bb20d4b909cf2a0a989b01821ce801d0cb0bd4ba0a7b1a7803821aa80197aa088217c001d47a0a821bb80197bb10821cb00197cc18d4cb0bcf2909d4ba0a821bc80197bb0882171002d47b0b821c080297cc108216d001976618d46c0cd4cb0b97bb20d4ba0a7b1a880398aa01d08a0ad4a9097b1910028212b80382107003d620098217a003ca270ac8a909d8a90ad6270bc8ab0c8218b003ca800bc89b03d8b30bd68006c86b0bc8bc0a7b17a003ca8706c8a60bd86b06d8ca0ad6870cc8ca0ac86a0a8217a803d6720cca4206c86c0cca7806c86c0cca7206c8b606d8b60bc8ca0ac8ba0aca20087b18680382196802c9a9097b1998038219d0027b136003d33902d8390a821b0003d88b0cda2c0a82136002d8630bc96306d8a603c83b0b82189803c9b80b7b1b9803640bc9a6067b169003647a82176003c97909c9c9028217000282188803cf78077b1768028217a0038218680382190003c989002873821cb803c80c0cd80c078219b003c82909c87909d32908d8290ada870a9597018898ff88c3ffdb780388b7016468c97606d48b078877018218a803d87800c97802c9040482179003c8a708d8780a82179803c8a7077b179803d4780a94a395bbff6467642a64c064927b1890035103d9007b1aa8038ea98e4cda490c957901647695b7018877019497d44a09db9c07520771ff821a3803d6ab07caa609c89707d89709d6a60c7b16a003c89c0664b3821b4003cab30c7b148803c87c04d8c40cd6b308c8c808c886098217a003cab70cc89c08d8c80cd869098217a003d6b706c86909c8c9098217a803d67a0c82168803ca6a06c86c0cca7b06643bc86c0cca7a06c88606d88608c8c909c89808caa309821a8003d3a40cd84a0782148803821a7803d89a09dbc709d32807d88208d8600cdb780cd30606d467078216a003db7c095209befe8469ff84b8ff82133803d63807ca390ac8a707d8a70ad6390bc8ab02821a4003caa80bc87b04d8b40bd6a80cc8cb0bc82b0bd82b02d6a90cc8c202caa90cc8cb0bd8cb0cc8c202821ab803ca9a09d68a0cc8c9098217b003ca870cc8c909c82909ca8a0ac8ba0ad8ba0bc8b909ca3808821bd002c99b0282178003d34709d8470c821b7803d88b06da960c82190003d8a903c9a90ad8ca09c83909c99200c9ca02c94707c967047b140803c98b0368086827957740db0807d402086849683a95aa40db490a95a98000da8907d8a9099489821b2002d87b0882165802d3960ad8960cdaa80cc97b0b88ca0195aaffc99606c986068e677b1ba00388b80001858801db67089acb8eb78ea97b1a9003daa709dac809d40407d42308d4870788770182181802d487076438d4970c7b10d0027b12000394c07b10880394c27b129803644394c3648094c07b181003520c0b0a8218a003858cff00d4bc0c82129003d4260ad4ca0a510af2099589017b19a803889701c867077b178003d49707887701c8b7077b177003d8b707c827077b1778039a82ff008218100395170010787880f99517001046277ff99517001046277ef99517001046277df99517001046277cf99517001046277bf99517001046277af995170010462779f995170010462778f995170010462777f995170010462776f995170010462775f995170010462774f995170010462773f995170010462772f995170010462771f995170010462770f99517001046276ff99517001046276ef99517001046276df99517001046276cf99517001046276bf99517001046276af995170010462769f995170010462768f995170010462767f995170010462766f995170010462765f995170010462764f995170010462763f995170010462762f995170010462761f995170010462760f98217080395190010789788f99889387b190802951a001078a987f99889307b19d001951a001078a986f99889287b19c801951a001078a985f99889207b19c001951a001078a984f99889187b19b801951a001078a983f99889107b19b001951a001078a982f99889087b19a80195180010788981f98214000395180010788490f99879387b19a0019518001078898ff99879307b1998019518001078898ef99879287b1990019518001078898df99879207b1988019518001078898cf99879187b1980019518001078898bf99879107b1978019518001078898af99877087b17700195180010788789f98210d00295170010787098f99847387b17680195180010788797f99847307b17600195180010788796f99847287b17580195180010788795f99847207b17500195180010788794f99847187b17480195180010788793f99847107b17600395180010788792f99847087b17580395180010788791f99807387b1750039518001078879ff99807307b1748039518001078879ef99807287b1718039518001078879df99807207b1760029518001078879cf99807187b1758029518001078879bf99807107b1720029518001078879af99807087b17180295180010788799f997273898773b951aff0795aa8101c97a0a7ca7197ca9187cab1a7cac1b977708d4970797bb1097cc18d4cb0bd4b7077ca91d7cab1c7cac1e7ca61f979908d4b90997cc10976618d46c0cd4c909979920d479097ca7117cab107cac127ca613977708d4b70797cc10976618d46c0cd4c7077cab157cac147ca6167ca81797bb08d4cb0b976610978818d46808d4b808978820d47803842807cf8907983c0185823fd02c0cd4c7077b17a0037ca7097cac087ca60a7ca90b977708d4c707976610979918d46909d497077ca90d7cac0c7ca60e7cab0f979908d4c90997661097bb18d46b0bd4b909979920d4790c98c7018589ffd09707cf8309d497077b1798037ca7017ca97cab027ca603977708d4970797bb10976618d46b0bd4b7077ca9057cab047ca6067caa07979908d4b90997661097aa18d46a0a821b8003d4a909979920d49707987901d0290982167003cf8c0a821c7803d4a9097b198803d4cb09821aa803d46a0ad4a909cf87077b17900351092f0549214001492168038217080295180010788727f98217d00195180010788726f98217c80195180010788725f98217c00195180010788724f98217b80195180010788723f98217b00195180010788722f98217a80195180010788721f98217a0019518001078872ff9821798019518001078872ef9821790019518001078872df9821788019518001078872cf9821780019518001078872bf9821778019518001078872af98217700195180010788729f98217680195180010788737f98217600195180010788736f98217580195180010788735f98217500195180010788734f98217480195180010788733f99517001046275ff99517001046275ef99517001046275df99517001046275cf99517001046275bf99517001046275af995170010462759f995170010462758f995170010462757f995170010462756f995170010462755f995170010462754f995170010462753f995170010462752f995170010462751f995170010462750f99517001046274ff99517001046274ef99517001046274df99517001046274cf99517001046274bf99517001046274af995170010462749f995170010462748f995170010462747f995170010462746f995170010462745f995170010462744f995170010462743f995170010462742f995170010462741f995170010462740f98217100395180010788720f98217080395180010788728f995170010787430f995170010787038f98217600395180010788732f98217580395180010788731f9821750039518001078873ff9821748039518001078873ef9821718039518001078873df9821760029518001078873cf9821758029518001078873bf9821720029518001078873af98217180295180010788739f964b08216a80397673898773b9518ff0795882101c878087c87117c89107c8a127c8b13977708d4970797aa1097bb18d4ba0ad4a7077c89157c8a147c8b167c8c17979908d4a90997bb1097cc18d4cb0bd4b909979920d47902846907d092037c87197c8b187c8c1a7c8a1b977708d4b70797cc1097aa18d4ca0ad4a7077c8a1d7c8b1c7c8c1e7c861f97aa08d4ba0a97cc10976618d46c0cd4ca0a97aa20d4a7077b17580397770185943fcf4707d473077b1760037c87097c8a087c860a7c8b0b977708d4a70797661097bb18d46b0bd4b7077c8a0d7c8b0c7c860e7c8c0f97aa08d4ba0a97661097cc18d46c0cd4ca0a97aa20d47a03d09307972201859affcfa20ad47a0a7c87017c8b7c8c027c8603977708d4b70797cc10976618d46c0cd4c7077c8b057c8c047c86067c880797bb08d4cb0b976610978818d46808d4b808978820d48707d09707973301cf430882144001d4870282175803d097038218b8038887018219b003c979077b175003d498078e779577ff7b1748039588ff7b181803017b1080034921580398273f97a901d479099722018218a00398873fd4720682175003d3970bd8970c82171803d86707dbbc07644097340182136003983b3fd4b40298aa3f973301d4a303978b01821a980398a83fd48b0497ab01821a880398ac3fd4cb0b97aa01821c900398c83fd4a80897cc01d4c00c7b1c900382108003821c6803d4c8087b188803d4cb0b7b1b9803d44c087b18a003821a4803c93a08d87807d83a08c92a0bc98b0bc97b0799773f8218b803d27808821bb003d27b0bd3b90ad8b90cd88604daa40cc9c30a7b1a6003d8c30ac9a203c9b909c9490ac98602821ca803d40c08888801821b7003d88b09c98b0888cb01c9b000821b7803c99b0b95ccff7b1b7803d4b0097b1ca803d48c0bd4b9098474017b187003492168035209dffe2809330449215803018218980398873f8219a003979901d4790a821c880398c73f978901d4790982179003987b3f97cc01977701d4740082185803d48b0bd4cb03d498077b179803d4a8077b178803018219b803d6900aca930bc8ba0ad8ba0bd6930cc8bc028217b003ca700bc8ab04d8b40ad6700bc8ba0ac8a20bca7306c8b60a82189803ca890cc8ac0cd86a06d8ac0a7b1aa803d82b0bd6730ac8ba0ac86a02d6890b821a8803caa906c86b0bca8706c86b0bc8b20aca90097b1980038217d002821ba803c9b706c9a6067b16a803821708037b149003d34706d8470a82141003d8940bda6b0a82190003d8c906c9c90cd8ac02c8620264868218a803c928087b18a003c9ac09c9b70a82179003c97a0a82178003c974077b17a803821868028488ff7b188003821810028487ff7b17780382188803286f821bb8038217a803c87b0bd87b07821cb003c8ac0cc87c0cd3ac09d8ac0ada970a95c70188c9ff88b4ffdb7904880701c97302d43007887701d87609c97607c9980882169003c8a609d8690a8216a003c8a6067b16a003d4690a94a49500ff642364767b1ba80364ca5104da007b1990038e6b8e8cda8b0c953b0195070188770194b7d4860bdbbc07520777ff646482163803d66007ca630bc8b707d8b70bd6630cc8bc097b18880382184003ca800b7b139803c87b03d8b30bd68007c8b707c8790c82179803ca870bc8cb07d8b70bd89c09821c9803d68c0cc8c909c8b909d6460b821c8803cac60cc8cb0bca480c82188803c8cb0bca460cc87c0cd87c07c8b909c89707ca6002644682197803d3930bd839048213980382198003d82909dbb409d3a702d87a04821ba803d8cb07db2407d3bc0cd42c0bdbb7095209c4fe6432018428ff8407ff82133803d63709ca380ac8a909d8a90ad6380bc8ab0282164003ca670bc89b00d8b00bd6670cc8cb0bc8b20aca680cc8ac0bd82a0ad66806c8a602821ab803ca7a06c8b606d8cb0cd8b60bc8c202ca8a08d67a0cc8c808821cb003ca7c0cc8c808c82808c8b802ca370482181003d86807821b0803c97b03821b7803d30b07d80b0c821a8003d84a09da790cc96808d8c806c96307c92707c9c808c99b0bc90b09c94a0a951b0010462b1ff9951b0010462b1ef9951b0010462b1df9951b0010462b1cf9951b0010462b1bf9951b0010462b1af9951b0010462b19f9951b0010462b18f9951b0010462b17f9951b0010462b16f9951b0010462b15f9951b0010462b14f9951b0010462b13f9951b0010462b12f9951b0010462b11f9951b0010462b10f9951b0010462b0ff9951b0010462b0ef9951b0010462b0df9951b0010462b0cf9951b0010462b0bf9951b0010462b0af9951b0010462b09f9951b0010462b08f9951b0010462b07f9951b0010462b06f9951b0010462b05f9951b0010462b04f9951b0010462b03f9951b0010462b02f9951b0010462b01f9951b0010462b00f9951b001078bae0f898ab38951c001078cbe7f898ab30951c001078cbe6f898ab28951c001078cbe5f898ab20951c001078cbe4f898ab18951c001078cbe3f898ab10951c001078cbe2f898aa08951b001078bae1f8951a001078a9e8f8989a38951b001078baeff8989a30951b001078baeef8989a28951b001078baedf8989a20951b001078baecf8989a18951b001078baebf8989a10951b001078baeaf8989908951a001078a9e9f8951900107898f0f8988938951a001078a9f7f8988930951a001078a9f6f8988928951a001078a9f5f8988920951a001078a9f4f8988918951a001078a9f3f8988910951a001078a9f2f8988808951900107898f1f8951800107887f8f8987838951900107898fff8987830951900107898fef8987828951900107898fdf8987820951900107898fcf8987818951900107898fbf8987810951900107898faf8987708951800107887f9f88217f0019518ff079588e100c887077c78117c79107c7a127c7b13978808d4980897aa1097bb18d4ba0ad4a8087c79157c7a147c7b167c7c17979908d4a90997bb1097cc18d4cb0bd4b909979920d4890282130002d0320a7c78197c7b187c7c1a7c761b978808d4b80897cc10976618d46c0cd4c8087c7b1d7c7c1c7c761e7c791f97bb08d4cb0b976610979918d46909d4b909979920d489049749018218f801cf8909d4a9097b19d0027c79097c7a087c7b0a7c7c0b979908d4a90997bb1097cc18d4cb0bd4b9097c7a0d7c7b0c7c7c0e7c760f97aa08d4ba0a97cc10976618d46c0cd4ca0a97aa20d49a0ad03a09972201821be801cfb20bd4b9007c79017c7b7c7c027c7603979908d4b90997cc10976618d46c0cd4c9097c7b057c7c047c76067c770797bb08d4cb0b976610977718d46707d4b707977720d49707d0370797aa01cf8a098218d002d49707d03403016479d48707649a7b1958026484d43008d4870788770182182003d487077b17a80368489589406838da390868a9959940680ada090a95a98000d4340bdab908d8a90994b9821a3003d39a0bd89a0c82172803d88706dab60c88cb0195b2ff9acbc99a0ac96a06c9870764ba8eb8642b8e29da28098e687b17a00388770001857701db6807dbc907821ca803d47c0c7b13600294c37b14d002644294c27b106802640994c982105802640794c7520c3b0a8218a003858cff0064a4d4ac0cd4b60ad4ca0a510a240a8219a0039598017b18a803888701c867077b178003d48707887701c847077b177003d84707c8b7077b1778039a92ff00951700107870c0f8951700104627bff8951700104627bef8951700104627bdf8951700104627bcf8951700104627bbf8951700104627baf8951700104627b9f8951700104627b8f8951700104627b7f8951700104627b6f8951700104627b5f8951700104627b4f8951700104627b3f8951700104627b2f8951700104627b1f8951700104627b0f8951700104627aff8951700104627aef8951700104627adf8951700104627acf8951700104627abf8951700104627aaf8951700104627a9f8951700104627a8f8951700104627a7f8951700104627a6f8951700104627a5f8951700104627a4f8951700104627a3f8951700104627a2f8951700104627a1f8951700104627a0f882176802951800107887c8f89808387b181002951900107898c7f89808307b180802951900107898c6f89808287b18d001951900107898c5f89808207b18c801951900107898c4f89808187b18c001951900107898c3f89808107b18b801951900107898c2f89808087b18b001951900107898c1f88214d002951800107884d0f89878387b18a801951900107898cff89878307b18a001951900107898cef89878287b189801951900107898cdf89878207b189001951900107898ccf89878187b188801951900107898cbf89878107b188001951900107898caf89877087b177801951800107887c9f882176002951800107887d8f89848387b187001951900107898d7f89848307b186801951900107898d6f89848287b186001951900107898d5f89848207b185801951900107898d4f89848187b185001951900107898d3f89848107b185803951900107898d2f89848087b185003951900107898d1f89878387b184803951900107898dff89878307b181803951900107898def89878287b181003951900107898ddf89878207b180803951900107898dcf89878187b180003951900107898dbf89878107b182002951900107898daf89877087b171802951800107887d9f897273898773b9519ff079599c100c979097c97197c9a187c9b1a7c9c1b977708d4a70797bb1097cc18d4cb0bd4b7077c9a1d7c9b1c7c9c1e7c961f97aa08d4ba0a97cc10976618d46c0cd4ca0a97aa20d47a0b7c97117c9a107c9c127c9613977708d4a70797cc10976618d46c0cd4c7077c9a157c9c147c96167c981797aa08d4ca0a976610978818d46808d4a808978820d47803842807cf8b07983a0185823fd02a0ad4a7077b17a0037c97097c9a087c960a7c9b0b977708d4a70797661097bb18d46b0bd4b7077c9a0d7c9b0c7c960e7c9c0f97aa08d4ba0a97661097cc18d46c0cd4ca0a97aa20d47a06986701858affd0a707cf830ad4a7077b1798037c97017c9a7c9b027c9c03977708d4a70797bb1097cc18d4cb0bd4b7077c9a057c9b047c9c067c990797aa08d4ba0a97cc10979918d4c909821c7803d4a909979920d49707987901d0290982127003cf860a821b8003d4a9097b198803d4cb09821aa803d42a0ad4a909cf87077b17900351095f0549216803492160038217100295180010788767f88217080295180010788766f88217d00195180010788765f88217c80195180010788764f88217c00195180010788763f88217b80195180010788762f88217b00195180010788761f88217a8019518001078876ff88217a0019518001078876ef8821798019518001078876df8821790019518001078876cf8821788019518001078876bf8821780019518001078876af88217780195180010788769f88217700195180010788777f88217680195180010788776f88217600195180010788775f88217580195180010788774f88217500195180010788773f89517001046279ff89517001046279ef89517001046279df89517001046279cf89517001046279bf89517001046279af895170010462799f895170010462798f895170010462797f895170010462796f895170010462795f895170010462794f895170010462793f895170010462792f895170010462791f895170010462790f89517001046278ff89517001046278ef89517001046278df89517001046278cf89517001046278bf89517001046278af895170010462789f895170010462788f895170010462787f895170010462786f895170010462785f895170010462784f895170010462783f895170010462782f895170010462781f895170010462780f895170010787060f88217680295180010788768f895170010787470f88217600295180010788778f88217580395180010788772f88217500395180010788771f8821748039518001078877ff8821718039518001078877ef8821710039518001078877df8821708039518001078877cf8821700039518001078877bf8821720029518001078877af88217180295180010788779f88216a80397673898773b9518ff07958861c878087c87117c89107c8a127c8b13977708d4970797aa1097bb18d4ba0ad4a7077c89157c8a147c8b167c8c17979908d4a90997bb1097cc18d4cb0bd4b909979920d47902846907d092037c87197c8b187c861a7c8c1b977708d4b70797661097cc18d46c0cd4c7077c8b1d7c8c1c7c861e7c8a1f97bb08d4cb0b97661097aa18d46a0ad4ba0a97aa20d47a0497470185903fcf0707d473077b1758037c87097c8a087c8c0a7c8b0b977708d4a70797cc1097bb18d4cb0bd4b7077c8a0d7c8b0c7c8c0e7c860f97aa08d4ba0a97cc10976618d46c0cd4ca0a97aa20d47a03d09307972201859bffcfb20cd47c0c7c87017c8b7c86027c8a03977708d4b70797661097aa18d46a0ad4a7077c8a057c8b047c86067c880797aa08d4ba0a976610978818d46808d4a808978820d48707d09707973301cf0308d48702d094038219c0038897018218d003c978077b171803d489078877018218c803c9780a7b1a1003d878078218d803c978087b1808039599ff7b190003014921480398283f97c601d48606972201821ba00398b83fd4820482181803d36807d8680982180003d8480adb790a9733018210580398073fd473027b12500398cc3f970001d4c00397b70182189803988b3fd4b70c978b018217880398793fd4b909977701821b900398b83fd4780897bb0182176803d47b0b7b1b9003821b6003d4b8087b188803d4b9097b199803d4cb077b17a00382181003c93807d8a707d8380882190803c92909c98909c97909999a3f8217c003d27a028218d003d2a808d38609d8860bd82400da900b8219c803d2a909c99307c9b70c7b1c5803d8b70bd89309821cd803d2ac0c82175003c9c70cc99c0cc9bc03c98606c9060cc92402821ba80382168003d46b0788770182197003d87908c9790788b901c9960682197803c9890995bbff7b1680037b197803d496087b1ba803d47b09d4980884aa017b1a68037b177003492160035208b3fe280b4921680349214803018219980398973f8218a003978801d4780a821c880398c73f979801d478088217900398793f97cc01977701821b6803d4b707821b4803d4b909d4c909d48b02d4ab0382105802018218c003d6780a8216d003ca760bc8ba0ad8ba0bd6760cc8bc0cca980bc8ab04d8b40ad6980bc8ba0ac8ca0ad8ca0bd6960cc8cb0bca960cc8ca0ad8ca0cc8cb0b7b1ba803ca620cd6820bc8cb0bca830cc8cb03821cc803d6c70b8216d803ca6706c86b0bcac909c8b909c839096486ca8208cac70bc88b0bd88b08c898088219a803c89808c8ab0bd8ab09821a6002c99a09ca7607c9890282196802d34908d8490cd87006da860c821ad002d8ba08c9ba0bd8cb0ac8a808c982087b189803c9cb0cc96908c94804c97002821bf002d62b078213c002ca2308c88707ca4b09c8790a7b1a5003d89a09d64b06c86909d88707d62308c88707c87909d87907d64308c88707ca43087b14a003c88909d88908c88707d6cb00cac3087b18780364ca7b1ca803c88000821cf802d62c068218e802ca28087b188803c868087b188003ca4c047b147003c88404c87408ca2c07c87909d8790c7b1c6803c88c0ccaab08c889097b195803d88909821a9803caab087b186003c80808c8c807c89707d387067b174803d88707da69077b179003d34c07d84c09821c6803da7c0982176003d87807d6ab0864abc8870782187803d88008821aa803d6a30ac88a0a82187003d88408821ca0038210f802d6c00cc8c808821c880382168003d8c6067b1280038214e802d6240cc8c606c8a707d8a70ad6b30cc8ca0acab30c64b2c8c707d8c70cc8ca0a82139003c87303d87307c8a707c86808d8680a821ba003d6b40cc8ca0acab40bc8b808d8b80bc8ba0ac88909d88908c8a808c89303d8930c7b1c8803c88707c87c0c8219a803640ad69007ca94007b109003c87000ca9a0764a6c873037b13a003d8730bca2a0ac80a09c8b902c8c202d39203d89207da3b07d38c0bd88c08821c8803dabc08d8a909821c9803d6c60ac8a909821a9003d8a00a821ba803d6b40bc8ba0acac40bd6c40cc8a909d8a90ac8ac0c821aa003c8b909c89808c87800d8b907d89809d88008c8c707c89707c8870c8218d003d32807d882088219c003d89a09db78098216c803d86007821bd803d3cb08d8bc0bda870bd30607d48707db7b095109820d821780038218f002ca78038216380198663f6427821258036428da6a08db6a0082195003951a001078a948f8821a4803951b001078ba58f8989b387b1b7003989b307b1b6803989b287b1b6003989b207b1b1803989b187b1b1003989b107b1bf002989b087b1bc002da6a0998ab387b1ba80398ab307b1ba00398ab287b1b980398ab207b1b900398ab187b1b880398ab107b1b800398ab087b1b7803da670adb670c821b480298bb3f6497dab807daba08dbb00cdbba00951a001078a340f8983a387b1a5003983a307b1a4803983a287b1a6802983a207b1a6002983a187b1a5802983a107b1a4802983a087b1a2002da6203dab903987b0182195002d09b0b821ae001cfa806d4b606cfac0b980c01d09c0cd4cb04cfa70b983701d09707d47b0b7b1b0803988801d09807cfa008d4780c8217b80368779577408213b0036838da370868b79579407b1600036867db67097b1cf80268c7957740684adb4a07959a8000d89a0bd44c09da9a07949b95868000d8860cd87608d3bc0ad8bc09daa8097b1ce802c9bc0ac98a0a8890019500ff9a987b1810018e8b8e0c7b101801da0b0c7b16d002c976067b160801886700018577018ea67b1a0001dba607db9c078218500395190010789847f88218480395190010789846f88218680295190010789845f88218600295190010789844f88218580295190010789843f88218480295190010789842f88218200295190010789841f8821870039519001078984ff8821868039519001078984ef8821860039519001078984df8821818039519001078984cf8821810039519001078984bf88218f0029519001078984af88218c00295190010789849f898293895180010788957f898293095180010788956f898292895180010788955f898292095180010788954f898291895180010788953f898291095180010788952f895180010788250f898290895180010788951f88218a8039519001078985ff88218a0039519001078985ef8821898039519001078985df8821890039519001078985cf8821888039519001078985bf8821880039519001078985af88218780395190010789859f882100003d44009821b08038218f802d48b0cd4c909821ab803d43a0c644388c601889901d4960cd47c0c9517001046273ff89517001046273ef89517001046273df89517001046273cf89517001046273bf89517001046273af895170010462739f895170010462738f895170010462737f895170010462736f895170010462735f895170010462734f895170010462733f895170010462732f895170010462731f895170010462730f89517001046272ff89517001046272ef89517001046272df89517001046272cf89517001046272bf89517001046272af895170010462729f895170010462728f895170010462727f895170010462726f895170010462725f895170010462724f895170010462723f895170010462722f895170010462721f895170010462720f88217f0019519ff07959941c9790764847c79187b1948017c79197b1920017c791a7b1930017c791b7b1928017c791c7b1960017c791d7b1940017c791e7b1958017c791f7b1950017c79107b1988017c79117b1968017c79127b1978017c79137b1970017c79147b19a0017c79157b1980017c79167b1998017c79177b1990017c79087b19c8017c79097b19a8017c790a7b19b8017c790b7b19b0017c790c7b1910027c790d7b19c0017c790e7b1908027c790f7b19d0017c797b1950027c79017b1918027c79027b1948027c79037b1920027c78047b1868027c79057b1958027c79067c72077b13f002643894c87b18880394c47b14a80394c0640394cb64b47b16c0027b196002520ca708821a080185acff00821b1001d4bc0c8210180182190001d40906d46c0c510c86087b12f80095a8017b18a803888701c897077b178003d48707887701c8b7077b177003d8b707c807077b1778039aa2ff008217080395180010788700f84621ff074621fe074621fd074621fc074621fb074621fa074621f9074621f8074621f7074621f6074621f5074621f4074621f3074621f2074621f1074621f0074621ef074621ee074621ed074621ec074621eb074621ea074621e9074621e8074621e7074621e6074621e5074621e4074621e3074621e2074621e1074621e0078210000395180010788008f89878387b18f00095190010789807f89878307b18e80095190010789806f89878287b18e00095190010789805f89878207b18d80095190010789804f89878187b18d00095190010789803f89878107b18c80095190010789802f89877087b17c00095180010788701f88214f80295170010787410f89807387b17b8009518001078870ff89807307b17b0009518001078870ef89807287b17a8009518001078870df89807207b17a0009518001078870cf89807187b1798009518001078870bf89807107b1790009518001078870af89807087b17880095180010788709f88218f00295170010787818f89847387b17800095190010789717f89847307b177895190010789716f89847287b177095190010789715f89847207b176895190010789714f89847187b176095190010789713f89847107b17580395190010789712f89847087b17500395190010789711f89887387b1748039519001078971ff89887307b1718039519001078971ef89887287b1710039519001078971df89887207b1718019519001078971cf89887187b1710019519001078971bf89887107b1708019519001078971af89887087b17000195180010788719f897283898883b9517ff07957701c987087c89197c8a187c8b1a7c8c1b979908d4a90997bb1097cc18d4cb0bd4b9097c8a1d7c8b1c7c8c1e7c861f97aa08d4ba0a97cc10976618d46c0cd4ca0a97aa20d4a9097c8a117c8b107c8c127c861397aa08d4ba0a97cc10976618d46c0cd4ca0a7c8b157c8c147c86167c871797bb08d4cb0b976610977718d46707d4b707977720d4a703842707cf790b983c0185723fd02c0cd4cb0b7b1ba0037c8b097c8c087c860a7c890b97bb08d4cb0b976610979918d46909d4b9097c8b0d7c8c0c7c860e7c8a0f97bb08d4cb0b97661097aa18d46a0ad4ba0a97aa20d49a0b98b901857affd0a909cf730ad4a9097b1998037c89017c8a7c8c027c8603979908d4a90997cc10976618d46c0cd4c9097c8a057c8c047c86067c880797aa08d4ca0a821c7803976610978818d46808d4a808978820d49808988901d0290982167003cf7b0a821b8003d4a9097b198803d4cb09821aa803d46a0ad4a909cf78077b17900351093a0449216803492160038217f0007817a7078217e8007817a6078217e0007817a5078217d8007817a4078217d0007817a3078217c8007817a2078217c0007817a1078217b8007817af078217b0007817ae078217a8007817ad078217a0007817ac07821798007817ab07821790007817aa07821788007817a907821780007817b7078217787817b6078217707817b5078217687817b4078217607817b3074621df074621de074621dd074621dc074621db074621da074621d9074621d8074621d7074621d6074621d5074621d4074621d3074621d2074621d1074621d0074621cf074621ce074621cd074621cc074621cb074621ca074621c9074621c8074621c7074621c6074621c5074621c4074621c3074621c2074621c1074621c007821708037817a0077810a8077814b0078217f0027817b807821758037817b207821750037817b107821748037817bf07821718037817be07821710037817bd07821718017817bc07821710017817bb07821708017817ba07821700017817b9078216a80397673898773b9518a007c887077c78117c79107c7a127c7b13978808d4980897aa1097bb18d4ba0ad4a8087c79157c7a147c7b167c7c17979908d4a90997bb1097cc18d4cb0bd4b909979920d48902846a07d0a2037c79197c7b187c7c1a7c761b979908d4b90997cc10976618d46c0cd4c9097c7b1d7c7c1c7c761e7c781f97bb08d4cb0b976610978818d46808d4b808978820d4980097080185a43fcf4808d483087b1858037c78097c79087c7b0a7c7c0b978808d4980897bb1097cc18d4cb0bd4b8087c790d7c7b0c7c7c0e7c760f979908d4b90997cc10976618d46c0cd4c909979920d48909d0a90897220185abffcfb20bd4b8037c78017c7b7c7c027c7603978808d4b80897cc10976618d46c0cd4c8087c7b057c7c047c76067c770797bb08d4cb0b976610977718d46707d4b707977720d48707d0a707979901cf4906d47606d0a0008217b8038878018219b003c989087b184803d497088e889588ff7b1818039577ff7b171003821b8803014921500398693f973a01d49a04976601821ca00398c93fd4690982174803d3470ad8470682171003d89702dba60297070182185803988a3fd4a700983a3f978801d4a80397c8018217980398763fd4680897760198bc3fd46c0c97b60182179003987b3fd46b0b977601821a6803d46a0a7b1a9003821a6003d4ab0b7b1b8803d4ac0c7b1c9803d4a8087b18a00382171803c93708d82808d8370bc9070cc9bc0cc98c0c99cc3f821bb803d2cb0b8216b003d2c606d36402d86408d8b90ada2a08c983077b175803d88308c98000c96408c9a803c9b906821ba80382178003d47b08888801821a7003d88a09c98a0888ba01c9a707821a7803c99a0a95bbff7b1780037b1a7803d4a7097b1ba803d48b0a821b8803d4a90984cc017b1c68037b187003492160035209d9fe28264921c002ff4921d002ff4921f002ff4921e802ff28bb124921680349215003821b8803018219980398973f8218a003978801d4780898b73f979901d4790982179003987a3f97bb01977701821c6803d47c04821c5003d4ca0ad4ba03d49c077b17a803d48c077b1788038212f800018218200197880882194801d49808821a300197aa10821b280197bb18d4ba0ad4a808821a400197aa0882196001d49a0a821b580197bb10821c500197cc18d4cb0bd4ba0a97aa20d4a808821a680197aa0882198801d49a0a821b780197bb10821c700197cc18d4cb0bd4ba0a821b800197bb088219a001d49b0b821c980197cc1082169001976618d46c0cd4cb0b97bb20d4ba0a82190002cf9808649798ab018219f801d09b0bd4b8087b1880038218a801978808821bc801d4b808821bb80197bb10821cb00197cc18d4cb0bd4b808821bc00197bb08821c1002d4cb0b821c080297cc108216d001976618d46c0cd4cb0b97bb20d4b808cf7a0a988b01821ce801d0cb0bd4ba0a7b1a7803821a180297aa08821b5002d4ba0a821b480297bb10821c200297cc18d4cb0bcf7808d4ba0a821b580297bb0882176802d47b0b821c600297cc10972618d46c0cd4cb0b97bb20d4ba0a7b1a900398aa01d09a0ad4a8087b186802821cb8036440d6c4086439cac30ac8a808d8a80ad6c30bc8ab068217b003ca740ac88a03d8a308d6740ac8a808c8860bca790ac8ba08d8a80ad86b0bd67906c86b0bc8ba0a8212a803d62c0b82148803ca4c06c86b0bca2706c86b0bca2c06c88606d88608c8ba0ac88a0acac0087b1870038217f002c9a7077b17a003821700037b136803d3370a7b1a9803d8370b821a0803d88a0c82189803da8c0b8213f802d86308c96306d8b603c83808821aa003c98a087b18a0036408c9b6067b169803821a6803c9a70bc9cb00642b82170002821c9003cf7c077b17f802649782197003821a0803c99a022873821cb803c82c0cd82c07821ab003c80a0ac87a0ad30a09d80a0bda970b95a70188a9ff88c3ffdb79038887016469c97606d498078877018219a803d87900c97902c9040482179803c8b709d8790b8217a003c8b7077b17a003d4790b94b39588ff6467642b64c264a07b1998035103d9007b1ba8038eba8e4cda4a0c957a01647695870188770194a7d44b0adbac07520771ff821b3803d6b807cab60ac8a707d8a70ad6b60c7b169003c8ac06648382184003ca830c7b148803c87c04d8c40cd68309c8c909c8960a82179003ca870cc8ac09d8c90cd86a0a82179003d68706c86a0ac8ca0a8217a803d67b0c82168803ca6b06c86c0cca78066438c86c0cca7b06c89606d89609c8ca0ac8a909cab30a821b8003d3b40cd84b0782148803821b7803d8ab0adbc70ad30907d89009d8620cdb790cd32606d4670782169003db7c0a520abefe8469ff8488ff82133803d63807ca390ac8a707d8a70ad6390bc8ab02821a4003caa80bc87b00d8b00bd6a80cc8cb0bc82b0bd82b02d6a90cc8c202caa90cc8cb0bd8cb0cc8c202821ab803ca9a09d68a0cc8c9098217b003ca870cc8c909c82909ca8a0ac8ba0ad8ba0bc8b909ca3808821b0003c99b0282178003d30709d8070c821b7803d88b06da960c82190803d8a903c9a90ad8ca09c83909c99204c9ca02c90707c967007b101803c98b0368486827957740db4807d442086809683a95aa40db090a95a98000da8907d8a9099489821bd002d87b088216e802d3960ad8960cdaa80cc97b0b88ca0195aaffc99606c986068e677b1ba00388b80001858801db67089acb8eb78ea97b1a9003daa709dac809d44007d42308d487078877018218c002d487076438d4970c7b1408037b12100394c47b14880394c27b129803640394c3648094c07b184803520cfc078218a003858cff00d4bc0c82129003d4260ad4ca0a510ae3079589017b19a803889701c867077b178003d49707887701c8b7077b177803d8b707c827077b1788039a82ff00821848037818800746217f0746217e0746217d0746217c0746217b0746217a074621790746217807462177074621760746217507462174074621730746217207462171074621700746216f0746216e0746216d0746216c0746216b0746216a074621690746216807462167074621660746216507462164074621630746216207462161074621600782171803781788079889387b195802781987079889307b195002781986079889287b194802781985079889207b192002781984079889187b191802781983079889107b191002781982079889087b1908027819810782141003781490079879387b19d00178198f079879307b19c80178198e079879287b19c00178198d079879207b19b80178198c079879187b19b00178198b079879107b19a80178198a079877087b17a0017817890782100803781098079847387b179801781797079847307b179001781796079847287b178801781795079847207b178001781794079847187b177801781793079847107b176803781792079847087b176003781791079807387b17580378179f079807307b17500378179e079807287b17f00278179d079807207b17e80278179c079807187b17d00278179b079807107b17c00278179a079807087b1760027817990797283898883b95178007c987087c89197c8a187c8b1a7c8c1b979908d4a90997bb1097cc18d4cb0bd4b9097c8a1d7c8b1c7c8c1e7c861f97aa08d4ba0a97cc10976618d46c0cd4ca0a97aa20d49a0b7c89117c8a107c8c127c8613979908d4a90997cc10976618d46c0cd4c9097c8a157c8c147c86167c871797aa08d4ca0a976610977718d46707d4a707977720d49703842707cf7b09983c0185723fd02c0cd4c9097b1900037c89097c8c087c860a7c8b0b979908d4c90997661097bb18d46b0bd4b9097c8b0d7c8c0c7c860e7c8a0f97bb08d4cb0b97661097aa18d46a0ad4ba0a97aa20d49a0c98c901857affd0a909cf730ad4a9097b19a0037c89017c8a7c8b027c8603979908d4a90997bb10976618d46b0bd4b9097c8a057c8b047c86067c880797aa08d4ba0a821b8803976610978818d4680882168003d4a808978820d49808988901d02909cf7c0a821c7803d4a9097b199003d4b609821aa803d4ca0ad4a909cf78077b179803510924044921700382175802781727078217500278172607821748027817250782172002781724078217180278172307821710027817220782170802781721078217d00178172f078217c80178172e078217c00178172d078217b80178172c078217b00178172b078217a80178172a078217a001781729078217980178173707821790017817360782178801781735078217800178173407821778017817330746215f0746215e0746215d0746215c0746215b0746215a074621590746215807462157074621560746215507462154074621530746215207462151074621500746214f0746214e0746214d0746214c0746214b0746214a0746214907462148074621470746214607462145074621440746214307462142074621410746214007821748037817200782171803781728077814300778103807821768037817320782176003781731078217580378173f078217500378173e078217f00278173d078217e80278173c078217d00278173b078217c00278173a0782176002781739078212a80397273898773b95182007c887077c78117c79107c7b127c7c13978808d4980897bb1097cc18d4cb0bd4b8087c79157c7b147c7c167c7617979908d4b90997cc10976618d46c0cd4c909979920d48900842407d040027c7b197c7c187c761a7c791b97bb08d4cb0b976610979918d46909d4b9087c7b1d7c7c1c7c761e7c791f97bb08d4cb0b976610979918d46909d4b909979920d498087b18680397890185483f7b186003cf8909d492037c79097c7b087c7c0a7c760b979908d4b90997cc10976618d46c0cd4c9097c7b0d7c7c0c7c760e7c780f97bb08d4cb0b976610978818d46808d4b808978820d48909d04908970201854bffcfb20bd4b8007c78017c7b7c7c027c7603978808d4b80897cc10976618d46c0cd4c8087c7b057c7c047c76067c770797bb08d4cb0b821c700364326403976610977718d46707d4b707977720d48707d0470797990182186003cf8908d4870082176803d047048218b8038887018219b003c979077b176003d498078e779577ff7b1758039588ff7b18500382160003017b1c70034921680398073f973801d4870797000198683fd4800082196003d37908d87909821b5003d80b0bdb890b974401642998283fd4840298383f979c01d4c808976c018219a00398963fd46c04979601821c900398c93fd4960397c90182169803986c3fd49c0c97660182197003d496067b16980386cc7b1c900386397b19a0038644821a5803c98a09d8b909d88a0bc92a0c6423c9bc0cc99c0b99bb3f8219b803d2b9098216b003d2b606d36702d8670ad8900cda2c0ac9a802d8a808c98308c9670764466484c9c703c99000821aa803821c8003d4ca0788770182197803d87908c9790788a901c99c0c82198803c9890995aaff7b1988037b1c8003d49c087b1aa803d47a09d4980884bc017b1778035208ecfe280d330c4921680382160003018219a00398973f976801d47808821b900398b73f979901d4790982179803987a3f97bb01977701d47c00821c6803d4ca0ad4ba03d49c077b179803d48c077b178803018219b803d6900aca930bc8ba0ad8ba0bd6930cc8bc028217b003ca700bc8ab04d8b40ad6700bc8ba0ac8a20bca7306c8b60a82189803ca890cc8ac0cd86a06d8ac0a7b1aa803d82b0bd6730ac8ba0ac86a02d6890b821a8803caa906c86b0bca8706c86b0bc8b20aca90097b19800382170803821ba803c9b706c9a6067b16a803821718037b149003d34706d8470a82144803d8940bda6b0a82191003d8c906c9c90cd8ac02c8620264868218a803c928087b18a003c9ac09c9b70a82179003c97a0a82178003c974077b17a8038218f8028488ff7b188003821868028487ff7b17780382188803286f821bb8038217a803c87b0bd87b07821cb003c8ac0cc87c0cd3ac09d8ac0ada970a95c70188c9ff88b4ffdb7904880701c97302d43007887701d87609c97607c9980882169003c8a609d8690a8216a003c8a6067b16a003d4690a94a49500ff642364767b1ba80364ca5104da007b1990038e6b8e8cda8b0c953b0195070188770194b7d4860bdbbc07520777ff646482163803d66007ca630bc8b707d8b70bd6630cc8bc097b18880382184003ca800b7b139803c87b03d8b30bd68007c8b707c8790c82179803ca870bc8cb07d8b70bd89c09821c9803d68c0cc8c909c8b909d6460b821c8803cac60cc8cb0bca480c82188803c8cb0bca460cc87c0cd87c07c8b909c89707ca6002644682197803d3930bd839048213980382198003d82909dbb409d3a702d87a04821ba803d8cb07db2407d3bc0cd42c0bdbb7095209c4fe6432018428ff8407ff82133803d63709ca380ac8a909d8a90ad6380bc8ab0282164003ca670bc89b00d8b00bd6670cc8cb0bc8b20aca680cc8ac0bd82a0ad66806c8a602821ab803ca7a06c8b606d8cb0cd8b60bc8c202ca8a08d67a0cc8c808821cb003ca7c0cc8c808c82808c8b802ca370482184803d86807821b1803c97b03821b7803d30b07d80b0c821a8003d84a09da790cc96808d8c806c96307c92707c9c808c99b0bc90b09c94a0a46211f0746211e0746211d0746211c0746211b0746211a074621190746211807462117074621160746211507462114074621130746211207462111074621100746210f0746210e0746210d0746210c0746210b0746210a0746210907462108074621070746210607462105074621040746210307462102074621010746210007781ae00698ab38781be70698ab30781be60698ab28781be50698ab20781be40698ab18781be30698ab10781be20698aa08781ae1067819e806989a38781aef06989a30781aee06989a28781aed06989a20781aec06989a18781aeb06989a10781aea069899087819e9067818f0069889387819f7069889307819f6069889287819f5069889207819f4069889187819f3069889107819f2069888087818f1067817f8069878387818ff069878307818fe069878287818fd069878207818fc069878187818fb069878107818fa069877087817f9068217f0019518e006c887077c78117c79107c7a127c7b13978808d4980897aa1097bb18d4ba0ad4a8087c79157c7a147c7b167c7c17979908d4a90997bb1097cc18d4cb0bd4b909979920d4890282130002d0320a7c78197c7b187c7c1a7c761b978808d4b80897cc10976618d46c0cd4c8087c7b1d7c7c1c7c761e7c791f97bb08d4cb0b976610979918d46909d4b909979920d489049749018218f801cf8909d4a9097b19f0027c79097c7a087c7b0a7c7c0b979908d4a90997bb1097cc18d4cb0bd4b9097c7a0d7c7b0c7c7c0e7c760f97aa08d4ba0a97cc10976618d46c0cd4ca0a97aa20d49a0ad03a09972201821be801cfb20bd4b9097b19d0027c79017c7b7c7c027c7603979908d4b90997cc10976618d46c0cd4c9097c7b057c7c047c76067c770797bb08d4cb0b976610977718d46707d4b707977720d49707d0370797aa01cf8a09d497077b17c002d034077b17e802018218d80282109002d4080764898212a00282148802d44208d4870788770182182003d487077b17a8036807957740684bda470b68979577406828da270895878000d4400adaa70bd8870794a782193003d37908d8790c821a2803d8ba06da860c88c8019583ff9ac8c97907c96707c9ba0a7b18a0038e8664388e39da36098e7664ab88aa000185aa01db760adbc90a8219a803d4a90994947b1468026406949694928213d80294935209480864b085b9ff00821ba003d4b909d4870ad4a909821af0028214d002821ce80251093208950a017b1aa80388a901c897077b178003d4a707887701c8b7077b176803d8b707c887077b1770039a03ff008217d8027817400546213f0546213e0546213d0546213c0546213b0546213a054621390546213805462137054621360546213505462134054621330546213205462131054621300546212f0546212e0546212d0546212c0546212b0546212a05462129054621280546212705462126054621250546212405462123054621220546212105462120058218a002781848059879387b196002781947059879307b195802781946059879287b195002781945059879207b194802781944059879187b192002781943059879107b191802781942059877087b1710027817410582109002781050059887387b17080278174f059887307b17d00178174e059887287b17c80178174d059887207b17c00178174c059887187b17b80178174b059887107b17b00178174a059888087b18a8017818490582128802781258059807387b17a001781757059807307b179801781756059807287b179001781755059807207b178801781754059807187b178001781753059807107b175803781752059807087b175003781751059827387b17480378175f059827307b17180378175e059827287b17100378175d059827207b17080378175c059827187b17000378175b059827107b17f80278175a059827087b1768027817590597373898773b951b4005c97b0b7cb7197cb9187cba1a7cbc1b977708d4970797aa1097cc18d4ca0ad4a7077cb91d7cba1c7cbc1e7cb61f979908d4a90997cc10976618d46c0cd4c909979920d4790a7cb7117cb9107cbc127cb613977708d4970797cc10976618d46c0cd4c7077cb9157cbc147cb6167cb817979908d4c909976610978818d46808d49808978820d47804843807cf8a0798490185833fd03909d497077b17a0037cb7097cb9087cbc0a7cba0b977708d4970797cc1097aa18d4ca0ad4a7077cb90d7cba0c7cbc0e7cb60f979908d4a90997cc10976618d46c0cd4c909979920d4790c98c7018589ffd09707cf8409d497077b1798037cb7017cb97cba027cb603977708d4970797aa10976618d46a0ad4a7077cb9057cba047cb6067cbb07979908d4a90997661097bb18d46b0bd4b909821b8003979920d49707987901d0390982166803cf8c0a821c7003d4a9097b198803d4cb09821aa803d46a0ad4a909cf87077b179003510964044921780349216003821760027817e704821758027817e604821750027817e504821748027817e404821720027817e304821718027817e204821710027817e104821708027817ef048217d0017817ee048217c8017817ed048217c0017817ec048217b8017817eb048217b0017817ea048217a8017817e9048217a0017817f704821798017817f604821790017817f504821788017817f404821780017817f30446211f0546211e0546211d0546211c0546211b0546211a054621190546211805462117054621160546211505462114054621130546211205462111054621100546210f0546210e0546210d0546210c0546210b0546210a05462109054621080546210705462106054621050546210405462103054621020546210105462100058217d8027817e0048217a0027817e8047810f0047812f804821758037817f204821750037817f104821748037817ff04821718037817fe04821710037817fd04821708037817fc04821700037817fb048217f8027817fa04821768027817f9048216a80397673898773b9518e004c878087c87117c89107c8a127c8b13977708d4970797aa1097bb18d4ba0ad4a7077c89157c8a147c8b167c8c17979908d4a90997bb1097cc18d4cb0bd4b909979920d47903846a07d0a3047c89197c8b187c8c1a7c861b979908d4b90997cc10976618d46c0cd4c9097c8b1d7c8c1c7c861e7c871f97bb08d4cb0b976610977718d46707d4b707977720d4970297270185a03fcf0707d474077b1758037c87097c89087c8c0a7c860b977708d4970797cc10976618d46c0cd4c7077c890d7c8c0c7c860e7c8b0f979908d4c90997661097bb18d46b0bd4b909979920d49707d0a70997330185abffcfb30bd4b9037c89017c8b7c8c027c8603979908d4b90997cc10976618d46c0cd4c9097c8b057c8c047c86067c880797bb08d4cb0b976610978818d46808d4b808978820d49808d0a808977701cf070bd4b804d0a20c8218c0038887018219d003c979077b171803d498078877018219c803c9790a7b1a1003d879078219d803c979097b1908039588ff7b180003821a9803014921480398473f973601d47602974b018219a00398973fd47b0082171803d32706d8270482170003d80707db640797c601821c580398c83fd486047b14500398363f97cc01d4c606979c0198a93fd4c90997ac0182188803988a3fd4ca0a978c01821b900398b83fd4c80897bc01821b7803d4cb0b7b1b9003821b6003d4b8087b188803d4ba0a7b1a9803d4b9097b19a00382191003c96908d87807d8690882190803c94909c98909c9790799773f8219c003d27909821ad003d27a0ad3a203d8a20cd890086404da380c821bc803d2b703c93600c9c00b7b1b5803d8c000d83606821bd803d27b0b821c5003c9bc0bc96b0bc90b0bc9a20ac98a03c994048216a803821c8003d4c608888801821a6803d88a09c98a08886a01c9ac0c821a7003c99a0a9566ff7b1c80037b1a7003d4ac0964bc7b16a803d4860ad4a909821a98038477017b1778037b186803492160035209affe280f4921780349214803821a98030198a73f8218a003978801d48707821b880398b83f97a901d49808821c900398c93f97bb0197cc01821a7803d4ca03821a4803d4a909d4b902d48a06d4a7077b17680201821af0028214d002821ce802017b1ce8027b1250027b1658027b1360028212c002d4a207d4c408d4870788770182182003d487077b17a80368a895894068c8dac908682995994064ab7b1af002684ada490a95a98000d4cb0bdab908d8a90994b9821c3003d39c0ad89c0782102803d88006daa607887b0195bbff9a73c99c0ac96a06644ac980048e388eb9dab8098e68884c000185cc01db680cdb790c8217a803d47c0c8217e80294c77b1798038218f00294c864a994c994c2520c4f08854cff00d43c0cd4b60ad4ca0a8210d003510a3f089548017b18a803888701c867077b178003d48707887701c837077b177003d83707c8b7077b1778039a42ff008217c0027817c0044621bf044621be044621bd044621bc044621bb044621ba044621b9044621b8044621b7044621b6044621b5044621b4044621b3044621b2044621b1044621b0044621af044621ae044621ad044621ac044621ab044621aa044621a9044621a8044621a7044621a6044621a5044621a4044621a3044621a2044621a1044621a0048218d0027818c8049879387b1920027819c7049879307b1918027819c6049879287b1910027819c5049879207b1908027819c4049879187b19d0017819c3049879107b19c8017819c2047b17c0029877087b17c0017817c1048214f0027814d0049887387b17b8017817cf049887307b17b0017817ce049887287b17a8017817cd049887207b17a0017817cc049887187b1798017817cb049887107b1790017817ca047b18d0029888087b1888017818c9048210e8027810d8049847387b1780017817d7049847307b1778017817d6049847287b1770017817d5049847207b1768017817d4049847187b1760017817d3049847107b1758037817d2049847087b1750037817d1049807387b1748037817df049807307b1718037817de049807287b1710037817dd049807207b1708037817dc049807187b1700037817db049807107b17f8027817da049807087b1748027817d90497273898773b9519c004c979097c97197c9a187c9b1a7c9c1b977708d4a70797bb1097cc18d4cb0bd4b7077c9a1d7c9b1c7c9c1e7c961f97aa08d4ba0a97cc10976618d46c0cd4ca0a97aa20d47a0b7c97117c9a107c9c127c9613977708d4a70797cc10976618d46c0cd4c7077c9a157c9c147c96167c981797aa08d4ca0a976610978818d46808d4a808978820d47803842807cf8b07983c0185823fd02c0cd4c7077b17a0037c97097c9c087c960a7c9b0b977708d4c70797661097bb18d46b0bd4b7077c9b0d7c9c0c7c960e7c9a0f97bb08d4cb0b97661097aa18d46a0ad4ba0a97aa20d47a0c98c701858affd0a707cf830a82137003d4a7077b1798037c97017c9a7c9b027c9603977708d4a70797bb10976618d46b0bd4b7077c9a057c9b047c96067c990797aa08d4ba0a976610979918d46909821b8003d4a909979920d49707987901d02909cf8c0a821c7803d4a9097b198803d4cb09821aa803d43a0ad4a909cf87077b17900351097004492168034921600382172002781767048217180278176604821710027817650482170802781764048217d001781763048217c801781762048217c001781761048217b80178176f048217b00178176e048217a80178176d048217a00178176c048217980178176b048217900178176a0482178801781769048217800178177704821778017817760482177001781775048217680178177404821760017817730446219f0446219e0446219d0446219c0446219b0446219a044621990446219804462197044621960446219504462194044621930446219204462191044621900446218f0446218e0446218d0446218c0446218b0446218a04462189044621880446218704462186044621850446218404462183044621820446218104462180048217c002781760048217d002781768047814700478107804821758037817720482175003781771048217480378177f048217180378177e048217100378177d048217080378177c048217000378177b048217f80278177a0482174802781779048216a80397673898773b95186004c878087c87117c89107c8a127c8b13977708d4970797aa1097bb18d4ba0ad4a7077c89157c8a147c8b167c8c17979908d4a90997bb1097cc18d4cb0bd4b909979920d47904846607d064007c87197c89187c8c1a7c8a1b977708d4970797cc1097aa18d4ca0ad4a7077c891d7c8a1c7c8c1e7c8b1f979908d4a90997cc1097bb18d4cb0bd4b909979920d4790297270185633fcf3707d470077b1758037c87097c89087c8a0a7c8b0b977708d4970797aa1097bb18d4ba0ad4a7077c890d7c8a0c7c8b0e7c8c0f979908d4a90997bb1097cc18d4cb0bd4b909979920d4790cd06c079744018569ffcf9409d497007c87017c897c8a027c8b03977708d4970797aa1097bb18d4ba0ad4a7077c89057c8a047c8b067c8807979908d4a90997bb10978818d4b808d49808978820d48707d0670797cc01cf3c08821c6803d48703d0620b8219c0038897018218d003c978077b171003d489078877018218c803c9780a7b1a0803d878078218d803c978087b1800039599ff7b19f802821a9803017b1c68034921180398373f970601d4760697330164048210a00398073fd4730882171003d3670cd867098217f802d8870764837b184803dbc90797b801821b580398b93fd498027b12500398493f97bb01d49b0c97090198ab3fd4b90097ab018219880398983fd4b808979901821b900398ba3fd49a0a97bb0182196803d49b0b7b1b900382196003d49a0a7b1a8803d498087b189803d409087b18a00382190803c9c908d87807d8c90882190003c92909c98909c9790999993f8217c003d27904821ad003d29a0ad3a600d8a60bd84308da080b8217c803d27900c90c02c9b2037b135803d8b202d80c0c821bd803d29b0b82175003c9b70bc9cb0bc92b0bc9a606c9860082174803c94703821ca80382168003d46c07887701821a7003d87a08c97a0788ca01c9a606821a7803c98a0a95ccff7b1680037b1a7803d4a6087b1ca803d47c0ad4a808821a9803849c017b177003492160035208a7fe280d330c49211803821a98030198a73f8218a00397880164a9d4780a821b880398b73f979801d478088217900398793f97bb01977701d47c02821c1803d4c909d4b909d4c808d4ca0a7b1a98038210d00328078210d003017b19a8037b1888037b1290038213c00382176002d6730aca700bc8ba0ad8ba0bd6700cc8bc0c82145002ca430bc8ba0a7b1aa003d8ba0bd64306c86b0bc8cb0bd8cb0cd64006c86c0cca4006c86b0bd86b06c86c02821a5802ca0a06d63a08c86808821c6802ca3c06c86808821cc803d6c70664c9821cd803cac70cc86c0cca9406c86c0cc8c808ca3a0cca9706c8c606d8c60cc8c808c82808c8b606d8b60b82198802c9b90bc98b0b7b1b8003ca7308821ca0028219a003d39c07d89c098214d802d8840bda7b0982179002d8670ac967066402d89607c8a707821a8003c97a077b178802c996067b169002c9bc078219a003c997077b17a002c984077b17d802821b9003d6b307cab008c88707d88708d6b009c89808821aa803caa309c87904d89407d6a309c89707c88707d88708d6a009c89808caa009c89707d89709c89800821c8803ca2c09d63c0a64c6c8a909821a9803ca3a0ac8a9098218c803d68b0a821cd803cacb0cc8ca0a821ca803ca8c0cc8ca0ac8a909ca360aca8b0cc8ac0cd8ac0ac8a909c89008c87c0cd87c078219e802c97907c98702cab30b8219d002d34907d8490a8218c002d8b806da760a8217f002d8c700c9c70cd8ac07c80707c97207c9ac0cc96909c94909c9b808821a9002c8ca0ad8ca0b821c8802c8c707c8b7078210d802c88000d88008821ba002c89b0bc88b03d3930bd89309dab809c89a04d8a408c8870268286847957740db280768386809959940db3809d42408959a8000da8a07d89a0a948a821c2803d87c08821b3003d3ab06d8ab09da6809c9ab0bc98b0bc97c0c7b1c900388c700018577018eb8dbb8078896019566ff9a988e8c8e6ada6c0ada970ad42307d44009d4970788770182192003d49707d47a0a7b12e8026427643294a77b17a8037b14f002640394a47b14a003642094a0643794a77b1798037b13d0027b12c002510a07289ef8fe82199003859aff00d48a0ad46b0cd4ca0a520a072886f8fe959a017b1aa80388a701c8b7077b177803d4a707887701c887077b177003d88707c867077b17800364289a92ff007813400446213f0446213e0446213d0446213c0446213b0446213a044621390446213804462137044621360446213504462134044621330446213204462131044621300446212f0446212e0446212d0446212c0446212b0446212a0446212904462128044621270446212604462125044621240446212304462122044621210446212004781848049837387b176002781747049837307b175802781746049837287b175002781745049837207b174802781744049837187b172002781743049837107b171802781742049837087b171002781741048210f002781050049887387b17080278174f049887307b17d00178174e049887287b17c80178174d049887207b17c00178174c049887187b17b80178174b049887107b17b00178174a049888087b18a801781849048214e802781458049807387b17a001781757049807307b179801781756049807287b179001781755049807207b178801781754049807187b178001781753049807107b175803781752049807087b175003781751049847387b17480378175f049847307b17180378175e049847287b17100378175d049847207b17080378175c049847187b17000378175b049847107b17f80278175a049847087b1768027817590497283898883b95174004c987087c89197c8a187c8b1a7c8c1b979908d4a90997bb1097cc18d4cb0bd4b9097c8a1d7c8b1c7c8c1e7c861f97aa08d4ba0a97cc10976618d46c0cd4ca0a97aa20d4a9097c8a117c8b107c8c127c861397aa08d4ba0a97cc10976618d46c0cd4ca0a7c8b157c8c147c86167c871797bb08d4cb0b976610977718d46707d4b707977720d4a703842707cf790b983c0185723fd02c0cd4cb0b7b1ba0037c8b097c8c087c860a7c890b97bb08d4cb0b976610979918d46909d4b9097c8b0d7c8c0c7c860e7c8a0f97bb08d4cb0b97661097aa18d46a0ad4ba0a97aa20d49a06986901857affd0a909cf730ad4a9097b1998037c89017c8a7c8b027c8c03979908d4a90997bb1097cc18d4cb0bd4b9097c8a057c8b047c8c067c880797aa08d4ba0a821b780397cc10978818d4c808d4a808978820d49808988901d0290982127003cf760a821c8003d4a9097b198803d4cb09821aa803d42a0ad4a909cf78077b17900352090728bef4fe4921680349216003821760027817e703821758027817e603821750027817e503821748027817e403821720027817e303821718027817e203821710027817e103821708027817ef038217d0017817ee038217c8017817ed038217c0017817ec038217b8017817eb038217b0017817ea038217a8017817e9038217a0017817f703821798017817f603821790017817f503821788017817f403821780017817f30346211f0446211e0446211d0446211c0446211b0446211a044621190446211804462117044621160446211504462114044621130446211204462111044621100446210f0446210e0446210d0446210c0446210b0446210a04462109044621080446210704462106044621050446210404462103044621020446210104462100048217d0027817e0038217c0027817e8037810f0037814f803821758037817f203821750037817f103821748037817ff03821718037817fe03821710037817fd03821708037817fc03821700037817fb038217f8027817fa03821768027817f9038216a80397673898773b9518e003c887077c78117c79107c7a127c7b13978808d4980897aa1097bb18d4ba0ad4a8087c79157c7a147c7b167c7c17979908d4a90997bb1097cc18d4cb0bd4b909979920d48903846a07d0a3047c7b197c7c187c761a7c791b97bb08d4cb0b976610979918d46909d4b9097c7b1d7c7c1c7c761e7c781f97bb08d4cb0b976610978818d46808d4b808978820d4980297280185a03fcf0808d484087b1858037c78097c79087c7b0a7c7c0b978808d4980897bb1097cc18d4cb0bd4b8087c790d7c7b0c7c7c0e7c760f979908d4b90997cc10976618d46c0cd4c909979920d48904d0a40897330185a9ffcf9309d489097c78017c7c7c76027c7b03978808d4c80897661097bb18d46b0bd4b8087c7b057c7c047c76067c770797bb08d4cb0b821c6803976610977718d46707d4b707977720d48707d0a707974401cf0408d48703d0a2008218c003888701821ad003c97a077b171003d4a807887701821ac803c97a0b7b1b0803d87a07821ad803c97a0a7b1a00039588ff7b18f8028216a003017b1c68034921180398373f979a01d47a02973301986a3fd4a30a7b1a500382171003d3270bd827088217f802d8a70cdbb80c9700018214580398483fd480037b13480398993f974401d494009768018217980398763fd4680897760182178803987b3fd46b0b97760182179003987a3fd46a0a97760182176803d467077b17900382196003d49a0a7b1a8803d49b0b7b1b9803d498087b18a00382170803c90708d8c808d8070a82170003c9370bc9ab0bc98b0b99bc3f8218c003d28c03821ad003d2ca0ad3a20bd8a20682185003d83804dab406821bc803d2cb0bc9b007c967097b195803d86709d8b00b8216d803d2c60682174803c96706c9b606c99600c9a207c94709c93803821ba80382187803d48b07887701821a7003d87a06c97a0788ba01c9a808821a8003c96a0a8216a00395bbff7b1a80037b187803d4a8087b1ba803d47b0ad4a80884cc017b177003492160035208abfe285ff0fe821918819856185f0a3308607a9801821b0882b74882b95882ba4082bb506f7c6f976fa96fbad4a909d4c70ad49a0a98aa20d4c909979920d4a9095209178b791052091195793f8499e0ff015439000001780082180849181049181849180849084e487b714818200000001248181448181848181c48180848180c481810481804330824330750100c95befe83783307013309240a04013308900202838833070133090a04013308900202838833070133090a04013308900202838833070133090a0401ae98098218187a89018378821908c89808821998026f99821ab0026faa821bb8026fbb821ce0026fc6986c38788c1f986c30788c1e986c28788c1d986c20788c1c986c18788c1b986c10788c1a986c08788c19788618788b1098bc38788c1798bc30788c1698bc28788c1598bc20788c1498bc18788c1398bc10788c1298bb08788b11788a0898ab38788b0f98ab30788b0e98ab28788b0d98ab20788b0c98ab18788b0b98ab10788b0a98aa08788a097889989a38788a07989a30788a06989a28788a05989a20788a04989a18788a03989a10788a0298990878890133082050100e78bdfe837833092033070a0433073300102899bdfe330750101093bdfe3307015010128abdfe004992208484a134290d891011118988884644248910424444888888484a4308018410420821444444444444444444442422922449922411222284104208a184104242081122841042086108218410c20821841042184208218430841042086184104208210c2184104218218410420843082184104608218410c21042082184114208218430841042086184104208210c218410421821841042084308218410a2c05045450821044288101111912249249124128944225122894812914444244544118d4411292222225222518a3492a42a4992244924308410420821082184104208420821841082104208218420841042082108218410420842082184108210420821842084104208210821841042084208218410821042082184208410420821082184104248104208218490208410420821410821841042828452138dd421a156a8d2888888488888a8119100121111118d8888489208112144308410024888482322224408ac4a4444441a1111214260aa1211119122222222222222222242111111a9888888888888284a522251929224899224499228499244a4244992a4244992a42449925444442412294914499428a594529288482412894422128944229148944824128944224a2412894422111111111111111111111111111111111111119148449224499224499224499224499224499224922492489224499224499224924412294992244992244992484422122951449214894811692291449412254a2489a244891251224949921449242a12919288442491242249229524551511119148222212492491482222222222222222222222222222222222222222129188442422118988444424221189484422121189884844221291884424221291884424221189484422924892244992244992244992244992244992244912499224499224499224492225499224499224124912492492444444444444444444444444444444444444444444444444444444444444444444444444444444444444444444444444444424912449922449922449922449922449922449922492244992244992244992a4244992244992244992442291442291488c2489249248124924492489249124129148242249244924922491249248244912914492441291481211916a4424924812492422222222444444a44644a248111111115195889148224924894492448c88288a8a524a89244512495292a812919248924822a2aa88882411914822492411111111111111111111111111111111111111118948442212918844242222118948442212918844442422118948442212918844242211894844221291449224499224499224499224499224499224499248922449922449922449122949922449922491248944229124222222222222222222222222222222222222222222222222222222222222222222222222222222222222222222222222222289244992244992244992244992244992244992249124499224499224499224254992244992249224492291482291482446244991441229924822492249248924918844221149224922912489249144224912894822492289482489888a91482249244924491423222292248924922449924492482245922449922492484412492425914824128948922492244992249194482291244992248924914412499224892492488a489224a9a4924452249224894849aa144992488a22aa88882411892492441211111111111111111111111111111111111111918844242211894844222212918844242211894844242211894844221291884424221189484422129144922449922449922449922449922449922449924892244992244992244912294992244992249148924422912422222222222222222222222222222222222222222222222222222222222222222222222222222222222222222222222222229248922449922449922449922449922449922449124992244992244992244952922449922449922449221289241289442246922491442a92482249224924892489482412912492241249924812492492249188249224928844228988a2224692481249124922112322a288449124924892442492244924499224894849241189a42492248924914844244992442491882492249224922411894844248948444444a488912492449244248944c4482489482292241189a2482289442291884811499292489224491225892412499224492449222229924892482249444a1289244992482412512489888888482222222222222222128988888888101111916a444451a244891229299248929244a52289884844928844125154141511912422229144924822222222222222222222222222222222222222221291884424221189484444221291884424221189884844221291884424221189484422129188442422892449922449922449922449922449922449922491244992244992244992245292244992244912491289442249444444444444444444444444444444444444444444444444444444444444444444444444444444444444444444444444444412912449922449922449922449922449922449922492244992244992244992a4244992244992244992442291442291488c248924924812492449248924912412914824224924492492a4449248229124494412491249448a241111458c44124922492422894462448c942412a59412498a2492a42451a54812a9288a88249148224924111111111111111111111111111111111111111189484422129188442422221189484422129188444424221189484422129188442422118948442212914424499224499224499224499224499224499224892449922449922449922491922449922449924892482412492222222222222222222222222222222222222222222222222222222222222222222222222222222222222222222222222222928824499224499224499224499224499224499224912449922449922449922425499224499224499224128924128944622449249144924822492249248924918844221149224922912425924412892449229248924889482489882862249248124922912423222212499248224992244944924822912449922491442411914412491289441291244924499224492249248924922449922492482289248948922492482229922489a4924a1249914892245292a2922489a4a28a2a228a481225924822914451444444444444444444444444444444444444221291884424221189884844221291884424221211894844221291884424221189484422129188442411499224499224499224499224499224499224492249922449922449922489444a92244992249224491289449288888888888888888888888888888888888888888888888888888888888888888888888888888888888888888888888888882422499224499224499224499224499224499224492449922449922449922449499224499224499224894422894422911849124924912289249224924492481289482412912492241249924812492492249188249224928844928888224622892491241249221111239124922892241189489292449224499228492491489224499248129144124912492489124989482449224912894822a5a492488a2492a4245125222591249188445511114922124924892422222222222222222222222222222222222222221189484422129188444424221189484422129188884424221189484422129188442422118948442292882449922449922449922449922449922449922491244992244992244992245292244992244912491289442249444444444444444444444444444444444444444444444444444444444444444444444444444444444444444444444444444412912449922449922449922449922449922449922492244992244992244992a4244992244992244992442291442291488c248924924812492449248924912412914824224924492492a4449248229124494412491249448a241111458c44124922492492248a1111511445514a2991a42492a42451a5484924492411515411912422914492482222222222222222222222222222222222222222129188442422118948444422129188442422118988484422129188442422118948442212918844242289489224499224499224499224499224499224491249922449922449922449222549922449124992249148249244444444444444444444444444444444444444444444444444444444444444444444444444444444444444444444444444442411499224499224499224499224499224499224922492244992244992244992a42449922449922449128944229144229148c48824492289144924912491249244924844229188249124914892449248229124894424912491442492444454c448124922492249228a1111892449249124499224224924914892244922492291882492489248242289442449124992244992484a2489249224499244924822892449924412492445922449255592488a449224919214952449a454445151115144922891449248228a888888888888888888888888888888888888442422118948442212119188442422118948442222118948442212918844242211894844221291882422499224499224499224499224499224499224492449922449922449922491484992244992449224492291481211111111111111111111111111111111111111111111111111111111111111111111111111111111111111111111111111114944929424499224499224499224499224499224922492244992244992244992a424499224499224499248241249241289c48824899448224512492449248924912412914824224924492492249124924824892412492449249148121151c44824912492442249242246249244129124894824499248922449129124924824499224492491884822892489482291442449249224912489482411292595445224912425892a9192489248a2a8a88a229244228924914444444444444444444444444444444444444444242211894844221291888844242211894844221211918844242211894844221291884424221189484412912449922449922449922449922449922449922492244992244992244992444a92244992249224492291482489888888888888888888888888888888888888888888888888888888888888888888888888888888888888888888888888884822922449922449922449922449922449922449924492244992244992244992942449922449244992248944228944229188114992442491a4482249224924892491884422114922492291249248124924922489482249229188449288a888912492449244928c88a2442249924492244992882491244992244922492422299248922489121111499224224992481249922449924822495449a292488a4492244a8a4411492591481249515512912449249124928888888888888888888888888888888888888844242211894844221211918844242211894844222212918844242211894844221291884424221189482249922449922449922449922449922449922449244992244992244992248994244992244992489244229148124944444444444444444444444444444444444444444444444444444444444444444444444444444444444444444444444424912449922449922449922449922449922449922492244992244992244992a424499224499224499244229144229148c4489248228924914492449224912412914824224924492492249124924824491291449244129148121111892449922449912449924492489248224944928824499224892449922492248924498924499248922449922449928a441291449224914444444422118948121189442291442291482412492a49225122914824128948924852922489248912a5442925921449924892a222918814494444444444444444444444444444241289442211898888888888888848249124898888888888888888888888888888888888442291482412894422914824128944229148241289449148241289248aa2aa88242212912491482249241111111111111111111111111111111111111111894844221291884424222211492491441249241191441249249144221291884424221189484422928824499224499224499224499224499224499224912449922449922449922452922449922449224912894422492411914824128944224992244992244992449224499224499224499224492412894422914824128944129124499224499224499224499224499224499224499224499224499224494a9224499224499224492412299198249144124992248924912492442212894424499248244992248948224922894824898848149144529248451211112222222222222222222222222222222242100808200288002280084120202222048180888820080402022222222289489224499224499224499224499224499224491249922449922449922449222549922449922449924424912489242222222222222222222222222222222222428888888888888808111111112222222222222292882425499224499224492449922449922449922491449224499224499224499294244992244924499244924824924824128911294924914422892492249244924892884422114922492291248924914422491289482249228944928848448c44922492442249462492244992244992249144224992244992442289249224493249922449922425892449922491242a492591148924494929924a124922918aa28a28492492481249444444444444444444444444444444444444442212918844242211898848442212918844242211118948442212918844242211894844221291884424912449922449922449922449922449922449922492244992244992244992444a9224499224924492249248248988888888888888888888888888888888888888888888888888888888888888888888888888888888888888888888888888249224499224499224499224499224499224499244922449922449922449929424499224499248922489442289442291881149924412492289248924912492442212894424892489449224924412892449229248924822128924222a6224892491249124231249922449922449924822912449922449249144124992248944924824499224499224499224499224894a129544522492245152448a48a29248248944aa2a2222492492481249444444444444444444444444444444444444442212918844242211898848442212918844242211118948442212918844242211894844221291884424912449922449922449922449922449922449922492244992244992244992444a922449922492449224924824898888888888888888888888888888888888888888888888888888888888888888888888888888888888888888888888888824922449922449922449922449922449922449924492244992244992244992942449922449924892248944228944229118912445129144924822492249248924918844221149224922912492481249249224894822492289482489888a91482249244924c9884492244992244992249248244992244992482491449224124924529118892492449248298a1889442249241289244924128924914824922491124944229148128944224992441291482492241289244922494449924492244992241249922449248a249248921229228948142992489224494a12492289444a55445452521291248914892449244924894492922449241149922491482249924812499224499248922489441249244992a492541249914892242922a92249924889288aa28a88482491482249241111912449922449922449922449924822892492482289241249249144124924914422892492482289249248228924924822892492442449922449922449922449922449922449922489244992244992244992249192244992248924499248241249222222222222222222222222222222222222222222222222222222222222a2244992244992244992244912111111111111111111111111111111111111114944929424499224499224499224499224499224922492244992244992244992a424499224499224491289442291128918912429914492489224924492489288482412912449229124492449229248922412912422528c44124922492249624422499224499224892491449224499224922449922449922246924812491249223192248924499248924892449224119144441249244991482291884424a288249224499224492289444a451195242551244912914892449244924492489224451291249124892691244924499224892449924892442291449224491211111111111111111111111111111111111111111111111111111111111111119188442422118948442222129188442422118948444422129188442422118988484422129188442422111191942449922449922491244992244992244912492449922449922449922449922449922449922491a42889a4521249244949a21229892489242a2aaa2222499148228944121111111111111111111111111111111111111111111111111111111111111111111111918848442422121189884444222222121189884444222211918848444444222211918848442422121189884444222211918848442422121149449224499224499224499224499224499224499248922449922449922449122949922449924812499248229124222222222222222222222222222222222222222222222222222222222222222222222222222222222222222222222222222222222222222222222222222222222222222222222222222222222222222222928824499224499224499224499224499224499224912449922449922449922425499224499224499224128924128944224692441291449248224922499248128948241291249224129124924812492492249188249224928844228988a82262249224912412493212499224499224492449229124499224914412492491244992228948922491242549924822499224894822491249922492882449929244922449922449922492244992249224499224912491482289244922221291a224111189442291482291482412892452924422128944229148248914499244924492448952a2942891a44892449214158944a4482222222222222222222222222222222222222222221291884424221189884844444444444444444444444422892491444444444444444444444444444444444444444444444444444444444444444444444a24128944229148241289442291482412894422912891449214154511111111111189488a482491249288888888888888888888888888888888888888888888888888888888888888888888888844442222119188484424221211118988444412914424114944121111494412914424114944222211918848442422121189884444222289489224499224499224499224499224499224491249922449922449922449222549922449124992249148249244444444444444444444444444444444221291884424221189484422121111111111111111111111111111111111111111111111111111111111111111111111111111111111111111111111111111119144244992244992244992244992244992244992248924499224499224499224294992244992248924491289444a244644924412492489249224924492481289482412912449229124894824124922892449a2442289889224513112492489248948229191482492442291489244229148128944224912299144241289249148249224492411894422492291482449224944249224912449244992489224491291884822892489448922894844448a249224499292449248229152151195949444244922452249124912492291a4244912494492244924924892249224499224912492244922914412499224914a52492445224992a488a48a24492225a228aa222212492492481249444444444444444444444444444444444444444444444444444444444444444444444444222211918848442422121189888848442422121189884444222211111189884444222211918848442422121189884444222211918848442411499224499224499224499224499224499224492249922449922449922449a4244992244992449224128944928888888888888888888888888888888888888888888888888888888888888888888888888888888888888888888888888888888888888888888888888888888888888888888888888888888888888888882289489224499224499224499224499224499224912491244992244992244992242549922449922449924824128994488c4892482289a4449224912492449244442291882449128924492249124924492491481211152391449248924812899124492449924492449224922489882422924822498a441289442422114524912449922449124924522a8aa824298922499288449224922492249244922429928824892449348924492249922449244992449224128924922449928888888888888888888888888888888888888888888888888888888888888888884424221189484422121191884424221189484422221291884424221189484444221291884424221189888824499224499224491249922449922449922491449224499224499224492429499224499224499244b21425894429a544922289242949558a481289a2a2a222a224118924924412111111111111111111111111111111111111111111111111111111111111111111111189884444222211918848442422222211918848442422121189884444442422121189884444222211918848442422121189884444222211914424499224499224499224499224499224499224892449922449922449922491922449922449124992482412492222222222222222222222222222222222222222222222222222222222222222222222222222222222222222222222222222222222222222222222222222222222222222222222222222222222222222222289244992244992244992244992244992244992248924499224499224499224294992244992244992249148249148241223492289249244124912492249248944241289481249128924492489241249924424912491442492444414311249248924914892188924499224499224922491489294248924912492249224912491489248922449124992281289442291248924914824492491442229914822114944229224494922491249922449228992484a24499224914412892449124992248924924824491211891425111111894422914824924824128944228994241189442291482492442249922489248912a5448952224991248924292a12894891444444444444444444444444444444444444444444242211894844221211918888888888888888888888884424919224222222222222222222222222222222222222222222222222222222222222222222299148241289442291482412894422914824128944a2482412894412154555444444229288441249228988888888888888888888888888888888888888484424221211898844442222111111898844442222119188484424222222119144241149441291884844242212118988444422221191884822499224499224499224499224499224499224492249922449922449922449a4244992244922499224128944928888888888888888888888888888888888442291888888888888888888888888888888888888888888888888888888888824922449922449922449922449922449922449924492244992244992244992942449922449922449924824522211234922892492449224912449248944241289489224914892249224114924492411894412115108212422462249124922912412311289449248241249924824124922914824492225928844229124128944922489242291482449241249924492885292249224499224914892244922121189442291249128114911892252249124499294249244128994aa88a8a4a424224912291249924892481289242549924822922449229144922491244992248924912449128924924892248954924a222912499224452455244912291145511511914822914492482222222222222222222222222222222222222212918844242211894844442212918844242211898848442212918844242211894844221291884424228924499224499224499224499224499224499224912449922449922449922452922449922491249224894422494444444444444444444444444444444444444444444444444444444444444444444444444444444444444444444444444412499224499224499224499224499224499224924892244992244992244992a42449922449a292244922894422911289189124492491a42449224924892491288a22494a12892449925412914492441291481251112349248924892491184992449224492449244922499288482222892492a448249148442212514412499224499224914422a5a2884a929228922489482449224922492249244992228948924892449348922492244992449224492449229148224992248988888888888888888888888888888888442291482412914824128944221289442291484422914824128988244992244992244912499224499224499224914492244992244992244924919224499224499224492231224524894429a54492228924294954a9481229aa288a481211914822492411111111111111111111111111111111111111894844221291884424222211894844221291884444242211894844221291884424221189484422129144922449922449922449922449922449922449924892244992244992244912294992244992248924894422912422222222222222222222222222222222222222222222222222222222222222222222222222222222222222222222222222924892244992244992244992244992244992244912499224499224499224495292244992244992244922914822914824622449249144924822499244924812894824129124922412495222492491489224228924892422451289882822269248124922912431224644449244a2945294485224912425a552248944115511492212492489242222222222222222222222222222222222222211894844221291884844442212918844242211918888442422118948442212918844242211894844229248922449922449922449922449922449922449124992244992244992244924529224499224492249924824924444444444444444444444444444444444444444444444444444444444444444444444444444444444444444444444444444124992244992244992244992244992244992244922499224499224499224494a92244992244992249144229144229148c48824299248224512492449924812492211894422924492442249124922894492241291449244129148221151111329912492249224a21811114992441249922449224924912249922449124924228924929248241289442449124992244992484a2491482249922449248924924892244924914412499224955492488a449224112949952449245145545445442222492291449248a2888888888888888888888888888888888848442212918844242211118948442212918844242222118948442212918844242211894844221291882492244992244992244992244992244992244992449224499224499224499248499224499244922449241289249188888888888888888888888888888888888888888888888888888888888888888888888888888888888888888888888888249224499224499224499224499224499224499244922449922449922449929424499224492449922489442289442291881149924424912492489248124922492422914844924892482489249244128924492292489248242291242222459a24a94a92244912824912049224490a4a1a4a0da58652939644511425499224499224499224499224499224494a922449922441a91205090200"},"methodIdentifiers":{"MiMC5Sponge(uint256[2],uint256)":"d622e5a4"}},"hash":"80d2c2d32f7563e888589c6c7a622209f7a9462b3ea865af300d6c51fe25403d","factoryDependencies":{}}}}