{"contracts/Tornado.sol":{"Tornado":{"abi":[{"inputs":[{"internalType":"address","name":"_hasher","type":"address"},{"internalType":"address","name":"_verifier","type":"address"}],"stateMutability":"nonpayable","type":"constructor"},{"anonymous":false,"inputs":[{"indexed":false,"internalType":"uint256","name":"root","type":"uint256"},{"indexed":false,"internalType":"uint256[10]","name":"hashPairings","type":"uint256[10]"},{"indexed":false,"internalType":"uint8[10]","name":"pairDirection","type":"uint8[10]"}],"name":"Deposit","type":"event"},{"anonymous":false,"inputs":[{"indexed":false,"internalType":"address","name":"to","type":"address"},{"indexed":false,"internalType":"uint256","name":"nullifierHash","type":"uint256"}],"name":"Withdrawal","type":"event"},{"inputs":[{"internalType":"uint256","name":"","type":"uint256"}],"name":"commitments","outputs":[{"internalType":"bool","name":"","type":"bool"}],"stateMutability":"view","type":"function"},{"inputs":[],"name":"denomination","outputs":[{"internalType":"uint256","name":"","type":"uint256"}],"stateMutability":"view","type":"function"},{"inputs":[{"internalType":"uint256","name":"_commitment","type":"uint256"}],"name":"deposit","outputs":[],"stateMutability":"payable","type":"function"},{"inputs":[],"name":"nextLeafIdx","outputs":[{"internalType":"uint256","name":"","type":"uint256"}],"stateMutability":"view","type":"function"},{"inputs":[{"internalType":"uint256","name":"","type":"uint256"}],"name":"nullifierHashes","outputs":[{"internalType":"bool","name":"","type":"bool"}],"stateMutability":"view","type":"function"},{"inputs":[{"internalType":"uint256","name":"","type":"uint256"}],"name":"roots","outputs":[{"internalType":"bool","name":"","type":"bool"}],"stateMutability":"view","type":"function"},{"inputs":[],"name":"treeLevel","outputs":[{"internalType":"uint8","name":"","type":"uint8"}],"stateMutability":"view","type":"function"},{"inputs":[{"internalType":"uint256[2]","name":"a","type":"uint256[2]"},{"internalType":"uint256[2][2]","name":"b","type":"uint256[2][2]"},{"internalType":"uint256[2]","name":"c","type":"uint256[2]"},{"internalType":"uint256[2]","name":"input","type":"uint256[2]"}],"name":"withdraw","outputs":[],"stateMutability":"payable","type":"function"}],"evm":{"assembly":"// RO data = 0/0 bytes\n// RW data = 72/65664 bytes\n// Stack size = 32768 bytes\n\n// Instructions = 13451\n// Code size = 43712 bytes\n\n      : @0 (gas: 48)\n     0: sp = sp + 0xffffffffffffffa0\n     3: u64 [sp + 0x58] = ra\n     6: u64 [sp + 0x50] = s0\n     9: u64 [sp + 0x48] = s1\n    12: s0 = sp + 0x60\n    15: sp = sp & 0xffffffffffffffe0\n    18: s1 = a0\n    20: a0 = u64 [a1 + 0x18]\n    23: a2 = u64 [a1 + 0x10]\n    26: a3 = u64 [a1 + 0x8]\n    29: a1 = u64 [a1]\n    31: a0 = reverse a0\n    33: a2 = reverse a2\n    35: a3 = reverse a3\n    37: a1 = reverse a1\n    39: u64 [sp + 0x18] = a1\n    42: u64 [sp + 0x10] = a3\n    45: u64 [sp + 0x8] = a2\n    48: u64 [sp] = a0\n    50: u64 [sp + 56] = 0\n    53: u64 [sp + 48] = 0\n    56: u64 [sp + 40] = 0\n    59: u64 [sp + 32] = 0\n    62: u32 [sp + 64] = 0x20\n    66: i32 a1 = sp + 0\n    68: i32 a3 = sp + 0x20\n    71: i32 a4 = sp + 0x40\n    74: a2 = 0xffffffffffffffff\n    77: a0 = 0\n    79: ecalli 6 // 'get_storage'\n    81: a0 = u64 [sp + 0x38]\n    84: a1 = u64 [sp + 0x30]\n    87: a2 = u64 [sp + 0x28]\n    90: a3 = u64 [sp + 0x20]\n    93: a0 = reverse a0\n    95: a1 = reverse a1\n    97: a2 = reverse a2\n    99: a3 = reverse a3\n   101: u64 [s1 + 0x18] = a3\n   104: u64 [s1 + 0x10] = a2\n   107: u64 [s1 + 0x8] = a1\n   110: u64 [s1] = a0\n   112: sp = s0 + 0xffffffffffffffa0\n   115: ra = u64 [sp + 0x58]\n   118: s0 = u64 [sp + 0x50]\n   121: s1 = u64 [sp + 0x48]\n   124: sp = sp + 0x60\n   127: ret\n      : @1 (gas: 40)\n   129: sp = sp + 0xffffffffffffffa0\n   132: u64 [sp + 0x58] = ra\n   135: u64 [sp + 0x50] = s0\n   138: s0 = sp + 0x60\n   141: sp = sp & 0xffffffffffffffe0\n   144: t0 = u64 [a0]\n   146: a3 = u64 [a0 + 0x8]\n   149: a4 = u64 [a0 + 0x10]\n   152: a0 = u64 [a0 + 0x18]\n   155: t1 = u64 [a1]\n   157: a2 = u64 [a1 + 0x8]\n   160: a5 = u64 [a1 + 0x10]\n   163: a1 = u64 [a1 + 0x18]\n   166: t2 = reverse a0\n   168: a4 = reverse a4\n   170: a3 = reverse a3\n   172: a0 = reverse t0\n   174: t0 = reverse a1\n   176: a5 = reverse a5\n   178: a2 = reverse a2\n   180: a1 = reverse t1\n   182: u64 [sp + 0x18] = a0\n   185: u64 [sp + 0x10] = a3\n   188: u64 [sp + 0x8] = a4\n   191: u64 [sp] = t2\n   193: u64 [sp + 0x38] = a1\n   196: u64 [sp + 0x30] = a2\n   199: u64 [sp + 0x28] = a5\n   202: u64 [sp + 0x20] = t0\n   205: i32 a1 = sp + 0\n   207: i32 a3 = sp + 0x20\n   210: a2 = 0xffffffffffffffff\n   213: a4 = 0x20\n   216: a0 = 0\n   218: ecalli 13 // 'set_storage'\n   220: sp = s0 + 0xffffffffffffffa0\n   223: ra = u64 [sp + 0x58]\n   226: s0 = u64 [sp + 0x50]\n   229: sp = sp + 0x60\n   232: ret\n      : @2 (gas: 2)\n   234: i32 a3 = a0 >> 0x10\n   237: jump @7 if a3 != 0\n      : @3 (gas: 4)\n   240: a3 = a0 + a1\n   243: i32 a3 = a3 + 0x1f\n   246: a3 = a3 & 0xffffffffffffffe0\n   249: jump @7 if a3 >u 65536\n      : @4 (gas: 12)\n   255: sp = sp + 0xffffffffffffffc0\n   258: u64 [sp + 0x38] = ra\n   261: u64 [sp + 0x30] = s0\n   264: u64 [sp + 0x28] = s1\n   267: s0 = sp + 0x40\n   270: sp = sp & 0xffffffffffffffe0\n   273: t0 = u64 [a2 + 0x18]\n   276: t2 = u64 [a2 + 0x10]\n   279: t1 = u64 [a2 + 0x8]\n   282: s1 = i32 [0x2004c]\n   287: a4 = u64 [a2]\n   289: jump @6 if s1 >=u a3\n      : @5 (gas: 2)\n   292: u32 [0x2004c] = a3\n   297: fallthrough\n      : @6 (gas: 20)\n   298: a2 = 0x20060\n   303: i32 a2 = a2 + a0\n   306: a0 = reverse t0\n   308: a3 = reverse t2\n   310: a5 = reverse t1\n   312: a4 = reverse a4\n   314: u64 [sp + 0x18] = a4\n   317: u64 [sp + 0x10] = a5\n   320: u64 [sp + 0x8] = a3\n   323: u64 [sp] = a0\n   325: i32 a3 = a1 + 0\n   327: i32 a0 = sp + 0\n   329: a1 = 0x1\n   332: ecalli 5 // 'deposit_event'\n   334: sp = s0 + 0xffffffffffffffc0\n   337: ra = u64 [sp + 0x38]\n   340: s0 = u64 [sp + 0x30]\n   343: s1 = u64 [sp + 0x28]\n   346: sp = sp + 0x40\n   349: ret\n      : @7 (gas: 1)\n   351: trap\n      : @8 (gas: 2)\n   352: i32 a2 = a0 >> 0x10\n   355: jump @13 if a2 != 0\n      : @9 (gas: 4)\n   358: a1 = a1 + a0\n   361: i32 a1 = a1 + 0x1f\n   364: a1 = a1 & 0xffffffffffffffe0\n   367: jump @13 if a1 >u 65536\n      : @10 (gas: 3)\n   373: a2 = 0x2004c\n   378: a3 = i32 [0x2004c]\n   383: jump @12 if a3 >=u a1\n      : @11 (gas: 2)\n   386: u32 [0x2004c] = a1\n   391: fallthrough\n      : @12 (gas: 4)\n   392: a1 = 0x20060\n   397: i32 a0 = a0 + 0\n   399: a0 = a0 + a1\n   402: ret\n      : @13 (gas: 1)\n   404: trap\n      : @14 (gas: 6)\n   405: sp = sp + 0xfffffffffffffff0\n   408: u64 [sp + 0x8] = ra\n   411: u64 [sp] = s0\n   413: s0 = a0 & 0x1\n   416: ecalli 3 // 'call_data_size'\n   418: fallthrough\n      : @15 (gas: 2)\n   419: u32 [0x20048] = a0\n   424: jump @17 if s0 == 0\n      : @16 (gas: 1)\n   427: ra = 2, jump @18\n      : @17 [@dyn 1] (gas: 1)\n   431: ra = 4, jump @127\n      : @18 [@dyn 2] (gas: 10)\n   436: sp = sp + 0xfffffffffffffd00\n   440: u64 [sp + 0x2f8] = ra\n   444: u64 [sp + 0x2f0] = s0\n   448: u64 [sp + 0x2e8] = s1\n   452: s0 = sp + 0x300\n   456: sp = sp & 0xffffffffffffffe0\n   459: a0 = 0x2004c\n   464: u64 [sp + 0x158] = a0\n   468: a0 = i32 [0x2004c]\n   473: jump @20 if a0 >u 95\n      : @19 (gas: 3)\n   477: a1 = u64 [sp + 0x158]\n   481: u32 [a1 + 0] = 0x60\n   484: fallthrough\n      : @20 (gas: 13)\n   485: s1 = 0x20060\n   490: u64 [0x200b0] = 0\n   495: u64 [0x200a8] = 0\n   500: u64 [0x200a0] = 0\n   505: a0 = 0x8000000000000000\n   515: u64 [0x200b8] = a0\n   520: u64 [sp + 440] = 0\n   524: u64 [sp + 432] = 0\n   528: u64 [sp + 424] = 0\n   532: u64 [sp + 416] = 0\n   536: i32 a0 = sp + 0x1a0\n   540: ecalli 14 // 'value_transferred'\n   542: fallthrough\n      : @21 (gas: 8)\n   543: a0 = u64 [sp + 0x1b0]\n   547: a1 = u64 [sp + 0x1b8]\n   551: a2 = u64 [sp + 0x1a8]\n   555: a3 = u64 [sp + 0x1a0]\n   559: a1 = a1 | a2\n   562: a0 = a0 | a3\n   565: a0 = a0 | a1\n   568: jump @23 if a0 == 0\n      : @22 (gas: 1)\n   571: jump @99\n      : @23 (gas: 4)\n   574: a1 = u64 [sp + 0x158]\n   578: a2 = i32 [a1]\n   580: a1 = i32 [0x20048]\n   585: jump @25 if a2 >u 95\n      : @24 (gas: 4)\n   589: a2 = 0x60\n   592: a0 = u64 [sp + 0x158]\n   596: u32 [a0] = a2\n   598: fallthrough\n      : @25 (gas: 35)\n   599: u64 [sp + 0x128] = a2\n   603: u64 [sp + 0x130] = a1\n   607: a0 = a1 << 0x20\n   610: a0 = a0 >> 0x20\n   613: a1 = u64 [0x200a0]\n   618: a2 = u64 [0x200b0]\n   623: a3 = u64 [0x200b8]\n   628: u64 [sp + 0x140] = s1\n   632: a4 = u64 [0x200a8]\n   637: s1 = reverse a1\n   639: u64 [sp + 0x148] = s1\n   643: ra = reverse a2\n   645: a1 = reverse a3\n   647: a0 = a0 + 0x1f\n   650: a0 = a0 & 0xffffffffffffffe0\n   653: a0 = a0 + a1\n   656: u64 [sp + 0x150] = a1\n   660: u64 [sp + 0x138] = a0\n   664: a3 = a0 <u a1\n   667: a2 = ra + a3\n   670: t2 = a2 <u ra\n   673: t0 = reverse a4\n   675: a4 = t2\n   677: a4 = a3 if a3 == 0\n   680: a4 = a4 + t0\n   683: a5 = a4 <u t0\n   686: a0 = s1 + a5\n   689: a1 = a4 >u 0\n   691: s1 = a0 >u 0\n   693: s1 = a1 if a0 == 0\n   696: t1 = a4 | a0\n   699: a1 = a2 >u 0\n   701: a1 = s1 if t1 != 0\n   704: t1 = u64 [sp + 0x148]\n   708: jump @97 if a1 != 0\n      : @26 (gas: 9)\n   712: a1 = a2 ^ ra\n   715: a3 = t2 if a1 != 0\n   718: a1 = a0 ^ t1\n   721: s1 = a0 <u t1\n   724: a5 = s1 if a1 != 0\n   727: s1 = a4 ^ t0\n   730: a1 = a1 | s1\n   733: a5 = a3 if a1 == 0\n   736: jump @97 if a5 != 0\n      : @27 (gas: 19)\n   740: a0 = reverse a0\n   742: a1 = reverse a4\n   744: a2 = reverse a2\n   746: a3 = u64 [sp + 0x138]\n   750: a3 = reverse a3\n   752: s1 = u64 [sp + 0x140]\n   756: u64 [s1 + 0x58] = a3\n   759: u64 [s1 + 0x50] = a2\n   762: u64 [s1 + 0x48] = a1\n   765: a3 = u64 [sp + 0x150]\n   769: a1 = a3 | t0\n   772: a2 = ra | t1\n   775: a1 = a1 | a2\n   778: a1 = a1 >> 0x20\n   781: a2 = a2 | t0\n   784: a2 = a2 << 0x20\n   787: a1 = a1 | a2\n   790: u64 [s1 + 0x40] = a0\n   793: jump @96 if a1 != 0\n      : @28 (gas: 3)\n   797: i32 a0 = a3 >> 0x10\n   800: a2 = u64 [sp + 0x130]\n   804: jump @96 if a0 != 0\n      : @29 (gas: 4)\n   808: a0 = a2 + a3\n   811: i32 a0 = a0 + 0x1f\n   814: a0 = a0 & 0xffffffffffffffe0\n   817: jump @96 if a0 >u 65536\n      : @30 (gas: 4)\n   824: u64 [sp + 0x120] = t0\n   828: u64 [sp + 0x138] = ra\n   832: a1 = u64 [sp + 0x128]\n   836: jump @32 if a1 >=u a0\n      : @31 (gas: 3)\n   839: a1 = u64 [sp + 0x158]\n   843: u32 [a1] = a0\n   845: fallthrough\n      : @32 (gas: 7)\n   846: i32 a0 = a3 + 0\n   848: u64 [sp + 0x128] = a0\n   852: i32 a0 = a0 + s1\n   855: a1 = a2\n   857: a2 = 0\n   859: ecalli 1 // 'call_data_copy'\n   861: fallthrough\n      : @33 (gas: 2)\n   862: a1 = u64 [sp + 0x130]\n   866: jump @99 if a1 <u 64\n      : @34 (gas: 5)\n   871: t2 = u64 [sp + 0x150]\n   875: a0 = t2 + 0x3f\n   878: a2 = a0 & 0x1ffe0\n   883: ra = u64 [sp + 0x138]\n   887: jump @96 if a2 >u 65536\n      : @35 (gas: 5)\n   894: a0 = u64 [sp + 0x158]\n   898: t0 = i32 [a0]\n   900: a0 = u64 [sp + 0x128]\n   904: a0 = a0 + s1\n   907: jump @37 if t0 >=u a2\n      : @36 (gas: 4)\n   910: a1 = u64 [sp + 0x158]\n   914: u32 [a1] = a2\n   916: t0 = a2\n   918: fallthrough\n      : @37 (gas: 54)\n   919: a2 = u8 [a0 + 0x9]\n   922: a3 = u8 [a0 + 0x8]\n   925: a4 = u8 [a0 + 0xa]\n   928: a5 = u8 [a0 + 0xb]\n   931: a2 = a2 << 0x8\n   934: a2 = a2 | a3\n   937: a4 = a4 << 0x10\n   940: a5 = a5 << 0x18\n   943: a4 = a4 | a5\n   946: a2 = a2 | a4\n   949: a3 = u8 [a0 + 0xd]\n   952: a4 = u8 [a0 + 0xc]\n   955: a5 = u8 [a0 + 0xe]\n   958: s1 = u8 [a0 + 0xf]\n   961: a3 = a3 << 0x8\n   964: a3 = a3 | a4\n   967: a5 = a5 << 0x10\n   970: s1 = s1 << 0x18\n   973: a5 = a5 | s1\n   976: a3 = a3 | a5\n   979: a3 = a3 << 0x20\n   982: a2 = a2 | a3\n   985: a3 = u8 [a0 + 0x1]\n   988: a4 = u8 [a0]\n   990: a5 = u8 [a0 + 0x2]\n   993: s1 = u8 [a0 + 0x3]\n   996: a3 = a3 << 0x8\n   999: a3 = a3 | a4\n  1002: a5 = a5 << 0x10\n  1005: s1 = s1 << 0x18\n  1008: a5 = a5 | s1\n  1011: a3 = a3 | a5\n  1014: a4 = u8 [a0 + 0x5]\n  1017: a5 = u8 [a0 + 0x4]\n  1020: s1 = u8 [a0 + 0x6]\n  1023: a1 = u8 [a0 + 0x7]\n  1026: a4 = a4 << 0x8\n  1029: a4 = a4 | a5\n  1032: s1 = s1 << 0x10\n  1035: a1 = a1 << 0x18\n  1038: a1 = a1 | s1\n  1041: a1 = a1 | a4\n  1044: a1 = a1 << 0x20\n  1047: a1 = a1 | a3\n  1050: a4 = reverse a1\n  1052: a5 = reverse a2\n  1054: a2 = 0x100000000\n  1064: a1 = a5 ^ a2\n  1067: a1 = a1 | a4\n  1070: a3 = a5 >> 0x20\n  1073: a3 = a3 <u 0x1\n  1076: a3 = 0 if a4 != 0\n  1078: a3 = 0 if a1 == 0\n  1080: jump @100 if a3 == 0\n      : @38 (gas: 8)\n  1084: a1 = u64 [sp + 0x148]\n  1088: a3 = u64 [sp + 0x120]\n  1092: a1 = a1 | a3\n  1095: a2 = 0xffffffe0\n  1105: a2 = t2 <u a2\n  1108: a2 = 0 if ra != 0\n  1110: a2 = 0 if a1 != 0\n  1112: jump @96 if a2 == 0\n      : @39 (gas: 2)\n  1116: i32 a1 = t2 >> 0x5\n  1119: jump @96 if a1 >=u 2047\n      : @40 (gas: 3)\n  1125: a1 = t2 + 0x5f\n  1128: a2 = a1 & 0x1ffe0\n  1133: jump @96 if a2 >u 65536\n      : @41 (gas: 4)\n  1140: u64 [sp + 0x138] = a5\n  1144: u64 [sp + 0x148] = a4\n  1148: i32 a3 = t2 + 0x20\n  1151: jump @43 if t0 >=u a2\n      : @42 (gas: 3)\n  1154: a1 = u64 [sp + 0x158]\n  1158: u32 [a1] = a2\n  1160: fallthrough\n      : @43 (gas: 59)\n  1161: u64 [sp + 336] = 0x1ffe0\n  1168: a1 = u64 [sp + 0x140]\n  1172: a1 = a1 + a3\n  1175: a2 = u8 [a1 + 0x9]\n  1178: a3 = u8 [a1 + 0x8]\n  1181: a4 = u8 [a1 + 0xa]\n  1184: a5 = u8 [a1 + 0xb]\n  1187: a2 = a2 << 0x8\n  1190: a2 = a2 | a3\n  1193: a4 = a4 << 0x10\n  1196: a5 = a5 << 0x18\n  1199: a4 = a4 | a5\n  1202: a2 = a2 | a4\n  1205: a3 = u8 [a1 + 0xd]\n  1208: a4 = u8 [a1 + 0xc]\n  1211: a5 = u8 [a1 + 0xe]\n  1214: s1 = u8 [a1 + 0xf]\n  1217: a3 = a3 << 0x8\n  1220: a3 = a3 | a4\n  1223: a5 = a5 << 0x10\n  1226: s1 = s1 << 0x18\n  1229: a5 = a5 | s1\n  1232: a3 = a3 | a5\n  1235: a3 = a3 << 0x20\n  1238: t0 = a3 | a2\n  1241: a3 = u8 [a1 + 0x1]\n  1244: a4 = u8 [a1]\n  1246: a5 = u8 [a1 + 0x2]\n  1249: s1 = u8 [a1 + 0x3]\n  1252: a3 = a3 << 0x8\n  1255: a3 = a3 | a4\n  1258: a5 = a5 << 0x10\n  1261: s1 = s1 << 0x18\n  1264: a5 = a5 | s1\n  1267: a3 = a3 | a5\n  1270: a4 = u8 [a1 + 0x5]\n  1273: a5 = u8 [a1 + 0x4]\n  1276: s1 = u8 [a1 + 0x6]\n  1279: a2 = u8 [a1 + 0x7]\n  1282: a4 = a4 << 0x8\n  1285: a4 = a4 | a5\n  1288: s1 = s1 << 0x10\n  1291: a2 = a2 << 0x18\n  1294: a2 = a2 | s1\n  1297: a2 = a2 | a4\n  1300: a2 = a2 << 0x20\n  1303: a2 = a2 | a3\n  1306: a4 = reverse a2\n  1308: a3 = reverse t0\n  1310: a2 = 0x100000000\n  1320: a2 = a2 ^ a3\n  1323: a2 = a2 | a4\n  1326: u64 [sp + 0x128] = a3\n  1330: a3 = a3 >> 0x20\n  1333: a3 = a3 <u 0x1\n  1336: u64 [sp + 0x130] = a4\n  1340: a3 = 0 if a4 != 0\n  1342: a3 = 0 if a2 == 0\n  1344: jump @100 if a3 == 0\n      : @44 (gas: 148)\n  1348: a2 = u8 [a0 + 0x1d]\n  1351: u64 [sp + 0x80] = a2\n  1355: a2 = u8 [a0 + 0x1e]\n  1358: u64 [sp + 0xf8] = a2\n  1362: a2 = u8 [a0 + 0x1f]\n  1365: u64 [sp + 0xf0] = a2\n  1369: a2 = u8 [a0 + 0x15]\n  1372: u64 [sp + 0x100] = a2\n  1376: a2 = u8 [a0 + 0x16]\n  1379: u64 [sp + 0x110] = a2\n  1383: a2 = u8 [a0 + 0x17]\n  1386: u64 [sp + 0x108] = a2\n  1390: a2 = u8 [a0 + 0x19]\n  1393: u64 [sp + 0x118] = a2\n  1397: a2 = u8 [a0 + 0x1a]\n  1400: u64 [sp + 0x120] = a2\n  1404: a2 = 0x100000000000000\n  1414: u64 [sp + 0x2d8] = a2\n  1418: a2 = u8 [a0 + 0x1b]\n  1421: u64 [sp + 0xb8] = a2\n  1425: a2 = u8 [a0 + 0x1c]\n  1428: u64 [sp + 0x38] = a2\n  1431: a2 = u8 [a0 + 0x11]\n  1434: u64 [sp + 0xd0] = a2\n  1438: a2 = u8 [a0 + 0x12]\n  1441: u64 [sp + 0xe8] = a2\n  1445: a2 = u8 [a0 + 0x13]\n  1448: u64 [sp + 0xe0] = a2\n  1452: a2 = u8 [a0 + 0x14]\n  1455: u64 [sp + 0x60] = a2\n  1458: a2 = u8 [a0 + 0x18]\n  1461: u64 [sp + 0x78] = a2\n  1464: a0 = u8 [a0 + 0x10]\n  1467: u64 [sp + 0x88] = a0\n  1471: a0 = u8 [a1 + 0x18]\n  1474: u64 [sp + 0xd8] = a0\n  1478: a0 = u8 [a1 + 0x19]\n  1481: u64 [sp + 0xb0] = a0\n  1485: a0 = u8 [a1 + 0x1a]\n  1488: u64 [sp + 0xc8] = a0\n  1492: a0 = u8 [a1 + 0x1b]\n  1495: u64 [sp + 0xc0] = a0\n  1499: a0 = u8 [a1 + 0x1c]\n  1502: u64 [sp + 0x70] = a0\n  1505: a0 = u8 [a1 + 0x1d]\n  1508: u64 [sp + 0x30] = a0\n  1511: a0 = u8 [a1 + 0x1e]\n  1514: u64 [sp + 0x58] = a0\n  1517: a0 = u8 [a1 + 0x1f]\n  1520: u64 [sp + 0x50] = a0\n  1523: a0 = u8 [a1 + 0x10]\n  1526: u64 [sp + 0xa8] = a0\n  1530: a0 = u8 [a1 + 0x11]\n  1533: u64 [sp + 0x90] = a0\n  1537: a0 = u8 [a1 + 0x12]\n  1540: u64 [sp + 0xa0] = a0\n  1544: a0 = u8 [a1 + 0x13]\n  1547: u64 [sp + 0x98] = a0\n  1551: a0 = u8 [a1 + 0x14]\n  1554: u64 [sp + 0x68] = a0\n  1557: a0 = u8 [a1 + 0x15]\n  1560: u64 [sp + 0x28] = a0\n  1563: a0 = u8 [a1 + 0x16]\n  1566: u64 [sp + 0x48] = a0\n  1569: a0 = u8 [a1 + 0x17]\n  1572: u64 [sp + 0x40] = a0\n  1575: u64 [sp + 696] = 0\n  1579: u64 [sp + 688] = 0\n  1583: u64 [sp + 680] = 0\n  1587: u64 [sp + 672] = 0\n  1591: u64 [sp + 720] = 0\n  1595: u64 [sp + 712] = 0\n  1599: u64 [sp + 704] = 0\n  1603: i32 a1 = sp + 0x2a0\n  1607: i32 a3 = sp + 0x2c0\n  1611: a2 = 0xffffffffffffffff\n  1614: a4 = 0x20\n  1617: a0 = 0\n  1619: ecalli 13 // 'set_storage'\n  1621: s1 = 0x200000000000000\n  1631: u64 [sp + 0x2b8] = s1\n  1635: u64 [sp + 688] = 0\n  1639: u64 [sp + 680] = 0\n  1643: u64 [sp + 672] = 0\n  1647: u64 [sp + 728] = 0\n  1651: u64 [sp + 720] = 0\n  1655: u64 [sp + 712] = 0\n  1659: u64 [sp + 704] = 0\n  1663: u32 [sp + 640] = 0x20\n  1668: i32 a1 = sp + 0x2a0\n  1672: i32 a3 = sp + 0x2c0\n  1676: i32 a4 = sp + 0x280\n  1680: a2 = 0xffffffffffffffff\n  1683: a0 = 0\n  1685: ecalli 6 // 'get_storage'\n  1687: a0 = u64 [sp + 0x2c0]\n  1691: a1 = u64 [sp + 0x2d0]\n  1695: a2 = u64 [sp + 0x2c8]\n  1699: a3 = u64 [sp + 0x2d8]\n  1703: a4 = 0xffffffff00ffffff\n  1713: a2 = a2 & a4\n  1716: a2 = a2 | 0xa000000\n  1722: u64 [sp + 0x2b8] = s1\n  1726: u64 [sp + 688] = 0\n  1730: u64 [sp + 680] = 0\n  1734: u64 [sp + 672] = 0\n  1738: u64 [sp + 0x2d8] = a3\n  1742: u64 [sp + 0x2d0] = a1\n  1746: u64 [sp + 0x2c8] = a2\n  1750: u64 [sp + 0x2c0] = a0\n  1754: i32 a1 = sp + 0x2a0\n  1758: i32 a3 = sp + 0x2c0\n  1762: a2 = 0xffffffffffffffff\n  1765: a4 = 0x20\n  1768: a0 = 0\n  1770: ecalli 13 // 'set_storage'\n  1772: a0 = 0x300000000000000\n  1782: u64 [sp + 0x2b8] = a0\n  1786: a0 = u64 [0x20000]\n  1791: u64 [sp + 688] = 0\n  1795: u64 [sp + 680] = 0\n  1799: u64 [sp + 672] = 0\n  1803: u64 [sp + 0x2d8] = a0\n  1807: u64 [sp + 720] = 0\n  1811: u64 [sp + 712] = 0\n  1815: u64 [sp + 704] = 0\n  1819: i32 a1 = sp + 0x2a0\n  1823: i32 a3 = sp + 0x2c0\n  1827: a2 = 0xffffffffffffffff\n  1830: a4 = 0x20\n  1833: a0 = 0\n  1835: ecalli 13 // 'set_storage'\n  1837: a0 = 0x400000000000000\n  1847: u64 [sp + 0x2b8] = a0\n  1851: u64 [sp + 688] = 0\n  1855: u64 [sp + 680] = 0\n  1859: u64 [sp + 672] = 0\n  1863: u64 [sp + 728] = 0\n  1867: u64 [sp + 720] = 0\n  1871: u64 [sp + 712] = 0\n  1875: u64 [sp + 704] = 0\n  1879: i32 a1 = sp + 0x2a0\n  1883: i32 a3 = sp + 0x2c0\n  1887: a2 = 0xffffffffffffffff\n  1890: a4 = 0x20\n  1893: a0 = 0\n  1895: ecalli 13 // 'set_storage'\n  1897: fallthrough\n      : @45 (gas: 3)\n  1898: a0 = u64 [sp + 0x158]\n  1902: ra = i32 [a0]\n  1904: jump @47 if ra >u 95\n      : @46 (gas: 4)\n  1908: ra = 0x60\n  1911: a0 = u64 [sp + 0x158]\n  1915: u32 [a0] = ra\n  1917: fallthrough\n      : @47 (gas: 19)\n  1918: a1 = u64 [sp + 0x140]\n  1922: a0 = u64 [a1 + 0x58]\n  1925: a2 = u64 [a1 + 0x50]\n  1928: a4 = u64 [a1 + 0x48]\n  1931: a5 = u64 [a1 + 0x40]\n  1934: t1 = reverse a0\n  1936: t0 = reverse a2\n  1938: a0 = reverse a4\n  1940: a3 = reverse a5\n  1942: a4 = a3 >u 0\n  1944: a5 = a0 >u 0\n  1946: a5 = a4 if a3 != 0\n  1949: a4 = t0 >u 0\n  1951: s1 = t1 <u 0xfffffffffffffec0\n  1955: s1 = s1 ^ 0x1\n  1958: s1 = a4 if t0 != 0\n  1961: t2 = a0 | a3\n  1964: s1 = a5 if t2 != 0\n  1967: jump @98 if s1 != 0\n      : @48 (gas: 24)\n  1971: a5 = t1 + 0x140\n  1975: s1 = a5 <u t1\n  1978: a2 = t0 + s1\n  1981: a4 = a2 <u t0\n  1984: a4 = s1 if s1 == 0\n  1987: a4 = a4 + a0\n  1990: s1 = a4 <u a0\n  1993: s1 = s1 + a3\n  1996: s1 = reverse s1\n  1998: a4 = reverse a4\n  2000: a2 = reverse a2\n  2002: a5 = reverse a5\n  2004: u64 [a1 + 0x58] = a5\n  2007: u64 [a1 + 0x50] = a2\n  2010: u64 [a1 + 0x48] = a4\n  2013: a2 = t1 | a0\n  2016: a4 = t0 | a3\n  2019: a2 = a2 | a4\n  2022: a2 = a2 >> 0x20\n  2025: a4 = a4 | a0\n  2028: a4 = a4 << 0x20\n  2031: a2 = a2 | a4\n  2034: u64 [a1 + 0x40] = s1\n  2037: jump @96 if a2 != 0\n      : @49 (gas: 2)\n  2041: i32 a2 = t1 >> 0x10\n  2044: jump @96 if a2 != 0\n      : @50 (gas: 4)\n  2048: a2 = t1 + 0x3f\n  2051: a5 = u64 [sp + 0x150]\n  2055: a5 = a5 & a2\n  2058: jump @96 if a5 >u 65536\n      : @51 (gas: 1)\n  2065: jump @53 if ra >=u a5\n      : @52 (gas: 4)\n  2068: a2 = u64 [sp + 0x158]\n  2072: u32 [a2] = a5\n  2074: ra = a5\n  2076: fallthrough\n      : @53 (gas: 39)\n  2077: i32 a5 = t1 + 0\n  2079: a5 = a5 + a1\n  2082: u8 [a5 + 31] = 0xb\n  2086: u8 [a5 + 30] = 0xd6\n  2091: u8 [a5 + 29] = 0x53\n  2095: u8 [a5 + 28] = 0xab\n  2100: u8 [a5 + 27] = 0x32\n  2104: u8 [a5 + 26] = 0x44\n  2108: u8 [a5 + 25] = 0\n  2111: u8 [a5 + 24] = 0xb6\n  2116: u8 [a5 + 23] = 0xb3\n  2121: u8 [a5 + 22] = 0xd0\n  2126: u8 [a5 + 21] = 0x91\n  2131: u8 [a5 + 20] = 0x1b\n  2135: u8 [a5 + 19] = 0xf1\n  2140: u8 [a5 + 18] = 0xf9\n  2145: u8 [a5 + 17] = 0xd6\n  2150: u8 [a5 + 16] = 0xb3\n  2155: u8 [a5 + 15] = 0x89\n  2160: u8 [a5 + 14] = 0xa4\n  2165: u8 [a5 + 13] = 0xb9\n  2170: u8 [a5 + 12] = 0x2d\n  2174: u8 [a5 + 11] = 0xec\n  2179: u8 [a5 + 10] = 0x73\n  2183: u8 [a5 + 9] = 0xf4\n  2188: u8 [a5 + 8] = 0x4b\n  2192: u8 [a5 + 7] = 0x7f\n  2196: u8 [a5 + 6] = 0x4e\n  2200: u8 [a5 + 5] = 0x9b\n  2205: u8 [a5 + 4] = 0x66\n  2209: u8 [a5 + 3] = 0xd1\n  2214: u8 [a5 + 2] = 0x8c\n  2219: u8 [a5 + 1] = 0x41\n  2223: a4 = 0xffffffe0\n  2233: a4 = t1 <u a4\n  2236: a4 = 0 if t0 != 0\n  2238: a4 = 0 if t2 != 0\n  2240: u8 [a5 + 0] = 0x33\n  2243: jump @96 if a4 == 0\n      : @54 (gas: 2)\n  2247: i32 a1 = t1 >> 0x5\n  2250: jump @96 if a1 >=u 2047\n      : @55 (gas: 4)\n  2256: a2 = t1 + 0x5f\n  2259: a5 = u64 [sp + 0x150]\n  2263: a5 = a5 & a2\n  2266: jump @96 if a5 >u 65536\n      : @56 (gas: 3)\n  2273: u64 [sp + 0x18] = a3\n  2276: i32 s1 = t1 + 0x20\n  2279: jump @58 if ra >=u a5\n      : @57 (gas: 4)\n  2282: a2 = u64 [sp + 0x158]\n  2286: u32 [a2] = a5\n  2288: ra = a5\n  2290: fallthrough\n      : @58 (gas: 40)\n  2291: u64 [sp + 0x20] = ra\n  2294: a2 = u64 [sp + 0x140]\n  2298: s1 = s1 + a2\n  2301: u8 [s1 + 31] = 0xbd\n  2306: u8 [s1 + 30] = 0xf8\n  2311: u8 [s1 + 29] = 0x4e\n  2315: u8 [s1 + 28] = 0xe4\n  2320: u8 [s1 + 27] = 0xb3\n  2325: u8 [s1 + 26] = 0xa5\n  2330: u8 [s1 + 25] = 0x53\n  2334: u8 [s1 + 24] = 0x9a\n  2339: u8 [s1 + 23] = 0x8d\n  2344: u8 [s1 + 22] = 0x6f\n  2348: u8 [s1 + 21] = 0x2b\n  2352: u8 [s1 + 20] = 0x27\n  2356: u8 [s1 + 19] = 0x57\n  2360: u8 [s1 + 18] = 0xef\n  2365: u8 [s1 + 17] = 0x4d\n  2369: u8 [s1 + 16] = 0x61\n  2373: u8 [s1 + 15] = 0x5b\n  2377: u8 [s1 + 14] = 0x49\n  2381: u8 [s1 + 13] = 0x52\n  2385: u8 [s1 + 12] = 0x22\n  2389: u8 [s1 + 11] = 0x19\n  2393: u8 [s1 + 10] = 0x3b\n  2397: u8 [s1 + 9] = 0x16\n  2401: u8 [s1 + 8] = 0xc\n  2405: u8 [s1 + 7] = 0x94\n  2410: u8 [s1 + 6] = 0xf8\n  2415: u8 [s1 + 5] = 0xcc\n  2420: u8 [s1 + 4] = 0x45\n  2424: u8 [s1 + 3] = 0x7c\n  2428: u8 [s1 + 2] = 0xfb\n  2433: u8 [s1 + 1] = 0xf\n  2437: a4 = 0xffffffc0\n  2447: a4 = t1 <u a4\n  2450: a4 = 0 if t0 != 0\n  2452: a4 = 0 if t2 != 0\n  2454: u8 [s1 + 0] = 0x35\n  2457: jump @96 if a4 == 0\n      : @59 (gas: 3)\n  2461: i32 a2 = t1 >> 0x6\n  2464: u64 [sp + 0x10] = a2\n  2467: jump @96 if a2 >=u 1023\n      : @60 (gas: 4)\n  2473: a4 = t1 + 0x7f\n  2476: a5 = u64 [sp + 0x150]\n  2480: a5 = a5 & a4\n  2483: jump @96 if a5 >u 65536\n      : @61 (gas: 3)\n  2490: i32 s1 = t1 + 0x40\n  2493: a2 = u64 [sp + 0x20]\n  2496: jump @63 if a2 >=u a5\n      : @62 (gas: 4)\n  2499: a2 = u64 [sp + 0x158]\n  2503: u32 [a2] = a5\n  2505: u64 [sp + 0x20] = a5\n  2508: fallthrough\n      : @63 (gas: 39)\n  2509: a2 = u64 [sp + 0x140]\n  2513: s1 = s1 + a2\n  2516: u8 [s1 + 31] = 0x84\n  2521: u8 [s1 + 30] = 0x25\n  2525: u8 [s1 + 29] = 0x20\n  2529: u8 [s1 + 28] = 0x85\n  2534: u8 [s1 + 27] = 0x1e\n  2538: u8 [s1 + 26] = 0xd2\n  2543: u8 [s1 + 25] = 0x77\n  2547: u8 [s1 + 24] = 0xa3\n  2552: u8 [s1 + 23] = 0xde\n  2557: u8 [s1 + 22] = 0x90\n  2562: u8 [s1 + 21] = 0x8\n  2566: u8 [s1 + 20] = 0x17\n  2570: u8 [s1 + 19] = 0x87\n  2575: u8 [s1 + 18] = 0x3\n  2579: u8 [s1 + 17] = 0xe8\n  2584: u8 [s1 + 16] = 0x6c\n  2588: u8 [s1 + 15] = 0x50\n  2592: u8 [s1 + 14] = 0xac\n  2597: u8 [s1 + 13] = 0x1\n  2601: u8 [s1 + 12] = 0x6b\n  2605: u8 [s1 + 11] = 0xd4\n  2610: u8 [s1 + 10] = 0x1a\n  2614: u8 [s1 + 9] = 0x2b\n  2618: u8 [s1 + 8] = 0xa8\n  2623: u8 [s1 + 7] = 0x91\n  2628: u8 [s1 + 6] = 0xaf\n  2633: u8 [s1 + 5] = 0x1b\n  2637: u8 [s1 + 4] = 0x85\n  2642: u8 [s1 + 3] = 0xaf\n  2647: u8 [s1 + 2] = 0xb7\n  2652: u8 [s1 + 1] = 0xac\n  2657: a4 = 0xffffffa0\n  2667: a4 = t1 <u a4\n  2670: a4 = 0 if t0 != 0\n  2672: a4 = 0 if t2 != 0\n  2674: u8 [s1 + 0] = 0xc8\n  2678: jump @96 if a4 == 0\n      : @64 (gas: 1)\n  2682: jump @96 if a1 >=u 2045\n      : @65 (gas: 4)\n  2688: a2 = t1 + 0x9f\n  2692: a5 = u64 [sp + 0x150]\n  2696: a5 = a5 & a2\n  2699: jump @96 if a5 >u 65536\n      : @66 (gas: 3)\n  2706: i32 s1 = t1 + 0x60\n  2709: a2 = u64 [sp + 0x20]\n  2712: jump @68 if a2 >=u a5\n      : @67 (gas: 4)\n  2715: a2 = u64 [sp + 0x158]\n  2719: u32 [a2] = a5\n  2721: u64 [sp + 0x20] = a5\n  2724: fallthrough\n      : @68 (gas: 39)\n  2725: a2 = u64 [sp + 0x140]\n  2729: s1 = s1 + a2\n  2732: u8 [s1 + 31] = 0xc5\n  2737: u8 [s1 + 30] = 0xac\n  2742: u8 [s1 + 29] = 0xe9\n  2747: u8 [s1 + 28] = 0x27\n  2751: u8 [s1 + 27] = 0x32\n  2755: u8 [s1 + 26] = 0x11\n  2759: u8 [s1 + 25] = 0x7a\n  2763: u8 [s1 + 24] = 0x88\n  2768: u8 [s1 + 23] = 0x41\n  2772: u8 [s1 + 22] = 0x8d\n  2777: u8 [s1 + 21] = 0x35\n  2781: u8 [s1 + 20] = 0xd1\n  2786: u8 [s1 + 19] = 0x48\n  2790: u8 [s1 + 18] = 0x86\n  2795: u8 [s1 + 17] = 0xb1\n  2800: u8 [s1 + 16] = 0x99\n  2805: u8 [s1 + 15] = 0x18\n  2809: u8 [s1 + 14] = 0xbd\n  2814: u8 [s1 + 13] = 0x16\n  2818: u8 [s1 + 12] = 0xe\n  2822: u8 [s1 + 11] = 0x21\n  2826: u8 [s1 + 10] = 0x3\n  2830: u8 [s1 + 9] = 0x59\n  2834: u8 [s1 + 8] = 0xaa\n  2839: u8 [s1 + 7] = 0x64\n  2843: u8 [s1 + 6] = 0x27\n  2847: u8 [s1 + 5] = 0x4b\n  2851: u8 [s1 + 4] = 0x15\n  2855: u8 [s1 + 3] = 0x73\n  2859: u8 [s1 + 2] = 0xd2\n  2864: u8 [s1 + 1] = 0x71\n  2868: a4 = 0xffffff80\n  2878: a4 = t1 <u a4\n  2881: a4 = 0 if t0 != 0\n  2883: a4 = 0 if t2 != 0\n  2885: u8 [s1 + 0] = 0x51\n  2888: jump @96 if a4 == 0\n      : @69 (gas: 2)\n  2892: i32 a2 = t1 >> 0x7\n  2895: jump @96 if a2 >=u 511\n      : @70 (gas: 4)\n  2901: a2 = t1 + 0xbf\n  2905: a5 = u64 [sp + 0x150]\n  2909: a5 = a5 & a2\n  2912: jump @96 if a5 >u 65536\n      : @71 (gas: 3)\n  2919: i32 s1 = t1 + 0x80\n  2923: a2 = u64 [sp + 0x20]\n  2926: jump @73 if a2 >=u a5\n      : @72 (gas: 4)\n  2929: a2 = u64 [sp + 0x158]\n  2933: u32 [a2] = a5\n  2935: u64 [sp + 0x20] = a5\n  2938: fallthrough\n      : @73 (gas: 39)\n  2939: a2 = u64 [sp + 0x140]\n  2943: s1 = s1 + a2\n  2946: u8 [s1 + 31] = 0x59\n  2950: u8 [s1 + 30] = 0xbe\n  2955: u8 [s1 + 29] = 0xe5\n  2960: u8 [s1 + 28] = 0xa5\n  2965: u8 [s1 + 27] = 0x62\n  2969: u8 [s1 + 26] = 0x96\n  2974: u8 [s1 + 25] = 0xfc\n  2979: u8 [s1 + 24] = 0x8c\n  2984: u8 [s1 + 23] = 0x89\n  2989: u8 [s1 + 22] = 0x25\n  2993: u8 [s1 + 21] = 0xe1\n  2998: u8 [s1 + 20] = 0x1a\n  3002: u8 [s1 + 19] = 0xec\n  3007: u8 [s1 + 18] = 0xe1\n  3012: u8 [s1 + 17] = 0x94\n  3017: u8 [s1 + 16] = 0xc7\n  3022: u8 [s1 + 15] = 0x22\n  3026: u8 [s1 + 14] = 0xf\n  3030: u8 [s1 + 13] = 0xe\n  3034: u8 [s1 + 12] = 0x41\n  3038: u8 [s1 + 11] = 0xda\n  3043: u8 [s1 + 10] = 0xa1\n  3048: u8 [s1 + 9] = 0xf7\n  3053: u8 [s1 + 8] = 0x7c\n  3057: u8 [s1 + 7] = 0xf5\n  3062: u8 [s1 + 6] = 0x13\n  3066: u8 [s1 + 5] = 0xd6\n  3071: u8 [s1 + 4] = 0x4\n  3075: u8 [s1 + 3] = 0xcb\n  3080: u8 [s1 + 2] = 0x6\n  3084: u8 [s1 + 1] = 0x6c\n  3088: a4 = 0xffffff60\n  3098: a4 = t1 <u a4\n  3101: a4 = 0 if t0 != 0\n  3103: a4 = 0 if t2 != 0\n  3105: u8 [s1 + 0] = 0x98\n  3109: jump @96 if a4 == 0\n      : @74 (gas: 1)\n  3113: jump @96 if a1 >=u 2043\n      : @75 (gas: 4)\n  3119: a2 = t1 + 0xdf\n  3123: a5 = u64 [sp + 0x150]\n  3127: a5 = a5 & a2\n  3130: jump @96 if a5 >u 65536\n      : @76 (gas: 3)\n  3137: i32 s1 = t1 + 0xa0\n  3141: a2 = u64 [sp + 0x20]\n  3144: jump @78 if a2 >=u a5\n      : @77 (gas: 4)\n  3147: a2 = u64 [sp + 0x158]\n  3151: u32 [a2] = a5\n  3153: u64 [sp + 0x20] = a5\n  3156: fallthrough\n      : @78 (gas: 39)\n  3157: a2 = u64 [sp + 0x140]\n  3161: s1 = s1 + a2\n  3164: u8 [s1 + 31] = 0x27\n  3168: u8 [s1 + 30] = 0xd0\n  3173: u8 [s1 + 29] = 0x94\n  3178: u8 [s1 + 28] = 0x6d\n  3182: u8 [s1 + 27] = 0x7f\n  3186: u8 [s1 + 26] = 0xbf\n  3191: u8 [s1 + 25] = 0xd7\n  3196: u8 [s1 + 24] = 0x3c\n  3200: u8 [s1 + 23] = 0x2f\n  3204: u8 [s1 + 22] = 0xd6\n  3209: u8 [s1 + 21] = 0x1b\n  3213: u8 [s1 + 20] = 0x19\n  3217: u8 [s1 + 19] = 0xe5\n  3222: u8 [s1 + 18] = 0xb0\n  3227: u8 [s1 + 17] = 0x26\n  3231: u8 [s1 + 16] = 0x93\n  3236: u8 [s1 + 15] = 0x2e\n  3240: u8 [s1 + 14] = 0x4b\n  3244: u8 [s1 + 13] = 0x20\n  3248: u8 [s1 + 12] = 0x80\n  3253: u8 [s1 + 11] = 0x76\n  3257: u8 [s1 + 10] = 0x2\n  3261: u8 [s1 + 9] = 0x21\n  3265: u8 [s1 + 8] = 0x16\n  3269: u8 [s1 + 7] = 0x3\n  3273: u8 [s1 + 6] = 0xf3\n  3278: u8 [s1 + 5] = 0xef\n  3283: u8 [s1 + 4] = 0x6\n  3287: u8 [s1 + 3] = 0x51\n  3291: u8 [s1 + 2] = 0xa0\n  3296: u8 [s1 + 1] = 0xb9\n  3301: a4 = 0xffffff40\n  3311: a4 = t1 <u a4\n  3314: a4 = 0 if t0 != 0\n  3316: a4 = 0 if t2 != 0\n  3318: u8 [s1 + 0] = 0x6e\n  3321: jump @96 if a4 == 0\n      : @79 (gas: 2)\n  3325: a4 = u64 [sp + 0x10]\n  3328: jump @96 if a4 >=u 1021\n      : @80 (gas: 4)\n  3334: a2 = t1 + 0xff\n  3338: a5 = u64 [sp + 0x150]\n  3342: a5 = a5 & a2\n  3345: jump @96 if a5 >u 65536\n      : @81 (gas: 3)\n  3352: i32 s1 = t1 + 0xc0\n  3356: a2 = u64 [sp + 0x20]\n  3359: jump @83 if a2 >=u a5\n      : @82 (gas: 4)\n  3362: a2 = u64 [sp + 0x158]\n  3366: u32 [a2] = a5\n  3368: u64 [sp + 0x20] = a5\n  3371: fallthrough\n      : @83 (gas: 39)\n  3372: a2 = u64 [sp + 0x140]\n  3376: s1 = s1 + a2\n  3379: u8 [s1 + 31] = 0x26\n  3383: u8 [s1 + 30] = 0x12\n  3387: u8 [s1 + 29] = 0xad\n  3392: u8 [s1 + 28] = 0xd4\n  3397: u8 [s1 + 27] = 0x38\n  3401: u8 [s1 + 26] = 0x81\n  3406: u8 [s1 + 25] = 0x9d\n  3411: u8 [s1 + 24] = 0x5e\n  3415: u8 [s1 + 23] = 0x60\n  3419: u8 [s1 + 22] = 0xa2\n  3424: u8 [s1 + 21] = 0xc8\n  3429: u8 [s1 + 20] = 0x30\n  3433: u8 [s1 + 19] = 0x17\n  3437: u8 [s1 + 18] = 0xce\n  3442: u8 [s1 + 17] = 0x38\n  3446: u8 [s1 + 16] = 0x6a\n  3450: u8 [s1 + 15] = 0xbb\n  3455: u8 [s1 + 14] = 0xed\n  3460: u8 [s1 + 13] = 0x82\n  3465: u8 [s1 + 12] = 0x48\n  3469: u8 [s1 + 11] = 0x7b\n  3473: u8 [s1 + 10] = 0x54\n  3477: u8 [s1 + 9] = 0x1f\n  3481: u8 [s1 + 8] = 0x6\n  3485: u8 [s1 + 7] = 0x8c\n  3490: u8 [s1 + 6] = 0x39\n  3494: u8 [s1 + 5] = 0x93\n  3499: u8 [s1 + 4] = 0x14\n  3503: u8 [s1 + 3] = 0x69\n  3507: u8 [s1 + 2] = 0xc8\n  3512: u8 [s1 + 1] = 0xcb\n  3517: a4 = 0xffffff20\n  3527: a4 = t1 <u a4\n  3530: a4 = 0 if t0 != 0\n  3532: a4 = 0 if t2 != 0\n  3534: u8 [s1 + 0] = 0xa1\n  3538: jump @96 if a4 == 0\n      : @84 (gas: 1)\n  3542: jump @96 if a1 >=u 2041\n      : @85 (gas: 4)\n  3548: a2 = t1 + 0x11f\n  3552: a5 = u64 [sp + 0x150]\n  3556: a5 = a5 & a2\n  3559: jump @96 if a5 >u 65536\n      : @86 (gas: 3)\n  3566: i32 s1 = t1 + 0xe0\n  3570: a2 = u64 [sp + 0x20]\n  3573: jump @88 if a2 >=u a5\n      : @87 (gas: 4)\n  3576: a2 = u64 [sp + 0x158]\n  3580: u32 [a2] = a5\n  3582: u64 [sp + 0x20] = a5\n  3585: fallthrough\n      : @88 (gas: 39)\n  3586: a2 = u64 [sp + 0x140]\n  3590: s1 = s1 + a2\n  3593: u8 [s1 + 31] = 0xfd\n  3598: u8 [s1 + 30] = 0xef\n  3603: u8 [s1 + 29] = 0xde\n  3608: u8 [s1 + 28] = 0x29\n  3612: u8 [s1 + 27] = 0x3\n  3616: u8 [s1 + 26] = 0x8a\n  3621: u8 [s1 + 25] = 0xfc\n  3626: u8 [s1 + 24] = 0x29\n  3630: u8 [s1 + 23] = 0xac\n  3635: u8 [s1 + 22] = 0xab\n  3640: u8 [s1 + 21] = 0x42\n  3644: u8 [s1 + 20] = 0x94\n  3649: u8 [s1 + 19] = 0xde\n  3654: u8 [s1 + 18] = 0x9a\n  3659: u8 [s1 + 17] = 0x93\n  3664: u8 [s1 + 16] = 0x2f\n  3668: u8 [s1 + 15] = 0x4e\n  3672: u8 [s1 + 14] = 0x61\n  3676: u8 [s1 + 13] = 0xf7\n  3681: u8 [s1 + 12] = 0x76\n  3685: u8 [s1 + 11] = 0x9d\n  3690: u8 [s1 + 10] = 0xc2\n  3695: u8 [s1 + 9] = 0xe9\n  3700: u8 [s1 + 8] = 0x81\n  3705: u8 [s1 + 7] = 0x51\n  3709: u8 [s1 + 6] = 0xc6\n  3714: u8 [s1 + 5] = 0x8b\n  3719: u8 [s1 + 4] = 0x3d\n  3723: u8 [s1 + 3] = 0x2f\n  3727: u8 [s1 + 2] = 0xa7\n  3732: u8 [s1 + 1] = 0xa\n  3736: a4 = 0xffffff00\n  3746: a4 = t1 <u a4\n  3749: a4 = 0 if t0 != 0\n  3751: a4 = 0 if t2 != 0\n  3753: u8 [s1 + 0] = 0x85\n  3757: jump @96 if a4 == 0\n      : @89 (gas: 2)\n  3761: i32 a2 = t1 >> 0x8\n  3764: jump @96 if a2 >=u 255\n      : @90 (gas: 4)\n  3770: a2 = t1 + 0x13f\n  3774: a5 = u64 [sp + 0x150]\n  3778: a5 = a5 & a2\n  3781: jump @96 if a5 >u 65536\n      : @91 (gas: 3)\n  3788: i32 s1 = t1 + 0x100\n  3792: a2 = u64 [sp + 0x20]\n  3795: jump @93 if a2 >=u a5\n      : @92 (gas: 4)\n  3798: a2 = u64 [sp + 0x158]\n  3802: u32 [a2] = a5\n  3804: u64 [sp + 0x20] = a5\n  3807: fallthrough\n      : @93 (gas: 39)\n  3808: a2 = u64 [sp + 0x140]\n  3812: s1 = s1 + a2\n  3815: u8 [s1 + 31] = 0x1e\n  3819: u8 [s1 + 30] = 0xdc\n  3824: u8 [s1 + 29] = 0x3\n  3828: u8 [s1 + 28] = 0xe8\n  3833: u8 [s1 + 27] = 0x6a\n  3837: u8 [s1 + 26] = 0x2c\n  3841: u8 [s1 + 25] = 0xec\n  3846: u8 [s1 + 24] = 0x78\n  3850: u8 [s1 + 23] = 0xe8\n  3855: u8 [s1 + 22] = 0xba\n  3860: u8 [s1 + 21] = 0x5f\n  3864: u8 [s1 + 20] = 0xb7\n  3869: u8 [s1 + 19] = 0x42\n  3873: u8 [s1 + 18] = 0xb7\n  3878: u8 [s1 + 17] = 0x34\n  3882: u8 [s1 + 16] = 0x8b\n  3887: u8 [s1 + 15] = 0x60\n  3891: u8 [s1 + 14] = 0xce\n  3896: u8 [s1 + 13] = 0x1c\n  3900: u8 [s1 + 12] = 0x9b\n  3905: u8 [s1 + 11] = 0x8b\n  3910: u8 [s1 + 10] = 0xbf\n  3915: u8 [s1 + 9] = 0x28\n  3919: u8 [s1 + 8] = 0x90\n  3924: u8 [s1 + 7] = 0xc8\n  3929: u8 [s1 + 6] = 0xbf\n  3934: u8 [s1 + 5] = 0x2d\n  3938: u8 [s1 + 4] = 0x75\n  3942: u8 [s1 + 3] = 0x78\n  3946: u8 [s1 + 2] = 0xf6\n  3951: u8 [s1 + 1] = 0xc6\n  3956: a4 = 0xfffffee0\n  3966: a4 = t1 <u a4\n  3969: a4 = 0 if t0 != 0\n  3971: a4 = 0 if t2 != 0\n  3973: u8 [s1 + 0] = 0xe9\n  3977: jump @96 if a4 == 0\n      : @94 (gas: 1)\n  3980: jump @96 if a1 >=u 2039\n      : @95 (gas: 5)\n  3985: a2 = t1 + 0x15f\n  3989: a1 = u64 [sp + 0x150]\n  3993: a1 = a1 & a2\n  3996: u64 [sp + 0x10] = a1\n  3999: jump @101 if a1 <=u 65536\n      : @96 (gas: 1)\n  4005: trap\n      : @97 (gas: 2)\n  4006: a1 = u64 [sp + 0x140]\n  4010: fallthrough\n      : @98 (gas: 17)\n  4011: u64 [a1 + 16] = 0\n  4014: u64 [a1 + 24] = 0\n  4017: u64 [a1 + 8] = 0\n  4020: u64 [a1 + 0] = 0x717b484e\n  4026: u32 [a1 + 32] = 0x41000000\n  4033: u32 [a1 + 20] = 0\n  4036: u32 [a1 + 24] = 0\n  4039: u32 [a1 + 28] = 0\n  4042: u32 [a1 + 8] = 0\n  4045: u32 [a1 + 12] = 0\n  4048: u32 [a1 + 16] = 0\n  4051: u32 [a1 + 4] = 0\n  4054: i32 a1 = a1 + 0\n  4056: a0 = 0x1\n  4059: a2 = 0x24\n  4062: ecalli 11 // 'seal_return'\n  4064: fallthrough\n      : @99 (gas: 5)\n  4065: i32 a1 = s1 + 0\n  4067: a0 = 0x1\n  4070: a2 = 0\n  4072: ecalli 11 // 'seal_return'\n  4074: fallthrough\n      : @100 (gas: 5)\n  4075: a1 = i32 [sp + 0x140]\n  4079: a0 = 0x1\n  4082: a2 = 0\n  4084: ecalli 11 // 'seal_return'\n  4086: fallthrough\n      : @101 (gas: 116)\n  4087: a2 = u64 [sp + 0x80]\n  4091: a2 = a2 << 0x8\n  4094: a1 = u64 [sp + 0x38]\n  4097: t2 = a2 | a1\n  4100: a2 = u64 [sp + 0xf8]\n  4104: a2 = a2 << 0x10\n  4107: a4 = u64 [sp + 0xf0]\n  4111: a4 = a4 << 0x18\n  4114: a3 = a4 | a2\n  4117: a2 = u64 [sp + 0x100]\n  4121: a2 = a2 << 0x8\n  4124: a1 = u64 [sp + 0x60]\n  4127: s1 = a2 | a1\n  4130: a2 = u64 [sp + 0x110]\n  4134: a2 = a2 << 0x10\n  4137: a4 = u64 [sp + 0x108]\n  4141: a4 = a4 << 0x18\n  4144: a2 = a2 | a4\n  4147: u64 [sp + 0x108] = a2\n  4151: a2 = u64 [sp + 0x30]\n  4154: a2 = a2 << 0x8\n  4157: a1 = u64 [sp + 0x70]\n  4160: a1 = a1 | a2\n  4163: u64 [sp + 0x110] = a1\n  4167: a2 = u64 [sp + 0x58]\n  4170: a2 = a2 << 0x10\n  4173: a4 = u64 [sp + 0x50]\n  4176: a4 = a4 << 0x18\n  4179: a2 = a2 | a4\n  4182: u64 [sp + 0xf8] = a2\n  4186: a2 = u64 [sp + 0x28]\n  4189: a2 = a2 << 0x8\n  4192: a1 = u64 [sp + 0x68]\n  4195: a1 = a1 | a2\n  4198: u64 [sp + 0x100] = a1\n  4202: a2 = u64 [sp + 0x48]\n  4205: a2 = a2 << 0x10\n  4208: a4 = u64 [sp + 0x40]\n  4211: a4 = a4 << 0x18\n  4214: a2 = a2 | a4\n  4217: u64 [sp + 0xf0] = a2\n  4221: a4 = u64 [sp + 0x118]\n  4225: a4 = a4 << 0x8\n  4228: a1 = u64 [sp + 0x78]\n  4231: a1 = a1 | a4\n  4234: u64 [sp + 0x118] = a1\n  4238: a5 = u64 [sp + 0x120]\n  4242: a5 = a5 << 0x10\n  4245: a2 = u64 [sp + 0xb8]\n  4249: a2 = a2 << 0x18\n  4252: a2 = a2 | a5\n  4255: u64 [sp + 0xb8] = a2\n  4259: a3 = a3 | t2\n  4262: a5 = u64 [sp + 0xd0]\n  4266: a5 = a5 << 0x8\n  4269: a1 = u64 [sp + 0x88]\n  4273: a1 = a1 | a5\n  4276: u64 [sp + 0xd0] = a1\n  4280: a2 = u64 [sp + 0xe8]\n  4284: a2 = a2 << 0x10\n  4287: ra = u64 [sp + 0xe0]\n  4291: ra = ra << 0x18\n  4294: a1 = ra | a2\n  4297: u64 [sp + 0xe8] = a1\n  4301: a1 = u64 [sp + 0x108]\n  4305: a1 = a1 | s1\n  4308: u64 [sp + 0x120] = a1\n  4312: t2 = u64 [sp + 0xb0]\n  4316: t2 = t2 << 0x8\n  4319: a1 = u64 [sp + 0xd8]\n  4323: a1 = t2 | a1\n  4326: u64 [sp + 0x108] = a1\n  4330: s1 = u64 [sp + 0xc8]\n  4334: s1 = s1 << 0x10\n  4337: ra = u64 [sp + 0xc0]\n  4341: ra = ra << 0x18\n  4344: s1 = ra | s1\n  4347: a1 = u64 [sp + 0x110]\n  4351: a2 = u64 [sp + 0xf8]\n  4355: a1 = a1 | a2\n  4358: u64 [sp + 0x110] = a1\n  4362: a4 = u64 [sp + 0x90]\n  4366: a4 = a4 << 0x8\n  4369: a1 = u64 [sp + 0xa8]\n  4373: t2 = a4 | a1\n  4376: a1 = u64 [sp + 0xa0]\n  4380: a1 = a1 << 0x10\n  4383: a5 = u64 [sp + 0x98]\n  4387: a5 = a5 << 0x18\n  4390: a5 = a5 | a1\n  4393: a1 = u64 [sp + 0x100]\n  4397: a2 = u64 [sp + 0xf0]\n  4401: ra = a2 | a1\n  4404: a1 = u64 [sp + 0x118]\n  4408: a2 = u64 [sp + 0xb8]\n  4412: a1 = a1 | a2\n  4415: a2 = u64 [sp + 0xd0]\n  4419: a4 = u64 [sp + 0xe8]\n  4423: a4 = a4 | a2\n  4426: a2 = u64 [sp + 0x108]\n  4430: s1 = s1 | a2\n  4433: a5 = a5 | t2\n  4436: a2 = a3 << 0x20\n  4439: a1 = a1 | a2\n  4442: a2 = u64 [sp + 0x120]\n  4446: a2 = a2 << 0x20\n  4449: t2 = a2 | a4\n  4452: a2 = u64 [sp + 0x110]\n  4456: a2 = a2 << 0x20\n  4459: s1 = s1 | a2\n  4462: ra = ra << 0x20\n  4465: a5 = ra | a5\n  4468: i32 a4 = t1 + 0x120\n  4472: a2 = u64 [sp + 0x10]\n  4475: a3 = u64 [sp + 0x20]\n  4478: jump @103 if a3 >=u a2\n      : @102 (gas: 4)\n  4481: a2 = u64 [sp + 0x158]\n  4485: a3 = u64 [sp + 0x10]\n  4488: u32 [a2] = a3\n  4490: fallthrough\n      : @103 (gas: 53)\n  4491: u64 [sp + 264] = 0\n  4495: u64 [sp + 272] = 0\n  4499: u64 [sp + 288] = 0\n  4503: u64 [sp + 280] = 0\n  4507: a2 = reverse t2\n  4509: u64 [sp + 0xb0] = a2\n  4513: a1 = reverse a1\n  4515: u64 [sp + 0xb8] = a1\n  4519: a1 = reverse a5\n  4521: u64 [sp + 0xc0] = a1\n  4525: a1 = reverse s1\n  4527: u64 [sp + 0xc8] = a1\n  4531: a1 = u64 [sp + 0x140]\n  4535: a4 = a4 + a1\n  4538: u8 [a4 + 31] = 0x7f\n  4542: u8 [a4 + 30] = 0xf7\n  4547: u8 [a4 + 29] = 0x46\n  4551: u8 [a4 + 28] = 0xbe\n  4556: u8 [a4 + 27] = 0xa1\n  4561: u8 [a4 + 26] = 0x39\n  4565: u8 [a4 + 25] = 0x54\n  4569: u8 [a4 + 24] = 0xd7\n  4574: u8 [a4 + 23] = 0xef\n  4579: u8 [a4 + 22] = 0x4f\n  4583: u8 [a4 + 21] = 0xba\n  4588: u8 [a4 + 20] = 0x27\n  4592: u8 [a4 + 19] = 0x8d\n  4597: u8 [a4 + 18] = 0x29\n  4601: u8 [a4 + 17] = 0xa7\n  4606: u8 [a4 + 16] = 0x25\n  4610: u8 [a4 + 15] = 0x7c\n  4614: u8 [a4 + 14] = 0xb9\n  4619: u8 [a4 + 13] = 0x72\n  4623: u8 [a4 + 12] = 0xb4\n  4628: u8 [a4 + 11] = 0x2b\n  4632: u8 [a4 + 10] = 0x3\n  4636: u8 [a4 + 9] = 0x89\n  4641: u8 [a4 + 8] = 0x43\n  4645: u8 [a4 + 7] = 0xbc\n  4650: u8 [a4 + 6] = 0x31\n  4654: u8 [a4 + 5] = 0x45\n  4658: u8 [a4 + 4] = 0x1f\n  4662: u8 [a4 + 3] = 0x2e\n  4666: u8 [a4 + 2] = 0x2c\n  4670: u8 [a4 + 1] = 0xe2\n  4675: u8 [a4 + 0] = 0xa9\n  4679: a2 = 0x900000000000000\n  4689: u64 [sp + 0xe0] = a2\n  4693: i32 a1 = sp + 0x2a0\n  4697: u64 [sp + 0xd8] = a1\n  4701: i32 a1 = sp + 0x2c0\n  4705: u64 [sp + 0xd0] = a1\n  4709: jump @106\n      : @104 (gas: 125)\n  4712: i32 a3 = t1 + 0\n  4714: a1 = u64 [sp + 0x140]\n  4718: a3 = a3 + a1\n  4721: a2 = u8 [a3 + 0x1]\n  4724: a4 = u8 [a3]\n  4726: a5 = u8 [a3 + 0x2]\n  4729: s1 = u8 [a3 + 0x3]\n  4732: a2 = a2 << 0x8\n  4735: a2 = a2 | a4\n  4738: a5 = a5 << 0x10\n  4741: s1 = s1 << 0x18\n  4744: a5 = a5 | s1\n  4747: a1 = a5 | a2\n  4750: a4 = u8 [a3 + 0x5]\n  4753: a5 = u8 [a3 + 0x4]\n  4756: s1 = u8 [a3 + 0x6]\n  4759: a2 = u8 [a3 + 0x7]\n  4762: a4 = a4 << 0x8\n  4765: a4 = a4 | a5\n  4768: s1 = s1 << 0x10\n  4771: a2 = a2 << 0x18\n  4774: a2 = a2 | s1\n  4777: a2 = a2 | a4\n  4780: a2 = a2 << 0x20\n  4783: a1 = a1 | a2\n  4786: u64 [sp + 0x100] = a1\n  4790: a4 = u8 [a3 + 0x9]\n  4793: a5 = u8 [a3 + 0x8]\n  4796: s1 = u8 [a3 + 0xa]\n  4799: a2 = u8 [a3 + 0xb]\n  4802: a4 = a4 << 0x8\n  4805: a4 = a4 | a5\n  4808: s1 = s1 << 0x10\n  4811: a2 = a2 << 0x18\n  4814: a2 = a2 | s1\n  4817: t2 = a2 | a4\n  4820: a4 = u8 [a3 + 0xd]\n  4823: a5 = u8 [a3 + 0xc]\n  4826: s1 = u8 [a3 + 0xe]\n  4829: a2 = u8 [a3 + 0xf]\n  4832: a4 = a4 << 0x8\n  4835: a4 = a4 | a5\n  4838: s1 = s1 << 0x10\n  4841: a2 = a2 << 0x18\n  4844: a2 = a2 | s1\n  4847: a2 = a2 | a4\n  4850: a2 = a2 << 0x20\n  4853: t2 = a2 | t2\n  4856: a2 = u8 [a3 + 0x11]\n  4859: a4 = u8 [a3 + 0x10]\n  4862: s1 = u8 [a3 + 0x12]\n  4865: a5 = u8 [a3 + 0x13]\n  4868: a2 = a2 << 0x8\n  4871: a2 = a2 | a4\n  4874: s1 = s1 << 0x10\n  4877: a5 = a5 << 0x18\n  4880: a5 = a5 | s1\n  4883: ra = a5 | a2\n  4886: a4 = u8 [a3 + 0x15]\n  4889: a5 = u8 [a3 + 0x14]\n  4892: s1 = u8 [a3 + 0x16]\n  4895: a2 = u8 [a3 + 0x17]\n  4898: a4 = a4 << 0x8\n  4901: a4 = a4 | a5\n  4904: s1 = s1 << 0x10\n  4907: a2 = a2 << 0x18\n  4910: a2 = a2 | s1\n  4913: a2 = a2 | a4\n  4916: a2 = a2 << 0x20\n  4919: ra = a2 | ra\n  4922: a2 = u8 [a3 + 0x19]\n  4925: a5 = u8 [a3 + 0x18]\n  4928: s1 = u8 [a3 + 0x1a]\n  4931: a4 = u8 [a3 + 0x1b]\n  4934: a2 = a2 << 0x8\n  4937: a2 = a2 | a5\n  4940: s1 = s1 << 0x10\n  4943: a4 = a4 << 0x18\n  4946: a4 = a4 | s1\n  4949: a2 = a2 | a4\n  4952: a4 = u8 [a3 + 0x1d]\n  4955: a5 = u8 [a3 + 0x1c]\n  4958: s1 = u8 [a3 + 0x1e]\n  4961: a3 = u8 [a3 + 0x1f]\n  4964: a4 = a4 << 0x8\n  4967: a4 = a4 | a5\n  4970: s1 = s1 << 0x10\n  4973: a3 = a3 << 0x18\n  4976: a3 = a3 | s1\n  4979: a3 = a3 | a4\n  4982: a3 = a3 << 0x20\n  4985: a2 = a2 | a3\n  4988: a1 = t1 + 0x20\n  4991: u64 [sp + 0xf8] = a1\n  4995: a1 = a1 <u t1\n  4998: a3 = t0 + a1\n  5001: u64 [sp + 0xf0] = a3\n  5005: s1 = a3 <u t0\n  5008: s1 = a1 if a1 == 0\n  5011: s1 = s1 + a0\n  5014: u64 [sp + 0xe8] = s1\n  5018: a0 = s1 <u a0\n  5021: a1 = u64 [sp + 0x18]\n  5024: a1 = a1 + a0\n  5027: u64 [sp + 0x18] = a1\n  5030: s1 = u64 [sp + 0x108]\n  5034: a0 = s1 << 0x38\n  5037: a1 = u64 [sp + 0xe0]\n  5041: a0 = a0 + a1\n  5044: u64 [sp + 0x2b8] = a0\n  5048: u64 [sp + 0x2d8] = a2\n  5052: u64 [sp + 0x2d0] = ra\n  5056: u64 [sp + 0x2c8] = t2\n  5060: a0 = u64 [sp + 0x100]\n  5064: u64 [sp + 0x2c0] = a0\n  5068: u64 [sp + 688] = 0\n  5072: u64 [sp + 680] = 0\n  5076: u64 [sp + 672] = 0\n  5080: a2 = 0xffffffffffffffff\n  5083: a4 = 0x20\n  5086: a0 = 0\n  5088: a1 = u64 [sp + 0xd8]\n  5092: a3 = u64 [sp + 0xd0]\n  5096: ecalli 13 // 'set_storage'\n  5098: fallthrough\n      : @105 (gas: 23)\n  5099: a2 = s1 <u 0x9\n  5102: a0 = s1 + 0x1\n  5105: a1 = a0 <u 0x1\n  5108: a3 = u64 [sp + 0x110]\n  5112: a2 = 0 if a3 != 0\n  5114: a1 = a1 + a3\n  5117: a3 = a0 | a1\n  5120: a3 = a3 <u 0x1\n  5123: a5 = u64 [sp + 0x120]\n  5127: a3 = a3 + a5\n  5130: t0 = a3 <u a5\n  5133: a4 = u64 [sp + 0x118]\n  5137: a5 = a5 | a4\n  5140: a4 = a4 + t0\n  5143: a2 = 0 if a5 != 0\n  5145: u64 [sp + 0x108] = a0\n  5149: u64 [sp + 0x110] = a1\n  5153: u64 [sp + 0x120] = a3\n  5157: u64 [sp + 0x118] = a4\n  5161: t1 = u64 [sp + 0xf8]\n  5165: t0 = u64 [sp + 0xf0]\n  5169: a0 = u64 [sp + 0xe8]\n  5173: jump @111 if a2 == 0\n      : @106 (gas: 9)\n  5176: a2 = t1 | a0\n  5179: a1 = u64 [sp + 0x18]\n  5182: a3 = t0 | a1\n  5185: a2 = a2 | a3\n  5188: a2 = a2 >> 0x20\n  5191: a3 = a3 | a0\n  5194: a3 = a3 << 0x20\n  5197: a2 = a2 | a3\n  5200: jump @96 if a2 != 0\n      : @107 (gas: 2)\n  5204: i32 a2 = t1 >> 0x10\n  5207: jump @96 if a2 != 0\n      : @108 (gas: 4)\n  5211: a2 = t1 + 0x3f\n  5214: a3 = u64 [sp + 0x150]\n  5218: a3 = a3 & a2\n  5221: jump @96 if a3 >u 65536\n      : @109 (gas: 3)\n  5228: a1 = u64 [sp + 0x158]\n  5232: a2 = i32 [a1]\n  5234: jump @104 if a2 >=u a3\n      : @110 (gas: 3)\n  5238: a1 = u64 [sp + 0x158]\n  5242: u32 [a1] = a3\n  5244: jump @104\n      : @111 (gas: 8)\n  5247: u64 [sp + 472] = 0\n  5251: u64 [sp + 464] = 0\n  5255: u64 [sp + 456] = 0\n  5259: s1 = 0x2\n  5262: u64 [sp + 0x1c0] = s1\n  5266: a0 = sp + 0x180\n  5270: a1 = sp + 0x1c0\n  5274: ra = 6, jump @0\n      : @112 [@dyn 3] (gas: 20)\n  5279: a0 = u32 [sp + 0x194]\n  5283: a1 = u64 [sp + 0x198]\n  5287: a0 = a0 << 0x20\n  5290: a2 = u64 [sp + 0x138]\n  5294: a0 = a0 | a2\n  5297: a2 = u64 [sp + 0x148]\n  5301: a1 = a1 | a2\n  5304: u64 [sp + 504] = 0\n  5308: u64 [sp + 496] = 0\n  5312: u64 [sp + 488] = 0\n  5316: u64 [sp + 0x1e0] = s1\n  5320: a2 = u64 [sp + 0xb0]\n  5324: u64 [sp + 0x208] = a2\n  5328: a2 = u64 [sp + 0xb8]\n  5332: u64 [sp + 0x200] = a2\n  5336: u64 [sp + 0x218] = a1\n  5340: u64 [sp + 0x210] = a0\n  5344: a0 = sp + 0x1e0\n  5348: a1 = sp + 0x200\n  5352: ra = 8, jump @1\n      : @113 [@dyn 4] (gas: 8)\n  5357: u64 [sp + 568] = 0\n  5361: u64 [sp + 560] = 0\n  5365: u64 [sp + 552] = 0\n  5369: s1 = 0x1\n  5372: u64 [sp + 0x220] = s1\n  5376: a0 = sp + 0x160\n  5380: a1 = sp + 0x220\n  5384: ra = 10, jump @0\n      : @114 [@dyn 5] (gas: 20)\n  5389: a0 = u32 [sp + 0x174]\n  5393: a1 = u64 [sp + 0x178]\n  5397: a0 = a0 << 0x20\n  5400: a2 = u64 [sp + 0x128]\n  5404: a0 = a0 | a2\n  5407: a2 = u64 [sp + 0x130]\n  5411: a1 = a1 | a2\n  5414: u64 [sp + 600] = 0\n  5418: u64 [sp + 592] = 0\n  5422: u64 [sp + 584] = 0\n  5426: u64 [sp + 0x240] = s1\n  5430: a2 = u64 [sp + 0xc0]\n  5434: u64 [sp + 0x268] = a2\n  5438: a2 = u64 [sp + 0xc8]\n  5442: u64 [sp + 0x260] = a2\n  5446: u64 [sp + 0x278] = a1\n  5450: u64 [sp + 0x270] = a0\n  5454: a0 = sp + 0x240\n  5458: a1 = sp + 0x260\n  5462: ra = 12, jump @1\n      : @115 [@dyn 6] (gas: 3)\n  5467: a0 = u64 [sp + 0x158]\n  5471: a0 = i32 [a0]\n  5473: jump @117 if a0 >u 95\n      : @116 (gas: 4)\n  5477: a0 = 0x60\n  5480: a1 = u64 [sp + 0x158]\n  5484: u32 [a1] = a0\n  5486: fallthrough\n      : @117 (gas: 17)\n  5487: a4 = u64 [sp + 0x140]\n  5491: a1 = u64 [a4 + 0x48]\n  5494: a2 = u64 [a4 + 0x58]\n  5497: a3 = u64 [a4 + 0x40]\n  5500: a4 = u64 [a4 + 0x50]\n  5503: a1 = reverse a1\n  5505: s1 = reverse a2\n  5507: a2 = reverse a3\n  5509: a3 = reverse a4\n  5511: a2 = a2 | a3\n  5514: a3 = s1 | a1\n  5517: a3 = a3 | a2\n  5520: a3 = a3 >> 0x20\n  5523: a1 = a1 | a2\n  5526: a1 = a1 << 0x20\n  5529: a1 = a1 | a3\n  5532: jump @96 if a1 != 0\n      : @118 (gas: 2)\n  5536: i32 a1 = s1 >> 0x10\n  5539: jump @96 if a1 != 0\n      : @119 (gas: 4)\n  5543: a1 = s1 + 0x1f\n  5546: a2 = u64 [sp + 0x150]\n  5550: a1 = a1 & a2\n  5553: jump @96 if a1 >u 65536\n      : @120 (gas: 1)\n  5560: jump @122 if a0 >=u a1\n      : @121 (gas: 3)\n  5563: a0 = u64 [sp + 0x158]\n  5567: u32 [a0] = a1\n  5569: fallthrough\n      : @122 (gas: 6)\n  5570: a0 = u64 [sp + 0x140]\n  5574: i32 a0 = a0 + s1\n  5577: a1 = 0\n  5579: a2 = 0\n  5581: ecalli 1 // 'call_data_copy'\n  5583: fallthrough\n      : @123 (gas: 2)\n  5584: a1 = i32 [0x20050]\n  5589: jump @125 if a1 == 0\n      : @124 (gas: 4)\n  5592: a0 = 0x30080\n  5597: i32 a0 = a0 + 0\n  5599: ecalli 12 // 'set_immutable_data'\n  5601: fallthrough\n      : @125 (gas: 3)\n  5602: a0 = s1\n  5604: a1 = 0\n  5606: ra = 14, jump @8\n      : @126 [@dyn 7] (gas: 6)\n  5611: i32 a1 = a0 + 0\n  5613: a0 = 0\n  5615: a2 = 0\n  5617: ra = 0x10\n  5620: ecalli 11 // 'seal_return'\n  5622: fallthrough\n      : @127 [@dyn 8] (gas: 11)\n  5623: sp = sp + 0xfffffffffffff808\n  5627: u64 [sp + 0x7f0] = ra\n  5631: u64 [sp + 0x7e8] = s0\n  5635: u64 [sp + 0x7e0] = s1\n  5639: s0 = sp + 0x7f8\n  5643: sp = sp + 0xfffffffffffffc18\n  5647: sp = sp & 0xffffffffffffffe0\n  5650: s1 = sp\n  5652: a2 = 0x2004c\n  5657: a0 = i32 [0x2004c]\n  5662: jump @129 if a0 >u 95\n      : @128 (gas: 2)\n  5666: u32 [0x2004c] = 0x60\n  5672: fallthrough\n      : @129 (gas: 12)\n  5673: u64 [s1 + 0x238] = a2\n  5677: a2 = 0x20060\n  5682: a1 = 0x20048\n  5687: u64 [0x200b0] = 0\n  5692: u64 [0x200a8] = 0\n  5697: u64 [s1 + 0x228] = a1\n  5701: a1 = i32 [0x20048]\n  5706: a0 = 0x8000000000000000\n  5716: u64 [0x200b8] = a0\n  5721: u64 [s1 + 0x230] = a2\n  5725: u64 [0x200a0] = 0\n  5730: jump @131 if a1 >=u 4\n      : @130 (gas: 1)\n  5734: jump @732\n      : @131 (gas: 4)\n  5737: i32 a0 = s1 + 0x660\n  5741: a1 = 0\n  5743: ecalli 2 // 'call_data_load'\n  5745: fallthrough\n      : @132 (gas: 2)\n  5746: a0 = i32 [s1 + 0x67c]\n  5750: jump @146 if a0 >s 3347547350\n      : @133 (gas: 1)\n  5758: jump @166 if a0 >s 3102184803\n      : @134 (gas: 1)\n  5766: jump @136 if a0 == 2345299222\n      : @135 (gas: 1)\n  5773: jump @405\n      : @136 (gas: 7)\n  5776: u64 [s1 + 1880] = 0\n  5780: u64 [s1 + 1872] = 0\n  5784: u64 [s1 + 1864] = 0\n  5788: u64 [s1 + 1856] = 0\n  5792: i32 a0 = s1 + 0x740\n  5796: ecalli 14 // 'value_transferred'\n  5798: fallthrough\n      : @137 (gas: 8)\n  5799: a0 = u64 [s1 + 0x750]\n  5803: a1 = u64 [s1 + 0x758]\n  5807: a2 = u64 [s1 + 0x748]\n  5811: a3 = u64 [s1 + 0x740]\n  5815: a1 = a1 | a2\n  5818: a0 = a0 | a3\n  5821: a0 = a0 | a1\n  5824: jump @139 if a0 == 0\n      : @138 (gas: 1)\n  5827: jump @732\n      : @139 (gas: 5)\n  5830: a0 = u64 [s1 + 0x228]\n  5834: a1 = i32 [a0]\n  5836: a2 = s1 + 0x7ff\n  5840: a2 = a2 + 0x1b9\n  5844: jump @141 if a1 >u 3\n      : @140 (gas: 1)\n  5848: jump @732\n      : @141 (gas: 20)\n  5851: a0 = 0x300000000000000\n  5861: u64 [a2 + 0x1c0] = a0\n  5865: u64 [a2 + 440] = 0\n  5869: u64 [a2 + 432] = 0\n  5873: u64 [a2 + 424] = 0\n  5877: u64 [a2 + 480] = 0\n  5881: u64 [a2 + 472] = 0\n  5885: u64 [a2 + 464] = 0\n  5889: u64 [a2 + 456] = 0\n  5893: u32 [a2 + 488] = 0x20\n  5898: a0 = s1 + 0x1000\n  5902: i32 a1 = a0 + 0xfffffffffffffb60\n  5906: a0 = s1 + 0x1000\n  5910: i32 a3 = a0 + 0xfffffffffffffb80\n  5914: a0 = s1 + 0x1000\n  5918: i32 a4 = a0 + 0xfffffffffffffba0\n  5922: a2 = 0xffffffffffffffff\n  5925: a0 = 0\n  5927: ecalli 6 // 'get_storage'\n  5929: fallthrough\n      : @142 (gas: 3)\n  5930: a1 = u64 [s1 + 0x238]\n  5934: a2 = i32 [a1]\n  5936: jump @144 if a2 >u 95\n      : @143 (gas: 3)\n  5940: a2 = 0x60\n  5943: u32 [a1] = a2\n  5945: fallthrough\n      : @144 (gas: 17)\n  5946: a4 = u64 [s1 + 0x230]\n  5950: a0 = u64 [a4 + 0x48]\n  5953: a1 = u64 [a4 + 0x58]\n  5956: a3 = u64 [a4 + 0x40]\n  5959: a4 = u64 [a4 + 0x50]\n  5962: a5 = reverse a0\n  5964: a0 = reverse a1\n  5966: a1 = reverse a3\n  5968: a3 = reverse a4\n  5970: a1 = a1 | a3\n  5973: a3 = a0 | a5\n  5976: a3 = a3 | a1\n  5979: a3 = a3 >> 0x20\n  5982: a1 = a1 | a5\n  5985: a1 = a1 << 0x20\n  5988: a1 = a1 | a3\n  5991: jump @159 if a1 == 0\n      : @145 (gas: 1)\n  5995: jump @660\n      : @146 (gas: 1)\n  5998: jump @185 if a0 <=s 1172329022\n      : @147 (gas: 1)\n  6006: jump @149 if a0 == 1172329023\n      : @148 (gas: 1)\n  6013: jump @390\n      : @149 (gas: 7)\n  6016: u64 [s1 + 1784] = 0\n  6020: u64 [s1 + 1776] = 0\n  6024: u64 [s1 + 1768] = 0\n  6028: u64 [s1 + 1760] = 0\n  6032: i32 a0 = s1 + 0x6e0\n  6036: ecalli 14 // 'value_transferred'\n  6038: fallthrough\n      : @150 (gas: 8)\n  6039: a0 = u64 [s1 + 0x6f0]\n  6043: a1 = u64 [s1 + 0x6f8]\n  6047: a2 = u64 [s1 + 0x6e8]\n  6051: a3 = u64 [s1 + 0x6e0]\n  6055: a1 = a1 | a2\n  6058: a0 = a0 | a3\n  6061: a0 = a0 | a1\n  6064: jump @152 if a0 == 0\n      : @151 (gas: 1)\n  6067: jump @732\n      : @152 (gas: 5)\n  6070: a0 = u64 [s1 + 0x228]\n  6074: a0 = i32 [a0]\n  6076: a2 = s1 + 0x7ff\n  6080: a2 = a2 + 0x1b9\n  6084: jump @154 if a0 >u 3\n      : @153 (gas: 1)\n  6088: jump @732\n      : @154 (gas: 20)\n  6091: a0 = 0x400000000000000\n  6101: u64 [a2 + 0x1c0] = a0\n  6105: u64 [a2 + 440] = 0\n  6109: u64 [a2 + 432] = 0\n  6113: u64 [a2 + 424] = 0\n  6117: u64 [a2 + 480] = 0\n  6121: u64 [a2 + 472] = 0\n  6125: u64 [a2 + 464] = 0\n  6129: u64 [a2 + 456] = 0\n  6133: u32 [a2 + 488] = 0x20\n  6138: a0 = s1 + 0x1000\n  6142: i32 a1 = a0 + 0xfffffffffffffb60\n  6146: a0 = s1 + 0x1000\n  6150: i32 a3 = a0 + 0xfffffffffffffb80\n  6154: a0 = s1 + 0x1000\n  6158: i32 a4 = a0 + 0xfffffffffffffba0\n  6162: a2 = 0xffffffffffffffff\n  6165: a0 = 0\n  6167: ecalli 6 // 'get_storage'\n  6169: fallthrough\n      : @155 (gas: 3)\n  6170: a1 = u64 [s1 + 0x238]\n  6174: a2 = i32 [a1]\n  6176: jump @157 if a2 >u 95\n      : @156 (gas: 3)\n  6180: a2 = 0x60\n  6183: u32 [a1] = a2\n  6185: fallthrough\n      : @157 (gas: 17)\n  6186: a4 = u64 [s1 + 0x230]\n  6190: a0 = u64 [a4 + 0x48]\n  6193: a1 = u64 [a4 + 0x58]\n  6196: a3 = u64 [a4 + 0x40]\n  6199: a4 = u64 [a4 + 0x50]\n  6202: a5 = reverse a0\n  6204: a0 = reverse a1\n  6206: a1 = reverse a3\n  6208: a3 = reverse a4\n  6210: a1 = a1 | a3\n  6213: a3 = a0 | a5\n  6216: a3 = a3 | a1\n  6219: a3 = a3 >> 0x20\n  6222: a1 = a1 | a5\n  6225: a1 = a1 << 0x20\n  6228: a1 = a1 | a3\n  6231: jump @159 if a1 == 0\n      : @158 (gas: 1)\n  6234: jump @660\n      : @159 (gas: 2)\n  6237: i32 a1 = a0 >> 0x10\n  6240: jump @161 if a1 == 0\n      : @160 (gas: 1)\n  6243: jump @660\n      : @161 (gas: 3)\n  6246: a1 = a0 + 0x3f\n  6249: a1 = a1 & 0x1ffe0\n  6254: jump @163 if a1 <=u 65536\n      : @162 (gas: 1)\n  6260: jump @660\n      : @163 (gas: 7)\n  6263: a4 = s1 + 0x7ff\n  6267: a4 = a4 + 0x1b9\n  6271: t0 = u64 [a4 + 0x1e0]\n  6275: a3 = u64 [a4 + 0x1d8]\n  6279: a5 = u64 [a4 + 0x1d0]\n  6283: a4 = u64 [a4 + 0x1c8]\n  6287: jump @165 if a2 >=u a1\n      : @164 (gas: 3)\n  6290: a2 = u64 [s1 + 0x238]\n  6294: u32 [a2] = a1\n  6296: fallthrough\n      : @165 (gas: 66)\n  6297: i32 a2 = a0 + 0\n  6299: a1 = u64 [s1 + 0x230]\n  6303: a2 = a2 + a1\n  6306: u8 [a2 + 0x10] = a3\n  6309: a1 = a5 >> 0x38\n  6312: u8 [a2 + 0xf] = a1\n  6315: a1 = a5 >> 0x30\n  6318: u8 [a2 + 0xe] = a1\n  6321: a1 = a5 >> 0x28\n  6324: u8 [a2 + 0xd] = a1\n  6327: a1 = a5 >> 0x20\n  6330: u8 [a2 + 0xc] = a1\n  6333: a1 = a5 >> 0x18\n  6336: u8 [a2 + 0xb] = a1\n  6339: a1 = a5 >> 0x10\n  6342: u8 [a2 + 0xa] = a1\n  6345: a1 = a5 >> 0x8\n  6348: u8 [a2 + 0x9] = a1\n  6351: u8 [a2 + 0x8] = a5\n  6354: a1 = a4 >> 0x38\n  6357: u8 [a2 + 0x7] = a1\n  6360: a1 = a4 >> 0x30\n  6363: u8 [a2 + 0x6] = a1\n  6366: a1 = a4 >> 0x28\n  6369: u8 [a2 + 0x5] = a1\n  6372: a1 = a4 >> 0x20\n  6375: u8 [a2 + 0x4] = a1\n  6378: a1 = a4 >> 0x18\n  6381: u8 [a2 + 0x3] = a1\n  6384: a1 = a4 >> 0x10\n  6387: u8 [a2 + 0x2] = a1\n  6390: a1 = a4 >> 0x8\n  6393: u8 [a2 + 0x1] = a1\n  6396: u8 [a2] = a4\n  6398: u8 [a2 + 0x18] = t0\n  6401: a1 = a3 >> 0x38\n  6404: u8 [a2 + 0x17] = a1\n  6407: a1 = a3 >> 0x30\n  6410: u8 [a2 + 0x16] = a1\n  6413: a1 = a3 >> 0x28\n  6416: u8 [a2 + 0x15] = a1\n  6419: a1 = a3 >> 0x20\n  6422: u8 [a2 + 0x14] = a1\n  6425: a1 = a3 >> 0x18\n  6428: u8 [a2 + 0x13] = a1\n  6431: a1 = a3 >> 0x10\n  6434: u8 [a2 + 0x12] = a1\n  6437: a3 = a3 >> 0x8\n  6440: u8 [a2 + 0x11] = a3\n  6443: a1 = t0 >> 0x38\n  6446: u8 [a2 + 0x1f] = a1\n  6449: a1 = t0 >> 0x30\n  6452: u8 [a2 + 0x1e] = a1\n  6455: a1 = t0 >> 0x28\n  6458: u8 [a2 + 0x1d] = a1\n  6461: a1 = t0 >> 0x20\n  6464: u8 [a2 + 0x1c] = a1\n  6467: a1 = t0 >> 0x18\n  6470: u8 [a2 + 0x1b] = a1\n  6473: a1 = t0 >> 0x10\n  6476: u8 [a2 + 0x1a] = a1\n  6479: a1 = t0 >> 0x8\n  6482: u8 [a2 + 0x19] = a1\n  6485: a1 = 0x20\n  6488: ra = 0x28\n  6491: jump @8\n      : @166 (gas: 1)\n  6494: jump @168 if a0 == 3102184804\n      : @167 (gas: 1)\n  6501: jump @573\n      : @168 (gas: 12)\n  6504: a0 = s1 + 0x1000\n  6508: u64 [a0 + 4294965496] = 0\n  6512: a0 = s1 + 0x1000\n  6516: u64 [a0 + 4294965488] = 0\n  6520: a0 = s1 + 0x1000\n  6524: u64 [a0 + 4294965480] = 0\n  6528: a0 = s1 + 0x1000\n  6532: u64 [a0 + 4294965472] = 0\n  6536: a0 = s1 + 0x1000\n  6540: i32 a0 = a0 + 0xfffffffffffff8e0\n  6544: ecalli 14 // 'value_transferred'\n  6546: fallthrough\n      : @169 (gas: 12)\n  6547: a0 = s1 + 0x1000\n  6551: a0 = u64 [a0 + 0xfffffffffffff8f0]\n  6555: a1 = s1 + 0x1000\n  6559: a1 = u64 [a1 + 0xfffffffffffff8f8]\n  6563: a2 = s1 + 0x1000\n  6567: a2 = u64 [a2 + 0xfffffffffffff8e8]\n  6571: a3 = s1 + 0x1000\n  6575: a3 = u64 [a3 + 0xfffffffffffff8e0]\n  6579: a1 = a1 | a2\n  6582: a0 = a0 | a3\n  6585: a0 = a0 | a1\n  6588: jump @171 if a0 == 0\n      : @170 (gas: 1)\n  6591: jump @732\n      : @171 (gas: 5)\n  6594: a0 = u64 [s1 + 0x228]\n  6598: a0 = i32 [a0]\n  6600: a2 = s1 + 0x7ff\n  6604: a2 = a2 + 0x1b9\n  6608: jump @173 if a0 >u 3\n      : @172 (gas: 1)\n  6612: jump @732\n      : @173 (gas: 20)\n  6615: a0 = 0x200000000000000\n  6625: u64 [a2 + 0x1c0] = a0\n  6629: u64 [a2 + 440] = 0\n  6633: u64 [a2 + 432] = 0\n  6637: u64 [a2 + 424] = 0\n  6641: u64 [a2 + 480] = 0\n  6645: u64 [a2 + 472] = 0\n  6649: u64 [a2 + 464] = 0\n  6653: u64 [a2 + 456] = 0\n  6657: u32 [a2 + 488] = 0x20\n  6662: a0 = s1 + 0x1000\n  6666: i32 a1 = a0 + 0xfffffffffffffb60\n  6670: a0 = s1 + 0x1000\n  6674: i32 a3 = a0 + 0xfffffffffffffb80\n  6678: a0 = s1 + 0x1000\n  6682: i32 a4 = a0 + 0xfffffffffffffba0\n  6686: a2 = 0xffffffffffffffff\n  6689: a0 = 0\n  6691: ecalli 6 // 'get_storage'\n  6693: fallthrough\n      : @174 (gas: 3)\n  6694: a2 = u64 [s1 + 0x238]\n  6698: a1 = i32 [a2]\n  6700: jump @176 if a1 >u 95\n      : @175 (gas: 3)\n  6704: a1 = 0x60\n  6707: u32 [a2] = a1\n  6709: fallthrough\n      : @176 (gas: 17)\n  6710: a4 = u64 [s1 + 0x230]\n  6714: a0 = u64 [a4 + 0x48]\n  6717: a2 = u64 [a4 + 0x58]\n  6720: a3 = u64 [a4 + 0x40]\n  6723: a4 = u64 [a4 + 0x50]\n  6726: a5 = reverse a0\n  6728: a0 = reverse a2\n  6730: a2 = reverse a3\n  6732: a3 = reverse a4\n  6734: a2 = a2 | a3\n  6737: a3 = a0 | a5\n  6740: a3 = a3 | a2\n  6743: a3 = a3 >> 0x20\n  6746: a2 = a2 | a5\n  6749: a2 = a2 << 0x20\n  6752: a2 = a2 | a3\n  6755: jump @178 if a2 == 0\n      : @177 (gas: 1)\n  6758: jump @660\n      : @178 (gas: 2)\n  6761: i32 a2 = a0 >> 0x10\n  6764: jump @180 if a2 == 0\n      : @179 (gas: 1)\n  6767: jump @660\n      : @180 (gas: 3)\n  6770: a2 = a0 + 0x3f\n  6773: a2 = a2 & 0x1ffe0\n  6778: jump @182 if a2 <=u 65536\n      : @181 (gas: 1)\n  6784: jump @660\n      : @182 (gas: 4)\n  6787: a3 = s1 + 0x7ff\n  6791: a3 = a3 + 0x1b9\n  6795: a3 = u64 [a3 + 0x1d0]\n  6799: jump @184 if a1 >=u a2\n      : @183 (gas: 3)\n  6802: a1 = u64 [s1 + 0x238]\n  6806: u32 [a1] = a2\n  6808: fallthrough\n      : @184 (gas: 40)\n  6809: i32 a1 = a0 + 0\n  6811: a2 = u64 [s1 + 0x230]\n  6815: a1 = a1 + a2\n  6818: a3 = a3 >> 0x18\n  6821: u8 [a1 + 0x1f] = a3\n  6824: u8 [a1 + 30] = 0\n  6827: u8 [a1 + 29] = 0\n  6830: a2 = 0xff000000\n  6840: u8 [a1 + 0x1c] = a2\n  6843: u8 [a1 + 27] = 0\n  6846: u8 [a1 + 26] = 0\n  6849: u8 [a1 + 25] = 0\n  6852: u8 [a1 + 24] = 0\n  6855: u8 [a1 + 23] = 0\n  6858: u8 [a1 + 22] = 0\n  6861: u8 [a1 + 21] = 0\n  6864: u8 [a1 + 20] = 0\n  6867: u8 [a1 + 19] = 0\n  6870: u8 [a1 + 18] = 0\n  6873: u8 [a1 + 17] = 0\n  6876: u8 [a1 + 16] = 0\n  6879: u8 [a1 + 15] = 0\n  6882: u8 [a1 + 14] = 0\n  6885: u8 [a1 + 13] = 0\n  6888: u8 [a1 + 12] = 0\n  6891: u8 [a1 + 11] = 0\n  6894: u8 [a1 + 10] = 0\n  6897: u8 [a1 + 9] = 0\n  6900: u8 [a1 + 8] = 0\n  6903: u8 [a1 + 7] = 0\n  6906: u8 [a1 + 6] = 0\n  6909: u8 [a1 + 5] = 0\n  6912: u8 [a1 + 4] = 0\n  6915: u8 [a1 + 3] = 0\n  6918: u8 [a1 + 2] = 0\n  6921: u8 [a1 + 1] = 0\n  6924: u8 [a1 + 0] = 0\n  6926: a1 = 0x20\n  6929: ra = 0x28\n  6932: jump @8\n      : @185 (gas: 2)\n  6935: a2 = u64 [s1 + 0x238]\n  6939: jump @187 if a0 == 3347547351\n      : @186 (gas: 1)\n  6946: jump @728\n      : @187 (gas: 4)\n  6949: a0 = u64 [s1 + 0x228]\n  6953: a0 = i32 [a0]\n  6955: a4 = u64 [s1 + 0x230]\n  6959: jump @189 if a0 >u 323\n      : @188 (gas: 1)\n  6964: jump @733\n      : @189 (gas: 10)\n  6967: a0 = sp + 0xffffffffffffffe0\n  6970: a3 = a0 & 0xffffffffffffffe0\n  6973: sp = a3\n  6975: u64 [a3 + 24] = 0\n  6978: u64 [a3 + 16] = 0\n  6981: a0 = i32 [a2]\n  6983: u64 [a3 + 0] = 0x40\n  6986: u64 [s1 + 0x1f8] = a3\n  6990: u64 [a3 + 8] = 0\n  6993: jump @191 if a0 >u 95\n      : @190 (gas: 2)\n  6997: u32 [a2 + 0] = 0x60\n  7000: fallthrough\n      : @191 (gas: 14)\n  7001: a0 = u64 [a4 + 0x50]\n  7004: a1 = u64 [a4 + 0x58]\n  7007: a2 = u64 [a4 + 0x40]\n  7010: a3 = u64 [a4 + 0x48]\n  7013: t0 = reverse a0\n  7015: t1 = reverse a1\n  7017: t2 = reverse a2\n  7019: a5 = reverse a3\n  7021: a1 = a5 | t2\n  7024: a0 = t1 <u 0xffffffffffffffc0\n  7027: a0 = 0 if t0 != 0\n  7029: u64 [s1 + 0x200] = a1\n  7033: a0 = 0 if a1 != 0\n  7035: jump @193 if a0 != 0\n      : @192 (gas: 1)\n  7038: jump @734\n      : @193 (gas: 25)\n  7041: a0 = t1 + 0x40\n  7044: a1 = a0 <u t1\n  7047: a2 = t0 + a1\n  7050: a3 = a2 <u t0\n  7053: a3 = a1 if a1 == 0\n  7056: a3 = a3 + a5\n  7059: a1 = a3 <u a5\n  7062: a1 = a1 + t2\n  7065: a1 = reverse a1\n  7067: a3 = reverse a3\n  7069: a2 = reverse a2\n  7071: a0 = reverse a0\n  7073: u64 [a4 + 0x58] = a0\n  7076: u64 [a4 + 0x50] = a2\n  7079: u64 [a4 + 0x48] = a3\n  7082: u64 [a4 + 0x40] = a1\n  7085: a0 = s1 + 0x1000\n  7089: i32 a0 = a0 + 0xfffffffffffff940\n  7093: a1 = 0x4\n  7096: u64 [s1 + 0x220] = t1\n  7100: u64 [s1 + 0x218] = t0\n  7104: u64 [s1 + 0x210] = a5\n  7108: u64 [s1 + 0x208] = t2\n  7112: ecalli 2 // 'call_data_load'\n  7114: fallthrough\n      : @194 (gas: 12)\n  7115: a2 = u64 [s1 + 0x210]\n  7119: a3 = u64 [s1 + 0x220]\n  7123: a0 = a3 | a2\n  7126: a1 = u64 [s1 + 0x218]\n  7130: a4 = u64 [s1 + 0x208]\n  7134: a1 = a1 | a4\n  7137: a0 = a0 | a1\n  7140: a0 = a0 >> 0x20\n  7143: a1 = a1 | a2\n  7146: a1 = a1 << 0x20\n  7149: a0 = a0 | a1\n  7152: jump @196 if a0 == 0\n      : @195 (gas: 1)\n  7155: jump @660\n      : @196 (gas: 2)\n  7158: i32 a0 = a3 >> 0x10\n  7161: jump @198 if a0 == 0\n      : @197 (gas: 1)\n  7164: jump @660\n      : @198 (gas: 3)\n  7167: a0 = a3 + 0x3f\n  7170: a0 = a0 & 0x1ffe0\n  7175: jump @200 if a0 <=u 65536\n      : @199 (gas: 1)\n  7181: jump @660\n      : @200 (gas: 12)\n  7184: u64 [s1 + 496] = 0x1ffe0\n  7191: a1 = s1 + 0x1000\n  7195: a1 = u64 [a1 + 0xfffffffffffff958]\n  7199: a2 = s1 + 0x1000\n  7203: a2 = u64 [a2 + 0xfffffffffffff950]\n  7207: a4 = s1 + 0x1000\n  7211: t0 = u64 [a4 + 0xfffffffffffff948]\n  7215: a4 = u64 [s1 + 0x238]\n  7219: a5 = i32 [a4]\n  7221: a4 = s1 + 0x1000\n  7225: a4 = u64 [a4 + 0xfffffffffffff940]\n  7229: jump @202 if a5 >=u a0\n      : @201 (gas: 3)\n  7232: a5 = u64 [s1 + 0x238]\n  7236: u32 [a5] = a0\n  7238: fallthrough\n      : @202 (gas: 72)\n  7239: i32 a0 = a3 + 0\n  7241: a5 = u64 [s1 + 0x230]\n  7245: a0 = a0 + a5\n  7248: a1 = reverse a1\n  7250: a2 = reverse a2\n  7252: a3 = reverse t0\n  7254: a4 = reverse a4\n  7256: a5 = a4 >> 0x38\n  7259: u8 [a0 + 0x1f] = a5\n  7262: a5 = a4 >> 0x30\n  7265: u8 [a0 + 0x1e] = a5\n  7268: a5 = a4 >> 0x28\n  7271: u8 [a0 + 0x1d] = a5\n  7274: a5 = a4 >> 0x20\n  7277: u8 [a0 + 0x1c] = a5\n  7280: a5 = a4 >> 0x18\n  7283: u8 [a0 + 0x1b] = a5\n  7286: a5 = a4 >> 0x10\n  7289: u8 [a0 + 0x1a] = a5\n  7292: a5 = a4 >> 0x8\n  7295: u8 [a0 + 0x19] = a5\n  7298: u8 [a0 + 0x18] = a4\n  7301: u8 [a0 + 0x10] = a3\n  7304: a4 = a3 >> 0x38\n  7307: u8 [a0 + 0x17] = a4\n  7310: a4 = a3 >> 0x30\n  7313: u8 [a0 + 0x16] = a4\n  7316: a4 = a3 >> 0x28\n  7319: u8 [a0 + 0x15] = a4\n  7322: a4 = a3 >> 0x20\n  7325: u8 [a0 + 0x14] = a4\n  7328: a4 = a3 >> 0x18\n  7331: u8 [a0 + 0x13] = a4\n  7334: a4 = a3 >> 0x10\n  7337: u8 [a0 + 0x12] = a4\n  7340: a3 = a3 >> 0x8\n  7343: u8 [a0 + 0x11] = a3\n  7346: u8 [a0 + 0x8] = a2\n  7349: a3 = a2 >> 0x38\n  7352: u8 [a0 + 0xf] = a3\n  7355: a3 = a2 >> 0x30\n  7358: u8 [a0 + 0xe] = a3\n  7361: a3 = a2 >> 0x28\n  7364: u8 [a0 + 0xd] = a3\n  7367: a3 = a2 >> 0x20\n  7370: u8 [a0 + 0xc] = a3\n  7373: a3 = a2 >> 0x18\n  7376: u8 [a0 + 0xb] = a3\n  7379: a3 = a2 >> 0x10\n  7382: u8 [a0 + 0xa] = a3\n  7385: a2 = a2 >> 0x8\n  7388: u8 [a0 + 0x9] = a2\n  7391: u8 [a0] = a1\n  7393: a2 = a1 >> 0x38\n  7396: u8 [a0 + 0x7] = a2\n  7399: a2 = a1 >> 0x30\n  7402: u8 [a0 + 0x6] = a2\n  7405: a2 = a1 >> 0x28\n  7408: u8 [a0 + 0x5] = a2\n  7411: a2 = a1 >> 0x20\n  7414: u8 [a0 + 0x4] = a2\n  7417: a2 = a1 >> 0x18\n  7420: u8 [a0 + 0x3] = a2\n  7423: a2 = a1 >> 0x10\n  7426: u8 [a0 + 0x2] = a2\n  7429: a1 = a1 >> 0x8\n  7432: u8 [a0 + 0x1] = a1\n  7435: a0 = s1 + 0x1000\n  7439: i32 a0 = a0 + 0xfffffffffffff940\n  7443: a1 = 0x24\n  7446: ecalli 2 // 'call_data_load'\n  7448: fallthrough\n      : @203 (gas: 14)\n  7449: a3 = u64 [s1 + 0x220]\n  7453: a0 = u64 [s1 + 0x210]\n  7457: a0 = a0 >u 0\n  7459: a2 = u64 [s1 + 0x208]\n  7463: a1 = a2 >u 0\n  7465: a1 = a0 if a2 == 0\n  7468: a0 = 0xffffffdf\n  7478: a0 = a0 <u a3\n  7481: a4 = u64 [s1 + 0x218]\n  7485: a2 = a4 >u 0\n  7487: a2 = a0 if a4 == 0\n  7490: a0 = u64 [s1 + 0x200]\n  7494: a2 = a1 if a0 != 0\n  7497: jump @205 if a2 == 0\n      : @204 (gas: 1)\n  7500: jump @660\n      : @205 (gas: 3)\n  7503: i32 a0 = a3 >> 0x5\n  7506: a2 = u64 [s1 + 0x1f0]\n  7510: jump @207 if a0 <=u 2046\n      : @206 (gas: 1)\n  7515: jump @660\n      : @207 (gas: 3)\n  7518: a0 = a3 + 0x5f\n  7521: a1 = a0 & a2\n  7524: jump @209 if a1 <=u 65536\n      : @208 (gas: 1)\n  7530: jump @660\n      : @209 (gas: 12)\n  7533: a0 = s1 + 0x1000\n  7537: t2 = u64 [a0 + 0xfffffffffffff958]\n  7541: a0 = s1 + 0x1000\n  7545: ra = u64 [a0 + 0xfffffffffffff950]\n  7549: a0 = s1 + 0x1000\n  7553: a4 = u64 [a0 + 0xfffffffffffff948]\n  7557: a0 = u64 [s1 + 0x238]\n  7561: t0 = i32 [a0]\n  7563: a0 = s1 + 0x1000\n  7567: a5 = u64 [a0 + 0xfffffffffffff940]\n  7571: i32 a0 = a3 + 0x20\n  7574: jump @211 if t0 >=u a1\n      : @210 (gas: 4)\n  7577: a2 = u64 [s1 + 0x238]\n  7581: u32 [a2] = a1\n  7583: t0 = a1\n  7585: fallthrough\n      : @211 (gas: 69)\n  7586: t1 = u64 [s1 + 0x230]\n  7590: a1 = t1 + a0\n  7593: a2 = reverse t2\n  7595: a3 = reverse ra\n  7597: a4 = reverse a4\n  7599: a0 = reverse a5\n  7601: u8 [a1 + 0x18] = a0\n  7604: a5 = a0 >> 0x38\n  7607: u8 [a1 + 0x1f] = a5\n  7610: a5 = a0 >> 0x30\n  7613: u8 [a1 + 0x1e] = a5\n  7616: a5 = a0 >> 0x28\n  7619: u8 [a1 + 0x1d] = a5\n  7622: a5 = a0 >> 0x20\n  7625: u8 [a1 + 0x1c] = a5\n  7628: a5 = a0 >> 0x18\n  7631: u8 [a1 + 0x1b] = a5\n  7634: a5 = a0 >> 0x10\n  7637: u8 [a1 + 0x1a] = a5\n  7640: a0 = a0 >> 0x8\n  7643: u8 [a1 + 0x19] = a0\n  7646: u8 [a1 + 0x10] = a4\n  7649: a0 = a4 >> 0x38\n  7652: u8 [a1 + 0x17] = a0\n  7655: a0 = a4 >> 0x30\n  7658: u8 [a1 + 0x16] = a0\n  7661: a0 = a4 >> 0x28\n  7664: u8 [a1 + 0x15] = a0\n  7667: a0 = a4 >> 0x20\n  7670: u8 [a1 + 0x14] = a0\n  7673: a0 = a4 >> 0x18\n  7676: u8 [a1 + 0x13] = a0\n  7679: a0 = a4 >> 0x10\n  7682: u8 [a1 + 0x12] = a0\n  7685: a4 = a4 >> 0x8\n  7688: u8 [a1 + 0x11] = a4\n  7691: u8 [a1 + 0x8] = a3\n  7694: a0 = a3 >> 0x38\n  7697: u8 [a1 + 0xf] = a0\n  7700: a0 = a3 >> 0x30\n  7703: u8 [a1 + 0xe] = a0\n  7706: a0 = a3 >> 0x28\n  7709: u8 [a1 + 0xd] = a0\n  7712: a0 = a3 >> 0x20\n  7715: u8 [a1 + 0xc] = a0\n  7718: a0 = a3 >> 0x18\n  7721: u8 [a1 + 0xb] = a0\n  7724: a0 = a3 >> 0x10\n  7727: u8 [a1 + 0xa] = a0\n  7730: a3 = a3 >> 0x8\n  7733: u8 [a1 + 0x9] = a3\n  7736: u8 [a1] = a2\n  7738: a0 = a2 >> 0x38\n  7741: u8 [a1 + 0x7] = a0\n  7744: a0 = a2 >> 0x30\n  7747: u8 [a1 + 0x6] = a0\n  7750: a0 = a2 >> 0x28\n  7753: u8 [a1 + 0x5] = a0\n  7756: a0 = a2 >> 0x20\n  7759: u8 [a1 + 0x4] = a0\n  7762: a0 = a2 >> 0x18\n  7765: u8 [a1 + 0x3] = a0\n  7768: a0 = a2 >> 0x10\n  7771: a3 = u64 [s1 + 0x228]\n  7775: a3 = i32 [a3]\n  7777: u8 [a1 + 0x2] = a0\n  7780: a2 = a2 >> 0x8\n  7783: u8 [a1 + 0x1] = a2\n  7786: jump @213 if a3 >u 99\n      : @212 (gas: 1)\n  7790: jump @746\n      : @213 (gas: 1)\n  7793: jump @215 if t0 >u 95\n      : @214 (gas: 3)\n  7797: a1 = u64 [s1 + 0x238]\n  7801: u32 [a1 + 0] = 0x60\n  7804: fallthrough\n      : @215 (gas: 23)\n  7805: a0 = u64 [t1 + 0x58]\n  7808: a1 = u64 [t1 + 0x50]\n  7811: a2 = u64 [t1 + 0x48]\n  7814: a3 = u64 [t1 + 0x40]\n  7817: a4 = reverse a0\n  7819: a5 = reverse a1\n  7821: a1 = reverse a2\n  7823: a2 = reverse a3\n  7825: u64 [s1 + 1592] = 0\n  7829: u64 [s1 + 1584] = 0\n  7833: u64 [s1 + 1576] = 0\n  7837: u64 [s1 + 1568] = 0x40\n  7842: u64 [s1 + 0x1b8] = a2\n  7846: u64 [s1 + 0x658] = a2\n  7850: u64 [s1 + 0x1c0] = a1\n  7854: u64 [s1 + 0x650] = a1\n  7858: u64 [s1 + 0x1b0] = a5\n  7862: u64 [s1 + 0x648] = a5\n  7866: a0 = s1 + 0x640\n  7870: a1 = s1 + 0x620\n  7874: u64 [s1 + 0x1c8] = a4\n  7878: u64 [s1 + 0x640] = a4\n  7882: ra = 18, jump @1071\n      : @216 [@dyn 9] (gas: 3)\n  7887: a2 = u64 [s1 + 0x228]\n  7891: a0 = i32 [a2]\n  7893: jump @218 if a0 >=u 196\n      : @217 (gas: 1)\n  7898: jump @732\n      : @218 (gas: 3)\n  7901: t0 = i32 [a2]\n  7903: a2 = u64 [s1 + 0x238]\n  7907: jump @220 if t0 >u 99\n      : @219 (gas: 1)\n  7911: jump @732\n      : @220 (gas: 3)\n  7914: a1 = i32 [a2]\n  7916: t1 = u64 [s1 + 0x230]\n  7920: jump @222 if a1 >u 95\n      : @221 (gas: 3)\n  7924: a2 = u64 [s1 + 0x238]\n  7928: u32 [a2 + 0] = 0x60\n  7931: fallthrough\n      : @222 (gas: 15)\n  7932: t2 = u64 [t1 + 0x50]\n  7935: ra = u64 [t1 + 0x58]\n  7938: a4 = u64 [t1 + 0x40]\n  7941: a0 = u64 [t1 + 0x48]\n  7944: a3 = reverse t2\n  7946: a5 = reverse ra\n  7948: a1 = reverse a4\n  7950: a2 = reverse a0\n  7952: u64 [s1 + 0x200] = a1\n  7956: u64 [s1 + 0x1e8] = a2\n  7960: a2 = a2 | a1\n  7963: a1 = a5 <u 0xffffffffffffffc0\n  7966: a1 = 0 if a3 != 0\n  7968: a1 = 0 if a2 != 0\n  7970: jump @224 if a1 != 0\n      : @223 (gas: 1)\n  7973: jump @745\n      : @224 (gas: 26)\n  7976: u64 [s1 + 0x1d0] = a2\n  7980: u64 [s1 + 0x190] = a0\n  7984: u64 [s1 + 0x198] = a4\n  7988: u64 [s1 + 0x1a0] = t2\n  7992: u64 [s1 + 0x1a8] = ra\n  7996: t2 = a5 + 0x40\n  7999: a2 = t2 <u a5\n  8002: a0 = a3 + a2\n  8005: a4 = a0 <u a3\n  8008: a4 = a2 if a2 == 0\n  8011: a1 = u64 [s1 + 0x1e8]\n  8015: a4 = a4 + a1\n  8018: a2 = a4 <u a1\n  8021: a1 = u64 [s1 + 0x200]\n  8025: a2 = a2 + a1\n  8028: a2 = reverse a2\n  8030: a4 = reverse a4\n  8032: a0 = reverse a0\n  8034: a1 = reverse t2\n  8036: u64 [t1 + 0x58] = a1\n  8039: u64 [t1 + 0x50] = a0\n  8042: u64 [t1 + 0x48] = a4\n  8045: u64 [t1 + 0x40] = a2\n  8048: u64 [s1 + 0x1e0] = a5\n  8052: u64 [s1 + 0x1d8] = a3\n  8056: jump @226 if t0 >u 131\n      : @225 (gas: 1)\n  8061: jump @719\n      : @226 (gas: 5)\n  8064: a0 = s1 + 0x1000\n  8068: i32 a0 = a0 + 0xfffffffffffff960\n  8072: a1 = 0x44\n  8075: ecalli 2 // 'call_data_load'\n  8077: fallthrough\n      : @227 (gas: 12)\n  8078: a2 = u64 [s1 + 0x1e8]\n  8082: a3 = u64 [s1 + 0x1e0]\n  8086: a0 = a3 | a2\n  8089: a1 = u64 [s1 + 0x200]\n  8093: a4 = u64 [s1 + 0x1d8]\n  8097: a1 = a1 | a4\n  8100: a0 = a0 | a1\n  8103: a0 = a0 >> 0x20\n  8106: a1 = a1 | a2\n  8109: a1 = a1 << 0x20\n  8112: a0 = a0 | a1\n  8115: jump @229 if a0 == 0\n      : @228 (gas: 1)\n  8118: jump @660\n      : @229 (gas: 2)\n  8121: i32 a0 = a3 >> 0x10\n  8124: jump @231 if a0 == 0\n      : @230 (gas: 1)\n  8127: jump @660\n      : @231 (gas: 4)\n  8130: a0 = a3 + 0x3f\n  8133: a1 = u64 [s1 + 0x1f0]\n  8137: a0 = a0 & a1\n  8140: jump @233 if a0 <=u 65536\n      : @232 (gas: 1)\n  8146: jump @660\n      : @233 (gas: 11)\n  8149: a1 = s1 + 0x1000\n  8153: a1 = u64 [a1 + 0xfffffffffffff978]\n  8157: a2 = s1 + 0x1000\n  8161: a2 = u64 [a2 + 0xfffffffffffff970]\n  8165: a4 = s1 + 0x1000\n  8169: t0 = u64 [a4 + 0xfffffffffffff968]\n  8173: a4 = u64 [s1 + 0x238]\n  8177: a5 = i32 [a4]\n  8179: a4 = s1 + 0x1000\n  8183: a4 = u64 [a4 + 0xfffffffffffff960]\n  8187: jump @235 if a5 >=u a0\n      : @234 (gas: 3)\n  8190: a5 = u64 [s1 + 0x238]\n  8194: u32 [a5] = a0\n  8196: fallthrough\n      : @235 (gas: 73)\n  8197: i32 a0 = a3 + 0\n  8199: a5 = u64 [s1 + 0x230]\n  8203: a0 = a0 + a5\n  8206: a1 = reverse a1\n  8208: a2 = reverse a2\n  8210: a3 = reverse t0\n  8212: a4 = reverse a4\n  8214: a5 = a4 >> 0x38\n  8217: u8 [a0 + 0x1f] = a5\n  8220: a5 = a4 >> 0x30\n  8223: u8 [a0 + 0x1e] = a5\n  8226: a5 = a4 >> 0x28\n  8229: u8 [a0 + 0x1d] = a5\n  8232: a5 = a4 >> 0x20\n  8235: u8 [a0 + 0x1c] = a5\n  8238: a5 = a4 >> 0x18\n  8241: u8 [a0 + 0x1b] = a5\n  8244: a5 = a4 >> 0x10\n  8247: u8 [a0 + 0x1a] = a5\n  8250: a5 = a4 >> 0x8\n  8253: u8 [a0 + 0x19] = a5\n  8256: u8 [a0 + 0x18] = a4\n  8259: u8 [a0 + 0x10] = a3\n  8262: a4 = a3 >> 0x38\n  8265: u8 [a0 + 0x17] = a4\n  8268: a4 = a3 >> 0x30\n  8271: u8 [a0 + 0x16] = a4\n  8274: a4 = a3 >> 0x28\n  8277: u8 [a0 + 0x15] = a4\n  8280: a4 = a3 >> 0x20\n  8283: u8 [a0 + 0x14] = a4\n  8286: a4 = a3 >> 0x18\n  8289: u8 [a0 + 0x13] = a4\n  8292: a4 = a3 >> 0x10\n  8295: u8 [a0 + 0x12] = a4\n  8298: a3 = a3 >> 0x8\n  8301: u8 [a0 + 0x11] = a3\n  8304: u8 [a0 + 0x8] = a2\n  8307: a3 = a2 >> 0x38\n  8310: u8 [a0 + 0xf] = a3\n  8313: a3 = a2 >> 0x30\n  8316: u8 [a0 + 0xe] = a3\n  8319: a3 = a2 >> 0x28\n  8322: u8 [a0 + 0xd] = a3\n  8325: a3 = a2 >> 0x20\n  8328: u8 [a0 + 0xc] = a3\n  8331: a3 = a2 >> 0x18\n  8334: u8 [a0 + 0xb] = a3\n  8337: a3 = a2 >> 0x10\n  8340: u8 [a0 + 0xa] = a3\n  8343: a2 = a2 >> 0x8\n  8346: u8 [a0 + 0x9] = a2\n  8349: u8 [a0] = a1\n  8351: a2 = a1 >> 0x38\n  8354: u8 [a0 + 0x7] = a2\n  8357: a2 = a1 >> 0x30\n  8360: u8 [a0 + 0x6] = a2\n  8363: a2 = a1 >> 0x28\n  8366: u8 [a0 + 0x5] = a2\n  8369: a2 = a1 >> 0x20\n  8372: u8 [a0 + 0x4] = a2\n  8375: a2 = a1 >> 0x18\n  8378: u8 [a0 + 0x3] = a2\n  8381: a2 = a1 >> 0x10\n  8384: u8 [a0 + 0x2] = a2\n  8387: a1 = a1 >> 0x8\n  8390: u8 [a0 + 0x1] = a1\n  8393: a0 = s1 + 0x1000\n  8397: i32 a0 = a0 + 0xfffffffffffff960\n  8401: a1 = 0x64\n  8404: ra = 0x14\n  8407: ecalli 2 // 'call_data_load'\n  8409: fallthrough\n      : @236 [@dyn 10] (gas: 14)\n  8410: a3 = u64 [s1 + 0x1e0]\n  8414: a0 = u64 [s1 + 0x1e8]\n  8418: a0 = a0 >u 0\n  8420: a2 = u64 [s1 + 0x200]\n  8424: a1 = a2 >u 0\n  8426: a1 = a0 if a2 == 0\n  8429: a0 = 0xffffffdf\n  8439: a0 = a0 <u a3\n  8442: a4 = u64 [s1 + 0x1d8]\n  8446: a2 = a4 >u 0\n  8448: a2 = a0 if a4 == 0\n  8451: a0 = u64 [s1 + 0x1d0]\n  8455: a2 = a1 if a0 != 0\n  8458: jump @238 if a2 == 0\n      : @237 (gas: 1)\n  8461: jump @660\n      : @238 (gas: 2)\n  8464: i32 a0 = a3 >> 0x5\n  8467: jump @240 if a0 <=u 2046\n      : @239 (gas: 1)\n  8472: jump @660\n      : @240 (gas: 4)\n  8475: a0 = a3 + 0x5f\n  8478: a1 = u64 [s1 + 0x1f0]\n  8482: a1 = a1 & a0\n  8485: jump @242 if a1 <=u 65536\n      : @241 (gas: 1)\n  8491: jump @660\n      : @242 (gas: 12)\n  8494: a0 = s1 + 0x1000\n  8498: t2 = u64 [a0 + 0xfffffffffffff978]\n  8502: a0 = s1 + 0x1000\n  8506: t1 = u64 [a0 + 0xfffffffffffff970]\n  8510: a0 = s1 + 0x1000\n  8514: a4 = u64 [a0 + 0xfffffffffffff968]\n  8518: a0 = u64 [s1 + 0x238]\n  8522: t0 = i32 [a0]\n  8524: a0 = s1 + 0x1000\n  8528: a5 = u64 [a0 + 0xfffffffffffff960]\n  8532: i32 a0 = a3 + 0x20\n  8535: jump @244 if t0 >=u a1\n      : @243 (gas: 4)\n  8538: a2 = u64 [s1 + 0x238]\n  8542: u32 [a2] = a1\n  8544: t0 = a1\n  8546: fallthrough\n      : @244 (gas: 78)\n  8547: a1 = u64 [s1 + 0x230]\n  8551: a1 = a1 + a0\n  8554: a0 = reverse a5\n  8556: a5 = a0 >> 0x38\n  8559: u8 [a1 + 0x1f] = a5\n  8562: a5 = a0 >> 0x30\n  8565: u8 [a1 + 0x1e] = a5\n  8568: a5 = a0 >> 0x28\n  8571: u8 [a1 + 0x1d] = a5\n  8574: a5 = a0 >> 0x20\n  8577: u8 [a1 + 0x1c] = a5\n  8580: a5 = a0 >> 0x18\n  8583: u8 [a1 + 0x1b] = a5\n  8586: a5 = a0 >> 0x10\n  8589: u8 [a1 + 0x1a] = a5\n  8592: a4 = reverse a4\n  8594: u8 [a1 + 0x18] = a0\n  8597: a0 = a0 >> 0x8\n  8600: u8 [a1 + 0x19] = a0\n  8603: a0 = a4 >> 0x38\n  8606: u8 [a1 + 0x17] = a0\n  8609: a0 = a4 >> 0x30\n  8612: u8 [a1 + 0x16] = a0\n  8615: a0 = a4 >> 0x28\n  8618: u8 [a1 + 0x15] = a0\n  8621: a0 = a4 >> 0x20\n  8624: u8 [a1 + 0x14] = a0\n  8627: a0 = a4 >> 0x18\n  8630: u8 [a1 + 0x13] = a0\n  8633: a0 = a4 >> 0x10\n  8636: u8 [a1 + 0x12] = a0\n  8639: a3 = reverse t2\n  8641: a0 = reverse t1\n  8643: u8 [a1 + 0x10] = a4\n  8646: a4 = a4 >> 0x8\n  8649: u8 [a1 + 0x11] = a4\n  8652: u8 [a1 + 0x8] = a0\n  8655: a2 = a0 >> 0x38\n  8658: u8 [a1 + 0xf] = a2\n  8661: a2 = a0 >> 0x30\n  8664: u8 [a1 + 0xe] = a2\n  8667: a2 = a0 >> 0x28\n  8670: u8 [a1 + 0xd] = a2\n  8673: a2 = a0 >> 0x20\n  8676: u8 [a1 + 0xc] = a2\n  8679: a2 = a0 >> 0x18\n  8682: u8 [a1 + 0xb] = a2\n  8685: a2 = a0 >> 0x10\n  8688: u8 [a1 + 0xa] = a2\n  8691: a0 = a0 >> 0x8\n  8694: u8 [a1 + 0x9] = a0\n  8697: a0 = a3 >> 0x38\n  8700: u8 [a1 + 0x7] = a0\n  8703: a0 = a3 >> 0x30\n  8706: u8 [a1 + 0x6] = a0\n  8709: a0 = a3 >> 0x28\n  8712: u8 [a1 + 0x5] = a0\n  8715: a0 = a3 >> 0x20\n  8718: u8 [a1 + 0x4] = a0\n  8721: a0 = a3 >> 0x18\n  8724: u8 [a1 + 0x3] = a0\n  8727: a0 = a3 >> 0x10\n  8730: u8 [a1 + 0x2] = a0\n  8733: a0 = u64 [s1 + 0x1c8]\n  8737: a4 = u64 [s1 + 0x1c0]\n  8741: a0 = a0 | a4\n  8744: a2 = u64 [s1 + 0x1b8]\n  8748: a5 = u64 [s1 + 0x1b0]\n  8752: a2 = a2 | a5\n  8755: a0 = a0 | a2\n  8758: a0 = a0 >> 0x20\n  8761: a2 = a2 | a4\n  8764: a2 = a2 << 0x20\n  8767: a0 = a0 | a2\n  8770: u8 [a1] = a3\n  8772: a3 = a3 >> 0x8\n  8775: u8 [a1 + 0x1] = a3\n  8778: jump @246 if a0 == 0\n      : @245 (gas: 1)\n  8781: jump @660\n      : @246 (gas: 4)\n  8784: a0 = u64 [s1 + 0x1c8]\n  8788: i32 a0 = a0 >> 0x10\n  8791: u64 [s1 + 0x1e8] = a0\n  8795: jump @248 if a0 == 0\n      : @247 (gas: 1)\n  8798: jump @660\n      : @248 (gas: 6)\n  8801: a0 = u64 [s1 + 0x1c8]\n  8805: a0 = a0 + 0x3f\n  8808: a1 = u64 [s1 + 0x1f0]\n  8812: a1 = a1 & a0\n  8815: u64 [s1 + 0x1e0] = a1\n  8819: jump @250 if a1 <=u 65536\n      : @249 (gas: 1)\n  8825: jump @660\n      : @250 (gas: 2)\n  8828: a0 = u64 [s1 + 0x1e0]\n  8832: jump @252 if t0 >=u a0\n      : @251 (gas: 4)\n  8835: a0 = u64 [s1 + 0x238]\n  8839: a1 = u64 [s1 + 0x1e0]\n  8843: u32 [a0] = a1\n  8845: fallthrough\n      : @252 (gas: 72)\n  8846: a0 = i32 [s1 + 0x1c8]\n  8850: a1 = u64 [s1 + 0x230]\n  8854: a3 = a1 + a0\n  8857: a1 = u64 [s1 + 0x1a0]\n  8861: u8 [a3 + 0x10] = a1\n  8864: a2 = u64 [s1 + 0x190]\n  8868: a0 = a2 >> 0x38\n  8871: u8 [a3 + 0xf] = a0\n  8874: a0 = a2 >> 0x30\n  8877: u8 [a3 + 0xe] = a0\n  8880: a0 = a2 >> 0x28\n  8883: u8 [a3 + 0xd] = a0\n  8886: a0 = a2 >> 0x20\n  8889: u8 [a3 + 0xc] = a0\n  8892: a0 = a2 >> 0x18\n  8895: u8 [a3 + 0xb] = a0\n  8898: a0 = a2 >> 0x10\n  8901: u8 [a3 + 0xa] = a0\n  8904: a0 = a2 >> 0x8\n  8907: u8 [a3 + 0x9] = a0\n  8910: u8 [a3 + 0x8] = a2\n  8913: a2 = u64 [s1 + 0x198]\n  8917: a0 = a2 >> 0x38\n  8920: u8 [a3 + 0x7] = a0\n  8923: a0 = a2 >> 0x30\n  8926: u8 [a3 + 0x6] = a0\n  8929: a0 = a2 >> 0x28\n  8932: u8 [a3 + 0x5] = a0\n  8935: a0 = a2 >> 0x20\n  8938: u8 [a3 + 0x4] = a0\n  8941: a0 = a2 >> 0x18\n  8944: u8 [a3 + 0x3] = a0\n  8947: a0 = a2 >> 0x10\n  8950: u8 [a3 + 0x2] = a0\n  8953: a0 = a2 >> 0x8\n  8956: u8 [a3 + 0x1] = a0\n  8959: u8 [a3] = a2\n  8961: a2 = u64 [s1 + 0x1a8]\n  8965: u8 [a3 + 0x18] = a2\n  8968: a0 = a1 >> 0x38\n  8971: u8 [a3 + 0x17] = a0\n  8974: a0 = a1 >> 0x30\n  8977: u8 [a3 + 0x16] = a0\n  8980: a0 = a1 >> 0x28\n  8983: u8 [a3 + 0x15] = a0\n  8986: a0 = a1 >> 0x20\n  8989: u8 [a3 + 0x14] = a0\n  8992: a0 = a1 >> 0x18\n  8995: u8 [a3 + 0x13] = a0\n  8998: a0 = a1 >> 0x10\n  9001: u8 [a3 + 0x12] = a0\n  9004: a0 = a1 >> 0x8\n  9007: u8 [a3 + 0x11] = a0\n  9010: a0 = a2 >> 0x38\n  9013: u8 [a3 + 0x1f] = a0\n  9016: a0 = a2 >> 0x30\n  9019: u8 [a3 + 0x1e] = a0\n  9022: a0 = a2 >> 0x28\n  9025: u8 [a3 + 0x1d] = a0\n  9028: a0 = a2 >> 0x20\n  9031: u8 [a3 + 0x1c] = a0\n  9034: a0 = a2 >> 0x18\n  9037: u8 [a3 + 0x1b] = a0\n  9040: a1 = a2 >> 0x10\n  9043: a0 = u64 [s1 + 0x228]\n  9047: t0 = i32 [a0]\n  9049: u8 [a3 + 0x1a] = a1\n  9052: a1 = a2 >> 0x8\n  9055: u64 [s1 + 0x168] = a3\n  9059: u8 [a3 + 0x19] = a1\n  9062: a1 = u64 [s1 + 0x238]\n  9066: jump @254 if t0 >=u 164\n      : @253 (gas: 1)\n  9071: jump @732\n      : @254 (gas: 2)\n  9074: a1 = i32 [a1]\n  9076: jump @256 if a1 >u 95\n      : @255 (gas: 3)\n  9080: a2 = u64 [s1 + 0x238]\n  9084: u32 [a2 + 0] = 0x60\n  9087: fallthrough\n      : @256 (gas: 30)\n  9088: t1 = u64 [s1 + 0x230]\n  9092: a1 = u64 [t1 + 0x58]\n  9095: a2 = u64 [t1 + 0x50]\n  9098: a3 = u64 [t1 + 0x48]\n  9101: a4 = u64 [t1 + 0x40]\n  9104: u64 [s1 + 0x188] = a1\n  9108: a0 = reverse a1\n  9110: u64 [s1 + 0x180] = a2\n  9114: a2 = reverse a2\n  9116: u64 [s1 + 0x178] = a3\n  9120: a5 = reverse a3\n  9122: u64 [s1 + 0x170] = a4\n  9126: a4 = reverse a4\n  9128: a1 = a4 >u 0\n  9130: a3 = a5 >u 0\n  9132: a3 = a1 if a4 != 0\n  9135: u64 [s1 + 0x200] = a0\n  9139: a1 = a0 <u 0xffffffffffffffc0\n  9142: a1 = a1 ^ 0x1\n  9145: a0 = a2 >u 0\n  9147: u64 [s1 + 0x1d8] = a2\n  9151: u64 [s1 + 0x198] = a0\n  9155: a1 = a0 if a2 != 0\n  9158: u64 [s1 + 0x1d0] = a5\n  9162: u64 [s1 + 0x1a8] = a4\n  9166: a0 = a5 | a4\n  9169: u64 [s1 + 0x1a0] = a3\n  9173: u64 [s1 + 0x190] = a0\n  9177: a1 = a3 if a0 != 0\n  9180: jump @258 if a1 == 0\n      : @257 (gas: 1)\n  9183: jump @745\n      : @258 (gas: 21)\n  9186: a0 = u64 [s1 + 0x200]\n  9190: a1 = a0 + 0x40\n  9193: a2 = a1 <u a0\n  9196: a0 = u64 [s1 + 0x1d8]\n  9200: a3 = a0 + a2\n  9203: a4 = a3 <u a0\n  9206: a4 = a2 if a2 == 0\n  9209: a0 = u64 [s1 + 0x1d0]\n  9213: a4 = a4 + a0\n  9216: a2 = a4 <u a0\n  9219: a0 = u64 [s1 + 0x1a8]\n  9223: a2 = a2 + a0\n  9226: a2 = reverse a2\n  9228: a4 = reverse a4\n  9230: a3 = reverse a3\n  9232: a1 = reverse a1\n  9234: u64 [t1 + 0x58] = a1\n  9237: u64 [t1 + 0x50] = a3\n  9240: u64 [t1 + 0x48] = a4\n  9243: u64 [t1 + 0x40] = a2\n  9246: jump @260 if t0 >=u 196\n      : @259 (gas: 1)\n  9251: jump @719\n      : @260 (gas: 5)\n  9254: a0 = s1 + 0x1000\n  9258: i32 a0 = a0 + 0xfffffffffffff960\n  9262: a1 = 0x84\n  9266: ecalli 2 // 'call_data_load'\n  9268: fallthrough\n      : @261 (gas: 12)\n  9269: a0 = u64 [s1 + 0x200]\n  9273: a2 = u64 [s1 + 0x1d0]\n  9277: a0 = a0 | a2\n  9280: a1 = u64 [s1 + 0x1d8]\n  9284: a3 = u64 [s1 + 0x1a8]\n  9288: a1 = a1 | a3\n  9291: a0 = a0 | a1\n  9294: a0 = a0 >> 0x20\n  9297: a1 = a1 | a2\n  9300: a1 = a1 << 0x20\n  9303: a0 = a0 | a1\n  9306: jump @263 if a0 == 0\n      : @262 (gas: 1)\n  9309: jump @660\n      : @263 (gas: 3)\n  9312: a0 = u64 [s1 + 0x200]\n  9316: i32 a0 = a0 >> 0x10\n  9319: jump @265 if a0 == 0\n      : @264 (gas: 1)\n  9322: jump @660\n      : @265 (gas: 5)\n  9325: a0 = u64 [s1 + 0x200]\n  9329: a0 = a0 + 0x3f\n  9332: a1 = u64 [s1 + 0x1f0]\n  9336: a0 = a0 & a1\n  9339: jump @267 if a0 <=u 65536\n      : @266 (gas: 1)\n  9345: jump @660\n      : @267 (gas: 11)\n  9348: a1 = s1 + 0x1000\n  9352: a1 = u64 [a1 + 0xfffffffffffff978]\n  9356: a2 = s1 + 0x1000\n  9360: a2 = u64 [a2 + 0xfffffffffffff970]\n  9364: a3 = s1 + 0x1000\n  9368: a3 = u64 [a3 + 0xfffffffffffff968]\n  9372: a4 = u64 [s1 + 0x238]\n  9376: a5 = i32 [a4]\n  9378: a4 = s1 + 0x1000\n  9382: a4 = u64 [a4 + 0xfffffffffffff960]\n  9386: jump @269 if a5 >=u a0\n      : @268 (gas: 3)\n  9389: a5 = u64 [s1 + 0x238]\n  9393: u32 [a5] = a0\n  9395: fallthrough\n      : @269 (gas: 72)\n  9396: a0 = i32 [s1 + 0x200]\n  9400: a5 = u64 [s1 + 0x230]\n  9404: a0 = a0 + a5\n  9407: a1 = reverse a1\n  9409: a2 = reverse a2\n  9411: a3 = reverse a3\n  9413: a4 = reverse a4\n  9415: a5 = a4 >> 0x38\n  9418: u8 [a0 + 0x1f] = a5\n  9421: a5 = a4 >> 0x30\n  9424: u8 [a0 + 0x1e] = a5\n  9427: a5 = a4 >> 0x28\n  9430: u8 [a0 + 0x1d] = a5\n  9433: a5 = a4 >> 0x20\n  9436: u8 [a0 + 0x1c] = a5\n  9439: a5 = a4 >> 0x18\n  9442: u8 [a0 + 0x1b] = a5\n  9445: a5 = a4 >> 0x10\n  9448: u8 [a0 + 0x1a] = a5\n  9451: a5 = a4 >> 0x8\n  9454: u8 [a0 + 0x19] = a5\n  9457: u8 [a0 + 0x18] = a4\n  9460: u8 [a0 + 0x10] = a3\n  9463: a4 = a3 >> 0x38\n  9466: u8 [a0 + 0x17] = a4\n  9469: a4 = a3 >> 0x30\n  9472: u8 [a0 + 0x16] = a4\n  9475: a4 = a3 >> 0x28\n  9478: u8 [a0 + 0x15] = a4\n  9481: a4 = a3 >> 0x20\n  9484: u8 [a0 + 0x14] = a4\n  9487: a4 = a3 >> 0x18\n  9490: u8 [a0 + 0x13] = a4\n  9493: a4 = a3 >> 0x10\n  9496: u8 [a0 + 0x12] = a4\n  9499: a3 = a3 >> 0x8\n  9502: u8 [a0 + 0x11] = a3\n  9505: u8 [a0 + 0x8] = a2\n  9508: a3 = a2 >> 0x38\n  9511: u8 [a0 + 0xf] = a3\n  9514: a3 = a2 >> 0x30\n  9517: u8 [a0 + 0xe] = a3\n  9520: a3 = a2 >> 0x28\n  9523: u8 [a0 + 0xd] = a3\n  9526: a3 = a2 >> 0x20\n  9529: u8 [a0 + 0xc] = a3\n  9532: a3 = a2 >> 0x18\n  9535: u8 [a0 + 0xb] = a3\n  9538: a3 = a2 >> 0x10\n  9541: u8 [a0 + 0xa] = a3\n  9544: a2 = a2 >> 0x8\n  9547: u8 [a0 + 0x9] = a2\n  9550: u8 [a0] = a1\n  9552: a2 = a1 >> 0x38\n  9555: u8 [a0 + 0x7] = a2\n  9558: a2 = a1 >> 0x30\n  9561: u8 [a0 + 0x6] = a2\n  9564: a2 = a1 >> 0x28\n  9567: u8 [a0 + 0x5] = a2\n  9570: a2 = a1 >> 0x20\n  9573: u8 [a0 + 0x4] = a2\n  9576: a2 = a1 >> 0x18\n  9579: u8 [a0 + 0x3] = a2\n  9582: a2 = a1 >> 0x10\n  9585: u8 [a0 + 0x2] = a2\n  9588: a1 = a1 >> 0x8\n  9591: u8 [a0 + 0x1] = a1\n  9594: a0 = s1 + 0x1000\n  9598: i32 a0 = a0 + 0xfffffffffffff960\n  9602: a1 = 0xa4\n  9606: ecalli 2 // 'call_data_load'\n  9608: fallthrough\n      : @270 (gas: 10)\n  9609: a0 = 0xffffffdf\n  9619: a1 = u64 [s1 + 0x200]\n  9623: a0 = a0 <u a1\n  9626: a1 = u64 [s1 + 0x1d8]\n  9630: a2 = u64 [s1 + 0x198]\n  9634: a0 = a2 if a1 != 0\n  9637: a1 = u64 [s1 + 0x1a0]\n  9641: a2 = u64 [s1 + 0x190]\n  9645: a0 = a1 if a2 != 0\n  9648: jump @272 if a0 == 0\n      : @271 (gas: 1)\n  9651: jump @660\n      : @272 (gas: 3)\n  9654: a0 = u64 [s1 + 0x200]\n  9658: i32 a0 = a0 >> 0x5\n  9661: jump @274 if a0 <=u 2046\n      : @273 (gas: 1)\n  9666: jump @660\n      : @274 (gas: 5)\n  9669: a0 = u64 [s1 + 0x200]\n  9673: a0 = a0 + 0x5f\n  9676: a1 = u64 [s1 + 0x1f0]\n  9680: a0 = a0 & a1\n  9683: jump @276 if a0 <=u 65536\n      : @275 (gas: 1)\n  9689: jump @660\n      : @276 (gas: 14)\n  9692: a1 = s1 + 0x1000\n  9696: t1 = u64 [a1 + 0xfffffffffffff978]\n  9700: a1 = s1 + 0x1000\n  9704: t2 = u64 [a1 + 0xfffffffffffff970]\n  9708: a1 = s1 + 0x1000\n  9712: ra = u64 [a1 + 0xfffffffffffff968]\n  9716: a1 = u64 [s1 + 0x238]\n  9720: a1 = i32 [a1]\n  9722: a2 = s1 + 0x1000\n  9726: a4 = u64 [a2 + 0xfffffffffffff960]\n  9730: a2 = u64 [s1 + 0x200]\n  9734: i32 a5 = a2 + 0x20\n  9737: u64 [s1 + 0x200] = a1\n  9741: jump @278 if a1 >=u a0\n      : @277 (gas: 4)\n  9744: a1 = u64 [s1 + 0x238]\n  9748: u32 [a1] = a0\n  9750: u64 [s1 + 0x200] = a0\n  9754: fallthrough\n      : @278 (gas: 80)\n  9755: a0 = 0xffffffdf\n  9765: a1 = u64 [s1 + 0x1c8]\n  9769: a1 = a0 <u a1\n  9772: a2 = u64 [s1 + 0x1b0]\n  9776: a0 = a2 >u 0\n  9778: a0 = a1 if a2 == 0\n  9781: a3 = u64 [s1 + 0x1c0]\n  9785: t0 = a3 >u 0\n  9787: a1 = u64 [s1 + 0x1b8]\n  9791: a2 = a1 >u 0\n  9793: a2 = t0 if a1 == 0\n  9796: a1 = a1 | a3\n  9799: a0 = a2 if a1 != 0\n  9802: a1 = u64 [s1 + 0x230]\n  9806: a5 = a5 + a1\n  9809: a1 = reverse a4\n  9811: a2 = a1 >> 0x38\n  9814: u8 [a5 + 0x1f] = a2\n  9817: a2 = a1 >> 0x30\n  9820: u8 [a5 + 0x1e] = a2\n  9823: a2 = a1 >> 0x28\n  9826: u8 [a5 + 0x1d] = a2\n  9829: a2 = a1 >> 0x20\n  9832: u8 [a5 + 0x1c] = a2\n  9835: a2 = a1 >> 0x18\n  9838: u8 [a5 + 0x1b] = a2\n  9841: a2 = a1 >> 0x10\n  9844: u8 [a5 + 0x1a] = a2\n  9847: a2 = reverse ra\n  9849: u8 [a5 + 0x18] = a1\n  9852: a1 = a1 >> 0x8\n  9855: u8 [a5 + 0x19] = a1\n  9858: a1 = a2 >> 0x38\n  9861: u8 [a5 + 0x17] = a1\n  9864: a1 = a2 >> 0x30\n  9867: u8 [a5 + 0x16] = a1\n  9870: a1 = a2 >> 0x28\n  9873: u8 [a5 + 0x15] = a1\n  9876: a1 = a2 >> 0x20\n  9879: u8 [a5 + 0x14] = a1\n  9882: a1 = a2 >> 0x18\n  9885: u8 [a5 + 0x13] = a1\n  9888: a1 = a2 >> 0x10\n  9891: u8 [a5 + 0x12] = a1\n  9894: a1 = reverse t2\n  9896: u8 [a5 + 0x10] = a2\n  9899: a2 = a2 >> 0x8\n  9902: u8 [a5 + 0x11] = a2\n  9905: a2 = a1 >> 0x38\n  9908: u8 [a5 + 0xf] = a2\n  9911: a2 = a1 >> 0x30\n  9914: u8 [a5 + 0xe] = a2\n  9917: a2 = a1 >> 0x28\n  9920: u8 [a5 + 0xd] = a2\n  9923: a2 = a1 >> 0x20\n  9926: u8 [a5 + 0xc] = a2\n  9929: a2 = a1 >> 0x18\n  9932: u8 [a5 + 0xb] = a2\n  9935: a2 = a1 >> 0x10\n  9938: u8 [a5 + 0xa] = a2\n  9941: a2 = reverse t1\n  9943: u8 [a5 + 0x8] = a1\n  9946: a1 = a1 >> 0x8\n  9949: u8 [a5 + 0x9] = a1\n  9952: a1 = a2 >> 0x38\n  9955: u8 [a5 + 0x7] = a1\n  9958: a1 = a2 >> 0x30\n  9961: u8 [a5 + 0x6] = a1\n  9964: a1 = a2 >> 0x28\n  9967: u8 [a5 + 0x5] = a1\n  9970: a1 = a2 >> 0x20\n  9973: u8 [a5 + 0x4] = a1\n  9976: a1 = a2 >> 0x18\n  9979: u8 [a5 + 0x3] = a1\n  9982: a1 = a2 >> 0x10\n  9985: u8 [a5 + 0x2] = a1\n  9988: u8 [a5] = a2\n  9990: a2 = a2 >> 0x8\n  9993: u8 [a5 + 0x1] = a2\n  9996: jump @280 if a0 == 0\n      : @279 (gas: 1)\n  9999: jump @660\n      : @280 (gas: 4)\n 10002: a0 = u64 [s1 + 0x1c8]\n 10006: i32 a0 = a0 + 0x20\n 10009: i32 a1 = a0 >> 0x10\n 10012: jump @282 if a1 == 0\n      : @281 (gas: 1)\n 10015: jump @660\n      : @282 (gas: 6)\n 10018: a1 = u64 [s1 + 0x1c8]\n 10022: a2 = a1 + 0x5f\n 10025: a1 = u64 [s1 + 0x1f0]\n 10029: u64 [s1 + 0x1b8] = a2\n 10033: a1 = a1 & a2\n 10036: jump @284 if a1 <=u 65536\n      : @283 (gas: 1)\n 10042: jump @660\n      : @284 (gas: 2)\n 10045: a2 = u64 [s1 + 0x200]\n 10049: jump @286 if a2 >=u a1\n      : @285 (gas: 4)\n 10052: a2 = u64 [s1 + 0x238]\n 10056: u32 [a2] = a1\n 10058: u64 [s1 + 0x200] = a1\n 10062: fallthrough\n      : @286 (gas: 70)\n 10063: a1 = u64 [s1 + 0x230]\n 10067: a3 = a1 + a0\n 10070: a2 = u64 [s1 + 0x178]\n 10074: u8 [a3 + 0x8] = a2\n 10077: a1 = u64 [s1 + 0x170]\n 10081: a0 = a1 >> 0x38\n 10084: u8 [a3 + 0x7] = a0\n 10087: a0 = a1 >> 0x30\n 10090: u8 [a3 + 0x6] = a0\n 10093: a0 = a1 >> 0x28\n 10096: u8 [a3 + 0x5] = a0\n 10099: a0 = a1 >> 0x20\n 10102: u8 [a3 + 0x4] = a0\n 10105: a0 = a1 >> 0x18\n 10108: u8 [a3 + 0x3] = a0\n 10111: a0 = a1 >> 0x10\n 10114: u8 [a3 + 0x2] = a0\n 10117: a0 = a1 >> 0x8\n 10120: u8 [a3 + 0x1] = a0\n 10123: u8 [a3] = a1\n 10125: a1 = u64 [s1 + 0x180]\n 10129: u8 [a3 + 0x10] = a1\n 10132: a0 = a2 >> 0x38\n 10135: u8 [a3 + 0xf] = a0\n 10138: a0 = a2 >> 0x30\n 10141: u8 [a3 + 0xe] = a0\n 10144: a0 = a2 >> 0x28\n 10147: u8 [a3 + 0xd] = a0\n 10150: a0 = a2 >> 0x20\n 10153: u8 [a3 + 0xc] = a0\n 10156: a0 = a2 >> 0x18\n 10159: u8 [a3 + 0xb] = a0\n 10162: a0 = a2 >> 0x10\n 10165: u8 [a3 + 0xa] = a0\n 10168: a0 = a2 >> 0x8\n 10171: u8 [a3 + 0x9] = a0\n 10174: a2 = u64 [s1 + 0x188]\n 10178: u8 [a3 + 0x18] = a2\n 10181: a0 = a1 >> 0x38\n 10184: u8 [a3 + 0x17] = a0\n 10187: a0 = a1 >> 0x30\n 10190: u8 [a3 + 0x16] = a0\n 10193: a0 = a1 >> 0x28\n 10196: u8 [a3 + 0x15] = a0\n 10199: a0 = a1 >> 0x20\n 10202: u8 [a3 + 0x14] = a0\n 10205: a0 = a1 >> 0x18\n 10208: u8 [a3 + 0x13] = a0\n 10211: a0 = a1 >> 0x10\n 10214: u8 [a3 + 0x12] = a0\n 10217: a0 = a1 >> 0x8\n 10220: u8 [a3 + 0x11] = a0\n 10223: a0 = a2 >> 0x38\n 10226: u8 [a3 + 0x1f] = a0\n 10229: a0 = a2 >> 0x30\n 10232: u8 [a3 + 0x1e] = a0\n 10235: a0 = a2 >> 0x28\n 10238: u8 [a3 + 0x1d] = a0\n 10241: a0 = a2 >> 0x20\n 10244: u8 [a3 + 0x1c] = a0\n 10247: a0 = a2 >> 0x18\n 10250: u8 [a3 + 0x1b] = a0\n 10253: a0 = a2 >> 0x10\n 10256: a1 = u64 [s1 + 0x228]\n 10260: a1 = i32 [a1]\n 10262: u8 [a3 + 0x1a] = a0\n 10265: a0 = a2 >> 0x8\n 10268: u64 [s1 + 0x1b0] = a3\n 10272: u8 [a3 + 0x19] = a0\n 10275: jump @288 if a1 >u 227\n      : @287 (gas: 1)\n 10280: jump @732\n      : @288 (gas: 2)\n 10283: a1 = u64 [s1 + 0x200]\n 10287: jump @290 if a1 >u 95\n      : @289 (gas: 3)\n 10291: a1 = u64 [s1 + 0x238]\n 10295: u32 [a1 + 0] = 0x60\n 10298: fallthrough\n      : @290 (gas: 24)\n 10299: a3 = u64 [s1 + 0x230]\n 10303: a0 = u64 [a3 + 0x58]\n 10306: a1 = u64 [a3 + 0x50]\n 10309: a2 = u64 [a3 + 0x48]\n 10312: a3 = u64 [a3 + 0x40]\n 10315: a4 = reverse a0\n 10317: a1 = reverse a1\n 10319: a2 = reverse a2\n 10321: a3 = reverse a3\n 10323: u64 [s1 + 1528] = 0\n 10327: u64 [s1 + 1520] = 0\n 10331: u64 [s1 + 1512] = 0\n 10335: u64 [s1 + 1504] = 0x40\n 10340: u64 [s1 + 0x1c0] = a3\n 10344: u64 [s1 + 0x618] = a3\n 10348: u64 [s1 + 0x1d0] = a2\n 10352: u64 [s1 + 0x610] = a2\n 10356: u64 [s1 + 0x1d8] = a1\n 10360: u64 [s1 + 0x608] = a1\n 10364: a0 = s1 + 0x600\n 10368: a1 = s1 + 0x5e0\n 10372: u64 [s1 + 0x200] = a4\n 10376: u64 [s1 + 0x600] = a4\n 10380: ra = 22, jump @1071\n      : @291 [@dyn 11] (gas: 3)\n 10385: a0 = u64 [s1 + 0x228]\n 10389: a0 = i32 [a0]\n 10391: jump @293 if a0 >=u 260\n      : @292 (gas: 1)\n 10396: jump @719\n      : @293 (gas: 5)\n 10399: a0 = s1 + 0x1000\n 10403: i32 a0 = a0 + 0xfffffffffffff980\n 10407: a1 = 0xc4\n 10411: ecalli 2 // 'call_data_load'\n 10413: fallthrough\n      : @294 (gas: 12)\n 10414: a0 = u64 [s1 + 0x200]\n 10418: a2 = u64 [s1 + 0x1d0]\n 10422: a0 = a0 | a2\n 10425: a1 = u64 [s1 + 0x1d8]\n 10429: a3 = u64 [s1 + 0x1c0]\n 10433: a1 = a1 | a3\n 10436: a0 = a0 | a1\n 10439: a0 = a0 >> 0x20\n 10442: a1 = a1 | a2\n 10445: a1 = a1 << 0x20\n 10448: a0 = a0 | a1\n 10451: jump @296 if a0 == 0\n      : @295 (gas: 1)\n 10454: jump @660\n      : @296 (gas: 3)\n 10457: a0 = u64 [s1 + 0x200]\n 10461: i32 a0 = a0 >> 0x10\n 10464: jump @298 if a0 == 0\n      : @297 (gas: 1)\n 10467: jump @660\n      : @298 (gas: 5)\n 10470: a0 = u64 [s1 + 0x200]\n 10474: a0 = a0 + 0x3f\n 10477: a1 = u64 [s1 + 0x1f0]\n 10481: a0 = a0 & a1\n 10484: jump @300 if a0 <=u 65536\n      : @299 (gas: 1)\n 10490: jump @660\n      : @300 (gas: 11)\n 10493: a1 = s1 + 0x1000\n 10497: a1 = u64 [a1 + 0xfffffffffffff998]\n 10501: a2 = s1 + 0x1000\n 10505: a2 = u64 [a2 + 0xfffffffffffff990]\n 10509: a3 = s1 + 0x1000\n 10513: a3 = u64 [a3 + 0xfffffffffffff988]\n 10517: a4 = u64 [s1 + 0x238]\n 10521: a5 = i32 [a4]\n 10523: a4 = s1 + 0x1000\n 10527: a4 = u64 [a4 + 0xfffffffffffff980]\n 10531: jump @302 if a5 >=u a0\n      : @301 (gas: 3)\n 10534: a5 = u64 [s1 + 0x238]\n 10538: u32 [a5] = a0\n 10540: fallthrough\n      : @302 (gas: 72)\n 10541: a0 = i32 [s1 + 0x200]\n 10545: a5 = u64 [s1 + 0x230]\n 10549: a0 = a0 + a5\n 10552: a1 = reverse a1\n 10554: a2 = reverse a2\n 10556: a3 = reverse a3\n 10558: a4 = reverse a4\n 10560: a5 = a4 >> 0x38\n 10563: u8 [a0 + 0x1f] = a5\n 10566: a5 = a4 >> 0x30\n 10569: u8 [a0 + 0x1e] = a5\n 10572: a5 = a4 >> 0x28\n 10575: u8 [a0 + 0x1d] = a5\n 10578: a5 = a4 >> 0x20\n 10581: u8 [a0 + 0x1c] = a5\n 10584: a5 = a4 >> 0x18\n 10587: u8 [a0 + 0x1b] = a5\n 10590: a5 = a4 >> 0x10\n 10593: u8 [a0 + 0x1a] = a5\n 10596: a5 = a4 >> 0x8\n 10599: u8 [a0 + 0x19] = a5\n 10602: u8 [a0 + 0x18] = a4\n 10605: u8 [a0 + 0x10] = a3\n 10608: a4 = a3 >> 0x38\n 10611: u8 [a0 + 0x17] = a4\n 10614: a4 = a3 >> 0x30\n 10617: u8 [a0 + 0x16] = a4\n 10620: a4 = a3 >> 0x28\n 10623: u8 [a0 + 0x15] = a4\n 10626: a4 = a3 >> 0x20\n 10629: u8 [a0 + 0x14] = a4\n 10632: a4 = a3 >> 0x18\n 10635: u8 [a0 + 0x13] = a4\n 10638: a4 = a3 >> 0x10\n 10641: u8 [a0 + 0x12] = a4\n 10644: a3 = a3 >> 0x8\n 10647: u8 [a0 + 0x11] = a3\n 10650: u8 [a0 + 0x8] = a2\n 10653: a3 = a2 >> 0x38\n 10656: u8 [a0 + 0xf] = a3\n 10659: a3 = a2 >> 0x30\n 10662: u8 [a0 + 0xe] = a3\n 10665: a3 = a2 >> 0x28\n 10668: u8 [a0 + 0xd] = a3\n 10671: a3 = a2 >> 0x20\n 10674: u8 [a0 + 0xc] = a3\n 10677: a3 = a2 >> 0x18\n 10680: u8 [a0 + 0xb] = a3\n 10683: a3 = a2 >> 0x10\n 10686: u8 [a0 + 0xa] = a3\n 10689: a2 = a2 >> 0x8\n 10692: u8 [a0 + 0x9] = a2\n 10695: u8 [a0] = a1\n 10697: a2 = a1 >> 0x38\n 10700: u8 [a0 + 0x7] = a2\n 10703: a2 = a1 >> 0x30\n 10706: u8 [a0 + 0x6] = a2\n 10709: a2 = a1 >> 0x28\n 10712: u8 [a0 + 0x5] = a2\n 10715: a2 = a1 >> 0x20\n 10718: u8 [a0 + 0x4] = a2\n 10721: a2 = a1 >> 0x18\n 10724: u8 [a0 + 0x3] = a2\n 10727: a2 = a1 >> 0x10\n 10730: u8 [a0 + 0x2] = a2\n 10733: a1 = a1 >> 0x8\n 10736: u8 [a0 + 0x1] = a1\n 10739: a0 = s1 + 0x1000\n 10743: i32 a0 = a0 + 0xfffffffffffff980\n 10747: a1 = 0xe4\n 10751: ecalli 2 // 'call_data_load'\n 10753: fallthrough\n      : @303 (gas: 14)\n 10754: a4 = u64 [s1 + 0x1d0]\n 10758: a0 = a4 >u 0\n 10760: a5 = u64 [s1 + 0x1c0]\n 10764: a1 = a5 >u 0\n 10766: a1 = a0 if a5 == 0\n 10769: a0 = 0xffffffdf\n 10779: a2 = u64 [s1 + 0x200]\n 10783: a0 = a0 <u a2\n 10786: a3 = u64 [s1 + 0x1d8]\n 10790: a2 = a3 >u 0\n 10792: a2 = a0 if a3 == 0\n 10795: a0 = a4 | a5\n 10798: a2 = a1 if a0 != 0\n 10801: jump @305 if a2 == 0\n      : @304 (gas: 1)\n 10804: jump @660\n      : @305 (gas: 3)\n 10807: a0 = u64 [s1 + 0x200]\n 10811: i32 a0 = a0 >> 0x5\n 10814: jump @307 if a0 <=u 2046\n      : @306 (gas: 1)\n 10819: jump @660\n      : @307 (gas: 5)\n 10822: a0 = u64 [s1 + 0x200]\n 10826: a0 = a0 + 0x5f\n 10829: a1 = u64 [s1 + 0x1f0]\n 10833: a1 = a1 & a0\n 10836: jump @309 if a1 <=u 65536\n      : @308 (gas: 1)\n 10842: jump @660\n      : @309 (gas: 13)\n 10845: a0 = s1 + 0x1000\n 10849: t1 = u64 [a0 + 0xfffffffffffff998]\n 10853: a0 = s1 + 0x1000\n 10857: a3 = u64 [a0 + 0xfffffffffffff990]\n 10861: a0 = s1 + 0x1000\n 10865: a4 = u64 [a0 + 0xfffffffffffff988]\n 10869: a0 = u64 [s1 + 0x238]\n 10873: t0 = i32 [a0]\n 10875: a0 = s1 + 0x1000\n 10879: a5 = u64 [a0 + 0xfffffffffffff980]\n 10883: a0 = u64 [s1 + 0x200]\n 10887: i32 a0 = a0 + 0x20\n 10890: jump @311 if t0 >=u a1\n      : @310 (gas: 4)\n 10893: a2 = u64 [s1 + 0x238]\n 10897: u32 [a2] = a1\n 10899: t0 = a1\n 10901: fallthrough\n      : @311 (gas: 69)\n 10902: a1 = u64 [s1 + 0x230]\n 10906: a1 = a1 + a0\n 10909: a2 = reverse t1\n 10911: a3 = reverse a3\n 10913: a4 = reverse a4\n 10915: a0 = reverse a5\n 10917: u8 [a1 + 0x18] = a0\n 10920: a5 = a0 >> 0x38\n 10923: u8 [a1 + 0x1f] = a5\n 10926: a5 = a0 >> 0x30\n 10929: u8 [a1 + 0x1e] = a5\n 10932: a5 = a0 >> 0x28\n 10935: u8 [a1 + 0x1d] = a5\n 10938: a5 = a0 >> 0x20\n 10941: u8 [a1 + 0x1c] = a5\n 10944: a5 = a0 >> 0x18\n 10947: u8 [a1 + 0x1b] = a5\n 10950: a5 = a0 >> 0x10\n 10953: u8 [a1 + 0x1a] = a5\n 10956: a0 = a0 >> 0x8\n 10959: u8 [a1 + 0x19] = a0\n 10962: u8 [a1 + 0x10] = a4\n 10965: a0 = a4 >> 0x38\n 10968: u8 [a1 + 0x17] = a0\n 10971: a0 = a4 >> 0x30\n 10974: u8 [a1 + 0x16] = a0\n 10977: a0 = a4 >> 0x28\n 10980: u8 [a1 + 0x15] = a0\n 10983: a0 = a4 >> 0x20\n 10986: u8 [a1 + 0x14] = a0\n 10989: a0 = a4 >> 0x18\n 10992: u8 [a1 + 0x13] = a0\n 10995: a0 = a4 >> 0x10\n 10998: u8 [a1 + 0x12] = a0\n 11001: a4 = a4 >> 0x8\n 11004: u8 [a1 + 0x11] = a4\n 11007: u8 [a1 + 0x8] = a3\n 11010: a0 = a3 >> 0x38\n 11013: u8 [a1 + 0xf] = a0\n 11016: a0 = a3 >> 0x30\n 11019: u8 [a1 + 0xe] = a0\n 11022: a0 = a3 >> 0x28\n 11025: u8 [a1 + 0xd] = a0\n 11028: a0 = a3 >> 0x20\n 11031: u8 [a1 + 0xc] = a0\n 11034: a0 = a3 >> 0x18\n 11037: u8 [a1 + 0xb] = a0\n 11040: a0 = a3 >> 0x10\n 11043: u8 [a1 + 0xa] = a0\n 11046: a3 = a3 >> 0x8\n 11049: u8 [a1 + 0x9] = a3\n 11052: u8 [a1] = a2\n 11054: a0 = a2 >> 0x38\n 11057: u8 [a1 + 0x7] = a0\n 11060: a0 = a2 >> 0x30\n 11063: u8 [a1 + 0x6] = a0\n 11066: a0 = a2 >> 0x28\n 11069: u8 [a1 + 0x5] = a0\n 11072: a0 = a2 >> 0x20\n 11075: u8 [a1 + 0x4] = a0\n 11078: a0 = a2 >> 0x18\n 11081: u8 [a1 + 0x3] = a0\n 11084: a0 = a2 >> 0x10\n 11087: a3 = u64 [s1 + 0x228]\n 11091: a3 = i32 [a3]\n 11093: u8 [a1 + 0x2] = a0\n 11096: a2 = a2 >> 0x8\n 11099: u8 [a1 + 0x1] = a2\n 11102: jump @313 if a3 >u 291\n      : @312 (gas: 1)\n 11107: jump @732\n      : @313 (gas: 1)\n 11110: jump @315 if t0 >u 95\n      : @314 (gas: 3)\n 11114: a1 = u64 [s1 + 0x238]\n 11118: u32 [a1 + 0] = 0x60\n 11121: fallthrough\n      : @315 (gas: 24)\n 11122: a3 = u64 [s1 + 0x230]\n 11126: a0 = u64 [a3 + 0x58]\n 11129: a1 = u64 [a3 + 0x50]\n 11132: a2 = u64 [a3 + 0x48]\n 11135: a3 = u64 [a3 + 0x40]\n 11138: a4 = reverse a0\n 11140: a1 = reverse a1\n 11142: a2 = reverse a2\n 11144: a3 = reverse a3\n 11146: u64 [s1 + 1464] = 0\n 11150: u64 [s1 + 1456] = 0\n 11154: u64 [s1 + 1448] = 0\n 11158: u64 [s1 + 1440] = 0x40\n 11163: u64 [s1 + 0x190] = a3\n 11167: u64 [s1 + 0x5d8] = a3\n 11171: u64 [s1 + 0x198] = a2\n 11175: u64 [s1 + 0x5d0] = a2\n 11179: u64 [s1 + 0x1a0] = a1\n 11183: u64 [s1 + 0x5c8] = a1\n 11187: a0 = s1 + 0x5c0\n 11191: a1 = s1 + 0x5a0\n 11195: u64 [s1 + 0x1a8] = a4\n 11199: u64 [s1 + 0x5c0] = a4\n 11203: ra = 24, jump @1071\n      : @316 [@dyn 12] (gas: 3)\n 11208: a0 = u64 [s1 + 0x228]\n 11212: a0 = i32 [a0]\n 11214: jump @318 if a0 >=u 324\n      : @317 (gas: 1)\n 11219: jump @719\n      : @318 (gas: 5)\n 11222: a0 = s1 + 0x1000\n 11226: i32 a0 = a0 + 0xfffffffffffff9a0\n 11230: a1 = 0x104\n 11234: ecalli 2 // 'call_data_load'\n 11236: fallthrough\n      : @319 (gas: 12)\n 11237: a0 = u64 [s1 + 0x1a8]\n 11241: a2 = u64 [s1 + 0x198]\n 11245: a0 = a0 | a2\n 11248: a1 = u64 [s1 + 0x1a0]\n 11252: a3 = u64 [s1 + 0x190]\n 11256: a1 = a1 | a3\n 11259: a0 = a0 | a1\n 11262: a0 = a0 >> 0x20\n 11265: a1 = a1 | a2\n 11268: a1 = a1 << 0x20\n 11271: a0 = a0 | a1\n 11274: jump @321 if a0 == 0\n      : @320 (gas: 1)\n 11277: jump @660\n      : @321 (gas: 3)\n 11280: a0 = u64 [s1 + 0x1a8]\n 11284: i32 a0 = a0 >> 0x10\n 11287: jump @323 if a0 == 0\n      : @322 (gas: 1)\n 11290: jump @660\n      : @323 (gas: 6)\n 11293: a0 = u64 [s1 + 0x1a8]\n 11297: a0 = a0 + 0x3f\n 11300: a1 = u64 [s1 + 0x1f0]\n 11304: a1 = a1 & a0\n 11307: u64 [s1 + 0x228] = a1\n 11311: jump @325 if a1 <=u 65536\n      : @324 (gas: 1)\n 11317: jump @660\n      : @325 (gas: 12)\n 11320: a1 = s1 + 0x7ff\n 11324: a1 = a1 + 0x1b9\n 11328: a0 = u64 [a1]\n 11330: a1 = u64 [a1 + 0xfffffffffffffff8]\n 11333: a2 = s1 + 0x1000\n 11337: a2 = u64 [a2 + 0xfffffffffffff9a8]\n 11341: a3 = u64 [s1 + 0x238]\n 11345: a4 = i32 [a3]\n 11347: a3 = s1 + 0x1000\n 11351: a3 = u64 [a3 + 0xfffffffffffff9a0]\n 11355: a5 = u64 [s1 + 0x228]\n 11359: jump @327 if a4 >=u a5\n      : @326 (gas: 4)\n 11362: a4 = u64 [s1 + 0x238]\n 11366: a5 = u64 [s1 + 0x228]\n 11370: u32 [a4] = a5\n 11372: fallthrough\n      : @327 (gas: 73)\n 11373: a4 = i32 [s1 + 0x1a8]\n 11377: a5 = u64 [s1 + 0x230]\n 11381: a5 = a5 + a4\n 11384: a0 = reverse a0\n 11386: a1 = reverse a1\n 11388: a2 = reverse a2\n 11390: a3 = reverse a3\n 11392: a4 = a3 >> 0x38\n 11395: u8 [a5 + 0x1f] = a4\n 11398: a4 = a3 >> 0x30\n 11401: u8 [a5 + 0x1e] = a4\n 11404: a4 = a3 >> 0x28\n 11407: u8 [a5 + 0x1d] = a4\n 11410: a4 = a3 >> 0x20\n 11413: u8 [a5 + 0x1c] = a4\n 11416: a4 = a3 >> 0x18\n 11419: u8 [a5 + 0x1b] = a4\n 11422: a4 = a3 >> 0x10\n 11425: u8 [a5 + 0x1a] = a4\n 11428: a4 = a3 >> 0x8\n 11431: u8 [a5 + 0x19] = a4\n 11434: u8 [a5 + 0x18] = a3\n 11437: u8 [a5 + 0x10] = a2\n 11440: a3 = a2 >> 0x38\n 11443: u8 [a5 + 0x17] = a3\n 11446: a3 = a2 >> 0x30\n 11449: u8 [a5 + 0x16] = a3\n 11452: a3 = a2 >> 0x28\n 11455: u8 [a5 + 0x15] = a3\n 11458: a3 = a2 >> 0x20\n 11461: u8 [a5 + 0x14] = a3\n 11464: a3 = a2 >> 0x18\n 11467: u8 [a5 + 0x13] = a3\n 11470: a3 = a2 >> 0x10\n 11473: u8 [a5 + 0x12] = a3\n 11476: a2 = a2 >> 0x8\n 11479: u8 [a5 + 0x11] = a2\n 11482: u8 [a5 + 0x8] = a1\n 11485: a2 = a1 >> 0x38\n 11488: u8 [a5 + 0xf] = a2\n 11491: a2 = a1 >> 0x30\n 11494: u8 [a5 + 0xe] = a2\n 11497: a2 = a1 >> 0x28\n 11500: u8 [a5 + 0xd] = a2\n 11503: a2 = a1 >> 0x20\n 11506: u8 [a5 + 0xc] = a2\n 11509: a2 = a1 >> 0x18\n 11512: u8 [a5 + 0xb] = a2\n 11515: a2 = a1 >> 0x10\n 11518: u8 [a5 + 0xa] = a2\n 11521: a1 = a1 >> 0x8\n 11524: u8 [a5 + 0x9] = a1\n 11527: u8 [a5] = a0\n 11529: a1 = a0 >> 0x38\n 11532: u8 [a5 + 0x7] = a1\n 11535: a1 = a0 >> 0x30\n 11538: u8 [a5 + 0x6] = a1\n 11541: a1 = a0 >> 0x28\n 11544: u8 [a5 + 0x5] = a1\n 11547: a1 = a0 >> 0x20\n 11550: u8 [a5 + 0x4] = a1\n 11553: a1 = a0 >> 0x18\n 11556: u8 [a5 + 0x3] = a1\n 11559: a1 = a0 >> 0x10\n 11562: u8 [a5 + 0x2] = a1\n 11565: a0 = a0 >> 0x8\n 11568: u64 [s1 + 0x188] = a5\n 11572: u8 [a5 + 0x1] = a0\n 11575: a0 = s1 + 0x1000\n 11579: i32 a0 = a0 + 0xfffffffffffff9a0\n 11583: a1 = 0x124\n 11587: ecalli 2 // 'call_data_load'\n 11589: fallthrough\n      : @328 (gas: 14)\n 11590: a4 = u64 [s1 + 0x198]\n 11594: a0 = a4 >u 0\n 11596: a5 = u64 [s1 + 0x190]\n 11600: a1 = a5 >u 0\n 11602: a1 = a0 if a5 == 0\n 11605: a0 = 0xffffffdf\n 11615: a2 = u64 [s1 + 0x1a8]\n 11619: a0 = a0 <u a2\n 11622: a3 = u64 [s1 + 0x1a0]\n 11626: a2 = a3 >u 0\n 11628: a2 = a0 if a3 == 0\n 11631: a0 = a4 | a5\n 11634: a2 = a1 if a0 != 0\n 11637: jump @330 if a2 == 0\n      : @329 (gas: 1)\n 11640: jump @660\n      : @330 (gas: 4)\n 11643: a0 = u64 [s1 + 0x1a8]\n 11647: i32 a1 = a0 >> 0x5\n 11650: u64 [s1 + 0x1a0] = a1\n 11654: jump @332 if a1 <=u 2046\n      : @331 (gas: 1)\n 11659: jump @660\n      : @332 (gas: 6)\n 11662: a0 = u64 [s1 + 0x1a8]\n 11666: a0 = a0 + 0x5f\n 11669: a1 = u64 [s1 + 0x1f0]\n 11673: a1 = a1 & a0\n 11676: u64 [s1 + 0x198] = a1\n 11680: jump @334 if a1 <=u 65536\n      : @333 (gas: 1)\n 11686: jump @660\n      : @334 (gas: 14)\n 11689: a1 = s1 + 0x7ff\n 11693: a1 = a1 + 0x1b9\n 11697: t0 = u64 [a1]\n 11699: a1 = u64 [a1 + 0xfffffffffffffff8]\n 11702: a0 = s1 + 0x1000\n 11706: a2 = u64 [a0 + 0xfffffffffffff9a8]\n 11710: a3 = u64 [s1 + 0x238]\n 11714: a5 = i32 [a3]\n 11716: a0 = s1 + 0x1000\n 11720: a3 = u64 [a0 + 0xfffffffffffff9a0]\n 11724: a4 = u64 [s1 + 0x1a8]\n 11728: i32 a4 = a4 + 0x20\n 11731: a0 = u64 [s1 + 0x198]\n 11735: jump @336 if a5 >=u a0\n      : @335 (gas: 4)\n 11738: a5 = u64 [s1 + 0x238]\n 11742: a0 = u64 [s1 + 0x198]\n 11746: u32 [a5] = a0\n 11748: fallthrough\n      : @336 (gas: 68)\n 11749: a5 = u64 [s1 + 0x230]\n 11753: a5 = a5 + a4\n 11756: a0 = reverse t0\n 11758: a1 = reverse a1\n 11760: a2 = reverse a2\n 11762: a3 = reverse a3\n 11764: u8 [a5 + 0x18] = a3\n 11767: a4 = a3 >> 0x38\n 11770: u8 [a5 + 0x1f] = a4\n 11773: a4 = a3 >> 0x30\n 11776: u8 [a5 + 0x1e] = a4\n 11779: a4 = a3 >> 0x28\n 11782: u8 [a5 + 0x1d] = a4\n 11785: a4 = a3 >> 0x20\n 11788: u8 [a5 + 0x1c] = a4\n 11791: a4 = a3 >> 0x18\n 11794: u8 [a5 + 0x1b] = a4\n 11797: a4 = a3 >> 0x10\n 11800: u8 [a5 + 0x1a] = a4\n 11803: a3 = a3 >> 0x8\n 11806: u8 [a5 + 0x19] = a3\n 11809: u8 [a5 + 0x10] = a2\n 11812: a3 = a2 >> 0x38\n 11815: u8 [a5 + 0x17] = a3\n 11818: a3 = a2 >> 0x30\n 11821: u8 [a5 + 0x16] = a3\n 11824: a3 = a2 >> 0x28\n 11827: u8 [a5 + 0x15] = a3\n 11830: a3 = a2 >> 0x20\n 11833: u8 [a5 + 0x14] = a3\n 11836: a3 = a2 >> 0x18\n 11839: u8 [a5 + 0x13] = a3\n 11842: a3 = a2 >> 0x10\n 11845: u8 [a5 + 0x12] = a3\n 11848: a2 = a2 >> 0x8\n 11851: u8 [a5 + 0x11] = a2\n 11854: u8 [a5 + 0x8] = a1\n 11857: a2 = a1 >> 0x38\n 11860: u8 [a5 + 0xf] = a2\n 11863: a2 = a1 >> 0x30\n 11866: u8 [a5 + 0xe] = a2\n 11869: a2 = a1 >> 0x28\n 11872: u8 [a5 + 0xd] = a2\n 11875: a2 = a1 >> 0x20\n 11878: u8 [a5 + 0xc] = a2\n 11881: a2 = a1 >> 0x18\n 11884: u8 [a5 + 0xb] = a2\n 11887: a2 = a1 >> 0x10\n 11890: u8 [a5 + 0xa] = a2\n 11893: a1 = a1 >> 0x8\n 11896: u8 [a5 + 0x9] = a1\n 11899: u8 [a5] = a0\n 11901: a1 = a0 >> 0x38\n 11904: u8 [a5 + 0x7] = a1\n 11907: a1 = a0 >> 0x30\n 11910: u8 [a5 + 0x6] = a1\n 11913: a1 = a0 >> 0x28\n 11916: u8 [a5 + 0x5] = a1\n 11919: a1 = a0 >> 0x20\n 11922: u8 [a5 + 0x4] = a1\n 11925: a1 = a0 >> 0x18\n 11928: u8 [a5 + 0x3] = a1\n 11931: a1 = a0 >> 0x10\n 11934: u8 [a5 + 0x2] = a1\n 11937: a0 = a0 >> 0x8\n 11940: u64 [s1 + 0x1a8] = a5\n 11944: u8 [a5 + 0x1] = a0\n 11947: ra = 26, jump @1131\n      : @337 [@dyn 13] (gas: 4)\n 11952: a0 = u64 [s1 + 0x238]\n 11956: ra = i32 [a0]\n 11958: a0 = u64 [s1 + 0x228]\n 11962: jump @339 if ra >=u a0\n      : @338 (gas: 4)\n 11965: a0 = u64 [s1 + 0x238]\n 11969: ra = u64 [s1 + 0x228]\n 11973: u32 [a0] = ra\n 11975: fallthrough\n      : @339 (gas: 2)\n 11976: a0 = u64 [s1 + 0x1a0]\n 11980: jump @341 if a0 <u 2047\n      : @340 (gas: 1)\n 11985: jump @660\n      : @341 (gas: 2)\n 11988: a0 = u64 [s1 + 0x198]\n 11992: jump @343 if a0 <=u 65536\n      : @342 (gas: 1)\n 11998: jump @660\n      : @343 (gas: 2)\n 12001: a0 = u64 [s1 + 0x198]\n 12005: jump @345 if ra >=u a0\n      : @344 (gas: 4)\n 12008: a0 = u64 [s1 + 0x238]\n 12012: ra = u64 [s1 + 0x198]\n 12016: u32 [a0] = ra\n 12018: fallthrough\n      : @345 (gas: 164)\n 12019: a0 = u64 [s1 + 0x1a8]\n 12023: a1 = u8 [a0 + 0x11]\n 12026: a2 = u8 [a0 + 0x10]\n 12029: a3 = u8 [a0 + 0x12]\n 12032: a4 = u8 [a0 + 0x13]\n 12035: a1 = a1 << 0x8\n 12038: a1 = a1 | a2\n 12041: a3 = a3 << 0x10\n 12044: a4 = a4 << 0x18\n 12047: a3 = a3 | a4\n 12050: a1 = a1 | a3\n 12053: a2 = u8 [a0 + 0x15]\n 12056: a3 = u8 [a0 + 0x14]\n 12059: a4 = u8 [a0 + 0x16]\n 12062: a5 = u8 [a0 + 0x17]\n 12065: a2 = a2 << 0x8\n 12068: a2 = a2 | a3\n 12071: a4 = a4 << 0x10\n 12074: a5 = a5 << 0x18\n 12077: a4 = a4 | a5\n 12080: a2 = a2 | a4\n 12083: a2 = a2 << 0x20\n 12086: t0 = a2 | a1\n 12089: a1 = u8 [a0 + 0x9]\n 12092: a2 = u8 [a0 + 0x8]\n 12095: a3 = u8 [a0 + 0xa]\n 12098: a4 = u8 [a0 + 0xb]\n 12101: a1 = a1 << 0x8\n 12104: a1 = a1 | a2\n 12107: a3 = a3 << 0x10\n 12110: a4 = a4 << 0x18\n 12113: a3 = a3 | a4\n 12116: a1 = a1 | a3\n 12119: a2 = u8 [a0 + 0xd]\n 12122: a3 = u8 [a0 + 0xc]\n 12125: a4 = u8 [a0 + 0xe]\n 12128: a5 = u8 [a0 + 0xf]\n 12131: a2 = a2 << 0x8\n 12134: a2 = a2 | a3\n 12137: a4 = a4 << 0x10\n 12140: a5 = a5 << 0x18\n 12143: a4 = a4 | a5\n 12146: a2 = a2 | a4\n 12149: a2 = a2 << 0x20\n 12152: t1 = a2 | a1\n 12155: a1 = u8 [a0 + 0x1]\n 12158: a2 = u8 [a0]\n 12160: a3 = u8 [a0 + 0x2]\n 12163: a4 = u8 [a0 + 0x3]\n 12166: a1 = a1 << 0x8\n 12169: a1 = a1 | a2\n 12172: a3 = a3 << 0x10\n 12175: a4 = a4 << 0x18\n 12178: a3 = a3 | a4\n 12181: a1 = a1 | a3\n 12184: a2 = u8 [a0 + 0x5]\n 12187: a3 = u8 [a0 + 0x4]\n 12190: a4 = u8 [a0 + 0x6]\n 12193: a5 = u8 [a0 + 0x7]\n 12196: a2 = a2 << 0x8\n 12199: a2 = a2 | a3\n 12202: a4 = a4 << 0x10\n 12205: a5 = a5 << 0x18\n 12208: a4 = a4 | a5\n 12211: a2 = a2 | a4\n 12214: a2 = a2 << 0x20\n 12217: t2 = a2 | a1\n 12220: a1 = u8 [a0 + 0x19]\n 12223: a2 = u8 [a0 + 0x18]\n 12226: a3 = u8 [a0 + 0x1a]\n 12229: a4 = u8 [a0 + 0x1b]\n 12232: a1 = a1 << 0x8\n 12235: a1 = a1 | a2\n 12238: a3 = a3 << 0x10\n 12241: a4 = a4 << 0x18\n 12244: a2 = u8 [a0 + 0x1d]\n 12247: a3 = a3 | a4\n 12250: a1 = a1 | a3\n 12253: a3 = u8 [a0 + 0x1c]\n 12256: a2 = a2 << 0x8\n 12259: a4 = u8 [a0 + 0x1e]\n 12262: a5 = u8 [a0 + 0x1f]\n 12265: a2 = a2 | a3\n 12268: a3 = u64 [s1 + 0x188]\n 12272: a0 = u8 [a3 + 0x1d]\n 12275: u64 [s1 + 0xb0] = a0\n 12279: a4 = a4 << 0x10\n 12282: a5 = a5 << 0x18\n 12285: a4 = a4 | a5\n 12288: a0 = u8 [a3 + 0x1e]\n 12291: u64 [s1 + 0xe0] = a0\n 12295: a2 = a2 | a4\n 12298: a0 = u8 [a3 + 0x1f]\n 12301: u64 [s1 + 0xd8] = a0\n 12305: a2 = a2 << 0x20\n 12308: a1 = a1 | a2\n 12311: a0 = u8 [a3 + 0x15]\n 12314: u64 [s1 + 0xc8] = a0\n 12318: a0 = u8 [a3 + 0x16]\n 12321: u64 [s1 + 0xf0] = a0\n 12325: a0 = u8 [a3 + 0x17]\n 12328: u64 [s1 + 0xe8] = a0\n 12332: a0 = u8 [a3 + 0xd]\n 12335: u64 [s1 + 0xf8] = a0\n 12339: a0 = u8 [a3 + 0xe]\n 12342: u64 [s1 + 0x110] = a0\n 12346: a0 = u8 [a3 + 0xf]\n 12349: u64 [s1 + 0x108] = a0\n 12353: a0 = u8 [a3 + 0x5]\n 12356: u64 [s1 + 0x118] = a0\n 12360: a0 = u8 [a3 + 0x6]\n 12363: u64 [s1 + 0x130] = a0\n 12367: a0 = u8 [a3 + 0x7]\n 12370: u64 [s1 + 0x128] = a0\n 12374: a0 = u8 [a3 + 0x19]\n 12377: u64 [s1 + 0x138] = a0\n 12381: a0 = u8 [a3 + 0x1a]\n 12384: u64 [s1 + 0x148] = a0\n 12388: a0 = u8 [a3 + 0x1b]\n 12391: u64 [s1 + 0x140] = a0\n 12395: a0 = u8 [a3 + 0x1c]\n 12398: u64 [s1 + 0xa0] = a0\n 12402: a0 = u8 [a3 + 0x11]\n 12405: u64 [s1 + 0x150] = a0\n 12409: a0 = u8 [a3 + 0x12]\n 12412: u64 [s1 + 0x160] = a0\n 12416: a0 = u8 [a3 + 0x13]\n 12419: u64 [s1 + 0x158] = a0\n 12423: a0 = u8 [a3 + 0x14]\n 12426: u64 [s1 + 0xa8] = a0\n 12430: a0 = u8 [a3 + 0x9]\n 12433: u64 [s1 + 0x170] = a0\n 12437: a0 = u8 [a3 + 0xa]\n 12440: u64 [s1 + 0x180] = a0\n 12444: a0 = u8 [a3 + 0xb]\n 12447: u64 [s1 + 0x178] = a0\n 12451: a0 = u8 [a3 + 0xc]\n 12454: u64 [s1 + 0xb8] = a0\n 12458: a0 = u8 [a3 + 0x1]\n 12461: u64 [s1 + 0x190] = a0\n 12465: a0 = u8 [a3 + 0x2]\n 12468: u64 [s1 + 0x1a0] = a0\n 12472: a0 = u8 [a3 + 0x3]\n 12475: u64 [s1 + 0x198] = a0\n 12479: a0 = u8 [a3 + 0x4]\n 12482: u64 [s1 + 0xc0] = a0\n 12486: a0 = u8 [a3 + 0x18]\n 12489: u64 [s1 + 0xd0] = a0\n 12493: a0 = u8 [a3 + 0x10]\n 12496: u64 [s1 + 0x100] = a0\n 12500: a0 = u8 [a3 + 0x8]\n 12503: u64 [s1 + 0x120] = a0\n 12507: a0 = u8 [a3]\n 12509: u64 [s1 + 0x188] = a0\n 12513: a2 = u64 [s1 + 0x230]\n 12517: u64 [s1 + 0x80] = a1\n 12521: u64 [a2 + 0x18] = a1\n 12524: u64 [s1 + 0x88] = t2\n 12528: u64 [a2] = t2\n 12530: u64 [s1 + 0x90] = t1\n 12534: u64 [a2 + 0x8] = t1\n 12537: u64 [s1 + 0x98] = t0\n 12541: u64 [a2 + 0x10] = t0\n 12544: jump @347 if ra >u 63\n      : @346 (gas: 3)\n 12548: a1 = u64 [s1 + 0x238]\n 12552: u32 [a1 + 0] = 0x40\n 12555: fallthrough\n      : @347 (gas: 34)\n 12556: a1 = u64 [s1 + 0x230]\n 12560: u64 [a1 + 48] = 0\n 12563: u64 [a1 + 40] = 0\n 12566: u64 [a1 + 32] = 0\n 12569: a0 = 0x700000000000000\n 12579: u64 [a1 + 0x38] = a0\n 12582: a0 = sp + 0xffffffffffffffe0\n 12585: a2 = a0 & 0xffffffffffffffe0\n 12588: u64 [s1 + 0x228] = a2\n 12592: sp = a2\n 12594: i32 a0 = a1 + 0\n 12596: i32 a2 = a2 + 0\n 12598: a1 = 0x40\n 12601: u64 [s1 + 0x1a8] = a0\n 12605: ecalli 7 // 'hash_keccak_256'\n 12607: a3 = u64 [s1 + 0x228]\n 12611: a0 = u64 [a3 + 0x18]\n 12614: a1 = u64 [a3 + 0x10]\n 12617: a2 = u64 [a3 + 0x8]\n 12620: a3 = u64 [a3]\n 12622: a0 = reverse a0\n 12624: a1 = reverse a1\n 12626: a2 = reverse a2\n 12628: a3 = reverse a3\n 12630: a4 = s1 + 0x7ff\n 12634: a4 = a4 + 0x1b9\n 12638: u64 [a4 + 0x20] = a3\n 12641: u64 [a4 + 0x18] = a2\n 12644: u64 [a4 + 0x10] = a1\n 12647: u64 [a4 + 0x8] = a0\n 12650: a0 = s1 + 0x580\n 12654: a1 = s1 + 0x7ff\n 12658: a1 = a1 + 0x1c1\n 12662: ra = 28, jump @0\n      : @348 [@dyn 14] (gas: 5)\n 12667: a0 = u8 [s1 + 0x580]\n 12671: a1 = u64 [s1 + 0x238]\n 12675: a1 = i32 [a1]\n 12677: u64 [s1 + 0x228] = a1\n 12681: jump @350 if a0 == 0\n      : @349 (gas: 1)\n 12684: jump @747\n      : @350 (gas: 117)\n 12687: a0 = u64 [s1 + 0xb0]\n 12691: a0 = a0 << 0x8\n 12694: a1 = u64 [s1 + 0xa0]\n 12698: ra = a0 | a1\n 12701: a0 = u64 [s1 + 0xe0]\n 12705: a0 = a0 << 0x10\n 12708: a1 = u64 [s1 + 0xd8]\n 12712: a1 = a1 << 0x18\n 12715: a0 = a0 | a1\n 12718: a1 = u64 [s1 + 0xc8]\n 12722: a1 = a1 << 0x8\n 12725: a2 = u64 [s1 + 0xa8]\n 12729: a1 = a1 | a2\n 12732: u64 [s1 + 0xe0] = a1\n 12736: a1 = u64 [s1 + 0xf0]\n 12740: a1 = a1 << 0x10\n 12743: a5 = u64 [s1 + 0xe8]\n 12747: a5 = a5 << 0x18\n 12750: t0 = a5 | a1\n 12753: a1 = u64 [s1 + 0xf8]\n 12757: a1 = a1 << 0x8\n 12760: a2 = u64 [s1 + 0xb8]\n 12764: a1 = a1 | a2\n 12767: u64 [s1 + 0xf8] = a1\n 12771: a1 = u64 [s1 + 0x110]\n 12775: a1 = a1 << 0x10\n 12778: a2 = u64 [s1 + 0x108]\n 12782: a2 = a2 << 0x18\n 12785: a1 = a1 | a2\n 12788: u64 [s1 + 0x110] = a1\n 12792: a1 = u64 [s1 + 0x118]\n 12796: a1 = a1 << 0x8\n 12799: a2 = u64 [s1 + 0xc0]\n 12803: a1 = a1 | a2\n 12806: u64 [s1 + 0x118] = a1\n 12810: a3 = u64 [s1 + 0x130]\n 12814: a3 = a3 << 0x10\n 12817: a4 = u64 [s1 + 0x128]\n 12821: a4 = a4 << 0x18\n 12824: a3 = a3 | a4\n 12827: u64 [s1 + 0x130] = a3\n 12831: a4 = u64 [s1 + 0x138]\n 12835: a4 = a4 << 0x8\n 12838: a1 = u64 [s1 + 0xd0]\n 12842: a1 = a1 | a4\n 12845: u64 [s1 + 0x138] = a1\n 12849: t1 = u64 [s1 + 0x148]\n 12853: t1 = t1 << 0x10\n 12856: t2 = u64 [s1 + 0x140]\n 12860: t2 = t2 << 0x18\n 12863: t1 = t2 | t1\n 12866: a0 = a0 | ra\n 12869: u64 [s1 + 0x148] = a0\n 12873: a5 = u64 [s1 + 0x150]\n 12877: a5 = a5 << 0x8\n 12880: a3 = u64 [s1 + 0x100]\n 12884: a3 = a3 | a5\n 12887: u64 [s1 + 0x150] = a3\n 12891: a5 = u64 [s1 + 0x160]\n 12895: a5 = a5 << 0x10\n 12898: ra = u64 [s1 + 0x158]\n 12902: ra = ra << 0x18\n 12905: ra = ra | a5\n 12908: a0 = u64 [s1 + 0xe0]\n 12912: a0 = t0 | a0\n 12915: u64 [s1 + 0x160] = a0\n 12919: a1 = u64 [s1 + 0x170]\n 12923: a1 = a1 << 0x8\n 12926: a0 = u64 [s1 + 0x120]\n 12930: a1 = a1 | a0\n 12933: a5 = u64 [s1 + 0x180]\n 12937: a5 = a5 << 0x10\n 12940: a2 = u64 [s1 + 0x178]\n 12944: a2 = a2 << 0x18\n 12947: a2 = a2 | a5\n 12950: a0 = u64 [s1 + 0xf8]\n 12954: a5 = u64 [s1 + 0x110]\n 12958: a5 = a5 | a0\n 12961: t2 = u64 [s1 + 0x190]\n 12965: t2 = t2 << 0x8\n 12968: a0 = u64 [s1 + 0x188]\n 12972: t2 = t2 | a0\n 12975: a0 = u64 [s1 + 0x1a0]\n 12979: a0 = a0 << 0x10\n 12982: a4 = u64 [s1 + 0x198]\n 12986: a4 = a4 << 0x18\n 12989: a0 = a0 | a4\n 12992: a4 = u64 [s1 + 0x118]\n 12996: t0 = u64 [s1 + 0x130]\n 13000: a4 = t0 | a4\n 13003: a3 = u64 [s1 + 0x138]\n 13007: t1 = t1 | a3\n 13010: a3 = u64 [s1 + 0x150]\n 13014: a3 = ra | a3\n 13017: a1 = a1 | a2\n 13020: a0 = a0 | t2\n 13023: a2 = u64 [s1 + 0x148]\n 13027: a2 = a2 << 0x20\n 13030: a2 = a2 | t1\n 13033: t0 = u64 [s1 + 0x160]\n 13037: t0 = t0 << 0x20\n 13040: a3 = t0 | a3\n 13043: a5 = a5 << 0x20\n 13046: a5 = a5 | a1\n 13049: a4 = a4 << 0x20\n 13052: a0 = a0 | a4\n 13055: a1 = u64 [s1 + 0x230]\n 13059: u64 [s1 + 0x188] = a0\n 13063: u64 [a1] = a0\n 13065: u64 [s1 + 0x180] = a5\n 13069: u64 [a1 + 0x8] = a5\n 13072: u64 [s1 + 0x190] = a3\n 13076: u64 [a1 + 0x10] = a3\n 13079: u64 [s1 + 0x198] = a2\n 13083: u64 [a1 + 0x18] = a2\n 13086: a1 = u64 [s1 + 0x228]\n 13090: jump @352 if a1 >u 63\n      : @351 (gas: 3)\n 13094: a1 = u64 [s1 + 0x238]\n 13098: u32 [a1 + 0] = 0x40\n 13101: fallthrough\n      : @352 (gas: 33)\n 13102: a1 = u64 [s1 + 0x230]\n 13106: u64 [a1 + 48] = 0\n 13109: u64 [a1 + 40] = 0\n 13112: u64 [a1 + 32] = 0\n 13115: a0 = 0x500000000000000\n 13125: u64 [a1 + 0x38] = a0\n 13128: a0 = sp + 0xffffffffffffffe0\n 13131: a0 = a0 & 0xffffffffffffffe0\n 13134: u64 [s1 + 0x228] = a0\n 13138: sp = a0\n 13140: i32 a2 = a0 + 0\n 13142: a1 = 0x40\n 13145: a0 = u64 [s1 + 0x1a8]\n 13149: ecalli 7 // 'hash_keccak_256'\n 13151: a3 = u64 [s1 + 0x228]\n 13155: a0 = u64 [a3 + 0x18]\n 13158: a1 = u64 [a3 + 0x10]\n 13161: a2 = u64 [a3 + 0x8]\n 13164: a3 = u64 [a3]\n 13166: a0 = reverse a0\n 13168: a1 = reverse a1\n 13170: a2 = reverse a2\n 13172: a3 = reverse a3\n 13174: a4 = s1 + 0x7ff\n 13178: a4 = a4 + 0x1b9\n 13182: u64 [a4 + 0x40] = a3\n 13185: u64 [a4 + 0x38] = a2\n 13188: u64 [a4 + 0x30] = a1\n 13191: u64 [a4 + 0x28] = a0\n 13194: a0 = s1 + 0x560\n 13198: a1 = s1 + 0x7ff\n 13202: a1 = a1 + 0x1e1\n 13206: ra = 30, jump @0\n      : @353 [@dyn 15] (gas: 2)\n 13211: a0 = u8 [s1 + 0x560]\n 13215: jump @355 if a0 == 0\n      : @354 (gas: 1)\n 13218: jump @779\n      : @355 (gas: 3)\n 13221: a0 = u64 [s1 + 0x238]\n 13225: t1 = i32 [a0]\n 13227: jump @357 if t1 >u 95\n      : @356 (gas: 4)\n 13231: t1 = 0x60\n 13234: a0 = u64 [s1 + 0x238]\n 13238: u32 [a0] = t1\n 13240: fallthrough\n      : @357 (gas: 17)\n 13241: a1 = u64 [s1 + 0x230]\n 13245: a0 = u64 [a1 + 0x48]\n 13248: a2 = u64 [a1 + 0x58]\n 13251: a3 = u64 [a1 + 0x40]\n 13254: a1 = u64 [a1 + 0x50]\n 13257: a4 = reverse a0\n 13259: a0 = reverse a2\n 13261: a5 = reverse a3\n 13263: a2 = reverse a1\n 13265: a1 = a2 | a5\n 13268: a3 = a0 | a4\n 13271: a3 = a3 | a1\n 13274: a3 = a3 >> 0x20\n 13277: a1 = a1 | a4\n 13280: a1 = a1 << 0x20\n 13283: a1 = a1 | a3\n 13286: jump @359 if a1 == 0\n      : @358 (gas: 1)\n 13289: jump @660\n      : @359 (gas: 2)\n 13292: i32 a1 = a0 >> 0x10\n 13295: jump @361 if a1 == 0\n      : @360 (gas: 1)\n 13298: jump @660\n      : @361 (gas: 4)\n 13301: a1 = a0 + 0x3f\n 13304: a3 = u64 [s1 + 0x1f0]\n 13308: a3 = a3 & a1\n 13311: jump @363 if a3 <=u 65536\n      : @362 (gas: 1)\n 13317: jump @660\n      : @363 (gas: 1)\n 13320: jump @365 if t1 >=u a3\n      : @364 (gas: 4)\n 13323: a1 = u64 [s1 + 0x238]\n 13327: u32 [a1] = a3\n 13329: t1 = a3\n 13331: fallthrough\n      : @365 (gas: 41)\n 13332: i32 t0 = a0 + 0\n 13334: a3 = u64 [s1 + 0x230]\n 13338: a3 = a3 + t0\n 13341: u8 [a3 + 31] = 0\n 13344: u8 [a3 + 30] = 0\n 13347: u8 [a3 + 29] = 0\n 13350: u8 [a3 + 28] = 0\n 13353: u8 [a3 + 27] = 0\n 13356: u8 [a3 + 26] = 0\n 13359: u8 [a3 + 25] = 0\n 13362: u8 [a3 + 24] = 0\n 13365: u8 [a3 + 23] = 0\n 13368: u8 [a3 + 22] = 0\n 13371: u8 [a3 + 21] = 0\n 13374: u8 [a3 + 20] = 0\n 13377: u8 [a3 + 19] = 0\n 13380: u8 [a3 + 18] = 0\n 13383: u8 [a3 + 17] = 0\n 13386: u8 [a3 + 16] = 0\n 13389: u8 [a3 + 15] = 0\n 13392: u8 [a3 + 14] = 0\n 13395: u8 [a3 + 13] = 0\n 13398: u8 [a3 + 12] = 0\n 13401: u8 [a3 + 11] = 0\n 13404: u8 [a3 + 10] = 0\n 13407: u8 [a3 + 9] = 0\n 13410: u8 [a3 + 8] = 0\n 13413: u8 [a3 + 7] = 0\n 13416: u8 [a3 + 6] = 0\n 13419: u8 [a3 + 5] = 0\n 13422: u8 [a3 + 4] = 0\n 13425: u8 [a3 + 3] = 0xa0\n 13430: u8 [a3 + 2] = 0x79\n 13434: u8 [a3 + 1] = 0xc3\n 13439: a4 = a4 | a5\n 13442: a5 = 0xfffffffc\n 13452: a5 = a0 <u a5\n 13455: a5 = 0 if a2 != 0\n 13457: a5 = 0 if a4 != 0\n 13459: u8 [a3 + 0] = 0x8\n 13462: jump @367 if a5 != 0\n      : @366 (gas: 1)\n 13465: jump @660\n      : @367 (gas: 1)\n 13468: jump @369 if t0 <u 65532\n      : @368 (gas: 1)\n 13474: jump @660\n      : @369 (gas: 4)\n 13477: a1 = a0 + 0x43\n 13480: a3 = u64 [s1 + 0x1f0]\n 13484: a3 = a3 & a1\n 13487: jump @371 if a3 <=u 65536\n      : @370 (gas: 1)\n 13493: jump @660\n      : @371 (gas: 2)\n 13496: i32 a5 = a0 + 0x4\n 13499: jump @373 if t1 >=u a3\n      : @372 (gas: 4)\n 13502: a1 = u64 [s1 + 0x238]\n 13506: u32 [a1] = a3\n 13508: t1 = a3\n 13510: fallthrough\n      : @373 (gas: 39)\n 13511: a3 = u64 [s1 + 0x230]\n 13515: a3 = a3 + a5\n 13518: u8 [a3 + 31] = 0x20\n 13522: u8 [a3 + 30] = 0\n 13525: u8 [a3 + 29] = 0\n 13528: u8 [a3 + 28] = 0\n 13531: u8 [a3 + 27] = 0\n 13534: u8 [a3 + 26] = 0\n 13537: u8 [a3 + 25] = 0\n 13540: u8 [a3 + 24] = 0\n 13543: u8 [a3 + 23] = 0\n 13546: u8 [a3 + 22] = 0\n 13549: u8 [a3 + 21] = 0\n 13552: u8 [a3 + 20] = 0\n 13555: u8 [a3 + 19] = 0\n 13558: u8 [a3 + 18] = 0\n 13561: u8 [a3 + 17] = 0\n 13564: u8 [a3 + 16] = 0\n 13567: u8 [a3 + 15] = 0\n 13570: u8 [a3 + 14] = 0\n 13573: u8 [a3 + 13] = 0\n 13576: u8 [a3 + 12] = 0\n 13579: u8 [a3 + 11] = 0\n 13582: u8 [a3 + 10] = 0\n 13585: u8 [a3 + 9] = 0\n 13588: u8 [a3 + 8] = 0\n 13591: u8 [a3 + 7] = 0\n 13594: u8 [a3 + 6] = 0\n 13597: u8 [a3 + 5] = 0\n 13600: u8 [a3 + 4] = 0\n 13603: u8 [a3 + 3] = 0\n 13606: u8 [a3 + 2] = 0\n 13609: u8 [a3 + 1] = 0\n 13612: a1 = 0xffffffdc\n 13622: a1 = a0 <u a1\n 13625: a1 = 0 if a2 != 0\n 13627: a1 = 0 if a4 != 0\n 13629: u8 [a3 + 0] = 0\n 13631: jump @375 if a1 != 0\n      : @374 (gas: 1)\n 13634: jump @660\n      : @375 (gas: 1)\n 13637: jump @377 if t0 <u 65500\n      : @376 (gas: 1)\n 13643: jump @660\n      : @377 (gas: 4)\n 13646: a1 = a0 + 0x63\n 13649: a3 = u64 [s1 + 0x1f0]\n 13653: a3 = a3 & a1\n 13656: jump @379 if a3 <=u 65536\n      : @378 (gas: 1)\n 13662: jump @660\n      : @379 (gas: 2)\n 13665: i32 a5 = a0 + 0x24\n 13668: jump @381 if t1 >=u a3\n      : @380 (gas: 4)\n 13671: a1 = u64 [s1 + 0x238]\n 13675: u32 [a1] = a3\n 13677: t1 = a3\n 13679: fallthrough\n      : @381 (gas: 39)\n 13680: a3 = u64 [s1 + 0x230]\n 13684: a3 = a3 + a5\n 13687: u8 [a3 + 31] = 0x8\n 13691: u8 [a3 + 30] = 0\n 13694: u8 [a3 + 29] = 0\n 13697: u8 [a3 + 28] = 0\n 13700: u8 [a3 + 27] = 0\n 13703: u8 [a3 + 26] = 0\n 13706: u8 [a3 + 25] = 0\n 13709: u8 [a3 + 24] = 0\n 13712: u8 [a3 + 23] = 0\n 13715: u8 [a3 + 22] = 0\n 13718: u8 [a3 + 21] = 0\n 13721: u8 [a3 + 20] = 0\n 13724: u8 [a3 + 19] = 0\n 13727: u8 [a3 + 18] = 0\n 13730: u8 [a3 + 17] = 0\n 13733: u8 [a3 + 16] = 0\n 13736: u8 [a3 + 15] = 0\n 13739: u8 [a3 + 14] = 0\n 13742: u8 [a3 + 13] = 0\n 13745: u8 [a3 + 12] = 0\n 13748: u8 [a3 + 11] = 0\n 13751: u8 [a3 + 10] = 0\n 13754: u8 [a3 + 9] = 0\n 13757: u8 [a3 + 8] = 0\n 13760: u8 [a3 + 7] = 0\n 13763: u8 [a3 + 6] = 0\n 13766: u8 [a3 + 5] = 0\n 13769: u8 [a3 + 4] = 0\n 13772: u8 [a3 + 3] = 0\n 13775: u8 [a3 + 2] = 0\n 13778: u8 [a3 + 1] = 0\n 13781: a1 = 0xffffffbc\n 13791: a1 = a0 <u a1\n 13794: a1 = 0 if a2 != 0\n 13796: a1 = 0 if a4 != 0\n 13798: u8 [a3 + 0] = 0\n 13800: jump @383 if a1 != 0\n      : @382 (gas: 1)\n 13803: jump @660\n      : @383 (gas: 1)\n 13806: jump @385 if t0 <u 65468\n      : @384 (gas: 1)\n 13812: jump @660\n      : @385 (gas: 4)\n 13815: a1 = a0 + 0x83\n 13819: a2 = u64 [s1 + 0x1f0]\n 13823: a2 = a2 & a1\n 13826: jump @387 if a2 <=u 65536\n      : @386 (gas: 1)\n 13832: jump @660\n      : @387 (gas: 1)\n 13835: jump @389 if t1 >=u a2\n      : @388 (gas: 3)\n 13838: a1 = u64 [s1 + 0x238]\n 13842: u32 [a1] = a2\n 13844: fallthrough\n      : @389 (gas: 39)\n 13845: i32 a1 = a0 + 0x44\n 13848: a2 = u64 [s1 + 0x230]\n 13852: a1 = a1 + a2\n 13855: u8 [a1 + 31] = 0\n 13858: u8 [a1 + 30] = 0\n 13861: u8 [a1 + 29] = 0\n 13864: u8 [a1 + 28] = 0\n 13867: u8 [a1 + 27] = 0\n 13870: u8 [a1 + 26] = 0\n 13873: u8 [a1 + 25] = 0\n 13876: u8 [a1 + 24] = 0\n 13879: u8 [a1 + 23] = 0\n 13882: u8 [a1 + 22] = 0\n 13885: u8 [a1 + 21] = 0\n 13888: u8 [a1 + 20] = 0\n 13891: u8 [a1 + 19] = 0\n 13894: u8 [a1 + 18] = 0\n 13897: u8 [a1 + 17] = 0\n 13900: u8 [a1 + 16] = 0\n 13903: u8 [a1 + 15] = 0\n 13906: u8 [a1 + 14] = 0\n 13909: u8 [a1 + 13] = 0\n 13912: u8 [a1 + 12] = 0\n 13915: u8 [a1 + 11] = 0\n 13918: u8 [a1 + 10] = 0\n 13921: u8 [a1 + 9] = 0\n 13924: u8 [a1 + 8] = 0\n 13927: u8 [a1 + 7] = 0x74\n 13931: u8 [a1 + 6] = 0x6f\n 13935: u8 [a1 + 5] = 0x6f\n 13939: u8 [a1 + 4] = 0x72\n 13943: a4 = 0x2d\n 13946: u8 [a1 + 0x3] = a4\n 13949: u8 [a1 + 2] = 0x74\n 13953: u8 [a1 + 1] = 0x6f\n 13957: u8 [a1 + 0] = 0x6e\n 13960: a1 = 0x64\n 13963: ra = 0x58\n 13966: jump @8\n      : @390 (gas: 1)\n 13969: jump @392 if a0 == 1238272407\n      : @391 (gas: 1)\n 13976: jump @732\n      : @392 (gas: 7)\n 13979: u64 [s1 + 1816] = 0\n 13983: u64 [s1 + 1808] = 0\n 13987: u64 [s1 + 1800] = 0\n 13991: u64 [s1 + 1792] = 0\n 13995: i32 a0 = s1 + 0x700\n 13999: ecalli 14 // 'value_transferred'\n 14001: fallthrough\n      : @393 (gas: 8)\n 14002: a0 = u64 [s1 + 0x710]\n 14006: a1 = u64 [s1 + 0x718]\n 14010: a2 = u64 [s1 + 0x708]\n 14014: a3 = u64 [s1 + 0x700]\n 14018: a1 = a1 | a2\n 14021: a0 = a0 | a3\n 14024: a0 = a0 | a1\n 14027: jump @395 if a0 == 0\n      : @394 (gas: 1)\n 14030: jump @732\n      : @395 (gas: 3)\n 14033: a0 = u64 [s1 + 0x228]\n 14037: a0 = i32 [a0]\n 14039: jump @397 if a0 >u 35\n      : @396 (gas: 1)\n 14043: jump @732\n      : @397 (gas: 4)\n 14046: i32 a0 = s1 + 0x720\n 14050: a1 = 0x4\n 14053: ecalli 2 // 'call_data_load'\n 14055: fallthrough\n      : @398 (gas: 16)\n 14056: a0 = u64 [s1 + 0x720]\n 14060: a1 = u64 [s1 + 0x738]\n 14064: a2 = u64 [s1 + 0x730]\n 14068: a3 = u64 [s1 + 0x728]\n 14072: a4 = u64 [s1 + 0x238]\n 14076: t0 = i32 [a4]\n 14078: a1 = reverse a1\n 14080: a2 = reverse a2\n 14082: a3 = reverse a3\n 14084: a0 = reverse a0\n 14086: a5 = u64 [s1 + 0x230]\n 14090: u64 [a5 + 0x18] = a0\n 14093: u64 [a5 + 0x10] = a3\n 14096: u64 [a5 + 0x8] = a2\n 14099: u64 [a5] = a1\n 14101: jump @400 if t0 >u 63\n      : @399 (gas: 2)\n 14105: u32 [a4 + 0] = 0x40\n 14108: fallthrough\n      : @400 (gas: 39)\n 14109: u64 [a5 + 48] = 0\n 14112: u64 [a5 + 40] = 0\n 14115: u64 [a5 + 32] = 0\n 14118: a0 = 0x800000000000000\n 14128: u64 [a5 + 0x38] = a0\n 14131: a0 = sp + 0xffffffffffffffe0\n 14134: a2 = a0 & 0xffffffffffffffe0\n 14137: u64 [s1 + 0x228] = a2\n 14141: sp = a2\n 14143: i32 a0 = a5 + 0\n 14145: i32 a2 = a2 + 0\n 14147: a1 = 0x40\n 14150: ecalli 7 // 'hash_keccak_256'\n 14152: a3 = u64 [s1 + 0x228]\n 14156: a0 = u64 [a3 + 0x18]\n 14159: a1 = u64 [a3 + 0x10]\n 14162: a2 = u64 [a3 + 0x8]\n 14165: a3 = u64 [a3]\n 14167: a4 = s1 + 0x7ff\n 14171: a4 = a4 + 0x1b9\n 14175: u64 [a4 + 0x1c0] = a0\n 14179: u64 [a4 + 0x1b8] = a1\n 14183: u64 [a4 + 0x1b0] = a2\n 14187: u64 [a4 + 0x1a8] = a3\n 14191: u64 [a4 + 480] = 0\n 14195: u64 [a4 + 472] = 0\n 14199: u64 [a4 + 464] = 0\n 14203: u64 [a4 + 456] = 0\n 14207: u32 [a4 + 488] = 0x20\n 14212: a0 = s1 + 0x1000\n 14216: i32 a1 = a0 + 0xfffffffffffffb60\n 14220: a0 = s1 + 0x1000\n 14224: i32 a3 = a0 + 0xfffffffffffffb80\n 14228: a0 = s1 + 0x1000\n 14232: i32 a4 = a0 + 0xfffffffffffffba0\n 14236: a2 = 0xffffffffffffffff\n 14239: a0 = 0\n 14241: ecalli 6 // 'get_storage'\n 14243: fallthrough\n      : @401 (gas: 3)\n 14244: a2 = u64 [s1 + 0x238]\n 14248: a1 = i32 [a2]\n 14250: jump @403 if a1 >u 95\n      : @402 (gas: 3)\n 14254: a1 = 0x60\n 14257: u32 [a2] = a1\n 14259: fallthrough\n      : @403 (gas: 17)\n 14260: a4 = u64 [s1 + 0x230]\n 14264: a0 = u64 [a4 + 0x48]\n 14267: a2 = u64 [a4 + 0x58]\n 14270: a3 = u64 [a4 + 0x40]\n 14273: a4 = u64 [a4 + 0x50]\n 14276: a5 = reverse a0\n 14278: a0 = reverse a2\n 14280: a2 = reverse a3\n 14282: a3 = reverse a4\n 14284: a2 = a2 | a3\n 14287: a3 = a0 | a5\n 14290: a3 = a3 | a2\n 14293: a3 = a3 >> 0x20\n 14296: a2 = a2 | a5\n 14299: a2 = a2 << 0x20\n 14302: a2 = a2 | a3\n 14305: jump @587 if a2 == 0\n      : @404 (gas: 1)\n 14309: jump @660\n      : @405 (gas: 1)\n 14312: jump @407 if a0 == 3065339685\n      : @406 (gas: 1)\n 14319: jump @732\n      : @407 (gas: 3)\n 14322: a0 = u64 [s1 + 0x228]\n 14326: a0 = i32 [a0]\n 14328: jump @409 if a0 >u 35\n      : @408 (gas: 1)\n 14332: jump @732\n      : @409 (gas: 12)\n 14335: i32 a0 = s1 + 0x760\n 14339: a1 = 0x4\n 14342: ecalli 2 // 'call_data_load'\n 14344: a0 = u64 [s1 + 0x778]\n 14348: u64 [s1 + 0x1f8] = a0\n 14352: a0 = u64 [s1 + 0x770]\n 14356: u64 [s1 + 0x200] = a0\n 14360: a0 = u64 [s1 + 0x768]\n 14364: u64 [s1 + 0x208] = a0\n 14368: a0 = u64 [s1 + 0x760]\n 14372: u64 [s1 + 0x218] = a0\n 14376: ra = 32, jump @1131\n      : @410 [@dyn 16] (gas: 42)\n 14381: a0 = 0x300000000000000\n 14391: a1 = s1 + 0x7ff\n 14395: a1 = a1 + 0x1b9\n 14399: u64 [a1 + 0x1c0] = a0\n 14403: u64 [a1 + 440] = 0\n 14407: u64 [a1 + 432] = 0\n 14411: u64 [a1 + 424] = 0\n 14415: u64 [a1 + 480] = 0\n 14419: u64 [a1 + 472] = 0\n 14423: u64 [a1 + 464] = 0\n 14427: u64 [a1 + 456] = 0\n 14431: u32 [a1 + 488] = 0x20\n 14436: a0 = s1 + 0x1000\n 14440: i32 a1 = a0 + 0xfffffffffffffb60\n 14444: a0 = s1 + 0x1000\n 14448: i32 a3 = a0 + 0xfffffffffffffb80\n 14452: a0 = s1 + 0x1000\n 14456: i32 a4 = a0 + 0xfffffffffffffba0\n 14460: a2 = 0xffffffffffffffff\n 14463: a0 = 0\n 14465: ecalli 6 // 'get_storage'\n 14467: a3 = s1 + 0x7ff\n 14471: a3 = a3 + 0x1b9\n 14475: a0 = u64 [a3 + 0x1e0]\n 14479: a1 = u64 [a3 + 0x1d0]\n 14483: a2 = u64 [a3 + 0x1d8]\n 14487: a3 = u64 [a3 + 0x1c8]\n 14491: a0 = reverse a0\n 14493: u64 [s1 + 0x220] = a0\n 14497: a0 = reverse a1\n 14499: u64 [s1 + 0x210] = a0\n 14503: a0 = reverse a2\n 14505: u64 [s1 + 0x1f0] = a0\n 14509: a0 = reverse a3\n 14511: u64 [s1 + 0x1e8] = a0\n 14515: u64 [s1 + 1944] = 0\n 14519: u64 [s1 + 1936] = 0\n 14523: u64 [s1 + 1928] = 0\n 14527: u64 [s1 + 1920] = 0\n 14531: i32 a0 = s1 + 0x780\n 14535: ecalli 14 // 'value_transferred'\n 14537: fallthrough\n      : @411 (gas: 18)\n 14538: a0 = u64 [s1 + 0x798]\n 14542: a1 = u64 [s1 + 0x788]\n 14546: a2 = u64 [s1 + 0x780]\n 14550: a3 = u64 [s1 + 0x790]\n 14554: a4 = u64 [s1 + 0x1e8]\n 14558: a0 = a0 ^ a4\n 14561: a4 = u64 [s1 + 0x1f0]\n 14565: a1 = a1 ^ a4\n 14568: a0 = a0 | a1\n 14571: a1 = u64 [s1 + 0x210]\n 14575: a3 = a3 ^ a1\n 14578: a1 = u64 [s1 + 0x220]\n 14582: a2 = a2 ^ a1\n 14585: a4 = u64 [s1 + 0x238]\n 14589: t2 = i32 [a4]\n 14591: a2 = a2 | a3\n 14594: a0 = a0 | a2\n 14597: jump @413 if a0 == 0\n      : @412 (gas: 1)\n 14600: jump @593\n      : @413 (gas: 18)\n 14603: a0 = u64 [s1 + 0x1f8]\n 14607: a2 = reverse a0\n 14609: a0 = u64 [s1 + 0x200]\n 14613: a0 = reverse a0\n 14615: a1 = u64 [s1 + 0x208]\n 14619: a3 = reverse a1\n 14621: a1 = u64 [s1 + 0x218]\n 14625: a5 = reverse a1\n 14627: a1 = u64 [s1 + 0x230]\n 14631: u64 [s1 + 0x110] = a5\n 14635: u64 [a1 + 0x18] = a5\n 14638: u64 [s1 + 0x118] = a3\n 14642: u64 [a1 + 0x10] = a3\n 14645: u64 [s1 + 0x120] = a0\n 14649: u64 [a1 + 0x8] = a0\n 14652: u64 [s1 + 0x128] = a2\n 14656: u64 [a1] = a2\n 14658: jump @415 if t2 >u 63\n      : @414 (gas: 2)\n 14662: u32 [a4 + 0] = 0x40\n 14665: fallthrough\n      : @415 (gas: 40)\n 14666: u64 [a1 + 48] = 0\n 14669: u64 [a1 + 40] = 0\n 14672: u64 [a1 + 32] = 0\n 14675: a0 = 0x800000000000000\n 14685: u64 [a1 + 0x38] = a0\n 14688: a0 = sp + 0xffffffffffffffe0\n 14691: a2 = a0 & 0xffffffffffffffe0\n 14694: u64 [s1 + 0x220] = a2\n 14698: sp = a2\n 14700: i32 a0 = a1 + 0\n 14702: i32 a2 = a2 + 0\n 14704: a1 = 0x40\n 14707: u64 [s1 + 0x1c8] = a0\n 14711: ecalli 7 // 'hash_keccak_256'\n 14713: a3 = u64 [s1 + 0x220]\n 14717: a0 = u64 [a3 + 0x18]\n 14720: a1 = u64 [a3 + 0x10]\n 14723: a2 = u64 [a3 + 0x8]\n 14726: a3 = u64 [a3]\n 14728: a4 = s1 + 0x7ff\n 14732: a4 = a4 + 0x1b9\n 14736: u64 [a4 + 0x1c0] = a0\n 14740: u64 [a4 + 0x1b8] = a1\n 14744: u64 [a4 + 0x1b0] = a2\n 14748: u64 [a4 + 0x1a8] = a3\n 14752: u64 [a4 + 480] = 0\n 14756: u64 [a4 + 472] = 0\n 14760: u64 [a4 + 464] = 0\n 14764: u64 [a4 + 456] = 0\n 14768: u32 [a4 + 488] = 0x20\n 14773: a0 = s1 + 0x1000\n 14777: i32 a1 = a0 + 0xfffffffffffffb60\n 14781: a0 = s1 + 0x1000\n 14785: i32 a3 = a0 + 0xfffffffffffffb80\n 14789: a0 = s1 + 0x1000\n 14793: i32 a4 = a0 + 0xfffffffffffffba0\n 14797: a2 = 0xffffffffffffffff\n 14800: a0 = 0\n 14802: ecalli 6 // 'get_storage'\n 14804: fallthrough\n      : @416 (gas: 11)\n 14805: a3 = s1 + 0x7ff\n 14809: a3 = a3 + 0x1b9\n 14813: a0 = u64 [a3 + 0x1e0]\n 14817: a1 = u64 [a3 + 0x1d8]\n 14821: a2 = 0x100000000000000\n 14831: a2 = a2 ^ a0\n 14834: a1 = a1 | a2\n 14837: a0 = a0 >> 0x38\n 14840: a0 = a0 <u 0x1\n 14843: a0 = 0 if a1 == 0\n 14845: jump @418 if a0 != 0\n      : @417 (gas: 1)\n 14848: jump @616\n      : @418 (gas: 53)\n 14851: a0 = 0x400000000000000\n 14861: u64 [a3 + 0x1c0] = a0\n 14865: u64 [a3 + 440] = 0\n 14869: u64 [a3 + 432] = 0\n 14873: u64 [a3 + 424] = 0\n 14877: u64 [a3 + 480] = 0\n 14881: u64 [a3 + 472] = 0\n 14885: u64 [a3 + 464] = 0\n 14889: u64 [a3 + 456] = 0\n 14893: u32 [a3 + 488] = 0x20\n 14898: a0 = s1 + 0x1000\n 14902: i32 a1 = a0 + 0xfffffffffffffb60\n 14906: a0 = s1 + 0x1000\n 14910: i32 a3 = a0 + 0xfffffffffffffb80\n 14914: a0 = s1 + 0x1000\n 14918: i32 a4 = a0 + 0xfffffffffffffba0\n 14922: a2 = 0xffffffffffffffff\n 14925: a0 = 0\n 14927: ecalli 6 // 'get_storage'\n 14929: a4 = s1 + 0x7ff\n 14933: a4 = a4 + 0x1b9\n 14937: a0 = u64 [a4 + 0x1e0]\n 14941: a1 = u64 [a4 + 0x1d8]\n 14945: a2 = u64 [a4 + 0x1d0]\n 14949: a3 = u64 [a4 + 0x1c8]\n 14953: a0 = reverse a0\n 14955: u64 [s1 + 0x1f0] = a0\n 14959: a0 = reverse a1\n 14961: u64 [s1 + 0x1c0] = a0\n 14965: a0 = reverse a2\n 14967: u64 [s1 + 0x1b0] = a0\n 14971: a0 = reverse a3\n 14973: u64 [s1 + 0x1b8] = a0\n 14977: a0 = 0x200000000000000\n 14987: u64 [a4 + 0x1c0] = a0\n 14991: u64 [a4 + 440] = 0\n 14995: u64 [a4 + 432] = 0\n 14999: u64 [a4 + 424] = 0\n 15003: u64 [a4 + 480] = 0\n 15007: u64 [a4 + 472] = 0\n 15011: u64 [a4 + 464] = 0\n 15015: u64 [a4 + 456] = 0\n 15019: u32 [a4 + 488] = 0x20\n 15024: a0 = s1 + 0x1000\n 15028: i32 a1 = a0 + 0xfffffffffffffb60\n 15032: a0 = s1 + 0x1000\n 15036: i32 a3 = a0 + 0xfffffffffffffb80\n 15040: a0 = s1 + 0x1000\n 15044: i32 a4 = a0 + 0xfffffffffffffba0\n 15048: a2 = 0xffffffffffffffff\n 15051: a0 = 0\n 15053: ecalli 6 // 'get_storage'\n 15055: fallthrough\n      : @419 (gas: 212)\n 15056: a1 = s1 + 0x7ff\n 15060: a1 = a1 + 0x1b9\n 15064: a0 = u64 [a1 + 0x1d8]\n 15068: a1 = u64 [a1 + 0x1d0]\n 15072: a0 = a0 << 0x28\n 15075: a1 = a1 >> 0x18\n 15078: t0 = a1 | a0\n 15081: u8 [s1 + 991] = 0\n 15085: u8 [s1 + 990] = 0\n 15089: u8 [s1 + 989] = 0\n 15093: u8 [s1 + 988] = 0\n 15097: u8 [s1 + 987] = 0\n 15101: u8 [s1 + 986] = 0\n 15105: u8 [s1 + 985] = 0\n 15109: u8 [s1 + 984] = 0\n 15113: u8 [s1 + 983] = 0\n 15117: u8 [s1 + 982] = 0\n 15121: u8 [s1 + 981] = 0\n 15125: u8 [s1 + 980] = 0\n 15129: u8 [s1 + 979] = 0\n 15133: u8 [s1 + 978] = 0\n 15137: u8 [s1 + 977] = 0\n 15141: u8 [s1 + 976] = 0\n 15145: u8 [s1 + 975] = 0\n 15149: u8 [s1 + 974] = 0\n 15153: u8 [s1 + 973] = 0\n 15157: u8 [s1 + 972] = 0\n 15161: u8 [s1 + 971] = 0\n 15165: u8 [s1 + 970] = 0\n 15169: u8 [s1 + 969] = 0\n 15173: u8 [s1 + 968] = 0\n 15177: u8 [s1 + 967] = 0\n 15181: u8 [s1 + 966] = 0\n 15185: u8 [s1 + 965] = 0\n 15189: u8 [s1 + 964] = 0\n 15193: u8 [s1 + 963] = 0\n 15197: u8 [s1 + 962] = 0\n 15201: u8 [s1 + 961] = 0\n 15205: u8 [s1 + 960] = 0\n 15209: a4 = u64 [s1 + 0x1b8]\n 15213: u8 [s1 + 0x3b8] = a4\n 15217: a3 = u64 [s1 + 0x1b0]\n 15221: u8 [s1 + 0x3b0] = a3\n 15225: a2 = u64 [s1 + 0x1c0]\n 15229: u8 [s1 + 0x3a8] = a2\n 15233: a0 = u64 [s1 + 0x1f0]\n 15237: u8 [s1 + 0x3a0] = a0\n 15241: a1 = a4 >> 0x38\n 15244: u8 [s1 + 0x3bf] = a1\n 15248: a1 = a4 >> 0x30\n 15251: u8 [s1 + 0x3be] = a1\n 15255: a1 = a4 >> 0x28\n 15258: u8 [s1 + 0x3bd] = a1\n 15262: a1 = a4 >> 0x20\n 15265: u8 [s1 + 0x3bc] = a1\n 15269: a1 = a4 >> 0x18\n 15272: u8 [s1 + 0x3bb] = a1\n 15276: a1 = a4 >> 0x10\n 15279: u8 [s1 + 0x3ba] = a1\n 15283: a1 = a4 >> 0x8\n 15286: u8 [s1 + 0x3b9] = a1\n 15290: a1 = a3 >> 0x38\n 15293: u8 [s1 + 0x3b7] = a1\n 15297: a1 = a3 >> 0x30\n 15300: u8 [s1 + 0x3b6] = a1\n 15304: a1 = a3 >> 0x28\n 15307: u8 [s1 + 0x3b5] = a1\n 15311: a1 = a3 >> 0x20\n 15314: u8 [s1 + 0x3b4] = a1\n 15318: a1 = a3 >> 0x18\n 15321: u8 [s1 + 0x3b3] = a1\n 15325: a1 = a3 >> 0x10\n 15328: u8 [s1 + 0x3b2] = a1\n 15332: a1 = a3 >> 0x8\n 15335: u8 [s1 + 0x3b1] = a1\n 15339: a1 = a2 >> 0x38\n 15342: u8 [s1 + 0x3af] = a1\n 15346: a1 = a2 >> 0x30\n 15349: u8 [s1 + 0x3ae] = a1\n 15353: a1 = a2 >> 0x28\n 15356: u8 [s1 + 0x3ad] = a1\n 15360: a1 = a2 >> 0x20\n 15363: u8 [s1 + 0x3ac] = a1\n 15367: a1 = a2 >> 0x18\n 15370: u8 [s1 + 0x3ab] = a1\n 15374: a1 = a2 >> 0x10\n 15377: u8 [s1 + 0x3aa] = a1\n 15381: a1 = a2 >> 0x8\n 15384: u8 [s1 + 0x3a9] = a1\n 15388: a1 = a0 >> 0x38\n 15391: u8 [s1 + 0x3a7] = a1\n 15395: a1 = a0 >> 0x30\n 15398: u8 [s1 + 0x3a6] = a1\n 15402: a1 = a0 >> 0x28\n 15405: u8 [s1 + 0x3a5] = a1\n 15409: a1 = a0 >> 0x20\n 15412: u8 [s1 + 0x3a4] = a1\n 15416: a1 = a0 >> 0x18\n 15419: u8 [s1 + 0x3a3] = a1\n 15423: a1 = a0 >> 0x10\n 15426: u8 [s1 + 0x3a2] = a1\n 15430: a1 = a0 >> 0x8\n 15433: u8 [s1 + 0x3a1] = a1\n 15437: a1 = t0 << 0x38\n 15440: a1 = a1 >> 0x3b\n 15443: a2 = s1 + 0x3a0\n 15447: a1 = a1 + a2\n 15450: a2 = u8 [a1 + 0x11]\n 15453: a3 = u8 [a1 + 0x10]\n 15456: a4 = u8 [a1 + 0x12]\n 15459: a5 = u8 [a1 + 0x13]\n 15462: a2 = a2 << 0x8\n 15465: a2 = a2 | a3\n 15468: a4 = a4 << 0x10\n 15471: a5 = a5 << 0x18\n 15474: a4 = a4 | a5\n 15477: a2 = a2 | a4\n 15480: a3 = u8 [a1 + 0x15]\n 15483: a4 = u8 [a1 + 0x14]\n 15486: a5 = u8 [a1 + 0x16]\n 15489: a0 = u8 [a1 + 0x17]\n 15492: a3 = a3 << 0x8\n 15495: a3 = a3 | a4\n 15498: a5 = a5 << 0x10\n 15501: a0 = a0 << 0x18\n 15504: a0 = a0 | a5\n 15507: a0 = a0 | a3\n 15510: a0 = a0 << 0x20\n 15513: t1 = a0 | a2\n 15516: a0 = t1 << 0x1\n 15519: t2 = t0 & 0x7\n 15522: a4 = t2 ^ 0xffffffffffffffff\n 15525: a0 = a0 << a4\n 15528: u64 [s1 + 0x220] = a0\n 15532: a0 = u8 [a1 + 0x1]\n 15535: a4 = u8 [a1]\n 15537: a5 = u8 [a1 + 0x2]\n 15540: a3 = u8 [a1 + 0x3]\n 15543: a0 = a0 << 0x8\n 15546: a0 = a0 | a4\n 15549: a5 = a5 << 0x10\n 15552: a3 = a3 << 0x18\n 15555: a3 = a3 | a5\n 15558: a0 = a0 | a3\n 15561: a3 = u8 [a1 + 0x5]\n 15564: a4 = u8 [a1 + 0x4]\n 15567: a5 = u8 [a1 + 0x6]\n 15570: a2 = u8 [a1 + 0x7]\n 15573: a3 = a3 << 0x8\n 15576: a3 = a3 | a4\n 15579: a5 = a5 << 0x10\n 15582: a2 = a2 << 0x18\n 15585: a2 = a2 | a5\n 15588: a2 = a2 | a3\n 15591: a2 = a2 << 0x20\n 15594: ra = a2 | a0\n 15597: a0 = u8 [a1 + 0x19]\n 15600: a2 = u8 [a1 + 0x18]\n 15603: a3 = u8 [a1 + 0x1a]\n 15606: a5 = u8 [a1 + 0x1b]\n 15609: a0 = a0 << 0x8\n 15612: a0 = a0 | a2\n 15615: a3 = a3 << 0x10\n 15618: a5 = a5 << 0x18\n 15621: a3 = a3 | a5\n 15624: t0 = a3 | a0\n 15627: a0 = u8 [a1 + 0x9]\n 15630: a2 = u8 [a1 + 0x8]\n 15633: a3 = u8 [a1 + 0xa]\n 15636: a4 = u8 [a1 + 0xb]\n 15639: a0 = a0 << 0x8\n 15642: a0 = a0 | a2\n 15645: a3 = a3 << 0x10\n 15648: a4 = a4 << 0x18\n 15651: a3 = a3 | a4\n 15654: a5 = a3 | a0\n 15657: a2 = u8 [a1 + 0x1d]\n 15660: a3 = u8 [a1 + 0x1c]\n 15663: a4 = u8 [a1 + 0x1e]\n 15666: a0 = u8 [a1 + 0x1f]\n 15669: a2 = a2 << 0x8\n 15672: a2 = a2 | a3\n 15675: a4 = a4 << 0x10\n 15678: a0 = a0 << 0x18\n 15681: a0 = a0 | a4\n 15684: a0 = a0 | a2\n 15687: a2 = u8 [a1 + 0xd]\n 15690: a3 = u8 [a1 + 0xc]\n 15693: a4 = u8 [a1 + 0xe]\n 15696: a1 = u8 [a1 + 0xf]\n 15699: a2 = a2 << 0x8\n 15702: a2 = a2 | a3\n 15705: a4 = a4 << 0x10\n 15708: a1 = a1 << 0x18\n 15711: a1 = a1 | a4\n 15714: a1 = a1 | a2\n 15717: a2 = ra | t1\n 15720: a0 = a0 | a1\n 15723: a1 = a5 | t0\n 15726: a0 = a0 << 0x20\n 15729: a0 = a0 | a1\n 15732: a2 = a2 | a0\n 15735: a2 = a2 >> t2\n 15738: a1 = t2 ^ 0x3f\n 15741: a0 = a0 << 0x1\n 15744: a0 = a0 << a1\n 15747: a1 = u64 [s1 + 0x238]\n 15751: t2 = i32 [a1]\n 15753: a0 = a0 | a2\n 15756: a2 = u64 [s1 + 0x220]\n 15760: a0 = a0 | a2\n 15763: jump @421 if a0 == 0\n      : @420 (gas: 1)\n 15766: jump @639\n      : @421 (gas: 2)\n 15769: a3 = u64 [s1 + 0x230]\n 15773: jump @423 if t2 >u 95\n      : @422 (gas: 2)\n 15777: u32 [a1 + 0] = 0x60\n 15780: fallthrough\n      : @423 (gas: 23)\n 15781: a0 = u64 [a3 + 0x58]\n 15784: a1 = u64 [a3 + 0x50]\n 15787: a2 = u64 [a3 + 0x48]\n 15790: a3 = u64 [a3 + 0x40]\n 15793: a4 = reverse a0\n 15795: u64 [s1 + 0x138] = a4\n 15799: a5 = reverse a1\n 15801: u64 [s1 + 0x130] = a5\n 15805: a1 = reverse a2\n 15807: u64 [s1 + 0x140] = a1\n 15811: a2 = reverse a3\n 15813: u64 [s1 + 0x148] = a2\n 15817: u64 [s1 + 888] = 0\n 15821: u64 [s1 + 880] = 0\n 15825: u64 [s1 + 872] = 0\n 15829: u64 [s1 + 864] = 0x140\n 15835: u64 [s1 + 0x398] = a2\n 15839: u64 [s1 + 0x390] = a1\n 15843: u64 [s1 + 0x388] = a5\n 15847: a0 = s1 + 0x380\n 15851: a1 = s1 + 0x360\n 15855: u64 [s1 + 0x380] = a4\n 15859: ra = 34, jump @1071\n      : @424 [@dyn 17] (gas: 12)\n 15864: a4 = u64 [s1 + 0x138]\n 15868: a1 = u64 [s1 + 0x148]\n 15872: a0 = u64 [s1 + 0x130]\n 15876: a0 = a0 | a1\n 15879: a3 = u64 [s1 + 0x140]\n 15883: a1 = a4 | a3\n 15886: a1 = a1 | a0\n 15889: a1 = a1 >> 0x20\n 15892: a0 = a0 | a3\n 15895: a0 = a0 << 0x20\n 15898: a0 = a0 | a1\n 15901: jump @426 if a0 == 0\n      : @425 (gas: 1)\n 15904: jump @660\n      : @426 (gas: 2)\n 15907: i32 a0 = a4 >> 0x10\n 15910: jump @428 if a0 == 0\n      : @427 (gas: 1)\n 15913: jump @660\n      : @428 (gas: 4)\n 15916: a0 = a4 + 0x15f\n 15920: u64 [s1 + 544] = 0x1ffe0\n 15927: a0 = a0 & 0x1ffe0\n 15932: jump @430 if a0 <=u 65536\n      : @429 (gas: 1)\n 15938: jump @660\n      : @430 (gas: 5)\n 15941: a3 = u64 [s1 + 0x238]\n 15945: a1 = i32 [a3]\n 15947: a2 = u64 [s1 + 0x228]\n 15951: a2 = i32 [a2]\n 15953: jump @432 if a1 >=u a0\n      : @431 (gas: 2)\n 15956: u32 [a3] = a0\n 15958: fallthrough\n      : @432 (gas: 5)\n 15959: a0 = u64 [s1 + 0x230]\n 15963: i32 a0 = a0 + a4\n 15966: a1 = 0x140\n 15970: ecalli 1 // 'call_data_copy'\n 15972: fallthrough\n      : @433 (gas: 3)\n 15973: a2 = u64 [s1 + 0x238]\n 15977: a0 = i32 [a2]\n 15979: jump @435 if a0 >u 95\n      : @434 (gas: 2)\n 15983: u32 [a2 + 0] = 0x60\n 15986: fallthrough\n      : @435 (gas: 24)\n 15987: a3 = u64 [s1 + 0x230]\n 15991: a0 = u64 [a3 + 0x58]\n 15994: a1 = u64 [a3 + 0x50]\n 15997: a2 = u64 [a3 + 0x48]\n 16000: a3 = u64 [a3 + 0x40]\n 16003: a4 = reverse a0\n 16005: u64 [s1 + 0xf0] = a4\n 16009: a1 = reverse a1\n 16011: u64 [s1 + 0x108] = a1\n 16015: a2 = reverse a2\n 16017: u64 [s1 + 0x100] = a2\n 16021: a3 = reverse a3\n 16023: u64 [s1 + 0xf8] = a3\n 16027: u64 [s1 + 824] = 0\n 16031: u64 [s1 + 816] = 0\n 16035: u64 [s1 + 808] = 0\n 16039: u64 [s1 + 800] = 0x140\n 16045: u64 [s1 + 0x358] = a3\n 16049: u64 [s1 + 0x350] = a2\n 16053: u64 [s1 + 0x348] = a1\n 16057: a0 = s1 + 0x340\n 16061: a1 = s1 + 0x320\n 16065: u64 [s1 + 0x340] = a4\n 16069: ra = 36, jump @1071\n      : @436 [@dyn 18] (gas: 12)\n 16074: a4 = u64 [s1 + 0xf0]\n 16078: a2 = u64 [s1 + 0x100]\n 16082: a1 = u64 [s1 + 0xf8]\n 16086: a0 = u64 [s1 + 0x108]\n 16090: a0 = a0 | a1\n 16093: a1 = a4 | a2\n 16096: a1 = a1 | a0\n 16099: a1 = a1 >> 0x20\n 16102: a0 = a0 | a2\n 16105: a0 = a0 << 0x20\n 16108: a0 = a0 | a1\n 16111: jump @438 if a0 == 0\n      : @437 (gas: 1)\n 16114: jump @660\n      : @438 (gas: 2)\n 16117: i32 a0 = a4 >> 0x10\n 16120: jump @440 if a0 == 0\n      : @439 (gas: 1)\n 16123: jump @660\n      : @440 (gas: 4)\n 16126: a0 = a4 + 0x15f\n 16130: a1 = u64 [s1 + 0x220]\n 16134: a0 = a0 & a1\n 16137: jump @442 if a0 <=u 65536\n      : @441 (gas: 1)\n 16143: jump @660\n      : @442 (gas: 5)\n 16146: a3 = u64 [s1 + 0x238]\n 16150: a1 = i32 [a3]\n 16152: a2 = u64 [s1 + 0x228]\n 16156: a2 = i32 [a2]\n 16158: jump @444 if a1 >=u a0\n      : @443 (gas: 2)\n 16161: u32 [a3] = a0\n 16163: fallthrough\n      : @444 (gas: 5)\n 16164: a0 = u64 [s1 + 0x230]\n 16168: i32 a0 = a0 + a4\n 16171: a1 = 0x140\n 16175: ecalli 1 // 'call_data_copy'\n 16177: fallthrough\n      : @445 (gas: 3)\n 16178: a2 = u64 [s1 + 0x238]\n 16182: a0 = i32 [a2]\n 16184: jump @447 if a0 >u 95\n      : @446 (gas: 2)\n 16188: u32 [a2 + 0] = 0x60\n 16191: fallthrough\n      : @447 (gas: 24)\n 16192: a3 = u64 [s1 + 0x230]\n 16196: a0 = u64 [a3 + 0x58]\n 16199: a1 = u64 [a3 + 0x50]\n 16202: a2 = u64 [a3 + 0x48]\n 16205: a3 = u64 [a3 + 0x40]\n 16208: a4 = reverse a0\n 16210: u64 [s1 + 0xe8] = a4\n 16214: a5 = reverse a1\n 16216: u64 [s1 + 0xe0] = a5\n 16220: a1 = reverse a2\n 16222: u64 [s1 + 0xd8] = a1\n 16226: a2 = reverse a3\n 16228: u64 [s1 + 0xd0] = a2\n 16232: u64 [s1 + 760] = 0\n 16236: u64 [s1 + 752] = 0\n 16240: u64 [s1 + 744] = 0\n 16244: u64 [s1 + 736] = 0x40\n 16249: u64 [s1 + 0x318] = a2\n 16253: u64 [s1 + 0x310] = a1\n 16257: u64 [s1 + 0x308] = a5\n 16261: a0 = s1 + 0x300\n 16265: a1 = s1 + 0x2e0\n 16269: u64 [s1 + 0x300] = a4\n 16273: ra = 38, jump @1071\n      : @448 [@dyn 19] (gas: 12)\n 16278: a2 = u64 [s1 + 0xe8]\n 16282: a1 = u64 [s1 + 0xd0]\n 16286: a0 = u64 [s1 + 0xe0]\n 16290: a0 = a0 | a1\n 16293: a3 = u64 [s1 + 0xd8]\n 16297: a1 = a2 | a3\n 16300: a1 = a1 | a0\n 16303: a1 = a1 >> 0x20\n 16306: a0 = a0 | a3\n 16309: a0 = a0 << 0x20\n 16312: a0 = a0 | a1\n 16315: jump @450 if a0 == 0\n      : @449 (gas: 1)\n 16318: jump @660\n      : @450 (gas: 2)\n 16321: i32 a0 = a2 >> 0x10\n 16324: jump @452 if a0 == 0\n      : @451 (gas: 1)\n 16327: jump @660\n      : @452 (gas: 6)\n 16330: a1 = a2 + 0x5f\n 16333: a0 = u64 [s1 + 0x220]\n 16337: u64 [s1 + 0x1e8] = a1\n 16341: a1 = a1 & a0\n 16344: u64 [s1 + 0x158] = a1\n 16348: jump @454 if a1 <=u 65536\n      : @453 (gas: 1)\n 16354: jump @660\n      : @454 (gas: 6)\n 16357: a0 = u64 [s1 + 0x238]\n 16361: a0 = i32 [a0]\n 16363: a1 = u64 [s1 + 0x228]\n 16367: a2 = i32 [a1]\n 16369: a1 = u64 [s1 + 0x158]\n 16373: jump @456 if a0 >=u a1\n      : @455 (gas: 4)\n 16376: a0 = u64 [s1 + 0x238]\n 16380: a1 = u64 [s1 + 0x158]\n 16384: u32 [a0] = a1\n 16386: fallthrough\n      : @456 (gas: 61)\n 16387: a0 = i32 [s1 + 0xe8]\n 16391: a3 = u64 [s1 + 0x230]\n 16395: a1 = a3 + a0\n 16398: u64 [s1 + 0x198] = a1\n 16402: i32 a0 = a0 + a3\n 16405: a1 = 0x40\n 16408: ecalli 1 // 'call_data_copy'\n 16410: a0 = 0x30060\n 16415: u64 [s1 + 528] = 0\n 16419: u64 [s1 + 552] = 0\n 16423: u64 [s1 + 0xa0] = a0\n 16427: a0 = a0 << 0x20\n 16430: a0 = a0 >> 0x20\n 16433: a1 = 0x1800000000\n 16443: a0 = a0 | a1\n 16446: u64 [s1 + 0x98] = a0\n 16450: a0 = s1 + 0x7a0\n 16454: a0 = a0 << 0x20\n 16457: a0 = a0 >> 0x20\n 16460: a1 = s1 + 0x7e0\n 16464: a1 = a1 << 0x20\n 16467: a0 = a0 | a1\n 16470: u64 [s1 + 0x90] = a0\n 16474: a4 = u64 [s1 + 0xe8]\n 16478: i32 a0 = a4 >> 0x5\n 16481: u64 [s1 + 0xa8] = a0\n 16485: a0 = a0 <u 0x7ff\n 16489: a0 = a0 ^ 0x1\n 16492: a2 = u64 [s1 + 0x220]\n 16496: a1 = u64 [s1 + 0x1e8]\n 16500: a1 = a1 & a2\n 16503: u64 [s1 + 0x150] = a1\n 16507: a1 = a1 >u 0x10000\n 16512: a0 = a0 | a1\n 16515: u64 [s1 + 0xb0] = a0\n 16519: a0 = s1 + 0x7c0\n 16523: a0 = a0 << 0x20\n 16526: u64 [s1 + 0x88] = a0\n 16530: a0 = a4 + 0x3f\n 16533: a0 = a0 & a2\n 16536: u64 [s1 + 0x1a0] = a0\n 16540: i32 a0 = a4 + 0x20\n 16543: a1 = u64 [s1 + 0x230]\n 16547: a0 = a0 + a1\n 16550: u64 [s1 + 0x190] = a0\n 16554: a0 = 0x900000000000000\n 16564: u64 [s1 + 0x70] = a0\n 16567: a0 = 0x6400000000\n 16577: u64 [s1 + 0x80] = a0\n 16581: a0 = 0x200000000000000\n 16591: u64 [s1 + 0x1a8] = a0\n 16595: a0 = s1 + 0x1000\n 16599: i32 a0 = a0 + 0xfffffffffffffb60\n 16603: u64 [s1 + 0xc8] = a0\n 16607: a0 = s1 + 0x1000\n 16611: i32 a0 = a0 + 0xfffffffffffffb80\n 16615: u64 [s1 + 0xc0] = a0\n 16619: a0 = s1 + 0x1000\n 16623: i32 a0 = a0 + 0xfffffffffffffba0\n 16627: u64 [s1 + 0xb8] = a0\n 16631: jump @458\n      : @457 (gas: 121)\n 16634: u64 [s1 + 552] = 0\n 16638: t2 = u64 [s1 + 0x1d8]\n 16642: a0 = u8 [t2 + 0x19]\n 16645: a1 = u8 [t2 + 0x18]\n 16648: a2 = u8 [t2 + 0x1a]\n 16651: a3 = u8 [t2 + 0x1b]\n 16654: a0 = a0 << 0x8\n 16657: a0 = a0 | a1\n 16660: a2 = a2 << 0x10\n 16663: a3 = a3 << 0x18\n 16666: a2 = a2 | a3\n 16669: a0 = a0 | a2\n 16672: a1 = u8 [t2 + 0x1d]\n 16675: a2 = u8 [t2 + 0x1c]\n 16678: a3 = u8 [t2 + 0x1e]\n 16681: a4 = u8 [t2 + 0x1f]\n 16684: a1 = a1 << 0x8\n 16687: a1 = a1 | a2\n 16690: a3 = a3 << 0x10\n 16693: a4 = a4 << 0x18\n 16696: a3 = a3 | a4\n 16699: a1 = a1 | a3\n 16702: a1 = a1 << 0x20\n 16705: t0 = a1 | a0\n 16708: a1 = u8 [t2 + 0x11]\n 16711: a2 = u8 [t2 + 0x10]\n 16714: a3 = u8 [t2 + 0x12]\n 16717: a4 = u8 [t2 + 0x13]\n 16720: a1 = a1 << 0x8\n 16723: a1 = a1 | a2\n 16726: a3 = a3 << 0x10\n 16729: a4 = a4 << 0x18\n 16732: a3 = a3 | a4\n 16735: a1 = a1 | a3\n 16738: a2 = u8 [t2 + 0x15]\n 16741: a3 = u8 [t2 + 0x14]\n 16744: a4 = u8 [t2 + 0x16]\n 16747: a5 = u8 [t2 + 0x17]\n 16750: a2 = a2 << 0x8\n 16753: a2 = a2 | a3\n 16756: a4 = a4 << 0x10\n 16759: a5 = a5 << 0x18\n 16762: a4 = a4 | a5\n 16765: a2 = a2 | a4\n 16768: a2 = a2 << 0x20\n 16771: t1 = a2 | a1\n 16774: a2 = u8 [t2 + 0x9]\n 16777: a3 = u8 [t2 + 0x8]\n 16780: a4 = u8 [t2 + 0xa]\n 16783: a5 = u8 [t2 + 0xb]\n 16786: a2 = a2 << 0x8\n 16789: a2 = a2 | a3\n 16792: a4 = a4 << 0x10\n 16795: a5 = a5 << 0x18\n 16798: a4 = a4 | a5\n 16801: a2 = a2 | a4\n 16804: a3 = u8 [t2 + 0xd]\n 16807: a4 = u8 [t2 + 0xc]\n 16810: a5 = u8 [t2 + 0xe]\n 16813: a0 = u8 [t2 + 0xf]\n 16816: a3 = a3 << 0x8\n 16819: a3 = a3 | a4\n 16822: a5 = a5 << 0x10\n 16825: a0 = a0 << 0x18\n 16828: a0 = a0 | a5\n 16831: a0 = a0 | a3\n 16834: a0 = a0 << 0x20\n 16837: a2 = a2 | a0\n 16840: a0 = u8 [t2 + 0x1]\n 16843: a3 = u8 [t2]\n 16845: a4 = u8 [t2 + 0x2]\n 16848: a5 = u8 [t2 + 0x3]\n 16851: a0 = a0 << 0x8\n 16854: a0 = a0 | a3\n 16857: a4 = a4 << 0x10\n 16860: a5 = a5 << 0x18\n 16863: a4 = a4 | a5\n 16866: a0 = a0 | a4\n 16869: a3 = u8 [t2 + 0x5]\n 16872: a4 = u8 [t2 + 0x4]\n 16875: a5 = u8 [t2 + 0x6]\n 16878: a1 = u8 [t2 + 0x7]\n 16881: a3 = a3 << 0x8\n 16884: a3 = a3 | a4\n 16887: a5 = a5 << 0x10\n 16890: a1 = a1 << 0x18\n 16893: a1 = a1 | a5\n 16896: a1 = a1 | a3\n 16899: a1 = a1 << 0x20\n 16902: a0 = a0 | a1\n 16905: a1 = u64 [s1 + 0x1f0]\n 16909: a1 = a1 >> 0x1\n 16912: a4 = u64 [s1 + 0x1c0]\n 16916: a3 = a4 << 0x3f\n 16919: a1 = a1 | a3\n 16922: u64 [s1 + 0x1f0] = a1\n 16926: a1 = a4 >> 0x1\n 16929: a4 = u64 [s1 + 0x1b0]\n 16933: a3 = a4 << 0x3f\n 16936: a1 = a1 | a3\n 16939: u64 [s1 + 0x1c0] = a1\n 16943: a1 = a4 >> 0x1\n 16946: a4 = u64 [s1 + 0x1b8]\n 16950: a3 = a4 << 0x3f\n 16953: a1 = a1 | a3\n 16956: u64 [s1 + 0x1b0] = a1\n 16960: a0 = reverse a0\n 16962: u64 [s1 + 0x1f8] = a0\n 16966: a0 = reverse a2\n 16968: u64 [s1 + 0x200] = a0\n 16972: a0 = reverse t1\n 16974: u64 [s1 + 0x208] = a0\n 16978: a0 = reverse t0\n 16980: u64 [s1 + 0x218] = a0\n 16984: a4 = a4 >> 0x1\n 16987: u64 [s1 + 0x1b8] = a4\n 16991: a0 = u64 [s1 + 0x210]\n 16995: a0 = a0 + 0x1\n 16998: a0 = a0 & 0xff\n 17002: u64 [s1 + 0x210] = a0\n 17006: fallthrough\n      : @458 (gas: 19)\n 17007: a1 = s1 + 0x7ff\n 17011: a1 = a1 + 0x1b9\n 17015: a0 = u64 [s1 + 0x1a8]\n 17019: u64 [a1 + 0x1c0] = a0\n 17023: u64 [a1 + 440] = 0\n 17027: u64 [a1 + 432] = 0\n 17031: u64 [a1 + 424] = 0\n 17035: u64 [a1 + 480] = 0\n 17039: u64 [a1 + 472] = 0\n 17043: u64 [a1 + 464] = 0\n 17047: u64 [a1 + 456] = 0\n 17051: u32 [a1 + 488] = 0x20\n 17056: a2 = 0xffffffffffffffff\n 17059: a0 = 0\n 17061: a1 = u64 [s1 + 0xc8]\n 17065: a3 = u64 [s1 + 0xc0]\n 17069: a4 = u64 [s1 + 0xb8]\n 17073: ecalli 6 // 'get_storage'\n 17075: fallthrough\n      : @459 (gas: 10)\n 17076: t1 = s1 + 0x7ff\n 17080: t1 = t1 + 0x1b9\n 17084: a0 = u8 [t1 + 0x1d3]\n 17088: a5 = u64 [s1 + 0x228]\n 17092: a3 = a5 | a5\n 17095: a4 = u64 [s1 + 0x210]\n 17099: a0 = a4 <u a0\n 17102: a0 = 0 if a5 != 0\n 17104: a0 = 0 if a3 != 0\n 17106: jump @461 if a0 != 0\n      : @460 (gas: 1)\n 17109: jump @661\n      : @461 (gas: 10)\n 17112: a0 = u64 [s1 + 0x1f0]\n 17116: a0 = a0 & 0x1\n 17119: t0 = a4 << 0x38\n 17122: a1 = 0x600000000000000\n 17132: u64 [s1 + 0x1e8] = a1\n 17136: a2 = a4 <u 0xa\n 17139: a1 = u64 [s1 + 0x230]\n 17143: t2 = u64 [s1 + 0x238]\n 17147: u64 [s1 + 0x1e0] = t0\n 17151: jump @481 if a0 != 0\n      : @462 (gas: 9)\n 17155: a0 = a5 >u 0\n 17157: a1 = a2 ^ 0x1\n 17160: a1 = a0 if a5 != 0\n 17163: a0 = a5 >u 0\n 17165: a2 = a5 >u 0\n 17167: a2 = a0 if a5 == 0\n 17170: a2 = a1 if a3 == 0\n 17173: u64 [s1 + 0x228] = a5\n 17177: jump @464 if a2 == 0\n      : @463 (gas: 1)\n 17180: jump @721\n      : @464 (gas: 21)\n 17183: a0 = u64 [s1 + 0x70]\n 17186: a0 = a0 + t0\n 17189: u64 [t1 + 0x1c0] = a0\n 17193: u64 [t1 + 440] = 0\n 17197: u64 [t1 + 432] = 0\n 17201: u64 [t1 + 424] = 0\n 17205: u64 [t1 + 480] = 0\n 17209: u64 [t1 + 472] = 0\n 17213: u64 [t1 + 464] = 0\n 17217: u64 [t1 + 456] = 0\n 17221: u32 [t1 + 488] = 0x20\n 17226: a0 = s1 + 0x1000\n 17230: i32 a1 = a0 + 0xfffffffffffffb60\n 17234: a0 = s1 + 0x1000\n 17238: i32 a3 = a0 + 0xfffffffffffffb80\n 17242: a0 = s1 + 0x1000\n 17246: i32 a4 = a0 + 0xfffffffffffffba0\n 17250: a2 = 0xffffffffffffffff\n 17253: a0 = 0\n 17255: ecalli 6 // 'get_storage'\n 17257: fallthrough\n      : @465 (gas: 38)\n 17258: a2 = u64 [s1 + 0x228]\n 17262: a0 = a2 >> 0x3b\n 17265: a1 = a2 << 0x5\n 17268: t1 = a1 | a0\n 17271: a0 = a2 >> 0x3b\n 17274: a1 = a2 << 0x5\n 17277: ra = a1 | a0\n 17280: a1 = u64 [s1 + 0x210]\n 17284: a0 = a1 >> 0x3b\n 17287: a2 = a2 << 0x5\n 17290: t0 = a2 | a0\n 17293: a0 = a1 << 0x5\n 17296: a1 = u64 [s1 + 0x138]\n 17300: t2 = a1 + a0\n 17303: a3 = t2 <u a1\n 17306: a1 = u64 [s1 + 0x130]\n 17310: a4 = a1 + t0\n 17313: a4 = a4 + a3\n 17316: a5 = a4 ^ a1\n 17319: a2 = a4 <u a1\n 17322: a2 = a3 if a5 == 0\n 17325: a1 = u64 [s1 + 0x140]\n 17329: a3 = a1 + ra\n 17332: a5 = a3 <u a1\n 17335: a1 = u64 [s1 + 0x148]\n 17339: a1 = a1 + t1\n 17342: a1 = a1 + a5\n 17345: a2 = a2 + a3\n 17348: a3 = a2 <u a3\n 17351: a1 = a1 + a3\n 17354: a1 = a1 | a4\n 17357: a3 = t2 | a2\n 17360: a3 = a3 | a1\n 17363: a1 = a1 | a2\n 17366: a3 = a3 >> 0x20\n 17369: a1 = a1 << 0x20\n 17372: a1 = a1 | a3\n 17375: jump @467 if a1 == 0\n      : @466 (gas: 1)\n 17378: jump @660\n      : @467 (gas: 3)\n 17381: i32 a1 = t2 >> 0x10\n 17384: a2 = u64 [s1 + 0x238]\n 17388: jump @469 if a1 == 0\n      : @468 (gas: 1)\n 17391: jump @660\n      : @469 (gas: 4)\n 17394: a1 = t2 + 0x3f\n 17397: a3 = u64 [s1 + 0x220]\n 17401: a3 = a3 & a1\n 17404: jump @471 if a3 <=u 65536\n      : @470 (gas: 1)\n 17410: jump @660\n      : @471 (gas: 5)\n 17413: u64 [s1 + 0x1d8] = t1\n 17417: a4 = i32 [a2]\n 17419: a1 = s1 + 0x7ff\n 17423: a1 = a1 + 0x1b9\n 17427: jump @473 if a4 >=u a3\n      : @472 (gas: 3)\n 17430: u32 [a2] = a3\n 17432: a4 = a3\n 17434: fallthrough\n      : @473 (gas: 102)\n 17435: u64 [s1 + 0x228] = a4\n 17439: a4 = u64 [a1 + 0x1d8]\n 17443: t1 = u64 [a1 + 0x1d0]\n 17447: a1 = u64 [s1 + 0xf0]\n 17451: a5 = a1 + a0\n 17454: a1 = a5 <u a1\n 17457: a3 = u64 [s1 + 0x108]\n 17461: a2 = a3 + t0\n 17464: a2 = a2 + a1\n 17467: u64 [s1 + 0x1d0] = a2\n 17471: a0 = a2 ^ a3\n 17474: a2 = a2 <u a3\n 17477: a2 = a1 if a0 == 0\n 17480: u64 [s1 + 0x188] = a2\n 17484: a3 = s1 + 0x7ff\n 17488: a3 = a3 + 0x1b9\n 17492: a1 = u64 [a3 + 0x1c8]\n 17496: i32 a0 = t2 + 0\n 17498: t2 = a5\n 17500: a2 = u64 [s1 + 0x230]\n 17504: a0 = a0 + a2\n 17507: a5 = t1 >> 0x38\n 17510: u8 [a0 + 0xf] = a5\n 17513: a5 = t1 >> 0x30\n 17516: u8 [a0 + 0xe] = a5\n 17519: a5 = t1 >> 0x28\n 17522: u8 [a0 + 0xd] = a5\n 17525: a5 = t1 >> 0x20\n 17528: u8 [a0 + 0xc] = a5\n 17531: a5 = t1 >> 0x18\n 17534: u8 [a0 + 0xb] = a5\n 17537: a5 = t1 >> 0x10\n 17540: u8 [a0 + 0xa] = a5\n 17543: a5 = t1 >> 0x8\n 17546: u8 [a0 + 0x9] = a5\n 17549: a5 = a1 >> 0x38\n 17552: u8 [a0 + 0x7] = a5\n 17555: a5 = a1 >> 0x30\n 17558: u8 [a0 + 0x6] = a5\n 17561: a5 = a1 >> 0x28\n 17564: u8 [a0 + 0x5] = a5\n 17567: a5 = a1 >> 0x20\n 17570: u8 [a0 + 0x4] = a5\n 17573: a5 = a1 >> 0x18\n 17576: u8 [a0 + 0x3] = a5\n 17579: a5 = a1 >> 0x10\n 17582: u8 [a0 + 0x2] = a5\n 17585: a5 = a1 >> 0x8\n 17588: u8 [a0 + 0x1] = a5\n 17591: a5 = a4 >> 0x38\n 17594: u8 [a0 + 0x17] = a5\n 17597: a5 = a4 >> 0x30\n 17600: u8 [a0 + 0x16] = a5\n 17603: a5 = a4 >> 0x28\n 17606: u8 [a0 + 0x15] = a5\n 17609: a5 = a4 >> 0x20\n 17612: u8 [a0 + 0x14] = a5\n 17615: a5 = a4 >> 0x18\n 17618: u8 [a0 + 0x13] = a5\n 17621: t0 = u64 [a3 + 0x1e0]\n 17625: a5 = a4 >> 0x10\n 17628: u8 [a0 + 0x12] = a5\n 17631: a5 = a4 >> 0x8\n 17634: u8 [a0 + 0x11] = a5\n 17637: a5 = t0 >> 0x38\n 17640: u8 [a0 + 0x1f] = a5\n 17643: a5 = t0 >> 0x30\n 17646: u8 [a0 + 0x1e] = a5\n 17649: a5 = t0 >> 0x28\n 17652: u8 [a0 + 0x1d] = a5\n 17655: a5 = t0 >> 0x20\n 17658: u8 [a0 + 0x1c] = a5\n 17661: a5 = t0 >> 0x18\n 17664: u8 [a0 + 0x1b] = a5\n 17667: a5 = t0 >> 0x10\n 17670: u8 [a0 + 0x1a] = a5\n 17673: a5 = t0 >> 0x8\n 17676: u8 [a0 + 0x19] = a5\n 17679: a2 = u64 [s1 + 0x100]\n 17683: ra = ra + a2\n 17686: a5 = u64 [s1 + 0xf8]\n 17690: a3 = u64 [s1 + 0x1d8]\n 17694: a5 = a5 + a3\n 17697: a2 = ra <u a2\n 17700: a2 = a2 + a5\n 17703: a3 = u64 [s1 + 0x188]\n 17707: a3 = a3 + ra\n 17710: a5 = a3 <u ra\n 17713: a2 = a2 + a5\n 17716: a5 = u64 [s1 + 0x1d0]\n 17720: a2 = a2 | a5\n 17723: a5 = t2 | a3\n 17726: a5 = a5 | a2\n 17729: a2 = a2 | a3\n 17732: a5 = a5 >> 0x20\n 17735: a2 = a2 << 0x20\n 17738: a2 = a2 | a5\n 17741: u8 [a0 + 0x10] = a4\n 17744: u8 [a0 + 0x8] = t1\n 17747: u8 [a0] = a1\n 17749: u8 [a0 + 0x18] = t0\n 17752: jump @475 if a2 == 0\n      : @474 (gas: 1)\n 17755: jump @660\n      : @475 (gas: 4)\n 17758: ra = t2\n 17760: i32 a0 = t2 >> 0x10\n 17763: a5 = u64 [s1 + 0x200]\n 17767: jump @477 if a0 == 0\n      : @476 (gas: 1)\n 17770: jump @660\n      : @477 (gas: 4)\n 17773: a0 = ra + 0x3f\n 17776: a2 = u64 [s1 + 0x220]\n 17780: a0 = a0 & a2\n 17783: jump @479 if a0 <=u 65536\n      : @478 (gas: 1)\n 17789: jump @660\n      : @479 (gas: 20)\n 17792: a2 = 0\n 17794: a1 = reverse a1\n 17796: u64 [s1 + 0x160] = a1\n 17800: a1 = reverse t1\n 17802: u64 [s1 + 0x168] = a1\n 17806: a1 = reverse a4\n 17808: u64 [s1 + 0x170] = a1\n 17812: a1 = reverse t0\n 17814: u64 [s1 + 0x178] = a1\n 17818: a1 = u64 [s1 + 0x218]\n 17822: u64 [s1 + 0x180] = a1\n 17826: a1 = u64 [s1 + 0x208]\n 17830: u64 [s1 + 0x188] = a1\n 17834: u64 [s1 + 0x1d0] = a5\n 17838: a1 = u64 [s1 + 0x1f8]\n 17842: u64 [s1 + 0x1d8] = a1\n 17846: a4 = u64 [s1 + 0x230]\n 17850: a5 = u64 [s1 + 0x238]\n 17854: t1 = u64 [s1 + 0x228]\n 17858: jump @504 if t1 <u a0\n      : @480 (gas: 1)\n 17862: jump @505\n      : @481 (gas: 8)\n 17865: u64 [s1 + 0x1d0] = a2\n 17869: u64 [s1 + 0x1d8] = a3\n 17873: a0 = i32 [t2]\n 17875: u64 [a1 + 16] = 0\n 17878: u64 [a1 + 8] = 0\n 17881: u64 [a1 + 0] = 0\n 17883: u64 [a1 + 0x18] = t0\n 17886: jump @483 if a0 >u 63\n      : @482 (gas: 2)\n 17890: u32 [t2 + 0] = 0x40\n 17893: fallthrough\n      : @483 (gas: 39)\n 17894: u64 [a1 + 48] = 0\n 17897: u64 [a1 + 40] = 0\n 17900: u64 [a1 + 32] = 0\n 17903: a0 = u64 [s1 + 0x1e8]\n 17907: u64 [a1 + 0x38] = a0\n 17910: a0 = sp + 0xffffffffffffffe0\n 17913: a0 = a0 & 0xffffffffffffffe0\n 17916: u64 [s1 + 0x188] = a0\n 17920: sp = a0\n 17922: i32 a2 = a0 + 0\n 17924: a1 = 0x40\n 17927: a0 = u64 [s1 + 0x1c8]\n 17931: ecalli 7 // 'hash_keccak_256'\n 17933: a3 = u64 [s1 + 0x188]\n 17937: a0 = u64 [a3 + 0x18]\n 17940: a1 = u64 [a3 + 0x10]\n 17943: a2 = u64 [a3 + 0x8]\n 17946: a3 = u64 [a3]\n 17948: a4 = s1 + 0x7ff\n 17952: a4 = a4 + 0x1b9\n 17956: u64 [a4 + 0x1c0] = a0\n 17960: u64 [a4 + 0x1b8] = a1\n 17964: u64 [a4 + 0x1b0] = a2\n 17968: u64 [a4 + 0x1a8] = a3\n 17972: u64 [a4 + 480] = 0\n 17976: u64 [a4 + 472] = 0\n 17980: u64 [a4 + 464] = 0\n 17984: u64 [a4 + 456] = 0\n 17988: u32 [a4 + 488] = 0x20\n 17993: a0 = s1 + 0x1000\n 17997: i32 a1 = a0 + 0xfffffffffffffb60\n 18001: a0 = s1 + 0x1000\n 18005: i32 a3 = a0 + 0xfffffffffffffb80\n 18009: a0 = s1 + 0x1000\n 18013: i32 a4 = a0 + 0xfffffffffffffba0\n 18017: a2 = 0xffffffffffffffff\n 18020: a0 = 0\n 18022: ecalli 6 // 'get_storage'\n 18024: fallthrough\n      : @484 (gas: 19)\n 18025: a2 = u64 [s1 + 0x238]\n 18029: a1 = u64 [s1 + 0x230]\n 18033: a3 = s1 + 0x7ff\n 18037: a3 = a3 + 0x1b9\n 18041: a0 = u64 [a3 + 0x1e0]\n 18045: u64 [s1 + 0x180] = a0\n 18049: a0 = u64 [a3 + 0x1d8]\n 18053: u64 [s1 + 0x178] = a0\n 18057: a0 = u64 [a3 + 0x1d0]\n 18061: u64 [s1 + 0x170] = a0\n 18065: a0 = u64 [a3 + 0x1c8]\n 18069: u64 [s1 + 0x168] = a0\n 18073: a0 = i32 [a2]\n 18075: a3 = u64 [s1 + 0x1e0]\n 18079: u64 [a1 + 0x18] = a3\n 18082: u64 [a1 + 16] = 0\n 18085: u64 [a1 + 8] = 0\n 18088: u64 [a1 + 0] = 0\n 18090: jump @486 if a0 >u 63\n      : @485 (gas: 2)\n 18094: u32 [a2 + 0] = 0x40\n 18097: fallthrough\n      : @486 (gas: 39)\n 18098: u64 [a1 + 48] = 0\n 18101: u64 [a1 + 40] = 0\n 18104: u64 [a1 + 32] = 0\n 18107: a0 = u64 [s1 + 0x1e8]\n 18111: u64 [a1 + 0x38] = a0\n 18114: a0 = sp + 0xffffffffffffffe0\n 18117: a0 = a0 & 0xffffffffffffffe0\n 18120: u64 [s1 + 0x188] = a0\n 18124: sp = a0\n 18126: i32 a2 = a0 + 0\n 18128: a1 = 0x40\n 18131: a0 = u64 [s1 + 0x1c8]\n 18135: ecalli 7 // 'hash_keccak_256'\n 18137: a3 = u64 [s1 + 0x188]\n 18141: a0 = u64 [a3 + 0x18]\n 18144: a1 = u64 [a3 + 0x10]\n 18147: a2 = u64 [a3 + 0x8]\n 18150: a3 = u64 [a3]\n 18152: a4 = s1 + 0x7ff\n 18156: a4 = a4 + 0x1b9\n 18160: u64 [a4 + 0x1c0] = a0\n 18164: u64 [a4 + 0x1b8] = a1\n 18168: u64 [a4 + 0x1b0] = a2\n 18172: u64 [a4 + 0x1a8] = a3\n 18176: u64 [a4 + 480] = 0\n 18180: u64 [a4 + 472] = 0\n 18184: u64 [a4 + 464] = 0\n 18188: u64 [a4 + 456] = 0\n 18192: u32 [a4 + 488] = 0x20\n 18197: a0 = s1 + 0x1000\n 18201: i32 a1 = a0 + 0xfffffffffffffb60\n 18205: a0 = s1 + 0x1000\n 18209: i32 a3 = a0 + 0xfffffffffffffb80\n 18213: a0 = s1 + 0x1000\n 18217: i32 a4 = a0 + 0xfffffffffffffba0\n 18221: a2 = 0xffffffffffffffff\n 18224: a0 = 0\n 18226: ecalli 6 // 'get_storage'\n 18228: fallthrough\n      : @487 (gas: 6)\n 18229: a2 = u64 [s1 + 0x228]\n 18233: a1 = u64 [s1 + 0x1d0]\n 18237: a1 = 0 if a2 != 0\n 18239: a0 = u64 [s1 + 0x1d8]\n 18243: a1 = 0 if a0 != 0\n 18245: jump @489 if a1 != 0\n      : @488 (gas: 1)\n 18248: jump @721\n      : @489 (gas: 37)\n 18251: a0 = a2 >> 0x3b\n 18254: a1 = a2 << 0x5\n 18257: a4 = a1 | a0\n 18260: a0 = a2 >> 0x3b\n 18263: a1 = a2 << 0x5\n 18266: t0 = a1 | a0\n 18269: t2 = u64 [s1 + 0x210]\n 18273: a0 = t2 >> 0x3b\n 18276: a1 = a2 << 0x5\n 18279: ra = a1 | a0\n 18282: t1 = t2 << 0x5\n 18285: a0 = u64 [s1 + 0x138]\n 18289: t2 = a0 + t1\n 18292: a2 = t2 <u a0\n 18295: a0 = u64 [s1 + 0x130]\n 18299: a3 = a0 + ra\n 18302: a3 = a3 + a2\n 18305: a5 = a3 ^ a0\n 18308: a0 = a3 <u a0\n 18311: a0 = a2 if a5 == 0\n 18314: a1 = u64 [s1 + 0x140]\n 18318: a2 = a1 + t0\n 18321: a5 = a2 <u a1\n 18324: a1 = u64 [s1 + 0x148]\n 18328: a1 = a1 + a4\n 18331: a1 = a1 + a5\n 18334: a0 = a0 + a2\n 18337: a2 = a0 <u a2\n 18340: a1 = a1 + a2\n 18343: a1 = a1 | a3\n 18346: a2 = t2 | a0\n 18349: a2 = a2 | a1\n 18352: a0 = a0 | a1\n 18355: a2 = a2 >> 0x20\n 18358: a0 = a0 << 0x20\n 18361: a0 = a0 | a2\n 18364: jump @491 if a0 == 0\n      : @490 (gas: 1)\n 18367: jump @660\n      : @491 (gas: 4)\n 18370: i32 a0 = t2 >> 0x10\n 18373: a1 = u64 [s1 + 0x238]\n 18377: a3 = u64 [s1 + 0x108]\n 18381: jump @493 if a0 == 0\n      : @492 (gas: 1)\n 18384: jump @660\n      : @493 (gas: 4)\n 18387: a0 = t2 + 0x3f\n 18390: a2 = u64 [s1 + 0x220]\n 18394: a2 = a2 & a0\n 18397: jump @495 if a2 <=u 65536\n      : @494 (gas: 1)\n 18403: jump @660\n      : @495 (gas: 4)\n 18406: u64 [s1 + 0x1d8] = a4\n 18410: a0 = i32 [a1]\n 18412: u64 [s1 + 0x228] = a0\n 18416: jump @497 if a0 >=u a2\n      : @496 (gas: 3)\n 18419: u32 [a1] = a2\n 18421: u64 [s1 + 0x228] = a2\n 18425: fallthrough\n      : @497 (gas: 100)\n 18426: a0 = s1 + 0x7ff\n 18430: a0 = a0 + 0x1b9\n 18434: a5 = u64 [a0 + 0x1d0]\n 18438: a4 = a0\n 18440: a0 = u64 [s1 + 0xf0]\n 18444: t1 = t1 + a0\n 18447: u64 [s1 + 0x78] = t1\n 18450: a0 = t1 <u a0\n 18453: ra = ra + a3\n 18456: ra = ra + a0\n 18459: a1 = ra ^ a3\n 18462: a2 = ra <u a3\n 18465: a2 = a0 if a1 == 0\n 18468: t1 = a4\n 18470: a3 = u64 [a4 + 0x1c8]\n 18474: i32 a0 = t2 + 0\n 18476: a1 = u64 [s1 + 0x230]\n 18480: a0 = a0 + a1\n 18483: a1 = a5 >> 0x38\n 18486: u8 [a0 + 0xf] = a1\n 18489: a1 = a5 >> 0x30\n 18492: u8 [a0 + 0xe] = a1\n 18495: a1 = a5 >> 0x28\n 18498: u8 [a0 + 0xd] = a1\n 18501: a1 = a5 >> 0x20\n 18504: u8 [a0 + 0xc] = a1\n 18507: a1 = a5 >> 0x18\n 18510: u8 [a0 + 0xb] = a1\n 18513: a1 = a5 >> 0x10\n 18516: u8 [a0 + 0xa] = a1\n 18519: a1 = a5 >> 0x8\n 18522: u8 [a0 + 0x9] = a1\n 18525: a1 = u64 [a4 + 0x1d8]\n 18529: u8 [a0 + 0x8] = a5\n 18532: a4 = a3 >> 0x38\n 18535: u8 [a0 + 0x7] = a4\n 18538: a4 = a3 >> 0x30\n 18541: u8 [a0 + 0x6] = a4\n 18544: a4 = a3 >> 0x28\n 18547: u8 [a0 + 0x5] = a4\n 18550: a4 = a3 >> 0x20\n 18553: u8 [a0 + 0x4] = a4\n 18556: a4 = a3 >> 0x18\n 18559: u8 [a0 + 0x3] = a4\n 18562: a4 = a3 >> 0x10\n 18565: u8 [a0 + 0x2] = a4\n 18568: a4 = a3 >> 0x8\n 18571: u8 [a0 + 0x1] = a4\n 18574: u8 [a0] = a3\n 18576: a3 = a1 >> 0x38\n 18579: u8 [a0 + 0x17] = a3\n 18582: a3 = a1 >> 0x30\n 18585: u8 [a0 + 0x16] = a3\n 18588: a3 = a1 >> 0x28\n 18591: u8 [a0 + 0x15] = a3\n 18594: a3 = a1 >> 0x20\n 18597: u8 [a0 + 0x14] = a3\n 18600: a3 = a1 >> 0x18\n 18603: u8 [a0 + 0x13] = a3\n 18606: a3 = a1 >> 0x10\n 18609: u8 [a0 + 0x12] = a3\n 18612: a4 = u64 [t1 + 0x1e0]\n 18616: u8 [a0 + 0x10] = a1\n 18619: a1 = a1 >> 0x8\n 18622: u8 [a0 + 0x11] = a1\n 18625: a1 = a4 >> 0x38\n 18628: u8 [a0 + 0x1f] = a1\n 18631: a1 = a4 >> 0x30\n 18634: u8 [a0 + 0x1e] = a1\n 18637: a1 = a4 >> 0x28\n 18640: u8 [a0 + 0x1d] = a1\n 18643: a1 = a4 >> 0x20\n 18646: u8 [a0 + 0x1c] = a1\n 18649: a1 = a4 >> 0x18\n 18652: u8 [a0 + 0x1b] = a1\n 18655: a1 = a4 >> 0x10\n 18658: u8 [a0 + 0x1a] = a1\n 18661: a1 = u64 [s1 + 0x100]\n 18665: t0 = t0 + a1\n 18668: a1 = t0 <u a1\n 18671: a3 = u64 [s1 + 0xf8]\n 18675: t1 = u64 [s1 + 0x1d8]\n 18679: t1 = t1 + a3\n 18682: a1 = a1 + t1\n 18685: a2 = a2 + t0\n 18688: a3 = a2 <u t0\n 18691: a1 = a1 + a3\n 18694: a1 = ra | a1\n 18697: a3 = u64 [s1 + 0x78]\n 18700: ra = a3\n 18702: a3 = a3 | a2\n 18705: a3 = a3 | a1\n 18708: a1 = a1 | a2\n 18711: a3 = a3 >> 0x20\n 18714: a1 = a1 << 0x20\n 18717: a1 = a1 | a3\n 18720: u8 [a0 + 0x18] = a4\n 18723: a4 = a4 >> 0x8\n 18726: u8 [a0 + 0x19] = a4\n 18729: jump @499 if a1 == 0\n      : @498 (gas: 1)\n 18732: jump @660\n      : @499 (gas: 6)\n 18735: i32 a0 = ra >> 0x10\n 18738: a4 = u64 [s1 + 0x218]\n 18742: a5 = u64 [s1 + 0x208]\n 18746: t0 = u64 [s1 + 0x1f8]\n 18750: t1 = u64 [s1 + 0x228]\n 18754: jump @501 if a0 == 0\n      : @500 (gas: 1)\n 18757: jump @660\n      : @501 (gas: 4)\n 18760: a0 = ra + 0x3f\n 18763: a1 = u64 [s1 + 0x220]\n 18767: a0 = a0 & a1\n 18770: jump @503 if a0 <=u 65536\n      : @502 (gas: 1)\n 18776: jump @660\n      : @503 (gas: 21)\n 18779: a1 = u64 [s1 + 0x168]\n 18783: a1 = reverse a1\n 18785: u64 [s1 + 0x1d8] = a1\n 18789: a1 = u64 [s1 + 0x170]\n 18793: a1 = reverse a1\n 18795: u64 [s1 + 0x1d0] = a1\n 18799: a1 = u64 [s1 + 0x178]\n 18803: a1 = reverse a1\n 18805: u64 [s1 + 0x188] = a1\n 18809: a1 = u64 [s1 + 0x180]\n 18813: a1 = reverse a1\n 18815: u64 [s1 + 0x180] = a1\n 18819: a2 = 0x100000000000000\n 18829: u64 [s1 + 0x178] = a4\n 18833: u64 [s1 + 0x170] = a5\n 18837: a1 = u64 [s1 + 0x200]\n 18841: u64 [s1 + 0x168] = a1\n 18845: u64 [s1 + 0x160] = t0\n 18849: a4 = u64 [s1 + 0x230]\n 18853: a5 = u64 [s1 + 0x238]\n 18857: jump @505 if t1 >=u a0\n      : @504 (gas: 3)\n 18860: u32 [a5] = a0\n 18862: t1 = a0\n 18864: fallthrough\n      : @505 (gas: 47)\n 18865: i32 a0 = ra + 0\n 18867: a0 = a0 + a4\n 18870: u8 [a0 + 16] = 0\n 18873: u8 [a0 + 15] = 0\n 18876: u8 [a0 + 14] = 0\n 18879: u8 [a0 + 13] = 0\n 18882: u8 [a0 + 12] = 0\n 18885: u8 [a0 + 11] = 0\n 18888: u8 [a0 + 10] = 0\n 18891: u8 [a0 + 9] = 0\n 18894: u8 [a0 + 8] = 0\n 18897: u8 [a0 + 7] = 0\n 18900: u8 [a0 + 6] = 0\n 18903: u8 [a0 + 5] = 0\n 18906: u8 [a0 + 4] = 0\n 18909: u8 [a0 + 3] = 0\n 18912: u8 [a0 + 2] = 0\n 18915: u8 [a0 + 1] = 0\n 18918: u8 [a0 + 0] = 0\n 18920: u8 [a0 + 0x18] = a2\n 18923: u8 [a0 + 23] = 0\n 18926: u8 [a0 + 22] = 0\n 18929: u8 [a0 + 21] = 0\n 18932: u8 [a0 + 20] = 0\n 18935: u8 [a0 + 19] = 0\n 18938: u8 [a0 + 18] = 0\n 18941: u8 [a0 + 17] = 0\n 18944: a1 = a2 >> 0x38\n 18947: u8 [a0 + 0x1f] = a1\n 18950: a1 = a2 >> 0x30\n 18953: u8 [a0 + 0x1e] = a1\n 18956: a1 = a2 >> 0x28\n 18959: u8 [a0 + 0x1d] = a1\n 18962: a1 = a2 >> 0x20\n 18965: u8 [a0 + 0x1c] = a1\n 18968: a1 = a2 >> 0x18\n 18971: u8 [a0 + 0x1b] = a1\n 18974: a1 = a2 >> 0x10\n 18977: u8 [a0 + 0x1a] = a1\n 18980: a2 = a2 >> 0x8\n 18983: u8 [a0 + 0x19] = a2\n 18986: a0 = u64 [s1 + 0x1e0]\n 18990: u64 [a4 + 0x18] = a0\n 18993: u64 [a4 + 0] = 0\n 18995: u64 [a4 + 8] = 0\n 18998: u64 [a4 + 16] = 0\n 19001: jump @507 if t1 >u 63\n      : @506 (gas: 2)\n 19005: u32 [a5 + 0] = 0x40\n 19008: fallthrough\n      : @507 (gas: 45)\n 19009: u64 [a4 + 48] = 0\n 19012: u64 [a4 + 40] = 0\n 19015: u64 [a4 + 32] = 0\n 19018: a0 = u64 [s1 + 0x1e8]\n 19022: u64 [a4 + 0x38] = a0\n 19025: a0 = sp + 0xffffffffffffffe0\n 19028: a0 = a0 & 0xffffffffffffffe0\n 19031: u64 [s1 + 0x228] = a0\n 19035: sp = a0\n 19037: i32 a2 = a0 + 0\n 19039: a1 = 0x40\n 19042: a0 = u64 [s1 + 0x1c8]\n 19046: ecalli 7 // 'hash_keccak_256'\n 19048: a0 = u64 [s1 + 0x228]\n 19052: t0 = u64 [a0]\n 19054: t2 = u64 [a0 + 0x8]\n 19057: a2 = u64 [a0 + 0x10]\n 19060: a3 = u64 [a0 + 0x18]\n 19063: a0 = u64 [s1 + 0x1f8]\n 19067: t1 = reverse a0\n 19069: a0 = u64 [s1 + 0x200]\n 19073: a5 = reverse a0\n 19075: a0 = u64 [s1 + 0x208]\n 19079: a0 = reverse a0\n 19081: a1 = u64 [s1 + 0x218]\n 19085: a4 = reverse a1\n 19087: a1 = s1 + 0x7ff\n 19091: a1 = a1 + 0x1b9\n 19095: u64 [a1 + 0x1c0] = a3\n 19099: u64 [a1 + 0x1b8] = a2\n 19103: u64 [a1 + 0x1b0] = t2\n 19107: u64 [a1 + 0x1a8] = t0\n 19111: u64 [a1 + 0x1e0] = a4\n 19115: u64 [a1 + 0x1d8] = a0\n 19119: u64 [a1 + 0x1d0] = a5\n 19123: u64 [a1 + 0x1c8] = t1\n 19127: a0 = s1 + 0x1000\n 19131: i32 a1 = a0 + 0xfffffffffffffb60\n 19135: a0 = s1 + 0x1000\n 19139: i32 a3 = a0 + 0xfffffffffffffb80\n 19143: a2 = 0xffffffffffffffff\n 19146: a4 = 0x20\n 19149: a0 = 0\n 19151: ecalli 13 // 'set_storage'\n 19153: fallthrough\n      : @508 (gas: 2)\n 19154: a1 = u64 [s1 + 0x1a0]\n 19158: jump @510 if a1 <=u 65536\n      : @509 (gas: 1)\n 19164: jump @660\n      : @510 (gas: 3)\n 19167: a4 = u64 [s1 + 0x238]\n 19171: a0 = i32 [a4]\n 19173: jump @512 if a0 >=u a1\n      : @511 (gas: 3)\n 19176: u32 [a4] = a1\n 19178: a0 = a1\n 19180: fallthrough\n      : @512 (gas: 83)\n 19181: a1 = u64 [s1 + 0xd8]\n 19185: a2 = u64 [s1 + 0xd0]\n 19189: a2 = a2 | a1\n 19192: a1 = 0x100000000\n 19202: u64 [s1 + 0x208] = a1\n 19206: a1 = 0xffffffe0\n 19216: a3 = u64 [s1 + 0xe8]\n 19220: a1 = a3 <u a1\n 19223: a3 = u64 [s1 + 0xe0]\n 19227: a1 = 0 if a3 != 0\n 19229: a1 = 0 if a2 != 0\n 19231: a2 = u64 [s1 + 0x180]\n 19235: a2 = reverse a2\n 19237: a3 = a2 >> 0x38\n 19240: a5 = u64 [s1 + 0x198]\n 19244: u8 [a5 + 0x1f] = a3\n 19247: a3 = a2 >> 0x30\n 19250: u8 [a5 + 0x1e] = a3\n 19253: a3 = a2 >> 0x28\n 19256: u8 [a5 + 0x1d] = a3\n 19259: a3 = a2 >> 0x20\n 19262: u8 [a5 + 0x1c] = a3\n 19265: a3 = a2 >> 0x18\n 19268: u8 [a5 + 0x1b] = a3\n 19271: a3 = a2 >> 0x10\n 19274: u8 [a5 + 0x1a] = a3\n 19277: a3 = u64 [s1 + 0x188]\n 19281: a3 = reverse a3\n 19283: u8 [a5 + 0x18] = a2\n 19286: a2 = a2 >> 0x8\n 19289: u8 [a5 + 0x19] = a2\n 19292: a2 = a3 >> 0x38\n 19295: u8 [a5 + 0x17] = a2\n 19298: a2 = a3 >> 0x30\n 19301: u8 [a5 + 0x16] = a2\n 19304: a2 = a3 >> 0x28\n 19307: u8 [a5 + 0x15] = a2\n 19310: a2 = a3 >> 0x20\n 19313: u8 [a5 + 0x14] = a2\n 19316: a2 = a3 >> 0x18\n 19319: u8 [a5 + 0x13] = a2\n 19322: a2 = a3 >> 0x10\n 19325: u8 [a5 + 0x12] = a2\n 19328: a2 = u64 [s1 + 0x1d0]\n 19332: a2 = reverse a2\n 19334: u8 [a5 + 0x10] = a3\n 19337: a3 = a3 >> 0x8\n 19340: u8 [a5 + 0x11] = a3\n 19343: a3 = a2 >> 0x38\n 19346: u8 [a5 + 0xf] = a3\n 19349: a3 = a2 >> 0x30\n 19352: u8 [a5 + 0xe] = a3\n 19355: a3 = a2 >> 0x28\n 19358: u8 [a5 + 0xd] = a3\n 19361: a3 = a2 >> 0x20\n 19364: u8 [a5 + 0xc] = a3\n 19367: a3 = a2 >> 0x18\n 19370: u8 [a5 + 0xb] = a3\n 19373: a3 = a2 >> 0x10\n 19376: u8 [a5 + 0xa] = a3\n 19379: a3 = u64 [s1 + 0x1d8]\n 19383: a3 = reverse a3\n 19385: u8 [a5 + 0x8] = a2\n 19388: a2 = a2 >> 0x8\n 19391: u8 [a5 + 0x9] = a2\n 19394: a2 = a3 >> 0x38\n 19397: u8 [a5 + 0x7] = a2\n 19400: a2 = a3 >> 0x30\n 19403: u8 [a5 + 0x6] = a2\n 19406: a2 = a3 >> 0x28\n 19409: u8 [a5 + 0x5] = a2\n 19412: a2 = a3 >> 0x20\n 19415: u8 [a5 + 0x4] = a2\n 19418: a2 = a3 >> 0x18\n 19421: u8 [a5 + 0x3] = a2\n 19424: a2 = a3 >> 0x10\n 19427: u8 [a5 + 0x2] = a2\n 19430: u8 [a5] = a3\n 19432: a3 = a3 >> 0x8\n 19435: u8 [a5 + 0x1] = a3\n 19438: t0 = s1 + 0x7ff\n 19442: t0 = t0 + 0x1b9\n 19446: jump @514 if a1 != 0\n      : @513 (gas: 1)\n 19449: jump @660\n      : @514 (gas: 2)\n 19452: a1 = u64 [s1 + 0xb0]\n 19456: jump @516 if a1 == 0\n      : @515 (gas: 1)\n 19459: jump @660\n      : @516 (gas: 2)\n 19462: a1 = u64 [s1 + 0x150]\n 19466: jump @518 if a0 >=u a1\n      : @517 (gas: 3)\n 19469: a0 = u64 [s1 + 0x150]\n 19473: u32 [a4] = a0\n 19475: fallthrough\n      : @518 (gas: 89)\n 19476: a0 = u64 [s1 + 0x160]\n 19480: a0 = reverse a0\n 19482: a1 = u64 [s1 + 0x168]\n 19486: a1 = reverse a1\n 19488: a2 = u64 [s1 + 0x170]\n 19492: a2 = reverse a2\n 19494: a3 = u64 [s1 + 0x178]\n 19498: a3 = reverse a3\n 19500: a5 = u64 [s1 + 0x190]\n 19504: u8 [a5 + 0x18] = a3\n 19507: a4 = a3 >> 0x38\n 19510: u8 [a5 + 0x1f] = a4\n 19513: a4 = a3 >> 0x30\n 19516: u8 [a5 + 0x1e] = a4\n 19519: a4 = a3 >> 0x28\n 19522: u8 [a5 + 0x1d] = a4\n 19525: a4 = a3 >> 0x20\n 19528: u8 [a5 + 0x1c] = a4\n 19531: a4 = a3 >> 0x18\n 19534: u8 [a5 + 0x1b] = a4\n 19537: a4 = a3 >> 0x10\n 19540: u8 [a5 + 0x1a] = a4\n 19543: a3 = a3 >> 0x8\n 19546: u8 [a5 + 0x19] = a3\n 19549: u8 [a5 + 0x10] = a2\n 19552: a3 = a2 >> 0x38\n 19555: u8 [a5 + 0x17] = a3\n 19558: a3 = a2 >> 0x30\n 19561: u8 [a5 + 0x16] = a3\n 19564: a3 = a2 >> 0x28\n 19567: u8 [a5 + 0x15] = a3\n 19570: a3 = a2 >> 0x20\n 19573: u8 [a5 + 0x14] = a3\n 19576: a3 = a2 >> 0x18\n 19579: u8 [a5 + 0x13] = a3\n 19582: a3 = a2 >> 0x10\n 19585: u8 [a5 + 0x12] = a3\n 19588: a2 = a2 >> 0x8\n 19591: u8 [a5 + 0x11] = a2\n 19594: u8 [a5 + 0x8] = a1\n 19597: a2 = a1 >> 0x38\n 19600: u8 [a5 + 0xf] = a2\n 19603: a2 = a1 >> 0x30\n 19606: u8 [a5 + 0xe] = a2\n 19609: a2 = a1 >> 0x28\n 19612: u8 [a5 + 0xd] = a2\n 19615: a2 = a1 >> 0x20\n 19618: u8 [a5 + 0xc] = a2\n 19621: a2 = a1 >> 0x18\n 19624: u8 [a5 + 0xb] = a2\n 19627: a2 = a1 >> 0x10\n 19630: u8 [a5 + 0xa] = a2\n 19633: a1 = a1 >> 0x8\n 19636: u8 [a5 + 0x9] = a1\n 19639: u8 [a5] = a0\n 19641: a1 = a0 >> 0x38\n 19644: u8 [a5 + 0x7] = a1\n 19647: a1 = a0 >> 0x30\n 19650: u8 [a5 + 0x6] = a1\n 19653: a1 = a0 >> 0x28\n 19656: u8 [a5 + 0x5] = a1\n 19659: a1 = a0 >> 0x20\n 19662: u8 [a5 + 0x4] = a1\n 19665: a1 = a0 >> 0x18\n 19668: u8 [a5 + 0x3] = a1\n 19671: a1 = a0 >> 0x10\n 19674: u8 [a5 + 0x2] = a1\n 19677: a0 = a0 >> 0x8\n 19680: u8 [a5 + 0x1] = a0\n 19683: a0 = u64 [s1 + 0x1a8]\n 19687: u64 [t0 + 0x1c0] = a0\n 19691: u64 [t0 + 440] = 0\n 19695: u64 [t0 + 432] = 0\n 19699: u64 [t0 + 424] = 0\n 19703: u64 [t0 + 480] = 0\n 19707: u64 [t0 + 472] = 0\n 19711: u64 [t0 + 464] = 0\n 19715: u64 [t0 + 456] = 0\n 19719: u32 [t0 + 488] = 0x20\n 19724: a0 = s1 + 0x1000\n 19728: i32 a1 = a0 + 0xfffffffffffffb60\n 19732: a0 = s1 + 0x1000\n 19736: i32 a3 = a0 + 0xfffffffffffffb80\n 19740: a0 = s1 + 0x1000\n 19744: i32 a4 = a0 + 0xfffffffffffffba0\n 19748: a2 = 0xffffffffffffffff\n 19751: a0 = 0\n 19753: ecalli 6 // 'get_storage'\n 19755: fallthrough\n      : @519 (gas: 3)\n 19756: t0 = u64 [s1 + 0x238]\n 19760: t2 = i32 [t0]\n 19762: jump @521 if t2 >u 95\n      : @520 (gas: 3)\n 19766: t2 = 0x60\n 19769: u32 [t0] = t2\n 19771: fallthrough\n      : @521 (gas: 19)\n 19772: a0 = u64 [s1 + 0x230]\n 19776: a1 = u64 [a0 + 0x48]\n 19779: a2 = u64 [a0 + 0x58]\n 19782: a3 = u64 [a0 + 0x40]\n 19785: a4 = u64 [a0 + 0x50]\n 19788: a5 = reverse a1\n 19790: a1 = reverse a2\n 19792: ra = reverse a3\n 19794: a3 = a1\n 19796: a1 = reverse a4\n 19798: u64 [s1 + 0x218] = a1\n 19802: a1 = a1 | ra\n 19805: a2 = a3 | a5\n 19808: a2 = a2 | a1\n 19811: a2 = a2 >> 0x20\n 19814: a1 = a1 | a5\n 19817: a1 = a1 << 0x20\n 19820: a1 = a1 | a2\n 19823: jump @523 if a1 == 0\n      : @522 (gas: 1)\n 19826: jump @660\n      : @523 (gas: 4)\n 19829: i32 a1 = a3 >> 0x10\n 19832: a2 = s1 + 0x7ff\n 19836: a2 = a2 + 0x1b9\n 19840: jump @525 if a1 == 0\n      : @524 (gas: 1)\n 19843: jump @660\n      : @525 (gas: 6)\n 19846: a1 = a3 + 0x3f\n 19849: u64 [s1 + 0x228] = a3\n 19853: a3 = u64 [s1 + 0x220]\n 19857: t1 = a1 & a3\n 19860: a3 = u64 [s1 + 0x228]\n 19864: jump @527 if t1 <=u 65536\n      : @526 (gas: 1)\n 19870: jump @660\n      : @527 (gas: 1)\n 19873: jump @529 if t2 >=u t1\n      : @528 (gas: 3)\n 19876: u32 [t0] = t1\n 19878: t2 = t1\n 19880: fallthrough\n      : @529 (gas: 44)\n 19881: a1 = u64 [a2 + 0x1e0]\n 19885: u64 [s1 + 0x188] = a1\n 19889: a1 = u64 [a2 + 0x1d8]\n 19893: u64 [s1 + 0x180] = a1\n 19897: a1 = u64 [a2 + 0x1d0]\n 19901: u64 [s1 + 0x178] = a1\n 19905: i32 a1 = a3 + 0\n 19907: u64 [s1 + 0x200] = a1\n 19911: a1 = a1 + a0\n 19914: u8 [a1 + 31] = 0\n 19917: u8 [a1 + 30] = 0\n 19920: u8 [a1 + 29] = 0\n 19923: u8 [a1 + 28] = 0\n 19926: u8 [a1 + 27] = 0\n 19929: u8 [a1 + 26] = 0\n 19932: u8 [a1 + 25] = 0\n 19935: u8 [a1 + 24] = 0\n 19938: u8 [a1 + 23] = 0\n 19941: u8 [a1 + 22] = 0\n 19944: u8 [a1 + 21] = 0\n 19947: u8 [a1 + 20] = 0\n 19950: u8 [a1 + 19] = 0\n 19953: u8 [a1 + 18] = 0\n 19956: u8 [a1 + 17] = 0\n 19959: u8 [a1 + 16] = 0\n 19962: u8 [a1 + 15] = 0\n 19965: u8 [a1 + 14] = 0\n 19968: u8 [a1 + 13] = 0\n 19971: u8 [a1 + 12] = 0\n 19974: u8 [a1 + 11] = 0\n 19977: u8 [a1 + 10] = 0\n 19980: u8 [a1 + 9] = 0\n 19983: u8 [a1 + 8] = 0\n 19986: u8 [a1 + 7] = 0\n 19989: u8 [a1 + 6] = 0\n 19992: u8 [a1 + 5] = 0\n 19995: u8 [a1 + 4] = 0\n 19998: u8 [a1 + 3] = 0xa4\n 20003: u8 [a1 + 2] = 0xe5\n 20008: u8 [a1 + 1] = 0x22\n 20012: u64 [s1 + 0x1d8] = a1\n 20016: u8 [a1 + 0] = 0xd6\n 20020: a0 = u64 [s1 + 0x1a0]\n 20024: jump @531 if t2 >=u a0\n      : @530 (gas: 3)\n 20027: u32 [t0] = a0\n 20029: t2 = a0\n 20031: fallthrough\n      : @531 (gas: 9)\n 20032: a2 = a5 | ra\n 20035: a1 = u64 [s1 + 0x208]\n 20039: a1 = a1 + 0xfffffffffffffffc\n 20042: a1 = a3 <u a1\n 20045: a0 = u64 [s1 + 0x218]\n 20049: a1 = 0 if a0 != 0\n 20051: u64 [s1 + 0x1f8] = a2\n 20055: a1 = 0 if a2 != 0\n 20057: jump @533 if a1 != 0\n      : @532 (gas: 1)\n 20060: jump @660\n      : @533 (gas: 2)\n 20063: a0 = u64 [s1 + 0x200]\n 20067: jump @535 if a0 <u 65532\n      : @534 (gas: 1)\n 20073: jump @660\n      : @535 (gas: 5)\n 20076: a0 = u64 [s1 + 0x228]\n 20080: a1 = a0 + 0x43\n 20083: a0 = u64 [s1 + 0x220]\n 20087: a1 = a1 & a0\n 20090: jump @537 if a1 <=u 65536\n      : @536 (gas: 1)\n 20096: jump @660\n      : @537 (gas: 3)\n 20099: u64 [s1 + 0x1e0] = ra\n 20103: u64 [s1 + 0x1e8] = a5\n 20107: jump @539 if t2 >=u a1\n      : @538 (gas: 3)\n 20110: u32 [t0] = a1\n 20112: t2 = a1\n 20114: fallthrough\n      : @539 (gas: 155)\n 20115: ra = u64 [s1 + 0x198]\n 20119: a1 = u8 [ra + 0x19]\n 20122: a2 = u8 [ra + 0x18]\n 20125: a3 = u8 [ra + 0x1a]\n 20128: a4 = u8 [ra + 0x1b]\n 20131: a1 = a1 << 0x8\n 20134: a1 = a1 | a2\n 20137: a3 = a3 << 0x10\n 20140: a4 = a4 << 0x18\n 20143: a3 = a3 | a4\n 20146: a1 = a1 | a3\n 20149: a2 = u8 [ra + 0x1d]\n 20152: a3 = u8 [ra + 0x1c]\n 20155: a4 = u8 [ra + 0x1e]\n 20158: a5 = u8 [ra + 0x1f]\n 20161: a2 = a2 << 0x8\n 20164: a2 = a2 | a3\n 20167: a4 = a4 << 0x10\n 20170: a5 = a5 << 0x18\n 20173: a4 = a4 | a5\n 20176: a2 = a2 | a4\n 20179: a2 = a2 << 0x20\n 20182: a3 = a2 | a1\n 20185: a1 = u8 [ra + 0x11]\n 20188: a2 = u8 [ra + 0x10]\n 20191: a4 = u8 [ra + 0x12]\n 20194: a5 = u8 [ra + 0x13]\n 20197: a1 = a1 << 0x8\n 20200: a1 = a1 | a2\n 20203: a4 = a4 << 0x10\n 20206: a5 = a5 << 0x18\n 20209: a4 = a4 | a5\n 20212: a1 = a1 | a4\n 20215: a2 = u8 [ra + 0x15]\n 20218: a4 = u8 [ra + 0x14]\n 20221: a5 = u8 [ra + 0x16]\n 20224: a0 = u8 [ra + 0x17]\n 20227: a2 = a2 << 0x8\n 20230: a2 = a2 | a4\n 20233: a5 = a5 << 0x10\n 20236: a0 = a0 << 0x18\n 20239: a0 = a0 | a5\n 20242: a0 = a0 | a2\n 20245: a0 = a0 << 0x20\n 20248: a1 = a1 | a0\n 20251: a0 = u8 [ra + 0x9]\n 20254: a2 = u8 [ra + 0x8]\n 20257: a4 = u8 [ra + 0xa]\n 20260: a5 = u8 [ra + 0xb]\n 20263: a0 = a0 << 0x8\n 20266: a0 = a0 | a2\n 20269: a4 = a4 << 0x10\n 20272: a5 = a5 << 0x18\n 20275: a4 = a4 | a5\n 20278: t0 = a4 | a0\n 20281: a2 = u8 [ra + 0xd]\n 20284: a4 = u8 [ra + 0xc]\n 20287: a5 = u8 [ra + 0xe]\n 20290: a0 = u8 [ra + 0xf]\n 20293: a2 = a2 << 0x8\n 20296: a2 = a2 | a4\n 20299: a5 = a5 << 0x10\n 20302: a0 = a0 << 0x18\n 20305: a0 = a0 | a5\n 20308: a0 = a0 | a2\n 20311: a0 = a0 << 0x20\n 20314: a2 = a0 | t0\n 20317: t0 = u8 [ra + 0x1]\n 20320: a4 = u8 [ra]\n 20322: a5 = u8 [ra + 0x2]\n 20325: a0 = u8 [ra + 0x3]\n 20328: t0 = t0 << 0x8\n 20331: a4 = t0 | a4\n 20334: a5 = a5 << 0x10\n 20337: a0 = a0 << 0x18\n 20340: a0 = a0 | a5\n 20343: t0 = a0 | a4\n 20346: a4 = u8 [ra + 0x5]\n 20349: a5 = u8 [ra + 0x4]\n 20352: a0 = u8 [ra + 0x6]\n 20355: ra = u8 [ra + 0x7]\n 20358: a4 = a4 << 0x8\n 20361: a4 = a4 | a5\n 20364: a0 = a0 << 0x10\n 20367: ra = ra << 0x18\n 20370: a0 = ra | a0\n 20373: a0 = a0 | a4\n 20376: a0 = a0 << 0x20\n 20379: a0 = a0 | t0\n 20382: a4 = u64 [s1 + 0x228]\n 20386: i32 a4 = a4 + 0x4\n 20389: a5 = u64 [s1 + 0x230]\n 20393: a4 = a4 + a5\n 20396: a5 = a0 >> 0x38\n 20399: u8 [a4 + 0x7] = a5\n 20402: a5 = a0 >> 0x30\n 20405: u8 [a4 + 0x6] = a5\n 20408: a5 = a0 >> 0x28\n 20411: u8 [a4 + 0x5] = a5\n 20414: a5 = a0 >> 0x20\n 20417: u8 [a4 + 0x4] = a5\n 20420: a5 = a0 >> 0x18\n 20423: u8 [a4 + 0x3] = a5\n 20426: a5 = a0 >> 0x10\n 20429: u8 [a4 + 0x2] = a5\n 20432: a5 = a0 >> 0x8\n 20435: u8 [a4 + 0x1] = a5\n 20438: u8 [a4] = a0\n 20440: a0 = a2 >> 0x38\n 20443: u8 [a4 + 0xf] = a0\n 20446: a0 = a2 >> 0x30\n 20449: u8 [a4 + 0xe] = a0\n 20452: a0 = a2 >> 0x28\n 20455: u8 [a4 + 0xd] = a0\n 20458: a0 = a2 >> 0x20\n 20461: u8 [a4 + 0xc] = a0\n 20464: a0 = a2 >> 0x18\n 20467: u8 [a4 + 0xb] = a0\n 20470: a0 = a2 >> 0x10\n 20473: u8 [a4 + 0xa] = a0\n 20476: u8 [a4 + 0x8] = a2\n 20479: a2 = a2 >> 0x8\n 20482: u8 [a4 + 0x9] = a2\n 20485: a0 = a1 >> 0x38\n 20488: u8 [a4 + 0x17] = a0\n 20491: a0 = a1 >> 0x30\n 20494: u8 [a4 + 0x16] = a0\n 20497: a0 = a1 >> 0x28\n 20500: u8 [a4 + 0x15] = a0\n 20503: a0 = a1 >> 0x20\n 20506: u8 [a4 + 0x14] = a0\n 20509: a0 = a1 >> 0x18\n 20512: u8 [a4 + 0x13] = a0\n 20515: a0 = a1 >> 0x10\n 20518: u8 [a4 + 0x12] = a0\n 20521: u8 [a4 + 0x10] = a1\n 20524: a1 = a1 >> 0x8\n 20527: u8 [a4 + 0x11] = a1\n 20530: a0 = a3 >> 0x38\n 20533: u8 [a4 + 0x1f] = a0\n 20536: a0 = a3 >> 0x30\n 20539: u8 [a4 + 0x1e] = a0\n 20542: a0 = a3 >> 0x28\n 20545: u8 [a4 + 0x1d] = a0\n 20548: a0 = a3 >> 0x20\n 20551: u8 [a4 + 0x1c] = a0\n 20554: a0 = a3 >> 0x18\n 20557: u8 [a4 + 0x1b] = a0\n 20560: a0 = a3 >> 0x10\n 20563: u8 [a4 + 0x1a] = a0\n 20566: u8 [a4 + 0x18] = a3\n 20569: a3 = a3 >> 0x8\n 20572: u8 [a4 + 0x19] = a3\n 20575: a0 = u64 [s1 + 0xa8]\n 20579: jump @541 if a0 <=u 2046\n      : @540 (gas: 1)\n 20584: jump @660\n      : @541 (gas: 5)\n 20587: a3 = u64 [s1 + 0x238]\n 20591: a0 = u64 [s1 + 0x158]\n 20595: a1 = u64 [s1 + 0x1e8]\n 20599: a2 = u64 [s1 + 0x1e0]\n 20603: jump @543 if t2 >=u a0\n      : @542 (gas: 3)\n 20606: t2 = u64 [s1 + 0x158]\n 20610: u32 [a3] = t2\n 20612: fallthrough\n      : @543 (gas: 13)\n 20613: a0 = a1 >u 0\n 20615: a1 = a2 >u 0\n 20617: a1 = a0 if a2 == 0\n 20620: a0 = u64 [s1 + 0x208]\n 20624: a0 = a0 + 0xffffffffffffffdb\n 20627: a2 = u64 [s1 + 0x228]\n 20631: a0 = a0 <u a2\n 20634: a5 = u64 [s1 + 0x218]\n 20638: a2 = a5 >u 0\n 20640: a2 = a0 if a5 == 0\n 20643: a0 = u64 [s1 + 0x1f8]\n 20647: a2 = a1 if a0 != 0\n 20650: jump @545 if a2 == 0\n      : @544 (gas: 1)\n 20653: jump @660\n      : @545 (gas: 2)\n 20656: a1 = u64 [s1 + 0x200]\n 20660: jump @547 if a1 <=u 65499\n      : @546 (gas: 1)\n 20666: jump @660\n      : @547 (gas: 5)\n 20669: a0 = u64 [s1 + 0x228]\n 20673: a0 = a0 + 0x63\n 20676: a1 = u64 [s1 + 0x220]\n 20680: a1 = a1 & a0\n 20683: jump @549 if a1 <=u 65536\n      : @548 (gas: 1)\n 20689: jump @660\n      : @549 (gas: 2)\n 20692: u64 [s1 + 0x1d0] = t1\n 20696: jump @551 if t2 >=u a1\n      : @550 (gas: 3)\n 20699: u32 [a3] = a1\n 20701: t2 = a1\n 20703: fallthrough\n      : @551 (gas: 161)\n 20704: t1 = u64 [s1 + 0x190]\n 20708: a0 = u8 [t1 + 0x19]\n 20711: a1 = u8 [t1 + 0x18]\n 20714: a2 = u8 [t1 + 0x1a]\n 20717: a3 = u8 [t1 + 0x1b]\n 20720: a0 = a0 << 0x8\n 20723: a0 = a0 | a1\n 20726: a2 = a2 << 0x10\n 20729: a3 = a3 << 0x18\n 20732: a2 = a2 | a3\n 20735: a0 = a0 | a2\n 20738: a1 = u8 [t1 + 0x1d]\n 20741: a2 = u8 [t1 + 0x1c]\n 20744: a3 = u8 [t1 + 0x1e]\n 20747: a4 = u8 [t1 + 0x1f]\n 20750: a1 = a1 << 0x8\n 20753: a1 = a1 | a2\n 20756: a3 = a3 << 0x10\n 20759: a4 = a4 << 0x18\n 20762: a3 = a3 | a4\n 20765: a1 = a1 | a3\n 20768: a1 = a1 << 0x20\n 20771: ra = a1 | a0\n 20774: a0 = u8 [t1 + 0x11]\n 20777: a1 = u8 [t1 + 0x10]\n 20780: a2 = u8 [t1 + 0x12]\n 20783: a4 = u8 [t1 + 0x13]\n 20786: a0 = a0 << 0x8\n 20789: a0 = a0 | a1\n 20792: a2 = a2 << 0x10\n 20795: a4 = a4 << 0x18\n 20798: a2 = a2 | a4\n 20801: a0 = a0 | a2\n 20804: a1 = u8 [t1 + 0x15]\n 20807: a2 = u8 [t1 + 0x14]\n 20810: a4 = u8 [t1 + 0x16]\n 20813: a5 = u8 [t1 + 0x17]\n 20816: a1 = a1 << 0x8\n 20819: a1 = a1 | a2\n 20822: a4 = a4 << 0x10\n 20825: a5 = a5 << 0x18\n 20828: a4 = a4 | a5\n 20831: a1 = a1 | a4\n 20834: a1 = a1 << 0x20\n 20837: a1 = a1 | a0\n 20840: a0 = u8 [t1 + 0x9]\n 20843: a2 = u8 [t1 + 0x8]\n 20846: a4 = u8 [t1 + 0xa]\n 20849: a5 = u8 [t1 + 0xb]\n 20852: a0 = a0 << 0x8\n 20855: a0 = a0 | a2\n 20858: a4 = a4 << 0x10\n 20861: a5 = a5 << 0x18\n 20864: a4 = a4 | a5\n 20867: a0 = a0 | a4\n 20870: a2 = u8 [t1 + 0xd]\n 20873: a4 = u8 [t1 + 0xc]\n 20876: a5 = u8 [t1 + 0xe]\n 20879: a3 = u8 [t1 + 0xf]\n 20882: a2 = a2 << 0x8\n 20885: a2 = a2 | a4\n 20888: a5 = a5 << 0x10\n 20891: a3 = a3 << 0x18\n 20894: a3 = a3 | a5\n 20897: a2 = a2 | a3\n 20900: a2 = a2 << 0x20\n 20903: a4 = a2 | a0\n 20906: a0 = u8 [t1 + 0x1]\n 20909: a2 = u8 [t1]\n 20911: a3 = u8 [t1 + 0x2]\n 20914: a5 = u8 [t1 + 0x3]\n 20917: a0 = a0 << 0x8\n 20920: a0 = a0 | a2\n 20923: a3 = a3 << 0x10\n 20926: a5 = a5 << 0x18\n 20929: a3 = a3 | a5\n 20932: t0 = a3 | a0\n 20935: a2 = u8 [t1 + 0x5]\n 20938: a3 = u8 [t1 + 0x4]\n 20941: a5 = u8 [t1 + 0x6]\n 20944: a0 = u8 [t1 + 0x7]\n 20947: a2 = a2 << 0x8\n 20950: a2 = a2 | a3\n 20953: a5 = a5 << 0x10\n 20956: a0 = a0 << 0x18\n 20959: a0 = a0 | a5\n 20962: a0 = a0 | a2\n 20965: a0 = a0 << 0x20\n 20968: t0 = a0 | t0\n 20971: a3 = u64 [s1 + 0x228]\n 20975: i32 a2 = a3 + 0x24\n 20978: a0 = u64 [s1 + 0x230]\n 20982: a2 = a2 + a0\n 20985: a0 = a4 >> 0x38\n 20988: u8 [a2 + 0xf] = a0\n 20991: a0 = a4 >> 0x30\n 20994: u8 [a2 + 0xe] = a0\n 20997: a0 = a4 >> 0x28\n 21000: u8 [a2 + 0xd] = a0\n 21003: a0 = a4 >> 0x20\n 21006: u8 [a2 + 0xc] = a0\n 21009: a0 = a4 >> 0x18\n 21012: u8 [a2 + 0xb] = a0\n 21015: a0 = a4 >> 0x10\n 21018: u8 [a2 + 0xa] = a0\n 21021: a0 = a4 >> 0x8\n 21024: u8 [a2 + 0x9] = a0\n 21027: u8 [a2 + 0x8] = a4\n 21030: a0 = t0 >> 0x38\n 21033: u8 [a2 + 0x7] = a0\n 21036: a0 = t0 >> 0x30\n 21039: u8 [a2 + 0x6] = a0\n 21042: a0 = t0 >> 0x28\n 21045: u8 [a2 + 0x5] = a0\n 21048: a0 = t0 >> 0x20\n 21051: u8 [a2 + 0x4] = a0\n 21054: a0 = t0 >> 0x18\n 21057: u8 [a2 + 0x3] = a0\n 21060: a0 = t0 >> 0x10\n 21063: u8 [a2 + 0x2] = a0\n 21066: a0 = t0 >> 0x8\n 21069: u8 [a2 + 0x1] = a0\n 21072: u8 [a2] = t0\n 21074: a0 = a1 >> 0x38\n 21077: u8 [a2 + 0x17] = a0\n 21080: a0 = a1 >> 0x30\n 21083: u8 [a2 + 0x16] = a0\n 21086: a0 = a1 >> 0x28\n 21089: u8 [a2 + 0x15] = a0\n 21092: a0 = a1 >> 0x20\n 21095: u8 [a2 + 0x14] = a0\n 21098: a0 = a1 >> 0x18\n 21101: u8 [a2 + 0x13] = a0\n 21104: a0 = a1 >> 0x10\n 21107: u8 [a2 + 0x12] = a0\n 21110: u8 [a2 + 0x10] = a1\n 21113: a1 = a1 >> 0x8\n 21116: u8 [a2 + 0x11] = a1\n 21119: a0 = ra >> 0x38\n 21122: u8 [a2 + 0x1f] = a0\n 21125: a0 = ra >> 0x30\n 21128: u8 [a2 + 0x1e] = a0\n 21131: a0 = ra >> 0x28\n 21134: u8 [a2 + 0x1d] = a0\n 21137: a0 = ra >> 0x20\n 21140: u8 [a2 + 0x1c] = a0\n 21143: a0 = ra >> 0x18\n 21146: u8 [a2 + 0x1b] = a0\n 21149: a0 = ra >> 0x10\n 21152: u8 [a2 + 0x1a] = a0\n 21155: a0 = u64 [s1 + 0x208]\n 21159: a0 = a0 + 0xffffffffffffffbc\n 21162: a0 = a3 <u a0\n 21165: a1 = u64 [s1 + 0x218]\n 21169: a0 = 0 if a1 != 0\n 21171: a1 = u64 [s1 + 0x1f8]\n 21175: a0 = 0 if a1 != 0\n 21177: u8 [a2 + 0x18] = ra\n 21180: a1 = ra >> 0x8\n 21183: u8 [a2 + 0x19] = a1\n 21186: jump @660 if a0 == 0\n      : @552 (gas: 3)\n 21190: a5 = u64 [s1 + 0x1d0]\n 21194: a1 = u64 [s1 + 0x200]\n 21198: jump @660 if a1 >=u 65468\n      : @553 (gas: 4)\n 21205: a0 = a3 + 0x83\n 21209: a1 = u64 [s1 + 0x220]\n 21213: a1 = a1 & a0\n 21216: jump @660 if a1 >u 65536\n      : @554 (gas: 3)\n 21223: a0 = u64 [s1 + 0x230]\n 21227: a3 = u64 [s1 + 0x238]\n 21231: jump @556 if t2 >=u a1\n      : @555 (gas: 3)\n 21234: u32 [a3] = a1\n 21236: t2 = a1\n 21238: fallthrough\n      : @556 (gas: 86)\n 21239: a1 = u64 [s1 + 0x228]\n 21243: i32 a1 = a1 + 0x44\n 21246: a1 = a1 + a0\n 21249: a4 = u64 [s1 + 0x120]\n 21253: u8 [a1 + 0x8] = a4\n 21256: a2 = u64 [s1 + 0x128]\n 21260: a0 = a2 >> 0x38\n 21263: u8 [a1 + 0x7] = a0\n 21266: a0 = a2 >> 0x30\n 21269: u8 [a1 + 0x6] = a0\n 21272: a0 = a2 >> 0x28\n 21275: u8 [a1 + 0x5] = a0\n 21278: a0 = a2 >> 0x20\n 21281: u8 [a1 + 0x4] = a0\n 21284: a0 = a2 >> 0x18\n 21287: u8 [a1 + 0x3] = a0\n 21290: a0 = a2 >> 0x10\n 21293: u8 [a1 + 0x2] = a0\n 21296: a0 = a2 >> 0x8\n 21299: u8 [a1 + 0x1] = a0\n 21302: u8 [a1] = a2\n 21304: a2 = u64 [s1 + 0x118]\n 21308: u8 [a1 + 0x10] = a2\n 21311: a0 = a4 >> 0x38\n 21314: u8 [a1 + 0xf] = a0\n 21317: a0 = a4 >> 0x30\n 21320: u8 [a1 + 0xe] = a0\n 21323: a0 = a4 >> 0x28\n 21326: u8 [a1 + 0xd] = a0\n 21329: a0 = a4 >> 0x20\n 21332: u8 [a1 + 0xc] = a0\n 21335: a0 = a4 >> 0x18\n 21338: u8 [a1 + 0xb] = a0\n 21341: a0 = a4 >> 0x10\n 21344: u8 [a1 + 0xa] = a0\n 21347: a0 = a4 >> 0x8\n 21350: u8 [a1 + 0x9] = a0\n 21353: a4 = u64 [s1 + 0x110]\n 21357: u8 [a1 + 0x18] = a4\n 21360: a0 = a2 >> 0x38\n 21363: u8 [a1 + 0x17] = a0\n 21366: a0 = a2 >> 0x30\n 21369: u8 [a1 + 0x16] = a0\n 21372: a0 = a2 >> 0x28\n 21375: u8 [a1 + 0x15] = a0\n 21378: a0 = a2 >> 0x20\n 21381: u8 [a1 + 0x14] = a0\n 21384: a0 = a2 >> 0x18\n 21387: u8 [a1 + 0x13] = a0\n 21390: a0 = a2 >> 0x10\n 21393: u8 [a1 + 0x12] = a0\n 21396: a0 = a2 >> 0x8\n 21399: u8 [a1 + 0x11] = a0\n 21402: a0 = a4 >> 0x38\n 21405: u8 [a1 + 0x1f] = a0\n 21408: a0 = a4 >> 0x30\n 21411: u8 [a1 + 0x1e] = a0\n 21414: a0 = a4 >> 0x28\n 21417: u8 [a1 + 0x1d] = a0\n 21420: a0 = a4 >> 0x20\n 21423: u8 [a1 + 0x1c] = a0\n 21426: a0 = a4 >> 0x18\n 21429: u8 [a1 + 0x1b] = a0\n 21432: a0 = a4 >> 0x10\n 21435: u8 [a1 + 0x1a] = a0\n 21438: a0 = a4 >> 0x8\n 21441: u8 [a1 + 0x19] = a0\n 21444: a2 = u64 [s1 + 0x180]\n 21448: a0 = a2 >> 0x20\n 21451: a4 = u64 [s1 + 0x188]\n 21455: a1 = a4 << 0x20\n 21458: a0 = a0 | a1\n 21461: a1 = u64 [s1 + 0x178]\n 21465: a1 = a1 >> 0x20\n 21468: a2 = a2 << 0x20\n 21471: a1 = a1 | a2\n 21474: a2 = u64 [s1 + 0xa0]\n 21478: u64 [a2] = a1\n 21480: a1 = a4 >> 0x20\n 21483: u32 [a2 + 0x10] = a1\n 21486: u64 [a2 + 0x8] = a0\n 21489: u64 [s1 + 1976] = 0\n 21493: u64 [s1 + 1968] = 0\n 21497: u64 [s1 + 1960] = 0\n 21501: u64 [s1 + 1952] = 0\n 21505: jump @558 if t2 >=u a5\n      : @557 (gas: 2)\n 21508: u32 [a3] = a5\n 21510: fallthrough\n      : @558 (gas: 18)\n 21511: u32 [s1 + 1984] = 0x20\n 21516: u64 [s1 + 2040] = 0\n 21520: u64 [s1 + 2032] = 0\n 21524: u64 [s1 + 2024] = 0\n 21528: u64 [s1 + 2016] = 0\n 21532: a0 = u64 [s1 + 0x1d8]\n 21536: a0 = a0 << 0x20\n 21539: a0 = a0 >> 0x20\n 21542: a4 = u64 [s1 + 0x80]\n 21546: a4 = a4 | a0\n 21549: a5 = u64 [s1 + 0x88]\n 21553: a5 = a5 | a0\n 21556: a1 = 0xffffffffffffffff\n 21559: a2 = 0xffffffffffffffff\n 21562: a0 = u64 [s1 + 0x98]\n 21566: a3 = u64 [s1 + 0x90]\n 21570: ecalli 0 // 'call'\n 21571: fallthrough\n      : @559 (gas: 1)\n 21572: jump @561 if a0 == 0\n      : @560 (gas: 1)\n 21575: jump @692\n      : @561 (gas: 2)\n 21578: ecalli 10 // 'return_data_size'\n 21580: fallthrough\n      : @562 (gas: 2)\n 21581: t0 = 0x20\n 21584: jump @564 if a0 >=u t0\n      : @563 (gas: 3)\n 21587: ecalli 10 // 'return_data_size'\n 21589: t0 = a0\n 21591: fallthrough\n      : @564 (gas: 28)\n 21592: a0 = 0\n 21594: a3 = u64 [s1 + 0x1e0]\n 21598: a1 = t0 + 0x1f\n 21601: a2 = a1 <u t0\n 21604: a2 = a2 & 0x1\n 21607: a1 = a1 & 0xffffffffffffffe0\n 21610: t1 = u64 [s1 + 0x228]\n 21614: t1 = t1 + a1\n 21617: a1 = t1 <u a1\n 21620: a4 = u64 [s1 + 0x218]\n 21624: a4 = a4 + a2\n 21627: a4 = a4 + a1\n 21630: a5 = a4 ^ a2\n 21633: a2 = a4 <u a2\n 21636: a2 = a1 if a5 == 0\n 21639: a1 = u64 [s1 + 0x1e8]\n 21643: a5 = a1 + a2\n 21646: a1 = a5 <u a1\n 21649: a1 = a1 + a3\n 21652: a2 = a5 >u 0\n 21654: a3 = a1 >u 0\n 21656: a3 = a2 if a1 == 0\n 21659: t2 = a5 | a1\n 21662: a2 = u64 [s1 + 0x238]\n 21666: ra = i32 [a2]\n 21668: a2 = a4 >u 0\n 21670: a2 = a3 if t2 != 0\n 21673: jump @566 if a2 == 0\n      : @565 (gas: 1)\n 21676: jump @724\n      : @566 (gas: 1)\n 21679: jump @568 if ra >u 95\n      : @567 (gas: 4)\n 21683: ra = 0x60\n 21686: a2 = u64 [s1 + 0x238]\n 21690: u32 [a2] = ra\n 21692: fallthrough\n      : @568 (gas: 17)\n 21693: a1 = reverse a1\n 21695: a2 = reverse a5\n 21697: a3 = reverse a4\n 21699: a4 = reverse t1\n 21701: a5 = u64 [s1 + 0x230]\n 21705: u64 [a5 + 0x58] = a4\n 21708: u64 [a5 + 0x50] = a3\n 21711: u64 [a5 + 0x48] = a2\n 21714: a3 = t0 <u 0x20\n 21717: a3 = a3 ^ 0x1\n 21720: a3 = 0 if a0 != 0\n 21722: a4 = 0\n 21724: a4 = 0 if a0 == 0\n 21726: a0 = 0\n 21728: a4 = a3 if a0 == 0\n 21731: u64 [a5 + 0x40] = a1\n 21734: jump @570 if a4 != 0\n      : @569 (gas: 1)\n 21737: jump @719\n      : @570 (gas: 2)\n 21740: a1 = u64 [s1 + 0x1d0]\n 21744: jump @572 if ra <u a1\n      : @571 (gas: 1)\n 21747: jump @457\n      : @572 (gas: 3)\n 21750: a0 = u64 [s1 + 0x238]\n 21754: u32 [a0] = a1\n 21756: jump @457\n      : @573 (gas: 1)\n 21759: jump @575 if a0 == 3266579172\n      : @574 (gas: 1)\n 21766: jump @732\n      : @575 (gas: 12)\n 21769: a0 = s1 + 0x1000\n 21773: u64 [a0 + 4294965528] = 0\n 21777: a0 = s1 + 0x1000\n 21781: u64 [a0 + 4294965520] = 0\n 21785: a0 = s1 + 0x1000\n 21789: u64 [a0 + 4294965512] = 0\n 21793: a0 = s1 + 0x1000\n 21797: u64 [a0 + 4294965504] = 0\n 21801: a0 = s1 + 0x1000\n 21805: i32 a0 = a0 + 0xfffffffffffff900\n 21809: ecalli 14 // 'value_transferred'\n 21811: fallthrough\n      : @576 (gas: 12)\n 21812: a0 = s1 + 0x1000\n 21816: a0 = u64 [a0 + 0xfffffffffffff910]\n 21820: a1 = s1 + 0x1000\n 21824: a1 = u64 [a1 + 0xfffffffffffff918]\n 21828: a2 = s1 + 0x1000\n 21832: a2 = u64 [a2 + 0xfffffffffffff908]\n 21836: a3 = s1 + 0x1000\n 21840: a3 = u64 [a3 + 0xfffffffffffff900]\n 21844: a1 = a1 | a2\n 21847: a0 = a0 | a3\n 21850: a0 = a0 | a1\n 21853: jump @578 if a0 == 0\n      : @577 (gas: 1)\n 21856: jump @732\n      : @578 (gas: 3)\n 21859: a0 = u64 [s1 + 0x228]\n 21863: a0 = i32 [a0]\n 21865: jump @580 if a0 >u 35\n      : @579 (gas: 1)\n 21869: jump @732\n      : @580 (gas: 5)\n 21872: a0 = s1 + 0x1000\n 21876: i32 a0 = a0 + 0xfffffffffffff920\n 21880: a1 = 0x4\n 21883: ecalli 2 // 'call_data_load'\n 21885: fallthrough\n      : @581 (gas: 20)\n 21886: a0 = s1 + 0x1000\n 21890: a0 = u64 [a0 + 0xfffffffffffff920]\n 21894: a1 = s1 + 0x1000\n 21898: a1 = u64 [a1 + 0xfffffffffffff938]\n 21902: a2 = s1 + 0x1000\n 21906: a2 = u64 [a2 + 0xfffffffffffff930]\n 21910: a3 = s1 + 0x1000\n 21914: a3 = u64 [a3 + 0xfffffffffffff928]\n 21918: a4 = u64 [s1 + 0x238]\n 21922: t0 = i32 [a4]\n 21924: a1 = reverse a1\n 21926: a2 = reverse a2\n 21928: a3 = reverse a3\n 21930: a0 = reverse a0\n 21932: a5 = u64 [s1 + 0x230]\n 21936: u64 [a5 + 0x18] = a0\n 21939: u64 [a5 + 0x10] = a3\n 21942: u64 [a5 + 0x8] = a2\n 21945: u64 [a5] = a1\n 21947: jump @583 if t0 >u 63\n      : @582 (gas: 2)\n 21951: u32 [a4 + 0] = 0x40\n 21954: fallthrough\n      : @583 (gas: 39)\n 21955: u64 [a5 + 48] = 0\n 21958: u64 [a5 + 40] = 0\n 21961: u64 [a5 + 32] = 0\n 21964: a0 = 0x500000000000000\n 21974: u64 [a5 + 0x38] = a0\n 21977: a0 = sp + 0xffffffffffffffe0\n 21980: a2 = a0 & 0xffffffffffffffe0\n 21983: u64 [s1 + 0x228] = a2\n 21987: sp = a2\n 21989: i32 a0 = a5 + 0\n 21991: i32 a2 = a2 + 0\n 21993: a1 = 0x40\n 21996: ecalli 7 // 'hash_keccak_256'\n 21998: a3 = u64 [s1 + 0x228]\n 22002: a0 = u64 [a3 + 0x18]\n 22005: a1 = u64 [a3 + 0x10]\n 22008: a2 = u64 [a3 + 0x8]\n 22011: a3 = u64 [a3]\n 22013: a4 = s1 + 0x7ff\n 22017: a4 = a4 + 0x1b9\n 22021: u64 [a4 + 0x1c0] = a0\n 22025: u64 [a4 + 0x1b8] = a1\n 22029: u64 [a4 + 0x1b0] = a2\n 22033: u64 [a4 + 0x1a8] = a3\n 22037: u64 [a4 + 480] = 0\n 22041: u64 [a4 + 472] = 0\n 22045: u64 [a4 + 464] = 0\n 22049: u64 [a4 + 456] = 0\n 22053: u32 [a4 + 488] = 0x20\n 22058: a0 = s1 + 0x1000\n 22062: i32 a1 = a0 + 0xfffffffffffffb60\n 22066: a0 = s1 + 0x1000\n 22070: i32 a3 = a0 + 0xfffffffffffffb80\n 22074: a0 = s1 + 0x1000\n 22078: i32 a4 = a0 + 0xfffffffffffffba0\n 22082: a2 = 0xffffffffffffffff\n 22085: a0 = 0\n 22087: ecalli 6 // 'get_storage'\n 22089: fallthrough\n      : @584 (gas: 3)\n 22090: a2 = u64 [s1 + 0x238]\n 22094: a1 = i32 [a2]\n 22096: jump @586 if a1 >u 95\n      : @585 (gas: 3)\n 22100: a1 = 0x60\n 22103: u32 [a2] = a1\n 22105: fallthrough\n      : @586 (gas: 17)\n 22106: a4 = u64 [s1 + 0x230]\n 22110: a0 = u64 [a4 + 0x48]\n 22113: a2 = u64 [a4 + 0x58]\n 22116: a3 = u64 [a4 + 0x40]\n 22119: a4 = u64 [a4 + 0x50]\n 22122: a5 = reverse a0\n 22124: a0 = reverse a2\n 22126: a2 = reverse a3\n 22128: a3 = reverse a4\n 22130: a2 = a2 | a3\n 22133: a3 = a0 | a5\n 22136: a3 = a3 | a2\n 22139: a3 = a3 >> 0x20\n 22142: a2 = a2 | a5\n 22145: a2 = a2 << 0x20\n 22148: a2 = a2 | a3\n 22151: jump @660 if a2 != 0\n      : @587 (gas: 2)\n 22155: i32 a2 = a0 >> 0x10\n 22158: jump @660 if a2 != 0\n      : @588 (gas: 3)\n 22162: a2 = a0 + 0x3f\n 22165: a4 = a2 & 0x1ffe0\n 22170: jump @660 if a4 >u 65536\n      : @589 (gas: 5)\n 22177: a3 = s1 + 0x7ff\n 22181: a3 = a3 + 0x1b9\n 22185: a2 = u64 [a3 + 0x1e0]\n 22189: a3 = u64 [a3 + 0x1d8]\n 22193: jump @591 if a1 >=u a4\n      : @590 (gas: 3)\n 22196: a1 = u64 [s1 + 0x238]\n 22200: u32 [a1] = a4\n 22202: fallthrough\n      : @591 (gas: 43)\n 22203: i32 a1 = a0 + 0\n 22205: a4 = u64 [s1 + 0x230]\n 22209: a1 = a1 + a4\n 22212: a4 = 0xffffffffffffff\n 22222: a4 = a4 ^ a2\n 22225: a3 = a4 | ~a3\n 22228: a2 = a2 >> 0x38\n 22231: a2 = a2 >u 0\n 22233: a2 = 0 if a3 == 0\n 22235: u8 [a1 + 30] = 0\n 22238: u8 [a1 + 29] = 0\n 22241: u8 [a1 + 28] = 0\n 22244: u8 [a1 + 27] = 0\n 22247: u8 [a1 + 26] = 0\n 22250: u8 [a1 + 25] = 0\n 22253: u8 [a1 + 24] = 0\n 22256: u8 [a1 + 23] = 0\n 22259: u8 [a1 + 22] = 0\n 22262: u8 [a1 + 21] = 0\n 22265: u8 [a1 + 20] = 0\n 22268: u8 [a1 + 19] = 0\n 22271: u8 [a1 + 18] = 0\n 22274: u8 [a1 + 17] = 0\n 22277: u8 [a1 + 16] = 0\n 22280: u8 [a1 + 15] = 0\n 22283: u8 [a1 + 14] = 0\n 22286: u8 [a1 + 13] = 0\n 22289: u8 [a1 + 12] = 0\n 22292: u8 [a1 + 11] = 0\n 22295: u8 [a1 + 10] = 0\n 22298: u8 [a1 + 9] = 0\n 22301: u8 [a1 + 8] = 0\n 22304: u8 [a1 + 7] = 0\n 22307: u8 [a1 + 6] = 0\n 22310: u8 [a1 + 5] = 0\n 22313: u8 [a1 + 4] = 0\n 22316: u8 [a1 + 3] = 0\n 22319: u8 [a1 + 2] = 0\n 22322: u8 [a1 + 1] = 0\n 22325: u8 [a1 + 0] = 0\n 22327: u8 [a1 + 0x1f] = a2\n 22330: a1 = 0x20\n 22333: ra = 40, jump @8\n      : @592 [@dyn 20] (gas: 5)\n 22338: i32 a1 = a0 + 0\n 22340: a2 = 0x20\n 22343: a0 = 0\n 22345: ecalli 11 // 'seal_return'\n 22347: fallthrough\n      : @593 (gas: 2)\n 22348: ra = u64 [s1 + 0x230]\n 22352: jump @595 if t2 >u 95\n      : @594 (gas: 3)\n 22356: t2 = 0x60\n 22359: u32 [a4] = t2\n 22361: fallthrough\n      : @595 (gas: 16)\n 22362: a0 = u64 [ra + 0x48]\n 22365: a2 = u64 [ra + 0x58]\n 22368: a3 = u64 [ra + 0x40]\n 22371: a1 = u64 [ra + 0x50]\n 22374: a5 = reverse a0\n 22376: a0 = reverse a2\n 22378: a4 = reverse a3\n 22380: a2 = reverse a1\n 22382: a1 = a2 | a4\n 22385: a3 = a0 | a5\n 22388: a3 = a3 | a1\n 22391: a3 = a3 >> 0x20\n 22394: a1 = a1 | a5\n 22397: a1 = a1 << 0x20\n 22400: a1 = a1 | a3\n 22403: jump @660 if a1 != 0\n      : @596 (gas: 2)\n 22407: i32 a1 = a0 >> 0x10\n 22410: jump @660 if a1 != 0\n      : @597 (gas: 4)\n 22414: t1 = 0x1ffe0\n 22419: a1 = a0 + 0x3f\n 22422: a3 = a1 & t1\n 22425: jump @660 if a3 >u 65536\n      : @598 (gas: 1)\n 22432: jump @600 if t2 >=u a3\n      : @599 (gas: 4)\n 22435: a1 = u64 [s1 + 0x238]\n 22439: u32 [a1] = a3\n 22441: t2 = a3\n 22443: fallthrough\n      : @600 (gas: 40)\n 22444: i32 t0 = a0 + 0\n 22446: a3 = ra + t0\n 22449: u8 [a3 + 31] = 0\n 22452: u8 [a3 + 30] = 0\n 22455: u8 [a3 + 29] = 0\n 22458: u8 [a3 + 28] = 0\n 22461: u8 [a3 + 27] = 0\n 22464: u8 [a3 + 26] = 0\n 22467: u8 [a3 + 25] = 0\n 22470: u8 [a3 + 24] = 0\n 22473: u8 [a3 + 23] = 0\n 22476: u8 [a3 + 22] = 0\n 22479: u8 [a3 + 21] = 0\n 22482: u8 [a3 + 20] = 0\n 22485: u8 [a3 + 19] = 0\n 22488: u8 [a3 + 18] = 0\n 22491: u8 [a3 + 17] = 0\n 22494: u8 [a3 + 16] = 0\n 22497: u8 [a3 + 15] = 0\n 22500: u8 [a3 + 14] = 0\n 22503: u8 [a3 + 13] = 0\n 22506: u8 [a3 + 12] = 0\n 22509: u8 [a3 + 11] = 0\n 22512: u8 [a3 + 10] = 0\n 22515: u8 [a3 + 9] = 0\n 22518: u8 [a3 + 8] = 0\n 22521: u8 [a3 + 7] = 0\n 22524: u8 [a3 + 6] = 0\n 22527: u8 [a3 + 5] = 0\n 22530: u8 [a3 + 4] = 0\n 22533: u8 [a3 + 3] = 0xa0\n 22538: u8 [a3 + 2] = 0x79\n 22542: u8 [a3 + 1] = 0xc3\n 22547: a5 = a5 | a4\n 22550: a4 = 0xfffffffc\n 22560: a4 = a0 <u a4\n 22563: a4 = 0 if a2 != 0\n 22565: a4 = 0 if a5 != 0\n 22567: u8 [a3 + 0] = 0x8\n 22570: jump @660 if a4 == 0\n      : @601 (gas: 1)\n 22574: jump @660 if t0 >=u 65532\n      : @602 (gas: 3)\n 22581: a1 = a0 + 0x43\n 22584: a3 = a1 & 0x1ffe0\n 22589: jump @660 if a3 >u 65536\n      : @603 (gas: 3)\n 22596: i32 a1 = t2 + 0\n 22598: i32 a4 = a0 + 0x4\n 22601: jump @605 if a1 >=u a3\n      : @604 (gas: 4)\n 22604: a1 = u64 [s1 + 0x238]\n 22608: u32 [a1] = a3\n 22610: t2 = a3\n 22612: fallthrough\n      : @605 (gas: 38)\n 22613: a3 = ra + a4\n 22616: u8 [a3 + 31] = 0x20\n 22620: u8 [a3 + 30] = 0\n 22623: u8 [a3 + 29] = 0\n 22626: u8 [a3 + 28] = 0\n 22629: u8 [a3 + 27] = 0\n 22632: u8 [a3 + 26] = 0\n 22635: u8 [a3 + 25] = 0\n 22638: u8 [a3 + 24] = 0\n 22641: u8 [a3 + 23] = 0\n 22644: u8 [a3 + 22] = 0\n 22647: u8 [a3 + 21] = 0\n 22650: u8 [a3 + 20] = 0\n 22653: u8 [a3 + 19] = 0\n 22656: u8 [a3 + 18] = 0\n 22659: u8 [a3 + 17] = 0\n 22662: u8 [a3 + 16] = 0\n 22665: u8 [a3 + 15] = 0\n 22668: u8 [a3 + 14] = 0\n 22671: u8 [a3 + 13] = 0\n 22674: u8 [a3 + 12] = 0\n 22677: u8 [a3 + 11] = 0\n 22680: u8 [a3 + 10] = 0\n 22683: u8 [a3 + 9] = 0\n 22686: u8 [a3 + 8] = 0\n 22689: u8 [a3 + 7] = 0\n 22692: u8 [a3 + 6] = 0\n 22695: u8 [a3 + 5] = 0\n 22698: u8 [a3 + 4] = 0\n 22701: u8 [a3 + 3] = 0\n 22704: u8 [a3 + 2] = 0\n 22707: u8 [a3 + 1] = 0\n 22710: a1 = 0xffffffdc\n 22720: a1 = a0 <u a1\n 22723: a1 = 0 if a2 != 0\n 22725: a1 = 0 if a5 != 0\n 22727: u8 [a3 + 0] = 0\n 22729: jump @660 if a1 == 0\n      : @606 (gas: 1)\n 22733: jump @660 if t0 >=u 65500\n      : @607 (gas: 3)\n 22740: a1 = a0 + 0x63\n 22743: a3 = a1 & 0x1ffe0\n 22748: jump @660 if a3 >u 65536\n      : @608 (gas: 3)\n 22755: i32 a1 = t2 + 0\n 22757: i32 a4 = a0 + 0x24\n 22760: jump @610 if a1 >=u a3\n      : @609 (gas: 4)\n 22763: a1 = u64 [s1 + 0x238]\n 22767: u32 [a1] = a3\n 22769: t2 = a3\n 22771: fallthrough\n      : @610 (gas: 38)\n 22772: a3 = ra + a4\n 22775: u8 [a3 + 31] = 0x10\n 22779: u8 [a3 + 30] = 0\n 22782: u8 [a3 + 29] = 0\n 22785: u8 [a3 + 28] = 0\n 22788: u8 [a3 + 27] = 0\n 22791: u8 [a3 + 26] = 0\n 22794: u8 [a3 + 25] = 0\n 22797: u8 [a3 + 24] = 0\n 22800: u8 [a3 + 23] = 0\n 22803: u8 [a3 + 22] = 0\n 22806: u8 [a3 + 21] = 0\n 22809: u8 [a3 + 20] = 0\n 22812: u8 [a3 + 19] = 0\n 22815: u8 [a3 + 18] = 0\n 22818: u8 [a3 + 17] = 0\n 22821: u8 [a3 + 16] = 0\n 22824: u8 [a3 + 15] = 0\n 22827: u8 [a3 + 14] = 0\n 22830: u8 [a3 + 13] = 0\n 22833: u8 [a3 + 12] = 0\n 22836: u8 [a3 + 11] = 0\n 22839: u8 [a3 + 10] = 0\n 22842: u8 [a3 + 9] = 0\n 22845: u8 [a3 + 8] = 0\n 22848: u8 [a3 + 7] = 0\n 22851: u8 [a3 + 6] = 0\n 22854: u8 [a3 + 5] = 0\n 22857: u8 [a3 + 4] = 0\n 22860: u8 [a3 + 3] = 0\n 22863: u8 [a3 + 2] = 0\n 22866: u8 [a3 + 1] = 0\n 22869: a1 = 0xffffffbc\n 22879: a1 = a0 <u a1\n 22882: a1 = 0 if a2 != 0\n 22884: a1 = 0 if a5 != 0\n 22886: u8 [a3 + 0] = 0\n 22888: jump @660 if a1 == 0\n      : @611 (gas: 1)\n 22892: jump @660 if t0 >=u 65468\n      : @612 (gas: 3)\n 22899: a1 = a0 + 0x83\n 22903: a2 = a1 & 0x1ffe0\n 22908: jump @660 if a2 >u 65536\n      : @613 (gas: 2)\n 22915: i32 t2 = t2 + 0\n 22917: jump @615 if t2 >=u a2\n      : @614 (gas: 3)\n 22920: a1 = u64 [s1 + 0x238]\n 22924: u32 [a1] = a2\n 22926: fallthrough\n      : @615 (gas: 40)\n 22927: i32 a1 = a0 + 0x44\n 22930: a2 = u64 [s1 + 0x230]\n 22934: a1 = a1 + a2\n 22937: u8 [a1 + 31] = 0\n 22940: u8 [a1 + 30] = 0\n 22943: u8 [a1 + 29] = 0\n 22946: u8 [a1 + 28] = 0\n 22949: u8 [a1 + 27] = 0\n 22952: u8 [a1 + 26] = 0\n 22955: u8 [a1 + 25] = 0\n 22958: u8 [a1 + 24] = 0\n 22961: u8 [a1 + 23] = 0\n 22964: u8 [a1 + 22] = 0\n 22967: u8 [a1 + 21] = 0\n 22970: u8 [a1 + 20] = 0\n 22973: u8 [a1 + 19] = 0\n 22976: u8 [a1 + 18] = 0\n 22979: u8 [a1 + 17] = 0\n 22982: u8 [a1 + 16] = 0\n 22985: u8 [a1 + 15] = 0x74\n 22989: u8 [a1 + 14] = 0x6e\n 22993: u8 [a1 + 13] = 0x75\n 22997: a4 = 0x6f\n 23000: u8 [a1 + 0xc] = a4\n 23003: u8 [a1 + 11] = 0x6d\n 23007: u8 [a1 + 10] = 0x61\n 23011: u8 [a1 + 9] = 0x2d\n 23015: u8 [a1 + 8] = 0x74\n 23019: u8 [a1 + 7] = 0x63\n 23023: u8 [a1 + 6] = 0x65\n 23027: a5 = 0x72\n 23030: u8 [a1 + 0x5] = a5\n 23033: u8 [a1 + 0x4] = a5\n 23036: u8 [a1 + 0x3] = a4\n 23039: u8 [a1 + 2] = 0x63\n 23043: u8 [a1 + 1] = 0x6e\n 23047: u8 [a1 + 0] = 0x69\n 23050: a1 = 0x64\n 23053: ra = 0x58\n 23056: jump @8\n      : @616 (gas: 3)\n 23059: a1 = u64 [s1 + 0x238]\n 23063: t2 = i32 [a1]\n 23065: jump @618 if t2 >u 95\n      : @617 (gas: 3)\n 23069: t2 = 0x60\n 23072: u32 [a1] = t2\n 23074: fallthrough\n      : @618 (gas: 17)\n 23075: ra = u64 [s1 + 0x230]\n 23079: a0 = u64 [ra + 0x48]\n 23082: a2 = u64 [ra + 0x58]\n 23085: a3 = u64 [ra + 0x40]\n 23088: a1 = u64 [ra + 0x50]\n 23091: a5 = reverse a0\n 23093: a0 = reverse a2\n 23095: a4 = reverse a3\n 23097: a2 = reverse a1\n 23099: a1 = a2 | a4\n 23102: a3 = a0 | a5\n 23105: a3 = a3 | a1\n 23108: a3 = a3 >> 0x20\n 23111: a1 = a1 | a5\n 23114: a1 = a1 << 0x20\n 23117: a1 = a1 | a3\n 23120: jump @660 if a1 != 0\n      : @619 (gas: 2)\n 23124: i32 a1 = a0 >> 0x10\n 23127: jump @660 if a1 != 0\n      : @620 (gas: 4)\n 23131: t1 = 0x1ffe0\n 23136: a1 = a0 + 0x3f\n 23139: a3 = a1 & t1\n 23142: jump @660 if a3 >u 65536\n      : @621 (gas: 1)\n 23149: jump @623 if t2 >=u a3\n      : @622 (gas: 4)\n 23152: a1 = u64 [s1 + 0x238]\n 23156: u32 [a1] = a3\n 23158: t2 = a3\n 23160: fallthrough\n      : @623 (gas: 40)\n 23161: i32 t0 = a0 + 0\n 23163: a3 = ra + t0\n 23166: u8 [a3 + 31] = 0\n 23169: u8 [a3 + 30] = 0\n 23172: u8 [a3 + 29] = 0\n 23175: u8 [a3 + 28] = 0\n 23178: u8 [a3 + 27] = 0\n 23181: u8 [a3 + 26] = 0\n 23184: u8 [a3 + 25] = 0\n 23187: u8 [a3 + 24] = 0\n 23190: u8 [a3 + 23] = 0\n 23193: u8 [a3 + 22] = 0\n 23196: u8 [a3 + 21] = 0\n 23199: u8 [a3 + 20] = 0\n 23202: u8 [a3 + 19] = 0\n 23205: u8 [a3 + 18] = 0\n 23208: u8 [a3 + 17] = 0\n 23211: u8 [a3 + 16] = 0\n 23214: u8 [a3 + 15] = 0\n 23217: u8 [a3 + 14] = 0\n 23220: u8 [a3 + 13] = 0\n 23223: u8 [a3 + 12] = 0\n 23226: u8 [a3 + 11] = 0\n 23229: u8 [a3 + 10] = 0\n 23232: u8 [a3 + 9] = 0\n 23235: u8 [a3 + 8] = 0\n 23238: u8 [a3 + 7] = 0\n 23241: u8 [a3 + 6] = 0\n 23244: u8 [a3 + 5] = 0\n 23247: u8 [a3 + 4] = 0\n 23250: u8 [a3 + 3] = 0xa0\n 23255: u8 [a3 + 2] = 0x79\n 23259: u8 [a3 + 1] = 0xc3\n 23264: a5 = a5 | a4\n 23267: a4 = 0xfffffffc\n 23277: a4 = a0 <u a4\n 23280: a4 = 0 if a2 != 0\n 23282: a4 = 0 if a5 != 0\n 23284: u8 [a3 + 0] = 0x8\n 23287: jump @660 if a4 == 0\n      : @624 (gas: 1)\n 23291: jump @660 if t0 >=u 65532\n      : @625 (gas: 3)\n 23298: a1 = a0 + 0x43\n 23301: a3 = a1 & 0x1ffe0\n 23306: jump @660 if a3 >u 65536\n      : @626 (gas: 2)\n 23313: i32 a4 = a0 + 0x4\n 23316: jump @628 if t2 >=u a3\n      : @627 (gas: 4)\n 23319: a1 = u64 [s1 + 0x238]\n 23323: u32 [a1] = a3\n 23325: t2 = a3\n 23327: fallthrough\n      : @628 (gas: 38)\n 23328: a3 = ra + a4\n 23331: u8 [a3 + 31] = 0x20\n 23335: u8 [a3 + 30] = 0\n 23338: u8 [a3 + 29] = 0\n 23341: u8 [a3 + 28] = 0\n 23344: u8 [a3 + 27] = 0\n 23347: u8 [a3 + 26] = 0\n 23350: u8 [a3 + 25] = 0\n 23353: u8 [a3 + 24] = 0\n 23356: u8 [a3 + 23] = 0\n 23359: u8 [a3 + 22] = 0\n 23362: u8 [a3 + 21] = 0\n 23365: u8 [a3 + 20] = 0\n 23368: u8 [a3 + 19] = 0\n 23371: u8 [a3 + 18] = 0\n 23374: u8 [a3 + 17] = 0\n 23377: u8 [a3 + 16] = 0\n 23380: u8 [a3 + 15] = 0\n 23383: u8 [a3 + 14] = 0\n 23386: u8 [a3 + 13] = 0\n 23389: u8 [a3 + 12] = 0\n 23392: u8 [a3 + 11] = 0\n 23395: u8 [a3 + 10] = 0\n 23398: u8 [a3 + 9] = 0\n 23401: u8 [a3 + 8] = 0\n 23404: u8 [a3 + 7] = 0\n 23407: u8 [a3 + 6] = 0\n 23410: u8 [a3 + 5] = 0\n 23413: u8 [a3 + 4] = 0\n 23416: u8 [a3 + 3] = 0\n 23419: u8 [a3 + 2] = 0\n 23422: u8 [a3 + 1] = 0\n 23425: a1 = 0xffffffdc\n 23435: a1 = a0 <u a1\n 23438: a1 = 0 if a2 != 0\n 23440: a1 = 0 if a5 != 0\n 23442: u8 [a3 + 0] = 0\n 23444: jump @660 if a1 == 0\n      : @629 (gas: 1)\n 23448: jump @660 if t0 >=u 65500\n      : @630 (gas: 3)\n 23455: a1 = a0 + 0x63\n 23458: a3 = a1 & 0x1ffe0\n 23463: jump @660 if a3 >u 65536\n      : @631 (gas: 2)\n 23470: i32 a4 = a0 + 0x24\n 23473: jump @633 if t2 >=u a3\n      : @632 (gas: 4)\n 23476: a1 = u64 [s1 + 0x238]\n 23480: u32 [a1] = a3\n 23482: t2 = a3\n 23484: fallthrough\n      : @633 (gas: 38)\n 23485: a3 = ra + a4\n 23488: u8 [a3 + 31] = 0x13\n 23492: u8 [a3 + 30] = 0\n 23495: u8 [a3 + 29] = 0\n 23498: u8 [a3 + 28] = 0\n 23501: u8 [a3 + 27] = 0\n 23504: u8 [a3 + 26] = 0\n 23507: u8 [a3 + 25] = 0\n 23510: u8 [a3 + 24] = 0\n 23513: u8 [a3 + 23] = 0\n 23516: u8 [a3 + 22] = 0\n 23519: u8 [a3 + 21] = 0\n 23522: u8 [a3 + 20] = 0\n 23525: u8 [a3 + 19] = 0\n 23528: u8 [a3 + 18] = 0\n 23531: u8 [a3 + 17] = 0\n 23534: u8 [a3 + 16] = 0\n 23537: u8 [a3 + 15] = 0\n 23540: u8 [a3 + 14] = 0\n 23543: u8 [a3 + 13] = 0\n 23546: u8 [a3 + 12] = 0\n 23549: u8 [a3 + 11] = 0\n 23552: u8 [a3 + 10] = 0\n 23555: u8 [a3 + 9] = 0\n 23558: u8 [a3 + 8] = 0\n 23561: u8 [a3 + 7] = 0\n 23564: u8 [a3 + 6] = 0\n 23567: u8 [a3 + 5] = 0\n 23570: u8 [a3 + 4] = 0\n 23573: u8 [a3 + 3] = 0\n 23576: u8 [a3 + 2] = 0\n 23579: u8 [a3 + 1] = 0\n 23582: a1 = 0xffffffbc\n 23592: a1 = a0 <u a1\n 23595: a1 = 0 if a2 != 0\n 23597: a1 = 0 if a5 != 0\n 23599: u8 [a3 + 0] = 0\n 23601: jump @660 if a1 == 0\n      : @634 (gas: 1)\n 23605: jump @660 if t0 >=u 65468\n      : @635 (gas: 3)\n 23612: a1 = a0 + 0x83\n 23616: a2 = a1 & 0x1ffe0\n 23621: jump @660 if a2 >u 65536\n      : @636 (gas: 1)\n 23628: jump @638 if t2 >=u a2\n      : @637 (gas: 3)\n 23631: a1 = u64 [s1 + 0x238]\n 23635: u32 [a1] = a2\n 23637: fallthrough\n      : @638 (gas: 41)\n 23638: i32 a1 = a0 + 0x44\n 23641: a2 = u64 [s1 + 0x230]\n 23645: a1 = a1 + a2\n 23648: u8 [a1 + 31] = 0\n 23651: u8 [a1 + 30] = 0\n 23654: u8 [a1 + 29] = 0\n 23657: u8 [a1 + 28] = 0\n 23660: u8 [a1 + 27] = 0\n 23663: u8 [a1 + 26] = 0\n 23666: u8 [a1 + 25] = 0\n 23669: u8 [a1 + 24] = 0\n 23672: u8 [a1 + 23] = 0\n 23675: u8 [a1 + 22] = 0\n 23678: u8 [a1 + 21] = 0\n 23681: u8 [a1 + 20] = 0\n 23684: u8 [a1 + 19] = 0\n 23687: u8 [a1 + 18] = 0x74\n 23691: a4 = 0x6e\n 23694: u8 [a1 + 0x11] = a4\n 23697: t0 = 0x65\n 23700: u8 [a1 + 0x10] = t0\n 23703: u8 [a1 + 15] = 0x6d\n 23707: u8 [a1 + 14] = 0x74\n 23711: u8 [a1 + 13] = 0x69\n 23715: u8 [a1 + 12] = 0x6d\n 23719: u8 [a1 + 11] = 0x6d\n 23723: u8 [a1 + 10] = 0x6f\n 23727: u8 [a1 + 9] = 0x63\n 23731: u8 [a1 + 8] = 0x2d\n 23735: a5 = 0x67\n 23738: u8 [a1 + 0x7] = a5\n 23741: u8 [a1 + 0x6] = a4\n 23744: u8 [a1 + 5] = 0x69\n 23748: u8 [a1 + 4] = 0x74\n 23752: u8 [a1 + 3] = 0x73\n 23756: u8 [a1 + 2] = 0x69\n 23760: u8 [a1 + 1] = 0x78\n 23764: u8 [a1] = t0\n 23766: a1 = 0x64\n 23769: ra = 0x58\n 23772: jump @8\n      : @639 (gas: 2)\n 23775: a5 = u64 [s1 + 0x230]\n 23779: jump @641 if t2 >u 95\n      : @640 (gas: 4)\n 23783: t2 = 0x60\n 23786: a0 = u64 [s1 + 0x238]\n 23790: u32 [a0] = t2\n 23792: fallthrough\n      : @641 (gas: 16)\n 23793: a0 = u64 [a5 + 0x48]\n 23796: a2 = u64 [a5 + 0x58]\n 23799: a3 = u64 [a5 + 0x40]\n 23802: a1 = u64 [a5 + 0x50]\n 23805: a4 = reverse a0\n 23807: a0 = reverse a2\n 23809: a2 = reverse a3\n 23811: t0 = reverse a1\n 23813: a1 = t0 | a2\n 23816: a3 = a0 | a4\n 23819: a3 = a3 | a1\n 23822: a3 = a3 >> 0x20\n 23825: a1 = a1 | a4\n 23828: a1 = a1 << 0x20\n 23831: a1 = a1 | a3\n 23834: jump @660 if a1 != 0\n      : @642 (gas: 2)\n 23838: i32 a1 = a0 >> 0x10\n 23841: jump @660 if a1 != 0\n      : @643 (gas: 4)\n 23845: t1 = 0x1ffe0\n 23850: a1 = a0 + 0x3f\n 23853: a3 = a1 & t1\n 23856: jump @660 if a3 >u 65536\n      : @644 (gas: 1)\n 23863: jump @646 if t2 >=u a3\n      : @645 (gas: 4)\n 23866: a1 = u64 [s1 + 0x238]\n 23870: u32 [a1] = a3\n 23872: t2 = a3\n 23874: fallthrough\n      : @646 (gas: 40)\n 23875: i32 ra = a0 + 0\n 23877: a3 = a5 + ra\n 23880: u8 [a3 + 31] = 0\n 23883: u8 [a3 + 30] = 0\n 23886: u8 [a3 + 29] = 0\n 23889: u8 [a3 + 28] = 0\n 23892: u8 [a3 + 27] = 0\n 23895: u8 [a3 + 26] = 0\n 23898: u8 [a3 + 25] = 0\n 23901: u8 [a3 + 24] = 0\n 23904: u8 [a3 + 23] = 0\n 23907: u8 [a3 + 22] = 0\n 23910: u8 [a3 + 21] = 0\n 23913: u8 [a3 + 20] = 0\n 23916: u8 [a3 + 19] = 0\n 23919: u8 [a3 + 18] = 0\n 23922: u8 [a3 + 17] = 0\n 23925: u8 [a3 + 16] = 0\n 23928: u8 [a3 + 15] = 0\n 23931: u8 [a3 + 14] = 0\n 23934: u8 [a3 + 13] = 0\n 23937: u8 [a3 + 12] = 0\n 23940: u8 [a3 + 11] = 0\n 23943: u8 [a3 + 10] = 0\n 23946: u8 [a3 + 9] = 0\n 23949: u8 [a3 + 8] = 0\n 23952: u8 [a3 + 7] = 0\n 23955: u8 [a3 + 6] = 0\n 23958: u8 [a3 + 5] = 0\n 23961: u8 [a3 + 4] = 0\n 23964: u8 [a3 + 3] = 0xa0\n 23969: u8 [a3 + 2] = 0x79\n 23973: u8 [a3 + 1] = 0xc3\n 23978: a2 = a2 | a4\n 23981: a4 = 0xfffffffc\n 23991: a4 = a0 <u a4\n 23994: a4 = 0 if t0 != 0\n 23996: a4 = 0 if a2 != 0\n 23998: u8 [a3 + 0] = 0x8\n 24001: jump @660 if a4 == 0\n      : @647 (gas: 1)\n 24005: jump @660 if ra >=u 65532\n      : @648 (gas: 3)\n 24012: a1 = a0 + 0x43\n 24015: a3 = a1 & 0x1ffe0\n 24020: jump @660 if a3 >u 65536\n      : @649 (gas: 3)\n 24027: i32 a1 = t2 + 0\n 24029: i32 a4 = a0 + 0x4\n 24032: jump @651 if a1 >=u a3\n      : @650 (gas: 4)\n 24035: a1 = u64 [s1 + 0x238]\n 24039: u32 [a1] = a3\n 24041: t2 = a3\n 24043: fallthrough\n      : @651 (gas: 38)\n 24044: a3 = a5 + a4\n 24047: u8 [a3 + 31] = 0x20\n 24051: u8 [a3 + 30] = 0\n 24054: u8 [a3 + 29] = 0\n 24057: u8 [a3 + 28] = 0\n 24060: u8 [a3 + 27] = 0\n 24063: u8 [a3 + 26] = 0\n 24066: u8 [a3 + 25] = 0\n 24069: u8 [a3 + 24] = 0\n 24072: u8 [a3 + 23] = 0\n 24075: u8 [a3 + 22] = 0\n 24078: u8 [a3 + 21] = 0\n 24081: u8 [a3 + 20] = 0\n 24084: u8 [a3 + 19] = 0\n 24087: u8 [a3 + 18] = 0\n 24090: u8 [a3 + 17] = 0\n 24093: u8 [a3 + 16] = 0\n 24096: u8 [a3 + 15] = 0\n 24099: u8 [a3 + 14] = 0\n 24102: u8 [a3 + 13] = 0\n 24105: u8 [a3 + 12] = 0\n 24108: u8 [a3 + 11] = 0\n 24111: u8 [a3 + 10] = 0\n 24114: u8 [a3 + 9] = 0\n 24117: u8 [a3 + 8] = 0\n 24120: u8 [a3 + 7] = 0\n 24123: u8 [a3 + 6] = 0\n 24126: u8 [a3 + 5] = 0\n 24129: u8 [a3 + 4] = 0\n 24132: u8 [a3 + 3] = 0\n 24135: u8 [a3 + 2] = 0\n 24138: u8 [a3 + 1] = 0\n 24141: a1 = 0xffffffdc\n 24151: a1 = a0 <u a1\n 24154: a1 = 0 if t0 != 0\n 24156: a1 = 0 if a2 != 0\n 24158: u8 [a3 + 0] = 0\n 24160: jump @660 if a1 == 0\n      : @652 (gas: 1)\n 24164: jump @660 if ra >=u 65500\n      : @653 (gas: 3)\n 24171: a1 = a0 + 0x63\n 24174: a3 = a1 & 0x1ffe0\n 24179: jump @660 if a3 >u 65536\n      : @654 (gas: 3)\n 24186: i32 a1 = t2 + 0\n 24188: i32 a4 = a0 + 0x24\n 24191: jump @656 if a1 >=u a3\n      : @655 (gas: 4)\n 24194: a1 = u64 [s1 + 0x238]\n 24198: u32 [a1] = a3\n 24200: t2 = a3\n 24202: fallthrough\n      : @656 (gas: 39)\n 24203: a3 = u64 [s1 + 0x230]\n 24207: a3 = a3 + a4\n 24210: u8 [a3 + 31] = 0x9\n 24214: u8 [a3 + 30] = 0\n 24217: u8 [a3 + 29] = 0\n 24220: u8 [a3 + 28] = 0\n 24223: u8 [a3 + 27] = 0\n 24226: u8 [a3 + 26] = 0\n 24229: u8 [a3 + 25] = 0\n 24232: u8 [a3 + 24] = 0\n 24235: u8 [a3 + 23] = 0\n 24238: u8 [a3 + 22] = 0\n 24241: u8 [a3 + 21] = 0\n 24244: u8 [a3 + 20] = 0\n 24247: u8 [a3 + 19] = 0\n 24250: u8 [a3 + 18] = 0\n 24253: u8 [a3 + 17] = 0\n 24256: u8 [a3 + 16] = 0\n 24259: u8 [a3 + 15] = 0\n 24262: u8 [a3 + 14] = 0\n 24265: u8 [a3 + 13] = 0\n 24268: u8 [a3 + 12] = 0\n 24271: u8 [a3 + 11] = 0\n 24274: u8 [a3 + 10] = 0\n 24277: u8 [a3 + 9] = 0\n 24280: u8 [a3 + 8] = 0\n 24283: u8 [a3 + 7] = 0\n 24286: u8 [a3 + 6] = 0\n 24289: u8 [a3 + 5] = 0\n 24292: u8 [a3 + 4] = 0\n 24295: u8 [a3 + 3] = 0\n 24298: u8 [a3 + 2] = 0\n 24301: u8 [a3 + 1] = 0\n 24304: a1 = 0xffffffbc\n 24314: a1 = a0 <u a1\n 24317: a1 = 0 if t0 != 0\n 24319: a1 = 0 if a2 != 0\n 24321: u8 [a3 + 0] = 0\n 24323: jump @660 if a1 == 0\n      : @657 (gas: 1)\n 24326: jump @660 if ra >=u 65468\n      : @658 (gas: 3)\n 24332: a1 = a0 + 0x83\n 24336: a2 = a1 & 0x1ffe0\n 24341: jump @660 if a2 >u 65536\n      : @659 (gas: 1)\n 24347: jump @986\n      : @660 (gas: 1)\n 24350: trap\n      : @661 (gas: 20)\n 24351: a0 = u64 [s1 + 0x238]\n 24355: a0 = i32 [a0]\n 24357: a1 = u64 [s1 + 0x1f8]\n 24361: a4 = reverse a1\n 24363: a1 = u64 [s1 + 0x200]\n 24367: a5 = reverse a1\n 24369: a1 = u64 [s1 + 0x208]\n 24373: a3 = reverse a1\n 24375: a1 = u64 [s1 + 0x218]\n 24379: a1 = reverse a1\n 24381: a2 = u64 [s1 + 0x230]\n 24385: u64 [s1 + 0x210] = a1\n 24389: u64 [a2 + 0x18] = a1\n 24392: u64 [s1 + 0x208] = a3\n 24396: u64 [a2 + 0x10] = a3\n 24399: u64 [s1 + 0x1e0] = a5\n 24403: u64 [a2 + 0x8] = a5\n 24406: u64 [s1 + 0x200] = a4\n 24410: u64 [a2] = a4\n 24412: jump @663 if a0 >u 63\n      : @662 (gas: 3)\n 24416: a1 = u64 [s1 + 0x238]\n 24420: u32 [a1 + 0] = 0x40\n 24423: fallthrough\n      : @663 (gas: 34)\n 24424: a1 = u64 [s1 + 0x230]\n 24428: u64 [a1 + 48] = 0\n 24431: u64 [a1 + 40] = 0\n 24434: u64 [a1 + 32] = 0\n 24437: a0 = 0x500000000000000\n 24447: u64 [a1 + 0x38] = a0\n 24450: a0 = sp + 0xffffffffffffffe0\n 24453: a0 = a0 & 0xffffffffffffffe0\n 24456: u64 [s1 + 0x228] = a0\n 24460: sp = a0\n 24462: a0 = sp + 0xffffffffffffffe0\n 24465: a0 = a0 & 0xffffffffffffffe0\n 24468: u64 [s1 + 0x218] = a0\n 24472: sp = a0\n 24474: i32 a2 = a0 + 0\n 24476: a1 = 0x40\n 24479: a0 = u64 [s1 + 0x1c8]\n 24483: ecalli 7 // 'hash_keccak_256'\n 24485: a3 = u64 [s1 + 0x218]\n 24489: a0 = u64 [a3 + 0x18]\n 24492: a1 = u64 [a3 + 0x10]\n 24495: a2 = u64 [a3 + 0x8]\n 24498: a3 = u64 [a3]\n 24500: a0 = reverse a0\n 24502: a4 = reverse a1\n 24504: a2 = reverse a2\n 24506: a3 = reverse a3\n 24508: a1 = u64 [s1 + 0x228]\n 24512: u64 [a1 + 0x18] = a3\n 24515: u64 [a1 + 0x10] = a2\n 24518: u64 [a1 + 0x8] = a4\n 24521: u64 [a1] = a0\n 24523: a0 = s1 + 0x2c0\n 24527: ra = 42, jump @0\n      : @664 [@dyn 21] (gas: 18)\n 24532: a0 = u64 [s1 + 0x2c0]\n 24536: a1 = u64 [s1 + 0x2c8]\n 24540: a2 = u64 [s1 + 0x2d8]\n 24544: a3 = u64 [s1 + 0x2d0]\n 24548: a0 = a0 & 0xffffffffffffff00\n 24552: a0 = a0 | 0x1\n 24555: a4 = s1 + 0x1000\n 24559: u64 [a4 + 0xfffffffffffff838] = a2\n 24563: a2 = s1 + 0x1000\n 24567: u64 [a2 + 0xfffffffffffff830] = a3\n 24571: a2 = s1 + 0x1000\n 24575: u64 [a2 + 0xfffffffffffff828] = a1\n 24579: a1 = s1 + 0x1000\n 24583: u64 [a1 + 0xfffffffffffff820] = a0\n 24587: a1 = s1 + 0x7ff\n 24591: a1 = a1 + 0x21\n 24594: a0 = u64 [s1 + 0x228]\n 24598: ra = 44, jump @1\n      : @665 [@dyn 22] (gas: 12)\n 24603: a0 = s1 + 0x1000\n 24607: u64 [a0 + 4294965336] = 0\n 24611: a0 = s1 + 0x1000\n 24615: u64 [a0 + 4294965328] = 0\n 24619: a0 = s1 + 0x1000\n 24623: u64 [a0 + 4294965320] = 0\n 24627: a1 = s1 + 0x1000\n 24631: u64 [a1 + 4294965312] = 0x4\n 24636: a0 = s1 + 0x2a0\n 24640: a1 = s1 + 0x7ff\n 24644: a1 = a1 + 0x41\n 24647: ra = 46, jump @0\n      : @666 [@dyn 23] (gas: 23)\n 24652: a0 = u64 [s1 + 0x2b8]\n 24656: a2 = u64 [s1 + 0x2b0]\n 24660: a3 = u64 [s1 + 0x2a8]\n 24664: a4 = u64 [s1 + 0x2a0]\n 24668: a1 = sp + 0xffffffffffffffe0\n 24671: a1 = a1 & 0xffffffffffffffe0\n 24674: sp = a1\n 24676: a4 = a4 + 0x1\n 24679: a5 = a4 <u 0x1\n 24682: a3 = a3 + a5\n 24685: a5 = a4 | a3\n 24688: a5 = a5 <u 0x1\n 24691: a5 = a5 + a2\n 24694: a2 = a5 <u a2\n 24697: a0 = a0 + a2\n 24700: u64 [a1 + 0x10] = a5\n 24703: u64 [a1 + 0x8] = a3\n 24706: u64 [a1] = a4\n 24708: a3 = a3 | a0\n 24711: a4 = a4 | a5\n 24714: a3 = a3 | a4\n 24717: u64 [a1 + 0x18] = a0\n 24720: jump @668 if a3 != 0\n      : @667 (gas: 1)\n 24723: jump @991\n      : @668 (gas: 11)\n 24726: a0 = s1 + 0x1000\n 24730: u64 [a0 + 4294965368] = 0\n 24734: a0 = s1 + 0x1000\n 24738: u64 [a0 + 4294965360] = 0\n 24742: a0 = s1 + 0x1000\n 24746: u64 [a0 + 4294965352] = 0\n 24750: a2 = s1 + 0x1000\n 24754: u64 [a2 + 4294965344] = 0x4\n 24759: a0 = s1 + 0x7ff\n 24763: a0 = a0 + 0x61\n 24766: ra = 48, jump @1\n      : @669 [@dyn 24] (gas: 12)\n 24771: a0 = u64 [s1 + 0x238]\n 24775: a0 = i32 [a0]\n 24777: a2 = u64 [s1 + 0x230]\n 24781: a1 = u64 [s1 + 0x110]\n 24785: u64 [a2 + 0x18] = a1\n 24788: a1 = u64 [s1 + 0x118]\n 24792: u64 [a2 + 0x10] = a1\n 24795: a1 = u64 [s1 + 0x120]\n 24799: u64 [a2 + 0x8] = a1\n 24802: a3 = u64 [s1 + 0x128]\n 24806: u64 [a2] = a3\n 24808: jump @671 if a0 >u 63\n      : @670 (gas: 3)\n 24812: a1 = u64 [s1 + 0x238]\n 24816: u32 [a1 + 0] = 0x40\n 24819: fallthrough\n      : @671 (gas: 34)\n 24820: a1 = u64 [s1 + 0x230]\n 24824: u64 [a1 + 48] = 0\n 24827: u64 [a1 + 40] = 0\n 24830: u64 [a1 + 32] = 0\n 24833: a0 = 0x800000000000000\n 24843: u64 [a1 + 0x38] = a0\n 24846: a0 = sp + 0xffffffffffffffe0\n 24849: a0 = a0 & 0xffffffffffffffe0\n 24852: u64 [s1 + 0x228] = a0\n 24856: sp = a0\n 24858: a0 = sp + 0xffffffffffffffe0\n 24861: a0 = a0 & 0xffffffffffffffe0\n 24864: u64 [s1 + 0x218] = a0\n 24868: sp = a0\n 24870: i32 a2 = a0 + 0\n 24872: a1 = 0x40\n 24875: a0 = u64 [s1 + 0x1c8]\n 24879: ecalli 7 // 'hash_keccak_256'\n 24881: a3 = u64 [s1 + 0x218]\n 24885: a0 = u64 [a3 + 0x18]\n 24888: a1 = u64 [a3 + 0x10]\n 24891: a2 = u64 [a3 + 0x8]\n 24894: a3 = u64 [a3]\n 24896: a0 = reverse a0\n 24898: a4 = reverse a1\n 24900: a2 = reverse a2\n 24902: a3 = reverse a3\n 24904: a1 = u64 [s1 + 0x228]\n 24908: u64 [a1 + 0x18] = a3\n 24911: u64 [a1 + 0x10] = a2\n 24914: u64 [a1 + 0x8] = a4\n 24917: u64 [a1] = a0\n 24919: a0 = s1 + 0x280\n 24923: ra = 50, jump @0\n      : @672 [@dyn 25] (gas: 18)\n 24928: a0 = u64 [s1 + 0x280]\n 24932: a1 = u64 [s1 + 0x288]\n 24936: a2 = u64 [s1 + 0x298]\n 24940: a3 = u64 [s1 + 0x290]\n 24944: a0 = a0 & 0xffffffffffffff00\n 24948: a0 = a0 | 0x1\n 24951: a4 = s1 + 0x1000\n 24955: u64 [a4 + 0xfffffffffffff898] = a2\n 24959: a2 = s1 + 0x1000\n 24963: u64 [a2 + 0xfffffffffffff890] = a3\n 24967: a2 = s1 + 0x1000\n 24971: u64 [a2 + 0xfffffffffffff888] = a1\n 24975: a1 = s1 + 0x1000\n 24979: u64 [a1 + 0xfffffffffffff880] = a0\n 24983: a1 = s1 + 0x7ff\n 24987: a1 = a1 + 0x81\n 24991: a0 = u64 [s1 + 0x228]\n 24995: ra = 52, jump @1\n      : @673 [@dyn 26] (gas: 4)\n 25000: a0 = u64 [s1 + 0x238]\n 25004: a1 = i32 [a0]\n 25006: u64 [s1 + 0x1f8] = a1\n 25010: jump @675 if a1 >u 95\n      : @674 (gas: 4)\n 25014: a0 = u64 [s1 + 0x238]\n 25018: u64 [s1 + 504] = 0x60\n 25023: u32 [a0 + 0] = 0x60\n 25026: fallthrough\n      : @675 (gas: 21)\n 25027: a3 = u64 [s1 + 0x230]\n 25031: a0 = u64 [a3 + 0x48]\n 25034: a1 = u64 [a3 + 0x58]\n 25037: a2 = u64 [a3 + 0x40]\n 25040: a3 = u64 [a3 + 0x50]\n 25043: a4 = reverse a0\n 25045: a1 = reverse a1\n 25047: a0 = reverse a2\n 25049: a2 = reverse a3\n 25051: u64 [s1 + 0x1a0] = a0\n 25055: u64 [s1 + 0x198] = a2\n 25059: a0 = a0 | a2\n 25062: u64 [s1 + 0x1b0] = a1\n 25066: a1 = a1 | a4\n 25069: a1 = a1 | a0\n 25072: a1 = a1 >> 0x20\n 25075: u64 [s1 + 0x1a8] = a4\n 25079: a0 = a0 | a4\n 25082: a0 = a0 << 0x20\n 25085: a0 = a0 | a1\n 25088: jump @660 if a0 != 0\n      : @676 (gas: 3)\n 25092: a0 = u64 [s1 + 0x1b0]\n 25096: i32 a0 = a0 >> 0x10\n 25099: jump @660 if a0 != 0\n      : @677 (gas: 5)\n 25103: a0 = u64 [s1 + 0x1b0]\n 25107: a0 = a0 + 0x3f\n 25110: a1 = u64 [s1 + 0x220]\n 25114: a0 = a0 & a1\n 25117: jump @660 if a0 >u 65536\n      : @678 (gas: 2)\n 25124: a1 = u64 [s1 + 0x1f8]\n 25128: jump @680 if a1 >=u a0\n      : @679 (gas: 4)\n 25131: a1 = u64 [s1 + 0x238]\n 25135: u32 [a1] = a0\n 25137: u64 [s1 + 0x1f8] = a0\n 25141: fallthrough\n      : @680 (gas: 86)\n 25142: u64 [s1 + 488] = 0\n 25146: u64 [s1 + 496] = 0\n 25150: ra = 0\n 25152: t1 = 0\n 25154: a2 = u64 [s1 + 0x1b0]\n 25158: i32 a0 = a2 + 0\n 25160: a1 = u64 [s1 + 0x230]\n 25164: a0 = a0 + a1\n 25167: a4 = u64 [s1 + 0x208]\n 25171: u8 [a0 + 0x10] = a4\n 25174: a5 = u64 [s1 + 0x1e0]\n 25178: a1 = a5 >> 0x38\n 25181: u8 [a0 + 0xf] = a1\n 25184: a1 = a5 >> 0x30\n 25187: u8 [a0 + 0xe] = a1\n 25190: a1 = a5 >> 0x28\n 25193: u8 [a0 + 0xd] = a1\n 25196: a1 = a5 >> 0x20\n 25199: u8 [a0 + 0xc] = a1\n 25202: a1 = a5 >> 0x18\n 25205: u8 [a0 + 0xb] = a1\n 25208: a1 = a5 >> 0x10\n 25211: u8 [a0 + 0xa] = a1\n 25214: a1 = a5 >> 0x8\n 25217: u8 [a0 + 0x9] = a1\n 25220: u8 [a0 + 0x8] = a5\n 25223: a5 = u64 [s1 + 0x200]\n 25227: a1 = a5 >> 0x38\n 25230: u8 [a0 + 0x7] = a1\n 25233: a1 = a5 >> 0x30\n 25236: u8 [a0 + 0x6] = a1\n 25239: a1 = a5 >> 0x28\n 25242: u8 [a0 + 0x5] = a1\n 25245: a1 = a5 >> 0x20\n 25248: u8 [a0 + 0x4] = a1\n 25251: a1 = a5 >> 0x18\n 25254: u8 [a0 + 0x3] = a1\n 25257: a1 = a5 >> 0x10\n 25260: u8 [a0 + 0x2] = a1\n 25263: a1 = a5 >> 0x8\n 25266: u8 [a0 + 0x1] = a1\n 25269: u8 [a0] = a5\n 25271: a5 = u64 [s1 + 0x210]\n 25275: u8 [a0 + 0x18] = a5\n 25278: a1 = a4 >> 0x38\n 25281: u8 [a0 + 0x17] = a1\n 25284: a1 = a4 >> 0x30\n 25287: u8 [a0 + 0x16] = a1\n 25290: a1 = a4 >> 0x28\n 25293: u8 [a0 + 0x15] = a1\n 25296: a1 = a4 >> 0x20\n 25299: u8 [a0 + 0x14] = a1\n 25302: a1 = a4 >> 0x18\n 25305: u8 [a0 + 0x13] = a1\n 25308: a1 = a4 >> 0x10\n 25311: u8 [a0 + 0x12] = a1\n 25314: a1 = a4 >> 0x8\n 25317: u8 [a0 + 0x11] = a1\n 25320: a1 = a5 >> 0x38\n 25323: u8 [a0 + 0x1f] = a1\n 25326: a1 = a5 >> 0x30\n 25329: u8 [a0 + 0x1e] = a1\n 25332: a1 = a5 >> 0x28\n 25335: u8 [a0 + 0x1d] = a1\n 25338: a1 = a5 >> 0x20\n 25341: u8 [a0 + 0x1c] = a1\n 25344: a1 = a5 >> 0x18\n 25347: u8 [a0 + 0x1b] = a1\n 25350: a1 = a5 >> 0x10\n 25353: u8 [a0 + 0x1a] = a1\n 25356: a1 = a5 >> 0x8\n 25359: u8 [a0 + 0x19] = a1\n 25362: a0 = 0xffffffe0\n 25372: u64 [s1 + 0x1b8] = a0\n 25376: u64 [s1 + 0x228] = a2\n 25380: a0 = u64 [s1 + 0x198]\n 25384: u64 [s1 + 0x208] = a0\n 25388: a0 = u64 [s1 + 0x1a8]\n 25392: u64 [s1 + 0x210] = a0\n 25396: a0 = u64 [s1 + 0x1a0]\n 25400: u64 [s1 + 0x218] = a0\n 25404: a2 = u64 [s1 + 0x148]\n 25408: a0 = u64 [s1 + 0x140]\n 25412: t2 = u64 [s1 + 0x138]\n 25416: a4 = u64 [s1 + 0x130]\n 25420: jump @682\n      : @681 (gas: 209)\n 25423: u64 [s1 + 0x1f8] = a3\n 25427: t1 = u64 [s1 + 0x138]\n 25431: i32 a3 = t1 + 0\n 25433: a3 = a3 + t0\n 25436: a1 = u8 [a3 + 0x19]\n 25439: a2 = u8 [a3 + 0x18]\n 25442: a4 = u8 [a3 + 0x1a]\n 25445: a5 = u8 [a3 + 0x1b]\n 25448: a1 = a1 << 0x8\n 25451: a1 = a1 | a2\n 25454: a4 = a4 << 0x10\n 25457: a5 = a5 << 0x18\n 25460: a4 = a4 | a5\n 25463: a1 = a1 | a4\n 25466: a2 = u8 [a3 + 0x1d]\n 25469: a4 = u8 [a3 + 0x1c]\n 25472: a5 = u8 [a3 + 0x1e]\n 25475: a0 = u8 [a3 + 0x1f]\n 25478: a2 = a2 << 0x8\n 25481: a2 = a2 | a4\n 25484: a5 = a5 << 0x10\n 25487: a0 = a0 << 0x18\n 25490: a0 = a0 | a5\n 25493: a0 = a0 | a2\n 25496: a0 = a0 << 0x20\n 25499: a1 = a1 | a0\n 25502: a0 = u8 [a3 + 0x11]\n 25505: a2 = u8 [a3 + 0x10]\n 25508: a4 = u8 [a3 + 0x12]\n 25511: a5 = u8 [a3 + 0x13]\n 25514: a0 = a0 << 0x8\n 25517: a0 = a0 | a2\n 25520: a4 = a4 << 0x10\n 25523: a5 = a5 << 0x18\n 25526: a4 = a4 | a5\n 25529: a0 = a0 | a4\n 25532: a2 = u8 [a3 + 0x15]\n 25535: a4 = u8 [a3 + 0x14]\n 25538: a5 = u8 [a3 + 0x16]\n 25541: t2 = t0\n 25543: ra = u8 [a3 + 0x17]\n 25546: a2 = a2 << 0x8\n 25549: a2 = a2 | a4\n 25552: a5 = a5 << 0x10\n 25555: ra = ra << 0x18\n 25558: a4 = ra | a5\n 25561: a2 = a2 | a4\n 25564: a2 = a2 << 0x20\n 25567: a4 = a2 | a0\n 25570: ra = u8 [a3 + 0x9]\n 25573: a2 = u8 [a3 + 0x8]\n 25576: a5 = u8 [a3 + 0xa]\n 25579: a0 = u8 [a3 + 0xb]\n 25582: ra = ra << 0x8\n 25585: a2 = ra | a2\n 25588: a5 = a5 << 0x10\n 25591: a0 = a0 << 0x18\n 25594: a0 = a0 | a5\n 25597: ra = a0 | a2\n 25600: a2 = u8 [a3 + 0xd]\n 25603: a5 = u8 [a3 + 0xc]\n 25606: a0 = u8 [a3 + 0xe]\n 25609: t0 = u8 [a3 + 0xf]\n 25612: a2 = a2 << 0x8\n 25615: a2 = a2 | a5\n 25618: a0 = a0 << 0x10\n 25621: t0 = t0 << 0x18\n 25624: a0 = t0 | a0\n 25627: a0 = a0 | a2\n 25630: a0 = a0 << 0x20\n 25633: a2 = a0 | ra\n 25636: t0 = u8 [a3 + 0x1]\n 25639: ra = u8 [a3]\n 25641: a0 = u8 [a3 + 0x2]\n 25644: a5 = u8 [a3 + 0x3]\n 25647: t0 = t0 << 0x8\n 25650: t0 = t0 | ra\n 25653: a0 = a0 << 0x10\n 25656: a5 = a5 << 0x18\n 25659: a0 = a0 | a5\n 25662: t0 = a0 | t0\n 25665: a5 = u8 [a3 + 0x5]\n 25668: ra = u8 [a3 + 0x4]\n 25671: a0 = u8 [a3 + 0x6]\n 25674: a3 = u8 [a3 + 0x7]\n 25677: a5 = a5 << 0x8\n 25680: a5 = a5 | ra\n 25683: a0 = a0 << 0x10\n 25686: a3 = a3 << 0x18\n 25689: a0 = a0 | a3\n 25692: a0 = a0 | a5\n 25695: a0 = a0 << 0x20\n 25698: a5 = a0 | t0\n 25701: a0 = u64 [s1 + 0x200]\n 25705: i32 a3 = a0 + 0\n 25707: t0 = a0\n 25709: a3 = a3 + t2\n 25712: a0 = a2 >> 0x38\n 25715: u8 [a3 + 0xf] = a0\n 25718: a0 = a2 >> 0x30\n 25721: u8 [a3 + 0xe] = a0\n 25724: a0 = a2 >> 0x28\n 25727: u8 [a3 + 0xd] = a0\n 25730: a0 = a2 >> 0x20\n 25733: u8 [a3 + 0xc] = a0\n 25736: a0 = a2 >> 0x18\n 25739: u8 [a3 + 0xb] = a0\n 25742: a0 = a2 >> 0x10\n 25745: u8 [a3 + 0xa] = a0\n 25748: a0 = a2 >> 0x8\n 25751: u8 [a3 + 0x9] = a0\n 25754: u8 [a3 + 0x8] = a2\n 25757: a0 = a5 >> 0x38\n 25760: u8 [a3 + 0x7] = a0\n 25763: a0 = a5 >> 0x30\n 25766: u8 [a3 + 0x6] = a0\n 25769: a0 = a5 >> 0x28\n 25772: u8 [a3 + 0x5] = a0\n 25775: a0 = a5 >> 0x20\n 25778: u8 [a3 + 0x4] = a0\n 25781: a0 = a5 >> 0x18\n 25784: u8 [a3 + 0x3] = a0\n 25787: a0 = a5 >> 0x10\n 25790: u8 [a3 + 0x2] = a0\n 25793: a0 = a5 >> 0x8\n 25796: u8 [a3 + 0x1] = a0\n 25799: u8 [a3] = a5\n 25801: a0 = a4 >> 0x38\n 25804: u8 [a3 + 0x17] = a0\n 25807: a0 = a4 >> 0x30\n 25810: u8 [a3 + 0x16] = a0\n 25813: a0 = a4 >> 0x28\n 25816: u8 [a3 + 0x15] = a0\n 25819: a0 = a4 >> 0x20\n 25822: u8 [a3 + 0x14] = a0\n 25825: a0 = a4 >> 0x18\n 25828: u8 [a3 + 0x13] = a0\n 25831: a0 = a4 >> 0x10\n 25834: u8 [a3 + 0x12] = a0\n 25837: u8 [a3 + 0x10] = a4\n 25840: a4 = a4 >> 0x8\n 25843: u8 [a3 + 0x11] = a4\n 25846: a0 = a1 >> 0x38\n 25849: u8 [a3 + 0x1f] = a0\n 25852: a0 = a1 >> 0x30\n 25855: u8 [a3 + 0x1e] = a0\n 25858: a0 = a1 >> 0x28\n 25861: u8 [a3 + 0x1d] = a0\n 25864: a0 = a1 >> 0x20\n 25867: u8 [a3 + 0x1c] = a0\n 25870: a0 = a1 >> 0x18\n 25873: u8 [a3 + 0x1b] = a0\n 25876: a0 = a1 >> 0x10\n 25879: u8 [a3 + 0x1a] = a0\n 25882: u8 [a3 + 0x18] = a1\n 25885: a1 = a1 >> 0x8\n 25888: u8 [a3 + 0x19] = a1\n 25891: a0 = u64 [s1 + 0x228]\n 25895: a0 = t0 <u a0\n 25898: a1 = u64 [s1 + 0x208]\n 25902: a2 = a1 + a0\n 25905: u64 [s1 + 0x1d0] = a2\n 25909: a3 = a2 <u a1\n 25912: a3 = a0 if a0 == 0\n 25915: a0 = u64 [s1 + 0x210]\n 25919: a3 = a3 + a0\n 25922: u64 [s1 + 0x1c0] = a3\n 25926: a0 = a3 <u a0\n 25929: a1 = u64 [s1 + 0x218]\n 25933: a1 = a1 + a0\n 25936: u64 [s1 + 0x218] = a1\n 25940: t0 = t1 + 0x20\n 25943: a5 = t0 <u t1\n 25946: a0 = u64 [s1 + 0x130]\n 25950: a4 = a0 + a5\n 25953: ra = a4 <u a0\n 25956: ra = a5 if a5 == 0\n 25959: t2 = u64 [s1 + 0x1e8]\n 25963: a5 = t2 <u 0x9\n 25966: t2 = t2 + 0x1\n 25969: a0 = u64 [s1 + 0x1f0]\n 25973: a5 = 0 if a0 != 0\n 25975: a3 = t2 <u 0x1\n 25978: a3 = a3 + a0\n 25981: a1 = t2 | a3\n 25984: a1 = a1 <u 0x1\n 25987: a2 = u64 [s1 + 0x1e0]\n 25991: a1 = a1 + a2\n 25994: t1 = a1 <u a2\n 25997: a0 = u64 [s1 + 0x1d8]\n 26001: a2 = a2 | a0\n 26004: t1 = t1 + a0\n 26007: a5 = 0 if a2 != 0\n 26009: a2 = u64 [s1 + 0x140]\n 26013: a0 = a2 + ra\n 26016: a2 = a0 <u a2\n 26019: ra = u64 [s1 + 0x148]\n 26023: a2 = a2 + ra\n 26026: u64 [s1 + 0x1e8] = t2\n 26030: u64 [s1 + 0x1f0] = a3\n 26034: ra = a1\n 26036: t2 = t0\n 26038: a1 = u64 [s1 + 0x200]\n 26042: u64 [s1 + 0x228] = a1\n 26046: a1 = u64 [s1 + 0x1d0]\n 26050: u64 [s1 + 0x208] = a1\n 26054: a1 = u64 [s1 + 0x1c0]\n 26058: u64 [s1 + 0x210] = a1\n 26062: jump @707 if a5 == 0\n      : @682 (gas: 10)\n 26066: a1 = t2 | a0\n 26069: u64 [s1 + 0x148] = a2\n 26073: a2 = a2 | a4\n 26076: a1 = a1 | a2\n 26079: a1 = a1 >> 0x20\n 26082: u64 [s1 + 0x140] = a0\n 26086: a2 = a2 | a0\n 26089: a2 = a2 << 0x20\n 26092: a1 = a1 | a2\n 26095: jump @660 if a1 != 0\n      : @683 (gas: 6)\n 26099: i32 a1 = t2 >> 0x10\n 26102: t0 = u64 [s1 + 0x230]\n 26106: a0 = u64 [s1 + 0x238]\n 26110: a3 = u64 [s1 + 0x1f8]\n 26114: a5 = u64 [s1 + 0x228]\n 26118: jump @660 if a1 != 0\n      : @684 (gas: 4)\n 26122: a1 = t2 + 0x3f\n 26125: a2 = u64 [s1 + 0x220]\n 26129: a1 = a1 & a2\n 26132: jump @660 if a1 >u 65536\n      : @685 (gas: 4)\n 26139: u64 [s1 + 0x138] = t2\n 26143: t2 = ra\n 26145: i32 a2 = a3 + 0\n 26147: jump @687 if a2 >=u a1\n      : @686 (gas: 3)\n 26150: u32 [a0] = a1\n 26152: a3 = a1\n 26154: fallthrough\n      : @687 (gas: 9)\n 26155: a1 = u64 [s1 + 0x218]\n 26159: a2 = u64 [s1 + 0x210]\n 26163: a1 = a1 | a2\n 26166: a2 = u64 [s1 + 0x1b8]\n 26170: a2 = a5 <u a2\n 26173: ra = u64 [s1 + 0x208]\n 26177: a2 = 0 if ra != 0\n 26179: a2 = 0 if a1 != 0\n 26181: jump @660 if a2 == 0\n      : @688 (gas: 3)\n 26185: a5 = a5 + 0x20\n 26188: i32 a1 = a5 >> 0x10\n 26191: jump @660 if a1 != 0\n      : @689 (gas: 4)\n 26195: a1 = a5 + 0x3f\n 26198: a2 = u64 [s1 + 0x220]\n 26202: a1 = a1 & a2\n 26205: jump @660 if a1 >u 65536\n      : @690 (gas: 6)\n 26212: u64 [s1 + 0x200] = a5\n 26216: u64 [s1 + 0x1d8] = t1\n 26220: u64 [s1 + 0x1e0] = t2\n 26224: u64 [s1 + 0x130] = a4\n 26228: i32 a2 = a3 + 0\n 26230: jump @681 if a2 >=u a1\n      : @691 (gas: 3)\n 26234: u32 [a0] = a1\n 26236: a3 = a1\n 26238: jump @681\n      : @692 (gas: 3)\n 26241: a0 = u64 [s1 + 0x238]\n 26245: a0 = i32 [a0]\n 26247: jump @694 if a0 >u 95\n      : @693 (gas: 3)\n 26251: a1 = u64 [s1 + 0x238]\n 26255: u32 [a1 + 0] = 0x60\n 26258: fallthrough\n      : @694 (gas: 15)\n 26259: a3 = u64 [s1 + 0x230]\n 26263: a0 = u64 [a3 + 0x48]\n 26266: a1 = u64 [a3 + 0x58]\n 26269: a2 = u64 [a3 + 0x40]\n 26272: a3 = u64 [a3 + 0x50]\n 26275: a0 = reverse a0\n 26277: u64 [s1 + 0x220] = a0\n 26281: a0 = reverse a1\n 26283: u64 [s1 + 0x228] = a0\n 26287: a0 = reverse a2\n 26289: u64 [s1 + 0x218] = a0\n 26293: a0 = reverse a3\n 26295: u64 [s1 + 0x210] = a0\n 26299: ecalli 10 // 'return_data_size'\n 26301: fallthrough\n      : @695 (gas: 12)\n 26302: a1 = u64 [s1 + 0x218]\n 26306: a2 = u64 [s1 + 0x210]\n 26310: a1 = a1 | a2\n 26313: a3 = u64 [s1 + 0x220]\n 26317: a2 = u64 [s1 + 0x228]\n 26321: a2 = a2 | a3\n 26324: a2 = a2 | a1\n 26327: a2 = a2 >> 0x20\n 26330: a1 = a1 | a3\n 26333: a1 = a1 << 0x20\n 26336: a1 = a1 | a2\n 26339: jump @660 if a1 != 0\n      : @696 (gas: 2)\n 26343: a1 = a0 >> 0x20\n 26346: jump @660 if a1 != 0\n      : @697 (gas: 3)\n 26350: a1 = u64 [s1 + 0x228]\n 26354: i32 a1 = a1 >> 0x10\n 26357: jump @660 if a1 != 0\n      : @698 (gas: 5)\n 26361: a1 = u64 [s1 + 0x228]\n 26365: a1 = a1 + a0\n 26368: i32 a1 = a1 + 0x1f\n 26371: a1 = a1 & 0xffffffffffffffe0\n 26374: jump @660 if a1 >u 65536\n      : @699 (gas: 3)\n 26381: a2 = u64 [s1 + 0x238]\n 26385: a2 = i32 [a2]\n 26387: jump @701 if a2 >=u a1\n      : @700 (gas: 3)\n 26390: a2 = u64 [s1 + 0x238]\n 26394: u32 [a2] = a1\n 26396: fallthrough\n      : @701 (gas: 13)\n 26397: i32 a1 = a0 + 0\n 26399: u64 [s1 + 0x238] = a1\n 26403: a1 = u64 [s1 + 0x230]\n 26407: a2 = u64 [s1 + 0x228]\n 26411: i32 a2 = a2 + a1\n 26414: a1 = s1 + 0x1000\n 26418: u32 [a1 + 0xfffffffffffff800] = a0\n 26422: a0 = s1 + 0x1000\n 26426: i32 a1 = a0 + 0xfffffffffffff800\n 26430: a0 = a2\n 26432: a2 = 0\n 26434: ecalli 9 // 'return_data_copy'\n 26436: fallthrough\n      : @702 (gas: 4)\n 26437: a0 = s1 + 0x1000\n 26441: a0 = i32 [a0 + 0xfffffffffffff800]\n 26445: a1 = u64 [s1 + 0x238]\n 26449: jump @660 if a0 <u a1\n      : @703 (gas: 2)\n 26453: ecalli 10 // 'return_data_size'\n 26455: fallthrough\n      : @704 (gas: 3)\n 26456: a1 = a0\n 26458: a0 = a0 >> 0x20\n 26461: jump @660 if a0 != 0\n      : @705 (gas: 3)\n 26465: a0 = u64 [s1 + 0x228]\n 26469: u64 [s1 + 0x238] = a1\n 26473: ra = 54, jump @8\n      : @706 [@dyn 27] (gas: 5)\n 26478: i32 a1 = a0 + 0\n 26480: a2 = i32 [s1 + 0x238]\n 26484: a0 = 0x1\n 26487: ecalli 11 // 'seal_return'\n 26489: fallthrough\n      : @707 (gas: 25)\n 26490: u64 [s1 + 488] = 0\n 26494: a3 = 0\n 26496: u64 [s1 + 512] = 0\n 26500: a0 = u64 [s1 + 0x1b0]\n 26504: t0 = a0 + 0x160\n 26508: a0 = t0 <u a0\n 26511: a1 = u64 [s1 + 0x198]\n 26515: a2 = a1 + a0\n 26518: u64 [s1 + 0x228] = a2\n 26522: t2 = a2 <u a1\n 26525: t2 = a0 if a0 == 0\n 26528: a0 = 0xff00000000000000\n 26538: u64 [s1 + 0x1c0] = a0\n 26542: a0 = u64 [s1 + 0x1a8]\n 26546: t2 = t2 + a0\n 26549: u64 [s1 + 0x218] = t2\n 26553: a4 = t2 <u a0\n 26556: a0 = u64 [s1 + 0x1a0]\n 26560: a0 = a0 + a4\n 26563: u64 [s1 + 0x210] = a0\n 26567: t1 = u64 [s1 + 0xf8]\n 26571: a2 = u64 [s1 + 0x100]\n 26575: a4 = u64 [s1 + 0xf0]\n 26579: a1 = u64 [s1 + 0x108]\n 26583: jump @709\n      : @708 (gas: 122)\n 26586: u64 [s1 + 0x1f8] = a3\n 26590: i32 a0 = a4 + 0\n 26592: a0 = a0 + ra\n 26595: a1 = u8 [a0 + 0x19]\n 26598: a2 = u8 [a0 + 0x18]\n 26601: a5 = u8 [a0 + 0x1a]\n 26604: a3 = a4\n 26606: a4 = u8 [a0 + 0x1b]\n 26609: a1 = a1 << 0x8\n 26612: a1 = a1 | a2\n 26615: a5 = a5 << 0x10\n 26618: a4 = a4 << 0x18\n 26621: a4 = a4 | a5\n 26624: a1 = a1 | a4\n 26627: a2 = u8 [a0 + 0x1d]\n 26630: a4 = u8 [a0 + 0x1c]\n 26633: a5 = u8 [a0 + 0x1e]\n 26636: a0 = u8 [a0 + 0x1f]\n 26639: a2 = a2 << 0x8\n 26642: a2 = a2 | a4\n 26645: a5 = a5 << 0x10\n 26648: a0 = a0 << 0x18\n 26651: a0 = a0 | a5\n 26654: a0 = a0 | a2\n 26657: a0 = a0 << 0x20\n 26660: a0 = a0 | a1\n 26663: i32 a1 = t0 + 0\n 26665: a1 = a1 + ra\n 26668: a2 = u64 [s1 + 0x1c0]\n 26672: a0 = a0 & a2\n 26675: a2 = a0 >> 0x38\n 26678: u8 [a1 + 0x1f] = a2\n 26681: a2 = a0 >> 0x30\n 26684: u8 [a1 + 0x1e] = a2\n 26687: a2 = a0 >> 0x28\n 26690: u8 [a1 + 0x1d] = a2\n 26693: a2 = a0 >> 0x20\n 26696: u8 [a1 + 0x1c] = a2\n 26699: a2 = a0 >> 0x18\n 26702: u8 [a1 + 0x1b] = a2\n 26705: a2 = a0 >> 0x10\n 26708: u8 [a1 + 0x1a] = a2\n 26711: u8 [a1 + 0x18] = a0\n 26714: a0 = a0 >> 0x8\n 26717: u8 [a1 + 0x19] = a0\n 26720: u8 [a1 + 23] = 0\n 26723: u8 [a1 + 22] = 0\n 26726: u8 [a1 + 21] = 0\n 26729: u8 [a1 + 20] = 0\n 26732: u8 [a1 + 19] = 0\n 26735: u8 [a1 + 18] = 0\n 26738: u8 [a1 + 17] = 0\n 26741: u8 [a1 + 16] = 0\n 26744: u8 [a1 + 15] = 0\n 26747: u8 [a1 + 14] = 0\n 26750: u8 [a1 + 13] = 0\n 26753: u8 [a1 + 12] = 0\n 26756: u8 [a1 + 11] = 0\n 26759: u8 [a1 + 10] = 0\n 26762: u8 [a1 + 9] = 0\n 26765: u8 [a1 + 8] = 0\n 26768: u8 [a1 + 7] = 0\n 26771: u8 [a1 + 6] = 0\n 26774: u8 [a1 + 5] = 0\n 26777: u8 [a1 + 4] = 0\n 26780: u8 [a1 + 3] = 0\n 26783: u8 [a1 + 2] = 0\n 26786: u8 [a1 + 1] = 0\n 26789: u8 [a1 + 0] = 0\n 26791: a0 = t0 + 0x20\n 26794: u64 [s1 + 0x1e0] = a0\n 26798: a2 = a0 <u t0\n 26801: a0 = u64 [s1 + 0x228]\n 26805: a1 = a0 + a2\n 26808: u64 [s1 + 0x1d8] = a1\n 26812: t0 = a1 <u a0\n 26815: t0 = a2 if a2 == 0\n 26818: a0 = u64 [s1 + 0x218]\n 26822: t0 = t0 + a0\n 26825: u64 [s1 + 0x1d0] = t0\n 26829: a2 = t0 <u a0\n 26832: t2 = t2 + a2\n 26835: u64 [s1 + 0x210] = t2\n 26839: t2 = a3 + 0x20\n 26842: a4 = t2 <u a3\n 26845: a0 = u64 [s1 + 0x108]\n 26849: t0 = a0 + a4\n 26852: a2 = t0 <u a0\n 26855: a2 = a4 if a4 == 0\n 26858: a4 = u64 [s1 + 0x1e8]\n 26862: ra = a4 <u 0x9\n 26865: a4 = a4 + 0x1\n 26868: a3 = u64 [s1 + 0x1f0]\n 26872: ra = 0 if a3 != 0\n 26874: a1 = a4 <u 0x1\n 26877: a3 = a3 + a1\n 26880: a1 = a4 | a3\n 26883: a1 = a1 <u 0x1\n 26886: a5 = u64 [s1 + 0x208]\n 26890: a1 = a1 + a5\n 26893: t1 = a1 <u a5\n 26896: a0 = u64 [s1 + 0x200]\n 26900: a5 = a5 | a0\n 26903: a0 = a0 + t1\n 26906: ra = 0 if a5 != 0\n 26908: a5 = u64 [s1 + 0x100]\n 26912: a2 = a2 + a5\n 26915: a5 = a2 <u a5\n 26918: t1 = u64 [s1 + 0xf8]\n 26922: t1 = t1 + a5\n 26925: u64 [s1 + 0x1e8] = a4\n 26929: a5 = a3\n 26931: a3 = a1\n 26933: u64 [s1 + 0x200] = a0\n 26937: a4 = t2\n 26939: a1 = t0\n 26941: t0 = u64 [s1 + 0x1e0]\n 26945: a0 = u64 [s1 + 0x1d8]\n 26949: u64 [s1 + 0x228] = a0\n 26953: a0 = u64 [s1 + 0x1d0]\n 26957: u64 [s1 + 0x218] = a0\n 26961: jump @742 if ra == 0\n      : @709 (gas: 12)\n 26965: u64 [s1 + 0x1f0] = a5\n 26969: u64 [s1 + 0x208] = a3\n 26973: a0 = a4 | a2\n 26976: u64 [s1 + 0x108] = a1\n 26980: a1 = a1 | t1\n 26983: a0 = a0 | a1\n 26986: a0 = a0 >> 0x20\n 26989: u64 [s1 + 0x100] = a2\n 26993: a1 = a1 | a2\n 26996: a1 = a1 << 0x20\n 26999: a0 = a0 | a1\n 27002: jump @660 if a0 != 0\n      : @710 (gas: 6)\n 27006: i32 a0 = a4 >> 0x10\n 27009: ra = u64 [s1 + 0x230]\n 27013: a2 = u64 [s1 + 0x238]\n 27017: a3 = u64 [s1 + 0x1f8]\n 27021: t2 = u64 [s1 + 0x210]\n 27025: jump @660 if a0 != 0\n      : @711 (gas: 4)\n 27029: a0 = a4 + 0x3f\n 27032: a1 = u64 [s1 + 0x220]\n 27036: a0 = a0 & a1\n 27039: jump @660 if a0 >u 65536\n      : @712 (gas: 2)\n 27046: i32 a1 = a3 + 0\n 27048: jump @714 if a1 >=u a0\n      : @713 (gas: 3)\n 27051: u32 [a2] = a0\n 27053: a3 = a0\n 27055: fallthrough\n      : @714 (gas: 10)\n 27056: a5 = u64 [s1 + 0x218]\n 27060: a0 = t0 | a5\n 27063: a1 = u64 [s1 + 0x228]\n 27067: a1 = a1 | t2\n 27070: a0 = a0 | a1\n 27073: a0 = a0 >> 0x20\n 27076: a1 = a1 | a5\n 27079: a1 = a1 << 0x20\n 27082: a0 = a0 | a1\n 27085: jump @660 if a0 != 0\n      : @715 (gas: 2)\n 27089: i32 a0 = t0 >> 0x10\n 27092: jump @660 if a0 != 0\n      : @716 (gas: 4)\n 27096: a0 = t0 + 0x3f\n 27099: a1 = u64 [s1 + 0x220]\n 27103: a0 = a0 & a1\n 27106: jump @660 if a0 >u 65536\n      : @717 (gas: 3)\n 27113: u64 [s1 + 0xf8] = t1\n 27117: i32 a1 = a3 + 0\n 27119: jump @708 if a1 >=u a0\n      : @718 (gas: 3)\n 27123: u32 [a2] = a0\n 27125: a3 = a0\n 27127: jump @708\n      : @719 (gas: 3)\n 27130: a0 = 0\n 27132: a1 = 0\n 27134: ra = 56, jump @8\n      : @720 [@dyn 28] (gas: 5)\n 27139: i32 a1 = a0 + 0\n 27141: a0 = 0x1\n 27144: a2 = 0\n 27146: ecalli 11 // 'seal_return'\n 27148: fallthrough\n      : @721 (gas: 8)\n 27149: a0 = u64 [s1 + 0x238]\n 27153: a0 = i32 [a0]\n 27155: a2 = u64 [s1 + 0x230]\n 27159: u64 [a2 + 24] = 0\n 27162: u64 [a2 + 16] = 0\n 27165: u64 [a2 + 0] = 0x717b484e\n 27171: u64 [a2 + 8] = 0\n 27174: jump @723 if a0 >u 63\n      : @722 (gas: 4)\n 27178: a1 = u64 [s1 + 0x238]\n 27182: u32 [a1 + 0] = 0x40\n 27185: a0 = 0x32000000\n 27191: jump @727\n      : @723 (gas: 2)\n 27193: a0 = 0x32000000\n 27199: jump @727\n      : @724 (gas: 6)\n 27201: a1 = u64 [s1 + 0x230]\n 27205: u64 [a1 + 24] = 0\n 27208: u64 [a1 + 16] = 0\n 27211: u64 [a1 + 0] = 0x717b484e\n 27217: u64 [a1 + 8] = 0\n 27220: jump @726 if ra >u 63\n      : @725 (gas: 4)\n 27224: a1 = u64 [s1 + 0x238]\n 27228: u32 [a1 + 0] = 0x40\n 27231: a0 = 0x41000000\n 27237: jump @727\n      : @726 (gas: 2)\n 27239: a0 = 0x41000000\n 27245: fallthrough\n      : @727 (gas: 14)\n 27246: a1 = u64 [s1 + 0x230]\n 27250: u32 [a1 + 0x20] = a0\n 27253: u32 [a1 + 28] = 0\n 27256: u32 [a1 + 24] = 0\n 27259: u32 [a1 + 20] = 0\n 27262: u32 [a1 + 16] = 0\n 27265: u32 [a1 + 12] = 0\n 27268: u32 [a1 + 8] = 0\n 27271: u32 [a1 + 4] = 0\n 27274: a0 = 0x1\n 27277: a2 = 0x24\n 27280: a1 = u64 [s1 + 0x1c8]\n 27284: ecalli 11 // 'seal_return'\n 27286: fallthrough\n      : @728 (gas: 1)\n 27287: jump @732 if a0 != 528065001\n      : @729 (gas: 7)\n 27294: u64 [s1 + 1688] = 0\n 27298: u64 [s1 + 1680] = 0\n 27302: u64 [s1 + 1672] = 0\n 27306: u64 [s1 + 1664] = 0\n 27310: i32 a0 = s1 + 0x680\n 27314: ecalli 14 // 'value_transferred'\n 27316: fallthrough\n      : @730 (gas: 8)\n 27317: a0 = u64 [s1 + 0x690]\n 27321: a1 = u64 [s1 + 0x698]\n 27325: a2 = u64 [s1 + 0x688]\n 27329: a3 = u64 [s1 + 0x680]\n 27333: a1 = a1 | a2\n 27336: a0 = a0 | a3\n 27339: a0 = a0 | a1\n 27342: jump @732 if a0 != 0\n      : @731 (gas: 3)\n 27345: a0 = u64 [s1 + 0x228]\n 27349: a0 = i32 [a0]\n 27351: jump @735 if a0 >u 35\n      : @732 (gas: 5)\n 27355: a1 = i32 [s1 + 0x230]\n 27359: a0 = 0x1\n 27362: a2 = 0\n 27364: ecalli 11 // 'seal_return'\n 27366: fallthrough\n      : @733 (gas: 5)\n 27367: i32 a1 = a4 + 0\n 27369: a0 = 0x1\n 27372: a2 = 0\n 27374: ecalli 11 // 'seal_return'\n 27376: fallthrough\n      : @734 (gas: 17)\n 27377: u64 [a4 + 16] = 0\n 27380: u64 [a4 + 24] = 0\n 27383: u64 [a4 + 8] = 0\n 27386: u64 [a4 + 0] = 0x717b484e\n 27392: u32 [a4 + 32] = 0x41000000\n 27399: u32 [a4 + 20] = 0\n 27402: u32 [a4 + 24] = 0\n 27405: u32 [a4 + 28] = 0\n 27408: u32 [a4 + 8] = 0\n 27411: u32 [a4 + 12] = 0\n 27414: u32 [a4 + 16] = 0\n 27417: u32 [a4 + 4] = 0\n 27420: i32 a1 = a4 + 0\n 27422: a0 = 0x1\n 27425: a2 = 0x24\n 27428: ecalli 11 // 'seal_return'\n 27430: fallthrough\n      : @735 (gas: 4)\n 27431: i32 a0 = s1 + 0x6a0\n 27435: a1 = 0x4\n 27438: ecalli 2 // 'call_data_load'\n 27440: fallthrough\n      : @736 (gas: 16)\n 27441: a0 = u64 [s1 + 0x6a0]\n 27445: a1 = u64 [s1 + 0x6b8]\n 27449: a2 = u64 [s1 + 0x6b0]\n 27453: a3 = u64 [s1 + 0x6a8]\n 27457: a4 = u64 [s1 + 0x238]\n 27461: a4 = i32 [a4]\n 27463: a1 = reverse a1\n 27465: a2 = reverse a2\n 27467: a3 = reverse a3\n 27469: a0 = reverse a0\n 27471: a5 = u64 [s1 + 0x230]\n 27475: u64 [a5 + 0x18] = a0\n 27478: u64 [a5 + 0x10] = a3\n 27481: u64 [a5 + 0x8] = a2\n 27484: u64 [a5] = a1\n 27486: jump @738 if a4 >u 63\n      : @737 (gas: 3)\n 27490: a1 = u64 [s1 + 0x238]\n 27494: u32 [a1 + 0] = 0x40\n 27497: fallthrough\n      : @738 (gas: 30)\n 27498: a1 = u64 [s1 + 0x230]\n 27502: u64 [a1 + 48] = 0\n 27505: u64 [a1 + 40] = 0\n 27508: u64 [a1 + 32] = 0\n 27511: a0 = 0x700000000000000\n 27521: u64 [a1 + 0x38] = a0\n 27524: a0 = sp + 0xffffffffffffffe0\n 27527: a2 = a0 & 0xffffffffffffffe0\n 27530: u64 [s1 + 0x228] = a2\n 27534: sp = a2\n 27536: i32 a0 = a1 + 0\n 27538: i32 a2 = a2 + 0\n 27540: a1 = 0x40\n 27543: ecalli 7 // 'hash_keccak_256'\n 27545: a3 = u64 [s1 + 0x228]\n 27549: a0 = u64 [a3 + 0x18]\n 27552: a1 = u64 [a3 + 0x10]\n 27555: a2 = u64 [a3 + 0x8]\n 27558: a3 = u64 [a3]\n 27560: a0 = reverse a0\n 27562: a1 = reverse a1\n 27564: a2 = reverse a2\n 27566: a3 = reverse a3\n 27568: u64 [s1 + 0x6d8] = a3\n 27572: u64 [s1 + 0x6d0] = a2\n 27576: u64 [s1 + 0x6c8] = a1\n 27580: u64 [s1 + 0x6c0] = a0\n 27584: a0 = s1 + 0x240\n 27588: a1 = s1 + 0x6c0\n 27592: ra = 58, jump @0\n      : @739 [@dyn 29] (gas: 4)\n 27597: a0 = u64 [s1 + 0x238]\n 27601: a1 = i32 [a0]\n 27603: a0 = u64 [s1 + 0x240]\n 27607: jump @741 if a1 >u 159\n      : @740 (gas: 3)\n 27612: a2 = u64 [s1 + 0x238]\n 27616: u32 [a2 + 0] = 0xa0\n 27620: fallthrough\n      : @741 (gas: 13)\n 27621: a0 = a0 & 0xff\n 27625: a0 = a0 >u 0\n 27627: a0 = a0 << 0x38\n 27630: a1 = u64 [s1 + 0x230]\n 27634: u64 [a1 + 144] = 0\n 27638: u64 [a1 + 136] = 0\n 27642: u64 [a1 + 128] = 0\n 27646: u64 [a1 + 0x98] = a0\n 27650: i32 a1 = a1 + 0x80\n 27654: a2 = 0x20\n 27657: a0 = 0\n 27659: ecalli 11 // 'seal_return'\n 27661: fallthrough\n      : @742 (gas: 12)\n 27662: a0 = u64 [0x20028]\n 27667: a1 = u64 [0x20030]\n 27672: u64 [s1 + 0x278] = a0\n 27676: a0 = u64 [0x20038]\n 27681: u64 [s1 + 0x270] = a1\n 27685: a3 = u64 [0x20040]\n 27690: u64 [s1 + 0x268] = a0\n 27694: a1 = 0x2a0\n 27698: a2 = s1 + 0x260\n 27702: u64 [s1 + 0x260] = a3\n 27706: a0 = u64 [s1 + 0x1b0]\n 27710: ra = 60, jump @2\n      : @743 [@dyn 30] (gas: 21)\n 27715: a0 = s1 + 0x1000\n 27719: u64 [a0 + 4294965432] = 0\n 27723: a0 = s1 + 0x1000\n 27727: u64 [a0 + 4294965424] = 0\n 27731: a0 = s1 + 0x1000\n 27735: u64 [a0 + 4294965416] = 0\n 27739: a0 = s1 + 0x1000\n 27743: u64 [a0 + 4294965408] = 0\n 27747: a0 = s1 + 0x1000\n 27751: u64 [a0 + 4294965464] = 0\n 27755: a0 = s1 + 0x1000\n 27759: u64 [a0 + 4294965456] = 0\n 27763: a0 = s1 + 0x1000\n 27767: u64 [a0 + 4294965448] = 0\n 27771: a1 = s1 + 0x1000\n 27775: u64 [a1 + 4294965440] = 0x1\n 27780: a0 = s1 + 0x7ff\n 27784: a0 = a0 + 0xa1\n 27788: a1 = s1 + 0x7ff\n 27792: a1 = a1 + 0xc1\n 27796: ra = 62, jump @1\n      : @744 [@dyn 31] (gas: 5)\n 27801: a0 = 0\n 27803: a1 = u64 [s1 + 0x1c8]\n 27807: a2 = 0\n 27809: ecalli 11 // 'seal_return'\n 27811: fallthrough\n      : @745 (gas: 17)\n 27812: u64 [t1 + 16] = 0\n 27815: u64 [t1 + 24] = 0\n 27818: u64 [t1 + 8] = 0\n 27821: u64 [t1 + 0] = 0x717b484e\n 27827: u32 [t1 + 32] = 0x41000000\n 27834: u32 [t1 + 20] = 0\n 27837: u32 [t1 + 24] = 0\n 27840: u32 [t1 + 28] = 0\n 27843: u32 [t1 + 8] = 0\n 27846: u32 [t1 + 12] = 0\n 27849: u32 [t1 + 16] = 0\n 27852: u32 [t1 + 4] = 0\n 27855: i32 a1 = t1 + 0\n 27857: a0 = 0x1\n 27860: a2 = 0x24\n 27863: ecalli 11 // 'seal_return'\n 27865: fallthrough\n      : @746 (gas: 6)\n 27866: i32 a1 = t1 + 0\n 27868: a0 = 0x1\n 27871: a2 = 0\n 27873: ra = 0x40\n 27876: ecalli 11 // 'seal_return'\n 27878: fallthrough\n      : @747 [@dyn 32] (gas: 2)\n 27879: a1 = u64 [s1 + 0x228]\n 27883: jump @749 if a1 >u 95\n      : @748 (gas: 4)\n 27887: a0 = u64 [s1 + 0x238]\n 27891: u64 [s1 + 552] = 0x60\n 27896: u32 [a0 + 0] = 0x60\n 27899: fallthrough\n      : @749 (gas: 17)\n 27900: a3 = u64 [s1 + 0x230]\n 27904: a0 = u64 [a3 + 0x48]\n 27907: a1 = u64 [a3 + 0x58]\n 27910: a2 = u64 [a3 + 0x40]\n 27913: a3 = u64 [a3 + 0x50]\n 27916: a4 = reverse a0\n 27918: a0 = reverse a1\n 27920: a5 = reverse a2\n 27922: a2 = reverse a3\n 27924: a1 = a2 | a5\n 27927: a3 = a0 | a4\n 27930: a3 = a3 | a1\n 27933: a3 = a3 >> 0x20\n 27936: a1 = a1 | a4\n 27939: a1 = a1 << 0x20\n 27942: a1 = a1 | a3\n 27945: jump @660 if a1 != 0\n      : @750 (gas: 2)\n 27949: i32 a1 = a0 >> 0x10\n 27952: jump @660 if a1 != 0\n      : @751 (gas: 4)\n 27956: a1 = a0 + 0x3f\n 27959: a3 = u64 [s1 + 0x1f0]\n 27963: a1 = a1 & a3\n 27966: jump @660 if a1 >u 65536\n      : @752 (gas: 2)\n 27973: a3 = u64 [s1 + 0x228]\n 27977: jump @754 if a3 >=u a1\n      : @753 (gas: 4)\n 27980: a3 = u64 [s1 + 0x238]\n 27984: u32 [a3] = a1\n 27986: u64 [s1 + 0x228] = a1\n 27990: fallthrough\n      : @754 (gas: 41)\n 27991: i32 t0 = a0 + 0\n 27993: a3 = u64 [s1 + 0x230]\n 27997: a3 = a3 + t0\n 28000: u8 [a3 + 31] = 0\n 28003: u8 [a3 + 30] = 0\n 28006: u8 [a3 + 29] = 0\n 28009: u8 [a3 + 28] = 0\n 28012: u8 [a3 + 27] = 0\n 28015: u8 [a3 + 26] = 0\n 28018: u8 [a3 + 25] = 0\n 28021: u8 [a3 + 24] = 0\n 28024: u8 [a3 + 23] = 0\n 28027: u8 [a3 + 22] = 0\n 28030: u8 [a3 + 21] = 0\n 28033: u8 [a3 + 20] = 0\n 28036: u8 [a3 + 19] = 0\n 28039: u8 [a3 + 18] = 0\n 28042: u8 [a3 + 17] = 0\n 28045: u8 [a3 + 16] = 0\n 28048: u8 [a3 + 15] = 0\n 28051: u8 [a3 + 14] = 0\n 28054: u8 [a3 + 13] = 0\n 28057: u8 [a3 + 12] = 0\n 28060: u8 [a3 + 11] = 0\n 28063: u8 [a3 + 10] = 0\n 28066: u8 [a3 + 9] = 0\n 28069: u8 [a3 + 8] = 0\n 28072: u8 [a3 + 7] = 0\n 28075: u8 [a3 + 6] = 0\n 28078: u8 [a3 + 5] = 0\n 28081: u8 [a3 + 4] = 0\n 28084: u8 [a3 + 3] = 0xa0\n 28089: u8 [a3 + 2] = 0x79\n 28093: u8 [a3 + 1] = 0xc3\n 28098: a4 = a4 | a5\n 28101: a5 = 0xfffffffc\n 28111: a5 = a0 <u a5\n 28114: a5 = 0 if a2 != 0\n 28116: a5 = 0 if a4 != 0\n 28118: u8 [a3 + 0] = 0x8\n 28121: jump @756 if a5 != 0\n      : @755 (gas: 1)\n 28124: jump @660\n      : @756 (gas: 1)\n 28127: jump @758 if t0 <u 65532\n      : @757 (gas: 1)\n 28133: jump @660\n      : @758 (gas: 4)\n 28136: a1 = a0 + 0x43\n 28139: a5 = u64 [s1 + 0x1f0]\n 28143: a1 = a1 & a5\n 28146: jump @760 if a1 <=u 65536\n      : @759 (gas: 1)\n 28152: jump @660\n      : @760 (gas: 3)\n 28155: a5 = i32 [s1 + 0x228]\n 28159: i32 a3 = a0 + 0x4\n 28162: jump @762 if a5 >=u a1\n      : @761 (gas: 4)\n 28165: a5 = u64 [s1 + 0x238]\n 28169: u32 [a5] = a1\n 28171: u64 [s1 + 0x228] = a1\n 28175: fallthrough\n      : @762 (gas: 39)\n 28176: a1 = u64 [s1 + 0x230]\n 28180: a3 = a3 + a1\n 28183: u8 [a3 + 31] = 0x20\n 28187: u8 [a3 + 30] = 0\n 28190: u8 [a3 + 29] = 0\n 28193: u8 [a3 + 28] = 0\n 28196: u8 [a3 + 27] = 0\n 28199: u8 [a3 + 26] = 0\n 28202: u8 [a3 + 25] = 0\n 28205: u8 [a3 + 24] = 0\n 28208: u8 [a3 + 23] = 0\n 28211: u8 [a3 + 22] = 0\n 28214: u8 [a3 + 21] = 0\n 28217: u8 [a3 + 20] = 0\n 28220: u8 [a3 + 19] = 0\n 28223: u8 [a3 + 18] = 0\n 28226: u8 [a3 + 17] = 0\n 28229: u8 [a3 + 16] = 0\n 28232: u8 [a3 + 15] = 0\n 28235: u8 [a3 + 14] = 0\n 28238: u8 [a3 + 13] = 0\n 28241: u8 [a3 + 12] = 0\n 28244: u8 [a3 + 11] = 0\n 28247: u8 [a3 + 10] = 0\n 28250: u8 [a3 + 9] = 0\n 28253: u8 [a3 + 8] = 0\n 28256: u8 [a3 + 7] = 0\n 28259: u8 [a3 + 6] = 0\n 28262: u8 [a3 + 5] = 0\n 28265: u8 [a3 + 4] = 0\n 28268: u8 [a3 + 3] = 0\n 28271: u8 [a3 + 2] = 0\n 28274: u8 [a3 + 1] = 0\n 28277: a1 = 0xffffffdc\n 28287: a1 = a0 <u a1\n 28290: a1 = 0 if a2 != 0\n 28292: a1 = 0 if a4 != 0\n 28294: u8 [a3 + 0] = 0\n 28296: jump @764 if a1 != 0\n      : @763 (gas: 1)\n 28299: jump @660\n      : @764 (gas: 1)\n 28302: jump @766 if t0 <u 65500\n      : @765 (gas: 1)\n 28308: jump @660\n      : @766 (gas: 4)\n 28311: a1 = a0 + 0x63\n 28314: a5 = u64 [s1 + 0x1f0]\n 28318: a1 = a1 & a5\n 28321: jump @768 if a1 <=u 65536\n      : @767 (gas: 1)\n 28327: jump @660\n      : @768 (gas: 3)\n 28330: a5 = i32 [s1 + 0x228]\n 28334: i32 a3 = a0 + 0x24\n 28337: jump @770 if a5 >=u a1\n      : @769 (gas: 4)\n 28340: a5 = u64 [s1 + 0x238]\n 28344: u32 [a5] = a1\n 28346: u64 [s1 + 0x228] = a1\n 28350: fallthrough\n      : @770 (gas: 39)\n 28351: a1 = u64 [s1 + 0x230]\n 28355: a3 = a3 + a1\n 28358: u8 [a3 + 31] = 0xd\n 28362: u8 [a3 + 30] = 0\n 28365: u8 [a3 + 29] = 0\n 28368: u8 [a3 + 28] = 0\n 28371: u8 [a3 + 27] = 0\n 28374: u8 [a3 + 26] = 0\n 28377: u8 [a3 + 25] = 0\n 28380: u8 [a3 + 24] = 0\n 28383: u8 [a3 + 23] = 0\n 28386: u8 [a3 + 22] = 0\n 28389: u8 [a3 + 21] = 0\n 28392: u8 [a3 + 20] = 0\n 28395: u8 [a3 + 19] = 0\n 28398: u8 [a3 + 18] = 0\n 28401: u8 [a3 + 17] = 0\n 28404: u8 [a3 + 16] = 0\n 28407: u8 [a3 + 15] = 0\n 28410: u8 [a3 + 14] = 0\n 28413: u8 [a3 + 13] = 0\n 28416: u8 [a3 + 12] = 0\n 28419: u8 [a3 + 11] = 0\n 28422: u8 [a3 + 10] = 0\n 28425: u8 [a3 + 9] = 0\n 28428: u8 [a3 + 8] = 0\n 28431: u8 [a3 + 7] = 0\n 28434: u8 [a3 + 6] = 0\n 28437: u8 [a3 + 5] = 0\n 28440: u8 [a3 + 4] = 0\n 28443: u8 [a3 + 3] = 0\n 28446: u8 [a3 + 2] = 0\n 28449: u8 [a3 + 1] = 0\n 28452: a1 = 0xffffffbc\n 28462: a1 = a0 <u a1\n 28465: a1 = 0 if a2 != 0\n 28467: a1 = 0 if a4 != 0\n 28469: u8 [a3 + 0] = 0\n 28471: jump @772 if a1 != 0\n      : @771 (gas: 1)\n 28474: jump @660\n      : @772 (gas: 1)\n 28477: jump @774 if t0 <u 65468\n      : @773 (gas: 1)\n 28483: jump @660\n      : @774 (gas: 4)\n 28486: a1 = a0 + 0x83\n 28490: a3 = u64 [s1 + 0x1f0]\n 28494: a1 = a1 & a3\n 28497: jump @776 if a1 <=u 65536\n      : @775 (gas: 1)\n 28503: jump @660\n      : @776 (gas: 2)\n 28506: t1 = i32 [s1 + 0x228]\n 28510: jump @778 if t1 >=u a1\n      : @777 (gas: 3)\n 28513: a2 = u64 [s1 + 0x238]\n 28517: u32 [a2] = a1\n 28519: fallthrough\n      : @778 (gas: 38)\n 28520: i32 a1 = a0 + 0x44\n 28523: a2 = u64 [s1 + 0x230]\n 28527: a1 = a1 + a2\n 28530: u8 [a1 + 31] = 0\n 28533: u8 [a1 + 30] = 0\n 28536: u8 [a1 + 29] = 0\n 28539: u8 [a1 + 28] = 0\n 28542: u8 [a1 + 27] = 0\n 28545: u8 [a1 + 26] = 0\n 28548: u8 [a1 + 25] = 0\n 28551: u8 [a1 + 24] = 0\n 28554: u8 [a1 + 23] = 0\n 28557: u8 [a1 + 22] = 0\n 28560: u8 [a1 + 21] = 0\n 28563: u8 [a1 + 20] = 0\n 28566: u8 [a1 + 19] = 0\n 28569: u8 [a1 + 18] = 0\n 28572: u8 [a1 + 17] = 0\n 28575: u8 [a1 + 16] = 0\n 28578: u8 [a1 + 15] = 0\n 28581: u8 [a1 + 14] = 0\n 28584: u8 [a1 + 13] = 0\n 28587: u8 [a1 + 12] = 0x74\n 28591: u8 [a1 + 11] = 0x6e\n 28595: u8 [a1 + 10] = 0x65\n 28599: u8 [a1 + 9] = 0x70\n 28603: u8 [a1 + 8] = 0x73\n 28607: u8 [a1 + 7] = 0x2d\n 28611: u8 [a1 + 6] = 0x79\n 28615: u8 [a1 + 5] = 0x64\n 28619: u8 [a1 + 4] = 0x61\n 28623: u8 [a1 + 3] = 0x65\n 28627: u8 [a1 + 2] = 0x72\n 28631: u8 [a1 + 1] = 0x6c\n 28635: u8 [a1 + 0] = 0x61\n 28638: a1 = 0x64\n 28641: ra = 0x58\n 28644: jump @8\n      : @779 (gas: 10)\n 28647: a1 = s1 + 0x7ff\n 28651: a1 = a1 + 0x1b9\n 28655: u64 [a1 + 96] = 0\n 28658: u64 [a1 + 88] = 0\n 28661: u64 [a1 + 80] = 0\n 28664: u64 [a1 + 72] = 0x1\n 28668: a0 = s1 + 0x540\n 28672: a1 = s1 + 0x7ff\n 28676: a1 = a1 + 0x201\n 28680: ra = 66, jump @0\n      : @780 [@dyn 33] (gas: 10)\n 28685: a0 = u64 [s1 + 0x550]\n 28689: u64 [s1 + 0x160] = a0\n 28693: a0 = u64 [s1 + 0x548]\n 28697: u64 [s1 + 0x150] = a0\n 28701: a0 = u64 [s1 + 0x238]\n 28705: a2 = i32 [a0]\n 28707: a0 = u64 [s1 + 0x540]\n 28711: u64 [s1 + 0x158] = a0\n 28715: u64 [s1 + 0x178] = a2\n 28719: jump @782 if a2 >u 95\n      : @781 (gas: 4)\n 28723: a0 = u64 [s1 + 0x238]\n 28727: u64 [s1 + 376] = 0x60\n 28732: u32 [a0 + 0] = 0x60\n 28735: fallthrough\n      : @782 (gas: 22)\n 28736: a0 = u64 [s1 + 0x230]\n 28740: a1 = u64 [a0 + 0x58]\n 28743: a2 = u64 [a0 + 0x50]\n 28746: a5 = u64 [a0 + 0x48]\n 28749: a4 = u64 [a0 + 0x40]\n 28752: a0 = reverse a1\n 28754: a3 = reverse a2\n 28756: a1 = reverse a5\n 28758: a2 = reverse a4\n 28760: a5 = a2 >u 0\n 28762: a4 = a1 >u 0\n 28764: a4 = a5 if a2 != 0\n 28767: t1 = a3 >u 0\n 28769: u64 [s1 + 0x228] = a0\n 28773: a5 = a0 <u 0xffffffffffffffa0\n 28776: a5 = a5 ^ 0x1\n 28779: u64 [s1 + 0x1a0] = a3\n 28783: a5 = t1 if a3 != 0\n 28786: a0 = a1 | a2\n 28789: u64 [s1 + 0x170] = a0\n 28793: a5 = a4 if a0 != 0\n 28796: jump @784 if a5 == 0\n      : @783 (gas: 1)\n 28799: jump @994\n      : @784 (gas: 27)\n 28802: a5 = u64 [s1 + 0x228]\n 28806: t2 = a5 + 0x60\n 28809: a4 = t2 <u a5\n 28812: t0 = u64 [s1 + 0x1a0]\n 28816: a3 = t0 + a4\n 28819: a0 = a3 <u t0\n 28822: a0 = a4 if a4 == 0\n 28825: a0 = a0 + a1\n 28828: a4 = a0 <u a1\n 28831: a4 = a4 + a2\n 28834: t1 = reverse a4\n 28836: ra = reverse a0\n 28838: a0 = reverse a3\n 28840: a3 = reverse t2\n 28842: a4 = u64 [s1 + 0x230]\n 28846: u64 [a4 + 0x58] = a3\n 28849: u64 [a4 + 0x50] = a0\n 28852: u64 [a4 + 0x48] = ra\n 28855: a0 = a5 | a1\n 28858: a2 = t0 | a2\n 28861: a0 = a0 | a2\n 28864: a0 = a0 >> 0x20\n 28867: a1 = a1 | a2\n 28870: a1 = a1 << 0x20\n 28873: a0 = a0 | a1\n 28876: u64 [a4 + 0x40] = t1\n 28879: jump @786 if a0 == 0\n      : @785 (gas: 1)\n 28882: jump @660\n      : @786 (gas: 3)\n 28885: a0 = u64 [s1 + 0x228]\n 28889: i32 a0 = a0 >> 0x10\n 28892: jump @788 if a0 == 0\n      : @787 (gas: 1)\n 28895: jump @660\n      : @788 (gas: 6)\n 28898: a0 = u64 [s1 + 0x228]\n 28902: a0 = a0 + 0x3f\n 28905: a1 = u64 [s1 + 0x1f0]\n 28909: a1 = a1 & a0\n 28912: u64 [s1 + 0x148] = a1\n 28916: jump @790 if a1 <=u 65536\n      : @789 (gas: 1)\n 28922: jump @660\n      : @790 (gas: 3)\n 28925: a0 = u64 [s1 + 0x148]\n 28929: a1 = u64 [s1 + 0x178]\n 28933: jump @792 if a1 >=u a0\n      : @791 (gas: 5)\n 28936: a0 = u64 [s1 + 0x238]\n 28940: t0 = u64 [s1 + 0x148]\n 28944: u32 [a0] = t0\n 28946: u64 [s1 + 0x178] = t0\n 28950: fallthrough\n      : @792 (gas: 76)\n 28951: a3 = u64 [s1 + 0x228]\n 28955: i32 a0 = a3 + 0\n 28957: a1 = u64 [s1 + 0x230]\n 28961: a2 = a1 + a0\n 28964: a4 = u64 [s1 + 0x190]\n 28968: u8 [a2 + 0x10] = a4\n 28971: a1 = u64 [s1 + 0x180]\n 28975: a0 = a1 >> 0x38\n 28978: u8 [a2 + 0xf] = a0\n 28981: a0 = a1 >> 0x30\n 28984: u8 [a2 + 0xe] = a0\n 28987: a0 = a1 >> 0x28\n 28990: u8 [a2 + 0xd] = a0\n 28993: a0 = a1 >> 0x20\n 28996: u8 [a2 + 0xc] = a0\n 28999: a0 = a1 >> 0x18\n 29002: u8 [a2 + 0xb] = a0\n 29005: a0 = a1 >> 0x10\n 29008: u8 [a2 + 0xa] = a0\n 29011: a0 = a1 >> 0x8\n 29014: u8 [a2 + 0x9] = a0\n 29017: u8 [a2 + 0x8] = a1\n 29020: a1 = u64 [s1 + 0x188]\n 29024: a0 = a1 >> 0x38\n 29027: u8 [a2 + 0x7] = a0\n 29030: a0 = a1 >> 0x30\n 29033: u8 [a2 + 0x6] = a0\n 29036: a0 = a1 >> 0x28\n 29039: u8 [a2 + 0x5] = a0\n 29042: a0 = a1 >> 0x20\n 29045: u8 [a2 + 0x4] = a0\n 29048: a0 = a1 >> 0x18\n 29051: u8 [a2 + 0x3] = a0\n 29054: a0 = a1 >> 0x10\n 29057: u8 [a2 + 0x2] = a0\n 29060: a0 = a1 >> 0x8\n 29063: u8 [a2 + 0x1] = a0\n 29066: u8 [a2] = a1\n 29068: a1 = u64 [s1 + 0x198]\n 29072: u8 [a2 + 0x18] = a1\n 29075: a0 = a4 >> 0x38\n 29078: u8 [a2 + 0x17] = a0\n 29081: a0 = a4 >> 0x30\n 29084: u8 [a2 + 0x16] = a0\n 29087: a0 = a4 >> 0x28\n 29090: u8 [a2 + 0x15] = a0\n 29093: a0 = a4 >> 0x20\n 29096: u8 [a2 + 0x14] = a0\n 29099: a0 = a4 >> 0x18\n 29102: u8 [a2 + 0x13] = a0\n 29105: a0 = a4 >> 0x10\n 29108: u8 [a2 + 0x12] = a0\n 29111: a0 = a4 >> 0x8\n 29114: u8 [a2 + 0x11] = a0\n 29117: a0 = a1 >> 0x38\n 29120: u8 [a2 + 0x1f] = a0\n 29123: a0 = a1 >> 0x30\n 29126: u8 [a2 + 0x1e] = a0\n 29129: a0 = a1 >> 0x28\n 29132: u8 [a2 + 0x1d] = a0\n 29135: a0 = a1 >> 0x20\n 29138: u8 [a2 + 0x1c] = a0\n 29141: a0 = a1 >> 0x18\n 29144: u8 [a2 + 0x1b] = a0\n 29147: a0 = a1 >> 0x10\n 29150: u8 [a2 + 0x1a] = a0\n 29153: a0 = a1 >> 0x8\n 29156: a1 = 0xffffffe0\n 29166: a1 = a3 <u a1\n 29169: a3 = u64 [s1 + 0x1a0]\n 29173: a1 = 0 if a3 != 0\n 29175: a3 = u64 [s1 + 0x170]\n 29179: a1 = 0 if a3 != 0\n 29181: u64 [s1 + 0x198] = a2\n 29185: u8 [a2 + 0x19] = a0\n 29188: jump @794 if a1 != 0\n      : @793 (gas: 1)\n 29191: jump @660\n      : @794 (gas: 4)\n 29194: a0 = u64 [s1 + 0x228]\n 29198: i32 a1 = a0 >> 0x5\n 29201: u64 [s1 + 0x190] = a1\n 29205: jump @796 if a1 <u 2047\n      : @795 (gas: 1)\n 29210: jump @660\n      : @796 (gas: 6)\n 29213: a0 = u64 [s1 + 0x228]\n 29217: a0 = a0 + 0x5f\n 29220: a1 = u64 [s1 + 0x1f0]\n 29224: a1 = a1 & a0\n 29227: u64 [s1 + 0x188] = a1\n 29231: jump @798 if a1 <=u 65536\n      : @797 (gas: 1)\n 29237: jump @660\n      : @798 (gas: 5)\n 29240: a0 = u64 [s1 + 0x228]\n 29244: i32 a1 = a0 + 0x20\n 29247: a0 = u64 [s1 + 0x188]\n 29251: a2 = u64 [s1 + 0x178]\n 29255: jump @800 if a2 >=u a0\n      : @799 (gas: 4)\n 29258: a0 = u64 [s1 + 0x238]\n 29262: a2 = u64 [s1 + 0x188]\n 29266: u32 [a0] = a2\n 29268: fallthrough\n      : @800 (gas: 101)\n 29269: a0 = u64 [s1 + 0x230]\n 29273: a3 = a0 + a1\n 29276: a1 = u64 [s1 + 0x90]\n 29280: u8 [a3 + 0x8] = a1\n 29283: a0 = u64 [s1 + 0x88]\n 29287: a2 = a0 >> 0x38\n 29290: u64 [s1 + 0x140] = a2\n 29294: u8 [a3 + 0x7] = a2\n 29297: a2 = a0 >> 0x30\n 29300: u64 [s1 + 0x138] = a2\n 29304: u8 [a3 + 0x6] = a2\n 29307: a2 = a0 >> 0x28\n 29310: u64 [s1 + 0x130] = a2\n 29314: u8 [a3 + 0x5] = a2\n 29317: a2 = a0 >> 0x20\n 29320: u64 [s1 + 0x128] = a2\n 29324: u8 [a3 + 0x4] = a2\n 29327: a2 = a0 >> 0x18\n 29330: u64 [s1 + 0x120] = a2\n 29334: u8 [a3 + 0x3] = a2\n 29337: a2 = a0 >> 0x10\n 29340: u64 [s1 + 0x118] = a2\n 29344: u8 [a3 + 0x2] = a2\n 29347: a2 = a0 >> 0x8\n 29350: u64 [s1 + 0x110] = a2\n 29354: u8 [a3 + 0x1] = a2\n 29357: u8 [a3] = a0\n 29359: a0 = u64 [s1 + 0x98]\n 29363: u8 [a3 + 0x10] = a0\n 29366: a2 = a1 >> 0x38\n 29369: u64 [s1 + 0xf8] = a2\n 29373: u8 [a3 + 0xf] = a2\n 29376: a2 = a1 >> 0x30\n 29379: u64 [s1 + 0xe8] = a2\n 29383: u8 [a3 + 0xe] = a2\n 29386: a2 = a1 >> 0x28\n 29389: u64 [s1 + 0xd8] = a2\n 29393: u8 [a3 + 0xd] = a2\n 29396: a2 = a1 >> 0x20\n 29399: u64 [s1 + 0xc8] = a2\n 29403: u8 [a3 + 0xc] = a2\n 29406: a2 = a1 >> 0x18\n 29409: u64 [s1 + 0xb8] = a2\n 29413: u8 [a3 + 0xb] = a2\n 29416: a2 = a1 >> 0x10\n 29419: u64 [s1 + 0xa8] = a2\n 29423: u8 [a3 + 0xa] = a2\n 29426: a1 = a1 >> 0x8\n 29429: u64 [s1 + 0x78] = a1\n 29432: u8 [a3 + 0x9] = a1\n 29435: a1 = u64 [s1 + 0x80]\n 29439: u8 [a3 + 0x18] = a1\n 29442: a2 = a0 >> 0x38\n 29445: u64 [s1 + 0x108] = a2\n 29449: u8 [a3 + 0x17] = a2\n 29452: a2 = a0 >> 0x30\n 29455: u64 [s1 + 0x100] = a2\n 29459: u8 [a3 + 0x16] = a2\n 29462: a2 = a0 >> 0x28\n 29465: u64 [s1 + 0xf0] = a2\n 29469: u8 [a3 + 0x15] = a2\n 29472: a2 = a0 >> 0x20\n 29475: u64 [s1 + 0xe0] = a2\n 29479: u8 [a3 + 0x14] = a2\n 29482: a2 = a0 >> 0x18\n 29485: u64 [s1 + 0xd0] = a2\n 29489: u8 [a3 + 0x13] = a2\n 29492: a2 = a0 >> 0x10\n 29495: u64 [s1 + 0xc0] = a2\n 29499: u8 [a3 + 0x12] = a2\n 29502: a0 = a0 >> 0x8\n 29505: u64 [s1 + 0xb0] = a0\n 29509: u8 [a3 + 0x11] = a0\n 29512: a0 = a1 >> 0x38\n 29515: u64 [s1 + 0xa0] = a0\n 29519: u8 [a3 + 0x1f] = a0\n 29522: a0 = a1 >> 0x30\n 29525: u64 [s1 + 0x70] = a0\n 29528: u8 [a3 + 0x1e] = a0\n 29531: a0 = a1 >> 0x28\n 29534: u64 [s1 + 0x68] = a0\n 29537: u8 [a3 + 0x1d] = a0\n 29540: a0 = a1 >> 0x20\n 29543: u64 [s1 + 0x60] = a0\n 29546: u8 [a3 + 0x1c] = a0\n 29549: a0 = a1 >> 0x18\n 29552: u64 [s1 + 0x58] = a0\n 29555: u8 [a3 + 0x1b] = a0\n 29558: a0 = a1 >> 0x10\n 29561: u64 [s1 + 0x50] = a0\n 29564: u8 [a3 + 0x1a] = a0\n 29567: a1 = a1 >> 0x8\n 29570: u64 [s1 + 0x48] = a1\n 29573: u64 [s1 + 0x40] = a3\n 29576: u8 [a3 + 0x19] = a1\n 29579: a0 = 0x30060\n 29584: u64 [s1 + 0x180] = a0\n 29588: i32 a0 = a0 + 0\n 29590: u64 [s1 + 0x178] = a0\n 29594: ecalli 4 // 'caller'\n 29596: fallthrough\n      : @801 (gas: 8)\n 29597: a0 = 0xffffffc0\n 29607: a1 = u64 [s1 + 0x228]\n 29611: a0 = a1 <u a0\n 29614: a1 = u64 [s1 + 0x1a0]\n 29618: a0 = 0 if a1 != 0\n 29620: a1 = u64 [s1 + 0x170]\n 29624: a0 = 0 if a1 != 0\n 29626: jump @803 if a0 != 0\n      : @802 (gas: 1)\n 29629: jump @660\n      : @803 (gas: 3)\n 29632: a0 = u64 [s1 + 0x228]\n 29636: i32 a0 = a0 >> 0x6\n 29639: jump @805 if a0 <u 1023\n      : @804 (gas: 1)\n 29644: jump @660\n      : @805 (gas: 6)\n 29647: a0 = u64 [s1 + 0x228]\n 29651: a0 = a0 + 0x7f\n 29654: a1 = u64 [s1 + 0x1f0]\n 29658: a1 = a1 & a0\n 29661: u64 [s1 + 0x28] = a1\n 29664: jump @807 if a1 <=u 65536\n      : @806 (gas: 1)\n 29670: jump @660\n      : @807 (gas: 20)\n 29673: a2 = u64 [s1 + 0x180]\n 29677: a0 = u64 [a2 + 0x8]\n 29680: a1 = u64 [a2]\n 29682: a3 = i32 [a2 + 0x10]\n 29685: a0 = reverse a0\n 29687: a2 = a0 >> 0x20\n 29690: a1 = reverse a1\n 29692: a4 = a1 << 0x20\n 29695: a2 = a2 | a4\n 29698: a4 = a0 << 0x20\n 29701: a3 = reverse a3\n 29703: a0 = u64 [s1 + 0x238]\n 29707: t0 = i32 [a0]\n 29709: a3 = a3 >> 0x20\n 29712: a3 = a3 | a4\n 29715: a1 = a1 >> 0x20\n 29718: a0 = u64 [s1 + 0x228]\n 29722: i32 a4 = a0 + 0x40\n 29725: a0 = u64 [s1 + 0x28]\n 29728: jump @809 if t0 >=u a0\n      : @808 (gas: 4)\n 29731: a0 = u64 [s1 + 0x238]\n 29735: t0 = u64 [s1 + 0x28]\n 29738: u32 [a0] = t0\n 29740: fallthrough\n      : @809 (gas: 57)\n 29741: a5 = u64 [s1 + 0x230]\n 29745: a5 = a5 + a4\n 29748: a1 = reverse a1\n 29750: a2 = reverse a2\n 29752: a3 = reverse a3\n 29754: u8 [a5 + 0x18] = a3\n 29757: u8 [a5 + 11] = 0\n 29760: u8 [a5 + 10] = 0\n 29763: u8 [a5 + 9] = 0\n 29766: u8 [a5 + 7] = 0\n 29769: u8 [a5 + 6] = 0\n 29772: u8 [a5 + 5] = 0\n 29775: u8 [a5 + 4] = 0\n 29778: u8 [a5 + 3] = 0\n 29781: u8 [a5 + 2] = 0\n 29784: u8 [a5 + 1] = 0\n 29787: u8 [a5 + 0] = 0\n 29789: a4 = a3 >> 0x38\n 29792: u8 [a5 + 0x1f] = a4\n 29795: a4 = a3 >> 0x30\n 29798: u8 [a5 + 0x1e] = a4\n 29801: a4 = a3 >> 0x28\n 29804: u8 [a5 + 0x1d] = a4\n 29807: a4 = a3 >> 0x20\n 29810: u8 [a5 + 0x1c] = a4\n 29813: a4 = a3 >> 0x18\n 29816: u8 [a5 + 0x1b] = a4\n 29819: a4 = a3 >> 0x10\n 29822: u8 [a5 + 0x1a] = a4\n 29825: a3 = a3 >> 0x8\n 29828: u8 [a5 + 0x19] = a3\n 29831: u8 [a5 + 0x10] = a2\n 29834: a3 = a2 >> 0x38\n 29837: u8 [a5 + 0x17] = a3\n 29840: a3 = a2 >> 0x30\n 29843: u8 [a5 + 0x16] = a3\n 29846: a3 = a2 >> 0x28\n 29849: u8 [a5 + 0x15] = a3\n 29852: a3 = a2 >> 0x20\n 29855: u8 [a5 + 0x14] = a3\n 29858: a3 = a2 >> 0x18\n 29861: u8 [a5 + 0x13] = a3\n 29864: a3 = a2 >> 0x10\n 29867: u8 [a5 + 0x12] = a3\n 29870: a2 = a2 >> 0x8\n 29873: u8 [a5 + 0x11] = a2\n 29876: u8 [a5 + 0x8] = a1\n 29879: a2 = a1 >> 0x38\n 29882: u8 [a5 + 0xf] = a2\n 29885: a2 = a1 >> 0x30\n 29888: u8 [a5 + 0xe] = a2\n 29891: a2 = a1 >> 0x28\n 29894: u8 [a5 + 0xd] = a2\n 29897: a1 = a1 >> 0x20\n 29900: u64 [s1 + 0x18] = a5\n 29903: u8 [a5 + 0xc] = a1\n 29906: jump @811 if t0 >u 95\n      : @810 (gas: 4)\n 29910: t0 = 0x60\n 29913: a1 = u64 [s1 + 0x238]\n 29917: u32 [a1] = t0\n 29919: fallthrough\n      : @811 (gas: 30)\n 29920: a4 = u64 [s1 + 0x230]\n 29924: a1 = u64 [a4 + 0x40]\n 29927: a2 = u64 [a4 + 0x48]\n 29930: a3 = u64 [a4 + 0x50]\n 29933: a4 = u64 [a4 + 0x58]\n 29936: a0 = reverse a1\n 29938: a5 = reverse a2\n 29940: a3 = reverse a3\n 29942: a1 = reverse a4\n 29944: a4 = a1 + 0x20\n 29947: u64 [s1 + 0x1a0] = a1\n 29951: a1 = a4 <u a1\n 29954: a2 = a3 + a1\n 29957: u64 [s1 + 0x170] = a3\n 29961: a3 = a2 <u a3\n 29964: a3 = a1 if a1 == 0\n 29967: a3 = a3 + a5\n 29970: u64 [s1 + 0x38] = a5\n 29973: a1 = a3 <u a5\n 29976: u64 [s1 + 0x30] = a0\n 29979: a1 = a1 + a0\n 29982: u64 [s1 + 0x20] = a4\n 29985: a4 = a4 | a3\n 29988: a1 = a1 | a2\n 29991: a4 = a4 | a1\n 29994: a4 = a4 >> 0x20\n 29997: a1 = a1 | a3\n 30000: a1 = a1 << 0x20\n 30003: a1 = a1 | a4\n 30006: jump @813 if a1 == 0\n      : @812 (gas: 1)\n 30009: jump @660\n      : @813 (gas: 3)\n 30012: a1 = u64 [s1 + 0x20]\n 30015: i32 a1 = a1 >> 0x10\n 30018: jump @815 if a1 == 0\n      : @814 (gas: 1)\n 30021: jump @660\n      : @815 (gas: 5)\n 30024: a1 = u64 [s1 + 0x20]\n 30027: a1 = a1 + 0x3f\n 30030: a2 = u64 [s1 + 0x1f0]\n 30034: a1 = a1 & a2\n 30037: jump @817 if a1 <=u 65536\n      : @816 (gas: 1)\n 30043: jump @660\n      : @817 (gas: 1)\n 30046: jump @819 if t0 >=u a1\n      : @818 (gas: 3)\n 30049: a0 = u64 [s1 + 0x238]\n 30053: u32 [a0] = a1\n 30055: fallthrough\n      : @819 (gas: 63)\n 30056: a0 = i32 [s1 + 0x20]\n 30059: a1 = u64 [s1 + 0x230]\n 30063: a1 = a1 + a0\n 30066: u8 [a1 + 31] = 0\n 30069: u8 [a1 + 30] = 0\n 30072: u8 [a1 + 29] = 0\n 30075: u8 [a1 + 28] = 0\n 30078: u8 [a1 + 27] = 0\n 30081: u8 [a1 + 26] = 0\n 30084: u8 [a1 + 25] = 0\n 30087: u8 [a1 + 24] = 0\n 30090: u8 [a1 + 23] = 0\n 30093: u8 [a1 + 22] = 0\n 30096: u8 [a1 + 21] = 0\n 30099: u8 [a1 + 20] = 0\n 30102: u8 [a1 + 19] = 0\n 30105: u8 [a1 + 18] = 0\n 30108: u8 [a1 + 17] = 0\n 30111: u8 [a1 + 16] = 0\n 30114: u8 [a1 + 15] = 0\n 30117: u8 [a1 + 14] = 0\n 30120: u8 [a1 + 13] = 0\n 30123: u8 [a1 + 12] = 0\n 30126: u8 [a1 + 11] = 0\n 30129: u8 [a1 + 10] = 0\n 30132: u8 [a1 + 9] = 0\n 30135: u8 [a1 + 8] = 0\n 30138: u8 [a1 + 7] = 0\n 30141: u8 [a1 + 6] = 0\n 30144: u8 [a1 + 5] = 0\n 30147: u8 [a1 + 4] = 0\n 30150: u8 [a1 + 3] = 0xea\n 30155: u8 [a1 + 2] = 0x9f\n 30160: u8 [a1 + 1] = 0x47\n 30164: u64 [s1 + 0x10] = a1\n 30167: u8 [a1 + 0] = 0x11\n 30170: a1 = u64 [s1 + 0x1a0]\n 30174: a0 = a1 + 0x24\n 30177: a1 = a0 <u a1\n 30180: a3 = u64 [s1 + 0x170]\n 30184: a2 = a3 + a1\n 30187: a3 = a2 <u a3\n 30190: a3 = a1 if a1 == 0\n 30193: a1 = u64 [s1 + 0x38]\n 30196: a3 = a3 + a1\n 30199: a1 = a3 <u a1\n 30202: a4 = u64 [s1 + 0x30]\n 30205: a4 = a4 + a1\n 30208: u64 [s1 + 0x508] = a2\n 30212: u64 [s1 + 0x500] = a0\n 30216: a0 = u64 [s1 + 0x208]\n 30220: u64 [s1 + 0x538] = a0\n 30224: a0 = u64 [s1 + 0x210]\n 30228: u64 [s1 + 0x530] = a0\n 30232: a0 = u64 [s1 + 0x218]\n 30236: u64 [s1 + 0x528] = a0\n 30240: a0 = u64 [s1 + 0x220]\n 30244: u64 [s1 + 0x520] = a0\n 30248: u64 [s1 + 0x510] = a3\n 30252: a0 = s1 + 0x520\n 30256: a1 = s1 + 0x500\n 30260: u64 [s1 + 0x518] = a4\n 30264: ra = 68, jump @1084\n      : @820 [@dyn 34] (gas: 2)\n 30269: a0 = u64 [s1 + 0x1e8]\n 30273: jump @822 if a0 == 0\n      : @821 (gas: 1)\n 30276: jump @660\n      : @822 (gas: 2)\n 30279: a1 = u64 [s1 + 0x1e0]\n 30283: jump @824 if a1 <=u 65536\n      : @823 (gas: 1)\n 30289: jump @660\n      : @824 (gas: 5)\n 30292: a0 = u64 [s1 + 0x238]\n 30296: a1 = i32 [a0]\n 30298: a0 = u64 [s1 + 0x1e0]\n 30302: u64 [s1 + 0x228] = a1\n 30306: jump @826 if a1 >=u a0\n      : @825 (gas: 5)\n 30309: a0 = u64 [s1 + 0x238]\n 30313: a1 = u64 [s1 + 0x1e0]\n 30317: u32 [a0] = a1\n 30319: u64 [s1 + 0x228] = a1\n 30323: fallthrough\n      : @826 (gas: 105)\n 30324: t1 = u64 [s1 + 0x168]\n 30328: a0 = u8 [t1 + 0x11]\n 30331: a1 = u8 [t1 + 0x10]\n 30334: a2 = u8 [t1 + 0x12]\n 30337: a3 = u8 [t1 + 0x13]\n 30340: a0 = a0 << 0x8\n 30343: a0 = a0 | a1\n 30346: a2 = a2 << 0x10\n 30349: a3 = a3 << 0x18\n 30352: a2 = a2 | a3\n 30355: a0 = a0 | a2\n 30358: a1 = u8 [t1 + 0x15]\n 30361: a2 = u8 [t1 + 0x14]\n 30364: a3 = u8 [t1 + 0x16]\n 30367: a4 = u8 [t1 + 0x17]\n 30370: a1 = a1 << 0x8\n 30373: a1 = a1 | a2\n 30376: a3 = a3 << 0x10\n 30379: a4 = a4 << 0x18\n 30382: a3 = a3 | a4\n 30385: a1 = a1 | a3\n 30388: a1 = a1 << 0x20\n 30391: t0 = a1 | a0\n 30394: a1 = u8 [t1 + 0x1]\n 30397: a2 = u8 [t1]\n 30399: a3 = u8 [t1 + 0x2]\n 30402: a4 = u8 [t1 + 0x3]\n 30405: a1 = a1 << 0x8\n 30408: a1 = a1 | a2\n 30411: a3 = a3 << 0x10\n 30414: a4 = a4 << 0x18\n 30417: a3 = a3 | a4\n 30420: a1 = a1 | a3\n 30423: a2 = u8 [t1 + 0x5]\n 30426: a3 = u8 [t1 + 0x4]\n 30429: a4 = u8 [t1 + 0x6]\n 30432: a5 = u8 [t1 + 0x7]\n 30435: a2 = a2 << 0x8\n 30438: a2 = a2 | a3\n 30441: a4 = a4 << 0x10\n 30444: a5 = a5 << 0x18\n 30447: a4 = a4 | a5\n 30450: a2 = a2 | a4\n 30453: a2 = a2 << 0x20\n 30456: ra = a2 | a1\n 30459: a2 = u8 [t1 + 0x19]\n 30462: a3 = u8 [t1 + 0x18]\n 30465: a4 = u8 [t1 + 0x1a]\n 30468: a5 = u8 [t1 + 0x1b]\n 30471: a2 = a2 << 0x8\n 30474: a2 = a2 | a3\n 30477: a4 = a4 << 0x10\n 30480: a5 = a5 << 0x18\n 30483: a4 = a4 | a5\n 30486: a2 = a2 | a4\n 30489: a3 = u8 [t1 + 0x1d]\n 30492: a4 = u8 [t1 + 0x1c]\n 30495: a5 = u8 [t1 + 0x1e]\n 30498: a0 = u8 [t1 + 0x1f]\n 30501: a3 = a3 << 0x8\n 30504: a3 = a3 | a4\n 30507: a5 = a5 << 0x10\n 30510: a0 = a0 << 0x18\n 30513: a0 = a0 | a5\n 30516: a0 = a0 | a3\n 30519: a0 = a0 << 0x20\n 30522: a2 = a2 | a0\n 30525: a0 = u8 [t1 + 0x9]\n 30528: a3 = u8 [t1 + 0x8]\n 30531: a4 = u8 [t1 + 0xa]\n 30534: a5 = u8 [t1 + 0xb]\n 30537: a0 = a0 << 0x8\n 30540: a0 = a0 | a3\n 30543: a4 = a4 << 0x10\n 30546: a5 = a5 << 0x18\n 30549: a4 = a4 | a5\n 30552: a0 = a0 | a4\n 30555: a3 = u8 [t1 + 0xd]\n 30558: a4 = u8 [t1 + 0xc]\n 30561: a5 = u8 [t1 + 0xe]\n 30564: a1 = u8 [t1 + 0xf]\n 30567: a3 = a3 << 0x8\n 30570: a3 = a3 | a4\n 30573: a5 = a5 << 0x10\n 30576: a1 = a1 << 0x18\n 30579: a1 = a1 | a5\n 30582: a1 = a1 | a3\n 30585: a1 = a1 << 0x20\n 30588: a0 = a0 | a1\n 30591: a3 = reverse a0\n 30593: a1 = reverse a2\n 30595: a0 = reverse ra\n 30597: a2 = reverse t0\n 30599: u64 [s1 + 0x208] = a0\n 30603: u64 [s1 + 0x1e8] = a2\n 30607: a0 = a0 | a2\n 30610: u64 [s1 + 0x220] = a1\n 30614: a1 = a1 | a3\n 30617: a1 = a1 | a0\n 30620: a1 = a1 >> 0x20\n 30623: u64 [s1 + 0x210] = a3\n 30627: a0 = a0 | a3\n 30630: a0 = a0 << 0x20\n 30633: a0 = a0 | a1\n 30636: jump @828 if a0 == 0\n      : @827 (gas: 1)\n 30639: jump @660\n      : @828 (gas: 3)\n 30642: a0 = u64 [s1 + 0x220]\n 30646: i32 a0 = a0 >> 0x10\n 30649: jump @830 if a0 == 0\n      : @829 (gas: 1)\n 30652: jump @660\n      : @830 (gas: 5)\n 30655: a0 = u64 [s1 + 0x220]\n 30659: a0 = a0 + 0x3f\n 30662: a1 = u64 [s1 + 0x1f0]\n 30666: a0 = a0 & a1\n 30669: jump @832 if a0 <=u 65536\n      : @831 (gas: 1)\n 30675: jump @660\n      : @832 (gas: 15)\n 30678: a1 = u64 [s1 + 0x1a0]\n 30682: a2 = a1 + 0x64\n 30685: u64 [s1 + 0x218] = a2\n 30689: a2 = a2 <u a1\n 30692: a3 = u64 [s1 + 0x170]\n 30696: a1 = a3 + a2\n 30699: a3 = a1 <u a3\n 30702: a3 = a2 if a2 == 0\n 30705: a4 = u64 [s1 + 0x38]\n 30708: a2 = a4 + a3\n 30711: a3 = a2 <u a4\n 30714: a4 = u64 [s1 + 0x30]\n 30717: a3 = a3 + a4\n 30720: a4 = u64 [s1 + 0x228]\n 30724: jump @834 if a4 >=u a0\n      : @833 (gas: 4)\n 30727: a4 = u64 [s1 + 0x238]\n 30731: u32 [a4] = a0\n 30733: u64 [s1 + 0x228] = a0\n 30737: fallthrough\n      : @834 (gas: 9)\n 30738: a0 = u64 [s1 + 0x218]\n 30742: a0 = a0 | a2\n 30745: a1 = a1 | a3\n 30748: a0 = a0 | a1\n 30751: a0 = a0 >> 0x20\n 30754: a1 = a1 | a2\n 30757: a1 = a1 << 0x20\n 30760: a0 = a0 | a1\n 30763: jump @836 if a0 == 0\n      : @835 (gas: 1)\n 30766: jump @660\n      : @836 (gas: 3)\n 30769: a0 = u64 [s1 + 0x218]\n 30773: i32 a0 = a0 >> 0x10\n 30776: jump @838 if a0 == 0\n      : @837 (gas: 1)\n 30779: jump @660\n      : @838 (gas: 5)\n 30782: a0 = u64 [s1 + 0x218]\n 30786: a0 = a0 + 0x3f\n 30789: a1 = u64 [s1 + 0x1f0]\n 30793: ra = a0 & a1\n 30796: jump @840 if ra <=u 65536\n      : @839 (gas: 1)\n 30802: jump @660\n      : @840 (gas: 93)\n 30805: a1 = i32 [s1 + 0x220]\n 30809: a0 = u64 [s1 + 0x230]\n 30813: a1 = a1 + a0\n 30816: a0 = u8 [a1 + 0x19]\n 30819: a2 = u8 [a1 + 0x18]\n 30822: a4 = u8 [a1 + 0x1a]\n 30825: a5 = u8 [a1 + 0x1b]\n 30828: a0 = a0 << 0x8\n 30831: a0 = a0 | a2\n 30834: a4 = a4 << 0x10\n 30837: a5 = a5 << 0x18\n 30840: a4 = a4 | a5\n 30843: a0 = a0 | a4\n 30846: a2 = u8 [a1 + 0x1d]\n 30849: a4 = u8 [a1 + 0x1c]\n 30852: a5 = u8 [a1 + 0x1e]\n 30855: a3 = u8 [a1 + 0x1f]\n 30858: a2 = a2 << 0x8\n 30861: a2 = a2 | a4\n 30864: a5 = a5 << 0x10\n 30867: a3 = a3 << 0x18\n 30870: a3 = a3 | a5\n 30873: a2 = a2 | a3\n 30876: a2 = a2 << 0x20\n 30879: t1 = a2 | a0\n 30882: a0 = u8 [a1 + 0x11]\n 30885: a2 = u8 [a1 + 0x10]\n 30888: a3 = u8 [a1 + 0x12]\n 30891: a5 = u8 [a1 + 0x13]\n 30894: a0 = a0 << 0x8\n 30897: a0 = a0 | a2\n 30900: a3 = a3 << 0x10\n 30903: a5 = a5 << 0x18\n 30906: a3 = a3 | a5\n 30909: a0 = a0 | a3\n 30912: a2 = u8 [a1 + 0x15]\n 30915: a3 = u8 [a1 + 0x14]\n 30918: a5 = u8 [a1 + 0x16]\n 30921: a4 = u8 [a1 + 0x17]\n 30924: a2 = a2 << 0x8\n 30927: a2 = a2 | a3\n 30930: a5 = a5 << 0x10\n 30933: a4 = a4 << 0x18\n 30936: a4 = a4 | a5\n 30939: a2 = a2 | a4\n 30942: a2 = a2 << 0x20\n 30945: t2 = a2 | a0\n 30948: a2 = u8 [a1 + 0x9]\n 30951: a3 = u8 [a1 + 0x8]\n 30954: a4 = u8 [a1 + 0xa]\n 30957: a5 = u8 [a1 + 0xb]\n 30960: a2 = a2 << 0x8\n 30963: a2 = a2 | a3\n 30966: a4 = a4 << 0x10\n 30969: a5 = a5 << 0x18\n 30972: a4 = a4 | a5\n 30975: a2 = a2 | a4\n 30978: a3 = u8 [a1 + 0xd]\n 30981: a4 = u8 [a1 + 0xc]\n 30984: a5 = u8 [a1 + 0xe]\n 30987: a0 = u8 [a1 + 0xf]\n 30990: a3 = a3 << 0x8\n 30993: a3 = a3 | a4\n 30996: a5 = a5 << 0x10\n 30999: a0 = a0 << 0x18\n 31002: a0 = a0 | a5\n 31005: a0 = a0 | a3\n 31008: a0 = a0 << 0x20\n 31011: a2 = a2 | a0\n 31014: a0 = u8 [a1 + 0x1]\n 31017: a3 = u8 [a1]\n 31019: a4 = u8 [a1 + 0x2]\n 31022: a5 = u8 [a1 + 0x3]\n 31025: a0 = a0 << 0x8\n 31028: a0 = a0 | a3\n 31031: a4 = a4 << 0x10\n 31034: a5 = a5 << 0x18\n 31037: a4 = a4 | a5\n 31040: a0 = a0 | a4\n 31043: a3 = u8 [a1 + 0x5]\n 31046: a4 = u8 [a1 + 0x4]\n 31049: a5 = u8 [a1 + 0x6]\n 31052: a1 = u8 [a1 + 0x7]\n 31055: a3 = a3 << 0x8\n 31058: a3 = a3 | a4\n 31061: a5 = a5 << 0x10\n 31064: a1 = a1 << 0x18\n 31067: a1 = a1 | a5\n 31070: a1 = a1 | a3\n 31073: a1 = a1 << 0x20\n 31076: t0 = a1 | a0\n 31079: a0 = u64 [s1 + 0x228]\n 31083: jump @842 if a0 >=u ra\n      : @841 (gas: 4)\n 31086: a0 = u64 [s1 + 0x238]\n 31090: u32 [a0] = ra\n 31092: u64 [s1 + 0x228] = ra\n 31096: fallthrough\n      : @842 (gas: 77)\n 31097: a0 = 0xffffffdf\n 31107: a1 = u64 [s1 + 0x220]\n 31111: a0 = a0 <u a1\n 31114: a3 = u64 [s1 + 0x1e8]\n 31118: a1 = a3 >u 0\n 31120: a1 = a0 if a3 == 0\n 31123: a4 = u64 [s1 + 0x210]\n 31127: a0 = a4 >u 0\n 31129: a5 = u64 [s1 + 0x208]\n 31133: a3 = a5 >u 0\n 31135: a3 = a0 if a5 == 0\n 31138: a0 = a4 | a5\n 31141: a1 = a3 if a0 != 0\n 31144: a3 = i32 [s1 + 0x218]\n 31148: a0 = u64 [s1 + 0x230]\n 31152: a3 = a3 + a0\n 31155: a0 = a2 >> 0x38\n 31158: u8 [a3 + 0xf] = a0\n 31161: a0 = a2 >> 0x30\n 31164: u8 [a3 + 0xe] = a0\n 31167: a0 = a2 >> 0x28\n 31170: u8 [a3 + 0xd] = a0\n 31173: a0 = a2 >> 0x20\n 31176: u8 [a3 + 0xc] = a0\n 31179: a0 = a2 >> 0x18\n 31182: u8 [a3 + 0xb] = a0\n 31185: a0 = a2 >> 0x10\n 31188: u8 [a3 + 0xa] = a0\n 31191: a0 = a2 >> 0x8\n 31194: u8 [a3 + 0x9] = a0\n 31197: u8 [a3 + 0x8] = a2\n 31200: a0 = t0 >> 0x38\n 31203: u8 [a3 + 0x7] = a0\n 31206: a0 = t0 >> 0x30\n 31209: u8 [a3 + 0x6] = a0\n 31212: a0 = t0 >> 0x28\n 31215: u8 [a3 + 0x5] = a0\n 31218: a0 = t0 >> 0x20\n 31221: u8 [a3 + 0x4] = a0\n 31224: a0 = t0 >> 0x18\n 31227: u8 [a3 + 0x3] = a0\n 31230: a0 = t0 >> 0x10\n 31233: u8 [a3 + 0x2] = a0\n 31236: a0 = t0 >> 0x8\n 31239: u8 [a3 + 0x1] = a0\n 31242: u8 [a3] = t0\n 31244: a0 = t2 >> 0x38\n 31247: u8 [a3 + 0x17] = a0\n 31250: a0 = t2 >> 0x30\n 31253: u8 [a3 + 0x16] = a0\n 31256: a0 = t2 >> 0x28\n 31259: u8 [a3 + 0x15] = a0\n 31262: a0 = t2 >> 0x20\n 31265: u8 [a3 + 0x14] = a0\n 31268: a0 = t2 >> 0x18\n 31271: u8 [a3 + 0x13] = a0\n 31274: a0 = t2 >> 0x10\n 31277: u8 [a3 + 0x12] = a0\n 31280: u8 [a3 + 0x10] = t2\n 31283: a0 = t2 >> 0x8\n 31286: u8 [a3 + 0x11] = a0\n 31289: a0 = t1 >> 0x38\n 31292: u8 [a3 + 0x1f] = a0\n 31295: a0 = t1 >> 0x30\n 31298: u8 [a3 + 0x1e] = a0\n 31301: a0 = t1 >> 0x28\n 31304: u8 [a3 + 0x1d] = a0\n 31307: a0 = t1 >> 0x20\n 31310: u8 [a3 + 0x1c] = a0\n 31313: a0 = t1 >> 0x18\n 31316: u8 [a3 + 0x1b] = a0\n 31319: a0 = t1 >> 0x10\n 31322: u8 [a3 + 0x1a] = a0\n 31325: u8 [a3 + 0x18] = t1\n 31328: a0 = t1 >> 0x8\n 31331: u8 [a3 + 0x19] = a0\n 31334: jump @844 if a1 == 0\n      : @843 (gas: 1)\n 31337: jump @660\n      : @844 (gas: 3)\n 31340: a0 = u64 [s1 + 0x220]\n 31344: i32 a0 = a0 >> 0x5\n 31347: jump @846 if a0 <=u 2046\n      : @845 (gas: 1)\n 31352: jump @660\n      : @846 (gas: 5)\n 31355: a0 = u64 [s1 + 0x220]\n 31359: a0 = a0 + 0x5f\n 31362: a1 = u64 [s1 + 0x1f0]\n 31366: a1 = a1 & a0\n 31369: jump @848 if a1 <=u 65536\n      : @847 (gas: 1)\n 31375: jump @660\n      : @848 (gas: 14)\n 31378: a0 = u64 [s1 + 0x1a0]\n 31382: t0 = a0 + 0x84\n 31386: a3 = t0 <u a0\n 31389: a0 = u64 [s1 + 0x170]\n 31393: a2 = a0 + a3\n 31396: a4 = a2 <u a0\n 31399: a4 = a3 if a3 == 0\n 31402: a0 = u64 [s1 + 0x38]\n 31405: a3 = a0 + a4\n 31408: a4 = a3 <u a0\n 31411: a0 = u64 [s1 + 0x30]\n 31414: a4 = a4 + a0\n 31417: a0 = u64 [s1 + 0x228]\n 31421: jump @850 if a0 >=u a1\n      : @849 (gas: 4)\n 31424: a0 = u64 [s1 + 0x238]\n 31428: u32 [a0] = a1\n 31430: u64 [s1 + 0x228] = a1\n 31434: fallthrough\n      : @850 (gas: 8)\n 31435: a1 = t0 | a3\n 31438: a2 = a2 | a4\n 31441: a1 = a1 | a2\n 31444: a1 = a1 >> 0x20\n 31447: a2 = a2 | a3\n 31450: a2 = a2 << 0x20\n 31453: a1 = a1 | a2\n 31456: jump @852 if a1 == 0\n      : @851 (gas: 1)\n 31459: jump @660\n      : @852 (gas: 2)\n 31462: i32 a1 = t0 >> 0x10\n 31465: jump @854 if a1 == 0\n      : @853 (gas: 1)\n 31468: jump @660\n      : @854 (gas: 4)\n 31471: a1 = t0 + 0x3f\n 31474: a0 = u64 [s1 + 0x1f0]\n 31478: t1 = a1 & a0\n 31481: jump @856 if t1 <=u 65536\n      : @855 (gas: 1)\n 31487: jump @660\n      : @856 (gas: 94)\n 31490: a0 = u64 [s1 + 0x220]\n 31494: i32 a4 = a0 + 0x20\n 31497: a0 = u64 [s1 + 0x230]\n 31501: a4 = a4 + a0\n 31504: a1 = u8 [a4 + 0x19]\n 31507: a3 = u8 [a4 + 0x18]\n 31510: a5 = u8 [a4 + 0x1a]\n 31513: a0 = u8 [a4 + 0x1b]\n 31516: a1 = a1 << 0x8\n 31519: a1 = a1 | a3\n 31522: a5 = a5 << 0x10\n 31525: a0 = a0 << 0x18\n 31528: a0 = a0 | a5\n 31531: a0 = a0 | a1\n 31534: a1 = u8 [a4 + 0x1d]\n 31537: a3 = u8 [a4 + 0x1c]\n 31540: a5 = u8 [a4 + 0x1e]\n 31543: a2 = u8 [a4 + 0x1f]\n 31546: a1 = a1 << 0x8\n 31549: a1 = a1 | a3\n 31552: a5 = a5 << 0x10\n 31555: a2 = a2 << 0x18\n 31558: a2 = a2 | a5\n 31561: a1 = a1 | a2\n 31564: a1 = a1 << 0x20\n 31567: ra = a1 | a0\n 31570: a0 = u8 [a4 + 0x11]\n 31573: a2 = u8 [a4 + 0x10]\n 31576: a3 = u8 [a4 + 0x12]\n 31579: a5 = u8 [a4 + 0x13]\n 31582: a0 = a0 << 0x8\n 31585: a0 = a0 | a2\n 31588: a3 = a3 << 0x10\n 31591: a5 = a5 << 0x18\n 31594: a3 = a3 | a5\n 31597: t2 = a3 | a0\n 31600: a2 = u8 [a4 + 0x15]\n 31603: a3 = u8 [a4 + 0x14]\n 31606: a5 = u8 [a4 + 0x16]\n 31609: a0 = u8 [a4 + 0x17]\n 31612: a2 = a2 << 0x8\n 31615: a2 = a2 | a3\n 31618: a5 = a5 << 0x10\n 31621: a0 = a0 << 0x18\n 31624: a0 = a0 | a5\n 31627: a0 = a0 | a2\n 31630: a0 = a0 << 0x20\n 31633: a3 = a0 | t2\n 31636: a0 = u8 [a4 + 0x9]\n 31639: a2 = u8 [a4 + 0x8]\n 31642: a5 = u8 [a4 + 0xa]\n 31645: a1 = u8 [a4 + 0xb]\n 31648: a0 = a0 << 0x8\n 31651: a0 = a0 | a2\n 31654: a5 = a5 << 0x10\n 31657: a1 = a1 << 0x18\n 31660: a1 = a1 | a5\n 31663: t2 = a1 | a0\n 31666: a1 = u8 [a4 + 0xd]\n 31669: a2 = u8 [a4 + 0xc]\n 31672: a5 = u8 [a4 + 0xe]\n 31675: a0 = u8 [a4 + 0xf]\n 31678: a1 = a1 << 0x8\n 31681: a1 = a1 | a2\n 31684: a5 = a5 << 0x10\n 31687: a0 = a0 << 0x18\n 31690: a0 = a0 | a5\n 31693: a0 = a0 | a1\n 31696: a0 = a0 << 0x20\n 31699: a5 = a0 | t2\n 31702: t2 = u8 [a4 + 0x1]\n 31705: a1 = u8 [a4]\n 31707: a2 = u8 [a4 + 0x2]\n 31710: a0 = u8 [a4 + 0x3]\n 31713: t2 = t2 << 0x8\n 31716: a1 = t2 | a1\n 31719: a2 = a2 << 0x10\n 31722: a0 = a0 << 0x18\n 31725: a0 = a0 | a2\n 31728: t2 = a0 | a1\n 31731: a1 = u8 [a4 + 0x5]\n 31734: a2 = u8 [a4 + 0x4]\n 31737: a0 = u8 [a4 + 0x6]\n 31740: a4 = u8 [a4 + 0x7]\n 31743: a1 = a1 << 0x8\n 31746: a1 = a1 | a2\n 31749: a0 = a0 << 0x10\n 31752: a4 = a4 << 0x18\n 31755: a0 = a0 | a4\n 31758: a0 = a0 | a1\n 31761: a0 = a0 << 0x20\n 31764: a4 = a0 | t2\n 31767: a0 = u64 [s1 + 0x228]\n 31771: jump @858 if a0 >=u t1\n      : @857 (gas: 4)\n 31774: a0 = u64 [s1 + 0x238]\n 31778: u32 [a0] = t1\n 31780: u64 [s1 + 0x228] = t1\n 31784: fallthrough\n      : @858 (gas: 66)\n 31785: i32 a0 = t0 + 0\n 31787: a1 = u64 [s1 + 0x230]\n 31791: a0 = a0 + a1\n 31794: u8 [a0 + 0x10] = a3\n 31797: a1 = a5 >> 0x38\n 31800: u8 [a0 + 0xf] = a1\n 31803: a1 = a5 >> 0x30\n 31806: u8 [a0 + 0xe] = a1\n 31809: a1 = a5 >> 0x28\n 31812: u8 [a0 + 0xd] = a1\n 31815: a1 = a5 >> 0x20\n 31818: u8 [a0 + 0xc] = a1\n 31821: a1 = a5 >> 0x18\n 31824: u8 [a0 + 0xb] = a1\n 31827: a1 = a5 >> 0x10\n 31830: u8 [a0 + 0xa] = a1\n 31833: a1 = a5 >> 0x8\n 31836: u8 [a0 + 0x9] = a1\n 31839: u8 [a0 + 0x8] = a5\n 31842: a1 = a4 >> 0x38\n 31845: u8 [a0 + 0x7] = a1\n 31848: a1 = a4 >> 0x30\n 31851: u8 [a0 + 0x6] = a1\n 31854: a1 = a4 >> 0x28\n 31857: u8 [a0 + 0x5] = a1\n 31860: a1 = a4 >> 0x20\n 31863: u8 [a0 + 0x4] = a1\n 31866: a1 = a4 >> 0x18\n 31869: u8 [a0 + 0x3] = a1\n 31872: a1 = a4 >> 0x10\n 31875: u8 [a0 + 0x2] = a1\n 31878: a1 = a4 >> 0x8\n 31881: u8 [a0 + 0x1] = a1\n 31884: u8 [a0] = a4\n 31886: u8 [a0 + 0x18] = ra\n 31889: a1 = a3 >> 0x38\n 31892: u8 [a0 + 0x17] = a1\n 31895: a1 = a3 >> 0x30\n 31898: u8 [a0 + 0x16] = a1\n 31901: a1 = a3 >> 0x28\n 31904: u8 [a0 + 0x15] = a1\n 31907: a1 = a3 >> 0x20\n 31910: u8 [a0 + 0x14] = a1\n 31913: a1 = a3 >> 0x18\n 31916: u8 [a0 + 0x13] = a1\n 31919: a1 = a3 >> 0x10\n 31922: u8 [a0 + 0x12] = a1\n 31925: a3 = a3 >> 0x8\n 31928: u8 [a0 + 0x11] = a3\n 31931: a1 = ra >> 0x38\n 31934: u8 [a0 + 0x1f] = a1\n 31937: a1 = ra >> 0x30\n 31940: u8 [a0 + 0x1e] = a1\n 31943: a1 = ra >> 0x28\n 31946: u8 [a0 + 0x1d] = a1\n 31949: a1 = ra >> 0x20\n 31952: u8 [a0 + 0x1c] = a1\n 31955: a1 = ra >> 0x18\n 31958: u8 [a0 + 0x1b] = a1\n 31961: a1 = ra >> 0x10\n 31964: u8 [a0 + 0x1a] = a1\n 31967: a1 = ra >> 0x8\n 31970: a2 = u64 [s1 + 0x1c8]\n 31974: i32 a2 = a2 >> 0x5\n 31977: u8 [a0 + 0x19] = a1\n 31980: jump @860 if a2 <=u 2046\n      : @859 (gas: 1)\n 31985: jump @660\n      : @860 (gas: 4)\n 31988: a0 = u64 [s1 + 0x1f0]\n 31992: a1 = u64 [s1 + 0x1b8]\n 31996: a0 = a0 & a1\n 31999: jump @862 if a0 <=u 65536\n      : @861 (gas: 1)\n 32005: jump @660\n      : @862 (gas: 2)\n 32008: a1 = u64 [s1 + 0x228]\n 32012: jump @864 if a1 >=u a0\n      : @863 (gas: 4)\n 32015: a1 = u64 [s1 + 0x238]\n 32019: u32 [a1] = a0\n 32021: u64 [s1 + 0x228] = a0\n 32025: fallthrough\n      : @864 (gas: 105)\n 32026: t1 = u64 [s1 + 0x1b0]\n 32030: a0 = u8 [t1 + 0x11]\n 32033: a1 = u8 [t1 + 0x10]\n 32036: a2 = u8 [t1 + 0x12]\n 32039: a3 = u8 [t1 + 0x13]\n 32042: a0 = a0 << 0x8\n 32045: a0 = a0 | a1\n 32048: a2 = a2 << 0x10\n 32051: a3 = a3 << 0x18\n 32054: a2 = a2 | a3\n 32057: a0 = a0 | a2\n 32060: a1 = u8 [t1 + 0x15]\n 32063: a2 = u8 [t1 + 0x14]\n 32066: a3 = u8 [t1 + 0x16]\n 32069: a4 = u8 [t1 + 0x17]\n 32072: a1 = a1 << 0x8\n 32075: a1 = a1 | a2\n 32078: a3 = a3 << 0x10\n 32081: a4 = a4 << 0x18\n 32084: a3 = a3 | a4\n 32087: a1 = a1 | a3\n 32090: a1 = a1 << 0x20\n 32093: t0 = a1 | a0\n 32096: a1 = u8 [t1 + 0x1]\n 32099: a2 = u8 [t1]\n 32101: a3 = u8 [t1 + 0x2]\n 32104: a4 = u8 [t1 + 0x3]\n 32107: a1 = a1 << 0x8\n 32110: a1 = a1 | a2\n 32113: a3 = a3 << 0x10\n 32116: a4 = a4 << 0x18\n 32119: a3 = a3 | a4\n 32122: a1 = a1 | a3\n 32125: a2 = u8 [t1 + 0x5]\n 32128: a3 = u8 [t1 + 0x4]\n 32131: a4 = u8 [t1 + 0x6]\n 32134: a5 = u8 [t1 + 0x7]\n 32137: a2 = a2 << 0x8\n 32140: a2 = a2 | a3\n 32143: a4 = a4 << 0x10\n 32146: a5 = a5 << 0x18\n 32149: a4 = a4 | a5\n 32152: a2 = a2 | a4\n 32155: a2 = a2 << 0x20\n 32158: ra = a2 | a1\n 32161: a2 = u8 [t1 + 0x19]\n 32164: a3 = u8 [t1 + 0x18]\n 32167: a4 = u8 [t1 + 0x1a]\n 32170: a5 = u8 [t1 + 0x1b]\n 32173: a2 = a2 << 0x8\n 32176: a2 = a2 | a3\n 32179: a4 = a4 << 0x10\n 32182: a5 = a5 << 0x18\n 32185: a4 = a4 | a5\n 32188: a2 = a2 | a4\n 32191: a3 = u8 [t1 + 0x1d]\n 32194: a4 = u8 [t1 + 0x1c]\n 32197: a5 = u8 [t1 + 0x1e]\n 32200: a0 = u8 [t1 + 0x1f]\n 32203: a3 = a3 << 0x8\n 32206: a3 = a3 | a4\n 32209: a5 = a5 << 0x10\n 32212: a0 = a0 << 0x18\n 32215: a0 = a0 | a5\n 32218: a0 = a0 | a3\n 32221: a0 = a0 << 0x20\n 32224: a2 = a2 | a0\n 32227: a0 = u8 [t1 + 0x9]\n 32230: a3 = u8 [t1 + 0x8]\n 32233: a4 = u8 [t1 + 0xa]\n 32236: a5 = u8 [t1 + 0xb]\n 32239: a0 = a0 << 0x8\n 32242: a0 = a0 | a3\n 32245: a4 = a4 << 0x10\n 32248: a5 = a5 << 0x18\n 32251: a4 = a4 | a5\n 32254: a0 = a0 | a4\n 32257: a3 = u8 [t1 + 0xd]\n 32260: a4 = u8 [t1 + 0xc]\n 32263: a5 = u8 [t1 + 0xe]\n 32266: a1 = u8 [t1 + 0xf]\n 32269: a3 = a3 << 0x8\n 32272: a3 = a3 | a4\n 32275: a5 = a5 << 0x10\n 32278: a1 = a1 << 0x18\n 32281: a1 = a1 | a5\n 32284: a1 = a1 | a3\n 32287: a1 = a1 << 0x20\n 32290: a0 = a0 | a1\n 32293: a3 = reverse a0\n 32295: a1 = reverse a2\n 32297: a0 = reverse ra\n 32299: a2 = reverse t0\n 32301: u64 [s1 + 0x208] = a0\n 32305: u64 [s1 + 0x1e8] = a2\n 32309: a0 = a0 | a2\n 32312: u64 [s1 + 0x220] = a1\n 32316: a1 = a1 | a3\n 32319: a1 = a1 | a0\n 32322: a1 = a1 >> 0x20\n 32325: u64 [s1 + 0x210] = a3\n 32329: a0 = a0 | a3\n 32332: a0 = a0 << 0x20\n 32335: a0 = a0 | a1\n 32338: jump @866 if a0 == 0\n      : @865 (gas: 1)\n 32341: jump @660\n      : @866 (gas: 3)\n 32344: a0 = u64 [s1 + 0x220]\n 32348: i32 a0 = a0 >> 0x10\n 32351: jump @868 if a0 == 0\n      : @867 (gas: 1)\n 32354: jump @660\n      : @868 (gas: 5)\n 32357: a0 = u64 [s1 + 0x220]\n 32361: a0 = a0 + 0x3f\n 32364: a1 = u64 [s1 + 0x1f0]\n 32368: a0 = a0 & a1\n 32371: jump @870 if a0 <=u 65536\n      : @869 (gas: 1)\n 32377: jump @660\n      : @870 (gas: 15)\n 32380: a1 = u64 [s1 + 0x1a0]\n 32384: a2 = a1 + 0xa4\n 32388: u64 [s1 + 0x218] = a2\n 32392: a2 = a2 <u a1\n 32395: a3 = u64 [s1 + 0x170]\n 32399: a1 = a3 + a2\n 32402: a3 = a1 <u a3\n 32405: a3 = a2 if a2 == 0\n 32408: a4 = u64 [s1 + 0x38]\n 32411: a2 = a4 + a3\n 32414: a3 = a2 <u a4\n 32417: a4 = u64 [s1 + 0x30]\n 32420: a3 = a3 + a4\n 32423: a4 = u64 [s1 + 0x228]\n 32427: jump @872 if a4 >=u a0\n      : @871 (gas: 4)\n 32430: a4 = u64 [s1 + 0x238]\n 32434: u32 [a4] = a0\n 32436: u64 [s1 + 0x228] = a0\n 32440: fallthrough\n      : @872 (gas: 9)\n 32441: a0 = u64 [s1 + 0x218]\n 32445: a0 = a0 | a2\n 32448: a1 = a1 | a3\n 32451: a0 = a0 | a1\n 32454: a0 = a0 >> 0x20\n 32457: a1 = a1 | a2\n 32460: a1 = a1 << 0x20\n 32463: a0 = a0 | a1\n 32466: jump @874 if a0 == 0\n      : @873 (gas: 1)\n 32469: jump @660\n      : @874 (gas: 3)\n 32472: a0 = u64 [s1 + 0x218]\n 32476: i32 a0 = a0 >> 0x10\n 32479: jump @876 if a0 == 0\n      : @875 (gas: 1)\n 32482: jump @660\n      : @876 (gas: 5)\n 32485: a0 = u64 [s1 + 0x218]\n 32489: a0 = a0 + 0x3f\n 32492: a1 = u64 [s1 + 0x1f0]\n 32496: ra = a0 & a1\n 32499: jump @878 if ra <=u 65536\n      : @877 (gas: 1)\n 32505: jump @660\n      : @878 (gas: 93)\n 32508: a1 = i32 [s1 + 0x220]\n 32512: a0 = u64 [s1 + 0x230]\n 32516: a1 = a1 + a0\n 32519: a0 = u8 [a1 + 0x19]\n 32522: a2 = u8 [a1 + 0x18]\n 32525: a4 = u8 [a1 + 0x1a]\n 32528: a5 = u8 [a1 + 0x1b]\n 32531: a0 = a0 << 0x8\n 32534: a0 = a0 | a2\n 32537: a4 = a4 << 0x10\n 32540: a5 = a5 << 0x18\n 32543: a4 = a4 | a5\n 32546: a0 = a0 | a4\n 32549: a2 = u8 [a1 + 0x1d]\n 32552: a4 = u8 [a1 + 0x1c]\n 32555: a5 = u8 [a1 + 0x1e]\n 32558: a3 = u8 [a1 + 0x1f]\n 32561: a2 = a2 << 0x8\n 32564: a2 = a2 | a4\n 32567: a5 = a5 << 0x10\n 32570: a3 = a3 << 0x18\n 32573: a3 = a3 | a5\n 32576: a2 = a2 | a3\n 32579: a2 = a2 << 0x20\n 32582: t1 = a2 | a0\n 32585: a0 = u8 [a1 + 0x11]\n 32588: a2 = u8 [a1 + 0x10]\n 32591: a3 = u8 [a1 + 0x12]\n 32594: a5 = u8 [a1 + 0x13]\n 32597: a0 = a0 << 0x8\n 32600: a0 = a0 | a2\n 32603: a3 = a3 << 0x10\n 32606: a5 = a5 << 0x18\n 32609: a3 = a3 | a5\n 32612: a0 = a0 | a3\n 32615: a2 = u8 [a1 + 0x15]\n 32618: a3 = u8 [a1 + 0x14]\n 32621: a5 = u8 [a1 + 0x16]\n 32624: a4 = u8 [a1 + 0x17]\n 32627: a2 = a2 << 0x8\n 32630: a2 = a2 | a3\n 32633: a5 = a5 << 0x10\n 32636: a4 = a4 << 0x18\n 32639: a4 = a4 | a5\n 32642: a2 = a2 | a4\n 32645: a2 = a2 << 0x20\n 32648: t2 = a2 | a0\n 32651: a2 = u8 [a1 + 0x9]\n 32654: a3 = u8 [a1 + 0x8]\n 32657: a4 = u8 [a1 + 0xa]\n 32660: a5 = u8 [a1 + 0xb]\n 32663: a2 = a2 << 0x8\n 32666: a2 = a2 | a3\n 32669: a4 = a4 << 0x10\n 32672: a5 = a5 << 0x18\n 32675: a4 = a4 | a5\n 32678: a2 = a2 | a4\n 32681: a3 = u8 [a1 + 0xd]\n 32684: a4 = u8 [a1 + 0xc]\n 32687: a5 = u8 [a1 + 0xe]\n 32690: a0 = u8 [a1 + 0xf]\n 32693: a3 = a3 << 0x8\n 32696: a3 = a3 | a4\n 32699: a5 = a5 << 0x10\n 32702: a0 = a0 << 0x18\n 32705: a0 = a0 | a5\n 32708: a0 = a0 | a3\n 32711: a0 = a0 << 0x20\n 32714: a2 = a2 | a0\n 32717: a0 = u8 [a1 + 0x1]\n 32720: a3 = u8 [a1]\n 32722: a4 = u8 [a1 + 0x2]\n 32725: a5 = u8 [a1 + 0x3]\n 32728: a0 = a0 << 0x8\n 32731: a0 = a0 | a3\n 32734: a4 = a4 << 0x10\n 32737: a5 = a5 << 0x18\n 32740: a4 = a4 | a5\n 32743: a0 = a0 | a4\n 32746: a3 = u8 [a1 + 0x5]\n 32749: a4 = u8 [a1 + 0x4]\n 32752: a5 = u8 [a1 + 0x6]\n 32755: a1 = u8 [a1 + 0x7]\n 32758: a3 = a3 << 0x8\n 32761: a3 = a3 | a4\n 32764: a5 = a5 << 0x10\n 32767: a1 = a1 << 0x18\n 32770: a1 = a1 | a5\n 32773: a1 = a1 | a3\n 32776: a1 = a1 << 0x20\n 32779: t0 = a1 | a0\n 32782: a0 = u64 [s1 + 0x228]\n 32786: jump @880 if a0 >=u ra\n      : @879 (gas: 4)\n 32789: a0 = u64 [s1 + 0x238]\n 32793: u32 [a0] = ra\n 32795: u64 [s1 + 0x228] = ra\n 32799: fallthrough\n      : @880 (gas: 77)\n 32800: a0 = 0xffffffdf\n 32810: a1 = u64 [s1 + 0x220]\n 32814: a0 = a0 <u a1\n 32817: a3 = u64 [s1 + 0x1e8]\n 32821: a1 = a3 >u 0\n 32823: a1 = a0 if a3 == 0\n 32826: a4 = u64 [s1 + 0x210]\n 32830: a0 = a4 >u 0\n 32832: a5 = u64 [s1 + 0x208]\n 32836: a3 = a5 >u 0\n 32838: a3 = a0 if a5 == 0\n 32841: a0 = a4 | a5\n 32844: a1 = a3 if a0 != 0\n 32847: a3 = i32 [s1 + 0x218]\n 32851: a0 = u64 [s1 + 0x230]\n 32855: a3 = a3 + a0\n 32858: a0 = a2 >> 0x38\n 32861: u8 [a3 + 0xf] = a0\n 32864: a0 = a2 >> 0x30\n 32867: u8 [a3 + 0xe] = a0\n 32870: a0 = a2 >> 0x28\n 32873: u8 [a3 + 0xd] = a0\n 32876: a0 = a2 >> 0x20\n 32879: u8 [a3 + 0xc] = a0\n 32882: a0 = a2 >> 0x18\n 32885: u8 [a3 + 0xb] = a0\n 32888: a0 = a2 >> 0x10\n 32891: u8 [a3 + 0xa] = a0\n 32894: a0 = a2 >> 0x8\n 32897: u8 [a3 + 0x9] = a0\n 32900: u8 [a3 + 0x8] = a2\n 32903: a0 = t0 >> 0x38\n 32906: u8 [a3 + 0x7] = a0\n 32909: a0 = t0 >> 0x30\n 32912: u8 [a3 + 0x6] = a0\n 32915: a0 = t0 >> 0x28\n 32918: u8 [a3 + 0x5] = a0\n 32921: a0 = t0 >> 0x20\n 32924: u8 [a3 + 0x4] = a0\n 32927: a0 = t0 >> 0x18\n 32930: u8 [a3 + 0x3] = a0\n 32933: a0 = t0 >> 0x10\n 32936: u8 [a3 + 0x2] = a0\n 32939: a0 = t0 >> 0x8\n 32942: u8 [a3 + 0x1] = a0\n 32945: u8 [a3] = t0\n 32947: a0 = t2 >> 0x38\n 32950: u8 [a3 + 0x17] = a0\n 32953: a0 = t2 >> 0x30\n 32956: u8 [a3 + 0x16] = a0\n 32959: a0 = t2 >> 0x28\n 32962: u8 [a3 + 0x15] = a0\n 32965: a0 = t2 >> 0x20\n 32968: u8 [a3 + 0x14] = a0\n 32971: a0 = t2 >> 0x18\n 32974: u8 [a3 + 0x13] = a0\n 32977: a0 = t2 >> 0x10\n 32980: u8 [a3 + 0x12] = a0\n 32983: u8 [a3 + 0x10] = t2\n 32986: a0 = t2 >> 0x8\n 32989: u8 [a3 + 0x11] = a0\n 32992: a0 = t1 >> 0x38\n 32995: u8 [a3 + 0x1f] = a0\n 32998: a0 = t1 >> 0x30\n 33001: u8 [a3 + 0x1e] = a0\n 33004: a0 = t1 >> 0x28\n 33007: u8 [a3 + 0x1d] = a0\n 33010: a0 = t1 >> 0x20\n 33013: u8 [a3 + 0x1c] = a0\n 33016: a0 = t1 >> 0x18\n 33019: u8 [a3 + 0x1b] = a0\n 33022: a0 = t1 >> 0x10\n 33025: u8 [a3 + 0x1a] = a0\n 33028: u8 [a3 + 0x18] = t1\n 33031: a0 = t1 >> 0x8\n 33034: u8 [a3 + 0x19] = a0\n 33037: jump @882 if a1 == 0\n      : @881 (gas: 1)\n 33040: jump @660\n      : @882 (gas: 3)\n 33043: a0 = u64 [s1 + 0x220]\n 33047: i32 a0 = a0 >> 0x5\n 33050: jump @884 if a0 <=u 2046\n      : @883 (gas: 1)\n 33055: jump @660\n      : @884 (gas: 5)\n 33058: a0 = u64 [s1 + 0x220]\n 33062: a0 = a0 + 0x5f\n 33065: a1 = u64 [s1 + 0x1f0]\n 33069: a1 = a1 & a0\n 33072: jump @886 if a1 <=u 65536\n      : @885 (gas: 1)\n 33078: jump @660\n      : @886 (gas: 14)\n 33081: a0 = u64 [s1 + 0x1a0]\n 33085: t1 = a0 + 0xc4\n 33089: a3 = t1 <u a0\n 33092: a0 = u64 [s1 + 0x170]\n 33096: a2 = a0 + a3\n 33099: a4 = a2 <u a0\n 33102: a4 = a3 if a3 == 0\n 33105: a0 = u64 [s1 + 0x38]\n 33108: a3 = a0 + a4\n 33111: a4 = a3 <u a0\n 33114: a0 = u64 [s1 + 0x30]\n 33117: a4 = a4 + a0\n 33120: a0 = u64 [s1 + 0x228]\n 33124: jump @888 if a0 >=u a1\n      : @887 (gas: 4)\n 33127: a0 = u64 [s1 + 0x238]\n 33131: u32 [a0] = a1\n 33133: u64 [s1 + 0x228] = a1\n 33137: fallthrough\n      : @888 (gas: 8)\n 33138: a1 = t1 | a3\n 33141: a2 = a2 | a4\n 33144: a1 = a1 | a2\n 33147: a1 = a1 >> 0x20\n 33150: a2 = a2 | a3\n 33153: a2 = a2 << 0x20\n 33156: a1 = a1 | a2\n 33159: jump @890 if a1 == 0\n      : @889 (gas: 1)\n 33162: jump @660\n      : @890 (gas: 2)\n 33165: i32 a1 = t1 >> 0x10\n 33168: jump @892 if a1 == 0\n      : @891 (gas: 1)\n 33171: jump @660\n      : @892 (gas: 4)\n 33174: a1 = t1 + 0x3f\n 33177: a0 = u64 [s1 + 0x1f0]\n 33181: t0 = a1 & a0\n 33184: jump @894 if t0 <=u 65536\n      : @893 (gas: 1)\n 33190: jump @660\n      : @894 (gas: 94)\n 33193: a0 = u64 [s1 + 0x220]\n 33197: i32 a4 = a0 + 0x20\n 33200: a0 = u64 [s1 + 0x230]\n 33204: a4 = a4 + a0\n 33207: a1 = u8 [a4 + 0x19]\n 33210: a3 = u8 [a4 + 0x18]\n 33213: a5 = u8 [a4 + 0x1a]\n 33216: a2 = u8 [a4 + 0x1b]\n 33219: a1 = a1 << 0x8\n 33222: a1 = a1 | a3\n 33225: a5 = a5 << 0x10\n 33228: a2 = a2 << 0x18\n 33231: a2 = a2 | a5\n 33234: a1 = a1 | a2\n 33237: a2 = u8 [a4 + 0x1d]\n 33240: a3 = u8 [a4 + 0x1c]\n 33243: a5 = u8 [a4 + 0x1e]\n 33246: a0 = u8 [a4 + 0x1f]\n 33249: a2 = a2 << 0x8\n 33252: a2 = a2 | a3\n 33255: a5 = a5 << 0x10\n 33258: a0 = a0 << 0x18\n 33261: a0 = a0 | a5\n 33264: a0 = a0 | a2\n 33267: a0 = a0 << 0x20\n 33270: ra = a0 | a1\n 33273: a0 = u8 [a4 + 0x11]\n 33276: a2 = u8 [a4 + 0x10]\n 33279: a3 = u8 [a4 + 0x12]\n 33282: a5 = u8 [a4 + 0x13]\n 33285: a0 = a0 << 0x8\n 33288: a0 = a0 | a2\n 33291: a3 = a3 << 0x10\n 33294: a5 = a5 << 0x18\n 33297: a3 = a3 | a5\n 33300: t2 = a3 | a0\n 33303: a2 = u8 [a4 + 0x15]\n 33306: a3 = u8 [a4 + 0x14]\n 33309: a5 = u8 [a4 + 0x16]\n 33312: a0 = u8 [a4 + 0x17]\n 33315: a2 = a2 << 0x8\n 33318: a2 = a2 | a3\n 33321: a5 = a5 << 0x10\n 33324: a0 = a0 << 0x18\n 33327: a0 = a0 | a5\n 33330: a0 = a0 | a2\n 33333: a0 = a0 << 0x20\n 33336: a3 = a0 | t2\n 33339: a0 = u8 [a4 + 0x9]\n 33342: a2 = u8 [a4 + 0x8]\n 33345: a5 = u8 [a4 + 0xa]\n 33348: a1 = u8 [a4 + 0xb]\n 33351: a0 = a0 << 0x8\n 33354: a0 = a0 | a2\n 33357: a5 = a5 << 0x10\n 33360: a1 = a1 << 0x18\n 33363: a1 = a1 | a5\n 33366: t2 = a1 | a0\n 33369: a1 = u8 [a4 + 0xd]\n 33372: a2 = u8 [a4 + 0xc]\n 33375: a5 = u8 [a4 + 0xe]\n 33378: a0 = u8 [a4 + 0xf]\n 33381: a1 = a1 << 0x8\n 33384: a1 = a1 | a2\n 33387: a5 = a5 << 0x10\n 33390: a0 = a0 << 0x18\n 33393: a0 = a0 | a5\n 33396: a0 = a0 | a1\n 33399: a0 = a0 << 0x20\n 33402: a5 = a0 | t2\n 33405: t2 = u8 [a4 + 0x1]\n 33408: a1 = u8 [a4]\n 33410: a2 = u8 [a4 + 0x2]\n 33413: a0 = u8 [a4 + 0x3]\n 33416: t2 = t2 << 0x8\n 33419: a1 = t2 | a1\n 33422: a2 = a2 << 0x10\n 33425: a0 = a0 << 0x18\n 33428: a0 = a0 | a2\n 33431: t2 = a0 | a1\n 33434: a1 = u8 [a4 + 0x5]\n 33437: a2 = u8 [a4 + 0x4]\n 33440: a0 = u8 [a4 + 0x6]\n 33443: a4 = u8 [a4 + 0x7]\n 33446: a1 = a1 << 0x8\n 33449: a1 = a1 | a2\n 33452: a0 = a0 << 0x10\n 33455: a4 = a4 << 0x18\n 33458: a0 = a0 | a4\n 33461: a0 = a0 | a1\n 33464: a0 = a0 << 0x20\n 33467: a4 = a0 | t2\n 33470: a0 = u64 [s1 + 0x228]\n 33474: jump @896 if a0 >=u t0\n      : @895 (gas: 3)\n 33477: a0 = u64 [s1 + 0x238]\n 33481: u32 [a0] = t0\n 33483: fallthrough\n      : @896 (gas: 90)\n 33484: i32 a0 = t1 + 0\n 33486: a1 = u64 [s1 + 0x230]\n 33490: a0 = a0 + a1\n 33493: a1 = a5 >> 0x38\n 33496: u8 [a0 + 0xf] = a1\n 33499: a1 = a5 >> 0x30\n 33502: u8 [a0 + 0xe] = a1\n 33505: a1 = a5 >> 0x28\n 33508: u8 [a0 + 0xd] = a1\n 33511: a1 = a5 >> 0x20\n 33514: u8 [a0 + 0xc] = a1\n 33517: a1 = a5 >> 0x18\n 33520: u8 [a0 + 0xb] = a1\n 33523: a1 = a5 >> 0x10\n 33526: u8 [a0 + 0xa] = a1\n 33529: a1 = a5 >> 0x8\n 33532: u8 [a0 + 0x9] = a1\n 33535: u8 [a0 + 0x8] = a5\n 33538: a1 = a4 >> 0x38\n 33541: u8 [a0 + 0x7] = a1\n 33544: a1 = a4 >> 0x30\n 33547: u8 [a0 + 0x6] = a1\n 33550: a1 = a4 >> 0x28\n 33553: u8 [a0 + 0x5] = a1\n 33556: a1 = a4 >> 0x20\n 33559: u8 [a0 + 0x4] = a1\n 33562: a1 = a4 >> 0x18\n 33565: u8 [a0 + 0x3] = a1\n 33568: a1 = a4 >> 0x10\n 33571: u8 [a0 + 0x2] = a1\n 33574: a1 = a4 >> 0x8\n 33577: u8 [a0 + 0x1] = a1\n 33580: u8 [a0 + 0x10] = a3\n 33583: u8 [a0] = a4\n 33585: u8 [a0 + 0x18] = ra\n 33588: a1 = a3 >> 0x38\n 33591: u8 [a0 + 0x17] = a1\n 33594: a1 = a3 >> 0x30\n 33597: u8 [a0 + 0x16] = a1\n 33600: a1 = a3 >> 0x28\n 33603: u8 [a0 + 0x15] = a1\n 33606: a1 = a3 >> 0x20\n 33609: u8 [a0 + 0x14] = a1\n 33612: a1 = a3 >> 0x18\n 33615: u8 [a0 + 0x13] = a1\n 33618: a1 = a3 >> 0x10\n 33621: u8 [a0 + 0x12] = a1\n 33624: a3 = a3 >> 0x8\n 33627: u8 [a0 + 0x11] = a3\n 33630: a1 = ra >> 0x38\n 33633: u8 [a0 + 0x1f] = a1\n 33636: a1 = ra >> 0x30\n 33639: u8 [a0 + 0x1e] = a1\n 33642: a1 = ra >> 0x28\n 33645: u8 [a0 + 0x1d] = a1\n 33648: a1 = ra >> 0x20\n 33651: u8 [a0 + 0x1c] = a1\n 33654: a1 = ra >> 0x18\n 33657: u8 [a0 + 0x1b] = a1\n 33660: a1 = ra >> 0x10\n 33663: u8 [a0 + 0x1a] = a1\n 33666: a1 = ra >> 0x8\n 33669: u8 [a0 + 0x19] = a1\n 33672: a1 = u64 [s1 + 0x1a0]\n 33676: a0 = a1 + 0xe4\n 33680: a1 = a0 <u a1\n 33683: a3 = u64 [s1 + 0x170]\n 33687: a2 = a3 + a1\n 33690: a3 = a2 <u a3\n 33693: a3 = a1 if a1 == 0\n 33696: a1 = u64 [s1 + 0x38]\n 33699: a3 = a3 + a1\n 33702: a1 = a3 <u a1\n 33705: a4 = u64 [s1 + 0x30]\n 33708: a4 = a4 + a1\n 33711: u64 [s1 + 0x4d0] = a3\n 33715: u64 [s1 + 0x4c8] = a2\n 33719: u64 [s1 + 0x4c0] = a0\n 33723: a0 = u64 [s1 + 0x1c0]\n 33727: u64 [s1 + 0x4f8] = a0\n 33731: a0 = u64 [s1 + 0x1d0]\n 33735: u64 [s1 + 0x4f0] = a0\n 33739: a0 = u64 [s1 + 0x1d8]\n 33743: u64 [s1 + 0x4e8] = a0\n 33747: a0 = u64 [s1 + 0x200]\n 33751: u64 [s1 + 0x4e0] = a0\n 33755: a0 = s1 + 0x4e0\n 33759: a1 = s1 + 0x4c0\n 33763: u64 [s1 + 0x4d8] = a4\n 33767: ra = 70, jump @1084\n      : @897 [@dyn 35] (gas: 18)\n 33772: a1 = u64 [s1 + 0x1a0]\n 33776: a0 = a1 + 0x124\n 33780: u64 [s1 + 0x220] = a0\n 33784: a2 = a0 <u a1\n 33787: a1 = u64 [s1 + 0x170]\n 33791: a0 = a1 + a2\n 33794: a3 = a0 <u a1\n 33797: a1 = u64 [s1 + 0x238]\n 33801: a4 = i32 [a1]\n 33803: a3 = a2 if a2 == 0\n 33806: a1 = u64 [s1 + 0x38]\n 33809: a2 = a1 + a3\n 33812: a3 = a2 <u a1\n 33815: a1 = u64 [s1 + 0x30]\n 33818: a3 = a3 + a1\n 33821: a1 = u64 [s1 + 0x148]\n 33825: u64 [s1 + 0x228] = a4\n 33829: jump @899 if a4 >=u a1\n      : @898 (gas: 5)\n 33832: a1 = u64 [s1 + 0x238]\n 33836: a4 = u64 [s1 + 0x148]\n 33840: u32 [a1] = a4\n 33842: u64 [s1 + 0x228] = a4\n 33846: fallthrough\n      : @899 (gas: 9)\n 33847: a4 = u64 [s1 + 0x220]\n 33851: a4 = a4 | a2\n 33854: a0 = a0 | a3\n 33857: a4 = a4 | a0\n 33860: a4 = a4 >> 0x20\n 33863: a0 = a0 | a2\n 33866: a0 = a0 << 0x20\n 33869: a0 = a0 | a4\n 33872: jump @901 if a0 == 0\n      : @900 (gas: 1)\n 33875: jump @660\n      : @901 (gas: 3)\n 33878: a0 = u64 [s1 + 0x220]\n 33882: i32 a0 = a0 >> 0x10\n 33885: jump @903 if a0 == 0\n      : @902 (gas: 1)\n 33888: jump @660\n      : @903 (gas: 5)\n 33891: a0 = u64 [s1 + 0x220]\n 33895: a0 = a0 + 0x3f\n 33898: a1 = u64 [s1 + 0x1f0]\n 33902: t2 = a0 & a1\n 33905: jump @905 if t2 <=u 65536\n      : @904 (gas: 1)\n 33911: jump @660\n      : @905 (gas: 91)\n 33914: t1 = u64 [s1 + 0x198]\n 33918: a0 = u8 [t1 + 0x19]\n 33921: a2 = u8 [t1 + 0x18]\n 33924: a4 = u8 [t1 + 0x1a]\n 33927: a5 = u8 [t1 + 0x1b]\n 33930: a0 = a0 << 0x8\n 33933: a0 = a0 | a2\n 33936: a4 = a4 << 0x10\n 33939: a5 = a5 << 0x18\n 33942: a4 = a4 | a5\n 33945: a0 = a0 | a4\n 33948: a2 = u8 [t1 + 0x1d]\n 33951: a4 = u8 [t1 + 0x1c]\n 33954: a5 = u8 [t1 + 0x1e]\n 33957: a1 = u8 [t1 + 0x1f]\n 33960: a2 = a2 << 0x8\n 33963: a2 = a2 | a4\n 33966: a5 = a5 << 0x10\n 33969: a1 = a1 << 0x18\n 33972: a1 = a1 | a5\n 33975: a1 = a1 | a2\n 33978: a1 = a1 << 0x20\n 33981: t0 = a1 | a0\n 33984: a0 = u8 [t1 + 0x11]\n 33987: a1 = u8 [t1 + 0x10]\n 33990: a4 = u8 [t1 + 0x12]\n 33993: a5 = u8 [t1 + 0x13]\n 33996: a0 = a0 << 0x8\n 33999: a0 = a0 | a1\n 34002: a4 = a4 << 0x10\n 34005: a5 = a5 << 0x18\n 34008: a4 = a4 | a5\n 34011: a0 = a0 | a4\n 34014: a1 = u8 [t1 + 0x15]\n 34017: a4 = u8 [t1 + 0x14]\n 34020: a5 = u8 [t1 + 0x16]\n 34023: a3 = u8 [t1 + 0x17]\n 34026: a1 = a1 << 0x8\n 34029: a1 = a1 | a4\n 34032: a5 = a5 << 0x10\n 34035: a3 = a3 << 0x18\n 34038: a3 = a3 | a5\n 34041: a1 = a1 | a3\n 34044: a1 = a1 << 0x20\n 34047: a4 = a1 | a0\n 34050: a0 = u8 [t1 + 0x9]\n 34053: a1 = u8 [t1 + 0x8]\n 34056: a3 = u8 [t1 + 0xa]\n 34059: a5 = u8 [t1 + 0xb]\n 34062: a0 = a0 << 0x8\n 34065: a0 = a0 | a1\n 34068: a3 = a3 << 0x10\n 34071: a5 = a5 << 0x18\n 34074: a3 = a3 | a5\n 34077: ra = a3 | a0\n 34080: a1 = u8 [t1 + 0xd]\n 34083: a3 = u8 [t1 + 0xc]\n 34086: a5 = u8 [t1 + 0xe]\n 34089: a0 = u8 [t1 + 0xf]\n 34092: a1 = a1 << 0x8\n 34095: a1 = a1 | a3\n 34098: a5 = a5 << 0x10\n 34101: a0 = a0 << 0x18\n 34104: a0 = a0 | a5\n 34107: a0 = a0 | a1\n 34110: a0 = a0 << 0x20\n 34113: a5 = a0 | ra\n 34116: a0 = u8 [t1 + 0x1]\n 34119: a1 = u8 [t1]\n 34121: a3 = u8 [t1 + 0x2]\n 34124: a2 = u8 [t1 + 0x3]\n 34127: a0 = a0 << 0x8\n 34130: a0 = a0 | a1\n 34133: a3 = a3 << 0x10\n 34136: a2 = a2 << 0x18\n 34139: a2 = a2 | a3\n 34142: ra = a2 | a0\n 34145: a1 = u8 [t1 + 0x5]\n 34148: a2 = u8 [t1 + 0x4]\n 34151: a3 = u8 [t1 + 0x6]\n 34154: a0 = u8 [t1 + 0x7]\n 34157: a1 = a1 << 0x8\n 34160: a1 = a1 | a2\n 34163: a3 = a3 << 0x10\n 34166: a0 = a0 << 0x18\n 34169: a0 = a0 | a3\n 34172: a0 = a0 | a1\n 34175: a0 = a0 << 0x20\n 34178: a0 = a0 | ra\n 34181: a1 = u64 [s1 + 0x228]\n 34185: jump @907 if a1 >=u t2\n      : @906 (gas: 4)\n 34188: a1 = u64 [s1 + 0x238]\n 34192: u32 [a1] = t2\n 34194: u64 [s1 + 0x228] = t2\n 34198: fallthrough\n      : @907 (gas: 65)\n 34199: a1 = i32 [s1 + 0x220]\n 34203: a2 = u64 [s1 + 0x230]\n 34207: a1 = a1 + a2\n 34210: u8 [a1 + 0x10] = a4\n 34213: a2 = a5 >> 0x38\n 34216: u8 [a1 + 0xf] = a2\n 34219: a2 = a5 >> 0x30\n 34222: u8 [a1 + 0xe] = a2\n 34225: a2 = a5 >> 0x28\n 34228: u8 [a1 + 0xd] = a2\n 34231: a2 = a5 >> 0x20\n 34234: u8 [a1 + 0xc] = a2\n 34237: a2 = a5 >> 0x18\n 34240: u8 [a1 + 0xb] = a2\n 34243: a2 = a5 >> 0x10\n 34246: u8 [a1 + 0xa] = a2\n 34249: a2 = a5 >> 0x8\n 34252: u8 [a1 + 0x9] = a2\n 34255: u8 [a1 + 0x8] = a5\n 34258: a2 = a0 >> 0x38\n 34261: u8 [a1 + 0x7] = a2\n 34264: a2 = a0 >> 0x30\n 34267: u8 [a1 + 0x6] = a2\n 34270: a2 = a0 >> 0x28\n 34273: u8 [a1 + 0x5] = a2\n 34276: a2 = a0 >> 0x20\n 34279: u8 [a1 + 0x4] = a2\n 34282: a2 = a0 >> 0x18\n 34285: u8 [a1 + 0x3] = a2\n 34288: a2 = a0 >> 0x10\n 34291: u8 [a1 + 0x2] = a2\n 34294: a2 = a0 >> 0x8\n 34297: u8 [a1 + 0x1] = a2\n 34300: u8 [a1] = a0\n 34302: u8 [a1 + 0x18] = t0\n 34305: a0 = a4 >> 0x38\n 34308: u8 [a1 + 0x17] = a0\n 34311: a0 = a4 >> 0x30\n 34314: u8 [a1 + 0x16] = a0\n 34317: a0 = a4 >> 0x28\n 34320: u8 [a1 + 0x15] = a0\n 34323: a0 = a4 >> 0x20\n 34326: u8 [a1 + 0x14] = a0\n 34329: a0 = a4 >> 0x18\n 34332: u8 [a1 + 0x13] = a0\n 34335: a0 = a4 >> 0x10\n 34338: u8 [a1 + 0x12] = a0\n 34341: a4 = a4 >> 0x8\n 34344: u8 [a1 + 0x11] = a4\n 34347: a0 = t0 >> 0x38\n 34350: u8 [a1 + 0x1f] = a0\n 34353: a0 = t0 >> 0x30\n 34356: u8 [a1 + 0x1e] = a0\n 34359: a0 = t0 >> 0x28\n 34362: u8 [a1 + 0x1d] = a0\n 34365: a0 = t0 >> 0x20\n 34368: u8 [a1 + 0x1c] = a0\n 34371: a0 = t0 >> 0x18\n 34374: u8 [a1 + 0x1b] = a0\n 34377: a0 = t0 >> 0x10\n 34380: u8 [a1 + 0x1a] = a0\n 34383: a0 = t0 >> 0x8\n 34386: u8 [a1 + 0x19] = a0\n 34389: a0 = u64 [s1 + 0x190]\n 34393: jump @909 if a0 <=u 2046\n      : @908 (gas: 1)\n 34398: jump @660\n      : @909 (gas: 2)\n 34401: a1 = u64 [s1 + 0x188]\n 34405: jump @911 if a1 <=u 65536\n      : @910 (gas: 1)\n 34411: jump @660\n      : @911 (gas: 16)\n 34414: a0 = u64 [s1 + 0x1a0]\n 34418: a1 = a0 + 0x144\n 34422: u64 [s1 + 0x220] = a1\n 34426: a2 = a1 <u a0\n 34429: a1 = u64 [s1 + 0x170]\n 34433: a0 = a1 + a2\n 34436: a3 = a0 <u a1\n 34439: a3 = a2 if a2 == 0\n 34442: a1 = u64 [s1 + 0x38]\n 34445: a2 = a1 + a3\n 34448: a3 = a2 <u a1\n 34451: a1 = u64 [s1 + 0x30]\n 34454: a3 = a3 + a1\n 34457: a1 = u64 [s1 + 0x188]\n 34461: a4 = u64 [s1 + 0x228]\n 34465: jump @913 if a4 >=u a1\n      : @912 (gas: 5)\n 34468: a1 = u64 [s1 + 0x238]\n 34472: a4 = u64 [s1 + 0x188]\n 34476: u32 [a1] = a4\n 34478: u64 [s1 + 0x228] = a4\n 34482: fallthrough\n      : @913 (gas: 9)\n 34483: a4 = u64 [s1 + 0x220]\n 34487: a4 = a4 | a2\n 34490: a0 = a0 | a3\n 34493: a4 = a4 | a0\n 34496: a4 = a4 >> 0x20\n 34499: a0 = a0 | a2\n 34502: a0 = a0 << 0x20\n 34505: a0 = a0 | a4\n 34508: jump @915 if a0 == 0\n      : @914 (gas: 1)\n 34511: jump @660\n      : @915 (gas: 3)\n 34514: a0 = u64 [s1 + 0x220]\n 34518: i32 a0 = a0 >> 0x10\n 34521: jump @917 if a0 == 0\n      : @916 (gas: 1)\n 34524: jump @660\n      : @917 (gas: 5)\n 34527: a0 = u64 [s1 + 0x220]\n 34531: a0 = a0 + 0x3f\n 34534: a1 = u64 [s1 + 0x1f0]\n 34538: t1 = a0 & a1\n 34541: jump @919 if t1 <=u 65536\n      : @918 (gas: 1)\n 34547: jump @660\n      : @919 (gas: 91)\n 34550: t0 = u64 [s1 + 0x40]\n 34553: a0 = u8 [t0 + 0x19]\n 34556: a2 = u8 [t0 + 0x18]\n 34559: a4 = u8 [t0 + 0x1a]\n 34562: a5 = u8 [t0 + 0x1b]\n 34565: a0 = a0 << 0x8\n 34568: a0 = a0 | a2\n 34571: a4 = a4 << 0x10\n 34574: a5 = a5 << 0x18\n 34577: a4 = a4 | a5\n 34580: a0 = a0 | a4\n 34583: a2 = u8 [t0 + 0x1d]\n 34586: a4 = u8 [t0 + 0x1c]\n 34589: a5 = u8 [t0 + 0x1e]\n 34592: a1 = u8 [t0 + 0x1f]\n 34595: a2 = a2 << 0x8\n 34598: a2 = a2 | a4\n 34601: a5 = a5 << 0x10\n 34604: a1 = a1 << 0x18\n 34607: a1 = a1 | a5\n 34610: a1 = a1 | a2\n 34613: a1 = a1 << 0x20\n 34616: t2 = a1 | a0\n 34619: a0 = u8 [t0 + 0x11]\n 34622: a1 = u8 [t0 + 0x10]\n 34625: a4 = u8 [t0 + 0x12]\n 34628: a5 = u8 [t0 + 0x13]\n 34631: a0 = a0 << 0x8\n 34634: a0 = a0 | a1\n 34637: a4 = a4 << 0x10\n 34640: a5 = a5 << 0x18\n 34643: a4 = a4 | a5\n 34646: a0 = a0 | a4\n 34649: a1 = u8 [t0 + 0x15]\n 34652: a4 = u8 [t0 + 0x14]\n 34655: a5 = u8 [t0 + 0x16]\n 34658: a3 = u8 [t0 + 0x17]\n 34661: a1 = a1 << 0x8\n 34664: a1 = a1 | a4\n 34667: a5 = a5 << 0x10\n 34670: a3 = a3 << 0x18\n 34673: a3 = a3 | a5\n 34676: a1 = a1 | a3\n 34679: a1 = a1 << 0x20\n 34682: a4 = a1 | a0\n 34685: a0 = u8 [t0 + 0x9]\n 34688: a1 = u8 [t0 + 0x8]\n 34691: a3 = u8 [t0 + 0xa]\n 34694: a5 = u8 [t0 + 0xb]\n 34697: a0 = a0 << 0x8\n 34700: a0 = a0 | a1\n 34703: a3 = a3 << 0x10\n 34706: a5 = a5 << 0x18\n 34709: a3 = a3 | a5\n 34712: a0 = a0 | a3\n 34715: a1 = u8 [t0 + 0xd]\n 34718: a3 = u8 [t0 + 0xc]\n 34721: a5 = u8 [t0 + 0xe]\n 34724: a2 = u8 [t0 + 0xf]\n 34727: a1 = a1 << 0x8\n 34730: a1 = a1 | a3\n 34733: a5 = a5 << 0x10\n 34736: a2 = a2 << 0x18\n 34739: a2 = a2 | a5\n 34742: a1 = a1 | a2\n 34745: a1 = a1 << 0x20\n 34748: a5 = a1 | a0\n 34751: a0 = u8 [t0 + 0x1]\n 34754: a1 = u8 [t0]\n 34756: a2 = u8 [t0 + 0x2]\n 34759: a3 = u8 [t0 + 0x3]\n 34762: a0 = a0 << 0x8\n 34765: a0 = a0 | a1\n 34768: a2 = a2 << 0x10\n 34771: a3 = a3 << 0x18\n 34774: a2 = a2 | a3\n 34777: ra = a2 | a0\n 34780: a1 = u8 [t0 + 0x5]\n 34783: a2 = u8 [t0 + 0x4]\n 34786: a3 = u8 [t0 + 0x6]\n 34789: a0 = u8 [t0 + 0x7]\n 34792: a1 = a1 << 0x8\n 34795: a1 = a1 | a2\n 34798: a3 = a3 << 0x10\n 34801: a0 = a0 << 0x18\n 34804: a0 = a0 | a3\n 34807: a0 = a0 | a1\n 34810: a0 = a0 << 0x20\n 34813: a0 = a0 | ra\n 34816: a1 = u64 [s1 + 0x228]\n 34820: jump @921 if a1 >=u t1\n      : @920 (gas: 4)\n 34823: a1 = u64 [s1 + 0x238]\n 34827: u32 [a1] = t1\n 34829: u64 [s1 + 0x228] = t1\n 34833: fallthrough\n      : @921 (gas: 79)\n 34834: a1 = i32 [s1 + 0x220]\n 34838: a2 = u64 [s1 + 0x230]\n 34842: a1 = a1 + a2\n 34845: a2 = a5 >> 0x38\n 34848: u8 [a1 + 0xf] = a2\n 34851: a2 = a5 >> 0x30\n 34854: u8 [a1 + 0xe] = a2\n 34857: a2 = a5 >> 0x28\n 34860: u8 [a1 + 0xd] = a2\n 34863: a2 = a5 >> 0x20\n 34866: u8 [a1 + 0xc] = a2\n 34869: a2 = a5 >> 0x18\n 34872: u8 [a1 + 0xb] = a2\n 34875: a2 = a5 >> 0x10\n 34878: u8 [a1 + 0xa] = a2\n 34881: a2 = a5 >> 0x8\n 34884: u8 [a1 + 0x9] = a2\n 34887: u8 [a1 + 0x8] = a5\n 34890: a2 = a0 >> 0x38\n 34893: u8 [a1 + 0x7] = a2\n 34896: a2 = a0 >> 0x30\n 34899: u8 [a1 + 0x6] = a2\n 34902: a2 = a0 >> 0x28\n 34905: u8 [a1 + 0x5] = a2\n 34908: a2 = a0 >> 0x20\n 34911: u8 [a1 + 0x4] = a2\n 34914: a2 = a0 >> 0x18\n 34917: u8 [a1 + 0x3] = a2\n 34920: a2 = a0 >> 0x10\n 34923: u8 [a1 + 0x2] = a2\n 34926: a2 = a0 >> 0x8\n 34929: u8 [a1 + 0x1] = a2\n 34932: u8 [a1 + 0x10] = a4\n 34935: u8 [a1] = a0\n 34937: u8 [a1 + 0x18] = t2\n 34940: a0 = a4 >> 0x38\n 34943: u8 [a1 + 0x17] = a0\n 34946: a0 = a4 >> 0x30\n 34949: u8 [a1 + 0x16] = a0\n 34952: a0 = a4 >> 0x28\n 34955: u8 [a1 + 0x15] = a0\n 34958: a0 = a4 >> 0x20\n 34961: u8 [a1 + 0x14] = a0\n 34964: a0 = a4 >> 0x18\n 34967: u8 [a1 + 0x13] = a0\n 34970: a0 = a4 >> 0x10\n 34973: u8 [a1 + 0x12] = a0\n 34976: a4 = a4 >> 0x8\n 34979: u8 [a1 + 0x11] = a4\n 34982: a0 = t2 >> 0x38\n 34985: u8 [a1 + 0x1f] = a0\n 34988: a0 = t2 >> 0x30\n 34991: u8 [a1 + 0x1e] = a0\n 34994: a0 = t2 >> 0x28\n 34997: u8 [a1 + 0x1d] = a0\n 35000: a0 = t2 >> 0x20\n 35003: u8 [a1 + 0x1c] = a0\n 35006: a0 = t2 >> 0x18\n 35009: u8 [a1 + 0x1b] = a0\n 35012: a0 = t2 >> 0x10\n 35015: u8 [a1 + 0x1a] = a0\n 35018: a0 = t2 >> 0x8\n 35021: u8 [a1 + 0x19] = a0\n 35024: a0 = u64 [s1 + 0x1a0]\n 35028: a1 = a0 + 0x164\n 35032: u64 [s1 + 0x220] = a1\n 35036: a1 = a1 <u a0\n 35039: a2 = u64 [s1 + 0x170]\n 35043: a0 = a2 + a1\n 35046: a3 = a0 <u a2\n 35049: a3 = a1 if a1 == 0\n 35052: a2 = u64 [s1 + 0x38]\n 35055: a1 = a2 + a3\n 35058: a3 = a1 <u a2\n 35061: a2 = u64 [s1 + 0x30]\n 35064: a3 = a3 + a2\n 35067: a2 = u64 [s1 + 0x28]\n 35070: a4 = u64 [s1 + 0x228]\n 35074: jump @923 if a4 >=u a2\n      : @922 (gas: 5)\n 35077: a2 = u64 [s1 + 0x238]\n 35081: a4 = u64 [s1 + 0x28]\n 35084: u32 [a2] = a4\n 35086: u64 [s1 + 0x228] = a4\n 35090: fallthrough\n      : @923 (gas: 9)\n 35091: a4 = u64 [s1 + 0x220]\n 35095: a4 = a4 | a1\n 35098: a0 = a0 | a3\n 35101: a4 = a4 | a0\n 35104: a4 = a4 >> 0x20\n 35107: a0 = a0 | a1\n 35110: a0 = a0 << 0x20\n 35113: a0 = a0 | a4\n 35116: jump @925 if a0 == 0\n      : @924 (gas: 1)\n 35119: jump @660\n      : @925 (gas: 3)\n 35122: a0 = u64 [s1 + 0x220]\n 35126: i32 a0 = a0 >> 0x10\n 35129: jump @927 if a0 == 0\n      : @926 (gas: 1)\n 35132: jump @660\n      : @927 (gas: 5)\n 35135: a0 = u64 [s1 + 0x220]\n 35139: a0 = a0 + 0x3f\n 35142: a1 = u64 [s1 + 0x1f0]\n 35146: t1 = a0 & a1\n 35149: jump @929 if t1 <=u 65536\n      : @928 (gas: 1)\n 35155: jump @660\n      : @929 (gas: 91)\n 35158: t0 = u64 [s1 + 0x18]\n 35161: a0 = u8 [t0 + 0x19]\n 35164: a1 = u8 [t0 + 0x18]\n 35167: a4 = u8 [t0 + 0x1a]\n 35170: a5 = u8 [t0 + 0x1b]\n 35173: a0 = a0 << 0x8\n 35176: a0 = a0 | a1\n 35179: a4 = a4 << 0x10\n 35182: a5 = a5 << 0x18\n 35185: a4 = a4 | a5\n 35188: a0 = a0 | a4\n 35191: a1 = u8 [t0 + 0x1d]\n 35194: a4 = u8 [t0 + 0x1c]\n 35197: a5 = u8 [t0 + 0x1e]\n 35200: a2 = u8 [t0 + 0x1f]\n 35203: a1 = a1 << 0x8\n 35206: a1 = a1 | a4\n 35209: a5 = a5 << 0x10\n 35212: a2 = a2 << 0x18\n 35215: a2 = a2 | a5\n 35218: a1 = a1 | a2\n 35221: a1 = a1 << 0x20\n 35224: t2 = a1 | a0\n 35227: a0 = u8 [t0 + 0x11]\n 35230: a2 = u8 [t0 + 0x10]\n 35233: a4 = u8 [t0 + 0x12]\n 35236: a5 = u8 [t0 + 0x13]\n 35239: a0 = a0 << 0x8\n 35242: a0 = a0 | a2\n 35245: a4 = a4 << 0x10\n 35248: a5 = a5 << 0x18\n 35251: a4 = a4 | a5\n 35254: a0 = a0 | a4\n 35257: a2 = u8 [t0 + 0x15]\n 35260: a4 = u8 [t0 + 0x14]\n 35263: a5 = u8 [t0 + 0x16]\n 35266: a3 = u8 [t0 + 0x17]\n 35269: a2 = a2 << 0x8\n 35272: a2 = a2 | a4\n 35275: a5 = a5 << 0x10\n 35278: a3 = a3 << 0x18\n 35281: a3 = a3 | a5\n 35284: a2 = a2 | a3\n 35287: a2 = a2 << 0x20\n 35290: a4 = a2 | a0\n 35293: a0 = u8 [t0 + 0x9]\n 35296: a2 = u8 [t0 + 0x8]\n 35299: a3 = u8 [t0 + 0xa]\n 35302: a5 = u8 [t0 + 0xb]\n 35305: a0 = a0 << 0x8\n 35308: a0 = a0 | a2\n 35311: a3 = a3 << 0x10\n 35314: a5 = a5 << 0x18\n 35317: a3 = a3 | a5\n 35320: a0 = a0 | a3\n 35323: a2 = u8 [t0 + 0xd]\n 35326: a3 = u8 [t0 + 0xc]\n 35329: a5 = u8 [t0 + 0xe]\n 35332: a1 = u8 [t0 + 0xf]\n 35335: a2 = a2 << 0x8\n 35338: a2 = a2 | a3\n 35341: a5 = a5 << 0x10\n 35344: a1 = a1 << 0x18\n 35347: a1 = a1 | a5\n 35350: a1 = a1 | a2\n 35353: a1 = a1 << 0x20\n 35356: a5 = a1 | a0\n 35359: a0 = u8 [t0 + 0x1]\n 35362: a1 = u8 [t0]\n 35364: a2 = u8 [t0 + 0x2]\n 35367: a3 = u8 [t0 + 0x3]\n 35370: a0 = a0 << 0x8\n 35373: a0 = a0 | a1\n 35376: a2 = a2 << 0x10\n 35379: a3 = a3 << 0x18\n 35382: a2 = a2 | a3\n 35385: ra = a2 | a0\n 35388: a1 = u8 [t0 + 0x5]\n 35391: a2 = u8 [t0 + 0x4]\n 35394: a3 = u8 [t0 + 0x6]\n 35397: a0 = u8 [t0 + 0x7]\n 35400: a1 = a1 << 0x8\n 35403: a1 = a1 | a2\n 35406: a3 = a3 << 0x10\n 35409: a0 = a0 << 0x18\n 35412: a0 = a0 | a3\n 35415: a0 = a0 | a1\n 35418: a0 = a0 << 0x20\n 35421: a0 = a0 | ra\n 35424: a1 = u64 [s1 + 0x228]\n 35428: jump @931 if a1 >=u t1\n      : @930 (gas: 4)\n 35431: a1 = u64 [s1 + 0x238]\n 35435: u32 [a1] = t1\n 35437: u64 [s1 + 0x228] = t1\n 35441: fallthrough\n      : @931 (gas: 75)\n 35442: a2 = i32 [s1 + 0x220]\n 35446: a1 = u64 [s1 + 0x230]\n 35450: a2 = a2 + a1\n 35453: a1 = a5 >> 0x38\n 35456: u8 [a2 + 0xf] = a1\n 35459: a1 = a5 >> 0x30\n 35462: u8 [a2 + 0xe] = a1\n 35465: a1 = a5 >> 0x28\n 35468: u8 [a2 + 0xd] = a1\n 35471: a1 = a5 >> 0x20\n 35474: u8 [a2 + 0xc] = a1\n 35477: a1 = a5 >> 0x18\n 35480: u8 [a2 + 0xb] = a1\n 35483: a1 = a5 >> 0x10\n 35486: u8 [a2 + 0xa] = a1\n 35489: a1 = a5 >> 0x8\n 35492: u8 [a2 + 0x9] = a1\n 35495: u8 [a2 + 0x8] = a5\n 35498: a1 = a0 >> 0x38\n 35501: u8 [a2 + 0x7] = a1\n 35504: a1 = a0 >> 0x30\n 35507: u8 [a2 + 0x6] = a1\n 35510: a1 = a0 >> 0x28\n 35513: u8 [a2 + 0x5] = a1\n 35516: a1 = a0 >> 0x20\n 35519: u8 [a2 + 0x4] = a1\n 35522: a1 = a0 >> 0x18\n 35525: u8 [a2 + 0x3] = a1\n 35528: a1 = a0 >> 0x10\n 35531: u8 [a2 + 0x2] = a1\n 35534: a1 = a0 >> 0x8\n 35537: u8 [a2 + 0x1] = a1\n 35540: u8 [a2 + 0x10] = a4\n 35543: u8 [a2] = a0\n 35545: a0 = a4 >> 0x38\n 35548: u8 [a2 + 0x17] = a0\n 35551: a0 = a4 >> 0x30\n 35554: u8 [a2 + 0x16] = a0\n 35557: a0 = a4 >> 0x28\n 35560: u8 [a2 + 0x15] = a0\n 35563: a0 = a4 >> 0x20\n 35566: u8 [a2 + 0x14] = a0\n 35569: a0 = a4 >> 0x18\n 35572: u8 [a2 + 0x13] = a0\n 35575: a0 = a4 >> 0x10\n 35578: u8 [a2 + 0x12] = a0\n 35581: a4 = a4 >> 0x8\n 35584: u8 [a2 + 0x11] = a4\n 35587: a0 = t2 >> 0x38\n 35590: u8 [a2 + 0x1f] = a0\n 35593: a0 = t2 >> 0x30\n 35596: u8 [a2 + 0x1e] = a0\n 35599: a0 = t2 >> 0x28\n 35602: u8 [a2 + 0x1d] = a0\n 35605: a0 = t2 >> 0x20\n 35608: u8 [a2 + 0x1c] = a0\n 35611: a0 = t2 >> 0x18\n 35614: u8 [a2 + 0x1b] = a0\n 35617: a0 = t2 >> 0x10\n 35620: u8 [a2 + 0x1a] = a0\n 35623: a0 = u64 [s1 + 0x1a0]\n 35627: a3 = u64 [s1 + 0x38]\n 35630: a0 = a0 | a3\n 35633: a1 = u64 [s1 + 0x170]\n 35637: a4 = u64 [s1 + 0x30]\n 35640: a1 = a1 | a4\n 35643: a0 = a0 | a1\n 35646: a0 = a0 >> 0x20\n 35649: a1 = a1 | a3\n 35652: a1 = a1 << 0x20\n 35655: a0 = a0 | a1\n 35658: u8 [a2 + 0x18] = t2\n 35661: a1 = t2 >> 0x8\n 35664: u8 [a2 + 0x19] = a1\n 35667: jump @933 if a0 == 0\n      : @932 (gas: 1)\n 35670: jump @660\n      : @933 (gas: 3)\n 35673: a0 = u64 [s1 + 0x1a0]\n 35677: i32 a0 = a0 >> 0x10\n 35680: jump @935 if a0 == 0\n      : @934 (gas: 1)\n 35683: jump @660\n      : @935 (gas: 6)\n 35686: a0 = u64 [s1 + 0x1a0]\n 35690: a0 = a0 + 0x3f\n 35693: a1 = u64 [s1 + 0x1f0]\n 35697: a1 = a1 & a0\n 35700: u64 [s1 + 0x220] = a1\n 35704: jump @937 if a1 <=u 65536\n      : @936 (gas: 1)\n 35710: jump @660\n      : @937 (gas: 3)\n 35713: a0 = u64 [s1 + 0x228]\n 35717: a1 = u64 [s1 + 0x220]\n 35721: jump @939 if a0 >=u a1\n      : @938 (gas: 4)\n 35724: a0 = u64 [s1 + 0x238]\n 35728: a1 = u64 [s1 + 0x220]\n 35732: u32 [a0] = a1\n 35734: fallthrough\n      : @939 (gas: 51)\n 35735: a2 = u64 [s1 + 0x1a0]\n 35739: i32 a0 = a2 + 0\n 35741: a1 = u64 [s1 + 0x230]\n 35745: a1 = a1 + a0\n 35748: u8 [a1 + 31] = 0x64\n 35752: u8 [a1 + 30] = 0x1\n 35756: u8 [a1 + 29] = 0\n 35759: u8 [a1 + 28] = 0\n 35762: u8 [a1 + 27] = 0\n 35765: u8 [a1 + 26] = 0\n 35768: u8 [a1 + 25] = 0\n 35771: u8 [a1 + 24] = 0\n 35774: u8 [a1 + 23] = 0\n 35777: u8 [a1 + 22] = 0\n 35780: u8 [a1 + 21] = 0\n 35783: u8 [a1 + 20] = 0\n 35786: u8 [a1 + 19] = 0\n 35789: u8 [a1 + 18] = 0\n 35792: u8 [a1 + 17] = 0\n 35795: u8 [a1 + 16] = 0\n 35798: u8 [a1 + 15] = 0\n 35801: u8 [a1 + 14] = 0\n 35804: u8 [a1 + 13] = 0\n 35807: u8 [a1 + 12] = 0\n 35810: u8 [a1 + 11] = 0\n 35813: u8 [a1 + 10] = 0\n 35816: u8 [a1 + 9] = 0\n 35819: u8 [a1 + 8] = 0\n 35822: u8 [a1 + 7] = 0\n 35825: u8 [a1 + 6] = 0\n 35828: u8 [a1 + 5] = 0\n 35831: u8 [a1 + 4] = 0\n 35834: u8 [a1 + 3] = 0\n 35837: u8 [a1 + 2] = 0\n 35840: u8 [a1 + 1] = 0\n 35843: u64 [s1 + 0x228] = a1\n 35847: u8 [a1 + 0] = 0\n 35849: u64 [s1 + 1176] = 0\n 35853: u64 [s1 + 1168] = 0\n 35857: u64 [s1 + 1160] = 0\n 35861: u64 [s1 + 1152] = 0x184\n 35867: a0 = u64 [s1 + 0x30]\n 35870: u64 [s1 + 0x4b8] = a0\n 35874: a0 = u64 [s1 + 0x38]\n 35877: u64 [s1 + 0x4b0] = a0\n 35881: a0 = u64 [s1 + 0x170]\n 35885: u64 [s1 + 0x4a8] = a0\n 35889: a0 = s1 + 0x4a0\n 35893: a1 = s1 + 0x480\n 35897: u64 [s1 + 0x4a0] = a2\n 35901: ra = 72, jump @1071\n      : @940 [@dyn 36] (gas: 4)\n 35906: a0 = u64 [s1 + 0x238]\n 35910: a0 = i32 [a0]\n 35912: a1 = u64 [s1 + 0x220]\n 35916: jump @942 if a0 >=u a1\n      : @941 (gas: 4)\n 35919: a0 = u64 [s1 + 0x238]\n 35923: a1 = u64 [s1 + 0x220]\n 35927: u32 [a0] = a1\n 35929: fallthrough\n      : @942 (gas: 99)\n 35930: t2 = u64 [s1 + 0x228]\n 35934: a0 = u8 [t2 + 0x11]\n 35937: a1 = u8 [t2 + 0x10]\n 35940: a2 = u8 [t2 + 0x12]\n 35943: a3 = u8 [t2 + 0x13]\n 35946: a0 = a0 << 0x8\n 35949: a0 = a0 | a1\n 35952: a2 = a2 << 0x10\n 35955: a3 = a3 << 0x18\n 35958: a2 = a2 | a3\n 35961: a0 = a0 | a2\n 35964: a1 = u8 [t2 + 0x15]\n 35967: a2 = u8 [t2 + 0x14]\n 35970: a3 = u8 [t2 + 0x16]\n 35973: a4 = u8 [t2 + 0x17]\n 35976: a1 = a1 << 0x8\n 35979: a1 = a1 | a2\n 35982: a3 = a3 << 0x10\n 35985: a4 = a4 << 0x18\n 35988: a3 = a3 | a4\n 35991: a1 = a1 | a3\n 35994: a1 = a1 << 0x20\n 35997: t0 = a1 | a0\n 36000: a1 = u8 [t2 + 0x1]\n 36003: a2 = u8 [t2]\n 36005: a3 = u8 [t2 + 0x2]\n 36008: a4 = u8 [t2 + 0x3]\n 36011: a1 = a1 << 0x8\n 36014: a1 = a1 | a2\n 36017: a3 = a3 << 0x10\n 36020: a4 = a4 << 0x18\n 36023: a3 = a3 | a4\n 36026: a1 = a1 | a3\n 36029: a2 = u8 [t2 + 0x5]\n 36032: a3 = u8 [t2 + 0x4]\n 36035: a4 = u8 [t2 + 0x6]\n 36038: a5 = u8 [t2 + 0x7]\n 36041: a2 = a2 << 0x8\n 36044: a2 = a2 | a3\n 36047: a4 = a4 << 0x10\n 36050: a5 = a5 << 0x18\n 36053: a4 = a4 | a5\n 36056: a2 = a2 | a4\n 36059: a2 = a2 << 0x20\n 36062: t1 = a2 | a1\n 36065: a2 = u8 [t2 + 0x19]\n 36068: a3 = u8 [t2 + 0x18]\n 36071: a4 = u8 [t2 + 0x1a]\n 36074: a5 = u8 [t2 + 0x1b]\n 36077: a2 = a2 << 0x8\n 36080: a2 = a2 | a3\n 36083: a4 = a4 << 0x10\n 36086: a5 = a5 << 0x18\n 36089: a4 = a4 | a5\n 36092: a2 = a2 | a4\n 36095: a3 = u8 [t2 + 0x1d]\n 36098: a4 = u8 [t2 + 0x1c]\n 36101: a5 = u8 [t2 + 0x1e]\n 36104: a0 = u8 [t2 + 0x1f]\n 36107: a3 = a3 << 0x8\n 36110: a3 = a3 | a4\n 36113: a5 = a5 << 0x10\n 36116: a0 = a0 << 0x18\n 36119: a0 = a0 | a5\n 36122: a0 = a0 | a3\n 36125: a0 = a0 << 0x20\n 36128: a2 = a2 | a0\n 36131: a0 = u8 [t2 + 0x9]\n 36134: a3 = u8 [t2 + 0x8]\n 36137: a4 = u8 [t2 + 0xa]\n 36140: a5 = u8 [t2 + 0xb]\n 36143: a0 = a0 << 0x8\n 36146: a0 = a0 | a3\n 36149: a4 = a4 << 0x10\n 36152: a5 = a5 << 0x18\n 36155: a4 = a4 | a5\n 36158: a0 = a0 | a4\n 36161: a3 = u8 [t2 + 0xd]\n 36164: a4 = u8 [t2 + 0xc]\n 36167: a5 = u8 [t2 + 0xe]\n 36170: a1 = u8 [t2 + 0xf]\n 36173: a3 = a3 << 0x8\n 36176: a3 = a3 | a4\n 36179: a5 = a5 << 0x10\n 36182: a1 = a1 << 0x18\n 36185: a1 = a1 | a5\n 36188: a1 = a1 | a3\n 36191: a1 = a1 << 0x20\n 36194: a0 = a0 | a1\n 36197: a0 = reverse a0\n 36199: u64 [s1 + 0x228] = a0\n 36203: a0 = reverse a2\n 36205: u64 [s1 + 0x220] = a0\n 36209: a0 = reverse t1\n 36211: u64 [s1 + 0x218] = a0\n 36215: a0 = reverse t0\n 36217: u64 [s1 + 0x210] = a0\n 36221: ecalli 8 // 'ref_time_left'\n 36223: fallthrough\n      : @943 (gas: 36)\n 36224: a1 = u64 [s1 + 0x150]\n 36228: a1 = reverse a1\n 36230: a2 = a1 << 0x20\n 36233: a3 = u64 [s1 + 0x160]\n 36237: a3 = reverse a3\n 36239: a3 = a3 >> 0x20\n 36242: a2 = a2 | a3\n 36245: a3 = u64 [s1 + 0x158]\n 36249: a3 = reverse a3\n 36251: a4 = a3 << 0x20\n 36254: a1 = a1 >> 0x20\n 36257: a1 = a1 | a4\n 36260: a3 = a3 >> 0x20\n 36263: a4 = u64 [s1 + 0x180]\n 36267: u32 [a4 + 0x10] = a3\n 36270: u64 [a4 + 0x8] = a1\n 36273: u64 [a4] = a2\n 36275: a1 = u64 [s1 + 0x218]\n 36279: a2 = u64 [s1 + 0x210]\n 36283: a1 = a1 | a2\n 36286: a2 = u64 [s1 + 0x220]\n 36290: a4 = a2\n 36292: a3 = u64 [s1 + 0x228]\n 36296: a2 = a2 | a3\n 36299: a2 = a2 | a1\n 36302: a1 = a1 | a3\n 36305: a2 = a2 >> 0x20\n 36308: a1 = a1 << 0x20\n 36311: a1 = a1 | a2\n 36314: a2 = s1 + 0x7ff\n 36318: a2 = a2 + 0x1b9\n 36322: u64 [a2 + 128] = 0\n 36326: u64 [a2 + 120] = 0\n 36329: u64 [a2 + 112] = 0\n 36332: u64 [a2 + 104] = 0\n 36335: jump @945 if a1 == 0\n      : @944 (gas: 1)\n 36338: jump @660\n      : @945 (gas: 5)\n 36341: a1 = u64 [s1 + 0x20]\n 36344: a1 = a1 + a4\n 36347: i32 a1 = a1 + 0x1f\n 36350: a1 = a1 & 0xffffffffffffffe0\n 36353: jump @947 if a1 <=u 65536\n      : @946 (gas: 1)\n 36359: jump @660\n      : @947 (gas: 3)\n 36362: a2 = u64 [s1 + 0x238]\n 36366: a2 = i32 [a2]\n 36368: jump @949 if a2 >=u a1\n      : @948 (gas: 3)\n 36371: a2 = u64 [s1 + 0x238]\n 36375: u32 [a2] = a1\n 36377: fallthrough\n      : @949 (gas: 45)\n 36378: a3 = s1 + 0x7ff\n 36382: a3 = a3 + 0x1b9\n 36386: u32 [a3 + 136] = 0\n 36390: i32 a1 = a4 + 0\n 36392: a1 = a1 >u 0\n 36394: a0 = a0 >u 0x8fc\n 36398: a0 = a0 | a1\n 36401: a1 = -a0\n 36403: u64 [a3 + 0xc0] = a1\n 36407: u64 [a3 + 0xb8] = a1\n 36411: u64 [a3 + 0xb0] = a1\n 36415: u64 [a3 + 0xa8] = a1\n 36419: a1 = u64 [s1 + 0x180]\n 36423: a1 = a1 << 0x20\n 36426: a1 = a1 >> 0x20\n 36429: a0 = a0 << 0x23\n 36432: u64 [s1 + 0x218] = a1\n 36436: a0 = a0 | a1\n 36439: a1 = s1 + 0x7ff\n 36443: a1 = a1 + 0x221\n 36447: a1 = a1 << 0x20\n 36450: a1 = a1 >> 0x20\n 36453: a2 = s1 + 0x7ff\n 36457: a2 = a2 + 0x261\n 36461: a2 = a2 << 0x20\n 36464: a3 = a2 | a1\n 36467: a1 = u64 [s1 + 0x10]\n 36470: a1 = a1 << 0x20\n 36473: a1 = a1 >> 0x20\n 36476: a4 = a4 << 0x20\n 36479: a4 = a4 | a1\n 36482: a1 = u64 [s1 + 0x230]\n 36486: a1 = a1 << 0x20\n 36489: a5 = a1 >> 0x20\n 36492: a1 = s1 + 0x7ff\n 36496: a1 = a1 + 0x241\n 36500: a1 = a1 << 0x20\n 36503: u64 [s1 + 0x220] = a5\n 36507: a5 = a5 | a1\n 36510: a1 = 0xffffffffffffffff\n 36513: a2 = 0xffffffffffffffff\n 36516: ecalli 0 // 'call'\n 36517: u64 [s1 + 0x228] = a0\n 36521: a0 = s1 + 0x460\n 36525: ra = 74, jump @1106\n      : @950 [@dyn 37] (gas: 4)\n 36530: a0 = u64 [s1 + 0x238]\n 36534: a1 = i32 [a0]\n 36536: a0 = u64 [s1 + 0x228]\n 36540: jump @995 if a0 != 0\n      : @951 (gas: 10)\n 36544: a2 = u64 [s1 + 0x230]\n 36548: a0 = u64 [s1 + 0x88]\n 36552: u64 [a2] = a0\n 36554: a0 = u64 [s1 + 0x90]\n 36558: u64 [a2 + 0x8] = a0\n 36561: a0 = u64 [s1 + 0x98]\n 36565: u64 [a2 + 0x10] = a0\n 36568: a3 = u64 [s1 + 0x80]\n 36572: u64 [a2 + 0x18] = a3\n 36575: jump @953 if a1 >u 63\n      : @952 (gas: 3)\n 36579: a1 = u64 [s1 + 0x238]\n 36583: u32 [a1 + 0] = 0x40\n 36586: fallthrough\n      : @953 (gas: 34)\n 36587: a1 = u64 [s1 + 0x230]\n 36591: u64 [a1 + 48] = 0\n 36594: u64 [a1 + 40] = 0\n 36597: u64 [a1 + 32] = 0\n 36600: a0 = 0x700000000000000\n 36610: u64 [a1 + 0x38] = a0\n 36613: a0 = sp + 0xffffffffffffffe0\n 36616: a0 = a0 & 0xffffffffffffffe0\n 36619: u64 [s1 + 0x228] = a0\n 36623: sp = a0\n 36625: a0 = sp + 0xffffffffffffffe0\n 36628: a0 = a0 & 0xffffffffffffffe0\n 36631: u64 [s1 + 0x210] = a0\n 36635: sp = a0\n 36637: i32 a2 = a0 + 0\n 36639: a1 = 0x40\n 36642: a0 = u64 [s1 + 0x1a8]\n 36646: ecalli 7 // 'hash_keccak_256'\n 36648: a3 = u64 [s1 + 0x210]\n 36652: a0 = u64 [a3 + 0x18]\n 36655: a1 = u64 [a3 + 0x10]\n 36658: a2 = u64 [a3 + 0x8]\n 36661: a3 = u64 [a3]\n 36663: a0 = reverse a0\n 36665: a4 = reverse a1\n 36667: a2 = reverse a2\n 36669: a3 = reverse a3\n 36671: a1 = u64 [s1 + 0x228]\n 36675: u64 [a1 + 0x18] = a3\n 36678: u64 [a1 + 0x10] = a2\n 36681: u64 [a1 + 0x8] = a4\n 36684: u64 [a1] = a0\n 36686: a0 = s1 + 0x440\n 36690: ra = 76, jump @0\n      : @954 [@dyn 38] (gas: 16)\n 36696: a0 = u64 [s1 + 0x440]\n 36700: a1 = u64 [s1 + 0x448]\n 36704: a2 = u64 [s1 + 0x458]\n 36708: a3 = u64 [s1 + 0x450]\n 36712: a0 = a0 & 0xffffffffffffff00\n 36716: a0 = a0 | 0x1\n 36719: a4 = s1 + 0x7ff\n 36723: a4 = a4 + 0x1b9\n 36727: u64 [a4 + 0xe0] = a2\n 36731: u64 [a4 + 0xd8] = a3\n 36735: u64 [a4 + 0xd0] = a1\n 36739: u64 [a4 + 0xc8] = a0\n 36743: a1 = s1 + 0x7ff\n 36747: a1 = a1 + 0x281\n 36751: a0 = u64 [s1 + 0x228]\n 36755: ra = 78, jump @1\n      : @955 [@dyn 39] (gas: 10)\n 36761: a1 = s1 + 0x7ff\n 36765: a1 = a1 + 0x1b9\n 36769: u64 [a1 + 256] = 0\n 36773: u64 [a1 + 248] = 0\n 36777: u64 [a1 + 240] = 0\n 36781: u64 [a1 + 232] = 0x3\n 36786: a0 = s1 + 0x420\n 36790: a1 = s1 + 0x7ff\n 36794: a1 = a1 + 0x2a1\n 36798: ra = 80, jump @0\n      : @956 [@dyn 40] (gas: 64)\n 36804: a0 = u64 [s1 + 0x420]\n 36808: u64 [s1 + 0x228] = a0\n 36812: a0 = u64 [s1 + 0x428]\n 36816: u64 [s1 + 0x210] = a0\n 36820: a0 = u64 [s1 + 0x430]\n 36824: u64 [s1 + 0x208] = a0\n 36828: a0 = u64 [s1 + 0x438]\n 36832: u64 [s1 + 0x200] = a0\n 36836: a0 = u64 [s1 + 0x178]\n 36840: ecalli 4 // 'caller'\n 36842: a0 = u64 [s1 + 0x180]\n 36846: a1 = i32 [a0 + 0x10]\n 36849: u64 [s1 + 0x1e8] = a1\n 36853: a1 = u64 [a0]\n 36855: u64 [s1 + 0x1e0] = a1\n 36859: a1 = u64 [a0 + 0x8]\n 36862: u64 [s1 + 0x1d8] = a1\n 36866: ecalli 8 // 'ref_time_left'\n 36868: a2 = u64 [s1 + 0x180]\n 36872: a1 = u64 [s1 + 0x1d8]\n 36876: u64 [a2 + 0x8] = a1\n 36879: a1 = u64 [s1 + 0x1e0]\n 36883: u64 [a2] = a1\n 36885: a1 = u64 [s1 + 0x1e8]\n 36889: u32 [a2 + 0x10] = a1\n 36892: a2 = s1 + 0x7ff\n 36896: a2 = a2 + 0x1b9\n 36900: a1 = u64 [s1 + 0x200]\n 36904: u64 [a2 + 0x120] = a1\n 36908: a1 = u64 [s1 + 0x208]\n 36912: u64 [a2 + 0x118] = a1\n 36916: a1 = u64 [s1 + 0x210]\n 36920: u64 [a2 + 0x110] = a1\n 36924: a1 = u64 [s1 + 0x228]\n 36928: u64 [a2 + 0x108] = a1\n 36932: u32 [a2 + 296] = 0\n 36936: a0 = a0 >u 0x8fc\n 36940: a1 = -a0\n 36942: u64 [a2 + 0x160] = a1\n 36946: u64 [a2 + 0x158] = a1\n 36950: u64 [a2 + 0x150] = a1\n 36954: u64 [a2 + 0x148] = a1\n 36958: a0 = a0 << 0x23\n 36961: a1 = u64 [s1 + 0x218]\n 36965: a0 = a0 | a1\n 36968: a1 = s1 + 0x7ff\n 36972: a1 = a1 + 0x2c1\n 36976: a1 = a1 << 0x20\n 36979: a1 = a1 >> 0x20\n 36982: a2 = s1 + 0x7ff\n 36986: a2 = a2 + 0x301\n 36990: a2 = a2 << 0x20\n 36993: a3 = a2 | a1\n 36996: a1 = s1 + 0x7ff\n 37000: a1 = a1 + 0x2e1\n 37004: a1 = a1 << 0x20\n 37007: a4 = u64 [s1 + 0x220]\n 37011: a5 = a1 | a4\n 37014: a1 = 0xffffffffffffffff\n 37017: a2 = 0xffffffffffffffff\n 37020: ecalli 0 // 'call'\n 37021: u64 [s1 + 0x220] = a0\n 37025: a0 = s1 + 0x400\n 37029: ra = 82, jump @1106\n      : @957 [@dyn 41] (gas: 11)\n 37034: a2 = u64 [s1 + 0x1f8]\n 37038: a0 = u64 [a2 + 0x18]\n 37041: a1 = u64 [a2 + 0x10]\n 37044: a4 = u64 [a2]\n 37046: a2 = u64 [a2 + 0x8]\n 37049: a3 = a4 | a1\n 37052: a2 = a2 | a0\n 37055: u64 [s1 + 0x228] = a4\n 37059: i32 a0 = a4 >> 0x10\n 37062: a4 = u64 [s1 + 0x220]\n 37066: jump @1030 if a4 != 0\n      : @958 (gas: 6)\n 37070: a3 = a3 | a2\n 37073: a3 = a3 >> 0x20\n 37076: a1 = a1 | a2\n 37079: a1 = a1 << 0x20\n 37082: a1 = a1 | a3\n 37085: jump @960 if a1 == 0\n      : @959 (gas: 1)\n 37088: jump @660\n      : @960 (gas: 1)\n 37091: jump @962 if a0 == 0\n      : @961 (gas: 1)\n 37094: jump @660\n      : @962 (gas: 5)\n 37097: a0 = u64 [s1 + 0x228]\n 37101: a0 = a0 + 0x3f\n 37104: a1 = u64 [s1 + 0x1f0]\n 37108: a0 = a0 & a1\n 37111: jump @964 if a0 <=u 65536\n      : @963 (gas: 1)\n 37117: jump @660\n      : @964 (gas: 3)\n 37120: a1 = u64 [s1 + 0x238]\n 37124: a1 = i32 [a1]\n 37126: jump @966 if a1 >=u a0\n      : @965 (gas: 3)\n 37129: a1 = u64 [s1 + 0x238]\n 37133: u32 [a1] = a0\n 37135: fallthrough\n      : @966 (gas: 102)\n 37136: a0 = i32 [s1 + 0x228]\n 37140: a1 = u64 [s1 + 0x230]\n 37144: a0 = a0 + a1\n 37147: a1 = u8 [a0 + 0x11]\n 37150: a2 = u8 [a0 + 0x10]\n 37153: a3 = u8 [a0 + 0x12]\n 37156: a4 = u8 [a0 + 0x13]\n 37159: a1 = a1 << 0x8\n 37162: a1 = a1 | a2\n 37165: a3 = a3 << 0x10\n 37168: a4 = a4 << 0x18\n 37171: a3 = a3 | a4\n 37174: a1 = a1 | a3\n 37177: a2 = u8 [a0 + 0x15]\n 37180: a3 = u8 [a0 + 0x14]\n 37183: a4 = u8 [a0 + 0x16]\n 37186: a5 = u8 [a0 + 0x17]\n 37189: a2 = a2 << 0x8\n 37192: a2 = a2 | a3\n 37195: a4 = a4 << 0x10\n 37198: a5 = a5 << 0x18\n 37201: a4 = a4 | a5\n 37204: a2 = a2 | a4\n 37207: a2 = a2 << 0x20\n 37210: t0 = a2 | a1\n 37213: a2 = u8 [a0 + 0x1]\n 37216: a3 = u8 [a0]\n 37218: a4 = u8 [a0 + 0x2]\n 37221: a5 = u8 [a0 + 0x3]\n 37224: a2 = a2 << 0x8\n 37227: a2 = a2 | a3\n 37230: a4 = a4 << 0x10\n 37233: a5 = a5 << 0x18\n 37236: a4 = a4 | a5\n 37239: a2 = a2 | a4\n 37242: a3 = u8 [a0 + 0x5]\n 37245: a4 = u8 [a0 + 0x4]\n 37248: a5 = u8 [a0 + 0x6]\n 37251: a1 = u8 [a0 + 0x7]\n 37254: a3 = a3 << 0x8\n 37257: a3 = a3 | a4\n 37260: a5 = a5 << 0x10\n 37263: a1 = a1 << 0x18\n 37266: a1 = a1 | a5\n 37269: a1 = a1 | a3\n 37272: a1 = a1 << 0x20\n 37275: t1 = a1 | a2\n 37278: a1 = u8 [a0 + 0x19]\n 37281: a3 = u8 [a0 + 0x18]\n 37284: a4 = u8 [a0 + 0x1a]\n 37287: a5 = u8 [a0 + 0x1b]\n 37290: a1 = a1 << 0x8\n 37293: a1 = a1 | a3\n 37296: a4 = a4 << 0x10\n 37299: a5 = a5 << 0x18\n 37302: a4 = a4 | a5\n 37305: a1 = a1 | a4\n 37308: a3 = u8 [a0 + 0x1d]\n 37311: a4 = u8 [a0 + 0x1c]\n 37314: a5 = u8 [a0 + 0x1e]\n 37317: a2 = u8 [a0 + 0x1f]\n 37320: a3 = a3 << 0x8\n 37323: a3 = a3 | a4\n 37326: a5 = a5 << 0x10\n 37329: a2 = a2 << 0x18\n 37332: a2 = a2 | a5\n 37335: a2 = a2 | a3\n 37338: a2 = a2 << 0x20\n 37341: a3 = a2 | a1\n 37344: a1 = u8 [a0 + 0x9]\n 37347: a2 = u8 [a0 + 0x8]\n 37350: a4 = u8 [a0 + 0xa]\n 37353: a5 = u8 [a0 + 0xb]\n 37356: a1 = a1 << 0x8\n 37359: a1 = a1 | a2\n 37362: a4 = a4 << 0x10\n 37365: a5 = a5 << 0x18\n 37368: a4 = a4 | a5\n 37371: a1 = a1 | a4\n 37374: a2 = u8 [a0 + 0xd]\n 37377: a4 = u8 [a0 + 0xc]\n 37380: a5 = u8 [a0 + 0xe]\n 37383: a0 = u8 [a0 + 0xf]\n 37386: a2 = a2 << 0x8\n 37389: a2 = a2 | a4\n 37392: a5 = a5 << 0x10\n 37395: a0 = a0 << 0x18\n 37398: a0 = a0 | a5\n 37401: a0 = a0 | a2\n 37404: a0 = a0 << 0x20\n 37407: a0 = a0 | a1\n 37410: a0 = reverse a0\n 37412: u64 [s1 + 0x218] = a0\n 37416: a0 = reverse a3\n 37418: u64 [s1 + 0x210] = a0\n 37422: a0 = reverse t1\n 37424: u64 [s1 + 0x208] = a0\n 37428: a0 = reverse t0\n 37430: u64 [s1 + 0x220] = a0\n 37434: a0 = u64 [s1 + 0x178]\n 37438: ecalli 4 // 'caller'\n 37440: fallthrough\n      : @967 (gas: 14)\n 37441: a0 = u64 [s1 + 0x208]\n 37445: t2 = a0\n 37447: a1 = u64 [s1 + 0x220]\n 37451: a0 = a0 | a1\n 37454: a1 = u64 [s1 + 0x210]\n 37458: t0 = a1\n 37460: a2 = u64 [s1 + 0x218]\n 37464: a1 = a1 | a2\n 37467: a1 = a1 | a0\n 37470: a1 = a1 >> 0x20\n 37473: a0 = a0 | a2\n 37476: a0 = a0 << 0x20\n 37479: a0 = a0 | a1\n 37482: jump @969 if a0 == 0\n      : @968 (gas: 1)\n 37485: jump @660\n      : @969 (gas: 2)\n 37488: i32 a0 = t0 >> 0x10\n 37491: jump @971 if a0 == 0\n      : @970 (gas: 1)\n 37494: jump @660\n      : @971 (gas: 4)\n 37497: a0 = t0 + 0x3f\n 37500: a1 = u64 [s1 + 0x1f0]\n 37504: a1 = a1 & a0\n 37507: jump @973 if a1 <=u 65536\n      : @972 (gas: 1)\n 37513: jump @660\n      : @973 (gas: 18)\n 37516: ra = a2\n 37518: a3 = u64 [s1 + 0x180]\n 37522: a0 = u64 [a3 + 0x8]\n 37525: a2 = u64 [a3]\n 37527: a4 = i32 [a3 + 0x10]\n 37530: a0 = reverse a0\n 37532: a3 = a0 >> 0x20\n 37535: a2 = reverse a2\n 37537: a5 = a2 << 0x20\n 37540: a3 = a3 | a5\n 37543: a5 = a0 << 0x20\n 37546: a0 = u64 [s1 + 0x238]\n 37550: t1 = i32 [a0]\n 37552: a4 = reverse a4\n 37554: a4 = a4 >> 0x20\n 37557: a4 = a4 | a5\n 37560: a2 = a2 >> 0x20\n 37563: jump @975 if t1 >=u a1\n      : @974 (gas: 4)\n 37566: a0 = u64 [s1 + 0x238]\n 37570: u32 [a0] = a1\n 37572: t1 = a1\n 37574: fallthrough\n      : @975 (gas: 63)\n 37575: i32 a1 = t0 + 0\n 37577: a5 = u64 [s1 + 0x230]\n 37581: a1 = a1 + a5\n 37584: a2 = reverse a2\n 37586: a3 = reverse a3\n 37588: a4 = reverse a4\n 37590: a5 = a4 >> 0x38\n 37593: u8 [a1 + 0x1f] = a5\n 37596: a5 = a4 >> 0x30\n 37599: u8 [a1 + 0x1e] = a5\n 37602: a5 = a4 >> 0x28\n 37605: u8 [a1 + 0x1d] = a5\n 37608: a5 = a4 >> 0x20\n 37611: u8 [a1 + 0x1c] = a5\n 37614: a5 = a4 >> 0x18\n 37617: u8 [a1 + 0x1b] = a5\n 37620: a5 = a4 >> 0x10\n 37623: u8 [a1 + 0x1a] = a5\n 37626: a5 = a4 >> 0x8\n 37629: u8 [a1 + 0x19] = a5\n 37632: u8 [a1 + 0x18] = a4\n 37635: u8 [a1 + 0x10] = a3\n 37638: u8 [a1 + 11] = 0\n 37641: u8 [a1 + 10] = 0\n 37644: u8 [a1 + 9] = 0\n 37647: u8 [a1 + 7] = 0\n 37650: u8 [a1 + 6] = 0\n 37653: u8 [a1 + 5] = 0\n 37656: u8 [a1 + 4] = 0\n 37659: u8 [a1 + 3] = 0\n 37662: u8 [a1 + 2] = 0\n 37665: u8 [a1 + 1] = 0\n 37668: u8 [a1 + 0] = 0\n 37670: a4 = a3 >> 0x38\n 37673: u8 [a1 + 0x17] = a4\n 37676: a4 = a3 >> 0x30\n 37679: u8 [a1 + 0x16] = a4\n 37682: a4 = a3 >> 0x28\n 37685: u8 [a1 + 0x15] = a4\n 37688: a4 = a3 >> 0x20\n 37691: u8 [a1 + 0x14] = a4\n 37694: a4 = a3 >> 0x18\n 37697: u8 [a1 + 0x13] = a4\n 37700: a4 = a3 >> 0x10\n 37703: u8 [a1 + 0x12] = a4\n 37706: a3 = a3 >> 0x8\n 37709: u8 [a1 + 0x11] = a3\n 37712: u8 [a1 + 0x8] = a2\n 37715: a3 = a2 >> 0x38\n 37718: u8 [a1 + 0xf] = a3\n 37721: a3 = a2 >> 0x30\n 37724: u8 [a1 + 0xe] = a3\n 37727: a3 = a2 >> 0x28\n 37730: u8 [a1 + 0xd] = a3\n 37733: a2 = a2 >> 0x20\n 37736: a3 = ra | t2\n 37739: a4 = 0xffffffe0\n 37749: a4 = t0 <u a4\n 37752: a0 = u64 [s1 + 0x220]\n 37756: a4 = 0 if a0 != 0\n 37758: a4 = 0 if a3 != 0\n 37760: u8 [a1 + 0xc] = a2\n 37763: jump @977 if a4 != 0\n      : @976 (gas: 1)\n 37766: jump @660\n      : @977 (gas: 2)\n 37769: i32 a1 = t0 >> 0x5\n 37772: jump @979 if a1 <u 2047\n      : @978 (gas: 1)\n 37777: jump @660\n      : @979 (gas: 4)\n 37780: a1 = t0 + 0x5f\n 37783: a2 = u64 [s1 + 0x1f0]\n 37787: a1 = a1 & a2\n 37790: jump @981 if a1 <=u 65536\n      : @980 (gas: 1)\n 37796: jump @660\n      : @981 (gas: 1)\n 37799: jump @983 if t1 >=u a1\n      : @982 (gas: 3)\n 37802: a0 = u64 [s1 + 0x238]\n 37806: u32 [a0] = a1\n 37808: fallthrough\n      : @983 (gas: 79)\n 37809: a0 = t0\n 37811: i32 a2 = t0 + 0x20\n 37814: a1 = u64 [s1 + 0x230]\n 37818: a2 = a2 + a1\n 37821: a1 = u64 [s1 + 0x98]\n 37825: u8 [a2 + 0x10] = a1\n 37828: a1 = u64 [s1 + 0xf8]\n 37832: u8 [a2 + 0xf] = a1\n 37835: a1 = u64 [s1 + 0xe8]\n 37839: u8 [a2 + 0xe] = a1\n 37842: a1 = u64 [s1 + 0xd8]\n 37846: u8 [a2 + 0xd] = a1\n 37849: a1 = u64 [s1 + 0xc8]\n 37853: u8 [a2 + 0xc] = a1\n 37856: a1 = u64 [s1 + 0xb8]\n 37860: u8 [a2 + 0xb] = a1\n 37863: a1 = u64 [s1 + 0xa8]\n 37867: u8 [a2 + 0xa] = a1\n 37870: a1 = u64 [s1 + 0x78]\n 37873: u8 [a2 + 0x9] = a1\n 37876: a1 = u64 [s1 + 0x90]\n 37880: u8 [a2 + 0x8] = a1\n 37883: a1 = u64 [s1 + 0x140]\n 37887: u8 [a2 + 0x7] = a1\n 37890: a1 = u64 [s1 + 0x138]\n 37894: u8 [a2 + 0x6] = a1\n 37897: a1 = u64 [s1 + 0x130]\n 37901: u8 [a2 + 0x5] = a1\n 37904: a1 = u64 [s1 + 0x128]\n 37908: u8 [a2 + 0x4] = a1\n 37911: a1 = u64 [s1 + 0x120]\n 37915: u8 [a2 + 0x3] = a1\n 37918: a1 = u64 [s1 + 0x118]\n 37922: u8 [a2 + 0x2] = a1\n 37925: a1 = u64 [s1 + 0x110]\n 37929: u8 [a2 + 0x1] = a1\n 37932: a1 = u64 [s1 + 0x88]\n 37936: u8 [a2] = a1\n 37938: a1 = u64 [s1 + 0x80]\n 37942: u8 [a2 + 0x18] = a1\n 37945: a1 = u64 [s1 + 0x108]\n 37949: u8 [a2 + 0x17] = a1\n 37952: a1 = u64 [s1 + 0x100]\n 37956: u8 [a2 + 0x16] = a1\n 37959: a1 = u64 [s1 + 0xf0]\n 37963: u8 [a2 + 0x15] = a1\n 37966: a1 = u64 [s1 + 0xe0]\n 37970: u8 [a2 + 0x14] = a1\n 37973: a1 = u64 [s1 + 0xd0]\n 37977: u8 [a2 + 0x13] = a1\n 37980: a1 = u64 [s1 + 0xc0]\n 37984: u8 [a2 + 0x12] = a1\n 37987: a1 = u64 [s1 + 0xb0]\n 37991: u8 [a2 + 0x11] = a1\n 37994: a1 = u64 [s1 + 0xa0]\n 37998: u8 [a2 + 0x1f] = a1\n 38001: a1 = u64 [s1 + 0x70]\n 38004: u8 [a2 + 0x1e] = a1\n 38007: a1 = u64 [s1 + 0x68]\n 38010: u8 [a2 + 0x1d] = a1\n 38013: a1 = u64 [s1 + 0x60]\n 38016: u8 [a2 + 0x1c] = a1\n 38019: a1 = u64 [s1 + 0x58]\n 38022: u8 [a2 + 0x1b] = a1\n 38025: a1 = u64 [s1 + 0x50]\n 38028: u8 [a2 + 0x1a] = a1\n 38031: a1 = u64 [s1 + 0x48]\n 38034: u8 [a2 + 0x19] = a1\n 38037: a1 = u64 [0x20008]\n 38042: u64 [s1 + 0x3f8] = a1\n 38046: a4 = u64 [0x20010]\n 38051: a1 = u64 [0x20018]\n 38056: a3 = u64 [0x20020]\n 38061: u64 [s1 + 0x3f0] = a4\n 38065: u64 [s1 + 0x3e8] = a1\n 38069: a2 = s1 + 0x3e0\n 38073: u64 [s1 + 0x3e0] = a3\n 38077: a1 = u64 [s1 + 0x228]\n 38081: ra = 84, jump @2\n      : @984 [@dyn 42] (gas: 15)\n 38087: a1 = s1 + 0x7ff\n 38091: a1 = a1 + 0x1b9\n 38095: u64 [a1 + 384] = 0\n 38099: u64 [a1 + 376] = 0\n 38103: u64 [a1 + 368] = 0\n 38107: u64 [a1 + 360] = 0\n 38111: u64 [a1 + 416] = 0\n 38115: u64 [a1 + 408] = 0\n 38119: u64 [a1 + 400] = 0\n 38123: u64 [a1 + 392] = 0x1\n 38128: a0 = s1 + 0x7ff\n 38132: a0 = a0 + 0x321\n 38136: a1 = s1 + 0x7ff\n 38140: a1 = a1 + 0x341\n 38144: ra = 86, jump @1\n      : @985 [@dyn 43] (gas: 5)\n 38150: a0 = 0\n 38152: a1 = u64 [s1 + 0x1a8]\n 38156: a2 = 0\n 38158: ecalli 11 // 'seal_return'\n 38160: fallthrough\n      : @986 (gas: 2)\n 38161: i32 t2 = t2 + 0\n 38163: jump @988 if t2 >=u a2\n      : @987 (gas: 3)\n 38166: a1 = u64 [s1 + 0x238]\n 38170: u32 [a1] = a2\n 38172: fallthrough\n      : @988 (gas: 38)\n 38173: i32 a1 = a0 + 0x44\n 38176: a2 = u64 [s1 + 0x230]\n 38180: a1 = a1 + a2\n 38183: u8 [a1 + 31] = 0\n 38186: u8 [a1 + 30] = 0\n 38189: u8 [a1 + 29] = 0\n 38192: u8 [a1 + 28] = 0\n 38195: u8 [a1 + 27] = 0\n 38198: u8 [a1 + 26] = 0\n 38201: u8 [a1 + 25] = 0\n 38204: u8 [a1 + 24] = 0\n 38207: u8 [a1 + 23] = 0\n 38210: u8 [a1 + 22] = 0\n 38213: u8 [a1 + 21] = 0\n 38216: u8 [a1 + 20] = 0\n 38219: u8 [a1 + 19] = 0\n 38222: u8 [a1 + 18] = 0\n 38225: u8 [a1 + 17] = 0\n 38228: u8 [a1 + 16] = 0\n 38231: u8 [a1 + 15] = 0\n 38234: u8 [a1 + 14] = 0\n 38237: u8 [a1 + 13] = 0\n 38240: u8 [a1 + 12] = 0\n 38243: u8 [a1 + 11] = 0\n 38246: u8 [a1 + 10] = 0\n 38249: u8 [a1 + 9] = 0\n 38252: u8 [a1 + 8] = 0x6c\n 38256: u8 [a1 + 7] = 0x6c\n 38260: u8 [a1 + 6] = 0x75\n 38264: u8 [a1 + 5] = 0x66\n 38268: u8 [a1 + 4] = 0x2d\n 38272: u8 [a1 + 3] = 0x65\n 38276: u8 [a1 + 2] = 0x65\n 38280: u8 [a1 + 1] = 0x72\n 38284: u8 [a1 + 0] = 0x74\n 38287: a1 = 0x64\n 38290: ra = 0x58\n 38293: jump @8\n      : @989 (gas: 3)\n 38297: u8 [a1] = a2\n 38299: a1 = 0x64\n 38302: ra = 88, jump @8\n      : @990 [@dyn 44] (gas: 5)\n 38308: i32 a1 = a0 + 0\n 38310: a0 = 0x1\n 38313: a2 = 0x64\n 38316: ecalli 11 // 'seal_return'\n 38318: fallthrough\n      : @991 (gas: 8)\n 38319: a0 = u64 [s1 + 0x238]\n 38323: a0 = i32 [a0]\n 38325: a2 = u64 [s1 + 0x230]\n 38329: u64 [a2 + 24] = 0\n 38332: u64 [a2 + 16] = 0\n 38335: u64 [a2 + 0] = 0x717b484e\n 38341: u64 [a2 + 8] = 0\n 38344: jump @993 if a0 >u 63\n      : @992 (gas: 4)\n 38348: a1 = u64 [s1 + 0x238]\n 38352: u32 [a1 + 0] = 0x40\n 38355: a0 = 0x11000000\n 38361: jump @727\n      : @993 (gas: 2)\n 38364: a0 = 0x11000000\n 38370: jump @727\n      : @994 (gas: 19)\n 38373: a1 = u64 [s1 + 0x230]\n 38377: u64 [a1 + 16] = 0\n 38380: u64 [a1 + 24] = 0\n 38383: u64 [a1 + 8] = 0\n 38386: u64 [a1 + 0] = 0x717b484e\n 38392: u32 [a1 + 32] = 0x41000000\n 38399: u32 [a1 + 20] = 0\n 38402: u32 [a1 + 24] = 0\n 38405: u32 [a1 + 28] = 0\n 38408: u32 [a1 + 8] = 0\n 38411: u32 [a1 + 12] = 0\n 38414: u32 [a1 + 16] = 0\n 38417: u32 [a1 + 4] = 0\n 38420: a0 = 0x1\n 38423: a2 = 0x24\n 38426: a1 = u64 [s1 + 0x1a8]\n 38430: ra = 0x5a\n 38433: ecalli 11 // 'seal_return'\n 38435: fallthrough\n      : @995 [@dyn 45] (gas: 1)\n 38436: jump @997 if a1 >u 95\n      : @996 (gas: 4)\n 38440: a1 = 0x60\n 38443: a0 = u64 [s1 + 0x238]\n 38447: u32 [a0] = a1\n 38449: fallthrough\n      : @997 (gas: 17)\n 38450: a4 = u64 [s1 + 0x230]\n 38454: a0 = u64 [a4 + 0x48]\n 38457: a2 = u64 [a4 + 0x58]\n 38460: a3 = u64 [a4 + 0x40]\n 38463: a5 = u64 [a4 + 0x50]\n 38466: a4 = reverse a0\n 38468: a0 = reverse a2\n 38470: t1 = reverse a3\n 38472: t0 = reverse a5\n 38474: a2 = t0 | t1\n 38477: a3 = a0 | a4\n 38480: a3 = a3 | a2\n 38483: a3 = a3 >> 0x20\n 38486: a2 = a2 | a4\n 38489: a2 = a2 << 0x20\n 38492: a2 = a2 | a3\n 38495: jump @999 if a2 == 0\n      : @998 (gas: 1)\n 38498: jump @660\n      : @999 (gas: 2)\n 38501: i32 a2 = a0 >> 0x10\n 38504: jump @1001 if a2 == 0\n      : @1000 (gas: 1)\n 38507: jump @660\n      : @1001 (gas: 4)\n 38510: a2 = a0 + 0x3f\n 38513: a3 = u64 [s1 + 0x1f0]\n 38517: a2 = a2 & a3\n 38520: jump @1003 if a2 <=u 65536\n      : @1002 (gas: 1)\n 38526: jump @660\n      : @1003 (gas: 1)\n 38529: jump @1005 if a1 >=u a2\n      : @1004 (gas: 4)\n 38532: a1 = u64 [s1 + 0x238]\n 38536: u32 [a1] = a2\n 38538: a1 = a2\n 38540: fallthrough\n      : @1005 (gas: 41)\n 38541: i32 t2 = a0 + 0\n 38543: a3 = u64 [s1 + 0x230]\n 38547: a3 = a3 + t2\n 38550: u8 [a3 + 31] = 0\n 38553: u8 [a3 + 30] = 0\n 38556: u8 [a3 + 29] = 0\n 38559: u8 [a3 + 28] = 0\n 38562: u8 [a3 + 27] = 0\n 38565: u8 [a3 + 26] = 0\n 38568: u8 [a3 + 25] = 0\n 38571: u8 [a3 + 24] = 0\n 38574: u8 [a3 + 23] = 0\n 38577: u8 [a3 + 22] = 0\n 38580: u8 [a3 + 21] = 0\n 38583: u8 [a3 + 20] = 0\n 38586: u8 [a3 + 19] = 0\n 38589: u8 [a3 + 18] = 0\n 38592: u8 [a3 + 17] = 0\n 38595: u8 [a3 + 16] = 0\n 38598: u8 [a3 + 15] = 0\n 38601: u8 [a3 + 14] = 0\n 38604: u8 [a3 + 13] = 0\n 38607: u8 [a3 + 12] = 0\n 38610: u8 [a3 + 11] = 0\n 38613: u8 [a3 + 10] = 0\n 38616: u8 [a3 + 9] = 0\n 38619: u8 [a3 + 8] = 0\n 38622: u8 [a3 + 7] = 0\n 38625: u8 [a3 + 6] = 0\n 38628: u8 [a3 + 5] = 0\n 38631: u8 [a3 + 4] = 0\n 38634: u8 [a3 + 3] = 0xa0\n 38639: u8 [a3 + 2] = 0x79\n 38643: u8 [a3 + 1] = 0xc3\n 38648: a4 = a4 | t1\n 38651: a2 = 0xfffffffc\n 38661: a2 = a0 <u a2\n 38664: a2 = 0 if t0 != 0\n 38666: a2 = 0 if a4 != 0\n 38668: u8 [a3 + 0] = 0x8\n 38671: jump @1007 if a2 != 0\n      : @1006 (gas: 1)\n 38674: jump @660\n      : @1007 (gas: 1)\n 38677: jump @1009 if t2 <u 65532\n      : @1008 (gas: 1)\n 38683: jump @660\n      : @1009 (gas: 4)\n 38686: a2 = a0 + 0x43\n 38689: a3 = u64 [s1 + 0x1f0]\n 38693: a3 = a3 & a2\n 38696: jump @1011 if a3 <=u 65536\n      : @1010 (gas: 1)\n 38702: jump @660\n      : @1011 (gas: 3)\n 38705: i32 a2 = a1 + 0\n 38707: i32 a5 = a0 + 0x4\n 38710: jump @1013 if a2 >=u a3\n      : @1012 (gas: 4)\n 38713: a1 = u64 [s1 + 0x238]\n 38717: u32 [a1] = a3\n 38719: a1 = a3\n 38721: fallthrough\n      : @1013 (gas: 39)\n 38722: a3 = u64 [s1 + 0x230]\n 38726: a3 = a3 + a5\n 38729: u8 [a3 + 31] = 0x20\n 38733: u8 [a3 + 30] = 0\n 38736: u8 [a3 + 29] = 0\n 38739: u8 [a3 + 28] = 0\n 38742: u8 [a3 + 27] = 0\n 38745: u8 [a3 + 26] = 0\n 38748: u8 [a3 + 25] = 0\n 38751: u8 [a3 + 24] = 0\n 38754: u8 [a3 + 23] = 0\n 38757: u8 [a3 + 22] = 0\n 38760: u8 [a3 + 21] = 0\n 38763: u8 [a3 + 20] = 0\n 38766: u8 [a3 + 19] = 0\n 38769: u8 [a3 + 18] = 0\n 38772: u8 [a3 + 17] = 0\n 38775: u8 [a3 + 16] = 0\n 38778: u8 [a3 + 15] = 0\n 38781: u8 [a3 + 14] = 0\n 38784: u8 [a3 + 13] = 0\n 38787: u8 [a3 + 12] = 0\n 38790: u8 [a3 + 11] = 0\n 38793: u8 [a3 + 10] = 0\n 38796: u8 [a3 + 9] = 0\n 38799: u8 [a3 + 8] = 0\n 38802: u8 [a3 + 7] = 0\n 38805: u8 [a3 + 6] = 0\n 38808: u8 [a3 + 5] = 0\n 38811: u8 [a3 + 4] = 0\n 38814: u8 [a3 + 3] = 0\n 38817: u8 [a3 + 2] = 0\n 38820: u8 [a3 + 1] = 0\n 38823: a2 = 0xffffffdc\n 38833: a2 = a0 <u a2\n 38836: a2 = 0 if t0 != 0\n 38838: a2 = 0 if a4 != 0\n 38840: u8 [a3 + 0] = 0\n 38842: jump @1015 if a2 != 0\n      : @1014 (gas: 1)\n 38845: jump @660\n      : @1015 (gas: 1)\n 38848: jump @1017 if t2 <u 65500\n      : @1016 (gas: 1)\n 38854: jump @660\n      : @1017 (gas: 4)\n 38857: a2 = a0 + 0x63\n 38860: a3 = u64 [s1 + 0x1f0]\n 38864: a3 = a3 & a2\n 38867: jump @1019 if a3 <=u 65536\n      : @1018 (gas: 1)\n 38873: jump @660\n      : @1019 (gas: 3)\n 38876: i32 a2 = a1 + 0\n 38878: i32 a5 = a0 + 0x24\n 38881: jump @1021 if a2 >=u a3\n      : @1020 (gas: 4)\n 38884: a1 = u64 [s1 + 0x238]\n 38888: u32 [a1] = a3\n 38890: a1 = a3\n 38892: fallthrough\n      : @1021 (gas: 39)\n 38893: a3 = u64 [s1 + 0x230]\n 38897: a3 = a3 + a5\n 38900: u8 [a3 + 31] = 0xd\n 38904: u8 [a3 + 30] = 0\n 38907: u8 [a3 + 29] = 0\n 38910: u8 [a3 + 28] = 0\n 38913: u8 [a3 + 27] = 0\n 38916: u8 [a3 + 26] = 0\n 38919: u8 [a3 + 25] = 0\n 38922: u8 [a3 + 24] = 0\n 38925: u8 [a3 + 23] = 0\n 38928: u8 [a3 + 22] = 0\n 38931: u8 [a3 + 21] = 0\n 38934: u8 [a3 + 20] = 0\n 38937: u8 [a3 + 19] = 0\n 38940: u8 [a3 + 18] = 0\n 38943: u8 [a3 + 17] = 0\n 38946: u8 [a3 + 16] = 0\n 38949: u8 [a3 + 15] = 0\n 38952: u8 [a3 + 14] = 0\n 38955: u8 [a3 + 13] = 0\n 38958: u8 [a3 + 12] = 0\n 38961: u8 [a3 + 11] = 0\n 38964: u8 [a3 + 10] = 0\n 38967: u8 [a3 + 9] = 0\n 38970: u8 [a3 + 8] = 0\n 38973: u8 [a3 + 7] = 0\n 38976: u8 [a3 + 6] = 0\n 38979: u8 [a3 + 5] = 0\n 38982: u8 [a3 + 4] = 0\n 38985: u8 [a3 + 3] = 0\n 38988: u8 [a3 + 2] = 0\n 38991: u8 [a3 + 1] = 0\n 38994: a2 = 0xffffffbc\n 39004: a2 = a0 <u a2\n 39007: a2 = 0 if t0 != 0\n 39009: a2 = 0 if a4 != 0\n 39011: u8 [a3 + 0] = 0\n 39013: jump @1023 if a2 != 0\n      : @1022 (gas: 1)\n 39016: jump @660\n      : @1023 (gas: 1)\n 39019: jump @1025 if t2 <u 65468\n      : @1024 (gas: 1)\n 39025: jump @660\n      : @1025 (gas: 4)\n 39028: a2 = a0 + 0x83\n 39032: a4 = u64 [s1 + 0x1f0]\n 39036: a2 = a2 & a4\n 39039: jump @1027 if a2 <=u 65536\n      : @1026 (gas: 1)\n 39045: jump @660\n      : @1027 (gas: 2)\n 39048: i32 a1 = a1 + 0\n 39050: jump @1029 if a1 >=u a2\n      : @1028 (gas: 3)\n 39053: a1 = u64 [s1 + 0x238]\n 39057: u32 [a1] = a2\n 39059: fallthrough\n      : @1029 (gas: 36)\n 39060: i32 a1 = a0 + 0x44\n 39063: a2 = u64 [s1 + 0x230]\n 39067: a1 = a1 + a2\n 39070: u8 [a1 + 31] = 0\n 39073: u8 [a1 + 30] = 0\n 39076: u8 [a1 + 29] = 0\n 39079: u8 [a1 + 28] = 0\n 39082: u8 [a1 + 27] = 0\n 39085: u8 [a1 + 26] = 0\n 39088: u8 [a1 + 25] = 0\n 39091: u8 [a1 + 24] = 0\n 39094: u8 [a1 + 23] = 0\n 39097: u8 [a1 + 22] = 0\n 39100: u8 [a1 + 21] = 0\n 39103: u8 [a1 + 20] = 0\n 39106: u8 [a1 + 19] = 0\n 39109: u8 [a1 + 18] = 0\n 39112: u8 [a1 + 17] = 0\n 39115: u8 [a1 + 16] = 0\n 39118: u8 [a1 + 15] = 0\n 39121: u8 [a1 + 14] = 0\n 39124: u8 [a1 + 13] = 0\n 39127: u8 [a1 + 12] = 0x66\n 39131: u8 [a1 + 11] = 0x6f\n 39135: u8 [a1 + 10] = 0x6f\n 39139: u8 [a1 + 9] = 0x72\n 39143: u8 [a1 + 8] = 0x70\n 39147: u8 [a1 + 7] = 0x2d\n 39151: u8 [a1 + 6] = 0x64\n 39155: a2 = 0x69\n 39158: u8 [a1 + 0x5] = a2\n 39161: u8 [a1 + 4] = 0x6c\n 39165: u8 [a1 + 3] = 0x61\n 39169: u8 [a1 + 2] = 0x76\n 39173: u8 [a1 + 1] = 0x6e\n 39177: jump @989\n      : @1030 (gas: 6)\n 39180: a3 = a3 | a2\n 39183: a3 = a3 >> 0x20\n 39186: a1 = a1 | a2\n 39189: a1 = a1 << 0x20\n 39192: a1 = a1 | a3\n 39195: jump @1032 if a1 == 0\n      : @1031 (gas: 1)\n 39198: jump @660\n      : @1032 (gas: 1)\n 39201: jump @1034 if a0 == 0\n      : @1033 (gas: 1)\n 39204: jump @660\n      : @1034 (gas: 5)\n 39207: a0 = u64 [s1 + 0x228]\n 39211: a0 = a0 + 0x3f\n 39214: a1 = u64 [s1 + 0x1f0]\n 39218: a0 = a0 & a1\n 39221: jump @1036 if a0 <=u 65536\n      : @1035 (gas: 1)\n 39227: jump @660\n      : @1036 (gas: 3)\n 39230: a1 = u64 [s1 + 0x238]\n 39234: t1 = i32 [a1]\n 39236: jump @1038 if t1 >=u a0\n      : @1037 (gas: 4)\n 39239: a1 = u64 [s1 + 0x238]\n 39243: u32 [a1] = a0\n 39245: t1 = a0\n 39247: fallthrough\n      : @1038 (gas: 103)\n 39248: a0 = i32 [s1 + 0x228]\n 39252: a1 = u64 [s1 + 0x230]\n 39256: a0 = a0 + a1\n 39259: a2 = u8 [a0 + 0x11]\n 39262: a3 = u8 [a0 + 0x10]\n 39265: a4 = u8 [a0 + 0x12]\n 39268: a5 = u8 [a0 + 0x13]\n 39271: a2 = a2 << 0x8\n 39274: a2 = a2 | a3\n 39277: a4 = a4 << 0x10\n 39280: a5 = a5 << 0x18\n 39283: a4 = a4 | a5\n 39286: a2 = a2 | a4\n 39289: a3 = u8 [a0 + 0x15]\n 39292: a4 = u8 [a0 + 0x14]\n 39295: a5 = u8 [a0 + 0x16]\n 39298: a1 = u8 [a0 + 0x17]\n 39301: a3 = a3 << 0x8\n 39304: a3 = a3 | a4\n 39307: a5 = a5 << 0x10\n 39310: a1 = a1 << 0x18\n 39313: a1 = a1 | a5\n 39316: a1 = a1 | a3\n 39319: a1 = a1 << 0x20\n 39322: t0 = a1 | a2\n 39325: a1 = u8 [a0 + 0x1]\n 39328: a3 = u8 [a0]\n 39330: a4 = u8 [a0 + 0x2]\n 39333: a5 = u8 [a0 + 0x3]\n 39336: a1 = a1 << 0x8\n 39339: a1 = a1 | a3\n 39342: a4 = a4 << 0x10\n 39345: a5 = a5 << 0x18\n 39348: a4 = a4 | a5\n 39351: a1 = a1 | a4\n 39354: a3 = u8 [a0 + 0x5]\n 39357: a4 = u8 [a0 + 0x4]\n 39360: a5 = u8 [a0 + 0x6]\n 39363: a2 = u8 [a0 + 0x7]\n 39366: a3 = a3 << 0x8\n 39369: a3 = a3 | a4\n 39372: a5 = a5 << 0x10\n 39375: a2 = a2 << 0x18\n 39378: a2 = a2 | a5\n 39381: a2 = a2 | a3\n 39384: a2 = a2 << 0x20\n 39387: t2 = a2 | a1\n 39390: a1 = u8 [a0 + 0x19]\n 39393: a2 = u8 [a0 + 0x18]\n 39396: a4 = u8 [a0 + 0x1a]\n 39399: a5 = u8 [a0 + 0x1b]\n 39402: a1 = a1 << 0x8\n 39405: a1 = a1 | a2\n 39408: a4 = a4 << 0x10\n 39411: a5 = a5 << 0x18\n 39414: a4 = a4 | a5\n 39417: a1 = a1 | a4\n 39420: a2 = u8 [a0 + 0x1d]\n 39423: a4 = u8 [a0 + 0x1c]\n 39426: a5 = u8 [a0 + 0x1e]\n 39429: a3 = u8 [a0 + 0x1f]\n 39432: a2 = a2 << 0x8\n 39435: a2 = a2 | a4\n 39438: a5 = a5 << 0x10\n 39441: a3 = a3 << 0x18\n 39444: a3 = a3 | a5\n 39447: a2 = a2 | a3\n 39450: a2 = a2 << 0x20\n 39453: a5 = a2 | a1\n 39456: a1 = u8 [a0 + 0x9]\n 39459: a2 = u8 [a0 + 0x8]\n 39462: a3 = u8 [a0 + 0xa]\n 39465: a4 = u8 [a0 + 0xb]\n 39468: a1 = a1 << 0x8\n 39471: a1 = a1 | a2\n 39474: a3 = a3 << 0x10\n 39477: a4 = a4 << 0x18\n 39480: a3 = a3 | a4\n 39483: a1 = a1 | a3\n 39486: a2 = u8 [a0 + 0xd]\n 39489: a3 = u8 [a0 + 0xc]\n 39492: a4 = u8 [a0 + 0xe]\n 39495: a0 = u8 [a0 + 0xf]\n 39498: a2 = a2 << 0x8\n 39501: a2 = a2 | a3\n 39504: a4 = a4 << 0x10\n 39507: a0 = a0 << 0x18\n 39510: a0 = a0 | a4\n 39513: a0 = a0 | a2\n 39516: a0 = a0 << 0x20\n 39519: a0 = a0 | a1\n 39522: a4 = reverse a0\n 39524: a0 = reverse a5\n 39526: a5 = reverse t2\n 39528: t0 = reverse t0\n 39530: a1 = t0 | a5\n 39533: a2 = a0 | a4\n 39536: a2 = a2 | a1\n 39539: a2 = a2 >> 0x20\n 39542: a1 = a1 | a4\n 39545: a1 = a1 << 0x20\n 39548: a1 = a1 | a2\n 39551: jump @1040 if a1 == 0\n      : @1039 (gas: 1)\n 39554: jump @660\n      : @1040 (gas: 2)\n 39557: i32 a1 = a0 >> 0x10\n 39560: jump @1042 if a1 == 0\n      : @1041 (gas: 1)\n 39563: jump @660\n      : @1042 (gas: 4)\n 39566: a1 = a0 + 0x3f\n 39569: a2 = u64 [s1 + 0x1f0]\n 39573: a2 = a2 & a1\n 39576: jump @1044 if a2 <=u 65536\n      : @1043 (gas: 1)\n 39582: jump @660\n      : @1044 (gas: 1)\n 39585: jump @1046 if t1 >=u a2\n      : @1045 (gas: 4)\n 39588: a1 = u64 [s1 + 0x238]\n 39592: u32 [a1] = a2\n 39594: t1 = a2\n 39596: fallthrough\n      : @1046 (gas: 41)\n 39597: i32 a2 = a0 + 0\n 39599: a3 = u64 [s1 + 0x230]\n 39603: a3 = a3 + a2\n 39606: u8 [a3 + 31] = 0\n 39609: u8 [a3 + 30] = 0\n 39612: u8 [a3 + 29] = 0\n 39615: u8 [a3 + 28] = 0\n 39618: u8 [a3 + 27] = 0\n 39621: u8 [a3 + 26] = 0\n 39624: u8 [a3 + 25] = 0\n 39627: u8 [a3 + 24] = 0\n 39630: u8 [a3 + 23] = 0\n 39633: u8 [a3 + 22] = 0\n 39636: u8 [a3 + 21] = 0\n 39639: u8 [a3 + 20] = 0\n 39642: u8 [a3 + 19] = 0\n 39645: u8 [a3 + 18] = 0\n 39648: u8 [a3 + 17] = 0\n 39651: u8 [a3 + 16] = 0\n 39654: u8 [a3 + 15] = 0\n 39657: u8 [a3 + 14] = 0\n 39660: u8 [a3 + 13] = 0\n 39663: u8 [a3 + 12] = 0\n 39666: u8 [a3 + 11] = 0\n 39669: u8 [a3 + 10] = 0\n 39672: u8 [a3 + 9] = 0\n 39675: u8 [a3 + 8] = 0\n 39678: u8 [a3 + 7] = 0\n 39681: u8 [a3 + 6] = 0\n 39684: u8 [a3 + 5] = 0\n 39687: u8 [a3 + 4] = 0\n 39690: u8 [a3 + 3] = 0xa0\n 39695: u8 [a3 + 2] = 0x79\n 39699: u8 [a3 + 1] = 0xc3\n 39704: a4 = a4 | a5\n 39707: a5 = 0xfffffffc\n 39717: a5 = a0 <u a5\n 39720: a5 = 0 if t0 != 0\n 39722: a5 = 0 if a4 != 0\n 39724: u8 [a3 + 0] = 0x8\n 39727: jump @1048 if a5 != 0\n      : @1047 (gas: 1)\n 39730: jump @660\n      : @1048 (gas: 1)\n 39733: jump @1050 if a2 <u 65532\n      : @1049 (gas: 1)\n 39739: jump @660\n      : @1050 (gas: 4)\n 39742: a1 = a0 + 0x43\n 39745: a3 = u64 [s1 + 0x1f0]\n 39749: a3 = a3 & a1\n 39752: jump @1052 if a3 <=u 65536\n      : @1051 (gas: 1)\n 39758: jump @660\n      : @1052 (gas: 2)\n 39761: i32 a5 = a0 + 0x4\n 39764: jump @1054 if t1 >=u a3\n      : @1053 (gas: 4)\n 39767: a1 = u64 [s1 + 0x238]\n 39771: u32 [a1] = a3\n 39773: t1 = a3\n 39775: fallthrough\n      : @1054 (gas: 39)\n 39776: a3 = u64 [s1 + 0x230]\n 39780: a3 = a3 + a5\n 39783: u8 [a3 + 31] = 0x20\n 39787: u8 [a3 + 30] = 0\n 39790: u8 [a3 + 29] = 0\n 39793: u8 [a3 + 28] = 0\n 39796: u8 [a3 + 27] = 0\n 39799: u8 [a3 + 26] = 0\n 39802: u8 [a3 + 25] = 0\n 39805: u8 [a3 + 24] = 0\n 39808: u8 [a3 + 23] = 0\n 39811: u8 [a3 + 22] = 0\n 39814: u8 [a3 + 21] = 0\n 39817: u8 [a3 + 20] = 0\n 39820: u8 [a3 + 19] = 0\n 39823: u8 [a3 + 18] = 0\n 39826: u8 [a3 + 17] = 0\n 39829: u8 [a3 + 16] = 0\n 39832: u8 [a3 + 15] = 0\n 39835: u8 [a3 + 14] = 0\n 39838: u8 [a3 + 13] = 0\n 39841: u8 [a3 + 12] = 0\n 39844: u8 [a3 + 11] = 0\n 39847: u8 [a3 + 10] = 0\n 39850: u8 [a3 + 9] = 0\n 39853: u8 [a3 + 8] = 0\n 39856: u8 [a3 + 7] = 0\n 39859: u8 [a3 + 6] = 0\n 39862: u8 [a3 + 5] = 0\n 39865: u8 [a3 + 4] = 0\n 39868: u8 [a3 + 3] = 0\n 39871: u8 [a3 + 2] = 0\n 39874: u8 [a3 + 1] = 0\n 39877: a1 = 0xffffffdc\n 39887: a1 = a0 <u a1\n 39890: a1 = 0 if t0 != 0\n 39892: a1 = 0 if a4 != 0\n 39894: u8 [a3 + 0] = 0\n 39896: jump @1056 if a1 != 0\n      : @1055 (gas: 1)\n 39899: jump @660\n      : @1056 (gas: 1)\n 39902: jump @1058 if a2 <u 65500\n      : @1057 (gas: 1)\n 39908: jump @660\n      : @1058 (gas: 4)\n 39911: a1 = a0 + 0x63\n 39914: a3 = u64 [s1 + 0x1f0]\n 39918: a3 = a3 & a1\n 39921: jump @1060 if a3 <=u 65536\n      : @1059 (gas: 1)\n 39927: jump @660\n      : @1060 (gas: 2)\n 39930: i32 a5 = a0 + 0x24\n 39933: jump @1062 if t1 >=u a3\n      : @1061 (gas: 4)\n 39936: a1 = u64 [s1 + 0x238]\n 39940: u32 [a1] = a3\n 39942: t1 = a3\n 39944: fallthrough\n      : @1062 (gas: 39)\n 39945: a3 = u64 [s1 + 0x230]\n 39949: a3 = a3 + a5\n 39952: u8 [a3 + 31] = 0xe\n 39956: u8 [a3 + 30] = 0\n 39959: u8 [a3 + 29] = 0\n 39962: u8 [a3 + 28] = 0\n 39965: u8 [a3 + 27] = 0\n 39968: u8 [a3 + 26] = 0\n 39971: u8 [a3 + 25] = 0\n 39974: u8 [a3 + 24] = 0\n 39977: u8 [a3 + 23] = 0\n 39980: u8 [a3 + 22] = 0\n 39983: u8 [a3 + 21] = 0\n 39986: u8 [a3 + 20] = 0\n 39989: u8 [a3 + 19] = 0\n 39992: u8 [a3 + 18] = 0\n 39995: u8 [a3 + 17] = 0\n 39998: u8 [a3 + 16] = 0\n 40001: u8 [a3 + 15] = 0\n 40004: u8 [a3 + 14] = 0\n 40007: u8 [a3 + 13] = 0\n 40010: u8 [a3 + 12] = 0\n 40013: u8 [a3 + 11] = 0\n 40016: u8 [a3 + 10] = 0\n 40019: u8 [a3 + 9] = 0\n 40022: u8 [a3 + 8] = 0\n 40025: u8 [a3 + 7] = 0\n 40028: u8 [a3 + 6] = 0\n 40031: u8 [a3 + 5] = 0\n 40034: u8 [a3 + 4] = 0\n 40037: u8 [a3 + 3] = 0\n 40040: u8 [a3 + 2] = 0\n 40043: u8 [a3 + 1] = 0\n 40046: a1 = 0xffffffbc\n 40056: a1 = a0 <u a1\n 40059: a1 = 0 if t0 != 0\n 40061: a1 = 0 if a4 != 0\n 40063: u8 [a3 + 0] = 0\n 40065: jump @1064 if a1 != 0\n      : @1063 (gas: 1)\n 40068: jump @660\n      : @1064 (gas: 1)\n 40071: jump @1066 if a2 <u 65468\n      : @1065 (gas: 1)\n 40077: jump @660\n      : @1066 (gas: 4)\n 40080: a1 = a0 + 0x83\n 40084: a2 = u64 [s1 + 0x1f0]\n 40088: a2 = a2 & a1\n 40091: jump @1068 if a2 <=u 65536\n      : @1067 (gas: 1)\n 40097: jump @660\n      : @1068 (gas: 1)\n 40100: jump @1070 if t1 >=u a2\n      : @1069 (gas: 3)\n 40103: a1 = u64 [s1 + 0x238]\n 40107: u32 [a1] = a2\n 40109: fallthrough\n      : @1070 (gas: 37)\n 40110: i32 a1 = a0 + 0x44\n 40113: a2 = u64 [s1 + 0x230]\n 40117: a1 = a1 + a2\n 40120: u8 [a1 + 31] = 0\n 40123: u8 [a1 + 30] = 0\n 40126: u8 [a1 + 29] = 0\n 40129: u8 [a1 + 28] = 0\n 40132: u8 [a1 + 27] = 0\n 40135: u8 [a1 + 26] = 0\n 40138: u8 [a1 + 25] = 0\n 40141: u8 [a1 + 24] = 0\n 40144: u8 [a1 + 23] = 0\n 40147: u8 [a1 + 22] = 0\n 40150: u8 [a1 + 21] = 0\n 40153: u8 [a1 + 20] = 0\n 40156: u8 [a1 + 19] = 0\n 40159: u8 [a1 + 18] = 0\n 40162: u8 [a1 + 17] = 0\n 40165: u8 [a1 + 16] = 0\n 40168: u8 [a1 + 15] = 0\n 40171: u8 [a1 + 14] = 0\n 40174: u8 [a1 + 13] = 0x64\n 40178: u8 [a1 + 12] = 0x65\n 40182: u8 [a1 + 11] = 0x6c\n 40186: u8 [a1 + 10] = 0x69\n 40190: u8 [a1 + 9] = 0x61\n 40194: u8 [a1 + 8] = 0x66\n 40198: u8 [a1 + 7] = 0x2d\n 40202: u8 [a1 + 6] = 0x74\n 40206: a4 = 0x6e\n 40209: u8 [a1 + 0x5] = a4\n 40212: u8 [a1 + 4] = 0x65\n 40216: u8 [a1 + 3] = 0x6d\n 40220: u8 [a1 + 2] = 0x79\n 40224: u8 [a1 + 1] = 0x61\n 40228: a2 = 0x70\n 40231: jump @989\n      : @1071 (gas: 45)\n 40234: sp = sp + 0xffffffffffffffe0\n 40237: u64 [sp + 0x18] = ra\n 40240: u64 [sp + 0x10] = s0\n 40243: u64 [sp + 0x8] = s1\n 40246: a3 = u64 [a0 + 0x18]\n 40249: ra = u64 [a0 + 0x10]\n 40252: t0 = u64 [a0 + 0x8]\n 40255: a5 = u64 [a0]\n 40257: a0 = u64 [a1]\n 40259: t1 = u64 [a1 + 0x18]\n 40262: a4 = u64 [a1 + 0x8]\n 40265: a1 = u64 [a1 + 0x10]\n 40268: s0 = a0 + 0x1f\n 40271: a0 = s0 <u a0\n 40274: s1 = a4 + a0\n 40277: a4 = s1 <u a4\n 40280: a4 = a0 if a0 == 0\n 40283: a0 = a1 + a4\n 40286: a2 = a0 <u a1\n 40289: s0 = s0 & 0xffffffffffffffe0\n 40292: t2 = s0 + a5\n 40295: a4 = t2 <u s0\n 40298: a1 = s1 + t0\n 40301: a1 = a1 + a4\n 40304: s0 = a1 ^ s1\n 40307: s1 = a1 <u s1\n 40310: s1 = a4 if s0 == 0\n 40313: s0 = a0 + ra\n 40316: a4 = s0 + s1\n 40319: s1 = a4 <u s0\n 40322: a0 = s0 <u a0\n 40325: t1 = t1 + a3\n 40328: a2 = a2 + t1\n 40331: a0 = a0 + a2\n 40334: a0 = a0 + s1\n 40337: a2 = a0 >u 0\n 40339: t1 = 0x2004c\n 40344: s1 = a4 >u 0\n 40346: s1 = a2 if a0 != 0\n 40349: a2 = a4 | a0\n 40352: s0 = i32 [0x2004c]\n 40357: u64 [sp] = s0\n 40359: s0 = a1 >u 0\n 40361: s0 = s1 if a2 != 0\n 40364: jump @1076 if s0 != 0\n      : @1072 (gas: 12)\n 40367: a2 = t2 <u a5\n 40370: a5 = a1 ^ t0\n 40373: s1 = a1 <u t0\n 40376: s1 = a2 if a5 == 0\n 40379: a2 = a4 <u ra\n 40382: a5 = a0 ^ a3\n 40385: a3 = a0 <u a3\n 40388: a3 = a2 if a5 == 0\n 40391: a2 = a4 ^ ra\n 40394: a2 = a2 | a5\n 40397: a3 = s1 if a2 == 0\n 40400: jump @1076 if a3 != 0\n      : @1073 (gas: 2)\n 40403: a3 = u64 [sp]\n 40405: jump @1075 if a3 >u 95\n      : @1074 (gas: 2)\n 40409: u32 [0x2004c] = 0x60\n 40415: fallthrough\n      : @1075 (gas: 14)\n 40416: a0 = reverse a0\n 40418: a2 = 0x20060\n 40423: a3 = reverse a4\n 40425: a1 = reverse a1\n 40427: a4 = reverse t2\n 40429: u64 [0x200b8] = a4\n 40434: u64 [0x200b0] = a1\n 40439: u64 [0x200a8] = a3\n 40444: u64 [0x200a0] = a0\n 40449: ra = u64 [sp + 0x18]\n 40452: s0 = u64 [sp + 0x10]\n 40455: s1 = u64 [sp + 0x8]\n 40458: sp = sp + 0x20\n 40461: ret\n      : @1076 (gas: 7)\n 40463: a1 = 0x20060\n 40468: u64 [0x20078] = 0\n 40473: u64 [0x20070] = 0\n 40478: u64 [0x20060] = 0x717b484e\n 40487: u64 [0x20068] = 0\n 40492: a2 = u64 [sp]\n 40494: jump @1078 if a2 >u 63\n      : @1077 (gas: 2)\n 40498: u32 [0x2004c] = 0x40\n 40504: fallthrough\n      : @1078 (gas: 14)\n 40505: u32 [0x20080] = 0x41000000\n 40514: u32 [0x2007c] = 0\n 40519: u32 [0x20078] = 0\n 40524: u32 [0x20074] = 0\n 40529: u32 [0x20070] = 0\n 40534: u32 [0x2006c] = 0\n 40539: u32 [0x20068] = 0\n 40544: u32 [0x20064] = 0\n 40549: i32 a1 = a1 + 0\n 40551: a0 = 0x1\n 40554: a2 = 0x24\n 40557: ra = 0x5c\n 40560: ecalli 11 // 'seal_return'\n 40562: fallthrough\n      : @1079 [@dyn 46] (gas: 18)\n 40563: sp = sp + 0xffffffffffffffe8\n 40566: u64 [sp + 0x10] = ra\n 40569: u64 [sp + 0x8] = s0\n 40572: u64 [sp] = s1\n 40574: a5 = u64 [a2 + 0x18]\n 40577: s0 = u64 [a2 + 0x10]\n 40580: t1 = u64 [a2]\n 40582: t2 = u64 [a2 + 0x8]\n 40585: t0 = a5 >u 0\n 40587: a3 = s0 >u 0\n 40589: a3 = t0 if a5 != 0\n 40592: t0 = t2 >u 0\n 40594: a2 = t1 <u 0xa\n 40597: a2 = a2 ^ 0x1\n 40600: a2 = t0 if t2 != 0\n 40603: a4 = s0 | a5\n 40606: a2 = a3 if a4 != 0\n 40609: jump @1081 if a2 != 0\n      : @1080 (gas: 37)\n 40612: t0 = u64 [a1 + 0x18]\n 40615: ra = u64 [a1 + 0x10]\n 40618: a3 = u64 [a1 + 0x8]\n 40621: a1 = u64 [a1]\n 40623: a4 = s0 >> 0x3b\n 40626: a5 = a5 << 0x5\n 40629: a4 = a4 | a5\n 40632: a5 = t2 >> 0x3b\n 40635: s0 = s0 << 0x5\n 40638: a5 = a5 | s0\n 40641: s0 = t1 >> 0x3b\n 40644: t2 = t2 << 0x5\n 40647: s0 = t2 | s0\n 40650: t1 = t1 << 0x5\n 40653: a1 = a1 + t1\n 40656: a2 = a1 <u t1\n 40659: a3 = a3 + s0\n 40662: a3 = a3 + a2\n 40665: s1 = a3 ^ s0\n 40668: s0 = a3 <u s0\n 40671: s0 = a2 if s1 == 0\n 40674: ra = ra + a5\n 40677: s0 = s0 + ra\n 40680: a2 = s0 <u ra\n 40683: a5 = ra <u a5\n 40686: a4 = a4 + t0\n 40689: a4 = a4 + a5\n 40692: a2 = a2 + a4\n 40695: u64 [a0] = a1\n 40697: u64 [a0 + 0x8] = a3\n 40700: u64 [a0 + 0x10] = s0\n 40703: u64 [a0 + 0x18] = a2\n 40706: ra = u64 [sp + 0x10]\n 40709: s0 = u64 [sp + 0x8]\n 40712: s1 = u64 [sp]\n 40714: sp = sp + 0x18\n 40717: ret\n      : @1081 (gas: 7)\n 40719: a1 = 0x20060\n 40724: a2 = i32 [0x2004c]\n 40729: u64 [0x20078] = 0\n 40734: u64 [0x20070] = 0\n 40739: u64 [0x20060] = 0x717b484e\n 40748: u64 [0x20068] = 0\n 40753: jump @1083 if a2 >u 63\n      : @1082 (gas: 2)\n 40757: u32 [0x2004c] = 0x40\n 40763: fallthrough\n      : @1083 (gas: 14)\n 40764: u32 [0x20080] = 0x32000000\n 40773: u32 [0x2007c] = 0\n 40778: u32 [0x20078] = 0\n 40783: u32 [0x20074] = 0\n 40788: u32 [0x20070] = 0\n 40793: u32 [0x2006c] = 0\n 40798: u32 [0x20068] = 0\n 40803: u32 [0x20064] = 0\n 40808: i32 a1 = a1 + 0\n 40810: a0 = 0x1\n 40813: a2 = 0x24\n 40816: ra = 0x5e\n 40819: ecalli 11 // 'seal_return'\n 40821: fallthrough\n      : @1084 [@dyn 47] (gas: 16)\n 40822: sp = sp + 0xffffffffffffff80\n 40825: u64 [sp + 0x78] = ra\n 40828: u64 [sp + 0x70] = s0\n 40831: u64 [sp + 0x68] = s1\n 40834: t0 = u64 [a0 + 0x10]\n 40837: ra = u64 [a0 + 0x18]\n 40840: a2 = u64 [a0 + 0x8]\n 40843: a4 = u64 [a0]\n 40845: a0 = a2 | ra\n 40848: a3 = a4 | t0\n 40851: a3 = a3 | a0\n 40854: a3 = a3 >> 0x20\n 40857: a0 = a0 | t0\n 40860: a0 = a0 << 0x20\n 40863: a0 = a0 | a3\n 40866: jump @1105 if a0 != 0\n      : @1085 (gas: 2)\n 40870: i32 a0 = a4 >> 0x10\n 40873: jump @1105 if a0 != 0\n      : @1086 (gas: 3)\n 40877: a0 = a4 + 0x3f\n 40880: a5 = a0 & 0x1ffe0\n 40885: jump @1105 if a5 >u 65536\n      : @1087 (gas: 9)\n 40892: u64 [sp + 0x60] = a4\n 40895: u64 [sp + 0x38] = a2\n 40898: a0 = 0x2004c\n 40903: a3 = u64 [a1 + 0x18]\n 40906: s1 = u64 [a1 + 0x10]\n 40909: a2 = u64 [a1 + 0x8]\n 40912: a4 = i32 [0x2004c]\n 40917: a1 = u64 [a1]\n 40919: jump @1089 if a4 >=u a5\n      : @1088 (gas: 3)\n 40922: u32 [0x2004c] = a5\n 40927: a4 = a5\n 40929: fallthrough\n      : @1089 (gas: 8)\n 40930: a5 = a1 | s1\n 40933: s0 = a2 | a3\n 40936: a5 = a5 | s0\n 40939: a5 = a5 >> 0x20\n 40942: s0 = s0 | s1\n 40945: s0 = s0 << 0x20\n 40948: a5 = a5 | s0\n 40951: jump @1105 if a5 != 0\n      : @1090 (gas: 7)\n 40955: u64 [sp + 0x28] = ra\n 40958: u64 [sp + 0x8] = a2\n 40961: u64 [sp + 0x30] = t0\n 40964: u64 [sp + 0x10] = s1\n 40967: u64 [sp + 0x18] = a3\n 40970: i32 a5 = a1 >> 0x10\n 40973: jump @1105 if a5 != 0\n      : @1091 (gas: 3)\n 40977: a5 = a1 + 0x3f\n 40980: t2 = a5 & 0x1ffe0\n 40985: jump @1105 if t2 >u 65536\n      : @1092 (gas: 97)\n 40992: u64 [sp + 32] = 0x1ffe0\n 40998: u64 [sp + 0x50] = a1\n 41001: u64 [sp + 0x48] = a0\n 41004: a0 = 0x20060\n 41009: s0 = i32 [sp + 0x60]\n 41012: u64 [sp + 0x58] = a0\n 41015: s0 = s0 + a0\n 41018: a5 = u8 [s0 + 0x19]\n 41021: a0 = u8 [s0 + 0x18]\n 41024: a3 = u8 [s0 + 0x1a]\n 41027: a2 = u8 [s0 + 0x1b]\n 41030: a5 = a5 << 0x8\n 41033: a0 = a0 | a5\n 41036: a3 = a3 << 0x10\n 41039: a2 = a2 << 0x18\n 41042: a2 = a2 | a3\n 41045: a0 = a0 | a2\n 41048: a2 = u8 [s0 + 0x1d]\n 41051: a3 = u8 [s0 + 0x1c]\n 41054: a5 = u8 [s0 + 0x1e]\n 41057: s1 = u8 [s0 + 0x1f]\n 41060: a2 = a2 << 0x8\n 41063: a2 = a2 | a3\n 41066: a5 = a5 << 0x10\n 41069: s1 = s1 << 0x18\n 41072: a5 = a5 | s1\n 41075: a2 = a2 | a5\n 41078: a2 = a2 << 0x20\n 41081: t0 = a2 | a0\n 41084: a0 = u8 [s0 + 0x11]\n 41087: a2 = u8 [s0 + 0x10]\n 41090: a3 = u8 [s0 + 0x12]\n 41093: a5 = u8 [s0 + 0x13]\n 41096: a0 = a0 << 0x8\n 41099: a0 = a0 | a2\n 41102: a3 = a3 << 0x10\n 41105: a5 = a5 << 0x18\n 41108: a3 = a3 | a5\n 41111: a0 = a0 | a3\n 41114: a2 = u8 [s0 + 0x15]\n 41117: a3 = u8 [s0 + 0x14]\n 41120: a5 = u8 [s0 + 0x16]\n 41123: s1 = u8 [s0 + 0x17]\n 41126: a2 = a2 << 0x8\n 41129: a2 = a2 | a3\n 41132: a5 = a5 << 0x10\n 41135: s1 = s1 << 0x18\n 41138: a5 = a5 | s1\n 41141: a2 = a2 | a5\n 41144: a2 = a2 << 0x20\n 41147: ra = a2 | a0\n 41150: a0 = u8 [s0 + 0x9]\n 41153: a2 = u8 [s0 + 0x8]\n 41156: a3 = u8 [s0 + 0xa]\n 41159: a5 = u8 [s0 + 0xb]\n 41162: a0 = a0 << 0x8\n 41165: a0 = a0 | a2\n 41168: a3 = a3 << 0x10\n 41171: a5 = a5 << 0x18\n 41174: a3 = a3 | a5\n 41177: a0 = a0 | a3\n 41180: a2 = u8 [s0 + 0xd]\n 41183: a3 = u8 [s0 + 0xc]\n 41186: a5 = u8 [s0 + 0xe]\n 41189: s1 = u8 [s0 + 0xf]\n 41192: a2 = a2 << 0x8\n 41195: a2 = a2 | a3\n 41198: a5 = a5 << 0x10\n 41201: s1 = s1 << 0x18\n 41204: a5 = a5 | s1\n 41207: a2 = a2 | a5\n 41210: a2 = a2 << 0x20\n 41213: t1 = a2 | a0\n 41216: a0 = u8 [s0 + 0x1]\n 41219: a2 = u8 [s0]\n 41221: a3 = u8 [s0 + 0x2]\n 41224: a5 = u8 [s0 + 0x3]\n 41227: a0 = a0 << 0x8\n 41230: a0 = a0 | a2\n 41233: a3 = a3 << 0x10\n 41236: a5 = a5 << 0x18\n 41239: a3 = a3 | a5\n 41242: a0 = a0 | a3\n 41245: a2 = u8 [s0 + 0x5]\n 41248: a3 = u8 [s0 + 0x4]\n 41251: a5 = u8 [s0 + 0x6]\n 41254: s0 = u8 [s0 + 0x7]\n 41257: a2 = a2 << 0x8\n 41260: a2 = a2 | a3\n 41263: a5 = a5 << 0x10\n 41266: s0 = s0 << 0x18\n 41269: a5 = a5 | s0\n 41272: a2 = a2 | a5\n 41275: a2 = a2 << 0x20\n 41278: a5 = a2 | a0\n 41281: u64 [sp + 0x40] = a4\n 41284: jump @1094 if a4 >=u t2\n      : @1093 (gas: 4)\n 41287: a0 = u64 [sp + 0x48]\n 41290: u32 [a0] = t2\n 41292: u64 [sp + 0x40] = t2\n 41295: fallthrough\n      : @1094 (gas: 78)\n 41296: t2 = u64 [sp + 0x50]\n 41299: i32 s0 = t2 + 0\n 41301: a0 = u64 [sp + 0x58]\n 41304: s0 = s0 + a0\n 41307: u8 [s0 + 0x10] = ra\n 41310: a0 = t1 >> 0x38\n 41313: u8 [s0 + 0xf] = a0\n 41316: a0 = t1 >> 0x30\n 41319: u8 [s0 + 0xe] = a0\n 41322: a0 = t1 >> 0x28\n 41325: u8 [s0 + 0xd] = a0\n 41328: a0 = t1 >> 0x20\n 41331: u8 [s0 + 0xc] = a0\n 41334: a0 = t1 >> 0x18\n 41337: u8 [s0 + 0xb] = a0\n 41340: a0 = t1 >> 0x10\n 41343: u8 [s0 + 0xa] = a0\n 41346: a0 = t1 >> 0x8\n 41349: u8 [s0 + 0x9] = a0\n 41352: u8 [s0 + 0x8] = t1\n 41355: a0 = a5 >> 0x38\n 41358: u8 [s0 + 0x7] = a0\n 41361: a0 = a5 >> 0x30\n 41364: u8 [s0 + 0x6] = a0\n 41367: a0 = a5 >> 0x28\n 41370: u8 [s0 + 0x5] = a0\n 41373: a0 = a5 >> 0x20\n 41376: u8 [s0 + 0x4] = a0\n 41379: a0 = a5 >> 0x18\n 41382: u8 [s0 + 0x3] = a0\n 41385: a0 = a5 >> 0x10\n 41388: u8 [s0 + 0x2] = a0\n 41391: a0 = a5 >> 0x8\n 41394: u8 [s0 + 0x1] = a0\n 41397: u8 [s0] = a5\n 41399: u8 [s0 + 0x18] = t0\n 41402: a0 = ra >> 0x38\n 41405: u8 [s0 + 0x17] = a0\n 41408: a0 = ra >> 0x30\n 41411: u8 [s0 + 0x16] = a0\n 41414: a0 = ra >> 0x28\n 41417: u8 [s0 + 0x15] = a0\n 41420: a0 = ra >> 0x20\n 41423: u8 [s0 + 0x14] = a0\n 41426: a0 = ra >> 0x18\n 41429: u8 [s0 + 0x13] = a0\n 41432: a0 = ra >> 0x10\n 41435: u8 [s0 + 0x12] = a0\n 41438: a0 = ra >> 0x8\n 41441: u8 [s0 + 0x11] = a0\n 41444: a0 = t0 >> 0x38\n 41447: u8 [s0 + 0x1f] = a0\n 41450: a0 = t0 >> 0x30\n 41453: u8 [s0 + 0x1e] = a0\n 41456: a0 = t0 >> 0x28\n 41459: u8 [s0 + 0x1d] = a0\n 41462: a0 = t0 >> 0x20\n 41465: u8 [s0 + 0x1c] = a0\n 41468: a0 = t0 >> 0x18\n 41471: u8 [s0 + 0x1b] = a0\n 41474: a0 = t0 >> 0x10\n 41477: u8 [s0 + 0x1a] = a0\n 41480: t0 = t0 >> 0x8\n 41483: a0 = u64 [sp + 0x30]\n 41486: a2 = a0 >u 0\n 41488: a1 = u64 [sp + 0x28]\n 41491: a3 = a1 >u 0\n 41493: a3 = a2 if a1 == 0\n 41496: a2 = 0xffffffdf\n 41506: a4 = u64 [sp + 0x60]\n 41509: a2 = a2 <u a4\n 41512: s1 = u64 [sp + 0x38]\n 41515: a5 = s1 >u 0\n 41517: a5 = a2 if s1 == 0\n 41520: a2 = a0 | a1\n 41523: a5 = a3 if a2 != 0\n 41526: u8 [s0 + 0x19] = t0\n 41529: jump @1105 if a5 != 0\n      : @1095 (gas: 5)\n 41533: i32 a0 = a4 >> 0x5\n 41536: t1 = u64 [sp + 0x48]\n 41539: ra = u64 [sp + 0x40]\n 41542: a1 = u64 [sp + 0x20]\n 41545: jump @1105 if a0 >u 2046\n      : @1096 (gas: 3)\n 41551: a0 = a4 + 0x5f\n 41554: a2 = a0 & a1\n 41557: jump @1105 if a2 >u 65536\n      : @1097 (gas: 1)\n 41564: jump @1099 if ra >=u a2\n      : @1098 (gas: 3)\n 41567: u32 [t1] = a2\n 41569: ra = a2\n 41571: fallthrough\n      : @1099 (gas: 13)\n 41572: a5 = u64 [sp + 0x10]\n 41575: a0 = a5 >u 0\n 41577: a4 = u64 [sp + 0x18]\n 41580: a2 = a4 >u 0\n 41582: a2 = a0 if a4 == 0\n 41585: a0 = 0xffffffdf\n 41595: a0 = a0 <u t2\n 41598: s0 = u64 [sp + 0x8]\n 41601: a3 = s0 >u 0\n 41603: a3 = a0 if s0 == 0\n 41606: a0 = a5 | a4\n 41609: a3 = a2 if a0 != 0\n 41612: jump @1105 if a3 != 0\n      : @1100 (gas: 2)\n 41616: i32 a0 = t2 >> 0x5\n 41619: jump @1105 if a0 >u 2046\n      : @1101 (gas: 3)\n 41625: a0 = t2 + 0x5f\n 41628: t0 = a0 & a1\n 41631: jump @1105 if t0 >u 65536\n      : @1102 (gas: 93)\n 41638: a0 = u64 [sp + 0x60]\n 41641: i32 a4 = a0 + 0x20\n 41644: a0 = u64 [sp + 0x58]\n 41647: a4 = a4 + a0\n 41650: a0 = u8 [a4 + 0x19]\n 41653: a3 = u8 [a4 + 0x18]\n 41656: a5 = u8 [a4 + 0x1a]\n 41659: s1 = u8 [a4 + 0x1b]\n 41662: a0 = a0 << 0x8\n 41665: a0 = a0 | a3\n 41668: a5 = a5 << 0x10\n 41671: s1 = s1 << 0x18\n 41674: a5 = a5 | s1\n 41677: a0 = a0 | a5\n 41680: a3 = u8 [a4 + 0x1d]\n 41683: a5 = u8 [a4 + 0x1c]\n 41686: s1 = u8 [a4 + 0x1e]\n 41689: s0 = u8 [a4 + 0x1f]\n 41692: a3 = a3 << 0x8\n 41695: a3 = a3 | a5\n 41698: s1 = s1 << 0x10\n 41701: s0 = s0 << 0x18\n 41704: s0 = s0 | s1\n 41707: a3 = a3 | s0\n 41710: a3 = a3 << 0x20\n 41713: a0 = a0 | a3\n 41716: a3 = u8 [a4 + 0x11]\n 41719: a5 = u8 [a4 + 0x10]\n 41722: s1 = u8 [a4 + 0x12]\n 41725: s0 = u8 [a4 + 0x13]\n 41728: a3 = a3 << 0x8\n 41731: a3 = a3 | a5\n 41734: s1 = s1 << 0x10\n 41737: s0 = s0 << 0x18\n 41740: s0 = s0 | s1\n 41743: a3 = a3 | s0\n 41746: a5 = u8 [a4 + 0x15]\n 41749: s1 = u8 [a4 + 0x14]\n 41752: s0 = u8 [a4 + 0x16]\n 41755: a1 = u8 [a4 + 0x17]\n 41758: a5 = a5 << 0x8\n 41761: a5 = a5 | s1\n 41764: s0 = s0 << 0x10\n 41767: a1 = a1 << 0x18\n 41770: a1 = a1 | s0\n 41773: a1 = a1 | a5\n 41776: a1 = a1 << 0x20\n 41779: a3 = a3 | a1\n 41782: a1 = u8 [a4 + 0x9]\n 41785: a5 = u8 [a4 + 0x8]\n 41788: s1 = u8 [a4 + 0xa]\n 41791: s0 = u8 [a4 + 0xb]\n 41794: a1 = a1 << 0x8\n 41797: a1 = a1 | a5\n 41800: s1 = s1 << 0x10\n 41803: s0 = s0 << 0x18\n 41806: s0 = s0 | s1\n 41809: a1 = a1 | s0\n 41812: a5 = u8 [a4 + 0xd]\n 41815: s1 = u8 [a4 + 0xc]\n 41818: s0 = u8 [a4 + 0xe]\n 41821: a2 = u8 [a4 + 0xf]\n 41824: a5 = a5 << 0x8\n 41827: a5 = a5 | s1\n 41830: s0 = s0 << 0x10\n 41833: a2 = a2 << 0x18\n 41836: a2 = a2 | s0\n 41839: a2 = a2 | a5\n 41842: a2 = a2 << 0x20\n 41845: a5 = a2 | a1\n 41848: a1 = u8 [a4 + 0x1]\n 41851: a2 = u8 [a4]\n 41853: s1 = u8 [a4 + 0x2]\n 41856: s0 = u8 [a4 + 0x3]\n 41859: a1 = a1 << 0x8\n 41862: a1 = a1 | a2\n 41865: s1 = s1 << 0x10\n 41868: s0 = s0 << 0x18\n 41871: s0 = s0 | s1\n 41874: a1 = a1 | s0\n 41877: a2 = u8 [a4 + 0x5]\n 41880: s1 = u8 [a4 + 0x4]\n 41883: s0 = u8 [a4 + 0x6]\n 41886: a4 = u8 [a4 + 0x7]\n 41889: a2 = a2 << 0x8\n 41892: a2 = a2 | s1\n 41895: s0 = s0 << 0x10\n 41898: a4 = a4 << 0x18\n 41901: a4 = a4 | s0\n 41904: a2 = a2 | a4\n 41907: a2 = a2 << 0x20\n 41910: a4 = a2 | a1\n 41913: jump @1104 if ra >=u t0\n      : @1103 (gas: 2)\n 41916: u32 [t1] = t0\n 41918: fallthrough\n      : @1104 (gas: 69)\n 41919: a1 = u64 [sp + 0x50]\n 41922: i32 a1 = a1 + 0x20\n 41925: a2 = u64 [sp + 0x58]\n 41928: a1 = a1 + a2\n 41931: u8 [a1 + 0x10] = a3\n 41934: a2 = a5 >> 0x38\n 41937: u8 [a1 + 0xf] = a2\n 41940: a2 = a5 >> 0x30\n 41943: u8 [a1 + 0xe] = a2\n 41946: a2 = a5 >> 0x28\n 41949: u8 [a1 + 0xd] = a2\n 41952: a2 = a5 >> 0x20\n 41955: u8 [a1 + 0xc] = a2\n 41958: a2 = a5 >> 0x18\n 41961: u8 [a1 + 0xb] = a2\n 41964: a2 = a5 >> 0x10\n 41967: u8 [a1 + 0xa] = a2\n 41970: a2 = a5 >> 0x8\n 41973: u8 [a1 + 0x9] = a2\n 41976: u8 [a1 + 0x8] = a5\n 41979: a2 = a4 >> 0x38\n 41982: u8 [a1 + 0x7] = a2\n 41985: a2 = a4 >> 0x30\n 41988: u8 [a1 + 0x6] = a2\n 41991: a2 = a4 >> 0x28\n 41994: u8 [a1 + 0x5] = a2\n 41997: a2 = a4 >> 0x20\n 42000: u8 [a1 + 0x4] = a2\n 42003: a2 = a4 >> 0x18\n 42006: u8 [a1 + 0x3] = a2\n 42009: a2 = a4 >> 0x10\n 42012: u8 [a1 + 0x2] = a2\n 42015: a2 = a4 >> 0x8\n 42018: u8 [a1 + 0x1] = a2\n 42021: u8 [a1] = a4\n 42023: u8 [a1 + 0x18] = a0\n 42026: a2 = a3 >> 0x38\n 42029: u8 [a1 + 0x17] = a2\n 42032: a2 = a3 >> 0x30\n 42035: u8 [a1 + 0x16] = a2\n 42038: a2 = a3 >> 0x28\n 42041: u8 [a1 + 0x15] = a2\n 42044: a2 = a3 >> 0x20\n 42047: u8 [a1 + 0x14] = a2\n 42050: a2 = a3 >> 0x18\n 42053: u8 [a1 + 0x13] = a2\n 42056: a2 = a3 >> 0x10\n 42059: u8 [a1 + 0x12] = a2\n 42062: a3 = a3 >> 0x8\n 42065: u8 [a1 + 0x11] = a3\n 42068: a2 = a0 >> 0x38\n 42071: u8 [a1 + 0x1f] = a2\n 42074: a2 = a0 >> 0x30\n 42077: u8 [a1 + 0x1e] = a2\n 42080: a2 = a0 >> 0x28\n 42083: u8 [a1 + 0x1d] = a2\n 42086: a2 = a0 >> 0x20\n 42089: u8 [a1 + 0x1c] = a2\n 42092: a2 = a0 >> 0x18\n 42095: u8 [a1 + 0x1b] = a2\n 42098: a2 = a0 >> 0x10\n 42101: u8 [a1 + 0x1a] = a2\n 42104: a0 = a0 >> 0x8\n 42107: u8 [a1 + 0x19] = a0\n 42110: ra = u64 [sp + 0x78]\n 42113: s0 = u64 [sp + 0x70]\n 42116: s1 = u64 [sp + 0x68]\n 42119: sp = sp + 0x80\n 42123: ret\n      : @1105 (gas: 1)\n 42125: trap\n      : @1106 (gas: 9)\n 42126: sp = sp + 0xffffffffffffff80\n 42129: u64 [sp + 0x78] = ra\n 42132: u64 [sp + 0x70] = s0\n 42135: u64 [sp + 0x68] = s1\n 42138: s0 = sp + 0x80\n 42142: sp = sp & 0xffffffffffffffe0\n 42145: u64 [sp + 0x50] = a0\n 42148: ecalli 10 // 'return_data_size'\n 42150: fallthrough\n      : @1107 (gas: 1)\n 42151: jump @1128 if a0 == 0\n      : @1108 (gas: 2)\n 42155: ecalli 10 // 'return_data_size'\n 42157: fallthrough\n      : @1109 (gas: 3)\n 42158: a2 = 0x2004c\n 42163: a3 = i32 [0x2004c]\n 42168: jump @1111 if a3 >u 95\n      : @1110 (gas: 3)\n 42172: a3 = 0x60\n 42175: u32 [0x2004c] = a3\n 42180: fallthrough\n      : @1111 (gas: 39)\n 42181: u64 [sp + 0x18] = a3\n 42184: u64 [sp + 0x28] = a2\n 42187: a4 = 0x20060\n 42192: a1 = u64 [0x200a0]\n 42197: a2 = u64 [0x200a8]\n 42202: a3 = u64 [0x200b8]\n 42207: u64 [sp + 0x48] = a4\n 42210: a4 = u64 [0x200b0]\n 42215: t1 = reverse a1\n 42217: t0 = reverse a2\n 42219: a5 = reverse a3\n 42221: a4 = reverse a4\n 42223: a1 = a0 + 0x1f\n 42226: u64 [sp + 0x20] = a0\n 42229: a2 = a1 <u a0\n 42232: a1 = a1 & 0xffffffffffffffe0\n 42235: a3 = a1 + 0x3f\n 42238: a1 = a3 <u a1\n 42241: a1 = a1 + a2\n 42244: a3 = a3 & 0xffffffffffffffe0\n 42247: a1 = a1 + a4\n 42250: a0 = a5 + a3\n 42253: u64 [sp + 0x58] = a5\n 42256: a2 = a0 <u a5\n 42259: ra = a1 + a2\n 42262: a1 = ra ^ a4\n 42265: u64 [sp + 0x40] = a4\n 42268: a5 = ra <u a4\n 42271: a5 = a2 if a1 == 0\n 42274: a4 = t0 + a5\n 42277: a2 = a4 <u t0\n 42280: a1 = t1 + a2\n 42283: t2 = a4 >u 0\n 42285: s1 = a1 >u 0\n 42287: s1 = t2 if a1 == 0\n 42290: t2 = a4 | a1\n 42293: a3 = ra >u 0\n 42295: a3 = s1 if t2 != 0\n 42298: jump @1130 if a3 != 0\n      : @1112 (gas: 7)\n 42302: a3 = a1 ^ t1\n 42305: s1 = a1 <u t1\n 42308: a2 = s1 if a3 != 0\n 42311: s1 = a4 ^ t0\n 42314: a3 = a3 | s1\n 42317: a5 = a2 if a3 != 0\n 42320: jump @1130 if a5 != 0\n      : @1113 (gas: 19)\n 42324: a1 = reverse a1\n 42326: a2 = reverse a4\n 42328: a3 = reverse ra\n 42330: a4 = reverse a0\n 42332: a0 = u64 [sp + 0x48]\n 42335: u64 [a0 + 0x58] = a4\n 42338: u64 [a0 + 0x50] = a3\n 42341: u64 [a0 + 0x48] = a2\n 42344: a4 = u64 [sp + 0x58]\n 42347: a2 = a4 | t0\n 42350: s1 = u64 [sp + 0x40]\n 42353: a3 = s1 | t1\n 42356: a2 = a2 | a3\n 42359: a2 = a2 >> 0x20\n 42362: a3 = a3 | t0\n 42365: a3 = a3 << 0x20\n 42368: a2 = a2 | a3\n 42371: u64 [a0 + 0x40] = a1\n 42374: jump @1127 if a2 != 0\n      : @1114 (gas: 2)\n 42378: i32 a1 = a4 >> 0x10\n 42381: jump @1127 if a1 != 0\n      : @1115 (gas: 3)\n 42385: i32 a3 = a4 + 0x3f\n 42388: a1 = a3 & 0x1ffe0\n 42393: jump @1127 if a1 >u 65536\n      : @1116 (gas: 5)\n 42400: u64 [sp + 0x10] = a3\n 42403: u64 [sp + 0x30] = t0\n 42406: u64 [sp + 0x38] = t1\n 42409: a2 = u64 [sp + 0x18]\n 42412: jump @1118 if a2 >=u a1\n      : @1117 (gas: 3)\n 42415: a2 = u64 [sp + 0x28]\n 42418: u32 [a2] = a1\n 42420: fallthrough\n      : @1118 (gas: 45)\n 42421: i32 a1 = a4 + 0\n 42423: a1 = a1 + a0\n 42426: a0 = u64 [sp + 0x20]\n 42429: a0 = reverse a0\n 42431: a2 = a0 >> 0x38\n 42434: u8 [a1 + 0x1f] = a2\n 42437: a2 = a0 >> 0x30\n 42440: u8 [a1 + 0x1e] = a2\n 42443: a2 = a0 >> 0x28\n 42446: u8 [a1 + 0x1d] = a2\n 42449: a2 = a0 >> 0x20\n 42452: u8 [a1 + 0x1c] = a2\n 42455: a2 = a0 >> 0x18\n 42458: u8 [a1 + 0x1b] = a2\n 42461: a2 = a0 >> 0x10\n 42464: u8 [a1 + 0x1a] = a2\n 42467: a2 = a0 >> 0x8\n 42470: u8 [a1 + 0x19] = a2\n 42473: u8 [a1 + 0x18] = a0\n 42476: u8 [a1 + 23] = 0\n 42479: u8 [a1 + 22] = 0\n 42482: u8 [a1 + 21] = 0\n 42485: u8 [a1 + 20] = 0\n 42488: u8 [a1 + 19] = 0\n 42491: u8 [a1 + 18] = 0\n 42494: u8 [a1 + 17] = 0\n 42497: u8 [a1 + 16] = 0\n 42500: u8 [a1 + 15] = 0\n 42503: u8 [a1 + 14] = 0\n 42506: u8 [a1 + 13] = 0\n 42509: u8 [a1 + 12] = 0\n 42512: u8 [a1 + 11] = 0\n 42515: u8 [a1 + 10] = 0\n 42518: u8 [a1 + 9] = 0\n 42521: u8 [a1 + 8] = 0\n 42524: u8 [a1 + 7] = 0\n 42527: u8 [a1 + 6] = 0\n 42530: u8 [a1 + 5] = 0\n 42533: u8 [a1 + 4] = 0\n 42536: u8 [a1 + 3] = 0\n 42539: u8 [a1 + 2] = 0\n 42542: u8 [a1 + 1] = 0\n 42545: u8 [a1 + 0] = 0\n 42547: ecalli 10 // 'return_data_size'\n 42549: fallthrough\n      : @1119 (gas: 9)\n 42550: a4 = u64 [sp + 0x58]\n 42553: a1 = u64 [sp + 0x38]\n 42556: a2 = u64 [sp + 0x30]\n 42559: a1 = a1 | a2\n 42562: a2 = 0xffffffe0\n 42572: a2 = a4 <u a2\n 42575: a2 = 0 if s1 != 0\n 42577: a2 = 0 if a1 != 0\n 42579: jump @1127 if a2 == 0\n      : @1120 (gas: 2)\n 42582: a1 = a0 >> 0x20\n 42585: jump @1127 if a1 != 0\n      : @1121 (gas: 3)\n 42588: i32 a1 = a4 >> 0x5\n 42591: a5 = u64 [sp + 0x28]\n 42594: jump @1127 if a1 >=u 2047\n      : @1122 (gas: 4)\n 42599: a1 = u64 [sp + 0x10]\n 42602: i32 a1 = a1 + a0\n 42605: a1 = a1 & 0xffffffffffffffe0\n 42608: jump @1127 if a1 >u 65536\n      : @1123 (gas: 3)\n 42614: a3 = i32 [a5]\n 42616: a2 = a4 + 0x20\n 42619: jump @1125 if a3 >=u a1\n      : @1124 (gas: 2)\n 42622: u32 [a5] = a1\n 42624: fallthrough\n      : @1125 (gas: 9)\n 42625: i32 s1 = a0 + 0\n 42627: a1 = u64 [sp + 0x48]\n 42630: i32 a2 = a2 + a1\n 42633: u32 [sp + 0x60] = a0\n 42636: i32 a1 = sp + 0x60\n 42639: a0 = a2\n 42641: a2 = 0\n 42643: ecalli 9 // 'return_data_copy'\n 42645: fallthrough\n      : @1126 (gas: 6)\n 42646: a0 = i32 [sp + 0x60]\n 42649: a1 = u64 [sp + 0x38]\n 42652: a2 = u64 [sp + 0x30]\n 42655: a3 = u64 [sp + 0x40]\n 42658: a4 = u64 [sp + 0x58]\n 42661: jump @1129 if a0 >=u s1\n      : @1127 (gas: 1)\n 42664: trap\n      : @1128 (gas: 5)\n 42665: a3 = 0\n 42667: a2 = 0\n 42669: a1 = 0\n 42671: a4 = 0x60\n 42674: fallthrough\n      : @1129 (gas: 11)\n 42675: a0 = u64 [sp + 0x50]\n 42678: u64 [a0] = a4\n 42680: u64 [a0 + 0x8] = a3\n 42683: u64 [a0 + 0x10] = a2\n 42686: u64 [a0 + 0x18] = a1\n 42689: sp = s0 + 0xffffffffffffff80\n 42692: ra = u64 [sp + 0x78]\n 42695: s0 = u64 [sp + 0x70]\n 42698: s1 = u64 [sp + 0x68]\n 42701: sp = sp + 0x80\n 42705: ret\n      : @1130 (gas: 19)\n 42707: a1 = u64 [sp + 0x48]\n 42710: u64 [a1 + 16] = 0\n 42713: u64 [a1 + 24] = 0\n 42716: u64 [a1 + 8] = 0\n 42719: u64 [a1 + 0] = 0x717b484e\n 42725: u32 [a1 + 32] = 0x41000000\n 42732: u32 [a1 + 20] = 0\n 42735: u32 [a1 + 24] = 0\n 42738: u32 [a1 + 28] = 0\n 42741: u32 [a1 + 8] = 0\n 42744: u32 [a1 + 12] = 0\n 42747: u32 [a1 + 16] = 0\n 42750: u32 [a1 + 4] = 0\n 42753: i32 a1 = a1 + 0\n 42755: a0 = 0x1\n 42758: a2 = 0x24\n 42761: ra = 0x60\n 42764: ecalli 11 // 'seal_return'\n 42766: fallthrough\n      : @1131 [@dyn 48] (gas: 22)\n 42767: sp = sp + 0xffffffffffffff60\n 42771: u64 [sp + 0x98] = ra\n 42775: u64 [sp + 0x90] = s0\n 42779: u64 [sp + 0x88] = s1\n 42783: s0 = sp + 0xa0\n 42787: sp = sp & 0xffffffffffffffe0\n 42790: u64 [sp + 88] = 0\n 42793: u64 [sp + 80] = 0\n 42796: u64 [sp + 72] = 0\n 42799: u64 [sp + 64] = 0\n 42802: u64 [sp + 120] = 0\n 42805: u64 [sp + 112] = 0\n 42808: u64 [sp + 104] = 0\n 42811: u64 [sp + 96] = 0\n 42814: u32 [sp + 32] = 0x20\n 42818: i32 a1 = sp + 0x40\n 42821: i32 a3 = sp + 0x60\n 42824: i32 a4 = sp + 0x20\n 42827: a2 = 0xffffffffffffffff\n 42830: a0 = 0\n 42832: ecalli 6 // 'get_storage'\n 42834: fallthrough\n      : @1132 (gas: 10)\n 42835: a0 = u64 [sp + 0x70]\n 42838: a1 = u64 [sp + 0x60]\n 42841: a2 = u64 [sp + 0x68]\n 42844: a3 = u64 [sp + 0x78]\n 42847: a1 = a1 | a0\n 42850: a0 = 0x200000000000000\n 42860: a3 = a3 ^ a0\n 42863: a2 = a2 | a3\n 42866: a1 = a1 | a2\n 42869: jump @1134 if a1 == 0\n      : @1133 (gas: 20)\n 42872: u64 [sp + 88] = 0\n 42875: u64 [sp + 80] = 0\n 42878: u64 [sp + 72] = 0\n 42881: u64 [sp + 64] = 0\n 42884: u64 [sp + 112] = 0\n 42887: u64 [sp + 104] = 0\n 42890: u64 [sp + 96] = 0\n 42893: u64 [sp + 0x78] = a0\n 42896: i32 a1 = sp + 0x40\n 42899: i32 a3 = sp + 0x60\n 42902: a2 = 0xffffffffffffffff\n 42905: a4 = 0x20\n 42908: a0 = 0\n 42910: ecalli 13 // 'set_storage'\n 42912: sp = s0 + 0xffffffffffffff60\n 42916: ra = u64 [sp + 0x98]\n 42920: s0 = u64 [sp + 0x90]\n 42924: s1 = u64 [sp + 0x88]\n 42928: sp = sp + 0xa0\n 42932: ret\n      : @1134 (gas: 3)\n 42934: t0 = 0x2004c\n 42939: a3 = i32 [0x2004c]\n 42944: jump @1136 if a3 >u 95\n      : @1135 (gas: 3)\n 42948: a3 = 0x60\n 42951: u32 [0x2004c] = a3\n 42956: fallthrough\n      : @1136 (gas: 17)\n 42957: s1 = 0x20060\n 42962: a0 = u64 [0x200a8]\n 42967: a2 = u64 [0x200b8]\n 42972: a4 = u64 [0x200a0]\n 42977: a1 = u64 [0x200b0]\n 42982: a5 = reverse a0\n 42984: a0 = reverse a2\n 42986: a4 = reverse a4\n 42988: ra = reverse a1\n 42990: a1 = ra | a4\n 42993: a2 = a0 | a5\n 42996: a2 = a2 | a1\n 42999: a2 = a2 >> 0x20\n 43002: a1 = a1 | a5\n 43005: a1 = a1 << 0x20\n 43008: a1 = a1 | a2\n 43011: jump @1154 if a1 != 0\n      : @1137 (gas: 2)\n 43015: i32 a1 = a0 >> 0x10\n 43018: jump @1154 if a1 != 0\n      : @1138 (gas: 4)\n 43022: t2 = 0x1ffe0\n 43027: a1 = a0 + 0x3f\n 43030: a2 = a1 & t2\n 43033: jump @1154 if a2 >u 65536\n      : @1139 (gas: 1)\n 43040: jump @1141 if a3 >=u a2\n      : @1140 (gas: 3)\n 43043: u32 [0x2004c] = a2\n 43048: a3 = a2\n 43050: fallthrough\n      : @1141 (gas: 41)\n 43051: i32 a2 = a0 + 0\n 43053: u64 [sp + 0x18] = a2\n 43056: a2 = a2 + s1\n 43059: u8 [a2 + 31] = 0\n 43062: u8 [a2 + 30] = 0\n 43065: u8 [a2 + 29] = 0\n 43068: u8 [a2 + 28] = 0\n 43071: u8 [a2 + 27] = 0\n 43074: u8 [a2 + 26] = 0\n 43077: u8 [a2 + 25] = 0\n 43080: u8 [a2 + 24] = 0\n 43083: u8 [a2 + 23] = 0\n 43086: u8 [a2 + 22] = 0\n 43089: u8 [a2 + 21] = 0\n 43092: u8 [a2 + 20] = 0\n 43095: u8 [a2 + 19] = 0\n 43098: u8 [a2 + 18] = 0\n 43101: u8 [a2 + 17] = 0\n 43104: u8 [a2 + 16] = 0\n 43107: u8 [a2 + 15] = 0\n 43110: u8 [a2 + 14] = 0\n 43113: u8 [a2 + 13] = 0\n 43116: u8 [a2 + 12] = 0\n 43119: u8 [a2 + 11] = 0\n 43122: u8 [a2 + 10] = 0\n 43125: u8 [a2 + 9] = 0\n 43128: u8 [a2 + 8] = 0\n 43131: u8 [a2 + 7] = 0\n 43134: u8 [a2 + 6] = 0\n 43137: u8 [a2 + 5] = 0\n 43140: u8 [a2 + 4] = 0\n 43143: u8 [a2 + 3] = 0xa0\n 43148: u8 [a2 + 2] = 0x79\n 43152: u8 [a2 + 1] = 0xc3\n 43157: t1 = a5 | a4\n 43160: a4 = 0xfffffffc\n 43170: a4 = a0 <u a4\n 43173: a4 = 0 if ra != 0\n 43175: a4 = 0 if t1 != 0\n 43177: u8 [a2 + 0] = 0x8\n 43180: jump @1154 if a4 == 0\n      : @1142 (gas: 2)\n 43184: a2 = u64 [sp + 0x18]\n 43187: jump @1154 if a2 >=u 65532\n      : @1143 (gas: 3)\n 43194: a1 = a0 + 0x43\n 43197: a2 = a1 & 0x1ffe0\n 43202: jump @1154 if a2 >u 65536\n      : @1144 (gas: 2)\n 43209: i32 a4 = a0 + 0x4\n 43212: jump @1146 if a3 >=u a2\n      : @1145 (gas: 3)\n 43215: u32 [0x2004c] = a2\n 43220: a3 = a2\n 43222: fallthrough\n      : @1146 (gas: 38)\n 43223: a2 = s1 + a4\n 43226: u8 [a2 + 31] = 0x20\n 43230: u8 [a2 + 30] = 0\n 43233: u8 [a2 + 29] = 0\n 43236: u8 [a2 + 28] = 0\n 43239: u8 [a2 + 27] = 0\n 43242: u8 [a2 + 26] = 0\n 43245: u8 [a2 + 25] = 0\n 43248: u8 [a2 + 24] = 0\n 43251: u8 [a2 + 23] = 0\n 43254: u8 [a2 + 22] = 0\n 43257: u8 [a2 + 21] = 0\n 43260: u8 [a2 + 20] = 0\n 43263: u8 [a2 + 19] = 0\n 43266: u8 [a2 + 18] = 0\n 43269: u8 [a2 + 17] = 0\n 43272: u8 [a2 + 16] = 0\n 43275: u8 [a2 + 15] = 0\n 43278: u8 [a2 + 14] = 0\n 43281: u8 [a2 + 13] = 0\n 43284: u8 [a2 + 12] = 0\n 43287: u8 [a2 + 11] = 0\n 43290: u8 [a2 + 10] = 0\n 43293: u8 [a2 + 9] = 0\n 43296: u8 [a2 + 8] = 0\n 43299: u8 [a2 + 7] = 0\n 43302: u8 [a2 + 6] = 0\n 43305: u8 [a2 + 5] = 0\n 43308: u8 [a2 + 4] = 0\n 43311: u8 [a2 + 3] = 0\n 43314: u8 [a2 + 2] = 0\n 43317: u8 [a2 + 1] = 0\n 43320: a1 = 0xffffffdc\n 43330: a1 = a0 <u a1\n 43333: a1 = 0 if ra != 0\n 43335: a1 = 0 if t1 != 0\n 43337: u8 [a2 + 0] = 0\n 43339: jump @1154 if a1 == 0\n      : @1147 (gas: 2)\n 43343: a2 = u64 [sp + 0x18]\n 43346: jump @1154 if a2 >=u 65500\n      : @1148 (gas: 3)\n 43353: a1 = a0 + 0x63\n 43356: a2 = a1 & 0x1ffe0\n 43361: jump @1154 if a2 >u 65536\n      : @1149 (gas: 2)\n 43368: i32 a4 = a0 + 0x24\n 43371: jump @1151 if a3 >=u a2\n      : @1150 (gas: 3)\n 43374: u32 [0x2004c] = a2\n 43379: a3 = a2\n 43381: fallthrough\n      : @1151 (gas: 38)\n 43382: a2 = s1 + a4\n 43385: u8 [a2 + 31] = 0x1f\n 43389: u8 [a2 + 30] = 0\n 43392: u8 [a2 + 29] = 0\n 43395: u8 [a2 + 28] = 0\n 43398: u8 [a2 + 27] = 0\n 43401: u8 [a2 + 26] = 0\n 43404: u8 [a2 + 25] = 0\n 43407: u8 [a2 + 24] = 0\n 43410: u8 [a2 + 23] = 0\n 43413: u8 [a2 + 22] = 0\n 43416: u8 [a2 + 21] = 0\n 43419: u8 [a2 + 20] = 0\n 43422: u8 [a2 + 19] = 0\n 43425: u8 [a2 + 18] = 0\n 43428: u8 [a2 + 17] = 0\n 43431: u8 [a2 + 16] = 0\n 43434: u8 [a2 + 15] = 0\n 43437: u8 [a2 + 14] = 0\n 43440: u8 [a2 + 13] = 0\n 43443: u8 [a2 + 12] = 0\n 43446: u8 [a2 + 11] = 0\n 43449: u8 [a2 + 10] = 0\n 43452: u8 [a2 + 9] = 0\n 43455: u8 [a2 + 8] = 0\n 43458: u8 [a2 + 7] = 0\n 43461: u8 [a2 + 6] = 0\n 43464: u8 [a2 + 5] = 0\n 43467: u8 [a2 + 4] = 0\n 43470: u8 [a2 + 3] = 0\n 43473: u8 [a2 + 2] = 0\n 43476: u8 [a2 + 1] = 0\n 43479: a1 = 0xffffffbc\n 43489: a1 = a0 <u a1\n 43492: a1 = 0 if ra != 0\n 43494: a1 = 0 if t1 != 0\n 43496: u8 [a2 + 0] = 0\n 43498: jump @1154 if a1 == 0\n      : @1152 (gas: 2)\n 43501: a2 = u64 [sp + 0x18]\n 43504: jump @1154 if a2 >=u 65468\n      : @1153 (gas: 3)\n 43510: a1 = a0 + 0x83\n 43514: a2 = a1 & 0x1ffe0\n 43519: jump @1155 if a2 <=u 65536\n      : @1154 (gas: 1)\n 43525: trap\n      : @1155 (gas: 1)\n 43526: jump @1157 if a3 >=u a2\n      : @1156 (gas: 2)\n 43529: u32 [0x2004c] = a2\n 43534: fallthrough\n      : @1157 (gas: 40)\n 43535: i32 a1 = a0 + 0x44\n 43538: s1 = s1 + a1\n 43541: u8 [s1 + 31] = 0\n 43544: u8 [s1 + 30] = 0x6c\n 43548: u8 [s1 + 29] = 0x6c\n 43552: u8 [s1 + 28] = 0x61\n 43556: t0 = 0x63\n 43559: u8 [s1 + 0x1b] = t0\n 43562: u8 [s1 + 26] = 0x20\n 43566: t1 = 0x74\n 43569: u8 [s1 + 0x19] = t1\n 43572: a4 = 0x6e\n 43575: u8 [s1 + 0x18] = a4\n 43578: u8 [s1 + 23] = 0x61\n 43582: a5 = 0x72\n 43585: u8 [s1 + 0x16] = a5\n 43588: u8 [s1 + 0x15] = t1\n 43591: u8 [s1 + 0x14] = a4\n 43594: u8 [s1 + 19] = 0x65\n 43598: u8 [s1 + 18] = 0x65\n 43602: u8 [s1 + 0x11] = a5\n 43605: u8 [s1 + 16] = 0x20\n 43609: u8 [s1 + 15] = 0x3a\n 43613: u8 [s1 + 14] = 0x64\n 43617: u8 [s1 + 0xd] = a5\n 43620: u8 [s1 + 12] = 0x61\n 43624: u8 [s1 + 11] = 0x75\n 43628: u8 [s1 + 10] = 0x47\n 43632: u8 [s1 + 9] = 0x79\n 43636: u8 [s1 + 0x8] = t0\n 43639: u8 [s1 + 0x7] = a4\n 43642: u8 [s1 + 6] = 0x61\n 43646: u8 [s1 + 0x5] = a5\n 43649: u8 [s1 + 0x4] = t1\n 43652: u8 [s1 + 0x3] = a4\n 43655: u8 [s1 + 2] = 0x65\n 43659: u8 [s1 + 1] = 0x65\n 43663: u8 [s1 + 0] = 0x52\n 43666: a1 = 0x64\n 43669: ra = 98, jump @8\n      : @1158 [@dyn 49] (gas: 7)\n 43675: i32 a1 = a0 + 0\n 43677: a0 = 0x1\n 43680: a2 = 0x64\n 43683: ecalli 11 // 'seal_return'\n 43685: a0 = 0\n 43687: ra = 0x64\n 43690: jump @14\n      : @1159 [export #0: 'call'] (gas: 2)\n 43694: a0 = 0\n 43696: ra = 100, jump @14\n      : @1160 [@dyn 50] [export #1: 'deploy'] (gas: 2)\n 43702: a0 = 0x1\n 43705: ra = 102, jump @14\n      : @1161 [@dyn 51] (gas: 1)\n 43711: trap\n","bytecode":{"object":"50564d0000fec1000000000000010700c18000c000800348016345785d8a0000dba6f0152c53cf7f1da7be38e0d0d60bbfb38cd9c708d830651b08f55ba968726c0d74cb6786abe6b41e031c32ada465383275d585506c2f8334c170e3e1b2d10480fe0f000000000400000012000000200000002e00000034000000410000004c0000005b00000068000000780000008800000093000000a5000000b000000063616c6c63616c6c5f646174615f636f707963616c6c5f646174615f6c6f616463616c6c5f646174615f73697a6563616c6c65726465706f7369745f6576656e746765745f73746f72616765686173685f6b656363616b5f3235367265665f74696d655f6c65667472657475726e5f646174615f636f707972657475726e5f646174615f73697a657365616c5f72657475726e7365745f696d6d757461626c655f646174617365745f73746f7261676576616c75655f7472616e73666572726564051302c0aeaa0463616c6cc0b6aa066465706c6f7906c083c03302c0c0aaaf01b4019f14ed140d155b15eb15f715cf1eda209128c82bb02e7b319b332d38f83dca3e963f4257d45f1b604c60c3606061a8616e67036acd6b436c996ce76c0d703d76ec83428cb28e588f998fc48faa90c7940695a4952496739e769f0fa79baab6aabfaa9511a07b10587b15507b16489515608411e06476828718828910828a0882886f776f996faa6f887b18187b1a107b19087b17491138491130491128491120481140208318831a20831b403309ff33070a06821738821830821928821a206f776f886f996faa7b6a187b69107b68087b679551a082105882155082164895116032009511a07b10587b15509515608411e08272827a08827b108277188283828908828c108288186f746fbb6faa6f276f826fcc6f996f387b17187b1a107b1b087b147b18387b19307b1c287b12208318831a203309ff330b2033070a0d9551a082105882155095116032008b7a10520a72c8870a83aa1f84aae0563a000001669511c07b10387b15307b16289515408411e082921882941082930839064c0002829baea6093d0a4c0002013309600002be79096f276f4a6f3c6fbb7b1b187b1c107b1a087b17838a83173308010a059551c08210388215308216289511403200008b7910520931c8780883881f8488e056380000012533094c0002390a4c0002ae8a093d084c00020133086000028377c887073200009511f07b10087b158475010a03013d07480002510507501002095010044814951100fd7b10f8027b15f0027b16e802951500038411e033074c00027b17580139074c000256175f0c821858014808600133066000022103b000022103a800022103a00002140700000000000000803e07b800024921b8014921b0014921a8014921a0018317a0010a0e018217b0018218b8018219a801821aa001d49808d4a707d4870751070628a60d821858018189390848000256195f0e330960821758017a79017b1928017b1830019787209877203a08a000023a09b000023a0ab800027b1640013a0ba800026f867b1648016f906fa895771f8477e0c887077b1850017b173801d8870ac8a009d809046fb2644bdaaa0bc82b0bd82b0cc8c6078eb88e76da7806d47b038e98db3608821348015208e20cd30908db840ad33708d83706db860cd32b06d46808da8a0c520cc60c6f776fb86f99821a38016faa821640017b6a587b69507b6848821a5001d42a08d43009d49808988820d42909979920d498087b674052088c0c8ba710821930015207810cc8a90783771f8477e05637000001740c7b1220017b10380182182801ae780a821858017a870183a77b172801be6707649833090a0101821830015318407f0c8214500195473f8479e0ff018210380156390000012e0c82175801817282172801c86707ae920c821858017a896492017c79097c7a087c7b0a7c7c0b979908d4a90997bb1097cc18d4cb0bd4b9097c7a0d7c7b0c7c7c0e7c760f97aa08d4ba0a97cc10976618d46c0cd4ca0a97aa20d4a9097c7a017c7b7c7c027c760397aa08d4ba0a97cc10976618d46c0cd4ca0a7c7b057c7c047c76067c780797bb08d4cb0b976610978818d46808d4b808978820d4a8086f8b6f9c14090000000001000000d39c08d4b80898ca2088aa0194ba938a510ab30b82184801821a2001d4a8081409e0ffffff00000000d894099409948951094d0b8b48055528ff07460b95485f8489e0ff015639000001380b7b1c38017b1b4801834a20ae920a821858017a890149215001e0ff0182184001c8a8087c89097c8a087c8b0a7c8c0b979908d4a90997bb1097cc18d4cb0bd4b9097c8a0d7c8b0c7c8c0e7c860f97aa08d4ba0a97cc10976618d46c0cd4ca0a97aa20d49a027c8a017c8b7c8c027c860397aa08d4ba0a97cc10976618d46c0cd4ca0a7c8b057c8c047c86067c890797bb08d4cb0b976610979918d46909d4b909979920d4a9096f9b6f2a14090000000001000000d3a909d4b9097b1a280198aa2088aa017b1b300194ba939a510aab0a7c791d7b1980007c791e7b19f8007c791f7b19f0007c79157b1900017c79167b1910017c79177b1908017c79197b1918017c791a7b192001140900000000000000017b19d8027c791b7b19b8007c791c7b19387c79117b19d0007c79127b19e8007c79137b19e0007c79147b19607c79187b19787c77107b1788007c87187b17d8007c87197b17b0007c871a7b17c8007c871b7b17c0007c871c7b17707c871d7b17307c871e7b17587c871f7b17507c87107b17a8007c87117b1790007c87127b17a0007c87137b1798007c87147b17687c87157b17287c87167b17487c87177b17404921b8024921b0024921a8024921a0024921d0024921c8024921c0028318a002831ac0023309ff330b2033070a0d140600000000000000027b16b8024921b0024921a8024921a0024921d8024921d0024921c8024921c00248218002208318a002831ac002831b80023309ff33070a068217c0028218d0028219c802821ad802140bffffff00ffffffffd2b90986990000000a7b16b8024921b0024921a8024921a0027b1ad8027b18d0027b19c8027b17c0028318a002831ac0023309ff330b2033070a0d140700000000000000037b17b8023a070000024921b0024921a8024921a0027b17d8024921d0024921c8024921c0028318a002831ac0023309ff330b2033070a0d140700000000000000047b17b8024921b0024921a8024921a0024921d8024921d0024921c8024921c0028318a002831ac0023309ff330b2033070a0d0182175801817056105f0e330060821758017a700182184001828758828950828b48828c406f736f926fb76fca8eab8e7cdbab0c8e2b8836c0fe856601db2b06d4a704db4c065206fc07953c4001d83c06c86209d8290bda660bc87b0bd87b06c8a6066f666fbb6f996fcc7b8c587b89507b8b48d47309d4a20bd4b909989920d47b0b97bb20d4b9097b86405209b0078b39105209a90795393f821c5001d29c0c563c0000019b07aec00c821958017a9c64c001833cc88c0c461c1f0b461c1ed600461c1d53461c1cab00461c1b32461c1a44461c19461c18b600461c17b300461c16d000461c159100461c141b461c13f100461c12f900461c11d600461c10b300461c0f8900461c0ea400461c0db900461c0c2d461c0bec00461c0a73461c09f400461c084b461c077f461c064e461c059b00461c0466461c03d100461c028c00461c0141140be0ffffff00000000d8b30b942b944b460c33510be2068b38055528ff07db0695395f821c5001d29c0c563c000001cb067b1a18833620aec00c821958017a9c64c0017b102082194001c8960646161fbd0046161ef80046161d4e46161ce40046161bb30046161aa500461619534616189a004616178d004616166f4616152b4616142746161357461612ef004616114d4616106146160f5b46160e4946160d5246160c2246160b1946160a3b461609164616080c4616079400461606f800461605cc00461604454616037c461602fb004616010f140bc0ffffff00000000d8b30b942b944b460635510b0c068b39067b19105529ff030206953b7f821c5001d2bc0c563c000001f205833640821920aec90d821958017a9c7b1c200182194001c8960646161f840046161e2546161d2046161c850046161b1e46161ad20046161977461618a300461617de0046161690004616150846161417461613870046161203461611e8004616106c46160f5046160eac0046160d0146160c6b46160bd40046160a1a4616092b461608a8004616079100461606af004616051b4616048500461603af00461602b700461601ac00140ba0ffffff00000000d8b30b942b944b4606c800510b2f055528fd072b0595399f00821c5001d29c0c563c0000011a05833660821920aec90d821958017a9c7b1c200182194001c8960646161fc50046161eac0046161de90046161c2746161b3246161a114616197a4616188800461617414616168d0046161535461614d100461613484616128600461611b100461610990046160f1846160ebd0046160d1646160c0e46160b2146160a0346160959461608aa0046160764461606274616054b4616041546160373461602d20046160171140b80ffffff00000000d8b30b942b944b460651510b5d048b39075529ff0156049539bf00821c5001d29c0c563c000001450483368000821920aec90d821958017a9c7b1c200182194001c8960646161f5946161ebe0046161de50046161ca50046161b6246161a9600461619fc004616188c00461617890046161625461615e1004616141a461613ec00461612e1004616119400461610c70046160f2246160e0f46160d0e46160c4146160bda0046160aa100461609f7004616087c461607f50046160613461605d60046160404461603cb00461602064616016c140b60ffffff00000000d8b30b942b944b46069800510b80035528fb077c039539df00821c5001d29c0c563c0000016b038336a000821920aec90d821958017a9c7b1c200182194001c8960646161f2746161ed00046161d940046161c6d46161b7f46161abf00461619d7004616183c4616172f461616d6004616151b46161419461613e500461612b00046161126461610930046160f2e46160e4b46160d2046160c800046160b7646160a02461609214616081646160703461606f300461605ef004616040646160351461602a000461601b900140b40ffffff00000000d8b30b942b944b46066e510bac02821b10552bfd03a5029539ff00821c5001d29c0c563c00000194028336c000821920aec90d821958017a9c7b1c200182194001c8960646161f2646161e1246161dad0046161cd40046161b3846161a81004616199d004616185e46161760461616a200461615c8004616143046161317461612ce00461611384616106a46160fbb0046160eed0046160d820046160c4846160b7b46160a544616091f461608064616078c004616063946160593004616041446160369461602c800461601cb00140b20ffffff00000000d8b30b942b944b4606a100510bd3015528f907cf0195391f01821c5001d29c0c563c000001be018336e000821920aec90d821958017a9c7b1c200182194001c8960646161ffd0046161eef0046161dde0046161c2946161b0346161a8a00461619fc0046161829461617ac00461616ab00461615424616149400461613de004616129a0046161193004616102f46160f4e46160e6146160df70046160c7646160b9d0046160ac200461609e900461608810046160751461606c6004616058b004616043d4616032f461602a7004616010a140b00ffffff00000000d8b30b942b944b46068500510bf8008b39085529ff00f10095393f01821c5001d29c0c563c000001e00083360001821920aec90d821958017a9c7b1c200182194001c8960646161f1e46161edc0046161d0346161ce80046161b6a46161a2c461619ec0046161878461617e800461616ba004616155f461614b70046161342461612b700461611344616108b0046160f6046160ece0046160d1c46160c9b0046160b8b0046160abf00461609284616089000461607c800461606bf004616052d4616047546160378461602f600461601c600140be0feffff00000000d8b30b942b944b4606e900510b1c5528f7071995395f0182185001d298087b181054380000015800821840010149181049181849180849084e487b714818200000004148181448181848181c48180848180c48181048180483883307013309240a0b01836833070133090a0b018118400133070133090a0b0182198000979908821838d489048219f800979910821bf00097bb18d49b0a82190001979908821860d4890682191001979910821b080197bb18d4b9097b190801821930979908821870d498087b181001821958979910821b5097bb18d4b9097b19f800821928979908821868d498087b180001821948979910821b4097bb18d4b9097b19f000821b180197bb08821878d4b8087b181801821c200197cc108219b800979918d4c9097b19b800d44a0a821cd00097cc0882188800d4c8087b18d0008219e8009799108210e000970018d490087b18e80082180801d468087b1820018214b0009744088218d800d484087b1808018216c8009766108210c000970018d46006821810018219f800d498087b181001821b900097bb088218a800d48b048218a000978810821c980097cc18d48c0c821800018219f000d48900821818018219b800d498088219d000821be800d49b0b82190801d49606d44c0c97a920d4980882192001979920d4b90482191001979920d49606970020d4c00c833b2001821910821a20ae9a0d82195801821a107a9a01492108014921100149212001492118016f497b19b0006f887b18b8006fc87b18c0006f687b18c80082184001c88b0b461b1f7f461b1ef700461b1d46461b1cbe00461b1ba100461b1a39461b1954461b18d700461b17ef00461b164f461b15ba00461b1427461b138d00461b1229461b11a700461b1025461b0f7c461b0eb900461b0d72461b0cb400461b0b2b461b0a03461b098900461b0843461b07bc00461b0631461b0545461b041f461b032e461b022c461b01e200460ba900140900000000000000097b19e0008318a0027b18d8008318c0027b18d00028d301833a82184001c88a0a7ca9017cab7cac027ca603979908d4b90997cc10976618d46c0cd49c087cab057cac047ca6067ca90797bb08d4cb0b976610979918d46909d4b909979920d498087b1800017cab097cac087ca60a7ca90b97bb08d4cb0b976610979918d46909d4b9047cab0d7cac0c7ca60e7ca90f97bb08d4cb0b976610979918d46909d4b909979920d449047ca9117cab107ca6127cac13979908d4b90997661097cc18d46c0cd49c007cab157cac147ca6167ca91797bb08d4cb0b976610979918d46909d4b909979920d409007ca9197cac187ca61a7cab1b979908d4c90997661097bb18d46b0bd4b9097cab1d7cac1c7ca61e7caa1f97bb08d4cb0b97661097aa18d46a0ad4ba0a97aa20d4a9099538207b18f800d83808c8820a7b1af000d82a06da8806c876067b16e800d87607821818c878087b1818821608019767388218e000c887077b17b8027b19d8027b10d0027b14c802821700017b17c0024921b0024921a8024921a0023309ff330b2033078218d800821ad0000a0d01886909956701887801821a100194a9c8a808d4870a88aa01821c2001c8ca0ad8ca02821b1801d4bc0cc82b0b94c97b1708017b1810017b1a20017b1b18018213f8008212f0008217e80051094ad47309821818d4820ad4a909989920d47a0a97aa20d4a909520955fb8b391052094efb95393f821a5001d29a0a563a00000140fb821858018189aea9f6fd821858017a8a28ecfd4921d8014921d0014921c8013306027b16c001951780019518c00150100666eb801794018218980197772082193801d4970782194801d498084921f8014921f0014921e8017b16e0018219b0007b1908028219b8007b1900027b1818027b1710029517e0019518000250100899eb4921380249213002492128023306017b162002951760019518200250100af8ea801774018218780197772082192801d4970782193001d498084921580249215002492148027b1640028219c0007b1968028219c8007b1960027b1878027b177002951740029518600250100c2beb82175801817756175f0e330760821858017a8701821b400182b84882b95882ba4082bb506f886f966fa96fbad4a909d4860ad49a0a98aa20d49808978820d4a808520809fa8b6810520802fa95681f82195001d298085638000001f4f9ae870a821758017a780182174001be6707330833090a0101390850000251080d330780000383770a0c016467330850100e7aeb8378330733093300100a0b01951108f87b10f0077b15e8077b16e0079515f807951118fc8411e0641633094c000239074c000256175f0b20034c000260017b693802330960000233084800022103b000022103a800027b6828023908480002140700000000000000803e07b800027b6930022103a00002551804072875548367600633080a020181677c065a47d68487c7f8005a476395e7b8e0025147166dca8b0a285b2149265807492650074926480749264007836740070a0e01826750078268580782694807826a4007d49808d4a707d487075107062818548267280281789569ff079599b90156180307280354140700000000000000037b97c0014929b8014929b0014929a8014929e0014929d8014929d0014929c8014829e8012095670010837860fb95670010837a80fb95670010837ba0fb3309ff33070a060182683802818956195f0a3309607a8901826b300282b74882b85882ba4082bb506f7c6f876fa86fbad4a808d4c70ad48a0a98aa20d4c808978820d4a8085108f60028b34758473e52e045a90351473f52e0450a28141f4926f8064926f0064926e8064926e0068367e0060a0e018267f0068268f8068269e806826ae006d49808d4a707d487075107062828538267280281779569ff079599b90156170307281353140700000000000000047b97c0014929b8014929b0014929a8014929e0014929d8014929d0014929c8014829e8012095670010837860fb95670010837a80fb95670010837ba0fb3309ff33070a060182683802818956195f0a3309607a8901826b300282b74882b85882ba4082bb506f7c6f876fa86fbad4a808d4c70ad48a0a98aa20d4c808978820d4a80851080628c4468b781051080628bb4695783f8488e0ff0154380000010928aa46956bff0795bbb90182b2e00182bad80182bcd00182bbc801ae890a826938027a9801837982683002c88909789a1098c83878980f98c83078980e98c82878980d98c82078980c98c81878980b98c81078980a98c808789809789c0898b83878980798b83078980698b82878980598b82078980498b81878980398b81078980298b808789801789b78921898a83878981798a83078981698a82878981598a82078981498a81878981398a81078981298aa08789a1198283878981f98283078981e98282878981d98282078981c98281878981b98281078981a9828087898193308203300282805e851476495e7b80a289a3b956700104927f8f8956700104927f0f8956700104927e8f8956700104927e0f8956700108377e0f80a0e01956700108277f0f8956800108288f8f8956900108299e8f8956a001082aae0f8d49808d4a707d48707510706281c518267280281779569ff079599b90156170307280751140700000000000000027b97c0014929b8014929b0014929a8014929e0014929d8014929d0014929c8014829e8012095670010837860fb95670010837a80fb95670010837ba0fb3309ff33070a060182693802819856185f0a3308607a9801826b300282b74882b95882ba4082bb506f7c6f976fa96fbad4a909d4c70ad49a0a98aa20d4c909979920d4a90951090628b8448b791051090628af4495793f8499e0ff01543900000109289e44956aff0795aab90182aad001ae980a826838027a8901837882693002c8980898aa18788a1f46181e46181d1409000000ff0000000078891c46181b46181a46181946181846181746181646181546181446181346181246181146181046180f46180e46180d46180c46180b46180a4618094618084618074618064618054618044618034618024618014608330820330028284ce6826938025147d78487c70a28754f826728028177826b3002562743010828b34f9517e0847ae064a1491a18491a108197490a407b6af801491a0856175f084809600182b75082b85882b94082ba486f726f836f946facd44c088837c094277b680002948752070628734f953740d83708c88209d8290ada880ac8ca0ad8ca08c848086f886faa6f996f777bb7587bb9507bba487bb84095670010837740f93308047b6320027b6218027b6c10027b6408020a020182691002826a2002d49a0782681802826b0802d4b808d48707987720d49808978820d48707510706282b438ba71051070628224395a73f8477e0ff015437000001092811434926f001e0ff0195680010828858f995690010829950f9956b001082b248f9826b380281bc956b001082bb40f9ae7c0a826c38027ac70183a7826c3002c8c7076f886f996f2a6fbb98bc38787c1f98bc30787c1e98bc28787c1d98bc20787c1c98bc18787c1b98bc10787c1a98bc08787c19787b18787a1098ab38787b1798ab30787b1698ab28787b1598ab20787b1498ab18787b1398ab10787b1298aa08787a11787908989a38787a0f989a30787a0e989a28787a0d989a20787a0c989a18787a0b989a10787a0a989908787909787898893878790798893078790698892878790598892078790498891878790398891078790298880878780195670010837740f93308240a0201826a2002826710028e77826908028e98da97081407dfffffff00000000d8a707826b18028eb9dab70982670002db780951090628d2418ba7058269f0015427fe070828c34195a75fd2970854380000010928b44195670010827458f995670010827050f995670010827b48f982673802817295670010827c40f983a720ae820c826938027a9864820182633002c873086f496f0a6fbb6fc7788718987c38788c1f987c30788c1e987c28788c1d987c20788c1c987c18788c1b987c10788c1a987708788719788b1098b73878871798b73078871698b72878871598b72078871498b71878871398b71078871298bb08788b11788a0898a73878870f98a73078870e98a72878870d98a72078870c98a71878870b98a71078870a98aa08788a097889989738788707989730788706989728788705989720788704989718788703989710826a280281aa788702989908788901561a6307286c4e56125f0c8268380248086001823758823850823948823a406f7b6f8c6f986fa949263806492630064926280649262006407b69b8017b6958067b68c0017b6850067b6cb0017b6c480695674006956820067b6bc8017b6b4006501012607e8269280281975527c4000828014c8192826938025612630728f44b81988263300256185f0c8269380248096001823450823058823b408237486f4a6f0c6fb86f797b6800027b69e801d4890988c8c094a89498520806287f4d7b69d0017b6790017b6b98017b64a0017b60a80195c440d8c409c89a07d8a70bda990b8268e801c88b0bd88b0982680002c889096f996fbb6f776f487b38587b37507b3b487b39407b6ce0017b6ad8015622830008287d4a95670010837760f93308440a02018269e801826ae001d49a0782680002826bd801d4b808d48707987720d49808978820d4870751070628683f8ba710510706285f3f95a73f8268f001d28707543700000109284c3f95680010828878f995690010829970f9956b001082b268f9826b380281bc956b001082bb60f9ae7c0a826c38027ac70183a7826c3002c8c7076f886f996f2a6fbb98bc38787c1f98bc30787c1e98bc28787c1d98bc20787c1c98bc18787c1b98bc10787c1a98bc08787c19787b18787a1098ab38787b1798ab30787b1698ab28787b1598ab20787b1498ab18787b1398ab10787b1298aa08787a11787908989a38787a0f989a30787a0e989a28787a0d989a20787a0c989a18787a0b989a10787a0a989908787909787898893878790798893078790698892878790598892078790498891878790398891078790298880878780195670010837760f93308643300140a0201826ae0018267e8018e77826900028e98da97081407dfffffff00000000d8a707826bd8018eb9dab7098267d001db780951090628113e8ba7055427fe070828063e95a75f8268f001d2780854380000010928f33d95670010827478f995670010827370f995670010827b68f982673802817295670010827c60f983a720ae820c826938027a9864820182683002c878086fc7987c38788c1f987c30788c1e987c28788c1d987c20788c1c987c18788c1b987c10788c1a6fbb78871898770878871998b73878871798b73078871698b72878871598b72078871498b71878871398b7107887126f4a6f37788b1098bb08788b1178870898793878890f98793078890e98792878890d98792078890c98791878890b98791078890a98770878870998a73878870798a73078870698a72878870598a72078870498a71878870398a7107887028267c801826bc001d4b7078269b801826cb001d4c909d49707987720d4b909979920d49707788a98aa08788a0151070628d13c8267c8018b77107b67e80151070628c03c8267c80195773f8268f001d278087b68e00154380000010928a53c8267e001ae720e826738028268e0017a78018167c80182683002c8780a8268a00178a8108269900198973878a70f98973078a70e98972878a70d98972078a70c98971878a70b98971078a70a98970878a70978a9088269980198973878a70798973078a70698972878a70598972078a70498971878a70398971078a70298970878a70178a98269a80178a91898873878a71798873078a71698872878a71598872078a71498871878a71398871078a71298870878a71198973878a71f98973078a71e98972878a71d98972078a71c98971878a71b98981082672802817278a81a9898087b6a680178a819826838025522a40008286c47818856185f0c826938024809600182633002823858823950823a48823b407b6888016f877b6980016f997b6a78016fac7b6b70016fbb8eb88ecadbb80a7b6700028878c08588018e977b69d8017b679801db97087b6cd0017b6ba801d4bc077b6aa0017b679001db7a0851080628c54882670002957840d878098267d801c8970ad87a0bda990b8267d001c87b0bd87b098267a801c879096f996fbb6faa6f887b38587b3a507b3b487b39405522c4000828d74595670010837760f9330884000a0201826700028269d001d497078268d801826aa801d4a808d48707987720d49808978820d4870751070628c13a826700028b771051070628b43a8267000295773f8268f001d28707543700000109289d3a95680010828878f995690010829970f9956a001082aa68f9826b380281bc956b001082bb60f9ae7c0a826c38027ac70181670002826c3002c8c7076f886f996faa6fbb98bc38787c1f98bc30787c1e98bc28787c1d98bc20787c1c98bc18787c1b98bc10787c1a98bc08787c19787b18787a1098ab38787b1798ab30787b1698ab28787b1598ab20787b1498ab18787b1398ab10787b1298aa08787a11787908989a38787a0f989a30787a0e989a28787a0d989a20787a0c989a18787a0b989a10787a0a989908787909787898893878790798893078790698892878790598892078790498891878790398891078790298880878780195670010837760f93308a4000a02011407dfffffff0000000082680002d887078268d80182699801db89078268a00182699001db9807510706286b39826700028b77055427fe0708285c398267000295775f8268f001d2870754370000010928453995680010828378f995680010828470f995680010828068f982683802818895690010829b60f982690002839c207b680002ae780e826838027a877b670002011407dfffffff000000008268c801d887088269b0018e97da9807826ac0018ea28268b8018e89da8209d4a808db890782683002c88c0c6fb898893878c91f98893078c91e98892878c91d98892078c91c98891878c91b98891078c91a6f0978c81898880878c81998983878c81798983078c81698982878c81598982078c81498981878c81398981078c8126f4878c91098990878c91198893878c90f98893078c90e98892878c90d98892078c90c98891878c90b98891078c90a6f3978c80898880878c80998983878c80798983078c80698982878c80598982078c80498981878c80398981078c80278c998990878c901510706280f388267c8018377208b781051080628ff378268c80195895f8268f0017b69b801d2980854380000010928e43782690002ae890e826938027a987b6800020182683002c8780a8269780178a9088268700198873878a70798873078a70698872878a70598872078a70498871878a70398871078a70298870878a70178a88268800178a81098973878a70f98973078a70e98972878a70d98972078a70c98971878a70b98971078a70a98970878a7098269880178a91898873878a71798873078a71698872878a71598872078a71498871878a71398871078a71298870878a71198973878a71f98973078a71e98972878a71d98972078a71c98971878a71b98971082682802818878a71a9897087b6ab00178a7195628e3000828b3428268000256185f0c8268380248086001826a300282a75882a85082a94882aa406f7b6f886f996faa4926f8054926f0054926e8054926e005407b6ac0017b6a18067b69d0017b6910067b68d8017b680806956700069568e0057b6b00027b6b00065010169e748267280281775527040108285e4195670010837780f93308c4000a0201826700028269d001d497078268d801826ac001d4a808d48707987720d49808978820d48707510706284836826700028b7710510706283b368267000295773f8268f001d2870754370000010928243695680010828898f995690010829990f9956a001082aa88f9826b380281bc956b001082bb80f9ae7c0a826c38027ac70181670002826c3002c8c7076f886f996faa6fbb98bc38787c1f98bc30787c1e98bc28787c1d98bc20787c1c98bc18787c1b98bc10787c1a98bc08787c19787b18787a1098ab38787b1798ab30787b1698ab28787b1598ab20787b1498ab18787b1398ab10787b1298aa08787a11787908989a38787a0f989a30787a0e989a28787a0d989a20787a0c989a18787a0b989a10787a0a989908787909787898893878790798893078790698892878790598892078790498891878790398891078790298880878780195670010837780f93308e4000a0201826bd0018eb7826cc0018ec8dac7081407dfffffff0000000082690002d89707826ad8018ea9daa709d4cb07db780951090628ea34826700028b77055427fe070828db348267000295775f8268f001d2780854380000010928c43495670010827398f995670010827a90f995670010827b88f982673802817295670010827c80f982670002837720ae820c826938027a9864820182683002c878086f396faa6fbb6fc7788718987c38788c1f987c30788c1e987c28788c1d987c20788c1c987c18788c1b987c10788c1a987708788719788b1098b73878871798b73078871698b72878871598b72078871498b71878871398b71078871298bb08788b11788a0898a73878870f98a73078870e98a72878870d98a72078870c98a71878870b98a71078870a98aa08788a097889989738788707989730788706989728788705989720788704989718788703989710826a280281aa788702989908788901562a23010828783f56125f0c8268380248086001826a300282a75882a85082a94882aa406f7b6f886f996faa4926b8054926b0054926a8054926a005407b6a90017b6ad8057b6998017b69d0057b68a0017b68c8059567c0059568a0057b6ba8017b6bc0055010186771826728028177552744010828273e956700108377a0f9330804010a02018267a80182699801d497078268a001826a9001d4a808d48707987720d49808978820d487075107062811338267a8018b77105107062804338267a80195773f8268f001d278087b68280254380000010928e9329568ff079588b90182878288f8956900108299a8f9826a380281ab956a001082aaa0f9826c2802aecb0e826b3802826c28027abc01816ba801826c3002c8bc0c6f776f886f996faa98ab3878cb1f98ab3078cb1e98ab2878cb1d98ab2078cb1c98ab1878cb1b98ab1078cb1a98ab0878cb1978ca1878c910989a3878ca17989a3078ca16989a2878ca15989a2078ca14989a1878ca13989a1078ca1298990878c91178c80898893878c90f98893078c90e98892878c90d98892078c90c98891878c90b98891078c90a98880878c80978c798783878c80798783078c80698782878c80598782078c80498781878c80398781078c8029877087b6c880178c701956700108377a0f9330824010a0201826b98018eb7826c90018ec8dac7081407dfffffff000000008269a801d89707826aa0018ea9daa709d4cb07db780951090628a6318267a8018b78057b68a0015428fe07082893318267a80195775f8268f001d278087b6898015438000001092878319568ff079588b90182828288f8956700108279a8f9826a380281ac95670010827aa0f9826ba80183bb2082679801ae7c0e826c3802826798017ac701826c3002c8bc0c6f276f886f996faa78ca1898ab3878cb1f98ab3078cb1e98ab2878cb1d98ab2078cb1c98ab1878cb1b98ab1078cb1a98aa0878ca1978c910989a3878ca17989a3078ca16989a2878ca15989a2078ca14989a1878ca13989a1078ca1298990878c91178c80898893878c90f98893078c90e98892878c90d98892078c90c98891878c90b98891078c90a98880878c80978c798783878c80798783078c80698782878c80598782078c80498781878c80398781078c8029877087b6ca80178c70150101a647882673802817082672802ae700e82673802826028027a70018267a0015327ff0708284d308267980154370000010928403082679801ae700e82673802826098017a70018267a8017c78117c79107c7a127c7b13978808d4980897aa1097bb18d4ba0ad4a8087c79157c7a147c7b167c7c17979908d4a90997bb1097cc18d4cb0bd4b909979920d489027c78097c79087c7a0a7c7b0b978808d4980897aa1097bb18d4ba0ad4a8087c790d7c7a0c7c7b0e7c7c0f979908d4a90997bb1097cc18d4cb0bd4b909979920d489037c78017c797c7a027c7b03978808d4980897aa1097bb18d4ba0ad4a8087c79057c7a047c7b067c7c07979908d4a90997bb1097cc18d4cb0bd4b909979920d489047c78197c79187c7a1a7c7b1b978808d4980897aa1097bb187c791dd4ba0ad4a8087c7a1c9799087c7b1e7c7c1fd4a909826a88017ca71d7b67b00097bb1097cc18d4cb0b7ca71e7b67e000d4b9097ca71f7b67d800979920d498087ca7157b67c8007ca7167b67f0007ca7177b67e8007ca70d7b67f8007ca70e7b6710017ca70f7b6708017ca7057b6718017ca7067b6730017ca7077b6728017ca7197b6738017ca71a7b6748017ca71b7b6740017ca71c7b67a0007ca7117b6750017ca7127b6760017ca7137b6758017ca7147b67a8007ca7097b6770017ca70a7b6780017ca70b7b6778017ca70c7b67b8007ca7017b6790017ca7027b67a0017ca7037b6798017ca7047b67c0007ca7187b67d0007ca7107b6700017ca7087b6720017ca77b678801826930027b6880007b98187b6488007b947b6390007b93087b6298007b921056103f0c826838024808400182683002491830491828491820140700000000000000077b87389517e08479e07b6928026491838783993308407b67a8010a07826a280282a71882a81082a90882aa6f776f886f996faa956bff0795bbb9017bba207bb9187bb8107bb708956780059568ff079588c10150101c8ace7c6780058268380281887b682802510706285b3b8267b0009777088268a000d487008267e0009777108268d800978818d487078268c8009788088269a800d498087b68e0008268f000978810826ce80097cc18d48c028268f8009788088269b800d498087b68f8008268100197881082690801979918d498087b681001826818019788088269c000d498087b681801826a300197aa10826b280197bb18d4ba0a7b6a3001826b380197bb088268d000d4b8087b6838018263480197331082644001974418d43403d407077b674801826c500197cc08826a0001d4ca0a7b6a5001826c600197cc1082605801970018d4c0008267e000d472077b6760018268700197880882672001d47808826c800197cc1082697801979918d4c9098267f800826c1001d47c0c8264900197440882678801d474048267a001977710826b980197bb18d4b707826b180182623001d4b20b826a3801d4a303826a5001d4a00ad49808d4470782694801979920d4390982626001972220d4a20a97cc20d48c0c97bb20d4b707826830027b6788017b877b6c80017b8c087b6a90017b8a107b6998017b89188268280256183f0c826838024808400182683002491830491828491820140700000000000000057b87389517e08477e07b672802647183793308408267a8010a07826a280282a71882a81082a90882aa6f776f886f996faa956bff0795bbb9017bba407bb9387bb8307bb728956760059568ff079588e10150101e6acc7c67600551070628453c82673802817356135f0e330360826738027a730182683002828748828958828a408288506f7b6f976fac6f89d4c908d4b70ad48a0a98aa20d4b808978820d4a80851080628352b8b7810510806282c2b95783f826af001d28a0a543a0000010928192baea30c826838027a8a64a3018372826a3002c82a0a461a1f461a1e461a1d461a1c461a1b461a1a461a19461a18461a17461a16461a15461a14461a13461a12461a11461a10461a0f461a0e461a0d461a0c461a0b461a0a461a09461a08461a07461a06461a05461a04461a03a000461a0279461a01c300d4cb0b140cfcffffff00000000d8c70c949c94bc460a08520c0628852a5332fcff0009287c2a957843826af001d28a0a543a0000010928692a837c04aea30c826838027a8a64a301826a3002c8ca0a461a1f20461a1e461a1d461a1c461a1b461a1a461a19461a18461a17461a16461a15461a14461a13461a12461a11461a10461a0f461a0e461a0d461a0c461a0b461a0a461a09461a08461a07461a06461a05461a04461a03461a02461a011408dcffffff00000000d88708949894b8460a52080628dc295332dcff000928d329957863826af001d28a0a543a0000010928c029837c24aea30c826838027a8a64a301826a3002c8ca0a461a1f08461a1e461a1d461a1c461a1b461a1a461a19461a18461a17461a16461a15461a14461a13461a12461a11461a10461a0f461a0e461a0d461a0c461a0b461a0a461a09461a08461a07461a06461a05461a04461a03461a02461a011408bcffffff00000000d88708949894b8460a5208062833295332bcff0009282a29957883008269f001d28909543900000109281629ae930a826838027a890183784482693002c8980846181f46181e46181d46181c46181b46181a46181946181846181746181646181546181446181346181246181146181046180f46180e46180d46180c46180b46180a461809461808461807744618066f4618056f46180472330b2d788b03461802744618016f46086e33086433005828d2ca51479789ce490a28433449261807492610074926080749260007836700070a0e01826710078268180782690807826a0007d49808d4a707d48707510706280d3482672802817756172307280034836720073308040a0201826720078268380782693007826a2807826b380281b26f886f996faa6f77826c30027bc7187bca107bc9087bc856123f08480b4001491c30491c28491c20140700000000000000087bc7389517e08479e07b692802649183c783993308400a07826a280282a71882a81082a90882aa956bff0795bbb9017bb7c0017bb8b8017bb9b0017bbaa801492be001492bd801492bd001492bc801482be8012095670010837860fb95670010837a80fb95670010837ba0fb3309ff33070a060182693802819856185f0a3308607a9801826b300282b74882b95882ba4082bb506f7c6f976fa96fbad4a909d4c70ad49a0a98aa20d4c909979920d4a9095109aa1e2839275147255fb5b60a28ec328267280281775617230728df32836760073308040a02826778077b67f801826770077b670002826768077b670802826760077b671802501020e76e140700000000000000039568ff079588b9017b87c0014928b8014928b0014928a8014928e0014928d8014928d0014928c8014828e8012095670010837860fb95670010837a80fb95670010837ba0fb3309ff33070a06956aff0795aab90182a7e00182a8d00182a9d80182aac8016f777b6720026f877b6710026f977b67f0016fa77b67e80149269807492690074926880749268007836780070a0e01826798078268880782698007826a9007826be801d3b707826bf001d3b808d4870782681002d38a0a82682002d38909826b380281b4d4a909d4970751070628441e8267f8016f79826700026f77826808026f8a826818026f8c826830027b6c10017b8c187b6a18017b8a107b6720017b87087b6928017b8956143f08480b4001491830491828491820140700000000000000087b87389517e08479e07b6920026491838783993308407b67c8010a07826a200282a71882a81082a90882aa956bff0795bbb9017bb7c0017bb8b8017bb9b0017bbaa801492be001492bd801492bd001492bc801482be8012095670010837860fb95670010837a80fb95670010837ba0fb3309ff33070a0601956aff0795aab90182a7e00182a8d80114090000000000000001d37909d498089877388877019387520706281320140700000000000000047ba7c001492ab801492ab001492aa801492ae001492ad801492ad001492ac801482ae8012095670010837860fb95670010837a80fb95670010837ba0fb3309ff33070a06956bff0795bbb90182b7e00182b8d80182b9d00182bac8016f777b67f0016f877b67c0016f977b67b0016fa77b67b801140700000000000000027bb7c001492bb801492bb001492ba801492be001492bd801492bd001492bc801482be8012095670010837860fb95670010837a80fb95670010837ba0fb3309ff33070a06019568ff079588b9018287d8018288d001977728988818d478024626df034626de034626dd034626dc034626db034626da034626d9034626d8034626d7034626d6034626d5034626d4034626d3034626d2034626d1034626d0034626cf034626ce034626cd034626cc034626cb034626ca034626c9034626c8034626c7034626c6034626c5034626c4034626c3034626c2034626c1034626c003826bb801786bb803826ab001786ab0038269c0017869a8038267f0017867a00398b8387868bf0398b8307868be0398b8287868bd0398b8207868bc0398b8187868bb0398b8107868ba0398b8087868b90398a8387868b70398a8307868b60398a8287868b50398a8207868b40398a8187868b30398a8107868b20398a8087868b1039898387868af039898307868ae039898287868ad039898207868ac039898187868ab039898107868aa039898087868a9039878387868a7039878307868a6039878287868a5039878207868a4039878187868a3039878107868a2039878087868a10397283898883b9569a003c898087c89117c8a107c8b127c8c13979908d4a90997bb1097cc18d4cb0bd4b9097c8a157c8b147c8c167c871797aa08d4ba0a97cc10977718d4c707d4a707977720d49703973701842407854bffcfb7077b6720027c87017c8b7c8c027c8a03977708d4b70797cc1097aa18d4ca0ad4a7077c8a057c8b047c8c067c890797aa08d4ba0a97cc10979918d4c909d4a909979920d479007c87197c89187c8a1a7c8c1b977708d4970797aa1097cc18d4ca0ad47a027c87097c89087c8a0a7c8b0b977708d4970797aa1097bb18d4ba0ad47a0c7c891d7c8a1c7c8b1e7c871f979908d4a90997bb10977718d4b707d497077c890d7c8a0c7c8b0e7c880f979908d4a90997bb10978818d4b808d49808d43009d48707d42c08977720d48707d47909d0490985483f977701cf8707826838028184d4970782692002d4970751070628491f826a300256145f084808600182a75882a85082a94882aa406f7b7b6b38016f8c7b6c30016f987b6840016fa97b6948014926780349267003492668034926600340017b6998037b6890037b6c880395678003956860037b6b8003501022375f826b38018268480182673001d48707826a4001d4ab08d47808988820d4a707977720d4870751070628fe208bb71051070628f52095b75f0149262002e0ff018477e0ff0154370000010928dc20826a380281a8826928028199ae78067aa70182673002beb707330840010a010182693802819756175f0848096001826a300282a75882a85082a94882aa406f7b7b6bf0006f887b6808016f997b6900016faa7b6af8004926380349263003492628034926200340017b6a58037b6950037b68480395674003956820037b6b4003501024655e826bf000826900018268f80082670801d48707d49b08d47808988820d49707977720d48707510706282c208bb71051070628232095b75f0182682002d28707543700000109280f20826a380281a8826928028199ae78067aa70182673002beb707330840010a010182693802819756175f0848096001826a300282a75882a85082a94882aa406f7b7b6be8006f8c7b6ce0006f987b68d8006fa97b69d0004926f8024926f0024926e8024926e002407b6918037b6810037b6c0803956700039568e0027b6b0003501026995d8269e8008268d0008267e000d48707826ad800d4a908d47808988820d4a707977720d4870751070628601f8b971051070628571f95985f826720027b68e801d278087b685801543800000109283c1f82673802817782682802818982685801ae870e82673802826858017a78018167e800826a3002c87a087b689801bea7073308400a01330760000349261002492628027b67a00097772098772014080000000018000000d487077b6798009567a0079777209877209568e007978820d487077b679000826be8008bb7057b67a8008877ff07857701826920028268e801d298087b6850018e88000001d487077b67b0009567c0079777207b67880095b73fd297077b67a00183b72082683002c887077b679001140700000000000000097b6770140700000000640000007b678000140700000000000000027b67a80195670010837760fb7b67c80095670010837780fb7b67c000956700108377a0fb7b67b800287801492628028264d8017c47197c48187c491a7c4a1b977708d4870797991097aa18d4a909d497077c481d7c491c7c4a1e7c4b1f978808d4980897aa1097bb18d4ba0ad4a808978820d478027c48117c49107c4a127c4b13978808d4980897aa1097bb18d4ba0ad4a8087c49157c4a147c4b167c4c17979908d4a90997bb1097cc18d4cb0bd4b909979920d489037c49097c4a087c4b0a7c4c0b979908d4a90997bb1097cc18d4cb0bd4b9097c4a0d7c4b0c7c4c0e7c470f97aa08d4ba0a97cc10977718d4c707d4a707977720d479097c47017c4a7c4b027c4c03977708d4a70797bb1097cc18d4cb0bd4b7077c4a057c4b047c4c067c480797aa08d4ba0a97cc10978818d4c808d4a808978820d487078268f001988801826bc00197ba3fd4a8087b68f00198b801826bb00197ba3fd4a8087b68c00198b801826bb80197ba3fd4a8087b68b0016f777b67f8016f977b6700026f377b6708026f277b67180298bb017b6bb801826710029577018477ff007b671002019568ff079588b9018267a8017b87c0014928b8014928b0014928a8014928e0014928d8014928d0014928c8014828e801203309ff33078268c800826ac000826bb8000a06019563ff079533b9017c37d301826c2802d4cc0a826b1002d87b0794c794a7520706284a1c8267f00184770197b238140800000000000000067b68e80188b90a82683002826438027b62e0015207ca028ec7859801dbc7088ec78ec9dac709daa8097b6c280251090628f126826770c827077b37c0014923b8014923b0014923a8014923e0014923d8014923d0014923c8014823e8012095670010837860fb95670010837a80fb95670010837ba0fb3309ff33070a06018269280298973b979805d4780398973b979805d478008268100298873b979905d4790297870582683801c87804d8840a82683001c8280bc8ab0bd38b0cd88b09daca0982684001c8080ad88a0c82684801c83808c8c808c8a909d8a90ac8a808d4b808d4940ad48a0ad4980898aa20978820d4a808510806283c1b8b481082693802510806282f1b95483f826a2002d28a0a543a00000109281c1b7b63d801819b9568ff079588b901aeab087a9a64ab017b6b2802828bd8018283d0018268f000c8780cd88c08826a0801c82a09c889097b69d001d3a907d8a909da78097b698801956aff0795aab90182a8c801834764c482693002c89707983c38787c0f983c30787c0e983c28787c0d983c20787c0c983c18787c0b983c10787c0a983c08787c09988c38787c07988c30787c06988c28787c05988c20787c04988c18787c03988c10787c02988c08787c0198bc38787c1798bc30787c1698bc28787c1598bc20787c1498bc18787c1382a2e00198bc10787c1298bc08787c11982c38787c1f982c30787c1e982c28787c1d982c20787c1c982c18787c1b982c10787c1a982c08787c1982690001c89000826cf800826ad801c8ac0cd89009c8c909826a8801c80a0ad80a0cc8c909826cd001d4c909d4a40cd49c0cd4a90998cc20979920d4c909787b10787308787878721851090628c31964408b4710826c000251070628b41995073f82692002d2970754370000010928a11933096f887b6860016f387b6868016fb87b6870016f287b687801826818027b688001826808027b6888017b6cd0018268f8017b68d801826b3002826c380282632802ac73ea0328eb037b69d0017b6ad801814749181049180849087b821856173f08480440014918304918284918208267e8017b87389517e08477e07b678801647183793308408267c8010a07826a880182a71882a81082a90882aa956bff0795bbb9017bb7c0017bb8b8017bb9b0017bbaa801492be001492bd801492bd001492bc801482be8012095670010837860fb95670010837a80fb95670010837ba0fb3309ff33070a06018269380282683002956aff0795aab90182a7e0017b67800182a7d8017b67780182a7d0017b67700182a7c8017b6768018197826ae0017b8a18491810491808490856173f08480940014918304918284918208267e8017b87389517e08477e07b678801647183793308408267c8010a07826a880182a71882a81082a90882aa956bff0795bbb9017bb7c0017bb8b8017bb9b0017bbaa801492be001492bd801492bd001492bc801482be8012095670010837860fb95670010837a80fb95670010837ba0fb3309ff33070a0601826928028268d00194988267d801947852080628c52298973b979805d4780b98973b979805d478028264100298473b979805d4780097430582673801c83704d8740982673001c8070ac89a0ad37a0cd87a07dac90782684001c82809d8890c82684801c8b808c8c808c89707d89709c89808d4a808d47409d48909d48707989920977720d49707510706285f178b471082683802826a0801510706284e1795473f82692002d27909543900000109283b177b6bd80181877b672802ae970a7a897b692802019567ff079577b901827cd001647b8267f000c873037b6378d87307c8a000c87000d3a008d8a009da870964b382bac801834782683002c8870798c83878780f98c83078780e98c82878780d98c82078780c98c81878780b98c81078780a98c80878780982b8d801787c0898ab38787b0798ab30787b0698ab28787b0598ab20787b0498ab18787b0398ab10787b0298ab08787b01787a988a38787a17988a30787a16988a28787a15988a20787a14988a18787a13988a10787a12823be00178781098880878781198b83878781f98b83078781e98b82878781d98b82078781c98b81878781b98b81078781a82680001c88202d88208826af8008263d801c8a303c83808c82909d8290ac8a808d48008826a7864a0d49a0ad48a0ad4980898aa20978820d4a808787b1898bb08787b1951080628f2158b0710826b1802826c08028262f8018263280251070628d91595073f82682002d2870754370000010928c615826868016f887b68d801826870016f887b68d001826878016f887b688801826880016f887b688001140900000000000000017b6b78017b6c7001826800027b6868017b626001826b3002826c3802ae73087ac76473018307c8b70746171046170f46170e46170d46170c46170b46170a461709461708461707461706461705461704461703461702461701460778791846171746171646171546171446171346171246171198983878781f98983078781e98982878781d98982078781c98981878781b98981078781a9899087879198267e0017bb718490b491b08491b1056133f08480c4001491b30491b28491b208267e8017bb7389517e08477e07b672802647183793308408267c8010a07826728028272827408827910827a188267f8016f73826700026f7c826708026f77826818026f8b9568ff079588b9017b8ac0017b89b8017b84b0017b82a8017b8be0017b87d8017b8cd0017b83c80195670010837860fb95670010837a80fb3309ff330b2033070a0d018268a001543800000109284214826b380281b7ae87087ab86487018268d8008269d000d48909140800000000010000007b6808021408e0ffffff00000000826ae800d88a08826ae00094a89498826980016f99989a38826c980178ca1f989a3078ca1e989a2878ca1d989a2078ca1c989a1878ca1b989a1078ca1a826a88016faa78c91898990878c91998a93878c91798a93078c91698a92878c91598a92078c91498a91878c91398a91078c9128269d0016f9978ca1098aa0878ca11989a3878ca0f989a3078ca0e989a2878ca0d989a2078ca0c989a1878ca0b989a1078ca0a826ad8016faa78c90898990878c90998a93878c90798a93078c90698a92878c90598a92078c90498a91878c90398a91078c90278ca98aa0878ca019562ff079522b9015208062825138268b000510806281b1382685001ae870a826750017ab701826760016f77826868016f88826970016f99826a78016faa826c900178ca1898ab3878cb1f98ab3078cb1e98ab2878cb1d98ab2078cb1c98ab1878cb1b98ab1078cb1a98aa0878ca1978c910989a3878ca17989a3078ca16989a2878ca15989a2078ca14989a1878ca13989a1078ca1298990878c91178c80898893878c90f98893078c90e98892878c90d98892078c90c98891878c90b98891078c90a98880878c80978c798783878c80798783078c80698782878c80598782078c80498781878c80398781078c80298770878c7018267a8017b27c0014922b8014922b0014922a8014922e0014922d8014922d0014922c8014822e8012095670010837860fb95670010837a80fb95670010837ba0fb3309ff33070a060182623802812456145f0a3304607a240182673002827848827958827a40827b506f8c6f986fa0648a6fb87b681802d40808d4ca09d48909989920d4c808978820d4980851080628ac118ba8109569ff079599b901510806289b1195a83f7b6a2802826a2002d2a803826a2802543300000109288011ae34087a236434018298e0017b6888018298d8017b6880018298d0017b68780183a87b680002c8780846181f46181e46181d46181c46181b46181a46181946181846181746181646181546181446181346181246181146181046180f46180e46180d46180c46180b46180a461809461808461807461806461805461804461803a400461802e500461801227b68d8014608d6008267a001ae74087a27647401d40c09826808029588fcd88a088267180294787b69f801949852080628c210826700025337fcff000928b5108267280295784382672002d27808543800000109289e107b60e0017b6ce801ae84087a28648401826098017c08197c09187c0a1a7c0b1b978808d4980897aa1097bb18d4ba0ad4a8087c091d7c0a1c7c0b1e7c0c1f979908d4a90997bb1097cc18d4cb0bd4b909979920d4890a7c08117c09107c0b127c0c13978808d4980897bb1097cc18d4cb0bd4b8087c09157c0b147c0c167c0717979908d4b90997cc10977718d4c707d49707977720d478087c07097c09087c0b0a7c0c0b977708d4970797bb1097cc18d4cb0bd47b027c090d7c0b0c7c0c0e7c070f979908d4b90997cc10977718d4c707d49707977720d427097c02017c0b7c0c027c0703972208d4b20b97cc10977718d4c707d4b7027c0b057c0c047c07067c000797bb08d4cb0b977710970018d47007d4b707977720d42707826b280283bb04826c3002c8cb0b987c3878bc07987c3078bc06987c2878bc05987c2078bc04987c1878bc03987c1078bc02987c0878bc0178b798973878b70f98973078b70e98972878b70d98972078b70c98971878b70b98971078b70a78b90898990878b90998873878b71798873078b71698872878b71598872078b71498871878b71398871078b71278b81098880878b81198a73878b71f98a73078b71e98a72878b71d98a72078b71c98a71878b71b98a71078b71a78ba1898aa0878ba198267a8005427fe070828b60e826a3802826758018268e8018269e001ae740a826458017aa4018e878e98da9708826708029577db82692802d89707826c18028ec9dac7098267f801db780951090628710e826800025438dbff000928640e8267280295776382682002d27808543800000109284d0e7b63d001ae84087aa8648401826390017c37197c38187c391a7c3a1b977708d4870797991097aa18d4a909d497077c381d7c391c7c3a1e7c3b1f978808d4980897aa1097bb18d4ba0ad4a808978820d478007c37117c38107c39127c3b13977708d4870797991097bb18d4b909d497077c38157c39147c3b167c3c17978808d4980897bb1097cc18d4cb0bd4b808978820d478087c37097c39087c3b0a7c3c0b977708d4970797bb1097cc18d4cb0bd4b7077c390d7c3b0c7c3c0e7c3a0f979908d4b90997cc1097aa18d4ca0ad4a909979920d4790b7c37017c397c3a027c3c03977708d4970797aa1097cc18d4ca0ad47a027c39057c3a047c3c067c3707979908d4a90997cc10977718d4c707d49707977720d42702826a280283a92482673002c8790998b73878970f98b73078970e98b72878970d98b72078970c98b71878970b98b71078970a98b708789709789b08982738789707982730789706982728789705982720789704982718789703982710789702982708789701789298873878971798873078971698872878971598872078971498871878971398871078971278981098880878981198073878971f98073078971e98072878971d98072078971c98071878971b98071078971a826708029577bcd87a078268180294878268f801948778901898080878981951075c0c826cd001826800025538bcff00500c95a7830082682002d2780856380000013e0c82673002826a3802ae84087aa864840182682802838844c87808826b2001788b088269280198973878870798973078870698972878870598972078870498971878870398971078870298970878870178898269180178891098b73878870f98b73078870e98b72878870d98b72078870c98b71878870b98b71078870a98b708788709826b1001788b1898973878871798973078871698972878871598972078871498971878871398971078871298970878871198b73878871f98b73078871e98b72878871d98b72078871c98b71878871b98b71078871a98b70878871982698001989720826b880197b820d4870782687801988820979920d498088269a0007b9898b8207a98107b97084926b8074926b0074926a8074926a007aec4067aac014826c007204926f8074926f0074926e8074926e0078267d801977720987720826b8000d47b0b826c8800d47c0c3308ff3309ff82679800826a90000a01510706283a120a0a01330220ae27080a0a6472013307826ae00195281fd828098499018488e082632802c88303d88308826b1802c89b0bc88b0bd39b0cd89b09dac8098268e801c8980cd88c08c8a8088ec98e8ada890ad48c048269380281908eb9db4a0951090628951556105f0e330060826938027a90016f886fc96fba6f3b826c30027bcb587bca507bc948882a2085aa01947a330b937b3307da7a0b7bc840520b062811158268d001ac80062807ec826738027a7828feeb5147e40ab4c20a28d51595670010492718f995670010492710f995670010492708f995670010492700f995670010837700f90a0e0195670010827710f995680010828818f995690010829908f9956a001082aa00f9d49808d4a707d48707510706287b1582672802817756172307286e1595670010837720f93308040a020195670010827720f995680010828838f995690010829930f9956a001082aa28f9826b380281b26f886f996faa6f77826c30027bc7187bca107bc9087bc856123f08480b4001491c30491c28491c20140700000000000000057bc7389517e08479e07b692802649183c783993308400a07826a280282a71882a81082a90882aa956bff0795bbb9017bb7c0017bb8b8017bb9b0017bbaa801492be001492bd801492bd001492bc801482be8012095670010837860fb95670010837a80fb95670010837ba0fb3309ff33070a060182693802819856185f0a3308607a9801826b300282b74882b95882ba4082bb506f7c6f976fa96fbad4a909d4c70ad49a0a98aa20d4c909979920d4a909520997088b79105209900895793f849be0ff01563b0000018408956aff0795aab90182a9e00182aad801aeb80a826838027a8b018378826b3002c8b808140bffffffffffffff00d39b0be1ab0a9899388e9993a946181e46181d46181c46181b46181a46181946181846181746181646181546181446181346181246181146181046180f46180e46180d46180c46180b46180a461809461808461807461806461805461804461803461802461801460878891f33082050102823aa837833092033070a0b018260300256145f0a3304607ab401820748820958820a408208506f7c6f976fab6f89d4b908d4c70ad48a0a98aa20d4c808978820d4a80852089b078b7810520894073303e0ff0195783fd2380a563a0000018507aea40c826838027a8a64a4018372c8200a461a1f461a1e461a1d461a1c461a1b461a1a461a19461a18461a17461a16461a15461a14461a13461a12461a11461a10461a0f461a0e461a0d461a0c461a0b461a0a461a09461a08461a07461a06461a05461a04461a03a000461a0279461a01c300d4bc0c140bfcffffff00000000d8b70b949b94cb460a08510bf4065532fcff00f006957843848ae0ff01563a000001e1068348837b04aea80c826838027a8a64a401c8b00a461a1f20461a1e461a1d461a1c461a1b461a1a461a19461a18461a17461a16461a15461a14461a13461a12461a11461a10461a0f461a0e461a0d461a0c461a0b461a0a461a09461a08461a07461a06461a05461a04461a03461a02461a011408dcffffff00000000d88708949894c8460a510855065532dcff005106957863848ae0ff01563a00000142068348837b24aea80c826838027a8a64a401c8b00a461a1f10461a1e461a1d461a1c461a1b461a1a461a19461a18461a17461a16461a15461a14461a13461a12461a11461a10461a0f461a0e461a0d461a0c461a0b461a0a461a09461a08461a07461a06461a05461a04461a03461a02461a011408bcffffff00000000d88708949894c8460a5108b6055532bcff00b205957883008489e0ff015639000001a2058344ae940a826838027a890183784482693002c8980846181f46181e46181d46181c46181b46181a46181946181846181746181646181546181446181346181246181146181046180f7446180e6e46180d75330b6f788b0c46180b6d46180a614618092d461808744618076346180665330c72788c05788c04788b03461802634618016e4608693308643300582850a782683802818456145f0a3304607a840182603002820748820958820a408208506f7c6f976fab6f89d4b908d4c70ad48a0a98aa20d4c808978820d4a8085208ce048b78105208c7043303e0ff0195783fd2380a563a000001b804aea40c826838027a8a64a4018372c8200a461a1f461a1e461a1d461a1c461a1b461a1a461a19461a18461a17461a16461a15461a14461a13461a12461a11461a10461a0f461a0e461a0d461a0c461a0b461a0a461a09461a08461a07461a06461a05461a04461a03a000461a0279461a01c300d4bc0c140bfcffffff00000000d8b70b949b94cb460a08510b27045532fcff002304957843848ae0ff01563a0000011404837b04aea40c826838027a8a64a401c8b00a461a1f20461a1e461a1d461a1c461a1b461a1a461a19461a18461a17461a16461a15461a14461a13461a12461a11461a10461a0f461a0e461a0d461a0c461a0b461a0a461a09461a08461a07461a06461a05461a04461a03461a02461a011408dcffffff00000000d88708949894c8460a51088a035532dcff008603957863848ae0ff01563a0000017703837b24aea40c826838027a8a64a401c8b00a461a1f13461a1e461a1d461a1c461a1b461a1a461a19461a18461a17461a16461a15461a14461a13461a12461a11461a10461a0f461a0e461a0d461a0c461a0b461a0a461a09461a08461a07461a06461a05461a04461a03461a02461a011408bcffffff00000000d88708949894c8460a5108ed025532bcff00e902957883008489e0ff015639000001d902ae940a826838027a890183784482693002c8980846181f46181e46181d46181c46181b46181a46181946181846181746181646181546181446181346181274330b6e788b1133026578821046180f6d46180e7446180d6946180c6d46180b6d46180a6f461809634618082d330c67788c07788b06461805694618047446180373461802694618017878823308643300582884a4826c300256145f0e330460826738027a740182c74882c95882ca4082c8506f7b6f976fa96f82d49208d4b70ad48a0a98aa20d4b808978820d4a808520804028b78105208fd013303e0ff0195783fd2380a563a000001ee01aea40c826838027a8a64a4018370c80c0a461a1f461a1e461a1d461a1c461a1b461a1a461a19461a18461a17461a16461a15461a14461a13461a12461a11461a10461a0f461a0e461a0d461a0c461a0b461a0a461a09461a08461a07461a06461a05461a04461a03a000461a0279461a01c300d4b909140bfcffffff00000000d8b70b942b949b460a08510b5d015530fcff005901957843848ae0ff01563a0000014a018348837b04aea80c826838027a8a64a401c8bc0a461a1f20461a1e461a1d461a1c461a1b461a1a461a19461a18461a17461a16461a15461a14461a13461a12461a11461a10461a0f461a0e461a0d461a0c461a0b461a0a461a09461a08461a07461a06461a05461a04461a03461a02461a011408dcffffff00000000d8870894289498460a5108be005530dcff00ba00957863848ae0ff01563a000001ab008348837b24aea80c826838027a8a64a401826a3002c8ba0a461a1f09461a1e461a1d461a1c461a1b461a1a461a19461a18461a17461a16461a15461a14461a13461a12461a11461a10461a0f461a0e461a0d461a0c461a0b461a0a461a09461a08461a07461a06461a05461a04461a03461a02461a011408bcffffff00000000d8870894289498460a51081b5530bcff0018957883008489e0ff0156390000010928f635008267380281778268f8016f8b826800026f8c826808026f8a826818026f88826930027b6810027b98187b6a08027b9a107b6ce0017b9c087b6b00027b9b56173f0c826838024808400182683002491830491828491820140700000000000000057b87389517e08477e07b67280264719517e08477e07b671802647183793308408267c8010a07826a180282a71882a81082a90882aa6f776f8b6f996faa826828027b8a187b89107b8b087b879567c00250102a31a08267c0028268c8028269d802826ad002847700ff867701956b00107bb938f8956900107b9a30f8956900107b9828f8956800107b8720f89568ff079588218267280250102c6ba095670010492758f895670010492750f895670010492748f895680010492840f8049567a0029568ff0795884150102eb99f8267b8028269b002826aa802826ba0029518e08488e0648195bb0188bc01c8ca0ad4ab0c88cc01c89c0cd89c09c897077b8c107b8a087b8bd47a0ad4cb0bd4ba0a7b8718520a06281c3595670010492778f895670010492770f895670010492768f895690010492960f8049567ff07957761501030c39f82673802817782693002826810017b9818826818017b9810826820017b9808826a28017b9a56173f0c826838024808400182683002491830491828491820140700000000000000087b87389517e08477e07b67280264719517e08477e07b671802647183793308408267c8010a07826a180282a71882a81082a90882aa6f776f8b6f996faa826828027b8a187b89107b8b087b8795678002501032a59e826780028268880282699802826a9002847700ff867701956b00107bb998f8956900107b9a90f8956900107b9888f8956800107b8780f89568ff079588810082672802501034de9e8267380281787b68f80156185f11826738024926f8016048076001826a300282a74882a85882a94082aa506f7b6f886f976fa97b67a0017b699801d497077b68b001d4b808d478089888207b6ba801d4b707977720d4870752071efd8267b0018b7710520713fd8267b00195773f82682002d28707563700000101fd8268f801ae780e826838027a877b67f801014926e8014926f001330033038269b001839782683002c88707826b0802787b10826ce00198c83878780f98c83078780e98c82878780d98c82078780c98c81878780b98c81078780a98c808787809787c08826c000298c83878780798c83078780698c82878780598c82078780498c81878780398c81078780298c808787801787c826c1002787c1898b83878781798b83078781698b82878781598b82078781498b81878781398b81078781298b80878781198c83878781f98c83078781e98c82878781d98c82078781c98c81878781b98c81078781a98c8087878191407e0ffffff000000007b67b8017b692802826798017b6708028267a8017b6710028267a0017b671802826948018267400182643801826b30012886027b6af80182633801833ac82a0a7ca8197ca9187cab1a7cac1b978808d4980897bb1097cc18d4cb0bd4b8087ca91d7cab1c7cac1e7ca71f979908d4b90997cc10977718d4c707d49707977720d478087ca7117ca9107cab127cac13977708d4970797bb1097cc18d4cb0bd4b7077ca9157cab147cac1664247ca017979908d4b90997cc10970018d4c00bd4b909979920d4790b7ca0097ca9087cac0a7ca70b970008d4900997cc10977718d4c707d497007ca90d7cac0c7ca70e7ca20f979908d4c909977710972218d47207d49707977720d407097ca2017ca07ca7027cac03972208d4020297771097cc18d4c707d427027cac057ca0047ca7067caa0797cc08d40c0c97771097aa18d4a707d4c707977720d4270c82670002837a6472c84a0a98973878a70f98973078a70e98972878a70d98972078a70c98971878a70b98971078a70a98970878a70978a90898c73878a70798c73078a70698c72878a70598c72078a70498c71878a70398c71078a70298c70878a70178ac98b73878a71798b73078a71698b72878a71598b72078a71498b71878a71398b71078a71278ab1098bb0878ab1198873878a71f98873078a71e98872878a71d98872078a71c98871878a71b98871078a71a78a81898880878a81982672802d8720782680802c878097b69d001d8890ada770a82671002c87a0a7b6ac001d87a0782681802c878087b681802953220d8320c82673001c8c70bd87b00dacc008264e801884c099544018267f001947c884a01c87a0ad4a4088888018269e001c89808d898038267d801d47909c87303949c82694001c80907d8970982604801c809097b64e8017b6af00164806424826800027b6828028268d0017b6808028268c0017b681002510cac01d474087b694801d4b909d498089888207b674001d47909979920d4980852082ff98b48108262300282673802826af801826c2802520818f995483f82692002d2980856380000010af97b643801640483a9ae89087a78648a018268180282691002d498088269b801d89c0982600802940994895109d9f895cc208bc8105208cff895c83f82692002d298085638000001c1f87b6c00027b63d8017b64e0017b6b300183a9ae89d9fc7a78648a28d1fc82673802817756175f0c8268380248086001826a300282a74882a85882a94082aa506f777b6720026f877b6728026f977b6718026fa77b6710020a0a018268180282691002d49808826a200282692802d4a909d48909989920d4a808978820d4980852083bf8987820520834f8826828028b8810520829f882682802c8780883881f8488e0563800000118f8826938028199ae890a826938027a980183787b6838028268300282692802be8909956800107a8700f895670010837800f8649733090a090195670010817700f882683802ac87cdf70a0a0164789877205207c1f7826728027b683802501036f7998378816938023307010a0b014926e801330a492600028267b00195726001d8720782689801c878097b692802d88904da7704140700000000000000ff7b67c0018267a801c874047b641802d8740b8267a001c8b7077b6710028263f80082690001826bf00082680801287e017b6af80183b7c807077c78197c79187c7c1a64ba7c7b1b978808d4980897cc1097bb18d4cb0bd4b8087c791d7c7b1c7c7c1e7c771f979908d4b90997cc10977718d4c707d49707977720d487078328c808088269c001d2970798793878891f98793078891e98792878891d98792078891c98791878891b98791078891a78871898770878871946181746181646181546181446181346181246181146181046180f46180e46180d46180c46180b46180a46180946180846180746180646180546180446180346180246180146089527207b67e001d8270982672802c897087b68d801d87802da990282671802c872027b62d001d87209c894047b64100295a420d8a40b82670801c8b702d87209dabb09826be80188b00995bb01826af00194a088b801c88a0ad4ab08888801826c0802c8c808d8c80382670002d47c0cc8370794c0826c0001c8c909d8c90c8263f800c8c3037b6be80164ac648a7b670002644b64288262e0018267d8017b6728028267d0017b6718025100bd027b6cf0017b6a0802d49b077b680801d43808d487079877207b690001d49808978820d487075207a4f58bb7108260300282693802826af8018264100252078df595b73f82682002d2870756370000017ff583a8ae78087a97647a01826c1802d4c20782682802d44808d48707987720d4c808978820d48707520751f58b271052074af595273f82682002d2870756370000013cf57b63f80083a8ae78ebfd7a97647a28e3fd330733085010386297837833070133090a0b018267380281778269300249191849191049094e487b7149190856173f13826838024808403307000000322837330700000032282f8268300249181849181049084e487b7149180856103f1382683802480840330700000041280933070000004101826830027a872048181c48181848181448181048180c4818084818043307013309248268c8010a0b015247e9a1791f4449269806492690064926880649268006836780060a0e01826790068268980682698806826a8006d49808d4a707d4870752070d826728028177561723508168300233070133090a0b0183b833070133090a0b01491b10491b18491b08490b4e487b71481b2000000041481b14481b18481b1c481b08481b0c481b10481b0483b83307013309240a0b018367a0063308040a02018267a0068268b8068269b006826aa806826b380281bb6f886f996faa6f77826c30027bc7187bca107bc9087bc8561b3f0c826838024808400182683002491830491828491820140700000000000000077b87389517e08479e07b6928026491838783993308400a07826a280282a71882a81082a90882aa6f776f886f996faa7b6ad8067b69d0067b68c8067b67c006956740029568c00650103a38948267380281788267400256289f000e826938024809a000018477ff008e77977738826830024928900049288800492880007b8798008388800033092033070a0b013a072800023a083000027b6778023a073800027b6870023a0a4000027b6768023308a002956960027b6a60028267b00150103cac94956700104927b8f8956700104927b0f8956700104927a8f8956700104927a0f8956700104927d8f8956700104927d0f8956700104927c8f8956800104928c0f8019567ff079577a1009568ff079588c10050103eed9333078268c80133090a0b0149131049131849130849034e487b714813200000004148131448131848131c48130848130c48131048130483383307013309240a0b01833833070133093300400a0b018268280256185f1182673802492628026048076001826a300282a74882a85882a94082aa506f7b6f876f9c6fa9d4c908d4b70ad48a0a98aa20d4b808978820d4a8085208f5f18b78105208eef195783f826af001d2a8085638000001e0f1826a2802ae8a0e826a38027aa87b682802018372826a3002c82a0a461a1f461a1e461a1d461a1c461a1b461a1a461a19461a18461a17461a16461a15461a14461a13461a12461a11461a10461a0f461a0e461a0d461a0c461a0b461a0a461a09461a08461a07461a06461a05461a04461a03a000461a0279461a01c300d4cb0b140cfcffffff00000000d8c70c949c94bc460a08520c062842f15332fcff00092839f1957843826cf001d2c8085438000001092826f1816c2802837a04ae8c0e826c38027ac87b6828020182683002c88a0a461a1f20461a1e461a1d461a1c461a1b461a1a461a19461a18461a17461a16461a15461a14461a13461a12461a11461a10461a0f461a0e461a0d461a0c461a0b461a0a461a09461a08461a07461a06461a05461a04461a03461a02461a011408dcffffff00000000d88708949894b8460a5208062893f05332dcff0009288af0957863826cf001d2c8085438000001092877f0816c2802837a24ae8c0e826c38027ac87b6828020182683002c88a0a461a1f0d461a1e461a1d461a1c461a1b461a1a461a19461a18461a17461a16461a15461a14461a13461a12461a11461a10461a0f461a0e461a0d461a0c461a0b461a0a461a09461a08461a07461a06461a05461a04461a03461a02461a011408bcffffff00000000d88708949894b8460a52080628e4ef5332bcff000928dbef95788300826af001d2a80854380000010928c7ef81632802ae830a826938027a980183784482693002c8980846181f46181e46181d46181c46181b46181a46181946181846181746181646181546181446181346181246181146181046180f46180e46180d46180c7446180b6e46180a6546180970461808734618072d46180679461805644618046146180365461802724618016c460861330864330058287c919568ff079588b90149186049185849185049184801956740059568ff0795880102501042f88f826750057b676001826748057b675001826738028179826740057b6758017b69780156195f118267380249267801604807600182673002827858827950827c48827b406f876f9a6fc86fb98e9c8e8bdb9c0b8ea37b672802887ca085cc017b6aa001dba30cd498077b677001db7b0c510c06286625826c280295c460d8c40b8262a001c8b20ad82a07dabb07c88707d8870bc89b0b6fb36f706fa76f4a826b30027bba587bb7507bb048d48c07d49209d49707987720d49808978820d487077bb340510706284cee826728028b7710510706283fee8267280295773f8268f001d278087b6848015438000001092824ee8267480182687801ae781282673802826248017a727b62780101826a280283a782683002c87809826b9001789b108268800198873878970f98873078970e98872878970d98872078970c98871878970b98871078970a9887087897097898088268880198873878970798873078970698872878970598872078970498871878970398871078970298870878970178988268980178981898b73878971798b73078971698b72878971598b72078971498b71878971398b71078971298b70878971198873878971f98873078971e98872878971d98872078971c98871878971b98871078971a9887081408e0ffffff00000000d88a08826aa00194a8826a700194a87b6998017897195208062817ed826728028b78057b6890015328ff07082804ed8267280295775f8268f001d278087b68880154380000010928e9ec826728028378208267880182697801ae790e82673802826988017a790182673002c8870a8268900078a808826788009879387b69400178a9079879307b69380178a9069879287b69300178a9059879207b69280178a9049879187b69200178a9039879107b69180178a9029879087b69100178a90178a78267980078a7109889387b69f80078a90f9889307b69e80078a90e9889287b69d80078a90d9889207b69c80078a90c9889187b69b80078a90b9889107b69a80078a90a9888087b687878a8098268800078a8189879387b69080178a9179879307b69000178a9169879287b69f00078a9159879207b69e00078a9149879187b69d00078a9139879107b69c00078a9129877087b67b00078a7119887387b67a00078a71f9887307b677078a71e9887287b676878a71d9887207b676078a71c9887187b675878a71b9887107b675078a71a9888087b68487b6a4078a81933076000037b67800183777b6778010a04011407c0ffffff0000000082682802d878078268a00194878268700194875207062861eb826728028b77065327ff03082852eb8267280295777f8268f001d278087b68285438000001092838eb826980018297088298819a106f779879206f88978b20d4b909977b206faa82673802817298aa20d4ba0a98882082672802837b40826728ae720d826738028262287a7201826c3002c8bc0c6f886f996faa78ca18461c0b461c0a461c09461c07461c06461c05461c04461c03461c02461c01460c98ab3878cb1f98ab3078cb1e98ab2878cb1d98ab2078cb1c98ab1878cb1b98ab1078cb1a98aa0878ca1978c910989a3878ca17989a3078ca16989a2878ca15989a2078ca14989a1878ca13989a1078ca1298990878c91178c80898893878c90f98893078c90e98892878c90d9888207b6c1878c80c56125f0e330260826838027a8201826b300282b84082b94882ba5082bb586f876f9c6faa6fb8958b207b68a001d88b08c88a097b6a7001d8a90ada880ac8ca0a7b6c38d8ca087b6730c878087b6b20d4ab0bd49808d48b0b98bb20d4a808978820d4b80851080628e5e98268208b881051080628d9e982682095883f8269f001d2980854380000010928c3e9ae820a826738027a780181672082683002c8780846181f46181e46181d46181c46181b46181a46181946181846181746181646181546181446181346181246181146181046180f46180e46180d46180c46180b46180a461809461808461807461806461805461804461803ea004618029f00461801477b68104608118268a001958724d88708826a7001c88a09d8a90ada880a826838c88a0ad88a08826b30c88b0b7b6908057b670005826708027b673805826710027b673005826718027b672805826720027b6720057b6a100595672005956800057b6b18055010443e298267e80151070628dae88268e00154380000010928cde88267380281788267e0017b682802ae7812826738028268e0017a787b68280201826368017c37117c38107c39127c3a13977708d4870797991097aa18d4a909d497077c38157c39147c3a167c3b17978808d4980897aa1097bb18d4ba0ad4a808978820d478027c38017c397c3a027c3b03978808d4980897aa1097bb18d4ba0ad4a8087c39057c3a047c3b067c3c07979908d4a90997bb1097cc18d4cb0bd4b909979920d489007c39197c3a187c3b1a7c3c1b979908d4a90997bb1097cc18d4cb0bd4b9097c3a1d7c3b1c7c3c1e7c371f97aa08d4ba0a97cc10977718d4c707d4a707977720d479097c37097c3a087c3b0a7c3c0b977708d4a70797bb1097cc18d4cb0bd4b7077c3a0d7c3b0c7c3c0e7c380f97aa08d4ba0a97cc10978818d4c808d4a808978820d487076f7a6f986f076f297b6708027b69e801d497077b682002d4a808d478089888207b6a1002d4a707977720d48707510706286fe7826720028b77105107062862e78267200295773f8268f001d28707543700000109284be78268a0019589647b691802d88909826a7001c89a08d8a80ada990a826b38c8ab09d8b90a826b30c8ba0a826b2802ae7b0e826b38027ab77b6728020182671802d49707d4a808d48707987720d49808978820d4870751070628f0e6826718028b771051070628e3e68267180295773f8268f001d2870054300000010928cce68168200282673002c878087c87197c89187c8b1a7c8c1b977708d4970797bb1097cc18d4cb0bd4b7077c891d7c8b1c7c8c1e7c8a1f979908d4b90997cc1097aa18d4ca0ad4a909979920d479037c87117c89107c8a127c8c13977708d4970797aa1097cc18d4ca0ad4a7077c89157c8a147c8c167c8b17979908d4a90997cc1097bb18d4cb0bd4b909979920d479047c89097c8a087c8b0a7c8c0b979908d4a90997bb1097cc18d4cb0bd4b9097c8a0d7c8b0c7c8c0e7c870f97aa08d4ba0a97cc10977718d4c707d4a707977720d479097c87017c8a7c8b027c8c03977708d4a70797bb1097cc18d4cb0bd4b7077c8a057c8b047c8c067c880797aa08d4ba0a97cc10978818d4c808d4a808978820d4780282672802ae070e826738027a707b602802011407dfffffff0000000082682002d88707826ae8018ea8daa708826b10028eb7826c08028ecadac70ad4cb07db7a08816a180282673002c87a0a98973878a70f98973078a70e98972878a70d98972078a70c98971878a70b98971078a70a98970878a70978a90898273878a70798273078a70698272878a70598272078a70498271878a70398271078a70298270878a70178a298473878a71798473078a71698472878a71598472078a71498471878a71398471078a71278a41098470878a71198373878a71f98373078a71e98372878a71d98372078a71c98371878a71b98371078a71a78a31898370878a71951080628b5e4826720028b77055427fe070828a6e48267200295775f8268f001d27808543800000109288fe48267a00195728400d8720a82677001c8a709d8790bdaaa0b826738c8b70ad87a0b826730c87b0b82672802ae870e826738027a787b68280201d4a208d4b909d49808988820d4a909979920d49808510806283be48b28105108062832e495283f8267f001d27803543300000109281fe482672002837b2082673002c87b0b7cb8197cba187cbc1a7cb71b978808d4a80897cc10977718d4c707d487077cb81d7cba1c7cbc1e7cb91f978808d4a80897cc10979918d4c909d49808978820d478007cb7117cb9107cba127cbc13977708d4970797aa1097cc18d4ca0ad47a047cb9157cba147cbc167cb717979908d4a90997cc10977718d4c707d49707977720d4470a7cb7097cb9087cbc0a7cb80b977708d4970797cc10978818d4c808d478047cb80d7cb90c7cbc0e7cb70f978808d4980897cc10977718d4c707d48707977720d4470c7cb4017cb87cb9027cb703974408d48408979910977718d49707d487047cb8057cb9047cb7067cbb07978808d4980897771097bb18d4b707d48707977720d4470b82672802ae370e826738027a737b63280201832782683002c88707787a1098c83878780f98c83078780e98c82878780d98c82078780c98c81878780b98c81078780a98c808787809787c0898b83878780798b83078780698b82878780598b82078780498b81878780398b81078780298b808787801787b78701898a83878781798a83078781698a82878781598a82078781498a81878781398a81078781298aa08787a1198083878781f98083078781e98082878781d98082078781c98081878781b98081078781a9808088269c8018b99057878195429fe0708282de28267f0018268b801d287075437000001092819e282682802ae780e826838027a877b672802018263b0017c37117c38107c39127c3a13977708d4870797991097aa18d4a909d497077c38157c39147c3a167c3b17978808d4980897aa1097bb18d4ba0ad4a808978820d478027c38017c397c3a027c3b03978808d4980897aa1097bb18d4ba0ad4a8087c39057c3a047c3b067c3c07979908d4a90997bb1097cc18d4cb0bd4b909979920d489007c39197c3a187c3b1a7c3c1b979908d4a90997bb1097cc18d4cb0bd4b9097c3a1d7c3b1c7c3c1e7c371f97aa08d4ba0a97cc10977718d4c707d4a707977720d479097c37097c3a087c3b0a7c3c0b977708d4a70797bb1097cc18d4cb0bd4b7077c3a0d7c3b0c7c3c0e7c380f97aa08d4ba0a97cc10978818d4c808d4a808978820d487076f7a6f986f076f297b6708027b69e801d497077b682002d4a808d478089888207b6a1002d4a707977720d4870751070628c9e0826720028b771051070628bce08267200295773f8268f001d2870754370000010928a5e08268a0019589a4007b691802d88909826a7001c89a08d8a80ada990a826b38c8ab09d8b90a826b30c8ba0a826b2802ae7b0e826b38027ab77b6728020182671802d49707d4a808d48707987720d49808978820d487075107062849e0826718028b7710510706283ce08267180295773f8268f001d287005430000001092825e08168200282673002c878087c87197c89187c8b1a7c8c1b977708d4970797bb1097cc18d4cb0bd4b7077c891d7c8b1c7c8c1e7c8a1f979908d4b90997cc1097aa18d4ca0ad4a909979920d479037c87117c89107c8a127c8c13977708d4970797aa1097cc18d4ca0ad4a7077c89157c8a147c8c167c8b17979908d4a90997cc1097bb18d4cb0bd4b909979920d479047c89097c8a087c8b0a7c8c0b979908d4a90997bb1097cc18d4cb0bd4b9097c8a0d7c8b0c7c8c0e7c870f97aa08d4ba0a97cc10977718d4c707d4a707977720d479097c87017c8a7c8b027c8c03977708d4a70797bb1097cc18d4cb0bd4b7077c8a057c8b047c8c067c880797aa08d4ba0a97cc10978818d4c808d4a808978820d4780282672802ae070e826738027a707b602802011407dfffffff0000000082682002d88707826ae8018ea8daa708826b10028eb7826c08028ecadac70ad4cb07db7a08816a180282673002c87a0a98973878a70f98973078a70e98972878a70d98972078a70c98971878a70b98971078a70a98970878a70978a90898273878a70798273078a70698272878a70598272078a70498271878a70398271078a70298270878a70178a298473878a71798473078a71698472878a71598472078a71498471878a71398471078a71278a41098470878a71198373878a71f98373078a71e98372878a71d98372078a71c98371878a71b98371078a71a78a31898370878a719510806280ede826720028b77055427fe070828ffdd8267200295775f8268f001d2780854380000010928e8dd8267a0019573c400d8730a82677001c8a709d8790bdaaa0b826738c8b70ad87a0b826730c87b0b82672802ae870e826738027a787b68280201d4a308d4b909d49808988820d4a909979920d498085108062894dd8b3810510806288bdd95383f8267f001d278025432000001092878dd82672002837b2082673002c87b0b7cb8197cba187cbc1a7cb91b978808d4a80897cc10979918d4c909d498087cb91d7cba1c7cbc1e7cb71f979908d4a90997cc10977718d4c707d49707977720d487007cb7117cb9107cba127cbc13977708d4970797aa1097cc18d4ca0ad47a047cb9157cba147cbc167cb717979908d4a90997cc10977718d4c707d49707977720d4470a7cb7097cb9087cbc0a7cb80b977708d4970797cc10978818d4c808d478047cb80d7cb90c7cbc0e7cb70f978808d4980897cc10977718d4c707d48707977720d4470c7cb4017cb87cb9027cb703974408d48408979910977718d49707d487047cb8057cb9047cb7067cbb07978808d4980897771097bb18d4b707d48707977720d4470b82672802ae270a826738027a7201833782683002c8870798c83878780f98c83078780e98c82878780d98c82078780c98c81878780b98c81078780a98c808787809787c0898b83878780798b83078780698b82878780598b82078780498b81878780398b81078780298b808787801787a10787b78701898a83878781798a83078781698a82878781598a82078781498a81878781398a81078781298aa08787a1198083878781f98083078781e98082878781d98082078781c98081878781b98081078781a9808087878198268a0019587e400d88708826a7001c88a09d8a90ada880a826838c88a0ad88a08826b30c88b0b7b6ad0047b69c8047b67c0048267c0017b67f8048267d0017b67f0048267d8017b67e804826700027b67e0049567e0049568c0047b6bd8045010468f1b8268a001958724017b672002d8870982687001c89807d8870a82683802818bda990a826838c8a809d8890a826830c88a0a826848017b6b2802ae8b1282683802826b48017a8b7b6b280201826b2002d49b0bd4a707d47b0b98bb20d49707977720d4b70751070628cbda826720028b771051070628beda8267200295773f8268f001d2870454340000010928a7da826398017c37197c39187c3b1a7c3c1b977708d4970797bb1097cc18d4cb0bd4b7077c391d7c3b1c7c3c1e7c381f979908d4b90997cc10978818d4c808d49808978820d478027c37117c38107c3b127c3c13977708d4870797bb1097cc18d4cb0bd4b7077c38157c3b147c3c167c3a17978808d4b80897cc1097aa18d4ca0ad4a808978820d4780b7c37097c38087c3a0a7c3c0b977708d4870797aa1097cc18d4ca0ad47a007c380d7c3a0c7c3c0e7c370f978808d4a80897cc10977718d4c707d48707977720d4070c7c37017c387c3a027c3903977708d4870797aa10979918d4a909d479007c38057c39047c3a067c3707978808d4980897aa10977718d4a707d48707977720d4070782682802ae480e826838027a847b642802018168200282693002c89808788b1098c93878890f98c93078890e98c92878890d98c92078890c98c91878890b98c91078890a98c908788909788c08987938788907987930788906987928788905987920788904987918788903987910788902987908788901788778821898b73878871798b73078871698b72878871598b72078871498b71878871398b71078871298bb08788b1198273878871f98273078871e98272878871d98272078871c98271878871b98271078871a982708788719826790015427fe070828c0d88268880154380000010928b3d88267a001957844017b682002d8780982687001c89807d8870ada990a826838c8a809d8890a826830c88a0a82688801826b2802ae8b1282683802826b88017a8b7b6b280201826b2002d49b0bd4a707d47b0b98bb20d49707977720d4b707510706284fd8826720028b77105107062842d88267200295773f8268f001d28703543300000109282bd88262407c27197c29187c2b1a7c2c1b977708d4970797bb1097cc18d4cb0bd4b7077c291d7c2b1c7c2c1e7c281f979908d4b90997cc10978818d4c808d49808978820d478047c27117c28107c2b127c2c13977708d4870797bb1097cc18d4cb0bd4b7077c28157c2b147c2c167c2a17978808d4b80897cc1097aa18d4ca0ad4a808978820d4780b7c27097c28087c2a0a7c2c0b977708d4870797aa1097cc18d4ca0ad4a7077c280d7c2a0c7c2c0e7c290f978808d4a80897cc10979918d4c909d49808978820d4780c7c27017c287c29027c2a03977708d4870797991097aa18d4a909d479007c28057c29047c2a067c2707978808d4980897aa10977718d4a707d48707977720d4070782682802ae380e826838027a837b632802018168200282693002c8980898c93878890f98c93078890e98c92878890d98c92078890c98c91878890b98c91078890a98c908788909788c08987938788907987930788906987928788905987920788904987918788903987910788902987908788901788b10788778841898b73878871798b73078871698b72878871598b72078871498b71878871398b71078871298bb08788b1198473878871f98473078871e98472878871d98472078871c98471878871b98471078871a9847087887198267a001957864017b682002d8780882697001c88907d8970ada880a826938c8a908d8980a826930c89a0a826928826b2802ae9b1182693802826b287a9b7b6b280201826b2002d48b0bd4a707d47b0b98bb20d48707977720d4b70751070628efd5826720028b771051070628e2d58267200295773f8268f001d2870354330000010928cbd58262187c27197c28187c2b1a7c2c1b977708d4870797bb1097cc18d4cb0bd4b7077c281d7c2b1c7c2c1e7c291f978808d4b80897cc10979918d4c909d49808978820d478047c27117c29107c2b127c2c13977708d4970797bb1097cc18d4cb0bd4b7077c29157c2b147c2c167c2a17979908d4b90997cc1097aa18d4ca0ad4a909979920d4790b7c27097c29087c2a0a7c2c0b977708d4970797aa1097cc18d4ca0ad4a7077c290d7c2a0c7c2c0e7c280f979908d4a90997cc10978818d4c808d49808978820d4780c7c27017c287c29027c2a03977708d4870797991097aa18d4a909d479007c28057c29047c2a067c2707978808d4980897aa10977718d4a707d48707977720d4070782682802ae380e826838027a837b632802018169200282683002c8890998c83878980f98c83078980e98c82878980d98c82078980c98c81878980b98c81078980a98c808789809789c08987838789807987830789806987828789805987820789804987818789803987810789802987808789801789b10789798b73878971798b73078971698b72878971598b72078971498b71878971398b71078971298bb08789b1198473878971f98473078971e98472878971d98472078971c98471878971b98471078971a8267a001826a38d4a70782687001826b30d4b808d48707987720d4a808978820d4870778941898480878981951070628c8d38267a0018b771051070628bbd38267a00195773f8268f001d278087b68200254380000010928a0d38267280282682002ae870e82673802826820027a78018269a001839782683002c8780846181f6446181e0146181d46181c46181b46181a46181946181846181746181646181546181446181346181246181146181046180f46180e46180d46180c46180b46180a4618094618084618074618064618054618044618034618024618017b68280246084926980449269004492688044926800484018267307b67b8048267387b67b004826770017b67a8049567a004956880047b69a004501048ed1082673802817782682002ae870e82673802826820027a7801826428027c47117c48107c49127c4a13977708d4870797991097aa18d4a909d497077c48157c49147c4a167c4b17978808d4980897aa1097bb18d4ba0ad4a808978820d478027c48017c497c4a027c4b03978808d4980897aa1097bb18d4ba0ad4a8087c49057c4a047c4b067c4c07979908d4a90997bb1097cc18d4cb0bd4b909979920d489037c49197c4a187c4b1a7c4c1b979908d4a90997bb1097cc18d4cb0bd4b9097c4a1d7c4b1c7c4c1e7c471f97aa08d4ba0a97cc10977718d4c707d4a707977720d479097c47097c4a087c4b0a7c4c0b977708d4a70797bb1097cc18d4cb0bd4b7077c4a0d7c4b0c7c4c0e7c480f97aa08d4ba0a97cc10978818d4c808d4a808978820d487076f777b6728026f977b6720026f377b6718026f277b6710020a0801826850016f88978920826a60016faa98aa20d4a909826a58016faa97ab20988820d4b80898aa20826b80017aba107bb8087bb98268180282691002d4980882692002649b826a2802d4a909d48909d4a808989920978820d498089569ff079599b90149298000491978491970491968510806282cd1826820c8b80883881f8488e05438000001092817d1826938028199ae890a826938027a9801956aff0795aab901482a880083b88e888e77fc08d487079a787ba8c0007ba8b8007ba8b0007ba8a800826880019788209888209777237b681802d487079568ff07958821029788209888209569ff0795996102979920d4890a82681097882098882097bb20d48b0b82683002978820988c209568ff07958841029788207b6c2002d48c0c3308ff3309ff0a7b6728029567600450104ae115826738028178826728025207680782693002826788007b97826790007b9708826798007b9710826a80007b9a1856183f0c826838024808400182683002491830491828491820140700000000000000077b87389517e08477e07b67280264719517e08477e07b671002647183793308408267a8010a07826a100282a71882a81082a90882aa6f776f8b6f996faa826828027b8a187b89107b8b087b879567400450104cae70ff826740048268480482695804826a5004847700ff867701956bff0795bbb9017bb9e0007bbad8007bb8d0007bb7c8009568ff07958881028267280250104eee70ff9568ff079588b901492800014928f8004928f0004928e80003956720049568ff079588a1025010504270ff826720047b672802826728047b671002826730047b670802826738047b670002826778010a04826780018178107b68e80182787b68e0018278087b68d8010a08826980018268d8017b98088268e0017b988268e8017a98109569ff079599b901826800027b982001826808027b981801826810027b981001826828027b980801482928018e77fc089a787b9860017b9858017b9850017b98480197772382681802d487079568ff079588c1029788209888209569ff0795990103979920d4890a9568ff079588e102978820826b2002d4b80c3308ff3309ff0a7b67200295670004501052e9138269f801829718829810829b829908d48b0ad479097b6b28028bb710826b2002520b4208d49a0a98aa20d49808978820d4a808510806283ece5107062838ce8267280295773f8268f001d287075437000001092821ce826838028188ae780a826838027a87018167280282683002c887077c78117c79107c7a127c7b13978808d4980897aa1097bb18d4ba0ad4a8087c79157c7a147c7b167c7c17979908d4a90997bb1097cc18d4cb0bd4b909979920d489027c79017c7a7c7b027c7c03979908d4a90997bb1097cc18d4cb0bd4b9097c7a057c7b047c7c067c780797aa08d4ba0a97cc10978818d4c808d4a808978820d498037c78197c7a187c7b1a7c7c1b978808d4a80897bb1097cc18d4cb0bd4b8087c7a1d7c7b1c7c7c1e7c791f97aa08d4ba0a97cc10979918d4c909d4a909979920d4890a7c78097c79087c7b0a7c7c0b978808d4980897bb1097cc18d4cb0bd4b8087c790d7c7b0c7c7c0e7c770f979908d4b90997cc10977718d4c707d49707977720d487076f777b6718026fa77b6710026f377b6708026f277b672002826778010a040182670802647482682002d4870782681002648282691802d49808d47808988820d49707977720d4870751070628b1cc8b271051070628a8cc95273f8268f001d278085438000001092895cc6490826a800182a70882a981ab106f77987a206f99979c20d4ca0a977c208267380281736fbb98bb20d4cb0b989920ae830c826738027a786483018328826c3002c8c8086f996faa6fbb98bc38788c1f98bc30788c1e98bc28788c1d98bc20788c1c98bc18788c1b98bc10788c1a98bc08788c19788b18788a1046180b46180a461809461807461806461805461804461803461802461801460898ab38788b1798ab30788b1698ab28788b1598ab20788b1498ab18788b1398ab10788b1298aa08788a11788908989a38788a0f989a30788a0e989a28788a0d989920d4400a140be0ffffff00000000d8b20b82672002947b94ab78890c520b062898cb8b28055328ff0708288dcb95285f8269f001d29808543800000109287acbae830a826738027a7801642783292082683002c88909826898007898108268f80078980f8268e80078980e8268d80078980d8268c80078980c8268b80078980b8268a80078980a82687878980982689000789808826840017898078268380178980682683001789805826828017898048268200178980382681801789802826810017898018268880078988268800078981882680801789817826800017898168268f0007898158268e0007898148268d0007898138268c0007898128268b0007898118268a00078981f82687078981e82686878981d82686078981c82685878981b82685078981a8268487898193a080800027b68f8033a0b1000023a081800023a0a2000027b6bf0037b68e8039569e0037b6ae00382682802501054296cff9568ff079588b901492880014928780149287001492868014928a001492898014928900149288801019567ff07957721039568ff0795884103501056816bff33078268a80133090a0b018344ae940a826838027a890183784482693002c8980846181f46181e46181d46181c46181b46181a46181946181846181746181646181546181446181346181246181146181046180f46180e46180d46180c46180b46180a4618094618086c4618076c46180675461805664618042d46180365461802654618017246087433086433005828cb6bff7889330864501058c26bff83783307013309640a0b018267380281778269300249191849191049094e487b7149190856173f14826838024808403307000000112895d4330700000011288cd48268300249181049181849180849084e487b714818200000004148181448181848181c48180848180c4818104818043307013309248268a80133005a0a0b0156185f0e330860826738027a7801826b300282b74882b95882ba4082bc506f7b6f976fa36fc2d43209d4b70ad49a0a98aa20d4b909979920d4a90951090628bcc88b791051090628b3c895793f826af001d2a90954390000010928a0c8ae980c826838027a896498018374826a3002c84a0a461a1f461a1e461a1d461a1c461a1b461a1a461a19461a18461a17461a16461a15461a14461a13461a12461a11461a10461a0f461a0e461a0d461a0c461a0b461a0a461a09461a08461a07461a06461a05461a04461a03a000461a0279461a01c300d43b0b1409fcffffff00000000d89709942994b9460a08520906280cc85334fcff00092803c8957943826af001d29a0a543a0000010928f0c78389837c04aea90c826838027a8a64a801826a3002c8ca0a461a1f20461a1e461a1d461a1c461a1b461a1a461a19461a18461a17461a16461a15461a14461a13461a12461a11461a10461a0f461a0e461a0d461a0c461a0b461a0a461a09461a08461a07461a06461a05461a04461a03461a02461a011409dcffffff00000000d89709942994b9460a5209062861c75334dcff00092858c7957963826af001d29a0a543a000001092845c78389837c24aea90c826838027a8a64a801826a3002c8ca0a461a1f0d461a1e461a1d461a1c461a1b461a1a461a19461a18461a17461a16461a15461a14461a13461a12461a11461a10461a0f461a0e461a0d461a0c461a0b461a0a461a09461a08461a07461a06461a05461a04461a03461a02461a011409bcffffff00000000d89709942994b9460a52090628b6c65334bcff000928adc695798300826bf001d2b9095439000001092899c68388ae980a826838027a890183784482693002c8980846181f46181e46181d46181c46181b46181a46181946181846181746181646181546181446181346181246181146181046180f46180e46180d46180c6646180b6f46180a6f46180972461808704618072d461806643309697889054618046c46180361461802764618016e2890fcd49a0a98aa20d49808978820d4a8085108062800c651070628fac58267280295773f8268f001d2870754370000010928e3c5826838028183ae730c826838027a876473018167280282683002c887077c79117c7a107c7b127c7c13979908d4a90997bb1097cc18d4cb0bd4b9097c7a157c7b147c7c167c781797aa08d4ba0a97cc10978818d4c808d4a808978820d498027c78017c7a7c7b027c7c03978808d4a80897bb1097cc18d4cb0bd4b8087c7a057c7b047c7c067c790797aa08d4ba0a97cc10979918d4c909d4a909979920d489047c78197c79187c7b1a7c7c1b978808d4980897bb1097cc18d4cb0bd4b8087c791d7c7b1c7c7c1e7c7a1f979908d4b90997cc1097aa18d4ca0ad4a909979920d4890c7c78097c79087c7a0a7c7b0b978808d4980897aa1097bb18d4ba0ad4a8087c790d7c7a0c7c7b0e7c770f979908d4a90997bb10977718d4b707d49707977720d487076f7b6fc76f4c6f22d4c208d4b709d48909989920d4b808978820d49808510806289cc48b78105108062893c495783f8269f001d289095439000001092880c4ae930c826838027a896493018379826a3002c89a0a461a1f461a1e461a1d461a1c461a1b461a1a461a19461a18461a17461a16461a15461a14461a13461a12461a11461a10461a0f461a0e461a0d461a0c461a0b461a0a461a09461a08461a07461a06461a05461a04461a03a000461a0279461a01c300d4cb0b140cfcffffff00000000d8c70c942c94bc460a08520c0628ecc35339fcff000928e3c3957843826af001d28a0a543a0000010928d0c3837c04aea30c826838027a8a64a301826a3002c8ca0a461a1f20461a1e461a1d461a1c461a1b461a1a461a19461a18461a17461a16461a15461a14461a13461a12461a11461a10461a0f461a0e461a0d461a0c461a0b461a0a461a09461a08461a07461a06461a05461a04461a03461a02461a011408dcffffff00000000d88708942894b8460a5208062843c35339dcff0009283ac3957863826af001d28a0a543a000001092827c3837c24aea30c826838027a8a64a301826a3002c8ca0a461a1f0e461a1e461a1d461a1c461a1b461a1a461a19461a18461a17461a16461a15461a14461a13461a12461a11461a10461a0f461a0e461a0d461a0c461a0b461a0a461a09461a08461a07461a06461a05461a04461a03461a02461a011408bcffffff00000000d88708942894b8460a520806289ac25339bcff00092891c2957883008269f001d28909543900000109287dc2ae930a826838027a890183784482693002c8980846181f46181e46181d46181c46181b46181a46181946181846181746181646181546181446181346181246181146181046180f46180e46180d6446180c6546180b6c46180a6946180961461808664618072d46180674330b6e788b05461804654618036d46180279461801613309702872f89511e07b10187b15107b1608827a18827010827208827c8287828318828b0882881095751fd87507c87b06d8b60bda770bc8b807d887098455e0c8c504d8540bc82608c8b808d36805d86806da5b06c80705c8650bd85b06d87507c8a303c83909c89707c867078e7933034c00028eb6db7906d47b0939054c00027b158e85db9605520563d8c409d3280cd82806dac906d80b09d3a70cd8a70adac90ad30b09d4c909da960a520a3f821a561a5f0b20034c000260016f7733096000026fba6f886f4b3e0bb800023e08b000023e0aa800023e07a00002821018821510821608951120320033086000022103780002210370000221036000024e487b712103680002821956193f0b20034c0002400120038000020000004120037c000220037800022003740002200370000220036c000220036800022003640002838833070133092433005c0a0b019511e87b10107b15087b16829c1882951082938294088ec28e5adbc20a8e4288390a859901db4209d4c50bdbba0952096e828218828010828a088288985b3b97cc05d4cb0b984c3b975505d45c0c98353b974405d45405973305c83808d83809c85a0ac89a0ad35a06d85a05da6905c8c000c80505d80509d8c00cc82b0bc8cb0bc8b9097b787b7a087b75107b791882101082150882169511183200330860000239094c00022103780002210370000221036000024e487b71210368000256193f0b20034c0002400120038000020000003220037c000220037800022003740002200370000220036c000220036800022003640002838833070133092433005e0a0b019511807b10787b15707b1668827210827018827908827bd40907d42b0ad47a0a98aa20d42707977720d4a7075207eb048bb7105207e40495b73f847ce0ff01563c000001d8047b1b607b193833074c0002828a18828610828908390b4c00028288aecb0b3d0c4c000264cb01d4680cd4a905d45c0c98cc20d46505975520d45c0c520c96047b10287b19087b12307b16107b1a188b8c10520c8004958c3f84c4e0ff0156340000017404491120e0ff017b18507b174833076000028115607b1758c875057c5c197c57187c5a1a7c591b97cc08d4c70797aa10979918d4a909d497077c591d7c5a1c7c5c1e7c561f979908d4a90997cc10976618d46c0cd4c909979920d479027c57117c59107c5a127c5c13977708d4970797aa1097cc18d4ca0ad4a7077c59157c5a147c5c167c5617979908d4a90997cc10976618d46c0cd4c909979920d479007c57097c59087c5a0a7c5c0b977708d4970797aa1097cc18d4ca0ad4a7077c590d7c5a0c7c5c0e7c560f979908d4a90997cc10976618d46c0cd4c909979920d479037c57017c597c5a027c5c03977708d4970797aa1097cc18d4ca0ad4a7077c59057c5a047c5c067c5507979908d4a90997cc10975518d45c0cd4c909979920d4790c7b1b40ae4b0c8217487a747b1440018214508345821758c8750578501098373878570f98373078570e98372878570d98372078570c98371878570b98371078570a98370878570978530898c73878570798c73078570698c72878570598c72078570498c71878570398c71078570298c708785701785c78521898073878571798073078571698072878571598072078571498071878571398071078571298070878571198273878571f98273078571e98272878571d98272078571c98271878571b98271078571a9822088217308e798218288e8ada890a1409dfffffff00000000821b60d8b9098216388e6cda690cd48709db9a0c785219520c54028bb7058213488210408218205627fe07440295b75fd2870956390000013802ae90087a39649001821c108ec7821b188eb9dab7091407dfffffff00000000d847078215088e5ada570ad4bc07db790a520a01028b47055627fe07fa0195475fd287025632000001ee01821760837b20821758c87b0b7cb7197cba187cbc1a7cb61b977708d4a70797cc10976618d46c0cd4c7077cba1d7cbc1c7cb61e7cb51f97aa08d4ca0a976610975518d46505d45a0a97aa20d4a7077cba117cbc107cb6127cb51397aa08d4ca0a976610975518d46505d45a0a7cbc157cb6147cb5167cb81797cc08d46c0c975510978818d45808d4c808978820d48a0a7cb8097cbc087cb60a7cb50b978808d4c808976610975518d46505d458087cbc0d7cb60c7cb50e7cb90f97cc08d46c0c975510979918d45909d4c909979920d4890c7cb8017cb97cb6027cb503978808d49808976610975518d46505d458087cb9057cb6047cb5067cbb07979908d4690997551097bb18d45b0bd4b909979920d4890bae20067a3201821850838820821958c89808788a1098c93878890f98c93078890e98c92878890d98c92078890c98c91878890b98c91078890a98c908788909788c0898b93878890798b93078890698b92878890598b92078890498b91878890398b91078890298b908788901788b78871898a93878891798a93078891698a92878891598a92078891498a91878891398a91078891298aa08788a1198793878891f98793078891e98792878891d98792078891c98791878891b98791078891a987708788719821078821570821668951180003200009511807b10787b15707b1668951580008411e07b17500a0a01510702020a0a0133094c0002390a4c0002561a5f0d330a603d0a4c0002017b1a187b1928330b6000023a08a000023a09a800023a0ab800027b1b483a0bb000026f836f926fac6fbb95781f7b1720d878098488e0958a3fd88a08c8980884aae0c8b808c8ac077b1c58d8c709c89800d3b0087b1b40d8b00cda890cc8c20bd82b09c893088eb48e86da8406d48b048e0adb460a520a9901d3380ad83806dba609d32b06d46a0adba90c520c83016f886fb96f0a6f7b8217487b7b587b7a507b7948821b58d42b09821640d4360ad4a909989920d42a0a97aa20d4a9097b7840520922018bb81052081b0183ba3f84a8e0ff0156380000010f017b1a107b12307b1338821918ae89098219287a980183b8c878088217206f7798793878891f98793078891e98792878891d98792078891c98791878891b98791078891a98790878891978871846181746181646181546181446181346181246181146181046180f46180e46180d46180c46180b46180a46180946180846180746180646180546180446180346180246180146080a0a01821b58821838821930d498081409e0ffffff00000000d89b099469948951095598782052084f8bb805821c285528ff0746821810be78088488e056380000013881ca95b920ae8a067ac8018376821848be89097a1760831860649733090a0901811760821838821930821a40821b58ae670e00330a33093308330b60018217507b7b7b7a087b79107b781895518082107882157082166895118000320082184849181049181849180849084e487b714818200000004148181448181848181c48180848180c48181048180483883307013309243300600a0b01951160ff7b1098007b1590007b1688009515a0008411e049115849115049114849114049117849117049116849116048112020831840831a60831b203309ff33070a0601821770821860821968821a78d4780814070000000000000002d37a0ad4a909d498085108414911584911504911484911404911704911684911607b1778831840831a603309ff330b2033070a0d955160ff8210980082159000821688009511a000320033024c0002390a4c0002561a5f0d330a603d0a4c00020133066000023a07a800023a09b800023a0ba000023a08b000026f7c6f976fbb6f80d4b008d4c709d48909989920d4c808978820d49808520802028b78105208fb013304e0ff0195783fd248095639000001ec01ae9a0b3d094c0002649a0183797b1918c8690946191f46191e46191d46191c46191b46191a46191946191846191746191646191546191446191346191246191146191046190f46190e46190d46190c46190b46190a461909461908461907461906461905461904461903a00046190279461901c300d4bc03140bfcffffff00000000d8b70b940b943b460908510b59018219185539fcff0052019578438489e0ff0156390000014301837b04ae9a0b3d094c0002649a01c8b60946191f2046191e46191d46191c46191b46191a46191946191846191746191646191546191446191346191246191146191046190f46190e46190d46190c46190b46190a4619094619084619074619064619054619044619034619024619011408dcffffff00000000d887089408943846095108ba008219185539dcff00b3009578638489e0ff015639000001a400837b24ae9a0b3d094c0002649a01c8b60946191f1f46191e46191d46191c46191b46191a46191946191846191746191646191546191446191346191246191146191046190f46190e46190d46190c46190b46190a4619094619084619074619064619054619044619034619024619011408bcffffff00000000d8870894089438460951081b8219185539bcff0015957883008489e0ff0154390000010700ae9a093d094c000201837844c8860646161f46161e6c46161d6c46161c6133026378621b46161a20330374786319330b6e786b1846161761330c72786c16786315786b144616136546161265786c114616102046160f3a46160e64786c0d46160c6146160b7546160a4746160979786208786b0746160661786c05786304786b034616026546160165460652330864501062cb56ff83783307013309640a0b330733006428eb56ff3307501064e556ff330701501066dc56ff00499294a4aa24254994a492a42a494992922425294955559292a42495242549822449928412865425a95292a44992208484a134290d8910111109112232841002081111d1888824491422d188248410a1a82411492a492a29114992245145912492244922114902119168916a844888401449d42449922449922449529224499224499254004952119100529120211091440391244992244992244952922449922449925400492451914824128944221140249244229124894422914892244924128924499288888888482a80888888881011a98888001244444444442415408488888888482a808888888888a4469168244955a5489288244952952449922412890412b544881091104288104208214488101121428800528904890492444d248408214408111121222222222284101122805422091209248932122242840821448408112122448410228410024845041109248932124288880811224408214244448488880811402a9120228148a28c44082142082142841042444408214284081101a42282880422893212214484101122428810112122224288082180542241440291441989082142880821224484102222224488082180544410914024514642081121440811420811112284102284881001a42212442410499491081122428410214284081142881042448410402a122292604c1204922449494b8dd448128924924422892489244924492449229244249248241291482212914844228948442291482212918844924412491249228d88288aa288448810224288102142448810112244444488002222224552922449922449924492244992244992244992244992244992244992244992244992482249244924121111111149114d1225892492222222224992249148241045948848448488442211111111111121221211212291484444444444448822d14892aa2449128944028946aa21a156a8d28888881442042384102204102244a2464040201111d1888824491411092022222222444444a446914692542549924840201111d1888824491411092022222222444444a4469146925425499224494290888888448b2449922449922449922449529224499224499224499224492011111111118d88888848924411910022222222424444446a14692449559224499224048988448b24490049922449922449922449529208248a90a4a4442293a42a294a922449aa92242211118d4844922449928420818888882822d12255499224499224499224499224499224499292244992248948238a1240a24492444812242222228a48a246aa922449922449922449922449922449922425499224899244223249aa222244444444448428a4881411992455114925111191248924529524112111694422922449922412242222228a48b4485592244992244992244992244992244992a42449922449229246142580448924094924484444441491448d94244992242549922449924a92244992244992244992242211499294249148229108128968442291244992244922499224499222499224499224499224899248841491912451144595488a4844229244124922895425494844342211499224912412091211111145241a91aa2449922449922449922449922449922449499224499244440388442422492424120912111111454422510c2012258a92444a922449929224499224494992244992a42449922449529244924422122412c548249224499224299224499224492449922449922449922451120989888c24a98a88101111111111a2908868442292244922492412242222228a483422554992244992244992244992244992244992922449922489884651028844499248482412242222228a88246aa42a49922449922449922449922449922449529224499228494844469254454488888888880851484434221149922491241289201125228a884434225549922449922449922449922449922449929224499224918868142580489424894448241241224a441411894434529524499224499224499224499224499224294992244912095124a211124122118d244992244992244992244992244992244949922449922449922449922449128924892492442291482412894422914824128944229148241289442291282212452211194902481255a248525544924444882892482412492412914822918844129148442289482422912422918844128948241249442291482411894492482249928822914844642409204954a24852554492444488248a442349aa92244992249120895a2449922449922449922449428404904a1224912049d44824499224499224499224491240aa2448224192a89148922449922449922449922480544990880449349124499224499224499288882422490289888846442449a248a411115155242932490049a24a91a48888888888101111911a451a495295244922814491481111111121808888888888101111918a8888288aa2888888464444228944a22489a2288a482412452609204954892249111111111121222222352222802429092022222222444444a42222228aa228028888888808111111a911114922222222222222222222222222222222222222221289442291482412894422914824128944229148241289442289244992244992244992249192244992244992244992244992244992244992244992244992248912492232498aa228222288888808119148922449128110248ad248348a8c24298aa288882022222244442449922449448244511a8946919124455114111122222242442492244992242211248a22118d48248588480248441249442212910889482491480490002280888888888844244992244992244992244992244992244992244992244992242949922449922449229144228944124551148948c488888888880829221a11914825910410898828a924922422222222444444a446922491249144922492489224499224912412248a488d8848228924111115499224499224499224499224499224922449922449924844924812499224294989249120154551444444444444224a4a64924812952892141111111111222222522322222222228a24452689245189224911111111112122222235a22849922492249248924412499224499224224924481429464491244952144992244992249224499224494992244912499224499224928824495292244992444424890489228a28a20820222222524b9224499224494992244992244992444a22934492a8445192288aa288888888888888a4469028352201440091a82891244992244a92244992245192244992248992244992244949441249241a455114499224499224499224499224499224499292244992248988888888101111911a451a495255244992241149221241522322228a2449922449922449922449081111a989248a920812890489488d24499224499224499224499224499224499224499224499224254992244992244924922449922449499224499224499224499224499224499208898848b412894489241124120912a991244992244992244992244992244992244992244992244992a424499224499224894492244992244992244992242549922449922449922489248a92444420228188d4482291244992244991244992244922499224499224499224491289249244492222d2101111492492449c34a9459244124992485249549248b42a922455491249944022222222221a111111912489221169444444445415498a4c124092a85224292222222222444444a446914692542549924824042222122d1240924a92244992244992244992a424941a91264955922489444802895a9224499224499224499224444800a944202150123591244992244992244992244900a922901028899a489224499224499224499224805411881028d14492244992244922228988884892882489228d24a94a922491084920514b92244992244992244992840809209508240492a8892449922449922449922449024815818440123591244992244992244992244900a922102190682249922449924892888888882411115192884493a42a499244222481442d49922449922449922449122224805422901028899a489224499224499224499224805411480894448d44922449922449922449922401a44a1021c8288aa22822914814919124802451129528925415498a101111898888888844888888881091101191942449929424494444448448882212894411194902481225518922495591a4081111918888888888085144848c24a98a4824892411894824108962444591482449922449924892244992a4489224499224499224499204101111111111918892244992244992244992244992a424499224499224499224499292244992244992242a4992244992244992244992922449922449922449922489442289442291449248a22489249222894454444444249244924844442412884a8d48242a92482410115154a2888c24298aa268442292248944242249204ab4884844443522a22522429146119148240144241289888844495292244992244992124992244992244992244992244992a444229144228924924412254924911449242a2a22222222912492442222229140a991489224128904a2a85428358a244844828222091291a06024499224d140444434222249a288d452930481244952d2482322a2aa485244469200924495224955111111218a10314a4444446a08112244444488888888888888881011118a9a24082449929296d288081949529524492291482012c5224992244992244992244912222480549220890489248a914892244992244992244992248054499044824412c54824499224499224499224491240aa2448448244a289244992244992248988888888884892882411112122228a8888909124559522892492441249925445922449922492442211242211c5281289244992244912499224499214499224499224499224491240a228924422241289209188443412894412492491441249a448228924924822892489249248228924924822892449922449922409513480481425919048244122a594a42849248934522549922429499224499224499224499224499244a291245589249224499224499224492448a28924499224499224499224490891441249922411111111111111219208124524a2184992244992244992a4244992244992244992244992244992244992244992244992aa884492489244924824482412499224912846922449224924122422499224499224499224499224499224499224499224499224494a92244992244992481403884489a2241149922449922449922449929424499224499224499224491209894482442492244922514c9224499244824422499224499224499224499224499224499224499224499224494a9224499224499248148b2449922449922449922449529224499224499224499244121291209128469224499224499224294992244992244992244992244992244992244992244992a42a229124922491241209121189244992481423499224912412091291244992244992244992244992244992244992244992244992242549922449922449248a0144a24451928824499224499224499224494a9224499224499224499224898444224122124992249128264992244922412291244992244992244992244992244992244992244992244992242549922449922449245a2449922449922449922449929224499224499224499224118924499288888888888888101189244a92242211c548922449248944824492244992244992244992244992244992244992244992244992922449922449922412c588244992244992244992244952922449922449922449922442224844249224492212518c2449924492482448922449922449922449922449922449922449922449922449929424499224499224912846244992244992244992244992922449922449922449922411914892244924528c24499244924824489224499224499224499224499224499224499224499224499294244992244992249128462449922449922449922449929224499224499224499248224992244922492412412212d1281291244992244992244992248922224824222222449188469224499224499224294992244992244992244992244992244992244992244992a4288aa251a2244a92488a4814499244449224498244894644458a888824918824224992441291483222441111452291888c2401248992a84491a4aa48520411119188888888082222224444101111111145a248149128121111111111514444221149441291483222445292484492244922912051a21149922449922449922425499224499224499224499224499224499224499224499214455144a3481449922449120952a49492442549d422559224499224499224495292244992244992240920514912924890444b241289442291481289442291482412452291482412894492244992244408212222828888888808111141514b349124499224499224491211111191244a50d228922011091224920481244992441a894692542549922449224112b548922449922449922449928408092095244822414aa24622499224499224499224499200522541120952123512499224499224499224499204902a09129120259a48922449922449928888884822229224499248244894a811499224499224499224254992244992244992244992244992244992244992244992542549922449224112b5489224499224499224499284080920952448224192a89148922449922449922449922480544990448224512391244992244992244992244900a99220110992682249922449922449444444441211912449924a9224499224499224490a25a192244992242982852a841092a410428050040384104208a1244d52522a254992a42449922449922449929224a5104208102218208410420825699224294992442221908424a18426499248922412024112922449922449922449922449922449922449922449922449922429499224499224499294294992244992244992244992a42449922449922449922449290124294922498224909a5202484a1209924092244992244992244992244992244992244992244992244992242949922449922449d2244992244992244992244992a4244992244992244992244992689244d26808913009218484aa24499224499224a9a4449224519524499224492412024992b4a424499224499224499224499224496a9204904a92842441494b926a9224ab4c4992244a92209024494ad288884892244924494d92049024499224495211115108913084104255922489444802092d4992244992244992244992102101a41209240492d044922449922449922449922401a48a0412024968224992244992244992244992005225418460c2241191449244924424221211914492882428a944418200"},"methodIdentifiers":{"commitments(uint256)":"49ce8997","denomination()":"8bca6d16","deposit(uint256)":"b6b55f25","nextLeafIdx()":"45e0523f","nullifierHashes(uint256)":"1f79a1e9","roots(uint256)":"c2b40ae4","treeLevel()":"b8e79564","withdraw(uint256[2],uint256[2][2],uint256[2],uint256[2])":"c78784d7"}},"hash":"019332690ac066578bdee4409c6f27ee4c0d2ebf68fc709d5a164c2d7942afc3","factoryDependencies":{}}}}